{
    "address": "0x3ecCAdA3e11c1Cc3e9B5a53176A67cc3ABDD3E46",
    "abi": [
        {
            "inputs": [
                {
                    "internalType": "address",
                    "name": "_from",
                    "type": "address"
                },
                {
                    "internalType": "address",
                    "name": "_operator",
                    "type": "address"
                },
                {
                    "internalType": "uint256",
                    "name": "_allowance",
                    "type": "uint256"
                },
                {
                    "internalType": "uint256",
                    "name": "_value",
                    "type": "uint256"
                }
            ],
            "name": "AllowanceTooLow",
            "type": "error"
        },
        {
            "inputs": [],
            "name": "BalanceTooLow",
            "type": "error"
        },
        {
            "inputs": [
                {
                    "internalType": "address",
                    "name": "account",
                    "type": "address"
                }
            ],
            "name": "Denied",
            "type": "error"
        },
        {
            "inputs": [],
            "name": "EmptyDeposit",
            "type": "error"
        },
        {
            "inputs": [],
            "name": "ErrorOnDeposit",
            "type": "error"
        },
        {
            "inputs": [],
            "name": "InconsistentPublicKeys",
            "type": "error"
        },
        {
            "inputs": [],
            "name": "InconsistentSignatures",
            "type": "error"
        },
        {
            "inputs": [],
            "name": "InvalidArgument",
            "type": "error"
        },
        {
            "inputs": [],
            "name": "InvalidCall",
            "type": "error"
        },
        {
            "inputs": [],
            "name": "InvalidFee",
            "type": "error"
        },
        {
            "inputs": [
                {
                    "internalType": "uint256",
                    "name": "version",
                    "type": "uint256"
                },
                {
                    "internalType": "uint256",
                    "name": "expectedVersion",
                    "type": "uint256"
                }
            ],
            "name": "InvalidInitialization",
            "type": "error"
        },
        {
            "inputs": [],
            "name": "InvalidPublicKeyCount",
            "type": "error"
        },
        {
            "inputs": [],
            "name": "InvalidSignatureCount",
            "type": "error"
        },
        {
            "inputs": [
                {
                    "internalType": "uint256",
                    "name": "providedValidatorCount",
                    "type": "uint256"
                },
                {
                    "internalType": "uint256",
                    "name": "depositedValidatorCount",
                    "type": "uint256"
                }
            ],
            "name": "InvalidValidatorCountReport",
            "type": "error"
        },
        {
            "inputs": [],
            "name": "InvalidWithdrawalCredentials",
            "type": "error"
        },
        {
            "inputs": [],
            "name": "InvalidZeroAddress",
            "type": "error"
        },
        {
            "inputs": [],
            "name": "NoAvailableValidatorKeys",
            "type": "error"
        },
        {
            "inputs": [],
            "name": "NotEnoughFunds",
            "type": "error"
        },
        {
            "inputs": [],
            "name": "NullTransfer",
            "type": "error"
        },
        {
            "inputs": [],
            "name": "SliceOutOfBounds",
            "type": "error"
        },
        {
            "inputs": [],
            "name": "SliceOverflow",
            "type": "error"
        },
        {
            "inputs": [
                {
                    "internalType": "address",
                    "name": "caller",
                    "type": "address"
                }
            ],
            "name": "Unauthorized",
            "type": "error"
        },
        {
            "inputs": [
                {
                    "internalType": "address",
                    "name": "_from",
                    "type": "address"
                },
                {
                    "internalType": "address",
                    "name": "_to",
                    "type": "address"
                }
            ],
            "name": "UnauthorizedTransfer",
            "type": "error"
        },
        {
            "inputs": [],
            "name": "ZeroMintedShares",
            "type": "error"
        },
        {
            "anonymous": false,
            "inputs": [
                {
                    "indexed": true,
                    "internalType": "address",
                    "name": "owner",
                    "type": "address"
                },
                {
                    "indexed": true,
                    "internalType": "address",
                    "name": "spender",
                    "type": "address"
                },
                {
                    "indexed": false,
                    "internalType": "uint256",
                    "name": "value",
                    "type": "uint256"
                }
            ],
            "name": "Approval",
            "type": "event"
        },
        {
            "anonymous": false,
            "inputs": [
                {
                    "indexed": false,
                    "internalType": "uint256",
                    "name": "validatorCount",
                    "type": "uint256"
                },
                {
                    "indexed": false,
                    "internalType": "uint256",
                    "name": "validatorTotalBalance",
                    "type": "uint256"
                },
                {
                    "indexed": false,
                    "internalType": "bytes32",
                    "name": "roundId",
                    "type": "bytes32"
                }
            ],
            "name": "ConsensusLayerDataUpdate",
            "type": "event"
        },
        {
            "anonymous": false,
            "inputs": [
                {
                    "indexed": false,
                    "internalType": "bytes",
                    "name": "publicKey",
                    "type": "bytes"
                }
            ],
            "name": "FundedValidatorKey",
            "type": "event"
        },
        {
            "anonymous": false,
            "inputs": [
                {
                    "indexed": false,
                    "internalType": "uint256",
                    "name": "version",
                    "type": "uint256"
                },
                {
                    "indexed": false,
                    "internalType": "bytes",
                    "name": "cdata",
                    "type": "bytes"
                }
            ],
            "name": "Initialize",
            "type": "event"
        },
        {
            "anonymous": false,
            "inputs": [
                {
                    "indexed": false,
                    "internalType": "uint256",
                    "name": "amount",
                    "type": "uint256"
                }
            ],
            "name": "PulledELFees",
            "type": "event"
        },
        {
            "anonymous": false,
            "inputs": [
                {
                    "indexed": true,
                    "internalType": "address",
                    "name": "_collector",
                    "type": "address"
                },
                {
                    "indexed": false,
                    "internalType": "uint256",
                    "name": "_oldTotalUnderlyingBalance",
                    "type": "uint256"
                },
                {
                    "indexed": false,
                    "internalType": "uint256",
                    "name": "_oldTotalSupply",
                    "type": "uint256"
                },
                {
                    "indexed": false,
                    "internalType": "uint256",
                    "name": "_newTotalUnderlyingBalance",
                    "type": "uint256"
                },
                {
                    "indexed": false,
                    "internalType": "uint256",
                    "name": "_newTotalSupply",
                    "type": "uint256"
                }
            ],
            "name": "RewardsEarned",
            "type": "event"
        },
        {
            "anonymous": false,
            "inputs": [
                {
                    "indexed": true,
                    "internalType": "address",
                    "name": "admin",
                    "type": "address"
                }
            ],
            "name": "SetAdmin",
            "type": "event"
        },
        {
            "anonymous": false,
            "inputs": [
                {
                    "indexed": true,
                    "internalType": "address",
                    "name": "allowlist",
                    "type": "address"
                }
            ],
            "name": "SetAllowlist",
            "type": "event"
        },
        {
            "anonymous": false,
            "inputs": [
                {
                    "indexed": true,
                    "internalType": "address",
                    "name": "collector",
                    "type": "address"
                }
            ],
            "name": "SetCollector",
            "type": "event"
        },
        {
            "anonymous": false,
            "inputs": [
                {
                    "indexed": true,
                    "internalType": "address",
                    "name": "depositContract",
                    "type": "address"
                }
            ],
            "name": "SetDepositContractAddress",
            "type": "event"
        },
        {
            "anonymous": false,
            "inputs": [
                {
                    "indexed": true,
                    "internalType": "address",
                    "name": "elFeeRecipient",
                    "type": "address"
                }
            ],
            "name": "SetELFeeRecipient",
            "type": "event"
        },
        {
            "anonymous": false,
            "inputs": [
                {
                    "indexed": false,
                    "internalType": "uint256",
                    "name": "fee",
                    "type": "uint256"
                }
            ],
            "name": "SetGlobalFee",
            "type": "event"
        },
        {
            "anonymous": false,
            "inputs": [
                {
                    "indexed": true,
                    "internalType": "address",
                    "name": "operatorRegistry",
                    "type": "address"
                }
            ],
            "name": "SetOperatorsRegistry",
            "type": "event"
        },
        {
            "anonymous": false,
            "inputs": [
                {
                    "indexed": true,
                    "internalType": "address",
                    "name": "oracleAddress",
                    "type": "address"
                }
            ],
            "name": "SetOracle",
            "type": "event"
        },
        {
            "anonymous": false,
            "inputs": [
                {
                    "indexed": true,
                    "internalType": "address",
                    "name": "pendingAdmin",
                    "type": "address"
                }
            ],
            "name": "SetPendingAdmin",
            "type": "event"
        },
        {
            "anonymous": false,
            "inputs": [
                {
                    "indexed": false,
                    "internalType": "bytes32",
                    "name": "withdrawalCredentials",
                    "type": "bytes32"
                }
            ],
            "name": "SetWithdrawalCredentials",
            "type": "event"
        },
        {
            "anonymous": false,
            "inputs": [
                {
                    "indexed": true,
                    "internalType": "address",
                    "name": "from",
                    "type": "address"
                },
                {
                    "indexed": true,
                    "internalType": "address",
                    "name": "to",
                    "type": "address"
                },
                {
                    "indexed": false,
                    "internalType": "uint256",
                    "name": "value",
                    "type": "uint256"
                }
            ],
            "name": "Transfer",
            "type": "event"
        },
        {
            "anonymous": false,
            "inputs": [
                {
                    "indexed": true,
                    "internalType": "address",
                    "name": "depositor",
                    "type": "address"
                },
                {
                    "indexed": true,
                    "internalType": "address",
                    "name": "recipient",
                    "type": "address"
                },
                {
                    "indexed": false,
                    "internalType": "uint256",
                    "name": "amount",
                    "type": "uint256"
                }
            ],
            "name": "UserDeposit",
            "type": "event"
        },
        {
            "stateMutability": "payable",
            "type": "fallback"
        },
        {
            "inputs": [],
            "name": "DEPOSIT_SIZE",
            "outputs": [
                {
                    "internalType": "uint256",
                    "name": "",
                    "type": "uint256"
                }
            ],
            "stateMutability": "view",
            "type": "function"
        },
        {
            "inputs": [],
            "name": "PUBLIC_KEY_LENGTH",
            "outputs": [
                {
                    "internalType": "uint256",
                    "name": "",
                    "type": "uint256"
                }
            ],
            "stateMutability": "view",
            "type": "function"
        },
        {
            "inputs": [],
            "name": "SIGNATURE_LENGTH",
            "outputs": [
                {
                    "internalType": "uint256",
                    "name": "",
                    "type": "uint256"
                }
            ],
            "stateMutability": "view",
            "type": "function"
        },
        {
            "inputs": [],
            "name": "acceptAdmin",
            "outputs": [],
            "stateMutability": "nonpayable",
            "type": "function"
        },
        {
            "inputs": [
                {
                    "internalType": "address",
                    "name": "_owner",
                    "type": "address"
                },
                {
                    "internalType": "address",
                    "name": "_spender",
                    "type": "address"
                }
            ],
            "name": "allowance",
            "outputs": [
                {
                    "internalType": "uint256",
                    "name": "",
                    "type": "uint256"
                }
            ],
            "stateMutability": "view",
            "type": "function"
        },
        {
            "inputs": [
                {
                    "internalType": "address",
                    "name": "_spender",
                    "type": "address"
                },
                {
                    "internalType": "uint256",
                    "name": "_value",
                    "type": "uint256"
                }
            ],
            "name": "approve",
            "outputs": [
                {
                    "internalType": "bool",
                    "name": "",
                    "type": "bool"
                }
            ],
            "stateMutability": "nonpayable",
            "type": "function"
        },
        {
            "inputs": [
                {
                    "internalType": "address",
                    "name": "_owner",
                    "type": "address"
                }
            ],
            "name": "balanceOf",
            "outputs": [
                {
                    "internalType": "uint256",
                    "name": "",
                    "type": "uint256"
                }
            ],
            "stateMutability": "view",
            "type": "function"
        },
        {
            "inputs": [
                {
                    "internalType": "address",
                    "name": "_owner",
                    "type": "address"
                }
            ],
            "name": "balanceOfUnderlying",
            "outputs": [
                {
                    "internalType": "uint256",
                    "name": "",
                    "type": "uint256"
                }
            ],
            "stateMutability": "view",
            "type": "function"
        },
        {
            "inputs": [],
            "name": "decimals",
            "outputs": [
                {
                    "internalType": "uint8",
                    "name": "",
                    "type": "uint8"
                }
            ],
            "stateMutability": "pure",
            "type": "function"
        },
        {
            "inputs": [
                {
                    "internalType": "address",
                    "name": "_spender",
                    "type": "address"
                },
                {
                    "internalType": "uint256",
                    "name": "_subtractableValue",
                    "type": "uint256"
                }
            ],
            "name": "decreaseAllowance",
            "outputs": [
                {
                    "internalType": "bool",
                    "name": "",
                    "type": "bool"
                }
            ],
            "stateMutability": "nonpayable",
            "type": "function"
        },
        {
            "inputs": [],
            "name": "deposit",
            "outputs": [],
            "stateMutability": "payable",
            "type": "function"
        },
        {
            "inputs": [
                {
                    "internalType": "address",
                    "name": "_recipient",
                    "type": "address"
                }
            ],
            "name": "depositAndTransfer",
            "outputs": [],
            "stateMutability": "payable",
            "type": "function"
        },
        {
            "inputs": [
                {
                    "internalType": "uint256",
                    "name": "_maxCount",
                    "type": "uint256"
                }
            ],
            "name": "depositToConsensusLayer",
            "outputs": [],
            "stateMutability": "nonpayable",
            "type": "function"
        },
        {
            "inputs": [],
            "name": "getAdmin",
            "outputs": [
                {
                    "internalType": "address",
                    "name": "",
                    "type": "address"
                }
            ],
            "stateMutability": "view",
            "type": "function"
        },
        {
            "inputs": [],
            "name": "getAllowlist",
            "outputs": [
                {
                    "internalType": "address",
                    "name": "",
                    "type": "address"
                }
            ],
            "stateMutability": "view",
            "type": "function"
        },
        {
            "inputs": [],
            "name": "getBalanceToDeposit",
            "outputs": [
                {
                    "internalType": "uint256",
                    "name": "",
                    "type": "uint256"
                }
            ],
            "stateMutability": "view",
            "type": "function"
        },
        {
            "inputs": [],
            "name": "getCLValidatorCount",
            "outputs": [
                {
                    "internalType": "uint256",
                    "name": "",
                    "type": "uint256"
                }
            ],
            "stateMutability": "view",
            "type": "function"
        },
        {
            "inputs": [],
            "name": "getCLValidatorTotalBalance",
            "outputs": [
                {
                    "internalType": "uint256",
                    "name": "",
                    "type": "uint256"
                }
            ],
            "stateMutability": "view",
            "type": "function"
        },
        {
            "inputs": [],
            "name": "getCollector",
            "outputs": [
                {
                    "internalType": "address",
                    "name": "",
                    "type": "address"
                }
            ],
            "stateMutability": "view",
            "type": "function"
        },
        {
            "inputs": [],
            "name": "getDepositedValidatorCount",
            "outputs": [
                {
                    "internalType": "uint256",
                    "name": "",
                    "type": "uint256"
                }
            ],
            "stateMutability": "view",
            "type": "function"
        },
        {
            "inputs": [],
            "name": "getELFeeRecipient",
            "outputs": [
                {
                    "internalType": "address",
                    "name": "",
                    "type": "address"
                }
            ],
            "stateMutability": "view",
            "type": "function"
        },
        {
            "inputs": [],
            "name": "getGlobalFee",
            "outputs": [
                {
                    "internalType": "uint256",
                    "name": "",
                    "type": "uint256"
                }
            ],
            "stateMutability": "view",
            "type": "function"
        },
        {
            "inputs": [],
            "name": "getOperatorsRegistry",
            "outputs": [
                {
                    "internalType": "address",
                    "name": "",
                    "type": "address"
                }
            ],
            "stateMutability": "view",
            "type": "function"
        },
        {
            "inputs": [],
            "name": "getOracle",
            "outputs": [
                {
                    "internalType": "address",
                    "name": "",
                    "type": "address"
                }
            ],
            "stateMutability": "view",
            "type": "function"
        },
        {
            "inputs": [],
            "name": "getPendingAdmin",
            "outputs": [
                {
                    "internalType": "address",
                    "name": "",
                    "type": "address"
                }
            ],
            "stateMutability": "view",
            "type": "function"
        },
        {
            "inputs": [],
            "name": "getWithdrawalCredentials",
            "outputs": [
                {
                    "internalType": "bytes32",
                    "name": "",
                    "type": "bytes32"
                }
            ],
            "stateMutability": "view",
            "type": "function"
        },
        {
            "inputs": [
                {
                    "internalType": "address",
                    "name": "_spender",
                    "type": "address"
                },
                {
                    "internalType": "uint256",
                    "name": "_additionalValue",
                    "type": "uint256"
                }
            ],
            "name": "increaseAllowance",
            "outputs": [
                {
                    "internalType": "bool",
                    "name": "",
                    "type": "bool"
                }
            ],
            "stateMutability": "nonpayable",
            "type": "function"
        },
        {
            "inputs": [
                {
                    "internalType": "address",
                    "name": "_depositContractAddress",
                    "type": "address"
                },
                {
                    "internalType": "address",
                    "name": "_elFeeRecipientAddress",
                    "type": "address"
                },
                {
                    "internalType": "bytes32",
                    "name": "_withdrawalCredentials",
                    "type": "bytes32"
                },
                {
                    "internalType": "address",
                    "name": "_oracleAddress",
                    "type": "address"
                },
                {
                    "internalType": "address",
                    "name": "_systemAdministratorAddress",
                    "type": "address"
                },
                {
                    "internalType": "address",
                    "name": "_allowlistAddress",
                    "type": "address"
                },
                {
                    "internalType": "address",
                    "name": "_operatorRegistryAddress",
                    "type": "address"
                },
                {
                    "internalType": "address",
                    "name": "_collectorAddress",
                    "type": "address"
                },
                {
                    "internalType": "uint256",
                    "name": "_globalFee",
                    "type": "uint256"
                }
            ],
            "name": "initRiverV1",
            "outputs": [],
            "stateMutability": "nonpayable",
            "type": "function"
        },
        {
            "inputs": [],
            "name": "name",
            "outputs": [
                {
                    "internalType": "string",
                    "name": "",
                    "type": "string"
                }
            ],
            "stateMutability": "pure",
            "type": "function"
        },
        {
            "inputs": [
                {
                    "internalType": "address",
                    "name": "_newAdmin",
                    "type": "address"
                }
            ],
            "name": "proposeAdmin",
            "outputs": [],
            "stateMutability": "nonpayable",
            "type": "function"
        },
        {
            "inputs": [],
            "name": "sendELFees",
            "outputs": [],
            "stateMutability": "payable",
            "type": "function"
        },
        {
            "inputs": [
                {
                    "internalType": "address",
                    "name": "_newAllowlist",
                    "type": "address"
                }
            ],
            "name": "setAllowlist",
            "outputs": [],
            "stateMutability": "nonpayable",
            "type": "function"
        },
        {
            "inputs": [
                {
                    "internalType": "address",
                    "name": "_newCollector",
                    "type": "address"
                }
            ],
            "name": "setCollector",
            "outputs": [],
            "stateMutability": "nonpayable",
            "type": "function"
        },
        {
            "inputs": [
                {
                    "internalType": "uint256",
                    "name": "_validatorCount",
                    "type": "uint256"
                },
                {
                    "internalType": "uint256",
                    "name": "_validatorTotalBalance",
                    "type": "uint256"
                },
                {
                    "internalType": "bytes32",
                    "name": "_roundId",
                    "type": "bytes32"
                },
                {
                    "internalType": "uint256",
                    "name": "_maxIncrease",
                    "type": "uint256"
                }
            ],
            "name": "setConsensusLayerData",
            "outputs": [],
            "stateMutability": "nonpayable",
            "type": "function"
        },
        {
            "inputs": [
                {
                    "internalType": "address",
                    "name": "_newELFeeRecipient",
                    "type": "address"
                }
            ],
            "name": "setELFeeRecipient",
            "outputs": [],
            "stateMutability": "nonpayable",
            "type": "function"
        },
        {
            "inputs": [
                {
                    "internalType": "uint256",
                    "name": "newFee",
                    "type": "uint256"
                }
            ],
            "name": "setGlobalFee",
            "outputs": [],
            "stateMutability": "nonpayable",
            "type": "function"
        },
        {
            "inputs": [
                {
                    "internalType": "address",
                    "name": "_oracleAddress",
                    "type": "address"
                }
            ],
            "name": "setOracle",
            "outputs": [],
            "stateMutability": "nonpayable",
            "type": "function"
        },
        {
            "inputs": [
                {
                    "internalType": "uint256",
                    "name": "_underlyingAssetAmount",
                    "type": "uint256"
                }
            ],
            "name": "sharesFromUnderlyingBalance",
            "outputs": [
                {
                    "internalType": "uint256",
                    "name": "",
                    "type": "uint256"
                }
            ],
            "stateMutability": "view",
            "type": "function"
        },
        {
            "inputs": [],
            "name": "symbol",
            "outputs": [
                {
                    "internalType": "string",
                    "name": "",
                    "type": "string"
                }
            ],
            "stateMutability": "pure",
            "type": "function"
        },
        {
            "inputs": [],
            "name": "totalSupply",
            "outputs": [
                {
                    "internalType": "uint256",
                    "name": "",
                    "type": "uint256"
                }
            ],
            "stateMutability": "view",
            "type": "function"
        },
        {
            "inputs": [],
            "name": "totalUnderlyingSupply",
            "outputs": [
                {
                    "internalType": "uint256",
                    "name": "",
                    "type": "uint256"
                }
            ],
            "stateMutability": "view",
            "type": "function"
        },
        {
            "inputs": [
                {
                    "internalType": "address",
                    "name": "_to",
                    "type": "address"
                },
                {
                    "internalType": "uint256",
                    "name": "_value",
                    "type": "uint256"
                }
            ],
            "name": "transfer",
            "outputs": [
                {
                    "internalType": "bool",
                    "name": "",
                    "type": "bool"
                }
            ],
            "stateMutability": "nonpayable",
            "type": "function"
        },
        {
            "inputs": [
                {
                    "internalType": "address",
                    "name": "_from",
                    "type": "address"
                },
                {
                    "internalType": "address",
                    "name": "_to",
                    "type": "address"
                },
                {
                    "internalType": "uint256",
                    "name": "_value",
                    "type": "uint256"
                }
            ],
            "name": "transferFrom",
            "outputs": [
                {
                    "internalType": "bool",
                    "name": "",
                    "type": "bool"
                }
            ],
            "stateMutability": "nonpayable",
            "type": "function"
        },
        {
            "inputs": [
                {
                    "internalType": "uint256",
                    "name": "_shares",
                    "type": "uint256"
                }
            ],
            "name": "underlyingBalanceFromShares",
            "outputs": [
                {
                    "internalType": "uint256",
                    "name": "",
                    "type": "uint256"
                }
            ],
            "stateMutability": "view",
            "type": "function"
        },
        {
            "stateMutability": "payable",
            "type": "receive"
        },
        {
            "inputs": [
                {
                    "internalType": "address",
                    "name": "_from",
                    "type": "address"
                },
                {
                    "internalType": "address",
                    "name": "_operator",
                    "type": "address"
                },
                {
                    "internalType": "uint256",
                    "name": "_allowance",
                    "type": "uint256"
                },
                {
                    "internalType": "uint256",
                    "name": "_value",
                    "type": "uint256"
                }
            ],
            "name": "AllowanceTooLow",
            "type": "error"
        },
        {
            "inputs": [],
            "name": "BalanceTooLow",
            "type": "error"
        },
        {
            "inputs": [
                {
                    "internalType": "address",
                    "name": "account",
                    "type": "address"
                }
            ],
            "name": "Denied",
            "type": "error"
        },
        {
            "inputs": [],
            "name": "EmptyDeposit",
            "type": "error"
        },
        {
            "inputs": [],
            "name": "ErrorOnDeposit",
            "type": "error"
        },
        {
            "inputs": [],
            "name": "InconsistentPublicKeys",
            "type": "error"
        },
        {
            "inputs": [],
            "name": "InconsistentSignatures",
            "type": "error"
        },
        {
            "inputs": [],
            "name": "InvalidArgument",
            "type": "error"
        },
        {
            "inputs": [],
            "name": "InvalidCall",
            "type": "error"
        },
        {
            "inputs": [],
            "name": "InvalidFee",
            "type": "error"
        },
        {
            "inputs": [
                {
                    "internalType": "uint256",
                    "name": "version",
                    "type": "uint256"
                },
                {
                    "internalType": "uint256",
                    "name": "expectedVersion",
                    "type": "uint256"
                }
            ],
            "name": "InvalidInitialization",
            "type": "error"
        },
        {
            "inputs": [],
            "name": "InvalidPublicKeyCount",
            "type": "error"
        },
        {
            "inputs": [],
            "name": "InvalidSignatureCount",
            "type": "error"
        },
        {
            "inputs": [
                {
                    "internalType": "uint256",
                    "name": "providedValidatorCount",
                    "type": "uint256"
                },
                {
                    "internalType": "uint256",
                    "name": "depositedValidatorCount",
                    "type": "uint256"
                }
            ],
            "name": "InvalidValidatorCountReport",
            "type": "error"
        },
        {
            "inputs": [],
            "name": "InvalidWithdrawalCredentials",
            "type": "error"
        },
        {
            "inputs": [],
            "name": "InvalidZeroAddress",
            "type": "error"
        },
        {
            "inputs": [],
            "name": "NoAvailableValidatorKeys",
            "type": "error"
        },
        {
            "inputs": [],
            "name": "NotEnoughFunds",
            "type": "error"
        },
        {
            "inputs": [],
            "name": "NullTransfer",
            "type": "error"
        },
        {
            "inputs": [],
            "name": "SliceOutOfBounds",
            "type": "error"
        },
        {
            "inputs": [],
            "name": "SliceOverflow",
            "type": "error"
        },
        {
            "inputs": [
                {
                    "internalType": "address",
                    "name": "caller",
                    "type": "address"
                }
            ],
            "name": "Unauthorized",
            "type": "error"
        },
        {
            "inputs": [
                {
                    "internalType": "address",
                    "name": "_from",
                    "type": "address"
                },
                {
                    "internalType": "address",
                    "name": "_to",
                    "type": "address"
                }
            ],
            "name": "UnauthorizedTransfer",
            "type": "error"
        },
        {
            "inputs": [],
            "name": "ZeroMintedShares",
            "type": "error"
        },
        {
            "anonymous": false,
            "inputs": [
                {
                    "indexed": true,
                    "internalType": "address",
                    "name": "owner",
                    "type": "address"
                },
                {
                    "indexed": true,
                    "internalType": "address",
                    "name": "spender",
                    "type": "address"
                },
                {
                    "indexed": false,
                    "internalType": "uint256",
                    "name": "value",
                    "type": "uint256"
                }
            ],
            "name": "Approval",
            "type": "event"
        },
        {
            "anonymous": false,
            "inputs": [
                {
                    "indexed": false,
                    "internalType": "uint256",
                    "name": "validatorCount",
                    "type": "uint256"
                },
                {
                    "indexed": false,
                    "internalType": "uint256",
                    "name": "validatorTotalBalance",
                    "type": "uint256"
                },
                {
                    "indexed": false,
                    "internalType": "bytes32",
                    "name": "roundId",
                    "type": "bytes32"
                }
            ],
            "name": "ConsensusLayerDataUpdate",
            "type": "event"
        },
        {
            "anonymous": false,
            "inputs": [
                {
                    "indexed": false,
                    "internalType": "bytes",
                    "name": "publicKey",
                    "type": "bytes"
                }
            ],
            "name": "FundedValidatorKey",
            "type": "event"
        },
        {
            "anonymous": false,
            "inputs": [
                {
                    "indexed": false,
                    "internalType": "uint256",
                    "name": "version",
                    "type": "uint256"
                },
                {
                    "indexed": false,
                    "internalType": "bytes",
                    "name": "cdata",
                    "type": "bytes"
                }
            ],
            "name": "Initialize",
            "type": "event"
        },
        {
            "anonymous": false,
            "inputs": [
                {
                    "indexed": false,
                    "internalType": "uint256",
                    "name": "amount",
                    "type": "uint256"
                }
            ],
            "name": "PulledELFees",
            "type": "event"
        },
        {
            "anonymous": false,
            "inputs": [
                {
                    "indexed": true,
                    "internalType": "address",
                    "name": "_collector",
                    "type": "address"
                },
                {
                    "indexed": false,
                    "internalType": "uint256",
                    "name": "_oldTotalUnderlyingBalance",
                    "type": "uint256"
                },
                {
                    "indexed": false,
                    "internalType": "uint256",
                    "name": "_oldTotalSupply",
                    "type": "uint256"
                },
                {
                    "indexed": false,
                    "internalType": "uint256",
                    "name": "_newTotalUnderlyingBalance",
                    "type": "uint256"
                },
                {
                    "indexed": false,
                    "internalType": "uint256",
                    "name": "_newTotalSupply",
                    "type": "uint256"
                }
            ],
            "name": "RewardsEarned",
            "type": "event"
        },
        {
            "anonymous": false,
            "inputs": [
                {
                    "indexed": true,
                    "internalType": "address",
                    "name": "admin",
                    "type": "address"
                }
            ],
            "name": "SetAdmin",
            "type": "event"
        },
        {
            "anonymous": false,
            "inputs": [
                {
                    "indexed": true,
                    "internalType": "address",
                    "name": "allowlist",
                    "type": "address"
                }
            ],
            "name": "SetAllowlist",
            "type": "event"
        },
        {
            "anonymous": false,
            "inputs": [
                {
                    "indexed": true,
                    "internalType": "address",
                    "name": "collector",
                    "type": "address"
                }
            ],
            "name": "SetCollector",
            "type": "event"
        },
        {
            "anonymous": false,
            "inputs": [
                {
                    "indexed": true,
                    "internalType": "address",
                    "name": "depositContract",
                    "type": "address"
                }
            ],
            "name": "SetDepositContractAddress",
            "type": "event"
        },
        {
            "anonymous": false,
            "inputs": [
                {
                    "indexed": true,
                    "internalType": "address",
                    "name": "elFeeRecipient",
                    "type": "address"
                }
            ],
            "name": "SetELFeeRecipient",
            "type": "event"
        },
        {
            "anonymous": false,
            "inputs": [
                {
                    "indexed": false,
                    "internalType": "uint256",
                    "name": "fee",
                    "type": "uint256"
                }
            ],
            "name": "SetGlobalFee",
            "type": "event"
        },
        {
            "anonymous": false,
            "inputs": [
                {
                    "indexed": true,
                    "internalType": "address",
                    "name": "operatorRegistry",
                    "type": "address"
                }
            ],
            "name": "SetOperatorsRegistry",
            "type": "event"
        },
        {
            "anonymous": false,
            "inputs": [
                {
                    "indexed": true,
                    "internalType": "address",
                    "name": "oracleAddress",
                    "type": "address"
                }
            ],
            "name": "SetOracle",
            "type": "event"
        },
        {
            "anonymous": false,
            "inputs": [
                {
                    "indexed": true,
                    "internalType": "address",
                    "name": "pendingAdmin",
                    "type": "address"
                }
            ],
            "name": "SetPendingAdmin",
            "type": "event"
        },
        {
            "anonymous": false,
            "inputs": [
                {
                    "indexed": false,
                    "internalType": "bytes32",
                    "name": "withdrawalCredentials",
                    "type": "bytes32"
                }
            ],
            "name": "SetWithdrawalCredentials",
            "type": "event"
        },
        {
            "anonymous": false,
            "inputs": [
                {
                    "indexed": true,
                    "internalType": "address",
                    "name": "from",
                    "type": "address"
                },
                {
                    "indexed": true,
                    "internalType": "address",
                    "name": "to",
                    "type": "address"
                },
                {
                    "indexed": false,
                    "internalType": "uint256",
                    "name": "value",
                    "type": "uint256"
                }
            ],
            "name": "Transfer",
            "type": "event"
        },
        {
            "anonymous": false,
            "inputs": [
                {
                    "indexed": true,
                    "internalType": "address",
                    "name": "depositor",
                    "type": "address"
                },
                {
                    "indexed": true,
                    "internalType": "address",
                    "name": "recipient",
                    "type": "address"
                },
                {
                    "indexed": false,
                    "internalType": "uint256",
                    "name": "amount",
                    "type": "uint256"
                }
            ],
            "name": "UserDeposit",
            "type": "event"
        },
        {
            "stateMutability": "payable",
            "type": "fallback"
        },
        {
            "inputs": [],
            "name": "DEPOSIT_SIZE",
            "outputs": [
                {
                    "internalType": "uint256",
                    "name": "",
                    "type": "uint256"
                }
            ],
            "stateMutability": "view",
            "type": "function"
        },
        {
            "inputs": [],
            "name": "PUBLIC_KEY_LENGTH",
            "outputs": [
                {
                    "internalType": "uint256",
                    "name": "",
                    "type": "uint256"
                }
            ],
            "stateMutability": "view",
            "type": "function"
        },
        {
            "inputs": [],
            "name": "SIGNATURE_LENGTH",
            "outputs": [
                {
                    "internalType": "uint256",
                    "name": "",
                    "type": "uint256"
                }
            ],
            "stateMutability": "view",
            "type": "function"
        },
        {
            "inputs": [],
            "name": "acceptAdmin",
            "outputs": [],
            "stateMutability": "nonpayable",
            "type": "function"
        },
        {
            "inputs": [
                {
                    "internalType": "address",
                    "name": "_owner",
                    "type": "address"
                },
                {
                    "internalType": "address",
                    "name": "_spender",
                    "type": "address"
                }
            ],
            "name": "allowance",
            "outputs": [
                {
                    "internalType": "uint256",
                    "name": "",
                    "type": "uint256"
                }
            ],
            "stateMutability": "view",
            "type": "function"
        },
        {
            "inputs": [
                {
                    "internalType": "address",
                    "name": "_spender",
                    "type": "address"
                },
                {
                    "internalType": "uint256",
                    "name": "_value",
                    "type": "uint256"
                }
            ],
            "name": "approve",
            "outputs": [
                {
                    "internalType": "bool",
                    "name": "",
                    "type": "bool"
                }
            ],
            "stateMutability": "nonpayable",
            "type": "function"
        },
        {
            "inputs": [
                {
                    "internalType": "address",
                    "name": "_owner",
                    "type": "address"
                }
            ],
            "name": "balanceOf",
            "outputs": [
                {
                    "internalType": "uint256",
                    "name": "",
                    "type": "uint256"
                }
            ],
            "stateMutability": "view",
            "type": "function"
        },
        {
            "inputs": [
                {
                    "internalType": "address",
                    "name": "_owner",
                    "type": "address"
                }
            ],
            "name": "balanceOfUnderlying",
            "outputs": [
                {
                    "internalType": "uint256",
                    "name": "",
                    "type": "uint256"
                }
            ],
            "stateMutability": "view",
            "type": "function"
        },
        {
            "inputs": [],
            "name": "decimals",
            "outputs": [
                {
                    "internalType": "uint8",
                    "name": "",
                    "type": "uint8"
                }
            ],
            "stateMutability": "pure",
            "type": "function"
        },
        {
            "inputs": [
                {
                    "internalType": "address",
                    "name": "_spender",
                    "type": "address"
                },
                {
                    "internalType": "uint256",
                    "name": "_subtractableValue",
                    "type": "uint256"
                }
            ],
            "name": "decreaseAllowance",
            "outputs": [
                {
                    "internalType": "bool",
                    "name": "",
                    "type": "bool"
                }
            ],
            "stateMutability": "nonpayable",
            "type": "function"
        },
        {
            "inputs": [],
            "name": "deposit",
            "outputs": [],
            "stateMutability": "payable",
            "type": "function"
        },
        {
            "inputs": [
                {
                    "internalType": "address",
                    "name": "_recipient",
                    "type": "address"
                }
            ],
            "name": "depositAndTransfer",
            "outputs": [],
            "stateMutability": "payable",
            "type": "function"
        },
        {
            "inputs": [
                {
                    "internalType": "uint256",
                    "name": "_maxCount",
                    "type": "uint256"
                }
            ],
            "name": "depositToConsensusLayer",
            "outputs": [],
            "stateMutability": "nonpayable",
            "type": "function"
        },
        {
            "inputs": [],
            "name": "getAdmin",
            "outputs": [
                {
                    "internalType": "address",
                    "name": "",
                    "type": "address"
                }
            ],
            "stateMutability": "view",
            "type": "function"
        },
        {
            "inputs": [],
            "name": "getAllowlist",
            "outputs": [
                {
                    "internalType": "address",
                    "name": "",
                    "type": "address"
                }
            ],
            "stateMutability": "view",
            "type": "function"
        },
        {
            "inputs": [],
            "name": "getBalanceToDeposit",
            "outputs": [
                {
                    "internalType": "uint256",
                    "name": "",
                    "type": "uint256"
                }
            ],
            "stateMutability": "view",
            "type": "function"
        },
        {
            "inputs": [],
            "name": "getCLValidatorCount",
            "outputs": [
                {
                    "internalType": "uint256",
                    "name": "",
                    "type": "uint256"
                }
            ],
            "stateMutability": "view",
            "type": "function"
        },
        {
            "inputs": [],
            "name": "getCLValidatorTotalBalance",
            "outputs": [
                {
                    "internalType": "uint256",
                    "name": "",
                    "type": "uint256"
                }
            ],
            "stateMutability": "view",
            "type": "function"
        },
        {
            "inputs": [],
            "name": "getCollector",
            "outputs": [
                {
                    "internalType": "address",
                    "name": "",
                    "type": "address"
                }
            ],
            "stateMutability": "view",
            "type": "function"
        },
        {
            "inputs": [],
            "name": "getDepositedValidatorCount",
            "outputs": [
                {
                    "internalType": "uint256",
                    "name": "",
                    "type": "uint256"
                }
            ],
            "stateMutability": "view",
            "type": "function"
        },
        {
            "inputs": [],
            "name": "getELFeeRecipient",
            "outputs": [
                {
                    "internalType": "address",
                    "name": "",
                    "type": "address"
                }
            ],
            "stateMutability": "view",
            "type": "function"
        },
        {
            "inputs": [],
            "name": "getGlobalFee",
            "outputs": [
                {
                    "internalType": "uint256",
                    "name": "",
                    "type": "uint256"
                }
            ],
            "stateMutability": "view",
            "type": "function"
        },
        {
            "inputs": [],
            "name": "getOperatorsRegistry",
            "outputs": [
                {
                    "internalType": "address",
                    "name": "",
                    "type": "address"
                }
            ],
            "stateMutability": "view",
            "type": "function"
        },
        {
            "inputs": [],
            "name": "getOracle",
            "outputs": [
                {
                    "internalType": "address",
                    "name": "",
                    "type": "address"
                }
            ],
            "stateMutability": "view",
            "type": "function"
        },
        {
            "inputs": [],
            "name": "getPendingAdmin",
            "outputs": [
                {
                    "internalType": "address",
                    "name": "",
                    "type": "address"
                }
            ],
            "stateMutability": "view",
            "type": "function"
        },
        {
            "inputs": [],
            "name": "getWithdrawalCredentials",
            "outputs": [
                {
                    "internalType": "bytes32",
                    "name": "",
                    "type": "bytes32"
                }
            ],
            "stateMutability": "view",
            "type": "function"
        },
        {
            "inputs": [
                {
                    "internalType": "address",
                    "name": "_spender",
                    "type": "address"
                },
                {
                    "internalType": "uint256",
                    "name": "_additionalValue",
                    "type": "uint256"
                }
            ],
            "name": "increaseAllowance",
            "outputs": [
                {
                    "internalType": "bool",
                    "name": "",
                    "type": "bool"
                }
            ],
            "stateMutability": "nonpayable",
            "type": "function"
        },
        {
            "inputs": [
                {
                    "internalType": "address",
                    "name": "_depositContractAddress",
                    "type": "address"
                },
                {
                    "internalType": "address",
                    "name": "_elFeeRecipientAddress",
                    "type": "address"
                },
                {
                    "internalType": "bytes32",
                    "name": "_withdrawalCredentials",
                    "type": "bytes32"
                },
                {
                    "internalType": "address",
                    "name": "_oracleAddress",
                    "type": "address"
                },
                {
                    "internalType": "address",
                    "name": "_systemAdministratorAddress",
                    "type": "address"
                },
                {
                    "internalType": "address",
                    "name": "_allowlistAddress",
                    "type": "address"
                },
                {
                    "internalType": "address",
                    "name": "_operatorRegistryAddress",
                    "type": "address"
                },
                {
                    "internalType": "address",
                    "name": "_collectorAddress",
                    "type": "address"
                },
                {
                    "internalType": "uint256",
                    "name": "_globalFee",
                    "type": "uint256"
                }
            ],
            "name": "initRiverV1",
            "outputs": [],
            "stateMutability": "nonpayable",
            "type": "function"
        },
        {
            "inputs": [],
            "name": "name",
            "outputs": [
                {
                    "internalType": "string",
                    "name": "",
                    "type": "string"
                }
            ],
            "stateMutability": "pure",
            "type": "function"
        },
        {
            "inputs": [
                {
                    "internalType": "address",
                    "name": "_newAdmin",
                    "type": "address"
                }
            ],
            "name": "proposeAdmin",
            "outputs": [],
            "stateMutability": "nonpayable",
            "type": "function"
        },
        {
            "inputs": [],
            "name": "sendELFees",
            "outputs": [],
            "stateMutability": "payable",
            "type": "function"
        },
        {
            "inputs": [
                {
                    "internalType": "address",
                    "name": "_newAllowlist",
                    "type": "address"
                }
            ],
            "name": "setAllowlist",
            "outputs": [],
            "stateMutability": "nonpayable",
            "type": "function"
        },
        {
            "inputs": [
                {
                    "internalType": "address",
                    "name": "_newCollector",
                    "type": "address"
                }
            ],
            "name": "setCollector",
            "outputs": [],
            "stateMutability": "nonpayable",
            "type": "function"
        },
        {
            "inputs": [
                {
                    "internalType": "uint256",
                    "name": "_validatorCount",
                    "type": "uint256"
                },
                {
                    "internalType": "uint256",
                    "name": "_validatorTotalBalance",
                    "type": "uint256"
                },
                {
                    "internalType": "bytes32",
                    "name": "_roundId",
                    "type": "bytes32"
                },
                {
                    "internalType": "uint256",
                    "name": "_maxIncrease",
                    "type": "uint256"
                }
            ],
            "name": "setConsensusLayerData",
            "outputs": [],
            "stateMutability": "nonpayable",
            "type": "function"
        },
        {
            "inputs": [
                {
                    "internalType": "address",
                    "name": "_newELFeeRecipient",
                    "type": "address"
                }
            ],
            "name": "setELFeeRecipient",
            "outputs": [],
            "stateMutability": "nonpayable",
            "type": "function"
        },
        {
            "inputs": [
                {
                    "internalType": "uint256",
                    "name": "newFee",
                    "type": "uint256"
                }
            ],
            "name": "setGlobalFee",
            "outputs": [],
            "stateMutability": "nonpayable",
            "type": "function"
        },
        {
            "inputs": [
                {
                    "internalType": "address",
                    "name": "_oracleAddress",
                    "type": "address"
                }
            ],
            "name": "setOracle",
            "outputs": [],
            "stateMutability": "nonpayable",
            "type": "function"
        },
        {
            "inputs": [
                {
                    "internalType": "uint256",
                    "name": "_underlyingAssetAmount",
                    "type": "uint256"
                }
            ],
            "name": "sharesFromUnderlyingBalance",
            "outputs": [
                {
                    "internalType": "uint256",
                    "name": "",
                    "type": "uint256"
                }
            ],
            "stateMutability": "view",
            "type": "function"
        },
        {
            "inputs": [],
            "name": "symbol",
            "outputs": [
                {
                    "internalType": "string",
                    "name": "",
                    "type": "string"
                }
            ],
            "stateMutability": "pure",
            "type": "function"
        },
        {
            "inputs": [],
            "name": "totalSupply",
            "outputs": [
                {
                    "internalType": "uint256",
                    "name": "",
                    "type": "uint256"
                }
            ],
            "stateMutability": "view",
            "type": "function"
        },
        {
            "inputs": [],
            "name": "totalUnderlyingSupply",
            "outputs": [
                {
                    "internalType": "uint256",
                    "name": "",
                    "type": "uint256"
                }
            ],
            "stateMutability": "view",
            "type": "function"
        },
        {
            "inputs": [
                {
                    "internalType": "address",
                    "name": "_to",
                    "type": "address"
                },
                {
                    "internalType": "uint256",
                    "name": "_value",
                    "type": "uint256"
                }
            ],
            "name": "transfer",
            "outputs": [
                {
                    "internalType": "bool",
                    "name": "",
                    "type": "bool"
                }
            ],
            "stateMutability": "nonpayable",
            "type": "function"
        },
        {
            "inputs": [
                {
                    "internalType": "address",
                    "name": "_from",
                    "type": "address"
                },
                {
                    "internalType": "address",
                    "name": "_to",
                    "type": "address"
                },
                {
                    "internalType": "uint256",
                    "name": "_value",
                    "type": "uint256"
                }
            ],
            "name": "transferFrom",
            "outputs": [
                {
                    "internalType": "bool",
                    "name": "",
                    "type": "bool"
                }
            ],
            "stateMutability": "nonpayable",
            "type": "function"
        },
        {
            "inputs": [
                {
                    "internalType": "uint256",
                    "name": "_shares",
                    "type": "uint256"
                }
            ],
            "name": "underlyingBalanceFromShares",
            "outputs": [
                {
                    "internalType": "uint256",
                    "name": "",
                    "type": "uint256"
                }
            ],
            "stateMutability": "view",
            "type": "function"
        },
        {
            "stateMutability": "payable",
            "type": "receive"
        },
        {
            "inputs": [
                {
                    "internalType": "address",
                    "name": "_from",
                    "type": "address"
                },
                {
                    "internalType": "address",
                    "name": "_operator",
                    "type": "address"
                },
                {
                    "internalType": "uint256",
                    "name": "_allowance",
                    "type": "uint256"
                },
                {
                    "internalType": "uint256",
                    "name": "_value",
                    "type": "uint256"
                }
            ],
            "name": "AllowanceTooLow",
            "type": "error"
        },
        {
            "inputs": [],
            "name": "BalanceTooLow",
            "type": "error"
        },
        {
            "inputs": [
                {
                    "internalType": "address",
                    "name": "account",
                    "type": "address"
                }
            ],
            "name": "Denied",
            "type": "error"
        },
        {
            "inputs": [],
            "name": "EmptyDeposit",
            "type": "error"
        },
        {
            "inputs": [],
            "name": "ErrorOnDeposit",
            "type": "error"
        },
        {
            "inputs": [],
            "name": "InconsistentPublicKeys",
            "type": "error"
        },
        {
            "inputs": [],
            "name": "InconsistentSignatures",
            "type": "error"
        },
        {
            "inputs": [],
            "name": "InvalidArgument",
            "type": "error"
        },
        {
            "inputs": [],
            "name": "InvalidCall",
            "type": "error"
        },
        {
            "inputs": [],
            "name": "InvalidEmptyString",
            "type": "error"
        },
        {
            "inputs": [],
            "name": "InvalidFee",
            "type": "error"
        },
        {
            "inputs": [
                {
                    "internalType": "uint256",
                    "name": "version",
                    "type": "uint256"
                },
                {
                    "internalType": "uint256",
                    "name": "expectedVersion",
                    "type": "uint256"
                }
            ],
            "name": "InvalidInitialization",
            "type": "error"
        },
        {
            "inputs": [],
            "name": "InvalidPublicKeyCount",
            "type": "error"
        },
        {
            "inputs": [],
            "name": "InvalidSignatureCount",
            "type": "error"
        },
        {
            "inputs": [
                {
                    "internalType": "uint256",
                    "name": "providedValidatorCount",
                    "type": "uint256"
                },
                {
                    "internalType": "uint256",
                    "name": "depositedValidatorCount",
                    "type": "uint256"
                }
            ],
            "name": "InvalidValidatorCountReport",
            "type": "error"
        },
        {
            "inputs": [],
            "name": "InvalidWithdrawalCredentials",
            "type": "error"
        },
        {
            "inputs": [],
            "name": "InvalidZeroAddress",
            "type": "error"
        },
        {
            "inputs": [],
            "name": "NoAvailableValidatorKeys",
            "type": "error"
        },
        {
            "inputs": [],
            "name": "NotEnoughFunds",
            "type": "error"
        },
        {
            "inputs": [],
            "name": "NullTransfer",
            "type": "error"
        },
        {
            "inputs": [],
            "name": "SliceOutOfBounds",
            "type": "error"
        },
        {
            "inputs": [],
            "name": "SliceOverflow",
            "type": "error"
        },
        {
            "inputs": [
                {
                    "internalType": "address",
                    "name": "caller",
                    "type": "address"
                }
            ],
            "name": "Unauthorized",
            "type": "error"
        },
        {
            "inputs": [
                {
                    "internalType": "address",
                    "name": "_from",
                    "type": "address"
                },
                {
                    "internalType": "address",
                    "name": "_to",
                    "type": "address"
                }
            ],
            "name": "UnauthorizedTransfer",
            "type": "error"
        },
        {
            "inputs": [],
            "name": "ZeroMintedShares",
            "type": "error"
        },
        {
            "anonymous": false,
            "inputs": [
                {
                    "indexed": true,
                    "internalType": "address",
                    "name": "owner",
                    "type": "address"
                },
                {
                    "indexed": true,
                    "internalType": "address",
                    "name": "spender",
                    "type": "address"
                },
                {
                    "indexed": false,
                    "internalType": "uint256",
                    "name": "value",
                    "type": "uint256"
                }
            ],
            "name": "Approval",
            "type": "event"
        },
        {
            "anonymous": false,
            "inputs": [
                {
                    "indexed": false,
                    "internalType": "uint256",
                    "name": "validatorCount",
                    "type": "uint256"
                },
                {
                    "indexed": false,
                    "internalType": "uint256",
                    "name": "validatorTotalBalance",
                    "type": "uint256"
                },
                {
                    "indexed": false,
                    "internalType": "bytes32",
                    "name": "roundId",
                    "type": "bytes32"
                }
            ],
            "name": "ConsensusLayerDataUpdate",
            "type": "event"
        },
        {
            "anonymous": false,
            "inputs": [
                {
                    "indexed": false,
                    "internalType": "bytes",
                    "name": "publicKey",
                    "type": "bytes"
                }
            ],
            "name": "FundedValidatorKey",
            "type": "event"
        },
        {
            "anonymous": false,
            "inputs": [
                {
                    "indexed": false,
                    "internalType": "uint256",
                    "name": "version",
                    "type": "uint256"
                },
                {
                    "indexed": false,
                    "internalType": "bytes",
                    "name": "cdata",
                    "type": "bytes"
                }
            ],
            "name": "Initialize",
            "type": "event"
        },
        {
            "anonymous": false,
            "inputs": [
                {
                    "indexed": false,
                    "internalType": "uint256",
                    "name": "amount",
                    "type": "uint256"
                }
            ],
            "name": "PulledCoverageFunds",
            "type": "event"
        },
        {
            "anonymous": false,
            "inputs": [
                {
                    "indexed": false,
                    "internalType": "uint256",
                    "name": "amount",
                    "type": "uint256"
                }
            ],
            "name": "PulledELFees",
            "type": "event"
        },
        {
            "anonymous": false,
            "inputs": [
                {
                    "indexed": true,
                    "internalType": "address",
                    "name": "_collector",
                    "type": "address"
                },
                {
                    "indexed": false,
                    "internalType": "uint256",
                    "name": "_oldTotalUnderlyingBalance",
                    "type": "uint256"
                },
                {
                    "indexed": false,
                    "internalType": "uint256",
                    "name": "_oldTotalSupply",
                    "type": "uint256"
                },
                {
                    "indexed": false,
                    "internalType": "uint256",
                    "name": "_newTotalUnderlyingBalance",
                    "type": "uint256"
                },
                {
                    "indexed": false,
                    "internalType": "uint256",
                    "name": "_newTotalSupply",
                    "type": "uint256"
                }
            ],
            "name": "RewardsEarned",
            "type": "event"
        },
        {
            "anonymous": false,
            "inputs": [
                {
                    "indexed": true,
                    "internalType": "address",
                    "name": "admin",
                    "type": "address"
                }
            ],
            "name": "SetAdmin",
            "type": "event"
        },
        {
            "anonymous": false,
            "inputs": [
                {
                    "indexed": true,
                    "internalType": "address",
                    "name": "allowlist",
                    "type": "address"
                }
            ],
            "name": "SetAllowlist",
            "type": "event"
        },
        {
            "anonymous": false,
            "inputs": [
                {
                    "indexed": true,
                    "internalType": "address",
                    "name": "collector",
                    "type": "address"
                }
            ],
            "name": "SetCollector",
            "type": "event"
        },
        {
            "anonymous": false,
            "inputs": [
                {
                    "indexed": true,
                    "internalType": "address",
                    "name": "coverageFund",
                    "type": "address"
                }
            ],
            "name": "SetCoverageFund",
            "type": "event"
        },
        {
            "anonymous": false,
            "inputs": [
                {
                    "indexed": true,
                    "internalType": "address",
                    "name": "depositContract",
                    "type": "address"
                }
            ],
            "name": "SetDepositContractAddress",
            "type": "event"
        },
        {
            "anonymous": false,
            "inputs": [
                {
                    "indexed": true,
                    "internalType": "address",
                    "name": "elFeeRecipient",
                    "type": "address"
                }
            ],
            "name": "SetELFeeRecipient",
            "type": "event"
        },
        {
            "anonymous": false,
            "inputs": [
                {
                    "indexed": false,
                    "internalType": "uint256",
                    "name": "fee",
                    "type": "uint256"
                }
            ],
            "name": "SetGlobalFee",
            "type": "event"
        },
        {
            "anonymous": false,
            "inputs": [
                {
                    "indexed": false,
                    "internalType": "string",
                    "name": "metadataURI",
                    "type": "string"
                }
            ],
            "name": "SetMetadataURI",
            "type": "event"
        },
        {
            "anonymous": false,
            "inputs": [
                {
                    "indexed": true,
                    "internalType": "address",
                    "name": "operatorRegistry",
                    "type": "address"
                }
            ],
            "name": "SetOperatorsRegistry",
            "type": "event"
        },
        {
            "anonymous": false,
            "inputs": [
                {
                    "indexed": true,
                    "internalType": "address",
                    "name": "oracleAddress",
                    "type": "address"
                }
            ],
            "name": "SetOracle",
            "type": "event"
        },
        {
            "anonymous": false,
            "inputs": [
                {
                    "indexed": true,
                    "internalType": "address",
                    "name": "pendingAdmin",
                    "type": "address"
                }
            ],
            "name": "SetPendingAdmin",
            "type": "event"
        },
        {
            "anonymous": false,
            "inputs": [
                {
                    "indexed": false,
                    "internalType": "bytes32",
                    "name": "withdrawalCredentials",
                    "type": "bytes32"
                }
            ],
            "name": "SetWithdrawalCredentials",
            "type": "event"
        },
        {
            "anonymous": false,
            "inputs": [
                {
                    "indexed": true,
                    "internalType": "address",
                    "name": "from",
                    "type": "address"
                },
                {
                    "indexed": true,
                    "internalType": "address",
                    "name": "to",
                    "type": "address"
                },
                {
                    "indexed": false,
                    "internalType": "uint256",
                    "name": "value",
                    "type": "uint256"
                }
            ],
            "name": "Transfer",
            "type": "event"
        },
        {
            "anonymous": false,
            "inputs": [
                {
                    "indexed": true,
                    "internalType": "address",
                    "name": "depositor",
                    "type": "address"
                },
                {
                    "indexed": true,
                    "internalType": "address",
                    "name": "recipient",
                    "type": "address"
                },
                {
                    "indexed": false,
                    "internalType": "uint256",
                    "name": "amount",
                    "type": "uint256"
                }
            ],
            "name": "UserDeposit",
            "type": "event"
        },
        {
            "stateMutability": "payable",
            "type": "fallback"
        },
        {
            "inputs": [],
            "name": "DEPOSIT_SIZE",
            "outputs": [
                {
                    "internalType": "uint256",
                    "name": "",
                    "type": "uint256"
                }
            ],
            "stateMutability": "view",
            "type": "function"
        },
        {
            "inputs": [],
            "name": "PUBLIC_KEY_LENGTH",
            "outputs": [
                {
                    "internalType": "uint256",
                    "name": "",
                    "type": "uint256"
                }
            ],
            "stateMutability": "view",
            "type": "function"
        },
        {
            "inputs": [],
            "name": "SIGNATURE_LENGTH",
            "outputs": [
                {
                    "internalType": "uint256",
                    "name": "",
                    "type": "uint256"
                }
            ],
            "stateMutability": "view",
            "type": "function"
        },
        {
            "inputs": [],
            "name": "acceptAdmin",
            "outputs": [],
            "stateMutability": "nonpayable",
            "type": "function"
        },
        {
            "inputs": [
                {
                    "internalType": "address",
                    "name": "_owner",
                    "type": "address"
                },
                {
                    "internalType": "address",
                    "name": "_spender",
                    "type": "address"
                }
            ],
            "name": "allowance",
            "outputs": [
                {
                    "internalType": "uint256",
                    "name": "",
                    "type": "uint256"
                }
            ],
            "stateMutability": "view",
            "type": "function"
        },
        {
            "inputs": [
                {
                    "internalType": "address",
                    "name": "_spender",
                    "type": "address"
                },
                {
                    "internalType": "uint256",
                    "name": "_value",
                    "type": "uint256"
                }
            ],
            "name": "approve",
            "outputs": [
                {
                    "internalType": "bool",
                    "name": "",
                    "type": "bool"
                }
            ],
            "stateMutability": "nonpayable",
            "type": "function"
        },
        {
            "inputs": [
                {
                    "internalType": "address",
                    "name": "_owner",
                    "type": "address"
                }
            ],
            "name": "balanceOf",
            "outputs": [
                {
                    "internalType": "uint256",
                    "name": "",
                    "type": "uint256"
                }
            ],
            "stateMutability": "view",
            "type": "function"
        },
        {
            "inputs": [
                {
                    "internalType": "address",
                    "name": "_owner",
                    "type": "address"
                }
            ],
            "name": "balanceOfUnderlying",
            "outputs": [
                {
                    "internalType": "uint256",
                    "name": "",
                    "type": "uint256"
                }
            ],
            "stateMutability": "view",
            "type": "function"
        },
        {
            "inputs": [],
            "name": "decimals",
            "outputs": [
                {
                    "internalType": "uint8",
                    "name": "",
                    "type": "uint8"
                }
            ],
            "stateMutability": "pure",
            "type": "function"
        },
        {
            "inputs": [
                {
                    "internalType": "address",
                    "name": "_spender",
                    "type": "address"
                },
                {
                    "internalType": "uint256",
                    "name": "_subtractableValue",
                    "type": "uint256"
                }
            ],
            "name": "decreaseAllowance",
            "outputs": [
                {
                    "internalType": "bool",
                    "name": "",
                    "type": "bool"
                }
            ],
            "stateMutability": "nonpayable",
            "type": "function"
        },
        {
            "inputs": [],
            "name": "deposit",
            "outputs": [],
            "stateMutability": "payable",
            "type": "function"
        },
        {
            "inputs": [
                {
                    "internalType": "address",
                    "name": "_recipient",
                    "type": "address"
                }
            ],
            "name": "depositAndTransfer",
            "outputs": [],
            "stateMutability": "payable",
            "type": "function"
        },
        {
            "inputs": [
                {
                    "internalType": "uint256",
                    "name": "_maxCount",
                    "type": "uint256"
                }
            ],
            "name": "depositToConsensusLayer",
            "outputs": [],
            "stateMutability": "nonpayable",
            "type": "function"
        },
        {
            "inputs": [],
            "name": "getAdmin",
            "outputs": [
                {
                    "internalType": "address",
                    "name": "",
                    "type": "address"
                }
            ],
            "stateMutability": "view",
            "type": "function"
        },
        {
            "inputs": [],
            "name": "getAllowlist",
            "outputs": [
                {
                    "internalType": "address",
                    "name": "",
                    "type": "address"
                }
            ],
            "stateMutability": "view",
            "type": "function"
        },
        {
            "inputs": [],
            "name": "getBalanceToDeposit",
            "outputs": [
                {
                    "internalType": "uint256",
                    "name": "",
                    "type": "uint256"
                }
            ],
            "stateMutability": "view",
            "type": "function"
        },
        {
            "inputs": [],
            "name": "getCLValidatorCount",
            "outputs": [
                {
                    "internalType": "uint256",
                    "name": "",
                    "type": "uint256"
                }
            ],
            "stateMutability": "view",
            "type": "function"
        },
        {
            "inputs": [],
            "name": "getCLValidatorTotalBalance",
            "outputs": [
                {
                    "internalType": "uint256",
                    "name": "",
                    "type": "uint256"
                }
            ],
            "stateMutability": "view",
            "type": "function"
        },
        {
            "inputs": [],
            "name": "getCollector",
            "outputs": [
                {
                    "internalType": "address",
                    "name": "",
                    "type": "address"
                }
            ],
            "stateMutability": "view",
            "type": "function"
        },
        {
            "inputs": [],
            "name": "getCoverageFund",
            "outputs": [
                {
                    "internalType": "address",
                    "name": "",
                    "type": "address"
                }
            ],
            "stateMutability": "view",
            "type": "function"
        },
        {
            "inputs": [],
            "name": "getDepositedValidatorCount",
            "outputs": [
                {
                    "internalType": "uint256",
                    "name": "",
                    "type": "uint256"
                }
            ],
            "stateMutability": "view",
            "type": "function"
        },
        {
            "inputs": [],
            "name": "getELFeeRecipient",
            "outputs": [
                {
                    "internalType": "address",
                    "name": "",
                    "type": "address"
                }
            ],
            "stateMutability": "view",
            "type": "function"
        },
        {
            "inputs": [],
            "name": "getGlobalFee",
            "outputs": [
                {
                    "internalType": "uint256",
                    "name": "",
                    "type": "uint256"
                }
            ],
            "stateMutability": "view",
            "type": "function"
        },
        {
            "inputs": [],
            "name": "getMetadataURI",
            "outputs": [
                {
                    "internalType": "string",
                    "name": "",
                    "type": "string"
                }
            ],
            "stateMutability": "view",
            "type": "function"
        },
        {
            "inputs": [],
            "name": "getOperatorsRegistry",
            "outputs": [
                {
                    "internalType": "address",
                    "name": "",
                    "type": "address"
                }
            ],
            "stateMutability": "view",
            "type": "function"
        },
        {
            "inputs": [],
            "name": "getOracle",
            "outputs": [
                {
                    "internalType": "address",
                    "name": "",
                    "type": "address"
                }
            ],
            "stateMutability": "view",
            "type": "function"
        },
        {
            "inputs": [],
            "name": "getPendingAdmin",
            "outputs": [
                {
                    "internalType": "address",
                    "name": "",
                    "type": "address"
                }
            ],
            "stateMutability": "view",
            "type": "function"
        },
        {
            "inputs": [],
            "name": "getWithdrawalCredentials",
            "outputs": [
                {
                    "internalType": "bytes32",
                    "name": "",
                    "type": "bytes32"
                }
            ],
            "stateMutability": "view",
            "type": "function"
        },
        {
            "inputs": [
                {
                    "internalType": "address",
                    "name": "_spender",
                    "type": "address"
                },
                {
                    "internalType": "uint256",
                    "name": "_additionalValue",
                    "type": "uint256"
                }
            ],
            "name": "increaseAllowance",
            "outputs": [
                {
                    "internalType": "bool",
                    "name": "",
                    "type": "bool"
                }
            ],
            "stateMutability": "nonpayable",
            "type": "function"
        },
        {
            "inputs": [
                {
                    "internalType": "address",
                    "name": "_depositContractAddress",
                    "type": "address"
                },
                {
                    "internalType": "address",
                    "name": "_elFeeRecipientAddress",
                    "type": "address"
                },
                {
                    "internalType": "bytes32",
                    "name": "_withdrawalCredentials",
                    "type": "bytes32"
                },
                {
                    "internalType": "address",
                    "name": "_oracleAddress",
                    "type": "address"
                },
                {
                    "internalType": "address",
                    "name": "_systemAdministratorAddress",
                    "type": "address"
                },
                {
                    "internalType": "address",
                    "name": "_allowlistAddress",
                    "type": "address"
                },
                {
                    "internalType": "address",
                    "name": "_operatorRegistryAddress",
                    "type": "address"
                },
                {
                    "internalType": "address",
                    "name": "_collectorAddress",
                    "type": "address"
                },
                {
                    "internalType": "uint256",
                    "name": "_globalFee",
                    "type": "uint256"
                }
            ],
            "name": "initRiverV1",
            "outputs": [],
            "stateMutability": "nonpayable",
            "type": "function"
        },
        {
            "inputs": [],
            "name": "name",
            "outputs": [
                {
                    "internalType": "string",
                    "name": "",
                    "type": "string"
                }
            ],
            "stateMutability": "pure",
            "type": "function"
        },
        {
            "inputs": [
                {
                    "internalType": "address",
                    "name": "_newAdmin",
                    "type": "address"
                }
            ],
            "name": "proposeAdmin",
            "outputs": [],
            "stateMutability": "nonpayable",
            "type": "function"
        },
        {
            "inputs": [],
            "name": "sendCoverageFunds",
            "outputs": [],
            "stateMutability": "payable",
            "type": "function"
        },
        {
            "inputs": [],
            "name": "sendELFees",
            "outputs": [],
            "stateMutability": "payable",
            "type": "function"
        },
        {
            "inputs": [
                {
                    "internalType": "address",
                    "name": "_newAllowlist",
                    "type": "address"
                }
            ],
            "name": "setAllowlist",
            "outputs": [],
            "stateMutability": "nonpayable",
            "type": "function"
        },
        {
            "inputs": [
                {
                    "internalType": "address",
                    "name": "_newCollector",
                    "type": "address"
                }
            ],
            "name": "setCollector",
            "outputs": [],
            "stateMutability": "nonpayable",
            "type": "function"
        },
        {
            "inputs": [
                {
                    "internalType": "uint256",
                    "name": "_validatorCount",
                    "type": "uint256"
                },
                {
                    "internalType": "uint256",
                    "name": "_validatorTotalBalance",
                    "type": "uint256"
                },
                {
                    "internalType": "bytes32",
                    "name": "_roundId",
                    "type": "bytes32"
                },
                {
                    "internalType": "uint256",
                    "name": "_maxIncrease",
                    "type": "uint256"
                }
            ],
            "name": "setConsensusLayerData",
            "outputs": [],
            "stateMutability": "nonpayable",
            "type": "function"
        },
        {
            "inputs": [
                {
                    "internalType": "address",
                    "name": "_newCoverageFund",
                    "type": "address"
                }
            ],
            "name": "setCoverageFund",
            "outputs": [],
            "stateMutability": "nonpayable",
            "type": "function"
        },
        {
            "inputs": [
                {
                    "internalType": "address",
                    "name": "_newELFeeRecipient",
                    "type": "address"
                }
            ],
            "name": "setELFeeRecipient",
            "outputs": [],
            "stateMutability": "nonpayable",
            "type": "function"
        },
        {
            "inputs": [
                {
                    "internalType": "uint256",
                    "name": "newFee",
                    "type": "uint256"
                }
            ],
            "name": "setGlobalFee",
            "outputs": [],
            "stateMutability": "nonpayable",
            "type": "function"
        },
        {
            "inputs": [
                {
                    "internalType": "string",
                    "name": "_metadataURI",
                    "type": "string"
                }
            ],
            "name": "setMetadataURI",
            "outputs": [],
            "stateMutability": "nonpayable",
            "type": "function"
        },
        {
            "inputs": [
                {
                    "internalType": "address",
                    "name": "_oracleAddress",
                    "type": "address"
                }
            ],
            "name": "setOracle",
            "outputs": [],
            "stateMutability": "nonpayable",
            "type": "function"
        },
        {
            "inputs": [
                {
                    "internalType": "uint256",
                    "name": "_underlyingAssetAmount",
                    "type": "uint256"
                }
            ],
            "name": "sharesFromUnderlyingBalance",
            "outputs": [
                {
                    "internalType": "uint256",
                    "name": "",
                    "type": "uint256"
                }
            ],
            "stateMutability": "view",
            "type": "function"
        },
        {
            "inputs": [],
            "name": "symbol",
            "outputs": [
                {
                    "internalType": "string",
                    "name": "",
                    "type": "string"
                }
            ],
            "stateMutability": "pure",
            "type": "function"
        },
        {
            "inputs": [],
            "name": "totalSupply",
            "outputs": [
                {
                    "internalType": "uint256",
                    "name": "",
                    "type": "uint256"
                }
            ],
            "stateMutability": "view",
            "type": "function"
        },
        {
            "inputs": [],
            "name": "totalUnderlyingSupply",
            "outputs": [
                {
                    "internalType": "uint256",
                    "name": "",
                    "type": "uint256"
                }
            ],
            "stateMutability": "view",
            "type": "function"
        },
        {
            "inputs": [
                {
                    "internalType": "address",
                    "name": "_to",
                    "type": "address"
                },
                {
                    "internalType": "uint256",
                    "name": "_value",
                    "type": "uint256"
                }
            ],
            "name": "transfer",
            "outputs": [
                {
                    "internalType": "bool",
                    "name": "",
                    "type": "bool"
                }
            ],
            "stateMutability": "nonpayable",
            "type": "function"
        },
        {
            "inputs": [
                {
                    "internalType": "address",
                    "name": "_from",
                    "type": "address"
                },
                {
                    "internalType": "address",
                    "name": "_to",
                    "type": "address"
                },
                {
                    "internalType": "uint256",
                    "name": "_value",
                    "type": "uint256"
                }
            ],
            "name": "transferFrom",
            "outputs": [
                {
                    "internalType": "bool",
                    "name": "",
                    "type": "bool"
                }
            ],
            "stateMutability": "nonpayable",
            "type": "function"
        },
        {
            "inputs": [
                {
                    "internalType": "uint256",
                    "name": "_shares",
                    "type": "uint256"
                }
            ],
            "name": "underlyingBalanceFromShares",
            "outputs": [
                {
                    "internalType": "uint256",
                    "name": "",
                    "type": "uint256"
                }
            ],
            "stateMutability": "view",
            "type": "function"
        },
        {
            "stateMutability": "payable",
            "type": "receive"
        },
        {
            "inputs": [
                {
                    "internalType": "address",
                    "name": "_logic",
                    "type": "address"
                },
                {
                    "internalType": "address",
                    "name": "__admin",
                    "type": "address"
                },
                {
                    "internalType": "bytes",
                    "name": "_data",
                    "type": "bytes"
                }
            ],
            "stateMutability": "payable",
            "type": "constructor"
        },
        {
            "inputs": [],
            "name": "CallWhenPaused",
            "type": "error"
        },
        {
            "anonymous": false,
            "inputs": [
                {
                    "indexed": false,
                    "internalType": "address",
                    "name": "previousAdmin",
                    "type": "address"
                },
                {
                    "indexed": false,
                    "internalType": "address",
                    "name": "newAdmin",
                    "type": "address"
                }
            ],
            "name": "AdminChanged",
            "type": "event"
        },
        {
            "anonymous": false,
            "inputs": [
                {
                    "indexed": true,
                    "internalType": "address",
                    "name": "beacon",
                    "type": "address"
                }
            ],
            "name": "BeaconUpgraded",
            "type": "event"
        },
        {
            "anonymous": false,
            "inputs": [
                {
                    "indexed": false,
                    "internalType": "address",
                    "name": "admin",
                    "type": "address"
                }
            ],
            "name": "Paused",
            "type": "event"
        },
        {
            "anonymous": false,
            "inputs": [
                {
                    "indexed": false,
                    "internalType": "address",
                    "name": "admin",
                    "type": "address"
                }
            ],
            "name": "Unpaused",
            "type": "event"
        },
        {
            "anonymous": false,
            "inputs": [
                {
                    "indexed": true,
                    "internalType": "address",
                    "name": "implementation",
                    "type": "address"
                }
            ],
            "name": "Upgraded",
            "type": "event"
        },
        {
            "stateMutability": "payable",
            "type": "fallback"
        },
        {
            "inputs": [],
            "name": "admin",
            "outputs": [
                {
                    "internalType": "address",
                    "name": "admin_",
                    "type": "address"
                }
            ],
            "stateMutability": "nonpayable",
            "type": "function"
        },
        {
            "inputs": [
                {
                    "internalType": "address",
                    "name": "newAdmin",
                    "type": "address"
                }
            ],
            "name": "changeAdmin",
            "outputs": [],
            "stateMutability": "nonpayable",
            "type": "function"
        },
        {
            "inputs": [],
            "name": "implementation",
            "outputs": [
                {
                    "internalType": "address",
                    "name": "implementation_",
                    "type": "address"
                }
            ],
            "stateMutability": "nonpayable",
            "type": "function"
        },
        {
            "inputs": [],
            "name": "pause",
            "outputs": [],
            "stateMutability": "nonpayable",
            "type": "function"
        },
        {
            "inputs": [],
            "name": "paused",
            "outputs": [
                {
                    "internalType": "bool",
                    "name": "",
                    "type": "bool"
                }
            ],
            "stateMutability": "nonpayable",
            "type": "function"
        },
        {
            "inputs": [],
            "name": "unpause",
            "outputs": [],
            "stateMutability": "nonpayable",
            "type": "function"
        },
        {
            "inputs": [
                {
                    "internalType": "address",
                    "name": "newImplementation",
                    "type": "address"
                }
            ],
            "name": "upgradeTo",
            "outputs": [],
            "stateMutability": "nonpayable",
            "type": "function"
        },
        {
            "inputs": [
                {
                    "internalType": "address",
                    "name": "newImplementation",
                    "type": "address"
                },
                {
                    "internalType": "bytes",
                    "name": "data",
                    "type": "bytes"
                }
            ],
            "name": "upgradeToAndCall",
            "outputs": [],
            "stateMutability": "payable",
            "type": "function"
        },
        {
            "stateMutability": "payable",
            "type": "receive"
        }
    ],
    "transactionHash": "0x76f4bf604130b9ebd76bb429509b87052bed7775c0d46e1f2fb9a2b7068c8ee7",
    "args": [
        "0x31a2297fc5715b59EC09941c2beca511a3fCB470",
        "0x67bc791A7EA5A98DDcEcBbF6580aE1BB310F5d9B",
        "0x281a3122000000000000000000000000ff50ed3d0ec03ac01d4c79aad74928bff48a7b2b0000000000000000000000005654f8dffe80ca9fa270540c44f230ceeb0ea3bb01000000000000000000000040a369dd92f043a6782f4d071f9d2ba22b4ea14d000000000000000000000000088050c58ae0f447d52674ac58e20dd2fb68e2da000000000000000000000000585cd8e3ac1258c35b22ce489590ef25eaffeeea000000000000000000000000e7b74d98d46a8e0979b0342172a3a4890f852558000000000000000000000000f06bed337f29cb856b072dc8d57a2c22fb2ec2cb000000000000000000000000892d14b50cc7a8278fa254a63b6c5b8b1a110ff100000000000000000000000000000000000000000000000000000000000004e2"
    ],
    "numDeployments": 1,
    "solcInputHash": "803b991b13fc3eb82937205601e77786",
    "bytecode": "0x608060405234801561001057600080fd5b50613616806100206000396000f3fe6080604052600436106102a25760003560e01c80635639671511610165578063a457c2d7116100cc578063d046815611610085578063d046815614610787578063d0e30db01461079c578063d4970524146107a4578063dd62ed3e146107ac578063efd60347146107cc578063f79c3f02146107d4578063fb5b82d0146107f4576102b2565b8063a457c2d7146106ea578063a9059cbb1461070a578063ac232bde1461072a578063bf15af561461073d578063c5eff3d014610752578063cc48cd3114610767576102b2565b80637adbf9731161011e5780637adbf97314610648578063833b1fce1461066857806386a92af71461067d57806387f2adfb1461069257806395d89b41146106a75780639b498e26146106d5576102b2565b8063563967151461059e57806358bf3c7f146105b35780636e9960c3146105d357806370a08231146105e8578063750521f514610608578063799a195414610628576102b2565b80631bcbfaba1161020957806336bf3325116101c257806336bf332514610502578063395093511461051f5780633af9e6691461053f57806346425ef01461055f5780635022820114610574578063540bc5ea14610589576102b2565b80631bcbfaba1461045c57806323b872dd14610471578063281a312214610491578063291206f6146104b15780632cb562e1146104d1578063313ce567146104e6576102b2565b80631311cf8d1161025b5780631311cf8d146103b057806313d86aed146103d0578063143a08d4146103f0578063147bf6c4146104055780631546962b1461042557806318160ddd14610447576102b2565b8063020f086e146102cb57806304843a17146102eb57806306fdde0314610313578063095ea7b3146103565780630e18b68114610386578063107d7fa01461039b576102b2565b366102b2576102b033610814565b005b60405163574b16a760e11b815260040160405180910390fd5b3480156102d757600080fd5b506102b06102e6366004612f96565b61089b565b3480156102f757600080fd5b5061030061091f565b6040519081526020015b60405180910390f35b34801561031f57600080fd5b50604080518082019091526011815270098d2e2ead2c840a6e8c2d6cac8408aa89607b1b60208201525b60405161030a9190613009565b34801561036257600080fd5b5061037661037136600461301c565b61092e565b604051901515815260200161030a565b34801561039257600080fd5b506102b0610944565b3480156103a757600080fd5b5061030061099b565b3480156103bc57600080fd5b506102b06103cb366004612f96565b6109a5565b3480156103dc57600080fd5b506102b06103eb366004613046565b610a20565b3480156103fc57600080fd5b50610300610bd9565b34801561041157600080fd5b506102b0610420366004612f96565b610be3565b34801561043157600080fd5b5061043a610c2a565b60405161030a919061305f565b34801561045357600080fd5b50610300610c34565b34801561046857600080fd5b50610300610c3e565b34801561047d57600080fd5b5061037661048c366004613073565b610c48565b34801561049d57600080fd5b506102b06104ac3660046130af565b610cfb565b3480156104bd57600080fd5b506102b06104cc366004613046565b610edd565b3480156104dd57600080fd5b5061043a610f58565b3480156104f257600080fd5b506040516012815260200161030a565b34801561050e57600080fd5b506103006801bc16d674ec80000081565b34801561052b57600080fd5b5061037661053a36600461301c565b610f62565b34801561054b57600080fd5b5061030061055a366004612f96565b610f83565b34801561056b57600080fd5b50610300610f9c565b34801561058057600080fd5b5061043a610fa6565b34801561059557600080fd5b50610300606081565b3480156105aa57600080fd5b50610300610fb0565b3480156105bf57600080fd5b506102b06105ce366004612f96565b610fba565b3480156105df57600080fd5b5061043a611035565b3480156105f457600080fd5b50610300610603366004612f96565b61103f565b34801561061457600080fd5b506102b06106233660046131b8565b61104a565b34801561063457600080fd5b50610300610643366004613046565b6110c6565b34801561065457600080fd5b506102b0610663366004612f96565b6110d1565b34801561067457600080fd5b5061043a61114c565b34801561068957600080fd5b50610349611156565b34801561069e57600080fd5b50610300611160565b3480156106b357600080fd5b50604080518082019091526005815264098e68aa8960db1b6020820152610349565b3480156106e157600080fd5b5061043a61116a565b3480156106f657600080fd5b5061037661070536600461301c565b611174565b34801561071657600080fd5b5061037661072536600461301c565b611190565b6102b0610738366004612f96565b61122f565b34801561074957600080fd5b50610300603081565b34801561075e57600080fd5b5061043a611241565b34801561077357600080fd5b506102b0610782366004613238565b61124b565b34801561079357600080fd5b5061043a61140b565b6102b0611415565b6102b061141e565b3480156107b857600080fd5b506103006107c736600461326a565b611459565b6102b061146c565b3480156107e057600080fd5b506103006107ef366004613046565b611474565b34801561080057600080fd5b506102b061080f366004612f96565b61147f565b34610832576040516395b66fe960e01b815260040160405180910390fd5b61084d3461083e6114fa565b61084891906132b3565b61152e565b610858338234611561565b6040513481526001600160a01b0382169033907f3bc57f469ad6d10d7723ea226cd22bd2b9e527def2b529f6ab44645a166895829060200160405180910390a350565b6108a36116fb565b6001600160a01b0316336001600160a01b0316146108df573360405163472511eb60e11b81526004016108d6919061305f565b60405180910390fd5b6108e881611705565b6040516001600160a01b038216907f67b26a33f305cc027b2d45b2f6f418793afcd3e22f7376afa7be068ce18604e890600090a250565b60006109296114fa565b905090565b600061093b33848461173c565b50600192915050565b61094c6117ab565b6001600160a01b0316336001600160a01b03161461097f573360405163472511eb60e11b81526004016108d6919061305f565b61098f61098a6117ab565b6117b5565b61099960006117fe565b565b600061092961183e565b6109ad6116fb565b6001600160a01b0316336001600160a01b0316146109e0573360405163472511eb60e11b81526004016108d6919061305f565b6109e98161186e565b6040516001600160a01b038216907f1da4c245099590dc40be61880c9b97792f3694d970acc1e67ac0e6cc90f3780d90600090a250565b610a286118a5565b6001600160a01b0316336001600160a01b031614610a5b573360405163472511eb60e11b81526004016108d6919061305f565b6000610a656114fa565b90506000610a85610a7f6801bc16d674ec800000846132cb565b846118af565b905080610aa557604051631036b5ad60e31b815260040160405180910390fd5b600080610ab1836118c4565b8151919350915080610ad65760405163200149ad60e21b815260040160405180910390fd5b83811115610af757604051635993bd5760e01b815260040160405180910390fd5b8151818114610b19576040516322e5ce4360e21b815260040160405180910390fd5b6000610b2361194c565b905080610b4357604051639be7315960e01b815260040160405180910390fd5b60005b83811015610b9357610b8b868281518110610b6357610b636132ed565b6020026020010151868381518110610b7d57610b7d6132ed565b60200260200101518461197c565b600101610b46565b50610bb4610baa846801bc16d674ec800000613303565b6108489089613322565b610bcf83610bc0611e04565b610bca91906132b3565b611e34565b5050505050505050565b6000610929611e62565b610beb6116fb565b6001600160a01b0316336001600160a01b031614610c1e573360405163472511eb60e11b81526004016108d6919061305f565b610c27816117fe565b50565b6000610929611edc565b6000610929611f0c565b6000610929611f16565b60008383610c568282611f46565b8380610c75576040516336b216db60e21b815260040160405180910390fd5b868580610c8183612072565b1015610ca0576040516351940b3960e11b815260040160405180910390fd5b6001600160a01b038816610cd957604051637617407560e11b81526001600160a01b038a166004820152600060248201526044016108d6565b610ce3898861207d565b610cee8989896120e3565b9998505050505050505050565b6000610d05612171565b8114610d365780610d14612171565b604051631cfd276760e31b8152600481019290925260248201526044016108d6565b610d49610d448260016132b3565b6121a1565b610d52866117b5565b610d5b836121cf565b6040516001600160a01b038416907f0cc5437d7c9c1d9eab549acbb533eea3e9868e9443dd75309ed5820b33a3774e90600090a2610d9882612206565b6040518281527fbd533e726baaf59b36f3914d950053f7e78f527057c97cd3f0043257fc0fc8849060200160405180910390a1610dd48961186e565b6040516001600160a01b038a16907f1da4c245099590dc40be61880c9b97792f3694d970acc1e67ac0e6cc90f3780d90600090a2610e118561223d565b6040516001600160a01b038616907f30f015a5d3c72c0a9414538199baa022323a483fa9e4ba2cd581596cf8ca042490600090a2610e4e84612274565b6040516001600160a01b038516907fffc0721ef0563a1b0a51a0dc92113025f33ca434ada9ee3eebff2f385d2a8f9a90600090a2610e8c8a896122ab565b610e958761110c565b7f1809e49bba43f2d39fa57894b50cd6ccb428cc438230e065cac3eb24a1355a7181600036604051610ec993929190613339565b60405180910390a150505050505050505050565b610ee56116fb565b6001600160a01b0316336001600160a01b031614610f18573360405163472511eb60e11b81526004016108d6919061305f565b610f2181612206565b6040518181527fbd533e726baaf59b36f3914d950053f7e78f527057c97cd3f0043257fc0fc884906020015b60405180910390a150565b6000610929612327565b600061093b338484610f743388612357565b610f7e91906132b3565b61173c565b6000610f96610f91836123af565b6123fd565b92915050565b6000610929612435565b6000610929612465565b600061092961194c565b610fc26116fb565b6001600160a01b0316336001600160a01b031614610ff5573360405163472511eb60e11b81526004016108d6919061305f565b610ffe8161223d565b6040516001600160a01b038216907f30f015a5d3c72c0a9414538199baa022323a483fa9e4ba2cd581596cf8ca042490600090a250565b60006109296116fb565b6000610f9682612072565b6110526116fb565b6001600160a01b0316336001600160a01b031614611085573360405163472511eb60e11b81526004016108d6919061305f565b61108e81612495565b611097816124b4565b7f8d2df192dd17edf92a7964b78aa322f3d717b2ab9de00651bee32bbc4c5da63a81604051610f4d9190613009565b6000610f96826124fe565b6110d96118a5565b6001600160a01b0316336001600160a01b03161461110c573360405163472511eb60e11b81526004016108d6919061305f565b6111158161252b565b6040516001600160a01b038216907fd3b5d1e0ffaeff528910f3663f0adace7694ab8241d58e17a91351ced2e0803190600090a250565b6000610929612562565b6060610929612592565b6000610929611e04565b6000610929612658565b600061093b3384846111863388612357565b610f7e9190613322565b6000338361119e8282611f46565b83806111bd576040516336b216db60e21b815260040160405180910390fd5b3385806111c983612072565b10156111e8576040516351940b3960e11b815260040160405180910390fd5b6001600160a01b03881661121857604051637617407560e11b8152336004820152600060248201526044016108d6565b6112233389896120e3565b98975050505050505050565b61123881612688565b610c2781610814565b60006109296126af565b611253612562565b6001600160a01b0316336001600160a01b031614611286573360405163472511eb60e11b81526004016108d6919061305f565b61128e611e04565b8411156112c0578361129e611e04565b6040516376179ac560e01b8152600481019290925260248201526044016108d6565b60006112ca61183e565b6112d49086613322565b905060006112eb826801bc16d674ec800000613303565b6112f3612435565b6112fd91906132b3565b9050611308856126df565b6113118661270d565b61131a8461273b565b60008561132783866132b3565b111561134d5761134a8661133b84876132b3565b6113459190613322565b612769565b90505b858161135984876132b3565b6113639190613322565b111561139357611391868261137885886132b3565b6113829190613322565b61138c9190613322565b612832565b505b61139d81876132b3565b8210156113c1576113c1826113b283896132b3565b6113bc9190613322565b612904565b60408051888152602081018890529081018690527f25d7358447891786a139ae7149548f3232a8c95f2ea6065c69c5bd7c39cd386c9060600160405180910390a150505050505050565b60006109296117ab565b61099933610814565b611426611edc565b6001600160a01b0316336001600160a01b031614610999573360405163472511eb60e11b81526004016108d6919061305f565b60006114658383612357565b9392505050565b611426612327565b6000610f96826123fd565b6114876116fb565b6001600160a01b0316336001600160a01b0316146114ba573360405163472511eb60e11b81526004016108d6919061305f565b6114c3816121cf565b6040516001600160a01b038216907f0cc5437d7c9c1d9eab549acbb533eea3e9868e9443dd75309ed5820b33a3774e90600090a250565b600061092961152a60017f2b6136e423ab70d76431e2a635e877e16ea2dd9a895e054ad7f35f89d6c7b711613322565b5490565b610c2761155c60017f2b6136e423ab70d76431e2a635e877e16ea2dd9a895e054ad7f35f89d6c7b711613322565b829055565b600061156d8483612a36565b905060006115796126af565b9050836001600160a01b0316856001600160a01b031614156115fa57604051632d20488160e11b81526001600160a01b03868116600483015260016024830152821690635a4091029060440160006040518083038186803b1580156115dd57600080fd5b505afa1580156115f1573d6000803e3d6000fd5b505050506116f4565b604051632d20488160e11b81526001600160a01b03868116600483015260016024830152821690635a4091029060440160006040518083038186803b15801561164257600080fd5b505afa158015611656573d6000803e3d6000fd5b505060405163e838dfbb60e01b81526001600160a01b038416925063e838dfbb915061168690879060040161305f565b602060405180830381865afa1580156116a3573d6000803e3d6000fd5b505050506040513d601f19601f820116820180604052508101906116c7919061336f565b156116e7578360405163e7d05e2760e01b81526004016108d6919061305f565b6116f28585846120e3565b505b5050505050565b6000610929612a95565b61170e81612688565b610c2761155c60017ff4271262f3552a4108cde54dc75061de8de495709221d793b126e448522d6a80613322565b61174583612688565b61174e82612688565b611759838383612ac5565b816001600160a01b0316836001600160a01b03167f8c5be1e5ebec7d5bd14f71427d1e84f3dd0314c0f7b2291e5b200ac8c7c3b9258360405161179e91815260200190565b60405180910390a3505050565b6000610929612b1c565b6117be81612688565b6117c781612b4c565b6040516001600160a01b038216907f5a272403b402d892977df56625f4164ccaf70ca3863991c43ecfe76a6905b0a190600090a250565b61180781612b55565b6040516001600160a01b038216907f2a0f8515de3fa34ef68b99300347b8793c01683350743e96fe440594528298f490600090a250565b600061092961152a60017f0f1e7733641e4d843128fea0d2ec90d3d06a40b0fe244ff603d8c1aa200dc0f9613322565b61187781612688565b610c2761155c60017f8e9e2a1d30fed357d8a000c1131fc77ed65d2052918caf1ccc6eb1e7af3d13b6613322565b6000610929611035565b60008183116118be5782611465565b50919050565b6060806118cf612658565b6001600160a01b031663a1947323846040518263ffffffff1660e01b81526004016118fc91815260200190565b6000604051808303816000875af115801561191b573d6000803e3d6000fd5b505050506040513d6000823e601f3d908101601f191682016040526119439190810190613460565b91509150915091565b600061092961152a60017fb649e50315f962b32d487e696a81b4828631b11f8424daaaa37e9e97766a2c42613322565b603083511461199e5760405163050cb55360e41b815260040160405180910390fd5b60608251146119c05760405163408ebd3960e01b815260040160405180910390fd5b6801bc16d674ec80000060006119da633b9aca00836132cb565b90506000600286600060801b6040516020016119f79291906134c4565b60408051601f1981840301815290829052611a11916134f3565b602060405180830381855afa158015611a2e573d6000803e3d6000fd5b5050506040513d601f19601f82011682018060405250810190611a51919061350f565b90506000600280611a658860006040612b5e565b604051611a7291906134f3565b602060405180830381855afa158015611a8f573d6000803e3d6000fd5b5050506040513d601f19601f82011682018060405250810190611ab2919061350f565b6002611aca896040611ac5816060613322565b612b5e565b604051611add9190600090602001613528565b60408051601f1981840301815290829052611af7916134f3565b602060405180830381855afa158015611b14573d6000803e3d6000fd5b5050506040513d601f19601f82011682018060405250810190611b37919061350f565b60408051602081019390935282015260600160408051601f1981840301815290829052611b63916134f3565b602060405180830381855afa158015611b80573d6000803e3d6000fd5b5050506040513d601f19601f82011682018060405250810190611ba3919061350f565b905060006002808488604051602001611bc6929190918252602082015260400190565b60408051601f1981840301815290829052611be0916134f3565b602060405180830381855afa158015611bfd573d6000803e3d6000fd5b5050506040513d601f19601f82011682018060405250810190611c20919061350f565b6002611c2b87612c21565b604080516020810192909252810186905260600160408051601f1981840301815290829052611c59916134f3565b602060405180830381855afa158015611c76573d6000803e3d6000fd5b5050506040513d601f19601f82011682018060405250810190611c99919061350f565b60408051602081019390935282015260600160408051601f1981840301815290829052611cc5916134f3565b602060405180830381855afa158015611ce2573d6000803e3d6000fd5b5050506040513d601f19601f82011682018060405250810190611d05919061350f565b90506000611d138647613322565b9050611d1d612c8e565b6001600160a01b03166322895118878b8a604051602001611d4091815260200190565b6040516020818303038152906040528c876040518663ffffffff1660e01b8152600401611d70949392919061354a565b6000604051808303818588803b158015611d8957600080fd5b505af1158015611d9d573d6000803e3d6000fd5b5050505050804714611dc257604051638051a6bb60e01b815260040160405180910390fd5b7f11553d182c6d24df901ccbb837d640c1ee9994876a88dccc8ddfd7ebab9b6ce189604051611df19190613009565b60405180910390a1505050505050505050565b600061092961152a60017fc77078e3530c08cdb2440817c81de4836500b4708ea4d15672b7fe98956423a8613322565b610c2761155c60017fc77078e3530c08cdb2440817c81de4836500b4708ea4d15672b7fe98956423a8613322565b600080611e6d61183e565b90506000611e79611e04565b905080821015611ecc576801bc16d674ec800000611e978383613322565b611ea19190613303565b611ea96114fa565b611eb1612435565b611ebb91906132b3565b611ec591906132b3565b9250505090565b611ed46114fa565b611ebb612435565b600061092961152a60017ff4271262f3552a4108cde54dc75061de8de495709221d793b126e448522d6a80613322565b6000610929612cbe565b600061092961152a60017f094efef62d2ce60c14ffacd35a1b50546d3a9d503aff1df040176fffd6c92a37613322565b6000611f506126af565b60405163e838dfbb60e01b81529091506001600160a01b0382169063e838dfbb90611f7f90869060040161305f565b602060405180830381865afa158015611f9c573d6000803e3d6000fd5b505050506040513d601f19601f82011682018060405250810190611fc0919061336f565b15611fe0578260405163e7d05e2760e01b81526004016108d6919061305f565b60405163e838dfbb60e01b81526001600160a01b0382169063e838dfbb9061200c90859060040161305f565b602060405180830381865afa158015612029573d6000803e3d6000fd5b505050506040513d601f19601f8201168201806040525081019061204d919061336f565b1561206d578160405163e7d05e2760e01b81526004016108d6919061305f565b505050565b6000610f96826123af565b60006120898333612357565b9050818110156120cb57604051637b936de360e01b81526001600160a01b038416600482015233602482015260448101829052606481018390526084016108d6565b600019811461206d5761206d8333610f7e8585613322565b600061210284836120f3876123af565b6120fd9190613322565b612cee565b61211a8383612110866123af565b6120fd91906132b3565b826001600160a01b0316846001600160a01b03167fddf252ad1be2c89b69c2b068fc378daa952ba7f163c4a11628f55a4df523b3ef8460405161215f91815260200190565b60405180910390a35060019392505050565b600061092961152a60017f82055909238c0f5e63d6f174068ebb8f51bcec9bd37de63bb68f6551feec0cfd613322565b610c2761155c60017f82055909238c0f5e63d6f174068ebb8f51bcec9bd37de63bb68f6551feec0cfd613322565b6121d881612688565b610c2761155c60017f082b6d18de7b10e438e6b1002141db737519cb4ceed679bc815e3aac00cd2227613322565b61220f81612d3a565b610c2761155c60017f094efef62d2ce60c14ffacd35a1b50546d3a9d503aff1df040176fffd6c92a37613322565b61224681612688565b610c2761155c60017f867d8f1a5e39d11d5bebde854d5359a509530ad32450f581da63c06ec8d1a780613322565b61227d81612688565b610c2761155c60017f3f075dea7ef99b1e5db245018e5e4ed8d2a0d93953f5932b2176bef59bd69061613322565b6122b482612d5d565b6040516001600160a01b038316907e043cf7635f276413ae358250286a479a631abd9d74d57d4aa0bb87ebc7d11790600090a26122f081612d94565b6040518181527f4c86ba184ea1a1558f84835ca34f6d67e222e8ee5cc4f324b8861dda4cf1740c9060200160405180910390a15050565b600061092961152a60017f8e9e2a1d30fed357d8a000c1131fc77ed65d2052918caf1ccc6eb1e7af3d13b6613322565b60008061238560017fc852254d5b703a16bb13b3e233a335d6459c5da5db0ca732d7a684ee05407847613322565b6001600160a01b039485166000908152602091825260408082209590961681529390525050205490565b6000806123dd60017f0fb4a5ac9287f4f508aa7253ee2d57c6a228b1b30e210d73fffd59389d3a8838613322565b6001600160a01b0390931660009081526020939093525050604090205490565b600080612408612cbe565b9050806124185750600092915050565b80612421611e62565b61242b9085613303565b61146591906132cb565b600061092961152a60017ffedfd2c285a57fb23bf45a3fe9ac02d36a76ebb72801b1c8aaf553d74e9d4653613322565b600061092961152a60017f082b6d18de7b10e438e6b1002141db737519cb4ceed679bc815e3aac00cd2227613322565b8051610c2757604051638d46fe0560e01b815260040160405180910390fd5b60006124e160017fb63f3482ec84cb93d74a71645ad2e9e896fa02723e42170b4aad20a4bed6cdd6613322565b825190915081906124f89082906020860190612ee1565b50505050565b600080612509612cbe565b9050806125195750600092915050565b612521611e62565b61242b8285613303565b61253481612688565b610c2761155c60017fc8cbea9407c380ae944f052b5a442330057683c5abdbd453493f9750806afecb613322565b600061092961152a60017fc8cbea9407c380ae944f052b5a442330057683c5abdbd453493f9750806afecb613322565b606060006125c160017fb63f3482ec84cb93d74a71645ad2e9e896fa02723e42170b4aad20a4bed6cdd6613322565b8054909150819081906125d390613595565b80601f01602080910402602001604051908101604052809291908181526020018280546125ff90613595565b801561264c5780601f106126215761010080835404028352916020019161264c565b820191906000526020600020905b81548152906001019060200180831161262f57829003601f168201915b50505050509250505090565b600061092961152a60017f3f075dea7ef99b1e5db245018e5e4ed8d2a0d93953f5932b2176bef59bd69061613322565b6001600160a01b038116610c275760405163f6b2911f60e01b815260040160405180910390fd5b600061092961152a60017f867d8f1a5e39d11d5bebde854d5359a509530ad32450f581da63c06ec8d1a780613322565b610c2761155c60017ffedfd2c285a57fb23bf45a3fe9ac02d36a76ebb72801b1c8aaf553d74e9d4653613322565b610c2761155c60017f0f1e7733641e4d843128fea0d2ec90d3d06a40b0fe244ff603d8c1aa200dc0f9613322565b610c2761155c60017fd7f2d45e512a86049f7a113657b39731b6b558609584243063a52cd31a8eb529613322565b600080612774612327565b60405163c8a6dfd360e01b81526004810185905290915047906001600160a01b0383169063c8a6dfd390602401600060405180830381600087803b1580156127bb57600080fd5b505af11580156127cf573d6000803e3d6000fd5b50505050600081476127e19190613322565b9050801561282a576127f58161083e6114fa565b6040518181527fda841d3042d792e2509a333b9dcbd4b3dd9b9047d382011f8788fab90ca7e3c7906020015b60405180910390a15b949350505050565b60008061283d611edc565b90506001600160a01b0381166128565750600092915050565b604051638ede6b6b60e01b81526004810184905247906001600160a01b03831690638ede6b6b90602401600060405180830381600087803b15801561289a57600080fd5b505af11580156128ae573d6000803e3d6000fd5b50505050600081476128c09190613322565b9050801561282a576128d48161083e6114fa565b6040518181527fd500b67e5bd8019c0af744cadeec120d1b5e3d3a3a011f18cf182aa4c97947b690602001612821565b600061290e611f0c565b90508061292e57604051630d35acd760e21b815260040160405180910390fd5b6000612938611e62565b90506000612944611f16565b90506000816129538587613303565b61295d9190613303565b9050600061296b8387613303565b61297761271086613303565b6129819190613322565b90506000811561299a5761299582846132cb565b61299d565b60005b90508015612a2d5760006129af612465565b90506129bb8183612de0565b60006129c5611f0c565b905060006129d38a89613322565b60408051828152602081018c90529081018a9052606081018490529091506001600160a01b038416907f3d1669e813a9845c288f0e1f642a4343a451103b87886d12de37e63b39bbd9429060800160405180910390a25050505b50505050505050565b60008082612a42611e62565b612a4c9190613322565b905080612a6557829150612a608484612de0565b612a8e565b80612a6e611f0c565b612a789085613303565b612a8291906132cb565b9150612a8e8483612de0565b5092915050565b600061092961152a60017fb5b37715a3e346e996104f0086703f19825def429233930fd9399c38e05fb113613322565b6000612af260017fc852254d5b703a16bb13b3e233a335d6459c5da5db0ca732d7a684ee05407847613322565b6001600160a01b039485166000908152602091825260408082209590961681529390525091902055565b600061092961152a60017f6e6ab8b7c7aaba79eef8cc633522d606bb008c101cf9832c9ad05d10a9847281613322565b610c2781612e4e565b610c2781612e85565b60608182601f011015612b84576040516323d5783d60e11b815260040160405180910390fd5b612b8e82846132b3565b84511015612baf57604051633b99b53d60e01b815260040160405180910390fd5b606082158015612bce5760405191506000825260208201604052612c18565b6040519150601f8416801560200281840101858101878315602002848b0101015b81831015612c07578051835260209283019201612bef565b5050858452601f01601f1916604052505b50949350505050565b603881901c60ff908116603083901c8216602884901c8316602085901c8416601886901c8516601087901c8616600888811c9790971688881b61ff001617871b17861b17851b17841b17831b1790911b17604082901c8015612c8557612c856135ca565b5060c01b919050565b600061092961152a60017f35efb61d8784060218d9d6aa40eae55904de43779c1afc79c74dfefcfdf91260613322565b600061092961152a60017f6b842b424335d94ccad97e54548dfa02673c1268aba38d3c3c32d28c8988b70b613322565b6000612d1b60017f0fb4a5ac9287f4f508aa7253ee2d57c6a228b1b30e210d73fffd59389d3a8838613322565b6001600160a01b03909316600090815260209390935250604090912055565b612710811115610c27576040516358d620b360e01b815260040160405180910390fd5b612d6681612688565b610c2761155c60017f35efb61d8784060218d9d6aa40eae55904de43779c1afc79c74dfefcfdf91260613322565b80612db25760405163a9cb9e0d60e01b815260040160405180910390fd5b610c2761155c60017fb649e50315f962b32d487e696a81b4828631b11f8424daaaa37e9e97766a2c42613322565b612dfb81612dec612cbe565b612df691906132b3565b612eb3565b612e098282612110856123af565b6040518181526001600160a01b038316906000907fddf252ad1be2c89b69c2b068fc378daa952ba7f163c4a11628f55a4df523b3ef9060200160405180910390a35050565b612e5781612688565b610c2761155c60017fb5b37715a3e346e996104f0086703f19825def429233930fd9399c38e05fb113613322565b610c2761155c60017f6e6ab8b7c7aaba79eef8cc633522d606bb008c101cf9832c9ad05d10a9847281613322565b610c2761155c60017f6b842b424335d94ccad97e54548dfa02673c1268aba38d3c3c32d28c8988b70b613322565b828054612eed90613595565b90600052602060002090601f016020900481019282612f0f5760008555612f55565b82601f10612f2857805160ff1916838001178555612f55565b82800160010185558215612f55579182015b82811115612f55578251825591602001919060010190612f3a565b50612f61929150612f65565b5090565b5b80821115612f615760008155600101612f66565b80356001600160a01b0381168114612f9157600080fd5b919050565b600060208284031215612fa857600080fd5b61146582612f7a565b60005b83811015612fcc578181015183820152602001612fb4565b838111156124f85750506000910152565b60008151808452612ff5816020860160208601612fb1565b601f01601f19169290920160200192915050565b6020815260006114656020830184612fdd565b6000806040838503121561302f57600080fd5b61303883612f7a565b946020939093013593505050565b60006020828403121561305857600080fd5b5035919050565b6001600160a01b0391909116815260200190565b60008060006060848603121561308857600080fd5b61309184612f7a565b925061309f60208501612f7a565b9150604084013590509250925092565b60008060008060008060008060006101208a8c0312156130ce57600080fd5b6130d78a612f7a565b98506130e560208b01612f7a565b975060408a013596506130fa60608b01612f7a565b955061310860808b01612f7a565b945061311660a08b01612f7a565b935061312460c08b01612f7a565b925061313260e08b01612f7a565b91506101008a013590509295985092959850929598565b634e487b7160e01b600052604160045260246000fd5b604051601f8201601f1916810167ffffffffffffffff8111828210171561318857613188613149565b604052919050565b600067ffffffffffffffff8211156131aa576131aa613149565b50601f01601f191660200190565b6000602082840312156131ca57600080fd5b813567ffffffffffffffff8111156131e157600080fd5b8201601f810184136131f257600080fd5b803561320561320082613190565b61315f565b81815285602083850101111561321a57600080fd5b81602084016020830137600091810160200191909152949350505050565b6000806000806080858703121561324e57600080fd5b5050823594602084013594506040840135936060013592509050565b6000806040838503121561327d57600080fd5b61328683612f7a565b915061329460208401612f7a565b90509250929050565b634e487b7160e01b600052601160045260246000fd5b600082198211156132c6576132c661329d565b500190565b6000826132e857634e487b7160e01b600052601260045260246000fd5b500490565b634e487b7160e01b600052603260045260246000fd5b600081600019048311821515161561331d5761331d61329d565b500290565b6000828210156133345761333461329d565b500390565b83815260406020820152816040820152818360608301376000818301606090810191909152601f909201601f1916010192915050565b60006020828403121561338157600080fd5b8151801515811461146557600080fd5b600082601f8301126133a257600080fd5b8151602067ffffffffffffffff808311156133bf576133bf613149565b8260051b6133ce83820161315f565b93845285810183019383810190888611156133e857600080fd5b84880192505b85831015611223578251848111156134065760008081fd5b8801603f81018a136134185760008081fd5b85810151604061342a61320083613190565b8281528c8284860101111561343f5760008081fd5b61344e838a8301848701612fb1565b855250505091840191908401906133ee565b6000806040838503121561347357600080fd5b825167ffffffffffffffff8082111561348b57600080fd5b61349786838701613391565b935060208501519150808211156134ad57600080fd5b506134ba85828601613391565b9150509250929050565b600083516134d6818460208801612fb1565b6001600160801b0319939093169190920190815260100192915050565b60008251613505818460208701612fb1565b9190910192915050565b60006020828403121561352157600080fd5b5051919050565b6000835161353a818460208801612fb1565b9190910191825250602001919050565b60808152600061355d6080830187612fdd565b828103602084015261356f8187612fdd565b905082810360408401526135838186612fdd565b91505082606083015295945050505050565b600181811c908216806135a957607f821691505b602082108114156118be57634e487b7160e01b600052602260045260246000fd5b634e487b7160e01b600052600160045260246000fdfea2646970667358221220970321c783abf715e67020d8e4b80f54819b7eacd341ba3f4ceafe86e46d3bd764736f6c634300080a0033",
    "devdoc": {
        "author": "Kiln",
        "events": {
            "Paused(address)": {
                "params": {
                    "admin": "The admin at the time of the pause event"
                }
            },
            "Unpaused(address)": {
                "params": {
                    "admin": "The admin at the time of the unpause event"
                }
            }
        },
        "kind": "dev",
        "methods": {
            "admin()": {
                "details": "Returns the current admin. NOTE: Only the admin can call this function. See {ProxyAdmin-getProxyAdmin}. TIP: To get this value clients can read directly from the storage slot shown below (specified by EIP1967) using the https://eth.wiki/json-rpc/API#eth_getstorageat[`eth_getStorageAt`] RPC call. `0xb53127684a568b3173ae13b9f8a6016e243e63b6e8ee1178d6a717850b5d6103`"
            },
            "changeAdmin(address)": {
                "details": "Changes the admin of the proxy. Emits an {AdminChanged} event. NOTE: Only the admin can call this function. See {ProxyAdmin-changeProxyAdmin}."
            },
            "constructor": {
                "details": "The Admin of the proxy should not be the same as theadmin on the implementation logics. The admin here isthe only account allowed to perform calls on the proxy(the calls are never delegated to the implementation)",
                "params": {
                    "__admin": "Address of the admin in charge of the proxy",
                    "_data": "Calldata for an atomic initialization",
                    "_logic": "Address of the implementation"
                }
            },
            "implementation()": {
                "details": "Returns the current implementation. NOTE: Only the admin can call this function. See {ProxyAdmin-getProxyImplementation}. TIP: To get this value clients can read directly from the storage slot shown below (specified by EIP1967) using the https://eth.wiki/json-rpc/API#eth_getstorageat[`eth_getStorageAt`] RPC call. `0x360894a13ba1a3210667c828492db98dca3e2076cc3735a920a3ca505d382bbc`"
            },
            "pause()": {
                "details": "Pauses system"
            },
            "paused()": {
                "details": "Retrieves Paused state",
                "returns": {
                    "_0": "Paused state"
                }
            },
            "unpause()": {
                "details": "Unpauses system"
            },
            "upgradeTo(address)": {
                "details": "Upgrade the implementation of the proxy. NOTE: Only the admin can call this function. See {ProxyAdmin-upgrade}."
            },
            "upgradeToAndCall(address,bytes)": {
                "details": "Upgrade the implementation of the proxy, and then call a function from the new implementation as specified by `data`, which should be an encoded function call. This is useful to initialize new storage variables in the proxied contract. NOTE: Only the admin can call this function. See {ProxyAdmin-upgradeAndCall}."
            }
        },
        "title": "TUPProxy (Transparent Upgradeable Pausable Proxy)",
        "version": 1
    },
    "userdoc": {
        "errors": {
            "CallWhenPaused()": [
                {
                    "notice": "A call happened while the system was paused"
                }
            ]
        },
        "events": {
            "Paused(address)": {
                "notice": "The system is now paused"
            },
            "Unpaused(address)": {
                "notice": "The system is now unpaused"
            }
        },
        "kind": "user",
        "methods": {},
        "notice": "This contract extends the Transparent Upgradeable proxy and adds a system wide pause feature.         When the system is paused, the fallback will fail no matter what calls are made.         Address Zero is allowed to perform calls even if paused to allow view calls made         from RPC providers to properly work.",
        "version": 1
    },
    "storageLayout": {
        "storage": [],
        "types": null
    },
    "implementations": {
        "names": [
            "RiverV1_Implementation_0_2_2.json",
            "RiverV1_Implementation_0_4_0.json",
            "RiverV1_Implementation_0_5_0.json"
        ],
        "transactionHash": [
            "0xb1aec45c6a8b6a0dd2fde3b3745716696c79039363c881ad32b00409a6bae80c",
            "0x2b9594e64a3491705bb6d094ed84357f6b44f7c42f7104e2b9395b64770af0ed",
            "0xb634334f6719f75252af87c45e32ce3faf6a67a6640739b6e9bfaca89c486d1d"
        ],
        "args": [
            [],
            [],
            []
        ],
        "numDeployments": [
            1,
            1,
            1
        ],
        "solcInputHash": [
            "656663a520c7d1a8fa475138c7426bea",
            "d46223a1947b2b7fbc79fc0dfd1c596b",
            "3fdb9e1163d88d42993a4de988d05361"
        ],
        "bytecode": [
            "0x608060405234801561001057600080fd5b50613063806100206000396000f3fe60806040526004361061026b5760003560e01c80635639671511610144578063a9059cbb116100b6578063d04681561161007a578063d0468156146106e6578063d0e30db0146106fb578063dd62ed3e14610703578063efd6034714610723578063f79c3f021461072b578063fb5b82d01461074b5761027b565b8063a9059cbb14610669578063ac232bde14610689578063bf15af561461069c578063c5eff3d0146106b1578063cc48cd31146106c65761027b565b80637adbf973116101085780637adbf973146105bc578063833b1fce146105dc57806387f2adfb146105f157806395d89b41146106065780639b498e2614610634578063a457c2d7146106495761027b565b8063563967151461053257806358bf3c7f146105475780636e9960c31461056757806370a082311461057c578063799a19541461059c5761027b565b806323b872dd116101dd57806336bf3325116101a157806336bf33251461049657806339509351146104b35780633af9e669146104d357806346425ef0146104f35780635022820114610508578063540bc5ea1461051d5761027b565b806323b872dd146103f8578063281a312214610418578063291206f6146104385780632cb562e114610458578063313ce5671461047a5761027b565b80631311cf8d1161022f5780631311cf8d1461035957806313d86aed14610379578063143a08d414610399578063147bf6c4146103ae57806318160ddd146103ce5780631bcbfaba146103e35761027b565b806304843a171461029457806306fdde03146102bc578063095ea7b3146102ff5780630e18b6811461032f578063107d7fa0146103445761027b565b3661027b576102793361076b565b005b60405163574b16a760e11b815260040160405180910390fd5b3480156102a057600080fd5b506102a96107f2565b6040519081526020015b60405180910390f35b3480156102c857600080fd5b50604080518082019091526011815270098d2e2ead2c840a6e8c2d6cac8408aa89607b1b60208201525b6040516102b39190612ae6565b34801561030b57600080fd5b5061031f61031a366004612b15565b610801565b60405190151581526020016102b3565b34801561033b57600080fd5b50610279610857565b34801561035057600080fd5b506102a96108b7565b34801561036557600080fd5b50610279610374366004612b3f565b6108c1565b34801561038557600080fd5b50610279610394366004612b5a565b61093c565b3480156103a557600080fd5b506102a9610af5565b3480156103ba57600080fd5b506102796103c9366004612b3f565b610aff565b3480156103da57600080fd5b506102a9610b46565b3480156103ef57600080fd5b506102a9610b50565b34801561040457600080fd5b5061031f610413366004612b73565b610b5a565b34801561042457600080fd5b50610279610433366004612baf565b610c0d565b34801561044457600080fd5b50610279610453366004612b5a565b610def565b34801561046457600080fd5b5061046d610e69565b6040516102b39190612c49565b34801561048657600080fd5b50604051601281526020016102b3565b3480156104a257600080fd5b506102a96801bc16d674ec80000081565b3480156104bf57600080fd5b5061031f6104ce366004612b15565b610e73565b3480156104df57600080fd5b506102a96104ee366004612b3f565b610ee3565b3480156104ff57600080fd5b506102a9610efc565b34801561051457600080fd5b5061046d610f06565b34801561052957600080fd5b506102a9606081565b34801561053e57600080fd5b506102a9610f10565b34801561055357600080fd5b50610279610562366004612b3f565b610f1a565b34801561057357600080fd5b5061046d610f95565b34801561058857600080fd5b506102a9610597366004612b3f565b610f9f565b3480156105a857600080fd5b506102a96105b7366004612b5a565b610faa565b3480156105c857600080fd5b506102796105d7366004612b3f565b610fb5565b3480156105e857600080fd5b5061046d611030565b3480156105fd57600080fd5b506102a961103a565b34801561061257600080fd5b50604080518082019091526005815264098e68aa8960db1b60208201526102f2565b34801561064057600080fd5b5061046d611044565b34801561065557600080fd5b5061031f610664366004612b15565b61104e565b34801561067557600080fd5b5061031f610684366004612b15565b611066565b610279610697366004612b3f565b611105565b3480156106a857600080fd5b506102a9603081565b3480156106bd57600080fd5b5061046d611117565b3480156106d257600080fd5b506102796106e1366004612c5d565b611121565b3480156106f257600080fd5b5061046d61129b565b6102796112a5565b34801561070f57600080fd5b506102a961071e366004612c8f565b6112ae565b6102796112c1565b34801561073757600080fd5b506102a9610746366004612b5a565b6112fc565b34801561075757600080fd5b50610279610766366004612b3f565b611307565b34610789576040516395b66fe960e01b815260040160405180910390fd5b6107a434610795611382565b61079f9190612cd8565b6113b6565b6107af3382346113e9565b6040513481526001600160a01b0382169033907f3bc57f469ad6d10d7723ea226cd22bd2b9e527def2b529f6ab44645a166895829060200160405180910390a350565b60006107fc611382565b905090565b600061080e338484611583565b6040518281526001600160a01b0384169033907f8c5be1e5ebec7d5bd14f71427d1e84f3dd0314c0f7b2291e5b200ac8c7c3b9259060200160405180910390a350600192915050565b61085f6115da565b6001600160a01b0316336001600160a01b03161461089b573360405163472511eb60e11b81526004016108929190612c49565b60405180910390fd5b6108ab6108a66115da565b6115e4565b6108b5600061162d565b565b60006107fc61166d565b6108c961169d565b6001600160a01b0316336001600160a01b0316146108fc573360405163472511eb60e11b81526004016108929190612c49565b610905816116a7565b6040516001600160a01b038216907f1da4c245099590dc40be61880c9b97792f3694d970acc1e67ac0e6cc90f3780d90600090a250565b6109446116d5565b6001600160a01b0316336001600160a01b031614610977573360405163472511eb60e11b81526004016108929190612c49565b6000610981611382565b905060006109a161099b6801bc16d674ec80000084612cf0565b846116df565b9050806109c157604051631036b5ad60e31b815260040160405180910390fd5b6000806109cd836116f4565b81519193509150806109f25760405163200149ad60e21b815260040160405180910390fd5b83811115610a1357604051635993bd5760e01b815260040160405180910390fd5b8151818114610a35576040516322e5ce4360e21b815260040160405180910390fd5b6000610a3f61177c565b905080610a5f57604051639be7315960e01b815260040160405180910390fd5b60005b83811015610aaf57610aa7868281518110610a7f57610a7f612d12565b6020026020010151868381518110610a9957610a99612d12565b6020026020010151846117ac565b600101610a62565b50610ad0610ac6846801bc16d674ec800000612d28565b61079f9089612d47565b610aeb83610adc611c34565b610ae69190612cd8565b611c64565b5050505050505050565b60006107fc611c92565b610b0761169d565b6001600160a01b0316336001600160a01b031614610b3a573360405163472511eb60e11b81526004016108929190612c49565b610b438161162d565b50565b60006107fc611d0c565b60006107fc611d16565b60008383610b688282611d46565b8380610b87576040516336b216db60e21b815260040160405180910390fd5b868580610b9383611e72565b1015610bb2576040516351940b3960e11b815260040160405180910390fd5b6001600160a01b038816610beb57604051637617407560e11b81526001600160a01b038a16600482015260006024820152604401610892565b610bf58988611e7d565b610c00898989611ee8565b9998505050505050505050565b6000610c17611f64565b8114610c485780610c26611f64565b604051631cfd276760e31b815260048101929092526024820152604401610892565b610c5b610c56826001612cd8565b611f94565b610c64866115e4565b610c6d83611fc2565b6040516001600160a01b038416907f0cc5437d7c9c1d9eab549acbb533eea3e9868e9443dd75309ed5820b33a3774e90600090a2610caa82611ff9565b6040518281527fbd533e726baaf59b36f3914d950053f7e78f527057c97cd3f0043257fc0fc8849060200160405180910390a1610ce6896116a7565b6040516001600160a01b038a16907f1da4c245099590dc40be61880c9b97792f3694d970acc1e67ac0e6cc90f3780d90600090a2610d2385612030565b6040516001600160a01b038616907f30f015a5d3c72c0a9414538199baa022323a483fa9e4ba2cd581596cf8ca042490600090a2610d6084612067565b6040516001600160a01b038516907fffc0721ef0563a1b0a51a0dc92113025f33ca434ada9ee3eebff2f385d2a8f9a90600090a2610d9e8a8961209e565b610da787610ff0565b7f1809e49bba43f2d39fa57894b50cd6ccb428cc438230e065cac3eb24a1355a7181600036604051610ddb93929190612d5e565b60405180910390a150505050505050505050565b610df761169d565b6001600160a01b0316336001600160a01b031614610e2a573360405163472511eb60e11b81526004016108929190612c49565b610e3381611ff9565b6040518181527fbd533e726baaf59b36f3914d950053f7e78f527057c97cd3f0043257fc0fc8849060200160405180910390a150565b60006107fc61211a565b60008082610e81338661214a565b610e8b9190612cd8565b9050610e98338583611583565b6040518181526001600160a01b0385169033907f8c5be1e5ebec7d5bd14f71427d1e84f3dd0314c0f7b2291e5b200ac8c7c3b925906020015b60405180910390a35060019392505050565b6000610ef6610ef1836121a2565b6121f0565b92915050565b60006107fc612228565b60006107fc612258565b60006107fc61177c565b610f2261169d565b6001600160a01b0316336001600160a01b031614610f55573360405163472511eb60e11b81526004016108929190612c49565b610f5e81612030565b6040516001600160a01b038216907f30f015a5d3c72c0a9414538199baa022323a483fa9e4ba2cd581596cf8ca042490600090a250565b60006107fc61169d565b6000610ef682611e72565b6000610ef682612288565b610fbd6116d5565b6001600160a01b0316336001600160a01b031614610ff0573360405163472511eb60e11b81526004016108929190612c49565b610ff9816122b5565b6040516001600160a01b038216907fd3b5d1e0ffaeff528910f3663f0adace7694ab8241d58e17a91351ced2e0803190600090a250565b60006107fc6122ec565b60006107fc611c34565b60006107fc61231c565b6000808261105c338661214a565b610e8b9190612d47565b600033836110748282611d46565b8380611093576040516336b216db60e21b815260040160405180910390fd5b33858061109f83611e72565b10156110be576040516351940b3960e11b815260040160405180910390fd5b6001600160a01b0388166110ee57604051637617407560e11b815233600482015260006024820152604401610892565b6110f9338989611ee8565b98975050505050505050565b61110e8161234c565b610b438161076b565b60006107fc612373565b6111296122ec565b6001600160a01b0316336001600160a01b03161461115c573360405163472511eb60e11b81526004016108929190612c49565b611164611c34565b8411156111965783611174611c34565b6040516376179ac560e01b815260048101929092526024820152604401610892565b60006111a061166d565b6111aa9086612d47565b905060006111c1826801bc16d674ec800000612d28565b6111c9612228565b6111d39190612cd8565b90506111de856123a3565b6111e7866123d1565b6111f0846123ff565b6000856111fd8386612cd8565b111561122357611220866112118487612cd8565b61121b9190612d47565b61242d565b90505b61122d8187612cd8565b82101561125157611251826112428389612cd8565b61124c9190612d47565b612504565b60408051888152602081018890529081018690527f25d7358447891786a139ae7149548f3232a8c95f2ea6065c69c5bd7c39cd386c9060600160405180910390a150505050505050565b60006107fc6115da565b6108b53361076b565b60006112ba838361214a565b9392505050565b6112c961211a565b6001600160a01b0316336001600160a01b0316146108b5573360405163472511eb60e11b81526004016108929190612c49565b6000610ef6826121f0565b61130f61169d565b6001600160a01b0316336001600160a01b031614611342573360405163472511eb60e11b81526004016108929190612c49565b61134b81611fc2565b6040516001600160a01b038216907f0cc5437d7c9c1d9eab549acbb533eea3e9868e9443dd75309ed5820b33a3774e90600090a250565b60006107fc6113b260017f2b6136e423ab70d76431e2a635e877e16ea2dd9a895e054ad7f35f89d6c7b711612d47565b5490565b610b436113e460017f2b6136e423ab70d76431e2a635e877e16ea2dd9a895e054ad7f35f89d6c7b711612d47565b829055565b60006113f58483612636565b90506000611401612373565b9050836001600160a01b0316856001600160a01b0316141561148257604051632d20488160e11b81526001600160a01b03868116600483015260016024830152821690635a4091029060440160006040518083038186803b15801561146557600080fd5b505afa158015611479573d6000803e3d6000fd5b5050505061157c565b604051632d20488160e11b81526001600160a01b03868116600483015260016024830152821690635a4091029060440160006040518083038186803b1580156114ca57600080fd5b505afa1580156114de573d6000803e3d6000fd5b505060405163e838dfbb60e01b81526001600160a01b038416925063e838dfbb915061150e908790600401612c49565b602060405180830381865afa15801561152b573d6000803e3d6000fd5b505050506040513d601f19601f8201168201806040525081019061154f9190612d94565b1561156f578360405163e7d05e2760e01b81526004016108929190612c49565b61157a858584611ee8565b505b5050505050565b60006115b060017fc852254d5b703a16bb13b3e233a335d6459c5da5db0ca732d7a684ee05407847612d47565b6001600160a01b039485166000908152602091825260408082209590961681529390525091902055565b60006107fc612695565b6115ed8161234c565b6115f6816126c5565b6040516001600160a01b038216907f5a272403b402d892977df56625f4164ccaf70ca3863991c43ecfe76a6905b0a190600090a250565b611636816126ce565b6040516001600160a01b038216907f2a0f8515de3fa34ef68b99300347b8793c01683350743e96fe440594528298f490600090a250565b60006107fc6113b260017f0f1e7733641e4d843128fea0d2ec90d3d06a40b0fe244ff603d8c1aa200dc0f9612d47565b60006107fc6126d7565b610b436113e460017f8e9e2a1d30fed357d8a000c1131fc77ed65d2052918caf1ccc6eb1e7af3d13b6612d47565b60006107fc610f95565b60008183116116ee57826112ba565b50919050565b6060806116ff61231c565b6001600160a01b031663a1947323846040518263ffffffff1660e01b815260040161172c91815260200190565b6000604051808303816000875af115801561174b573d6000803e3d6000fd5b505050506040513d6000823e601f3d908101601f191682016040526117739190810190612ee2565b91509150915091565b60006107fc6113b260017fb649e50315f962b32d487e696a81b4828631b11f8424daaaa37e9e97766a2c42612d47565b60308351146117ce5760405163050cb55360e41b815260040160405180910390fd5b60608251146117f05760405163408ebd3960e01b815260040160405180910390fd5b6801bc16d674ec800000600061180a633b9aca0083612cf0565b90506000600286600060801b604051602001611827929190612f46565b60408051601f198184030181529082905261184191612f75565b602060405180830381855afa15801561185e573d6000803e3d6000fd5b5050506040513d601f19601f820116820180604052508101906118819190612f91565b905060006002806118958860006040612707565b6040516118a29190612f75565b602060405180830381855afa1580156118bf573d6000803e3d6000fd5b5050506040513d601f19601f820116820180604052508101906118e29190612f91565b60026118fa8960406118f5816060612d47565b612707565b60405161190d9190600090602001612faa565b60408051601f198184030181529082905261192791612f75565b602060405180830381855afa158015611944573d6000803e3d6000fd5b5050506040513d601f19601f820116820180604052508101906119679190612f91565b60408051602081019390935282015260600160408051601f198184030181529082905261199391612f75565b602060405180830381855afa1580156119b0573d6000803e3d6000fd5b5050506040513d601f19601f820116820180604052508101906119d39190612f91565b9050600060028084886040516020016119f6929190918252602082015260400190565b60408051601f1981840301815290829052611a1091612f75565b602060405180830381855afa158015611a2d573d6000803e3d6000fd5b5050506040513d601f19601f82011682018060405250810190611a509190612f91565b6002611a5b876127ca565b604080516020810192909252810186905260600160408051601f1981840301815290829052611a8991612f75565b602060405180830381855afa158015611aa6573d6000803e3d6000fd5b5050506040513d601f19601f82011682018060405250810190611ac99190612f91565b60408051602081019390935282015260600160408051601f1981840301815290829052611af591612f75565b602060405180830381855afa158015611b12573d6000803e3d6000fd5b5050506040513d601f19601f82011682018060405250810190611b359190612f91565b90506000611b438647612d47565b9050611b4d612837565b6001600160a01b03166322895118878b8a604051602001611b7091815260200190565b6040516020818303038152906040528c876040518663ffffffff1660e01b8152600401611ba09493929190612fcc565b6000604051808303818588803b158015611bb957600080fd5b505af1158015611bcd573d6000803e3d6000fd5b5050505050804714611bf257604051638051a6bb60e01b815260040160405180910390fd5b7f11553d182c6d24df901ccbb837d640c1ee9994876a88dccc8ddfd7ebab9b6ce189604051611c219190612ae6565b60405180910390a1505050505050505050565b60006107fc6113b260017fc77078e3530c08cdb2440817c81de4836500b4708ea4d15672b7fe98956423a8612d47565b610b436113e460017fc77078e3530c08cdb2440817c81de4836500b4708ea4d15672b7fe98956423a8612d47565b600080611c9d61166d565b90506000611ca9611c34565b905080821015611cfc576801bc16d674ec800000611cc78383612d47565b611cd19190612d28565b611cd9611382565b611ce1612228565b611ceb9190612cd8565b611cf59190612cd8565b9250505090565b611d04611382565b611ceb612228565b60006107fc612867565b60006107fc6113b260017f094efef62d2ce60c14ffacd35a1b50546d3a9d503aff1df040176fffd6c92a37612d47565b6000611d50612373565b60405163e838dfbb60e01b81529091506001600160a01b0382169063e838dfbb90611d7f908690600401612c49565b602060405180830381865afa158015611d9c573d6000803e3d6000fd5b505050506040513d601f19601f82011682018060405250810190611dc09190612d94565b15611de0578260405163e7d05e2760e01b81526004016108929190612c49565b60405163e838dfbb60e01b81526001600160a01b0382169063e838dfbb90611e0c908590600401612c49565b602060405180830381865afa158015611e29573d6000803e3d6000fd5b505050506040513d601f19601f82011682018060405250810190611e4d9190612d94565b15611e6d578160405163e7d05e2760e01b81526004016108929190612c49565b505050565b6000610ef6826121a2565b6000611e89833361214a565b905081811015611ecb57604051637b936de360e01b81526001600160a01b03841660048201523360248201526044810182905260648101839052608401610892565b6000198114611e6d57611e6d8333611ee38585612d47565b611583565b6000611f078483611ef8876121a2565b611f029190612d47565b612897565b611f1f8383611f15866121a2565b611f029190612cd8565b826001600160a01b0316846001600160a01b03167fddf252ad1be2c89b69c2b068fc378daa952ba7f163c4a11628f55a4df523b3ef84604051610ed191815260200190565b60006107fc6113b260017f82055909238c0f5e63d6f174068ebb8f51bcec9bd37de63bb68f6551feec0cfd612d47565b610b436113e460017f82055909238c0f5e63d6f174068ebb8f51bcec9bd37de63bb68f6551feec0cfd612d47565b611fcb8161234c565b610b436113e460017f082b6d18de7b10e438e6b1002141db737519cb4ceed679bc815e3aac00cd2227612d47565b612002816128e3565b610b436113e460017f094efef62d2ce60c14ffacd35a1b50546d3a9d503aff1df040176fffd6c92a37612d47565b6120398161234c565b610b436113e460017f867d8f1a5e39d11d5bebde854d5359a509530ad32450f581da63c06ec8d1a780612d47565b6120708161234c565b610b436113e460017f3f075dea7ef99b1e5db245018e5e4ed8d2a0d93953f5932b2176bef59bd69061612d47565b6120a782612906565b6040516001600160a01b038316907e043cf7635f276413ae358250286a479a631abd9d74d57d4aa0bb87ebc7d11790600090a26120e38161293d565b6040518181527f4c86ba184ea1a1558f84835ca34f6d67e222e8ee5cc4f324b8861dda4cf1740c9060200160405180910390a15050565b60006107fc6113b260017f8e9e2a1d30fed357d8a000c1131fc77ed65d2052918caf1ccc6eb1e7af3d13b6612d47565b60008061217860017fc852254d5b703a16bb13b3e233a335d6459c5da5db0ca732d7a684ee05407847612d47565b6001600160a01b039485166000908152602091825260408082209590961681529390525050205490565b6000806121d060017f0fb4a5ac9287f4f508aa7253ee2d57c6a228b1b30e210d73fffd59389d3a8838612d47565b6001600160a01b0390931660009081526020939093525050604090205490565b6000806121fb612867565b90508061220b5750600092915050565b80612214611c92565b61221e9085612d28565b6112ba9190612cf0565b60006107fc6113b260017ffedfd2c285a57fb23bf45a3fe9ac02d36a76ebb72801b1c8aaf553d74e9d4653612d47565b60006107fc6113b260017f082b6d18de7b10e438e6b1002141db737519cb4ceed679bc815e3aac00cd2227612d47565b600080612293612867565b9050806122a35750600092915050565b6122ab611c92565b61221e8285612d28565b6122be8161234c565b610b436113e460017fc8cbea9407c380ae944f052b5a442330057683c5abdbd453493f9750806afecb612d47565b60006107fc6113b260017fc8cbea9407c380ae944f052b5a442330057683c5abdbd453493f9750806afecb612d47565b60006107fc6113b260017f3f075dea7ef99b1e5db245018e5e4ed8d2a0d93953f5932b2176bef59bd69061612d47565b6001600160a01b038116610b435760405163f6b2911f60e01b815260040160405180910390fd5b60006107fc6113b260017f867d8f1a5e39d11d5bebde854d5359a509530ad32450f581da63c06ec8d1a780612d47565b610b436113e460017ffedfd2c285a57fb23bf45a3fe9ac02d36a76ebb72801b1c8aaf553d74e9d4653612d47565b610b436113e460017f0f1e7733641e4d843128fea0d2ec90d3d06a40b0fe244ff603d8c1aa200dc0f9612d47565b610b436113e460017fd7f2d45e512a86049f7a113657b39731b6b558609584243063a52cd31a8eb529612d47565b60008061243861211a565b90506001600160a01b0381166124515750600092915050565b60405163c8a6dfd360e01b81526004810184905247906001600160a01b0383169063c8a6dfd390602401600060405180830381600087803b15801561249557600080fd5b505af11580156124a9573d6000803e3d6000fd5b50505050600081476124bb9190612d47565b90506124c981610795611382565b6040518181527fda841d3042d792e2509a333b9dcbd4b3dd9b9047d382011f8788fab90ca7e3c79060200160405180910390a1949350505050565b600061250e611d0c565b90508061252e57604051630d35acd760e21b815260040160405180910390fd5b6000612538611c92565b90506000612544611d16565b90506000816125538587612d28565b61255d9190612d28565b9050600061256b8387612d28565b61257761271086612d28565b6125819190612d47565b90506000811561259a576125958284612cf0565b61259d565b60005b9050801561262d5760006125af612258565b90506125bb8183612989565b60006125c5611d0c565b905060006125d38a89612d47565b60408051828152602081018c90529081018a9052606081018490529091506001600160a01b038416907f3d1669e813a9845c288f0e1f642a4343a451103b87886d12de37e63b39bbd9429060800160405180910390a25050505b50505050505050565b60008082612642611c92565b61264c9190612d47565b905080612665578291506126608484612989565b61268e565b8061266e611d0c565b6126789085612d28565b6126829190612cf0565b915061268e8483612989565b5092915050565b60006107fc6113b260017f6e6ab8b7c7aaba79eef8cc633522d606bb008c101cf9832c9ad05d10a9847281612d47565b610b43816129f7565b610b4381612a2e565b60006107fc6113b260017fb5b37715a3e346e996104f0086703f19825def429233930fd9399c38e05fb113612d47565b60608182601f01101561272d576040516323d5783d60e11b815260040160405180910390fd5b6127378284612cd8565b8451101561275857604051633b99b53d60e01b815260040160405180910390fd5b60608215801561277757604051915060008252602082016040526127c1565b6040519150601f8416801560200281840101858101878315602002848b0101015b818310156127b0578051835260209283019201612798565b5050858452601f01601f1916604052505b50949350505050565b603881901c60ff908116603083901c8216602884901c8316602085901c8416601886901c8516601087901c8616600888811c9790971688881b61ff001617871b17861b17851b17841b17831b1790911b17604082901c801561282e5761282e613017565b5060c01b919050565b60006107fc6113b260017f35efb61d8784060218d9d6aa40eae55904de43779c1afc79c74dfefcfdf91260612d47565b60006107fc6113b260017f6b842b424335d94ccad97e54548dfa02673c1268aba38d3c3c32d28c8988b70b612d47565b60006128c460017f0fb4a5ac9287f4f508aa7253ee2d57c6a228b1b30e210d73fffd59389d3a8838612d47565b6001600160a01b03909316600090815260209390935250604090912055565b612710811115610b43576040516358d620b360e01b815260040160405180910390fd5b61290f8161234c565b610b436113e460017f35efb61d8784060218d9d6aa40eae55904de43779c1afc79c74dfefcfdf91260612d47565b8061295b5760405163a9cb9e0d60e01b815260040160405180910390fd5b610b436113e460017fb649e50315f962b32d487e696a81b4828631b11f8424daaaa37e9e97766a2c42612d47565b6129a481612995612867565b61299f9190612cd8565b612a5c565b6129b28282611f15856121a2565b6040518181526001600160a01b038316906000907fddf252ad1be2c89b69c2b068fc378daa952ba7f163c4a11628f55a4df523b3ef9060200160405180910390a35050565b612a008161234c565b610b436113e460017fb5b37715a3e346e996104f0086703f19825def429233930fd9399c38e05fb113612d47565b610b436113e460017f6e6ab8b7c7aaba79eef8cc633522d606bb008c101cf9832c9ad05d10a9847281612d47565b610b436113e460017f6b842b424335d94ccad97e54548dfa02673c1268aba38d3c3c32d28c8988b70b612d47565b60005b83811015612aa5578181015183820152602001612a8d565b83811115612ab4576000848401525b50505050565b60008151808452612ad2816020860160208601612a8a565b601f01601f19169290920160200192915050565b6020815260006112ba6020830184612aba565b80356001600160a01b0381168114612b1057600080fd5b919050565b60008060408385031215612b2857600080fd5b612b3183612af9565b946020939093013593505050565b600060208284031215612b5157600080fd5b6112ba82612af9565b600060208284031215612b6c57600080fd5b5035919050565b600080600060608486031215612b8857600080fd5b612b9184612af9565b9250612b9f60208501612af9565b9150604084013590509250925092565b60008060008060008060008060006101208a8c031215612bce57600080fd5b612bd78a612af9565b9850612be560208b01612af9565b975060408a01359650612bfa60608b01612af9565b9550612c0860808b01612af9565b9450612c1660a08b01612af9565b9350612c2460c08b01612af9565b9250612c3260e08b01612af9565b91506101008a013590509295985092959850929598565b6001600160a01b0391909116815260200190565b60008060008060808587031215612c7357600080fd5b5050823594602084013594506040840135936060013592509050565b60008060408385031215612ca257600080fd5b612cab83612af9565b9150612cb960208401612af9565b90509250929050565b634e487b7160e01b600052601160045260246000fd5b60008219821115612ceb57612ceb612cc2565b500190565b600082612d0d57634e487b7160e01b600052601260045260246000fd5b500490565b634e487b7160e01b600052603260045260246000fd5b6000816000190483118215151615612d4257612d42612cc2565b500290565b600082821015612d5957612d59612cc2565b500390565b83815260406020820152816040820152818360608301376000818301606090810191909152601f909201601f1916010192915050565b600060208284031215612da657600080fd5b815180151581146112ba57600080fd5b634e487b7160e01b600052604160045260246000fd5b604051601f8201601f1916810167ffffffffffffffff81118282101715612df557612df5612db6565b604052919050565b6000601f8381840112612e0f57600080fd5b8251602067ffffffffffffffff80831115612e2c57612e2c612db6565b8260051b612e3b838201612dcc565b9384528681018301938381019089861115612e5557600080fd5b84890192505b85831015610c0057825184811115612e735760008081fd5b8901603f81018b13612e855760008081fd5b85810151604086821115612e9b57612e9b612db6565b612eac828b01601f19168901612dcc565b8281528d82848601011115612ec15760008081fd5b612ed0838a8301848701612a8a565b85525050509184019190840190612e5b565b60008060408385031215612ef557600080fd5b825167ffffffffffffffff80821115612f0d57600080fd5b612f1986838701612dfd565b93506020850151915080821115612f2f57600080fd5b50612f3c85828601612dfd565b9150509250929050565b60008351612f58818460208801612a8a565b6001600160801b0319939093169190920190815260100192915050565b60008251612f87818460208701612a8a565b9190910192915050565b600060208284031215612fa357600080fd5b5051919050565b60008351612fbc818460208801612a8a565b9190910191825250602001919050565b608081526000612fdf6080830187612aba565b8281036020840152612ff18187612aba565b905082810360408401526130058186612aba565b91505082606083015295945050505050565b634e487b7160e01b600052600160045260246000fdfea2646970667358221220a0ca0e5050c3d44537e9bbacc1c4f8a7319eb9f6a0d9bbaa5d300df1cd91a0b764736f6c634300080a0033",
            "0x608060405234801561001057600080fd5b50613054806100206000396000f3fe60806040526004361061026b5760003560e01c80635639671511610144578063a9059cbb116100b6578063d04681561161007a578063d0468156146106e6578063d0e30db0146106fb578063dd62ed3e14610703578063efd6034714610723578063f79c3f021461072b578063fb5b82d01461074b5761027b565b8063a9059cbb14610669578063ac232bde14610689578063bf15af561461069c578063c5eff3d0146106b1578063cc48cd31146106c65761027b565b80637adbf973116101085780637adbf973146105bc578063833b1fce146105dc57806387f2adfb146105f157806395d89b41146106065780639b498e2614610634578063a457c2d7146106495761027b565b8063563967151461053257806358bf3c7f146105475780636e9960c31461056757806370a082311461057c578063799a19541461059c5761027b565b806323b872dd116101dd57806336bf3325116101a157806336bf33251461049657806339509351146104b35780633af9e669146104d357806346425ef0146104f35780635022820114610508578063540bc5ea1461051d5761027b565b806323b872dd146103f8578063281a312214610418578063291206f6146104385780632cb562e114610458578063313ce5671461047a5761027b565b80631311cf8d1161022f5780631311cf8d1461035957806313d86aed14610379578063143a08d414610399578063147bf6c4146103ae57806318160ddd146103ce5780631bcbfaba146103e35761027b565b806304843a171461029457806306fdde03146102bc578063095ea7b3146102ff5780630e18b6811461032f578063107d7fa0146103445761027b565b3661027b576102793361076b565b005b60405163574b16a760e11b815260040160405180910390fd5b3480156102a057600080fd5b506102a96107f2565b6040519081526020015b60405180910390f35b3480156102c857600080fd5b50604080518082019091526011815270098d2e2ead2c840a6e8c2d6cac8408aa89607b1b60208201525b6040516102b39190612ad7565b34801561030b57600080fd5b5061031f61031a366004612b06565b610801565b60405190151581526020016102b3565b34801561033b57600080fd5b50610279610817565b34801561035057600080fd5b506102a9610877565b34801561036557600080fd5b50610279610374366004612b30565b610881565b34801561038557600080fd5b50610279610394366004612b4b565b6108fc565b3480156103a557600080fd5b506102a9610ab5565b3480156103ba57600080fd5b506102796103c9366004612b30565b610abf565b3480156103da57600080fd5b506102a9610b06565b3480156103ef57600080fd5b506102a9610b10565b34801561040457600080fd5b5061031f610413366004612b64565b610b1a565b34801561042457600080fd5b50610279610433366004612ba0565b610bcd565b34801561044457600080fd5b50610279610453366004612b4b565b610daf565b34801561046457600080fd5b5061046d610e29565b6040516102b39190612c3a565b34801561048657600080fd5b50604051601281526020016102b3565b3480156104a257600080fd5b506102a96801bc16d674ec80000081565b3480156104bf57600080fd5b5061031f6104ce366004612b06565b610e33565b3480156104df57600080fd5b506102a96104ee366004612b30565b610e54565b3480156104ff57600080fd5b506102a9610e6d565b34801561051457600080fd5b5061046d610e77565b34801561052957600080fd5b506102a9606081565b34801561053e57600080fd5b506102a9610e81565b34801561055357600080fd5b50610279610562366004612b30565b610e8b565b34801561057357600080fd5b5061046d610f06565b34801561058857600080fd5b506102a9610597366004612b30565b610f10565b3480156105a857600080fd5b506102a96105b7366004612b4b565b610f1b565b3480156105c857600080fd5b506102796105d7366004612b30565b610f26565b3480156105e857600080fd5b5061046d610fa1565b3480156105fd57600080fd5b506102a9610fab565b34801561061257600080fd5b50604080518082019091526005815264098e68aa8960db1b60208201526102f2565b34801561064057600080fd5b5061046d610fb5565b34801561065557600080fd5b5061031f610664366004612b06565b610fbf565b34801561067557600080fd5b5061031f610684366004612b06565b610fdb565b610279610697366004612b30565b61107a565b3480156106a857600080fd5b506102a9603081565b3480156106bd57600080fd5b5061046d61108c565b3480156106d257600080fd5b506102796106e1366004612c4e565b611096565b3480156106f257600080fd5b5061046d611210565b61027961121a565b34801561070f57600080fd5b506102a961071e366004612c80565b611223565b610279611236565b34801561073757600080fd5b506102a9610746366004612b4b565b611271565b34801561075757600080fd5b50610279610766366004612b30565b61127c565b34610789576040516395b66fe960e01b815260040160405180910390fd5b6107a4346107956112f7565b61079f9190612cc9565b61132b565b6107af33823461135e565b6040513481526001600160a01b0382169033907f3bc57f469ad6d10d7723ea226cd22bd2b9e527def2b529f6ab44645a166895829060200160405180910390a350565b60006107fc6112f7565b905090565b600061080e3384846114f8565b50600192915050565b61081f611567565b6001600160a01b0316336001600160a01b03161461085b573360405163472511eb60e11b81526004016108529190612c3a565b60405180910390fd5b61086b610866611567565b611571565b61087560006115ba565b565b60006107fc6115fa565b61088961162a565b6001600160a01b0316336001600160a01b0316146108bc573360405163472511eb60e11b81526004016108529190612c3a565b6108c581611634565b6040516001600160a01b038216907f1da4c245099590dc40be61880c9b97792f3694d970acc1e67ac0e6cc90f3780d90600090a250565b610904611662565b6001600160a01b0316336001600160a01b031614610937573360405163472511eb60e11b81526004016108529190612c3a565b60006109416112f7565b9050600061096161095b6801bc16d674ec80000084612ce1565b8461166c565b90508061098157604051631036b5ad60e31b815260040160405180910390fd5b60008061098d83611681565b81519193509150806109b25760405163200149ad60e21b815260040160405180910390fd5b838111156109d357604051635993bd5760e01b815260040160405180910390fd5b81518181146109f5576040516322e5ce4360e21b815260040160405180910390fd5b60006109ff611709565b905080610a1f57604051639be7315960e01b815260040160405180910390fd5b60005b83811015610a6f57610a67868281518110610a3f57610a3f612d03565b6020026020010151868381518110610a5957610a59612d03565b602002602001015184611739565b600101610a22565b50610a90610a86846801bc16d674ec800000612d19565b61079f9089612d38565b610aab83610a9c611bc1565b610aa69190612cc9565b611bf1565b5050505050505050565b60006107fc611c1f565b610ac761162a565b6001600160a01b0316336001600160a01b031614610afa573360405163472511eb60e11b81526004016108529190612c3a565b610b03816115ba565b50565b60006107fc611c99565b60006107fc611ca3565b60008383610b288282611cd3565b8380610b47576040516336b216db60e21b815260040160405180910390fd5b868580610b5383611dff565b1015610b72576040516351940b3960e11b815260040160405180910390fd5b6001600160a01b038816610bab57604051637617407560e11b81526001600160a01b038a16600482015260006024820152604401610852565b610bb58988611e0a565b610bc0898989611e70565b9998505050505050505050565b6000610bd7611efe565b8114610c085780610be6611efe565b604051631cfd276760e31b815260048101929092526024820152604401610852565b610c1b610c16826001612cc9565b611f2e565b610c2486611571565b610c2d83611f5c565b6040516001600160a01b038416907f0cc5437d7c9c1d9eab549acbb533eea3e9868e9443dd75309ed5820b33a3774e90600090a2610c6a82611f93565b6040518281527fbd533e726baaf59b36f3914d950053f7e78f527057c97cd3f0043257fc0fc8849060200160405180910390a1610ca689611634565b6040516001600160a01b038a16907f1da4c245099590dc40be61880c9b97792f3694d970acc1e67ac0e6cc90f3780d90600090a2610ce385611fca565b6040516001600160a01b038616907f30f015a5d3c72c0a9414538199baa022323a483fa9e4ba2cd581596cf8ca042490600090a2610d2084612001565b6040516001600160a01b038516907fffc0721ef0563a1b0a51a0dc92113025f33ca434ada9ee3eebff2f385d2a8f9a90600090a2610d5e8a89612038565b610d6787610f61565b7f1809e49bba43f2d39fa57894b50cd6ccb428cc438230e065cac3eb24a1355a7181600036604051610d9b93929190612d4f565b60405180910390a150505050505050505050565b610db761162a565b6001600160a01b0316336001600160a01b031614610dea573360405163472511eb60e11b81526004016108529190612c3a565b610df381611f93565b6040518181527fbd533e726baaf59b36f3914d950053f7e78f527057c97cd3f0043257fc0fc8849060200160405180910390a150565b60006107fc6120b4565b600061080e338484610e4533886120e4565b610e4f9190612cc9565b6114f8565b6000610e67610e628361213c565b61218a565b92915050565b60006107fc6121c2565b60006107fc6121f2565b60006107fc611709565b610e9361162a565b6001600160a01b0316336001600160a01b031614610ec6573360405163472511eb60e11b81526004016108529190612c3a565b610ecf81611fca565b6040516001600160a01b038216907f30f015a5d3c72c0a9414538199baa022323a483fa9e4ba2cd581596cf8ca042490600090a250565b60006107fc61162a565b6000610e6782611dff565b6000610e6782612222565b610f2e611662565b6001600160a01b0316336001600160a01b031614610f61573360405163472511eb60e11b81526004016108529190612c3a565b610f6a8161224f565b6040516001600160a01b038216907fd3b5d1e0ffaeff528910f3663f0adace7694ab8241d58e17a91351ced2e0803190600090a250565b60006107fc612286565b60006107fc611bc1565b60006107fc6122b6565b600061080e338484610fd133886120e4565b610e4f9190612d38565b60003383610fe98282611cd3565b8380611008576040516336b216db60e21b815260040160405180910390fd5b33858061101483611dff565b1015611033576040516351940b3960e11b815260040160405180910390fd5b6001600160a01b03881661106357604051637617407560e11b815233600482015260006024820152604401610852565b61106e338989611e70565b98975050505050505050565b611083816122e6565b610b038161076b565b60006107fc61230d565b61109e612286565b6001600160a01b0316336001600160a01b0316146110d1573360405163472511eb60e11b81526004016108529190612c3a565b6110d9611bc1565b84111561110b57836110e9611bc1565b6040516376179ac560e01b815260048101929092526024820152604401610852565b60006111156115fa565b61111f9086612d38565b90506000611136826801bc16d674ec800000612d19565b61113e6121c2565b6111489190612cc9565b90506111538561233d565b61115c8661236b565b61116584612399565b6000856111728386612cc9565b111561119857611195866111868487612cc9565b6111909190612d38565b6123c7565b90505b6111a28187612cc9565b8210156111c6576111c6826111b78389612cc9565b6111c19190612d38565b61249e565b60408051888152602081018890529081018690527f25d7358447891786a139ae7149548f3232a8c95f2ea6065c69c5bd7c39cd386c9060600160405180910390a150505050505050565b60006107fc611567565b6108753361076b565b600061122f83836120e4565b9392505050565b61123e6120b4565b6001600160a01b0316336001600160a01b031614610875573360405163472511eb60e11b81526004016108529190612c3a565b6000610e678261218a565b61128461162a565b6001600160a01b0316336001600160a01b0316146112b7573360405163472511eb60e11b81526004016108529190612c3a565b6112c081611f5c565b6040516001600160a01b038216907f0cc5437d7c9c1d9eab549acbb533eea3e9868e9443dd75309ed5820b33a3774e90600090a250565b60006107fc61132760017f2b6136e423ab70d76431e2a635e877e16ea2dd9a895e054ad7f35f89d6c7b711612d38565b5490565b610b0361135960017f2b6136e423ab70d76431e2a635e877e16ea2dd9a895e054ad7f35f89d6c7b711612d38565b829055565b600061136a84836125d0565b9050600061137661230d565b9050836001600160a01b0316856001600160a01b031614156113f757604051632d20488160e11b81526001600160a01b03868116600483015260016024830152821690635a4091029060440160006040518083038186803b1580156113da57600080fd5b505afa1580156113ee573d6000803e3d6000fd5b505050506114f1565b604051632d20488160e11b81526001600160a01b03868116600483015260016024830152821690635a4091029060440160006040518083038186803b15801561143f57600080fd5b505afa158015611453573d6000803e3d6000fd5b505060405163e838dfbb60e01b81526001600160a01b038416925063e838dfbb9150611483908790600401612c3a565b602060405180830381865afa1580156114a0573d6000803e3d6000fd5b505050506040513d601f19601f820116820180604052508101906114c49190612d85565b156114e4578360405163e7d05e2760e01b81526004016108529190612c3a565b6114ef858584611e70565b505b5050505050565b611501836122e6565b61150a826122e6565b61151583838361262f565b816001600160a01b0316836001600160a01b03167f8c5be1e5ebec7d5bd14f71427d1e84f3dd0314c0f7b2291e5b200ac8c7c3b9258360405161155a91815260200190565b60405180910390a3505050565b60006107fc612686565b61157a816122e6565b611583816126b6565b6040516001600160a01b038216907f5a272403b402d892977df56625f4164ccaf70ca3863991c43ecfe76a6905b0a190600090a250565b6115c3816126bf565b6040516001600160a01b038216907f2a0f8515de3fa34ef68b99300347b8793c01683350743e96fe440594528298f490600090a250565b60006107fc61132760017f0f1e7733641e4d843128fea0d2ec90d3d06a40b0fe244ff603d8c1aa200dc0f9612d38565b60006107fc6126c8565b610b0361135960017f8e9e2a1d30fed357d8a000c1131fc77ed65d2052918caf1ccc6eb1e7af3d13b6612d38565b60006107fc610f06565b600081831161167b578261122f565b50919050565b60608061168c6122b6565b6001600160a01b031663a1947323846040518263ffffffff1660e01b81526004016116b991815260200190565b6000604051808303816000875af11580156116d8573d6000803e3d6000fd5b505050506040513d6000823e601f3d908101601f191682016040526117009190810190612ed3565b91509150915091565b60006107fc61132760017fb649e50315f962b32d487e696a81b4828631b11f8424daaaa37e9e97766a2c42612d38565b603083511461175b5760405163050cb55360e41b815260040160405180910390fd5b606082511461177d5760405163408ebd3960e01b815260040160405180910390fd5b6801bc16d674ec8000006000611797633b9aca0083612ce1565b90506000600286600060801b6040516020016117b4929190612f37565b60408051601f19818403018152908290526117ce91612f66565b602060405180830381855afa1580156117eb573d6000803e3d6000fd5b5050506040513d601f19601f8201168201806040525081019061180e9190612f82565b9050600060028061182288600060406126f8565b60405161182f9190612f66565b602060405180830381855afa15801561184c573d6000803e3d6000fd5b5050506040513d601f19601f8201168201806040525081019061186f9190612f82565b6002611887896040611882816060612d38565b6126f8565b60405161189a9190600090602001612f9b565b60408051601f19818403018152908290526118b491612f66565b602060405180830381855afa1580156118d1573d6000803e3d6000fd5b5050506040513d601f19601f820116820180604052508101906118f49190612f82565b60408051602081019390935282015260600160408051601f198184030181529082905261192091612f66565b602060405180830381855afa15801561193d573d6000803e3d6000fd5b5050506040513d601f19601f820116820180604052508101906119609190612f82565b905060006002808488604051602001611983929190918252602082015260400190565b60408051601f198184030181529082905261199d91612f66565b602060405180830381855afa1580156119ba573d6000803e3d6000fd5b5050506040513d601f19601f820116820180604052508101906119dd9190612f82565b60026119e8876127bb565b604080516020810192909252810186905260600160408051601f1981840301815290829052611a1691612f66565b602060405180830381855afa158015611a33573d6000803e3d6000fd5b5050506040513d601f19601f82011682018060405250810190611a569190612f82565b60408051602081019390935282015260600160408051601f1981840301815290829052611a8291612f66565b602060405180830381855afa158015611a9f573d6000803e3d6000fd5b5050506040513d601f19601f82011682018060405250810190611ac29190612f82565b90506000611ad08647612d38565b9050611ada612828565b6001600160a01b03166322895118878b8a604051602001611afd91815260200190565b6040516020818303038152906040528c876040518663ffffffff1660e01b8152600401611b2d9493929190612fbd565b6000604051808303818588803b158015611b4657600080fd5b505af1158015611b5a573d6000803e3d6000fd5b5050505050804714611b7f57604051638051a6bb60e01b815260040160405180910390fd5b7f11553d182c6d24df901ccbb837d640c1ee9994876a88dccc8ddfd7ebab9b6ce189604051611bae9190612ad7565b60405180910390a1505050505050505050565b60006107fc61132760017fc77078e3530c08cdb2440817c81de4836500b4708ea4d15672b7fe98956423a8612d38565b610b0361135960017fc77078e3530c08cdb2440817c81de4836500b4708ea4d15672b7fe98956423a8612d38565b600080611c2a6115fa565b90506000611c36611bc1565b905080821015611c89576801bc16d674ec800000611c548383612d38565b611c5e9190612d19565b611c666112f7565b611c6e6121c2565b611c789190612cc9565b611c829190612cc9565b9250505090565b611c916112f7565b611c786121c2565b60006107fc612858565b60006107fc61132760017f094efef62d2ce60c14ffacd35a1b50546d3a9d503aff1df040176fffd6c92a37612d38565b6000611cdd61230d565b60405163e838dfbb60e01b81529091506001600160a01b0382169063e838dfbb90611d0c908690600401612c3a565b602060405180830381865afa158015611d29573d6000803e3d6000fd5b505050506040513d601f19601f82011682018060405250810190611d4d9190612d85565b15611d6d578260405163e7d05e2760e01b81526004016108529190612c3a565b60405163e838dfbb60e01b81526001600160a01b0382169063e838dfbb90611d99908590600401612c3a565b602060405180830381865afa158015611db6573d6000803e3d6000fd5b505050506040513d601f19601f82011682018060405250810190611dda9190612d85565b15611dfa578160405163e7d05e2760e01b81526004016108529190612c3a565b505050565b6000610e678261213c565b6000611e1683336120e4565b905081811015611e5857604051637b936de360e01b81526001600160a01b03841660048201523360248201526044810182905260648101839052608401610852565b6000198114611dfa57611dfa8333610e4f8585612d38565b6000611e8f8483611e808761213c565b611e8a9190612d38565b612888565b611ea78383611e9d8661213c565b611e8a9190612cc9565b826001600160a01b0316846001600160a01b03167fddf252ad1be2c89b69c2b068fc378daa952ba7f163c4a11628f55a4df523b3ef84604051611eec91815260200190565b60405180910390a35060019392505050565b60006107fc61132760017f82055909238c0f5e63d6f174068ebb8f51bcec9bd37de63bb68f6551feec0cfd612d38565b610b0361135960017f82055909238c0f5e63d6f174068ebb8f51bcec9bd37de63bb68f6551feec0cfd612d38565b611f65816122e6565b610b0361135960017f082b6d18de7b10e438e6b1002141db737519cb4ceed679bc815e3aac00cd2227612d38565b611f9c816128d4565b610b0361135960017f094efef62d2ce60c14ffacd35a1b50546d3a9d503aff1df040176fffd6c92a37612d38565b611fd3816122e6565b610b0361135960017f867d8f1a5e39d11d5bebde854d5359a509530ad32450f581da63c06ec8d1a780612d38565b61200a816122e6565b610b0361135960017f3f075dea7ef99b1e5db245018e5e4ed8d2a0d93953f5932b2176bef59bd69061612d38565b612041826128f7565b6040516001600160a01b038316907e043cf7635f276413ae358250286a479a631abd9d74d57d4aa0bb87ebc7d11790600090a261207d8161292e565b6040518181527f4c86ba184ea1a1558f84835ca34f6d67e222e8ee5cc4f324b8861dda4cf1740c9060200160405180910390a15050565b60006107fc61132760017f8e9e2a1d30fed357d8a000c1131fc77ed65d2052918caf1ccc6eb1e7af3d13b6612d38565b60008061211260017fc852254d5b703a16bb13b3e233a335d6459c5da5db0ca732d7a684ee05407847612d38565b6001600160a01b039485166000908152602091825260408082209590961681529390525050205490565b60008061216a60017f0fb4a5ac9287f4f508aa7253ee2d57c6a228b1b30e210d73fffd59389d3a8838612d38565b6001600160a01b0390931660009081526020939093525050604090205490565b600080612195612858565b9050806121a55750600092915050565b806121ae611c1f565b6121b89085612d19565b61122f9190612ce1565b60006107fc61132760017ffedfd2c285a57fb23bf45a3fe9ac02d36a76ebb72801b1c8aaf553d74e9d4653612d38565b60006107fc61132760017f082b6d18de7b10e438e6b1002141db737519cb4ceed679bc815e3aac00cd2227612d38565b60008061222d612858565b90508061223d5750600092915050565b612245611c1f565b6121b88285612d19565b612258816122e6565b610b0361135960017fc8cbea9407c380ae944f052b5a442330057683c5abdbd453493f9750806afecb612d38565b60006107fc61132760017fc8cbea9407c380ae944f052b5a442330057683c5abdbd453493f9750806afecb612d38565b60006107fc61132760017f3f075dea7ef99b1e5db245018e5e4ed8d2a0d93953f5932b2176bef59bd69061612d38565b6001600160a01b038116610b035760405163f6b2911f60e01b815260040160405180910390fd5b60006107fc61132760017f867d8f1a5e39d11d5bebde854d5359a509530ad32450f581da63c06ec8d1a780612d38565b610b0361135960017ffedfd2c285a57fb23bf45a3fe9ac02d36a76ebb72801b1c8aaf553d74e9d4653612d38565b610b0361135960017f0f1e7733641e4d843128fea0d2ec90d3d06a40b0fe244ff603d8c1aa200dc0f9612d38565b610b0361135960017fd7f2d45e512a86049f7a113657b39731b6b558609584243063a52cd31a8eb529612d38565b6000806123d26120b4565b90506001600160a01b0381166123eb5750600092915050565b60405163c8a6dfd360e01b81526004810184905247906001600160a01b0383169063c8a6dfd390602401600060405180830381600087803b15801561242f57600080fd5b505af1158015612443573d6000803e3d6000fd5b50505050600081476124559190612d38565b9050612463816107956112f7565b6040518181527fda841d3042d792e2509a333b9dcbd4b3dd9b9047d382011f8788fab90ca7e3c79060200160405180910390a1949350505050565b60006124a8611c99565b9050806124c857604051630d35acd760e21b815260040160405180910390fd5b60006124d2611c1f565b905060006124de611ca3565b90506000816124ed8587612d19565b6124f79190612d19565b905060006125058387612d19565b61251161271086612d19565b61251b9190612d38565b9050600081156125345761252f8284612ce1565b612537565b60005b905080156125c75760006125496121f2565b9050612555818361297a565b600061255f611c99565b9050600061256d8a89612d38565b60408051828152602081018c90529081018a9052606081018490529091506001600160a01b038416907f3d1669e813a9845c288f0e1f642a4343a451103b87886d12de37e63b39bbd9429060800160405180910390a25050505b50505050505050565b600080826125dc611c1f565b6125e69190612d38565b9050806125ff578291506125fa848461297a565b612628565b80612608611c99565b6126129085612d19565b61261c9190612ce1565b9150612628848361297a565b5092915050565b600061265c60017fc852254d5b703a16bb13b3e233a335d6459c5da5db0ca732d7a684ee05407847612d38565b6001600160a01b039485166000908152602091825260408082209590961681529390525091902055565b60006107fc61132760017f6e6ab8b7c7aaba79eef8cc633522d606bb008c101cf9832c9ad05d10a9847281612d38565b610b03816129e8565b610b0381612a1f565b60006107fc61132760017fb5b37715a3e346e996104f0086703f19825def429233930fd9399c38e05fb113612d38565b60608182601f01101561271e576040516323d5783d60e11b815260040160405180910390fd5b6127288284612cc9565b8451101561274957604051633b99b53d60e01b815260040160405180910390fd5b60608215801561276857604051915060008252602082016040526127b2565b6040519150601f8416801560200281840101858101878315602002848b0101015b818310156127a1578051835260209283019201612789565b5050858452601f01601f1916604052505b50949350505050565b603881901c60ff908116603083901c8216602884901c8316602085901c8416601886901c8516601087901c8616600888811c9790971688881b61ff001617871b17861b17851b17841b17831b1790911b17604082901c801561281f5761281f613008565b5060c01b919050565b60006107fc61132760017f35efb61d8784060218d9d6aa40eae55904de43779c1afc79c74dfefcfdf91260612d38565b60006107fc61132760017f6b842b424335d94ccad97e54548dfa02673c1268aba38d3c3c32d28c8988b70b612d38565b60006128b560017f0fb4a5ac9287f4f508aa7253ee2d57c6a228b1b30e210d73fffd59389d3a8838612d38565b6001600160a01b03909316600090815260209390935250604090912055565b612710811115610b03576040516358d620b360e01b815260040160405180910390fd5b612900816122e6565b610b0361135960017f35efb61d8784060218d9d6aa40eae55904de43779c1afc79c74dfefcfdf91260612d38565b8061294c5760405163a9cb9e0d60e01b815260040160405180910390fd5b610b0361135960017fb649e50315f962b32d487e696a81b4828631b11f8424daaaa37e9e97766a2c42612d38565b61299581612986612858565b6129909190612cc9565b612a4d565b6129a38282611e9d8561213c565b6040518181526001600160a01b038316906000907fddf252ad1be2c89b69c2b068fc378daa952ba7f163c4a11628f55a4df523b3ef9060200160405180910390a35050565b6129f1816122e6565b610b0361135960017fb5b37715a3e346e996104f0086703f19825def429233930fd9399c38e05fb113612d38565b610b0361135960017f6e6ab8b7c7aaba79eef8cc633522d606bb008c101cf9832c9ad05d10a9847281612d38565b610b0361135960017f6b842b424335d94ccad97e54548dfa02673c1268aba38d3c3c32d28c8988b70b612d38565b60005b83811015612a96578181015183820152602001612a7e565b83811115612aa5576000848401525b50505050565b60008151808452612ac3816020860160208601612a7b565b601f01601f19169290920160200192915050565b60208152600061122f6020830184612aab565b80356001600160a01b0381168114612b0157600080fd5b919050565b60008060408385031215612b1957600080fd5b612b2283612aea565b946020939093013593505050565b600060208284031215612b4257600080fd5b61122f82612aea565b600060208284031215612b5d57600080fd5b5035919050565b600080600060608486031215612b7957600080fd5b612b8284612aea565b9250612b9060208501612aea565b9150604084013590509250925092565b60008060008060008060008060006101208a8c031215612bbf57600080fd5b612bc88a612aea565b9850612bd660208b01612aea565b975060408a01359650612beb60608b01612aea565b9550612bf960808b01612aea565b9450612c0760a08b01612aea565b9350612c1560c08b01612aea565b9250612c2360e08b01612aea565b91506101008a013590509295985092959850929598565b6001600160a01b0391909116815260200190565b60008060008060808587031215612c6457600080fd5b5050823594602084013594506040840135936060013592509050565b60008060408385031215612c9357600080fd5b612c9c83612aea565b9150612caa60208401612aea565b90509250929050565b634e487b7160e01b600052601160045260246000fd5b60008219821115612cdc57612cdc612cb3565b500190565b600082612cfe57634e487b7160e01b600052601260045260246000fd5b500490565b634e487b7160e01b600052603260045260246000fd5b6000816000190483118215151615612d3357612d33612cb3565b500290565b600082821015612d4a57612d4a612cb3565b500390565b83815260406020820152816040820152818360608301376000818301606090810191909152601f909201601f1916010192915050565b600060208284031215612d9757600080fd5b8151801515811461122f57600080fd5b634e487b7160e01b600052604160045260246000fd5b604051601f8201601f1916810167ffffffffffffffff81118282101715612de657612de6612da7565b604052919050565b6000601f8381840112612e0057600080fd5b8251602067ffffffffffffffff80831115612e1d57612e1d612da7565b8260051b612e2c838201612dbd565b9384528681018301938381019089861115612e4657600080fd5b84890192505b85831015610bc057825184811115612e645760008081fd5b8901603f81018b13612e765760008081fd5b85810151604086821115612e8c57612e8c612da7565b612e9d828b01601f19168901612dbd565b8281528d82848601011115612eb25760008081fd5b612ec1838a8301848701612a7b565b85525050509184019190840190612e4c565b60008060408385031215612ee657600080fd5b825167ffffffffffffffff80821115612efe57600080fd5b612f0a86838701612dee565b93506020850151915080821115612f2057600080fd5b50612f2d85828601612dee565b9150509250929050565b60008351612f49818460208801612a7b565b6001600160801b0319939093169190920190815260100192915050565b60008251612f78818460208701612a7b565b9190910192915050565b600060208284031215612f9457600080fd5b5051919050565b60008351612fad818460208801612a7b565b9190910191825250602001919050565b608081526000612fd06080830187612aab565b8281036020840152612fe28187612aab565b90508281036040840152612ff68186612aab565b91505082606083015295945050505050565b634e487b7160e01b600052600160045260246000fdfea26469706673582212204c98ac4f477f06f69f4028fa9440dd9c691d20f120c69e574b4c9dd17f97219264736f6c634300080a0033",
            "0x608060405234801561001057600080fd5b50613616806100206000396000f3fe6080604052600436106102a25760003560e01c80635639671511610165578063a457c2d7116100cc578063d046815611610085578063d046815614610787578063d0e30db01461079c578063d4970524146107a4578063dd62ed3e146107ac578063efd60347146107cc578063f79c3f02146107d4578063fb5b82d0146107f4576102b2565b8063a457c2d7146106ea578063a9059cbb1461070a578063ac232bde1461072a578063bf15af561461073d578063c5eff3d014610752578063cc48cd3114610767576102b2565b80637adbf9731161011e5780637adbf97314610648578063833b1fce1461066857806386a92af71461067d57806387f2adfb1461069257806395d89b41146106a75780639b498e26146106d5576102b2565b8063563967151461059e57806358bf3c7f146105b35780636e9960c3146105d357806370a08231146105e8578063750521f514610608578063799a195414610628576102b2565b80631bcbfaba1161020957806336bf3325116101c257806336bf332514610502578063395093511461051f5780633af9e6691461053f57806346425ef01461055f5780635022820114610574578063540bc5ea14610589576102b2565b80631bcbfaba1461045c57806323b872dd14610471578063281a312214610491578063291206f6146104b15780632cb562e1146104d1578063313ce567146104e6576102b2565b80631311cf8d1161025b5780631311cf8d146103b057806313d86aed146103d0578063143a08d4146103f0578063147bf6c4146104055780631546962b1461042557806318160ddd14610447576102b2565b8063020f086e146102cb57806304843a17146102eb57806306fdde0314610313578063095ea7b3146103565780630e18b68114610386578063107d7fa01461039b576102b2565b366102b2576102b033610814565b005b60405163574b16a760e11b815260040160405180910390fd5b3480156102d757600080fd5b506102b06102e6366004612f96565b61089b565b3480156102f757600080fd5b5061030061091f565b6040519081526020015b60405180910390f35b34801561031f57600080fd5b50604080518082019091526011815270098d2e2ead2c840a6e8c2d6cac8408aa89607b1b60208201525b60405161030a9190613009565b34801561036257600080fd5b5061037661037136600461301c565b61092e565b604051901515815260200161030a565b34801561039257600080fd5b506102b0610944565b3480156103a757600080fd5b5061030061099b565b3480156103bc57600080fd5b506102b06103cb366004612f96565b6109a5565b3480156103dc57600080fd5b506102b06103eb366004613046565b610a20565b3480156103fc57600080fd5b50610300610bd9565b34801561041157600080fd5b506102b0610420366004612f96565b610be3565b34801561043157600080fd5b5061043a610c2a565b60405161030a919061305f565b34801561045357600080fd5b50610300610c34565b34801561046857600080fd5b50610300610c3e565b34801561047d57600080fd5b5061037661048c366004613073565b610c48565b34801561049d57600080fd5b506102b06104ac3660046130af565b610cfb565b3480156104bd57600080fd5b506102b06104cc366004613046565b610edd565b3480156104dd57600080fd5b5061043a610f58565b3480156104f257600080fd5b506040516012815260200161030a565b34801561050e57600080fd5b506103006801bc16d674ec80000081565b34801561052b57600080fd5b5061037661053a36600461301c565b610f62565b34801561054b57600080fd5b5061030061055a366004612f96565b610f83565b34801561056b57600080fd5b50610300610f9c565b34801561058057600080fd5b5061043a610fa6565b34801561059557600080fd5b50610300606081565b3480156105aa57600080fd5b50610300610fb0565b3480156105bf57600080fd5b506102b06105ce366004612f96565b610fba565b3480156105df57600080fd5b5061043a611035565b3480156105f457600080fd5b50610300610603366004612f96565b61103f565b34801561061457600080fd5b506102b06106233660046131b8565b61104a565b34801561063457600080fd5b50610300610643366004613046565b6110c6565b34801561065457600080fd5b506102b0610663366004612f96565b6110d1565b34801561067457600080fd5b5061043a61114c565b34801561068957600080fd5b50610349611156565b34801561069e57600080fd5b50610300611160565b3480156106b357600080fd5b50604080518082019091526005815264098e68aa8960db1b6020820152610349565b3480156106e157600080fd5b5061043a61116a565b3480156106f657600080fd5b5061037661070536600461301c565b611174565b34801561071657600080fd5b5061037661072536600461301c565b611190565b6102b0610738366004612f96565b61122f565b34801561074957600080fd5b50610300603081565b34801561075e57600080fd5b5061043a611241565b34801561077357600080fd5b506102b0610782366004613238565b61124b565b34801561079357600080fd5b5061043a61140b565b6102b0611415565b6102b061141e565b3480156107b857600080fd5b506103006107c736600461326a565b611459565b6102b061146c565b3480156107e057600080fd5b506103006107ef366004613046565b611474565b34801561080057600080fd5b506102b061080f366004612f96565b61147f565b34610832576040516395b66fe960e01b815260040160405180910390fd5b61084d3461083e6114fa565b61084891906132b3565b61152e565b610858338234611561565b6040513481526001600160a01b0382169033907f3bc57f469ad6d10d7723ea226cd22bd2b9e527def2b529f6ab44645a166895829060200160405180910390a350565b6108a36116fb565b6001600160a01b0316336001600160a01b0316146108df573360405163472511eb60e11b81526004016108d6919061305f565b60405180910390fd5b6108e881611705565b6040516001600160a01b038216907f67b26a33f305cc027b2d45b2f6f418793afcd3e22f7376afa7be068ce18604e890600090a250565b60006109296114fa565b905090565b600061093b33848461173c565b50600192915050565b61094c6117ab565b6001600160a01b0316336001600160a01b03161461097f573360405163472511eb60e11b81526004016108d6919061305f565b61098f61098a6117ab565b6117b5565b61099960006117fe565b565b600061092961183e565b6109ad6116fb565b6001600160a01b0316336001600160a01b0316146109e0573360405163472511eb60e11b81526004016108d6919061305f565b6109e98161186e565b6040516001600160a01b038216907f1da4c245099590dc40be61880c9b97792f3694d970acc1e67ac0e6cc90f3780d90600090a250565b610a286118a5565b6001600160a01b0316336001600160a01b031614610a5b573360405163472511eb60e11b81526004016108d6919061305f565b6000610a656114fa565b90506000610a85610a7f6801bc16d674ec800000846132cb565b846118af565b905080610aa557604051631036b5ad60e31b815260040160405180910390fd5b600080610ab1836118c4565b8151919350915080610ad65760405163200149ad60e21b815260040160405180910390fd5b83811115610af757604051635993bd5760e01b815260040160405180910390fd5b8151818114610b19576040516322e5ce4360e21b815260040160405180910390fd5b6000610b2361194c565b905080610b4357604051639be7315960e01b815260040160405180910390fd5b60005b83811015610b9357610b8b868281518110610b6357610b636132ed565b6020026020010151868381518110610b7d57610b7d6132ed565b60200260200101518461197c565b600101610b46565b50610bb4610baa846801bc16d674ec800000613303565b6108489089613322565b610bcf83610bc0611e04565b610bca91906132b3565b611e34565b5050505050505050565b6000610929611e62565b610beb6116fb565b6001600160a01b0316336001600160a01b031614610c1e573360405163472511eb60e11b81526004016108d6919061305f565b610c27816117fe565b50565b6000610929611edc565b6000610929611f0c565b6000610929611f16565b60008383610c568282611f46565b8380610c75576040516336b216db60e21b815260040160405180910390fd5b868580610c8183612072565b1015610ca0576040516351940b3960e11b815260040160405180910390fd5b6001600160a01b038816610cd957604051637617407560e11b81526001600160a01b038a166004820152600060248201526044016108d6565b610ce3898861207d565b610cee8989896120e3565b9998505050505050505050565b6000610d05612171565b8114610d365780610d14612171565b604051631cfd276760e31b8152600481019290925260248201526044016108d6565b610d49610d448260016132b3565b6121a1565b610d52866117b5565b610d5b836121cf565b6040516001600160a01b038416907f0cc5437d7c9c1d9eab549acbb533eea3e9868e9443dd75309ed5820b33a3774e90600090a2610d9882612206565b6040518281527fbd533e726baaf59b36f3914d950053f7e78f527057c97cd3f0043257fc0fc8849060200160405180910390a1610dd48961186e565b6040516001600160a01b038a16907f1da4c245099590dc40be61880c9b97792f3694d970acc1e67ac0e6cc90f3780d90600090a2610e118561223d565b6040516001600160a01b038616907f30f015a5d3c72c0a9414538199baa022323a483fa9e4ba2cd581596cf8ca042490600090a2610e4e84612274565b6040516001600160a01b038516907fffc0721ef0563a1b0a51a0dc92113025f33ca434ada9ee3eebff2f385d2a8f9a90600090a2610e8c8a896122ab565b610e958761110c565b7f1809e49bba43f2d39fa57894b50cd6ccb428cc438230e065cac3eb24a1355a7181600036604051610ec993929190613339565b60405180910390a150505050505050505050565b610ee56116fb565b6001600160a01b0316336001600160a01b031614610f18573360405163472511eb60e11b81526004016108d6919061305f565b610f2181612206565b6040518181527fbd533e726baaf59b36f3914d950053f7e78f527057c97cd3f0043257fc0fc884906020015b60405180910390a150565b6000610929612327565b600061093b338484610f743388612357565b610f7e91906132b3565b61173c565b6000610f96610f91836123af565b6123fd565b92915050565b6000610929612435565b6000610929612465565b600061092961194c565b610fc26116fb565b6001600160a01b0316336001600160a01b031614610ff5573360405163472511eb60e11b81526004016108d6919061305f565b610ffe8161223d565b6040516001600160a01b038216907f30f015a5d3c72c0a9414538199baa022323a483fa9e4ba2cd581596cf8ca042490600090a250565b60006109296116fb565b6000610f9682612072565b6110526116fb565b6001600160a01b0316336001600160a01b031614611085573360405163472511eb60e11b81526004016108d6919061305f565b61108e81612495565b611097816124b4565b7f8d2df192dd17edf92a7964b78aa322f3d717b2ab9de00651bee32bbc4c5da63a81604051610f4d9190613009565b6000610f96826124fe565b6110d96118a5565b6001600160a01b0316336001600160a01b03161461110c573360405163472511eb60e11b81526004016108d6919061305f565b6111158161252b565b6040516001600160a01b038216907fd3b5d1e0ffaeff528910f3663f0adace7694ab8241d58e17a91351ced2e0803190600090a250565b6000610929612562565b6060610929612592565b6000610929611e04565b6000610929612658565b600061093b3384846111863388612357565b610f7e9190613322565b6000338361119e8282611f46565b83806111bd576040516336b216db60e21b815260040160405180910390fd5b3385806111c983612072565b10156111e8576040516351940b3960e11b815260040160405180910390fd5b6001600160a01b03881661121857604051637617407560e11b8152336004820152600060248201526044016108d6565b6112233389896120e3565b98975050505050505050565b61123881612688565b610c2781610814565b60006109296126af565b611253612562565b6001600160a01b0316336001600160a01b031614611286573360405163472511eb60e11b81526004016108d6919061305f565b61128e611e04565b8411156112c0578361129e611e04565b6040516376179ac560e01b8152600481019290925260248201526044016108d6565b60006112ca61183e565b6112d49086613322565b905060006112eb826801bc16d674ec800000613303565b6112f3612435565b6112fd91906132b3565b9050611308856126df565b6113118661270d565b61131a8461273b565b60008561132783866132b3565b111561134d5761134a8661133b84876132b3565b6113459190613322565b612769565b90505b858161135984876132b3565b6113639190613322565b111561139357611391868261137885886132b3565b6113829190613322565b61138c9190613322565b612832565b505b61139d81876132b3565b8210156113c1576113c1826113b283896132b3565b6113bc9190613322565b612904565b60408051888152602081018890529081018690527f25d7358447891786a139ae7149548f3232a8c95f2ea6065c69c5bd7c39cd386c9060600160405180910390a150505050505050565b60006109296117ab565b61099933610814565b611426611edc565b6001600160a01b0316336001600160a01b031614610999573360405163472511eb60e11b81526004016108d6919061305f565b60006114658383612357565b9392505050565b611426612327565b6000610f96826123fd565b6114876116fb565b6001600160a01b0316336001600160a01b0316146114ba573360405163472511eb60e11b81526004016108d6919061305f565b6114c3816121cf565b6040516001600160a01b038216907f0cc5437d7c9c1d9eab549acbb533eea3e9868e9443dd75309ed5820b33a3774e90600090a250565b600061092961152a60017f2b6136e423ab70d76431e2a635e877e16ea2dd9a895e054ad7f35f89d6c7b711613322565b5490565b610c2761155c60017f2b6136e423ab70d76431e2a635e877e16ea2dd9a895e054ad7f35f89d6c7b711613322565b829055565b600061156d8483612a36565b905060006115796126af565b9050836001600160a01b0316856001600160a01b031614156115fa57604051632d20488160e11b81526001600160a01b03868116600483015260016024830152821690635a4091029060440160006040518083038186803b1580156115dd57600080fd5b505afa1580156115f1573d6000803e3d6000fd5b505050506116f4565b604051632d20488160e11b81526001600160a01b03868116600483015260016024830152821690635a4091029060440160006040518083038186803b15801561164257600080fd5b505afa158015611656573d6000803e3d6000fd5b505060405163e838dfbb60e01b81526001600160a01b038416925063e838dfbb915061168690879060040161305f565b602060405180830381865afa1580156116a3573d6000803e3d6000fd5b505050506040513d601f19601f820116820180604052508101906116c7919061336f565b156116e7578360405163e7d05e2760e01b81526004016108d6919061305f565b6116f28585846120e3565b505b5050505050565b6000610929612a95565b61170e81612688565b610c2761155c60017ff4271262f3552a4108cde54dc75061de8de495709221d793b126e448522d6a80613322565b61174583612688565b61174e82612688565b611759838383612ac5565b816001600160a01b0316836001600160a01b03167f8c5be1e5ebec7d5bd14f71427d1e84f3dd0314c0f7b2291e5b200ac8c7c3b9258360405161179e91815260200190565b60405180910390a3505050565b6000610929612b1c565b6117be81612688565b6117c781612b4c565b6040516001600160a01b038216907f5a272403b402d892977df56625f4164ccaf70ca3863991c43ecfe76a6905b0a190600090a250565b61180781612b55565b6040516001600160a01b038216907f2a0f8515de3fa34ef68b99300347b8793c01683350743e96fe440594528298f490600090a250565b600061092961152a60017f0f1e7733641e4d843128fea0d2ec90d3d06a40b0fe244ff603d8c1aa200dc0f9613322565b61187781612688565b610c2761155c60017f8e9e2a1d30fed357d8a000c1131fc77ed65d2052918caf1ccc6eb1e7af3d13b6613322565b6000610929611035565b60008183116118be5782611465565b50919050565b6060806118cf612658565b6001600160a01b031663a1947323846040518263ffffffff1660e01b81526004016118fc91815260200190565b6000604051808303816000875af115801561191b573d6000803e3d6000fd5b505050506040513d6000823e601f3d908101601f191682016040526119439190810190613460565b91509150915091565b600061092961152a60017fb649e50315f962b32d487e696a81b4828631b11f8424daaaa37e9e97766a2c42613322565b603083511461199e5760405163050cb55360e41b815260040160405180910390fd5b60608251146119c05760405163408ebd3960e01b815260040160405180910390fd5b6801bc16d674ec80000060006119da633b9aca00836132cb565b90506000600286600060801b6040516020016119f79291906134c4565b60408051601f1981840301815290829052611a11916134f3565b602060405180830381855afa158015611a2e573d6000803e3d6000fd5b5050506040513d601f19601f82011682018060405250810190611a51919061350f565b90506000600280611a658860006040612b5e565b604051611a7291906134f3565b602060405180830381855afa158015611a8f573d6000803e3d6000fd5b5050506040513d601f19601f82011682018060405250810190611ab2919061350f565b6002611aca896040611ac5816060613322565b612b5e565b604051611add9190600090602001613528565b60408051601f1981840301815290829052611af7916134f3565b602060405180830381855afa158015611b14573d6000803e3d6000fd5b5050506040513d601f19601f82011682018060405250810190611b37919061350f565b60408051602081019390935282015260600160408051601f1981840301815290829052611b63916134f3565b602060405180830381855afa158015611b80573d6000803e3d6000fd5b5050506040513d601f19601f82011682018060405250810190611ba3919061350f565b905060006002808488604051602001611bc6929190918252602082015260400190565b60408051601f1981840301815290829052611be0916134f3565b602060405180830381855afa158015611bfd573d6000803e3d6000fd5b5050506040513d601f19601f82011682018060405250810190611c20919061350f565b6002611c2b87612c21565b604080516020810192909252810186905260600160408051601f1981840301815290829052611c59916134f3565b602060405180830381855afa158015611c76573d6000803e3d6000fd5b5050506040513d601f19601f82011682018060405250810190611c99919061350f565b60408051602081019390935282015260600160408051601f1981840301815290829052611cc5916134f3565b602060405180830381855afa158015611ce2573d6000803e3d6000fd5b5050506040513d601f19601f82011682018060405250810190611d05919061350f565b90506000611d138647613322565b9050611d1d612c8e565b6001600160a01b03166322895118878b8a604051602001611d4091815260200190565b6040516020818303038152906040528c876040518663ffffffff1660e01b8152600401611d70949392919061354a565b6000604051808303818588803b158015611d8957600080fd5b505af1158015611d9d573d6000803e3d6000fd5b5050505050804714611dc257604051638051a6bb60e01b815260040160405180910390fd5b7f11553d182c6d24df901ccbb837d640c1ee9994876a88dccc8ddfd7ebab9b6ce189604051611df19190613009565b60405180910390a1505050505050505050565b600061092961152a60017fc77078e3530c08cdb2440817c81de4836500b4708ea4d15672b7fe98956423a8613322565b610c2761155c60017fc77078e3530c08cdb2440817c81de4836500b4708ea4d15672b7fe98956423a8613322565b600080611e6d61183e565b90506000611e79611e04565b905080821015611ecc576801bc16d674ec800000611e978383613322565b611ea19190613303565b611ea96114fa565b611eb1612435565b611ebb91906132b3565b611ec591906132b3565b9250505090565b611ed46114fa565b611ebb612435565b600061092961152a60017ff4271262f3552a4108cde54dc75061de8de495709221d793b126e448522d6a80613322565b6000610929612cbe565b600061092961152a60017f094efef62d2ce60c14ffacd35a1b50546d3a9d503aff1df040176fffd6c92a37613322565b6000611f506126af565b60405163e838dfbb60e01b81529091506001600160a01b0382169063e838dfbb90611f7f90869060040161305f565b602060405180830381865afa158015611f9c573d6000803e3d6000fd5b505050506040513d601f19601f82011682018060405250810190611fc0919061336f565b15611fe0578260405163e7d05e2760e01b81526004016108d6919061305f565b60405163e838dfbb60e01b81526001600160a01b0382169063e838dfbb9061200c90859060040161305f565b602060405180830381865afa158015612029573d6000803e3d6000fd5b505050506040513d601f19601f8201168201806040525081019061204d919061336f565b1561206d578160405163e7d05e2760e01b81526004016108d6919061305f565b505050565b6000610f96826123af565b60006120898333612357565b9050818110156120cb57604051637b936de360e01b81526001600160a01b038416600482015233602482015260448101829052606481018390526084016108d6565b600019811461206d5761206d8333610f7e8585613322565b600061210284836120f3876123af565b6120fd9190613322565b612cee565b61211a8383612110866123af565b6120fd91906132b3565b826001600160a01b0316846001600160a01b03167fddf252ad1be2c89b69c2b068fc378daa952ba7f163c4a11628f55a4df523b3ef8460405161215f91815260200190565b60405180910390a35060019392505050565b600061092961152a60017f82055909238c0f5e63d6f174068ebb8f51bcec9bd37de63bb68f6551feec0cfd613322565b610c2761155c60017f82055909238c0f5e63d6f174068ebb8f51bcec9bd37de63bb68f6551feec0cfd613322565b6121d881612688565b610c2761155c60017f082b6d18de7b10e438e6b1002141db737519cb4ceed679bc815e3aac00cd2227613322565b61220f81612d3a565b610c2761155c60017f094efef62d2ce60c14ffacd35a1b50546d3a9d503aff1df040176fffd6c92a37613322565b61224681612688565b610c2761155c60017f867d8f1a5e39d11d5bebde854d5359a509530ad32450f581da63c06ec8d1a780613322565b61227d81612688565b610c2761155c60017f3f075dea7ef99b1e5db245018e5e4ed8d2a0d93953f5932b2176bef59bd69061613322565b6122b482612d5d565b6040516001600160a01b038316907e043cf7635f276413ae358250286a479a631abd9d74d57d4aa0bb87ebc7d11790600090a26122f081612d94565b6040518181527f4c86ba184ea1a1558f84835ca34f6d67e222e8ee5cc4f324b8861dda4cf1740c9060200160405180910390a15050565b600061092961152a60017f8e9e2a1d30fed357d8a000c1131fc77ed65d2052918caf1ccc6eb1e7af3d13b6613322565b60008061238560017fc852254d5b703a16bb13b3e233a335d6459c5da5db0ca732d7a684ee05407847613322565b6001600160a01b039485166000908152602091825260408082209590961681529390525050205490565b6000806123dd60017f0fb4a5ac9287f4f508aa7253ee2d57c6a228b1b30e210d73fffd59389d3a8838613322565b6001600160a01b0390931660009081526020939093525050604090205490565b600080612408612cbe565b9050806124185750600092915050565b80612421611e62565b61242b9085613303565b61146591906132cb565b600061092961152a60017ffedfd2c285a57fb23bf45a3fe9ac02d36a76ebb72801b1c8aaf553d74e9d4653613322565b600061092961152a60017f082b6d18de7b10e438e6b1002141db737519cb4ceed679bc815e3aac00cd2227613322565b8051610c2757604051638d46fe0560e01b815260040160405180910390fd5b60006124e160017fb63f3482ec84cb93d74a71645ad2e9e896fa02723e42170b4aad20a4bed6cdd6613322565b825190915081906124f89082906020860190612ee1565b50505050565b600080612509612cbe565b9050806125195750600092915050565b612521611e62565b61242b8285613303565b61253481612688565b610c2761155c60017fc8cbea9407c380ae944f052b5a442330057683c5abdbd453493f9750806afecb613322565b600061092961152a60017fc8cbea9407c380ae944f052b5a442330057683c5abdbd453493f9750806afecb613322565b606060006125c160017fb63f3482ec84cb93d74a71645ad2e9e896fa02723e42170b4aad20a4bed6cdd6613322565b8054909150819081906125d390613595565b80601f01602080910402602001604051908101604052809291908181526020018280546125ff90613595565b801561264c5780601f106126215761010080835404028352916020019161264c565b820191906000526020600020905b81548152906001019060200180831161262f57829003601f168201915b50505050509250505090565b600061092961152a60017f3f075dea7ef99b1e5db245018e5e4ed8d2a0d93953f5932b2176bef59bd69061613322565b6001600160a01b038116610c275760405163f6b2911f60e01b815260040160405180910390fd5b600061092961152a60017f867d8f1a5e39d11d5bebde854d5359a509530ad32450f581da63c06ec8d1a780613322565b610c2761155c60017ffedfd2c285a57fb23bf45a3fe9ac02d36a76ebb72801b1c8aaf553d74e9d4653613322565b610c2761155c60017f0f1e7733641e4d843128fea0d2ec90d3d06a40b0fe244ff603d8c1aa200dc0f9613322565b610c2761155c60017fd7f2d45e512a86049f7a113657b39731b6b558609584243063a52cd31a8eb529613322565b600080612774612327565b60405163c8a6dfd360e01b81526004810185905290915047906001600160a01b0383169063c8a6dfd390602401600060405180830381600087803b1580156127bb57600080fd5b505af11580156127cf573d6000803e3d6000fd5b50505050600081476127e19190613322565b9050801561282a576127f58161083e6114fa565b6040518181527fda841d3042d792e2509a333b9dcbd4b3dd9b9047d382011f8788fab90ca7e3c7906020015b60405180910390a15b949350505050565b60008061283d611edc565b90506001600160a01b0381166128565750600092915050565b604051638ede6b6b60e01b81526004810184905247906001600160a01b03831690638ede6b6b90602401600060405180830381600087803b15801561289a57600080fd5b505af11580156128ae573d6000803e3d6000fd5b50505050600081476128c09190613322565b9050801561282a576128d48161083e6114fa565b6040518181527fd500b67e5bd8019c0af744cadeec120d1b5e3d3a3a011f18cf182aa4c97947b690602001612821565b600061290e611f0c565b90508061292e57604051630d35acd760e21b815260040160405180910390fd5b6000612938611e62565b90506000612944611f16565b90506000816129538587613303565b61295d9190613303565b9050600061296b8387613303565b61297761271086613303565b6129819190613322565b90506000811561299a5761299582846132cb565b61299d565b60005b90508015612a2d5760006129af612465565b90506129bb8183612de0565b60006129c5611f0c565b905060006129d38a89613322565b60408051828152602081018c90529081018a9052606081018490529091506001600160a01b038416907f3d1669e813a9845c288f0e1f642a4343a451103b87886d12de37e63b39bbd9429060800160405180910390a25050505b50505050505050565b60008082612a42611e62565b612a4c9190613322565b905080612a6557829150612a608484612de0565b612a8e565b80612a6e611f0c565b612a789085613303565b612a8291906132cb565b9150612a8e8483612de0565b5092915050565b600061092961152a60017fb5b37715a3e346e996104f0086703f19825def429233930fd9399c38e05fb113613322565b6000612af260017fc852254d5b703a16bb13b3e233a335d6459c5da5db0ca732d7a684ee05407847613322565b6001600160a01b039485166000908152602091825260408082209590961681529390525091902055565b600061092961152a60017f6e6ab8b7c7aaba79eef8cc633522d606bb008c101cf9832c9ad05d10a9847281613322565b610c2781612e4e565b610c2781612e85565b60608182601f011015612b84576040516323d5783d60e11b815260040160405180910390fd5b612b8e82846132b3565b84511015612baf57604051633b99b53d60e01b815260040160405180910390fd5b606082158015612bce5760405191506000825260208201604052612c18565b6040519150601f8416801560200281840101858101878315602002848b0101015b81831015612c07578051835260209283019201612bef565b5050858452601f01601f1916604052505b50949350505050565b603881901c60ff908116603083901c8216602884901c8316602085901c8416601886901c8516601087901c8616600888811c9790971688881b61ff001617871b17861b17851b17841b17831b1790911b17604082901c8015612c8557612c856135ca565b5060c01b919050565b600061092961152a60017f35efb61d8784060218d9d6aa40eae55904de43779c1afc79c74dfefcfdf91260613322565b600061092961152a60017f6b842b424335d94ccad97e54548dfa02673c1268aba38d3c3c32d28c8988b70b613322565b6000612d1b60017f0fb4a5ac9287f4f508aa7253ee2d57c6a228b1b30e210d73fffd59389d3a8838613322565b6001600160a01b03909316600090815260209390935250604090912055565b612710811115610c27576040516358d620b360e01b815260040160405180910390fd5b612d6681612688565b610c2761155c60017f35efb61d8784060218d9d6aa40eae55904de43779c1afc79c74dfefcfdf91260613322565b80612db25760405163a9cb9e0d60e01b815260040160405180910390fd5b610c2761155c60017fb649e50315f962b32d487e696a81b4828631b11f8424daaaa37e9e97766a2c42613322565b612dfb81612dec612cbe565b612df691906132b3565b612eb3565b612e098282612110856123af565b6040518181526001600160a01b038316906000907fddf252ad1be2c89b69c2b068fc378daa952ba7f163c4a11628f55a4df523b3ef9060200160405180910390a35050565b612e5781612688565b610c2761155c60017fb5b37715a3e346e996104f0086703f19825def429233930fd9399c38e05fb113613322565b610c2761155c60017f6e6ab8b7c7aaba79eef8cc633522d606bb008c101cf9832c9ad05d10a9847281613322565b610c2761155c60017f6b842b424335d94ccad97e54548dfa02673c1268aba38d3c3c32d28c8988b70b613322565b828054612eed90613595565b90600052602060002090601f016020900481019282612f0f5760008555612f55565b82601f10612f2857805160ff1916838001178555612f55565b82800160010185558215612f55579182015b82811115612f55578251825591602001919060010190612f3a565b50612f61929150612f65565b5090565b5b80821115612f615760008155600101612f66565b80356001600160a01b0381168114612f9157600080fd5b919050565b600060208284031215612fa857600080fd5b61146582612f7a565b60005b83811015612fcc578181015183820152602001612fb4565b838111156124f85750506000910152565b60008151808452612ff5816020860160208601612fb1565b601f01601f19169290920160200192915050565b6020815260006114656020830184612fdd565b6000806040838503121561302f57600080fd5b61303883612f7a565b946020939093013593505050565b60006020828403121561305857600080fd5b5035919050565b6001600160a01b0391909116815260200190565b60008060006060848603121561308857600080fd5b61309184612f7a565b925061309f60208501612f7a565b9150604084013590509250925092565b60008060008060008060008060006101208a8c0312156130ce57600080fd5b6130d78a612f7a565b98506130e560208b01612f7a565b975060408a013596506130fa60608b01612f7a565b955061310860808b01612f7a565b945061311660a08b01612f7a565b935061312460c08b01612f7a565b925061313260e08b01612f7a565b91506101008a013590509295985092959850929598565b634e487b7160e01b600052604160045260246000fd5b604051601f8201601f1916810167ffffffffffffffff8111828210171561318857613188613149565b604052919050565b600067ffffffffffffffff8211156131aa576131aa613149565b50601f01601f191660200190565b6000602082840312156131ca57600080fd5b813567ffffffffffffffff8111156131e157600080fd5b8201601f810184136131f257600080fd5b803561320561320082613190565b61315f565b81815285602083850101111561321a57600080fd5b81602084016020830137600091810160200191909152949350505050565b6000806000806080858703121561324e57600080fd5b5050823594602084013594506040840135936060013592509050565b6000806040838503121561327d57600080fd5b61328683612f7a565b915061329460208401612f7a565b90509250929050565b634e487b7160e01b600052601160045260246000fd5b600082198211156132c6576132c661329d565b500190565b6000826132e857634e487b7160e01b600052601260045260246000fd5b500490565b634e487b7160e01b600052603260045260246000fd5b600081600019048311821515161561331d5761331d61329d565b500290565b6000828210156133345761333461329d565b500390565b83815260406020820152816040820152818360608301376000818301606090810191909152601f909201601f1916010192915050565b60006020828403121561338157600080fd5b8151801515811461146557600080fd5b600082601f8301126133a257600080fd5b8151602067ffffffffffffffff808311156133bf576133bf613149565b8260051b6133ce83820161315f565b93845285810183019383810190888611156133e857600080fd5b84880192505b85831015611223578251848111156134065760008081fd5b8801603f81018a136134185760008081fd5b85810151604061342a61320083613190565b8281528c8284860101111561343f5760008081fd5b61344e838a8301848701612fb1565b855250505091840191908401906133ee565b6000806040838503121561347357600080fd5b825167ffffffffffffffff8082111561348b57600080fd5b61349786838701613391565b935060208501519150808211156134ad57600080fd5b506134ba85828601613391565b9150509250929050565b600083516134d6818460208801612fb1565b6001600160801b0319939093169190920190815260100192915050565b60008251613505818460208701612fb1565b9190910192915050565b60006020828403121561352157600080fd5b5051919050565b6000835161353a818460208801612fb1565b9190910191825250602001919050565b60808152600061355d6080830187612fdd565b828103602084015261356f8187612fdd565b905082810360408401526135838186612fdd565b91505082606083015295945050505050565b600181811c908216806135a957607f821691505b602082108114156118be57634e487b7160e01b600052602260045260246000fd5b634e487b7160e01b600052600160045260246000fdfea2646970667358221220970321c783abf715e67020d8e4b80f54819b7eacd341ba3f4ceafe86e46d3bd764736f6c634300080a0033"
        ],
        "deployedBytecode": [
            "0x60806040526004361061026b5760003560e01c80635639671511610144578063a9059cbb116100b6578063d04681561161007a578063d0468156146106e6578063d0e30db0146106fb578063dd62ed3e14610703578063efd6034714610723578063f79c3f021461072b578063fb5b82d01461074b5761027b565b8063a9059cbb14610669578063ac232bde14610689578063bf15af561461069c578063c5eff3d0146106b1578063cc48cd31146106c65761027b565b80637adbf973116101085780637adbf973146105bc578063833b1fce146105dc57806387f2adfb146105f157806395d89b41146106065780639b498e2614610634578063a457c2d7146106495761027b565b8063563967151461053257806358bf3c7f146105475780636e9960c31461056757806370a082311461057c578063799a19541461059c5761027b565b806323b872dd116101dd57806336bf3325116101a157806336bf33251461049657806339509351146104b35780633af9e669146104d357806346425ef0146104f35780635022820114610508578063540bc5ea1461051d5761027b565b806323b872dd146103f8578063281a312214610418578063291206f6146104385780632cb562e114610458578063313ce5671461047a5761027b565b80631311cf8d1161022f5780631311cf8d1461035957806313d86aed14610379578063143a08d414610399578063147bf6c4146103ae57806318160ddd146103ce5780631bcbfaba146103e35761027b565b806304843a171461029457806306fdde03146102bc578063095ea7b3146102ff5780630e18b6811461032f578063107d7fa0146103445761027b565b3661027b576102793361076b565b005b60405163574b16a760e11b815260040160405180910390fd5b3480156102a057600080fd5b506102a96107f2565b6040519081526020015b60405180910390f35b3480156102c857600080fd5b50604080518082019091526011815270098d2e2ead2c840a6e8c2d6cac8408aa89607b1b60208201525b6040516102b39190612ae6565b34801561030b57600080fd5b5061031f61031a366004612b15565b610801565b60405190151581526020016102b3565b34801561033b57600080fd5b50610279610857565b34801561035057600080fd5b506102a96108b7565b34801561036557600080fd5b50610279610374366004612b3f565b6108c1565b34801561038557600080fd5b50610279610394366004612b5a565b61093c565b3480156103a557600080fd5b506102a9610af5565b3480156103ba57600080fd5b506102796103c9366004612b3f565b610aff565b3480156103da57600080fd5b506102a9610b46565b3480156103ef57600080fd5b506102a9610b50565b34801561040457600080fd5b5061031f610413366004612b73565b610b5a565b34801561042457600080fd5b50610279610433366004612baf565b610c0d565b34801561044457600080fd5b50610279610453366004612b5a565b610def565b34801561046457600080fd5b5061046d610e69565b6040516102b39190612c49565b34801561048657600080fd5b50604051601281526020016102b3565b3480156104a257600080fd5b506102a96801bc16d674ec80000081565b3480156104bf57600080fd5b5061031f6104ce366004612b15565b610e73565b3480156104df57600080fd5b506102a96104ee366004612b3f565b610ee3565b3480156104ff57600080fd5b506102a9610efc565b34801561051457600080fd5b5061046d610f06565b34801561052957600080fd5b506102a9606081565b34801561053e57600080fd5b506102a9610f10565b34801561055357600080fd5b50610279610562366004612b3f565b610f1a565b34801561057357600080fd5b5061046d610f95565b34801561058857600080fd5b506102a9610597366004612b3f565b610f9f565b3480156105a857600080fd5b506102a96105b7366004612b5a565b610faa565b3480156105c857600080fd5b506102796105d7366004612b3f565b610fb5565b3480156105e857600080fd5b5061046d611030565b3480156105fd57600080fd5b506102a961103a565b34801561061257600080fd5b50604080518082019091526005815264098e68aa8960db1b60208201526102f2565b34801561064057600080fd5b5061046d611044565b34801561065557600080fd5b5061031f610664366004612b15565b61104e565b34801561067557600080fd5b5061031f610684366004612b15565b611066565b610279610697366004612b3f565b611105565b3480156106a857600080fd5b506102a9603081565b3480156106bd57600080fd5b5061046d611117565b3480156106d257600080fd5b506102796106e1366004612c5d565b611121565b3480156106f257600080fd5b5061046d61129b565b6102796112a5565b34801561070f57600080fd5b506102a961071e366004612c8f565b6112ae565b6102796112c1565b34801561073757600080fd5b506102a9610746366004612b5a565b6112fc565b34801561075757600080fd5b50610279610766366004612b3f565b611307565b34610789576040516395b66fe960e01b815260040160405180910390fd5b6107a434610795611382565b61079f9190612cd8565b6113b6565b6107af3382346113e9565b6040513481526001600160a01b0382169033907f3bc57f469ad6d10d7723ea226cd22bd2b9e527def2b529f6ab44645a166895829060200160405180910390a350565b60006107fc611382565b905090565b600061080e338484611583565b6040518281526001600160a01b0384169033907f8c5be1e5ebec7d5bd14f71427d1e84f3dd0314c0f7b2291e5b200ac8c7c3b9259060200160405180910390a350600192915050565b61085f6115da565b6001600160a01b0316336001600160a01b03161461089b573360405163472511eb60e11b81526004016108929190612c49565b60405180910390fd5b6108ab6108a66115da565b6115e4565b6108b5600061162d565b565b60006107fc61166d565b6108c961169d565b6001600160a01b0316336001600160a01b0316146108fc573360405163472511eb60e11b81526004016108929190612c49565b610905816116a7565b6040516001600160a01b038216907f1da4c245099590dc40be61880c9b97792f3694d970acc1e67ac0e6cc90f3780d90600090a250565b6109446116d5565b6001600160a01b0316336001600160a01b031614610977573360405163472511eb60e11b81526004016108929190612c49565b6000610981611382565b905060006109a161099b6801bc16d674ec80000084612cf0565b846116df565b9050806109c157604051631036b5ad60e31b815260040160405180910390fd5b6000806109cd836116f4565b81519193509150806109f25760405163200149ad60e21b815260040160405180910390fd5b83811115610a1357604051635993bd5760e01b815260040160405180910390fd5b8151818114610a35576040516322e5ce4360e21b815260040160405180910390fd5b6000610a3f61177c565b905080610a5f57604051639be7315960e01b815260040160405180910390fd5b60005b83811015610aaf57610aa7868281518110610a7f57610a7f612d12565b6020026020010151868381518110610a9957610a99612d12565b6020026020010151846117ac565b600101610a62565b50610ad0610ac6846801bc16d674ec800000612d28565b61079f9089612d47565b610aeb83610adc611c34565b610ae69190612cd8565b611c64565b5050505050505050565b60006107fc611c92565b610b0761169d565b6001600160a01b0316336001600160a01b031614610b3a573360405163472511eb60e11b81526004016108929190612c49565b610b438161162d565b50565b60006107fc611d0c565b60006107fc611d16565b60008383610b688282611d46565b8380610b87576040516336b216db60e21b815260040160405180910390fd5b868580610b9383611e72565b1015610bb2576040516351940b3960e11b815260040160405180910390fd5b6001600160a01b038816610beb57604051637617407560e11b81526001600160a01b038a16600482015260006024820152604401610892565b610bf58988611e7d565b610c00898989611ee8565b9998505050505050505050565b6000610c17611f64565b8114610c485780610c26611f64565b604051631cfd276760e31b815260048101929092526024820152604401610892565b610c5b610c56826001612cd8565b611f94565b610c64866115e4565b610c6d83611fc2565b6040516001600160a01b038416907f0cc5437d7c9c1d9eab549acbb533eea3e9868e9443dd75309ed5820b33a3774e90600090a2610caa82611ff9565b6040518281527fbd533e726baaf59b36f3914d950053f7e78f527057c97cd3f0043257fc0fc8849060200160405180910390a1610ce6896116a7565b6040516001600160a01b038a16907f1da4c245099590dc40be61880c9b97792f3694d970acc1e67ac0e6cc90f3780d90600090a2610d2385612030565b6040516001600160a01b038616907f30f015a5d3c72c0a9414538199baa022323a483fa9e4ba2cd581596cf8ca042490600090a2610d6084612067565b6040516001600160a01b038516907fffc0721ef0563a1b0a51a0dc92113025f33ca434ada9ee3eebff2f385d2a8f9a90600090a2610d9e8a8961209e565b610da787610ff0565b7f1809e49bba43f2d39fa57894b50cd6ccb428cc438230e065cac3eb24a1355a7181600036604051610ddb93929190612d5e565b60405180910390a150505050505050505050565b610df761169d565b6001600160a01b0316336001600160a01b031614610e2a573360405163472511eb60e11b81526004016108929190612c49565b610e3381611ff9565b6040518181527fbd533e726baaf59b36f3914d950053f7e78f527057c97cd3f0043257fc0fc8849060200160405180910390a150565b60006107fc61211a565b60008082610e81338661214a565b610e8b9190612cd8565b9050610e98338583611583565b6040518181526001600160a01b0385169033907f8c5be1e5ebec7d5bd14f71427d1e84f3dd0314c0f7b2291e5b200ac8c7c3b925906020015b60405180910390a35060019392505050565b6000610ef6610ef1836121a2565b6121f0565b92915050565b60006107fc612228565b60006107fc612258565b60006107fc61177c565b610f2261169d565b6001600160a01b0316336001600160a01b031614610f55573360405163472511eb60e11b81526004016108929190612c49565b610f5e81612030565b6040516001600160a01b038216907f30f015a5d3c72c0a9414538199baa022323a483fa9e4ba2cd581596cf8ca042490600090a250565b60006107fc61169d565b6000610ef682611e72565b6000610ef682612288565b610fbd6116d5565b6001600160a01b0316336001600160a01b031614610ff0573360405163472511eb60e11b81526004016108929190612c49565b610ff9816122b5565b6040516001600160a01b038216907fd3b5d1e0ffaeff528910f3663f0adace7694ab8241d58e17a91351ced2e0803190600090a250565b60006107fc6122ec565b60006107fc611c34565b60006107fc61231c565b6000808261105c338661214a565b610e8b9190612d47565b600033836110748282611d46565b8380611093576040516336b216db60e21b815260040160405180910390fd5b33858061109f83611e72565b10156110be576040516351940b3960e11b815260040160405180910390fd5b6001600160a01b0388166110ee57604051637617407560e11b815233600482015260006024820152604401610892565b6110f9338989611ee8565b98975050505050505050565b61110e8161234c565b610b438161076b565b60006107fc612373565b6111296122ec565b6001600160a01b0316336001600160a01b03161461115c573360405163472511eb60e11b81526004016108929190612c49565b611164611c34565b8411156111965783611174611c34565b6040516376179ac560e01b815260048101929092526024820152604401610892565b60006111a061166d565b6111aa9086612d47565b905060006111c1826801bc16d674ec800000612d28565b6111c9612228565b6111d39190612cd8565b90506111de856123a3565b6111e7866123d1565b6111f0846123ff565b6000856111fd8386612cd8565b111561122357611220866112118487612cd8565b61121b9190612d47565b61242d565b90505b61122d8187612cd8565b82101561125157611251826112428389612cd8565b61124c9190612d47565b612504565b60408051888152602081018890529081018690527f25d7358447891786a139ae7149548f3232a8c95f2ea6065c69c5bd7c39cd386c9060600160405180910390a150505050505050565b60006107fc6115da565b6108b53361076b565b60006112ba838361214a565b9392505050565b6112c961211a565b6001600160a01b0316336001600160a01b0316146108b5573360405163472511eb60e11b81526004016108929190612c49565b6000610ef6826121f0565b61130f61169d565b6001600160a01b0316336001600160a01b031614611342573360405163472511eb60e11b81526004016108929190612c49565b61134b81611fc2565b6040516001600160a01b038216907f0cc5437d7c9c1d9eab549acbb533eea3e9868e9443dd75309ed5820b33a3774e90600090a250565b60006107fc6113b260017f2b6136e423ab70d76431e2a635e877e16ea2dd9a895e054ad7f35f89d6c7b711612d47565b5490565b610b436113e460017f2b6136e423ab70d76431e2a635e877e16ea2dd9a895e054ad7f35f89d6c7b711612d47565b829055565b60006113f58483612636565b90506000611401612373565b9050836001600160a01b0316856001600160a01b0316141561148257604051632d20488160e11b81526001600160a01b03868116600483015260016024830152821690635a4091029060440160006040518083038186803b15801561146557600080fd5b505afa158015611479573d6000803e3d6000fd5b5050505061157c565b604051632d20488160e11b81526001600160a01b03868116600483015260016024830152821690635a4091029060440160006040518083038186803b1580156114ca57600080fd5b505afa1580156114de573d6000803e3d6000fd5b505060405163e838dfbb60e01b81526001600160a01b038416925063e838dfbb915061150e908790600401612c49565b602060405180830381865afa15801561152b573d6000803e3d6000fd5b505050506040513d601f19601f8201168201806040525081019061154f9190612d94565b1561156f578360405163e7d05e2760e01b81526004016108929190612c49565b61157a858584611ee8565b505b5050505050565b60006115b060017fc852254d5b703a16bb13b3e233a335d6459c5da5db0ca732d7a684ee05407847612d47565b6001600160a01b039485166000908152602091825260408082209590961681529390525091902055565b60006107fc612695565b6115ed8161234c565b6115f6816126c5565b6040516001600160a01b038216907f5a272403b402d892977df56625f4164ccaf70ca3863991c43ecfe76a6905b0a190600090a250565b611636816126ce565b6040516001600160a01b038216907f2a0f8515de3fa34ef68b99300347b8793c01683350743e96fe440594528298f490600090a250565b60006107fc6113b260017f0f1e7733641e4d843128fea0d2ec90d3d06a40b0fe244ff603d8c1aa200dc0f9612d47565b60006107fc6126d7565b610b436113e460017f8e9e2a1d30fed357d8a000c1131fc77ed65d2052918caf1ccc6eb1e7af3d13b6612d47565b60006107fc610f95565b60008183116116ee57826112ba565b50919050565b6060806116ff61231c565b6001600160a01b031663a1947323846040518263ffffffff1660e01b815260040161172c91815260200190565b6000604051808303816000875af115801561174b573d6000803e3d6000fd5b505050506040513d6000823e601f3d908101601f191682016040526117739190810190612ee2565b91509150915091565b60006107fc6113b260017fb649e50315f962b32d487e696a81b4828631b11f8424daaaa37e9e97766a2c42612d47565b60308351146117ce5760405163050cb55360e41b815260040160405180910390fd5b60608251146117f05760405163408ebd3960e01b815260040160405180910390fd5b6801bc16d674ec800000600061180a633b9aca0083612cf0565b90506000600286600060801b604051602001611827929190612f46565b60408051601f198184030181529082905261184191612f75565b602060405180830381855afa15801561185e573d6000803e3d6000fd5b5050506040513d601f19601f820116820180604052508101906118819190612f91565b905060006002806118958860006040612707565b6040516118a29190612f75565b602060405180830381855afa1580156118bf573d6000803e3d6000fd5b5050506040513d601f19601f820116820180604052508101906118e29190612f91565b60026118fa8960406118f5816060612d47565b612707565b60405161190d9190600090602001612faa565b60408051601f198184030181529082905261192791612f75565b602060405180830381855afa158015611944573d6000803e3d6000fd5b5050506040513d601f19601f820116820180604052508101906119679190612f91565b60408051602081019390935282015260600160408051601f198184030181529082905261199391612f75565b602060405180830381855afa1580156119b0573d6000803e3d6000fd5b5050506040513d601f19601f820116820180604052508101906119d39190612f91565b9050600060028084886040516020016119f6929190918252602082015260400190565b60408051601f1981840301815290829052611a1091612f75565b602060405180830381855afa158015611a2d573d6000803e3d6000fd5b5050506040513d601f19601f82011682018060405250810190611a509190612f91565b6002611a5b876127ca565b604080516020810192909252810186905260600160408051601f1981840301815290829052611a8991612f75565b602060405180830381855afa158015611aa6573d6000803e3d6000fd5b5050506040513d601f19601f82011682018060405250810190611ac99190612f91565b60408051602081019390935282015260600160408051601f1981840301815290829052611af591612f75565b602060405180830381855afa158015611b12573d6000803e3d6000fd5b5050506040513d601f19601f82011682018060405250810190611b359190612f91565b90506000611b438647612d47565b9050611b4d612837565b6001600160a01b03166322895118878b8a604051602001611b7091815260200190565b6040516020818303038152906040528c876040518663ffffffff1660e01b8152600401611ba09493929190612fcc565b6000604051808303818588803b158015611bb957600080fd5b505af1158015611bcd573d6000803e3d6000fd5b5050505050804714611bf257604051638051a6bb60e01b815260040160405180910390fd5b7f11553d182c6d24df901ccbb837d640c1ee9994876a88dccc8ddfd7ebab9b6ce189604051611c219190612ae6565b60405180910390a1505050505050505050565b60006107fc6113b260017fc77078e3530c08cdb2440817c81de4836500b4708ea4d15672b7fe98956423a8612d47565b610b436113e460017fc77078e3530c08cdb2440817c81de4836500b4708ea4d15672b7fe98956423a8612d47565b600080611c9d61166d565b90506000611ca9611c34565b905080821015611cfc576801bc16d674ec800000611cc78383612d47565b611cd19190612d28565b611cd9611382565b611ce1612228565b611ceb9190612cd8565b611cf59190612cd8565b9250505090565b611d04611382565b611ceb612228565b60006107fc612867565b60006107fc6113b260017f094efef62d2ce60c14ffacd35a1b50546d3a9d503aff1df040176fffd6c92a37612d47565b6000611d50612373565b60405163e838dfbb60e01b81529091506001600160a01b0382169063e838dfbb90611d7f908690600401612c49565b602060405180830381865afa158015611d9c573d6000803e3d6000fd5b505050506040513d601f19601f82011682018060405250810190611dc09190612d94565b15611de0578260405163e7d05e2760e01b81526004016108929190612c49565b60405163e838dfbb60e01b81526001600160a01b0382169063e838dfbb90611e0c908590600401612c49565b602060405180830381865afa158015611e29573d6000803e3d6000fd5b505050506040513d601f19601f82011682018060405250810190611e4d9190612d94565b15611e6d578160405163e7d05e2760e01b81526004016108929190612c49565b505050565b6000610ef6826121a2565b6000611e89833361214a565b905081811015611ecb57604051637b936de360e01b81526001600160a01b03841660048201523360248201526044810182905260648101839052608401610892565b6000198114611e6d57611e6d8333611ee38585612d47565b611583565b6000611f078483611ef8876121a2565b611f029190612d47565b612897565b611f1f8383611f15866121a2565b611f029190612cd8565b826001600160a01b0316846001600160a01b03167fddf252ad1be2c89b69c2b068fc378daa952ba7f163c4a11628f55a4df523b3ef84604051610ed191815260200190565b60006107fc6113b260017f82055909238c0f5e63d6f174068ebb8f51bcec9bd37de63bb68f6551feec0cfd612d47565b610b436113e460017f82055909238c0f5e63d6f174068ebb8f51bcec9bd37de63bb68f6551feec0cfd612d47565b611fcb8161234c565b610b436113e460017f082b6d18de7b10e438e6b1002141db737519cb4ceed679bc815e3aac00cd2227612d47565b612002816128e3565b610b436113e460017f094efef62d2ce60c14ffacd35a1b50546d3a9d503aff1df040176fffd6c92a37612d47565b6120398161234c565b610b436113e460017f867d8f1a5e39d11d5bebde854d5359a509530ad32450f581da63c06ec8d1a780612d47565b6120708161234c565b610b436113e460017f3f075dea7ef99b1e5db245018e5e4ed8d2a0d93953f5932b2176bef59bd69061612d47565b6120a782612906565b6040516001600160a01b038316907e043cf7635f276413ae358250286a479a631abd9d74d57d4aa0bb87ebc7d11790600090a26120e38161293d565b6040518181527f4c86ba184ea1a1558f84835ca34f6d67e222e8ee5cc4f324b8861dda4cf1740c9060200160405180910390a15050565b60006107fc6113b260017f8e9e2a1d30fed357d8a000c1131fc77ed65d2052918caf1ccc6eb1e7af3d13b6612d47565b60008061217860017fc852254d5b703a16bb13b3e233a335d6459c5da5db0ca732d7a684ee05407847612d47565b6001600160a01b039485166000908152602091825260408082209590961681529390525050205490565b6000806121d060017f0fb4a5ac9287f4f508aa7253ee2d57c6a228b1b30e210d73fffd59389d3a8838612d47565b6001600160a01b0390931660009081526020939093525050604090205490565b6000806121fb612867565b90508061220b5750600092915050565b80612214611c92565b61221e9085612d28565b6112ba9190612cf0565b60006107fc6113b260017ffedfd2c285a57fb23bf45a3fe9ac02d36a76ebb72801b1c8aaf553d74e9d4653612d47565b60006107fc6113b260017f082b6d18de7b10e438e6b1002141db737519cb4ceed679bc815e3aac00cd2227612d47565b600080612293612867565b9050806122a35750600092915050565b6122ab611c92565b61221e8285612d28565b6122be8161234c565b610b436113e460017fc8cbea9407c380ae944f052b5a442330057683c5abdbd453493f9750806afecb612d47565b60006107fc6113b260017fc8cbea9407c380ae944f052b5a442330057683c5abdbd453493f9750806afecb612d47565b60006107fc6113b260017f3f075dea7ef99b1e5db245018e5e4ed8d2a0d93953f5932b2176bef59bd69061612d47565b6001600160a01b038116610b435760405163f6b2911f60e01b815260040160405180910390fd5b60006107fc6113b260017f867d8f1a5e39d11d5bebde854d5359a509530ad32450f581da63c06ec8d1a780612d47565b610b436113e460017ffedfd2c285a57fb23bf45a3fe9ac02d36a76ebb72801b1c8aaf553d74e9d4653612d47565b610b436113e460017f0f1e7733641e4d843128fea0d2ec90d3d06a40b0fe244ff603d8c1aa200dc0f9612d47565b610b436113e460017fd7f2d45e512a86049f7a113657b39731b6b558609584243063a52cd31a8eb529612d47565b60008061243861211a565b90506001600160a01b0381166124515750600092915050565b60405163c8a6dfd360e01b81526004810184905247906001600160a01b0383169063c8a6dfd390602401600060405180830381600087803b15801561249557600080fd5b505af11580156124a9573d6000803e3d6000fd5b50505050600081476124bb9190612d47565b90506124c981610795611382565b6040518181527fda841d3042d792e2509a333b9dcbd4b3dd9b9047d382011f8788fab90ca7e3c79060200160405180910390a1949350505050565b600061250e611d0c565b90508061252e57604051630d35acd760e21b815260040160405180910390fd5b6000612538611c92565b90506000612544611d16565b90506000816125538587612d28565b61255d9190612d28565b9050600061256b8387612d28565b61257761271086612d28565b6125819190612d47565b90506000811561259a576125958284612cf0565b61259d565b60005b9050801561262d5760006125af612258565b90506125bb8183612989565b60006125c5611d0c565b905060006125d38a89612d47565b60408051828152602081018c90529081018a9052606081018490529091506001600160a01b038416907f3d1669e813a9845c288f0e1f642a4343a451103b87886d12de37e63b39bbd9429060800160405180910390a25050505b50505050505050565b60008082612642611c92565b61264c9190612d47565b905080612665578291506126608484612989565b61268e565b8061266e611d0c565b6126789085612d28565b6126829190612cf0565b915061268e8483612989565b5092915050565b60006107fc6113b260017f6e6ab8b7c7aaba79eef8cc633522d606bb008c101cf9832c9ad05d10a9847281612d47565b610b43816129f7565b610b4381612a2e565b60006107fc6113b260017fb5b37715a3e346e996104f0086703f19825def429233930fd9399c38e05fb113612d47565b60608182601f01101561272d576040516323d5783d60e11b815260040160405180910390fd5b6127378284612cd8565b8451101561275857604051633b99b53d60e01b815260040160405180910390fd5b60608215801561277757604051915060008252602082016040526127c1565b6040519150601f8416801560200281840101858101878315602002848b0101015b818310156127b0578051835260209283019201612798565b5050858452601f01601f1916604052505b50949350505050565b603881901c60ff908116603083901c8216602884901c8316602085901c8416601886901c8516601087901c8616600888811c9790971688881b61ff001617871b17861b17851b17841b17831b1790911b17604082901c801561282e5761282e613017565b5060c01b919050565b60006107fc6113b260017f35efb61d8784060218d9d6aa40eae55904de43779c1afc79c74dfefcfdf91260612d47565b60006107fc6113b260017f6b842b424335d94ccad97e54548dfa02673c1268aba38d3c3c32d28c8988b70b612d47565b60006128c460017f0fb4a5ac9287f4f508aa7253ee2d57c6a228b1b30e210d73fffd59389d3a8838612d47565b6001600160a01b03909316600090815260209390935250604090912055565b612710811115610b43576040516358d620b360e01b815260040160405180910390fd5b61290f8161234c565b610b436113e460017f35efb61d8784060218d9d6aa40eae55904de43779c1afc79c74dfefcfdf91260612d47565b8061295b5760405163a9cb9e0d60e01b815260040160405180910390fd5b610b436113e460017fb649e50315f962b32d487e696a81b4828631b11f8424daaaa37e9e97766a2c42612d47565b6129a481612995612867565b61299f9190612cd8565b612a5c565b6129b28282611f15856121a2565b6040518181526001600160a01b038316906000907fddf252ad1be2c89b69c2b068fc378daa952ba7f163c4a11628f55a4df523b3ef9060200160405180910390a35050565b612a008161234c565b610b436113e460017fb5b37715a3e346e996104f0086703f19825def429233930fd9399c38e05fb113612d47565b610b436113e460017f6e6ab8b7c7aaba79eef8cc633522d606bb008c101cf9832c9ad05d10a9847281612d47565b610b436113e460017f6b842b424335d94ccad97e54548dfa02673c1268aba38d3c3c32d28c8988b70b612d47565b60005b83811015612aa5578181015183820152602001612a8d565b83811115612ab4576000848401525b50505050565b60008151808452612ad2816020860160208601612a8a565b601f01601f19169290920160200192915050565b6020815260006112ba6020830184612aba565b80356001600160a01b0381168114612b1057600080fd5b919050565b60008060408385031215612b2857600080fd5b612b3183612af9565b946020939093013593505050565b600060208284031215612b5157600080fd5b6112ba82612af9565b600060208284031215612b6c57600080fd5b5035919050565b600080600060608486031215612b8857600080fd5b612b9184612af9565b9250612b9f60208501612af9565b9150604084013590509250925092565b60008060008060008060008060006101208a8c031215612bce57600080fd5b612bd78a612af9565b9850612be560208b01612af9565b975060408a01359650612bfa60608b01612af9565b9550612c0860808b01612af9565b9450612c1660a08b01612af9565b9350612c2460c08b01612af9565b9250612c3260e08b01612af9565b91506101008a013590509295985092959850929598565b6001600160a01b0391909116815260200190565b60008060008060808587031215612c7357600080fd5b5050823594602084013594506040840135936060013592509050565b60008060408385031215612ca257600080fd5b612cab83612af9565b9150612cb960208401612af9565b90509250929050565b634e487b7160e01b600052601160045260246000fd5b60008219821115612ceb57612ceb612cc2565b500190565b600082612d0d57634e487b7160e01b600052601260045260246000fd5b500490565b634e487b7160e01b600052603260045260246000fd5b6000816000190483118215151615612d4257612d42612cc2565b500290565b600082821015612d5957612d59612cc2565b500390565b83815260406020820152816040820152818360608301376000818301606090810191909152601f909201601f1916010192915050565b600060208284031215612da657600080fd5b815180151581146112ba57600080fd5b634e487b7160e01b600052604160045260246000fd5b604051601f8201601f1916810167ffffffffffffffff81118282101715612df557612df5612db6565b604052919050565b6000601f8381840112612e0f57600080fd5b8251602067ffffffffffffffff80831115612e2c57612e2c612db6565b8260051b612e3b838201612dcc565b9384528681018301938381019089861115612e5557600080fd5b84890192505b85831015610c0057825184811115612e735760008081fd5b8901603f81018b13612e855760008081fd5b85810151604086821115612e9b57612e9b612db6565b612eac828b01601f19168901612dcc565b8281528d82848601011115612ec15760008081fd5b612ed0838a8301848701612a8a565b85525050509184019190840190612e5b565b60008060408385031215612ef557600080fd5b825167ffffffffffffffff80821115612f0d57600080fd5b612f1986838701612dfd565b93506020850151915080821115612f2f57600080fd5b50612f3c85828601612dfd565b9150509250929050565b60008351612f58818460208801612a8a565b6001600160801b0319939093169190920190815260100192915050565b60008251612f87818460208701612a8a565b9190910192915050565b600060208284031215612fa357600080fd5b5051919050565b60008351612fbc818460208801612a8a565b9190910191825250602001919050565b608081526000612fdf6080830187612aba565b8281036020840152612ff18187612aba565b905082810360408401526130058186612aba565b91505082606083015295945050505050565b634e487b7160e01b600052600160045260246000fdfea2646970667358221220a0ca0e5050c3d44537e9bbacc1c4f8a7319eb9f6a0d9bbaa5d300df1cd91a0b764736f6c634300080a0033",
            "0x60806040526004361061026b5760003560e01c80635639671511610144578063a9059cbb116100b6578063d04681561161007a578063d0468156146106e6578063d0e30db0146106fb578063dd62ed3e14610703578063efd6034714610723578063f79c3f021461072b578063fb5b82d01461074b5761027b565b8063a9059cbb14610669578063ac232bde14610689578063bf15af561461069c578063c5eff3d0146106b1578063cc48cd31146106c65761027b565b80637adbf973116101085780637adbf973146105bc578063833b1fce146105dc57806387f2adfb146105f157806395d89b41146106065780639b498e2614610634578063a457c2d7146106495761027b565b8063563967151461053257806358bf3c7f146105475780636e9960c31461056757806370a082311461057c578063799a19541461059c5761027b565b806323b872dd116101dd57806336bf3325116101a157806336bf33251461049657806339509351146104b35780633af9e669146104d357806346425ef0146104f35780635022820114610508578063540bc5ea1461051d5761027b565b806323b872dd146103f8578063281a312214610418578063291206f6146104385780632cb562e114610458578063313ce5671461047a5761027b565b80631311cf8d1161022f5780631311cf8d1461035957806313d86aed14610379578063143a08d414610399578063147bf6c4146103ae57806318160ddd146103ce5780631bcbfaba146103e35761027b565b806304843a171461029457806306fdde03146102bc578063095ea7b3146102ff5780630e18b6811461032f578063107d7fa0146103445761027b565b3661027b576102793361076b565b005b60405163574b16a760e11b815260040160405180910390fd5b3480156102a057600080fd5b506102a96107f2565b6040519081526020015b60405180910390f35b3480156102c857600080fd5b50604080518082019091526011815270098d2e2ead2c840a6e8c2d6cac8408aa89607b1b60208201525b6040516102b39190612ad7565b34801561030b57600080fd5b5061031f61031a366004612b06565b610801565b60405190151581526020016102b3565b34801561033b57600080fd5b50610279610817565b34801561035057600080fd5b506102a9610877565b34801561036557600080fd5b50610279610374366004612b30565b610881565b34801561038557600080fd5b50610279610394366004612b4b565b6108fc565b3480156103a557600080fd5b506102a9610ab5565b3480156103ba57600080fd5b506102796103c9366004612b30565b610abf565b3480156103da57600080fd5b506102a9610b06565b3480156103ef57600080fd5b506102a9610b10565b34801561040457600080fd5b5061031f610413366004612b64565b610b1a565b34801561042457600080fd5b50610279610433366004612ba0565b610bcd565b34801561044457600080fd5b50610279610453366004612b4b565b610daf565b34801561046457600080fd5b5061046d610e29565b6040516102b39190612c3a565b34801561048657600080fd5b50604051601281526020016102b3565b3480156104a257600080fd5b506102a96801bc16d674ec80000081565b3480156104bf57600080fd5b5061031f6104ce366004612b06565b610e33565b3480156104df57600080fd5b506102a96104ee366004612b30565b610e54565b3480156104ff57600080fd5b506102a9610e6d565b34801561051457600080fd5b5061046d610e77565b34801561052957600080fd5b506102a9606081565b34801561053e57600080fd5b506102a9610e81565b34801561055357600080fd5b50610279610562366004612b30565b610e8b565b34801561057357600080fd5b5061046d610f06565b34801561058857600080fd5b506102a9610597366004612b30565b610f10565b3480156105a857600080fd5b506102a96105b7366004612b4b565b610f1b565b3480156105c857600080fd5b506102796105d7366004612b30565b610f26565b3480156105e857600080fd5b5061046d610fa1565b3480156105fd57600080fd5b506102a9610fab565b34801561061257600080fd5b50604080518082019091526005815264098e68aa8960db1b60208201526102f2565b34801561064057600080fd5b5061046d610fb5565b34801561065557600080fd5b5061031f610664366004612b06565b610fbf565b34801561067557600080fd5b5061031f610684366004612b06565b610fdb565b610279610697366004612b30565b61107a565b3480156106a857600080fd5b506102a9603081565b3480156106bd57600080fd5b5061046d61108c565b3480156106d257600080fd5b506102796106e1366004612c4e565b611096565b3480156106f257600080fd5b5061046d611210565b61027961121a565b34801561070f57600080fd5b506102a961071e366004612c80565b611223565b610279611236565b34801561073757600080fd5b506102a9610746366004612b4b565b611271565b34801561075757600080fd5b50610279610766366004612b30565b61127c565b34610789576040516395b66fe960e01b815260040160405180910390fd5b6107a4346107956112f7565b61079f9190612cc9565b61132b565b6107af33823461135e565b6040513481526001600160a01b0382169033907f3bc57f469ad6d10d7723ea226cd22bd2b9e527def2b529f6ab44645a166895829060200160405180910390a350565b60006107fc6112f7565b905090565b600061080e3384846114f8565b50600192915050565b61081f611567565b6001600160a01b0316336001600160a01b03161461085b573360405163472511eb60e11b81526004016108529190612c3a565b60405180910390fd5b61086b610866611567565b611571565b61087560006115ba565b565b60006107fc6115fa565b61088961162a565b6001600160a01b0316336001600160a01b0316146108bc573360405163472511eb60e11b81526004016108529190612c3a565b6108c581611634565b6040516001600160a01b038216907f1da4c245099590dc40be61880c9b97792f3694d970acc1e67ac0e6cc90f3780d90600090a250565b610904611662565b6001600160a01b0316336001600160a01b031614610937573360405163472511eb60e11b81526004016108529190612c3a565b60006109416112f7565b9050600061096161095b6801bc16d674ec80000084612ce1565b8461166c565b90508061098157604051631036b5ad60e31b815260040160405180910390fd5b60008061098d83611681565b81519193509150806109b25760405163200149ad60e21b815260040160405180910390fd5b838111156109d357604051635993bd5760e01b815260040160405180910390fd5b81518181146109f5576040516322e5ce4360e21b815260040160405180910390fd5b60006109ff611709565b905080610a1f57604051639be7315960e01b815260040160405180910390fd5b60005b83811015610a6f57610a67868281518110610a3f57610a3f612d03565b6020026020010151868381518110610a5957610a59612d03565b602002602001015184611739565b600101610a22565b50610a90610a86846801bc16d674ec800000612d19565b61079f9089612d38565b610aab83610a9c611bc1565b610aa69190612cc9565b611bf1565b5050505050505050565b60006107fc611c1f565b610ac761162a565b6001600160a01b0316336001600160a01b031614610afa573360405163472511eb60e11b81526004016108529190612c3a565b610b03816115ba565b50565b60006107fc611c99565b60006107fc611ca3565b60008383610b288282611cd3565b8380610b47576040516336b216db60e21b815260040160405180910390fd5b868580610b5383611dff565b1015610b72576040516351940b3960e11b815260040160405180910390fd5b6001600160a01b038816610bab57604051637617407560e11b81526001600160a01b038a16600482015260006024820152604401610852565b610bb58988611e0a565b610bc0898989611e70565b9998505050505050505050565b6000610bd7611efe565b8114610c085780610be6611efe565b604051631cfd276760e31b815260048101929092526024820152604401610852565b610c1b610c16826001612cc9565b611f2e565b610c2486611571565b610c2d83611f5c565b6040516001600160a01b038416907f0cc5437d7c9c1d9eab549acbb533eea3e9868e9443dd75309ed5820b33a3774e90600090a2610c6a82611f93565b6040518281527fbd533e726baaf59b36f3914d950053f7e78f527057c97cd3f0043257fc0fc8849060200160405180910390a1610ca689611634565b6040516001600160a01b038a16907f1da4c245099590dc40be61880c9b97792f3694d970acc1e67ac0e6cc90f3780d90600090a2610ce385611fca565b6040516001600160a01b038616907f30f015a5d3c72c0a9414538199baa022323a483fa9e4ba2cd581596cf8ca042490600090a2610d2084612001565b6040516001600160a01b038516907fffc0721ef0563a1b0a51a0dc92113025f33ca434ada9ee3eebff2f385d2a8f9a90600090a2610d5e8a89612038565b610d6787610f61565b7f1809e49bba43f2d39fa57894b50cd6ccb428cc438230e065cac3eb24a1355a7181600036604051610d9b93929190612d4f565b60405180910390a150505050505050505050565b610db761162a565b6001600160a01b0316336001600160a01b031614610dea573360405163472511eb60e11b81526004016108529190612c3a565b610df381611f93565b6040518181527fbd533e726baaf59b36f3914d950053f7e78f527057c97cd3f0043257fc0fc8849060200160405180910390a150565b60006107fc6120b4565b600061080e338484610e4533886120e4565b610e4f9190612cc9565b6114f8565b6000610e67610e628361213c565b61218a565b92915050565b60006107fc6121c2565b60006107fc6121f2565b60006107fc611709565b610e9361162a565b6001600160a01b0316336001600160a01b031614610ec6573360405163472511eb60e11b81526004016108529190612c3a565b610ecf81611fca565b6040516001600160a01b038216907f30f015a5d3c72c0a9414538199baa022323a483fa9e4ba2cd581596cf8ca042490600090a250565b60006107fc61162a565b6000610e6782611dff565b6000610e6782612222565b610f2e611662565b6001600160a01b0316336001600160a01b031614610f61573360405163472511eb60e11b81526004016108529190612c3a565b610f6a8161224f565b6040516001600160a01b038216907fd3b5d1e0ffaeff528910f3663f0adace7694ab8241d58e17a91351ced2e0803190600090a250565b60006107fc612286565b60006107fc611bc1565b60006107fc6122b6565b600061080e338484610fd133886120e4565b610e4f9190612d38565b60003383610fe98282611cd3565b8380611008576040516336b216db60e21b815260040160405180910390fd5b33858061101483611dff565b1015611033576040516351940b3960e11b815260040160405180910390fd5b6001600160a01b03881661106357604051637617407560e11b815233600482015260006024820152604401610852565b61106e338989611e70565b98975050505050505050565b611083816122e6565b610b038161076b565b60006107fc61230d565b61109e612286565b6001600160a01b0316336001600160a01b0316146110d1573360405163472511eb60e11b81526004016108529190612c3a565b6110d9611bc1565b84111561110b57836110e9611bc1565b6040516376179ac560e01b815260048101929092526024820152604401610852565b60006111156115fa565b61111f9086612d38565b90506000611136826801bc16d674ec800000612d19565b61113e6121c2565b6111489190612cc9565b90506111538561233d565b61115c8661236b565b61116584612399565b6000856111728386612cc9565b111561119857611195866111868487612cc9565b6111909190612d38565b6123c7565b90505b6111a28187612cc9565b8210156111c6576111c6826111b78389612cc9565b6111c19190612d38565b61249e565b60408051888152602081018890529081018690527f25d7358447891786a139ae7149548f3232a8c95f2ea6065c69c5bd7c39cd386c9060600160405180910390a150505050505050565b60006107fc611567565b6108753361076b565b600061122f83836120e4565b9392505050565b61123e6120b4565b6001600160a01b0316336001600160a01b031614610875573360405163472511eb60e11b81526004016108529190612c3a565b6000610e678261218a565b61128461162a565b6001600160a01b0316336001600160a01b0316146112b7573360405163472511eb60e11b81526004016108529190612c3a565b6112c081611f5c565b6040516001600160a01b038216907f0cc5437d7c9c1d9eab549acbb533eea3e9868e9443dd75309ed5820b33a3774e90600090a250565b60006107fc61132760017f2b6136e423ab70d76431e2a635e877e16ea2dd9a895e054ad7f35f89d6c7b711612d38565b5490565b610b0361135960017f2b6136e423ab70d76431e2a635e877e16ea2dd9a895e054ad7f35f89d6c7b711612d38565b829055565b600061136a84836125d0565b9050600061137661230d565b9050836001600160a01b0316856001600160a01b031614156113f757604051632d20488160e11b81526001600160a01b03868116600483015260016024830152821690635a4091029060440160006040518083038186803b1580156113da57600080fd5b505afa1580156113ee573d6000803e3d6000fd5b505050506114f1565b604051632d20488160e11b81526001600160a01b03868116600483015260016024830152821690635a4091029060440160006040518083038186803b15801561143f57600080fd5b505afa158015611453573d6000803e3d6000fd5b505060405163e838dfbb60e01b81526001600160a01b038416925063e838dfbb9150611483908790600401612c3a565b602060405180830381865afa1580156114a0573d6000803e3d6000fd5b505050506040513d601f19601f820116820180604052508101906114c49190612d85565b156114e4578360405163e7d05e2760e01b81526004016108529190612c3a565b6114ef858584611e70565b505b5050505050565b611501836122e6565b61150a826122e6565b61151583838361262f565b816001600160a01b0316836001600160a01b03167f8c5be1e5ebec7d5bd14f71427d1e84f3dd0314c0f7b2291e5b200ac8c7c3b9258360405161155a91815260200190565b60405180910390a3505050565b60006107fc612686565b61157a816122e6565b611583816126b6565b6040516001600160a01b038216907f5a272403b402d892977df56625f4164ccaf70ca3863991c43ecfe76a6905b0a190600090a250565b6115c3816126bf565b6040516001600160a01b038216907f2a0f8515de3fa34ef68b99300347b8793c01683350743e96fe440594528298f490600090a250565b60006107fc61132760017f0f1e7733641e4d843128fea0d2ec90d3d06a40b0fe244ff603d8c1aa200dc0f9612d38565b60006107fc6126c8565b610b0361135960017f8e9e2a1d30fed357d8a000c1131fc77ed65d2052918caf1ccc6eb1e7af3d13b6612d38565b60006107fc610f06565b600081831161167b578261122f565b50919050565b60608061168c6122b6565b6001600160a01b031663a1947323846040518263ffffffff1660e01b81526004016116b991815260200190565b6000604051808303816000875af11580156116d8573d6000803e3d6000fd5b505050506040513d6000823e601f3d908101601f191682016040526117009190810190612ed3565b91509150915091565b60006107fc61132760017fb649e50315f962b32d487e696a81b4828631b11f8424daaaa37e9e97766a2c42612d38565b603083511461175b5760405163050cb55360e41b815260040160405180910390fd5b606082511461177d5760405163408ebd3960e01b815260040160405180910390fd5b6801bc16d674ec8000006000611797633b9aca0083612ce1565b90506000600286600060801b6040516020016117b4929190612f37565b60408051601f19818403018152908290526117ce91612f66565b602060405180830381855afa1580156117eb573d6000803e3d6000fd5b5050506040513d601f19601f8201168201806040525081019061180e9190612f82565b9050600060028061182288600060406126f8565b60405161182f9190612f66565b602060405180830381855afa15801561184c573d6000803e3d6000fd5b5050506040513d601f19601f8201168201806040525081019061186f9190612f82565b6002611887896040611882816060612d38565b6126f8565b60405161189a9190600090602001612f9b565b60408051601f19818403018152908290526118b491612f66565b602060405180830381855afa1580156118d1573d6000803e3d6000fd5b5050506040513d601f19601f820116820180604052508101906118f49190612f82565b60408051602081019390935282015260600160408051601f198184030181529082905261192091612f66565b602060405180830381855afa15801561193d573d6000803e3d6000fd5b5050506040513d601f19601f820116820180604052508101906119609190612f82565b905060006002808488604051602001611983929190918252602082015260400190565b60408051601f198184030181529082905261199d91612f66565b602060405180830381855afa1580156119ba573d6000803e3d6000fd5b5050506040513d601f19601f820116820180604052508101906119dd9190612f82565b60026119e8876127bb565b604080516020810192909252810186905260600160408051601f1981840301815290829052611a1691612f66565b602060405180830381855afa158015611a33573d6000803e3d6000fd5b5050506040513d601f19601f82011682018060405250810190611a569190612f82565b60408051602081019390935282015260600160408051601f1981840301815290829052611a8291612f66565b602060405180830381855afa158015611a9f573d6000803e3d6000fd5b5050506040513d601f19601f82011682018060405250810190611ac29190612f82565b90506000611ad08647612d38565b9050611ada612828565b6001600160a01b03166322895118878b8a604051602001611afd91815260200190565b6040516020818303038152906040528c876040518663ffffffff1660e01b8152600401611b2d9493929190612fbd565b6000604051808303818588803b158015611b4657600080fd5b505af1158015611b5a573d6000803e3d6000fd5b5050505050804714611b7f57604051638051a6bb60e01b815260040160405180910390fd5b7f11553d182c6d24df901ccbb837d640c1ee9994876a88dccc8ddfd7ebab9b6ce189604051611bae9190612ad7565b60405180910390a1505050505050505050565b60006107fc61132760017fc77078e3530c08cdb2440817c81de4836500b4708ea4d15672b7fe98956423a8612d38565b610b0361135960017fc77078e3530c08cdb2440817c81de4836500b4708ea4d15672b7fe98956423a8612d38565b600080611c2a6115fa565b90506000611c36611bc1565b905080821015611c89576801bc16d674ec800000611c548383612d38565b611c5e9190612d19565b611c666112f7565b611c6e6121c2565b611c789190612cc9565b611c829190612cc9565b9250505090565b611c916112f7565b611c786121c2565b60006107fc612858565b60006107fc61132760017f094efef62d2ce60c14ffacd35a1b50546d3a9d503aff1df040176fffd6c92a37612d38565b6000611cdd61230d565b60405163e838dfbb60e01b81529091506001600160a01b0382169063e838dfbb90611d0c908690600401612c3a565b602060405180830381865afa158015611d29573d6000803e3d6000fd5b505050506040513d601f19601f82011682018060405250810190611d4d9190612d85565b15611d6d578260405163e7d05e2760e01b81526004016108529190612c3a565b60405163e838dfbb60e01b81526001600160a01b0382169063e838dfbb90611d99908590600401612c3a565b602060405180830381865afa158015611db6573d6000803e3d6000fd5b505050506040513d601f19601f82011682018060405250810190611dda9190612d85565b15611dfa578160405163e7d05e2760e01b81526004016108529190612c3a565b505050565b6000610e678261213c565b6000611e1683336120e4565b905081811015611e5857604051637b936de360e01b81526001600160a01b03841660048201523360248201526044810182905260648101839052608401610852565b6000198114611dfa57611dfa8333610e4f8585612d38565b6000611e8f8483611e808761213c565b611e8a9190612d38565b612888565b611ea78383611e9d8661213c565b611e8a9190612cc9565b826001600160a01b0316846001600160a01b03167fddf252ad1be2c89b69c2b068fc378daa952ba7f163c4a11628f55a4df523b3ef84604051611eec91815260200190565b60405180910390a35060019392505050565b60006107fc61132760017f82055909238c0f5e63d6f174068ebb8f51bcec9bd37de63bb68f6551feec0cfd612d38565b610b0361135960017f82055909238c0f5e63d6f174068ebb8f51bcec9bd37de63bb68f6551feec0cfd612d38565b611f65816122e6565b610b0361135960017f082b6d18de7b10e438e6b1002141db737519cb4ceed679bc815e3aac00cd2227612d38565b611f9c816128d4565b610b0361135960017f094efef62d2ce60c14ffacd35a1b50546d3a9d503aff1df040176fffd6c92a37612d38565b611fd3816122e6565b610b0361135960017f867d8f1a5e39d11d5bebde854d5359a509530ad32450f581da63c06ec8d1a780612d38565b61200a816122e6565b610b0361135960017f3f075dea7ef99b1e5db245018e5e4ed8d2a0d93953f5932b2176bef59bd69061612d38565b612041826128f7565b6040516001600160a01b038316907e043cf7635f276413ae358250286a479a631abd9d74d57d4aa0bb87ebc7d11790600090a261207d8161292e565b6040518181527f4c86ba184ea1a1558f84835ca34f6d67e222e8ee5cc4f324b8861dda4cf1740c9060200160405180910390a15050565b60006107fc61132760017f8e9e2a1d30fed357d8a000c1131fc77ed65d2052918caf1ccc6eb1e7af3d13b6612d38565b60008061211260017fc852254d5b703a16bb13b3e233a335d6459c5da5db0ca732d7a684ee05407847612d38565b6001600160a01b039485166000908152602091825260408082209590961681529390525050205490565b60008061216a60017f0fb4a5ac9287f4f508aa7253ee2d57c6a228b1b30e210d73fffd59389d3a8838612d38565b6001600160a01b0390931660009081526020939093525050604090205490565b600080612195612858565b9050806121a55750600092915050565b806121ae611c1f565b6121b89085612d19565b61122f9190612ce1565b60006107fc61132760017ffedfd2c285a57fb23bf45a3fe9ac02d36a76ebb72801b1c8aaf553d74e9d4653612d38565b60006107fc61132760017f082b6d18de7b10e438e6b1002141db737519cb4ceed679bc815e3aac00cd2227612d38565b60008061222d612858565b90508061223d5750600092915050565b612245611c1f565b6121b88285612d19565b612258816122e6565b610b0361135960017fc8cbea9407c380ae944f052b5a442330057683c5abdbd453493f9750806afecb612d38565b60006107fc61132760017fc8cbea9407c380ae944f052b5a442330057683c5abdbd453493f9750806afecb612d38565b60006107fc61132760017f3f075dea7ef99b1e5db245018e5e4ed8d2a0d93953f5932b2176bef59bd69061612d38565b6001600160a01b038116610b035760405163f6b2911f60e01b815260040160405180910390fd5b60006107fc61132760017f867d8f1a5e39d11d5bebde854d5359a509530ad32450f581da63c06ec8d1a780612d38565b610b0361135960017ffedfd2c285a57fb23bf45a3fe9ac02d36a76ebb72801b1c8aaf553d74e9d4653612d38565b610b0361135960017f0f1e7733641e4d843128fea0d2ec90d3d06a40b0fe244ff603d8c1aa200dc0f9612d38565b610b0361135960017fd7f2d45e512a86049f7a113657b39731b6b558609584243063a52cd31a8eb529612d38565b6000806123d26120b4565b90506001600160a01b0381166123eb5750600092915050565b60405163c8a6dfd360e01b81526004810184905247906001600160a01b0383169063c8a6dfd390602401600060405180830381600087803b15801561242f57600080fd5b505af1158015612443573d6000803e3d6000fd5b50505050600081476124559190612d38565b9050612463816107956112f7565b6040518181527fda841d3042d792e2509a333b9dcbd4b3dd9b9047d382011f8788fab90ca7e3c79060200160405180910390a1949350505050565b60006124a8611c99565b9050806124c857604051630d35acd760e21b815260040160405180910390fd5b60006124d2611c1f565b905060006124de611ca3565b90506000816124ed8587612d19565b6124f79190612d19565b905060006125058387612d19565b61251161271086612d19565b61251b9190612d38565b9050600081156125345761252f8284612ce1565b612537565b60005b905080156125c75760006125496121f2565b9050612555818361297a565b600061255f611c99565b9050600061256d8a89612d38565b60408051828152602081018c90529081018a9052606081018490529091506001600160a01b038416907f3d1669e813a9845c288f0e1f642a4343a451103b87886d12de37e63b39bbd9429060800160405180910390a25050505b50505050505050565b600080826125dc611c1f565b6125e69190612d38565b9050806125ff578291506125fa848461297a565b612628565b80612608611c99565b6126129085612d19565b61261c9190612ce1565b9150612628848361297a565b5092915050565b600061265c60017fc852254d5b703a16bb13b3e233a335d6459c5da5db0ca732d7a684ee05407847612d38565b6001600160a01b039485166000908152602091825260408082209590961681529390525091902055565b60006107fc61132760017f6e6ab8b7c7aaba79eef8cc633522d606bb008c101cf9832c9ad05d10a9847281612d38565b610b03816129e8565b610b0381612a1f565b60006107fc61132760017fb5b37715a3e346e996104f0086703f19825def429233930fd9399c38e05fb113612d38565b60608182601f01101561271e576040516323d5783d60e11b815260040160405180910390fd5b6127288284612cc9565b8451101561274957604051633b99b53d60e01b815260040160405180910390fd5b60608215801561276857604051915060008252602082016040526127b2565b6040519150601f8416801560200281840101858101878315602002848b0101015b818310156127a1578051835260209283019201612789565b5050858452601f01601f1916604052505b50949350505050565b603881901c60ff908116603083901c8216602884901c8316602085901c8416601886901c8516601087901c8616600888811c9790971688881b61ff001617871b17861b17851b17841b17831b1790911b17604082901c801561281f5761281f613008565b5060c01b919050565b60006107fc61132760017f35efb61d8784060218d9d6aa40eae55904de43779c1afc79c74dfefcfdf91260612d38565b60006107fc61132760017f6b842b424335d94ccad97e54548dfa02673c1268aba38d3c3c32d28c8988b70b612d38565b60006128b560017f0fb4a5ac9287f4f508aa7253ee2d57c6a228b1b30e210d73fffd59389d3a8838612d38565b6001600160a01b03909316600090815260209390935250604090912055565b612710811115610b03576040516358d620b360e01b815260040160405180910390fd5b612900816122e6565b610b0361135960017f35efb61d8784060218d9d6aa40eae55904de43779c1afc79c74dfefcfdf91260612d38565b8061294c5760405163a9cb9e0d60e01b815260040160405180910390fd5b610b0361135960017fb649e50315f962b32d487e696a81b4828631b11f8424daaaa37e9e97766a2c42612d38565b61299581612986612858565b6129909190612cc9565b612a4d565b6129a38282611e9d8561213c565b6040518181526001600160a01b038316906000907fddf252ad1be2c89b69c2b068fc378daa952ba7f163c4a11628f55a4df523b3ef9060200160405180910390a35050565b6129f1816122e6565b610b0361135960017fb5b37715a3e346e996104f0086703f19825def429233930fd9399c38e05fb113612d38565b610b0361135960017f6e6ab8b7c7aaba79eef8cc633522d606bb008c101cf9832c9ad05d10a9847281612d38565b610b0361135960017f6b842b424335d94ccad97e54548dfa02673c1268aba38d3c3c32d28c8988b70b612d38565b60005b83811015612a96578181015183820152602001612a7e565b83811115612aa5576000848401525b50505050565b60008151808452612ac3816020860160208601612a7b565b601f01601f19169290920160200192915050565b60208152600061122f6020830184612aab565b80356001600160a01b0381168114612b0157600080fd5b919050565b60008060408385031215612b1957600080fd5b612b2283612aea565b946020939093013593505050565b600060208284031215612b4257600080fd5b61122f82612aea565b600060208284031215612b5d57600080fd5b5035919050565b600080600060608486031215612b7957600080fd5b612b8284612aea565b9250612b9060208501612aea565b9150604084013590509250925092565b60008060008060008060008060006101208a8c031215612bbf57600080fd5b612bc88a612aea565b9850612bd660208b01612aea565b975060408a01359650612beb60608b01612aea565b9550612bf960808b01612aea565b9450612c0760a08b01612aea565b9350612c1560c08b01612aea565b9250612c2360e08b01612aea565b91506101008a013590509295985092959850929598565b6001600160a01b0391909116815260200190565b60008060008060808587031215612c6457600080fd5b5050823594602084013594506040840135936060013592509050565b60008060408385031215612c9357600080fd5b612c9c83612aea565b9150612caa60208401612aea565b90509250929050565b634e487b7160e01b600052601160045260246000fd5b60008219821115612cdc57612cdc612cb3565b500190565b600082612cfe57634e487b7160e01b600052601260045260246000fd5b500490565b634e487b7160e01b600052603260045260246000fd5b6000816000190483118215151615612d3357612d33612cb3565b500290565b600082821015612d4a57612d4a612cb3565b500390565b83815260406020820152816040820152818360608301376000818301606090810191909152601f909201601f1916010192915050565b600060208284031215612d9757600080fd5b8151801515811461122f57600080fd5b634e487b7160e01b600052604160045260246000fd5b604051601f8201601f1916810167ffffffffffffffff81118282101715612de657612de6612da7565b604052919050565b6000601f8381840112612e0057600080fd5b8251602067ffffffffffffffff80831115612e1d57612e1d612da7565b8260051b612e2c838201612dbd565b9384528681018301938381019089861115612e4657600080fd5b84890192505b85831015610bc057825184811115612e645760008081fd5b8901603f81018b13612e765760008081fd5b85810151604086821115612e8c57612e8c612da7565b612e9d828b01601f19168901612dbd565b8281528d82848601011115612eb25760008081fd5b612ec1838a8301848701612a7b565b85525050509184019190840190612e4c565b60008060408385031215612ee657600080fd5b825167ffffffffffffffff80821115612efe57600080fd5b612f0a86838701612dee565b93506020850151915080821115612f2057600080fd5b50612f2d85828601612dee565b9150509250929050565b60008351612f49818460208801612a7b565b6001600160801b0319939093169190920190815260100192915050565b60008251612f78818460208701612a7b565b9190910192915050565b600060208284031215612f9457600080fd5b5051919050565b60008351612fad818460208801612a7b565b9190910191825250602001919050565b608081526000612fd06080830187612aab565b8281036020840152612fe28187612aab565b90508281036040840152612ff68186612aab565b91505082606083015295945050505050565b634e487b7160e01b600052600160045260246000fdfea26469706673582212204c98ac4f477f06f69f4028fa9440dd9c691d20f120c69e574b4c9dd17f97219264736f6c634300080a0033",
            "0x6080604052600436106102a25760003560e01c80635639671511610165578063a457c2d7116100cc578063d046815611610085578063d046815614610787578063d0e30db01461079c578063d4970524146107a4578063dd62ed3e146107ac578063efd60347146107cc578063f79c3f02146107d4578063fb5b82d0146107f4576102b2565b8063a457c2d7146106ea578063a9059cbb1461070a578063ac232bde1461072a578063bf15af561461073d578063c5eff3d014610752578063cc48cd3114610767576102b2565b80637adbf9731161011e5780637adbf97314610648578063833b1fce1461066857806386a92af71461067d57806387f2adfb1461069257806395d89b41146106a75780639b498e26146106d5576102b2565b8063563967151461059e57806358bf3c7f146105b35780636e9960c3146105d357806370a08231146105e8578063750521f514610608578063799a195414610628576102b2565b80631bcbfaba1161020957806336bf3325116101c257806336bf332514610502578063395093511461051f5780633af9e6691461053f57806346425ef01461055f5780635022820114610574578063540bc5ea14610589576102b2565b80631bcbfaba1461045c57806323b872dd14610471578063281a312214610491578063291206f6146104b15780632cb562e1146104d1578063313ce567146104e6576102b2565b80631311cf8d1161025b5780631311cf8d146103b057806313d86aed146103d0578063143a08d4146103f0578063147bf6c4146104055780631546962b1461042557806318160ddd14610447576102b2565b8063020f086e146102cb57806304843a17146102eb57806306fdde0314610313578063095ea7b3146103565780630e18b68114610386578063107d7fa01461039b576102b2565b366102b2576102b033610814565b005b60405163574b16a760e11b815260040160405180910390fd5b3480156102d757600080fd5b506102b06102e6366004612f96565b61089b565b3480156102f757600080fd5b5061030061091f565b6040519081526020015b60405180910390f35b34801561031f57600080fd5b50604080518082019091526011815270098d2e2ead2c840a6e8c2d6cac8408aa89607b1b60208201525b60405161030a9190613009565b34801561036257600080fd5b5061037661037136600461301c565b61092e565b604051901515815260200161030a565b34801561039257600080fd5b506102b0610944565b3480156103a757600080fd5b5061030061099b565b3480156103bc57600080fd5b506102b06103cb366004612f96565b6109a5565b3480156103dc57600080fd5b506102b06103eb366004613046565b610a20565b3480156103fc57600080fd5b50610300610bd9565b34801561041157600080fd5b506102b0610420366004612f96565b610be3565b34801561043157600080fd5b5061043a610c2a565b60405161030a919061305f565b34801561045357600080fd5b50610300610c34565b34801561046857600080fd5b50610300610c3e565b34801561047d57600080fd5b5061037661048c366004613073565b610c48565b34801561049d57600080fd5b506102b06104ac3660046130af565b610cfb565b3480156104bd57600080fd5b506102b06104cc366004613046565b610edd565b3480156104dd57600080fd5b5061043a610f58565b3480156104f257600080fd5b506040516012815260200161030a565b34801561050e57600080fd5b506103006801bc16d674ec80000081565b34801561052b57600080fd5b5061037661053a36600461301c565b610f62565b34801561054b57600080fd5b5061030061055a366004612f96565b610f83565b34801561056b57600080fd5b50610300610f9c565b34801561058057600080fd5b5061043a610fa6565b34801561059557600080fd5b50610300606081565b3480156105aa57600080fd5b50610300610fb0565b3480156105bf57600080fd5b506102b06105ce366004612f96565b610fba565b3480156105df57600080fd5b5061043a611035565b3480156105f457600080fd5b50610300610603366004612f96565b61103f565b34801561061457600080fd5b506102b06106233660046131b8565b61104a565b34801561063457600080fd5b50610300610643366004613046565b6110c6565b34801561065457600080fd5b506102b0610663366004612f96565b6110d1565b34801561067457600080fd5b5061043a61114c565b34801561068957600080fd5b50610349611156565b34801561069e57600080fd5b50610300611160565b3480156106b357600080fd5b50604080518082019091526005815264098e68aa8960db1b6020820152610349565b3480156106e157600080fd5b5061043a61116a565b3480156106f657600080fd5b5061037661070536600461301c565b611174565b34801561071657600080fd5b5061037661072536600461301c565b611190565b6102b0610738366004612f96565b61122f565b34801561074957600080fd5b50610300603081565b34801561075e57600080fd5b5061043a611241565b34801561077357600080fd5b506102b0610782366004613238565b61124b565b34801561079357600080fd5b5061043a61140b565b6102b0611415565b6102b061141e565b3480156107b857600080fd5b506103006107c736600461326a565b611459565b6102b061146c565b3480156107e057600080fd5b506103006107ef366004613046565b611474565b34801561080057600080fd5b506102b061080f366004612f96565b61147f565b34610832576040516395b66fe960e01b815260040160405180910390fd5b61084d3461083e6114fa565b61084891906132b3565b61152e565b610858338234611561565b6040513481526001600160a01b0382169033907f3bc57f469ad6d10d7723ea226cd22bd2b9e527def2b529f6ab44645a166895829060200160405180910390a350565b6108a36116fb565b6001600160a01b0316336001600160a01b0316146108df573360405163472511eb60e11b81526004016108d6919061305f565b60405180910390fd5b6108e881611705565b6040516001600160a01b038216907f67b26a33f305cc027b2d45b2f6f418793afcd3e22f7376afa7be068ce18604e890600090a250565b60006109296114fa565b905090565b600061093b33848461173c565b50600192915050565b61094c6117ab565b6001600160a01b0316336001600160a01b03161461097f573360405163472511eb60e11b81526004016108d6919061305f565b61098f61098a6117ab565b6117b5565b61099960006117fe565b565b600061092961183e565b6109ad6116fb565b6001600160a01b0316336001600160a01b0316146109e0573360405163472511eb60e11b81526004016108d6919061305f565b6109e98161186e565b6040516001600160a01b038216907f1da4c245099590dc40be61880c9b97792f3694d970acc1e67ac0e6cc90f3780d90600090a250565b610a286118a5565b6001600160a01b0316336001600160a01b031614610a5b573360405163472511eb60e11b81526004016108d6919061305f565b6000610a656114fa565b90506000610a85610a7f6801bc16d674ec800000846132cb565b846118af565b905080610aa557604051631036b5ad60e31b815260040160405180910390fd5b600080610ab1836118c4565b8151919350915080610ad65760405163200149ad60e21b815260040160405180910390fd5b83811115610af757604051635993bd5760e01b815260040160405180910390fd5b8151818114610b19576040516322e5ce4360e21b815260040160405180910390fd5b6000610b2361194c565b905080610b4357604051639be7315960e01b815260040160405180910390fd5b60005b83811015610b9357610b8b868281518110610b6357610b636132ed565b6020026020010151868381518110610b7d57610b7d6132ed565b60200260200101518461197c565b600101610b46565b50610bb4610baa846801bc16d674ec800000613303565b6108489089613322565b610bcf83610bc0611e04565b610bca91906132b3565b611e34565b5050505050505050565b6000610929611e62565b610beb6116fb565b6001600160a01b0316336001600160a01b031614610c1e573360405163472511eb60e11b81526004016108d6919061305f565b610c27816117fe565b50565b6000610929611edc565b6000610929611f0c565b6000610929611f16565b60008383610c568282611f46565b8380610c75576040516336b216db60e21b815260040160405180910390fd5b868580610c8183612072565b1015610ca0576040516351940b3960e11b815260040160405180910390fd5b6001600160a01b038816610cd957604051637617407560e11b81526001600160a01b038a166004820152600060248201526044016108d6565b610ce3898861207d565b610cee8989896120e3565b9998505050505050505050565b6000610d05612171565b8114610d365780610d14612171565b604051631cfd276760e31b8152600481019290925260248201526044016108d6565b610d49610d448260016132b3565b6121a1565b610d52866117b5565b610d5b836121cf565b6040516001600160a01b038416907f0cc5437d7c9c1d9eab549acbb533eea3e9868e9443dd75309ed5820b33a3774e90600090a2610d9882612206565b6040518281527fbd533e726baaf59b36f3914d950053f7e78f527057c97cd3f0043257fc0fc8849060200160405180910390a1610dd48961186e565b6040516001600160a01b038a16907f1da4c245099590dc40be61880c9b97792f3694d970acc1e67ac0e6cc90f3780d90600090a2610e118561223d565b6040516001600160a01b038616907f30f015a5d3c72c0a9414538199baa022323a483fa9e4ba2cd581596cf8ca042490600090a2610e4e84612274565b6040516001600160a01b038516907fffc0721ef0563a1b0a51a0dc92113025f33ca434ada9ee3eebff2f385d2a8f9a90600090a2610e8c8a896122ab565b610e958761110c565b7f1809e49bba43f2d39fa57894b50cd6ccb428cc438230e065cac3eb24a1355a7181600036604051610ec993929190613339565b60405180910390a150505050505050505050565b610ee56116fb565b6001600160a01b0316336001600160a01b031614610f18573360405163472511eb60e11b81526004016108d6919061305f565b610f2181612206565b6040518181527fbd533e726baaf59b36f3914d950053f7e78f527057c97cd3f0043257fc0fc884906020015b60405180910390a150565b6000610929612327565b600061093b338484610f743388612357565b610f7e91906132b3565b61173c565b6000610f96610f91836123af565b6123fd565b92915050565b6000610929612435565b6000610929612465565b600061092961194c565b610fc26116fb565b6001600160a01b0316336001600160a01b031614610ff5573360405163472511eb60e11b81526004016108d6919061305f565b610ffe8161223d565b6040516001600160a01b038216907f30f015a5d3c72c0a9414538199baa022323a483fa9e4ba2cd581596cf8ca042490600090a250565b60006109296116fb565b6000610f9682612072565b6110526116fb565b6001600160a01b0316336001600160a01b031614611085573360405163472511eb60e11b81526004016108d6919061305f565b61108e81612495565b611097816124b4565b7f8d2df192dd17edf92a7964b78aa322f3d717b2ab9de00651bee32bbc4c5da63a81604051610f4d9190613009565b6000610f96826124fe565b6110d96118a5565b6001600160a01b0316336001600160a01b03161461110c573360405163472511eb60e11b81526004016108d6919061305f565b6111158161252b565b6040516001600160a01b038216907fd3b5d1e0ffaeff528910f3663f0adace7694ab8241d58e17a91351ced2e0803190600090a250565b6000610929612562565b6060610929612592565b6000610929611e04565b6000610929612658565b600061093b3384846111863388612357565b610f7e9190613322565b6000338361119e8282611f46565b83806111bd576040516336b216db60e21b815260040160405180910390fd5b3385806111c983612072565b10156111e8576040516351940b3960e11b815260040160405180910390fd5b6001600160a01b03881661121857604051637617407560e11b8152336004820152600060248201526044016108d6565b6112233389896120e3565b98975050505050505050565b61123881612688565b610c2781610814565b60006109296126af565b611253612562565b6001600160a01b0316336001600160a01b031614611286573360405163472511eb60e11b81526004016108d6919061305f565b61128e611e04565b8411156112c0578361129e611e04565b6040516376179ac560e01b8152600481019290925260248201526044016108d6565b60006112ca61183e565b6112d49086613322565b905060006112eb826801bc16d674ec800000613303565b6112f3612435565b6112fd91906132b3565b9050611308856126df565b6113118661270d565b61131a8461273b565b60008561132783866132b3565b111561134d5761134a8661133b84876132b3565b6113459190613322565b612769565b90505b858161135984876132b3565b6113639190613322565b111561139357611391868261137885886132b3565b6113829190613322565b61138c9190613322565b612832565b505b61139d81876132b3565b8210156113c1576113c1826113b283896132b3565b6113bc9190613322565b612904565b60408051888152602081018890529081018690527f25d7358447891786a139ae7149548f3232a8c95f2ea6065c69c5bd7c39cd386c9060600160405180910390a150505050505050565b60006109296117ab565b61099933610814565b611426611edc565b6001600160a01b0316336001600160a01b031614610999573360405163472511eb60e11b81526004016108d6919061305f565b60006114658383612357565b9392505050565b611426612327565b6000610f96826123fd565b6114876116fb565b6001600160a01b0316336001600160a01b0316146114ba573360405163472511eb60e11b81526004016108d6919061305f565b6114c3816121cf565b6040516001600160a01b038216907f0cc5437d7c9c1d9eab549acbb533eea3e9868e9443dd75309ed5820b33a3774e90600090a250565b600061092961152a60017f2b6136e423ab70d76431e2a635e877e16ea2dd9a895e054ad7f35f89d6c7b711613322565b5490565b610c2761155c60017f2b6136e423ab70d76431e2a635e877e16ea2dd9a895e054ad7f35f89d6c7b711613322565b829055565b600061156d8483612a36565b905060006115796126af565b9050836001600160a01b0316856001600160a01b031614156115fa57604051632d20488160e11b81526001600160a01b03868116600483015260016024830152821690635a4091029060440160006040518083038186803b1580156115dd57600080fd5b505afa1580156115f1573d6000803e3d6000fd5b505050506116f4565b604051632d20488160e11b81526001600160a01b03868116600483015260016024830152821690635a4091029060440160006040518083038186803b15801561164257600080fd5b505afa158015611656573d6000803e3d6000fd5b505060405163e838dfbb60e01b81526001600160a01b038416925063e838dfbb915061168690879060040161305f565b602060405180830381865afa1580156116a3573d6000803e3d6000fd5b505050506040513d601f19601f820116820180604052508101906116c7919061336f565b156116e7578360405163e7d05e2760e01b81526004016108d6919061305f565b6116f28585846120e3565b505b5050505050565b6000610929612a95565b61170e81612688565b610c2761155c60017ff4271262f3552a4108cde54dc75061de8de495709221d793b126e448522d6a80613322565b61174583612688565b61174e82612688565b611759838383612ac5565b816001600160a01b0316836001600160a01b03167f8c5be1e5ebec7d5bd14f71427d1e84f3dd0314c0f7b2291e5b200ac8c7c3b9258360405161179e91815260200190565b60405180910390a3505050565b6000610929612b1c565b6117be81612688565b6117c781612b4c565b6040516001600160a01b038216907f5a272403b402d892977df56625f4164ccaf70ca3863991c43ecfe76a6905b0a190600090a250565b61180781612b55565b6040516001600160a01b038216907f2a0f8515de3fa34ef68b99300347b8793c01683350743e96fe440594528298f490600090a250565b600061092961152a60017f0f1e7733641e4d843128fea0d2ec90d3d06a40b0fe244ff603d8c1aa200dc0f9613322565b61187781612688565b610c2761155c60017f8e9e2a1d30fed357d8a000c1131fc77ed65d2052918caf1ccc6eb1e7af3d13b6613322565b6000610929611035565b60008183116118be5782611465565b50919050565b6060806118cf612658565b6001600160a01b031663a1947323846040518263ffffffff1660e01b81526004016118fc91815260200190565b6000604051808303816000875af115801561191b573d6000803e3d6000fd5b505050506040513d6000823e601f3d908101601f191682016040526119439190810190613460565b91509150915091565b600061092961152a60017fb649e50315f962b32d487e696a81b4828631b11f8424daaaa37e9e97766a2c42613322565b603083511461199e5760405163050cb55360e41b815260040160405180910390fd5b60608251146119c05760405163408ebd3960e01b815260040160405180910390fd5b6801bc16d674ec80000060006119da633b9aca00836132cb565b90506000600286600060801b6040516020016119f79291906134c4565b60408051601f1981840301815290829052611a11916134f3565b602060405180830381855afa158015611a2e573d6000803e3d6000fd5b5050506040513d601f19601f82011682018060405250810190611a51919061350f565b90506000600280611a658860006040612b5e565b604051611a7291906134f3565b602060405180830381855afa158015611a8f573d6000803e3d6000fd5b5050506040513d601f19601f82011682018060405250810190611ab2919061350f565b6002611aca896040611ac5816060613322565b612b5e565b604051611add9190600090602001613528565b60408051601f1981840301815290829052611af7916134f3565b602060405180830381855afa158015611b14573d6000803e3d6000fd5b5050506040513d601f19601f82011682018060405250810190611b37919061350f565b60408051602081019390935282015260600160408051601f1981840301815290829052611b63916134f3565b602060405180830381855afa158015611b80573d6000803e3d6000fd5b5050506040513d601f19601f82011682018060405250810190611ba3919061350f565b905060006002808488604051602001611bc6929190918252602082015260400190565b60408051601f1981840301815290829052611be0916134f3565b602060405180830381855afa158015611bfd573d6000803e3d6000fd5b5050506040513d601f19601f82011682018060405250810190611c20919061350f565b6002611c2b87612c21565b604080516020810192909252810186905260600160408051601f1981840301815290829052611c59916134f3565b602060405180830381855afa158015611c76573d6000803e3d6000fd5b5050506040513d601f19601f82011682018060405250810190611c99919061350f565b60408051602081019390935282015260600160408051601f1981840301815290829052611cc5916134f3565b602060405180830381855afa158015611ce2573d6000803e3d6000fd5b5050506040513d601f19601f82011682018060405250810190611d05919061350f565b90506000611d138647613322565b9050611d1d612c8e565b6001600160a01b03166322895118878b8a604051602001611d4091815260200190565b6040516020818303038152906040528c876040518663ffffffff1660e01b8152600401611d70949392919061354a565b6000604051808303818588803b158015611d8957600080fd5b505af1158015611d9d573d6000803e3d6000fd5b5050505050804714611dc257604051638051a6bb60e01b815260040160405180910390fd5b7f11553d182c6d24df901ccbb837d640c1ee9994876a88dccc8ddfd7ebab9b6ce189604051611df19190613009565b60405180910390a1505050505050505050565b600061092961152a60017fc77078e3530c08cdb2440817c81de4836500b4708ea4d15672b7fe98956423a8613322565b610c2761155c60017fc77078e3530c08cdb2440817c81de4836500b4708ea4d15672b7fe98956423a8613322565b600080611e6d61183e565b90506000611e79611e04565b905080821015611ecc576801bc16d674ec800000611e978383613322565b611ea19190613303565b611ea96114fa565b611eb1612435565b611ebb91906132b3565b611ec591906132b3565b9250505090565b611ed46114fa565b611ebb612435565b600061092961152a60017ff4271262f3552a4108cde54dc75061de8de495709221d793b126e448522d6a80613322565b6000610929612cbe565b600061092961152a60017f094efef62d2ce60c14ffacd35a1b50546d3a9d503aff1df040176fffd6c92a37613322565b6000611f506126af565b60405163e838dfbb60e01b81529091506001600160a01b0382169063e838dfbb90611f7f90869060040161305f565b602060405180830381865afa158015611f9c573d6000803e3d6000fd5b505050506040513d601f19601f82011682018060405250810190611fc0919061336f565b15611fe0578260405163e7d05e2760e01b81526004016108d6919061305f565b60405163e838dfbb60e01b81526001600160a01b0382169063e838dfbb9061200c90859060040161305f565b602060405180830381865afa158015612029573d6000803e3d6000fd5b505050506040513d601f19601f8201168201806040525081019061204d919061336f565b1561206d578160405163e7d05e2760e01b81526004016108d6919061305f565b505050565b6000610f96826123af565b60006120898333612357565b9050818110156120cb57604051637b936de360e01b81526001600160a01b038416600482015233602482015260448101829052606481018390526084016108d6565b600019811461206d5761206d8333610f7e8585613322565b600061210284836120f3876123af565b6120fd9190613322565b612cee565b61211a8383612110866123af565b6120fd91906132b3565b826001600160a01b0316846001600160a01b03167fddf252ad1be2c89b69c2b068fc378daa952ba7f163c4a11628f55a4df523b3ef8460405161215f91815260200190565b60405180910390a35060019392505050565b600061092961152a60017f82055909238c0f5e63d6f174068ebb8f51bcec9bd37de63bb68f6551feec0cfd613322565b610c2761155c60017f82055909238c0f5e63d6f174068ebb8f51bcec9bd37de63bb68f6551feec0cfd613322565b6121d881612688565b610c2761155c60017f082b6d18de7b10e438e6b1002141db737519cb4ceed679bc815e3aac00cd2227613322565b61220f81612d3a565b610c2761155c60017f094efef62d2ce60c14ffacd35a1b50546d3a9d503aff1df040176fffd6c92a37613322565b61224681612688565b610c2761155c60017f867d8f1a5e39d11d5bebde854d5359a509530ad32450f581da63c06ec8d1a780613322565b61227d81612688565b610c2761155c60017f3f075dea7ef99b1e5db245018e5e4ed8d2a0d93953f5932b2176bef59bd69061613322565b6122b482612d5d565b6040516001600160a01b038316907e043cf7635f276413ae358250286a479a631abd9d74d57d4aa0bb87ebc7d11790600090a26122f081612d94565b6040518181527f4c86ba184ea1a1558f84835ca34f6d67e222e8ee5cc4f324b8861dda4cf1740c9060200160405180910390a15050565b600061092961152a60017f8e9e2a1d30fed357d8a000c1131fc77ed65d2052918caf1ccc6eb1e7af3d13b6613322565b60008061238560017fc852254d5b703a16bb13b3e233a335d6459c5da5db0ca732d7a684ee05407847613322565b6001600160a01b039485166000908152602091825260408082209590961681529390525050205490565b6000806123dd60017f0fb4a5ac9287f4f508aa7253ee2d57c6a228b1b30e210d73fffd59389d3a8838613322565b6001600160a01b0390931660009081526020939093525050604090205490565b600080612408612cbe565b9050806124185750600092915050565b80612421611e62565b61242b9085613303565b61146591906132cb565b600061092961152a60017ffedfd2c285a57fb23bf45a3fe9ac02d36a76ebb72801b1c8aaf553d74e9d4653613322565b600061092961152a60017f082b6d18de7b10e438e6b1002141db737519cb4ceed679bc815e3aac00cd2227613322565b8051610c2757604051638d46fe0560e01b815260040160405180910390fd5b60006124e160017fb63f3482ec84cb93d74a71645ad2e9e896fa02723e42170b4aad20a4bed6cdd6613322565b825190915081906124f89082906020860190612ee1565b50505050565b600080612509612cbe565b9050806125195750600092915050565b612521611e62565b61242b8285613303565b61253481612688565b610c2761155c60017fc8cbea9407c380ae944f052b5a442330057683c5abdbd453493f9750806afecb613322565b600061092961152a60017fc8cbea9407c380ae944f052b5a442330057683c5abdbd453493f9750806afecb613322565b606060006125c160017fb63f3482ec84cb93d74a71645ad2e9e896fa02723e42170b4aad20a4bed6cdd6613322565b8054909150819081906125d390613595565b80601f01602080910402602001604051908101604052809291908181526020018280546125ff90613595565b801561264c5780601f106126215761010080835404028352916020019161264c565b820191906000526020600020905b81548152906001019060200180831161262f57829003601f168201915b50505050509250505090565b600061092961152a60017f3f075dea7ef99b1e5db245018e5e4ed8d2a0d93953f5932b2176bef59bd69061613322565b6001600160a01b038116610c275760405163f6b2911f60e01b815260040160405180910390fd5b600061092961152a60017f867d8f1a5e39d11d5bebde854d5359a509530ad32450f581da63c06ec8d1a780613322565b610c2761155c60017ffedfd2c285a57fb23bf45a3fe9ac02d36a76ebb72801b1c8aaf553d74e9d4653613322565b610c2761155c60017f0f1e7733641e4d843128fea0d2ec90d3d06a40b0fe244ff603d8c1aa200dc0f9613322565b610c2761155c60017fd7f2d45e512a86049f7a113657b39731b6b558609584243063a52cd31a8eb529613322565b600080612774612327565b60405163c8a6dfd360e01b81526004810185905290915047906001600160a01b0383169063c8a6dfd390602401600060405180830381600087803b1580156127bb57600080fd5b505af11580156127cf573d6000803e3d6000fd5b50505050600081476127e19190613322565b9050801561282a576127f58161083e6114fa565b6040518181527fda841d3042d792e2509a333b9dcbd4b3dd9b9047d382011f8788fab90ca7e3c7906020015b60405180910390a15b949350505050565b60008061283d611edc565b90506001600160a01b0381166128565750600092915050565b604051638ede6b6b60e01b81526004810184905247906001600160a01b03831690638ede6b6b90602401600060405180830381600087803b15801561289a57600080fd5b505af11580156128ae573d6000803e3d6000fd5b50505050600081476128c09190613322565b9050801561282a576128d48161083e6114fa565b6040518181527fd500b67e5bd8019c0af744cadeec120d1b5e3d3a3a011f18cf182aa4c97947b690602001612821565b600061290e611f0c565b90508061292e57604051630d35acd760e21b815260040160405180910390fd5b6000612938611e62565b90506000612944611f16565b90506000816129538587613303565b61295d9190613303565b9050600061296b8387613303565b61297761271086613303565b6129819190613322565b90506000811561299a5761299582846132cb565b61299d565b60005b90508015612a2d5760006129af612465565b90506129bb8183612de0565b60006129c5611f0c565b905060006129d38a89613322565b60408051828152602081018c90529081018a9052606081018490529091506001600160a01b038416907f3d1669e813a9845c288f0e1f642a4343a451103b87886d12de37e63b39bbd9429060800160405180910390a25050505b50505050505050565b60008082612a42611e62565b612a4c9190613322565b905080612a6557829150612a608484612de0565b612a8e565b80612a6e611f0c565b612a789085613303565b612a8291906132cb565b9150612a8e8483612de0565b5092915050565b600061092961152a60017fb5b37715a3e346e996104f0086703f19825def429233930fd9399c38e05fb113613322565b6000612af260017fc852254d5b703a16bb13b3e233a335d6459c5da5db0ca732d7a684ee05407847613322565b6001600160a01b039485166000908152602091825260408082209590961681529390525091902055565b600061092961152a60017f6e6ab8b7c7aaba79eef8cc633522d606bb008c101cf9832c9ad05d10a9847281613322565b610c2781612e4e565b610c2781612e85565b60608182601f011015612b84576040516323d5783d60e11b815260040160405180910390fd5b612b8e82846132b3565b84511015612baf57604051633b99b53d60e01b815260040160405180910390fd5b606082158015612bce5760405191506000825260208201604052612c18565b6040519150601f8416801560200281840101858101878315602002848b0101015b81831015612c07578051835260209283019201612bef565b5050858452601f01601f1916604052505b50949350505050565b603881901c60ff908116603083901c8216602884901c8316602085901c8416601886901c8516601087901c8616600888811c9790971688881b61ff001617871b17861b17851b17841b17831b1790911b17604082901c8015612c8557612c856135ca565b5060c01b919050565b600061092961152a60017f35efb61d8784060218d9d6aa40eae55904de43779c1afc79c74dfefcfdf91260613322565b600061092961152a60017f6b842b424335d94ccad97e54548dfa02673c1268aba38d3c3c32d28c8988b70b613322565b6000612d1b60017f0fb4a5ac9287f4f508aa7253ee2d57c6a228b1b30e210d73fffd59389d3a8838613322565b6001600160a01b03909316600090815260209390935250604090912055565b612710811115610c27576040516358d620b360e01b815260040160405180910390fd5b612d6681612688565b610c2761155c60017f35efb61d8784060218d9d6aa40eae55904de43779c1afc79c74dfefcfdf91260613322565b80612db25760405163a9cb9e0d60e01b815260040160405180910390fd5b610c2761155c60017fb649e50315f962b32d487e696a81b4828631b11f8424daaaa37e9e97766a2c42613322565b612dfb81612dec612cbe565b612df691906132b3565b612eb3565b612e098282612110856123af565b6040518181526001600160a01b038316906000907fddf252ad1be2c89b69c2b068fc378daa952ba7f163c4a11628f55a4df523b3ef9060200160405180910390a35050565b612e5781612688565b610c2761155c60017fb5b37715a3e346e996104f0086703f19825def429233930fd9399c38e05fb113613322565b610c2761155c60017f6e6ab8b7c7aaba79eef8cc633522d606bb008c101cf9832c9ad05d10a9847281613322565b610c2761155c60017f6b842b424335d94ccad97e54548dfa02673c1268aba38d3c3c32d28c8988b70b613322565b828054612eed90613595565b90600052602060002090601f016020900481019282612f0f5760008555612f55565b82601f10612f2857805160ff1916838001178555612f55565b82800160010185558215612f55579182015b82811115612f55578251825591602001919060010190612f3a565b50612f61929150612f65565b5090565b5b80821115612f615760008155600101612f66565b80356001600160a01b0381168114612f9157600080fd5b919050565b600060208284031215612fa857600080fd5b61146582612f7a565b60005b83811015612fcc578181015183820152602001612fb4565b838111156124f85750506000910152565b60008151808452612ff5816020860160208601612fb1565b601f01601f19169290920160200192915050565b6020815260006114656020830184612fdd565b6000806040838503121561302f57600080fd5b61303883612f7a565b946020939093013593505050565b60006020828403121561305857600080fd5b5035919050565b6001600160a01b0391909116815260200190565b60008060006060848603121561308857600080fd5b61309184612f7a565b925061309f60208501612f7a565b9150604084013590509250925092565b60008060008060008060008060006101208a8c0312156130ce57600080fd5b6130d78a612f7a565b98506130e560208b01612f7a565b975060408a013596506130fa60608b01612f7a565b955061310860808b01612f7a565b945061311660a08b01612f7a565b935061312460c08b01612f7a565b925061313260e08b01612f7a565b91506101008a013590509295985092959850929598565b634e487b7160e01b600052604160045260246000fd5b604051601f8201601f1916810167ffffffffffffffff8111828210171561318857613188613149565b604052919050565b600067ffffffffffffffff8211156131aa576131aa613149565b50601f01601f191660200190565b6000602082840312156131ca57600080fd5b813567ffffffffffffffff8111156131e157600080fd5b8201601f810184136131f257600080fd5b803561320561320082613190565b61315f565b81815285602083850101111561321a57600080fd5b81602084016020830137600091810160200191909152949350505050565b6000806000806080858703121561324e57600080fd5b5050823594602084013594506040840135936060013592509050565b6000806040838503121561327d57600080fd5b61328683612f7a565b915061329460208401612f7a565b90509250929050565b634e487b7160e01b600052601160045260246000fd5b600082198211156132c6576132c661329d565b500190565b6000826132e857634e487b7160e01b600052601260045260246000fd5b500490565b634e487b7160e01b600052603260045260246000fd5b600081600019048311821515161561331d5761331d61329d565b500290565b6000828210156133345761333461329d565b500390565b83815260406020820152816040820152818360608301376000818301606090810191909152601f909201601f1916010192915050565b60006020828403121561338157600080fd5b8151801515811461146557600080fd5b600082601f8301126133a257600080fd5b8151602067ffffffffffffffff808311156133bf576133bf613149565b8260051b6133ce83820161315f565b93845285810183019383810190888611156133e857600080fd5b84880192505b85831015611223578251848111156134065760008081fd5b8801603f81018a136134185760008081fd5b85810151604061342a61320083613190565b8281528c8284860101111561343f5760008081fd5b61344e838a8301848701612fb1565b855250505091840191908401906133ee565b6000806040838503121561347357600080fd5b825167ffffffffffffffff8082111561348b57600080fd5b61349786838701613391565b935060208501519150808211156134ad57600080fd5b506134ba85828601613391565b9150509250929050565b600083516134d6818460208801612fb1565b6001600160801b0319939093169190920190815260100192915050565b60008251613505818460208701612fb1565b9190910192915050565b60006020828403121561352157600080fd5b5051919050565b6000835161353a818460208801612fb1565b9190910191825250602001919050565b60808152600061355d6080830187612fdd565b828103602084015261356f8187612fdd565b905082810360408401526135838186612fdd565b91505082606083015295945050505050565b600181811c908216806135a957607f821691505b602082108114156118be57634e487b7160e01b600052602260045260246000fd5b634e487b7160e01b600052600160045260246000fdfea2646970667358221220970321c783abf715e67020d8e4b80f54819b7eacd341ba3f4ceafe86e46d3bd764736f6c634300080a0033"
        ],
        "devdoc": [
            {
                "author": "Kiln",
                "errors": {
                    "AllowanceTooLow(address,address,uint256,uint256)": [
                        {
                            "params": {
                                "_allowance": "Current allowance",
                                "_from": "Account where funds are sent from",
                                "_operator": "Account attempting the transfer",
                                "_value": "Requested transfer value in shares"
                            }
                        }
                    ],
                    "Denied(address)": [
                        {
                            "params": {
                                "account": "The account that was denied"
                            }
                        }
                    ],
                    "InvalidInitialization(uint256,uint256)": [
                        {
                            "params": {
                                "expectedVersion": "The version that was expected",
                                "version": "The version that was attempting to be initialized"
                            }
                        }
                    ],
                    "InvalidValidatorCountReport(uint256,uint256)": [
                        {
                            "params": {
                                "depositedValidatorCount": "The number of deposits performed by the system",
                                "providedValidatorCount": "The received validator count value"
                            }
                        }
                    ],
                    "Unauthorized(address)": [
                        {
                            "params": {
                                "caller": "Addres performing the call"
                            }
                        }
                    ],
                    "UnauthorizedTransfer(address,address)": [
                        {
                            "params": {
                                "_from": "Account sending the funds in the invalid transfer",
                                "_to": "Account receiving the funds in the invalid transfer"
                            }
                        }
                    ]
                },
                "kind": "dev",
                "methods": {
                    "acceptAdmin()": {
                        "details": "Only callable by the pending admin. Resets the pending admin if succesful."
                    },
                    "allowance(address,address)": {
                        "params": {
                            "_owner": "Address that issued the allowance",
                            "_spender": "Address that received the allowance"
                        },
                        "returns": {
                            "_0": "The allowance in shares for a given spender"
                        }
                    },
                    "approve(address,uint256)": {
                        "details": "An approved account can use transferFrom to transfer funds on behalf of the token owner",
                        "params": {
                            "_spender": "Address that is allowed to spend the tokens",
                            "_value": "The allowed amount in shares, will override previous value"
                        },
                        "returns": {
                            "_0": "True if success"
                        }
                    },
                    "balanceOf(address)": {
                        "params": {
                            "_owner": "Address to be checked"
                        },
                        "returns": {
                            "_0": "The balance of the account in shares"
                        }
                    },
                    "balanceOfUnderlying(address)": {
                        "params": {
                            "_owner": "Address to be checked"
                        },
                        "returns": {
                            "_0": "The underlying balance of the account"
                        }
                    },
                    "decimals()": {
                        "returns": {
                            "_0": "The decimal count"
                        }
                    },
                    "decreaseAllowance(address,uint256)": {
                        "params": {
                            "_spender": "Spender that receives the allowance",
                            "_subtractableValue": "Amount of shares to subtract"
                        },
                        "returns": {
                            "_0": "True if success"
                        }
                    },
                    "depositAndTransfer(address)": {
                        "params": {
                            "_recipient": "Address receiving the minted LsETH"
                        }
                    },
                    "depositToConsensusLayer(uint256)": {
                        "params": {
                            "_maxCount": "The maximum amount of validator keys to fund"
                        }
                    },
                    "getAdmin()": {
                        "returns": {
                            "_0": "The admin address"
                        }
                    },
                    "getAllowlist()": {
                        "returns": {
                            "_0": "The allowlist address"
                        }
                    },
                    "getBalanceToDeposit()": {
                        "returns": {
                            "_0": "The amount of pending ETH"
                        }
                    },
                    "getCLValidatorCount()": {
                        "returns": {
                            "_0": "The CL validator count"
                        }
                    },
                    "getCLValidatorTotalBalance()": {
                        "returns": {
                            "_0": "The CL Validator total balance"
                        }
                    },
                    "getCollector()": {
                        "returns": {
                            "_0": "The collector address"
                        }
                    },
                    "getDepositedValidatorCount()": {
                        "returns": {
                            "_0": "The deposited validator count"
                        }
                    },
                    "getELFeeRecipient()": {
                        "returns": {
                            "_0": "The execution layer fee recipient address"
                        }
                    },
                    "getGlobalFee()": {
                        "returns": {
                            "_0": "The global fee"
                        }
                    },
                    "getOperatorsRegistry()": {
                        "returns": {
                            "_0": "The operators registry address"
                        }
                    },
                    "getOracle()": {
                        "returns": {
                            "_0": "The oracle address"
                        }
                    },
                    "getPendingAdmin()": {
                        "returns": {
                            "_0": "The pending admin address"
                        }
                    },
                    "getWithdrawalCredentials()": {
                        "returns": {
                            "_0": "The withdrawal credentials"
                        }
                    },
                    "increaseAllowance(address,uint256)": {
                        "params": {
                            "_additionalValue": "Amount of shares to add",
                            "_spender": "Spender that receives the allowance"
                        },
                        "returns": {
                            "_0": "True if success"
                        }
                    },
                    "initRiverV1(address,address,bytes32,address,address,address,address,address,uint256)": {
                        "params": {
                            "_allowlistAddress": "Address of the allowlist contract",
                            "_collectorAddress": "Address receiving the the global fee on revenue",
                            "_depositContractAddress": "Address to make Consensus Layer deposits",
                            "_elFeeRecipientAddress": "Address that receives the execution layer fees",
                            "_globalFee": "Amount retained when the ETH balance increases and sent to the collector",
                            "_operatorRegistryAddress": "Address of the operator registry",
                            "_oracleAddress": "The address of the Oracle contract",
                            "_systemAdministratorAddress": "Administrator address",
                            "_withdrawalCredentials": "Credentials to use for every validator deposit"
                        }
                    },
                    "name()": {
                        "returns": {
                            "_0": "The token name"
                        }
                    },
                    "proposeAdmin(address)": {
                        "details": "This security prevents setting an invalid address as an admin. The pendingadmin has to claim its ownership of the contract, and prove that the newaddress is able to perform regular transactions.",
                        "params": {
                            "_newAdmin": "New admin address"
                        }
                    },
                    "setAllowlist(address)": {
                        "params": {
                            "_newAllowlist": "New address for the allowlist"
                        }
                    },
                    "setCollector(address)": {
                        "params": {
                            "_newCollector": "New address for the collector"
                        }
                    },
                    "setConsensusLayerData(uint256,uint256,bytes32,uint256)": {
                        "details": "Can only be called by the oracle addressThe round id is a blackbox value that should only be used to identify unique reportsWhen a report is performed, River computes the amount of fees that can be pulledfrom the execution layer fee recipient. This amount is capped by the max allowedincrease provided during the report.If the total asset balance increases (from the reported total balance and the pulled funds)we then compute the share that must be taken for the collector on the positive delta.The execution layer fees are taken into account here because they are the product ofnode operator's work, just like consensus layer fees, and both should be handled in thesame manner, as a single revenue stream for the users and the collector.",
                        "params": {
                            "_maxIncrease": "The maximum allowed increase in the total balance",
                            "_roundId": "An identifier for this update",
                            "_validatorCount": "The number of active validators on the consensus layer",
                            "_validatorTotalBalance": "The balance sum of the active validators on the consensus layer"
                        }
                    },
                    "setELFeeRecipient(address)": {
                        "params": {
                            "_newELFeeRecipient": "New address for the recipient"
                        }
                    },
                    "setGlobalFee(uint256)": {
                        "params": {
                            "newFee": "New fee value"
                        }
                    },
                    "setOracle(address)": {
                        "params": {
                            "_oracleAddress": "Address of the oracle"
                        }
                    },
                    "sharesFromUnderlyingBalance(uint256)": {
                        "params": {
                            "_underlyingAssetAmount": "Amount of underlying asset to convert"
                        },
                        "returns": {
                            "_0": "The amount of shares worth the underlying asset amopunt"
                        }
                    },
                    "symbol()": {
                        "returns": {
                            "_0": "The token symbol"
                        }
                    },
                    "totalSupply()": {
                        "returns": {
                            "_0": "The total supply in shares"
                        }
                    },
                    "totalUnderlyingSupply()": {
                        "returns": {
                            "_0": "The total underlying asset supply"
                        }
                    },
                    "transfer(address,uint256)": {
                        "params": {
                            "_to": "Address receiving the tokens",
                            "_value": "Amount of shares to be sent"
                        },
                        "returns": {
                            "_0": "True if success"
                        }
                    },
                    "transferFrom(address,address,uint256)": {
                        "params": {
                            "_from": "Address sending the tokens",
                            "_to": "Address receiving the tokens",
                            "_value": "Amount of shares to be sent"
                        },
                        "returns": {
                            "_0": "True if success"
                        }
                    },
                    "underlyingBalanceFromShares(uint256)": {
                        "params": {
                            "_shares": "Amount of shares to convert"
                        },
                        "returns": {
                            "_0": "The underlying asset balance represented by the shares"
                        }
                    }
                },
                "title": "River (v1)",
                "version": 1
            },
            {
                "author": "Kiln",
                "errors": {
                    "AllowanceTooLow(address,address,uint256,uint256)": [
                        {
                            "params": {
                                "_allowance": "Current allowance",
                                "_from": "Account where funds are sent from",
                                "_operator": "Account attempting the transfer",
                                "_value": "Requested transfer value in shares"
                            }
                        }
                    ],
                    "Denied(address)": [
                        {
                            "params": {
                                "account": "The account that was denied"
                            }
                        }
                    ],
                    "InvalidInitialization(uint256,uint256)": [
                        {
                            "params": {
                                "expectedVersion": "The version that was expected",
                                "version": "The version that was attempting to be initialized"
                            }
                        }
                    ],
                    "InvalidValidatorCountReport(uint256,uint256)": [
                        {
                            "params": {
                                "depositedValidatorCount": "The number of deposits performed by the system",
                                "providedValidatorCount": "The received validator count value"
                            }
                        }
                    ],
                    "Unauthorized(address)": [
                        {
                            "params": {
                                "caller": "Address performing the call"
                            }
                        }
                    ],
                    "UnauthorizedTransfer(address,address)": [
                        {
                            "params": {
                                "_from": "Account sending the funds in the invalid transfer",
                                "_to": "Account receiving the funds in the invalid transfer"
                            }
                        }
                    ]
                },
                "kind": "dev",
                "methods": {
                    "acceptAdmin()": {
                        "details": "Only callable by the pending admin. Resets the pending admin if succesful."
                    },
                    "allowance(address,address)": {
                        "params": {
                            "_owner": "Address that issued the allowance",
                            "_spender": "Address that received the allowance"
                        },
                        "returns": {
                            "_0": "The allowance in shares for a given spender"
                        }
                    },
                    "approve(address,uint256)": {
                        "details": "An approved account can use transferFrom to transfer funds on behalf of the token owner",
                        "params": {
                            "_spender": "Address that is allowed to spend the tokens",
                            "_value": "The allowed amount in shares, will override previous value"
                        },
                        "returns": {
                            "_0": "True if success"
                        }
                    },
                    "balanceOf(address)": {
                        "params": {
                            "_owner": "Address to be checked"
                        },
                        "returns": {
                            "_0": "The balance of the account in shares"
                        }
                    },
                    "balanceOfUnderlying(address)": {
                        "params": {
                            "_owner": "Address to be checked"
                        },
                        "returns": {
                            "_0": "The underlying balance of the account"
                        }
                    },
                    "decimals()": {
                        "returns": {
                            "_0": "The decimal count"
                        }
                    },
                    "decreaseAllowance(address,uint256)": {
                        "params": {
                            "_spender": "Spender that receives the allowance",
                            "_subtractableValue": "Amount of shares to subtract"
                        },
                        "returns": {
                            "_0": "True if success"
                        }
                    },
                    "depositAndTransfer(address)": {
                        "params": {
                            "_recipient": "Address receiving the minted LsETH"
                        }
                    },
                    "depositToConsensusLayer(uint256)": {
                        "params": {
                            "_maxCount": "The maximum amount of validator keys to fund"
                        }
                    },
                    "getAdmin()": {
                        "returns": {
                            "_0": "The admin address"
                        }
                    },
                    "getAllowlist()": {
                        "returns": {
                            "_0": "The allowlist address"
                        }
                    },
                    "getBalanceToDeposit()": {
                        "returns": {
                            "_0": "The amount of pending ETH"
                        }
                    },
                    "getCLValidatorCount()": {
                        "returns": {
                            "_0": "The CL validator count"
                        }
                    },
                    "getCLValidatorTotalBalance()": {
                        "returns": {
                            "_0": "The CL Validator total balance"
                        }
                    },
                    "getCollector()": {
                        "returns": {
                            "_0": "The collector address"
                        }
                    },
                    "getDepositedValidatorCount()": {
                        "returns": {
                            "_0": "The deposited validator count"
                        }
                    },
                    "getELFeeRecipient()": {
                        "returns": {
                            "_0": "The execution layer fee recipient address"
                        }
                    },
                    "getGlobalFee()": {
                        "returns": {
                            "_0": "The global fee"
                        }
                    },
                    "getOperatorsRegistry()": {
                        "returns": {
                            "_0": "The operators registry address"
                        }
                    },
                    "getOracle()": {
                        "returns": {
                            "_0": "The oracle address"
                        }
                    },
                    "getPendingAdmin()": {
                        "returns": {
                            "_0": "The pending admin address"
                        }
                    },
                    "getWithdrawalCredentials()": {
                        "returns": {
                            "_0": "The withdrawal credentials"
                        }
                    },
                    "increaseAllowance(address,uint256)": {
                        "params": {
                            "_additionalValue": "Amount of shares to add",
                            "_spender": "Spender that receives the allowance"
                        },
                        "returns": {
                            "_0": "True if success"
                        }
                    },
                    "initRiverV1(address,address,bytes32,address,address,address,address,address,uint256)": {
                        "params": {
                            "_allowlistAddress": "Address of the allowlist contract",
                            "_collectorAddress": "Address receiving the the global fee on revenue",
                            "_depositContractAddress": "Address to make Consensus Layer deposits",
                            "_elFeeRecipientAddress": "Address that receives the execution layer fees",
                            "_globalFee": "Amount retained when the ETH balance increases and sent to the collector",
                            "_operatorRegistryAddress": "Address of the operator registry",
                            "_oracleAddress": "The address of the Oracle contract",
                            "_systemAdministratorAddress": "Administrator address",
                            "_withdrawalCredentials": "Credentials to use for every validator deposit"
                        }
                    },
                    "name()": {
                        "returns": {
                            "_0": "The token name"
                        }
                    },
                    "proposeAdmin(address)": {
                        "details": "This security prevents setting an invalid address as an admin. The pendingadmin has to claim its ownership of the contract, and prove that the newaddress is able to perform regular transactions.",
                        "params": {
                            "_newAdmin": "New admin address"
                        }
                    },
                    "setAllowlist(address)": {
                        "params": {
                            "_newAllowlist": "New address for the allowlist"
                        }
                    },
                    "setCollector(address)": {
                        "params": {
                            "_newCollector": "New address for the collector"
                        }
                    },
                    "setConsensusLayerData(uint256,uint256,bytes32,uint256)": {
                        "details": "Can only be called by the oracle addressThe round id is a blackbox value that should only be used to identify unique reportsWhen a report is performed, River computes the amount of fees that can be pulledfrom the execution layer fee recipient. This amount is capped by the max allowedincrease provided during the report.If the total asset balance increases (from the reported total balance and the pulled funds)we then compute the share that must be taken for the collector on the positive delta.The execution layer fees are taken into account here because they are the product ofnode operator's work, just like consensus layer fees, and both should be handled in thesame manner, as a single revenue stream for the users and the collector.",
                        "params": {
                            "_maxIncrease": "The maximum allowed increase in the total balance",
                            "_roundId": "An identifier for this update",
                            "_validatorCount": "The number of active validators on the consensus layer",
                            "_validatorTotalBalance": "The balance sum of the active validators on the consensus layer"
                        }
                    },
                    "setELFeeRecipient(address)": {
                        "params": {
                            "_newELFeeRecipient": "New address for the recipient"
                        }
                    },
                    "setGlobalFee(uint256)": {
                        "params": {
                            "newFee": "New fee value"
                        }
                    },
                    "setOracle(address)": {
                        "params": {
                            "_oracleAddress": "Address of the oracle"
                        }
                    },
                    "sharesFromUnderlyingBalance(uint256)": {
                        "params": {
                            "_underlyingAssetAmount": "Amount of underlying asset to convert"
                        },
                        "returns": {
                            "_0": "The amount of shares worth the underlying asset amopunt"
                        }
                    },
                    "symbol()": {
                        "returns": {
                            "_0": "The token symbol"
                        }
                    },
                    "totalSupply()": {
                        "returns": {
                            "_0": "The total supply in shares"
                        }
                    },
                    "totalUnderlyingSupply()": {
                        "returns": {
                            "_0": "The total underlying asset supply"
                        }
                    },
                    "transfer(address,uint256)": {
                        "params": {
                            "_to": "Address receiving the tokens",
                            "_value": "Amount of shares to be sent"
                        },
                        "returns": {
                            "_0": "True if success"
                        }
                    },
                    "transferFrom(address,address,uint256)": {
                        "params": {
                            "_from": "Address sending the tokens",
                            "_to": "Address receiving the tokens",
                            "_value": "Amount of shares to be sent"
                        },
                        "returns": {
                            "_0": "True if success"
                        }
                    },
                    "underlyingBalanceFromShares(uint256)": {
                        "params": {
                            "_shares": "Amount of shares to convert"
                        },
                        "returns": {
                            "_0": "The underlying asset balance represented by the shares"
                        }
                    }
                },
                "title": "River (v1)",
                "version": 1
            },
            {
                "author": "Kiln",
                "errors": {
                    "AllowanceTooLow(address,address,uint256,uint256)": [
                        {
                            "params": {
                                "_allowance": "Current allowance",
                                "_from": "Account where funds are sent from",
                                "_operator": "Account attempting the transfer",
                                "_value": "Requested transfer value in shares"
                            }
                        }
                    ],
                    "Denied(address)": [
                        {
                            "params": {
                                "account": "The account that was denied"
                            }
                        }
                    ],
                    "InvalidInitialization(uint256,uint256)": [
                        {
                            "params": {
                                "expectedVersion": "The version that was expected",
                                "version": "The version that was attempting to be initialized"
                            }
                        }
                    ],
                    "InvalidValidatorCountReport(uint256,uint256)": [
                        {
                            "params": {
                                "depositedValidatorCount": "The number of deposits performed by the system",
                                "providedValidatorCount": "The received validator count value"
                            }
                        }
                    ],
                    "Unauthorized(address)": [
                        {
                            "params": {
                                "caller": "Address performing the call"
                            }
                        }
                    ],
                    "UnauthorizedTransfer(address,address)": [
                        {
                            "params": {
                                "_from": "Account sending the funds in the invalid transfer",
                                "_to": "Account receiving the funds in the invalid transfer"
                            }
                        }
                    ]
                },
                "kind": "dev",
                "methods": {
                    "acceptAdmin()": {
                        "details": "Only callable by the pending admin. Resets the pending admin if succesful."
                    },
                    "allowance(address,address)": {
                        "params": {
                            "_owner": "Address that issued the allowance",
                            "_spender": "Address that received the allowance"
                        },
                        "returns": {
                            "_0": "The allowance in shares for a given spender"
                        }
                    },
                    "approve(address,uint256)": {
                        "details": "An approved account can use transferFrom to transfer funds on behalf of the token owner",
                        "params": {
                            "_spender": "Address that is allowed to spend the tokens",
                            "_value": "The allowed amount in shares, will override previous value"
                        },
                        "returns": {
                            "_0": "True if success"
                        }
                    },
                    "balanceOf(address)": {
                        "params": {
                            "_owner": "Address to be checked"
                        },
                        "returns": {
                            "_0": "The balance of the account in shares"
                        }
                    },
                    "balanceOfUnderlying(address)": {
                        "params": {
                            "_owner": "Address to be checked"
                        },
                        "returns": {
                            "_0": "The underlying balance of the account"
                        }
                    },
                    "decimals()": {
                        "returns": {
                            "_0": "The decimal count"
                        }
                    },
                    "decreaseAllowance(address,uint256)": {
                        "params": {
                            "_spender": "Spender that receives the allowance",
                            "_subtractableValue": "Amount of shares to subtract"
                        },
                        "returns": {
                            "_0": "True if success"
                        }
                    },
                    "depositAndTransfer(address)": {
                        "params": {
                            "_recipient": "Address receiving the minted LsETH"
                        }
                    },
                    "depositToConsensusLayer(uint256)": {
                        "params": {
                            "_maxCount": "The maximum amount of validator keys to fund"
                        }
                    },
                    "getAdmin()": {
                        "returns": {
                            "_0": "The admin address"
                        }
                    },
                    "getAllowlist()": {
                        "returns": {
                            "_0": "The allowlist address"
                        }
                    },
                    "getBalanceToDeposit()": {
                        "returns": {
                            "_0": "The amount of pending ETH"
                        }
                    },
                    "getCLValidatorCount()": {
                        "returns": {
                            "_0": "The CL validator count"
                        }
                    },
                    "getCLValidatorTotalBalance()": {
                        "returns": {
                            "_0": "The CL Validator total balance"
                        }
                    },
                    "getCollector()": {
                        "returns": {
                            "_0": "The collector address"
                        }
                    },
                    "getCoverageFund()": {
                        "returns": {
                            "_0": "The coverage fund address"
                        }
                    },
                    "getDepositedValidatorCount()": {
                        "returns": {
                            "_0": "The deposited validator count"
                        }
                    },
                    "getELFeeRecipient()": {
                        "returns": {
                            "_0": "The execution layer fee recipient address"
                        }
                    },
                    "getGlobalFee()": {
                        "returns": {
                            "_0": "The global fee"
                        }
                    },
                    "getMetadataURI()": {
                        "returns": {
                            "_0": "The metadata uri string value"
                        }
                    },
                    "getOperatorsRegistry()": {
                        "returns": {
                            "_0": "The operators registry address"
                        }
                    },
                    "getOracle()": {
                        "returns": {
                            "_0": "The oracle address"
                        }
                    },
                    "getPendingAdmin()": {
                        "returns": {
                            "_0": "The pending admin address"
                        }
                    },
                    "getWithdrawalCredentials()": {
                        "returns": {
                            "_0": "The withdrawal credentials"
                        }
                    },
                    "increaseAllowance(address,uint256)": {
                        "params": {
                            "_additionalValue": "Amount of shares to add",
                            "_spender": "Spender that receives the allowance"
                        },
                        "returns": {
                            "_0": "True if success"
                        }
                    },
                    "initRiverV1(address,address,bytes32,address,address,address,address,address,uint256)": {
                        "params": {
                            "_allowlistAddress": "Address of the allowlist contract",
                            "_collectorAddress": "Address receiving the the global fee on revenue",
                            "_depositContractAddress": "Address to make Consensus Layer deposits",
                            "_elFeeRecipientAddress": "Address that receives the execution layer fees",
                            "_globalFee": "Amount retained when the ETH balance increases and sent to the collector",
                            "_operatorRegistryAddress": "Address of the operator registry",
                            "_oracleAddress": "The address of the Oracle contract",
                            "_systemAdministratorAddress": "Administrator address",
                            "_withdrawalCredentials": "Credentials to use for every validator deposit"
                        }
                    },
                    "name()": {
                        "returns": {
                            "_0": "The token name"
                        }
                    },
                    "proposeAdmin(address)": {
                        "details": "This security prevents setting an invalid address as an admin. The pendingadmin has to claim its ownership of the contract, and prove that the newaddress is able to perform regular transactions.",
                        "params": {
                            "_newAdmin": "New admin address"
                        }
                    },
                    "setAllowlist(address)": {
                        "params": {
                            "_newAllowlist": "New address for the allowlist"
                        }
                    },
                    "setCollector(address)": {
                        "params": {
                            "_newCollector": "New address for the collector"
                        }
                    },
                    "setConsensusLayerData(uint256,uint256,bytes32,uint256)": {
                        "details": "Can only be called by the oracle addressThe round id is a blackbox value that should only be used to identify unique reportsWhen a report is performed, River computes the amount of fees that can be pulledfrom the execution layer fee recipient. This amount is capped by the max allowedincrease provided during the report.If the total asset balance increases (from the reported total balance and the pulled funds)we then compute the share that must be taken for the collector on the positive delta.The execution layer fees are taken into account here because they are the product ofnode operator's work, just like consensus layer fees, and both should be handled in thesame manner, as a single revenue stream for the users and the collector.",
                        "params": {
                            "_maxIncrease": "The maximum allowed increase in the total balance",
                            "_roundId": "An identifier for this update",
                            "_validatorCount": "The number of active validators on the consensus layer",
                            "_validatorTotalBalance": "The balance sum of the active validators on the consensus layer"
                        }
                    },
                    "setCoverageFund(address)": {
                        "params": {
                            "_newCoverageFund": "New address for the fund"
                        }
                    },
                    "setELFeeRecipient(address)": {
                        "params": {
                            "_newELFeeRecipient": "New address for the recipient"
                        }
                    },
                    "setGlobalFee(uint256)": {
                        "params": {
                            "newFee": "New fee value"
                        }
                    },
                    "setMetadataURI(string)": {
                        "params": {
                            "_metadataURI": "The new metadata uri string value"
                        }
                    },
                    "setOracle(address)": {
                        "params": {
                            "_oracleAddress": "Address of the oracle"
                        }
                    },
                    "sharesFromUnderlyingBalance(uint256)": {
                        "params": {
                            "_underlyingAssetAmount": "Amount of underlying asset to convert"
                        },
                        "returns": {
                            "_0": "The amount of shares worth the underlying asset amopunt"
                        }
                    },
                    "symbol()": {
                        "returns": {
                            "_0": "The token symbol"
                        }
                    },
                    "totalSupply()": {
                        "returns": {
                            "_0": "The total supply in shares"
                        }
                    },
                    "totalUnderlyingSupply()": {
                        "returns": {
                            "_0": "The total underlying asset supply"
                        }
                    },
                    "transfer(address,uint256)": {
                        "params": {
                            "_to": "Address receiving the tokens",
                            "_value": "Amount of shares to be sent"
                        },
                        "returns": {
                            "_0": "True if success"
                        }
                    },
                    "transferFrom(address,address,uint256)": {
                        "params": {
                            "_from": "Address sending the tokens",
                            "_to": "Address receiving the tokens",
                            "_value": "Amount of shares to be sent"
                        },
                        "returns": {
                            "_0": "True if success"
                        }
                    },
                    "underlyingBalanceFromShares(uint256)": {
                        "params": {
                            "_shares": "Amount of shares to convert"
                        },
                        "returns": {
                            "_0": "The underlying asset balance represented by the shares"
                        }
                    }
                },
                "title": "River (v1)",
                "version": 1
            }
        ],
        "userdoc": [
            {
                "errors": {
                    "AllowanceTooLow(address,address,uint256,uint256)": [
                        {
                            "notice": "Allowance too low to perform operation"
                        }
                    ],
                    "BalanceTooLow()": [
                        {
                            "notice": "Balance too low to perform operation"
                        }
                    ],
                    "Denied(address)": [
                        {
                            "notice": "The access was denied"
                        }
                    ],
                    "EmptyDeposit()": [
                        {
                            "notice": "And empty deposit attempt was made"
                        }
                    ],
                    "ErrorOnDeposit()": [
                        {
                            "notice": "An error occured during the deposit"
                        }
                    ],
                    "InconsistentPublicKeys()": [
                        {
                            "notice": "The length of the BLS Public key is invalid during deposit"
                        }
                    ],
                    "InconsistentSignatures()": [
                        {
                            "notice": "The length of the BLS Signature is invalid during deposit"
                        }
                    ],
                    "InvalidArgument()": [
                        {
                            "notice": "The argument was invalid"
                        }
                    ],
                    "InvalidCall()": [
                        {
                            "notice": "The call was invalid"
                        }
                    ],
                    "InvalidFee()": [
                        {
                            "notice": "The fee is invalid"
                        }
                    ],
                    "InvalidInitialization(uint256,uint256)": [
                        {
                            "notice": "An error occured during the initialization"
                        }
                    ],
                    "InvalidPublicKeyCount()": [
                        {
                            "notice": "The received count of public keys to deposit is invalid"
                        }
                    ],
                    "InvalidSignatureCount()": [
                        {
                            "notice": "The received count of signatures to deposit is invalid"
                        }
                    ],
                    "InvalidValidatorCountReport(uint256,uint256)": [
                        {
                            "notice": "The reported validator count is invalid"
                        }
                    ],
                    "InvalidWithdrawalCredentials()": [
                        {
                            "notice": "The withdrawal credentials value is null"
                        }
                    ],
                    "InvalidZeroAddress()": [
                        {
                            "notice": "The address is zero"
                        }
                    ],
                    "NoAvailableValidatorKeys()": [
                        {
                            "notice": "The internal key retrieval returned no keys"
                        }
                    ],
                    "NotEnoughFunds()": [
                        {
                            "notice": "Not enough funds to deposit one validator"
                        }
                    ],
                    "NullTransfer()": [
                        {
                            "notice": "Invalid empty transfer"
                        }
                    ],
                    "SliceOutOfBounds()": [
                        {
                            "notice": "The slice is outside of the initial bytes bounds"
                        }
                    ],
                    "SliceOverflow()": [
                        {
                            "notice": "The length overflows an uint"
                        }
                    ],
                    "Unauthorized(address)": [
                        {
                            "notice": "The operator is unauthorized for the caller"
                        }
                    ],
                    "UnauthorizedTransfer(address,address)": [
                        {
                            "notice": "Invalid transfer recipients"
                        }
                    ],
                    "ZeroMintedShares()": [
                        {
                            "notice": "The computed amount of shares to mint is 0"
                        }
                    ]
                },
                "events": {
                    "ConsensusLayerDataUpdate(uint256,uint256,bytes32)": {
                        "notice": "The consensus layer data provided by the oracle has been updated"
                    },
                    "FundedValidatorKey(bytes)": {
                        "notice": "A validator key got funded on the deposit contract"
                    },
                    "Initialize(uint256,bytes)": {
                        "notice": "Emitted when the contract is properly initialized"
                    },
                    "PulledELFees(uint256)": {
                        "notice": "Funds have been pulled from the Execution Layer Fee Recipient"
                    },
                    "RewardsEarned(address,uint256,uint256,uint256,uint256)": {
                        "notice": "The system underlying supply increased. This is a snapshot of the balances for accounting purposes"
                    },
                    "SetAdmin(address)": {
                        "notice": "The admin address changed"
                    },
                    "SetAllowlist(address)": {
                        "notice": "The stored Allowlist has been changed"
                    },
                    "SetCollector(address)": {
                        "notice": "The stored Collector has been changed"
                    },
                    "SetDepositContractAddress(address)": {
                        "notice": "The stored deposit contract address changed"
                    },
                    "SetELFeeRecipient(address)": {
                        "notice": "The stored Execution Layer Fee Recipient has been changed"
                    },
                    "SetGlobalFee(uint256)": {
                        "notice": "The stored Global Fee has been changed"
                    },
                    "SetOperatorsRegistry(address)": {
                        "notice": "The stored Operators Registry has been changed"
                    },
                    "SetOracle(address)": {
                        "notice": "The stored oracle address changed"
                    },
                    "SetPendingAdmin(address)": {
                        "notice": "The pending admin address changed"
                    },
                    "SetWithdrawalCredentials(bytes32)": {
                        "notice": "The stored withdrawal credentials changed"
                    },
                    "UserDeposit(address,address,uint256)": {
                        "notice": "User deposited ETH in the system"
                    }
                },
                "kind": "user",
                "methods": {
                    "DEPOSIT_SIZE()": {
                        "notice": "Size of a deposit in ETH"
                    },
                    "PUBLIC_KEY_LENGTH()": {
                        "notice": "Size of a BLS Public key in bytes"
                    },
                    "SIGNATURE_LENGTH()": {
                        "notice": "Size of a BLS Signature in bytes"
                    },
                    "acceptAdmin()": {
                        "notice": "Accept the transfer of ownership"
                    },
                    "allowance(address,address)": {
                        "notice": "Retrieve the allowance value for a spender"
                    },
                    "approve(address,uint256)": {
                        "notice": "Approves an account for future spendings"
                    },
                    "balanceOf(address)": {
                        "notice": "Retrieve the balance of an account"
                    },
                    "balanceOfUnderlying(address)": {
                        "notice": "Retrieve the underlying asset balance of an account"
                    },
                    "decimals()": {
                        "notice": "Retrieve the decimal count"
                    },
                    "decreaseAllowance(address,uint256)": {
                        "notice": "Decrease allowance to another account"
                    },
                    "deposit()": {
                        "notice": "Explicit deposit method to mint on msg.sender"
                    },
                    "depositAndTransfer(address)": {
                        "notice": "Explicit deposit method to mint on msg.sender and transfer to _recipient"
                    },
                    "depositToConsensusLayer(uint256)": {
                        "notice": "Deposits current balance to the Consensus Layer by batches of 32 ETH"
                    },
                    "getAdmin()": {
                        "notice": "Retrieves the current admin address"
                    },
                    "getAllowlist()": {
                        "notice": "Retrieve the allowlist address"
                    },
                    "getBalanceToDeposit()": {
                        "notice": "Returns the amount of pending ETH"
                    },
                    "getCLValidatorCount()": {
                        "notice": "Get CL validator count (the amount of validator reported by the oracles)"
                    },
                    "getCLValidatorTotalBalance()": {
                        "notice": "Get CL validator total balance"
                    },
                    "getCollector()": {
                        "notice": "Retrieve the collector address"
                    },
                    "getDepositedValidatorCount()": {
                        "notice": "Get the deposited validator count (the count of deposits made by the contract)"
                    },
                    "getELFeeRecipient()": {
                        "notice": "Retrieve the execution layer fee recipient"
                    },
                    "getGlobalFee()": {
                        "notice": "Get the current global fee"
                    },
                    "getOperatorsRegistry()": {
                        "notice": "Retrieve the operators registry"
                    },
                    "getOracle()": {
                        "notice": "Get oracle address"
                    },
                    "getPendingAdmin()": {
                        "notice": "Retrieve the current pending admin address"
                    },
                    "getWithdrawalCredentials()": {
                        "notice": "Retrieve the withdrawal credentials"
                    },
                    "increaseAllowance(address,uint256)": {
                        "notice": "Increase allowance to another account"
                    },
                    "initRiverV1(address,address,bytes32,address,address,address,address,address,uint256)": {
                        "notice": "Initializes the River system"
                    },
                    "name()": {
                        "notice": "Retrieve the token name"
                    },
                    "proposeAdmin(address)": {
                        "notice": "Proposes a new address as admin"
                    },
                    "sendELFees()": {
                        "notice": "Input for execution layer fee earnings"
                    },
                    "setAllowlist(address)": {
                        "notice": "Changes the allowlist address"
                    },
                    "setCollector(address)": {
                        "notice": "Changes the collector address"
                    },
                    "setConsensusLayerData(uint256,uint256,bytes32,uint256)": {
                        "notice": "Sets the validator count and validator total balance sum reported by the oracle"
                    },
                    "setELFeeRecipient(address)": {
                        "notice": "Changes the execution layer fee recipient"
                    },
                    "setGlobalFee(uint256)": {
                        "notice": "Changes the global fee parameter"
                    },
                    "setOracle(address)": {
                        "notice": "Set the oracle address"
                    },
                    "sharesFromUnderlyingBalance(uint256)": {
                        "notice": "Retrieve the shares count from an underlying asset amount"
                    },
                    "symbol()": {
                        "notice": "Retrieve the token symbol"
                    },
                    "totalSupply()": {
                        "notice": "Retrieve the total token supply"
                    },
                    "totalUnderlyingSupply()": {
                        "notice": "Retrieve the total underlying asset supply"
                    },
                    "transfer(address,uint256)": {
                        "notice": "Performs a transfer from the message sender to the provided account"
                    },
                    "transferFrom(address,address,uint256)": {
                        "notice": "Performs a transfer between two recipients"
                    },
                    "underlyingBalanceFromShares(uint256)": {
                        "notice": "Retrieve the underlying asset balance from an amount of shares"
                    }
                },
                "notice": "This contract merges all the manager contracts and implements all the virtual methods stitching all components together@notice    +---------------------------------------------------------------------+|                                                                     ||                           Consensus Layer                           ||                                                                     || +-------------------+  +-------------------+  +-------------------+ || |                   |  |                   |  |                   | || |  EL Fee Recipient |  |      Oracle       |  |  Deposit Contract | || |                   |  |                   |  |                   | || +---------|---------+  +---------|---------+  +---------|---------+ |+---------------------------------------------------------------------+|         7            |            5         |+-----------------|    |    |-----------------+|    |6   ||    |    |+---------+          +----|----|----|----+            +---------+|         |          |                   |     2      |         ||Operator |          |       River       --------------  User   ||         |          |                   |            |         |+----|----+          +----|---------|----+            +---------+|                    |         ||             4      |         |       3|1     +-------------|         |--------------+|      |                                      ||      |                                      |+------|------|------------+           +-------------|------------+|                          |           |                          ||    Operators Registry    |           |         Allowlist        ||                          |           |                          |+--------------------------+           +--------------------------+@notice      1. Operators are adding BLS Public Keys of validators running in theirinfrastructure.2. User deposit ETH to the system and get shares minted in exchange3. Upon deposit, the system verifies if the User is allowed to depositby querying the Allowlist4. When the system has enough funds to deposit validators, keys are pulledfrom the Operators Registry5. The deposit data is computed and the validators are funded via the officialdeposit contract6. Oracles report the total balance of the running validators and the total countof running validators7. The running validators propose blocks that reward the EL Fee Recipient. The fundsare pulled back in the system.",
                "version": 1
            },
            {
                "errors": {
                    "AllowanceTooLow(address,address,uint256,uint256)": [
                        {
                            "notice": "Allowance too low to perform operation"
                        }
                    ],
                    "BalanceTooLow()": [
                        {
                            "notice": "Balance too low to perform operation"
                        }
                    ],
                    "Denied(address)": [
                        {
                            "notice": "The access was denied"
                        }
                    ],
                    "EmptyDeposit()": [
                        {
                            "notice": "And empty deposit attempt was made"
                        }
                    ],
                    "ErrorOnDeposit()": [
                        {
                            "notice": "An error occured during the deposit"
                        }
                    ],
                    "InconsistentPublicKeys()": [
                        {
                            "notice": "The length of the BLS Public key is invalid during deposit"
                        }
                    ],
                    "InconsistentSignatures()": [
                        {
                            "notice": "The length of the BLS Signature is invalid during deposit"
                        }
                    ],
                    "InvalidArgument()": [
                        {
                            "notice": "The argument was invalid"
                        }
                    ],
                    "InvalidCall()": [
                        {
                            "notice": "The call was invalid"
                        }
                    ],
                    "InvalidFee()": [
                        {
                            "notice": "The fee is invalid"
                        }
                    ],
                    "InvalidInitialization(uint256,uint256)": [
                        {
                            "notice": "An error occured during the initialization"
                        }
                    ],
                    "InvalidPublicKeyCount()": [
                        {
                            "notice": "The received count of public keys to deposit is invalid"
                        }
                    ],
                    "InvalidSignatureCount()": [
                        {
                            "notice": "The received count of signatures to deposit is invalid"
                        }
                    ],
                    "InvalidValidatorCountReport(uint256,uint256)": [
                        {
                            "notice": "The reported validator count is invalid"
                        }
                    ],
                    "InvalidWithdrawalCredentials()": [
                        {
                            "notice": "The withdrawal credentials value is null"
                        }
                    ],
                    "InvalidZeroAddress()": [
                        {
                            "notice": "The address is zero"
                        }
                    ],
                    "NoAvailableValidatorKeys()": [
                        {
                            "notice": "The internal key retrieval returned no keys"
                        }
                    ],
                    "NotEnoughFunds()": [
                        {
                            "notice": "Not enough funds to deposit one validator"
                        }
                    ],
                    "NullTransfer()": [
                        {
                            "notice": "Invalid empty transfer"
                        }
                    ],
                    "SliceOutOfBounds()": [
                        {
                            "notice": "The slice is outside of the initial bytes bounds"
                        }
                    ],
                    "SliceOverflow()": [
                        {
                            "notice": "The length overflows an uint"
                        }
                    ],
                    "Unauthorized(address)": [
                        {
                            "notice": "The operator is unauthorized for the caller"
                        }
                    ],
                    "UnauthorizedTransfer(address,address)": [
                        {
                            "notice": "Invalid transfer recipients"
                        }
                    ],
                    "ZeroMintedShares()": [
                        {
                            "notice": "The computed amount of shares to mint is 0"
                        }
                    ]
                },
                "events": {
                    "ConsensusLayerDataUpdate(uint256,uint256,bytes32)": {
                        "notice": "The consensus layer data provided by the oracle has been updated"
                    },
                    "FundedValidatorKey(bytes)": {
                        "notice": "A validator key got funded on the deposit contract"
                    },
                    "Initialize(uint256,bytes)": {
                        "notice": "Emitted when the contract is properly initialized"
                    },
                    "PulledELFees(uint256)": {
                        "notice": "Funds have been pulled from the Execution Layer Fee Recipient"
                    },
                    "RewardsEarned(address,uint256,uint256,uint256,uint256)": {
                        "notice": "The system underlying supply increased. This is a snapshot of the balances for accounting purposes"
                    },
                    "SetAdmin(address)": {
                        "notice": "The admin address changed"
                    },
                    "SetAllowlist(address)": {
                        "notice": "The stored Allowlist has been changed"
                    },
                    "SetCollector(address)": {
                        "notice": "The stored Collector has been changed"
                    },
                    "SetDepositContractAddress(address)": {
                        "notice": "The stored deposit contract address changed"
                    },
                    "SetELFeeRecipient(address)": {
                        "notice": "The stored Execution Layer Fee Recipient has been changed"
                    },
                    "SetGlobalFee(uint256)": {
                        "notice": "The stored Global Fee has been changed"
                    },
                    "SetOperatorsRegistry(address)": {
                        "notice": "The stored Operators Registry has been changed"
                    },
                    "SetOracle(address)": {
                        "notice": "The stored oracle address changed"
                    },
                    "SetPendingAdmin(address)": {
                        "notice": "The pending admin address changed"
                    },
                    "SetWithdrawalCredentials(bytes32)": {
                        "notice": "The stored withdrawal credentials changed"
                    },
                    "UserDeposit(address,address,uint256)": {
                        "notice": "User deposited ETH in the system"
                    }
                },
                "kind": "user",
                "methods": {
                    "DEPOSIT_SIZE()": {
                        "notice": "Size of a deposit in ETH"
                    },
                    "PUBLIC_KEY_LENGTH()": {
                        "notice": "Size of a BLS Public key in bytes"
                    },
                    "SIGNATURE_LENGTH()": {
                        "notice": "Size of a BLS Signature in bytes"
                    },
                    "acceptAdmin()": {
                        "notice": "Accept the transfer of ownership"
                    },
                    "allowance(address,address)": {
                        "notice": "Retrieve the allowance value for a spender"
                    },
                    "approve(address,uint256)": {
                        "notice": "Approves an account for future spendings"
                    },
                    "balanceOf(address)": {
                        "notice": "Retrieve the balance of an account"
                    },
                    "balanceOfUnderlying(address)": {
                        "notice": "Retrieve the underlying asset balance of an account"
                    },
                    "decimals()": {
                        "notice": "Retrieve the decimal count"
                    },
                    "decreaseAllowance(address,uint256)": {
                        "notice": "Decrease allowance to another account"
                    },
                    "deposit()": {
                        "notice": "Explicit deposit method to mint on msg.sender"
                    },
                    "depositAndTransfer(address)": {
                        "notice": "Explicit deposit method to mint on msg.sender and transfer to _recipient"
                    },
                    "depositToConsensusLayer(uint256)": {
                        "notice": "Deposits current balance to the Consensus Layer by batches of 32 ETH"
                    },
                    "getAdmin()": {
                        "notice": "Retrieves the current admin address"
                    },
                    "getAllowlist()": {
                        "notice": "Retrieve the allowlist address"
                    },
                    "getBalanceToDeposit()": {
                        "notice": "Returns the amount of pending ETH"
                    },
                    "getCLValidatorCount()": {
                        "notice": "Get CL validator count (the amount of validator reported by the oracles)"
                    },
                    "getCLValidatorTotalBalance()": {
                        "notice": "Get CL validator total balance"
                    },
                    "getCollector()": {
                        "notice": "Retrieve the collector address"
                    },
                    "getDepositedValidatorCount()": {
                        "notice": "Get the deposited validator count (the count of deposits made by the contract)"
                    },
                    "getELFeeRecipient()": {
                        "notice": "Retrieve the execution layer fee recipient"
                    },
                    "getGlobalFee()": {
                        "notice": "Get the current global fee"
                    },
                    "getOperatorsRegistry()": {
                        "notice": "Retrieve the operators registry"
                    },
                    "getOracle()": {
                        "notice": "Get oracle address"
                    },
                    "getPendingAdmin()": {
                        "notice": "Retrieve the current pending admin address"
                    },
                    "getWithdrawalCredentials()": {
                        "notice": "Retrieve the withdrawal credentials"
                    },
                    "increaseAllowance(address,uint256)": {
                        "notice": "Increase allowance to another account"
                    },
                    "initRiverV1(address,address,bytes32,address,address,address,address,address,uint256)": {
                        "notice": "Initializes the River system"
                    },
                    "name()": {
                        "notice": "Retrieve the token name"
                    },
                    "proposeAdmin(address)": {
                        "notice": "Proposes a new address as admin"
                    },
                    "sendELFees()": {
                        "notice": "Input for execution layer fee earnings"
                    },
                    "setAllowlist(address)": {
                        "notice": "Changes the allowlist address"
                    },
                    "setCollector(address)": {
                        "notice": "Changes the collector address"
                    },
                    "setConsensusLayerData(uint256,uint256,bytes32,uint256)": {
                        "notice": "Sets the validator count and validator total balance sum reported by the oracle"
                    },
                    "setELFeeRecipient(address)": {
                        "notice": "Changes the execution layer fee recipient"
                    },
                    "setGlobalFee(uint256)": {
                        "notice": "Changes the global fee parameter"
                    },
                    "setOracle(address)": {
                        "notice": "Set the oracle address"
                    },
                    "sharesFromUnderlyingBalance(uint256)": {
                        "notice": "Retrieve the shares count from an underlying asset amount"
                    },
                    "symbol()": {
                        "notice": "Retrieve the token symbol"
                    },
                    "totalSupply()": {
                        "notice": "Retrieve the total token supply"
                    },
                    "totalUnderlyingSupply()": {
                        "notice": "Retrieve the total underlying asset supply"
                    },
                    "transfer(address,uint256)": {
                        "notice": "Performs a transfer from the message sender to the provided account"
                    },
                    "transferFrom(address,address,uint256)": {
                        "notice": "Performs a transfer between two recipients"
                    },
                    "underlyingBalanceFromShares(uint256)": {
                        "notice": "Retrieve the underlying asset balance from an amount of shares"
                    }
                },
                "notice": "This contract merges all the manager contracts and implements all the virtual methods stitching all components together@notice    +---------------------------------------------------------------------+|                                                                     ||                           Consensus Layer                           ||                                                                     || +-------------------+  +-------------------+  +-------------------+ || |                   |  |                   |  |                   | || |  EL Fee Recipient |  |      Oracle       |  |  Deposit Contract | || |                   |  |                   |  |                   | || +---------|---------+  +---------|---------+  +---------|---------+ |+---------------------------------------------------------------------+|         7            |            5         |+-----------------|    |    |-----------------+|    |6   ||    |    |+---------+          +----|----|----|----+            +---------+|         |          |                   |     2      |         ||Operator |          |       River       --------------  User   ||         |          |                   |            |         |+----|----+          +----|---------|----+            +---------+|                    |         ||             4      |         |       3|1     +-------------|         |--------------+|      |                                      ||      |                                      |+------|------|------------+           +-------------|------------+|                          |           |                          ||    Operators Registry    |           |         Allowlist        ||                          |           |                          |+--------------------------+           +--------------------------+@notice      1. Operators are adding BLS Public Keys of validators running in theirinfrastructure.2. User deposit ETH to the system and get shares minted in exchange3. Upon deposit, the system verifies if the User is allowed to depositby querying the Allowlist4. When the system has enough funds to deposit validators, keys are pulledfrom the Operators Registry5. The deposit data is computed and the validators are funded via the officialdeposit contract6. Oracles report the total balance of the running validators and the total countof running validators7. The running validators propose blocks that reward the EL Fee Recipient. The fundsare pulled back in the system.",
                "version": 1
            },
            {
                "errors": {
                    "AllowanceTooLow(address,address,uint256,uint256)": [
                        {
                            "notice": "Allowance too low to perform operation"
                        }
                    ],
                    "BalanceTooLow()": [
                        {
                            "notice": "Balance too low to perform operation"
                        }
                    ],
                    "Denied(address)": [
                        {
                            "notice": "The access was denied"
                        }
                    ],
                    "EmptyDeposit()": [
                        {
                            "notice": "And empty deposit attempt was made"
                        }
                    ],
                    "ErrorOnDeposit()": [
                        {
                            "notice": "An error occured during the deposit"
                        }
                    ],
                    "InconsistentPublicKeys()": [
                        {
                            "notice": "The length of the BLS Public key is invalid during deposit"
                        }
                    ],
                    "InconsistentSignatures()": [
                        {
                            "notice": "The length of the BLS Signature is invalid during deposit"
                        }
                    ],
                    "InvalidArgument()": [
                        {
                            "notice": "The argument was invalid"
                        }
                    ],
                    "InvalidCall()": [
                        {
                            "notice": "The call was invalid"
                        }
                    ],
                    "InvalidEmptyString()": [
                        {
                            "notice": "The string is empty"
                        }
                    ],
                    "InvalidFee()": [
                        {
                            "notice": "The fee is invalid"
                        }
                    ],
                    "InvalidInitialization(uint256,uint256)": [
                        {
                            "notice": "An error occured during the initialization"
                        }
                    ],
                    "InvalidPublicKeyCount()": [
                        {
                            "notice": "The received count of public keys to deposit is invalid"
                        }
                    ],
                    "InvalidSignatureCount()": [
                        {
                            "notice": "The received count of signatures to deposit is invalid"
                        }
                    ],
                    "InvalidValidatorCountReport(uint256,uint256)": [
                        {
                            "notice": "The reported validator count is invalid"
                        }
                    ],
                    "InvalidWithdrawalCredentials()": [
                        {
                            "notice": "The withdrawal credentials value is null"
                        }
                    ],
                    "InvalidZeroAddress()": [
                        {
                            "notice": "The address is zero"
                        }
                    ],
                    "NoAvailableValidatorKeys()": [
                        {
                            "notice": "The internal key retrieval returned no keys"
                        }
                    ],
                    "NotEnoughFunds()": [
                        {
                            "notice": "Not enough funds to deposit one validator"
                        }
                    ],
                    "NullTransfer()": [
                        {
                            "notice": "Invalid empty transfer"
                        }
                    ],
                    "SliceOutOfBounds()": [
                        {
                            "notice": "The slice is outside of the initial bytes bounds"
                        }
                    ],
                    "SliceOverflow()": [
                        {
                            "notice": "The length overflows an uint"
                        }
                    ],
                    "Unauthorized(address)": [
                        {
                            "notice": "The operator is unauthorized for the caller"
                        }
                    ],
                    "UnauthorizedTransfer(address,address)": [
                        {
                            "notice": "Invalid transfer recipients"
                        }
                    ],
                    "ZeroMintedShares()": [
                        {
                            "notice": "The computed amount of shares to mint is 0"
                        }
                    ]
                },
                "events": {
                    "ConsensusLayerDataUpdate(uint256,uint256,bytes32)": {
                        "notice": "The consensus layer data provided by the oracle has been updated"
                    },
                    "FundedValidatorKey(bytes)": {
                        "notice": "A validator key got funded on the deposit contract"
                    },
                    "Initialize(uint256,bytes)": {
                        "notice": "Emitted when the contract is properly initialized"
                    },
                    "PulledCoverageFunds(uint256)": {
                        "notice": "Funds have been pulled from the Coverage Fund"
                    },
                    "PulledELFees(uint256)": {
                        "notice": "Funds have been pulled from the Execution Layer Fee Recipient"
                    },
                    "RewardsEarned(address,uint256,uint256,uint256,uint256)": {
                        "notice": "The system underlying supply increased. This is a snapshot of the balances for accounting purposes"
                    },
                    "SetAdmin(address)": {
                        "notice": "The admin address changed"
                    },
                    "SetAllowlist(address)": {
                        "notice": "The stored Allowlist has been changed"
                    },
                    "SetCollector(address)": {
                        "notice": "The stored Collector has been changed"
                    },
                    "SetCoverageFund(address)": {
                        "notice": "The stored Coverage Fund has been changed"
                    },
                    "SetDepositContractAddress(address)": {
                        "notice": "The stored deposit contract address changed"
                    },
                    "SetELFeeRecipient(address)": {
                        "notice": "The stored Execution Layer Fee Recipient has been changed"
                    },
                    "SetGlobalFee(uint256)": {
                        "notice": "The stored Global Fee has been changed"
                    },
                    "SetMetadataURI(string)": {
                        "notice": "The stored Metadata URI string has been changed"
                    },
                    "SetOperatorsRegistry(address)": {
                        "notice": "The stored Operators Registry has been changed"
                    },
                    "SetOracle(address)": {
                        "notice": "The stored oracle address changed"
                    },
                    "SetPendingAdmin(address)": {
                        "notice": "The pending admin address changed"
                    },
                    "SetWithdrawalCredentials(bytes32)": {
                        "notice": "The stored withdrawal credentials changed"
                    },
                    "UserDeposit(address,address,uint256)": {
                        "notice": "User deposited ETH in the system"
                    }
                },
                "kind": "user",
                "methods": {
                    "DEPOSIT_SIZE()": {
                        "notice": "Size of a deposit in ETH"
                    },
                    "PUBLIC_KEY_LENGTH()": {
                        "notice": "Size of a BLS Public key in bytes"
                    },
                    "SIGNATURE_LENGTH()": {
                        "notice": "Size of a BLS Signature in bytes"
                    },
                    "acceptAdmin()": {
                        "notice": "Accept the transfer of ownership"
                    },
                    "allowance(address,address)": {
                        "notice": "Retrieve the allowance value for a spender"
                    },
                    "approve(address,uint256)": {
                        "notice": "Approves an account for future spendings"
                    },
                    "balanceOf(address)": {
                        "notice": "Retrieve the balance of an account"
                    },
                    "balanceOfUnderlying(address)": {
                        "notice": "Retrieve the underlying asset balance of an account"
                    },
                    "decimals()": {
                        "notice": "Retrieve the decimal count"
                    },
                    "decreaseAllowance(address,uint256)": {
                        "notice": "Decrease allowance to another account"
                    },
                    "deposit()": {
                        "notice": "Explicit deposit method to mint on msg.sender"
                    },
                    "depositAndTransfer(address)": {
                        "notice": "Explicit deposit method to mint on msg.sender and transfer to _recipient"
                    },
                    "depositToConsensusLayer(uint256)": {
                        "notice": "Deposits current balance to the Consensus Layer by batches of 32 ETH"
                    },
                    "getAdmin()": {
                        "notice": "Retrieves the current admin address"
                    },
                    "getAllowlist()": {
                        "notice": "Retrieve the allowlist address"
                    },
                    "getBalanceToDeposit()": {
                        "notice": "Returns the amount of pending ETH"
                    },
                    "getCLValidatorCount()": {
                        "notice": "Get CL validator count (the amount of validator reported by the oracles)"
                    },
                    "getCLValidatorTotalBalance()": {
                        "notice": "Get CL validator total balance"
                    },
                    "getCollector()": {
                        "notice": "Retrieve the collector address"
                    },
                    "getCoverageFund()": {
                        "notice": "Retrieve the coverage fund"
                    },
                    "getDepositedValidatorCount()": {
                        "notice": "Get the deposited validator count (the count of deposits made by the contract)"
                    },
                    "getELFeeRecipient()": {
                        "notice": "Retrieve the execution layer fee recipient"
                    },
                    "getGlobalFee()": {
                        "notice": "Get the current global fee"
                    },
                    "getMetadataURI()": {
                        "notice": "Retrieve the metadata uri string value"
                    },
                    "getOperatorsRegistry()": {
                        "notice": "Retrieve the operators registry"
                    },
                    "getOracle()": {
                        "notice": "Get oracle address"
                    },
                    "getPendingAdmin()": {
                        "notice": "Retrieve the current pending admin address"
                    },
                    "getWithdrawalCredentials()": {
                        "notice": "Retrieve the withdrawal credentials"
                    },
                    "increaseAllowance(address,uint256)": {
                        "notice": "Increase allowance to another account"
                    },
                    "initRiverV1(address,address,bytes32,address,address,address,address,address,uint256)": {
                        "notice": "Initializes the River system"
                    },
                    "name()": {
                        "notice": "Retrieve the token name"
                    },
                    "proposeAdmin(address)": {
                        "notice": "Proposes a new address as admin"
                    },
                    "sendCoverageFunds()": {
                        "notice": "Input for coverage funds"
                    },
                    "sendELFees()": {
                        "notice": "Input for execution layer fee earnings"
                    },
                    "setAllowlist(address)": {
                        "notice": "Changes the allowlist address"
                    },
                    "setCollector(address)": {
                        "notice": "Changes the collector address"
                    },
                    "setConsensusLayerData(uint256,uint256,bytes32,uint256)": {
                        "notice": "Sets the validator count and validator total balance sum reported by the oracle"
                    },
                    "setCoverageFund(address)": {
                        "notice": "Changes the coverage fund"
                    },
                    "setELFeeRecipient(address)": {
                        "notice": "Changes the execution layer fee recipient"
                    },
                    "setGlobalFee(uint256)": {
                        "notice": "Changes the global fee parameter"
                    },
                    "setMetadataURI(string)": {
                        "notice": "Sets the metadata uri string value"
                    },
                    "setOracle(address)": {
                        "notice": "Set the oracle address"
                    },
                    "sharesFromUnderlyingBalance(uint256)": {
                        "notice": "Retrieve the shares count from an underlying asset amount"
                    },
                    "symbol()": {
                        "notice": "Retrieve the token symbol"
                    },
                    "totalSupply()": {
                        "notice": "Retrieve the total token supply"
                    },
                    "totalUnderlyingSupply()": {
                        "notice": "Retrieve the total underlying asset supply"
                    },
                    "transfer(address,uint256)": {
                        "notice": "Performs a transfer from the message sender to the provided account"
                    },
                    "transferFrom(address,address,uint256)": {
                        "notice": "Performs a transfer between two recipients"
                    },
                    "underlyingBalanceFromShares(uint256)": {
                        "notice": "Retrieve the underlying asset balance from an amount of shares"
                    }
                },
                "notice": "This contract merges all the manager contracts and implements all the virtual methods stitching all components together@notice    +---------------------------------------------------------------------+|                                                                     ||                           Consensus Layer                           ||                                                                     || +-------------------+  +-------------------+  +-------------------+ || |                   |  |                   |  |                   | || |  EL Fee Recipient |  |      Oracle       |  |  Deposit Contract | || |                   |  |                   |  |                   | || +---------|---------+  +---------|---------+  +---------|---------+ |+---------------------------------------------------------------------+|         7            |            5         |+-----------------|    |    |-----------------+|    |6   ||    |    |+---------+          +----|----|----|----+            +---------+|         |          |                   |     2      |         ||Operator |          |       River       --------------  User   ||         |          |                   |            |         |+----|----+          +----|---------|----+            +---------+|                    |         ||             4      |         |       3|1     +-------------|         |--------------+|      |                                      ||      |                                      |+------|------|------------+           +-------------|------------+|                          |           |                          ||    Operators Registry    |           |         Allowlist        ||                          |           |                          |+--------------------------+           +--------------------------+@notice      1. Operators are adding BLS Public Keys of validators running in theirinfrastructure.2. User deposit ETH to the system and get shares minted in exchange3. Upon deposit, the system verifies if the User is allowed to depositby querying the Allowlist4. When the system has enough funds to deposit validators, keys are pulledfrom the Operators Registry5. The deposit data is computed and the validators are funded via the officialdeposit contract6. Oracles report the total balance of the running validators and the total countof running validators7. The running validators propose blocks that reward the EL Fee Recipient. The fundsare pulled back in the system.",
                "version": 1
            }
        ],
        "storageLayout": [
            {
                "storage": [],
                "types": null
            },
            {
                "storage": [],
                "types": null
            },
            {
                "storage": [],
                "types": null
            }
        ]
    }
}