{
    "address": "0x3ecCAdA3e11c1Cc3e9B5a53176A67cc3ABDD3E46",
    "abi": [
        {
            "inputs": [
                {
                    "internalType": "address",
                    "name": "_from",
                    "type": "address"
                },
                {
                    "internalType": "address",
                    "name": "_operator",
                    "type": "address"
                },
                {
                    "internalType": "uint256",
                    "name": "_allowance",
                    "type": "uint256"
                },
                {
                    "internalType": "uint256",
                    "name": "_value",
                    "type": "uint256"
                }
            ],
            "name": "AllowanceTooLow",
            "type": "error"
        },
        {
            "inputs": [],
            "name": "BalanceTooLow",
            "type": "error"
        },
        {
            "inputs": [
                {
                    "internalType": "address",
                    "name": "account",
                    "type": "address"
                }
            ],
            "name": "Denied",
            "type": "error"
        },
        {
            "inputs": [],
            "name": "EmptyDeposit",
            "type": "error"
        },
        {
            "inputs": [],
            "name": "ErrorOnDeposit",
            "type": "error"
        },
        {
            "inputs": [],
            "name": "InconsistentPublicKeys",
            "type": "error"
        },
        {
            "inputs": [],
            "name": "InconsistentSignatures",
            "type": "error"
        },
        {
            "inputs": [],
            "name": "InvalidArgument",
            "type": "error"
        },
        {
            "inputs": [],
            "name": "InvalidCall",
            "type": "error"
        },
        {
            "inputs": [],
            "name": "InvalidFee",
            "type": "error"
        },
        {
            "inputs": [
                {
                    "internalType": "uint256",
                    "name": "version",
                    "type": "uint256"
                },
                {
                    "internalType": "uint256",
                    "name": "expectedVersion",
                    "type": "uint256"
                }
            ],
            "name": "InvalidInitialization",
            "type": "error"
        },
        {
            "inputs": [],
            "name": "InvalidPublicKeyCount",
            "type": "error"
        },
        {
            "inputs": [],
            "name": "InvalidSignatureCount",
            "type": "error"
        },
        {
            "inputs": [
                {
                    "internalType": "uint256",
                    "name": "providedValidatorCount",
                    "type": "uint256"
                },
                {
                    "internalType": "uint256",
                    "name": "depositedValidatorCount",
                    "type": "uint256"
                }
            ],
            "name": "InvalidValidatorCountReport",
            "type": "error"
        },
        {
            "inputs": [],
            "name": "InvalidWithdrawalCredentials",
            "type": "error"
        },
        {
            "inputs": [],
            "name": "InvalidZeroAddress",
            "type": "error"
        },
        {
            "inputs": [],
            "name": "NoAvailableValidatorKeys",
            "type": "error"
        },
        {
            "inputs": [],
            "name": "NotEnoughFunds",
            "type": "error"
        },
        {
            "inputs": [],
            "name": "NullTransfer",
            "type": "error"
        },
        {
            "inputs": [],
            "name": "SliceOutOfBounds",
            "type": "error"
        },
        {
            "inputs": [],
            "name": "SliceOverflow",
            "type": "error"
        },
        {
            "inputs": [
                {
                    "internalType": "address",
                    "name": "caller",
                    "type": "address"
                }
            ],
            "name": "Unauthorized",
            "type": "error"
        },
        {
            "inputs": [
                {
                    "internalType": "address",
                    "name": "_from",
                    "type": "address"
                },
                {
                    "internalType": "address",
                    "name": "_to",
                    "type": "address"
                }
            ],
            "name": "UnauthorizedTransfer",
            "type": "error"
        },
        {
            "inputs": [],
            "name": "ZeroMintedShares",
            "type": "error"
        },
        {
            "anonymous": false,
            "inputs": [
                {
                    "indexed": true,
                    "internalType": "address",
                    "name": "owner",
                    "type": "address"
                },
                {
                    "indexed": true,
                    "internalType": "address",
                    "name": "spender",
                    "type": "address"
                },
                {
                    "indexed": false,
                    "internalType": "uint256",
                    "name": "value",
                    "type": "uint256"
                }
            ],
            "name": "Approval",
            "type": "event"
        },
        {
            "anonymous": false,
            "inputs": [
                {
                    "indexed": false,
                    "internalType": "uint256",
                    "name": "validatorCount",
                    "type": "uint256"
                },
                {
                    "indexed": false,
                    "internalType": "uint256",
                    "name": "validatorTotalBalance",
                    "type": "uint256"
                },
                {
                    "indexed": false,
                    "internalType": "bytes32",
                    "name": "roundId",
                    "type": "bytes32"
                }
            ],
            "name": "ConsensusLayerDataUpdate",
            "type": "event"
        },
        {
            "anonymous": false,
            "inputs": [
                {
                    "indexed": false,
                    "internalType": "bytes",
                    "name": "publicKey",
                    "type": "bytes"
                }
            ],
            "name": "FundedValidatorKey",
            "type": "event"
        },
        {
            "anonymous": false,
            "inputs": [
                {
                    "indexed": false,
                    "internalType": "uint256",
                    "name": "version",
                    "type": "uint256"
                },
                {
                    "indexed": false,
                    "internalType": "bytes",
                    "name": "cdata",
                    "type": "bytes"
                }
            ],
            "name": "Initialize",
            "type": "event"
        },
        {
            "anonymous": false,
            "inputs": [
                {
                    "indexed": false,
                    "internalType": "uint256",
                    "name": "amount",
                    "type": "uint256"
                }
            ],
            "name": "PulledELFees",
            "type": "event"
        },
        {
            "anonymous": false,
            "inputs": [
                {
                    "indexed": true,
                    "internalType": "address",
                    "name": "_collector",
                    "type": "address"
                },
                {
                    "indexed": false,
                    "internalType": "uint256",
                    "name": "_oldTotalUnderlyingBalance",
                    "type": "uint256"
                },
                {
                    "indexed": false,
                    "internalType": "uint256",
                    "name": "_oldTotalSupply",
                    "type": "uint256"
                },
                {
                    "indexed": false,
                    "internalType": "uint256",
                    "name": "_newTotalUnderlyingBalance",
                    "type": "uint256"
                },
                {
                    "indexed": false,
                    "internalType": "uint256",
                    "name": "_newTotalSupply",
                    "type": "uint256"
                }
            ],
            "name": "RewardsEarned",
            "type": "event"
        },
        {
            "anonymous": false,
            "inputs": [
                {
                    "indexed": true,
                    "internalType": "address",
                    "name": "admin",
                    "type": "address"
                }
            ],
            "name": "SetAdmin",
            "type": "event"
        },
        {
            "anonymous": false,
            "inputs": [
                {
                    "indexed": true,
                    "internalType": "address",
                    "name": "allowlist",
                    "type": "address"
                }
            ],
            "name": "SetAllowlist",
            "type": "event"
        },
        {
            "anonymous": false,
            "inputs": [
                {
                    "indexed": true,
                    "internalType": "address",
                    "name": "collector",
                    "type": "address"
                }
            ],
            "name": "SetCollector",
            "type": "event"
        },
        {
            "anonymous": false,
            "inputs": [
                {
                    "indexed": true,
                    "internalType": "address",
                    "name": "depositContract",
                    "type": "address"
                }
            ],
            "name": "SetDepositContractAddress",
            "type": "event"
        },
        {
            "anonymous": false,
            "inputs": [
                {
                    "indexed": true,
                    "internalType": "address",
                    "name": "elFeeRecipient",
                    "type": "address"
                }
            ],
            "name": "SetELFeeRecipient",
            "type": "event"
        },
        {
            "anonymous": false,
            "inputs": [
                {
                    "indexed": false,
                    "internalType": "uint256",
                    "name": "fee",
                    "type": "uint256"
                }
            ],
            "name": "SetGlobalFee",
            "type": "event"
        },
        {
            "anonymous": false,
            "inputs": [
                {
                    "indexed": true,
                    "internalType": "address",
                    "name": "operatorRegistry",
                    "type": "address"
                }
            ],
            "name": "SetOperatorsRegistry",
            "type": "event"
        },
        {
            "anonymous": false,
            "inputs": [
                {
                    "indexed": true,
                    "internalType": "address",
                    "name": "oracleAddress",
                    "type": "address"
                }
            ],
            "name": "SetOracle",
            "type": "event"
        },
        {
            "anonymous": false,
            "inputs": [
                {
                    "indexed": true,
                    "internalType": "address",
                    "name": "pendingAdmin",
                    "type": "address"
                }
            ],
            "name": "SetPendingAdmin",
            "type": "event"
        },
        {
            "anonymous": false,
            "inputs": [
                {
                    "indexed": false,
                    "internalType": "bytes32",
                    "name": "withdrawalCredentials",
                    "type": "bytes32"
                }
            ],
            "name": "SetWithdrawalCredentials",
            "type": "event"
        },
        {
            "anonymous": false,
            "inputs": [
                {
                    "indexed": true,
                    "internalType": "address",
                    "name": "from",
                    "type": "address"
                },
                {
                    "indexed": true,
                    "internalType": "address",
                    "name": "to",
                    "type": "address"
                },
                {
                    "indexed": false,
                    "internalType": "uint256",
                    "name": "value",
                    "type": "uint256"
                }
            ],
            "name": "Transfer",
            "type": "event"
        },
        {
            "anonymous": false,
            "inputs": [
                {
                    "indexed": true,
                    "internalType": "address",
                    "name": "depositor",
                    "type": "address"
                },
                {
                    "indexed": true,
                    "internalType": "address",
                    "name": "recipient",
                    "type": "address"
                },
                {
                    "indexed": false,
                    "internalType": "uint256",
                    "name": "amount",
                    "type": "uint256"
                }
            ],
            "name": "UserDeposit",
            "type": "event"
        },
        {
            "stateMutability": "payable",
            "type": "fallback"
        },
        {
            "inputs": [],
            "name": "DEPOSIT_SIZE",
            "outputs": [
                {
                    "internalType": "uint256",
                    "name": "",
                    "type": "uint256"
                }
            ],
            "stateMutability": "view",
            "type": "function"
        },
        {
            "inputs": [],
            "name": "PUBLIC_KEY_LENGTH",
            "outputs": [
                {
                    "internalType": "uint256",
                    "name": "",
                    "type": "uint256"
                }
            ],
            "stateMutability": "view",
            "type": "function"
        },
        {
            "inputs": [],
            "name": "SIGNATURE_LENGTH",
            "outputs": [
                {
                    "internalType": "uint256",
                    "name": "",
                    "type": "uint256"
                }
            ],
            "stateMutability": "view",
            "type": "function"
        },
        {
            "inputs": [],
            "name": "acceptAdmin",
            "outputs": [],
            "stateMutability": "nonpayable",
            "type": "function"
        },
        {
            "inputs": [
                {
                    "internalType": "address",
                    "name": "_owner",
                    "type": "address"
                },
                {
                    "internalType": "address",
                    "name": "_spender",
                    "type": "address"
                }
            ],
            "name": "allowance",
            "outputs": [
                {
                    "internalType": "uint256",
                    "name": "",
                    "type": "uint256"
                }
            ],
            "stateMutability": "view",
            "type": "function"
        },
        {
            "inputs": [
                {
                    "internalType": "address",
                    "name": "_spender",
                    "type": "address"
                },
                {
                    "internalType": "uint256",
                    "name": "_value",
                    "type": "uint256"
                }
            ],
            "name": "approve",
            "outputs": [
                {
                    "internalType": "bool",
                    "name": "",
                    "type": "bool"
                }
            ],
            "stateMutability": "nonpayable",
            "type": "function"
        },
        {
            "inputs": [
                {
                    "internalType": "address",
                    "name": "_owner",
                    "type": "address"
                }
            ],
            "name": "balanceOf",
            "outputs": [
                {
                    "internalType": "uint256",
                    "name": "",
                    "type": "uint256"
                }
            ],
            "stateMutability": "view",
            "type": "function"
        },
        {
            "inputs": [
                {
                    "internalType": "address",
                    "name": "_owner",
                    "type": "address"
                }
            ],
            "name": "balanceOfUnderlying",
            "outputs": [
                {
                    "internalType": "uint256",
                    "name": "",
                    "type": "uint256"
                }
            ],
            "stateMutability": "view",
            "type": "function"
        },
        {
            "inputs": [],
            "name": "decimals",
            "outputs": [
                {
                    "internalType": "uint8",
                    "name": "",
                    "type": "uint8"
                }
            ],
            "stateMutability": "pure",
            "type": "function"
        },
        {
            "inputs": [
                {
                    "internalType": "address",
                    "name": "_spender",
                    "type": "address"
                },
                {
                    "internalType": "uint256",
                    "name": "_subtractableValue",
                    "type": "uint256"
                }
            ],
            "name": "decreaseAllowance",
            "outputs": [
                {
                    "internalType": "bool",
                    "name": "",
                    "type": "bool"
                }
            ],
            "stateMutability": "nonpayable",
            "type": "function"
        },
        {
            "inputs": [],
            "name": "deposit",
            "outputs": [],
            "stateMutability": "payable",
            "type": "function"
        },
        {
            "inputs": [
                {
                    "internalType": "address",
                    "name": "_recipient",
                    "type": "address"
                }
            ],
            "name": "depositAndTransfer",
            "outputs": [],
            "stateMutability": "payable",
            "type": "function"
        },
        {
            "inputs": [
                {
                    "internalType": "uint256",
                    "name": "_maxCount",
                    "type": "uint256"
                }
            ],
            "name": "depositToConsensusLayer",
            "outputs": [],
            "stateMutability": "nonpayable",
            "type": "function"
        },
        {
            "inputs": [],
            "name": "getAdmin",
            "outputs": [
                {
                    "internalType": "address",
                    "name": "",
                    "type": "address"
                }
            ],
            "stateMutability": "view",
            "type": "function"
        },
        {
            "inputs": [],
            "name": "getAllowlist",
            "outputs": [
                {
                    "internalType": "address",
                    "name": "",
                    "type": "address"
                }
            ],
            "stateMutability": "view",
            "type": "function"
        },
        {
            "inputs": [],
            "name": "getBalanceToDeposit",
            "outputs": [
                {
                    "internalType": "uint256",
                    "name": "",
                    "type": "uint256"
                }
            ],
            "stateMutability": "view",
            "type": "function"
        },
        {
            "inputs": [],
            "name": "getCLValidatorCount",
            "outputs": [
                {
                    "internalType": "uint256",
                    "name": "",
                    "type": "uint256"
                }
            ],
            "stateMutability": "view",
            "type": "function"
        },
        {
            "inputs": [],
            "name": "getCLValidatorTotalBalance",
            "outputs": [
                {
                    "internalType": "uint256",
                    "name": "",
                    "type": "uint256"
                }
            ],
            "stateMutability": "view",
            "type": "function"
        },
        {
            "inputs": [],
            "name": "getCollector",
            "outputs": [
                {
                    "internalType": "address",
                    "name": "",
                    "type": "address"
                }
            ],
            "stateMutability": "view",
            "type": "function"
        },
        {
            "inputs": [],
            "name": "getDepositedValidatorCount",
            "outputs": [
                {
                    "internalType": "uint256",
                    "name": "",
                    "type": "uint256"
                }
            ],
            "stateMutability": "view",
            "type": "function"
        },
        {
            "inputs": [],
            "name": "getELFeeRecipient",
            "outputs": [
                {
                    "internalType": "address",
                    "name": "",
                    "type": "address"
                }
            ],
            "stateMutability": "view",
            "type": "function"
        },
        {
            "inputs": [],
            "name": "getGlobalFee",
            "outputs": [
                {
                    "internalType": "uint256",
                    "name": "",
                    "type": "uint256"
                }
            ],
            "stateMutability": "view",
            "type": "function"
        },
        {
            "inputs": [],
            "name": "getOperatorsRegistry",
            "outputs": [
                {
                    "internalType": "address",
                    "name": "",
                    "type": "address"
                }
            ],
            "stateMutability": "view",
            "type": "function"
        },
        {
            "inputs": [],
            "name": "getOracle",
            "outputs": [
                {
                    "internalType": "address",
                    "name": "",
                    "type": "address"
                }
            ],
            "stateMutability": "view",
            "type": "function"
        },
        {
            "inputs": [],
            "name": "getPendingAdmin",
            "outputs": [
                {
                    "internalType": "address",
                    "name": "",
                    "type": "address"
                }
            ],
            "stateMutability": "view",
            "type": "function"
        },
        {
            "inputs": [],
            "name": "getWithdrawalCredentials",
            "outputs": [
                {
                    "internalType": "bytes32",
                    "name": "",
                    "type": "bytes32"
                }
            ],
            "stateMutability": "view",
            "type": "function"
        },
        {
            "inputs": [
                {
                    "internalType": "address",
                    "name": "_spender",
                    "type": "address"
                },
                {
                    "internalType": "uint256",
                    "name": "_additionalValue",
                    "type": "uint256"
                }
            ],
            "name": "increaseAllowance",
            "outputs": [
                {
                    "internalType": "bool",
                    "name": "",
                    "type": "bool"
                }
            ],
            "stateMutability": "nonpayable",
            "type": "function"
        },
        {
            "inputs": [
                {
                    "internalType": "address",
                    "name": "_depositContractAddress",
                    "type": "address"
                },
                {
                    "internalType": "address",
                    "name": "_elFeeRecipientAddress",
                    "type": "address"
                },
                {
                    "internalType": "bytes32",
                    "name": "_withdrawalCredentials",
                    "type": "bytes32"
                },
                {
                    "internalType": "address",
                    "name": "_oracleAddress",
                    "type": "address"
                },
                {
                    "internalType": "address",
                    "name": "_systemAdministratorAddress",
                    "type": "address"
                },
                {
                    "internalType": "address",
                    "name": "_allowlistAddress",
                    "type": "address"
                },
                {
                    "internalType": "address",
                    "name": "_operatorRegistryAddress",
                    "type": "address"
                },
                {
                    "internalType": "address",
                    "name": "_collectorAddress",
                    "type": "address"
                },
                {
                    "internalType": "uint256",
                    "name": "_globalFee",
                    "type": "uint256"
                }
            ],
            "name": "initRiverV1",
            "outputs": [],
            "stateMutability": "nonpayable",
            "type": "function"
        },
        {
            "inputs": [],
            "name": "name",
            "outputs": [
                {
                    "internalType": "string",
                    "name": "",
                    "type": "string"
                }
            ],
            "stateMutability": "pure",
            "type": "function"
        },
        {
            "inputs": [
                {
                    "internalType": "address",
                    "name": "_newAdmin",
                    "type": "address"
                }
            ],
            "name": "proposeAdmin",
            "outputs": [],
            "stateMutability": "nonpayable",
            "type": "function"
        },
        {
            "inputs": [],
            "name": "sendELFees",
            "outputs": [],
            "stateMutability": "payable",
            "type": "function"
        },
        {
            "inputs": [
                {
                    "internalType": "address",
                    "name": "_newAllowlist",
                    "type": "address"
                }
            ],
            "name": "setAllowlist",
            "outputs": [],
            "stateMutability": "nonpayable",
            "type": "function"
        },
        {
            "inputs": [
                {
                    "internalType": "address",
                    "name": "_newCollector",
                    "type": "address"
                }
            ],
            "name": "setCollector",
            "outputs": [],
            "stateMutability": "nonpayable",
            "type": "function"
        },
        {
            "inputs": [
                {
                    "internalType": "uint256",
                    "name": "_validatorCount",
                    "type": "uint256"
                },
                {
                    "internalType": "uint256",
                    "name": "_validatorTotalBalance",
                    "type": "uint256"
                },
                {
                    "internalType": "bytes32",
                    "name": "_roundId",
                    "type": "bytes32"
                },
                {
                    "internalType": "uint256",
                    "name": "_maxIncrease",
                    "type": "uint256"
                }
            ],
            "name": "setConsensusLayerData",
            "outputs": [],
            "stateMutability": "nonpayable",
            "type": "function"
        },
        {
            "inputs": [
                {
                    "internalType": "address",
                    "name": "_newELFeeRecipient",
                    "type": "address"
                }
            ],
            "name": "setELFeeRecipient",
            "outputs": [],
            "stateMutability": "nonpayable",
            "type": "function"
        },
        {
            "inputs": [
                {
                    "internalType": "uint256",
                    "name": "newFee",
                    "type": "uint256"
                }
            ],
            "name": "setGlobalFee",
            "outputs": [],
            "stateMutability": "nonpayable",
            "type": "function"
        },
        {
            "inputs": [
                {
                    "internalType": "address",
                    "name": "_oracleAddress",
                    "type": "address"
                }
            ],
            "name": "setOracle",
            "outputs": [],
            "stateMutability": "nonpayable",
            "type": "function"
        },
        {
            "inputs": [
                {
                    "internalType": "uint256",
                    "name": "_underlyingAssetAmount",
                    "type": "uint256"
                }
            ],
            "name": "sharesFromUnderlyingBalance",
            "outputs": [
                {
                    "internalType": "uint256",
                    "name": "",
                    "type": "uint256"
                }
            ],
            "stateMutability": "view",
            "type": "function"
        },
        {
            "inputs": [],
            "name": "symbol",
            "outputs": [
                {
                    "internalType": "string",
                    "name": "",
                    "type": "string"
                }
            ],
            "stateMutability": "pure",
            "type": "function"
        },
        {
            "inputs": [],
            "name": "totalSupply",
            "outputs": [
                {
                    "internalType": "uint256",
                    "name": "",
                    "type": "uint256"
                }
            ],
            "stateMutability": "view",
            "type": "function"
        },
        {
            "inputs": [],
            "name": "totalUnderlyingSupply",
            "outputs": [
                {
                    "internalType": "uint256",
                    "name": "",
                    "type": "uint256"
                }
            ],
            "stateMutability": "view",
            "type": "function"
        },
        {
            "inputs": [
                {
                    "internalType": "address",
                    "name": "_to",
                    "type": "address"
                },
                {
                    "internalType": "uint256",
                    "name": "_value",
                    "type": "uint256"
                }
            ],
            "name": "transfer",
            "outputs": [
                {
                    "internalType": "bool",
                    "name": "",
                    "type": "bool"
                }
            ],
            "stateMutability": "nonpayable",
            "type": "function"
        },
        {
            "inputs": [
                {
                    "internalType": "address",
                    "name": "_from",
                    "type": "address"
                },
                {
                    "internalType": "address",
                    "name": "_to",
                    "type": "address"
                },
                {
                    "internalType": "uint256",
                    "name": "_value",
                    "type": "uint256"
                }
            ],
            "name": "transferFrom",
            "outputs": [
                {
                    "internalType": "bool",
                    "name": "",
                    "type": "bool"
                }
            ],
            "stateMutability": "nonpayable",
            "type": "function"
        },
        {
            "inputs": [
                {
                    "internalType": "uint256",
                    "name": "_shares",
                    "type": "uint256"
                }
            ],
            "name": "underlyingBalanceFromShares",
            "outputs": [
                {
                    "internalType": "uint256",
                    "name": "",
                    "type": "uint256"
                }
            ],
            "stateMutability": "view",
            "type": "function"
        },
        {
            "stateMutability": "payable",
            "type": "receive"
        },
        {
            "inputs": [
                {
                    "internalType": "address",
                    "name": "_from",
                    "type": "address"
                },
                {
                    "internalType": "address",
                    "name": "_operator",
                    "type": "address"
                },
                {
                    "internalType": "uint256",
                    "name": "_allowance",
                    "type": "uint256"
                },
                {
                    "internalType": "uint256",
                    "name": "_value",
                    "type": "uint256"
                }
            ],
            "name": "AllowanceTooLow",
            "type": "error"
        },
        {
            "inputs": [],
            "name": "BalanceTooLow",
            "type": "error"
        },
        {
            "inputs": [
                {
                    "internalType": "address",
                    "name": "account",
                    "type": "address"
                }
            ],
            "name": "Denied",
            "type": "error"
        },
        {
            "inputs": [],
            "name": "EmptyDeposit",
            "type": "error"
        },
        {
            "inputs": [],
            "name": "ErrorOnDeposit",
            "type": "error"
        },
        {
            "inputs": [],
            "name": "InconsistentPublicKeys",
            "type": "error"
        },
        {
            "inputs": [],
            "name": "InconsistentSignatures",
            "type": "error"
        },
        {
            "inputs": [],
            "name": "InvalidArgument",
            "type": "error"
        },
        {
            "inputs": [],
            "name": "InvalidCall",
            "type": "error"
        },
        {
            "inputs": [],
            "name": "InvalidFee",
            "type": "error"
        },
        {
            "inputs": [
                {
                    "internalType": "uint256",
                    "name": "version",
                    "type": "uint256"
                },
                {
                    "internalType": "uint256",
                    "name": "expectedVersion",
                    "type": "uint256"
                }
            ],
            "name": "InvalidInitialization",
            "type": "error"
        },
        {
            "inputs": [],
            "name": "InvalidPublicKeyCount",
            "type": "error"
        },
        {
            "inputs": [],
            "name": "InvalidSignatureCount",
            "type": "error"
        },
        {
            "inputs": [
                {
                    "internalType": "uint256",
                    "name": "providedValidatorCount",
                    "type": "uint256"
                },
                {
                    "internalType": "uint256",
                    "name": "depositedValidatorCount",
                    "type": "uint256"
                }
            ],
            "name": "InvalidValidatorCountReport",
            "type": "error"
        },
        {
            "inputs": [],
            "name": "InvalidWithdrawalCredentials",
            "type": "error"
        },
        {
            "inputs": [],
            "name": "InvalidZeroAddress",
            "type": "error"
        },
        {
            "inputs": [],
            "name": "NoAvailableValidatorKeys",
            "type": "error"
        },
        {
            "inputs": [],
            "name": "NotEnoughFunds",
            "type": "error"
        },
        {
            "inputs": [],
            "name": "NullTransfer",
            "type": "error"
        },
        {
            "inputs": [],
            "name": "SliceOutOfBounds",
            "type": "error"
        },
        {
            "inputs": [],
            "name": "SliceOverflow",
            "type": "error"
        },
        {
            "inputs": [
                {
                    "internalType": "address",
                    "name": "caller",
                    "type": "address"
                }
            ],
            "name": "Unauthorized",
            "type": "error"
        },
        {
            "inputs": [
                {
                    "internalType": "address",
                    "name": "_from",
                    "type": "address"
                },
                {
                    "internalType": "address",
                    "name": "_to",
                    "type": "address"
                }
            ],
            "name": "UnauthorizedTransfer",
            "type": "error"
        },
        {
            "inputs": [],
            "name": "ZeroMintedShares",
            "type": "error"
        },
        {
            "anonymous": false,
            "inputs": [
                {
                    "indexed": true,
                    "internalType": "address",
                    "name": "owner",
                    "type": "address"
                },
                {
                    "indexed": true,
                    "internalType": "address",
                    "name": "spender",
                    "type": "address"
                },
                {
                    "indexed": false,
                    "internalType": "uint256",
                    "name": "value",
                    "type": "uint256"
                }
            ],
            "name": "Approval",
            "type": "event"
        },
        {
            "anonymous": false,
            "inputs": [
                {
                    "indexed": false,
                    "internalType": "uint256",
                    "name": "validatorCount",
                    "type": "uint256"
                },
                {
                    "indexed": false,
                    "internalType": "uint256",
                    "name": "validatorTotalBalance",
                    "type": "uint256"
                },
                {
                    "indexed": false,
                    "internalType": "bytes32",
                    "name": "roundId",
                    "type": "bytes32"
                }
            ],
            "name": "ConsensusLayerDataUpdate",
            "type": "event"
        },
        {
            "anonymous": false,
            "inputs": [
                {
                    "indexed": false,
                    "internalType": "bytes",
                    "name": "publicKey",
                    "type": "bytes"
                }
            ],
            "name": "FundedValidatorKey",
            "type": "event"
        },
        {
            "anonymous": false,
            "inputs": [
                {
                    "indexed": false,
                    "internalType": "uint256",
                    "name": "version",
                    "type": "uint256"
                },
                {
                    "indexed": false,
                    "internalType": "bytes",
                    "name": "cdata",
                    "type": "bytes"
                }
            ],
            "name": "Initialize",
            "type": "event"
        },
        {
            "anonymous": false,
            "inputs": [
                {
                    "indexed": false,
                    "internalType": "uint256",
                    "name": "amount",
                    "type": "uint256"
                }
            ],
            "name": "PulledELFees",
            "type": "event"
        },
        {
            "anonymous": false,
            "inputs": [
                {
                    "indexed": true,
                    "internalType": "address",
                    "name": "_collector",
                    "type": "address"
                },
                {
                    "indexed": false,
                    "internalType": "uint256",
                    "name": "_oldTotalUnderlyingBalance",
                    "type": "uint256"
                },
                {
                    "indexed": false,
                    "internalType": "uint256",
                    "name": "_oldTotalSupply",
                    "type": "uint256"
                },
                {
                    "indexed": false,
                    "internalType": "uint256",
                    "name": "_newTotalUnderlyingBalance",
                    "type": "uint256"
                },
                {
                    "indexed": false,
                    "internalType": "uint256",
                    "name": "_newTotalSupply",
                    "type": "uint256"
                }
            ],
            "name": "RewardsEarned",
            "type": "event"
        },
        {
            "anonymous": false,
            "inputs": [
                {
                    "indexed": true,
                    "internalType": "address",
                    "name": "admin",
                    "type": "address"
                }
            ],
            "name": "SetAdmin",
            "type": "event"
        },
        {
            "anonymous": false,
            "inputs": [
                {
                    "indexed": true,
                    "internalType": "address",
                    "name": "allowlist",
                    "type": "address"
                }
            ],
            "name": "SetAllowlist",
            "type": "event"
        },
        {
            "anonymous": false,
            "inputs": [
                {
                    "indexed": true,
                    "internalType": "address",
                    "name": "collector",
                    "type": "address"
                }
            ],
            "name": "SetCollector",
            "type": "event"
        },
        {
            "anonymous": false,
            "inputs": [
                {
                    "indexed": true,
                    "internalType": "address",
                    "name": "depositContract",
                    "type": "address"
                }
            ],
            "name": "SetDepositContractAddress",
            "type": "event"
        },
        {
            "anonymous": false,
            "inputs": [
                {
                    "indexed": true,
                    "internalType": "address",
                    "name": "elFeeRecipient",
                    "type": "address"
                }
            ],
            "name": "SetELFeeRecipient",
            "type": "event"
        },
        {
            "anonymous": false,
            "inputs": [
                {
                    "indexed": false,
                    "internalType": "uint256",
                    "name": "fee",
                    "type": "uint256"
                }
            ],
            "name": "SetGlobalFee",
            "type": "event"
        },
        {
            "anonymous": false,
            "inputs": [
                {
                    "indexed": true,
                    "internalType": "address",
                    "name": "operatorRegistry",
                    "type": "address"
                }
            ],
            "name": "SetOperatorsRegistry",
            "type": "event"
        },
        {
            "anonymous": false,
            "inputs": [
                {
                    "indexed": true,
                    "internalType": "address",
                    "name": "oracleAddress",
                    "type": "address"
                }
            ],
            "name": "SetOracle",
            "type": "event"
        },
        {
            "anonymous": false,
            "inputs": [
                {
                    "indexed": true,
                    "internalType": "address",
                    "name": "pendingAdmin",
                    "type": "address"
                }
            ],
            "name": "SetPendingAdmin",
            "type": "event"
        },
        {
            "anonymous": false,
            "inputs": [
                {
                    "indexed": false,
                    "internalType": "bytes32",
                    "name": "withdrawalCredentials",
                    "type": "bytes32"
                }
            ],
            "name": "SetWithdrawalCredentials",
            "type": "event"
        },
        {
            "anonymous": false,
            "inputs": [
                {
                    "indexed": true,
                    "internalType": "address",
                    "name": "from",
                    "type": "address"
                },
                {
                    "indexed": true,
                    "internalType": "address",
                    "name": "to",
                    "type": "address"
                },
                {
                    "indexed": false,
                    "internalType": "uint256",
                    "name": "value",
                    "type": "uint256"
                }
            ],
            "name": "Transfer",
            "type": "event"
        },
        {
            "anonymous": false,
            "inputs": [
                {
                    "indexed": true,
                    "internalType": "address",
                    "name": "depositor",
                    "type": "address"
                },
                {
                    "indexed": true,
                    "internalType": "address",
                    "name": "recipient",
                    "type": "address"
                },
                {
                    "indexed": false,
                    "internalType": "uint256",
                    "name": "amount",
                    "type": "uint256"
                }
            ],
            "name": "UserDeposit",
            "type": "event"
        },
        {
            "stateMutability": "payable",
            "type": "fallback"
        },
        {
            "inputs": [],
            "name": "DEPOSIT_SIZE",
            "outputs": [
                {
                    "internalType": "uint256",
                    "name": "",
                    "type": "uint256"
                }
            ],
            "stateMutability": "view",
            "type": "function"
        },
        {
            "inputs": [],
            "name": "PUBLIC_KEY_LENGTH",
            "outputs": [
                {
                    "internalType": "uint256",
                    "name": "",
                    "type": "uint256"
                }
            ],
            "stateMutability": "view",
            "type": "function"
        },
        {
            "inputs": [],
            "name": "SIGNATURE_LENGTH",
            "outputs": [
                {
                    "internalType": "uint256",
                    "name": "",
                    "type": "uint256"
                }
            ],
            "stateMutability": "view",
            "type": "function"
        },
        {
            "inputs": [],
            "name": "acceptAdmin",
            "outputs": [],
            "stateMutability": "nonpayable",
            "type": "function"
        },
        {
            "inputs": [
                {
                    "internalType": "address",
                    "name": "_owner",
                    "type": "address"
                },
                {
                    "internalType": "address",
                    "name": "_spender",
                    "type": "address"
                }
            ],
            "name": "allowance",
            "outputs": [
                {
                    "internalType": "uint256",
                    "name": "",
                    "type": "uint256"
                }
            ],
            "stateMutability": "view",
            "type": "function"
        },
        {
            "inputs": [
                {
                    "internalType": "address",
                    "name": "_spender",
                    "type": "address"
                },
                {
                    "internalType": "uint256",
                    "name": "_value",
                    "type": "uint256"
                }
            ],
            "name": "approve",
            "outputs": [
                {
                    "internalType": "bool",
                    "name": "",
                    "type": "bool"
                }
            ],
            "stateMutability": "nonpayable",
            "type": "function"
        },
        {
            "inputs": [
                {
                    "internalType": "address",
                    "name": "_owner",
                    "type": "address"
                }
            ],
            "name": "balanceOf",
            "outputs": [
                {
                    "internalType": "uint256",
                    "name": "",
                    "type": "uint256"
                }
            ],
            "stateMutability": "view",
            "type": "function"
        },
        {
            "inputs": [
                {
                    "internalType": "address",
                    "name": "_owner",
                    "type": "address"
                }
            ],
            "name": "balanceOfUnderlying",
            "outputs": [
                {
                    "internalType": "uint256",
                    "name": "",
                    "type": "uint256"
                }
            ],
            "stateMutability": "view",
            "type": "function"
        },
        {
            "inputs": [],
            "name": "decimals",
            "outputs": [
                {
                    "internalType": "uint8",
                    "name": "",
                    "type": "uint8"
                }
            ],
            "stateMutability": "pure",
            "type": "function"
        },
        {
            "inputs": [
                {
                    "internalType": "address",
                    "name": "_spender",
                    "type": "address"
                },
                {
                    "internalType": "uint256",
                    "name": "_subtractableValue",
                    "type": "uint256"
                }
            ],
            "name": "decreaseAllowance",
            "outputs": [
                {
                    "internalType": "bool",
                    "name": "",
                    "type": "bool"
                }
            ],
            "stateMutability": "nonpayable",
            "type": "function"
        },
        {
            "inputs": [],
            "name": "deposit",
            "outputs": [],
            "stateMutability": "payable",
            "type": "function"
        },
        {
            "inputs": [
                {
                    "internalType": "address",
                    "name": "_recipient",
                    "type": "address"
                }
            ],
            "name": "depositAndTransfer",
            "outputs": [],
            "stateMutability": "payable",
            "type": "function"
        },
        {
            "inputs": [
                {
                    "internalType": "uint256",
                    "name": "_maxCount",
                    "type": "uint256"
                }
            ],
            "name": "depositToConsensusLayer",
            "outputs": [],
            "stateMutability": "nonpayable",
            "type": "function"
        },
        {
            "inputs": [],
            "name": "getAdmin",
            "outputs": [
                {
                    "internalType": "address",
                    "name": "",
                    "type": "address"
                }
            ],
            "stateMutability": "view",
            "type": "function"
        },
        {
            "inputs": [],
            "name": "getAllowlist",
            "outputs": [
                {
                    "internalType": "address",
                    "name": "",
                    "type": "address"
                }
            ],
            "stateMutability": "view",
            "type": "function"
        },
        {
            "inputs": [],
            "name": "getBalanceToDeposit",
            "outputs": [
                {
                    "internalType": "uint256",
                    "name": "",
                    "type": "uint256"
                }
            ],
            "stateMutability": "view",
            "type": "function"
        },
        {
            "inputs": [],
            "name": "getCLValidatorCount",
            "outputs": [
                {
                    "internalType": "uint256",
                    "name": "",
                    "type": "uint256"
                }
            ],
            "stateMutability": "view",
            "type": "function"
        },
        {
            "inputs": [],
            "name": "getCLValidatorTotalBalance",
            "outputs": [
                {
                    "internalType": "uint256",
                    "name": "",
                    "type": "uint256"
                }
            ],
            "stateMutability": "view",
            "type": "function"
        },
        {
            "inputs": [],
            "name": "getCollector",
            "outputs": [
                {
                    "internalType": "address",
                    "name": "",
                    "type": "address"
                }
            ],
            "stateMutability": "view",
            "type": "function"
        },
        {
            "inputs": [],
            "name": "getDepositedValidatorCount",
            "outputs": [
                {
                    "internalType": "uint256",
                    "name": "",
                    "type": "uint256"
                }
            ],
            "stateMutability": "view",
            "type": "function"
        },
        {
            "inputs": [],
            "name": "getELFeeRecipient",
            "outputs": [
                {
                    "internalType": "address",
                    "name": "",
                    "type": "address"
                }
            ],
            "stateMutability": "view",
            "type": "function"
        },
        {
            "inputs": [],
            "name": "getGlobalFee",
            "outputs": [
                {
                    "internalType": "uint256",
                    "name": "",
                    "type": "uint256"
                }
            ],
            "stateMutability": "view",
            "type": "function"
        },
        {
            "inputs": [],
            "name": "getOperatorsRegistry",
            "outputs": [
                {
                    "internalType": "address",
                    "name": "",
                    "type": "address"
                }
            ],
            "stateMutability": "view",
            "type": "function"
        },
        {
            "inputs": [],
            "name": "getOracle",
            "outputs": [
                {
                    "internalType": "address",
                    "name": "",
                    "type": "address"
                }
            ],
            "stateMutability": "view",
            "type": "function"
        },
        {
            "inputs": [],
            "name": "getPendingAdmin",
            "outputs": [
                {
                    "internalType": "address",
                    "name": "",
                    "type": "address"
                }
            ],
            "stateMutability": "view",
            "type": "function"
        },
        {
            "inputs": [],
            "name": "getWithdrawalCredentials",
            "outputs": [
                {
                    "internalType": "bytes32",
                    "name": "",
                    "type": "bytes32"
                }
            ],
            "stateMutability": "view",
            "type": "function"
        },
        {
            "inputs": [
                {
                    "internalType": "address",
                    "name": "_spender",
                    "type": "address"
                },
                {
                    "internalType": "uint256",
                    "name": "_additionalValue",
                    "type": "uint256"
                }
            ],
            "name": "increaseAllowance",
            "outputs": [
                {
                    "internalType": "bool",
                    "name": "",
                    "type": "bool"
                }
            ],
            "stateMutability": "nonpayable",
            "type": "function"
        },
        {
            "inputs": [
                {
                    "internalType": "address",
                    "name": "_depositContractAddress",
                    "type": "address"
                },
                {
                    "internalType": "address",
                    "name": "_elFeeRecipientAddress",
                    "type": "address"
                },
                {
                    "internalType": "bytes32",
                    "name": "_withdrawalCredentials",
                    "type": "bytes32"
                },
                {
                    "internalType": "address",
                    "name": "_oracleAddress",
                    "type": "address"
                },
                {
                    "internalType": "address",
                    "name": "_systemAdministratorAddress",
                    "type": "address"
                },
                {
                    "internalType": "address",
                    "name": "_allowlistAddress",
                    "type": "address"
                },
                {
                    "internalType": "address",
                    "name": "_operatorRegistryAddress",
                    "type": "address"
                },
                {
                    "internalType": "address",
                    "name": "_collectorAddress",
                    "type": "address"
                },
                {
                    "internalType": "uint256",
                    "name": "_globalFee",
                    "type": "uint256"
                }
            ],
            "name": "initRiverV1",
            "outputs": [],
            "stateMutability": "nonpayable",
            "type": "function"
        },
        {
            "inputs": [],
            "name": "name",
            "outputs": [
                {
                    "internalType": "string",
                    "name": "",
                    "type": "string"
                }
            ],
            "stateMutability": "pure",
            "type": "function"
        },
        {
            "inputs": [
                {
                    "internalType": "address",
                    "name": "_newAdmin",
                    "type": "address"
                }
            ],
            "name": "proposeAdmin",
            "outputs": [],
            "stateMutability": "nonpayable",
            "type": "function"
        },
        {
            "inputs": [],
            "name": "sendELFees",
            "outputs": [],
            "stateMutability": "payable",
            "type": "function"
        },
        {
            "inputs": [
                {
                    "internalType": "address",
                    "name": "_newAllowlist",
                    "type": "address"
                }
            ],
            "name": "setAllowlist",
            "outputs": [],
            "stateMutability": "nonpayable",
            "type": "function"
        },
        {
            "inputs": [
                {
                    "internalType": "address",
                    "name": "_newCollector",
                    "type": "address"
                }
            ],
            "name": "setCollector",
            "outputs": [],
            "stateMutability": "nonpayable",
            "type": "function"
        },
        {
            "inputs": [
                {
                    "internalType": "uint256",
                    "name": "_validatorCount",
                    "type": "uint256"
                },
                {
                    "internalType": "uint256",
                    "name": "_validatorTotalBalance",
                    "type": "uint256"
                },
                {
                    "internalType": "bytes32",
                    "name": "_roundId",
                    "type": "bytes32"
                },
                {
                    "internalType": "uint256",
                    "name": "_maxIncrease",
                    "type": "uint256"
                }
            ],
            "name": "setConsensusLayerData",
            "outputs": [],
            "stateMutability": "nonpayable",
            "type": "function"
        },
        {
            "inputs": [
                {
                    "internalType": "address",
                    "name": "_newELFeeRecipient",
                    "type": "address"
                }
            ],
            "name": "setELFeeRecipient",
            "outputs": [],
            "stateMutability": "nonpayable",
            "type": "function"
        },
        {
            "inputs": [
                {
                    "internalType": "uint256",
                    "name": "newFee",
                    "type": "uint256"
                }
            ],
            "name": "setGlobalFee",
            "outputs": [],
            "stateMutability": "nonpayable",
            "type": "function"
        },
        {
            "inputs": [
                {
                    "internalType": "address",
                    "name": "_oracleAddress",
                    "type": "address"
                }
            ],
            "name": "setOracle",
            "outputs": [],
            "stateMutability": "nonpayable",
            "type": "function"
        },
        {
            "inputs": [
                {
                    "internalType": "uint256",
                    "name": "_underlyingAssetAmount",
                    "type": "uint256"
                }
            ],
            "name": "sharesFromUnderlyingBalance",
            "outputs": [
                {
                    "internalType": "uint256",
                    "name": "",
                    "type": "uint256"
                }
            ],
            "stateMutability": "view",
            "type": "function"
        },
        {
            "inputs": [],
            "name": "symbol",
            "outputs": [
                {
                    "internalType": "string",
                    "name": "",
                    "type": "string"
                }
            ],
            "stateMutability": "pure",
            "type": "function"
        },
        {
            "inputs": [],
            "name": "totalSupply",
            "outputs": [
                {
                    "internalType": "uint256",
                    "name": "",
                    "type": "uint256"
                }
            ],
            "stateMutability": "view",
            "type": "function"
        },
        {
            "inputs": [],
            "name": "totalUnderlyingSupply",
            "outputs": [
                {
                    "internalType": "uint256",
                    "name": "",
                    "type": "uint256"
                }
            ],
            "stateMutability": "view",
            "type": "function"
        },
        {
            "inputs": [
                {
                    "internalType": "address",
                    "name": "_to",
                    "type": "address"
                },
                {
                    "internalType": "uint256",
                    "name": "_value",
                    "type": "uint256"
                }
            ],
            "name": "transfer",
            "outputs": [
                {
                    "internalType": "bool",
                    "name": "",
                    "type": "bool"
                }
            ],
            "stateMutability": "nonpayable",
            "type": "function"
        },
        {
            "inputs": [
                {
                    "internalType": "address",
                    "name": "_from",
                    "type": "address"
                },
                {
                    "internalType": "address",
                    "name": "_to",
                    "type": "address"
                },
                {
                    "internalType": "uint256",
                    "name": "_value",
                    "type": "uint256"
                }
            ],
            "name": "transferFrom",
            "outputs": [
                {
                    "internalType": "bool",
                    "name": "",
                    "type": "bool"
                }
            ],
            "stateMutability": "nonpayable",
            "type": "function"
        },
        {
            "inputs": [
                {
                    "internalType": "uint256",
                    "name": "_shares",
                    "type": "uint256"
                }
            ],
            "name": "underlyingBalanceFromShares",
            "outputs": [
                {
                    "internalType": "uint256",
                    "name": "",
                    "type": "uint256"
                }
            ],
            "stateMutability": "view",
            "type": "function"
        },
        {
            "stateMutability": "payable",
            "type": "receive"
        },
        {
            "inputs": [
                {
                    "internalType": "address",
                    "name": "_from",
                    "type": "address"
                },
                {
                    "internalType": "address",
                    "name": "_operator",
                    "type": "address"
                },
                {
                    "internalType": "uint256",
                    "name": "_allowance",
                    "type": "uint256"
                },
                {
                    "internalType": "uint256",
                    "name": "_value",
                    "type": "uint256"
                }
            ],
            "name": "AllowanceTooLow",
            "type": "error"
        },
        {
            "inputs": [],
            "name": "BalanceTooLow",
            "type": "error"
        },
        {
            "inputs": [
                {
                    "internalType": "address",
                    "name": "account",
                    "type": "address"
                }
            ],
            "name": "Denied",
            "type": "error"
        },
        {
            "inputs": [],
            "name": "EmptyDeposit",
            "type": "error"
        },
        {
            "inputs": [],
            "name": "ErrorOnDeposit",
            "type": "error"
        },
        {
            "inputs": [],
            "name": "InconsistentPublicKeys",
            "type": "error"
        },
        {
            "inputs": [],
            "name": "InconsistentSignatures",
            "type": "error"
        },
        {
            "inputs": [],
            "name": "InvalidArgument",
            "type": "error"
        },
        {
            "inputs": [],
            "name": "InvalidCall",
            "type": "error"
        },
        {
            "inputs": [],
            "name": "InvalidEmptyString",
            "type": "error"
        },
        {
            "inputs": [],
            "name": "InvalidFee",
            "type": "error"
        },
        {
            "inputs": [
                {
                    "internalType": "uint256",
                    "name": "version",
                    "type": "uint256"
                },
                {
                    "internalType": "uint256",
                    "name": "expectedVersion",
                    "type": "uint256"
                }
            ],
            "name": "InvalidInitialization",
            "type": "error"
        },
        {
            "inputs": [],
            "name": "InvalidPublicKeyCount",
            "type": "error"
        },
        {
            "inputs": [],
            "name": "InvalidSignatureCount",
            "type": "error"
        },
        {
            "inputs": [
                {
                    "internalType": "uint256",
                    "name": "providedValidatorCount",
                    "type": "uint256"
                },
                {
                    "internalType": "uint256",
                    "name": "depositedValidatorCount",
                    "type": "uint256"
                }
            ],
            "name": "InvalidValidatorCountReport",
            "type": "error"
        },
        {
            "inputs": [],
            "name": "InvalidWithdrawalCredentials",
            "type": "error"
        },
        {
            "inputs": [],
            "name": "InvalidZeroAddress",
            "type": "error"
        },
        {
            "inputs": [],
            "name": "NoAvailableValidatorKeys",
            "type": "error"
        },
        {
            "inputs": [],
            "name": "NotEnoughFunds",
            "type": "error"
        },
        {
            "inputs": [],
            "name": "NullTransfer",
            "type": "error"
        },
        {
            "inputs": [],
            "name": "SliceOutOfBounds",
            "type": "error"
        },
        {
            "inputs": [],
            "name": "SliceOverflow",
            "type": "error"
        },
        {
            "inputs": [
                {
                    "internalType": "address",
                    "name": "caller",
                    "type": "address"
                }
            ],
            "name": "Unauthorized",
            "type": "error"
        },
        {
            "inputs": [
                {
                    "internalType": "address",
                    "name": "_from",
                    "type": "address"
                },
                {
                    "internalType": "address",
                    "name": "_to",
                    "type": "address"
                }
            ],
            "name": "UnauthorizedTransfer",
            "type": "error"
        },
        {
            "inputs": [],
            "name": "ZeroMintedShares",
            "type": "error"
        },
        {
            "anonymous": false,
            "inputs": [
                {
                    "indexed": true,
                    "internalType": "address",
                    "name": "owner",
                    "type": "address"
                },
                {
                    "indexed": true,
                    "internalType": "address",
                    "name": "spender",
                    "type": "address"
                },
                {
                    "indexed": false,
                    "internalType": "uint256",
                    "name": "value",
                    "type": "uint256"
                }
            ],
            "name": "Approval",
            "type": "event"
        },
        {
            "anonymous": false,
            "inputs": [
                {
                    "indexed": false,
                    "internalType": "uint256",
                    "name": "validatorCount",
                    "type": "uint256"
                },
                {
                    "indexed": false,
                    "internalType": "uint256",
                    "name": "validatorTotalBalance",
                    "type": "uint256"
                },
                {
                    "indexed": false,
                    "internalType": "bytes32",
                    "name": "roundId",
                    "type": "bytes32"
                }
            ],
            "name": "ConsensusLayerDataUpdate",
            "type": "event"
        },
        {
            "anonymous": false,
            "inputs": [
                {
                    "indexed": false,
                    "internalType": "bytes",
                    "name": "publicKey",
                    "type": "bytes"
                }
            ],
            "name": "FundedValidatorKey",
            "type": "event"
        },
        {
            "anonymous": false,
            "inputs": [
                {
                    "indexed": false,
                    "internalType": "uint256",
                    "name": "version",
                    "type": "uint256"
                },
                {
                    "indexed": false,
                    "internalType": "bytes",
                    "name": "cdata",
                    "type": "bytes"
                }
            ],
            "name": "Initialize",
            "type": "event"
        },
        {
            "anonymous": false,
            "inputs": [
                {
                    "indexed": false,
                    "internalType": "uint256",
                    "name": "amount",
                    "type": "uint256"
                }
            ],
            "name": "PulledCoverageFunds",
            "type": "event"
        },
        {
            "anonymous": false,
            "inputs": [
                {
                    "indexed": false,
                    "internalType": "uint256",
                    "name": "amount",
                    "type": "uint256"
                }
            ],
            "name": "PulledELFees",
            "type": "event"
        },
        {
            "anonymous": false,
            "inputs": [
                {
                    "indexed": true,
                    "internalType": "address",
                    "name": "_collector",
                    "type": "address"
                },
                {
                    "indexed": false,
                    "internalType": "uint256",
                    "name": "_oldTotalUnderlyingBalance",
                    "type": "uint256"
                },
                {
                    "indexed": false,
                    "internalType": "uint256",
                    "name": "_oldTotalSupply",
                    "type": "uint256"
                },
                {
                    "indexed": false,
                    "internalType": "uint256",
                    "name": "_newTotalUnderlyingBalance",
                    "type": "uint256"
                },
                {
                    "indexed": false,
                    "internalType": "uint256",
                    "name": "_newTotalSupply",
                    "type": "uint256"
                }
            ],
            "name": "RewardsEarned",
            "type": "event"
        },
        {
            "anonymous": false,
            "inputs": [
                {
                    "indexed": true,
                    "internalType": "address",
                    "name": "admin",
                    "type": "address"
                }
            ],
            "name": "SetAdmin",
            "type": "event"
        },
        {
            "anonymous": false,
            "inputs": [
                {
                    "indexed": true,
                    "internalType": "address",
                    "name": "allowlist",
                    "type": "address"
                }
            ],
            "name": "SetAllowlist",
            "type": "event"
        },
        {
            "anonymous": false,
            "inputs": [
                {
                    "indexed": true,
                    "internalType": "address",
                    "name": "collector",
                    "type": "address"
                }
            ],
            "name": "SetCollector",
            "type": "event"
        },
        {
            "anonymous": false,
            "inputs": [
                {
                    "indexed": true,
                    "internalType": "address",
                    "name": "coverageFund",
                    "type": "address"
                }
            ],
            "name": "SetCoverageFund",
            "type": "event"
        },
        {
            "anonymous": false,
            "inputs": [
                {
                    "indexed": true,
                    "internalType": "address",
                    "name": "depositContract",
                    "type": "address"
                }
            ],
            "name": "SetDepositContractAddress",
            "type": "event"
        },
        {
            "anonymous": false,
            "inputs": [
                {
                    "indexed": true,
                    "internalType": "address",
                    "name": "elFeeRecipient",
                    "type": "address"
                }
            ],
            "name": "SetELFeeRecipient",
            "type": "event"
        },
        {
            "anonymous": false,
            "inputs": [
                {
                    "indexed": false,
                    "internalType": "uint256",
                    "name": "fee",
                    "type": "uint256"
                }
            ],
            "name": "SetGlobalFee",
            "type": "event"
        },
        {
            "anonymous": false,
            "inputs": [
                {
                    "indexed": false,
                    "internalType": "string",
                    "name": "metadataURI",
                    "type": "string"
                }
            ],
            "name": "SetMetadataURI",
            "type": "event"
        },
        {
            "anonymous": false,
            "inputs": [
                {
                    "indexed": true,
                    "internalType": "address",
                    "name": "operatorRegistry",
                    "type": "address"
                }
            ],
            "name": "SetOperatorsRegistry",
            "type": "event"
        },
        {
            "anonymous": false,
            "inputs": [
                {
                    "indexed": true,
                    "internalType": "address",
                    "name": "oracleAddress",
                    "type": "address"
                }
            ],
            "name": "SetOracle",
            "type": "event"
        },
        {
            "anonymous": false,
            "inputs": [
                {
                    "indexed": true,
                    "internalType": "address",
                    "name": "pendingAdmin",
                    "type": "address"
                }
            ],
            "name": "SetPendingAdmin",
            "type": "event"
        },
        {
            "anonymous": false,
            "inputs": [
                {
                    "indexed": false,
                    "internalType": "bytes32",
                    "name": "withdrawalCredentials",
                    "type": "bytes32"
                }
            ],
            "name": "SetWithdrawalCredentials",
            "type": "event"
        },
        {
            "anonymous": false,
            "inputs": [
                {
                    "indexed": true,
                    "internalType": "address",
                    "name": "from",
                    "type": "address"
                },
                {
                    "indexed": true,
                    "internalType": "address",
                    "name": "to",
                    "type": "address"
                },
                {
                    "indexed": false,
                    "internalType": "uint256",
                    "name": "value",
                    "type": "uint256"
                }
            ],
            "name": "Transfer",
            "type": "event"
        },
        {
            "anonymous": false,
            "inputs": [
                {
                    "indexed": true,
                    "internalType": "address",
                    "name": "depositor",
                    "type": "address"
                },
                {
                    "indexed": true,
                    "internalType": "address",
                    "name": "recipient",
                    "type": "address"
                },
                {
                    "indexed": false,
                    "internalType": "uint256",
                    "name": "amount",
                    "type": "uint256"
                }
            ],
            "name": "UserDeposit",
            "type": "event"
        },
        {
            "stateMutability": "payable",
            "type": "fallback"
        },
        {
            "inputs": [],
            "name": "DEPOSIT_SIZE",
            "outputs": [
                {
                    "internalType": "uint256",
                    "name": "",
                    "type": "uint256"
                }
            ],
            "stateMutability": "view",
            "type": "function"
        },
        {
            "inputs": [],
            "name": "PUBLIC_KEY_LENGTH",
            "outputs": [
                {
                    "internalType": "uint256",
                    "name": "",
                    "type": "uint256"
                }
            ],
            "stateMutability": "view",
            "type": "function"
        },
        {
            "inputs": [],
            "name": "SIGNATURE_LENGTH",
            "outputs": [
                {
                    "internalType": "uint256",
                    "name": "",
                    "type": "uint256"
                }
            ],
            "stateMutability": "view",
            "type": "function"
        },
        {
            "inputs": [],
            "name": "acceptAdmin",
            "outputs": [],
            "stateMutability": "nonpayable",
            "type": "function"
        },
        {
            "inputs": [
                {
                    "internalType": "address",
                    "name": "_owner",
                    "type": "address"
                },
                {
                    "internalType": "address",
                    "name": "_spender",
                    "type": "address"
                }
            ],
            "name": "allowance",
            "outputs": [
                {
                    "internalType": "uint256",
                    "name": "",
                    "type": "uint256"
                }
            ],
            "stateMutability": "view",
            "type": "function"
        },
        {
            "inputs": [
                {
                    "internalType": "address",
                    "name": "_spender",
                    "type": "address"
                },
                {
                    "internalType": "uint256",
                    "name": "_value",
                    "type": "uint256"
                }
            ],
            "name": "approve",
            "outputs": [
                {
                    "internalType": "bool",
                    "name": "",
                    "type": "bool"
                }
            ],
            "stateMutability": "nonpayable",
            "type": "function"
        },
        {
            "inputs": [
                {
                    "internalType": "address",
                    "name": "_owner",
                    "type": "address"
                }
            ],
            "name": "balanceOf",
            "outputs": [
                {
                    "internalType": "uint256",
                    "name": "",
                    "type": "uint256"
                }
            ],
            "stateMutability": "view",
            "type": "function"
        },
        {
            "inputs": [
                {
                    "internalType": "address",
                    "name": "_owner",
                    "type": "address"
                }
            ],
            "name": "balanceOfUnderlying",
            "outputs": [
                {
                    "internalType": "uint256",
                    "name": "",
                    "type": "uint256"
                }
            ],
            "stateMutability": "view",
            "type": "function"
        },
        {
            "inputs": [],
            "name": "decimals",
            "outputs": [
                {
                    "internalType": "uint8",
                    "name": "",
                    "type": "uint8"
                }
            ],
            "stateMutability": "pure",
            "type": "function"
        },
        {
            "inputs": [
                {
                    "internalType": "address",
                    "name": "_spender",
                    "type": "address"
                },
                {
                    "internalType": "uint256",
                    "name": "_subtractableValue",
                    "type": "uint256"
                }
            ],
            "name": "decreaseAllowance",
            "outputs": [
                {
                    "internalType": "bool",
                    "name": "",
                    "type": "bool"
                }
            ],
            "stateMutability": "nonpayable",
            "type": "function"
        },
        {
            "inputs": [],
            "name": "deposit",
            "outputs": [],
            "stateMutability": "payable",
            "type": "function"
        },
        {
            "inputs": [
                {
                    "internalType": "address",
                    "name": "_recipient",
                    "type": "address"
                }
            ],
            "name": "depositAndTransfer",
            "outputs": [],
            "stateMutability": "payable",
            "type": "function"
        },
        {
            "inputs": [
                {
                    "internalType": "uint256",
                    "name": "_maxCount",
                    "type": "uint256"
                }
            ],
            "name": "depositToConsensusLayer",
            "outputs": [],
            "stateMutability": "nonpayable",
            "type": "function"
        },
        {
            "inputs": [],
            "name": "getAdmin",
            "outputs": [
                {
                    "internalType": "address",
                    "name": "",
                    "type": "address"
                }
            ],
            "stateMutability": "view",
            "type": "function"
        },
        {
            "inputs": [],
            "name": "getAllowlist",
            "outputs": [
                {
                    "internalType": "address",
                    "name": "",
                    "type": "address"
                }
            ],
            "stateMutability": "view",
            "type": "function"
        },
        {
            "inputs": [],
            "name": "getBalanceToDeposit",
            "outputs": [
                {
                    "internalType": "uint256",
                    "name": "",
                    "type": "uint256"
                }
            ],
            "stateMutability": "view",
            "type": "function"
        },
        {
            "inputs": [],
            "name": "getCLValidatorCount",
            "outputs": [
                {
                    "internalType": "uint256",
                    "name": "",
                    "type": "uint256"
                }
            ],
            "stateMutability": "view",
            "type": "function"
        },
        {
            "inputs": [],
            "name": "getCLValidatorTotalBalance",
            "outputs": [
                {
                    "internalType": "uint256",
                    "name": "",
                    "type": "uint256"
                }
            ],
            "stateMutability": "view",
            "type": "function"
        },
        {
            "inputs": [],
            "name": "getCollector",
            "outputs": [
                {
                    "internalType": "address",
                    "name": "",
                    "type": "address"
                }
            ],
            "stateMutability": "view",
            "type": "function"
        },
        {
            "inputs": [],
            "name": "getCoverageFund",
            "outputs": [
                {
                    "internalType": "address",
                    "name": "",
                    "type": "address"
                }
            ],
            "stateMutability": "view",
            "type": "function"
        },
        {
            "inputs": [],
            "name": "getDepositedValidatorCount",
            "outputs": [
                {
                    "internalType": "uint256",
                    "name": "",
                    "type": "uint256"
                }
            ],
            "stateMutability": "view",
            "type": "function"
        },
        {
            "inputs": [],
            "name": "getELFeeRecipient",
            "outputs": [
                {
                    "internalType": "address",
                    "name": "",
                    "type": "address"
                }
            ],
            "stateMutability": "view",
            "type": "function"
        },
        {
            "inputs": [],
            "name": "getGlobalFee",
            "outputs": [
                {
                    "internalType": "uint256",
                    "name": "",
                    "type": "uint256"
                }
            ],
            "stateMutability": "view",
            "type": "function"
        },
        {
            "inputs": [],
            "name": "getMetadataURI",
            "outputs": [
                {
                    "internalType": "string",
                    "name": "",
                    "type": "string"
                }
            ],
            "stateMutability": "view",
            "type": "function"
        },
        {
            "inputs": [],
            "name": "getOperatorsRegistry",
            "outputs": [
                {
                    "internalType": "address",
                    "name": "",
                    "type": "address"
                }
            ],
            "stateMutability": "view",
            "type": "function"
        },
        {
            "inputs": [],
            "name": "getOracle",
            "outputs": [
                {
                    "internalType": "address",
                    "name": "",
                    "type": "address"
                }
            ],
            "stateMutability": "view",
            "type": "function"
        },
        {
            "inputs": [],
            "name": "getPendingAdmin",
            "outputs": [
                {
                    "internalType": "address",
                    "name": "",
                    "type": "address"
                }
            ],
            "stateMutability": "view",
            "type": "function"
        },
        {
            "inputs": [],
            "name": "getWithdrawalCredentials",
            "outputs": [
                {
                    "internalType": "bytes32",
                    "name": "",
                    "type": "bytes32"
                }
            ],
            "stateMutability": "view",
            "type": "function"
        },
        {
            "inputs": [
                {
                    "internalType": "address",
                    "name": "_spender",
                    "type": "address"
                },
                {
                    "internalType": "uint256",
                    "name": "_additionalValue",
                    "type": "uint256"
                }
            ],
            "name": "increaseAllowance",
            "outputs": [
                {
                    "internalType": "bool",
                    "name": "",
                    "type": "bool"
                }
            ],
            "stateMutability": "nonpayable",
            "type": "function"
        },
        {
            "inputs": [
                {
                    "internalType": "address",
                    "name": "_depositContractAddress",
                    "type": "address"
                },
                {
                    "internalType": "address",
                    "name": "_elFeeRecipientAddress",
                    "type": "address"
                },
                {
                    "internalType": "bytes32",
                    "name": "_withdrawalCredentials",
                    "type": "bytes32"
                },
                {
                    "internalType": "address",
                    "name": "_oracleAddress",
                    "type": "address"
                },
                {
                    "internalType": "address",
                    "name": "_systemAdministratorAddress",
                    "type": "address"
                },
                {
                    "internalType": "address",
                    "name": "_allowlistAddress",
                    "type": "address"
                },
                {
                    "internalType": "address",
                    "name": "_operatorRegistryAddress",
                    "type": "address"
                },
                {
                    "internalType": "address",
                    "name": "_collectorAddress",
                    "type": "address"
                },
                {
                    "internalType": "uint256",
                    "name": "_globalFee",
                    "type": "uint256"
                }
            ],
            "name": "initRiverV1",
            "outputs": [],
            "stateMutability": "nonpayable",
            "type": "function"
        },
        {
            "inputs": [],
            "name": "name",
            "outputs": [
                {
                    "internalType": "string",
                    "name": "",
                    "type": "string"
                }
            ],
            "stateMutability": "pure",
            "type": "function"
        },
        {
            "inputs": [
                {
                    "internalType": "address",
                    "name": "_newAdmin",
                    "type": "address"
                }
            ],
            "name": "proposeAdmin",
            "outputs": [],
            "stateMutability": "nonpayable",
            "type": "function"
        },
        {
            "inputs": [],
            "name": "sendCoverageFunds",
            "outputs": [],
            "stateMutability": "payable",
            "type": "function"
        },
        {
            "inputs": [],
            "name": "sendELFees",
            "outputs": [],
            "stateMutability": "payable",
            "type": "function"
        },
        {
            "inputs": [
                {
                    "internalType": "address",
                    "name": "_newAllowlist",
                    "type": "address"
                }
            ],
            "name": "setAllowlist",
            "outputs": [],
            "stateMutability": "nonpayable",
            "type": "function"
        },
        {
            "inputs": [
                {
                    "internalType": "address",
                    "name": "_newCollector",
                    "type": "address"
                }
            ],
            "name": "setCollector",
            "outputs": [],
            "stateMutability": "nonpayable",
            "type": "function"
        },
        {
            "inputs": [
                {
                    "internalType": "uint256",
                    "name": "_validatorCount",
                    "type": "uint256"
                },
                {
                    "internalType": "uint256",
                    "name": "_validatorTotalBalance",
                    "type": "uint256"
                },
                {
                    "internalType": "bytes32",
                    "name": "_roundId",
                    "type": "bytes32"
                },
                {
                    "internalType": "uint256",
                    "name": "_maxIncrease",
                    "type": "uint256"
                }
            ],
            "name": "setConsensusLayerData",
            "outputs": [],
            "stateMutability": "nonpayable",
            "type": "function"
        },
        {
            "inputs": [
                {
                    "internalType": "address",
                    "name": "_newCoverageFund",
                    "type": "address"
                }
            ],
            "name": "setCoverageFund",
            "outputs": [],
            "stateMutability": "nonpayable",
            "type": "function"
        },
        {
            "inputs": [
                {
                    "internalType": "address",
                    "name": "_newELFeeRecipient",
                    "type": "address"
                }
            ],
            "name": "setELFeeRecipient",
            "outputs": [],
            "stateMutability": "nonpayable",
            "type": "function"
        },
        {
            "inputs": [
                {
                    "internalType": "uint256",
                    "name": "newFee",
                    "type": "uint256"
                }
            ],
            "name": "setGlobalFee",
            "outputs": [],
            "stateMutability": "nonpayable",
            "type": "function"
        },
        {
            "inputs": [
                {
                    "internalType": "string",
                    "name": "_metadataURI",
                    "type": "string"
                }
            ],
            "name": "setMetadataURI",
            "outputs": [],
            "stateMutability": "nonpayable",
            "type": "function"
        },
        {
            "inputs": [
                {
                    "internalType": "address",
                    "name": "_oracleAddress",
                    "type": "address"
                }
            ],
            "name": "setOracle",
            "outputs": [],
            "stateMutability": "nonpayable",
            "type": "function"
        },
        {
            "inputs": [
                {
                    "internalType": "uint256",
                    "name": "_underlyingAssetAmount",
                    "type": "uint256"
                }
            ],
            "name": "sharesFromUnderlyingBalance",
            "outputs": [
                {
                    "internalType": "uint256",
                    "name": "",
                    "type": "uint256"
                }
            ],
            "stateMutability": "view",
            "type": "function"
        },
        {
            "inputs": [],
            "name": "symbol",
            "outputs": [
                {
                    "internalType": "string",
                    "name": "",
                    "type": "string"
                }
            ],
            "stateMutability": "pure",
            "type": "function"
        },
        {
            "inputs": [],
            "name": "totalSupply",
            "outputs": [
                {
                    "internalType": "uint256",
                    "name": "",
                    "type": "uint256"
                }
            ],
            "stateMutability": "view",
            "type": "function"
        },
        {
            "inputs": [],
            "name": "totalUnderlyingSupply",
            "outputs": [
                {
                    "internalType": "uint256",
                    "name": "",
                    "type": "uint256"
                }
            ],
            "stateMutability": "view",
            "type": "function"
        },
        {
            "inputs": [
                {
                    "internalType": "address",
                    "name": "_to",
                    "type": "address"
                },
                {
                    "internalType": "uint256",
                    "name": "_value",
                    "type": "uint256"
                }
            ],
            "name": "transfer",
            "outputs": [
                {
                    "internalType": "bool",
                    "name": "",
                    "type": "bool"
                }
            ],
            "stateMutability": "nonpayable",
            "type": "function"
        },
        {
            "inputs": [
                {
                    "internalType": "address",
                    "name": "_from",
                    "type": "address"
                },
                {
                    "internalType": "address",
                    "name": "_to",
                    "type": "address"
                },
                {
                    "internalType": "uint256",
                    "name": "_value",
                    "type": "uint256"
                }
            ],
            "name": "transferFrom",
            "outputs": [
                {
                    "internalType": "bool",
                    "name": "",
                    "type": "bool"
                }
            ],
            "stateMutability": "nonpayable",
            "type": "function"
        },
        {
            "inputs": [
                {
                    "internalType": "uint256",
                    "name": "_shares",
                    "type": "uint256"
                }
            ],
            "name": "underlyingBalanceFromShares",
            "outputs": [
                {
                    "internalType": "uint256",
                    "name": "",
                    "type": "uint256"
                }
            ],
            "stateMutability": "view",
            "type": "function"
        },
        {
            "stateMutability": "payable",
            "type": "receive"
        },
        {
            "inputs": [
                {
                    "internalType": "address",
                    "name": "_from",
                    "type": "address"
                },
                {
                    "internalType": "address",
                    "name": "_operator",
                    "type": "address"
                },
                {
                    "internalType": "uint256",
                    "name": "_allowance",
                    "type": "uint256"
                },
                {
                    "internalType": "uint256",
                    "name": "_value",
                    "type": "uint256"
                }
            ],
            "name": "AllowanceTooLow",
            "type": "error"
        },
        {
            "inputs": [],
            "name": "BalanceTooLow",
            "type": "error"
        },
        {
            "inputs": [
                {
                    "internalType": "address",
                    "name": "account",
                    "type": "address"
                }
            ],
            "name": "Denied",
            "type": "error"
        },
        {
            "inputs": [],
            "name": "EmptyDeposit",
            "type": "error"
        },
        {
            "inputs": [],
            "name": "ErrorOnDeposit",
            "type": "error"
        },
        {
            "inputs": [],
            "name": "InconsistentPublicKeys",
            "type": "error"
        },
        {
            "inputs": [],
            "name": "InconsistentSignatures",
            "type": "error"
        },
        {
            "inputs": [],
            "name": "InvalidArgument",
            "type": "error"
        },
        {
            "inputs": [],
            "name": "InvalidCall",
            "type": "error"
        },
        {
            "inputs": [
                {
                    "internalType": "uint256",
                    "name": "currentValidatorsExitedBalance",
                    "type": "uint256"
                },
                {
                    "internalType": "uint256",
                    "name": "newValidatorsExitedBalance",
                    "type": "uint256"
                }
            ],
            "name": "InvalidDecreasingValidatorsExitedBalance",
            "type": "error"
        },
        {
            "inputs": [
                {
                    "internalType": "uint256",
                    "name": "currentValidatorsSkimmedBalance",
                    "type": "uint256"
                },
                {
                    "internalType": "uint256",
                    "name": "newValidatorsSkimmedBalance",
                    "type": "uint256"
                }
            ],
            "name": "InvalidDecreasingValidatorsSkimmedBalance",
            "type": "error"
        },
        {
            "inputs": [],
            "name": "InvalidEmptyString",
            "type": "error"
        },
        {
            "inputs": [
                {
                    "internalType": "uint256",
                    "name": "epoch",
                    "type": "uint256"
                }
            ],
            "name": "InvalidEpoch",
            "type": "error"
        },
        {
            "inputs": [],
            "name": "InvalidFee",
            "type": "error"
        },
        {
            "inputs": [
                {
                    "internalType": "uint256",
                    "name": "version",
                    "type": "uint256"
                },
                {
                    "internalType": "uint256",
                    "name": "expectedVersion",
                    "type": "uint256"
                }
            ],
            "name": "InvalidInitialization",
            "type": "error"
        },
        {
            "inputs": [],
            "name": "InvalidPublicKeyCount",
            "type": "error"
        },
        {
            "inputs": [
                {
                    "internalType": "uint256",
                    "name": "requested",
                    "type": "uint256"
                },
                {
                    "internalType": "uint256",
                    "name": "received",
                    "type": "uint256"
                }
            ],
            "name": "InvalidPulledClFundsAmount",
            "type": "error"
        },
        {
            "inputs": [],
            "name": "InvalidSignatureCount",
            "type": "error"
        },
        {
            "inputs": [
                {
                    "internalType": "uint256",
                    "name": "providedValidatorCount",
                    "type": "uint256"
                },
                {
                    "internalType": "uint256",
                    "name": "depositedValidatorCount",
                    "type": "uint256"
                },
                {
                    "internalType": "uint256",
                    "name": "lastReportedValidatorCount",
                    "type": "uint256"
                }
            ],
            "name": "InvalidValidatorCountReport",
            "type": "error"
        },
        {
            "inputs": [],
            "name": "InvalidWithdrawalCredentials",
            "type": "error"
        },
        {
            "inputs": [],
            "name": "InvalidZeroAddress",
            "type": "error"
        },
        {
            "inputs": [],
            "name": "NoAvailableValidatorKeys",
            "type": "error"
        },
        {
            "inputs": [],
            "name": "NotEnoughFunds",
            "type": "error"
        },
        {
            "inputs": [],
            "name": "NullTransfer",
            "type": "error"
        },
        {
            "inputs": [],
            "name": "SliceOutOfBounds",
            "type": "error"
        },
        {
            "inputs": [],
            "name": "SliceOverflow",
            "type": "error"
        },
        {
            "inputs": [
                {
                    "internalType": "uint256",
                    "name": "prevTotalEthIncludingExited",
                    "type": "uint256"
                },
                {
                    "internalType": "uint256",
                    "name": "postTotalEthIncludingExited",
                    "type": "uint256"
                },
                {
                    "internalType": "uint256",
                    "name": "timeElapsed",
                    "type": "uint256"
                },
                {
                    "internalType": "uint256",
                    "name": "relativeLowerBound",
                    "type": "uint256"
                }
            ],
            "name": "TotalValidatorBalanceDecreaseOutOfBound",
            "type": "error"
        },
        {
            "inputs": [
                {
                    "internalType": "uint256",
                    "name": "prevTotalEthIncludingExited",
                    "type": "uint256"
                },
                {
                    "internalType": "uint256",
                    "name": "postTotalEthIncludingExited",
                    "type": "uint256"
                },
                {
                    "internalType": "uint256",
                    "name": "timeElapsed",
                    "type": "uint256"
                },
                {
                    "internalType": "uint256",
                    "name": "annualAprUpperBound",
                    "type": "uint256"
                }
            ],
            "name": "TotalValidatorBalanceIncreaseOutOfBound",
            "type": "error"
        },
        {
            "inputs": [
                {
                    "internalType": "address",
                    "name": "caller",
                    "type": "address"
                }
            ],
            "name": "Unauthorized",
            "type": "error"
        },
        {
            "inputs": [
                {
                    "internalType": "address",
                    "name": "_from",
                    "type": "address"
                },
                {
                    "internalType": "address",
                    "name": "_to",
                    "type": "address"
                }
            ],
            "name": "UnauthorizedTransfer",
            "type": "error"
        },
        {
            "inputs": [],
            "name": "ZeroMintedShares",
            "type": "error"
        },
        {
            "anonymous": false,
            "inputs": [
                {
                    "indexed": true,
                    "internalType": "address",
                    "name": "owner",
                    "type": "address"
                },
                {
                    "indexed": true,
                    "internalType": "address",
                    "name": "spender",
                    "type": "address"
                },
                {
                    "indexed": false,
                    "internalType": "uint256",
                    "name": "value",
                    "type": "uint256"
                }
            ],
            "name": "Approval",
            "type": "event"
        },
        {
            "anonymous": false,
            "inputs": [
                {
                    "indexed": false,
                    "internalType": "uint256",
                    "name": "validatorCount",
                    "type": "uint256"
                },
                {
                    "indexed": false,
                    "internalType": "uint256",
                    "name": "validatorTotalBalance",
                    "type": "uint256"
                },
                {
                    "indexed": false,
                    "internalType": "bytes32",
                    "name": "roundId",
                    "type": "bytes32"
                }
            ],
            "name": "ConsensusLayerDataUpdate",
            "type": "event"
        },
        {
            "anonymous": false,
            "inputs": [
                {
                    "indexed": false,
                    "internalType": "uint256",
                    "name": "version",
                    "type": "uint256"
                },
                {
                    "indexed": false,
                    "internalType": "bytes",
                    "name": "cdata",
                    "type": "bytes"
                }
            ],
            "name": "Initialize",
            "type": "event"
        },
        {
            "anonymous": false,
            "inputs": [
                {
                    "components": [
                        {
                            "internalType": "uint256",
                            "name": "epoch",
                            "type": "uint256"
                        },
                        {
                            "internalType": "uint256",
                            "name": "validatorsBalance",
                            "type": "uint256"
                        },
                        {
                            "internalType": "uint256",
                            "name": "validatorsSkimmedBalance",
                            "type": "uint256"
                        },
                        {
                            "internalType": "uint256",
                            "name": "validatorsExitedBalance",
                            "type": "uint256"
                        },
                        {
                            "internalType": "uint256",
                            "name": "validatorsExitingBalance",
                            "type": "uint256"
                        },
                        {
                            "internalType": "uint32",
                            "name": "validatorsCount",
                            "type": "uint32"
                        },
                        {
                            "internalType": "uint32[]",
                            "name": "stoppedValidatorCountPerOperator",
                            "type": "uint32[]"
                        },
                        {
                            "internalType": "bool",
                            "name": "rebalanceDepositToRedeemMode",
                            "type": "bool"
                        },
                        {
                            "internalType": "bool",
                            "name": "slashingContainmentMode",
                            "type": "bool"
                        }
                    ],
                    "indexed": false,
                    "internalType": "struct IOracleManagerV1.ConsensusLayerReport",
                    "name": "report",
                    "type": "tuple"
                },
                {
                    "components": [
                        {
                            "internalType": "uint256",
                            "name": "rewards",
                            "type": "uint256"
                        },
                        {
                            "internalType": "uint256",
                            "name": "pulledELFees",
                            "type": "uint256"
                        },
                        {
                            "internalType": "uint256",
                            "name": "pulledRedeemManagerExceedingEthBuffer",
                            "type": "uint256"
                        },
                        {
                            "internalType": "uint256",
                            "name": "pulledCoverageFunds",
                            "type": "uint256"
                        }
                    ],
                    "indexed": false,
                    "internalType": "struct IOracleManagerV1.ConsensusLayerDataReportingTrace",
                    "name": "trace",
                    "type": "tuple"
                }
            ],
            "name": "ProcessedConsensusLayerReport",
            "type": "event"
        },
        {
            "anonymous": false,
            "inputs": [
                {
                    "indexed": false,
                    "internalType": "uint256",
                    "name": "pulledSkimmedEthAmount",
                    "type": "uint256"
                },
                {
                    "indexed": false,
                    "internalType": "uint256",
                    "name": "pullExitedEthAmount",
                    "type": "uint256"
                }
            ],
            "name": "PulledCLFunds",
            "type": "event"
        },
        {
            "anonymous": false,
            "inputs": [
                {
                    "indexed": false,
                    "internalType": "uint256",
                    "name": "amount",
                    "type": "uint256"
                }
            ],
            "name": "PulledCoverageFunds",
            "type": "event"
        },
        {
            "anonymous": false,
            "inputs": [
                {
                    "indexed": false,
                    "internalType": "uint256",
                    "name": "amount",
                    "type": "uint256"
                }
            ],
            "name": "PulledELFees",
            "type": "event"
        },
        {
            "anonymous": false,
            "inputs": [
                {
                    "indexed": false,
                    "internalType": "uint256",
                    "name": "amount",
                    "type": "uint256"
                }
            ],
            "name": "PulledRedeemManagerExceedingEth",
            "type": "event"
        },
        {
            "anonymous": false,
            "inputs": [
                {
                    "indexed": false,
                    "internalType": "uint256",
                    "name": "redeemManagerDemand",
                    "type": "uint256"
                },
                {
                    "indexed": false,
                    "internalType": "uint256",
                    "name": "suppliedRedeemManagerDemand",
                    "type": "uint256"
                },
                {
                    "indexed": false,
                    "internalType": "uint256",
                    "name": "suppliedRedeemManagerDemandInEth",
                    "type": "uint256"
                }
            ],
            "name": "ReportedRedeemManager",
            "type": "event"
        },
        {
            "anonymous": false,
            "inputs": [
                {
                    "indexed": true,
                    "internalType": "address",
                    "name": "_collector",
                    "type": "address"
                },
                {
                    "indexed": false,
                    "internalType": "uint256",
                    "name": "_oldTotalUnderlyingBalance",
                    "type": "uint256"
                },
                {
                    "indexed": false,
                    "internalType": "uint256",
                    "name": "_oldTotalSupply",
                    "type": "uint256"
                },
                {
                    "indexed": false,
                    "internalType": "uint256",
                    "name": "_newTotalUnderlyingBalance",
                    "type": "uint256"
                },
                {
                    "indexed": false,
                    "internalType": "uint256",
                    "name": "_newTotalSupply",
                    "type": "uint256"
                }
            ],
            "name": "RewardsEarned",
            "type": "event"
        },
        {
            "anonymous": false,
            "inputs": [
                {
                    "indexed": true,
                    "internalType": "address",
                    "name": "admin",
                    "type": "address"
                }
            ],
            "name": "SetAdmin",
            "type": "event"
        },
        {
            "anonymous": false,
            "inputs": [
                {
                    "indexed": true,
                    "internalType": "address",
                    "name": "allowlist",
                    "type": "address"
                }
            ],
            "name": "SetAllowlist",
            "type": "event"
        },
        {
            "anonymous": false,
            "inputs": [
                {
                    "indexed": false,
                    "internalType": "uint256",
                    "name": "oldAmount",
                    "type": "uint256"
                },
                {
                    "indexed": false,
                    "internalType": "uint256",
                    "name": "newAmount",
                    "type": "uint256"
                }
            ],
            "name": "SetBalanceCommittedToDeposit",
            "type": "event"
        },
        {
            "anonymous": false,
            "inputs": [
                {
                    "indexed": false,
                    "internalType": "uint256",
                    "name": "oldAmount",
                    "type": "uint256"
                },
                {
                    "indexed": false,
                    "internalType": "uint256",
                    "name": "newAmount",
                    "type": "uint256"
                }
            ],
            "name": "SetBalanceToDeposit",
            "type": "event"
        },
        {
            "anonymous": false,
            "inputs": [
                {
                    "indexed": false,
                    "internalType": "uint256",
                    "name": "oldAmount",
                    "type": "uint256"
                },
                {
                    "indexed": false,
                    "internalType": "uint256",
                    "name": "newAmount",
                    "type": "uint256"
                }
            ],
            "name": "SetBalanceToRedeem",
            "type": "event"
        },
        {
            "anonymous": false,
            "inputs": [
                {
                    "indexed": false,
                    "internalType": "uint256",
                    "name": "annualAprUpperBound",
                    "type": "uint256"
                },
                {
                    "indexed": false,
                    "internalType": "uint256",
                    "name": "relativeLowerBound",
                    "type": "uint256"
                }
            ],
            "name": "SetBounds",
            "type": "event"
        },
        {
            "anonymous": false,
            "inputs": [
                {
                    "indexed": true,
                    "internalType": "address",
                    "name": "collector",
                    "type": "address"
                }
            ],
            "name": "SetCollector",
            "type": "event"
        },
        {
            "anonymous": false,
            "inputs": [
                {
                    "indexed": true,
                    "internalType": "address",
                    "name": "coverageFund",
                    "type": "address"
                }
            ],
            "name": "SetCoverageFund",
            "type": "event"
        },
        {
            "anonymous": false,
            "inputs": [
                {
                    "indexed": true,
                    "internalType": "address",
                    "name": "depositContract",
                    "type": "address"
                }
            ],
            "name": "SetDepositContractAddress",
            "type": "event"
        },
        {
            "anonymous": false,
            "inputs": [
                {
                    "indexed": false,
                    "internalType": "uint256",
                    "name": "oldDepositedValidatorCount",
                    "type": "uint256"
                },
                {
                    "indexed": false,
                    "internalType": "uint256",
                    "name": "newDepositedValidatorCount",
                    "type": "uint256"
                }
            ],
            "name": "SetDepositedValidatorCount",
            "type": "event"
        },
        {
            "anonymous": false,
            "inputs": [
                {
                    "indexed": true,
                    "internalType": "address",
                    "name": "elFeeRecipient",
                    "type": "address"
                }
            ],
            "name": "SetELFeeRecipient",
            "type": "event"
        },
        {
            "anonymous": false,
            "inputs": [
                {
                    "indexed": false,
                    "internalType": "uint256",
                    "name": "fee",
                    "type": "uint256"
                }
            ],
            "name": "SetGlobalFee",
            "type": "event"
        },
        {
            "anonymous": false,
            "inputs": [
                {
                    "indexed": false,
                    "internalType": "uint256",
                    "name": "minNetAmount",
                    "type": "uint256"
                },
                {
                    "indexed": false,
                    "internalType": "uint256",
                    "name": "maxRelativeAmount",
                    "type": "uint256"
                }
            ],
            "name": "SetMaxDailyCommittableAmounts",
            "type": "event"
        },
        {
            "anonymous": false,
            "inputs": [
                {
                    "indexed": false,
                    "internalType": "string",
                    "name": "metadataURI",
                    "type": "string"
                }
            ],
            "name": "SetMetadataURI",
            "type": "event"
        },
        {
            "anonymous": false,
            "inputs": [
                {
                    "indexed": true,
                    "internalType": "address",
                    "name": "operatorRegistry",
                    "type": "address"
                }
            ],
            "name": "SetOperatorsRegistry",
            "type": "event"
        },
        {
            "anonymous": false,
            "inputs": [
                {
                    "indexed": true,
                    "internalType": "address",
                    "name": "oracleAddress",
                    "type": "address"
                }
            ],
            "name": "SetOracle",
            "type": "event"
        },
        {
            "anonymous": false,
            "inputs": [
                {
                    "indexed": true,
                    "internalType": "address",
                    "name": "pendingAdmin",
                    "type": "address"
                }
            ],
            "name": "SetPendingAdmin",
            "type": "event"
        },
        {
            "anonymous": false,
            "inputs": [
                {
                    "indexed": false,
                    "internalType": "address",
                    "name": "redeemManager",
                    "type": "address"
                }
            ],
            "name": "SetRedeemManager",
            "type": "event"
        },
        {
            "anonymous": false,
            "inputs": [
                {
                    "indexed": false,
                    "internalType": "uint64",
                    "name": "epochsPerFrame",
                    "type": "uint64"
                },
                {
                    "indexed": false,
                    "internalType": "uint64",
                    "name": "slotsPerEpoch",
                    "type": "uint64"
                },
                {
                    "indexed": false,
                    "internalType": "uint64",
                    "name": "secondsPerSlot",
                    "type": "uint64"
                },
                {
                    "indexed": false,
                    "internalType": "uint64",
                    "name": "genesisTime",
                    "type": "uint64"
                },
                {
                    "indexed": false,
                    "internalType": "uint64",
                    "name": "epochsToAssumedFinality",
                    "type": "uint64"
                }
            ],
            "name": "SetSpec",
            "type": "event"
        },
        {
            "anonymous": false,
            "inputs": [
                {
                    "indexed": false,
                    "internalType": "uint256",
                    "name": "totalSupply",
                    "type": "uint256"
                }
            ],
            "name": "SetTotalSupply",
            "type": "event"
        },
        {
            "anonymous": false,
            "inputs": [
                {
                    "indexed": false,
                    "internalType": "bytes32",
                    "name": "withdrawalCredentials",
                    "type": "bytes32"
                }
            ],
            "name": "SetWithdrawalCredentials",
            "type": "event"
        },
        {
            "anonymous": false,
            "inputs": [
                {
                    "indexed": true,
                    "internalType": "address",
                    "name": "from",
                    "type": "address"
                },
                {
                    "indexed": true,
                    "internalType": "address",
                    "name": "to",
                    "type": "address"
                },
                {
                    "indexed": false,
                    "internalType": "uint256",
                    "name": "value",
                    "type": "uint256"
                }
            ],
            "name": "Transfer",
            "type": "event"
        },
        {
            "anonymous": false,
            "inputs": [
                {
                    "indexed": true,
                    "internalType": "address",
                    "name": "depositor",
                    "type": "address"
                },
                {
                    "indexed": true,
                    "internalType": "address",
                    "name": "recipient",
                    "type": "address"
                },
                {
                    "indexed": false,
                    "internalType": "uint256",
                    "name": "amount",
                    "type": "uint256"
                }
            ],
            "name": "UserDeposit",
            "type": "event"
        },
        {
            "stateMutability": "payable",
            "type": "fallback"
        },
        {
            "inputs": [],
            "name": "DEPOSIT_SIZE",
            "outputs": [
                {
                    "internalType": "uint256",
                    "name": "",
                    "type": "uint256"
                }
            ],
            "stateMutability": "view",
            "type": "function"
        },
        {
            "inputs": [],
            "name": "PUBLIC_KEY_LENGTH",
            "outputs": [
                {
                    "internalType": "uint256",
                    "name": "",
                    "type": "uint256"
                }
            ],
            "stateMutability": "view",
            "type": "function"
        },
        {
            "inputs": [],
            "name": "SIGNATURE_LENGTH",
            "outputs": [
                {
                    "internalType": "uint256",
                    "name": "",
                    "type": "uint256"
                }
            ],
            "stateMutability": "view",
            "type": "function"
        },
        {
            "inputs": [],
            "name": "_DEPOSIT_SIZE",
            "outputs": [
                {
                    "internalType": "uint256",
                    "name": "",
                    "type": "uint256"
                }
            ],
            "stateMutability": "view",
            "type": "function"
        },
        {
            "inputs": [],
            "name": "acceptAdmin",
            "outputs": [],
            "stateMutability": "nonpayable",
            "type": "function"
        },
        {
            "inputs": [
                {
                    "internalType": "address",
                    "name": "_owner",
                    "type": "address"
                },
                {
                    "internalType": "address",
                    "name": "_spender",
                    "type": "address"
                }
            ],
            "name": "allowance",
            "outputs": [
                {
                    "internalType": "uint256",
                    "name": "",
                    "type": "uint256"
                }
            ],
            "stateMutability": "view",
            "type": "function"
        },
        {
            "inputs": [
                {
                    "internalType": "address",
                    "name": "_spender",
                    "type": "address"
                },
                {
                    "internalType": "uint256",
                    "name": "_value",
                    "type": "uint256"
                }
            ],
            "name": "approve",
            "outputs": [
                {
                    "internalType": "bool",
                    "name": "",
                    "type": "bool"
                }
            ],
            "stateMutability": "nonpayable",
            "type": "function"
        },
        {
            "inputs": [
                {
                    "internalType": "address",
                    "name": "_owner",
                    "type": "address"
                }
            ],
            "name": "balanceOf",
            "outputs": [
                {
                    "internalType": "uint256",
                    "name": "",
                    "type": "uint256"
                }
            ],
            "stateMutability": "view",
            "type": "function"
        },
        {
            "inputs": [
                {
                    "internalType": "address",
                    "name": "_owner",
                    "type": "address"
                }
            ],
            "name": "balanceOfUnderlying",
            "outputs": [
                {
                    "internalType": "uint256",
                    "name": "",
                    "type": "uint256"
                }
            ],
            "stateMutability": "view",
            "type": "function"
        },
        {
            "inputs": [
                {
                    "internalType": "uint32[]",
                    "name": "_redeemRequestIds",
                    "type": "uint32[]"
                },
                {
                    "internalType": "uint32[]",
                    "name": "_withdrawalEventIds",
                    "type": "uint32[]"
                }
            ],
            "name": "claimRedeemRequests",
            "outputs": [
                {
                    "internalType": "uint8[]",
                    "name": "claimStatuses",
                    "type": "uint8[]"
                }
            ],
            "stateMutability": "nonpayable",
            "type": "function"
        },
        {
            "inputs": [],
            "name": "decimals",
            "outputs": [
                {
                    "internalType": "uint8",
                    "name": "",
                    "type": "uint8"
                }
            ],
            "stateMutability": "pure",
            "type": "function"
        },
        {
            "inputs": [
                {
                    "internalType": "address",
                    "name": "_spender",
                    "type": "address"
                },
                {
                    "internalType": "uint256",
                    "name": "_subtractableValue",
                    "type": "uint256"
                }
            ],
            "name": "decreaseAllowance",
            "outputs": [
                {
                    "internalType": "bool",
                    "name": "",
                    "type": "bool"
                }
            ],
            "stateMutability": "nonpayable",
            "type": "function"
        },
        {
            "inputs": [],
            "name": "deposit",
            "outputs": [],
            "stateMutability": "payable",
            "type": "function"
        },
        {
            "inputs": [
                {
                    "internalType": "address",
                    "name": "_recipient",
                    "type": "address"
                }
            ],
            "name": "depositAndTransfer",
            "outputs": [],
            "stateMutability": "payable",
            "type": "function"
        },
        {
            "inputs": [
                {
                    "internalType": "uint256",
                    "name": "_maxCount",
                    "type": "uint256"
                }
            ],
            "name": "depositToConsensusLayer",
            "outputs": [],
            "stateMutability": "nonpayable",
            "type": "function"
        },
        {
            "inputs": [],
            "name": "getAdmin",
            "outputs": [
                {
                    "internalType": "address",
                    "name": "",
                    "type": "address"
                }
            ],
            "stateMutability": "view",
            "type": "function"
        },
        {
            "inputs": [],
            "name": "getAllowlist",
            "outputs": [
                {
                    "internalType": "address",
                    "name": "",
                    "type": "address"
                }
            ],
            "stateMutability": "view",
            "type": "function"
        },
        {
            "inputs": [],
            "name": "getBalanceToDeposit",
            "outputs": [
                {
                    "internalType": "uint256",
                    "name": "",
                    "type": "uint256"
                }
            ],
            "stateMutability": "view",
            "type": "function"
        },
        {
            "inputs": [],
            "name": "getBalanceToRedeem",
            "outputs": [
                {
                    "internalType": "uint256",
                    "name": "",
                    "type": "uint256"
                }
            ],
            "stateMutability": "view",
            "type": "function"
        },
        {
            "inputs": [],
            "name": "getCLSpec",
            "outputs": [
                {
                    "components": [
                        {
                            "internalType": "uint64",
                            "name": "epochsPerFrame",
                            "type": "uint64"
                        },
                        {
                            "internalType": "uint64",
                            "name": "slotsPerEpoch",
                            "type": "uint64"
                        },
                        {
                            "internalType": "uint64",
                            "name": "secondsPerSlot",
                            "type": "uint64"
                        },
                        {
                            "internalType": "uint64",
                            "name": "genesisTime",
                            "type": "uint64"
                        },
                        {
                            "internalType": "uint64",
                            "name": "epochsToAssumedFinality",
                            "type": "uint64"
                        }
                    ],
                    "internalType": "struct CLSpec.CLSpecStruct",
                    "name": "",
                    "type": "tuple"
                }
            ],
            "stateMutability": "view",
            "type": "function"
        },
        {
            "inputs": [],
            "name": "getCLValidatorCount",
            "outputs": [
                {
                    "internalType": "uint256",
                    "name": "",
                    "type": "uint256"
                }
            ],
            "stateMutability": "view",
            "type": "function"
        },
        {
            "inputs": [],
            "name": "getCLValidatorTotalBalance",
            "outputs": [
                {
                    "internalType": "uint256",
                    "name": "",
                    "type": "uint256"
                }
            ],
            "stateMutability": "view",
            "type": "function"
        },
        {
            "inputs": [],
            "name": "getCollector",
            "outputs": [
                {
                    "internalType": "address",
                    "name": "",
                    "type": "address"
                }
            ],
            "stateMutability": "view",
            "type": "function"
        },
        {
            "inputs": [],
            "name": "getCommittedBalance",
            "outputs": [
                {
                    "internalType": "uint256",
                    "name": "",
                    "type": "uint256"
                }
            ],
            "stateMutability": "view",
            "type": "function"
        },
        {
            "inputs": [],
            "name": "getCoverageFund",
            "outputs": [
                {
                    "internalType": "address",
                    "name": "",
                    "type": "address"
                }
            ],
            "stateMutability": "view",
            "type": "function"
        },
        {
            "inputs": [],
            "name": "getCurrentEpochId",
            "outputs": [
                {
                    "internalType": "uint256",
                    "name": "",
                    "type": "uint256"
                }
            ],
            "stateMutability": "view",
            "type": "function"
        },
        {
            "inputs": [],
            "name": "getCurrentFrame",
            "outputs": [
                {
                    "internalType": "uint256",
                    "name": "_startEpochId",
                    "type": "uint256"
                },
                {
                    "internalType": "uint256",
                    "name": "_startTime",
                    "type": "uint256"
                },
                {
                    "internalType": "uint256",
                    "name": "_endTime",
                    "type": "uint256"
                }
            ],
            "stateMutability": "view",
            "type": "function"
        },
        {
            "inputs": [],
            "name": "getDailyCommittableLimits",
            "outputs": [
                {
                    "components": [
                        {
                            "internalType": "uint128",
                            "name": "minDailyNetCommittableAmount",
                            "type": "uint128"
                        },
                        {
                            "internalType": "uint128",
                            "name": "maxDailyRelativeCommittableAmount",
                            "type": "uint128"
                        }
                    ],
                    "internalType": "struct DailyCommittableLimits.DailyCommittableLimitsStruct",
                    "name": "",
                    "type": "tuple"
                }
            ],
            "stateMutability": "view",
            "type": "function"
        },
        {
            "inputs": [],
            "name": "getDepositedValidatorCount",
            "outputs": [
                {
                    "internalType": "uint256",
                    "name": "",
                    "type": "uint256"
                }
            ],
            "stateMutability": "view",
            "type": "function"
        },
        {
            "inputs": [],
            "name": "getELFeeRecipient",
            "outputs": [
                {
                    "internalType": "address",
                    "name": "",
                    "type": "address"
                }
            ],
            "stateMutability": "view",
            "type": "function"
        },
        {
            "inputs": [],
            "name": "getExpectedEpochId",
            "outputs": [
                {
                    "internalType": "uint256",
                    "name": "",
                    "type": "uint256"
                }
            ],
            "stateMutability": "view",
            "type": "function"
        },
        {
            "inputs": [
                {
                    "internalType": "uint256",
                    "name": "_epochId",
                    "type": "uint256"
                }
            ],
            "name": "getFrameFirstEpochId",
            "outputs": [
                {
                    "internalType": "uint256",
                    "name": "",
                    "type": "uint256"
                }
            ],
            "stateMutability": "view",
            "type": "function"
        },
        {
            "inputs": [],
            "name": "getGlobalFee",
            "outputs": [
                {
                    "internalType": "uint256",
                    "name": "",
                    "type": "uint256"
                }
            ],
            "stateMutability": "view",
            "type": "function"
        },
        {
            "inputs": [],
            "name": "getLastCompletedEpochId",
            "outputs": [
                {
                    "internalType": "uint256",
                    "name": "",
                    "type": "uint256"
                }
            ],
            "stateMutability": "view",
            "type": "function"
        },
        {
            "inputs": [],
            "name": "getLastConsensusLayerReport",
            "outputs": [
                {
                    "components": [
                        {
                            "internalType": "uint256",
                            "name": "epoch",
                            "type": "uint256"
                        },
                        {
                            "internalType": "uint256",
                            "name": "validatorsBalance",
                            "type": "uint256"
                        },
                        {
                            "internalType": "uint256",
                            "name": "validatorsSkimmedBalance",
                            "type": "uint256"
                        },
                        {
                            "internalType": "uint256",
                            "name": "validatorsExitedBalance",
                            "type": "uint256"
                        },
                        {
                            "internalType": "uint256",
                            "name": "validatorsExitingBalance",
                            "type": "uint256"
                        },
                        {
                            "internalType": "uint32",
                            "name": "validatorsCount",
                            "type": "uint32"
                        },
                        {
                            "internalType": "bool",
                            "name": "rebalanceDepositToRedeemMode",
                            "type": "bool"
                        },
                        {
                            "internalType": "bool",
                            "name": "slashingContainmentMode",
                            "type": "bool"
                        }
                    ],
                    "internalType": "struct IOracleManagerV1.StoredConsensusLayerReport",
                    "name": "",
                    "type": "tuple"
                }
            ],
            "stateMutability": "view",
            "type": "function"
        },
        {
            "inputs": [],
            "name": "getMetadataURI",
            "outputs": [
                {
                    "internalType": "string",
                    "name": "",
                    "type": "string"
                }
            ],
            "stateMutability": "view",
            "type": "function"
        },
        {
            "inputs": [],
            "name": "getOperatorsRegistry",
            "outputs": [
                {
                    "internalType": "address",
                    "name": "",
                    "type": "address"
                }
            ],
            "stateMutability": "view",
            "type": "function"
        },
        {
            "inputs": [],
            "name": "getOracle",
            "outputs": [
                {
                    "internalType": "address",
                    "name": "",
                    "type": "address"
                }
            ],
            "stateMutability": "view",
            "type": "function"
        },
        {
            "inputs": [],
            "name": "getPendingAdmin",
            "outputs": [
                {
                    "internalType": "address",
                    "name": "",
                    "type": "address"
                }
            ],
            "stateMutability": "view",
            "type": "function"
        },
        {
            "inputs": [],
            "name": "getRedeemManager",
            "outputs": [
                {
                    "internalType": "address",
                    "name": "",
                    "type": "address"
                }
            ],
            "stateMutability": "view",
            "type": "function"
        },
        {
            "inputs": [],
            "name": "getReportBounds",
            "outputs": [
                {
                    "components": [
                        {
                            "internalType": "uint256",
                            "name": "annualAprUpperBound",
                            "type": "uint256"
                        },
                        {
                            "internalType": "uint256",
                            "name": "relativeLowerBound",
                            "type": "uint256"
                        }
                    ],
                    "internalType": "struct ReportBounds.ReportBoundsStruct",
                    "name": "",
                    "type": "tuple"
                }
            ],
            "stateMutability": "view",
            "type": "function"
        },
        {
            "inputs": [],
            "name": "getTime",
            "outputs": [
                {
                    "internalType": "uint256",
                    "name": "",
                    "type": "uint256"
                }
            ],
            "stateMutability": "view",
            "type": "function"
        },
        {
            "inputs": [],
            "name": "getWithdrawalCredentials",
            "outputs": [
                {
                    "internalType": "bytes32",
                    "name": "",
                    "type": "bytes32"
                }
            ],
            "stateMutability": "view",
            "type": "function"
        },
        {
            "inputs": [
                {
                    "internalType": "address",
                    "name": "_spender",
                    "type": "address"
                },
                {
                    "internalType": "uint256",
                    "name": "_additionalValue",
                    "type": "uint256"
                }
            ],
            "name": "increaseAllowance",
            "outputs": [
                {
                    "internalType": "bool",
                    "name": "",
                    "type": "bool"
                }
            ],
            "stateMutability": "nonpayable",
            "type": "function"
        },
        {
            "inputs": [
                {
                    "internalType": "address",
                    "name": "_depositContractAddress",
                    "type": "address"
                },
                {
                    "internalType": "address",
                    "name": "_elFeeRecipientAddress",
                    "type": "address"
                },
                {
                    "internalType": "bytes32",
                    "name": "_withdrawalCredentials",
                    "type": "bytes32"
                },
                {
                    "internalType": "address",
                    "name": "_oracleAddress",
                    "type": "address"
                },
                {
                    "internalType": "address",
                    "name": "_systemAdministratorAddress",
                    "type": "address"
                },
                {
                    "internalType": "address",
                    "name": "_allowlistAddress",
                    "type": "address"
                },
                {
                    "internalType": "address",
                    "name": "_operatorRegistryAddress",
                    "type": "address"
                },
                {
                    "internalType": "address",
                    "name": "_collectorAddress",
                    "type": "address"
                },
                {
                    "internalType": "uint256",
                    "name": "_globalFee",
                    "type": "uint256"
                }
            ],
            "name": "initRiverV1",
            "outputs": [],
            "stateMutability": "nonpayable",
            "type": "function"
        },
        {
            "inputs": [
                {
                    "internalType": "address",
                    "name": "_redeemManager",
                    "type": "address"
                },
                {
                    "internalType": "uint64",
                    "name": "_epochsPerFrame",
                    "type": "uint64"
                },
                {
                    "internalType": "uint64",
                    "name": "_slotsPerEpoch",
                    "type": "uint64"
                },
                {
                    "internalType": "uint64",
                    "name": "_secondsPerSlot",
                    "type": "uint64"
                },
                {
                    "internalType": "uint64",
                    "name": "_genesisTime",
                    "type": "uint64"
                },
                {
                    "internalType": "uint64",
                    "name": "_epochsToAssumedFinality",
                    "type": "uint64"
                },
                {
                    "internalType": "uint256",
                    "name": "_annualAprUpperBound",
                    "type": "uint256"
                },
                {
                    "internalType": "uint256",
                    "name": "_relativeLowerBound",
                    "type": "uint256"
                },
                {
                    "internalType": "uint128",
                    "name": "_minDailyNetCommittableAmount_",
                    "type": "uint128"
                },
                {
                    "internalType": "uint128",
                    "name": "_maxDailyRelativeCommittableAmount_",
                    "type": "uint128"
                }
            ],
            "name": "initRiverV1_1",
            "outputs": [],
            "stateMutability": "nonpayable",
            "type": "function"
        },
        {
            "inputs": [
                {
                    "internalType": "uint256",
                    "name": "_epoch",
                    "type": "uint256"
                }
            ],
            "name": "isValidEpoch",
            "outputs": [
                {
                    "internalType": "bool",
                    "name": "",
                    "type": "bool"
                }
            ],
            "stateMutability": "view",
            "type": "function"
        },
        {
            "inputs": [],
            "name": "name",
            "outputs": [
                {
                    "internalType": "string",
                    "name": "",
                    "type": "string"
                }
            ],
            "stateMutability": "pure",
            "type": "function"
        },
        {
            "inputs": [
                {
                    "internalType": "address",
                    "name": "_newAdmin",
                    "type": "address"
                }
            ],
            "name": "proposeAdmin",
            "outputs": [],
            "stateMutability": "nonpayable",
            "type": "function"
        },
        {
            "inputs": [
                {
                    "internalType": "uint256",
                    "name": "_lsETHAmount",
                    "type": "uint256"
                },
                {
                    "internalType": "address",
                    "name": "_recipient",
                    "type": "address"
                }
            ],
            "name": "requestRedeem",
            "outputs": [
                {
                    "internalType": "uint32",
                    "name": "_redeemRequestId",
                    "type": "uint32"
                }
            ],
            "stateMutability": "nonpayable",
            "type": "function"
        },
        {
            "inputs": [
                {
                    "internalType": "uint32[]",
                    "name": "_redeemRequestIds",
                    "type": "uint32[]"
                }
            ],
            "name": "resolveRedeemRequests",
            "outputs": [
                {
                    "internalType": "int64[]",
                    "name": "withdrawalEventIds",
                    "type": "int64[]"
                }
            ],
            "stateMutability": "view",
            "type": "function"
        },
        {
            "inputs": [],
            "name": "sendCLFunds",
            "outputs": [],
            "stateMutability": "payable",
            "type": "function"
        },
        {
            "inputs": [],
            "name": "sendCoverageFunds",
            "outputs": [],
            "stateMutability": "payable",
            "type": "function"
        },
        {
            "inputs": [],
            "name": "sendELFees",
            "outputs": [],
            "stateMutability": "payable",
            "type": "function"
        },
        {
            "inputs": [],
            "name": "sendRedeemManagerExceedingFunds",
            "outputs": [],
            "stateMutability": "payable",
            "type": "function"
        },
        {
            "inputs": [
                {
                    "internalType": "address",
                    "name": "_newAllowlist",
                    "type": "address"
                }
            ],
            "name": "setAllowlist",
            "outputs": [],
            "stateMutability": "nonpayable",
            "type": "function"
        },
        {
            "inputs": [
                {
                    "components": [
                        {
                            "internalType": "uint64",
                            "name": "epochsPerFrame",
                            "type": "uint64"
                        },
                        {
                            "internalType": "uint64",
                            "name": "slotsPerEpoch",
                            "type": "uint64"
                        },
                        {
                            "internalType": "uint64",
                            "name": "secondsPerSlot",
                            "type": "uint64"
                        },
                        {
                            "internalType": "uint64",
                            "name": "genesisTime",
                            "type": "uint64"
                        },
                        {
                            "internalType": "uint64",
                            "name": "epochsToAssumedFinality",
                            "type": "uint64"
                        }
                    ],
                    "internalType": "struct CLSpec.CLSpecStruct",
                    "name": "_newValue",
                    "type": "tuple"
                }
            ],
            "name": "setCLSpec",
            "outputs": [],
            "stateMutability": "nonpayable",
            "type": "function"
        },
        {
            "inputs": [
                {
                    "internalType": "address",
                    "name": "_newCollector",
                    "type": "address"
                }
            ],
            "name": "setCollector",
            "outputs": [],
            "stateMutability": "nonpayable",
            "type": "function"
        },
        {
            "inputs": [
                {
                    "components": [
                        {
                            "internalType": "uint256",
                            "name": "epoch",
                            "type": "uint256"
                        },
                        {
                            "internalType": "uint256",
                            "name": "validatorsBalance",
                            "type": "uint256"
                        },
                        {
                            "internalType": "uint256",
                            "name": "validatorsSkimmedBalance",
                            "type": "uint256"
                        },
                        {
                            "internalType": "uint256",
                            "name": "validatorsExitedBalance",
                            "type": "uint256"
                        },
                        {
                            "internalType": "uint256",
                            "name": "validatorsExitingBalance",
                            "type": "uint256"
                        },
                        {
                            "internalType": "uint32",
                            "name": "validatorsCount",
                            "type": "uint32"
                        },
                        {
                            "internalType": "uint32[]",
                            "name": "stoppedValidatorCountPerOperator",
                            "type": "uint32[]"
                        },
                        {
                            "internalType": "bool",
                            "name": "rebalanceDepositToRedeemMode",
                            "type": "bool"
                        },
                        {
                            "internalType": "bool",
                            "name": "slashingContainmentMode",
                            "type": "bool"
                        }
                    ],
                    "internalType": "struct IOracleManagerV1.ConsensusLayerReport",
                    "name": "_report",
                    "type": "tuple"
                }
            ],
            "name": "setConsensusLayerData",
            "outputs": [],
            "stateMutability": "nonpayable",
            "type": "function"
        },
        {
            "inputs": [
                {
                    "internalType": "address",
                    "name": "_newCoverageFund",
                    "type": "address"
                }
            ],
            "name": "setCoverageFund",
            "outputs": [],
            "stateMutability": "nonpayable",
            "type": "function"
        },
        {
            "inputs": [
                {
                    "components": [
                        {
                            "internalType": "uint128",
                            "name": "minDailyNetCommittableAmount",
                            "type": "uint128"
                        },
                        {
                            "internalType": "uint128",
                            "name": "maxDailyRelativeCommittableAmount",
                            "type": "uint128"
                        }
                    ],
                    "internalType": "struct DailyCommittableLimits.DailyCommittableLimitsStruct",
                    "name": "_dcl",
                    "type": "tuple"
                }
            ],
            "name": "setDailyCommittableLimits",
            "outputs": [],
            "stateMutability": "nonpayable",
            "type": "function"
        },
        {
            "inputs": [
                {
                    "internalType": "address",
                    "name": "_newELFeeRecipient",
                    "type": "address"
                }
            ],
            "name": "setELFeeRecipient",
            "outputs": [],
            "stateMutability": "nonpayable",
            "type": "function"
        },
        {
            "inputs": [
                {
                    "internalType": "uint256",
                    "name": "_newFee",
                    "type": "uint256"
                }
            ],
            "name": "setGlobalFee",
            "outputs": [],
            "stateMutability": "nonpayable",
            "type": "function"
        },
        {
            "inputs": [
                {
                    "internalType": "string",
                    "name": "_metadataURI",
                    "type": "string"
                }
            ],
            "name": "setMetadataURI",
            "outputs": [],
            "stateMutability": "nonpayable",
            "type": "function"
        },
        {
            "inputs": [
                {
                    "internalType": "address",
                    "name": "_oracleAddress",
                    "type": "address"
                }
            ],
            "name": "setOracle",
            "outputs": [],
            "stateMutability": "nonpayable",
            "type": "function"
        },
        {
            "inputs": [
                {
                    "components": [
                        {
                            "internalType": "uint256",
                            "name": "annualAprUpperBound",
                            "type": "uint256"
                        },
                        {
                            "internalType": "uint256",
                            "name": "relativeLowerBound",
                            "type": "uint256"
                        }
                    ],
                    "internalType": "struct ReportBounds.ReportBoundsStruct",
                    "name": "_newValue",
                    "type": "tuple"
                }
            ],
            "name": "setReportBounds",
            "outputs": [],
            "stateMutability": "nonpayable",
            "type": "function"
        },
        {
            "inputs": [
                {
                    "internalType": "uint256",
                    "name": "_underlyingAssetAmount",
                    "type": "uint256"
                }
            ],
            "name": "sharesFromUnderlyingBalance",
            "outputs": [
                {
                    "internalType": "uint256",
                    "name": "",
                    "type": "uint256"
                }
            ],
            "stateMutability": "view",
            "type": "function"
        },
        {
            "inputs": [],
            "name": "symbol",
            "outputs": [
                {
                    "internalType": "string",
                    "name": "",
                    "type": "string"
                }
            ],
            "stateMutability": "pure",
            "type": "function"
        },
        {
            "inputs": [],
            "name": "totalSupply",
            "outputs": [
                {
                    "internalType": "uint256",
                    "name": "",
                    "type": "uint256"
                }
            ],
            "stateMutability": "view",
            "type": "function"
        },
        {
            "inputs": [],
            "name": "totalUnderlyingSupply",
            "outputs": [
                {
                    "internalType": "uint256",
                    "name": "",
                    "type": "uint256"
                }
            ],
            "stateMutability": "view",
            "type": "function"
        },
        {
            "inputs": [
                {
                    "internalType": "address",
                    "name": "_to",
                    "type": "address"
                },
                {
                    "internalType": "uint256",
                    "name": "_value",
                    "type": "uint256"
                }
            ],
            "name": "transfer",
            "outputs": [
                {
                    "internalType": "bool",
                    "name": "",
                    "type": "bool"
                }
            ],
            "stateMutability": "nonpayable",
            "type": "function"
        },
        {
            "inputs": [
                {
                    "internalType": "address",
                    "name": "_from",
                    "type": "address"
                },
                {
                    "internalType": "address",
                    "name": "_to",
                    "type": "address"
                },
                {
                    "internalType": "uint256",
                    "name": "_value",
                    "type": "uint256"
                }
            ],
            "name": "transferFrom",
            "outputs": [
                {
                    "internalType": "bool",
                    "name": "",
                    "type": "bool"
                }
            ],
            "stateMutability": "nonpayable",
            "type": "function"
        },
        {
            "inputs": [
                {
                    "internalType": "uint256",
                    "name": "_shares",
                    "type": "uint256"
                }
            ],
            "name": "underlyingBalanceFromShares",
            "outputs": [
                {
                    "internalType": "uint256",
                    "name": "",
                    "type": "uint256"
                }
            ],
            "stateMutability": "view",
            "type": "function"
        },
        {
            "stateMutability": "payable",
            "type": "receive"
        },
        {
            "inputs": [
                {
                    "internalType": "address",
                    "name": "_from",
                    "type": "address"
                },
                {
                    "internalType": "address",
                    "name": "_operator",
                    "type": "address"
                },
                {
                    "internalType": "uint256",
                    "name": "_allowance",
                    "type": "uint256"
                },
                {
                    "internalType": "uint256",
                    "name": "_value",
                    "type": "uint256"
                }
            ],
            "name": "AllowanceTooLow",
            "type": "error"
        },
        {
            "inputs": [],
            "name": "BalanceTooLow",
            "type": "error"
        },
        {
            "inputs": [
                {
                    "internalType": "address",
                    "name": "account",
                    "type": "address"
                }
            ],
            "name": "Denied",
            "type": "error"
        },
        {
            "inputs": [],
            "name": "EmptyDeposit",
            "type": "error"
        },
        {
            "inputs": [],
            "name": "ErrorOnDeposit",
            "type": "error"
        },
        {
            "inputs": [],
            "name": "InconsistentPublicKeys",
            "type": "error"
        },
        {
            "inputs": [],
            "name": "InconsistentSignatures",
            "type": "error"
        },
        {
            "inputs": [],
            "name": "InvalidArgument",
            "type": "error"
        },
        {
            "inputs": [],
            "name": "InvalidCall",
            "type": "error"
        },
        {
            "inputs": [
                {
                    "internalType": "uint256",
                    "name": "currentValidatorsExitedBalance",
                    "type": "uint256"
                },
                {
                    "internalType": "uint256",
                    "name": "newValidatorsExitedBalance",
                    "type": "uint256"
                }
            ],
            "name": "InvalidDecreasingValidatorsExitedBalance",
            "type": "error"
        },
        {
            "inputs": [
                {
                    "internalType": "uint256",
                    "name": "currentValidatorsSkimmedBalance",
                    "type": "uint256"
                },
                {
                    "internalType": "uint256",
                    "name": "newValidatorsSkimmedBalance",
                    "type": "uint256"
                }
            ],
            "name": "InvalidDecreasingValidatorsSkimmedBalance",
            "type": "error"
        },
        {
            "inputs": [],
            "name": "InvalidEmptyString",
            "type": "error"
        },
        {
            "inputs": [
                {
                    "internalType": "uint256",
                    "name": "epoch",
                    "type": "uint256"
                }
            ],
            "name": "InvalidEpoch",
            "type": "error"
        },
        {
            "inputs": [],
            "name": "InvalidFee",
            "type": "error"
        },
        {
            "inputs": [
                {
                    "internalType": "uint256",
                    "name": "version",
                    "type": "uint256"
                },
                {
                    "internalType": "uint256",
                    "name": "expectedVersion",
                    "type": "uint256"
                }
            ],
            "name": "InvalidInitialization",
            "type": "error"
        },
        {
            "inputs": [],
            "name": "InvalidPublicKeyCount",
            "type": "error"
        },
        {
            "inputs": [
                {
                    "internalType": "uint256",
                    "name": "requested",
                    "type": "uint256"
                },
                {
                    "internalType": "uint256",
                    "name": "received",
                    "type": "uint256"
                }
            ],
            "name": "InvalidPulledClFundsAmount",
            "type": "error"
        },
        {
            "inputs": [],
            "name": "InvalidSignatureCount",
            "type": "error"
        },
        {
            "inputs": [
                {
                    "internalType": "uint256",
                    "name": "providedValidatorCount",
                    "type": "uint256"
                },
                {
                    "internalType": "uint256",
                    "name": "depositedValidatorCount",
                    "type": "uint256"
                },
                {
                    "internalType": "uint256",
                    "name": "lastReportedValidatorCount",
                    "type": "uint256"
                }
            ],
            "name": "InvalidValidatorCountReport",
            "type": "error"
        },
        {
            "inputs": [],
            "name": "InvalidWithdrawalCredentials",
            "type": "error"
        },
        {
            "inputs": [],
            "name": "InvalidZeroAddress",
            "type": "error"
        },
        {
            "inputs": [],
            "name": "NoAvailableValidatorKeys",
            "type": "error"
        },
        {
            "inputs": [],
            "name": "NotEnoughFunds",
            "type": "error"
        },
        {
            "inputs": [],
            "name": "NullTransfer",
            "type": "error"
        },
        {
            "inputs": [],
            "name": "SliceOutOfBounds",
            "type": "error"
        },
        {
            "inputs": [],
            "name": "SliceOverflow",
            "type": "error"
        },
        {
            "inputs": [
                {
                    "internalType": "uint256",
                    "name": "prevTotalEthIncludingExited",
                    "type": "uint256"
                },
                {
                    "internalType": "uint256",
                    "name": "postTotalEthIncludingExited",
                    "type": "uint256"
                },
                {
                    "internalType": "uint256",
                    "name": "timeElapsed",
                    "type": "uint256"
                },
                {
                    "internalType": "uint256",
                    "name": "relativeLowerBound",
                    "type": "uint256"
                }
            ],
            "name": "TotalValidatorBalanceDecreaseOutOfBound",
            "type": "error"
        },
        {
            "inputs": [
                {
                    "internalType": "uint256",
                    "name": "prevTotalEthIncludingExited",
                    "type": "uint256"
                },
                {
                    "internalType": "uint256",
                    "name": "postTotalEthIncludingExited",
                    "type": "uint256"
                },
                {
                    "internalType": "uint256",
                    "name": "timeElapsed",
                    "type": "uint256"
                },
                {
                    "internalType": "uint256",
                    "name": "annualAprUpperBound",
                    "type": "uint256"
                }
            ],
            "name": "TotalValidatorBalanceIncreaseOutOfBound",
            "type": "error"
        },
        {
            "inputs": [
                {
                    "internalType": "address",
                    "name": "caller",
                    "type": "address"
                }
            ],
            "name": "Unauthorized",
            "type": "error"
        },
        {
            "inputs": [
                {
                    "internalType": "address",
                    "name": "_from",
                    "type": "address"
                },
                {
                    "internalType": "address",
                    "name": "_to",
                    "type": "address"
                }
            ],
            "name": "UnauthorizedTransfer",
            "type": "error"
        },
        {
            "inputs": [],
            "name": "ZeroMintedShares",
            "type": "error"
        },
        {
            "anonymous": false,
            "inputs": [
                {
                    "indexed": true,
                    "internalType": "address",
                    "name": "owner",
                    "type": "address"
                },
                {
                    "indexed": true,
                    "internalType": "address",
                    "name": "spender",
                    "type": "address"
                },
                {
                    "indexed": false,
                    "internalType": "uint256",
                    "name": "value",
                    "type": "uint256"
                }
            ],
            "name": "Approval",
            "type": "event"
        },
        {
            "anonymous": false,
            "inputs": [
                {
                    "indexed": false,
                    "internalType": "uint256",
                    "name": "validatorCount",
                    "type": "uint256"
                },
                {
                    "indexed": false,
                    "internalType": "uint256",
                    "name": "validatorTotalBalance",
                    "type": "uint256"
                },
                {
                    "indexed": false,
                    "internalType": "bytes32",
                    "name": "roundId",
                    "type": "bytes32"
                }
            ],
            "name": "ConsensusLayerDataUpdate",
            "type": "event"
        },
        {
            "anonymous": false,
            "inputs": [
                {
                    "indexed": false,
                    "internalType": "uint256",
                    "name": "version",
                    "type": "uint256"
                },
                {
                    "indexed": false,
                    "internalType": "bytes",
                    "name": "cdata",
                    "type": "bytes"
                }
            ],
            "name": "Initialize",
            "type": "event"
        },
        {
            "anonymous": false,
            "inputs": [
                {
                    "components": [
                        {
                            "internalType": "uint256",
                            "name": "epoch",
                            "type": "uint256"
                        },
                        {
                            "internalType": "uint256",
                            "name": "validatorsBalance",
                            "type": "uint256"
                        },
                        {
                            "internalType": "uint256",
                            "name": "validatorsSkimmedBalance",
                            "type": "uint256"
                        },
                        {
                            "internalType": "uint256",
                            "name": "validatorsExitedBalance",
                            "type": "uint256"
                        },
                        {
                            "internalType": "uint256",
                            "name": "validatorsExitingBalance",
                            "type": "uint256"
                        },
                        {
                            "internalType": "uint32",
                            "name": "validatorsCount",
                            "type": "uint32"
                        },
                        {
                            "internalType": "uint32[]",
                            "name": "stoppedValidatorCountPerOperator",
                            "type": "uint32[]"
                        },
                        {
                            "internalType": "bool",
                            "name": "rebalanceDepositToRedeemMode",
                            "type": "bool"
                        },
                        {
                            "internalType": "bool",
                            "name": "slashingContainmentMode",
                            "type": "bool"
                        }
                    ],
                    "indexed": false,
                    "internalType": "struct IOracleManagerV1.ConsensusLayerReport",
                    "name": "report",
                    "type": "tuple"
                },
                {
                    "components": [
                        {
                            "internalType": "uint256",
                            "name": "rewards",
                            "type": "uint256"
                        },
                        {
                            "internalType": "uint256",
                            "name": "pulledELFees",
                            "type": "uint256"
                        },
                        {
                            "internalType": "uint256",
                            "name": "pulledRedeemManagerExceedingEthBuffer",
                            "type": "uint256"
                        },
                        {
                            "internalType": "uint256",
                            "name": "pulledCoverageFunds",
                            "type": "uint256"
                        }
                    ],
                    "indexed": false,
                    "internalType": "struct IOracleManagerV1.ConsensusLayerDataReportingTrace",
                    "name": "trace",
                    "type": "tuple"
                }
            ],
            "name": "ProcessedConsensusLayerReport",
            "type": "event"
        },
        {
            "anonymous": false,
            "inputs": [
                {
                    "indexed": false,
                    "internalType": "uint256",
                    "name": "pulledSkimmedEthAmount",
                    "type": "uint256"
                },
                {
                    "indexed": false,
                    "internalType": "uint256",
                    "name": "pullExitedEthAmount",
                    "type": "uint256"
                }
            ],
            "name": "PulledCLFunds",
            "type": "event"
        },
        {
            "anonymous": false,
            "inputs": [
                {
                    "indexed": false,
                    "internalType": "uint256",
                    "name": "amount",
                    "type": "uint256"
                }
            ],
            "name": "PulledCoverageFunds",
            "type": "event"
        },
        {
            "anonymous": false,
            "inputs": [
                {
                    "indexed": false,
                    "internalType": "uint256",
                    "name": "amount",
                    "type": "uint256"
                }
            ],
            "name": "PulledELFees",
            "type": "event"
        },
        {
            "anonymous": false,
            "inputs": [
                {
                    "indexed": false,
                    "internalType": "uint256",
                    "name": "amount",
                    "type": "uint256"
                }
            ],
            "name": "PulledRedeemManagerExceedingEth",
            "type": "event"
        },
        {
            "anonymous": false,
            "inputs": [
                {
                    "indexed": false,
                    "internalType": "uint256",
                    "name": "redeemManagerDemand",
                    "type": "uint256"
                },
                {
                    "indexed": false,
                    "internalType": "uint256",
                    "name": "suppliedRedeemManagerDemand",
                    "type": "uint256"
                },
                {
                    "indexed": false,
                    "internalType": "uint256",
                    "name": "suppliedRedeemManagerDemandInEth",
                    "type": "uint256"
                }
            ],
            "name": "ReportedRedeemManager",
            "type": "event"
        },
        {
            "anonymous": false,
            "inputs": [
                {
                    "indexed": true,
                    "internalType": "address",
                    "name": "_collector",
                    "type": "address"
                },
                {
                    "indexed": false,
                    "internalType": "uint256",
                    "name": "_oldTotalUnderlyingBalance",
                    "type": "uint256"
                },
                {
                    "indexed": false,
                    "internalType": "uint256",
                    "name": "_oldTotalSupply",
                    "type": "uint256"
                },
                {
                    "indexed": false,
                    "internalType": "uint256",
                    "name": "_newTotalUnderlyingBalance",
                    "type": "uint256"
                },
                {
                    "indexed": false,
                    "internalType": "uint256",
                    "name": "_newTotalSupply",
                    "type": "uint256"
                }
            ],
            "name": "RewardsEarned",
            "type": "event"
        },
        {
            "anonymous": false,
            "inputs": [
                {
                    "indexed": true,
                    "internalType": "address",
                    "name": "admin",
                    "type": "address"
                }
            ],
            "name": "SetAdmin",
            "type": "event"
        },
        {
            "anonymous": false,
            "inputs": [
                {
                    "indexed": true,
                    "internalType": "address",
                    "name": "allowlist",
                    "type": "address"
                }
            ],
            "name": "SetAllowlist",
            "type": "event"
        },
        {
            "anonymous": false,
            "inputs": [
                {
                    "indexed": false,
                    "internalType": "uint256",
                    "name": "oldAmount",
                    "type": "uint256"
                },
                {
                    "indexed": false,
                    "internalType": "uint256",
                    "name": "newAmount",
                    "type": "uint256"
                }
            ],
            "name": "SetBalanceCommittedToDeposit",
            "type": "event"
        },
        {
            "anonymous": false,
            "inputs": [
                {
                    "indexed": false,
                    "internalType": "uint256",
                    "name": "oldAmount",
                    "type": "uint256"
                },
                {
                    "indexed": false,
                    "internalType": "uint256",
                    "name": "newAmount",
                    "type": "uint256"
                }
            ],
            "name": "SetBalanceToDeposit",
            "type": "event"
        },
        {
            "anonymous": false,
            "inputs": [
                {
                    "indexed": false,
                    "internalType": "uint256",
                    "name": "oldAmount",
                    "type": "uint256"
                },
                {
                    "indexed": false,
                    "internalType": "uint256",
                    "name": "newAmount",
                    "type": "uint256"
                }
            ],
            "name": "SetBalanceToRedeem",
            "type": "event"
        },
        {
            "anonymous": false,
            "inputs": [
                {
                    "indexed": false,
                    "internalType": "uint256",
                    "name": "annualAprUpperBound",
                    "type": "uint256"
                },
                {
                    "indexed": false,
                    "internalType": "uint256",
                    "name": "relativeLowerBound",
                    "type": "uint256"
                }
            ],
            "name": "SetBounds",
            "type": "event"
        },
        {
            "anonymous": false,
            "inputs": [
                {
                    "indexed": true,
                    "internalType": "address",
                    "name": "collector",
                    "type": "address"
                }
            ],
            "name": "SetCollector",
            "type": "event"
        },
        {
            "anonymous": false,
            "inputs": [
                {
                    "indexed": true,
                    "internalType": "address",
                    "name": "coverageFund",
                    "type": "address"
                }
            ],
            "name": "SetCoverageFund",
            "type": "event"
        },
        {
            "anonymous": false,
            "inputs": [
                {
                    "indexed": true,
                    "internalType": "address",
                    "name": "depositContract",
                    "type": "address"
                }
            ],
            "name": "SetDepositContractAddress",
            "type": "event"
        },
        {
            "anonymous": false,
            "inputs": [
                {
                    "indexed": false,
                    "internalType": "uint256",
                    "name": "oldDepositedValidatorCount",
                    "type": "uint256"
                },
                {
                    "indexed": false,
                    "internalType": "uint256",
                    "name": "newDepositedValidatorCount",
                    "type": "uint256"
                }
            ],
            "name": "SetDepositedValidatorCount",
            "type": "event"
        },
        {
            "anonymous": false,
            "inputs": [
                {
                    "indexed": true,
                    "internalType": "address",
                    "name": "elFeeRecipient",
                    "type": "address"
                }
            ],
            "name": "SetELFeeRecipient",
            "type": "event"
        },
        {
            "anonymous": false,
            "inputs": [
                {
                    "indexed": false,
                    "internalType": "uint256",
                    "name": "fee",
                    "type": "uint256"
                }
            ],
            "name": "SetGlobalFee",
            "type": "event"
        },
        {
            "anonymous": false,
            "inputs": [
                {
                    "indexed": false,
                    "internalType": "uint256",
                    "name": "minNetAmount",
                    "type": "uint256"
                },
                {
                    "indexed": false,
                    "internalType": "uint256",
                    "name": "maxRelativeAmount",
                    "type": "uint256"
                }
            ],
            "name": "SetMaxDailyCommittableAmounts",
            "type": "event"
        },
        {
            "anonymous": false,
            "inputs": [
                {
                    "indexed": false,
                    "internalType": "string",
                    "name": "metadataURI",
                    "type": "string"
                }
            ],
            "name": "SetMetadataURI",
            "type": "event"
        },
        {
            "anonymous": false,
            "inputs": [
                {
                    "indexed": true,
                    "internalType": "address",
                    "name": "operatorRegistry",
                    "type": "address"
                }
            ],
            "name": "SetOperatorsRegistry",
            "type": "event"
        },
        {
            "anonymous": false,
            "inputs": [
                {
                    "indexed": true,
                    "internalType": "address",
                    "name": "oracleAddress",
                    "type": "address"
                }
            ],
            "name": "SetOracle",
            "type": "event"
        },
        {
            "anonymous": false,
            "inputs": [
                {
                    "indexed": true,
                    "internalType": "address",
                    "name": "pendingAdmin",
                    "type": "address"
                }
            ],
            "name": "SetPendingAdmin",
            "type": "event"
        },
        {
            "anonymous": false,
            "inputs": [
                {
                    "indexed": false,
                    "internalType": "address",
                    "name": "redeemManager",
                    "type": "address"
                }
            ],
            "name": "SetRedeemManager",
            "type": "event"
        },
        {
            "anonymous": false,
            "inputs": [
                {
                    "indexed": false,
                    "internalType": "uint64",
                    "name": "epochsPerFrame",
                    "type": "uint64"
                },
                {
                    "indexed": false,
                    "internalType": "uint64",
                    "name": "slotsPerEpoch",
                    "type": "uint64"
                },
                {
                    "indexed": false,
                    "internalType": "uint64",
                    "name": "secondsPerSlot",
                    "type": "uint64"
                },
                {
                    "indexed": false,
                    "internalType": "uint64",
                    "name": "genesisTime",
                    "type": "uint64"
                },
                {
                    "indexed": false,
                    "internalType": "uint64",
                    "name": "epochsToAssumedFinality",
                    "type": "uint64"
                }
            ],
            "name": "SetSpec",
            "type": "event"
        },
        {
            "anonymous": false,
            "inputs": [
                {
                    "indexed": false,
                    "internalType": "uint256",
                    "name": "totalSupply",
                    "type": "uint256"
                }
            ],
            "name": "SetTotalSupply",
            "type": "event"
        },
        {
            "anonymous": false,
            "inputs": [
                {
                    "indexed": false,
                    "internalType": "bytes32",
                    "name": "withdrawalCredentials",
                    "type": "bytes32"
                }
            ],
            "name": "SetWithdrawalCredentials",
            "type": "event"
        },
        {
            "anonymous": false,
            "inputs": [
                {
                    "indexed": true,
                    "internalType": "address",
                    "name": "from",
                    "type": "address"
                },
                {
                    "indexed": true,
                    "internalType": "address",
                    "name": "to",
                    "type": "address"
                },
                {
                    "indexed": false,
                    "internalType": "uint256",
                    "name": "value",
                    "type": "uint256"
                }
            ],
            "name": "Transfer",
            "type": "event"
        },
        {
            "anonymous": false,
            "inputs": [
                {
                    "indexed": true,
                    "internalType": "address",
                    "name": "depositor",
                    "type": "address"
                },
                {
                    "indexed": true,
                    "internalType": "address",
                    "name": "recipient",
                    "type": "address"
                },
                {
                    "indexed": false,
                    "internalType": "uint256",
                    "name": "amount",
                    "type": "uint256"
                }
            ],
            "name": "UserDeposit",
            "type": "event"
        },
        {
            "stateMutability": "payable",
            "type": "fallback"
        },
        {
            "inputs": [],
            "name": "DEPOSIT_SIZE",
            "outputs": [
                {
                    "internalType": "uint256",
                    "name": "",
                    "type": "uint256"
                }
            ],
            "stateMutability": "view",
            "type": "function"
        },
        {
            "inputs": [],
            "name": "PUBLIC_KEY_LENGTH",
            "outputs": [
                {
                    "internalType": "uint256",
                    "name": "",
                    "type": "uint256"
                }
            ],
            "stateMutability": "view",
            "type": "function"
        },
        {
            "inputs": [],
            "name": "SIGNATURE_LENGTH",
            "outputs": [
                {
                    "internalType": "uint256",
                    "name": "",
                    "type": "uint256"
                }
            ],
            "stateMutability": "view",
            "type": "function"
        },
        {
            "inputs": [],
            "name": "_DEPOSIT_SIZE",
            "outputs": [
                {
                    "internalType": "uint256",
                    "name": "",
                    "type": "uint256"
                }
            ],
            "stateMutability": "view",
            "type": "function"
        },
        {
            "inputs": [],
            "name": "acceptAdmin",
            "outputs": [],
            "stateMutability": "nonpayable",
            "type": "function"
        },
        {
            "inputs": [
                {
                    "internalType": "address",
                    "name": "_owner",
                    "type": "address"
                },
                {
                    "internalType": "address",
                    "name": "_spender",
                    "type": "address"
                }
            ],
            "name": "allowance",
            "outputs": [
                {
                    "internalType": "uint256",
                    "name": "",
                    "type": "uint256"
                }
            ],
            "stateMutability": "view",
            "type": "function"
        },
        {
            "inputs": [
                {
                    "internalType": "address",
                    "name": "_spender",
                    "type": "address"
                },
                {
                    "internalType": "uint256",
                    "name": "_value",
                    "type": "uint256"
                }
            ],
            "name": "approve",
            "outputs": [
                {
                    "internalType": "bool",
                    "name": "",
                    "type": "bool"
                }
            ],
            "stateMutability": "nonpayable",
            "type": "function"
        },
        {
            "inputs": [
                {
                    "internalType": "address",
                    "name": "_owner",
                    "type": "address"
                }
            ],
            "name": "balanceOf",
            "outputs": [
                {
                    "internalType": "uint256",
                    "name": "",
                    "type": "uint256"
                }
            ],
            "stateMutability": "view",
            "type": "function"
        },
        {
            "inputs": [
                {
                    "internalType": "address",
                    "name": "_owner",
                    "type": "address"
                }
            ],
            "name": "balanceOfUnderlying",
            "outputs": [
                {
                    "internalType": "uint256",
                    "name": "",
                    "type": "uint256"
                }
            ],
            "stateMutability": "view",
            "type": "function"
        },
        {
            "inputs": [
                {
                    "internalType": "uint32[]",
                    "name": "_redeemRequestIds",
                    "type": "uint32[]"
                },
                {
                    "internalType": "uint32[]",
                    "name": "_withdrawalEventIds",
                    "type": "uint32[]"
                }
            ],
            "name": "claimRedeemRequests",
            "outputs": [
                {
                    "internalType": "uint8[]",
                    "name": "claimStatuses",
                    "type": "uint8[]"
                }
            ],
            "stateMutability": "nonpayable",
            "type": "function"
        },
        {
            "inputs": [],
            "name": "decimals",
            "outputs": [
                {
                    "internalType": "uint8",
                    "name": "",
                    "type": "uint8"
                }
            ],
            "stateMutability": "pure",
            "type": "function"
        },
        {
            "inputs": [
                {
                    "internalType": "address",
                    "name": "_spender",
                    "type": "address"
                },
                {
                    "internalType": "uint256",
                    "name": "_subtractableValue",
                    "type": "uint256"
                }
            ],
            "name": "decreaseAllowance",
            "outputs": [
                {
                    "internalType": "bool",
                    "name": "",
                    "type": "bool"
                }
            ],
            "stateMutability": "nonpayable",
            "type": "function"
        },
        {
            "inputs": [],
            "name": "deposit",
            "outputs": [],
            "stateMutability": "payable",
            "type": "function"
        },
        {
            "inputs": [
                {
                    "internalType": "address",
                    "name": "_recipient",
                    "type": "address"
                }
            ],
            "name": "depositAndTransfer",
            "outputs": [],
            "stateMutability": "payable",
            "type": "function"
        },
        {
            "inputs": [
                {
                    "internalType": "uint256",
                    "name": "_maxCount",
                    "type": "uint256"
                }
            ],
            "name": "depositToConsensusLayer",
            "outputs": [],
            "stateMutability": "nonpayable",
            "type": "function"
        },
        {
            "inputs": [],
            "name": "getAdmin",
            "outputs": [
                {
                    "internalType": "address",
                    "name": "",
                    "type": "address"
                }
            ],
            "stateMutability": "view",
            "type": "function"
        },
        {
            "inputs": [],
            "name": "getAllowlist",
            "outputs": [
                {
                    "internalType": "address",
                    "name": "",
                    "type": "address"
                }
            ],
            "stateMutability": "view",
            "type": "function"
        },
        {
            "inputs": [],
            "name": "getBalanceToDeposit",
            "outputs": [
                {
                    "internalType": "uint256",
                    "name": "",
                    "type": "uint256"
                }
            ],
            "stateMutability": "view",
            "type": "function"
        },
        {
            "inputs": [],
            "name": "getBalanceToRedeem",
            "outputs": [
                {
                    "internalType": "uint256",
                    "name": "",
                    "type": "uint256"
                }
            ],
            "stateMutability": "view",
            "type": "function"
        },
        {
            "inputs": [],
            "name": "getCLSpec",
            "outputs": [
                {
                    "components": [
                        {
                            "internalType": "uint64",
                            "name": "epochsPerFrame",
                            "type": "uint64"
                        },
                        {
                            "internalType": "uint64",
                            "name": "slotsPerEpoch",
                            "type": "uint64"
                        },
                        {
                            "internalType": "uint64",
                            "name": "secondsPerSlot",
                            "type": "uint64"
                        },
                        {
                            "internalType": "uint64",
                            "name": "genesisTime",
                            "type": "uint64"
                        },
                        {
                            "internalType": "uint64",
                            "name": "epochsToAssumedFinality",
                            "type": "uint64"
                        }
                    ],
                    "internalType": "struct CLSpec.CLSpecStruct",
                    "name": "",
                    "type": "tuple"
                }
            ],
            "stateMutability": "view",
            "type": "function"
        },
        {
            "inputs": [],
            "name": "getCLValidatorCount",
            "outputs": [
                {
                    "internalType": "uint256",
                    "name": "",
                    "type": "uint256"
                }
            ],
            "stateMutability": "view",
            "type": "function"
        },
        {
            "inputs": [],
            "name": "getCLValidatorTotalBalance",
            "outputs": [
                {
                    "internalType": "uint256",
                    "name": "",
                    "type": "uint256"
                }
            ],
            "stateMutability": "view",
            "type": "function"
        },
        {
            "inputs": [],
            "name": "getCollector",
            "outputs": [
                {
                    "internalType": "address",
                    "name": "",
                    "type": "address"
                }
            ],
            "stateMutability": "view",
            "type": "function"
        },
        {
            "inputs": [],
            "name": "getCommittedBalance",
            "outputs": [
                {
                    "internalType": "uint256",
                    "name": "",
                    "type": "uint256"
                }
            ],
            "stateMutability": "view",
            "type": "function"
        },
        {
            "inputs": [],
            "name": "getCoverageFund",
            "outputs": [
                {
                    "internalType": "address",
                    "name": "",
                    "type": "address"
                }
            ],
            "stateMutability": "view",
            "type": "function"
        },
        {
            "inputs": [],
            "name": "getCurrentEpochId",
            "outputs": [
                {
                    "internalType": "uint256",
                    "name": "",
                    "type": "uint256"
                }
            ],
            "stateMutability": "view",
            "type": "function"
        },
        {
            "inputs": [],
            "name": "getCurrentFrame",
            "outputs": [
                {
                    "internalType": "uint256",
                    "name": "_startEpochId",
                    "type": "uint256"
                },
                {
                    "internalType": "uint256",
                    "name": "_startTime",
                    "type": "uint256"
                },
                {
                    "internalType": "uint256",
                    "name": "_endTime",
                    "type": "uint256"
                }
            ],
            "stateMutability": "view",
            "type": "function"
        },
        {
            "inputs": [],
            "name": "getDailyCommittableLimits",
            "outputs": [
                {
                    "components": [
                        {
                            "internalType": "uint128",
                            "name": "minDailyNetCommittableAmount",
                            "type": "uint128"
                        },
                        {
                            "internalType": "uint128",
                            "name": "maxDailyRelativeCommittableAmount",
                            "type": "uint128"
                        }
                    ],
                    "internalType": "struct DailyCommittableLimits.DailyCommittableLimitsStruct",
                    "name": "",
                    "type": "tuple"
                }
            ],
            "stateMutability": "view",
            "type": "function"
        },
        {
            "inputs": [],
            "name": "getDepositedValidatorCount",
            "outputs": [
                {
                    "internalType": "uint256",
                    "name": "",
                    "type": "uint256"
                }
            ],
            "stateMutability": "view",
            "type": "function"
        },
        {
            "inputs": [],
            "name": "getELFeeRecipient",
            "outputs": [
                {
                    "internalType": "address",
                    "name": "",
                    "type": "address"
                }
            ],
            "stateMutability": "view",
            "type": "function"
        },
        {
            "inputs": [],
            "name": "getExpectedEpochId",
            "outputs": [
                {
                    "internalType": "uint256",
                    "name": "",
                    "type": "uint256"
                }
            ],
            "stateMutability": "view",
            "type": "function"
        },
        {
            "inputs": [
                {
                    "internalType": "uint256",
                    "name": "_epochId",
                    "type": "uint256"
                }
            ],
            "name": "getFrameFirstEpochId",
            "outputs": [
                {
                    "internalType": "uint256",
                    "name": "",
                    "type": "uint256"
                }
            ],
            "stateMutability": "view",
            "type": "function"
        },
        {
            "inputs": [],
            "name": "getGlobalFee",
            "outputs": [
                {
                    "internalType": "uint256",
                    "name": "",
                    "type": "uint256"
                }
            ],
            "stateMutability": "view",
            "type": "function"
        },
        {
            "inputs": [],
            "name": "getLastCompletedEpochId",
            "outputs": [
                {
                    "internalType": "uint256",
                    "name": "",
                    "type": "uint256"
                }
            ],
            "stateMutability": "view",
            "type": "function"
        },
        {
            "inputs": [],
            "name": "getLastConsensusLayerReport",
            "outputs": [
                {
                    "components": [
                        {
                            "internalType": "uint256",
                            "name": "epoch",
                            "type": "uint256"
                        },
                        {
                            "internalType": "uint256",
                            "name": "validatorsBalance",
                            "type": "uint256"
                        },
                        {
                            "internalType": "uint256",
                            "name": "validatorsSkimmedBalance",
                            "type": "uint256"
                        },
                        {
                            "internalType": "uint256",
                            "name": "validatorsExitedBalance",
                            "type": "uint256"
                        },
                        {
                            "internalType": "uint256",
                            "name": "validatorsExitingBalance",
                            "type": "uint256"
                        },
                        {
                            "internalType": "uint32",
                            "name": "validatorsCount",
                            "type": "uint32"
                        },
                        {
                            "internalType": "bool",
                            "name": "rebalanceDepositToRedeemMode",
                            "type": "bool"
                        },
                        {
                            "internalType": "bool",
                            "name": "slashingContainmentMode",
                            "type": "bool"
                        }
                    ],
                    "internalType": "struct IOracleManagerV1.StoredConsensusLayerReport",
                    "name": "",
                    "type": "tuple"
                }
            ],
            "stateMutability": "view",
            "type": "function"
        },
        {
            "inputs": [],
            "name": "getMetadataURI",
            "outputs": [
                {
                    "internalType": "string",
                    "name": "",
                    "type": "string"
                }
            ],
            "stateMutability": "view",
            "type": "function"
        },
        {
            "inputs": [],
            "name": "getOperatorsRegistry",
            "outputs": [
                {
                    "internalType": "address",
                    "name": "",
                    "type": "address"
                }
            ],
            "stateMutability": "view",
            "type": "function"
        },
        {
            "inputs": [],
            "name": "getOracle",
            "outputs": [
                {
                    "internalType": "address",
                    "name": "",
                    "type": "address"
                }
            ],
            "stateMutability": "view",
            "type": "function"
        },
        {
            "inputs": [],
            "name": "getPendingAdmin",
            "outputs": [
                {
                    "internalType": "address",
                    "name": "",
                    "type": "address"
                }
            ],
            "stateMutability": "view",
            "type": "function"
        },
        {
            "inputs": [],
            "name": "getRedeemManager",
            "outputs": [
                {
                    "internalType": "address",
                    "name": "",
                    "type": "address"
                }
            ],
            "stateMutability": "view",
            "type": "function"
        },
        {
            "inputs": [],
            "name": "getReportBounds",
            "outputs": [
                {
                    "components": [
                        {
                            "internalType": "uint256",
                            "name": "annualAprUpperBound",
                            "type": "uint256"
                        },
                        {
                            "internalType": "uint256",
                            "name": "relativeLowerBound",
                            "type": "uint256"
                        }
                    ],
                    "internalType": "struct ReportBounds.ReportBoundsStruct",
                    "name": "",
                    "type": "tuple"
                }
            ],
            "stateMutability": "view",
            "type": "function"
        },
        {
            "inputs": [],
            "name": "getTime",
            "outputs": [
                {
                    "internalType": "uint256",
                    "name": "",
                    "type": "uint256"
                }
            ],
            "stateMutability": "view",
            "type": "function"
        },
        {
            "inputs": [],
            "name": "getWithdrawalCredentials",
            "outputs": [
                {
                    "internalType": "bytes32",
                    "name": "",
                    "type": "bytes32"
                }
            ],
            "stateMutability": "view",
            "type": "function"
        },
        {
            "inputs": [
                {
                    "internalType": "address",
                    "name": "_spender",
                    "type": "address"
                },
                {
                    "internalType": "uint256",
                    "name": "_additionalValue",
                    "type": "uint256"
                }
            ],
            "name": "increaseAllowance",
            "outputs": [
                {
                    "internalType": "bool",
                    "name": "",
                    "type": "bool"
                }
            ],
            "stateMutability": "nonpayable",
            "type": "function"
        },
        {
            "inputs": [
                {
                    "internalType": "address",
                    "name": "_depositContractAddress",
                    "type": "address"
                },
                {
                    "internalType": "address",
                    "name": "_elFeeRecipientAddress",
                    "type": "address"
                },
                {
                    "internalType": "bytes32",
                    "name": "_withdrawalCredentials",
                    "type": "bytes32"
                },
                {
                    "internalType": "address",
                    "name": "_oracleAddress",
                    "type": "address"
                },
                {
                    "internalType": "address",
                    "name": "_systemAdministratorAddress",
                    "type": "address"
                },
                {
                    "internalType": "address",
                    "name": "_allowlistAddress",
                    "type": "address"
                },
                {
                    "internalType": "address",
                    "name": "_operatorRegistryAddress",
                    "type": "address"
                },
                {
                    "internalType": "address",
                    "name": "_collectorAddress",
                    "type": "address"
                },
                {
                    "internalType": "uint256",
                    "name": "_globalFee",
                    "type": "uint256"
                }
            ],
            "name": "initRiverV1",
            "outputs": [],
            "stateMutability": "nonpayable",
            "type": "function"
        },
        {
            "inputs": [
                {
                    "internalType": "address",
                    "name": "_redeemManager",
                    "type": "address"
                },
                {
                    "internalType": "uint64",
                    "name": "_epochsPerFrame",
                    "type": "uint64"
                },
                {
                    "internalType": "uint64",
                    "name": "_slotsPerEpoch",
                    "type": "uint64"
                },
                {
                    "internalType": "uint64",
                    "name": "_secondsPerSlot",
                    "type": "uint64"
                },
                {
                    "internalType": "uint64",
                    "name": "_genesisTime",
                    "type": "uint64"
                },
                {
                    "internalType": "uint64",
                    "name": "_epochsToAssumedFinality",
                    "type": "uint64"
                },
                {
                    "internalType": "uint256",
                    "name": "_annualAprUpperBound",
                    "type": "uint256"
                },
                {
                    "internalType": "uint256",
                    "name": "_relativeLowerBound",
                    "type": "uint256"
                },
                {
                    "internalType": "uint128",
                    "name": "_minDailyNetCommittableAmount_",
                    "type": "uint128"
                },
                {
                    "internalType": "uint128",
                    "name": "_maxDailyRelativeCommittableAmount_",
                    "type": "uint128"
                }
            ],
            "name": "initRiverV1_1",
            "outputs": [],
            "stateMutability": "nonpayable",
            "type": "function"
        },
        {
            "inputs": [
                {
                    "internalType": "uint256",
                    "name": "_epoch",
                    "type": "uint256"
                }
            ],
            "name": "isValidEpoch",
            "outputs": [
                {
                    "internalType": "bool",
                    "name": "",
                    "type": "bool"
                }
            ],
            "stateMutability": "view",
            "type": "function"
        },
        {
            "inputs": [],
            "name": "name",
            "outputs": [
                {
                    "internalType": "string",
                    "name": "",
                    "type": "string"
                }
            ],
            "stateMutability": "pure",
            "type": "function"
        },
        {
            "inputs": [
                {
                    "internalType": "address",
                    "name": "_newAdmin",
                    "type": "address"
                }
            ],
            "name": "proposeAdmin",
            "outputs": [],
            "stateMutability": "nonpayable",
            "type": "function"
        },
        {
            "inputs": [
                {
                    "internalType": "uint256",
                    "name": "_lsETHAmount",
                    "type": "uint256"
                },
                {
                    "internalType": "address",
                    "name": "_recipient",
                    "type": "address"
                }
            ],
            "name": "requestRedeem",
            "outputs": [
                {
                    "internalType": "uint32",
                    "name": "_redeemRequestId",
                    "type": "uint32"
                }
            ],
            "stateMutability": "nonpayable",
            "type": "function"
        },
        {
            "inputs": [
                {
                    "internalType": "uint32[]",
                    "name": "_redeemRequestIds",
                    "type": "uint32[]"
                }
            ],
            "name": "resolveRedeemRequests",
            "outputs": [
                {
                    "internalType": "int64[]",
                    "name": "withdrawalEventIds",
                    "type": "int64[]"
                }
            ],
            "stateMutability": "view",
            "type": "function"
        },
        {
            "inputs": [],
            "name": "sendCLFunds",
            "outputs": [],
            "stateMutability": "payable",
            "type": "function"
        },
        {
            "inputs": [],
            "name": "sendCoverageFunds",
            "outputs": [],
            "stateMutability": "payable",
            "type": "function"
        },
        {
            "inputs": [],
            "name": "sendELFees",
            "outputs": [],
            "stateMutability": "payable",
            "type": "function"
        },
        {
            "inputs": [],
            "name": "sendRedeemManagerExceedingFunds",
            "outputs": [],
            "stateMutability": "payable",
            "type": "function"
        },
        {
            "inputs": [
                {
                    "internalType": "address",
                    "name": "_newAllowlist",
                    "type": "address"
                }
            ],
            "name": "setAllowlist",
            "outputs": [],
            "stateMutability": "nonpayable",
            "type": "function"
        },
        {
            "inputs": [
                {
                    "components": [
                        {
                            "internalType": "uint64",
                            "name": "epochsPerFrame",
                            "type": "uint64"
                        },
                        {
                            "internalType": "uint64",
                            "name": "slotsPerEpoch",
                            "type": "uint64"
                        },
                        {
                            "internalType": "uint64",
                            "name": "secondsPerSlot",
                            "type": "uint64"
                        },
                        {
                            "internalType": "uint64",
                            "name": "genesisTime",
                            "type": "uint64"
                        },
                        {
                            "internalType": "uint64",
                            "name": "epochsToAssumedFinality",
                            "type": "uint64"
                        }
                    ],
                    "internalType": "struct CLSpec.CLSpecStruct",
                    "name": "_newValue",
                    "type": "tuple"
                }
            ],
            "name": "setCLSpec",
            "outputs": [],
            "stateMutability": "nonpayable",
            "type": "function"
        },
        {
            "inputs": [
                {
                    "internalType": "address",
                    "name": "_newCollector",
                    "type": "address"
                }
            ],
            "name": "setCollector",
            "outputs": [],
            "stateMutability": "nonpayable",
            "type": "function"
        },
        {
            "inputs": [
                {
                    "components": [
                        {
                            "internalType": "uint256",
                            "name": "epoch",
                            "type": "uint256"
                        },
                        {
                            "internalType": "uint256",
                            "name": "validatorsBalance",
                            "type": "uint256"
                        },
                        {
                            "internalType": "uint256",
                            "name": "validatorsSkimmedBalance",
                            "type": "uint256"
                        },
                        {
                            "internalType": "uint256",
                            "name": "validatorsExitedBalance",
                            "type": "uint256"
                        },
                        {
                            "internalType": "uint256",
                            "name": "validatorsExitingBalance",
                            "type": "uint256"
                        },
                        {
                            "internalType": "uint32",
                            "name": "validatorsCount",
                            "type": "uint32"
                        },
                        {
                            "internalType": "uint32[]",
                            "name": "stoppedValidatorCountPerOperator",
                            "type": "uint32[]"
                        },
                        {
                            "internalType": "bool",
                            "name": "rebalanceDepositToRedeemMode",
                            "type": "bool"
                        },
                        {
                            "internalType": "bool",
                            "name": "slashingContainmentMode",
                            "type": "bool"
                        }
                    ],
                    "internalType": "struct IOracleManagerV1.ConsensusLayerReport",
                    "name": "_report",
                    "type": "tuple"
                }
            ],
            "name": "setConsensusLayerData",
            "outputs": [],
            "stateMutability": "nonpayable",
            "type": "function"
        },
        {
            "inputs": [
                {
                    "internalType": "address",
                    "name": "_newCoverageFund",
                    "type": "address"
                }
            ],
            "name": "setCoverageFund",
            "outputs": [],
            "stateMutability": "nonpayable",
            "type": "function"
        },
        {
            "inputs": [
                {
                    "components": [
                        {
                            "internalType": "uint128",
                            "name": "minDailyNetCommittableAmount",
                            "type": "uint128"
                        },
                        {
                            "internalType": "uint128",
                            "name": "maxDailyRelativeCommittableAmount",
                            "type": "uint128"
                        }
                    ],
                    "internalType": "struct DailyCommittableLimits.DailyCommittableLimitsStruct",
                    "name": "_dcl",
                    "type": "tuple"
                }
            ],
            "name": "setDailyCommittableLimits",
            "outputs": [],
            "stateMutability": "nonpayable",
            "type": "function"
        },
        {
            "inputs": [
                {
                    "internalType": "address",
                    "name": "_newELFeeRecipient",
                    "type": "address"
                }
            ],
            "name": "setELFeeRecipient",
            "outputs": [],
            "stateMutability": "nonpayable",
            "type": "function"
        },
        {
            "inputs": [
                {
                    "internalType": "uint256",
                    "name": "_newFee",
                    "type": "uint256"
                }
            ],
            "name": "setGlobalFee",
            "outputs": [],
            "stateMutability": "nonpayable",
            "type": "function"
        },
        {
            "inputs": [
                {
                    "internalType": "string",
                    "name": "_metadataURI",
                    "type": "string"
                }
            ],
            "name": "setMetadataURI",
            "outputs": [],
            "stateMutability": "nonpayable",
            "type": "function"
        },
        {
            "inputs": [
                {
                    "internalType": "address",
                    "name": "_oracleAddress",
                    "type": "address"
                }
            ],
            "name": "setOracle",
            "outputs": [],
            "stateMutability": "nonpayable",
            "type": "function"
        },
        {
            "inputs": [
                {
                    "components": [
                        {
                            "internalType": "uint256",
                            "name": "annualAprUpperBound",
                            "type": "uint256"
                        },
                        {
                            "internalType": "uint256",
                            "name": "relativeLowerBound",
                            "type": "uint256"
                        }
                    ],
                    "internalType": "struct ReportBounds.ReportBoundsStruct",
                    "name": "_newValue",
                    "type": "tuple"
                }
            ],
            "name": "setReportBounds",
            "outputs": [],
            "stateMutability": "nonpayable",
            "type": "function"
        },
        {
            "inputs": [
                {
                    "internalType": "uint256",
                    "name": "_underlyingAssetAmount",
                    "type": "uint256"
                }
            ],
            "name": "sharesFromUnderlyingBalance",
            "outputs": [
                {
                    "internalType": "uint256",
                    "name": "",
                    "type": "uint256"
                }
            ],
            "stateMutability": "view",
            "type": "function"
        },
        {
            "inputs": [],
            "name": "symbol",
            "outputs": [
                {
                    "internalType": "string",
                    "name": "",
                    "type": "string"
                }
            ],
            "stateMutability": "pure",
            "type": "function"
        },
        {
            "inputs": [],
            "name": "totalSupply",
            "outputs": [
                {
                    "internalType": "uint256",
                    "name": "",
                    "type": "uint256"
                }
            ],
            "stateMutability": "view",
            "type": "function"
        },
        {
            "inputs": [],
            "name": "totalUnderlyingSupply",
            "outputs": [
                {
                    "internalType": "uint256",
                    "name": "",
                    "type": "uint256"
                }
            ],
            "stateMutability": "view",
            "type": "function"
        },
        {
            "inputs": [
                {
                    "internalType": "address",
                    "name": "_to",
                    "type": "address"
                },
                {
                    "internalType": "uint256",
                    "name": "_value",
                    "type": "uint256"
                }
            ],
            "name": "transfer",
            "outputs": [
                {
                    "internalType": "bool",
                    "name": "",
                    "type": "bool"
                }
            ],
            "stateMutability": "nonpayable",
            "type": "function"
        },
        {
            "inputs": [
                {
                    "internalType": "address",
                    "name": "_from",
                    "type": "address"
                },
                {
                    "internalType": "address",
                    "name": "_to",
                    "type": "address"
                },
                {
                    "internalType": "uint256",
                    "name": "_value",
                    "type": "uint256"
                }
            ],
            "name": "transferFrom",
            "outputs": [
                {
                    "internalType": "bool",
                    "name": "",
                    "type": "bool"
                }
            ],
            "stateMutability": "nonpayable",
            "type": "function"
        },
        {
            "inputs": [
                {
                    "internalType": "uint256",
                    "name": "_shares",
                    "type": "uint256"
                }
            ],
            "name": "underlyingBalanceFromShares",
            "outputs": [
                {
                    "internalType": "uint256",
                    "name": "",
                    "type": "uint256"
                }
            ],
            "stateMutability": "view",
            "type": "function"
        },
        {
            "stateMutability": "payable",
            "type": "receive"
        },
        {
            "inputs": [
                {
                    "internalType": "address",
                    "name": "_logic",
                    "type": "address"
                },
                {
                    "internalType": "address",
                    "name": "__admin",
                    "type": "address"
                },
                {
                    "internalType": "bytes",
                    "name": "_data",
                    "type": "bytes"
                }
            ],
            "stateMutability": "payable",
            "type": "constructor"
        },
        {
            "inputs": [],
            "name": "CallWhenPaused",
            "type": "error"
        },
        {
            "anonymous": false,
            "inputs": [
                {
                    "indexed": false,
                    "internalType": "address",
                    "name": "previousAdmin",
                    "type": "address"
                },
                {
                    "indexed": false,
                    "internalType": "address",
                    "name": "newAdmin",
                    "type": "address"
                }
            ],
            "name": "AdminChanged",
            "type": "event"
        },
        {
            "anonymous": false,
            "inputs": [
                {
                    "indexed": true,
                    "internalType": "address",
                    "name": "beacon",
                    "type": "address"
                }
            ],
            "name": "BeaconUpgraded",
            "type": "event"
        },
        {
            "anonymous": false,
            "inputs": [
                {
                    "indexed": false,
                    "internalType": "address",
                    "name": "admin",
                    "type": "address"
                }
            ],
            "name": "Paused",
            "type": "event"
        },
        {
            "anonymous": false,
            "inputs": [
                {
                    "indexed": false,
                    "internalType": "address",
                    "name": "admin",
                    "type": "address"
                }
            ],
            "name": "Unpaused",
            "type": "event"
        },
        {
            "anonymous": false,
            "inputs": [
                {
                    "indexed": true,
                    "internalType": "address",
                    "name": "implementation",
                    "type": "address"
                }
            ],
            "name": "Upgraded",
            "type": "event"
        },
        {
            "stateMutability": "payable",
            "type": "fallback"
        },
        {
            "inputs": [],
            "name": "admin",
            "outputs": [
                {
                    "internalType": "address",
                    "name": "admin_",
                    "type": "address"
                }
            ],
            "stateMutability": "nonpayable",
            "type": "function"
        },
        {
            "inputs": [
                {
                    "internalType": "address",
                    "name": "newAdmin",
                    "type": "address"
                }
            ],
            "name": "changeAdmin",
            "outputs": [],
            "stateMutability": "nonpayable",
            "type": "function"
        },
        {
            "inputs": [],
            "name": "implementation",
            "outputs": [
                {
                    "internalType": "address",
                    "name": "implementation_",
                    "type": "address"
                }
            ],
            "stateMutability": "nonpayable",
            "type": "function"
        },
        {
            "inputs": [],
            "name": "pause",
            "outputs": [],
            "stateMutability": "nonpayable",
            "type": "function"
        },
        {
            "inputs": [],
            "name": "paused",
            "outputs": [
                {
                    "internalType": "bool",
                    "name": "",
                    "type": "bool"
                }
            ],
            "stateMutability": "nonpayable",
            "type": "function"
        },
        {
            "inputs": [],
            "name": "unpause",
            "outputs": [],
            "stateMutability": "nonpayable",
            "type": "function"
        },
        {
            "inputs": [
                {
                    "internalType": "address",
                    "name": "newImplementation",
                    "type": "address"
                }
            ],
            "name": "upgradeTo",
            "outputs": [],
            "stateMutability": "nonpayable",
            "type": "function"
        },
        {
            "inputs": [
                {
                    "internalType": "address",
                    "name": "newImplementation",
                    "type": "address"
                },
                {
                    "internalType": "bytes",
                    "name": "data",
                    "type": "bytes"
                }
            ],
            "name": "upgradeToAndCall",
            "outputs": [],
            "stateMutability": "payable",
            "type": "function"
        },
        {
            "stateMutability": "payable",
            "type": "receive"
        }
    ],
    "transactionHash": "0x76f4bf604130b9ebd76bb429509b87052bed7775c0d46e1f2fb9a2b7068c8ee7",
    "args": [
        "0x31a2297fc5715b59EC09941c2beca511a3fCB470",
        "0x67bc791A7EA5A98DDcEcBbF6580aE1BB310F5d9B",
        "0x281a3122000000000000000000000000ff50ed3d0ec03ac01d4c79aad74928bff48a7b2b0000000000000000000000005654f8dffe80ca9fa270540c44f230ceeb0ea3bb01000000000000000000000040a369dd92f043a6782f4d071f9d2ba22b4ea14d000000000000000000000000088050c58ae0f447d52674ac58e20dd2fb68e2da000000000000000000000000585cd8e3ac1258c35b22ce489590ef25eaffeeea000000000000000000000000e7b74d98d46a8e0979b0342172a3a4890f852558000000000000000000000000f06bed337f29cb856b072dc8d57a2c22fb2ec2cb000000000000000000000000892d14b50cc7a8278fa254a63b6c5b8b1a110ff100000000000000000000000000000000000000000000000000000000000004e2"
    ],
    "numDeployments": 1,
    "solcInputHash": "803b991b13fc3eb82937205601e77786",
    "bytecode": "0x60806040523480156200001157600080fd5b506200002a6000196200007060201b620024aa1760201c565b7f1809e49bba43f2d39fa57894b50cd6ccb428cc438230e065cac3eb24a1355a716000196000366040516200006293929190620000bd565b60405180910390a162000119565b620000b6620000a160017f82055909238c0f5e63d6f174068ebb8f51bcec9bd37de63bb68f6551feec0cfd620000f3565b60001b82620000b960201b620024dd1760201c565b50565b9055565b83815260406020820152816040820152818360608301376000818301606090810191909152601f909201601f1916010192915050565b6000828210156200011457634e487b7160e01b600052601160045260246000fd5b500390565b615fb480620001296000396000f3fe6080604052600436106103ba5760003560e01c80635d95e801116101f9578063a29a839f1161011e578063d4970524116100b6578063efd668461161007a578063efd6684614610c07578063f79c3f0214610c27578063f9f95a9014610c47578063fb5b82d014610c67578063fe7c12ae14610c87576103ca565b8063d497052414610b9b578063d7f8f47414610790578063dd62ed3e14610ba3578063e3a88e6114610bc3578063efd6034714610bff576103ca565b8063a29a839f14610acc578063a457c2d714610ae1578063a9059cbb14610b01578063ac232bde14610b21578063bb6583ec14610b34578063bf15af5614610b54578063c5eff3d014610b69578063d046815614610b7e578063d0e30db014610b93576103ca565b80637adbf973116101915780637adbf973146109b8578063833b1fce146109d857806386a92af7146109ed57806387f2adfb14610a0257806389896aef14610a175780639332525d14610a2c57806395d89b4114610a595780639b498e2614610a875780639d49cca114610a9c576103ca565b80635d95e801146108a95780635f2e5f07146108b157806363f62aaf146108de5780636e9960c3146108f357806370a082311461090857806372f79b1314610928578063750521f51461095857806378a010e814610978578063799a195414610998576103ca565b806323b872dd116102df5780633af9e669116102775780633af9e669146107cd57806346425ef0146107ed5780634b47b74f146108025780635022820114610817578063540bc5ea1461082c578063557ed1ba14610841578063563967151461085457806357fa85471461086957806358bf3c7f14610889576103ca565b806323b872dd14610686578063281a3122146106a6578063291206f6146106c65780632cb562e1146106e65780632d6b59bf146106fb5780632dc5c97c14610710578063313ce5671461077457806336bf33251461079057806339509351146107ad576103ca565b80631311cf8d116103525780631311cf8d1461052557806313d86aed14610545578063143a08d414610565578063147bf6c41461057a5780631546962b1461059a57806315ca4cee146105bc57806317e64858146105dc57806318160ddd1461065c5780631bcbfaba14610671576103ca565b8063020f086e146103e35780630407de471461040357806304843a1714610423578063056850c61461044b57806306fdde0314610453578063095ea7b3146104965780630e18b681146104c6578063107703ab146104db578063107d7fa014610510576103ca565b366103ca576103c833610c9c565b005b60405163574b16a760e11b815260040160405180910390fd5b3480156103ef57600080fd5b506103c86103fe366004615048565b610d23565b34801561040f57600080fd5b506103c861041e366004615091565b610da7565b34801561042f57600080fd5b50610438610ec9565b6040519081526020015b60405180910390f35b6103c8610ed8565b34801561045f57600080fd5b50604080518082019091526011815270098d2e2ead2c840a6e8c2d6cac8408aa89607b1b60208201525b6040516104429190615195565b3480156104a257600080fd5b506104b66104b13660046151a8565b610f15565b6040519015158152602001610442565b3480156104d257600080fd5b506103c8610f2b565b3480156104e757600080fd5b506104fb6104f63660046151d2565b610f80565b60405163ffffffff9091168152602001610442565b34801561051c57600080fd5b50610438611078565b34801561053157600080fd5b506103c8610540366004615048565b611091565b34801561055157600080fd5b506103c86105603660046151fe565b61110c565b34801561057157600080fd5b506104386112b4565b34801561058657600080fd5b506103c8610595366004615048565b6112be565b3480156105a657600080fd5b506105af611305565b6040516104429190615217565b3480156105c857600080fd5b506103c86105d736600461522b565b61130f565b3480156105e857600080fd5b506105f16113a2565b6040516104429190600061010082019050825182526020830151602083015260408301516040830152606083015160608301526080830151608083015263ffffffff60a08401511660a083015260c0830151151560c083015260e0830151151560e083015292915050565b34801561066857600080fd5b50610438611425565b34801561067d57600080fd5b5061043861142f565b34801561069257600080fd5b506104b66106a136600461523d565b611439565b3480156106b257600080fd5b506103c86106c1366004615279565b6114ec565b3480156106d257600080fd5b506103c86106e13660046151fe565b6116a7565b3480156106f257600080fd5b506105af61171b565b34801561070757600080fd5b50610438611725565b34801561071c57600080fd5b5061072561172f565b604051610442919081516001600160401b039081168252602080840151821690830152604080840151821690830152606080840151821690830152608092830151169181019190915260a00190565b34801561078057600080fd5b5060405160128152602001610442565b34801561079c57600080fd5b506104386801bc16d674ec80000081565b3480156107b957600080fd5b506104b66107c83660046151a8565b61173f565b3480156107d957600080fd5b506104386107e8366004615048565b611760565b3480156107f957600080fd5b50610438611779565b34801561080e57600080fd5b5061043861178c565b34801561082357600080fd5b506105af6117f5565b34801561083857600080fd5b50610438606081565b34801561084d57600080fd5b5042610438565b34801561086057600080fd5b506104386117ff565b34801561087557600080fd5b506104386108843660046151fe565b611809565b34801561089557600080fd5b506103c86108a4366004615048565b611831565b6103c86118ac565b3480156108bd57600080fd5b506108d16108cc36600461535e565b6118b4565b604051610442919061539f565b3480156108ea57600080fd5b506105af611930565b3480156108ff57600080fd5b506105af61193a565b34801561091457600080fd5b50610438610923366004615048565b611944565b34801561093457600080fd5b5061093d61194f565b60408051938452602084019290925290820152606001610442565b34801561096457600080fd5b506103c861097336600461547b565b611a1f565b34801561098457600080fd5b506103c86109933660046154fa565b611a9b565b3480156109a457600080fd5b506104386109b33660046151fe565b611b6c565b3480156109c457600080fd5b506103c86109d3366004615048565b611b77565b3480156109e457600080fd5b506105af611bf2565b3480156109f957600080fd5b50610489611bfc565b348015610a0e57600080fd5b50610438611c06565b348015610a2357600080fd5b50610438611c10565b348015610a3857600080fd5b50610a4c610a4736600461550c565b611c20565b6040516104429190615577565b348015610a6557600080fd5b50604080518082019091526005815264098e68aa8960db1b6020820152610489565b348015610a9357600080fd5b506105af611cb2565b348015610aa857600080fd5b50610ab1611cbc565b60408051825181526020928301519281019290925201610442565b348015610ad857600080fd5b50610438611cd8565b348015610aed57600080fd5b506104b6610afc3660046151a8565b611cea565b348015610b0d57600080fd5b506104b6610b1c3660046151a8565b611d06565b6103c8610b2f366004615048565b611da5565b348015610b4057600080fd5b506103c8610b4f3660046155b2565b611db7565b348015610b6057600080fd5b50610438603081565b348015610b7557600080fd5b506105af611dfb565b348015610b8a57600080fd5b506105af611e05565b6103c8611e0f565b6103c8611e18565b348015610baf57600080fd5b50610438610bbe3660046155ef565b611e20565b348015610bcf57600080fd5b50610bd8611e2c565b6040805182516001600160801b039081168252602093840151169281019290925201610442565b6103c8611e48565b348015610c1357600080fd5b506103c8610c22366004615619565b611e50565b348015610c3357600080fd5b50610438610c423660046151fe565b612407565b348015610c5357600080fd5b506104b6610c623660046151fe565b612412565b348015610c7357600080fd5b506103c8610c82366004615048565b612425565b348015610c9357600080fd5b506104386124a0565b34610cba576040516395b66fe960e01b815260040160405180910390fd5b610cd534610cc66124e1565b610cd0919061566a565b612515565b610ce033823461255e565b6040513481526001600160a01b0382169033907f3bc57f469ad6d10d7723ea226cd22bd2b9e527def2b529f6ab44645a166895829060200160405180910390a350565b610d2b6126f6565b6001600160a01b0316336001600160a01b031614610d67573360405163472511eb60e11b8152600401610d5e9190615217565b60405180910390fd5b610d7081612700565b6040516001600160a01b038216907f67b26a33f305cc027b2d45b2f6f418793afcd3e22f7376afa7be068ce18604e890600090a250565b6001610db1612737565b8114610de25780610dc0612737565b604051631cfd276760e31b815260048101929092526024820152604401610d5e565b610df5610df082600161566a565b6124aa565b610dfe8b612767565b7faf890c07e266df31e0725841eb0e85596a0caa1b17bbae5c0b206fdcc92d7ce18b604051610e2d9190615217565b60405180910390a1610e646040518060400160405280856001600160801b03168152602001846001600160801b031681525061279e565b610e738a8a8a8a8a8a8a6127f2565b610e80308c60001961294b565b7f1809e49bba43f2d39fa57894b50cd6ccb428cc438230e065cac3eb24a1355a7181600036604051610eb493929190615682565b60405180910390a15050505050505050505050565b6000610ed36124e1565b905090565b610ee06129ba565b6001600160a01b0316336001600160a01b031614610f13573360405163472511eb60e11b8152600401610d5e9190615217565b565b6000610f2233848461294b565b50600192915050565b610f336129ea565b6001600160a01b0316336001600160a01b031614610f66573360405163472511eb60e11b8152600401610d5e9190615217565b610f76610f716129ea565b6129f4565b610f136000612a3d565b6000610f8a612a7d565b6001600160a01b0316635a4091023360046040518363ffffffff1660e01b8152600401610fb89291906156b8565b60006040518083038186803b158015610fd057600080fd5b505afa158015610fe4573d6000803e3d6000fd5b50505050610ff3333085612aad565b50610ffc6129ba565b60405163107703ab60e01b8152600481018590526001600160a01b038481166024830152919091169063107703ab906044016020604051808303816000875af115801561104d573d6000803e3d6000fd5b505050506040513d601f19601f8201168201806040525081019061107191906156e3565b9392505050565b6000611082612b29565b6005015463ffffffff16919050565b6110996126f6565b6001600160a01b0316336001600160a01b0316146110cc573360405163472511eb60e11b8152600401610d5e9190615217565b6110d581612b57565b6040516001600160a01b038216907f1da4c245099590dc40be61880c9b97792f3694d970acc1e67ac0e6cc90f3780d90600090a250565b6000611116612b8e565b905060006111366111306801bc16d674ec80000084615716565b84612bbe565b90508061115657604051631036b5ad60e31b815260040160405180910390fd5b60008061116283612bd3565b81519193509150806111875760405163200149ad60e21b815260040160405180910390fd5b838111156111a857604051635993bd5760e01b815260040160405180910390fd5b60006111b2612c5b565b9050806111d257604051639be7315960e01b815260040160405180910390fd5b60005b828110156112225761121a8582815181106111f2576111f261572a565b602002602001015185838151811061120c5761120c61572a565b602002602001015184612c8b565b6001016111d5565b50611248611239836801bc16d674ec800000615740565b611243908861575f565b6130dc565b6000611252613125565b9050611266611261848361566a565b613155565b7f220ab8fd274cf58c09b0825ccf00e74ba4ce4117fd47285adc2183a635838f1b81611292858261566a565b6040805192835260208301919091520160405180910390a15050505050505050565b6000610ed3613183565b6112c66126f6565b6001600160a01b0316336001600160a01b0316146112f9573360405163472511eb60e11b8152600401610d5e9190615217565b61130281612a3d565b50565b6000610ed3613242565b611317613272565b6001600160a01b0316336001600160a01b03161461134a573360405163472511eb60e11b8152600401610d5e9190615217565b61136161135c36839003830183615776565b61327c565b6040805182358152602080840135908201527f5ab79ffcd89b6380c7fbdd89d02cfe3d9c53c99a85e150c2319075018d1aac5c91015b60405180910390a150565b6113aa614e9b565b6113b2612b29565b60408051610100810182528254815260018301546020820152600283015491810191909152600382015460608201526004820154608082015260059091015463ffffffff811660a083015260ff64010000000082048116151560c0840152600160281b90910416151560e0820152919050565b6000610ed36132bf565b6000610ed36132c9565b6000838361144782826132f9565b8380611466576040516336b216db60e21b815260040160405180910390fd5b86858061147283613425565b1015611491576040516351940b3960e11b815260040160405180910390fd5b6001600160a01b0388166114ca57604051637617407560e11b81526001600160a01b038a16600482015260006024820152604401610d5e565b6114d48988613430565b6114df898989612aad565b9998505050505050505050565b60006114f6612737565b81146115055780610dc0612737565b611513610df082600161566a565b61151c866129f4565b61152583613496565b6040516001600160a01b038416907f0cc5437d7c9c1d9eab549acbb533eea3e9868e9443dd75309ed5820b33a3774e90600090a2611562826134cd565b6040518281527fbd533e726baaf59b36f3914d950053f7e78f527057c97cd3f0043257fc0fc8849060200160405180910390a161159e89612b57565b6040516001600160a01b038a16907f1da4c245099590dc40be61880c9b97792f3694d970acc1e67ac0e6cc90f3780d90600090a26115db85613504565b6040516001600160a01b038616907f30f015a5d3c72c0a9414538199baa022323a483fa9e4ba2cd581596cf8ca042490600090a26116188461353b565b6040516001600160a01b038516907fffc0721ef0563a1b0a51a0dc92113025f33ca434ada9ee3eebff2f385d2a8f9a90600090a26116568a89613572565b61165f87611bb2565b7f1809e49bba43f2d39fa57894b50cd6ccb428cc438230e065cac3eb24a1355a718160003660405161169393929190615682565b60405180910390a150505050505050505050565b6116af6126f6565b6001600160a01b0316336001600160a01b0316146116e2573360405163472511eb60e11b8152600401610d5e9190615217565b6116eb816134cd565b6040518181527fbd533e726baaf59b36f3914d950053f7e78f527057c97cd3f0043257fc0fc88490602001611397565b6000610ed36135ee565b6000610ed361361e565b611737614eea565b610ed361364e565b6000610f2233848461175133886136da565b61175b919061566a565b61294b565b600061177361176e83613732565b613780565b92915050565b6000611783612b29565b60010154905090565b60008061179761364e565b905060006117a4826137b8565b90506117ee82600001516001600160401b03166117bf612b29565b546117ca919061566a565b83516117df906001600160401b0316846157a8565b6117e9908461575f565b613803565b9250505090565b6000610ed3613812565b6000610ed3612c5b565b600061181361364e565b51611827906001600160401b0316836157a8565b611773908361575f565b6118396126f6565b6001600160a01b0316336001600160a01b03161461186c573360405163472511eb60e11b8152600401610d5e9190615217565b61187581613504565b6040516001600160a01b038216907f30f015a5d3c72c0a9414538199baa022323a483fa9e4ba2cd581596cf8ca042490600090a250565b610ee0612c5b565b60606118be6129ba565b6001600160a01b0316635f2e5f0784846040518363ffffffff1660e01b81526004016118eb92919061580d565b600060405180830381865afa158015611908573d6000803e3d6000fd5b505050506040513d6000823e601f3d908101601f191682016040526110719190810190615844565b6000610ed36129ba565b6000610ed36126f6565b600061177382613425565b60008060008061195d61364e565b9050600061196a826137b8565b8251909150611982906001600160401b0316826157a8565b61198c908261575f565b945081604001516001600160401b031682602001516001600160401b0316866119b59190615740565b6119bf9190615740565b9350600182604001516001600160401b031683602001516001600160401b031684600001516001600160401b0316886119f8919061566a565b611a029190615740565b611a0c9190615740565b611a16919061575f565b92505050909192565b611a276126f6565b6001600160a01b0316336001600160a01b031614611a5a573360405163472511eb60e11b8152600401610d5e9190615217565b611a6381613842565b611a6c81613861565b7f8d2df192dd17edf92a7964b78aa322f3d717b2ab9de00651bee32bbc4c5da63a816040516113979190615195565b611aa3613272565b6001600160a01b0316336001600160a01b031614611ad6573360405163472511eb60e11b8152600401610d5e9190615217565b611aed611ae8368390038301836158e4565b6138ab565b7f25777eb44be046f64180acf8275f0ac2ec51e63a65a5f8a0f2f6d86ba25b74cf611b1b6020830183615971565b611b2b6040840160208501615971565b611b3b6060850160408601615971565b611b4b6080860160608701615971565b611b5b60a0870160808801615971565b60405161139795949392919061598c565b600061177382613967565b611b7f613272565b6001600160a01b0316336001600160a01b031614611bb2573360405163472511eb60e11b8152600401610d5e9190615217565b611bbb81613994565b6040516001600160a01b038216907fd3b5d1e0ffaeff528910f3663f0adace7694ab8241d58e17a91351ced2e0803190600090a250565b6000610ed36139cb565b6060610ed36139fb565b6000610ed3613125565b6000611c1a612b29565b54919050565b6060611c2a6129ba565b6001600160a01b0316637c044e5586868686600161ffff6040518763ffffffff1660e01b8152600401611c62969594939291906159be565b6000604051808303816000875af1158015611c81573d6000803e3d6000fd5b505050506040513d6000823e601f3d908101601f19168201604052611ca99190810190615a04565b95945050505050565b6000610ed3613ac1565b6040805180820190915260008082526020820152610ed3613af1565b6000610ed3611ce561364e565b6137b8565b6000610f22338484611cfc33886136da565b61175b919061575f565b60003383611d1482826132f9565b8380611d33576040516336b216db60e21b815260040160405180910390fd5b338580611d3f83613425565b1015611d5e576040516351940b3960e11b815260040160405180910390fd5b6001600160a01b038816611d8e57604051637617407560e11b815233600482015260006024820152604401610d5e565b611d99338989612aad565b98975050505050505050565b611dae81613b51565b61130281610c9c565b611dbf6126f6565b6001600160a01b0316336001600160a01b031614611df2573360405163472511eb60e11b8152600401610d5e9190615217565b6113028161279e565b6000610ed3612a7d565b6000610ed36129ea565b610f1333610c9c565b610ee0613242565b600061107183836136da565b6040805180820190915260008082526020820152610ed3613b78565b610ee06135ee565b611e586139cb565b6001600160a01b0316336001600160a01b031614611e8b573360405163472511eb60e11b8152600401610d5e9190615217565b6000611e9561364e565b9050611ea2818335613be6565b611ec25760405163a225656d60e01b815282356004820152602401610d5e565b611eca614f18565b6000611ed4612b29565b60038101546040840181905290915060608501351015611f19576040808301519051621ee1cf60e11b8152600481019190915260608501356024820152604401610d5e565b6040820151611f2c90606086013561575f565b608083015260028101546060830181905260408501351015611f7357606082015160408051636f24834360e01b815260048101929092528501356024820152604401610d5e565b611f7b613125565b611f8b60c0860160a08701615a99565b63ffffffff161180611fbb5750600581015463ffffffff16611fb360c0860160a08701615a99565b63ffffffff16105b1561201057611fd060c0850160a08601615a99565b611fd8613125565b6005830154604051632f776b1760e01b815263ffffffff93841660048201526024810192909252919091166044820152606401610d5e565b606082015161202390604086013561575f565b60a083015280546120379084908635613c43565b60c083015250612045613183565b815260a0810151608082015160009161205d9161566a565b1115612075576120758160a001518260800151613c7e565b61207d614e9b565b83358152602080850135908201526040808501359082015260608085013590820152608080850135908201526120b960c0850160a08601615a99565b63ffffffff1660a08201526120d5610100850160e08601615acf565b151560c08201526120ee61012085016101008601615acf565b151560e08201526120fe81613dab565b506000612109613af1565b905060006121208284600001518560c00151613e57565b905061212a613183565b602084018190528351116121bf57825161214590829061566a565b8360200151111561218d578251602084015160c0850151845160405163eb7a968960e01b81526004810194909452602484019290925260448301526064820152608401610d5e565b8251602084015161219e919061575f565b610120840180519190915251516121b5908261575f565b60e084015261225b565b60006121cf838560000151613e8b565b90506121df818560000151612bbe565b84516121eb919061575f565b8460200151101561223957835160208086015160c08701519186015160405163063bb83f60e11b8152610d5e9493919060040193845260208401929092526040830152606082015260800190565b6020840151845161224a919061575f565b612254908361566a565b60e0850152505b60e0830151156122b9576122728360e00151613ea0565b610120840180516020908101929092525190810151815190919061229790839061566a565b9052506101208301516020015160e0840180516122b590839061575f565b9052505b60e0830151156122f8576122d08360e00151613f68565b6101208401805160409081019290925251015160e0840180516122f490839061575f565b9052505b60e08301511561231a5761230f8360e0015161402e565b610120840151606001525b6101208301515115612336576101208301515161233690614100565b6123a5608086013561234b60c0880188615aec565b8080602002602001604051908101604052809392919081815260200183836020028082843760009201919091525061238e92505050610100890160e08a01615acf565b6123a06101208a016101008b01615acf565b614232565b6123ad61452d565b6123b56146b2565b6123c28360c001516146da565b7f49ac0d2bb2a688ca460f7993eb93eccd3b9c9188da6b0727e9a409cf8b105875858461012001516040516123f8929190615b7d565b60405180910390a15050505050565b600061177382613780565b600061177361241f61364e565b83613be6565b61242d6126f6565b6001600160a01b0316336001600160a01b031614612460573360405163472511eb60e11b8152600401610d5e9190615217565b61246981613496565b6040516001600160a01b038216907f0cc5437d7c9c1d9eab549acbb533eea3e9868e9443dd75309ed5820b33a3774e90600090a250565b6000610ed3612b8e565b6113026124d860017f82055909238c0f5e63d6f174068ebb8f51bcec9bd37de63bb68f6551feec0cfd61575f565b829055565b9055565b6000610ed361251160017f2b6136e423ab70d76431e2a635e877e16ea2dd9a895e054ad7f35f89d6c7b71161575f565b5490565b7f48f67c1dada0cab2163f6282292ad97ea97376cfed46bb3851654aaa630db72761253e6124e1565b60408051918252602082018490520160405180910390a161130281614790565b600061256a84836147be565b90506000612576612a7d565b9050836001600160a01b0316856001600160a01b031614156125f657604051632d20488160e11b81526001600160a01b03821690635a409102906125c19088906001906004016156b8565b60006040518083038186803b1580156125d957600080fd5b505afa1580156125ed573d6000803e3d6000fd5b505050506126ef565b604051632d20488160e11b81526001600160a01b03821690635a409102906126259088906001906004016156b8565b60006040518083038186803b15801561263d57600080fd5b505afa158015612651573d6000803e3d6000fd5b505060405163e838dfbb60e01b81526001600160a01b038416925063e838dfbb9150612681908790600401615217565b602060405180830381865afa15801561269e573d6000803e3d6000fd5b505050506040513d601f19601f820116820180604052508101906126c29190615c51565b156126e2578360405163e7d05e2760e01b8152600401610d5e9190615217565b6126ed858584612aad565b505b5050505050565b6000610ed361481d565b61270981613b51565b6113026124d860017ff4271262f3552a4108cde54dc75061de8de495709221d793b126e448522d6a8061575f565b6000610ed361251160017f82055909238c0f5e63d6f174068ebb8f51bcec9bd37de63bb68f6551feec0cfd61575f565b61277081613b51565b6113026124d860017fe458cbedf69109e7d57b7f8c96816615aac0017187d87abab9001d22db32bae461575f565b6127a78161484d565b805160208201516040517e4180017d3dd609da6980999655a6bd2591e313d31d6230b1889c369a9713a0926113979290916001600160801b0392831681529116602082015260400190565b61284e6040518060a00160405280896001600160401b03168152602001886001600160401b03168152602001876001600160401b03168152602001866001600160401b03168152602001856001600160401b03168152506138ab565b7f25777eb44be046f64180acf8275f0ac2ec51e63a65a5f8a0f2f6d86ba25b74cf878787878760405161288595949392919061598c565b60405180910390a16128aa60405180604001604052808481526020018381525061327c565b60408051838152602081018390527f5ab79ffcd89b6380c7fbdd89d02cfe3d9c53c99a85e150c2319075018d1aac5c910160405180910390a16128eb614e9b565b6128f361489f565b81526128fd6148cf565b602082015260006040820181905260608201819052608082015261291f6148ff565b63ffffffff1660a0820152600060c0820181905260e082015261294181613dab565b5050505050505050565b61295483613b51565b61295d82613b51565b61296883838361492f565b816001600160a01b0316836001600160a01b03167f8c5be1e5ebec7d5bd14f71427d1e84f3dd0314c0f7b2291e5b200ac8c7c3b925836040516129ad91815260200190565b60405180910390a3505050565b6000610ed361251160017fe458cbedf69109e7d57b7f8c96816615aac0017187d87abab9001d22db32bae461575f565b6000610ed3614986565b6129fd81613b51565b612a06816149b6565b6040516001600160a01b038216907f5a272403b402d892977df56625f4164ccaf70ca3863991c43ecfe76a6905b0a190600090a250565b612a46816149bf565b6040516001600160a01b038216907f2a0f8515de3fa34ef68b99300347b8793c01683350743e96fe440594528298f490600090a250565b6000610ed361251160017f867d8f1a5e39d11d5bebde854d5359a509530ad32450f581da63c06ec8d1a78061575f565b6000612acc8483612abd87613732565b612ac7919061575f565b6149c8565b612ae48383612ada86613732565b612ac7919061566a565b826001600160a01b0316846001600160a01b0316600080516020615f5f83398151915284604051612b1791815260200190565b60405180910390a35060019392505050565b60008061177360017fdbc0527c99b54cd325d6ce9eaae3a8413cd447b5205f37385f0ebc6551033c6d61575f565b612b6081613b51565b6113026124d860017f8e9e2a1d30fed357d8a000c1131fc77ed65d2052918caf1ccc6eb1e7af3d13b661575f565b6000610ed361251160017fbcfa5a69252c74010ad3e9ab18cfbdc116fcf85f084db1a8dc577a339fbee58b61575f565b6000818311612bcd5782611071565b50919050565b606080612bde613ac1565b6001600160a01b031663277c9d45846040518263ffffffff1660e01b8152600401612c0b91815260200190565b6000604051808303816000875af1158015612c2a573d6000803e3d6000fd5b505050506040513d6000823e601f3d908101601f19168201604052612c529190810190615d34565b91509150915091565b6000610ed361251160017fb649e50315f962b32d487e696a81b4828631b11f8424daaaa37e9e97766a2c4261575f565b6030835114612cad5760405163050cb55360e41b815260040160405180910390fd5b6060825114612ccf5760405163408ebd3960e01b815260040160405180910390fd5b6801bc16d674ec8000006000612ce9633b9aca0083615716565b90506000600286600060801b604051602001612d06929190615d97565b60408051601f1981840301815290829052612d2091615dc6565b602060405180830381855afa158015612d3d573d6000803e3d6000fd5b5050506040513d601f19601f82011682018060405250810190612d609190615de2565b90506000600280612d748860006040614a14565b604051612d819190615dc6565b602060405180830381855afa158015612d9e573d6000803e3d6000fd5b5050506040513d601f19601f82011682018060405250810190612dc19190615de2565b6002612dd9896040612dd481606061575f565b614a14565b604051612dec9190600090602001615dfb565b60408051601f1981840301815290829052612e0691615dc6565b602060405180830381855afa158015612e23573d6000803e3d6000fd5b5050506040513d601f19601f82011682018060405250810190612e469190615de2565b60408051602081019390935282015260600160408051601f1981840301815290829052612e7291615dc6565b602060405180830381855afa158015612e8f573d6000803e3d6000fd5b5050506040513d601f19601f82011682018060405250810190612eb29190615de2565b905060006002808488604051602001612ed5929190918252602082015260400190565b60408051601f1981840301815290829052612eef91615dc6565b602060405180830381855afa158015612f0c573d6000803e3d6000fd5b5050506040513d601f19601f82011682018060405250810190612f2f9190615de2565b6002612f3a87614ad7565b604080516020810192909252810186905260600160408051601f1981840301815290829052612f6891615dc6565b602060405180830381855afa158015612f85573d6000803e3d6000fd5b5050506040513d601f19601f82011682018060405250810190612fa89190615de2565b60408051602081019390935282015260600160408051601f1981840301815290829052612fd491615dc6565b602060405180830381855afa158015612ff1573d6000803e3d6000fd5b5050506040513d601f19601f820116820180604052508101906130149190615de2565b90506000613022864761575f565b905061302c614b44565b6001600160a01b03166322895118878b8a60405160200161304f91815260200190565b6040516020818303038152906040528c876040518663ffffffff1660e01b815260040161307f9493929190615e1d565b6000604051808303818588803b15801561309857600080fd5b505af11580156130ac573d6000803e3d6000fd5b50505050508047146130d157604051638051a6bb60e01b815260040160405180910390fd5b505050505050505050565b7f86fd21e9b5bd76b20471c7f93a82aa4e25c37d48b179bda0a4d1a45e22a842f4613105612b8e565b60408051918252602082018490520160405180910390a161130281614b74565b6000610ed361251160017fc77078e3530c08cdb2440817c81de4836500b4708ea4d15672b7fe98956423a861575f565b6113026124d860017fc77078e3530c08cdb2440817c81de4836500b4708ea4d15672b7fe98956423a861575f565b60008061318e612b29565b600581015490915063ffffffff1660006131a6613125565b90508082101561321b576801bc16d674ec8000006131c4838361575f565b6131ce9190615740565b6131d661361e565b6131de612b8e565b6131e66124e1565b86600101546131f5919061566a565b6131ff919061566a565b613209919061566a565b613213919061566a565b935050505090565b61322361361e565b61322b612b8e565b6132336124e1565b85600101546131ff919061566a565b6000610ed361251160017ff4271262f3552a4108cde54dc75061de8de495709221d793b126e448522d6a8061575f565b6000610ed361193a565b60006132a960017ff81b149de6749a3f46464b2cce61e24462f67599ea4a5ce028aaf4ab1521f96e61575f565b8251815560209092015160019092019190915550565b6000610ed3614ba2565b6000610ed361251160017f094efef62d2ce60c14ffacd35a1b50546d3a9d503aff1df040176fffd6c92a3761575f565b6000613303612a7d565b60405163e838dfbb60e01b81529091506001600160a01b0382169063e838dfbb90613332908690600401615217565b602060405180830381865afa15801561334f573d6000803e3d6000fd5b505050506040513d601f19601f820116820180604052508101906133739190615c51565b15613393578260405163e7d05e2760e01b8152600401610d5e9190615217565b60405163e838dfbb60e01b81526001600160a01b0382169063e838dfbb906133bf908590600401615217565b602060405180830381865afa1580156133dc573d6000803e3d6000fd5b505050506040513d601f19601f820116820180604052508101906134009190615c51565b15613420578160405163e7d05e2760e01b8152600401610d5e9190615217565b505050565b600061177382613732565b600061343c83336136da565b90508181101561347e57604051637b936de360e01b81526001600160a01b03841660048201523360248201526044810182905260648101839052608401610d5e565b600019811461342057613420833361175b858561575f565b61349f81613b51565b6113026124d860017f082b6d18de7b10e438e6b1002141db737519cb4ceed679bc815e3aac00cd222761575f565b6134d681614bd2565b6113026124d860017f094efef62d2ce60c14ffacd35a1b50546d3a9d503aff1df040176fffd6c92a3761575f565b61350d81613b51565b6113026124d860017f867d8f1a5e39d11d5bebde854d5359a509530ad32450f581da63c06ec8d1a78061575f565b61354481613b51565b6113026124d860017f3f075dea7ef99b1e5db245018e5e4ed8d2a0d93953f5932b2176bef59bd6906161575f565b61357b82614bf5565b6040516001600160a01b038316907e043cf7635f276413ae358250286a479a631abd9d74d57d4aa0bb87ebc7d11790600090a26135b781614c2c565b6040518181527f4c86ba184ea1a1558f84835ca34f6d67e222e8ee5cc4f324b8861dda4cf1740c9060200160405180910390a15050565b6000610ed361251160017f8e9e2a1d30fed357d8a000c1131fc77ed65d2052918caf1ccc6eb1e7af3d13b661575f565b6000610ed361251160017f850308dd4e453a2a1bc3efb444560401d95c1a8bdea5b35c5c79531cd2241f1d61575f565b613656614eea565b600061368360017fd84ee2c84c954c65bef1459fe03b761a42f49234527e3cd8fd9dce87cb83742b61575f565b6040805160a08101825282546001600160401b038082168352600160401b820481166020840152600160801b8204811693830193909352600160c01b90048216606082015260019092015416608082015292915050565b60008061370860017fc852254d5b703a16bb13b3e233a335d6459c5da5db0ca732d7a684ee0540784761575f565b6001600160a01b039485166000908152602091825260408082209590961681529390525050205490565b60008061376060017f0fb4a5ac9287f4f508aa7253ee2d57c6a228b1b30e210d73fffd59389d3a883861575f565b6001600160a01b0390931660009081526020939093525050604090205490565b60008061378b614ba2565b90508061379b5750600092915050565b806137a4613183565b6137ae9085615740565b6110719190615716565b600081602001516001600160401b031682604001516001600160401b031683606001516001600160401b0316426137ef919061575f565b6137f99190615716565b6117739190615716565b6000818310612bcd5782611071565b6000610ed361251160017f082b6d18de7b10e438e6b1002141db737519cb4ceed679bc815e3aac00cd222761575f565b805161130257604051638d46fe0560e01b815260040160405180910390fd5b600061388e60017fb63f3482ec84cb93d74a71645ad2e9e896fa02723e42170b4aad20a4bed6cdd661575f565b825190915081906138a59082906020860190614f93565b50505050565b60006138d860017fd84ee2c84c954c65bef1459fe03b761a42f49234527e3cd8fd9dce87cb83742b61575f565b825181546020850151604086015160608701516001600160401b039485166001600160801b031990941693909317600160401b92851692909202919091176001600160801b0316600160801b918416919091026001600160c01b031617600160c01b918316919091021782556080909301516001909101805467ffffffffffffffff1916919093161790915550565b600080613972614ba2565b9050806139825750600092915050565b61398a613183565b6137ae8285615740565b61399d81613b51565b6113026124d860017fc8cbea9407c380ae944f052b5a442330057683c5abdbd453493f9750806afecb61575f565b6000610ed361251160017fc8cbea9407c380ae944f052b5a442330057683c5abdbd453493f9750806afecb61575f565b60606000613a2a60017fb63f3482ec84cb93d74a71645ad2e9e896fa02723e42170b4aad20a4bed6cdd661575f565b805490915081908190613a3c90615e68565b80601f0160208091040260200160405190810160405280929190818152602001828054613a6890615e68565b8015613ab55780601f10613a8a57610100808354040283529160200191613ab5565b820191906000526020600020905b815481529060010190602001808311613a9857829003601f168201915b50505050509250505090565b6000610ed361251160017f3f075dea7ef99b1e5db245018e5e4ed8d2a0d93953f5932b2176bef59bd6906161575f565b60408051808201909152600080825260208201526000613b3260017ff81b149de6749a3f46464b2cce61e24462f67599ea4a5ce028aaf4ab1521f96e61575f565b6040805180820190915281548152600190910154602082015292915050565b6001600160a01b0381166113025760405163f6b2911f60e01b815260040160405180910390fd5b60408051808201909152600080825260208201526000613bb960017fc305db9f63aeed94a45229ff5ab4174e72b223a38ab4c5e8f518ee4f437918d161575f565b6040805180820190915290546001600160801b038082168352600160801b90910416602082015292915050565b600082608001516001600160401b031682613c01919061566a565b613c0a846137b8565b10158015613c1f5750613c1b612b29565b5482115b801561107157508251613c3b906001600160401b0316836157a8565b159392505050565b600083602001518460400151613c599190615e9d565b6001600160401b0316613c6c848461575f565b613c769190615740565b949350505050565b476000613c8b838561566a565b9050613c95612c5b565b6001600160a01b031663ea74f479826040518263ffffffff1660e01b8152600401613cc291815260200190565b600060405180830381600087803b158015613cdc57600080fd5b505af1158015613cf0573d6000803e3d6000fd5b5050505060008247613d02919061575f565b9050613d0e848661566a565b8114613d4257613d1e848661566a565b6040516349a1938b60e01b8152600481019190915260248101829052604401610d5e565b8415613d5457613d5485610cc66124e1565b8315613d7557613d7584613d6661361e565b613d70919061566a565b614c78565b60408051868152602081018690527fcb5410dc8f29b2f498e023c3f9237dbd600255a717edf94a6072bcd03b0c773c91016123f8565b6000613dd860017fdbc0527c99b54cd325d6ce9eaae3a8413cd447b5205f37385f0ebc6551033c6d61575f565b825181556020830151600182015560408301516002820155606083015160038201556080830151600482015560a08301516005909101805460c085015160e0909501511515600160281b0265ff0000000000199515156401000000000264ffffffffff1990921663ffffffff9094169390931717939093161790915550565b6000613e696301e13380612710615740565b84518390613e779086615740565b613e819190615740565b613c769190615716565b60006127108360200151836137ae9190615740565b600080613eab6135ee565b60405163c8a6dfd360e01b81526004810185905290915047906001600160a01b0383169063c8a6dfd390602401600060405180830381600087803b158015613ef257600080fd5b505af1158015613f06573d6000803e3d6000fd5b5050505060008147613f18919061575f565b90508015613f2c57613f2c81610cc66124e1565b6040518181527fda841d3042d792e2509a333b9dcbd4b3dd9b9047d382011f8788fab90ca7e3c7906020015b60405180910390a1949350505050565b600047613f736129ba565b6001600160a01b0316630c779401846040518263ffffffff1660e01b8152600401613fa091815260200190565b600060405180830381600087803b158015613fba57600080fd5b505af1158015613fce573d6000803e3d6000fd5b5050505060008147613fe0919061575f565b90508015613ff457613ff481610cc66124e1565b6040518181527f4e484734eb4d444bfa106f917d05d9ceb8ce18bf516c85d7aeb9b322925339f99060200160405180910390a19392505050565b600080614039613242565b90506001600160a01b0381166140525750600092915050565b604051638ede6b6b60e01b81526004810184905247906001600160a01b03831690638ede6b6b90602401600060405180830381600087803b15801561409657600080fd5b505af11580156140aa573d6000803e3d6000fd5b50505050600081476140bc919061575f565b905080156140d0576140d081610cc66124e1565b6040518181527fd500b67e5bd8019c0af744cadeec120d1b5e3d3a3a011f18cf182aa4c97947b690602001613f58565b600061410a6132bf565b90508061412a57604051630d35acd760e21b815260040160405180910390fd5b6000614134613183565b905060006141406132c9565b905060008161414f8587615740565b6141599190615740565b905060006141678387615740565b61417361271086615740565b61417d919061575f565b905060008115614196576141918284615716565b614199565b60005b905080156142295760006141ab613812565b90506141b78183614cc1565b60006141c16132bf565b905060006141cf8a8961575f565b60408051828152602081018c90529081018a9052606081018490529091506001600160a01b038416907f3d1669e813a9845c288f0e1f642a4343a451103b87886d12de37e63b39bbd9429060800160405180910390a25050505b50505050505050565b61423a613ac1565b6001600160a01b031663b405e17484614251613125565b6040518363ffffffff1660e01b815260040161426e929190615ecc565b600060405180830381600087803b15801561428857600080fd5b505af115801561429c573d6000803e3d6000fd5b5050505080156142ab576138a5565b60006142b56132bf565b905080156126ef5760006142c761361e565b905060006142d36124e1565b905060006143436142e26129ba565b6001600160a01b0316630d8d2a546040518163ffffffff1660e01b8152600401602060405180830381865afa15801561431f573d6000803e3d6000fd5b505050506040513d601f19601f8201168201806040525081019061176e9190615de2565b905080614350898561566a565b1015612941578580156143635750600082115b156143b457600061438883856143798c8661575f565b614383919061575f565b612bbe565b905080156143b25761439a818561566a565b93506143a584614c78565b6143b2610cd0828561575f565b505b60006143be613ac1565b9050600080826001600160a01b0316634a3c63bb6040518163ffffffff1660e01b81526004016040805180830381865afa158015614400573d6000803e3d6000fd5b505050506040513d601f19601f820116820180604052508101906144249190615f1a565b915063ffffffff16915060006801bc16d674ec800000838311614448576000614452565b614452848461575f565b61445c9190615740565b9050848161446a8e8a61566a565b614474919061566a565b101561451f5760006144ad8261448a8f8b61566a565b614494919061566a565b61449e908861575f565b6801bc16d674ec800000614d1e565b9050846001600160a01b0316632d1fc39d826144c7613125565b6040516001600160e01b031960e085901b16815260048101929092526024820152604401600060405180830381600087803b15801561450557600080fd5b505af1158015614519573d6000803e3d6000fd5b50505050505b505050505050505050505050565b60006145376129ba565b90506000614543613183565b9050600061454f6132bf565b90506000821180156145615750600081115b15613420576000836001600160a01b0316630d8d2a546040518163ffffffff1660e01b8152600401602060405180830381865afa1580156145a6573d6000803e3d6000fd5b505050506040513d601f19601f820116820180604052508101906145ca9190615de2565b90508060006145d882613780565b905060006145e461361e565b9050808211156145fd578091506145fa82613967565b92505b60408051858152602081018590529081018390527f709263092d8d9fef472d907900405b5edae3d76f8ff4354858025b18424d71019060600160405180910390a1811561422957614651613d70838361575f565b61465b8784614d51565b60405163b30d8bb760e01b8152600481018490526001600160a01b0388169063b30d8bb79084906024016000604051808303818588803b15801561469e57600080fd5b505af115801561451f573d6000803e3d6000fd5b60006146bc61361e565b90508015611302576146d081610cc66124e1565b6113026000614c78565b60006146e4613183565b905060006146f06124e1565b905060006146fc613b78565b8051909150600090614740906001600160801b031661271061471e868861575f565b85602001516001600160801b03166147369190615740565b6117e99190615716565b90506000614765620151806147558885615740565b61475f9190615716565b85612bbe565b905080156126ed5761478381614779612b8e565b611243919061566a565b6126ed610cd0828661575f565b6113026124d860017f2b6136e423ab70d76431e2a635e877e16ea2dd9a895e054ad7f35f89d6c7b71161575f565b600080826147ca613183565b6147d4919061575f565b9050806147ed578291506147e88484614cc1565b614816565b806147f66132bf565b6148009085615740565b61480a9190615716565b91506148168483614cc1565b5092915050565b6000610ed361251160017fb5b37715a3e346e996104f0086703f19825def429233930fd9399c38e05fb11361575f565b600061487a60017fc305db9f63aeed94a45229ff5ab4174e72b223a38ab4c5e8f518ee4f437918d161575f565b82516020909301516001600160801b03908116600160801b0293169290921790915550565b6000610ed361251160017fd7f2d45e512a86049f7a113657b39731b6b558609584243063a52cd31a8eb52961575f565b6000610ed361251160017ffedfd2c285a57fb23bf45a3fe9ac02d36a76ebb72801b1c8aaf553d74e9d465361575f565b6000610ed361251160017f0f1e7733641e4d843128fea0d2ec90d3d06a40b0fe244ff603d8c1aa200dc0f961575f565b600061495c60017fc852254d5b703a16bb13b3e233a335d6459c5da5db0ca732d7a684ee0540784761575f565b6001600160a01b039485166000908152602091825260408082209590961681529390525091902055565b6000610ed361251160017f6e6ab8b7c7aaba79eef8cc633522d606bb008c101cf9832c9ad05d10a984728161575f565b61130281614da1565b61130281614dd8565b60006149f560017f0fb4a5ac9287f4f508aa7253ee2d57c6a228b1b30e210d73fffd59389d3a883861575f565b6001600160a01b03909316600090815260209390935250604090912055565b60608182601f011015614a3a576040516323d5783d60e11b815260040160405180910390fd5b614a44828461566a565b84511015614a6557604051633b99b53d60e01b815260040160405180910390fd5b606082158015614a845760405191506000825260208201604052614ace565b6040519150601f8416801560200281840101858101878315602002848b0101015b81831015614abd578051835260209283019201614aa5565b5050858452601f01601f1916604052505b50949350505050565b603881901c60ff908116603083901c8216602884901c8316602085901c8416601886901c8516601087901c8616600888811c9790971688881b61ff001617871b17861b17851b17841b17831b1790911b17604082901c8015614b3b57614b3b615f48565b5060c01b919050565b6000610ed361251160017f35efb61d8784060218d9d6aa40eae55904de43779c1afc79c74dfefcfdf9126061575f565b6113026124d860017fbcfa5a69252c74010ad3e9ab18cfbdc116fcf85f084db1a8dc577a339fbee58b61575f565b6000610ed361251160017f6b842b424335d94ccad97e54548dfa02673c1268aba38d3c3c32d28c8988b70b61575f565b612710811115611302576040516358d620b360e01b815260040160405180910390fd5b614bfe81613b51565b6113026124d860017f35efb61d8784060218d9d6aa40eae55904de43779c1afc79c74dfefcfdf9126061575f565b80614c4a5760405163a9cb9e0d60e01b815260040160405180910390fd5b6113026124d860017fb649e50315f962b32d487e696a81b4828631b11f8424daaaa37e9e97766a2c4261575f565b7f215c2b83e8c232e42091088056ab75d2ff643855c32997024f786cddb22d2290614ca161361e565b60408051918252602082018490520160405180910390a161130281614e06565b614cdc81614ccd614ba2565b614cd7919061566a565b614e34565b614cea8282612ada85613732565b6040518181526001600160a01b03831690600090600080516020615f5f833981519152906020015b60405180910390a35050565b600080614d2b83856157a8565b11614d37576000614d3a565b60015b60ff16614d478385615716565b611071919061566a565b614d6781614d5d614ba2565b614cd7919061575f565b614d758282612abd85613732565b6040518181526000906001600160a01b03841690600080516020615f5f83398151915290602001614d12565b614daa81613b51565b6113026124d860017fb5b37715a3e346e996104f0086703f19825def429233930fd9399c38e05fb11361575f565b6113026124d860017f6e6ab8b7c7aaba79eef8cc633522d606bb008c101cf9832c9ad05d10a984728161575f565b6113026124d860017f850308dd4e453a2a1bc3efb444560401d95c1a8bdea5b35c5c79531cd2241f1d61575f565b614e3d81614e6d565b6040518181527fc80ea35a3f9016535e5b7c87746740c5045afe42188d02c5786eb97495c2f42990602001611397565b6113026124d860017f6b842b424335d94ccad97e54548dfa02673c1268aba38d3c3c32d28c8988b70b61575f565b6040518061010001604052806000815260200160008152602001600081526020016000815260200160008152602001600063ffffffff1681526020016000151581526020016000151581525090565b6040805160a08101825260008082526020820181905291810182905260608101829052608081019190915290565b604051806101400160405280600081526020016000815260200160008152602001600081526020016000815260200160008152602001600081526020016000815260200160008152602001614f8e6040518060800160405280600081526020016000815260200160008152602001600081525090565b905290565b828054614f9f90615e68565b90600052602060002090601f016020900481019282614fc15760008555615007565b82601f10614fda57805160ff1916838001178555615007565b82800160010185558215615007579182015b82811115615007578251825591602001919060010190614fec565b50615013929150615017565b5090565b5b808211156150135760008155600101615018565b80356001600160a01b038116811461504357600080fd5b919050565b60006020828403121561505a57600080fd5b6110718261502c565b80356001600160401b038116811461504357600080fd5b80356001600160801b038116811461504357600080fd5b6000806000806000806000806000806101408b8d0312156150b157600080fd5b6150ba8b61502c565b99506150c860208c01615063565b98506150d660408c01615063565b97506150e460608c01615063565b96506150f260808c01615063565b955061510060a08c01615063565b945060c08b0135935060e08b0135925061511d6101008c0161507a565b915061512c6101208c0161507a565b90509295989b9194979a5092959850565b60005b83811015615158578181015183820152602001615140565b838111156138a55750506000910152565b6000815180845261518181602086016020860161513d565b601f01601f19169290920160200192915050565b6020815260006110716020830184615169565b600080604083850312156151bb57600080fd5b6151c48361502c565b946020939093013593505050565b600080604083850312156151e557600080fd5b823591506151f56020840161502c565b90509250929050565b60006020828403121561521057600080fd5b5035919050565b6001600160a01b0391909116815260200190565b600060408284031215612bcd57600080fd5b60008060006060848603121561525257600080fd5b61525b8461502c565b92506152696020850161502c565b9150604084013590509250925092565b60008060008060008060008060006101208a8c03121561529857600080fd5b6152a18a61502c565b98506152af60208b0161502c565b975060408a013596506152c460608b0161502c565b95506152d260808b0161502c565b94506152e060a08b0161502c565b93506152ee60c08b0161502c565b92506152fc60e08b0161502c565b91506101008a013590509295985092959850929598565b60008083601f84011261532557600080fd5b5081356001600160401b0381111561533c57600080fd5b6020830191508360208260051b850101111561535757600080fd5b9250929050565b6000806020838503121561537157600080fd5b82356001600160401b0381111561538757600080fd5b61539385828601615313565b90969095509350505050565b6020808252825182820181905260009190848201906040850190845b818110156153da57835160070b835292840192918401916001016153bb565b50909695505050505050565b634e487b7160e01b600052604160045260246000fd5b604080519081016001600160401b038111828210171561541e5761541e6153e6565b60405290565b604051601f8201601f191681016001600160401b038111828210171561544c5761544c6153e6565b604052919050565b60006001600160401b0382111561546d5761546d6153e6565b50601f01601f191660200190565b60006020828403121561548d57600080fd5b81356001600160401b038111156154a357600080fd5b8201601f810184136154b457600080fd5b80356154c76154c282615454565b615424565b8181528560208385010111156154dc57600080fd5b81602084016020830137600091810160200191909152949350505050565b600060a08284031215612bcd57600080fd5b6000806000806040858703121561552257600080fd5b84356001600160401b038082111561553957600080fd5b61554588838901615313565b9096509450602087013591508082111561555e57600080fd5b5061556b87828801615313565b95989497509550505050565b6020808252825182820181905260009190848201906040850190845b818110156153da57835160ff1683529284019291840191600101615593565b6000604082840312156155c457600080fd5b6155cc6153fc565b6155d58361507a565b81526155e36020840161507a565b60208201529392505050565b6000806040838503121561560257600080fd5b61560b8361502c565b91506151f56020840161502c565b60006020828403121561562b57600080fd5b81356001600160401b0381111561564157600080fd5b8201610120818503121561107157600080fd5b634e487b7160e01b600052601160045260246000fd5b6000821982111561567d5761567d615654565b500190565b83815260406020820152816040820152818360608301376000818301606090810191909152601f909201601f1916010192915050565b6001600160a01b03929092168252602082015260400190565b63ffffffff8116811461130257600080fd5b6000602082840312156156f557600080fd5b8151611071816156d1565b634e487b7160e01b600052601260045260246000fd5b60008261572557615725615700565b500490565b634e487b7160e01b600052603260045260246000fd5b600081600019048311821515161561575a5761575a615654565b500290565b60008282101561577157615771615654565b500390565b60006040828403121561578857600080fd5b6157906153fc565b82358152602083013560208201528091505092915050565b6000826157b7576157b7615700565b500690565b8035615043816156d1565b8183526000602080850194508260005b858110156158025781356157ea816156d1565b63ffffffff16875295820195908201906001016157d7565b509495945050505050565b602081526000613c766020830184866157c7565b60006001600160401b0382111561583a5761583a6153e6565b5060051b60200190565b6000602080838503121561585757600080fd5b82516001600160401b0381111561586d57600080fd5b8301601f8101851361587e57600080fd5b805161588c6154c282615821565b81815260059190911b820183019083810190878311156158ab57600080fd5b928401925b828410156158d95783518060070b81146158ca5760008081fd5b825292840192908401906158b0565b979650505050505050565b600060a082840312156158f657600080fd5b60405160a081018181106001600160401b0382111715615918576159186153e6565b60405261592483615063565b815261593260208401615063565b602082015261594360408401615063565b604082015261595460608401615063565b606082015261596560808401615063565b60808201529392505050565b60006020828403121561598357600080fd5b61107182615063565b6001600160401b0395861681529385166020850152918416604084015283166060830152909116608082015260a00190565b6080815260006159d260808301888a6157c7565b82810360208401526159e58187896157c7565b9415156040840152505061ffff91909116606090910152949350505050565b60006020808385031215615a1757600080fd5b82516001600160401b03811115615a2d57600080fd5b8301601f81018513615a3e57600080fd5b8051615a4c6154c282615821565b81815260059190911b82018301908381019087831115615a6b57600080fd5b928401925b828410156158d957835160ff81168114615a8a5760008081fd5b82529284019290840190615a70565b600060208284031215615aab57600080fd5b8135611071816156d1565b801515811461130257600080fd5b803561504381615ab6565b600060208284031215615ae157600080fd5b813561107181615ab6565b6000808335601e19843603018112615b0357600080fd5b8301803591506001600160401b03821115615b1d57600080fd5b6020019150600581901b360382131561535757600080fd5b6000808335601e19843603018112615b4c57600080fd5b83016020810192503590506001600160401b03811115615b6b57600080fd5b8060051b360383131561535757600080fd5b60a08152823560a0820152602083013560c0820152604083013560e08201526000610100606085013581840152610120608086013581850152615bc260a087016157bc565b63ffffffff16610140850152615bdb60c0870187615b35565b82610160870152615bf16101c0870182846157c7565b92505050615c0160e08701615ac4565b1515610180850152615c14868301615ac4565b8015156101a08601529150915061107190506020830184805182526020810151602083015260408101516040830152606081015160608301525050565b600060208284031215615c6357600080fd5b815161107181615ab6565b600082601f830112615c7f57600080fd5b81516020615c8f6154c283615821565b82815260059290921b84018101918181019086841115615cae57600080fd5b8286015b84811015615d295780516001600160401b03811115615cd15760008081fd5b8701603f81018913615ce35760008081fd5b848101516040615cf56154c283615454565b8281528b82848601011115615d0a5760008081fd5b615d198389830184870161513d565b8652505050918301918301615cb2565b509695505050505050565b60008060408385031215615d4757600080fd5b82516001600160401b0380821115615d5e57600080fd5b615d6a86838701615c6e565b93506020850151915080821115615d8057600080fd5b50615d8d85828601615c6e565b9150509250929050565b60008351615da981846020880161513d565b6001600160801b0319939093169190920190815260100192915050565b60008251615dd881846020870161513d565b9190910192915050565b600060208284031215615df457600080fd5b5051919050565b60008351615e0d81846020880161513d565b9190910191825250602001919050565b608081526000615e306080830187615169565b8281036020840152615e428187615169565b90508281036040840152615e568186615169565b91505082606083015295945050505050565b600181811c90821680615e7c57607f821691505b60208210811415612bcd57634e487b7160e01b600052602260045260246000fd5b60006001600160401b0380831681851681830481118215151615615ec357615ec3615654565b02949350505050565b604080825283519082018190526000906020906060840190828701845b82811015615f0b57815163ffffffff1684529284019290840190600101615ee9565b50505092019290925292915050565b60008060408385031215615f2d57600080fd5b8251615f38816156d1565b6020939093015192949293505050565b634e487b7160e01b600052600160045260246000fdfeddf252ad1be2c89b69c2b068fc378daa952ba7f163c4a11628f55a4df523b3efa264697066735822122075e48ff7ca1ef56a4380c2b504633a9f2bf34000bc77bdf03103b2444951f22564736f6c634300080a0033",
    "devdoc": {
        "author": "Kiln",
        "events": {
            "Paused(address)": {
                "params": {
                    "admin": "The admin at the time of the pause event"
                }
            },
            "Unpaused(address)": {
                "params": {
                    "admin": "The admin at the time of the unpause event"
                }
            }
        },
        "kind": "dev",
        "methods": {
            "admin()": {
                "details": "Returns the current admin. NOTE: Only the admin can call this function. See {ProxyAdmin-getProxyAdmin}. TIP: To get this value clients can read directly from the storage slot shown below (specified by EIP1967) using the https://eth.wiki/json-rpc/API#eth_getstorageat[`eth_getStorageAt`] RPC call. `0xb53127684a568b3173ae13b9f8a6016e243e63b6e8ee1178d6a717850b5d6103`"
            },
            "changeAdmin(address)": {
                "details": "Changes the admin of the proxy. Emits an {AdminChanged} event. NOTE: Only the admin can call this function. See {ProxyAdmin-changeProxyAdmin}."
            },
            "constructor": {
                "details": "The Admin of the proxy should not be the same as theadmin on the implementation logics. The admin here isthe only account allowed to perform calls on the proxy(the calls are never delegated to the implementation)",
                "params": {
                    "__admin": "Address of the admin in charge of the proxy",
                    "_data": "Calldata for an atomic initialization",
                    "_logic": "Address of the implementation"
                }
            },
            "implementation()": {
                "details": "Returns the current implementation. NOTE: Only the admin can call this function. See {ProxyAdmin-getProxyImplementation}. TIP: To get this value clients can read directly from the storage slot shown below (specified by EIP1967) using the https://eth.wiki/json-rpc/API#eth_getstorageat[`eth_getStorageAt`] RPC call. `0x360894a13ba1a3210667c828492db98dca3e2076cc3735a920a3ca505d382bbc`"
            },
            "pause()": {
                "details": "Pauses system"
            },
            "paused()": {
                "details": "Retrieves Paused state",
                "returns": {
                    "_0": "Paused state"
                }
            },
            "unpause()": {
                "details": "Unpauses system"
            },
            "upgradeTo(address)": {
                "details": "Upgrade the implementation of the proxy. NOTE: Only the admin can call this function. See {ProxyAdmin-upgrade}."
            },
            "upgradeToAndCall(address,bytes)": {
                "details": "Upgrade the implementation of the proxy, and then call a function from the new implementation as specified by `data`, which should be an encoded function call. This is useful to initialize new storage variables in the proxied contract. NOTE: Only the admin can call this function. See {ProxyAdmin-upgradeAndCall}."
            }
        },
        "title": "TUPProxy (Transparent Upgradeable Pausable Proxy)",
        "version": 1
    },
    "userdoc": {
        "errors": {
            "CallWhenPaused()": [
                {
                    "notice": "A call happened while the system was paused"
                }
            ]
        },
        "events": {
            "Paused(address)": {
                "notice": "The system is now paused"
            },
            "Unpaused(address)": {
                "notice": "The system is now unpaused"
            }
        },
        "kind": "user",
        "methods": {},
        "notice": "This contract extends the Transparent Upgradeable proxy and adds a system wide pause feature.         When the system is paused, the fallback will fail no matter what calls are made.         Address Zero is allowed to perform calls even if paused to allow view calls made         from RPC providers to properly work.",
        "version": 1
    },
    "storageLayout": {
        "storage": [],
        "types": null
    },
    "implementations": {
        "names": [
            "RiverV1_Implementation_0_2_2.json",
            "RiverV1_Implementation_0_4_0.json",
            "RiverV1_Implementation_0_5_0.json",
            "RiverV1_Implementation_0_6_0_rc2.json",
            "RiverV1_Implementation_1_0_0.json"
        ],
        "transactionHash": [
            "0xb1aec45c6a8b6a0dd2fde3b3745716696c79039363c881ad32b00409a6bae80c",
            "0x2b9594e64a3491705bb6d094ed84357f6b44f7c42f7104e2b9395b64770af0ed",
            "0xb634334f6719f75252af87c45e32ce3faf6a67a6640739b6e9bfaca89c486d1d",
            "0x721361025bec7e6f23a35f0a1d73835b49e7618ebc2f06b5e699f0cd564ec7e4",
            "0xcd4112854ec1165e91c2e8c4539e1bbed002709141475394e8fc96623bb6f3b8"
        ],
        "args": [
            [],
            [],
            [],
            [],
            []
        ],
        "numDeployments": [
            1,
            1,
            1,
            1,
            1
        ],
        "solcInputHash": [
            "656663a520c7d1a8fa475138c7426bea",
            "d46223a1947b2b7fbc79fc0dfd1c596b",
            "3fdb9e1163d88d42993a4de988d05361",
            "34809fcc019ffc63dbbe04d139c52d63",
            "93b960a67e23979aa87ba4074b00c1d8"
        ],
        "bytecode": [
            "0x608060405234801561001057600080fd5b50613063806100206000396000f3fe60806040526004361061026b5760003560e01c80635639671511610144578063a9059cbb116100b6578063d04681561161007a578063d0468156146106e6578063d0e30db0146106fb578063dd62ed3e14610703578063efd6034714610723578063f79c3f021461072b578063fb5b82d01461074b5761027b565b8063a9059cbb14610669578063ac232bde14610689578063bf15af561461069c578063c5eff3d0146106b1578063cc48cd31146106c65761027b565b80637adbf973116101085780637adbf973146105bc578063833b1fce146105dc57806387f2adfb146105f157806395d89b41146106065780639b498e2614610634578063a457c2d7146106495761027b565b8063563967151461053257806358bf3c7f146105475780636e9960c31461056757806370a082311461057c578063799a19541461059c5761027b565b806323b872dd116101dd57806336bf3325116101a157806336bf33251461049657806339509351146104b35780633af9e669146104d357806346425ef0146104f35780635022820114610508578063540bc5ea1461051d5761027b565b806323b872dd146103f8578063281a312214610418578063291206f6146104385780632cb562e114610458578063313ce5671461047a5761027b565b80631311cf8d1161022f5780631311cf8d1461035957806313d86aed14610379578063143a08d414610399578063147bf6c4146103ae57806318160ddd146103ce5780631bcbfaba146103e35761027b565b806304843a171461029457806306fdde03146102bc578063095ea7b3146102ff5780630e18b6811461032f578063107d7fa0146103445761027b565b3661027b576102793361076b565b005b60405163574b16a760e11b815260040160405180910390fd5b3480156102a057600080fd5b506102a96107f2565b6040519081526020015b60405180910390f35b3480156102c857600080fd5b50604080518082019091526011815270098d2e2ead2c840a6e8c2d6cac8408aa89607b1b60208201525b6040516102b39190612ae6565b34801561030b57600080fd5b5061031f61031a366004612b15565b610801565b60405190151581526020016102b3565b34801561033b57600080fd5b50610279610857565b34801561035057600080fd5b506102a96108b7565b34801561036557600080fd5b50610279610374366004612b3f565b6108c1565b34801561038557600080fd5b50610279610394366004612b5a565b61093c565b3480156103a557600080fd5b506102a9610af5565b3480156103ba57600080fd5b506102796103c9366004612b3f565b610aff565b3480156103da57600080fd5b506102a9610b46565b3480156103ef57600080fd5b506102a9610b50565b34801561040457600080fd5b5061031f610413366004612b73565b610b5a565b34801561042457600080fd5b50610279610433366004612baf565b610c0d565b34801561044457600080fd5b50610279610453366004612b5a565b610def565b34801561046457600080fd5b5061046d610e69565b6040516102b39190612c49565b34801561048657600080fd5b50604051601281526020016102b3565b3480156104a257600080fd5b506102a96801bc16d674ec80000081565b3480156104bf57600080fd5b5061031f6104ce366004612b15565b610e73565b3480156104df57600080fd5b506102a96104ee366004612b3f565b610ee3565b3480156104ff57600080fd5b506102a9610efc565b34801561051457600080fd5b5061046d610f06565b34801561052957600080fd5b506102a9606081565b34801561053e57600080fd5b506102a9610f10565b34801561055357600080fd5b50610279610562366004612b3f565b610f1a565b34801561057357600080fd5b5061046d610f95565b34801561058857600080fd5b506102a9610597366004612b3f565b610f9f565b3480156105a857600080fd5b506102a96105b7366004612b5a565b610faa565b3480156105c857600080fd5b506102796105d7366004612b3f565b610fb5565b3480156105e857600080fd5b5061046d611030565b3480156105fd57600080fd5b506102a961103a565b34801561061257600080fd5b50604080518082019091526005815264098e68aa8960db1b60208201526102f2565b34801561064057600080fd5b5061046d611044565b34801561065557600080fd5b5061031f610664366004612b15565b61104e565b34801561067557600080fd5b5061031f610684366004612b15565b611066565b610279610697366004612b3f565b611105565b3480156106a857600080fd5b506102a9603081565b3480156106bd57600080fd5b5061046d611117565b3480156106d257600080fd5b506102796106e1366004612c5d565b611121565b3480156106f257600080fd5b5061046d61129b565b6102796112a5565b34801561070f57600080fd5b506102a961071e366004612c8f565b6112ae565b6102796112c1565b34801561073757600080fd5b506102a9610746366004612b5a565b6112fc565b34801561075757600080fd5b50610279610766366004612b3f565b611307565b34610789576040516395b66fe960e01b815260040160405180910390fd5b6107a434610795611382565b61079f9190612cd8565b6113b6565b6107af3382346113e9565b6040513481526001600160a01b0382169033907f3bc57f469ad6d10d7723ea226cd22bd2b9e527def2b529f6ab44645a166895829060200160405180910390a350565b60006107fc611382565b905090565b600061080e338484611583565b6040518281526001600160a01b0384169033907f8c5be1e5ebec7d5bd14f71427d1e84f3dd0314c0f7b2291e5b200ac8c7c3b9259060200160405180910390a350600192915050565b61085f6115da565b6001600160a01b0316336001600160a01b03161461089b573360405163472511eb60e11b81526004016108929190612c49565b60405180910390fd5b6108ab6108a66115da565b6115e4565b6108b5600061162d565b565b60006107fc61166d565b6108c961169d565b6001600160a01b0316336001600160a01b0316146108fc573360405163472511eb60e11b81526004016108929190612c49565b610905816116a7565b6040516001600160a01b038216907f1da4c245099590dc40be61880c9b97792f3694d970acc1e67ac0e6cc90f3780d90600090a250565b6109446116d5565b6001600160a01b0316336001600160a01b031614610977573360405163472511eb60e11b81526004016108929190612c49565b6000610981611382565b905060006109a161099b6801bc16d674ec80000084612cf0565b846116df565b9050806109c157604051631036b5ad60e31b815260040160405180910390fd5b6000806109cd836116f4565b81519193509150806109f25760405163200149ad60e21b815260040160405180910390fd5b83811115610a1357604051635993bd5760e01b815260040160405180910390fd5b8151818114610a35576040516322e5ce4360e21b815260040160405180910390fd5b6000610a3f61177c565b905080610a5f57604051639be7315960e01b815260040160405180910390fd5b60005b83811015610aaf57610aa7868281518110610a7f57610a7f612d12565b6020026020010151868381518110610a9957610a99612d12565b6020026020010151846117ac565b600101610a62565b50610ad0610ac6846801bc16d674ec800000612d28565b61079f9089612d47565b610aeb83610adc611c34565b610ae69190612cd8565b611c64565b5050505050505050565b60006107fc611c92565b610b0761169d565b6001600160a01b0316336001600160a01b031614610b3a573360405163472511eb60e11b81526004016108929190612c49565b610b438161162d565b50565b60006107fc611d0c565b60006107fc611d16565b60008383610b688282611d46565b8380610b87576040516336b216db60e21b815260040160405180910390fd5b868580610b9383611e72565b1015610bb2576040516351940b3960e11b815260040160405180910390fd5b6001600160a01b038816610beb57604051637617407560e11b81526001600160a01b038a16600482015260006024820152604401610892565b610bf58988611e7d565b610c00898989611ee8565b9998505050505050505050565b6000610c17611f64565b8114610c485780610c26611f64565b604051631cfd276760e31b815260048101929092526024820152604401610892565b610c5b610c56826001612cd8565b611f94565b610c64866115e4565b610c6d83611fc2565b6040516001600160a01b038416907f0cc5437d7c9c1d9eab549acbb533eea3e9868e9443dd75309ed5820b33a3774e90600090a2610caa82611ff9565b6040518281527fbd533e726baaf59b36f3914d950053f7e78f527057c97cd3f0043257fc0fc8849060200160405180910390a1610ce6896116a7565b6040516001600160a01b038a16907f1da4c245099590dc40be61880c9b97792f3694d970acc1e67ac0e6cc90f3780d90600090a2610d2385612030565b6040516001600160a01b038616907f30f015a5d3c72c0a9414538199baa022323a483fa9e4ba2cd581596cf8ca042490600090a2610d6084612067565b6040516001600160a01b038516907fffc0721ef0563a1b0a51a0dc92113025f33ca434ada9ee3eebff2f385d2a8f9a90600090a2610d9e8a8961209e565b610da787610ff0565b7f1809e49bba43f2d39fa57894b50cd6ccb428cc438230e065cac3eb24a1355a7181600036604051610ddb93929190612d5e565b60405180910390a150505050505050505050565b610df761169d565b6001600160a01b0316336001600160a01b031614610e2a573360405163472511eb60e11b81526004016108929190612c49565b610e3381611ff9565b6040518181527fbd533e726baaf59b36f3914d950053f7e78f527057c97cd3f0043257fc0fc8849060200160405180910390a150565b60006107fc61211a565b60008082610e81338661214a565b610e8b9190612cd8565b9050610e98338583611583565b6040518181526001600160a01b0385169033907f8c5be1e5ebec7d5bd14f71427d1e84f3dd0314c0f7b2291e5b200ac8c7c3b925906020015b60405180910390a35060019392505050565b6000610ef6610ef1836121a2565b6121f0565b92915050565b60006107fc612228565b60006107fc612258565b60006107fc61177c565b610f2261169d565b6001600160a01b0316336001600160a01b031614610f55573360405163472511eb60e11b81526004016108929190612c49565b610f5e81612030565b6040516001600160a01b038216907f30f015a5d3c72c0a9414538199baa022323a483fa9e4ba2cd581596cf8ca042490600090a250565b60006107fc61169d565b6000610ef682611e72565b6000610ef682612288565b610fbd6116d5565b6001600160a01b0316336001600160a01b031614610ff0573360405163472511eb60e11b81526004016108929190612c49565b610ff9816122b5565b6040516001600160a01b038216907fd3b5d1e0ffaeff528910f3663f0adace7694ab8241d58e17a91351ced2e0803190600090a250565b60006107fc6122ec565b60006107fc611c34565b60006107fc61231c565b6000808261105c338661214a565b610e8b9190612d47565b600033836110748282611d46565b8380611093576040516336b216db60e21b815260040160405180910390fd5b33858061109f83611e72565b10156110be576040516351940b3960e11b815260040160405180910390fd5b6001600160a01b0388166110ee57604051637617407560e11b815233600482015260006024820152604401610892565b6110f9338989611ee8565b98975050505050505050565b61110e8161234c565b610b438161076b565b60006107fc612373565b6111296122ec565b6001600160a01b0316336001600160a01b03161461115c573360405163472511eb60e11b81526004016108929190612c49565b611164611c34565b8411156111965783611174611c34565b6040516376179ac560e01b815260048101929092526024820152604401610892565b60006111a061166d565b6111aa9086612d47565b905060006111c1826801bc16d674ec800000612d28565b6111c9612228565b6111d39190612cd8565b90506111de856123a3565b6111e7866123d1565b6111f0846123ff565b6000856111fd8386612cd8565b111561122357611220866112118487612cd8565b61121b9190612d47565b61242d565b90505b61122d8187612cd8565b82101561125157611251826112428389612cd8565b61124c9190612d47565b612504565b60408051888152602081018890529081018690527f25d7358447891786a139ae7149548f3232a8c95f2ea6065c69c5bd7c39cd386c9060600160405180910390a150505050505050565b60006107fc6115da565b6108b53361076b565b60006112ba838361214a565b9392505050565b6112c961211a565b6001600160a01b0316336001600160a01b0316146108b5573360405163472511eb60e11b81526004016108929190612c49565b6000610ef6826121f0565b61130f61169d565b6001600160a01b0316336001600160a01b031614611342573360405163472511eb60e11b81526004016108929190612c49565b61134b81611fc2565b6040516001600160a01b038216907f0cc5437d7c9c1d9eab549acbb533eea3e9868e9443dd75309ed5820b33a3774e90600090a250565b60006107fc6113b260017f2b6136e423ab70d76431e2a635e877e16ea2dd9a895e054ad7f35f89d6c7b711612d47565b5490565b610b436113e460017f2b6136e423ab70d76431e2a635e877e16ea2dd9a895e054ad7f35f89d6c7b711612d47565b829055565b60006113f58483612636565b90506000611401612373565b9050836001600160a01b0316856001600160a01b0316141561148257604051632d20488160e11b81526001600160a01b03868116600483015260016024830152821690635a4091029060440160006040518083038186803b15801561146557600080fd5b505afa158015611479573d6000803e3d6000fd5b5050505061157c565b604051632d20488160e11b81526001600160a01b03868116600483015260016024830152821690635a4091029060440160006040518083038186803b1580156114ca57600080fd5b505afa1580156114de573d6000803e3d6000fd5b505060405163e838dfbb60e01b81526001600160a01b038416925063e838dfbb915061150e908790600401612c49565b602060405180830381865afa15801561152b573d6000803e3d6000fd5b505050506040513d601f19601f8201168201806040525081019061154f9190612d94565b1561156f578360405163e7d05e2760e01b81526004016108929190612c49565b61157a858584611ee8565b505b5050505050565b60006115b060017fc852254d5b703a16bb13b3e233a335d6459c5da5db0ca732d7a684ee05407847612d47565b6001600160a01b039485166000908152602091825260408082209590961681529390525091902055565b60006107fc612695565b6115ed8161234c565b6115f6816126c5565b6040516001600160a01b038216907f5a272403b402d892977df56625f4164ccaf70ca3863991c43ecfe76a6905b0a190600090a250565b611636816126ce565b6040516001600160a01b038216907f2a0f8515de3fa34ef68b99300347b8793c01683350743e96fe440594528298f490600090a250565b60006107fc6113b260017f0f1e7733641e4d843128fea0d2ec90d3d06a40b0fe244ff603d8c1aa200dc0f9612d47565b60006107fc6126d7565b610b436113e460017f8e9e2a1d30fed357d8a000c1131fc77ed65d2052918caf1ccc6eb1e7af3d13b6612d47565b60006107fc610f95565b60008183116116ee57826112ba565b50919050565b6060806116ff61231c565b6001600160a01b031663a1947323846040518263ffffffff1660e01b815260040161172c91815260200190565b6000604051808303816000875af115801561174b573d6000803e3d6000fd5b505050506040513d6000823e601f3d908101601f191682016040526117739190810190612ee2565b91509150915091565b60006107fc6113b260017fb649e50315f962b32d487e696a81b4828631b11f8424daaaa37e9e97766a2c42612d47565b60308351146117ce5760405163050cb55360e41b815260040160405180910390fd5b60608251146117f05760405163408ebd3960e01b815260040160405180910390fd5b6801bc16d674ec800000600061180a633b9aca0083612cf0565b90506000600286600060801b604051602001611827929190612f46565b60408051601f198184030181529082905261184191612f75565b602060405180830381855afa15801561185e573d6000803e3d6000fd5b5050506040513d601f19601f820116820180604052508101906118819190612f91565b905060006002806118958860006040612707565b6040516118a29190612f75565b602060405180830381855afa1580156118bf573d6000803e3d6000fd5b5050506040513d601f19601f820116820180604052508101906118e29190612f91565b60026118fa8960406118f5816060612d47565b612707565b60405161190d9190600090602001612faa565b60408051601f198184030181529082905261192791612f75565b602060405180830381855afa158015611944573d6000803e3d6000fd5b5050506040513d601f19601f820116820180604052508101906119679190612f91565b60408051602081019390935282015260600160408051601f198184030181529082905261199391612f75565b602060405180830381855afa1580156119b0573d6000803e3d6000fd5b5050506040513d601f19601f820116820180604052508101906119d39190612f91565b9050600060028084886040516020016119f6929190918252602082015260400190565b60408051601f1981840301815290829052611a1091612f75565b602060405180830381855afa158015611a2d573d6000803e3d6000fd5b5050506040513d601f19601f82011682018060405250810190611a509190612f91565b6002611a5b876127ca565b604080516020810192909252810186905260600160408051601f1981840301815290829052611a8991612f75565b602060405180830381855afa158015611aa6573d6000803e3d6000fd5b5050506040513d601f19601f82011682018060405250810190611ac99190612f91565b60408051602081019390935282015260600160408051601f1981840301815290829052611af591612f75565b602060405180830381855afa158015611b12573d6000803e3d6000fd5b5050506040513d601f19601f82011682018060405250810190611b359190612f91565b90506000611b438647612d47565b9050611b4d612837565b6001600160a01b03166322895118878b8a604051602001611b7091815260200190565b6040516020818303038152906040528c876040518663ffffffff1660e01b8152600401611ba09493929190612fcc565b6000604051808303818588803b158015611bb957600080fd5b505af1158015611bcd573d6000803e3d6000fd5b5050505050804714611bf257604051638051a6bb60e01b815260040160405180910390fd5b7f11553d182c6d24df901ccbb837d640c1ee9994876a88dccc8ddfd7ebab9b6ce189604051611c219190612ae6565b60405180910390a1505050505050505050565b60006107fc6113b260017fc77078e3530c08cdb2440817c81de4836500b4708ea4d15672b7fe98956423a8612d47565b610b436113e460017fc77078e3530c08cdb2440817c81de4836500b4708ea4d15672b7fe98956423a8612d47565b600080611c9d61166d565b90506000611ca9611c34565b905080821015611cfc576801bc16d674ec800000611cc78383612d47565b611cd19190612d28565b611cd9611382565b611ce1612228565b611ceb9190612cd8565b611cf59190612cd8565b9250505090565b611d04611382565b611ceb612228565b60006107fc612867565b60006107fc6113b260017f094efef62d2ce60c14ffacd35a1b50546d3a9d503aff1df040176fffd6c92a37612d47565b6000611d50612373565b60405163e838dfbb60e01b81529091506001600160a01b0382169063e838dfbb90611d7f908690600401612c49565b602060405180830381865afa158015611d9c573d6000803e3d6000fd5b505050506040513d601f19601f82011682018060405250810190611dc09190612d94565b15611de0578260405163e7d05e2760e01b81526004016108929190612c49565b60405163e838dfbb60e01b81526001600160a01b0382169063e838dfbb90611e0c908590600401612c49565b602060405180830381865afa158015611e29573d6000803e3d6000fd5b505050506040513d601f19601f82011682018060405250810190611e4d9190612d94565b15611e6d578160405163e7d05e2760e01b81526004016108929190612c49565b505050565b6000610ef6826121a2565b6000611e89833361214a565b905081811015611ecb57604051637b936de360e01b81526001600160a01b03841660048201523360248201526044810182905260648101839052608401610892565b6000198114611e6d57611e6d8333611ee38585612d47565b611583565b6000611f078483611ef8876121a2565b611f029190612d47565b612897565b611f1f8383611f15866121a2565b611f029190612cd8565b826001600160a01b0316846001600160a01b03167fddf252ad1be2c89b69c2b068fc378daa952ba7f163c4a11628f55a4df523b3ef84604051610ed191815260200190565b60006107fc6113b260017f82055909238c0f5e63d6f174068ebb8f51bcec9bd37de63bb68f6551feec0cfd612d47565b610b436113e460017f82055909238c0f5e63d6f174068ebb8f51bcec9bd37de63bb68f6551feec0cfd612d47565b611fcb8161234c565b610b436113e460017f082b6d18de7b10e438e6b1002141db737519cb4ceed679bc815e3aac00cd2227612d47565b612002816128e3565b610b436113e460017f094efef62d2ce60c14ffacd35a1b50546d3a9d503aff1df040176fffd6c92a37612d47565b6120398161234c565b610b436113e460017f867d8f1a5e39d11d5bebde854d5359a509530ad32450f581da63c06ec8d1a780612d47565b6120708161234c565b610b436113e460017f3f075dea7ef99b1e5db245018e5e4ed8d2a0d93953f5932b2176bef59bd69061612d47565b6120a782612906565b6040516001600160a01b038316907e043cf7635f276413ae358250286a479a631abd9d74d57d4aa0bb87ebc7d11790600090a26120e38161293d565b6040518181527f4c86ba184ea1a1558f84835ca34f6d67e222e8ee5cc4f324b8861dda4cf1740c9060200160405180910390a15050565b60006107fc6113b260017f8e9e2a1d30fed357d8a000c1131fc77ed65d2052918caf1ccc6eb1e7af3d13b6612d47565b60008061217860017fc852254d5b703a16bb13b3e233a335d6459c5da5db0ca732d7a684ee05407847612d47565b6001600160a01b039485166000908152602091825260408082209590961681529390525050205490565b6000806121d060017f0fb4a5ac9287f4f508aa7253ee2d57c6a228b1b30e210d73fffd59389d3a8838612d47565b6001600160a01b0390931660009081526020939093525050604090205490565b6000806121fb612867565b90508061220b5750600092915050565b80612214611c92565b61221e9085612d28565b6112ba9190612cf0565b60006107fc6113b260017ffedfd2c285a57fb23bf45a3fe9ac02d36a76ebb72801b1c8aaf553d74e9d4653612d47565b60006107fc6113b260017f082b6d18de7b10e438e6b1002141db737519cb4ceed679bc815e3aac00cd2227612d47565b600080612293612867565b9050806122a35750600092915050565b6122ab611c92565b61221e8285612d28565b6122be8161234c565b610b436113e460017fc8cbea9407c380ae944f052b5a442330057683c5abdbd453493f9750806afecb612d47565b60006107fc6113b260017fc8cbea9407c380ae944f052b5a442330057683c5abdbd453493f9750806afecb612d47565b60006107fc6113b260017f3f075dea7ef99b1e5db245018e5e4ed8d2a0d93953f5932b2176bef59bd69061612d47565b6001600160a01b038116610b435760405163f6b2911f60e01b815260040160405180910390fd5b60006107fc6113b260017f867d8f1a5e39d11d5bebde854d5359a509530ad32450f581da63c06ec8d1a780612d47565b610b436113e460017ffedfd2c285a57fb23bf45a3fe9ac02d36a76ebb72801b1c8aaf553d74e9d4653612d47565b610b436113e460017f0f1e7733641e4d843128fea0d2ec90d3d06a40b0fe244ff603d8c1aa200dc0f9612d47565b610b436113e460017fd7f2d45e512a86049f7a113657b39731b6b558609584243063a52cd31a8eb529612d47565b60008061243861211a565b90506001600160a01b0381166124515750600092915050565b60405163c8a6dfd360e01b81526004810184905247906001600160a01b0383169063c8a6dfd390602401600060405180830381600087803b15801561249557600080fd5b505af11580156124a9573d6000803e3d6000fd5b50505050600081476124bb9190612d47565b90506124c981610795611382565b6040518181527fda841d3042d792e2509a333b9dcbd4b3dd9b9047d382011f8788fab90ca7e3c79060200160405180910390a1949350505050565b600061250e611d0c565b90508061252e57604051630d35acd760e21b815260040160405180910390fd5b6000612538611c92565b90506000612544611d16565b90506000816125538587612d28565b61255d9190612d28565b9050600061256b8387612d28565b61257761271086612d28565b6125819190612d47565b90506000811561259a576125958284612cf0565b61259d565b60005b9050801561262d5760006125af612258565b90506125bb8183612989565b60006125c5611d0c565b905060006125d38a89612d47565b60408051828152602081018c90529081018a9052606081018490529091506001600160a01b038416907f3d1669e813a9845c288f0e1f642a4343a451103b87886d12de37e63b39bbd9429060800160405180910390a25050505b50505050505050565b60008082612642611c92565b61264c9190612d47565b905080612665578291506126608484612989565b61268e565b8061266e611d0c565b6126789085612d28565b6126829190612cf0565b915061268e8483612989565b5092915050565b60006107fc6113b260017f6e6ab8b7c7aaba79eef8cc633522d606bb008c101cf9832c9ad05d10a9847281612d47565b610b43816129f7565b610b4381612a2e565b60006107fc6113b260017fb5b37715a3e346e996104f0086703f19825def429233930fd9399c38e05fb113612d47565b60608182601f01101561272d576040516323d5783d60e11b815260040160405180910390fd5b6127378284612cd8565b8451101561275857604051633b99b53d60e01b815260040160405180910390fd5b60608215801561277757604051915060008252602082016040526127c1565b6040519150601f8416801560200281840101858101878315602002848b0101015b818310156127b0578051835260209283019201612798565b5050858452601f01601f1916604052505b50949350505050565b603881901c60ff908116603083901c8216602884901c8316602085901c8416601886901c8516601087901c8616600888811c9790971688881b61ff001617871b17861b17851b17841b17831b1790911b17604082901c801561282e5761282e613017565b5060c01b919050565b60006107fc6113b260017f35efb61d8784060218d9d6aa40eae55904de43779c1afc79c74dfefcfdf91260612d47565b60006107fc6113b260017f6b842b424335d94ccad97e54548dfa02673c1268aba38d3c3c32d28c8988b70b612d47565b60006128c460017f0fb4a5ac9287f4f508aa7253ee2d57c6a228b1b30e210d73fffd59389d3a8838612d47565b6001600160a01b03909316600090815260209390935250604090912055565b612710811115610b43576040516358d620b360e01b815260040160405180910390fd5b61290f8161234c565b610b436113e460017f35efb61d8784060218d9d6aa40eae55904de43779c1afc79c74dfefcfdf91260612d47565b8061295b5760405163a9cb9e0d60e01b815260040160405180910390fd5b610b436113e460017fb649e50315f962b32d487e696a81b4828631b11f8424daaaa37e9e97766a2c42612d47565b6129a481612995612867565b61299f9190612cd8565b612a5c565b6129b28282611f15856121a2565b6040518181526001600160a01b038316906000907fddf252ad1be2c89b69c2b068fc378daa952ba7f163c4a11628f55a4df523b3ef9060200160405180910390a35050565b612a008161234c565b610b436113e460017fb5b37715a3e346e996104f0086703f19825def429233930fd9399c38e05fb113612d47565b610b436113e460017f6e6ab8b7c7aaba79eef8cc633522d606bb008c101cf9832c9ad05d10a9847281612d47565b610b436113e460017f6b842b424335d94ccad97e54548dfa02673c1268aba38d3c3c32d28c8988b70b612d47565b60005b83811015612aa5578181015183820152602001612a8d565b83811115612ab4576000848401525b50505050565b60008151808452612ad2816020860160208601612a8a565b601f01601f19169290920160200192915050565b6020815260006112ba6020830184612aba565b80356001600160a01b0381168114612b1057600080fd5b919050565b60008060408385031215612b2857600080fd5b612b3183612af9565b946020939093013593505050565b600060208284031215612b5157600080fd5b6112ba82612af9565b600060208284031215612b6c57600080fd5b5035919050565b600080600060608486031215612b8857600080fd5b612b9184612af9565b9250612b9f60208501612af9565b9150604084013590509250925092565b60008060008060008060008060006101208a8c031215612bce57600080fd5b612bd78a612af9565b9850612be560208b01612af9565b975060408a01359650612bfa60608b01612af9565b9550612c0860808b01612af9565b9450612c1660a08b01612af9565b9350612c2460c08b01612af9565b9250612c3260e08b01612af9565b91506101008a013590509295985092959850929598565b6001600160a01b0391909116815260200190565b60008060008060808587031215612c7357600080fd5b5050823594602084013594506040840135936060013592509050565b60008060408385031215612ca257600080fd5b612cab83612af9565b9150612cb960208401612af9565b90509250929050565b634e487b7160e01b600052601160045260246000fd5b60008219821115612ceb57612ceb612cc2565b500190565b600082612d0d57634e487b7160e01b600052601260045260246000fd5b500490565b634e487b7160e01b600052603260045260246000fd5b6000816000190483118215151615612d4257612d42612cc2565b500290565b600082821015612d5957612d59612cc2565b500390565b83815260406020820152816040820152818360608301376000818301606090810191909152601f909201601f1916010192915050565b600060208284031215612da657600080fd5b815180151581146112ba57600080fd5b634e487b7160e01b600052604160045260246000fd5b604051601f8201601f1916810167ffffffffffffffff81118282101715612df557612df5612db6565b604052919050565b6000601f8381840112612e0f57600080fd5b8251602067ffffffffffffffff80831115612e2c57612e2c612db6565b8260051b612e3b838201612dcc565b9384528681018301938381019089861115612e5557600080fd5b84890192505b85831015610c0057825184811115612e735760008081fd5b8901603f81018b13612e855760008081fd5b85810151604086821115612e9b57612e9b612db6565b612eac828b01601f19168901612dcc565b8281528d82848601011115612ec15760008081fd5b612ed0838a8301848701612a8a565b85525050509184019190840190612e5b565b60008060408385031215612ef557600080fd5b825167ffffffffffffffff80821115612f0d57600080fd5b612f1986838701612dfd565b93506020850151915080821115612f2f57600080fd5b50612f3c85828601612dfd565b9150509250929050565b60008351612f58818460208801612a8a565b6001600160801b0319939093169190920190815260100192915050565b60008251612f87818460208701612a8a565b9190910192915050565b600060208284031215612fa357600080fd5b5051919050565b60008351612fbc818460208801612a8a565b9190910191825250602001919050565b608081526000612fdf6080830187612aba565b8281036020840152612ff18187612aba565b905082810360408401526130058186612aba565b91505082606083015295945050505050565b634e487b7160e01b600052600160045260246000fdfea2646970667358221220a0ca0e5050c3d44537e9bbacc1c4f8a7319eb9f6a0d9bbaa5d300df1cd91a0b764736f6c634300080a0033",
            "0x608060405234801561001057600080fd5b50613054806100206000396000f3fe60806040526004361061026b5760003560e01c80635639671511610144578063a9059cbb116100b6578063d04681561161007a578063d0468156146106e6578063d0e30db0146106fb578063dd62ed3e14610703578063efd6034714610723578063f79c3f021461072b578063fb5b82d01461074b5761027b565b8063a9059cbb14610669578063ac232bde14610689578063bf15af561461069c578063c5eff3d0146106b1578063cc48cd31146106c65761027b565b80637adbf973116101085780637adbf973146105bc578063833b1fce146105dc57806387f2adfb146105f157806395d89b41146106065780639b498e2614610634578063a457c2d7146106495761027b565b8063563967151461053257806358bf3c7f146105475780636e9960c31461056757806370a082311461057c578063799a19541461059c5761027b565b806323b872dd116101dd57806336bf3325116101a157806336bf33251461049657806339509351146104b35780633af9e669146104d357806346425ef0146104f35780635022820114610508578063540bc5ea1461051d5761027b565b806323b872dd146103f8578063281a312214610418578063291206f6146104385780632cb562e114610458578063313ce5671461047a5761027b565b80631311cf8d1161022f5780631311cf8d1461035957806313d86aed14610379578063143a08d414610399578063147bf6c4146103ae57806318160ddd146103ce5780631bcbfaba146103e35761027b565b806304843a171461029457806306fdde03146102bc578063095ea7b3146102ff5780630e18b6811461032f578063107d7fa0146103445761027b565b3661027b576102793361076b565b005b60405163574b16a760e11b815260040160405180910390fd5b3480156102a057600080fd5b506102a96107f2565b6040519081526020015b60405180910390f35b3480156102c857600080fd5b50604080518082019091526011815270098d2e2ead2c840a6e8c2d6cac8408aa89607b1b60208201525b6040516102b39190612ad7565b34801561030b57600080fd5b5061031f61031a366004612b06565b610801565b60405190151581526020016102b3565b34801561033b57600080fd5b50610279610817565b34801561035057600080fd5b506102a9610877565b34801561036557600080fd5b50610279610374366004612b30565b610881565b34801561038557600080fd5b50610279610394366004612b4b565b6108fc565b3480156103a557600080fd5b506102a9610ab5565b3480156103ba57600080fd5b506102796103c9366004612b30565b610abf565b3480156103da57600080fd5b506102a9610b06565b3480156103ef57600080fd5b506102a9610b10565b34801561040457600080fd5b5061031f610413366004612b64565b610b1a565b34801561042457600080fd5b50610279610433366004612ba0565b610bcd565b34801561044457600080fd5b50610279610453366004612b4b565b610daf565b34801561046457600080fd5b5061046d610e29565b6040516102b39190612c3a565b34801561048657600080fd5b50604051601281526020016102b3565b3480156104a257600080fd5b506102a96801bc16d674ec80000081565b3480156104bf57600080fd5b5061031f6104ce366004612b06565b610e33565b3480156104df57600080fd5b506102a96104ee366004612b30565b610e54565b3480156104ff57600080fd5b506102a9610e6d565b34801561051457600080fd5b5061046d610e77565b34801561052957600080fd5b506102a9606081565b34801561053e57600080fd5b506102a9610e81565b34801561055357600080fd5b50610279610562366004612b30565b610e8b565b34801561057357600080fd5b5061046d610f06565b34801561058857600080fd5b506102a9610597366004612b30565b610f10565b3480156105a857600080fd5b506102a96105b7366004612b4b565b610f1b565b3480156105c857600080fd5b506102796105d7366004612b30565b610f26565b3480156105e857600080fd5b5061046d610fa1565b3480156105fd57600080fd5b506102a9610fab565b34801561061257600080fd5b50604080518082019091526005815264098e68aa8960db1b60208201526102f2565b34801561064057600080fd5b5061046d610fb5565b34801561065557600080fd5b5061031f610664366004612b06565b610fbf565b34801561067557600080fd5b5061031f610684366004612b06565b610fdb565b610279610697366004612b30565b61107a565b3480156106a857600080fd5b506102a9603081565b3480156106bd57600080fd5b5061046d61108c565b3480156106d257600080fd5b506102796106e1366004612c4e565b611096565b3480156106f257600080fd5b5061046d611210565b61027961121a565b34801561070f57600080fd5b506102a961071e366004612c80565b611223565b610279611236565b34801561073757600080fd5b506102a9610746366004612b4b565b611271565b34801561075757600080fd5b50610279610766366004612b30565b61127c565b34610789576040516395b66fe960e01b815260040160405180910390fd5b6107a4346107956112f7565b61079f9190612cc9565b61132b565b6107af33823461135e565b6040513481526001600160a01b0382169033907f3bc57f469ad6d10d7723ea226cd22bd2b9e527def2b529f6ab44645a166895829060200160405180910390a350565b60006107fc6112f7565b905090565b600061080e3384846114f8565b50600192915050565b61081f611567565b6001600160a01b0316336001600160a01b03161461085b573360405163472511eb60e11b81526004016108529190612c3a565b60405180910390fd5b61086b610866611567565b611571565b61087560006115ba565b565b60006107fc6115fa565b61088961162a565b6001600160a01b0316336001600160a01b0316146108bc573360405163472511eb60e11b81526004016108529190612c3a565b6108c581611634565b6040516001600160a01b038216907f1da4c245099590dc40be61880c9b97792f3694d970acc1e67ac0e6cc90f3780d90600090a250565b610904611662565b6001600160a01b0316336001600160a01b031614610937573360405163472511eb60e11b81526004016108529190612c3a565b60006109416112f7565b9050600061096161095b6801bc16d674ec80000084612ce1565b8461166c565b90508061098157604051631036b5ad60e31b815260040160405180910390fd5b60008061098d83611681565b81519193509150806109b25760405163200149ad60e21b815260040160405180910390fd5b838111156109d357604051635993bd5760e01b815260040160405180910390fd5b81518181146109f5576040516322e5ce4360e21b815260040160405180910390fd5b60006109ff611709565b905080610a1f57604051639be7315960e01b815260040160405180910390fd5b60005b83811015610a6f57610a67868281518110610a3f57610a3f612d03565b6020026020010151868381518110610a5957610a59612d03565b602002602001015184611739565b600101610a22565b50610a90610a86846801bc16d674ec800000612d19565b61079f9089612d38565b610aab83610a9c611bc1565b610aa69190612cc9565b611bf1565b5050505050505050565b60006107fc611c1f565b610ac761162a565b6001600160a01b0316336001600160a01b031614610afa573360405163472511eb60e11b81526004016108529190612c3a565b610b03816115ba565b50565b60006107fc611c99565b60006107fc611ca3565b60008383610b288282611cd3565b8380610b47576040516336b216db60e21b815260040160405180910390fd5b868580610b5383611dff565b1015610b72576040516351940b3960e11b815260040160405180910390fd5b6001600160a01b038816610bab57604051637617407560e11b81526001600160a01b038a16600482015260006024820152604401610852565b610bb58988611e0a565b610bc0898989611e70565b9998505050505050505050565b6000610bd7611efe565b8114610c085780610be6611efe565b604051631cfd276760e31b815260048101929092526024820152604401610852565b610c1b610c16826001612cc9565b611f2e565b610c2486611571565b610c2d83611f5c565b6040516001600160a01b038416907f0cc5437d7c9c1d9eab549acbb533eea3e9868e9443dd75309ed5820b33a3774e90600090a2610c6a82611f93565b6040518281527fbd533e726baaf59b36f3914d950053f7e78f527057c97cd3f0043257fc0fc8849060200160405180910390a1610ca689611634565b6040516001600160a01b038a16907f1da4c245099590dc40be61880c9b97792f3694d970acc1e67ac0e6cc90f3780d90600090a2610ce385611fca565b6040516001600160a01b038616907f30f015a5d3c72c0a9414538199baa022323a483fa9e4ba2cd581596cf8ca042490600090a2610d2084612001565b6040516001600160a01b038516907fffc0721ef0563a1b0a51a0dc92113025f33ca434ada9ee3eebff2f385d2a8f9a90600090a2610d5e8a89612038565b610d6787610f61565b7f1809e49bba43f2d39fa57894b50cd6ccb428cc438230e065cac3eb24a1355a7181600036604051610d9b93929190612d4f565b60405180910390a150505050505050505050565b610db761162a565b6001600160a01b0316336001600160a01b031614610dea573360405163472511eb60e11b81526004016108529190612c3a565b610df381611f93565b6040518181527fbd533e726baaf59b36f3914d950053f7e78f527057c97cd3f0043257fc0fc8849060200160405180910390a150565b60006107fc6120b4565b600061080e338484610e4533886120e4565b610e4f9190612cc9565b6114f8565b6000610e67610e628361213c565b61218a565b92915050565b60006107fc6121c2565b60006107fc6121f2565b60006107fc611709565b610e9361162a565b6001600160a01b0316336001600160a01b031614610ec6573360405163472511eb60e11b81526004016108529190612c3a565b610ecf81611fca565b6040516001600160a01b038216907f30f015a5d3c72c0a9414538199baa022323a483fa9e4ba2cd581596cf8ca042490600090a250565b60006107fc61162a565b6000610e6782611dff565b6000610e6782612222565b610f2e611662565b6001600160a01b0316336001600160a01b031614610f61573360405163472511eb60e11b81526004016108529190612c3a565b610f6a8161224f565b6040516001600160a01b038216907fd3b5d1e0ffaeff528910f3663f0adace7694ab8241d58e17a91351ced2e0803190600090a250565b60006107fc612286565b60006107fc611bc1565b60006107fc6122b6565b600061080e338484610fd133886120e4565b610e4f9190612d38565b60003383610fe98282611cd3565b8380611008576040516336b216db60e21b815260040160405180910390fd5b33858061101483611dff565b1015611033576040516351940b3960e11b815260040160405180910390fd5b6001600160a01b03881661106357604051637617407560e11b815233600482015260006024820152604401610852565b61106e338989611e70565b98975050505050505050565b611083816122e6565b610b038161076b565b60006107fc61230d565b61109e612286565b6001600160a01b0316336001600160a01b0316146110d1573360405163472511eb60e11b81526004016108529190612c3a565b6110d9611bc1565b84111561110b57836110e9611bc1565b6040516376179ac560e01b815260048101929092526024820152604401610852565b60006111156115fa565b61111f9086612d38565b90506000611136826801bc16d674ec800000612d19565b61113e6121c2565b6111489190612cc9565b90506111538561233d565b61115c8661236b565b61116584612399565b6000856111728386612cc9565b111561119857611195866111868487612cc9565b6111909190612d38565b6123c7565b90505b6111a28187612cc9565b8210156111c6576111c6826111b78389612cc9565b6111c19190612d38565b61249e565b60408051888152602081018890529081018690527f25d7358447891786a139ae7149548f3232a8c95f2ea6065c69c5bd7c39cd386c9060600160405180910390a150505050505050565b60006107fc611567565b6108753361076b565b600061122f83836120e4565b9392505050565b61123e6120b4565b6001600160a01b0316336001600160a01b031614610875573360405163472511eb60e11b81526004016108529190612c3a565b6000610e678261218a565b61128461162a565b6001600160a01b0316336001600160a01b0316146112b7573360405163472511eb60e11b81526004016108529190612c3a565b6112c081611f5c565b6040516001600160a01b038216907f0cc5437d7c9c1d9eab549acbb533eea3e9868e9443dd75309ed5820b33a3774e90600090a250565b60006107fc61132760017f2b6136e423ab70d76431e2a635e877e16ea2dd9a895e054ad7f35f89d6c7b711612d38565b5490565b610b0361135960017f2b6136e423ab70d76431e2a635e877e16ea2dd9a895e054ad7f35f89d6c7b711612d38565b829055565b600061136a84836125d0565b9050600061137661230d565b9050836001600160a01b0316856001600160a01b031614156113f757604051632d20488160e11b81526001600160a01b03868116600483015260016024830152821690635a4091029060440160006040518083038186803b1580156113da57600080fd5b505afa1580156113ee573d6000803e3d6000fd5b505050506114f1565b604051632d20488160e11b81526001600160a01b03868116600483015260016024830152821690635a4091029060440160006040518083038186803b15801561143f57600080fd5b505afa158015611453573d6000803e3d6000fd5b505060405163e838dfbb60e01b81526001600160a01b038416925063e838dfbb9150611483908790600401612c3a565b602060405180830381865afa1580156114a0573d6000803e3d6000fd5b505050506040513d601f19601f820116820180604052508101906114c49190612d85565b156114e4578360405163e7d05e2760e01b81526004016108529190612c3a565b6114ef858584611e70565b505b5050505050565b611501836122e6565b61150a826122e6565b61151583838361262f565b816001600160a01b0316836001600160a01b03167f8c5be1e5ebec7d5bd14f71427d1e84f3dd0314c0f7b2291e5b200ac8c7c3b9258360405161155a91815260200190565b60405180910390a3505050565b60006107fc612686565b61157a816122e6565b611583816126b6565b6040516001600160a01b038216907f5a272403b402d892977df56625f4164ccaf70ca3863991c43ecfe76a6905b0a190600090a250565b6115c3816126bf565b6040516001600160a01b038216907f2a0f8515de3fa34ef68b99300347b8793c01683350743e96fe440594528298f490600090a250565b60006107fc61132760017f0f1e7733641e4d843128fea0d2ec90d3d06a40b0fe244ff603d8c1aa200dc0f9612d38565b60006107fc6126c8565b610b0361135960017f8e9e2a1d30fed357d8a000c1131fc77ed65d2052918caf1ccc6eb1e7af3d13b6612d38565b60006107fc610f06565b600081831161167b578261122f565b50919050565b60608061168c6122b6565b6001600160a01b031663a1947323846040518263ffffffff1660e01b81526004016116b991815260200190565b6000604051808303816000875af11580156116d8573d6000803e3d6000fd5b505050506040513d6000823e601f3d908101601f191682016040526117009190810190612ed3565b91509150915091565b60006107fc61132760017fb649e50315f962b32d487e696a81b4828631b11f8424daaaa37e9e97766a2c42612d38565b603083511461175b5760405163050cb55360e41b815260040160405180910390fd5b606082511461177d5760405163408ebd3960e01b815260040160405180910390fd5b6801bc16d674ec8000006000611797633b9aca0083612ce1565b90506000600286600060801b6040516020016117b4929190612f37565b60408051601f19818403018152908290526117ce91612f66565b602060405180830381855afa1580156117eb573d6000803e3d6000fd5b5050506040513d601f19601f8201168201806040525081019061180e9190612f82565b9050600060028061182288600060406126f8565b60405161182f9190612f66565b602060405180830381855afa15801561184c573d6000803e3d6000fd5b5050506040513d601f19601f8201168201806040525081019061186f9190612f82565b6002611887896040611882816060612d38565b6126f8565b60405161189a9190600090602001612f9b565b60408051601f19818403018152908290526118b491612f66565b602060405180830381855afa1580156118d1573d6000803e3d6000fd5b5050506040513d601f19601f820116820180604052508101906118f49190612f82565b60408051602081019390935282015260600160408051601f198184030181529082905261192091612f66565b602060405180830381855afa15801561193d573d6000803e3d6000fd5b5050506040513d601f19601f820116820180604052508101906119609190612f82565b905060006002808488604051602001611983929190918252602082015260400190565b60408051601f198184030181529082905261199d91612f66565b602060405180830381855afa1580156119ba573d6000803e3d6000fd5b5050506040513d601f19601f820116820180604052508101906119dd9190612f82565b60026119e8876127bb565b604080516020810192909252810186905260600160408051601f1981840301815290829052611a1691612f66565b602060405180830381855afa158015611a33573d6000803e3d6000fd5b5050506040513d601f19601f82011682018060405250810190611a569190612f82565b60408051602081019390935282015260600160408051601f1981840301815290829052611a8291612f66565b602060405180830381855afa158015611a9f573d6000803e3d6000fd5b5050506040513d601f19601f82011682018060405250810190611ac29190612f82565b90506000611ad08647612d38565b9050611ada612828565b6001600160a01b03166322895118878b8a604051602001611afd91815260200190565b6040516020818303038152906040528c876040518663ffffffff1660e01b8152600401611b2d9493929190612fbd565b6000604051808303818588803b158015611b4657600080fd5b505af1158015611b5a573d6000803e3d6000fd5b5050505050804714611b7f57604051638051a6bb60e01b815260040160405180910390fd5b7f11553d182c6d24df901ccbb837d640c1ee9994876a88dccc8ddfd7ebab9b6ce189604051611bae9190612ad7565b60405180910390a1505050505050505050565b60006107fc61132760017fc77078e3530c08cdb2440817c81de4836500b4708ea4d15672b7fe98956423a8612d38565b610b0361135960017fc77078e3530c08cdb2440817c81de4836500b4708ea4d15672b7fe98956423a8612d38565b600080611c2a6115fa565b90506000611c36611bc1565b905080821015611c89576801bc16d674ec800000611c548383612d38565b611c5e9190612d19565b611c666112f7565b611c6e6121c2565b611c789190612cc9565b611c829190612cc9565b9250505090565b611c916112f7565b611c786121c2565b60006107fc612858565b60006107fc61132760017f094efef62d2ce60c14ffacd35a1b50546d3a9d503aff1df040176fffd6c92a37612d38565b6000611cdd61230d565b60405163e838dfbb60e01b81529091506001600160a01b0382169063e838dfbb90611d0c908690600401612c3a565b602060405180830381865afa158015611d29573d6000803e3d6000fd5b505050506040513d601f19601f82011682018060405250810190611d4d9190612d85565b15611d6d578260405163e7d05e2760e01b81526004016108529190612c3a565b60405163e838dfbb60e01b81526001600160a01b0382169063e838dfbb90611d99908590600401612c3a565b602060405180830381865afa158015611db6573d6000803e3d6000fd5b505050506040513d601f19601f82011682018060405250810190611dda9190612d85565b15611dfa578160405163e7d05e2760e01b81526004016108529190612c3a565b505050565b6000610e678261213c565b6000611e1683336120e4565b905081811015611e5857604051637b936de360e01b81526001600160a01b03841660048201523360248201526044810182905260648101839052608401610852565b6000198114611dfa57611dfa8333610e4f8585612d38565b6000611e8f8483611e808761213c565b611e8a9190612d38565b612888565b611ea78383611e9d8661213c565b611e8a9190612cc9565b826001600160a01b0316846001600160a01b03167fddf252ad1be2c89b69c2b068fc378daa952ba7f163c4a11628f55a4df523b3ef84604051611eec91815260200190565b60405180910390a35060019392505050565b60006107fc61132760017f82055909238c0f5e63d6f174068ebb8f51bcec9bd37de63bb68f6551feec0cfd612d38565b610b0361135960017f82055909238c0f5e63d6f174068ebb8f51bcec9bd37de63bb68f6551feec0cfd612d38565b611f65816122e6565b610b0361135960017f082b6d18de7b10e438e6b1002141db737519cb4ceed679bc815e3aac00cd2227612d38565b611f9c816128d4565b610b0361135960017f094efef62d2ce60c14ffacd35a1b50546d3a9d503aff1df040176fffd6c92a37612d38565b611fd3816122e6565b610b0361135960017f867d8f1a5e39d11d5bebde854d5359a509530ad32450f581da63c06ec8d1a780612d38565b61200a816122e6565b610b0361135960017f3f075dea7ef99b1e5db245018e5e4ed8d2a0d93953f5932b2176bef59bd69061612d38565b612041826128f7565b6040516001600160a01b038316907e043cf7635f276413ae358250286a479a631abd9d74d57d4aa0bb87ebc7d11790600090a261207d8161292e565b6040518181527f4c86ba184ea1a1558f84835ca34f6d67e222e8ee5cc4f324b8861dda4cf1740c9060200160405180910390a15050565b60006107fc61132760017f8e9e2a1d30fed357d8a000c1131fc77ed65d2052918caf1ccc6eb1e7af3d13b6612d38565b60008061211260017fc852254d5b703a16bb13b3e233a335d6459c5da5db0ca732d7a684ee05407847612d38565b6001600160a01b039485166000908152602091825260408082209590961681529390525050205490565b60008061216a60017f0fb4a5ac9287f4f508aa7253ee2d57c6a228b1b30e210d73fffd59389d3a8838612d38565b6001600160a01b0390931660009081526020939093525050604090205490565b600080612195612858565b9050806121a55750600092915050565b806121ae611c1f565b6121b89085612d19565b61122f9190612ce1565b60006107fc61132760017ffedfd2c285a57fb23bf45a3fe9ac02d36a76ebb72801b1c8aaf553d74e9d4653612d38565b60006107fc61132760017f082b6d18de7b10e438e6b1002141db737519cb4ceed679bc815e3aac00cd2227612d38565b60008061222d612858565b90508061223d5750600092915050565b612245611c1f565b6121b88285612d19565b612258816122e6565b610b0361135960017fc8cbea9407c380ae944f052b5a442330057683c5abdbd453493f9750806afecb612d38565b60006107fc61132760017fc8cbea9407c380ae944f052b5a442330057683c5abdbd453493f9750806afecb612d38565b60006107fc61132760017f3f075dea7ef99b1e5db245018e5e4ed8d2a0d93953f5932b2176bef59bd69061612d38565b6001600160a01b038116610b035760405163f6b2911f60e01b815260040160405180910390fd5b60006107fc61132760017f867d8f1a5e39d11d5bebde854d5359a509530ad32450f581da63c06ec8d1a780612d38565b610b0361135960017ffedfd2c285a57fb23bf45a3fe9ac02d36a76ebb72801b1c8aaf553d74e9d4653612d38565b610b0361135960017f0f1e7733641e4d843128fea0d2ec90d3d06a40b0fe244ff603d8c1aa200dc0f9612d38565b610b0361135960017fd7f2d45e512a86049f7a113657b39731b6b558609584243063a52cd31a8eb529612d38565b6000806123d26120b4565b90506001600160a01b0381166123eb5750600092915050565b60405163c8a6dfd360e01b81526004810184905247906001600160a01b0383169063c8a6dfd390602401600060405180830381600087803b15801561242f57600080fd5b505af1158015612443573d6000803e3d6000fd5b50505050600081476124559190612d38565b9050612463816107956112f7565b6040518181527fda841d3042d792e2509a333b9dcbd4b3dd9b9047d382011f8788fab90ca7e3c79060200160405180910390a1949350505050565b60006124a8611c99565b9050806124c857604051630d35acd760e21b815260040160405180910390fd5b60006124d2611c1f565b905060006124de611ca3565b90506000816124ed8587612d19565b6124f79190612d19565b905060006125058387612d19565b61251161271086612d19565b61251b9190612d38565b9050600081156125345761252f8284612ce1565b612537565b60005b905080156125c75760006125496121f2565b9050612555818361297a565b600061255f611c99565b9050600061256d8a89612d38565b60408051828152602081018c90529081018a9052606081018490529091506001600160a01b038416907f3d1669e813a9845c288f0e1f642a4343a451103b87886d12de37e63b39bbd9429060800160405180910390a25050505b50505050505050565b600080826125dc611c1f565b6125e69190612d38565b9050806125ff578291506125fa848461297a565b612628565b80612608611c99565b6126129085612d19565b61261c9190612ce1565b9150612628848361297a565b5092915050565b600061265c60017fc852254d5b703a16bb13b3e233a335d6459c5da5db0ca732d7a684ee05407847612d38565b6001600160a01b039485166000908152602091825260408082209590961681529390525091902055565b60006107fc61132760017f6e6ab8b7c7aaba79eef8cc633522d606bb008c101cf9832c9ad05d10a9847281612d38565b610b03816129e8565b610b0381612a1f565b60006107fc61132760017fb5b37715a3e346e996104f0086703f19825def429233930fd9399c38e05fb113612d38565b60608182601f01101561271e576040516323d5783d60e11b815260040160405180910390fd5b6127288284612cc9565b8451101561274957604051633b99b53d60e01b815260040160405180910390fd5b60608215801561276857604051915060008252602082016040526127b2565b6040519150601f8416801560200281840101858101878315602002848b0101015b818310156127a1578051835260209283019201612789565b5050858452601f01601f1916604052505b50949350505050565b603881901c60ff908116603083901c8216602884901c8316602085901c8416601886901c8516601087901c8616600888811c9790971688881b61ff001617871b17861b17851b17841b17831b1790911b17604082901c801561281f5761281f613008565b5060c01b919050565b60006107fc61132760017f35efb61d8784060218d9d6aa40eae55904de43779c1afc79c74dfefcfdf91260612d38565b60006107fc61132760017f6b842b424335d94ccad97e54548dfa02673c1268aba38d3c3c32d28c8988b70b612d38565b60006128b560017f0fb4a5ac9287f4f508aa7253ee2d57c6a228b1b30e210d73fffd59389d3a8838612d38565b6001600160a01b03909316600090815260209390935250604090912055565b612710811115610b03576040516358d620b360e01b815260040160405180910390fd5b612900816122e6565b610b0361135960017f35efb61d8784060218d9d6aa40eae55904de43779c1afc79c74dfefcfdf91260612d38565b8061294c5760405163a9cb9e0d60e01b815260040160405180910390fd5b610b0361135960017fb649e50315f962b32d487e696a81b4828631b11f8424daaaa37e9e97766a2c42612d38565b61299581612986612858565b6129909190612cc9565b612a4d565b6129a38282611e9d8561213c565b6040518181526001600160a01b038316906000907fddf252ad1be2c89b69c2b068fc378daa952ba7f163c4a11628f55a4df523b3ef9060200160405180910390a35050565b6129f1816122e6565b610b0361135960017fb5b37715a3e346e996104f0086703f19825def429233930fd9399c38e05fb113612d38565b610b0361135960017f6e6ab8b7c7aaba79eef8cc633522d606bb008c101cf9832c9ad05d10a9847281612d38565b610b0361135960017f6b842b424335d94ccad97e54548dfa02673c1268aba38d3c3c32d28c8988b70b612d38565b60005b83811015612a96578181015183820152602001612a7e565b83811115612aa5576000848401525b50505050565b60008151808452612ac3816020860160208601612a7b565b601f01601f19169290920160200192915050565b60208152600061122f6020830184612aab565b80356001600160a01b0381168114612b0157600080fd5b919050565b60008060408385031215612b1957600080fd5b612b2283612aea565b946020939093013593505050565b600060208284031215612b4257600080fd5b61122f82612aea565b600060208284031215612b5d57600080fd5b5035919050565b600080600060608486031215612b7957600080fd5b612b8284612aea565b9250612b9060208501612aea565b9150604084013590509250925092565b60008060008060008060008060006101208a8c031215612bbf57600080fd5b612bc88a612aea565b9850612bd660208b01612aea565b975060408a01359650612beb60608b01612aea565b9550612bf960808b01612aea565b9450612c0760a08b01612aea565b9350612c1560c08b01612aea565b9250612c2360e08b01612aea565b91506101008a013590509295985092959850929598565b6001600160a01b0391909116815260200190565b60008060008060808587031215612c6457600080fd5b5050823594602084013594506040840135936060013592509050565b60008060408385031215612c9357600080fd5b612c9c83612aea565b9150612caa60208401612aea565b90509250929050565b634e487b7160e01b600052601160045260246000fd5b60008219821115612cdc57612cdc612cb3565b500190565b600082612cfe57634e487b7160e01b600052601260045260246000fd5b500490565b634e487b7160e01b600052603260045260246000fd5b6000816000190483118215151615612d3357612d33612cb3565b500290565b600082821015612d4a57612d4a612cb3565b500390565b83815260406020820152816040820152818360608301376000818301606090810191909152601f909201601f1916010192915050565b600060208284031215612d9757600080fd5b8151801515811461122f57600080fd5b634e487b7160e01b600052604160045260246000fd5b604051601f8201601f1916810167ffffffffffffffff81118282101715612de657612de6612da7565b604052919050565b6000601f8381840112612e0057600080fd5b8251602067ffffffffffffffff80831115612e1d57612e1d612da7565b8260051b612e2c838201612dbd565b9384528681018301938381019089861115612e4657600080fd5b84890192505b85831015610bc057825184811115612e645760008081fd5b8901603f81018b13612e765760008081fd5b85810151604086821115612e8c57612e8c612da7565b612e9d828b01601f19168901612dbd565b8281528d82848601011115612eb25760008081fd5b612ec1838a8301848701612a7b565b85525050509184019190840190612e4c565b60008060408385031215612ee657600080fd5b825167ffffffffffffffff80821115612efe57600080fd5b612f0a86838701612dee565b93506020850151915080821115612f2057600080fd5b50612f2d85828601612dee565b9150509250929050565b60008351612f49818460208801612a7b565b6001600160801b0319939093169190920190815260100192915050565b60008251612f78818460208701612a7b565b9190910192915050565b600060208284031215612f9457600080fd5b5051919050565b60008351612fad818460208801612a7b565b9190910191825250602001919050565b608081526000612fd06080830187612aab565b8281036020840152612fe28187612aab565b90508281036040840152612ff68186612aab565b91505082606083015295945050505050565b634e487b7160e01b600052600160045260246000fdfea26469706673582212204c98ac4f477f06f69f4028fa9440dd9c691d20f120c69e574b4c9dd17f97219264736f6c634300080a0033",
            "0x608060405234801561001057600080fd5b50613616806100206000396000f3fe6080604052600436106102a25760003560e01c80635639671511610165578063a457c2d7116100cc578063d046815611610085578063d046815614610787578063d0e30db01461079c578063d4970524146107a4578063dd62ed3e146107ac578063efd60347146107cc578063f79c3f02146107d4578063fb5b82d0146107f4576102b2565b8063a457c2d7146106ea578063a9059cbb1461070a578063ac232bde1461072a578063bf15af561461073d578063c5eff3d014610752578063cc48cd3114610767576102b2565b80637adbf9731161011e5780637adbf97314610648578063833b1fce1461066857806386a92af71461067d57806387f2adfb1461069257806395d89b41146106a75780639b498e26146106d5576102b2565b8063563967151461059e57806358bf3c7f146105b35780636e9960c3146105d357806370a08231146105e8578063750521f514610608578063799a195414610628576102b2565b80631bcbfaba1161020957806336bf3325116101c257806336bf332514610502578063395093511461051f5780633af9e6691461053f57806346425ef01461055f5780635022820114610574578063540bc5ea14610589576102b2565b80631bcbfaba1461045c57806323b872dd14610471578063281a312214610491578063291206f6146104b15780632cb562e1146104d1578063313ce567146104e6576102b2565b80631311cf8d1161025b5780631311cf8d146103b057806313d86aed146103d0578063143a08d4146103f0578063147bf6c4146104055780631546962b1461042557806318160ddd14610447576102b2565b8063020f086e146102cb57806304843a17146102eb57806306fdde0314610313578063095ea7b3146103565780630e18b68114610386578063107d7fa01461039b576102b2565b366102b2576102b033610814565b005b60405163574b16a760e11b815260040160405180910390fd5b3480156102d757600080fd5b506102b06102e6366004612f96565b61089b565b3480156102f757600080fd5b5061030061091f565b6040519081526020015b60405180910390f35b34801561031f57600080fd5b50604080518082019091526011815270098d2e2ead2c840a6e8c2d6cac8408aa89607b1b60208201525b60405161030a9190613009565b34801561036257600080fd5b5061037661037136600461301c565b61092e565b604051901515815260200161030a565b34801561039257600080fd5b506102b0610944565b3480156103a757600080fd5b5061030061099b565b3480156103bc57600080fd5b506102b06103cb366004612f96565b6109a5565b3480156103dc57600080fd5b506102b06103eb366004613046565b610a20565b3480156103fc57600080fd5b50610300610bd9565b34801561041157600080fd5b506102b0610420366004612f96565b610be3565b34801561043157600080fd5b5061043a610c2a565b60405161030a919061305f565b34801561045357600080fd5b50610300610c34565b34801561046857600080fd5b50610300610c3e565b34801561047d57600080fd5b5061037661048c366004613073565b610c48565b34801561049d57600080fd5b506102b06104ac3660046130af565b610cfb565b3480156104bd57600080fd5b506102b06104cc366004613046565b610edd565b3480156104dd57600080fd5b5061043a610f58565b3480156104f257600080fd5b506040516012815260200161030a565b34801561050e57600080fd5b506103006801bc16d674ec80000081565b34801561052b57600080fd5b5061037661053a36600461301c565b610f62565b34801561054b57600080fd5b5061030061055a366004612f96565b610f83565b34801561056b57600080fd5b50610300610f9c565b34801561058057600080fd5b5061043a610fa6565b34801561059557600080fd5b50610300606081565b3480156105aa57600080fd5b50610300610fb0565b3480156105bf57600080fd5b506102b06105ce366004612f96565b610fba565b3480156105df57600080fd5b5061043a611035565b3480156105f457600080fd5b50610300610603366004612f96565b61103f565b34801561061457600080fd5b506102b06106233660046131b8565b61104a565b34801561063457600080fd5b50610300610643366004613046565b6110c6565b34801561065457600080fd5b506102b0610663366004612f96565b6110d1565b34801561067457600080fd5b5061043a61114c565b34801561068957600080fd5b50610349611156565b34801561069e57600080fd5b50610300611160565b3480156106b357600080fd5b50604080518082019091526005815264098e68aa8960db1b6020820152610349565b3480156106e157600080fd5b5061043a61116a565b3480156106f657600080fd5b5061037661070536600461301c565b611174565b34801561071657600080fd5b5061037661072536600461301c565b611190565b6102b0610738366004612f96565b61122f565b34801561074957600080fd5b50610300603081565b34801561075e57600080fd5b5061043a611241565b34801561077357600080fd5b506102b0610782366004613238565b61124b565b34801561079357600080fd5b5061043a61140b565b6102b0611415565b6102b061141e565b3480156107b857600080fd5b506103006107c736600461326a565b611459565b6102b061146c565b3480156107e057600080fd5b506103006107ef366004613046565b611474565b34801561080057600080fd5b506102b061080f366004612f96565b61147f565b34610832576040516395b66fe960e01b815260040160405180910390fd5b61084d3461083e6114fa565b61084891906132b3565b61152e565b610858338234611561565b6040513481526001600160a01b0382169033907f3bc57f469ad6d10d7723ea226cd22bd2b9e527def2b529f6ab44645a166895829060200160405180910390a350565b6108a36116fb565b6001600160a01b0316336001600160a01b0316146108df573360405163472511eb60e11b81526004016108d6919061305f565b60405180910390fd5b6108e881611705565b6040516001600160a01b038216907f67b26a33f305cc027b2d45b2f6f418793afcd3e22f7376afa7be068ce18604e890600090a250565b60006109296114fa565b905090565b600061093b33848461173c565b50600192915050565b61094c6117ab565b6001600160a01b0316336001600160a01b03161461097f573360405163472511eb60e11b81526004016108d6919061305f565b61098f61098a6117ab565b6117b5565b61099960006117fe565b565b600061092961183e565b6109ad6116fb565b6001600160a01b0316336001600160a01b0316146109e0573360405163472511eb60e11b81526004016108d6919061305f565b6109e98161186e565b6040516001600160a01b038216907f1da4c245099590dc40be61880c9b97792f3694d970acc1e67ac0e6cc90f3780d90600090a250565b610a286118a5565b6001600160a01b0316336001600160a01b031614610a5b573360405163472511eb60e11b81526004016108d6919061305f565b6000610a656114fa565b90506000610a85610a7f6801bc16d674ec800000846132cb565b846118af565b905080610aa557604051631036b5ad60e31b815260040160405180910390fd5b600080610ab1836118c4565b8151919350915080610ad65760405163200149ad60e21b815260040160405180910390fd5b83811115610af757604051635993bd5760e01b815260040160405180910390fd5b8151818114610b19576040516322e5ce4360e21b815260040160405180910390fd5b6000610b2361194c565b905080610b4357604051639be7315960e01b815260040160405180910390fd5b60005b83811015610b9357610b8b868281518110610b6357610b636132ed565b6020026020010151868381518110610b7d57610b7d6132ed565b60200260200101518461197c565b600101610b46565b50610bb4610baa846801bc16d674ec800000613303565b6108489089613322565b610bcf83610bc0611e04565b610bca91906132b3565b611e34565b5050505050505050565b6000610929611e62565b610beb6116fb565b6001600160a01b0316336001600160a01b031614610c1e573360405163472511eb60e11b81526004016108d6919061305f565b610c27816117fe565b50565b6000610929611edc565b6000610929611f0c565b6000610929611f16565b60008383610c568282611f46565b8380610c75576040516336b216db60e21b815260040160405180910390fd5b868580610c8183612072565b1015610ca0576040516351940b3960e11b815260040160405180910390fd5b6001600160a01b038816610cd957604051637617407560e11b81526001600160a01b038a166004820152600060248201526044016108d6565b610ce3898861207d565b610cee8989896120e3565b9998505050505050505050565b6000610d05612171565b8114610d365780610d14612171565b604051631cfd276760e31b8152600481019290925260248201526044016108d6565b610d49610d448260016132b3565b6121a1565b610d52866117b5565b610d5b836121cf565b6040516001600160a01b038416907f0cc5437d7c9c1d9eab549acbb533eea3e9868e9443dd75309ed5820b33a3774e90600090a2610d9882612206565b6040518281527fbd533e726baaf59b36f3914d950053f7e78f527057c97cd3f0043257fc0fc8849060200160405180910390a1610dd48961186e565b6040516001600160a01b038a16907f1da4c245099590dc40be61880c9b97792f3694d970acc1e67ac0e6cc90f3780d90600090a2610e118561223d565b6040516001600160a01b038616907f30f015a5d3c72c0a9414538199baa022323a483fa9e4ba2cd581596cf8ca042490600090a2610e4e84612274565b6040516001600160a01b038516907fffc0721ef0563a1b0a51a0dc92113025f33ca434ada9ee3eebff2f385d2a8f9a90600090a2610e8c8a896122ab565b610e958761110c565b7f1809e49bba43f2d39fa57894b50cd6ccb428cc438230e065cac3eb24a1355a7181600036604051610ec993929190613339565b60405180910390a150505050505050505050565b610ee56116fb565b6001600160a01b0316336001600160a01b031614610f18573360405163472511eb60e11b81526004016108d6919061305f565b610f2181612206565b6040518181527fbd533e726baaf59b36f3914d950053f7e78f527057c97cd3f0043257fc0fc884906020015b60405180910390a150565b6000610929612327565b600061093b338484610f743388612357565b610f7e91906132b3565b61173c565b6000610f96610f91836123af565b6123fd565b92915050565b6000610929612435565b6000610929612465565b600061092961194c565b610fc26116fb565b6001600160a01b0316336001600160a01b031614610ff5573360405163472511eb60e11b81526004016108d6919061305f565b610ffe8161223d565b6040516001600160a01b038216907f30f015a5d3c72c0a9414538199baa022323a483fa9e4ba2cd581596cf8ca042490600090a250565b60006109296116fb565b6000610f9682612072565b6110526116fb565b6001600160a01b0316336001600160a01b031614611085573360405163472511eb60e11b81526004016108d6919061305f565b61108e81612495565b611097816124b4565b7f8d2df192dd17edf92a7964b78aa322f3d717b2ab9de00651bee32bbc4c5da63a81604051610f4d9190613009565b6000610f96826124fe565b6110d96118a5565b6001600160a01b0316336001600160a01b03161461110c573360405163472511eb60e11b81526004016108d6919061305f565b6111158161252b565b6040516001600160a01b038216907fd3b5d1e0ffaeff528910f3663f0adace7694ab8241d58e17a91351ced2e0803190600090a250565b6000610929612562565b6060610929612592565b6000610929611e04565b6000610929612658565b600061093b3384846111863388612357565b610f7e9190613322565b6000338361119e8282611f46565b83806111bd576040516336b216db60e21b815260040160405180910390fd5b3385806111c983612072565b10156111e8576040516351940b3960e11b815260040160405180910390fd5b6001600160a01b03881661121857604051637617407560e11b8152336004820152600060248201526044016108d6565b6112233389896120e3565b98975050505050505050565b61123881612688565b610c2781610814565b60006109296126af565b611253612562565b6001600160a01b0316336001600160a01b031614611286573360405163472511eb60e11b81526004016108d6919061305f565b61128e611e04565b8411156112c0578361129e611e04565b6040516376179ac560e01b8152600481019290925260248201526044016108d6565b60006112ca61183e565b6112d49086613322565b905060006112eb826801bc16d674ec800000613303565b6112f3612435565b6112fd91906132b3565b9050611308856126df565b6113118661270d565b61131a8461273b565b60008561132783866132b3565b111561134d5761134a8661133b84876132b3565b6113459190613322565b612769565b90505b858161135984876132b3565b6113639190613322565b111561139357611391868261137885886132b3565b6113829190613322565b61138c9190613322565b612832565b505b61139d81876132b3565b8210156113c1576113c1826113b283896132b3565b6113bc9190613322565b612904565b60408051888152602081018890529081018690527f25d7358447891786a139ae7149548f3232a8c95f2ea6065c69c5bd7c39cd386c9060600160405180910390a150505050505050565b60006109296117ab565b61099933610814565b611426611edc565b6001600160a01b0316336001600160a01b031614610999573360405163472511eb60e11b81526004016108d6919061305f565b60006114658383612357565b9392505050565b611426612327565b6000610f96826123fd565b6114876116fb565b6001600160a01b0316336001600160a01b0316146114ba573360405163472511eb60e11b81526004016108d6919061305f565b6114c3816121cf565b6040516001600160a01b038216907f0cc5437d7c9c1d9eab549acbb533eea3e9868e9443dd75309ed5820b33a3774e90600090a250565b600061092961152a60017f2b6136e423ab70d76431e2a635e877e16ea2dd9a895e054ad7f35f89d6c7b711613322565b5490565b610c2761155c60017f2b6136e423ab70d76431e2a635e877e16ea2dd9a895e054ad7f35f89d6c7b711613322565b829055565b600061156d8483612a36565b905060006115796126af565b9050836001600160a01b0316856001600160a01b031614156115fa57604051632d20488160e11b81526001600160a01b03868116600483015260016024830152821690635a4091029060440160006040518083038186803b1580156115dd57600080fd5b505afa1580156115f1573d6000803e3d6000fd5b505050506116f4565b604051632d20488160e11b81526001600160a01b03868116600483015260016024830152821690635a4091029060440160006040518083038186803b15801561164257600080fd5b505afa158015611656573d6000803e3d6000fd5b505060405163e838dfbb60e01b81526001600160a01b038416925063e838dfbb915061168690879060040161305f565b602060405180830381865afa1580156116a3573d6000803e3d6000fd5b505050506040513d601f19601f820116820180604052508101906116c7919061336f565b156116e7578360405163e7d05e2760e01b81526004016108d6919061305f565b6116f28585846120e3565b505b5050505050565b6000610929612a95565b61170e81612688565b610c2761155c60017ff4271262f3552a4108cde54dc75061de8de495709221d793b126e448522d6a80613322565b61174583612688565b61174e82612688565b611759838383612ac5565b816001600160a01b0316836001600160a01b03167f8c5be1e5ebec7d5bd14f71427d1e84f3dd0314c0f7b2291e5b200ac8c7c3b9258360405161179e91815260200190565b60405180910390a3505050565b6000610929612b1c565b6117be81612688565b6117c781612b4c565b6040516001600160a01b038216907f5a272403b402d892977df56625f4164ccaf70ca3863991c43ecfe76a6905b0a190600090a250565b61180781612b55565b6040516001600160a01b038216907f2a0f8515de3fa34ef68b99300347b8793c01683350743e96fe440594528298f490600090a250565b600061092961152a60017f0f1e7733641e4d843128fea0d2ec90d3d06a40b0fe244ff603d8c1aa200dc0f9613322565b61187781612688565b610c2761155c60017f8e9e2a1d30fed357d8a000c1131fc77ed65d2052918caf1ccc6eb1e7af3d13b6613322565b6000610929611035565b60008183116118be5782611465565b50919050565b6060806118cf612658565b6001600160a01b031663a1947323846040518263ffffffff1660e01b81526004016118fc91815260200190565b6000604051808303816000875af115801561191b573d6000803e3d6000fd5b505050506040513d6000823e601f3d908101601f191682016040526119439190810190613460565b91509150915091565b600061092961152a60017fb649e50315f962b32d487e696a81b4828631b11f8424daaaa37e9e97766a2c42613322565b603083511461199e5760405163050cb55360e41b815260040160405180910390fd5b60608251146119c05760405163408ebd3960e01b815260040160405180910390fd5b6801bc16d674ec80000060006119da633b9aca00836132cb565b90506000600286600060801b6040516020016119f79291906134c4565b60408051601f1981840301815290829052611a11916134f3565b602060405180830381855afa158015611a2e573d6000803e3d6000fd5b5050506040513d601f19601f82011682018060405250810190611a51919061350f565b90506000600280611a658860006040612b5e565b604051611a7291906134f3565b602060405180830381855afa158015611a8f573d6000803e3d6000fd5b5050506040513d601f19601f82011682018060405250810190611ab2919061350f565b6002611aca896040611ac5816060613322565b612b5e565b604051611add9190600090602001613528565b60408051601f1981840301815290829052611af7916134f3565b602060405180830381855afa158015611b14573d6000803e3d6000fd5b5050506040513d601f19601f82011682018060405250810190611b37919061350f565b60408051602081019390935282015260600160408051601f1981840301815290829052611b63916134f3565b602060405180830381855afa158015611b80573d6000803e3d6000fd5b5050506040513d601f19601f82011682018060405250810190611ba3919061350f565b905060006002808488604051602001611bc6929190918252602082015260400190565b60408051601f1981840301815290829052611be0916134f3565b602060405180830381855afa158015611bfd573d6000803e3d6000fd5b5050506040513d601f19601f82011682018060405250810190611c20919061350f565b6002611c2b87612c21565b604080516020810192909252810186905260600160408051601f1981840301815290829052611c59916134f3565b602060405180830381855afa158015611c76573d6000803e3d6000fd5b5050506040513d601f19601f82011682018060405250810190611c99919061350f565b60408051602081019390935282015260600160408051601f1981840301815290829052611cc5916134f3565b602060405180830381855afa158015611ce2573d6000803e3d6000fd5b5050506040513d601f19601f82011682018060405250810190611d05919061350f565b90506000611d138647613322565b9050611d1d612c8e565b6001600160a01b03166322895118878b8a604051602001611d4091815260200190565b6040516020818303038152906040528c876040518663ffffffff1660e01b8152600401611d70949392919061354a565b6000604051808303818588803b158015611d8957600080fd5b505af1158015611d9d573d6000803e3d6000fd5b5050505050804714611dc257604051638051a6bb60e01b815260040160405180910390fd5b7f11553d182c6d24df901ccbb837d640c1ee9994876a88dccc8ddfd7ebab9b6ce189604051611df19190613009565b60405180910390a1505050505050505050565b600061092961152a60017fc77078e3530c08cdb2440817c81de4836500b4708ea4d15672b7fe98956423a8613322565b610c2761155c60017fc77078e3530c08cdb2440817c81de4836500b4708ea4d15672b7fe98956423a8613322565b600080611e6d61183e565b90506000611e79611e04565b905080821015611ecc576801bc16d674ec800000611e978383613322565b611ea19190613303565b611ea96114fa565b611eb1612435565b611ebb91906132b3565b611ec591906132b3565b9250505090565b611ed46114fa565b611ebb612435565b600061092961152a60017ff4271262f3552a4108cde54dc75061de8de495709221d793b126e448522d6a80613322565b6000610929612cbe565b600061092961152a60017f094efef62d2ce60c14ffacd35a1b50546d3a9d503aff1df040176fffd6c92a37613322565b6000611f506126af565b60405163e838dfbb60e01b81529091506001600160a01b0382169063e838dfbb90611f7f90869060040161305f565b602060405180830381865afa158015611f9c573d6000803e3d6000fd5b505050506040513d601f19601f82011682018060405250810190611fc0919061336f565b15611fe0578260405163e7d05e2760e01b81526004016108d6919061305f565b60405163e838dfbb60e01b81526001600160a01b0382169063e838dfbb9061200c90859060040161305f565b602060405180830381865afa158015612029573d6000803e3d6000fd5b505050506040513d601f19601f8201168201806040525081019061204d919061336f565b1561206d578160405163e7d05e2760e01b81526004016108d6919061305f565b505050565b6000610f96826123af565b60006120898333612357565b9050818110156120cb57604051637b936de360e01b81526001600160a01b038416600482015233602482015260448101829052606481018390526084016108d6565b600019811461206d5761206d8333610f7e8585613322565b600061210284836120f3876123af565b6120fd9190613322565b612cee565b61211a8383612110866123af565b6120fd91906132b3565b826001600160a01b0316846001600160a01b03167fddf252ad1be2c89b69c2b068fc378daa952ba7f163c4a11628f55a4df523b3ef8460405161215f91815260200190565b60405180910390a35060019392505050565b600061092961152a60017f82055909238c0f5e63d6f174068ebb8f51bcec9bd37de63bb68f6551feec0cfd613322565b610c2761155c60017f82055909238c0f5e63d6f174068ebb8f51bcec9bd37de63bb68f6551feec0cfd613322565b6121d881612688565b610c2761155c60017f082b6d18de7b10e438e6b1002141db737519cb4ceed679bc815e3aac00cd2227613322565b61220f81612d3a565b610c2761155c60017f094efef62d2ce60c14ffacd35a1b50546d3a9d503aff1df040176fffd6c92a37613322565b61224681612688565b610c2761155c60017f867d8f1a5e39d11d5bebde854d5359a509530ad32450f581da63c06ec8d1a780613322565b61227d81612688565b610c2761155c60017f3f075dea7ef99b1e5db245018e5e4ed8d2a0d93953f5932b2176bef59bd69061613322565b6122b482612d5d565b6040516001600160a01b038316907e043cf7635f276413ae358250286a479a631abd9d74d57d4aa0bb87ebc7d11790600090a26122f081612d94565b6040518181527f4c86ba184ea1a1558f84835ca34f6d67e222e8ee5cc4f324b8861dda4cf1740c9060200160405180910390a15050565b600061092961152a60017f8e9e2a1d30fed357d8a000c1131fc77ed65d2052918caf1ccc6eb1e7af3d13b6613322565b60008061238560017fc852254d5b703a16bb13b3e233a335d6459c5da5db0ca732d7a684ee05407847613322565b6001600160a01b039485166000908152602091825260408082209590961681529390525050205490565b6000806123dd60017f0fb4a5ac9287f4f508aa7253ee2d57c6a228b1b30e210d73fffd59389d3a8838613322565b6001600160a01b0390931660009081526020939093525050604090205490565b600080612408612cbe565b9050806124185750600092915050565b80612421611e62565b61242b9085613303565b61146591906132cb565b600061092961152a60017ffedfd2c285a57fb23bf45a3fe9ac02d36a76ebb72801b1c8aaf553d74e9d4653613322565b600061092961152a60017f082b6d18de7b10e438e6b1002141db737519cb4ceed679bc815e3aac00cd2227613322565b8051610c2757604051638d46fe0560e01b815260040160405180910390fd5b60006124e160017fb63f3482ec84cb93d74a71645ad2e9e896fa02723e42170b4aad20a4bed6cdd6613322565b825190915081906124f89082906020860190612ee1565b50505050565b600080612509612cbe565b9050806125195750600092915050565b612521611e62565b61242b8285613303565b61253481612688565b610c2761155c60017fc8cbea9407c380ae944f052b5a442330057683c5abdbd453493f9750806afecb613322565b600061092961152a60017fc8cbea9407c380ae944f052b5a442330057683c5abdbd453493f9750806afecb613322565b606060006125c160017fb63f3482ec84cb93d74a71645ad2e9e896fa02723e42170b4aad20a4bed6cdd6613322565b8054909150819081906125d390613595565b80601f01602080910402602001604051908101604052809291908181526020018280546125ff90613595565b801561264c5780601f106126215761010080835404028352916020019161264c565b820191906000526020600020905b81548152906001019060200180831161262f57829003601f168201915b50505050509250505090565b600061092961152a60017f3f075dea7ef99b1e5db245018e5e4ed8d2a0d93953f5932b2176bef59bd69061613322565b6001600160a01b038116610c275760405163f6b2911f60e01b815260040160405180910390fd5b600061092961152a60017f867d8f1a5e39d11d5bebde854d5359a509530ad32450f581da63c06ec8d1a780613322565b610c2761155c60017ffedfd2c285a57fb23bf45a3fe9ac02d36a76ebb72801b1c8aaf553d74e9d4653613322565b610c2761155c60017f0f1e7733641e4d843128fea0d2ec90d3d06a40b0fe244ff603d8c1aa200dc0f9613322565b610c2761155c60017fd7f2d45e512a86049f7a113657b39731b6b558609584243063a52cd31a8eb529613322565b600080612774612327565b60405163c8a6dfd360e01b81526004810185905290915047906001600160a01b0383169063c8a6dfd390602401600060405180830381600087803b1580156127bb57600080fd5b505af11580156127cf573d6000803e3d6000fd5b50505050600081476127e19190613322565b9050801561282a576127f58161083e6114fa565b6040518181527fda841d3042d792e2509a333b9dcbd4b3dd9b9047d382011f8788fab90ca7e3c7906020015b60405180910390a15b949350505050565b60008061283d611edc565b90506001600160a01b0381166128565750600092915050565b604051638ede6b6b60e01b81526004810184905247906001600160a01b03831690638ede6b6b90602401600060405180830381600087803b15801561289a57600080fd5b505af11580156128ae573d6000803e3d6000fd5b50505050600081476128c09190613322565b9050801561282a576128d48161083e6114fa565b6040518181527fd500b67e5bd8019c0af744cadeec120d1b5e3d3a3a011f18cf182aa4c97947b690602001612821565b600061290e611f0c565b90508061292e57604051630d35acd760e21b815260040160405180910390fd5b6000612938611e62565b90506000612944611f16565b90506000816129538587613303565b61295d9190613303565b9050600061296b8387613303565b61297761271086613303565b6129819190613322565b90506000811561299a5761299582846132cb565b61299d565b60005b90508015612a2d5760006129af612465565b90506129bb8183612de0565b60006129c5611f0c565b905060006129d38a89613322565b60408051828152602081018c90529081018a9052606081018490529091506001600160a01b038416907f3d1669e813a9845c288f0e1f642a4343a451103b87886d12de37e63b39bbd9429060800160405180910390a25050505b50505050505050565b60008082612a42611e62565b612a4c9190613322565b905080612a6557829150612a608484612de0565b612a8e565b80612a6e611f0c565b612a789085613303565b612a8291906132cb565b9150612a8e8483612de0565b5092915050565b600061092961152a60017fb5b37715a3e346e996104f0086703f19825def429233930fd9399c38e05fb113613322565b6000612af260017fc852254d5b703a16bb13b3e233a335d6459c5da5db0ca732d7a684ee05407847613322565b6001600160a01b039485166000908152602091825260408082209590961681529390525091902055565b600061092961152a60017f6e6ab8b7c7aaba79eef8cc633522d606bb008c101cf9832c9ad05d10a9847281613322565b610c2781612e4e565b610c2781612e85565b60608182601f011015612b84576040516323d5783d60e11b815260040160405180910390fd5b612b8e82846132b3565b84511015612baf57604051633b99b53d60e01b815260040160405180910390fd5b606082158015612bce5760405191506000825260208201604052612c18565b6040519150601f8416801560200281840101858101878315602002848b0101015b81831015612c07578051835260209283019201612bef565b5050858452601f01601f1916604052505b50949350505050565b603881901c60ff908116603083901c8216602884901c8316602085901c8416601886901c8516601087901c8616600888811c9790971688881b61ff001617871b17861b17851b17841b17831b1790911b17604082901c8015612c8557612c856135ca565b5060c01b919050565b600061092961152a60017f35efb61d8784060218d9d6aa40eae55904de43779c1afc79c74dfefcfdf91260613322565b600061092961152a60017f6b842b424335d94ccad97e54548dfa02673c1268aba38d3c3c32d28c8988b70b613322565b6000612d1b60017f0fb4a5ac9287f4f508aa7253ee2d57c6a228b1b30e210d73fffd59389d3a8838613322565b6001600160a01b03909316600090815260209390935250604090912055565b612710811115610c27576040516358d620b360e01b815260040160405180910390fd5b612d6681612688565b610c2761155c60017f35efb61d8784060218d9d6aa40eae55904de43779c1afc79c74dfefcfdf91260613322565b80612db25760405163a9cb9e0d60e01b815260040160405180910390fd5b610c2761155c60017fb649e50315f962b32d487e696a81b4828631b11f8424daaaa37e9e97766a2c42613322565b612dfb81612dec612cbe565b612df691906132b3565b612eb3565b612e098282612110856123af565b6040518181526001600160a01b038316906000907fddf252ad1be2c89b69c2b068fc378daa952ba7f163c4a11628f55a4df523b3ef9060200160405180910390a35050565b612e5781612688565b610c2761155c60017fb5b37715a3e346e996104f0086703f19825def429233930fd9399c38e05fb113613322565b610c2761155c60017f6e6ab8b7c7aaba79eef8cc633522d606bb008c101cf9832c9ad05d10a9847281613322565b610c2761155c60017f6b842b424335d94ccad97e54548dfa02673c1268aba38d3c3c32d28c8988b70b613322565b828054612eed90613595565b90600052602060002090601f016020900481019282612f0f5760008555612f55565b82601f10612f2857805160ff1916838001178555612f55565b82800160010185558215612f55579182015b82811115612f55578251825591602001919060010190612f3a565b50612f61929150612f65565b5090565b5b80821115612f615760008155600101612f66565b80356001600160a01b0381168114612f9157600080fd5b919050565b600060208284031215612fa857600080fd5b61146582612f7a565b60005b83811015612fcc578181015183820152602001612fb4565b838111156124f85750506000910152565b60008151808452612ff5816020860160208601612fb1565b601f01601f19169290920160200192915050565b6020815260006114656020830184612fdd565b6000806040838503121561302f57600080fd5b61303883612f7a565b946020939093013593505050565b60006020828403121561305857600080fd5b5035919050565b6001600160a01b0391909116815260200190565b60008060006060848603121561308857600080fd5b61309184612f7a565b925061309f60208501612f7a565b9150604084013590509250925092565b60008060008060008060008060006101208a8c0312156130ce57600080fd5b6130d78a612f7a565b98506130e560208b01612f7a565b975060408a013596506130fa60608b01612f7a565b955061310860808b01612f7a565b945061311660a08b01612f7a565b935061312460c08b01612f7a565b925061313260e08b01612f7a565b91506101008a013590509295985092959850929598565b634e487b7160e01b600052604160045260246000fd5b604051601f8201601f1916810167ffffffffffffffff8111828210171561318857613188613149565b604052919050565b600067ffffffffffffffff8211156131aa576131aa613149565b50601f01601f191660200190565b6000602082840312156131ca57600080fd5b813567ffffffffffffffff8111156131e157600080fd5b8201601f810184136131f257600080fd5b803561320561320082613190565b61315f565b81815285602083850101111561321a57600080fd5b81602084016020830137600091810160200191909152949350505050565b6000806000806080858703121561324e57600080fd5b5050823594602084013594506040840135936060013592509050565b6000806040838503121561327d57600080fd5b61328683612f7a565b915061329460208401612f7a565b90509250929050565b634e487b7160e01b600052601160045260246000fd5b600082198211156132c6576132c661329d565b500190565b6000826132e857634e487b7160e01b600052601260045260246000fd5b500490565b634e487b7160e01b600052603260045260246000fd5b600081600019048311821515161561331d5761331d61329d565b500290565b6000828210156133345761333461329d565b500390565b83815260406020820152816040820152818360608301376000818301606090810191909152601f909201601f1916010192915050565b60006020828403121561338157600080fd5b8151801515811461146557600080fd5b600082601f8301126133a257600080fd5b8151602067ffffffffffffffff808311156133bf576133bf613149565b8260051b6133ce83820161315f565b93845285810183019383810190888611156133e857600080fd5b84880192505b85831015611223578251848111156134065760008081fd5b8801603f81018a136134185760008081fd5b85810151604061342a61320083613190565b8281528c8284860101111561343f5760008081fd5b61344e838a8301848701612fb1565b855250505091840191908401906133ee565b6000806040838503121561347357600080fd5b825167ffffffffffffffff8082111561348b57600080fd5b61349786838701613391565b935060208501519150808211156134ad57600080fd5b506134ba85828601613391565b9150509250929050565b600083516134d6818460208801612fb1565b6001600160801b0319939093169190920190815260100192915050565b60008251613505818460208701612fb1565b9190910192915050565b60006020828403121561352157600080fd5b5051919050565b6000835161353a818460208801612fb1565b9190910191825250602001919050565b60808152600061355d6080830187612fdd565b828103602084015261356f8187612fdd565b905082810360408401526135838186612fdd565b91505082606083015295945050505050565b600181811c908216806135a957607f821691505b602082108114156118be57634e487b7160e01b600052602260045260246000fd5b634e487b7160e01b600052600160045260246000fdfea2646970667358221220970321c783abf715e67020d8e4b80f54819b7eacd341ba3f4ceafe86e46d3bd764736f6c634300080a0033",
            "0x60806040523480156200001157600080fd5b506200002a6000196200007060201b620024b61760201c565b7f1809e49bba43f2d39fa57894b50cd6ccb428cc438230e065cac3eb24a1355a716000196000366040516200006293929190620000bd565b60405180910390a162000119565b620000b6620000a160017f82055909238c0f5e63d6f174068ebb8f51bcec9bd37de63bb68f6551feec0cfd620000f3565b60001b82620000b960201b620024e91760201c565b50565b9055565b83815260406020820152816040820152818360608301376000818301606090810191909152601f909201601f1916010192915050565b6000828210156200011457634e487b7160e01b600052601160045260246000fd5b500390565b615fbd80620001296000396000f3fe6080604052600436106103ba5760003560e01c80635d95e801116101f9578063a29a839f1161011e578063d4970524116100b6578063efd668461161007a578063efd6684614610c07578063f79c3f0214610c27578063f9f95a9014610c47578063fb5b82d014610c67578063fe7c12ae14610c87576103ca565b8063d497052414610b9b578063d7f8f47414610790578063dd62ed3e14610ba3578063e3a88e6114610bc3578063efd6034714610bff576103ca565b8063a29a839f14610acc578063a457c2d714610ae1578063a9059cbb14610b01578063ac232bde14610b21578063bb6583ec14610b34578063bf15af5614610b54578063c5eff3d014610b69578063d046815614610b7e578063d0e30db014610b93576103ca565b80637adbf973116101915780637adbf973146109b8578063833b1fce146109d857806386a92af7146109ed57806387f2adfb14610a0257806389896aef14610a175780639332525d14610a2c57806395d89b4114610a595780639b498e2614610a875780639d49cca114610a9c576103ca565b80635d95e801146108a95780635f2e5f07146108b157806363f62aaf146108de5780636e9960c3146108f357806370a082311461090857806372f79b1314610928578063750521f51461095857806378a010e814610978578063799a195414610998576103ca565b806323b872dd116102df5780633af9e669116102775780633af9e669146107cd57806346425ef0146107ed5780634b47b74f146108025780635022820114610817578063540bc5ea1461082c578063557ed1ba14610841578063563967151461085457806357fa85471461086957806358bf3c7f14610889576103ca565b806323b872dd14610686578063281a3122146106a6578063291206f6146106c65780632cb562e1146106e65780632d6b59bf146106fb5780632dc5c97c14610710578063313ce5671461077457806336bf33251461079057806339509351146107ad576103ca565b80631311cf8d116103525780631311cf8d1461052557806313d86aed14610545578063143a08d414610565578063147bf6c41461057a5780631546962b1461059a57806315ca4cee146105bc57806317e64858146105dc57806318160ddd1461065c5780631bcbfaba14610671576103ca565b8063020f086e146103e35780630407de471461040357806304843a1714610423578063056850c61461044b57806306fdde0314610453578063095ea7b3146104965780630e18b681146104c6578063107703ab146104db578063107d7fa014610510576103ca565b366103ca576103c833610c9c565b005b60405163574b16a760e11b815260040160405180910390fd5b3480156103ef57600080fd5b506103c86103fe366004615051565b610d23565b34801561040f57600080fd5b506103c861041e36600461509a565b610da7565b34801561042f57600080fd5b50610438610ec9565b6040519081526020015b60405180910390f35b6103c8610ed8565b34801561045f57600080fd5b50604080518082019091526011815270098d2e2ead2c840a6e8c2d6cac8408aa89607b1b60208201525b604051610442919061519e565b3480156104a257600080fd5b506104b66104b13660046151b1565b610f15565b6040519015158152602001610442565b3480156104d257600080fd5b506103c8610f2b565b3480156104e757600080fd5b506104fb6104f63660046151db565b610f80565b60405163ffffffff9091168152602001610442565b34801561051c57600080fd5b50610438611078565b34801561053157600080fd5b506103c8610540366004615051565b611091565b34801561055157600080fd5b506103c8610560366004615207565b61110c565b34801561057157600080fd5b506104386112b4565b34801561058657600080fd5b506103c8610595366004615051565b6112be565b3480156105a657600080fd5b506105af611305565b6040516104429190615220565b3480156105c857600080fd5b506103c86105d7366004615234565b61130f565b3480156105e857600080fd5b506105f16113a2565b6040516104429190600061010082019050825182526020830151602083015260408301516040830152606083015160608301526080830151608083015263ffffffff60a08401511660a083015260c0830151151560c083015260e0830151151560e083015292915050565b34801561066857600080fd5b50610438611425565b34801561067d57600080fd5b5061043861142f565b34801561069257600080fd5b506104b66106a1366004615246565b611439565b3480156106b257600080fd5b506103c86106c1366004615282565b6114ec565b3480156106d257600080fd5b506103c86106e1366004615207565b6116a7565b3480156106f257600080fd5b506105af61171b565b34801561070757600080fd5b50610438611725565b34801561071c57600080fd5b5061072561172f565b604051610442919081516001600160401b039081168252602080840151821690830152604080840151821690830152606080840151821690830152608092830151169181019190915260a00190565b34801561078057600080fd5b5060405160128152602001610442565b34801561079c57600080fd5b506104386801bc16d674ec80000081565b3480156107b957600080fd5b506104b66107c83660046151b1565b61173f565b3480156107d957600080fd5b506104386107e8366004615051565b611760565b3480156107f957600080fd5b50610438611779565b34801561080e57600080fd5b5061043861178c565b34801561082357600080fd5b506105af6117f5565b34801561083857600080fd5b50610438606081565b34801561084d57600080fd5b5042610438565b34801561086057600080fd5b506104386117ff565b34801561087557600080fd5b50610438610884366004615207565b611809565b34801561089557600080fd5b506103c86108a4366004615051565b611831565b6103c86118ac565b3480156108bd57600080fd5b506108d16108cc366004615367565b6118b4565b60405161044291906153a8565b3480156108ea57600080fd5b506105af611930565b3480156108ff57600080fd5b506105af61193a565b34801561091457600080fd5b50610438610923366004615051565b611944565b34801561093457600080fd5b5061093d61194f565b60408051938452602084019290925290820152606001610442565b34801561096457600080fd5b506103c8610973366004615484565b611a1f565b34801561098457600080fd5b506103c8610993366004615503565b611a9b565b3480156109a457600080fd5b506104386109b3366004615207565b611b6c565b3480156109c457600080fd5b506103c86109d3366004615051565b611b77565b3480156109e457600080fd5b506105af611bf2565b3480156109f957600080fd5b50610489611bfc565b348015610a0e57600080fd5b50610438611c06565b348015610a2357600080fd5b50610438611c10565b348015610a3857600080fd5b50610a4c610a47366004615515565b611c20565b6040516104429190615580565b348015610a6557600080fd5b50604080518082019091526005815264098e68aa8960db1b6020820152610489565b348015610a9357600080fd5b506105af611cb2565b348015610aa857600080fd5b50610ab1611cbc565b60408051825181526020928301519281019290925201610442565b348015610ad857600080fd5b50610438611cd8565b348015610aed57600080fd5b506104b6610afc3660046151b1565b611cea565b348015610b0d57600080fd5b506104b6610b1c3660046151b1565b611d06565b6103c8610b2f366004615051565b611da5565b348015610b4057600080fd5b506103c8610b4f3660046155bb565b611db7565b348015610b6057600080fd5b50610438603081565b348015610b7557600080fd5b506105af611dfb565b348015610b8a57600080fd5b506105af611e05565b6103c8611e0f565b6103c8611e18565b348015610baf57600080fd5b50610438610bbe3660046155f8565b611e20565b348015610bcf57600080fd5b50610bd8611e2c565b6040805182516001600160801b039081168252602093840151169281019290925201610442565b6103c8611e48565b348015610c1357600080fd5b506103c8610c22366004615622565b611e50565b348015610c3357600080fd5b50610438610c42366004615207565b612413565b348015610c5357600080fd5b506104b6610c62366004615207565b61241e565b348015610c7357600080fd5b506103c8610c82366004615051565b612431565b348015610c9357600080fd5b506104386124ac565b34610cba576040516395b66fe960e01b815260040160405180910390fd5b610cd534610cc66124ed565b610cd09190615673565b612521565b610ce033823461256a565b6040513481526001600160a01b0382169033907f3bc57f469ad6d10d7723ea226cd22bd2b9e527def2b529f6ab44645a166895829060200160405180910390a350565b610d2b612702565b6001600160a01b0316336001600160a01b031614610d67573360405163472511eb60e11b8152600401610d5e9190615220565b60405180910390fd5b610d708161270c565b6040516001600160a01b038216907f67b26a33f305cc027b2d45b2f6f418793afcd3e22f7376afa7be068ce18604e890600090a250565b6001610db1612743565b8114610de25780610dc0612743565b604051631cfd276760e31b815260048101929092526024820152604401610d5e565b610df5610df0826001615673565b6124b6565b610dfe8b612773565b7faf890c07e266df31e0725841eb0e85596a0caa1b17bbae5c0b206fdcc92d7ce18b604051610e2d9190615220565b60405180910390a1610e646040518060400160405280856001600160801b03168152602001846001600160801b03168152506127aa565b610e738a8a8a8a8a8a8a6127fe565b610e80308c600019612957565b7f1809e49bba43f2d39fa57894b50cd6ccb428cc438230e065cac3eb24a1355a7181600036604051610eb49392919061568b565b60405180910390a15050505050505050505050565b6000610ed36124ed565b905090565b610ee06129c6565b6001600160a01b0316336001600160a01b031614610f13573360405163472511eb60e11b8152600401610d5e9190615220565b565b6000610f22338484612957565b50600192915050565b610f336129f6565b6001600160a01b0316336001600160a01b031614610f66573360405163472511eb60e11b8152600401610d5e9190615220565b610f76610f716129f6565b612a00565b610f136000612a49565b6000610f8a612a89565b6001600160a01b0316635a4091023360046040518363ffffffff1660e01b8152600401610fb89291906156c1565b60006040518083038186803b158015610fd057600080fd5b505afa158015610fe4573d6000803e3d6000fd5b50505050610ff3333085612ab9565b50610ffc6129c6565b60405163107703ab60e01b8152600481018590526001600160a01b038481166024830152919091169063107703ab906044016020604051808303816000875af115801561104d573d6000803e3d6000fd5b505050506040513d601f19601f8201168201806040525081019061107191906156ec565b9392505050565b6000611082612b35565b6005015463ffffffff16919050565b611099612702565b6001600160a01b0316336001600160a01b0316146110cc573360405163472511eb60e11b8152600401610d5e9190615220565b6110d581612b63565b6040516001600160a01b038216907f1da4c245099590dc40be61880c9b97792f3694d970acc1e67ac0e6cc90f3780d90600090a250565b6000611116612b9a565b905060006111366111306801bc16d674ec8000008461571f565b84612bca565b90508061115657604051631036b5ad60e31b815260040160405180910390fd5b60008061116283612bdf565b81519193509150806111875760405163200149ad60e21b815260040160405180910390fd5b838111156111a857604051635993bd5760e01b815260040160405180910390fd5b60006111b2612c67565b9050806111d257604051639be7315960e01b815260040160405180910390fd5b60005b828110156112225761121a8582815181106111f2576111f2615733565b602002602001015185838151811061120c5761120c615733565b602002602001015184612c97565b6001016111d5565b50611248611239836801bc16d674ec800000615749565b6112439088615768565b6130e8565b6000611252613131565b90506112666112618483615673565b613161565b7f220ab8fd274cf58c09b0825ccf00e74ba4ce4117fd47285adc2183a635838f1b816112928582615673565b6040805192835260208301919091520160405180910390a15050505050505050565b6000610ed361318f565b6112c6612702565b6001600160a01b0316336001600160a01b0316146112f9573360405163472511eb60e11b8152600401610d5e9190615220565b61130281612a49565b50565b6000610ed361324e565b61131761327e565b6001600160a01b0316336001600160a01b03161461134a573360405163472511eb60e11b8152600401610d5e9190615220565b61136161135c3683900383018361577f565b613288565b6040805182358152602080840135908201527f5ab79ffcd89b6380c7fbdd89d02cfe3d9c53c99a85e150c2319075018d1aac5c91015b60405180910390a150565b6113aa614ea4565b6113b2612b35565b60408051610100810182528254815260018301546020820152600283015491810191909152600382015460608201526004820154608082015260059091015463ffffffff811660a083015260ff64010000000082048116151560c0840152600160281b90910416151560e0820152919050565b6000610ed36132cb565b6000610ed36132d5565b600083836114478282613305565b8380611466576040516336b216db60e21b815260040160405180910390fd5b86858061147283613431565b1015611491576040516351940b3960e11b815260040160405180910390fd5b6001600160a01b0388166114ca57604051637617407560e11b81526001600160a01b038a16600482015260006024820152604401610d5e565b6114d4898861343c565b6114df898989612ab9565b9998505050505050505050565b60006114f6612743565b81146115055780610dc0612743565b611513610df0826001615673565b61151c86612a00565b611525836134a2565b6040516001600160a01b038416907f0cc5437d7c9c1d9eab549acbb533eea3e9868e9443dd75309ed5820b33a3774e90600090a2611562826134d9565b6040518281527fbd533e726baaf59b36f3914d950053f7e78f527057c97cd3f0043257fc0fc8849060200160405180910390a161159e89612b63565b6040516001600160a01b038a16907f1da4c245099590dc40be61880c9b97792f3694d970acc1e67ac0e6cc90f3780d90600090a26115db85613510565b6040516001600160a01b038616907f30f015a5d3c72c0a9414538199baa022323a483fa9e4ba2cd581596cf8ca042490600090a261161884613547565b6040516001600160a01b038516907fffc0721ef0563a1b0a51a0dc92113025f33ca434ada9ee3eebff2f385d2a8f9a90600090a26116568a8961357e565b61165f87611bb2565b7f1809e49bba43f2d39fa57894b50cd6ccb428cc438230e065cac3eb24a1355a71816000366040516116939392919061568b565b60405180910390a150505050505050505050565b6116af612702565b6001600160a01b0316336001600160a01b0316146116e2573360405163472511eb60e11b8152600401610d5e9190615220565b6116eb816134d9565b6040518181527fbd533e726baaf59b36f3914d950053f7e78f527057c97cd3f0043257fc0fc88490602001611397565b6000610ed36135fa565b6000610ed361362a565b611737614ef3565b610ed361365a565b6000610f2233848461175133886136e6565b61175b9190615673565b612957565b600061177361176e8361373e565b61378c565b92915050565b6000611783612b35565b60010154905090565b60008061179761365a565b905060006117a4826137c4565b90506117ee82600001516001600160401b03166117bf612b35565b546117ca9190615673565b83516117df906001600160401b0316846157b1565b6117e99084615768565b61380f565b9250505090565b6000610ed361381e565b6000610ed3612c67565b600061181361365a565b51611827906001600160401b0316836157b1565b6117739083615768565b611839612702565b6001600160a01b0316336001600160a01b03161461186c573360405163472511eb60e11b8152600401610d5e9190615220565b61187581613510565b6040516001600160a01b038216907f30f015a5d3c72c0a9414538199baa022323a483fa9e4ba2cd581596cf8ca042490600090a250565b610ee0612c67565b60606118be6129c6565b6001600160a01b0316635f2e5f0784846040518363ffffffff1660e01b81526004016118eb929190615816565b600060405180830381865afa158015611908573d6000803e3d6000fd5b505050506040513d6000823e601f3d908101601f19168201604052611071919081019061584d565b6000610ed36129c6565b6000610ed3612702565b600061177382613431565b60008060008061195d61365a565b9050600061196a826137c4565b8251909150611982906001600160401b0316826157b1565b61198c9082615768565b945081604001516001600160401b031682602001516001600160401b0316866119b59190615749565b6119bf9190615749565b9350600182604001516001600160401b031683602001516001600160401b031684600001516001600160401b0316886119f89190615673565b611a029190615749565b611a0c9190615749565b611a169190615768565b92505050909192565b611a27612702565b6001600160a01b0316336001600160a01b031614611a5a573360405163472511eb60e11b8152600401610d5e9190615220565b611a638161384e565b611a6c8161386d565b7f8d2df192dd17edf92a7964b78aa322f3d717b2ab9de00651bee32bbc4c5da63a81604051611397919061519e565b611aa361327e565b6001600160a01b0316336001600160a01b031614611ad6573360405163472511eb60e11b8152600401610d5e9190615220565b611aed611ae8368390038301836158ed565b6138b7565b7f25777eb44be046f64180acf8275f0ac2ec51e63a65a5f8a0f2f6d86ba25b74cf611b1b602083018361597a565b611b2b604084016020850161597a565b611b3b606085016040860161597a565b611b4b608086016060870161597a565b611b5b60a087016080880161597a565b604051611397959493929190615995565b600061177382613973565b611b7f61327e565b6001600160a01b0316336001600160a01b031614611bb2573360405163472511eb60e11b8152600401610d5e9190615220565b611bbb816139a0565b6040516001600160a01b038216907fd3b5d1e0ffaeff528910f3663f0adace7694ab8241d58e17a91351ced2e0803190600090a250565b6000610ed36139d7565b6060610ed3613a07565b6000610ed3613131565b6000611c1a612b35565b54919050565b6060611c2a6129c6565b6001600160a01b0316637c044e5586868686600161ffff6040518763ffffffff1660e01b8152600401611c62969594939291906159c7565b6000604051808303816000875af1158015611c81573d6000803e3d6000fd5b505050506040513d6000823e601f3d908101601f19168201604052611ca99190810190615a0d565b95945050505050565b6000610ed3613acd565b6040805180820190915260008082526020820152610ed3613afd565b6000610ed3611ce561365a565b6137c4565b6000610f22338484611cfc33886136e6565b61175b9190615768565b60003383611d148282613305565b8380611d33576040516336b216db60e21b815260040160405180910390fd5b338580611d3f83613431565b1015611d5e576040516351940b3960e11b815260040160405180910390fd5b6001600160a01b038816611d8e57604051637617407560e11b815233600482015260006024820152604401610d5e565b611d99338989612ab9565b98975050505050505050565b611dae81613b5d565b61130281610c9c565b611dbf612702565b6001600160a01b0316336001600160a01b031614611df2573360405163472511eb60e11b8152600401610d5e9190615220565b611302816127aa565b6000610ed3612a89565b6000610ed36129f6565b610f1333610c9c565b610ee061324e565b600061107183836136e6565b6040805180820190915260008082526020820152610ed3613b84565b610ee06135fa565b611e586139d7565b6001600160a01b0316336001600160a01b031614611e8b573360405163472511eb60e11b8152600401610d5e9190615220565b6000611e9561365a565b9050611ea2818335613bf2565b611ec25760405163a225656d60e01b815282356004820152602401610d5e565b611eca614f21565b6000611ed4612b35565b60038101546040840181905290915060608501351015611f19576040808301519051621ee1cf60e11b8152600481019190915260608501356024820152604401610d5e565b6040820151611f2c906060860135615768565b608083015260028101546060830181905260408501351015611f7357606082015160408051636f24834360e01b815260048101929092528501356024820152604401610d5e565b611f7b613131565b611f8b60c0860160a08701615aa2565b63ffffffff161180611fbb5750600581015463ffffffff16611fb360c0860160a08701615aa2565b63ffffffff16105b1561201057611fd060c0850160a08601615aa2565b611fd8613131565b6005830154604051632f776b1760e01b815263ffffffff93841660048201526024810192909252919091166044820152606401610d5e565b6060820151612023906040860135615768565b60a083015280546120379084908635613c4f565b60c08301525061204561318f565b815260a0810151608082015160009161205d91615673565b1115612075576120758160a001518260800151613c8a565b61207d614ea4565b83358152602080850135908201526040808501359082015260608085013590820152608080850135908201526120b960c0850160a08601615aa2565b63ffffffff1660a08201526120d5610100850160e08601615ad8565b151560c08201526120ee61012085016101008601615ad8565b151560e08201526120fe81613db7565b5061214661210f60c0850185615af5565b80806020026020016040519081016040528093929190818152602001838360200280828437600092019190915250613e6392505050565b6000612150613afd565b905060006121678284600001518560c00151613ecd565b905061217161318f565b6020840181905283511161220657825161218c908290615673565b836020015111156121d4578251602084015160c0850151845160405163eb7a968960e01b81526004810194909452602484019290925260448301526064820152608401610d5e565b825160208401516121e59190615768565b610120840180519190915251516121fc9082615768565b60e08401526122a2565b6000612216838560000151613f01565b9050612226818560000151612bca565b84516122329190615768565b8460200151101561228057835160208086015160c08701519186015160405163063bb83f60e11b8152610d5e9493919060040193845260208401929092526040830152606082015260800190565b602084015184516122919190615768565b61229b9083615673565b60e0850152505b60e083015115612300576122b98360e00151613f16565b61012084018051602090810192909252519081015181519091906122de908390615673565b9052506101208301516020015160e0840180516122fc908390615768565b9052505b60e08301511561233f576123178360e00151613fde565b6101208401805160409081019290925251015160e08401805161233b908390615768565b9052505b60e083015115612361576123568360e001516140a4565b610120840151606001525b610120830151511561237d576101208301515161237d90614176565b61238f61012086016101008701615ad8565b6123b1576123b160808601356123ac610100880160e08901615ad8565b6142a8565b6123b9614528565b6123c16146bb565b6123ce8360c001516146e3565b7f49ac0d2bb2a688ca460f7993eb93eccd3b9c9188da6b0727e9a409cf8b10587585846101200151604051612404929190615b86565b60405180910390a15050505050565b60006117738261378c565b600061177361242b61365a565b83613bf2565b612439612702565b6001600160a01b0316336001600160a01b03161461246c573360405163472511eb60e11b8152600401610d5e9190615220565b612475816134a2565b6040516001600160a01b038216907f0cc5437d7c9c1d9eab549acbb533eea3e9868e9443dd75309ed5820b33a3774e90600090a250565b6000610ed3612b9a565b6113026124e460017f82055909238c0f5e63d6f174068ebb8f51bcec9bd37de63bb68f6551feec0cfd615768565b829055565b9055565b6000610ed361251d60017f2b6136e423ab70d76431e2a635e877e16ea2dd9a895e054ad7f35f89d6c7b711615768565b5490565b7f48f67c1dada0cab2163f6282292ad97ea97376cfed46bb3851654aaa630db72761254a6124ed565b60408051918252602082018490520160405180910390a161130281614799565b600061257684836147c7565b90506000612582612a89565b9050836001600160a01b0316856001600160a01b0316141561260257604051632d20488160e11b81526001600160a01b03821690635a409102906125cd9088906001906004016156c1565b60006040518083038186803b1580156125e557600080fd5b505afa1580156125f9573d6000803e3d6000fd5b505050506126fb565b604051632d20488160e11b81526001600160a01b03821690635a409102906126319088906001906004016156c1565b60006040518083038186803b15801561264957600080fd5b505afa15801561265d573d6000803e3d6000fd5b505060405163e838dfbb60e01b81526001600160a01b038416925063e838dfbb915061268d908790600401615220565b602060405180830381865afa1580156126aa573d6000803e3d6000fd5b505050506040513d601f19601f820116820180604052508101906126ce9190615c5a565b156126ee578360405163e7d05e2760e01b8152600401610d5e9190615220565b6126f9858584612ab9565b505b5050505050565b6000610ed3614826565b61271581613b5d565b6113026124e460017ff4271262f3552a4108cde54dc75061de8de495709221d793b126e448522d6a80615768565b6000610ed361251d60017f82055909238c0f5e63d6f174068ebb8f51bcec9bd37de63bb68f6551feec0cfd615768565b61277c81613b5d565b6113026124e460017fe458cbedf69109e7d57b7f8c96816615aac0017187d87abab9001d22db32bae4615768565b6127b381614856565b805160208201516040517e4180017d3dd609da6980999655a6bd2591e313d31d6230b1889c369a9713a0926113979290916001600160801b0392831681529116602082015260400190565b61285a6040518060a00160405280896001600160401b03168152602001886001600160401b03168152602001876001600160401b03168152602001866001600160401b03168152602001856001600160401b03168152506138b7565b7f25777eb44be046f64180acf8275f0ac2ec51e63a65a5f8a0f2f6d86ba25b74cf8787878787604051612891959493929190615995565b60405180910390a16128b6604051806040016040528084815260200183815250613288565b60408051838152602081018390527f5ab79ffcd89b6380c7fbdd89d02cfe3d9c53c99a85e150c2319075018d1aac5c910160405180910390a16128f7614ea4565b6128ff6148a8565b81526129096148d8565b602082015260006040820181905260608201819052608082015261292b614908565b63ffffffff1660a0820152600060c0820181905260e082015261294d81613db7565b5050505050505050565b61296083613b5d565b61296982613b5d565b612974838383614938565b816001600160a01b0316836001600160a01b03167f8c5be1e5ebec7d5bd14f71427d1e84f3dd0314c0f7b2291e5b200ac8c7c3b925836040516129b991815260200190565b60405180910390a3505050565b6000610ed361251d60017fe458cbedf69109e7d57b7f8c96816615aac0017187d87abab9001d22db32bae4615768565b6000610ed361498f565b612a0981613b5d565b612a12816149bf565b6040516001600160a01b038216907f5a272403b402d892977df56625f4164ccaf70ca3863991c43ecfe76a6905b0a190600090a250565b612a52816149c8565b6040516001600160a01b038216907f2a0f8515de3fa34ef68b99300347b8793c01683350743e96fe440594528298f490600090a250565b6000610ed361251d60017f867d8f1a5e39d11d5bebde854d5359a509530ad32450f581da63c06ec8d1a780615768565b6000612ad88483612ac98761373e565b612ad39190615768565b6149d1565b612af08383612ae68661373e565b612ad39190615673565b826001600160a01b0316846001600160a01b0316600080516020615f6883398151915284604051612b2391815260200190565b60405180910390a35060019392505050565b60008061177360017fdbc0527c99b54cd325d6ce9eaae3a8413cd447b5205f37385f0ebc6551033c6d615768565b612b6c81613b5d565b6113026124e460017f8e9e2a1d30fed357d8a000c1131fc77ed65d2052918caf1ccc6eb1e7af3d13b6615768565b6000610ed361251d60017fbcfa5a69252c74010ad3e9ab18cfbdc116fcf85f084db1a8dc577a339fbee58b615768565b6000818311612bd95782611071565b50919050565b606080612bea613acd565b6001600160a01b031663277c9d45846040518263ffffffff1660e01b8152600401612c1791815260200190565b6000604051808303816000875af1158015612c36573d6000803e3d6000fd5b505050506040513d6000823e601f3d908101601f19168201604052612c5e9190810190615d3d565b91509150915091565b6000610ed361251d60017fb649e50315f962b32d487e696a81b4828631b11f8424daaaa37e9e97766a2c42615768565b6030835114612cb95760405163050cb55360e41b815260040160405180910390fd5b6060825114612cdb5760405163408ebd3960e01b815260040160405180910390fd5b6801bc16d674ec8000006000612cf5633b9aca008361571f565b90506000600286600060801b604051602001612d12929190615da0565b60408051601f1981840301815290829052612d2c91615dcf565b602060405180830381855afa158015612d49573d6000803e3d6000fd5b5050506040513d601f19601f82011682018060405250810190612d6c9190615deb565b90506000600280612d808860006040614a1d565b604051612d8d9190615dcf565b602060405180830381855afa158015612daa573d6000803e3d6000fd5b5050506040513d601f19601f82011682018060405250810190612dcd9190615deb565b6002612de5896040612de0816060615768565b614a1d565b604051612df89190600090602001615e04565b60408051601f1981840301815290829052612e1291615dcf565b602060405180830381855afa158015612e2f573d6000803e3d6000fd5b5050506040513d601f19601f82011682018060405250810190612e529190615deb565b60408051602081019390935282015260600160408051601f1981840301815290829052612e7e91615dcf565b602060405180830381855afa158015612e9b573d6000803e3d6000fd5b5050506040513d601f19601f82011682018060405250810190612ebe9190615deb565b905060006002808488604051602001612ee1929190918252602082015260400190565b60408051601f1981840301815290829052612efb91615dcf565b602060405180830381855afa158015612f18573d6000803e3d6000fd5b5050506040513d601f19601f82011682018060405250810190612f3b9190615deb565b6002612f4687614ae0565b604080516020810192909252810186905260600160408051601f1981840301815290829052612f7491615dcf565b602060405180830381855afa158015612f91573d6000803e3d6000fd5b5050506040513d601f19601f82011682018060405250810190612fb49190615deb565b60408051602081019390935282015260600160408051601f1981840301815290829052612fe091615dcf565b602060405180830381855afa158015612ffd573d6000803e3d6000fd5b5050506040513d601f19601f820116820180604052508101906130209190615deb565b9050600061302e8647615768565b9050613038614b4d565b6001600160a01b03166322895118878b8a60405160200161305b91815260200190565b6040516020818303038152906040528c876040518663ffffffff1660e01b815260040161308b9493929190615e26565b6000604051808303818588803b1580156130a457600080fd5b505af11580156130b8573d6000803e3d6000fd5b50505050508047146130dd57604051638051a6bb60e01b815260040160405180910390fd5b505050505050505050565b7f86fd21e9b5bd76b20471c7f93a82aa4e25c37d48b179bda0a4d1a45e22a842f4613111612b9a565b60408051918252602082018490520160405180910390a161130281614b7d565b6000610ed361251d60017fc77078e3530c08cdb2440817c81de4836500b4708ea4d15672b7fe98956423a8615768565b6113026124e460017fc77078e3530c08cdb2440817c81de4836500b4708ea4d15672b7fe98956423a8615768565b60008061319a612b35565b600581015490915063ffffffff1660006131b2613131565b905080821015613227576801bc16d674ec8000006131d08383615768565b6131da9190615749565b6131e261362a565b6131ea612b9a565b6131f26124ed565b86600101546132019190615673565b61320b9190615673565b6132159190615673565b61321f9190615673565b935050505090565b61322f61362a565b613237612b9a565b61323f6124ed565b856001015461320b9190615673565b6000610ed361251d60017ff4271262f3552a4108cde54dc75061de8de495709221d793b126e448522d6a80615768565b6000610ed361193a565b60006132b560017ff81b149de6749a3f46464b2cce61e24462f67599ea4a5ce028aaf4ab1521f96e615768565b8251815560209092015160019092019190915550565b6000610ed3614bab565b6000610ed361251d60017f094efef62d2ce60c14ffacd35a1b50546d3a9d503aff1df040176fffd6c92a37615768565b600061330f612a89565b60405163e838dfbb60e01b81529091506001600160a01b0382169063e838dfbb9061333e908690600401615220565b602060405180830381865afa15801561335b573d6000803e3d6000fd5b505050506040513d601f19601f8201168201806040525081019061337f9190615c5a565b1561339f578260405163e7d05e2760e01b8152600401610d5e9190615220565b60405163e838dfbb60e01b81526001600160a01b0382169063e838dfbb906133cb908590600401615220565b602060405180830381865afa1580156133e8573d6000803e3d6000fd5b505050506040513d601f19601f8201168201806040525081019061340c9190615c5a565b1561342c578160405163e7d05e2760e01b8152600401610d5e9190615220565b505050565b60006117738261373e565b600061344883336136e6565b90508181101561348a57604051637b936de360e01b81526001600160a01b03841660048201523360248201526044810182905260648101839052608401610d5e565b600019811461342c5761342c833361175b8585615768565b6134ab81613b5d565b6113026124e460017f082b6d18de7b10e438e6b1002141db737519cb4ceed679bc815e3aac00cd2227615768565b6134e281614bdb565b6113026124e460017f094efef62d2ce60c14ffacd35a1b50546d3a9d503aff1df040176fffd6c92a37615768565b61351981613b5d565b6113026124e460017f867d8f1a5e39d11d5bebde854d5359a509530ad32450f581da63c06ec8d1a780615768565b61355081613b5d565b6113026124e460017f3f075dea7ef99b1e5db245018e5e4ed8d2a0d93953f5932b2176bef59bd69061615768565b61358782614bfe565b6040516001600160a01b038316907e043cf7635f276413ae358250286a479a631abd9d74d57d4aa0bb87ebc7d11790600090a26135c381614c35565b6040518181527f4c86ba184ea1a1558f84835ca34f6d67e222e8ee5cc4f324b8861dda4cf1740c9060200160405180910390a15050565b6000610ed361251d60017f8e9e2a1d30fed357d8a000c1131fc77ed65d2052918caf1ccc6eb1e7af3d13b6615768565b6000610ed361251d60017f850308dd4e453a2a1bc3efb444560401d95c1a8bdea5b35c5c79531cd2241f1d615768565b613662614ef3565b600061368f60017fd84ee2c84c954c65bef1459fe03b761a42f49234527e3cd8fd9dce87cb83742b615768565b6040805160a08101825282546001600160401b038082168352600160401b820481166020840152600160801b8204811693830193909352600160c01b90048216606082015260019092015416608082015292915050565b60008061371460017fc852254d5b703a16bb13b3e233a335d6459c5da5db0ca732d7a684ee05407847615768565b6001600160a01b039485166000908152602091825260408082209590961681529390525050205490565b60008061376c60017f0fb4a5ac9287f4f508aa7253ee2d57c6a228b1b30e210d73fffd59389d3a8838615768565b6001600160a01b0390931660009081526020939093525050604090205490565b600080613797614bab565b9050806137a75750600092915050565b806137b061318f565b6137ba9085615749565b611071919061571f565b600081602001516001600160401b031682604001516001600160401b031683606001516001600160401b0316426137fb9190615768565b613805919061571f565b611773919061571f565b6000818310612bd95782611071565b6000610ed361251d60017f082b6d18de7b10e438e6b1002141db737519cb4ceed679bc815e3aac00cd2227615768565b805161130257604051638d46fe0560e01b815260040160405180910390fd5b600061389a60017fb63f3482ec84cb93d74a71645ad2e9e896fa02723e42170b4aad20a4bed6cdd6615768565b825190915081906138b19082906020860190614f9c565b50505050565b60006138e460017fd84ee2c84c954c65bef1459fe03b761a42f49234527e3cd8fd9dce87cb83742b615768565b825181546020850151604086015160608701516001600160401b039485166001600160801b031990941693909317600160401b92851692909202919091176001600160801b0316600160801b918416919091026001600160c01b031617600160c01b918316919091021782556080909301516001909101805467ffffffffffffffff1916919093161790915550565b60008061397e614bab565b90508061398e5750600092915050565b61399661318f565b6137ba8285615749565b6139a981613b5d565b6113026124e460017fc8cbea9407c380ae944f052b5a442330057683c5abdbd453493f9750806afecb615768565b6000610ed361251d60017fc8cbea9407c380ae944f052b5a442330057683c5abdbd453493f9750806afecb615768565b60606000613a3660017fb63f3482ec84cb93d74a71645ad2e9e896fa02723e42170b4aad20a4bed6cdd6615768565b805490915081908190613a4890615e71565b80601f0160208091040260200160405190810160405280929190818152602001828054613a7490615e71565b8015613ac15780601f10613a9657610100808354040283529160200191613ac1565b820191906000526020600020905b815481529060010190602001808311613aa457829003601f168201915b50505050509250505090565b6000610ed361251d60017f3f075dea7ef99b1e5db245018e5e4ed8d2a0d93953f5932b2176bef59bd69061615768565b60408051808201909152600080825260208201526000613b3e60017ff81b149de6749a3f46464b2cce61e24462f67599ea4a5ce028aaf4ab1521f96e615768565b6040805180820190915281548152600190910154602082015292915050565b6001600160a01b0381166113025760405163f6b2911f60e01b815260040160405180910390fd5b60408051808201909152600080825260208201526000613bc560017fc305db9f63aeed94a45229ff5ab4174e72b223a38ab4c5e8f518ee4f437918d1615768565b6040805180820190915290546001600160801b038082168352600160801b90910416602082015292915050565b600082608001516001600160401b031682613c0d9190615673565b613c16846137c4565b10158015613c2b5750613c27612b35565b5482115b801561107157508251613c47906001600160401b0316836157b1565b159392505050565b600083602001518460400151613c659190615ea6565b6001600160401b0316613c788484615768565b613c829190615749565b949350505050565b476000613c978385615673565b9050613ca1612c67565b6001600160a01b031663ea74f479826040518263ffffffff1660e01b8152600401613cce91815260200190565b600060405180830381600087803b158015613ce857600080fd5b505af1158015613cfc573d6000803e3d6000fd5b5050505060008247613d0e9190615768565b9050613d1a8486615673565b8114613d4e57613d2a8486615673565b6040516349a1938b60e01b8152600481019190915260248101829052604401610d5e565b8415613d6057613d6085610cc66124ed565b8315613d8157613d8184613d7261362a565b613d7c9190615673565b614c81565b60408051868152602081018690527fcb5410dc8f29b2f498e023c3f9237dbd600255a717edf94a6072bcd03b0c773c9101612404565b6000613de460017fdbc0527c99b54cd325d6ce9eaae3a8413cd447b5205f37385f0ebc6551033c6d615768565b825181556020830151600182015560408301516002820155606083015160038201556080830151600482015560a08301516005909101805460c085015160e0909501511515600160281b0265ff0000000000199515156401000000000264ffffffffff1990921663ffffffff9094169390931717939093161790915550565b613e6b613acd565b6001600160a01b031663b405e17482613e82613131565b6040518363ffffffff1660e01b8152600401613e9f929190615ed5565b600060405180830381600087803b158015613eb957600080fd5b505af11580156126fb573d6000803e3d6000fd5b6000613edf6301e13380612710615749565b84518390613eed9086615749565b613ef79190615749565b613c82919061571f565b60006127108360200151836137ba9190615749565b600080613f216135fa565b60405163c8a6dfd360e01b81526004810185905290915047906001600160a01b0383169063c8a6dfd390602401600060405180830381600087803b158015613f6857600080fd5b505af1158015613f7c573d6000803e3d6000fd5b5050505060008147613f8e9190615768565b90508015613fa257613fa281610cc66124ed565b6040518181527fda841d3042d792e2509a333b9dcbd4b3dd9b9047d382011f8788fab90ca7e3c7906020015b60405180910390a1949350505050565b600047613fe96129c6565b6001600160a01b0316630c779401846040518263ffffffff1660e01b815260040161401691815260200190565b600060405180830381600087803b15801561403057600080fd5b505af1158015614044573d6000803e3d6000fd5b50505050600081476140569190615768565b9050801561406a5761406a81610cc66124ed565b6040518181527f4e484734eb4d444bfa106f917d05d9ceb8ce18bf516c85d7aeb9b322925339f99060200160405180910390a19392505050565b6000806140af61324e565b90506001600160a01b0381166140c85750600092915050565b604051638ede6b6b60e01b81526004810184905247906001600160a01b03831690638ede6b6b90602401600060405180830381600087803b15801561410c57600080fd5b505af1158015614120573d6000803e3d6000fd5b50505050600081476141329190615768565b905080156141465761414681610cc66124ed565b6040518181527fd500b67e5bd8019c0af744cadeec120d1b5e3d3a3a011f18cf182aa4c97947b690602001613fce565b60006141806132cb565b9050806141a057604051630d35acd760e21b815260040160405180910390fd5b60006141aa61318f565b905060006141b66132d5565b90506000816141c58587615749565b6141cf9190615749565b905060006141dd8387615749565b6141e961271086615749565b6141f39190615768565b90506000811561420c57614207828461571f565b61420f565b60005b9050801561429f57600061422161381e565b905061422d8183614cca565b60006142376132cb565b905060006142458a89615768565b60408051828152602081018c90529081018a9052606081018490529091506001600160a01b038416907f3d1669e813a9845c288f0e1f642a4343a451103b87886d12de37e63b39bbd9429060800160405180910390a25050505b50505050505050565b60006142b26132cb565b9050801561342c5760006142c461362a565b905060006142d06124ed565b905060006143406142df6129c6565b6001600160a01b0316630d8d2a546040518163ffffffff1660e01b8152600401602060405180830381865afa15801561431c573d6000803e3d6000fd5b505050506040513d601f19601f8201168201806040525081019061176e9190615deb565b90508061434d8785615673565b10156126f9578480156143605750600082115b156143b157600061438583856143768a86615768565b6143809190615768565b612bca565b905080156143af576143978185615673565b93506143a284614c81565b6143af610cd08285615768565b505b60006143bb613acd565b9050600080826001600160a01b0316634a3c63bb6040518163ffffffff1660e01b81526004016040805180830381865afa1580156143fd573d6000803e3d6000fd5b505050506040513d601f19601f820116820180604052508101906144219190615f23565b915063ffffffff16915060006801bc16d674ec80000083831161444557600061444f565b61444f8484615768565b6144599190615749565b905084816144678c8a615673565b6144719190615673565b101561451c5760006144aa826144878d8b615673565b6144919190615673565b61449b9088615768565b6801bc16d674ec800000614d27565b9050846001600160a01b0316632d1fc39d826144c4613131565b6040516001600160e01b031960e085901b16815260048101929092526024820152604401600060405180830381600087803b15801561450257600080fd5b505af1158015614516573d6000803e3d6000fd5b50505050505b50505050505050505050565b60006145326129c6565b9050600061453e61318f565b9050600061454a6132cb565b905060008211801561455c5750600081115b1561342c576000836001600160a01b0316630d8d2a546040518163ffffffff1660e01b8152600401602060405180830381865afa1580156145a1573d6000803e3d6000fd5b505050506040513d601f19601f820116820180604052508101906145c59190615deb565b90508060006145d38261378c565b905060006145df61362a565b9050808211156145f8578091506145f582613973565b92505b60408051858152602081018590529081018390527f709263092d8d9fef472d907900405b5edae3d76f8ff4354858025b18424d71019060600160405180910390a1811561429f5761464c613d7c8383615768565b6146568784614d5a565b60405163b30d8bb760e01b8152600481018490526001600160a01b0388169063b30d8bb79084906024016000604051808303818588803b15801561469957600080fd5b505af11580156146ad573d6000803e3d6000fd5b505050505050505050505050565b60006146c561362a565b90508015611302576146d981610cc66124ed565b6113026000614c81565b60006146ed61318f565b905060006146f96124ed565b90506000614705613b84565b8051909150600090614749906001600160801b03166127106147278688615768565b85602001516001600160801b031661473f9190615749565b6117e9919061571f565b9050600061476e6201518061475e8885615749565b614768919061571f565b85612bca565b905080156126f95761478c81614782612b9a565b6112439190615673565b6126f9610cd08286615768565b6113026124e460017f2b6136e423ab70d76431e2a635e877e16ea2dd9a895e054ad7f35f89d6c7b711615768565b600080826147d361318f565b6147dd9190615768565b9050806147f6578291506147f18484614cca565b61481f565b806147ff6132cb565b6148099085615749565b614813919061571f565b915061481f8483614cca565b5092915050565b6000610ed361251d60017fb5b37715a3e346e996104f0086703f19825def429233930fd9399c38e05fb113615768565b600061488360017fc305db9f63aeed94a45229ff5ab4174e72b223a38ab4c5e8f518ee4f437918d1615768565b82516020909301516001600160801b03908116600160801b0293169290921790915550565b6000610ed361251d60017fd7f2d45e512a86049f7a113657b39731b6b558609584243063a52cd31a8eb529615768565b6000610ed361251d60017ffedfd2c285a57fb23bf45a3fe9ac02d36a76ebb72801b1c8aaf553d74e9d4653615768565b6000610ed361251d60017f0f1e7733641e4d843128fea0d2ec90d3d06a40b0fe244ff603d8c1aa200dc0f9615768565b600061496560017fc852254d5b703a16bb13b3e233a335d6459c5da5db0ca732d7a684ee05407847615768565b6001600160a01b039485166000908152602091825260408082209590961681529390525091902055565b6000610ed361251d60017f6e6ab8b7c7aaba79eef8cc633522d606bb008c101cf9832c9ad05d10a9847281615768565b61130281614daa565b61130281614de1565b60006149fe60017f0fb4a5ac9287f4f508aa7253ee2d57c6a228b1b30e210d73fffd59389d3a8838615768565b6001600160a01b03909316600090815260209390935250604090912055565b60608182601f011015614a43576040516323d5783d60e11b815260040160405180910390fd5b614a4d8284615673565b84511015614a6e57604051633b99b53d60e01b815260040160405180910390fd5b606082158015614a8d5760405191506000825260208201604052614ad7565b6040519150601f8416801560200281840101858101878315602002848b0101015b81831015614ac6578051835260209283019201614aae565b5050858452601f01601f1916604052505b50949350505050565b603881901c60ff908116603083901c8216602884901c8316602085901c8416601886901c8516601087901c8616600888811c9790971688881b61ff001617871b17861b17851b17841b17831b1790911b17604082901c8015614b4457614b44615f51565b5060c01b919050565b6000610ed361251d60017f35efb61d8784060218d9d6aa40eae55904de43779c1afc79c74dfefcfdf91260615768565b6113026124e460017fbcfa5a69252c74010ad3e9ab18cfbdc116fcf85f084db1a8dc577a339fbee58b615768565b6000610ed361251d60017f6b842b424335d94ccad97e54548dfa02673c1268aba38d3c3c32d28c8988b70b615768565b612710811115611302576040516358d620b360e01b815260040160405180910390fd5b614c0781613b5d565b6113026124e460017f35efb61d8784060218d9d6aa40eae55904de43779c1afc79c74dfefcfdf91260615768565b80614c535760405163a9cb9e0d60e01b815260040160405180910390fd5b6113026124e460017fb649e50315f962b32d487e696a81b4828631b11f8424daaaa37e9e97766a2c42615768565b7f215c2b83e8c232e42091088056ab75d2ff643855c32997024f786cddb22d2290614caa61362a565b60408051918252602082018490520160405180910390a161130281614e0f565b614ce581614cd6614bab565b614ce09190615673565b614e3d565b614cf38282612ae68561373e565b6040518181526001600160a01b03831690600090600080516020615f68833981519152906020015b60405180910390a35050565b600080614d3483856157b1565b11614d40576000614d43565b60015b60ff16614d50838561571f565b6110719190615673565b614d7081614d66614bab565b614ce09190615768565b614d7e8282612ac98561373e565b6040518181526000906001600160a01b03841690600080516020615f6883398151915290602001614d1b565b614db381613b5d565b6113026124e460017fb5b37715a3e346e996104f0086703f19825def429233930fd9399c38e05fb113615768565b6113026124e460017f6e6ab8b7c7aaba79eef8cc633522d606bb008c101cf9832c9ad05d10a9847281615768565b6113026124e460017f850308dd4e453a2a1bc3efb444560401d95c1a8bdea5b35c5c79531cd2241f1d615768565b614e4681614e76565b6040518181527fc80ea35a3f9016535e5b7c87746740c5045afe42188d02c5786eb97495c2f42990602001611397565b6113026124e460017f6b842b424335d94ccad97e54548dfa02673c1268aba38d3c3c32d28c8988b70b615768565b6040518061010001604052806000815260200160008152602001600081526020016000815260200160008152602001600063ffffffff1681526020016000151581526020016000151581525090565b6040805160a08101825260008082526020820181905291810182905260608101829052608081019190915290565b604051806101400160405280600081526020016000815260200160008152602001600081526020016000815260200160008152602001600081526020016000815260200160008152602001614f976040518060800160405280600081526020016000815260200160008152602001600081525090565b905290565b828054614fa890615e71565b90600052602060002090601f016020900481019282614fca5760008555615010565b82601f10614fe357805160ff1916838001178555615010565b82800160010185558215615010579182015b82811115615010578251825591602001919060010190614ff5565b5061501c929150615020565b5090565b5b8082111561501c5760008155600101615021565b80356001600160a01b038116811461504c57600080fd5b919050565b60006020828403121561506357600080fd5b61107182615035565b80356001600160401b038116811461504c57600080fd5b80356001600160801b038116811461504c57600080fd5b6000806000806000806000806000806101408b8d0312156150ba57600080fd5b6150c38b615035565b99506150d160208c0161506c565b98506150df60408c0161506c565b97506150ed60608c0161506c565b96506150fb60808c0161506c565b955061510960a08c0161506c565b945060c08b0135935060e08b013592506151266101008c01615083565b91506151356101208c01615083565b90509295989b9194979a5092959850565b60005b83811015615161578181015183820152602001615149565b838111156138b15750506000910152565b6000815180845261518a816020860160208601615146565b601f01601f19169290920160200192915050565b6020815260006110716020830184615172565b600080604083850312156151c457600080fd5b6151cd83615035565b946020939093013593505050565b600080604083850312156151ee57600080fd5b823591506151fe60208401615035565b90509250929050565b60006020828403121561521957600080fd5b5035919050565b6001600160a01b0391909116815260200190565b600060408284031215612bd957600080fd5b60008060006060848603121561525b57600080fd5b61526484615035565b925061527260208501615035565b9150604084013590509250925092565b60008060008060008060008060006101208a8c0312156152a157600080fd5b6152aa8a615035565b98506152b860208b01615035565b975060408a013596506152cd60608b01615035565b95506152db60808b01615035565b94506152e960a08b01615035565b93506152f760c08b01615035565b925061530560e08b01615035565b91506101008a013590509295985092959850929598565b60008083601f84011261532e57600080fd5b5081356001600160401b0381111561534557600080fd5b6020830191508360208260051b850101111561536057600080fd5b9250929050565b6000806020838503121561537a57600080fd5b82356001600160401b0381111561539057600080fd5b61539c8582860161531c565b90969095509350505050565b6020808252825182820181905260009190848201906040850190845b818110156153e357835160070b835292840192918401916001016153c4565b50909695505050505050565b634e487b7160e01b600052604160045260246000fd5b604080519081016001600160401b0381118282101715615427576154276153ef565b60405290565b604051601f8201601f191681016001600160401b0381118282101715615455576154556153ef565b604052919050565b60006001600160401b03821115615476576154766153ef565b50601f01601f191660200190565b60006020828403121561549657600080fd5b81356001600160401b038111156154ac57600080fd5b8201601f810184136154bd57600080fd5b80356154d06154cb8261545d565b61542d565b8181528560208385010111156154e557600080fd5b81602084016020830137600091810160200191909152949350505050565b600060a08284031215612bd957600080fd5b6000806000806040858703121561552b57600080fd5b84356001600160401b038082111561554257600080fd5b61554e8883890161531c565b9096509450602087013591508082111561556757600080fd5b506155748782880161531c565b95989497509550505050565b6020808252825182820181905260009190848201906040850190845b818110156153e357835160ff168352928401929184019160010161559c565b6000604082840312156155cd57600080fd5b6155d5615405565b6155de83615083565b81526155ec60208401615083565b60208201529392505050565b6000806040838503121561560b57600080fd5b61561483615035565b91506151fe60208401615035565b60006020828403121561563457600080fd5b81356001600160401b0381111561564a57600080fd5b8201610120818503121561107157600080fd5b634e487b7160e01b600052601160045260246000fd5b600082198211156156865761568661565d565b500190565b83815260406020820152816040820152818360608301376000818301606090810191909152601f909201601f1916010192915050565b6001600160a01b03929092168252602082015260400190565b63ffffffff8116811461130257600080fd5b6000602082840312156156fe57600080fd5b8151611071816156da565b634e487b7160e01b600052601260045260246000fd5b60008261572e5761572e615709565b500490565b634e487b7160e01b600052603260045260246000fd5b60008160001904831182151516156157635761576361565d565b500290565b60008282101561577a5761577a61565d565b500390565b60006040828403121561579157600080fd5b615799615405565b82358152602083013560208201528091505092915050565b6000826157c0576157c0615709565b500690565b803561504c816156da565b8183526000602080850194508260005b8581101561580b5781356157f3816156da565b63ffffffff16875295820195908201906001016157e0565b509495945050505050565b602081526000613c826020830184866157d0565b60006001600160401b03821115615843576158436153ef565b5060051b60200190565b6000602080838503121561586057600080fd5b82516001600160401b0381111561587657600080fd5b8301601f8101851361588757600080fd5b80516158956154cb8261582a565b81815260059190911b820183019083810190878311156158b457600080fd5b928401925b828410156158e25783518060070b81146158d35760008081fd5b825292840192908401906158b9565b979650505050505050565b600060a082840312156158ff57600080fd5b60405160a081018181106001600160401b0382111715615921576159216153ef565b60405261592d8361506c565b815261593b6020840161506c565b602082015261594c6040840161506c565b604082015261595d6060840161506c565b606082015261596e6080840161506c565b60808201529392505050565b60006020828403121561598c57600080fd5b6110718261506c565b6001600160401b0395861681529385166020850152918416604084015283166060830152909116608082015260a00190565b6080815260006159db60808301888a6157d0565b82810360208401526159ee8187896157d0565b9415156040840152505061ffff91909116606090910152949350505050565b60006020808385031215615a2057600080fd5b82516001600160401b03811115615a3657600080fd5b8301601f81018513615a4757600080fd5b8051615a556154cb8261582a565b81815260059190911b82018301908381019087831115615a7457600080fd5b928401925b828410156158e257835160ff81168114615a935760008081fd5b82529284019290840190615a79565b600060208284031215615ab457600080fd5b8135611071816156da565b801515811461130257600080fd5b803561504c81615abf565b600060208284031215615aea57600080fd5b813561107181615abf565b6000808335601e19843603018112615b0c57600080fd5b8301803591506001600160401b03821115615b2657600080fd5b6020019150600581901b360382131561536057600080fd5b6000808335601e19843603018112615b5557600080fd5b83016020810192503590506001600160401b03811115615b7457600080fd5b8060051b360383131561536057600080fd5b60a08152823560a0820152602083013560c0820152604083013560e08201526000610100606085013581840152610120608086013581850152615bcb60a087016157c5565b63ffffffff16610140850152615be460c0870187615b3e565b82610160870152615bfa6101c0870182846157d0565b92505050615c0a60e08701615acd565b1515610180850152615c1d868301615acd565b8015156101a08601529150915061107190506020830184805182526020810151602083015260408101516040830152606081015160608301525050565b600060208284031215615c6c57600080fd5b815161107181615abf565b600082601f830112615c8857600080fd5b81516020615c986154cb8361582a565b82815260059290921b84018101918181019086841115615cb757600080fd5b8286015b84811015615d325780516001600160401b03811115615cda5760008081fd5b8701603f81018913615cec5760008081fd5b848101516040615cfe6154cb8361545d565b8281528b82848601011115615d135760008081fd5b615d2283898301848701615146565b8652505050918301918301615cbb565b509695505050505050565b60008060408385031215615d5057600080fd5b82516001600160401b0380821115615d6757600080fd5b615d7386838701615c77565b93506020850151915080821115615d8957600080fd5b50615d9685828601615c77565b9150509250929050565b60008351615db2818460208801615146565b6001600160801b0319939093169190920190815260100192915050565b60008251615de1818460208701615146565b9190910192915050565b600060208284031215615dfd57600080fd5b5051919050565b60008351615e16818460208801615146565b9190910191825250602001919050565b608081526000615e396080830187615172565b8281036020840152615e4b8187615172565b90508281036040840152615e5f8186615172565b91505082606083015295945050505050565b600181811c90821680615e8557607f821691505b60208210811415612bd957634e487b7160e01b600052602260045260246000fd5b60006001600160401b0380831681851681830481118215151615615ecc57615ecc61565d565b02949350505050565b604080825283519082018190526000906020906060840190828701845b82811015615f1457815163ffffffff1684529284019290840190600101615ef2565b50505092019290925292915050565b60008060408385031215615f3657600080fd5b8251615f41816156da565b6020939093015192949293505050565b634e487b7160e01b600052600160045260246000fdfeddf252ad1be2c89b69c2b068fc378daa952ba7f163c4a11628f55a4df523b3efa26469706673582212203c95154b88c98fcf321ceba99ce7dd171954d01054728dc1860a4a88509b552164736f6c634300080a0033",
            "0x60806040523480156200001157600080fd5b506200002a6000196200007060201b620024aa1760201c565b7f1809e49bba43f2d39fa57894b50cd6ccb428cc438230e065cac3eb24a1355a716000196000366040516200006293929190620000bd565b60405180910390a162000119565b620000b6620000a160017f82055909238c0f5e63d6f174068ebb8f51bcec9bd37de63bb68f6551feec0cfd620000f3565b60001b82620000b960201b620024dd1760201c565b50565b9055565b83815260406020820152816040820152818360608301376000818301606090810191909152601f909201601f1916010192915050565b6000828210156200011457634e487b7160e01b600052601160045260246000fd5b500390565b615fb480620001296000396000f3fe6080604052600436106103ba5760003560e01c80635d95e801116101f9578063a29a839f1161011e578063d4970524116100b6578063efd668461161007a578063efd6684614610c07578063f79c3f0214610c27578063f9f95a9014610c47578063fb5b82d014610c67578063fe7c12ae14610c87576103ca565b8063d497052414610b9b578063d7f8f47414610790578063dd62ed3e14610ba3578063e3a88e6114610bc3578063efd6034714610bff576103ca565b8063a29a839f14610acc578063a457c2d714610ae1578063a9059cbb14610b01578063ac232bde14610b21578063bb6583ec14610b34578063bf15af5614610b54578063c5eff3d014610b69578063d046815614610b7e578063d0e30db014610b93576103ca565b80637adbf973116101915780637adbf973146109b8578063833b1fce146109d857806386a92af7146109ed57806387f2adfb14610a0257806389896aef14610a175780639332525d14610a2c57806395d89b4114610a595780639b498e2614610a875780639d49cca114610a9c576103ca565b80635d95e801146108a95780635f2e5f07146108b157806363f62aaf146108de5780636e9960c3146108f357806370a082311461090857806372f79b1314610928578063750521f51461095857806378a010e814610978578063799a195414610998576103ca565b806323b872dd116102df5780633af9e669116102775780633af9e669146107cd57806346425ef0146107ed5780634b47b74f146108025780635022820114610817578063540bc5ea1461082c578063557ed1ba14610841578063563967151461085457806357fa85471461086957806358bf3c7f14610889576103ca565b806323b872dd14610686578063281a3122146106a6578063291206f6146106c65780632cb562e1146106e65780632d6b59bf146106fb5780632dc5c97c14610710578063313ce5671461077457806336bf33251461079057806339509351146107ad576103ca565b80631311cf8d116103525780631311cf8d1461052557806313d86aed14610545578063143a08d414610565578063147bf6c41461057a5780631546962b1461059a57806315ca4cee146105bc57806317e64858146105dc57806318160ddd1461065c5780631bcbfaba14610671576103ca565b8063020f086e146103e35780630407de471461040357806304843a1714610423578063056850c61461044b57806306fdde0314610453578063095ea7b3146104965780630e18b681146104c6578063107703ab146104db578063107d7fa014610510576103ca565b366103ca576103c833610c9c565b005b60405163574b16a760e11b815260040160405180910390fd5b3480156103ef57600080fd5b506103c86103fe366004615048565b610d23565b34801561040f57600080fd5b506103c861041e366004615091565b610da7565b34801561042f57600080fd5b50610438610ec9565b6040519081526020015b60405180910390f35b6103c8610ed8565b34801561045f57600080fd5b50604080518082019091526011815270098d2e2ead2c840a6e8c2d6cac8408aa89607b1b60208201525b6040516104429190615195565b3480156104a257600080fd5b506104b66104b13660046151a8565b610f15565b6040519015158152602001610442565b3480156104d257600080fd5b506103c8610f2b565b3480156104e757600080fd5b506104fb6104f63660046151d2565b610f80565b60405163ffffffff9091168152602001610442565b34801561051c57600080fd5b50610438611078565b34801561053157600080fd5b506103c8610540366004615048565b611091565b34801561055157600080fd5b506103c86105603660046151fe565b61110c565b34801561057157600080fd5b506104386112b4565b34801561058657600080fd5b506103c8610595366004615048565b6112be565b3480156105a657600080fd5b506105af611305565b6040516104429190615217565b3480156105c857600080fd5b506103c86105d736600461522b565b61130f565b3480156105e857600080fd5b506105f16113a2565b6040516104429190600061010082019050825182526020830151602083015260408301516040830152606083015160608301526080830151608083015263ffffffff60a08401511660a083015260c0830151151560c083015260e0830151151560e083015292915050565b34801561066857600080fd5b50610438611425565b34801561067d57600080fd5b5061043861142f565b34801561069257600080fd5b506104b66106a136600461523d565b611439565b3480156106b257600080fd5b506103c86106c1366004615279565b6114ec565b3480156106d257600080fd5b506103c86106e13660046151fe565b6116a7565b3480156106f257600080fd5b506105af61171b565b34801561070757600080fd5b50610438611725565b34801561071c57600080fd5b5061072561172f565b604051610442919081516001600160401b039081168252602080840151821690830152604080840151821690830152606080840151821690830152608092830151169181019190915260a00190565b34801561078057600080fd5b5060405160128152602001610442565b34801561079c57600080fd5b506104386801bc16d674ec80000081565b3480156107b957600080fd5b506104b66107c83660046151a8565b61173f565b3480156107d957600080fd5b506104386107e8366004615048565b611760565b3480156107f957600080fd5b50610438611779565b34801561080e57600080fd5b5061043861178c565b34801561082357600080fd5b506105af6117f5565b34801561083857600080fd5b50610438606081565b34801561084d57600080fd5b5042610438565b34801561086057600080fd5b506104386117ff565b34801561087557600080fd5b506104386108843660046151fe565b611809565b34801561089557600080fd5b506103c86108a4366004615048565b611831565b6103c86118ac565b3480156108bd57600080fd5b506108d16108cc36600461535e565b6118b4565b604051610442919061539f565b3480156108ea57600080fd5b506105af611930565b3480156108ff57600080fd5b506105af61193a565b34801561091457600080fd5b50610438610923366004615048565b611944565b34801561093457600080fd5b5061093d61194f565b60408051938452602084019290925290820152606001610442565b34801561096457600080fd5b506103c861097336600461547b565b611a1f565b34801561098457600080fd5b506103c86109933660046154fa565b611a9b565b3480156109a457600080fd5b506104386109b33660046151fe565b611b6c565b3480156109c457600080fd5b506103c86109d3366004615048565b611b77565b3480156109e457600080fd5b506105af611bf2565b3480156109f957600080fd5b50610489611bfc565b348015610a0e57600080fd5b50610438611c06565b348015610a2357600080fd5b50610438611c10565b348015610a3857600080fd5b50610a4c610a4736600461550c565b611c20565b6040516104429190615577565b348015610a6557600080fd5b50604080518082019091526005815264098e68aa8960db1b6020820152610489565b348015610a9357600080fd5b506105af611cb2565b348015610aa857600080fd5b50610ab1611cbc565b60408051825181526020928301519281019290925201610442565b348015610ad857600080fd5b50610438611cd8565b348015610aed57600080fd5b506104b6610afc3660046151a8565b611cea565b348015610b0d57600080fd5b506104b6610b1c3660046151a8565b611d06565b6103c8610b2f366004615048565b611da5565b348015610b4057600080fd5b506103c8610b4f3660046155b2565b611db7565b348015610b6057600080fd5b50610438603081565b348015610b7557600080fd5b506105af611dfb565b348015610b8a57600080fd5b506105af611e05565b6103c8611e0f565b6103c8611e18565b348015610baf57600080fd5b50610438610bbe3660046155ef565b611e20565b348015610bcf57600080fd5b50610bd8611e2c565b6040805182516001600160801b039081168252602093840151169281019290925201610442565b6103c8611e48565b348015610c1357600080fd5b506103c8610c22366004615619565b611e50565b348015610c3357600080fd5b50610438610c423660046151fe565b612407565b348015610c5357600080fd5b506104b6610c623660046151fe565b612412565b348015610c7357600080fd5b506103c8610c82366004615048565b612425565b348015610c9357600080fd5b506104386124a0565b34610cba576040516395b66fe960e01b815260040160405180910390fd5b610cd534610cc66124e1565b610cd0919061566a565b612515565b610ce033823461255e565b6040513481526001600160a01b0382169033907f3bc57f469ad6d10d7723ea226cd22bd2b9e527def2b529f6ab44645a166895829060200160405180910390a350565b610d2b6126f6565b6001600160a01b0316336001600160a01b031614610d67573360405163472511eb60e11b8152600401610d5e9190615217565b60405180910390fd5b610d7081612700565b6040516001600160a01b038216907f67b26a33f305cc027b2d45b2f6f418793afcd3e22f7376afa7be068ce18604e890600090a250565b6001610db1612737565b8114610de25780610dc0612737565b604051631cfd276760e31b815260048101929092526024820152604401610d5e565b610df5610df082600161566a565b6124aa565b610dfe8b612767565b7faf890c07e266df31e0725841eb0e85596a0caa1b17bbae5c0b206fdcc92d7ce18b604051610e2d9190615217565b60405180910390a1610e646040518060400160405280856001600160801b03168152602001846001600160801b031681525061279e565b610e738a8a8a8a8a8a8a6127f2565b610e80308c60001961294b565b7f1809e49bba43f2d39fa57894b50cd6ccb428cc438230e065cac3eb24a1355a7181600036604051610eb493929190615682565b60405180910390a15050505050505050505050565b6000610ed36124e1565b905090565b610ee06129ba565b6001600160a01b0316336001600160a01b031614610f13573360405163472511eb60e11b8152600401610d5e9190615217565b565b6000610f2233848461294b565b50600192915050565b610f336129ea565b6001600160a01b0316336001600160a01b031614610f66573360405163472511eb60e11b8152600401610d5e9190615217565b610f76610f716129ea565b6129f4565b610f136000612a3d565b6000610f8a612a7d565b6001600160a01b0316635a4091023360046040518363ffffffff1660e01b8152600401610fb89291906156b8565b60006040518083038186803b158015610fd057600080fd5b505afa158015610fe4573d6000803e3d6000fd5b50505050610ff3333085612aad565b50610ffc6129ba565b60405163107703ab60e01b8152600481018590526001600160a01b038481166024830152919091169063107703ab906044016020604051808303816000875af115801561104d573d6000803e3d6000fd5b505050506040513d601f19601f8201168201806040525081019061107191906156e3565b9392505050565b6000611082612b29565b6005015463ffffffff16919050565b6110996126f6565b6001600160a01b0316336001600160a01b0316146110cc573360405163472511eb60e11b8152600401610d5e9190615217565b6110d581612b57565b6040516001600160a01b038216907f1da4c245099590dc40be61880c9b97792f3694d970acc1e67ac0e6cc90f3780d90600090a250565b6000611116612b8e565b905060006111366111306801bc16d674ec80000084615716565b84612bbe565b90508061115657604051631036b5ad60e31b815260040160405180910390fd5b60008061116283612bd3565b81519193509150806111875760405163200149ad60e21b815260040160405180910390fd5b838111156111a857604051635993bd5760e01b815260040160405180910390fd5b60006111b2612c5b565b9050806111d257604051639be7315960e01b815260040160405180910390fd5b60005b828110156112225761121a8582815181106111f2576111f261572a565b602002602001015185838151811061120c5761120c61572a565b602002602001015184612c8b565b6001016111d5565b50611248611239836801bc16d674ec800000615740565b611243908861575f565b6130dc565b6000611252613125565b9050611266611261848361566a565b613155565b7f220ab8fd274cf58c09b0825ccf00e74ba4ce4117fd47285adc2183a635838f1b81611292858261566a565b6040805192835260208301919091520160405180910390a15050505050505050565b6000610ed3613183565b6112c66126f6565b6001600160a01b0316336001600160a01b0316146112f9573360405163472511eb60e11b8152600401610d5e9190615217565b61130281612a3d565b50565b6000610ed3613242565b611317613272565b6001600160a01b0316336001600160a01b03161461134a573360405163472511eb60e11b8152600401610d5e9190615217565b61136161135c36839003830183615776565b61327c565b6040805182358152602080840135908201527f5ab79ffcd89b6380c7fbdd89d02cfe3d9c53c99a85e150c2319075018d1aac5c91015b60405180910390a150565b6113aa614e9b565b6113b2612b29565b60408051610100810182528254815260018301546020820152600283015491810191909152600382015460608201526004820154608082015260059091015463ffffffff811660a083015260ff64010000000082048116151560c0840152600160281b90910416151560e0820152919050565b6000610ed36132bf565b6000610ed36132c9565b6000838361144782826132f9565b8380611466576040516336b216db60e21b815260040160405180910390fd5b86858061147283613425565b1015611491576040516351940b3960e11b815260040160405180910390fd5b6001600160a01b0388166114ca57604051637617407560e11b81526001600160a01b038a16600482015260006024820152604401610d5e565b6114d48988613430565b6114df898989612aad565b9998505050505050505050565b60006114f6612737565b81146115055780610dc0612737565b611513610df082600161566a565b61151c866129f4565b61152583613496565b6040516001600160a01b038416907f0cc5437d7c9c1d9eab549acbb533eea3e9868e9443dd75309ed5820b33a3774e90600090a2611562826134cd565b6040518281527fbd533e726baaf59b36f3914d950053f7e78f527057c97cd3f0043257fc0fc8849060200160405180910390a161159e89612b57565b6040516001600160a01b038a16907f1da4c245099590dc40be61880c9b97792f3694d970acc1e67ac0e6cc90f3780d90600090a26115db85613504565b6040516001600160a01b038616907f30f015a5d3c72c0a9414538199baa022323a483fa9e4ba2cd581596cf8ca042490600090a26116188461353b565b6040516001600160a01b038516907fffc0721ef0563a1b0a51a0dc92113025f33ca434ada9ee3eebff2f385d2a8f9a90600090a26116568a89613572565b61165f87611bb2565b7f1809e49bba43f2d39fa57894b50cd6ccb428cc438230e065cac3eb24a1355a718160003660405161169393929190615682565b60405180910390a150505050505050505050565b6116af6126f6565b6001600160a01b0316336001600160a01b0316146116e2573360405163472511eb60e11b8152600401610d5e9190615217565b6116eb816134cd565b6040518181527fbd533e726baaf59b36f3914d950053f7e78f527057c97cd3f0043257fc0fc88490602001611397565b6000610ed36135ee565b6000610ed361361e565b611737614eea565b610ed361364e565b6000610f2233848461175133886136da565b61175b919061566a565b61294b565b600061177361176e83613732565b613780565b92915050565b6000611783612b29565b60010154905090565b60008061179761364e565b905060006117a4826137b8565b90506117ee82600001516001600160401b03166117bf612b29565b546117ca919061566a565b83516117df906001600160401b0316846157a8565b6117e9908461575f565b613803565b9250505090565b6000610ed3613812565b6000610ed3612c5b565b600061181361364e565b51611827906001600160401b0316836157a8565b611773908361575f565b6118396126f6565b6001600160a01b0316336001600160a01b03161461186c573360405163472511eb60e11b8152600401610d5e9190615217565b61187581613504565b6040516001600160a01b038216907f30f015a5d3c72c0a9414538199baa022323a483fa9e4ba2cd581596cf8ca042490600090a250565b610ee0612c5b565b60606118be6129ba565b6001600160a01b0316635f2e5f0784846040518363ffffffff1660e01b81526004016118eb92919061580d565b600060405180830381865afa158015611908573d6000803e3d6000fd5b505050506040513d6000823e601f3d908101601f191682016040526110719190810190615844565b6000610ed36129ba565b6000610ed36126f6565b600061177382613425565b60008060008061195d61364e565b9050600061196a826137b8565b8251909150611982906001600160401b0316826157a8565b61198c908261575f565b945081604001516001600160401b031682602001516001600160401b0316866119b59190615740565b6119bf9190615740565b9350600182604001516001600160401b031683602001516001600160401b031684600001516001600160401b0316886119f8919061566a565b611a029190615740565b611a0c9190615740565b611a16919061575f565b92505050909192565b611a276126f6565b6001600160a01b0316336001600160a01b031614611a5a573360405163472511eb60e11b8152600401610d5e9190615217565b611a6381613842565b611a6c81613861565b7f8d2df192dd17edf92a7964b78aa322f3d717b2ab9de00651bee32bbc4c5da63a816040516113979190615195565b611aa3613272565b6001600160a01b0316336001600160a01b031614611ad6573360405163472511eb60e11b8152600401610d5e9190615217565b611aed611ae8368390038301836158e4565b6138ab565b7f25777eb44be046f64180acf8275f0ac2ec51e63a65a5f8a0f2f6d86ba25b74cf611b1b6020830183615971565b611b2b6040840160208501615971565b611b3b6060850160408601615971565b611b4b6080860160608701615971565b611b5b60a0870160808801615971565b60405161139795949392919061598c565b600061177382613967565b611b7f613272565b6001600160a01b0316336001600160a01b031614611bb2573360405163472511eb60e11b8152600401610d5e9190615217565b611bbb81613994565b6040516001600160a01b038216907fd3b5d1e0ffaeff528910f3663f0adace7694ab8241d58e17a91351ced2e0803190600090a250565b6000610ed36139cb565b6060610ed36139fb565b6000610ed3613125565b6000611c1a612b29565b54919050565b6060611c2a6129ba565b6001600160a01b0316637c044e5586868686600161ffff6040518763ffffffff1660e01b8152600401611c62969594939291906159be565b6000604051808303816000875af1158015611c81573d6000803e3d6000fd5b505050506040513d6000823e601f3d908101601f19168201604052611ca99190810190615a04565b95945050505050565b6000610ed3613ac1565b6040805180820190915260008082526020820152610ed3613af1565b6000610ed3611ce561364e565b6137b8565b6000610f22338484611cfc33886136da565b61175b919061575f565b60003383611d1482826132f9565b8380611d33576040516336b216db60e21b815260040160405180910390fd5b338580611d3f83613425565b1015611d5e576040516351940b3960e11b815260040160405180910390fd5b6001600160a01b038816611d8e57604051637617407560e11b815233600482015260006024820152604401610d5e565b611d99338989612aad565b98975050505050505050565b611dae81613b51565b61130281610c9c565b611dbf6126f6565b6001600160a01b0316336001600160a01b031614611df2573360405163472511eb60e11b8152600401610d5e9190615217565b6113028161279e565b6000610ed3612a7d565b6000610ed36129ea565b610f1333610c9c565b610ee0613242565b600061107183836136da565b6040805180820190915260008082526020820152610ed3613b78565b610ee06135ee565b611e586139cb565b6001600160a01b0316336001600160a01b031614611e8b573360405163472511eb60e11b8152600401610d5e9190615217565b6000611e9561364e565b9050611ea2818335613be6565b611ec25760405163a225656d60e01b815282356004820152602401610d5e565b611eca614f18565b6000611ed4612b29565b60038101546040840181905290915060608501351015611f19576040808301519051621ee1cf60e11b8152600481019190915260608501356024820152604401610d5e565b6040820151611f2c90606086013561575f565b608083015260028101546060830181905260408501351015611f7357606082015160408051636f24834360e01b815260048101929092528501356024820152604401610d5e565b611f7b613125565b611f8b60c0860160a08701615a99565b63ffffffff161180611fbb5750600581015463ffffffff16611fb360c0860160a08701615a99565b63ffffffff16105b1561201057611fd060c0850160a08601615a99565b611fd8613125565b6005830154604051632f776b1760e01b815263ffffffff93841660048201526024810192909252919091166044820152606401610d5e565b606082015161202390604086013561575f565b60a083015280546120379084908635613c43565b60c083015250612045613183565b815260a0810151608082015160009161205d9161566a565b1115612075576120758160a001518260800151613c7e565b61207d614e9b565b83358152602080850135908201526040808501359082015260608085013590820152608080850135908201526120b960c0850160a08601615a99565b63ffffffff1660a08201526120d5610100850160e08601615acf565b151560c08201526120ee61012085016101008601615acf565b151560e08201526120fe81613dab565b506000612109613af1565b905060006121208284600001518560c00151613e57565b905061212a613183565b602084018190528351116121bf57825161214590829061566a565b8360200151111561218d578251602084015160c0850151845160405163eb7a968960e01b81526004810194909452602484019290925260448301526064820152608401610d5e565b8251602084015161219e919061575f565b610120840180519190915251516121b5908261575f565b60e084015261225b565b60006121cf838560000151613e8b565b90506121df818560000151612bbe565b84516121eb919061575f565b8460200151101561223957835160208086015160c08701519186015160405163063bb83f60e11b8152610d5e9493919060040193845260208401929092526040830152606082015260800190565b6020840151845161224a919061575f565b612254908361566a565b60e0850152505b60e0830151156122b9576122728360e00151613ea0565b610120840180516020908101929092525190810151815190919061229790839061566a565b9052506101208301516020015160e0840180516122b590839061575f565b9052505b60e0830151156122f8576122d08360e00151613f68565b6101208401805160409081019290925251015160e0840180516122f490839061575f565b9052505b60e08301511561231a5761230f8360e0015161402e565b610120840151606001525b6101208301515115612336576101208301515161233690614100565b6123a5608086013561234b60c0880188615aec565b8080602002602001604051908101604052809392919081815260200183836020028082843760009201919091525061238e92505050610100890160e08a01615acf565b6123a06101208a016101008b01615acf565b614232565b6123ad61452d565b6123b56146b2565b6123c28360c001516146da565b7f49ac0d2bb2a688ca460f7993eb93eccd3b9c9188da6b0727e9a409cf8b105875858461012001516040516123f8929190615b7d565b60405180910390a15050505050565b600061177382613780565b600061177361241f61364e565b83613be6565b61242d6126f6565b6001600160a01b0316336001600160a01b031614612460573360405163472511eb60e11b8152600401610d5e9190615217565b61246981613496565b6040516001600160a01b038216907f0cc5437d7c9c1d9eab549acbb533eea3e9868e9443dd75309ed5820b33a3774e90600090a250565b6000610ed3612b8e565b6113026124d860017f82055909238c0f5e63d6f174068ebb8f51bcec9bd37de63bb68f6551feec0cfd61575f565b829055565b9055565b6000610ed361251160017f2b6136e423ab70d76431e2a635e877e16ea2dd9a895e054ad7f35f89d6c7b71161575f565b5490565b7f48f67c1dada0cab2163f6282292ad97ea97376cfed46bb3851654aaa630db72761253e6124e1565b60408051918252602082018490520160405180910390a161130281614790565b600061256a84836147be565b90506000612576612a7d565b9050836001600160a01b0316856001600160a01b031614156125f657604051632d20488160e11b81526001600160a01b03821690635a409102906125c19088906001906004016156b8565b60006040518083038186803b1580156125d957600080fd5b505afa1580156125ed573d6000803e3d6000fd5b505050506126ef565b604051632d20488160e11b81526001600160a01b03821690635a409102906126259088906001906004016156b8565b60006040518083038186803b15801561263d57600080fd5b505afa158015612651573d6000803e3d6000fd5b505060405163e838dfbb60e01b81526001600160a01b038416925063e838dfbb9150612681908790600401615217565b602060405180830381865afa15801561269e573d6000803e3d6000fd5b505050506040513d601f19601f820116820180604052508101906126c29190615c51565b156126e2578360405163e7d05e2760e01b8152600401610d5e9190615217565b6126ed858584612aad565b505b5050505050565b6000610ed361481d565b61270981613b51565b6113026124d860017ff4271262f3552a4108cde54dc75061de8de495709221d793b126e448522d6a8061575f565b6000610ed361251160017f82055909238c0f5e63d6f174068ebb8f51bcec9bd37de63bb68f6551feec0cfd61575f565b61277081613b51565b6113026124d860017fe458cbedf69109e7d57b7f8c96816615aac0017187d87abab9001d22db32bae461575f565b6127a78161484d565b805160208201516040517e4180017d3dd609da6980999655a6bd2591e313d31d6230b1889c369a9713a0926113979290916001600160801b0392831681529116602082015260400190565b61284e6040518060a00160405280896001600160401b03168152602001886001600160401b03168152602001876001600160401b03168152602001866001600160401b03168152602001856001600160401b03168152506138ab565b7f25777eb44be046f64180acf8275f0ac2ec51e63a65a5f8a0f2f6d86ba25b74cf878787878760405161288595949392919061598c565b60405180910390a16128aa60405180604001604052808481526020018381525061327c565b60408051838152602081018390527f5ab79ffcd89b6380c7fbdd89d02cfe3d9c53c99a85e150c2319075018d1aac5c910160405180910390a16128eb614e9b565b6128f361489f565b81526128fd6148cf565b602082015260006040820181905260608201819052608082015261291f6148ff565b63ffffffff1660a0820152600060c0820181905260e082015261294181613dab565b5050505050505050565b61295483613b51565b61295d82613b51565b61296883838361492f565b816001600160a01b0316836001600160a01b03167f8c5be1e5ebec7d5bd14f71427d1e84f3dd0314c0f7b2291e5b200ac8c7c3b925836040516129ad91815260200190565b60405180910390a3505050565b6000610ed361251160017fe458cbedf69109e7d57b7f8c96816615aac0017187d87abab9001d22db32bae461575f565b6000610ed3614986565b6129fd81613b51565b612a06816149b6565b6040516001600160a01b038216907f5a272403b402d892977df56625f4164ccaf70ca3863991c43ecfe76a6905b0a190600090a250565b612a46816149bf565b6040516001600160a01b038216907f2a0f8515de3fa34ef68b99300347b8793c01683350743e96fe440594528298f490600090a250565b6000610ed361251160017f867d8f1a5e39d11d5bebde854d5359a509530ad32450f581da63c06ec8d1a78061575f565b6000612acc8483612abd87613732565b612ac7919061575f565b6149c8565b612ae48383612ada86613732565b612ac7919061566a565b826001600160a01b0316846001600160a01b0316600080516020615f5f83398151915284604051612b1791815260200190565b60405180910390a35060019392505050565b60008061177360017fdbc0527c99b54cd325d6ce9eaae3a8413cd447b5205f37385f0ebc6551033c6d61575f565b612b6081613b51565b6113026124d860017f8e9e2a1d30fed357d8a000c1131fc77ed65d2052918caf1ccc6eb1e7af3d13b661575f565b6000610ed361251160017fbcfa5a69252c74010ad3e9ab18cfbdc116fcf85f084db1a8dc577a339fbee58b61575f565b6000818311612bcd5782611071565b50919050565b606080612bde613ac1565b6001600160a01b031663277c9d45846040518263ffffffff1660e01b8152600401612c0b91815260200190565b6000604051808303816000875af1158015612c2a573d6000803e3d6000fd5b505050506040513d6000823e601f3d908101601f19168201604052612c529190810190615d34565b91509150915091565b6000610ed361251160017fb649e50315f962b32d487e696a81b4828631b11f8424daaaa37e9e97766a2c4261575f565b6030835114612cad5760405163050cb55360e41b815260040160405180910390fd5b6060825114612ccf5760405163408ebd3960e01b815260040160405180910390fd5b6801bc16d674ec8000006000612ce9633b9aca0083615716565b90506000600286600060801b604051602001612d06929190615d97565b60408051601f1981840301815290829052612d2091615dc6565b602060405180830381855afa158015612d3d573d6000803e3d6000fd5b5050506040513d601f19601f82011682018060405250810190612d609190615de2565b90506000600280612d748860006040614a14565b604051612d819190615dc6565b602060405180830381855afa158015612d9e573d6000803e3d6000fd5b5050506040513d601f19601f82011682018060405250810190612dc19190615de2565b6002612dd9896040612dd481606061575f565b614a14565b604051612dec9190600090602001615dfb565b60408051601f1981840301815290829052612e0691615dc6565b602060405180830381855afa158015612e23573d6000803e3d6000fd5b5050506040513d601f19601f82011682018060405250810190612e469190615de2565b60408051602081019390935282015260600160408051601f1981840301815290829052612e7291615dc6565b602060405180830381855afa158015612e8f573d6000803e3d6000fd5b5050506040513d601f19601f82011682018060405250810190612eb29190615de2565b905060006002808488604051602001612ed5929190918252602082015260400190565b60408051601f1981840301815290829052612eef91615dc6565b602060405180830381855afa158015612f0c573d6000803e3d6000fd5b5050506040513d601f19601f82011682018060405250810190612f2f9190615de2565b6002612f3a87614ad7565b604080516020810192909252810186905260600160408051601f1981840301815290829052612f6891615dc6565b602060405180830381855afa158015612f85573d6000803e3d6000fd5b5050506040513d601f19601f82011682018060405250810190612fa89190615de2565b60408051602081019390935282015260600160408051601f1981840301815290829052612fd491615dc6565b602060405180830381855afa158015612ff1573d6000803e3d6000fd5b5050506040513d601f19601f820116820180604052508101906130149190615de2565b90506000613022864761575f565b905061302c614b44565b6001600160a01b03166322895118878b8a60405160200161304f91815260200190565b6040516020818303038152906040528c876040518663ffffffff1660e01b815260040161307f9493929190615e1d565b6000604051808303818588803b15801561309857600080fd5b505af11580156130ac573d6000803e3d6000fd5b50505050508047146130d157604051638051a6bb60e01b815260040160405180910390fd5b505050505050505050565b7f86fd21e9b5bd76b20471c7f93a82aa4e25c37d48b179bda0a4d1a45e22a842f4613105612b8e565b60408051918252602082018490520160405180910390a161130281614b74565b6000610ed361251160017fc77078e3530c08cdb2440817c81de4836500b4708ea4d15672b7fe98956423a861575f565b6113026124d860017fc77078e3530c08cdb2440817c81de4836500b4708ea4d15672b7fe98956423a861575f565b60008061318e612b29565b600581015490915063ffffffff1660006131a6613125565b90508082101561321b576801bc16d674ec8000006131c4838361575f565b6131ce9190615740565b6131d661361e565b6131de612b8e565b6131e66124e1565b86600101546131f5919061566a565b6131ff919061566a565b613209919061566a565b613213919061566a565b935050505090565b61322361361e565b61322b612b8e565b6132336124e1565b85600101546131ff919061566a565b6000610ed361251160017ff4271262f3552a4108cde54dc75061de8de495709221d793b126e448522d6a8061575f565b6000610ed361193a565b60006132a960017ff81b149de6749a3f46464b2cce61e24462f67599ea4a5ce028aaf4ab1521f96e61575f565b8251815560209092015160019092019190915550565b6000610ed3614ba2565b6000610ed361251160017f094efef62d2ce60c14ffacd35a1b50546d3a9d503aff1df040176fffd6c92a3761575f565b6000613303612a7d565b60405163e838dfbb60e01b81529091506001600160a01b0382169063e838dfbb90613332908690600401615217565b602060405180830381865afa15801561334f573d6000803e3d6000fd5b505050506040513d601f19601f820116820180604052508101906133739190615c51565b15613393578260405163e7d05e2760e01b8152600401610d5e9190615217565b60405163e838dfbb60e01b81526001600160a01b0382169063e838dfbb906133bf908590600401615217565b602060405180830381865afa1580156133dc573d6000803e3d6000fd5b505050506040513d601f19601f820116820180604052508101906134009190615c51565b15613420578160405163e7d05e2760e01b8152600401610d5e9190615217565b505050565b600061177382613732565b600061343c83336136da565b90508181101561347e57604051637b936de360e01b81526001600160a01b03841660048201523360248201526044810182905260648101839052608401610d5e565b600019811461342057613420833361175b858561575f565b61349f81613b51565b6113026124d860017f082b6d18de7b10e438e6b1002141db737519cb4ceed679bc815e3aac00cd222761575f565b6134d681614bd2565b6113026124d860017f094efef62d2ce60c14ffacd35a1b50546d3a9d503aff1df040176fffd6c92a3761575f565b61350d81613b51565b6113026124d860017f867d8f1a5e39d11d5bebde854d5359a509530ad32450f581da63c06ec8d1a78061575f565b61354481613b51565b6113026124d860017f3f075dea7ef99b1e5db245018e5e4ed8d2a0d93953f5932b2176bef59bd6906161575f565b61357b82614bf5565b6040516001600160a01b038316907e043cf7635f276413ae358250286a479a631abd9d74d57d4aa0bb87ebc7d11790600090a26135b781614c2c565b6040518181527f4c86ba184ea1a1558f84835ca34f6d67e222e8ee5cc4f324b8861dda4cf1740c9060200160405180910390a15050565b6000610ed361251160017f8e9e2a1d30fed357d8a000c1131fc77ed65d2052918caf1ccc6eb1e7af3d13b661575f565b6000610ed361251160017f850308dd4e453a2a1bc3efb444560401d95c1a8bdea5b35c5c79531cd2241f1d61575f565b613656614eea565b600061368360017fd84ee2c84c954c65bef1459fe03b761a42f49234527e3cd8fd9dce87cb83742b61575f565b6040805160a08101825282546001600160401b038082168352600160401b820481166020840152600160801b8204811693830193909352600160c01b90048216606082015260019092015416608082015292915050565b60008061370860017fc852254d5b703a16bb13b3e233a335d6459c5da5db0ca732d7a684ee0540784761575f565b6001600160a01b039485166000908152602091825260408082209590961681529390525050205490565b60008061376060017f0fb4a5ac9287f4f508aa7253ee2d57c6a228b1b30e210d73fffd59389d3a883861575f565b6001600160a01b0390931660009081526020939093525050604090205490565b60008061378b614ba2565b90508061379b5750600092915050565b806137a4613183565b6137ae9085615740565b6110719190615716565b600081602001516001600160401b031682604001516001600160401b031683606001516001600160401b0316426137ef919061575f565b6137f99190615716565b6117739190615716565b6000818310612bcd5782611071565b6000610ed361251160017f082b6d18de7b10e438e6b1002141db737519cb4ceed679bc815e3aac00cd222761575f565b805161130257604051638d46fe0560e01b815260040160405180910390fd5b600061388e60017fb63f3482ec84cb93d74a71645ad2e9e896fa02723e42170b4aad20a4bed6cdd661575f565b825190915081906138a59082906020860190614f93565b50505050565b60006138d860017fd84ee2c84c954c65bef1459fe03b761a42f49234527e3cd8fd9dce87cb83742b61575f565b825181546020850151604086015160608701516001600160401b039485166001600160801b031990941693909317600160401b92851692909202919091176001600160801b0316600160801b918416919091026001600160c01b031617600160c01b918316919091021782556080909301516001909101805467ffffffffffffffff1916919093161790915550565b600080613972614ba2565b9050806139825750600092915050565b61398a613183565b6137ae8285615740565b61399d81613b51565b6113026124d860017fc8cbea9407c380ae944f052b5a442330057683c5abdbd453493f9750806afecb61575f565b6000610ed361251160017fc8cbea9407c380ae944f052b5a442330057683c5abdbd453493f9750806afecb61575f565b60606000613a2a60017fb63f3482ec84cb93d74a71645ad2e9e896fa02723e42170b4aad20a4bed6cdd661575f565b805490915081908190613a3c90615e68565b80601f0160208091040260200160405190810160405280929190818152602001828054613a6890615e68565b8015613ab55780601f10613a8a57610100808354040283529160200191613ab5565b820191906000526020600020905b815481529060010190602001808311613a9857829003601f168201915b50505050509250505090565b6000610ed361251160017f3f075dea7ef99b1e5db245018e5e4ed8d2a0d93953f5932b2176bef59bd6906161575f565b60408051808201909152600080825260208201526000613b3260017ff81b149de6749a3f46464b2cce61e24462f67599ea4a5ce028aaf4ab1521f96e61575f565b6040805180820190915281548152600190910154602082015292915050565b6001600160a01b0381166113025760405163f6b2911f60e01b815260040160405180910390fd5b60408051808201909152600080825260208201526000613bb960017fc305db9f63aeed94a45229ff5ab4174e72b223a38ab4c5e8f518ee4f437918d161575f565b6040805180820190915290546001600160801b038082168352600160801b90910416602082015292915050565b600082608001516001600160401b031682613c01919061566a565b613c0a846137b8565b10158015613c1f5750613c1b612b29565b5482115b801561107157508251613c3b906001600160401b0316836157a8565b159392505050565b600083602001518460400151613c599190615e9d565b6001600160401b0316613c6c848461575f565b613c769190615740565b949350505050565b476000613c8b838561566a565b9050613c95612c5b565b6001600160a01b031663ea74f479826040518263ffffffff1660e01b8152600401613cc291815260200190565b600060405180830381600087803b158015613cdc57600080fd5b505af1158015613cf0573d6000803e3d6000fd5b5050505060008247613d02919061575f565b9050613d0e848661566a565b8114613d4257613d1e848661566a565b6040516349a1938b60e01b8152600481019190915260248101829052604401610d5e565b8415613d5457613d5485610cc66124e1565b8315613d7557613d7584613d6661361e565b613d70919061566a565b614c78565b60408051868152602081018690527fcb5410dc8f29b2f498e023c3f9237dbd600255a717edf94a6072bcd03b0c773c91016123f8565b6000613dd860017fdbc0527c99b54cd325d6ce9eaae3a8413cd447b5205f37385f0ebc6551033c6d61575f565b825181556020830151600182015560408301516002820155606083015160038201556080830151600482015560a08301516005909101805460c085015160e0909501511515600160281b0265ff0000000000199515156401000000000264ffffffffff1990921663ffffffff9094169390931717939093161790915550565b6000613e696301e13380612710615740565b84518390613e779086615740565b613e819190615740565b613c769190615716565b60006127108360200151836137ae9190615740565b600080613eab6135ee565b60405163c8a6dfd360e01b81526004810185905290915047906001600160a01b0383169063c8a6dfd390602401600060405180830381600087803b158015613ef257600080fd5b505af1158015613f06573d6000803e3d6000fd5b5050505060008147613f18919061575f565b90508015613f2c57613f2c81610cc66124e1565b6040518181527fda841d3042d792e2509a333b9dcbd4b3dd9b9047d382011f8788fab90ca7e3c7906020015b60405180910390a1949350505050565b600047613f736129ba565b6001600160a01b0316630c779401846040518263ffffffff1660e01b8152600401613fa091815260200190565b600060405180830381600087803b158015613fba57600080fd5b505af1158015613fce573d6000803e3d6000fd5b5050505060008147613fe0919061575f565b90508015613ff457613ff481610cc66124e1565b6040518181527f4e484734eb4d444bfa106f917d05d9ceb8ce18bf516c85d7aeb9b322925339f99060200160405180910390a19392505050565b600080614039613242565b90506001600160a01b0381166140525750600092915050565b604051638ede6b6b60e01b81526004810184905247906001600160a01b03831690638ede6b6b90602401600060405180830381600087803b15801561409657600080fd5b505af11580156140aa573d6000803e3d6000fd5b50505050600081476140bc919061575f565b905080156140d0576140d081610cc66124e1565b6040518181527fd500b67e5bd8019c0af744cadeec120d1b5e3d3a3a011f18cf182aa4c97947b690602001613f58565b600061410a6132bf565b90508061412a57604051630d35acd760e21b815260040160405180910390fd5b6000614134613183565b905060006141406132c9565b905060008161414f8587615740565b6141599190615740565b905060006141678387615740565b61417361271086615740565b61417d919061575f565b905060008115614196576141918284615716565b614199565b60005b905080156142295760006141ab613812565b90506141b78183614cc1565b60006141c16132bf565b905060006141cf8a8961575f565b60408051828152602081018c90529081018a9052606081018490529091506001600160a01b038416907f3d1669e813a9845c288f0e1f642a4343a451103b87886d12de37e63b39bbd9429060800160405180910390a25050505b50505050505050565b61423a613ac1565b6001600160a01b031663b405e17484614251613125565b6040518363ffffffff1660e01b815260040161426e929190615ecc565b600060405180830381600087803b15801561428857600080fd5b505af115801561429c573d6000803e3d6000fd5b5050505080156142ab576138a5565b60006142b56132bf565b905080156126ef5760006142c761361e565b905060006142d36124e1565b905060006143436142e26129ba565b6001600160a01b0316630d8d2a546040518163ffffffff1660e01b8152600401602060405180830381865afa15801561431f573d6000803e3d6000fd5b505050506040513d601f19601f8201168201806040525081019061176e9190615de2565b905080614350898561566a565b1015612941578580156143635750600082115b156143b457600061438883856143798c8661575f565b614383919061575f565b612bbe565b905080156143b25761439a818561566a565b93506143a584614c78565b6143b2610cd0828561575f565b505b60006143be613ac1565b9050600080826001600160a01b0316634a3c63bb6040518163ffffffff1660e01b81526004016040805180830381865afa158015614400573d6000803e3d6000fd5b505050506040513d601f19601f820116820180604052508101906144249190615f1a565b915063ffffffff16915060006801bc16d674ec800000838311614448576000614452565b614452848461575f565b61445c9190615740565b9050848161446a8e8a61566a565b614474919061566a565b101561451f5760006144ad8261448a8f8b61566a565b614494919061566a565b61449e908861575f565b6801bc16d674ec800000614d1e565b9050846001600160a01b0316632d1fc39d826144c7613125565b6040516001600160e01b031960e085901b16815260048101929092526024820152604401600060405180830381600087803b15801561450557600080fd5b505af1158015614519573d6000803e3d6000fd5b50505050505b505050505050505050505050565b60006145376129ba565b90506000614543613183565b9050600061454f6132bf565b90506000821180156145615750600081115b15613420576000836001600160a01b0316630d8d2a546040518163ffffffff1660e01b8152600401602060405180830381865afa1580156145a6573d6000803e3d6000fd5b505050506040513d601f19601f820116820180604052508101906145ca9190615de2565b90508060006145d882613780565b905060006145e461361e565b9050808211156145fd578091506145fa82613967565b92505b60408051858152602081018590529081018390527f709263092d8d9fef472d907900405b5edae3d76f8ff4354858025b18424d71019060600160405180910390a1811561422957614651613d70838361575f565b61465b8784614d51565b60405163b30d8bb760e01b8152600481018490526001600160a01b0388169063b30d8bb79084906024016000604051808303818588803b15801561469e57600080fd5b505af115801561451f573d6000803e3d6000fd5b60006146bc61361e565b90508015611302576146d081610cc66124e1565b6113026000614c78565b60006146e4613183565b905060006146f06124e1565b905060006146fc613b78565b8051909150600090614740906001600160801b031661271061471e868861575f565b85602001516001600160801b03166147369190615740565b6117e99190615716565b90506000614765620151806147558885615740565b61475f9190615716565b85612bbe565b905080156126ed5761478381614779612b8e565b611243919061566a565b6126ed610cd0828661575f565b6113026124d860017f2b6136e423ab70d76431e2a635e877e16ea2dd9a895e054ad7f35f89d6c7b71161575f565b600080826147ca613183565b6147d4919061575f565b9050806147ed578291506147e88484614cc1565b614816565b806147f66132bf565b6148009085615740565b61480a9190615716565b91506148168483614cc1565b5092915050565b6000610ed361251160017fb5b37715a3e346e996104f0086703f19825def429233930fd9399c38e05fb11361575f565b600061487a60017fc305db9f63aeed94a45229ff5ab4174e72b223a38ab4c5e8f518ee4f437918d161575f565b82516020909301516001600160801b03908116600160801b0293169290921790915550565b6000610ed361251160017fd7f2d45e512a86049f7a113657b39731b6b558609584243063a52cd31a8eb52961575f565b6000610ed361251160017ffedfd2c285a57fb23bf45a3fe9ac02d36a76ebb72801b1c8aaf553d74e9d465361575f565b6000610ed361251160017f0f1e7733641e4d843128fea0d2ec90d3d06a40b0fe244ff603d8c1aa200dc0f961575f565b600061495c60017fc852254d5b703a16bb13b3e233a335d6459c5da5db0ca732d7a684ee0540784761575f565b6001600160a01b039485166000908152602091825260408082209590961681529390525091902055565b6000610ed361251160017f6e6ab8b7c7aaba79eef8cc633522d606bb008c101cf9832c9ad05d10a984728161575f565b61130281614da1565b61130281614dd8565b60006149f560017f0fb4a5ac9287f4f508aa7253ee2d57c6a228b1b30e210d73fffd59389d3a883861575f565b6001600160a01b03909316600090815260209390935250604090912055565b60608182601f011015614a3a576040516323d5783d60e11b815260040160405180910390fd5b614a44828461566a565b84511015614a6557604051633b99b53d60e01b815260040160405180910390fd5b606082158015614a845760405191506000825260208201604052614ace565b6040519150601f8416801560200281840101858101878315602002848b0101015b81831015614abd578051835260209283019201614aa5565b5050858452601f01601f1916604052505b50949350505050565b603881901c60ff908116603083901c8216602884901c8316602085901c8416601886901c8516601087901c8616600888811c9790971688881b61ff001617871b17861b17851b17841b17831b1790911b17604082901c8015614b3b57614b3b615f48565b5060c01b919050565b6000610ed361251160017f35efb61d8784060218d9d6aa40eae55904de43779c1afc79c74dfefcfdf9126061575f565b6113026124d860017fbcfa5a69252c74010ad3e9ab18cfbdc116fcf85f084db1a8dc577a339fbee58b61575f565b6000610ed361251160017f6b842b424335d94ccad97e54548dfa02673c1268aba38d3c3c32d28c8988b70b61575f565b612710811115611302576040516358d620b360e01b815260040160405180910390fd5b614bfe81613b51565b6113026124d860017f35efb61d8784060218d9d6aa40eae55904de43779c1afc79c74dfefcfdf9126061575f565b80614c4a5760405163a9cb9e0d60e01b815260040160405180910390fd5b6113026124d860017fb649e50315f962b32d487e696a81b4828631b11f8424daaaa37e9e97766a2c4261575f565b7f215c2b83e8c232e42091088056ab75d2ff643855c32997024f786cddb22d2290614ca161361e565b60408051918252602082018490520160405180910390a161130281614e06565b614cdc81614ccd614ba2565b614cd7919061566a565b614e34565b614cea8282612ada85613732565b6040518181526001600160a01b03831690600090600080516020615f5f833981519152906020015b60405180910390a35050565b600080614d2b83856157a8565b11614d37576000614d3a565b60015b60ff16614d478385615716565b611071919061566a565b614d6781614d5d614ba2565b614cd7919061575f565b614d758282612abd85613732565b6040518181526000906001600160a01b03841690600080516020615f5f83398151915290602001614d12565b614daa81613b51565b6113026124d860017fb5b37715a3e346e996104f0086703f19825def429233930fd9399c38e05fb11361575f565b6113026124d860017f6e6ab8b7c7aaba79eef8cc633522d606bb008c101cf9832c9ad05d10a984728161575f565b6113026124d860017f850308dd4e453a2a1bc3efb444560401d95c1a8bdea5b35c5c79531cd2241f1d61575f565b614e3d81614e6d565b6040518181527fc80ea35a3f9016535e5b7c87746740c5045afe42188d02c5786eb97495c2f42990602001611397565b6113026124d860017f6b842b424335d94ccad97e54548dfa02673c1268aba38d3c3c32d28c8988b70b61575f565b6040518061010001604052806000815260200160008152602001600081526020016000815260200160008152602001600063ffffffff1681526020016000151581526020016000151581525090565b6040805160a08101825260008082526020820181905291810182905260608101829052608081019190915290565b604051806101400160405280600081526020016000815260200160008152602001600081526020016000815260200160008152602001600081526020016000815260200160008152602001614f8e6040518060800160405280600081526020016000815260200160008152602001600081525090565b905290565b828054614f9f90615e68565b90600052602060002090601f016020900481019282614fc15760008555615007565b82601f10614fda57805160ff1916838001178555615007565b82800160010185558215615007579182015b82811115615007578251825591602001919060010190614fec565b50615013929150615017565b5090565b5b808211156150135760008155600101615018565b80356001600160a01b038116811461504357600080fd5b919050565b60006020828403121561505a57600080fd5b6110718261502c565b80356001600160401b038116811461504357600080fd5b80356001600160801b038116811461504357600080fd5b6000806000806000806000806000806101408b8d0312156150b157600080fd5b6150ba8b61502c565b99506150c860208c01615063565b98506150d660408c01615063565b97506150e460608c01615063565b96506150f260808c01615063565b955061510060a08c01615063565b945060c08b0135935060e08b0135925061511d6101008c0161507a565b915061512c6101208c0161507a565b90509295989b9194979a5092959850565b60005b83811015615158578181015183820152602001615140565b838111156138a55750506000910152565b6000815180845261518181602086016020860161513d565b601f01601f19169290920160200192915050565b6020815260006110716020830184615169565b600080604083850312156151bb57600080fd5b6151c48361502c565b946020939093013593505050565b600080604083850312156151e557600080fd5b823591506151f56020840161502c565b90509250929050565b60006020828403121561521057600080fd5b5035919050565b6001600160a01b0391909116815260200190565b600060408284031215612bcd57600080fd5b60008060006060848603121561525257600080fd5b61525b8461502c565b92506152696020850161502c565b9150604084013590509250925092565b60008060008060008060008060006101208a8c03121561529857600080fd5b6152a18a61502c565b98506152af60208b0161502c565b975060408a013596506152c460608b0161502c565b95506152d260808b0161502c565b94506152e060a08b0161502c565b93506152ee60c08b0161502c565b92506152fc60e08b0161502c565b91506101008a013590509295985092959850929598565b60008083601f84011261532557600080fd5b5081356001600160401b0381111561533c57600080fd5b6020830191508360208260051b850101111561535757600080fd5b9250929050565b6000806020838503121561537157600080fd5b82356001600160401b0381111561538757600080fd5b61539385828601615313565b90969095509350505050565b6020808252825182820181905260009190848201906040850190845b818110156153da57835160070b835292840192918401916001016153bb565b50909695505050505050565b634e487b7160e01b600052604160045260246000fd5b604080519081016001600160401b038111828210171561541e5761541e6153e6565b60405290565b604051601f8201601f191681016001600160401b038111828210171561544c5761544c6153e6565b604052919050565b60006001600160401b0382111561546d5761546d6153e6565b50601f01601f191660200190565b60006020828403121561548d57600080fd5b81356001600160401b038111156154a357600080fd5b8201601f810184136154b457600080fd5b80356154c76154c282615454565b615424565b8181528560208385010111156154dc57600080fd5b81602084016020830137600091810160200191909152949350505050565b600060a08284031215612bcd57600080fd5b6000806000806040858703121561552257600080fd5b84356001600160401b038082111561553957600080fd5b61554588838901615313565b9096509450602087013591508082111561555e57600080fd5b5061556b87828801615313565b95989497509550505050565b6020808252825182820181905260009190848201906040850190845b818110156153da57835160ff1683529284019291840191600101615593565b6000604082840312156155c457600080fd5b6155cc6153fc565b6155d58361507a565b81526155e36020840161507a565b60208201529392505050565b6000806040838503121561560257600080fd5b61560b8361502c565b91506151f56020840161502c565b60006020828403121561562b57600080fd5b81356001600160401b0381111561564157600080fd5b8201610120818503121561107157600080fd5b634e487b7160e01b600052601160045260246000fd5b6000821982111561567d5761567d615654565b500190565b83815260406020820152816040820152818360608301376000818301606090810191909152601f909201601f1916010192915050565b6001600160a01b03929092168252602082015260400190565b63ffffffff8116811461130257600080fd5b6000602082840312156156f557600080fd5b8151611071816156d1565b634e487b7160e01b600052601260045260246000fd5b60008261572557615725615700565b500490565b634e487b7160e01b600052603260045260246000fd5b600081600019048311821515161561575a5761575a615654565b500290565b60008282101561577157615771615654565b500390565b60006040828403121561578857600080fd5b6157906153fc565b82358152602083013560208201528091505092915050565b6000826157b7576157b7615700565b500690565b8035615043816156d1565b8183526000602080850194508260005b858110156158025781356157ea816156d1565b63ffffffff16875295820195908201906001016157d7565b509495945050505050565b602081526000613c766020830184866157c7565b60006001600160401b0382111561583a5761583a6153e6565b5060051b60200190565b6000602080838503121561585757600080fd5b82516001600160401b0381111561586d57600080fd5b8301601f8101851361587e57600080fd5b805161588c6154c282615821565b81815260059190911b820183019083810190878311156158ab57600080fd5b928401925b828410156158d95783518060070b81146158ca5760008081fd5b825292840192908401906158b0565b979650505050505050565b600060a082840312156158f657600080fd5b60405160a081018181106001600160401b0382111715615918576159186153e6565b60405261592483615063565b815261593260208401615063565b602082015261594360408401615063565b604082015261595460608401615063565b606082015261596560808401615063565b60808201529392505050565b60006020828403121561598357600080fd5b61107182615063565b6001600160401b0395861681529385166020850152918416604084015283166060830152909116608082015260a00190565b6080815260006159d260808301888a6157c7565b82810360208401526159e58187896157c7565b9415156040840152505061ffff91909116606090910152949350505050565b60006020808385031215615a1757600080fd5b82516001600160401b03811115615a2d57600080fd5b8301601f81018513615a3e57600080fd5b8051615a4c6154c282615821565b81815260059190911b82018301908381019087831115615a6b57600080fd5b928401925b828410156158d957835160ff81168114615a8a5760008081fd5b82529284019290840190615a70565b600060208284031215615aab57600080fd5b8135611071816156d1565b801515811461130257600080fd5b803561504381615ab6565b600060208284031215615ae157600080fd5b813561107181615ab6565b6000808335601e19843603018112615b0357600080fd5b8301803591506001600160401b03821115615b1d57600080fd5b6020019150600581901b360382131561535757600080fd5b6000808335601e19843603018112615b4c57600080fd5b83016020810192503590506001600160401b03811115615b6b57600080fd5b8060051b360383131561535757600080fd5b60a08152823560a0820152602083013560c0820152604083013560e08201526000610100606085013581840152610120608086013581850152615bc260a087016157bc565b63ffffffff16610140850152615bdb60c0870187615b35565b82610160870152615bf16101c0870182846157c7565b92505050615c0160e08701615ac4565b1515610180850152615c14868301615ac4565b8015156101a08601529150915061107190506020830184805182526020810151602083015260408101516040830152606081015160608301525050565b600060208284031215615c6357600080fd5b815161107181615ab6565b600082601f830112615c7f57600080fd5b81516020615c8f6154c283615821565b82815260059290921b84018101918181019086841115615cae57600080fd5b8286015b84811015615d295780516001600160401b03811115615cd15760008081fd5b8701603f81018913615ce35760008081fd5b848101516040615cf56154c283615454565b8281528b82848601011115615d0a5760008081fd5b615d198389830184870161513d565b8652505050918301918301615cb2565b509695505050505050565b60008060408385031215615d4757600080fd5b82516001600160401b0380821115615d5e57600080fd5b615d6a86838701615c6e565b93506020850151915080821115615d8057600080fd5b50615d8d85828601615c6e565b9150509250929050565b60008351615da981846020880161513d565b6001600160801b0319939093169190920190815260100192915050565b60008251615dd881846020870161513d565b9190910192915050565b600060208284031215615df457600080fd5b5051919050565b60008351615e0d81846020880161513d565b9190910191825250602001919050565b608081526000615e306080830187615169565b8281036020840152615e428187615169565b90508281036040840152615e568186615169565b91505082606083015295945050505050565b600181811c90821680615e7c57607f821691505b60208210811415612bcd57634e487b7160e01b600052602260045260246000fd5b60006001600160401b0380831681851681830481118215151615615ec357615ec3615654565b02949350505050565b604080825283519082018190526000906020906060840190828701845b82811015615f0b57815163ffffffff1684529284019290840190600101615ee9565b50505092019290925292915050565b60008060408385031215615f2d57600080fd5b8251615f38816156d1565b6020939093015192949293505050565b634e487b7160e01b600052600160045260246000fdfeddf252ad1be2c89b69c2b068fc378daa952ba7f163c4a11628f55a4df523b3efa264697066735822122075e48ff7ca1ef56a4380c2b504633a9f2bf34000bc77bdf03103b2444951f22564736f6c634300080a0033"
        ],
        "deployedBytecode": [
            "0x60806040526004361061026b5760003560e01c80635639671511610144578063a9059cbb116100b6578063d04681561161007a578063d0468156146106e6578063d0e30db0146106fb578063dd62ed3e14610703578063efd6034714610723578063f79c3f021461072b578063fb5b82d01461074b5761027b565b8063a9059cbb14610669578063ac232bde14610689578063bf15af561461069c578063c5eff3d0146106b1578063cc48cd31146106c65761027b565b80637adbf973116101085780637adbf973146105bc578063833b1fce146105dc57806387f2adfb146105f157806395d89b41146106065780639b498e2614610634578063a457c2d7146106495761027b565b8063563967151461053257806358bf3c7f146105475780636e9960c31461056757806370a082311461057c578063799a19541461059c5761027b565b806323b872dd116101dd57806336bf3325116101a157806336bf33251461049657806339509351146104b35780633af9e669146104d357806346425ef0146104f35780635022820114610508578063540bc5ea1461051d5761027b565b806323b872dd146103f8578063281a312214610418578063291206f6146104385780632cb562e114610458578063313ce5671461047a5761027b565b80631311cf8d1161022f5780631311cf8d1461035957806313d86aed14610379578063143a08d414610399578063147bf6c4146103ae57806318160ddd146103ce5780631bcbfaba146103e35761027b565b806304843a171461029457806306fdde03146102bc578063095ea7b3146102ff5780630e18b6811461032f578063107d7fa0146103445761027b565b3661027b576102793361076b565b005b60405163574b16a760e11b815260040160405180910390fd5b3480156102a057600080fd5b506102a96107f2565b6040519081526020015b60405180910390f35b3480156102c857600080fd5b50604080518082019091526011815270098d2e2ead2c840a6e8c2d6cac8408aa89607b1b60208201525b6040516102b39190612ae6565b34801561030b57600080fd5b5061031f61031a366004612b15565b610801565b60405190151581526020016102b3565b34801561033b57600080fd5b50610279610857565b34801561035057600080fd5b506102a96108b7565b34801561036557600080fd5b50610279610374366004612b3f565b6108c1565b34801561038557600080fd5b50610279610394366004612b5a565b61093c565b3480156103a557600080fd5b506102a9610af5565b3480156103ba57600080fd5b506102796103c9366004612b3f565b610aff565b3480156103da57600080fd5b506102a9610b46565b3480156103ef57600080fd5b506102a9610b50565b34801561040457600080fd5b5061031f610413366004612b73565b610b5a565b34801561042457600080fd5b50610279610433366004612baf565b610c0d565b34801561044457600080fd5b50610279610453366004612b5a565b610def565b34801561046457600080fd5b5061046d610e69565b6040516102b39190612c49565b34801561048657600080fd5b50604051601281526020016102b3565b3480156104a257600080fd5b506102a96801bc16d674ec80000081565b3480156104bf57600080fd5b5061031f6104ce366004612b15565b610e73565b3480156104df57600080fd5b506102a96104ee366004612b3f565b610ee3565b3480156104ff57600080fd5b506102a9610efc565b34801561051457600080fd5b5061046d610f06565b34801561052957600080fd5b506102a9606081565b34801561053e57600080fd5b506102a9610f10565b34801561055357600080fd5b50610279610562366004612b3f565b610f1a565b34801561057357600080fd5b5061046d610f95565b34801561058857600080fd5b506102a9610597366004612b3f565b610f9f565b3480156105a857600080fd5b506102a96105b7366004612b5a565b610faa565b3480156105c857600080fd5b506102796105d7366004612b3f565b610fb5565b3480156105e857600080fd5b5061046d611030565b3480156105fd57600080fd5b506102a961103a565b34801561061257600080fd5b50604080518082019091526005815264098e68aa8960db1b60208201526102f2565b34801561064057600080fd5b5061046d611044565b34801561065557600080fd5b5061031f610664366004612b15565b61104e565b34801561067557600080fd5b5061031f610684366004612b15565b611066565b610279610697366004612b3f565b611105565b3480156106a857600080fd5b506102a9603081565b3480156106bd57600080fd5b5061046d611117565b3480156106d257600080fd5b506102796106e1366004612c5d565b611121565b3480156106f257600080fd5b5061046d61129b565b6102796112a5565b34801561070f57600080fd5b506102a961071e366004612c8f565b6112ae565b6102796112c1565b34801561073757600080fd5b506102a9610746366004612b5a565b6112fc565b34801561075757600080fd5b50610279610766366004612b3f565b611307565b34610789576040516395b66fe960e01b815260040160405180910390fd5b6107a434610795611382565b61079f9190612cd8565b6113b6565b6107af3382346113e9565b6040513481526001600160a01b0382169033907f3bc57f469ad6d10d7723ea226cd22bd2b9e527def2b529f6ab44645a166895829060200160405180910390a350565b60006107fc611382565b905090565b600061080e338484611583565b6040518281526001600160a01b0384169033907f8c5be1e5ebec7d5bd14f71427d1e84f3dd0314c0f7b2291e5b200ac8c7c3b9259060200160405180910390a350600192915050565b61085f6115da565b6001600160a01b0316336001600160a01b03161461089b573360405163472511eb60e11b81526004016108929190612c49565b60405180910390fd5b6108ab6108a66115da565b6115e4565b6108b5600061162d565b565b60006107fc61166d565b6108c961169d565b6001600160a01b0316336001600160a01b0316146108fc573360405163472511eb60e11b81526004016108929190612c49565b610905816116a7565b6040516001600160a01b038216907f1da4c245099590dc40be61880c9b97792f3694d970acc1e67ac0e6cc90f3780d90600090a250565b6109446116d5565b6001600160a01b0316336001600160a01b031614610977573360405163472511eb60e11b81526004016108929190612c49565b6000610981611382565b905060006109a161099b6801bc16d674ec80000084612cf0565b846116df565b9050806109c157604051631036b5ad60e31b815260040160405180910390fd5b6000806109cd836116f4565b81519193509150806109f25760405163200149ad60e21b815260040160405180910390fd5b83811115610a1357604051635993bd5760e01b815260040160405180910390fd5b8151818114610a35576040516322e5ce4360e21b815260040160405180910390fd5b6000610a3f61177c565b905080610a5f57604051639be7315960e01b815260040160405180910390fd5b60005b83811015610aaf57610aa7868281518110610a7f57610a7f612d12565b6020026020010151868381518110610a9957610a99612d12565b6020026020010151846117ac565b600101610a62565b50610ad0610ac6846801bc16d674ec800000612d28565b61079f9089612d47565b610aeb83610adc611c34565b610ae69190612cd8565b611c64565b5050505050505050565b60006107fc611c92565b610b0761169d565b6001600160a01b0316336001600160a01b031614610b3a573360405163472511eb60e11b81526004016108929190612c49565b610b438161162d565b50565b60006107fc611d0c565b60006107fc611d16565b60008383610b688282611d46565b8380610b87576040516336b216db60e21b815260040160405180910390fd5b868580610b9383611e72565b1015610bb2576040516351940b3960e11b815260040160405180910390fd5b6001600160a01b038816610beb57604051637617407560e11b81526001600160a01b038a16600482015260006024820152604401610892565b610bf58988611e7d565b610c00898989611ee8565b9998505050505050505050565b6000610c17611f64565b8114610c485780610c26611f64565b604051631cfd276760e31b815260048101929092526024820152604401610892565b610c5b610c56826001612cd8565b611f94565b610c64866115e4565b610c6d83611fc2565b6040516001600160a01b038416907f0cc5437d7c9c1d9eab549acbb533eea3e9868e9443dd75309ed5820b33a3774e90600090a2610caa82611ff9565b6040518281527fbd533e726baaf59b36f3914d950053f7e78f527057c97cd3f0043257fc0fc8849060200160405180910390a1610ce6896116a7565b6040516001600160a01b038a16907f1da4c245099590dc40be61880c9b97792f3694d970acc1e67ac0e6cc90f3780d90600090a2610d2385612030565b6040516001600160a01b038616907f30f015a5d3c72c0a9414538199baa022323a483fa9e4ba2cd581596cf8ca042490600090a2610d6084612067565b6040516001600160a01b038516907fffc0721ef0563a1b0a51a0dc92113025f33ca434ada9ee3eebff2f385d2a8f9a90600090a2610d9e8a8961209e565b610da787610ff0565b7f1809e49bba43f2d39fa57894b50cd6ccb428cc438230e065cac3eb24a1355a7181600036604051610ddb93929190612d5e565b60405180910390a150505050505050505050565b610df761169d565b6001600160a01b0316336001600160a01b031614610e2a573360405163472511eb60e11b81526004016108929190612c49565b610e3381611ff9565b6040518181527fbd533e726baaf59b36f3914d950053f7e78f527057c97cd3f0043257fc0fc8849060200160405180910390a150565b60006107fc61211a565b60008082610e81338661214a565b610e8b9190612cd8565b9050610e98338583611583565b6040518181526001600160a01b0385169033907f8c5be1e5ebec7d5bd14f71427d1e84f3dd0314c0f7b2291e5b200ac8c7c3b925906020015b60405180910390a35060019392505050565b6000610ef6610ef1836121a2565b6121f0565b92915050565b60006107fc612228565b60006107fc612258565b60006107fc61177c565b610f2261169d565b6001600160a01b0316336001600160a01b031614610f55573360405163472511eb60e11b81526004016108929190612c49565b610f5e81612030565b6040516001600160a01b038216907f30f015a5d3c72c0a9414538199baa022323a483fa9e4ba2cd581596cf8ca042490600090a250565b60006107fc61169d565b6000610ef682611e72565b6000610ef682612288565b610fbd6116d5565b6001600160a01b0316336001600160a01b031614610ff0573360405163472511eb60e11b81526004016108929190612c49565b610ff9816122b5565b6040516001600160a01b038216907fd3b5d1e0ffaeff528910f3663f0adace7694ab8241d58e17a91351ced2e0803190600090a250565b60006107fc6122ec565b60006107fc611c34565b60006107fc61231c565b6000808261105c338661214a565b610e8b9190612d47565b600033836110748282611d46565b8380611093576040516336b216db60e21b815260040160405180910390fd5b33858061109f83611e72565b10156110be576040516351940b3960e11b815260040160405180910390fd5b6001600160a01b0388166110ee57604051637617407560e11b815233600482015260006024820152604401610892565b6110f9338989611ee8565b98975050505050505050565b61110e8161234c565b610b438161076b565b60006107fc612373565b6111296122ec565b6001600160a01b0316336001600160a01b03161461115c573360405163472511eb60e11b81526004016108929190612c49565b611164611c34565b8411156111965783611174611c34565b6040516376179ac560e01b815260048101929092526024820152604401610892565b60006111a061166d565b6111aa9086612d47565b905060006111c1826801bc16d674ec800000612d28565b6111c9612228565b6111d39190612cd8565b90506111de856123a3565b6111e7866123d1565b6111f0846123ff565b6000856111fd8386612cd8565b111561122357611220866112118487612cd8565b61121b9190612d47565b61242d565b90505b61122d8187612cd8565b82101561125157611251826112428389612cd8565b61124c9190612d47565b612504565b60408051888152602081018890529081018690527f25d7358447891786a139ae7149548f3232a8c95f2ea6065c69c5bd7c39cd386c9060600160405180910390a150505050505050565b60006107fc6115da565b6108b53361076b565b60006112ba838361214a565b9392505050565b6112c961211a565b6001600160a01b0316336001600160a01b0316146108b5573360405163472511eb60e11b81526004016108929190612c49565b6000610ef6826121f0565b61130f61169d565b6001600160a01b0316336001600160a01b031614611342573360405163472511eb60e11b81526004016108929190612c49565b61134b81611fc2565b6040516001600160a01b038216907f0cc5437d7c9c1d9eab549acbb533eea3e9868e9443dd75309ed5820b33a3774e90600090a250565b60006107fc6113b260017f2b6136e423ab70d76431e2a635e877e16ea2dd9a895e054ad7f35f89d6c7b711612d47565b5490565b610b436113e460017f2b6136e423ab70d76431e2a635e877e16ea2dd9a895e054ad7f35f89d6c7b711612d47565b829055565b60006113f58483612636565b90506000611401612373565b9050836001600160a01b0316856001600160a01b0316141561148257604051632d20488160e11b81526001600160a01b03868116600483015260016024830152821690635a4091029060440160006040518083038186803b15801561146557600080fd5b505afa158015611479573d6000803e3d6000fd5b5050505061157c565b604051632d20488160e11b81526001600160a01b03868116600483015260016024830152821690635a4091029060440160006040518083038186803b1580156114ca57600080fd5b505afa1580156114de573d6000803e3d6000fd5b505060405163e838dfbb60e01b81526001600160a01b038416925063e838dfbb915061150e908790600401612c49565b602060405180830381865afa15801561152b573d6000803e3d6000fd5b505050506040513d601f19601f8201168201806040525081019061154f9190612d94565b1561156f578360405163e7d05e2760e01b81526004016108929190612c49565b61157a858584611ee8565b505b5050505050565b60006115b060017fc852254d5b703a16bb13b3e233a335d6459c5da5db0ca732d7a684ee05407847612d47565b6001600160a01b039485166000908152602091825260408082209590961681529390525091902055565b60006107fc612695565b6115ed8161234c565b6115f6816126c5565b6040516001600160a01b038216907f5a272403b402d892977df56625f4164ccaf70ca3863991c43ecfe76a6905b0a190600090a250565b611636816126ce565b6040516001600160a01b038216907f2a0f8515de3fa34ef68b99300347b8793c01683350743e96fe440594528298f490600090a250565b60006107fc6113b260017f0f1e7733641e4d843128fea0d2ec90d3d06a40b0fe244ff603d8c1aa200dc0f9612d47565b60006107fc6126d7565b610b436113e460017f8e9e2a1d30fed357d8a000c1131fc77ed65d2052918caf1ccc6eb1e7af3d13b6612d47565b60006107fc610f95565b60008183116116ee57826112ba565b50919050565b6060806116ff61231c565b6001600160a01b031663a1947323846040518263ffffffff1660e01b815260040161172c91815260200190565b6000604051808303816000875af115801561174b573d6000803e3d6000fd5b505050506040513d6000823e601f3d908101601f191682016040526117739190810190612ee2565b91509150915091565b60006107fc6113b260017fb649e50315f962b32d487e696a81b4828631b11f8424daaaa37e9e97766a2c42612d47565b60308351146117ce5760405163050cb55360e41b815260040160405180910390fd5b60608251146117f05760405163408ebd3960e01b815260040160405180910390fd5b6801bc16d674ec800000600061180a633b9aca0083612cf0565b90506000600286600060801b604051602001611827929190612f46565b60408051601f198184030181529082905261184191612f75565b602060405180830381855afa15801561185e573d6000803e3d6000fd5b5050506040513d601f19601f820116820180604052508101906118819190612f91565b905060006002806118958860006040612707565b6040516118a29190612f75565b602060405180830381855afa1580156118bf573d6000803e3d6000fd5b5050506040513d601f19601f820116820180604052508101906118e29190612f91565b60026118fa8960406118f5816060612d47565b612707565b60405161190d9190600090602001612faa565b60408051601f198184030181529082905261192791612f75565b602060405180830381855afa158015611944573d6000803e3d6000fd5b5050506040513d601f19601f820116820180604052508101906119679190612f91565b60408051602081019390935282015260600160408051601f198184030181529082905261199391612f75565b602060405180830381855afa1580156119b0573d6000803e3d6000fd5b5050506040513d601f19601f820116820180604052508101906119d39190612f91565b9050600060028084886040516020016119f6929190918252602082015260400190565b60408051601f1981840301815290829052611a1091612f75565b602060405180830381855afa158015611a2d573d6000803e3d6000fd5b5050506040513d601f19601f82011682018060405250810190611a509190612f91565b6002611a5b876127ca565b604080516020810192909252810186905260600160408051601f1981840301815290829052611a8991612f75565b602060405180830381855afa158015611aa6573d6000803e3d6000fd5b5050506040513d601f19601f82011682018060405250810190611ac99190612f91565b60408051602081019390935282015260600160408051601f1981840301815290829052611af591612f75565b602060405180830381855afa158015611b12573d6000803e3d6000fd5b5050506040513d601f19601f82011682018060405250810190611b359190612f91565b90506000611b438647612d47565b9050611b4d612837565b6001600160a01b03166322895118878b8a604051602001611b7091815260200190565b6040516020818303038152906040528c876040518663ffffffff1660e01b8152600401611ba09493929190612fcc565b6000604051808303818588803b158015611bb957600080fd5b505af1158015611bcd573d6000803e3d6000fd5b5050505050804714611bf257604051638051a6bb60e01b815260040160405180910390fd5b7f11553d182c6d24df901ccbb837d640c1ee9994876a88dccc8ddfd7ebab9b6ce189604051611c219190612ae6565b60405180910390a1505050505050505050565b60006107fc6113b260017fc77078e3530c08cdb2440817c81de4836500b4708ea4d15672b7fe98956423a8612d47565b610b436113e460017fc77078e3530c08cdb2440817c81de4836500b4708ea4d15672b7fe98956423a8612d47565b600080611c9d61166d565b90506000611ca9611c34565b905080821015611cfc576801bc16d674ec800000611cc78383612d47565b611cd19190612d28565b611cd9611382565b611ce1612228565b611ceb9190612cd8565b611cf59190612cd8565b9250505090565b611d04611382565b611ceb612228565b60006107fc612867565b60006107fc6113b260017f094efef62d2ce60c14ffacd35a1b50546d3a9d503aff1df040176fffd6c92a37612d47565b6000611d50612373565b60405163e838dfbb60e01b81529091506001600160a01b0382169063e838dfbb90611d7f908690600401612c49565b602060405180830381865afa158015611d9c573d6000803e3d6000fd5b505050506040513d601f19601f82011682018060405250810190611dc09190612d94565b15611de0578260405163e7d05e2760e01b81526004016108929190612c49565b60405163e838dfbb60e01b81526001600160a01b0382169063e838dfbb90611e0c908590600401612c49565b602060405180830381865afa158015611e29573d6000803e3d6000fd5b505050506040513d601f19601f82011682018060405250810190611e4d9190612d94565b15611e6d578160405163e7d05e2760e01b81526004016108929190612c49565b505050565b6000610ef6826121a2565b6000611e89833361214a565b905081811015611ecb57604051637b936de360e01b81526001600160a01b03841660048201523360248201526044810182905260648101839052608401610892565b6000198114611e6d57611e6d8333611ee38585612d47565b611583565b6000611f078483611ef8876121a2565b611f029190612d47565b612897565b611f1f8383611f15866121a2565b611f029190612cd8565b826001600160a01b0316846001600160a01b03167fddf252ad1be2c89b69c2b068fc378daa952ba7f163c4a11628f55a4df523b3ef84604051610ed191815260200190565b60006107fc6113b260017f82055909238c0f5e63d6f174068ebb8f51bcec9bd37de63bb68f6551feec0cfd612d47565b610b436113e460017f82055909238c0f5e63d6f174068ebb8f51bcec9bd37de63bb68f6551feec0cfd612d47565b611fcb8161234c565b610b436113e460017f082b6d18de7b10e438e6b1002141db737519cb4ceed679bc815e3aac00cd2227612d47565b612002816128e3565b610b436113e460017f094efef62d2ce60c14ffacd35a1b50546d3a9d503aff1df040176fffd6c92a37612d47565b6120398161234c565b610b436113e460017f867d8f1a5e39d11d5bebde854d5359a509530ad32450f581da63c06ec8d1a780612d47565b6120708161234c565b610b436113e460017f3f075dea7ef99b1e5db245018e5e4ed8d2a0d93953f5932b2176bef59bd69061612d47565b6120a782612906565b6040516001600160a01b038316907e043cf7635f276413ae358250286a479a631abd9d74d57d4aa0bb87ebc7d11790600090a26120e38161293d565b6040518181527f4c86ba184ea1a1558f84835ca34f6d67e222e8ee5cc4f324b8861dda4cf1740c9060200160405180910390a15050565b60006107fc6113b260017f8e9e2a1d30fed357d8a000c1131fc77ed65d2052918caf1ccc6eb1e7af3d13b6612d47565b60008061217860017fc852254d5b703a16bb13b3e233a335d6459c5da5db0ca732d7a684ee05407847612d47565b6001600160a01b039485166000908152602091825260408082209590961681529390525050205490565b6000806121d060017f0fb4a5ac9287f4f508aa7253ee2d57c6a228b1b30e210d73fffd59389d3a8838612d47565b6001600160a01b0390931660009081526020939093525050604090205490565b6000806121fb612867565b90508061220b5750600092915050565b80612214611c92565b61221e9085612d28565b6112ba9190612cf0565b60006107fc6113b260017ffedfd2c285a57fb23bf45a3fe9ac02d36a76ebb72801b1c8aaf553d74e9d4653612d47565b60006107fc6113b260017f082b6d18de7b10e438e6b1002141db737519cb4ceed679bc815e3aac00cd2227612d47565b600080612293612867565b9050806122a35750600092915050565b6122ab611c92565b61221e8285612d28565b6122be8161234c565b610b436113e460017fc8cbea9407c380ae944f052b5a442330057683c5abdbd453493f9750806afecb612d47565b60006107fc6113b260017fc8cbea9407c380ae944f052b5a442330057683c5abdbd453493f9750806afecb612d47565b60006107fc6113b260017f3f075dea7ef99b1e5db245018e5e4ed8d2a0d93953f5932b2176bef59bd69061612d47565b6001600160a01b038116610b435760405163f6b2911f60e01b815260040160405180910390fd5b60006107fc6113b260017f867d8f1a5e39d11d5bebde854d5359a509530ad32450f581da63c06ec8d1a780612d47565b610b436113e460017ffedfd2c285a57fb23bf45a3fe9ac02d36a76ebb72801b1c8aaf553d74e9d4653612d47565b610b436113e460017f0f1e7733641e4d843128fea0d2ec90d3d06a40b0fe244ff603d8c1aa200dc0f9612d47565b610b436113e460017fd7f2d45e512a86049f7a113657b39731b6b558609584243063a52cd31a8eb529612d47565b60008061243861211a565b90506001600160a01b0381166124515750600092915050565b60405163c8a6dfd360e01b81526004810184905247906001600160a01b0383169063c8a6dfd390602401600060405180830381600087803b15801561249557600080fd5b505af11580156124a9573d6000803e3d6000fd5b50505050600081476124bb9190612d47565b90506124c981610795611382565b6040518181527fda841d3042d792e2509a333b9dcbd4b3dd9b9047d382011f8788fab90ca7e3c79060200160405180910390a1949350505050565b600061250e611d0c565b90508061252e57604051630d35acd760e21b815260040160405180910390fd5b6000612538611c92565b90506000612544611d16565b90506000816125538587612d28565b61255d9190612d28565b9050600061256b8387612d28565b61257761271086612d28565b6125819190612d47565b90506000811561259a576125958284612cf0565b61259d565b60005b9050801561262d5760006125af612258565b90506125bb8183612989565b60006125c5611d0c565b905060006125d38a89612d47565b60408051828152602081018c90529081018a9052606081018490529091506001600160a01b038416907f3d1669e813a9845c288f0e1f642a4343a451103b87886d12de37e63b39bbd9429060800160405180910390a25050505b50505050505050565b60008082612642611c92565b61264c9190612d47565b905080612665578291506126608484612989565b61268e565b8061266e611d0c565b6126789085612d28565b6126829190612cf0565b915061268e8483612989565b5092915050565b60006107fc6113b260017f6e6ab8b7c7aaba79eef8cc633522d606bb008c101cf9832c9ad05d10a9847281612d47565b610b43816129f7565b610b4381612a2e565b60006107fc6113b260017fb5b37715a3e346e996104f0086703f19825def429233930fd9399c38e05fb113612d47565b60608182601f01101561272d576040516323d5783d60e11b815260040160405180910390fd5b6127378284612cd8565b8451101561275857604051633b99b53d60e01b815260040160405180910390fd5b60608215801561277757604051915060008252602082016040526127c1565b6040519150601f8416801560200281840101858101878315602002848b0101015b818310156127b0578051835260209283019201612798565b5050858452601f01601f1916604052505b50949350505050565b603881901c60ff908116603083901c8216602884901c8316602085901c8416601886901c8516601087901c8616600888811c9790971688881b61ff001617871b17861b17851b17841b17831b1790911b17604082901c801561282e5761282e613017565b5060c01b919050565b60006107fc6113b260017f35efb61d8784060218d9d6aa40eae55904de43779c1afc79c74dfefcfdf91260612d47565b60006107fc6113b260017f6b842b424335d94ccad97e54548dfa02673c1268aba38d3c3c32d28c8988b70b612d47565b60006128c460017f0fb4a5ac9287f4f508aa7253ee2d57c6a228b1b30e210d73fffd59389d3a8838612d47565b6001600160a01b03909316600090815260209390935250604090912055565b612710811115610b43576040516358d620b360e01b815260040160405180910390fd5b61290f8161234c565b610b436113e460017f35efb61d8784060218d9d6aa40eae55904de43779c1afc79c74dfefcfdf91260612d47565b8061295b5760405163a9cb9e0d60e01b815260040160405180910390fd5b610b436113e460017fb649e50315f962b32d487e696a81b4828631b11f8424daaaa37e9e97766a2c42612d47565b6129a481612995612867565b61299f9190612cd8565b612a5c565b6129b28282611f15856121a2565b6040518181526001600160a01b038316906000907fddf252ad1be2c89b69c2b068fc378daa952ba7f163c4a11628f55a4df523b3ef9060200160405180910390a35050565b612a008161234c565b610b436113e460017fb5b37715a3e346e996104f0086703f19825def429233930fd9399c38e05fb113612d47565b610b436113e460017f6e6ab8b7c7aaba79eef8cc633522d606bb008c101cf9832c9ad05d10a9847281612d47565b610b436113e460017f6b842b424335d94ccad97e54548dfa02673c1268aba38d3c3c32d28c8988b70b612d47565b60005b83811015612aa5578181015183820152602001612a8d565b83811115612ab4576000848401525b50505050565b60008151808452612ad2816020860160208601612a8a565b601f01601f19169290920160200192915050565b6020815260006112ba6020830184612aba565b80356001600160a01b0381168114612b1057600080fd5b919050565b60008060408385031215612b2857600080fd5b612b3183612af9565b946020939093013593505050565b600060208284031215612b5157600080fd5b6112ba82612af9565b600060208284031215612b6c57600080fd5b5035919050565b600080600060608486031215612b8857600080fd5b612b9184612af9565b9250612b9f60208501612af9565b9150604084013590509250925092565b60008060008060008060008060006101208a8c031215612bce57600080fd5b612bd78a612af9565b9850612be560208b01612af9565b975060408a01359650612bfa60608b01612af9565b9550612c0860808b01612af9565b9450612c1660a08b01612af9565b9350612c2460c08b01612af9565b9250612c3260e08b01612af9565b91506101008a013590509295985092959850929598565b6001600160a01b0391909116815260200190565b60008060008060808587031215612c7357600080fd5b5050823594602084013594506040840135936060013592509050565b60008060408385031215612ca257600080fd5b612cab83612af9565b9150612cb960208401612af9565b90509250929050565b634e487b7160e01b600052601160045260246000fd5b60008219821115612ceb57612ceb612cc2565b500190565b600082612d0d57634e487b7160e01b600052601260045260246000fd5b500490565b634e487b7160e01b600052603260045260246000fd5b6000816000190483118215151615612d4257612d42612cc2565b500290565b600082821015612d5957612d59612cc2565b500390565b83815260406020820152816040820152818360608301376000818301606090810191909152601f909201601f1916010192915050565b600060208284031215612da657600080fd5b815180151581146112ba57600080fd5b634e487b7160e01b600052604160045260246000fd5b604051601f8201601f1916810167ffffffffffffffff81118282101715612df557612df5612db6565b604052919050565b6000601f8381840112612e0f57600080fd5b8251602067ffffffffffffffff80831115612e2c57612e2c612db6565b8260051b612e3b838201612dcc565b9384528681018301938381019089861115612e5557600080fd5b84890192505b85831015610c0057825184811115612e735760008081fd5b8901603f81018b13612e855760008081fd5b85810151604086821115612e9b57612e9b612db6565b612eac828b01601f19168901612dcc565b8281528d82848601011115612ec15760008081fd5b612ed0838a8301848701612a8a565b85525050509184019190840190612e5b565b60008060408385031215612ef557600080fd5b825167ffffffffffffffff80821115612f0d57600080fd5b612f1986838701612dfd565b93506020850151915080821115612f2f57600080fd5b50612f3c85828601612dfd565b9150509250929050565b60008351612f58818460208801612a8a565b6001600160801b0319939093169190920190815260100192915050565b60008251612f87818460208701612a8a565b9190910192915050565b600060208284031215612fa357600080fd5b5051919050565b60008351612fbc818460208801612a8a565b9190910191825250602001919050565b608081526000612fdf6080830187612aba565b8281036020840152612ff18187612aba565b905082810360408401526130058186612aba565b91505082606083015295945050505050565b634e487b7160e01b600052600160045260246000fdfea2646970667358221220a0ca0e5050c3d44537e9bbacc1c4f8a7319eb9f6a0d9bbaa5d300df1cd91a0b764736f6c634300080a0033",
            "0x60806040526004361061026b5760003560e01c80635639671511610144578063a9059cbb116100b6578063d04681561161007a578063d0468156146106e6578063d0e30db0146106fb578063dd62ed3e14610703578063efd6034714610723578063f79c3f021461072b578063fb5b82d01461074b5761027b565b8063a9059cbb14610669578063ac232bde14610689578063bf15af561461069c578063c5eff3d0146106b1578063cc48cd31146106c65761027b565b80637adbf973116101085780637adbf973146105bc578063833b1fce146105dc57806387f2adfb146105f157806395d89b41146106065780639b498e2614610634578063a457c2d7146106495761027b565b8063563967151461053257806358bf3c7f146105475780636e9960c31461056757806370a082311461057c578063799a19541461059c5761027b565b806323b872dd116101dd57806336bf3325116101a157806336bf33251461049657806339509351146104b35780633af9e669146104d357806346425ef0146104f35780635022820114610508578063540bc5ea1461051d5761027b565b806323b872dd146103f8578063281a312214610418578063291206f6146104385780632cb562e114610458578063313ce5671461047a5761027b565b80631311cf8d1161022f5780631311cf8d1461035957806313d86aed14610379578063143a08d414610399578063147bf6c4146103ae57806318160ddd146103ce5780631bcbfaba146103e35761027b565b806304843a171461029457806306fdde03146102bc578063095ea7b3146102ff5780630e18b6811461032f578063107d7fa0146103445761027b565b3661027b576102793361076b565b005b60405163574b16a760e11b815260040160405180910390fd5b3480156102a057600080fd5b506102a96107f2565b6040519081526020015b60405180910390f35b3480156102c857600080fd5b50604080518082019091526011815270098d2e2ead2c840a6e8c2d6cac8408aa89607b1b60208201525b6040516102b39190612ad7565b34801561030b57600080fd5b5061031f61031a366004612b06565b610801565b60405190151581526020016102b3565b34801561033b57600080fd5b50610279610817565b34801561035057600080fd5b506102a9610877565b34801561036557600080fd5b50610279610374366004612b30565b610881565b34801561038557600080fd5b50610279610394366004612b4b565b6108fc565b3480156103a557600080fd5b506102a9610ab5565b3480156103ba57600080fd5b506102796103c9366004612b30565b610abf565b3480156103da57600080fd5b506102a9610b06565b3480156103ef57600080fd5b506102a9610b10565b34801561040457600080fd5b5061031f610413366004612b64565b610b1a565b34801561042457600080fd5b50610279610433366004612ba0565b610bcd565b34801561044457600080fd5b50610279610453366004612b4b565b610daf565b34801561046457600080fd5b5061046d610e29565b6040516102b39190612c3a565b34801561048657600080fd5b50604051601281526020016102b3565b3480156104a257600080fd5b506102a96801bc16d674ec80000081565b3480156104bf57600080fd5b5061031f6104ce366004612b06565b610e33565b3480156104df57600080fd5b506102a96104ee366004612b30565b610e54565b3480156104ff57600080fd5b506102a9610e6d565b34801561051457600080fd5b5061046d610e77565b34801561052957600080fd5b506102a9606081565b34801561053e57600080fd5b506102a9610e81565b34801561055357600080fd5b50610279610562366004612b30565b610e8b565b34801561057357600080fd5b5061046d610f06565b34801561058857600080fd5b506102a9610597366004612b30565b610f10565b3480156105a857600080fd5b506102a96105b7366004612b4b565b610f1b565b3480156105c857600080fd5b506102796105d7366004612b30565b610f26565b3480156105e857600080fd5b5061046d610fa1565b3480156105fd57600080fd5b506102a9610fab565b34801561061257600080fd5b50604080518082019091526005815264098e68aa8960db1b60208201526102f2565b34801561064057600080fd5b5061046d610fb5565b34801561065557600080fd5b5061031f610664366004612b06565b610fbf565b34801561067557600080fd5b5061031f610684366004612b06565b610fdb565b610279610697366004612b30565b61107a565b3480156106a857600080fd5b506102a9603081565b3480156106bd57600080fd5b5061046d61108c565b3480156106d257600080fd5b506102796106e1366004612c4e565b611096565b3480156106f257600080fd5b5061046d611210565b61027961121a565b34801561070f57600080fd5b506102a961071e366004612c80565b611223565b610279611236565b34801561073757600080fd5b506102a9610746366004612b4b565b611271565b34801561075757600080fd5b50610279610766366004612b30565b61127c565b34610789576040516395b66fe960e01b815260040160405180910390fd5b6107a4346107956112f7565b61079f9190612cc9565b61132b565b6107af33823461135e565b6040513481526001600160a01b0382169033907f3bc57f469ad6d10d7723ea226cd22bd2b9e527def2b529f6ab44645a166895829060200160405180910390a350565b60006107fc6112f7565b905090565b600061080e3384846114f8565b50600192915050565b61081f611567565b6001600160a01b0316336001600160a01b03161461085b573360405163472511eb60e11b81526004016108529190612c3a565b60405180910390fd5b61086b610866611567565b611571565b61087560006115ba565b565b60006107fc6115fa565b61088961162a565b6001600160a01b0316336001600160a01b0316146108bc573360405163472511eb60e11b81526004016108529190612c3a565b6108c581611634565b6040516001600160a01b038216907f1da4c245099590dc40be61880c9b97792f3694d970acc1e67ac0e6cc90f3780d90600090a250565b610904611662565b6001600160a01b0316336001600160a01b031614610937573360405163472511eb60e11b81526004016108529190612c3a565b60006109416112f7565b9050600061096161095b6801bc16d674ec80000084612ce1565b8461166c565b90508061098157604051631036b5ad60e31b815260040160405180910390fd5b60008061098d83611681565b81519193509150806109b25760405163200149ad60e21b815260040160405180910390fd5b838111156109d357604051635993bd5760e01b815260040160405180910390fd5b81518181146109f5576040516322e5ce4360e21b815260040160405180910390fd5b60006109ff611709565b905080610a1f57604051639be7315960e01b815260040160405180910390fd5b60005b83811015610a6f57610a67868281518110610a3f57610a3f612d03565b6020026020010151868381518110610a5957610a59612d03565b602002602001015184611739565b600101610a22565b50610a90610a86846801bc16d674ec800000612d19565b61079f9089612d38565b610aab83610a9c611bc1565b610aa69190612cc9565b611bf1565b5050505050505050565b60006107fc611c1f565b610ac761162a565b6001600160a01b0316336001600160a01b031614610afa573360405163472511eb60e11b81526004016108529190612c3a565b610b03816115ba565b50565b60006107fc611c99565b60006107fc611ca3565b60008383610b288282611cd3565b8380610b47576040516336b216db60e21b815260040160405180910390fd5b868580610b5383611dff565b1015610b72576040516351940b3960e11b815260040160405180910390fd5b6001600160a01b038816610bab57604051637617407560e11b81526001600160a01b038a16600482015260006024820152604401610852565b610bb58988611e0a565b610bc0898989611e70565b9998505050505050505050565b6000610bd7611efe565b8114610c085780610be6611efe565b604051631cfd276760e31b815260048101929092526024820152604401610852565b610c1b610c16826001612cc9565b611f2e565b610c2486611571565b610c2d83611f5c565b6040516001600160a01b038416907f0cc5437d7c9c1d9eab549acbb533eea3e9868e9443dd75309ed5820b33a3774e90600090a2610c6a82611f93565b6040518281527fbd533e726baaf59b36f3914d950053f7e78f527057c97cd3f0043257fc0fc8849060200160405180910390a1610ca689611634565b6040516001600160a01b038a16907f1da4c245099590dc40be61880c9b97792f3694d970acc1e67ac0e6cc90f3780d90600090a2610ce385611fca565b6040516001600160a01b038616907f30f015a5d3c72c0a9414538199baa022323a483fa9e4ba2cd581596cf8ca042490600090a2610d2084612001565b6040516001600160a01b038516907fffc0721ef0563a1b0a51a0dc92113025f33ca434ada9ee3eebff2f385d2a8f9a90600090a2610d5e8a89612038565b610d6787610f61565b7f1809e49bba43f2d39fa57894b50cd6ccb428cc438230e065cac3eb24a1355a7181600036604051610d9b93929190612d4f565b60405180910390a150505050505050505050565b610db761162a565b6001600160a01b0316336001600160a01b031614610dea573360405163472511eb60e11b81526004016108529190612c3a565b610df381611f93565b6040518181527fbd533e726baaf59b36f3914d950053f7e78f527057c97cd3f0043257fc0fc8849060200160405180910390a150565b60006107fc6120b4565b600061080e338484610e4533886120e4565b610e4f9190612cc9565b6114f8565b6000610e67610e628361213c565b61218a565b92915050565b60006107fc6121c2565b60006107fc6121f2565b60006107fc611709565b610e9361162a565b6001600160a01b0316336001600160a01b031614610ec6573360405163472511eb60e11b81526004016108529190612c3a565b610ecf81611fca565b6040516001600160a01b038216907f30f015a5d3c72c0a9414538199baa022323a483fa9e4ba2cd581596cf8ca042490600090a250565b60006107fc61162a565b6000610e6782611dff565b6000610e6782612222565b610f2e611662565b6001600160a01b0316336001600160a01b031614610f61573360405163472511eb60e11b81526004016108529190612c3a565b610f6a8161224f565b6040516001600160a01b038216907fd3b5d1e0ffaeff528910f3663f0adace7694ab8241d58e17a91351ced2e0803190600090a250565b60006107fc612286565b60006107fc611bc1565b60006107fc6122b6565b600061080e338484610fd133886120e4565b610e4f9190612d38565b60003383610fe98282611cd3565b8380611008576040516336b216db60e21b815260040160405180910390fd5b33858061101483611dff565b1015611033576040516351940b3960e11b815260040160405180910390fd5b6001600160a01b03881661106357604051637617407560e11b815233600482015260006024820152604401610852565b61106e338989611e70565b98975050505050505050565b611083816122e6565b610b038161076b565b60006107fc61230d565b61109e612286565b6001600160a01b0316336001600160a01b0316146110d1573360405163472511eb60e11b81526004016108529190612c3a565b6110d9611bc1565b84111561110b57836110e9611bc1565b6040516376179ac560e01b815260048101929092526024820152604401610852565b60006111156115fa565b61111f9086612d38565b90506000611136826801bc16d674ec800000612d19565b61113e6121c2565b6111489190612cc9565b90506111538561233d565b61115c8661236b565b61116584612399565b6000856111728386612cc9565b111561119857611195866111868487612cc9565b6111909190612d38565b6123c7565b90505b6111a28187612cc9565b8210156111c6576111c6826111b78389612cc9565b6111c19190612d38565b61249e565b60408051888152602081018890529081018690527f25d7358447891786a139ae7149548f3232a8c95f2ea6065c69c5bd7c39cd386c9060600160405180910390a150505050505050565b60006107fc611567565b6108753361076b565b600061122f83836120e4565b9392505050565b61123e6120b4565b6001600160a01b0316336001600160a01b031614610875573360405163472511eb60e11b81526004016108529190612c3a565b6000610e678261218a565b61128461162a565b6001600160a01b0316336001600160a01b0316146112b7573360405163472511eb60e11b81526004016108529190612c3a565b6112c081611f5c565b6040516001600160a01b038216907f0cc5437d7c9c1d9eab549acbb533eea3e9868e9443dd75309ed5820b33a3774e90600090a250565b60006107fc61132760017f2b6136e423ab70d76431e2a635e877e16ea2dd9a895e054ad7f35f89d6c7b711612d38565b5490565b610b0361135960017f2b6136e423ab70d76431e2a635e877e16ea2dd9a895e054ad7f35f89d6c7b711612d38565b829055565b600061136a84836125d0565b9050600061137661230d565b9050836001600160a01b0316856001600160a01b031614156113f757604051632d20488160e11b81526001600160a01b03868116600483015260016024830152821690635a4091029060440160006040518083038186803b1580156113da57600080fd5b505afa1580156113ee573d6000803e3d6000fd5b505050506114f1565b604051632d20488160e11b81526001600160a01b03868116600483015260016024830152821690635a4091029060440160006040518083038186803b15801561143f57600080fd5b505afa158015611453573d6000803e3d6000fd5b505060405163e838dfbb60e01b81526001600160a01b038416925063e838dfbb9150611483908790600401612c3a565b602060405180830381865afa1580156114a0573d6000803e3d6000fd5b505050506040513d601f19601f820116820180604052508101906114c49190612d85565b156114e4578360405163e7d05e2760e01b81526004016108529190612c3a565b6114ef858584611e70565b505b5050505050565b611501836122e6565b61150a826122e6565b61151583838361262f565b816001600160a01b0316836001600160a01b03167f8c5be1e5ebec7d5bd14f71427d1e84f3dd0314c0f7b2291e5b200ac8c7c3b9258360405161155a91815260200190565b60405180910390a3505050565b60006107fc612686565b61157a816122e6565b611583816126b6565b6040516001600160a01b038216907f5a272403b402d892977df56625f4164ccaf70ca3863991c43ecfe76a6905b0a190600090a250565b6115c3816126bf565b6040516001600160a01b038216907f2a0f8515de3fa34ef68b99300347b8793c01683350743e96fe440594528298f490600090a250565b60006107fc61132760017f0f1e7733641e4d843128fea0d2ec90d3d06a40b0fe244ff603d8c1aa200dc0f9612d38565b60006107fc6126c8565b610b0361135960017f8e9e2a1d30fed357d8a000c1131fc77ed65d2052918caf1ccc6eb1e7af3d13b6612d38565b60006107fc610f06565b600081831161167b578261122f565b50919050565b60608061168c6122b6565b6001600160a01b031663a1947323846040518263ffffffff1660e01b81526004016116b991815260200190565b6000604051808303816000875af11580156116d8573d6000803e3d6000fd5b505050506040513d6000823e601f3d908101601f191682016040526117009190810190612ed3565b91509150915091565b60006107fc61132760017fb649e50315f962b32d487e696a81b4828631b11f8424daaaa37e9e97766a2c42612d38565b603083511461175b5760405163050cb55360e41b815260040160405180910390fd5b606082511461177d5760405163408ebd3960e01b815260040160405180910390fd5b6801bc16d674ec8000006000611797633b9aca0083612ce1565b90506000600286600060801b6040516020016117b4929190612f37565b60408051601f19818403018152908290526117ce91612f66565b602060405180830381855afa1580156117eb573d6000803e3d6000fd5b5050506040513d601f19601f8201168201806040525081019061180e9190612f82565b9050600060028061182288600060406126f8565b60405161182f9190612f66565b602060405180830381855afa15801561184c573d6000803e3d6000fd5b5050506040513d601f19601f8201168201806040525081019061186f9190612f82565b6002611887896040611882816060612d38565b6126f8565b60405161189a9190600090602001612f9b565b60408051601f19818403018152908290526118b491612f66565b602060405180830381855afa1580156118d1573d6000803e3d6000fd5b5050506040513d601f19601f820116820180604052508101906118f49190612f82565b60408051602081019390935282015260600160408051601f198184030181529082905261192091612f66565b602060405180830381855afa15801561193d573d6000803e3d6000fd5b5050506040513d601f19601f820116820180604052508101906119609190612f82565b905060006002808488604051602001611983929190918252602082015260400190565b60408051601f198184030181529082905261199d91612f66565b602060405180830381855afa1580156119ba573d6000803e3d6000fd5b5050506040513d601f19601f820116820180604052508101906119dd9190612f82565b60026119e8876127bb565b604080516020810192909252810186905260600160408051601f1981840301815290829052611a1691612f66565b602060405180830381855afa158015611a33573d6000803e3d6000fd5b5050506040513d601f19601f82011682018060405250810190611a569190612f82565b60408051602081019390935282015260600160408051601f1981840301815290829052611a8291612f66565b602060405180830381855afa158015611a9f573d6000803e3d6000fd5b5050506040513d601f19601f82011682018060405250810190611ac29190612f82565b90506000611ad08647612d38565b9050611ada612828565b6001600160a01b03166322895118878b8a604051602001611afd91815260200190565b6040516020818303038152906040528c876040518663ffffffff1660e01b8152600401611b2d9493929190612fbd565b6000604051808303818588803b158015611b4657600080fd5b505af1158015611b5a573d6000803e3d6000fd5b5050505050804714611b7f57604051638051a6bb60e01b815260040160405180910390fd5b7f11553d182c6d24df901ccbb837d640c1ee9994876a88dccc8ddfd7ebab9b6ce189604051611bae9190612ad7565b60405180910390a1505050505050505050565b60006107fc61132760017fc77078e3530c08cdb2440817c81de4836500b4708ea4d15672b7fe98956423a8612d38565b610b0361135960017fc77078e3530c08cdb2440817c81de4836500b4708ea4d15672b7fe98956423a8612d38565b600080611c2a6115fa565b90506000611c36611bc1565b905080821015611c89576801bc16d674ec800000611c548383612d38565b611c5e9190612d19565b611c666112f7565b611c6e6121c2565b611c789190612cc9565b611c829190612cc9565b9250505090565b611c916112f7565b611c786121c2565b60006107fc612858565b60006107fc61132760017f094efef62d2ce60c14ffacd35a1b50546d3a9d503aff1df040176fffd6c92a37612d38565b6000611cdd61230d565b60405163e838dfbb60e01b81529091506001600160a01b0382169063e838dfbb90611d0c908690600401612c3a565b602060405180830381865afa158015611d29573d6000803e3d6000fd5b505050506040513d601f19601f82011682018060405250810190611d4d9190612d85565b15611d6d578260405163e7d05e2760e01b81526004016108529190612c3a565b60405163e838dfbb60e01b81526001600160a01b0382169063e838dfbb90611d99908590600401612c3a565b602060405180830381865afa158015611db6573d6000803e3d6000fd5b505050506040513d601f19601f82011682018060405250810190611dda9190612d85565b15611dfa578160405163e7d05e2760e01b81526004016108529190612c3a565b505050565b6000610e678261213c565b6000611e1683336120e4565b905081811015611e5857604051637b936de360e01b81526001600160a01b03841660048201523360248201526044810182905260648101839052608401610852565b6000198114611dfa57611dfa8333610e4f8585612d38565b6000611e8f8483611e808761213c565b611e8a9190612d38565b612888565b611ea78383611e9d8661213c565b611e8a9190612cc9565b826001600160a01b0316846001600160a01b03167fddf252ad1be2c89b69c2b068fc378daa952ba7f163c4a11628f55a4df523b3ef84604051611eec91815260200190565b60405180910390a35060019392505050565b60006107fc61132760017f82055909238c0f5e63d6f174068ebb8f51bcec9bd37de63bb68f6551feec0cfd612d38565b610b0361135960017f82055909238c0f5e63d6f174068ebb8f51bcec9bd37de63bb68f6551feec0cfd612d38565b611f65816122e6565b610b0361135960017f082b6d18de7b10e438e6b1002141db737519cb4ceed679bc815e3aac00cd2227612d38565b611f9c816128d4565b610b0361135960017f094efef62d2ce60c14ffacd35a1b50546d3a9d503aff1df040176fffd6c92a37612d38565b611fd3816122e6565b610b0361135960017f867d8f1a5e39d11d5bebde854d5359a509530ad32450f581da63c06ec8d1a780612d38565b61200a816122e6565b610b0361135960017f3f075dea7ef99b1e5db245018e5e4ed8d2a0d93953f5932b2176bef59bd69061612d38565b612041826128f7565b6040516001600160a01b038316907e043cf7635f276413ae358250286a479a631abd9d74d57d4aa0bb87ebc7d11790600090a261207d8161292e565b6040518181527f4c86ba184ea1a1558f84835ca34f6d67e222e8ee5cc4f324b8861dda4cf1740c9060200160405180910390a15050565b60006107fc61132760017f8e9e2a1d30fed357d8a000c1131fc77ed65d2052918caf1ccc6eb1e7af3d13b6612d38565b60008061211260017fc852254d5b703a16bb13b3e233a335d6459c5da5db0ca732d7a684ee05407847612d38565b6001600160a01b039485166000908152602091825260408082209590961681529390525050205490565b60008061216a60017f0fb4a5ac9287f4f508aa7253ee2d57c6a228b1b30e210d73fffd59389d3a8838612d38565b6001600160a01b0390931660009081526020939093525050604090205490565b600080612195612858565b9050806121a55750600092915050565b806121ae611c1f565b6121b89085612d19565b61122f9190612ce1565b60006107fc61132760017ffedfd2c285a57fb23bf45a3fe9ac02d36a76ebb72801b1c8aaf553d74e9d4653612d38565b60006107fc61132760017f082b6d18de7b10e438e6b1002141db737519cb4ceed679bc815e3aac00cd2227612d38565b60008061222d612858565b90508061223d5750600092915050565b612245611c1f565b6121b88285612d19565b612258816122e6565b610b0361135960017fc8cbea9407c380ae944f052b5a442330057683c5abdbd453493f9750806afecb612d38565b60006107fc61132760017fc8cbea9407c380ae944f052b5a442330057683c5abdbd453493f9750806afecb612d38565b60006107fc61132760017f3f075dea7ef99b1e5db245018e5e4ed8d2a0d93953f5932b2176bef59bd69061612d38565b6001600160a01b038116610b035760405163f6b2911f60e01b815260040160405180910390fd5b60006107fc61132760017f867d8f1a5e39d11d5bebde854d5359a509530ad32450f581da63c06ec8d1a780612d38565b610b0361135960017ffedfd2c285a57fb23bf45a3fe9ac02d36a76ebb72801b1c8aaf553d74e9d4653612d38565b610b0361135960017f0f1e7733641e4d843128fea0d2ec90d3d06a40b0fe244ff603d8c1aa200dc0f9612d38565b610b0361135960017fd7f2d45e512a86049f7a113657b39731b6b558609584243063a52cd31a8eb529612d38565b6000806123d26120b4565b90506001600160a01b0381166123eb5750600092915050565b60405163c8a6dfd360e01b81526004810184905247906001600160a01b0383169063c8a6dfd390602401600060405180830381600087803b15801561242f57600080fd5b505af1158015612443573d6000803e3d6000fd5b50505050600081476124559190612d38565b9050612463816107956112f7565b6040518181527fda841d3042d792e2509a333b9dcbd4b3dd9b9047d382011f8788fab90ca7e3c79060200160405180910390a1949350505050565b60006124a8611c99565b9050806124c857604051630d35acd760e21b815260040160405180910390fd5b60006124d2611c1f565b905060006124de611ca3565b90506000816124ed8587612d19565b6124f79190612d19565b905060006125058387612d19565b61251161271086612d19565b61251b9190612d38565b9050600081156125345761252f8284612ce1565b612537565b60005b905080156125c75760006125496121f2565b9050612555818361297a565b600061255f611c99565b9050600061256d8a89612d38565b60408051828152602081018c90529081018a9052606081018490529091506001600160a01b038416907f3d1669e813a9845c288f0e1f642a4343a451103b87886d12de37e63b39bbd9429060800160405180910390a25050505b50505050505050565b600080826125dc611c1f565b6125e69190612d38565b9050806125ff578291506125fa848461297a565b612628565b80612608611c99565b6126129085612d19565b61261c9190612ce1565b9150612628848361297a565b5092915050565b600061265c60017fc852254d5b703a16bb13b3e233a335d6459c5da5db0ca732d7a684ee05407847612d38565b6001600160a01b039485166000908152602091825260408082209590961681529390525091902055565b60006107fc61132760017f6e6ab8b7c7aaba79eef8cc633522d606bb008c101cf9832c9ad05d10a9847281612d38565b610b03816129e8565b610b0381612a1f565b60006107fc61132760017fb5b37715a3e346e996104f0086703f19825def429233930fd9399c38e05fb113612d38565b60608182601f01101561271e576040516323d5783d60e11b815260040160405180910390fd5b6127288284612cc9565b8451101561274957604051633b99b53d60e01b815260040160405180910390fd5b60608215801561276857604051915060008252602082016040526127b2565b6040519150601f8416801560200281840101858101878315602002848b0101015b818310156127a1578051835260209283019201612789565b5050858452601f01601f1916604052505b50949350505050565b603881901c60ff908116603083901c8216602884901c8316602085901c8416601886901c8516601087901c8616600888811c9790971688881b61ff001617871b17861b17851b17841b17831b1790911b17604082901c801561281f5761281f613008565b5060c01b919050565b60006107fc61132760017f35efb61d8784060218d9d6aa40eae55904de43779c1afc79c74dfefcfdf91260612d38565b60006107fc61132760017f6b842b424335d94ccad97e54548dfa02673c1268aba38d3c3c32d28c8988b70b612d38565b60006128b560017f0fb4a5ac9287f4f508aa7253ee2d57c6a228b1b30e210d73fffd59389d3a8838612d38565b6001600160a01b03909316600090815260209390935250604090912055565b612710811115610b03576040516358d620b360e01b815260040160405180910390fd5b612900816122e6565b610b0361135960017f35efb61d8784060218d9d6aa40eae55904de43779c1afc79c74dfefcfdf91260612d38565b8061294c5760405163a9cb9e0d60e01b815260040160405180910390fd5b610b0361135960017fb649e50315f962b32d487e696a81b4828631b11f8424daaaa37e9e97766a2c42612d38565b61299581612986612858565b6129909190612cc9565b612a4d565b6129a38282611e9d8561213c565b6040518181526001600160a01b038316906000907fddf252ad1be2c89b69c2b068fc378daa952ba7f163c4a11628f55a4df523b3ef9060200160405180910390a35050565b6129f1816122e6565b610b0361135960017fb5b37715a3e346e996104f0086703f19825def429233930fd9399c38e05fb113612d38565b610b0361135960017f6e6ab8b7c7aaba79eef8cc633522d606bb008c101cf9832c9ad05d10a9847281612d38565b610b0361135960017f6b842b424335d94ccad97e54548dfa02673c1268aba38d3c3c32d28c8988b70b612d38565b60005b83811015612a96578181015183820152602001612a7e565b83811115612aa5576000848401525b50505050565b60008151808452612ac3816020860160208601612a7b565b601f01601f19169290920160200192915050565b60208152600061122f6020830184612aab565b80356001600160a01b0381168114612b0157600080fd5b919050565b60008060408385031215612b1957600080fd5b612b2283612aea565b946020939093013593505050565b600060208284031215612b4257600080fd5b61122f82612aea565b600060208284031215612b5d57600080fd5b5035919050565b600080600060608486031215612b7957600080fd5b612b8284612aea565b9250612b9060208501612aea565b9150604084013590509250925092565b60008060008060008060008060006101208a8c031215612bbf57600080fd5b612bc88a612aea565b9850612bd660208b01612aea565b975060408a01359650612beb60608b01612aea565b9550612bf960808b01612aea565b9450612c0760a08b01612aea565b9350612c1560c08b01612aea565b9250612c2360e08b01612aea565b91506101008a013590509295985092959850929598565b6001600160a01b0391909116815260200190565b60008060008060808587031215612c6457600080fd5b5050823594602084013594506040840135936060013592509050565b60008060408385031215612c9357600080fd5b612c9c83612aea565b9150612caa60208401612aea565b90509250929050565b634e487b7160e01b600052601160045260246000fd5b60008219821115612cdc57612cdc612cb3565b500190565b600082612cfe57634e487b7160e01b600052601260045260246000fd5b500490565b634e487b7160e01b600052603260045260246000fd5b6000816000190483118215151615612d3357612d33612cb3565b500290565b600082821015612d4a57612d4a612cb3565b500390565b83815260406020820152816040820152818360608301376000818301606090810191909152601f909201601f1916010192915050565b600060208284031215612d9757600080fd5b8151801515811461122f57600080fd5b634e487b7160e01b600052604160045260246000fd5b604051601f8201601f1916810167ffffffffffffffff81118282101715612de657612de6612da7565b604052919050565b6000601f8381840112612e0057600080fd5b8251602067ffffffffffffffff80831115612e1d57612e1d612da7565b8260051b612e2c838201612dbd565b9384528681018301938381019089861115612e4657600080fd5b84890192505b85831015610bc057825184811115612e645760008081fd5b8901603f81018b13612e765760008081fd5b85810151604086821115612e8c57612e8c612da7565b612e9d828b01601f19168901612dbd565b8281528d82848601011115612eb25760008081fd5b612ec1838a8301848701612a7b565b85525050509184019190840190612e4c565b60008060408385031215612ee657600080fd5b825167ffffffffffffffff80821115612efe57600080fd5b612f0a86838701612dee565b93506020850151915080821115612f2057600080fd5b50612f2d85828601612dee565b9150509250929050565b60008351612f49818460208801612a7b565b6001600160801b0319939093169190920190815260100192915050565b60008251612f78818460208701612a7b565b9190910192915050565b600060208284031215612f9457600080fd5b5051919050565b60008351612fad818460208801612a7b565b9190910191825250602001919050565b608081526000612fd06080830187612aab565b8281036020840152612fe28187612aab565b90508281036040840152612ff68186612aab565b91505082606083015295945050505050565b634e487b7160e01b600052600160045260246000fdfea26469706673582212204c98ac4f477f06f69f4028fa9440dd9c691d20f120c69e574b4c9dd17f97219264736f6c634300080a0033",
            "0x6080604052600436106102a25760003560e01c80635639671511610165578063a457c2d7116100cc578063d046815611610085578063d046815614610787578063d0e30db01461079c578063d4970524146107a4578063dd62ed3e146107ac578063efd60347146107cc578063f79c3f02146107d4578063fb5b82d0146107f4576102b2565b8063a457c2d7146106ea578063a9059cbb1461070a578063ac232bde1461072a578063bf15af561461073d578063c5eff3d014610752578063cc48cd3114610767576102b2565b80637adbf9731161011e5780637adbf97314610648578063833b1fce1461066857806386a92af71461067d57806387f2adfb1461069257806395d89b41146106a75780639b498e26146106d5576102b2565b8063563967151461059e57806358bf3c7f146105b35780636e9960c3146105d357806370a08231146105e8578063750521f514610608578063799a195414610628576102b2565b80631bcbfaba1161020957806336bf3325116101c257806336bf332514610502578063395093511461051f5780633af9e6691461053f57806346425ef01461055f5780635022820114610574578063540bc5ea14610589576102b2565b80631bcbfaba1461045c57806323b872dd14610471578063281a312214610491578063291206f6146104b15780632cb562e1146104d1578063313ce567146104e6576102b2565b80631311cf8d1161025b5780631311cf8d146103b057806313d86aed146103d0578063143a08d4146103f0578063147bf6c4146104055780631546962b1461042557806318160ddd14610447576102b2565b8063020f086e146102cb57806304843a17146102eb57806306fdde0314610313578063095ea7b3146103565780630e18b68114610386578063107d7fa01461039b576102b2565b366102b2576102b033610814565b005b60405163574b16a760e11b815260040160405180910390fd5b3480156102d757600080fd5b506102b06102e6366004612f96565b61089b565b3480156102f757600080fd5b5061030061091f565b6040519081526020015b60405180910390f35b34801561031f57600080fd5b50604080518082019091526011815270098d2e2ead2c840a6e8c2d6cac8408aa89607b1b60208201525b60405161030a9190613009565b34801561036257600080fd5b5061037661037136600461301c565b61092e565b604051901515815260200161030a565b34801561039257600080fd5b506102b0610944565b3480156103a757600080fd5b5061030061099b565b3480156103bc57600080fd5b506102b06103cb366004612f96565b6109a5565b3480156103dc57600080fd5b506102b06103eb366004613046565b610a20565b3480156103fc57600080fd5b50610300610bd9565b34801561041157600080fd5b506102b0610420366004612f96565b610be3565b34801561043157600080fd5b5061043a610c2a565b60405161030a919061305f565b34801561045357600080fd5b50610300610c34565b34801561046857600080fd5b50610300610c3e565b34801561047d57600080fd5b5061037661048c366004613073565b610c48565b34801561049d57600080fd5b506102b06104ac3660046130af565b610cfb565b3480156104bd57600080fd5b506102b06104cc366004613046565b610edd565b3480156104dd57600080fd5b5061043a610f58565b3480156104f257600080fd5b506040516012815260200161030a565b34801561050e57600080fd5b506103006801bc16d674ec80000081565b34801561052b57600080fd5b5061037661053a36600461301c565b610f62565b34801561054b57600080fd5b5061030061055a366004612f96565b610f83565b34801561056b57600080fd5b50610300610f9c565b34801561058057600080fd5b5061043a610fa6565b34801561059557600080fd5b50610300606081565b3480156105aa57600080fd5b50610300610fb0565b3480156105bf57600080fd5b506102b06105ce366004612f96565b610fba565b3480156105df57600080fd5b5061043a611035565b3480156105f457600080fd5b50610300610603366004612f96565b61103f565b34801561061457600080fd5b506102b06106233660046131b8565b61104a565b34801561063457600080fd5b50610300610643366004613046565b6110c6565b34801561065457600080fd5b506102b0610663366004612f96565b6110d1565b34801561067457600080fd5b5061043a61114c565b34801561068957600080fd5b50610349611156565b34801561069e57600080fd5b50610300611160565b3480156106b357600080fd5b50604080518082019091526005815264098e68aa8960db1b6020820152610349565b3480156106e157600080fd5b5061043a61116a565b3480156106f657600080fd5b5061037661070536600461301c565b611174565b34801561071657600080fd5b5061037661072536600461301c565b611190565b6102b0610738366004612f96565b61122f565b34801561074957600080fd5b50610300603081565b34801561075e57600080fd5b5061043a611241565b34801561077357600080fd5b506102b0610782366004613238565b61124b565b34801561079357600080fd5b5061043a61140b565b6102b0611415565b6102b061141e565b3480156107b857600080fd5b506103006107c736600461326a565b611459565b6102b061146c565b3480156107e057600080fd5b506103006107ef366004613046565b611474565b34801561080057600080fd5b506102b061080f366004612f96565b61147f565b34610832576040516395b66fe960e01b815260040160405180910390fd5b61084d3461083e6114fa565b61084891906132b3565b61152e565b610858338234611561565b6040513481526001600160a01b0382169033907f3bc57f469ad6d10d7723ea226cd22bd2b9e527def2b529f6ab44645a166895829060200160405180910390a350565b6108a36116fb565b6001600160a01b0316336001600160a01b0316146108df573360405163472511eb60e11b81526004016108d6919061305f565b60405180910390fd5b6108e881611705565b6040516001600160a01b038216907f67b26a33f305cc027b2d45b2f6f418793afcd3e22f7376afa7be068ce18604e890600090a250565b60006109296114fa565b905090565b600061093b33848461173c565b50600192915050565b61094c6117ab565b6001600160a01b0316336001600160a01b03161461097f573360405163472511eb60e11b81526004016108d6919061305f565b61098f61098a6117ab565b6117b5565b61099960006117fe565b565b600061092961183e565b6109ad6116fb565b6001600160a01b0316336001600160a01b0316146109e0573360405163472511eb60e11b81526004016108d6919061305f565b6109e98161186e565b6040516001600160a01b038216907f1da4c245099590dc40be61880c9b97792f3694d970acc1e67ac0e6cc90f3780d90600090a250565b610a286118a5565b6001600160a01b0316336001600160a01b031614610a5b573360405163472511eb60e11b81526004016108d6919061305f565b6000610a656114fa565b90506000610a85610a7f6801bc16d674ec800000846132cb565b846118af565b905080610aa557604051631036b5ad60e31b815260040160405180910390fd5b600080610ab1836118c4565b8151919350915080610ad65760405163200149ad60e21b815260040160405180910390fd5b83811115610af757604051635993bd5760e01b815260040160405180910390fd5b8151818114610b19576040516322e5ce4360e21b815260040160405180910390fd5b6000610b2361194c565b905080610b4357604051639be7315960e01b815260040160405180910390fd5b60005b83811015610b9357610b8b868281518110610b6357610b636132ed565b6020026020010151868381518110610b7d57610b7d6132ed565b60200260200101518461197c565b600101610b46565b50610bb4610baa846801bc16d674ec800000613303565b6108489089613322565b610bcf83610bc0611e04565b610bca91906132b3565b611e34565b5050505050505050565b6000610929611e62565b610beb6116fb565b6001600160a01b0316336001600160a01b031614610c1e573360405163472511eb60e11b81526004016108d6919061305f565b610c27816117fe565b50565b6000610929611edc565b6000610929611f0c565b6000610929611f16565b60008383610c568282611f46565b8380610c75576040516336b216db60e21b815260040160405180910390fd5b868580610c8183612072565b1015610ca0576040516351940b3960e11b815260040160405180910390fd5b6001600160a01b038816610cd957604051637617407560e11b81526001600160a01b038a166004820152600060248201526044016108d6565b610ce3898861207d565b610cee8989896120e3565b9998505050505050505050565b6000610d05612171565b8114610d365780610d14612171565b604051631cfd276760e31b8152600481019290925260248201526044016108d6565b610d49610d448260016132b3565b6121a1565b610d52866117b5565b610d5b836121cf565b6040516001600160a01b038416907f0cc5437d7c9c1d9eab549acbb533eea3e9868e9443dd75309ed5820b33a3774e90600090a2610d9882612206565b6040518281527fbd533e726baaf59b36f3914d950053f7e78f527057c97cd3f0043257fc0fc8849060200160405180910390a1610dd48961186e565b6040516001600160a01b038a16907f1da4c245099590dc40be61880c9b97792f3694d970acc1e67ac0e6cc90f3780d90600090a2610e118561223d565b6040516001600160a01b038616907f30f015a5d3c72c0a9414538199baa022323a483fa9e4ba2cd581596cf8ca042490600090a2610e4e84612274565b6040516001600160a01b038516907fffc0721ef0563a1b0a51a0dc92113025f33ca434ada9ee3eebff2f385d2a8f9a90600090a2610e8c8a896122ab565b610e958761110c565b7f1809e49bba43f2d39fa57894b50cd6ccb428cc438230e065cac3eb24a1355a7181600036604051610ec993929190613339565b60405180910390a150505050505050505050565b610ee56116fb565b6001600160a01b0316336001600160a01b031614610f18573360405163472511eb60e11b81526004016108d6919061305f565b610f2181612206565b6040518181527fbd533e726baaf59b36f3914d950053f7e78f527057c97cd3f0043257fc0fc884906020015b60405180910390a150565b6000610929612327565b600061093b338484610f743388612357565b610f7e91906132b3565b61173c565b6000610f96610f91836123af565b6123fd565b92915050565b6000610929612435565b6000610929612465565b600061092961194c565b610fc26116fb565b6001600160a01b0316336001600160a01b031614610ff5573360405163472511eb60e11b81526004016108d6919061305f565b610ffe8161223d565b6040516001600160a01b038216907f30f015a5d3c72c0a9414538199baa022323a483fa9e4ba2cd581596cf8ca042490600090a250565b60006109296116fb565b6000610f9682612072565b6110526116fb565b6001600160a01b0316336001600160a01b031614611085573360405163472511eb60e11b81526004016108d6919061305f565b61108e81612495565b611097816124b4565b7f8d2df192dd17edf92a7964b78aa322f3d717b2ab9de00651bee32bbc4c5da63a81604051610f4d9190613009565b6000610f96826124fe565b6110d96118a5565b6001600160a01b0316336001600160a01b03161461110c573360405163472511eb60e11b81526004016108d6919061305f565b6111158161252b565b6040516001600160a01b038216907fd3b5d1e0ffaeff528910f3663f0adace7694ab8241d58e17a91351ced2e0803190600090a250565b6000610929612562565b6060610929612592565b6000610929611e04565b6000610929612658565b600061093b3384846111863388612357565b610f7e9190613322565b6000338361119e8282611f46565b83806111bd576040516336b216db60e21b815260040160405180910390fd5b3385806111c983612072565b10156111e8576040516351940b3960e11b815260040160405180910390fd5b6001600160a01b03881661121857604051637617407560e11b8152336004820152600060248201526044016108d6565b6112233389896120e3565b98975050505050505050565b61123881612688565b610c2781610814565b60006109296126af565b611253612562565b6001600160a01b0316336001600160a01b031614611286573360405163472511eb60e11b81526004016108d6919061305f565b61128e611e04565b8411156112c0578361129e611e04565b6040516376179ac560e01b8152600481019290925260248201526044016108d6565b60006112ca61183e565b6112d49086613322565b905060006112eb826801bc16d674ec800000613303565b6112f3612435565b6112fd91906132b3565b9050611308856126df565b6113118661270d565b61131a8461273b565b60008561132783866132b3565b111561134d5761134a8661133b84876132b3565b6113459190613322565b612769565b90505b858161135984876132b3565b6113639190613322565b111561139357611391868261137885886132b3565b6113829190613322565b61138c9190613322565b612832565b505b61139d81876132b3565b8210156113c1576113c1826113b283896132b3565b6113bc9190613322565b612904565b60408051888152602081018890529081018690527f25d7358447891786a139ae7149548f3232a8c95f2ea6065c69c5bd7c39cd386c9060600160405180910390a150505050505050565b60006109296117ab565b61099933610814565b611426611edc565b6001600160a01b0316336001600160a01b031614610999573360405163472511eb60e11b81526004016108d6919061305f565b60006114658383612357565b9392505050565b611426612327565b6000610f96826123fd565b6114876116fb565b6001600160a01b0316336001600160a01b0316146114ba573360405163472511eb60e11b81526004016108d6919061305f565b6114c3816121cf565b6040516001600160a01b038216907f0cc5437d7c9c1d9eab549acbb533eea3e9868e9443dd75309ed5820b33a3774e90600090a250565b600061092961152a60017f2b6136e423ab70d76431e2a635e877e16ea2dd9a895e054ad7f35f89d6c7b711613322565b5490565b610c2761155c60017f2b6136e423ab70d76431e2a635e877e16ea2dd9a895e054ad7f35f89d6c7b711613322565b829055565b600061156d8483612a36565b905060006115796126af565b9050836001600160a01b0316856001600160a01b031614156115fa57604051632d20488160e11b81526001600160a01b03868116600483015260016024830152821690635a4091029060440160006040518083038186803b1580156115dd57600080fd5b505afa1580156115f1573d6000803e3d6000fd5b505050506116f4565b604051632d20488160e11b81526001600160a01b03868116600483015260016024830152821690635a4091029060440160006040518083038186803b15801561164257600080fd5b505afa158015611656573d6000803e3d6000fd5b505060405163e838dfbb60e01b81526001600160a01b038416925063e838dfbb915061168690879060040161305f565b602060405180830381865afa1580156116a3573d6000803e3d6000fd5b505050506040513d601f19601f820116820180604052508101906116c7919061336f565b156116e7578360405163e7d05e2760e01b81526004016108d6919061305f565b6116f28585846120e3565b505b5050505050565b6000610929612a95565b61170e81612688565b610c2761155c60017ff4271262f3552a4108cde54dc75061de8de495709221d793b126e448522d6a80613322565b61174583612688565b61174e82612688565b611759838383612ac5565b816001600160a01b0316836001600160a01b03167f8c5be1e5ebec7d5bd14f71427d1e84f3dd0314c0f7b2291e5b200ac8c7c3b9258360405161179e91815260200190565b60405180910390a3505050565b6000610929612b1c565b6117be81612688565b6117c781612b4c565b6040516001600160a01b038216907f5a272403b402d892977df56625f4164ccaf70ca3863991c43ecfe76a6905b0a190600090a250565b61180781612b55565b6040516001600160a01b038216907f2a0f8515de3fa34ef68b99300347b8793c01683350743e96fe440594528298f490600090a250565b600061092961152a60017f0f1e7733641e4d843128fea0d2ec90d3d06a40b0fe244ff603d8c1aa200dc0f9613322565b61187781612688565b610c2761155c60017f8e9e2a1d30fed357d8a000c1131fc77ed65d2052918caf1ccc6eb1e7af3d13b6613322565b6000610929611035565b60008183116118be5782611465565b50919050565b6060806118cf612658565b6001600160a01b031663a1947323846040518263ffffffff1660e01b81526004016118fc91815260200190565b6000604051808303816000875af115801561191b573d6000803e3d6000fd5b505050506040513d6000823e601f3d908101601f191682016040526119439190810190613460565b91509150915091565b600061092961152a60017fb649e50315f962b32d487e696a81b4828631b11f8424daaaa37e9e97766a2c42613322565b603083511461199e5760405163050cb55360e41b815260040160405180910390fd5b60608251146119c05760405163408ebd3960e01b815260040160405180910390fd5b6801bc16d674ec80000060006119da633b9aca00836132cb565b90506000600286600060801b6040516020016119f79291906134c4565b60408051601f1981840301815290829052611a11916134f3565b602060405180830381855afa158015611a2e573d6000803e3d6000fd5b5050506040513d601f19601f82011682018060405250810190611a51919061350f565b90506000600280611a658860006040612b5e565b604051611a7291906134f3565b602060405180830381855afa158015611a8f573d6000803e3d6000fd5b5050506040513d601f19601f82011682018060405250810190611ab2919061350f565b6002611aca896040611ac5816060613322565b612b5e565b604051611add9190600090602001613528565b60408051601f1981840301815290829052611af7916134f3565b602060405180830381855afa158015611b14573d6000803e3d6000fd5b5050506040513d601f19601f82011682018060405250810190611b37919061350f565b60408051602081019390935282015260600160408051601f1981840301815290829052611b63916134f3565b602060405180830381855afa158015611b80573d6000803e3d6000fd5b5050506040513d601f19601f82011682018060405250810190611ba3919061350f565b905060006002808488604051602001611bc6929190918252602082015260400190565b60408051601f1981840301815290829052611be0916134f3565b602060405180830381855afa158015611bfd573d6000803e3d6000fd5b5050506040513d601f19601f82011682018060405250810190611c20919061350f565b6002611c2b87612c21565b604080516020810192909252810186905260600160408051601f1981840301815290829052611c59916134f3565b602060405180830381855afa158015611c76573d6000803e3d6000fd5b5050506040513d601f19601f82011682018060405250810190611c99919061350f565b60408051602081019390935282015260600160408051601f1981840301815290829052611cc5916134f3565b602060405180830381855afa158015611ce2573d6000803e3d6000fd5b5050506040513d601f19601f82011682018060405250810190611d05919061350f565b90506000611d138647613322565b9050611d1d612c8e565b6001600160a01b03166322895118878b8a604051602001611d4091815260200190565b6040516020818303038152906040528c876040518663ffffffff1660e01b8152600401611d70949392919061354a565b6000604051808303818588803b158015611d8957600080fd5b505af1158015611d9d573d6000803e3d6000fd5b5050505050804714611dc257604051638051a6bb60e01b815260040160405180910390fd5b7f11553d182c6d24df901ccbb837d640c1ee9994876a88dccc8ddfd7ebab9b6ce189604051611df19190613009565b60405180910390a1505050505050505050565b600061092961152a60017fc77078e3530c08cdb2440817c81de4836500b4708ea4d15672b7fe98956423a8613322565b610c2761155c60017fc77078e3530c08cdb2440817c81de4836500b4708ea4d15672b7fe98956423a8613322565b600080611e6d61183e565b90506000611e79611e04565b905080821015611ecc576801bc16d674ec800000611e978383613322565b611ea19190613303565b611ea96114fa565b611eb1612435565b611ebb91906132b3565b611ec591906132b3565b9250505090565b611ed46114fa565b611ebb612435565b600061092961152a60017ff4271262f3552a4108cde54dc75061de8de495709221d793b126e448522d6a80613322565b6000610929612cbe565b600061092961152a60017f094efef62d2ce60c14ffacd35a1b50546d3a9d503aff1df040176fffd6c92a37613322565b6000611f506126af565b60405163e838dfbb60e01b81529091506001600160a01b0382169063e838dfbb90611f7f90869060040161305f565b602060405180830381865afa158015611f9c573d6000803e3d6000fd5b505050506040513d601f19601f82011682018060405250810190611fc0919061336f565b15611fe0578260405163e7d05e2760e01b81526004016108d6919061305f565b60405163e838dfbb60e01b81526001600160a01b0382169063e838dfbb9061200c90859060040161305f565b602060405180830381865afa158015612029573d6000803e3d6000fd5b505050506040513d601f19601f8201168201806040525081019061204d919061336f565b1561206d578160405163e7d05e2760e01b81526004016108d6919061305f565b505050565b6000610f96826123af565b60006120898333612357565b9050818110156120cb57604051637b936de360e01b81526001600160a01b038416600482015233602482015260448101829052606481018390526084016108d6565b600019811461206d5761206d8333610f7e8585613322565b600061210284836120f3876123af565b6120fd9190613322565b612cee565b61211a8383612110866123af565b6120fd91906132b3565b826001600160a01b0316846001600160a01b03167fddf252ad1be2c89b69c2b068fc378daa952ba7f163c4a11628f55a4df523b3ef8460405161215f91815260200190565b60405180910390a35060019392505050565b600061092961152a60017f82055909238c0f5e63d6f174068ebb8f51bcec9bd37de63bb68f6551feec0cfd613322565b610c2761155c60017f82055909238c0f5e63d6f174068ebb8f51bcec9bd37de63bb68f6551feec0cfd613322565b6121d881612688565b610c2761155c60017f082b6d18de7b10e438e6b1002141db737519cb4ceed679bc815e3aac00cd2227613322565b61220f81612d3a565b610c2761155c60017f094efef62d2ce60c14ffacd35a1b50546d3a9d503aff1df040176fffd6c92a37613322565b61224681612688565b610c2761155c60017f867d8f1a5e39d11d5bebde854d5359a509530ad32450f581da63c06ec8d1a780613322565b61227d81612688565b610c2761155c60017f3f075dea7ef99b1e5db245018e5e4ed8d2a0d93953f5932b2176bef59bd69061613322565b6122b482612d5d565b6040516001600160a01b038316907e043cf7635f276413ae358250286a479a631abd9d74d57d4aa0bb87ebc7d11790600090a26122f081612d94565b6040518181527f4c86ba184ea1a1558f84835ca34f6d67e222e8ee5cc4f324b8861dda4cf1740c9060200160405180910390a15050565b600061092961152a60017f8e9e2a1d30fed357d8a000c1131fc77ed65d2052918caf1ccc6eb1e7af3d13b6613322565b60008061238560017fc852254d5b703a16bb13b3e233a335d6459c5da5db0ca732d7a684ee05407847613322565b6001600160a01b039485166000908152602091825260408082209590961681529390525050205490565b6000806123dd60017f0fb4a5ac9287f4f508aa7253ee2d57c6a228b1b30e210d73fffd59389d3a8838613322565b6001600160a01b0390931660009081526020939093525050604090205490565b600080612408612cbe565b9050806124185750600092915050565b80612421611e62565b61242b9085613303565b61146591906132cb565b600061092961152a60017ffedfd2c285a57fb23bf45a3fe9ac02d36a76ebb72801b1c8aaf553d74e9d4653613322565b600061092961152a60017f082b6d18de7b10e438e6b1002141db737519cb4ceed679bc815e3aac00cd2227613322565b8051610c2757604051638d46fe0560e01b815260040160405180910390fd5b60006124e160017fb63f3482ec84cb93d74a71645ad2e9e896fa02723e42170b4aad20a4bed6cdd6613322565b825190915081906124f89082906020860190612ee1565b50505050565b600080612509612cbe565b9050806125195750600092915050565b612521611e62565b61242b8285613303565b61253481612688565b610c2761155c60017fc8cbea9407c380ae944f052b5a442330057683c5abdbd453493f9750806afecb613322565b600061092961152a60017fc8cbea9407c380ae944f052b5a442330057683c5abdbd453493f9750806afecb613322565b606060006125c160017fb63f3482ec84cb93d74a71645ad2e9e896fa02723e42170b4aad20a4bed6cdd6613322565b8054909150819081906125d390613595565b80601f01602080910402602001604051908101604052809291908181526020018280546125ff90613595565b801561264c5780601f106126215761010080835404028352916020019161264c565b820191906000526020600020905b81548152906001019060200180831161262f57829003601f168201915b50505050509250505090565b600061092961152a60017f3f075dea7ef99b1e5db245018e5e4ed8d2a0d93953f5932b2176bef59bd69061613322565b6001600160a01b038116610c275760405163f6b2911f60e01b815260040160405180910390fd5b600061092961152a60017f867d8f1a5e39d11d5bebde854d5359a509530ad32450f581da63c06ec8d1a780613322565b610c2761155c60017ffedfd2c285a57fb23bf45a3fe9ac02d36a76ebb72801b1c8aaf553d74e9d4653613322565b610c2761155c60017f0f1e7733641e4d843128fea0d2ec90d3d06a40b0fe244ff603d8c1aa200dc0f9613322565b610c2761155c60017fd7f2d45e512a86049f7a113657b39731b6b558609584243063a52cd31a8eb529613322565b600080612774612327565b60405163c8a6dfd360e01b81526004810185905290915047906001600160a01b0383169063c8a6dfd390602401600060405180830381600087803b1580156127bb57600080fd5b505af11580156127cf573d6000803e3d6000fd5b50505050600081476127e19190613322565b9050801561282a576127f58161083e6114fa565b6040518181527fda841d3042d792e2509a333b9dcbd4b3dd9b9047d382011f8788fab90ca7e3c7906020015b60405180910390a15b949350505050565b60008061283d611edc565b90506001600160a01b0381166128565750600092915050565b604051638ede6b6b60e01b81526004810184905247906001600160a01b03831690638ede6b6b90602401600060405180830381600087803b15801561289a57600080fd5b505af11580156128ae573d6000803e3d6000fd5b50505050600081476128c09190613322565b9050801561282a576128d48161083e6114fa565b6040518181527fd500b67e5bd8019c0af744cadeec120d1b5e3d3a3a011f18cf182aa4c97947b690602001612821565b600061290e611f0c565b90508061292e57604051630d35acd760e21b815260040160405180910390fd5b6000612938611e62565b90506000612944611f16565b90506000816129538587613303565b61295d9190613303565b9050600061296b8387613303565b61297761271086613303565b6129819190613322565b90506000811561299a5761299582846132cb565b61299d565b60005b90508015612a2d5760006129af612465565b90506129bb8183612de0565b60006129c5611f0c565b905060006129d38a89613322565b60408051828152602081018c90529081018a9052606081018490529091506001600160a01b038416907f3d1669e813a9845c288f0e1f642a4343a451103b87886d12de37e63b39bbd9429060800160405180910390a25050505b50505050505050565b60008082612a42611e62565b612a4c9190613322565b905080612a6557829150612a608484612de0565b612a8e565b80612a6e611f0c565b612a789085613303565b612a8291906132cb565b9150612a8e8483612de0565b5092915050565b600061092961152a60017fb5b37715a3e346e996104f0086703f19825def429233930fd9399c38e05fb113613322565b6000612af260017fc852254d5b703a16bb13b3e233a335d6459c5da5db0ca732d7a684ee05407847613322565b6001600160a01b039485166000908152602091825260408082209590961681529390525091902055565b600061092961152a60017f6e6ab8b7c7aaba79eef8cc633522d606bb008c101cf9832c9ad05d10a9847281613322565b610c2781612e4e565b610c2781612e85565b60608182601f011015612b84576040516323d5783d60e11b815260040160405180910390fd5b612b8e82846132b3565b84511015612baf57604051633b99b53d60e01b815260040160405180910390fd5b606082158015612bce5760405191506000825260208201604052612c18565b6040519150601f8416801560200281840101858101878315602002848b0101015b81831015612c07578051835260209283019201612bef565b5050858452601f01601f1916604052505b50949350505050565b603881901c60ff908116603083901c8216602884901c8316602085901c8416601886901c8516601087901c8616600888811c9790971688881b61ff001617871b17861b17851b17841b17831b1790911b17604082901c8015612c8557612c856135ca565b5060c01b919050565b600061092961152a60017f35efb61d8784060218d9d6aa40eae55904de43779c1afc79c74dfefcfdf91260613322565b600061092961152a60017f6b842b424335d94ccad97e54548dfa02673c1268aba38d3c3c32d28c8988b70b613322565b6000612d1b60017f0fb4a5ac9287f4f508aa7253ee2d57c6a228b1b30e210d73fffd59389d3a8838613322565b6001600160a01b03909316600090815260209390935250604090912055565b612710811115610c27576040516358d620b360e01b815260040160405180910390fd5b612d6681612688565b610c2761155c60017f35efb61d8784060218d9d6aa40eae55904de43779c1afc79c74dfefcfdf91260613322565b80612db25760405163a9cb9e0d60e01b815260040160405180910390fd5b610c2761155c60017fb649e50315f962b32d487e696a81b4828631b11f8424daaaa37e9e97766a2c42613322565b612dfb81612dec612cbe565b612df691906132b3565b612eb3565b612e098282612110856123af565b6040518181526001600160a01b038316906000907fddf252ad1be2c89b69c2b068fc378daa952ba7f163c4a11628f55a4df523b3ef9060200160405180910390a35050565b612e5781612688565b610c2761155c60017fb5b37715a3e346e996104f0086703f19825def429233930fd9399c38e05fb113613322565b610c2761155c60017f6e6ab8b7c7aaba79eef8cc633522d606bb008c101cf9832c9ad05d10a9847281613322565b610c2761155c60017f6b842b424335d94ccad97e54548dfa02673c1268aba38d3c3c32d28c8988b70b613322565b828054612eed90613595565b90600052602060002090601f016020900481019282612f0f5760008555612f55565b82601f10612f2857805160ff1916838001178555612f55565b82800160010185558215612f55579182015b82811115612f55578251825591602001919060010190612f3a565b50612f61929150612f65565b5090565b5b80821115612f615760008155600101612f66565b80356001600160a01b0381168114612f9157600080fd5b919050565b600060208284031215612fa857600080fd5b61146582612f7a565b60005b83811015612fcc578181015183820152602001612fb4565b838111156124f85750506000910152565b60008151808452612ff5816020860160208601612fb1565b601f01601f19169290920160200192915050565b6020815260006114656020830184612fdd565b6000806040838503121561302f57600080fd5b61303883612f7a565b946020939093013593505050565b60006020828403121561305857600080fd5b5035919050565b6001600160a01b0391909116815260200190565b60008060006060848603121561308857600080fd5b61309184612f7a565b925061309f60208501612f7a565b9150604084013590509250925092565b60008060008060008060008060006101208a8c0312156130ce57600080fd5b6130d78a612f7a565b98506130e560208b01612f7a565b975060408a013596506130fa60608b01612f7a565b955061310860808b01612f7a565b945061311660a08b01612f7a565b935061312460c08b01612f7a565b925061313260e08b01612f7a565b91506101008a013590509295985092959850929598565b634e487b7160e01b600052604160045260246000fd5b604051601f8201601f1916810167ffffffffffffffff8111828210171561318857613188613149565b604052919050565b600067ffffffffffffffff8211156131aa576131aa613149565b50601f01601f191660200190565b6000602082840312156131ca57600080fd5b813567ffffffffffffffff8111156131e157600080fd5b8201601f810184136131f257600080fd5b803561320561320082613190565b61315f565b81815285602083850101111561321a57600080fd5b81602084016020830137600091810160200191909152949350505050565b6000806000806080858703121561324e57600080fd5b5050823594602084013594506040840135936060013592509050565b6000806040838503121561327d57600080fd5b61328683612f7a565b915061329460208401612f7a565b90509250929050565b634e487b7160e01b600052601160045260246000fd5b600082198211156132c6576132c661329d565b500190565b6000826132e857634e487b7160e01b600052601260045260246000fd5b500490565b634e487b7160e01b600052603260045260246000fd5b600081600019048311821515161561331d5761331d61329d565b500290565b6000828210156133345761333461329d565b500390565b83815260406020820152816040820152818360608301376000818301606090810191909152601f909201601f1916010192915050565b60006020828403121561338157600080fd5b8151801515811461146557600080fd5b600082601f8301126133a257600080fd5b8151602067ffffffffffffffff808311156133bf576133bf613149565b8260051b6133ce83820161315f565b93845285810183019383810190888611156133e857600080fd5b84880192505b85831015611223578251848111156134065760008081fd5b8801603f81018a136134185760008081fd5b85810151604061342a61320083613190565b8281528c8284860101111561343f5760008081fd5b61344e838a8301848701612fb1565b855250505091840191908401906133ee565b6000806040838503121561347357600080fd5b825167ffffffffffffffff8082111561348b57600080fd5b61349786838701613391565b935060208501519150808211156134ad57600080fd5b506134ba85828601613391565b9150509250929050565b600083516134d6818460208801612fb1565b6001600160801b0319939093169190920190815260100192915050565b60008251613505818460208701612fb1565b9190910192915050565b60006020828403121561352157600080fd5b5051919050565b6000835161353a818460208801612fb1565b9190910191825250602001919050565b60808152600061355d6080830187612fdd565b828103602084015261356f8187612fdd565b905082810360408401526135838186612fdd565b91505082606083015295945050505050565b600181811c908216806135a957607f821691505b602082108114156118be57634e487b7160e01b600052602260045260246000fd5b634e487b7160e01b600052600160045260246000fdfea2646970667358221220970321c783abf715e67020d8e4b80f54819b7eacd341ba3f4ceafe86e46d3bd764736f6c634300080a0033",
            "0x6080604052600436106103ba5760003560e01c80635d95e801116101f9578063a29a839f1161011e578063d4970524116100b6578063efd668461161007a578063efd6684614610c07578063f79c3f0214610c27578063f9f95a9014610c47578063fb5b82d014610c67578063fe7c12ae14610c87576103ca565b8063d497052414610b9b578063d7f8f47414610790578063dd62ed3e14610ba3578063e3a88e6114610bc3578063efd6034714610bff576103ca565b8063a29a839f14610acc578063a457c2d714610ae1578063a9059cbb14610b01578063ac232bde14610b21578063bb6583ec14610b34578063bf15af5614610b54578063c5eff3d014610b69578063d046815614610b7e578063d0e30db014610b93576103ca565b80637adbf973116101915780637adbf973146109b8578063833b1fce146109d857806386a92af7146109ed57806387f2adfb14610a0257806389896aef14610a175780639332525d14610a2c57806395d89b4114610a595780639b498e2614610a875780639d49cca114610a9c576103ca565b80635d95e801146108a95780635f2e5f07146108b157806363f62aaf146108de5780636e9960c3146108f357806370a082311461090857806372f79b1314610928578063750521f51461095857806378a010e814610978578063799a195414610998576103ca565b806323b872dd116102df5780633af9e669116102775780633af9e669146107cd57806346425ef0146107ed5780634b47b74f146108025780635022820114610817578063540bc5ea1461082c578063557ed1ba14610841578063563967151461085457806357fa85471461086957806358bf3c7f14610889576103ca565b806323b872dd14610686578063281a3122146106a6578063291206f6146106c65780632cb562e1146106e65780632d6b59bf146106fb5780632dc5c97c14610710578063313ce5671461077457806336bf33251461079057806339509351146107ad576103ca565b80631311cf8d116103525780631311cf8d1461052557806313d86aed14610545578063143a08d414610565578063147bf6c41461057a5780631546962b1461059a57806315ca4cee146105bc57806317e64858146105dc57806318160ddd1461065c5780631bcbfaba14610671576103ca565b8063020f086e146103e35780630407de471461040357806304843a1714610423578063056850c61461044b57806306fdde0314610453578063095ea7b3146104965780630e18b681146104c6578063107703ab146104db578063107d7fa014610510576103ca565b366103ca576103c833610c9c565b005b60405163574b16a760e11b815260040160405180910390fd5b3480156103ef57600080fd5b506103c86103fe366004615051565b610d23565b34801561040f57600080fd5b506103c861041e36600461509a565b610da7565b34801561042f57600080fd5b50610438610ec9565b6040519081526020015b60405180910390f35b6103c8610ed8565b34801561045f57600080fd5b50604080518082019091526011815270098d2e2ead2c840a6e8c2d6cac8408aa89607b1b60208201525b604051610442919061519e565b3480156104a257600080fd5b506104b66104b13660046151b1565b610f15565b6040519015158152602001610442565b3480156104d257600080fd5b506103c8610f2b565b3480156104e757600080fd5b506104fb6104f63660046151db565b610f80565b60405163ffffffff9091168152602001610442565b34801561051c57600080fd5b50610438611078565b34801561053157600080fd5b506103c8610540366004615051565b611091565b34801561055157600080fd5b506103c8610560366004615207565b61110c565b34801561057157600080fd5b506104386112b4565b34801561058657600080fd5b506103c8610595366004615051565b6112be565b3480156105a657600080fd5b506105af611305565b6040516104429190615220565b3480156105c857600080fd5b506103c86105d7366004615234565b61130f565b3480156105e857600080fd5b506105f16113a2565b6040516104429190600061010082019050825182526020830151602083015260408301516040830152606083015160608301526080830151608083015263ffffffff60a08401511660a083015260c0830151151560c083015260e0830151151560e083015292915050565b34801561066857600080fd5b50610438611425565b34801561067d57600080fd5b5061043861142f565b34801561069257600080fd5b506104b66106a1366004615246565b611439565b3480156106b257600080fd5b506103c86106c1366004615282565b6114ec565b3480156106d257600080fd5b506103c86106e1366004615207565b6116a7565b3480156106f257600080fd5b506105af61171b565b34801561070757600080fd5b50610438611725565b34801561071c57600080fd5b5061072561172f565b604051610442919081516001600160401b039081168252602080840151821690830152604080840151821690830152606080840151821690830152608092830151169181019190915260a00190565b34801561078057600080fd5b5060405160128152602001610442565b34801561079c57600080fd5b506104386801bc16d674ec80000081565b3480156107b957600080fd5b506104b66107c83660046151b1565b61173f565b3480156107d957600080fd5b506104386107e8366004615051565b611760565b3480156107f957600080fd5b50610438611779565b34801561080e57600080fd5b5061043861178c565b34801561082357600080fd5b506105af6117f5565b34801561083857600080fd5b50610438606081565b34801561084d57600080fd5b5042610438565b34801561086057600080fd5b506104386117ff565b34801561087557600080fd5b50610438610884366004615207565b611809565b34801561089557600080fd5b506103c86108a4366004615051565b611831565b6103c86118ac565b3480156108bd57600080fd5b506108d16108cc366004615367565b6118b4565b60405161044291906153a8565b3480156108ea57600080fd5b506105af611930565b3480156108ff57600080fd5b506105af61193a565b34801561091457600080fd5b50610438610923366004615051565b611944565b34801561093457600080fd5b5061093d61194f565b60408051938452602084019290925290820152606001610442565b34801561096457600080fd5b506103c8610973366004615484565b611a1f565b34801561098457600080fd5b506103c8610993366004615503565b611a9b565b3480156109a457600080fd5b506104386109b3366004615207565b611b6c565b3480156109c457600080fd5b506103c86109d3366004615051565b611b77565b3480156109e457600080fd5b506105af611bf2565b3480156109f957600080fd5b50610489611bfc565b348015610a0e57600080fd5b50610438611c06565b348015610a2357600080fd5b50610438611c10565b348015610a3857600080fd5b50610a4c610a47366004615515565b611c20565b6040516104429190615580565b348015610a6557600080fd5b50604080518082019091526005815264098e68aa8960db1b6020820152610489565b348015610a9357600080fd5b506105af611cb2565b348015610aa857600080fd5b50610ab1611cbc565b60408051825181526020928301519281019290925201610442565b348015610ad857600080fd5b50610438611cd8565b348015610aed57600080fd5b506104b6610afc3660046151b1565b611cea565b348015610b0d57600080fd5b506104b6610b1c3660046151b1565b611d06565b6103c8610b2f366004615051565b611da5565b348015610b4057600080fd5b506103c8610b4f3660046155bb565b611db7565b348015610b6057600080fd5b50610438603081565b348015610b7557600080fd5b506105af611dfb565b348015610b8a57600080fd5b506105af611e05565b6103c8611e0f565b6103c8611e18565b348015610baf57600080fd5b50610438610bbe3660046155f8565b611e20565b348015610bcf57600080fd5b50610bd8611e2c565b6040805182516001600160801b039081168252602093840151169281019290925201610442565b6103c8611e48565b348015610c1357600080fd5b506103c8610c22366004615622565b611e50565b348015610c3357600080fd5b50610438610c42366004615207565b612413565b348015610c5357600080fd5b506104b6610c62366004615207565b61241e565b348015610c7357600080fd5b506103c8610c82366004615051565b612431565b348015610c9357600080fd5b506104386124ac565b34610cba576040516395b66fe960e01b815260040160405180910390fd5b610cd534610cc66124ed565b610cd09190615673565b612521565b610ce033823461256a565b6040513481526001600160a01b0382169033907f3bc57f469ad6d10d7723ea226cd22bd2b9e527def2b529f6ab44645a166895829060200160405180910390a350565b610d2b612702565b6001600160a01b0316336001600160a01b031614610d67573360405163472511eb60e11b8152600401610d5e9190615220565b60405180910390fd5b610d708161270c565b6040516001600160a01b038216907f67b26a33f305cc027b2d45b2f6f418793afcd3e22f7376afa7be068ce18604e890600090a250565b6001610db1612743565b8114610de25780610dc0612743565b604051631cfd276760e31b815260048101929092526024820152604401610d5e565b610df5610df0826001615673565b6124b6565b610dfe8b612773565b7faf890c07e266df31e0725841eb0e85596a0caa1b17bbae5c0b206fdcc92d7ce18b604051610e2d9190615220565b60405180910390a1610e646040518060400160405280856001600160801b03168152602001846001600160801b03168152506127aa565b610e738a8a8a8a8a8a8a6127fe565b610e80308c600019612957565b7f1809e49bba43f2d39fa57894b50cd6ccb428cc438230e065cac3eb24a1355a7181600036604051610eb49392919061568b565b60405180910390a15050505050505050505050565b6000610ed36124ed565b905090565b610ee06129c6565b6001600160a01b0316336001600160a01b031614610f13573360405163472511eb60e11b8152600401610d5e9190615220565b565b6000610f22338484612957565b50600192915050565b610f336129f6565b6001600160a01b0316336001600160a01b031614610f66573360405163472511eb60e11b8152600401610d5e9190615220565b610f76610f716129f6565b612a00565b610f136000612a49565b6000610f8a612a89565b6001600160a01b0316635a4091023360046040518363ffffffff1660e01b8152600401610fb89291906156c1565b60006040518083038186803b158015610fd057600080fd5b505afa158015610fe4573d6000803e3d6000fd5b50505050610ff3333085612ab9565b50610ffc6129c6565b60405163107703ab60e01b8152600481018590526001600160a01b038481166024830152919091169063107703ab906044016020604051808303816000875af115801561104d573d6000803e3d6000fd5b505050506040513d601f19601f8201168201806040525081019061107191906156ec565b9392505050565b6000611082612b35565b6005015463ffffffff16919050565b611099612702565b6001600160a01b0316336001600160a01b0316146110cc573360405163472511eb60e11b8152600401610d5e9190615220565b6110d581612b63565b6040516001600160a01b038216907f1da4c245099590dc40be61880c9b97792f3694d970acc1e67ac0e6cc90f3780d90600090a250565b6000611116612b9a565b905060006111366111306801bc16d674ec8000008461571f565b84612bca565b90508061115657604051631036b5ad60e31b815260040160405180910390fd5b60008061116283612bdf565b81519193509150806111875760405163200149ad60e21b815260040160405180910390fd5b838111156111a857604051635993bd5760e01b815260040160405180910390fd5b60006111b2612c67565b9050806111d257604051639be7315960e01b815260040160405180910390fd5b60005b828110156112225761121a8582815181106111f2576111f2615733565b602002602001015185838151811061120c5761120c615733565b602002602001015184612c97565b6001016111d5565b50611248611239836801bc16d674ec800000615749565b6112439088615768565b6130e8565b6000611252613131565b90506112666112618483615673565b613161565b7f220ab8fd274cf58c09b0825ccf00e74ba4ce4117fd47285adc2183a635838f1b816112928582615673565b6040805192835260208301919091520160405180910390a15050505050505050565b6000610ed361318f565b6112c6612702565b6001600160a01b0316336001600160a01b0316146112f9573360405163472511eb60e11b8152600401610d5e9190615220565b61130281612a49565b50565b6000610ed361324e565b61131761327e565b6001600160a01b0316336001600160a01b03161461134a573360405163472511eb60e11b8152600401610d5e9190615220565b61136161135c3683900383018361577f565b613288565b6040805182358152602080840135908201527f5ab79ffcd89b6380c7fbdd89d02cfe3d9c53c99a85e150c2319075018d1aac5c91015b60405180910390a150565b6113aa614ea4565b6113b2612b35565b60408051610100810182528254815260018301546020820152600283015491810191909152600382015460608201526004820154608082015260059091015463ffffffff811660a083015260ff64010000000082048116151560c0840152600160281b90910416151560e0820152919050565b6000610ed36132cb565b6000610ed36132d5565b600083836114478282613305565b8380611466576040516336b216db60e21b815260040160405180910390fd5b86858061147283613431565b1015611491576040516351940b3960e11b815260040160405180910390fd5b6001600160a01b0388166114ca57604051637617407560e11b81526001600160a01b038a16600482015260006024820152604401610d5e565b6114d4898861343c565b6114df898989612ab9565b9998505050505050505050565b60006114f6612743565b81146115055780610dc0612743565b611513610df0826001615673565b61151c86612a00565b611525836134a2565b6040516001600160a01b038416907f0cc5437d7c9c1d9eab549acbb533eea3e9868e9443dd75309ed5820b33a3774e90600090a2611562826134d9565b6040518281527fbd533e726baaf59b36f3914d950053f7e78f527057c97cd3f0043257fc0fc8849060200160405180910390a161159e89612b63565b6040516001600160a01b038a16907f1da4c245099590dc40be61880c9b97792f3694d970acc1e67ac0e6cc90f3780d90600090a26115db85613510565b6040516001600160a01b038616907f30f015a5d3c72c0a9414538199baa022323a483fa9e4ba2cd581596cf8ca042490600090a261161884613547565b6040516001600160a01b038516907fffc0721ef0563a1b0a51a0dc92113025f33ca434ada9ee3eebff2f385d2a8f9a90600090a26116568a8961357e565b61165f87611bb2565b7f1809e49bba43f2d39fa57894b50cd6ccb428cc438230e065cac3eb24a1355a71816000366040516116939392919061568b565b60405180910390a150505050505050505050565b6116af612702565b6001600160a01b0316336001600160a01b0316146116e2573360405163472511eb60e11b8152600401610d5e9190615220565b6116eb816134d9565b6040518181527fbd533e726baaf59b36f3914d950053f7e78f527057c97cd3f0043257fc0fc88490602001611397565b6000610ed36135fa565b6000610ed361362a565b611737614ef3565b610ed361365a565b6000610f2233848461175133886136e6565b61175b9190615673565b612957565b600061177361176e8361373e565b61378c565b92915050565b6000611783612b35565b60010154905090565b60008061179761365a565b905060006117a4826137c4565b90506117ee82600001516001600160401b03166117bf612b35565b546117ca9190615673565b83516117df906001600160401b0316846157b1565b6117e99084615768565b61380f565b9250505090565b6000610ed361381e565b6000610ed3612c67565b600061181361365a565b51611827906001600160401b0316836157b1565b6117739083615768565b611839612702565b6001600160a01b0316336001600160a01b03161461186c573360405163472511eb60e11b8152600401610d5e9190615220565b61187581613510565b6040516001600160a01b038216907f30f015a5d3c72c0a9414538199baa022323a483fa9e4ba2cd581596cf8ca042490600090a250565b610ee0612c67565b60606118be6129c6565b6001600160a01b0316635f2e5f0784846040518363ffffffff1660e01b81526004016118eb929190615816565b600060405180830381865afa158015611908573d6000803e3d6000fd5b505050506040513d6000823e601f3d908101601f19168201604052611071919081019061584d565b6000610ed36129c6565b6000610ed3612702565b600061177382613431565b60008060008061195d61365a565b9050600061196a826137c4565b8251909150611982906001600160401b0316826157b1565b61198c9082615768565b945081604001516001600160401b031682602001516001600160401b0316866119b59190615749565b6119bf9190615749565b9350600182604001516001600160401b031683602001516001600160401b031684600001516001600160401b0316886119f89190615673565b611a029190615749565b611a0c9190615749565b611a169190615768565b92505050909192565b611a27612702565b6001600160a01b0316336001600160a01b031614611a5a573360405163472511eb60e11b8152600401610d5e9190615220565b611a638161384e565b611a6c8161386d565b7f8d2df192dd17edf92a7964b78aa322f3d717b2ab9de00651bee32bbc4c5da63a81604051611397919061519e565b611aa361327e565b6001600160a01b0316336001600160a01b031614611ad6573360405163472511eb60e11b8152600401610d5e9190615220565b611aed611ae8368390038301836158ed565b6138b7565b7f25777eb44be046f64180acf8275f0ac2ec51e63a65a5f8a0f2f6d86ba25b74cf611b1b602083018361597a565b611b2b604084016020850161597a565b611b3b606085016040860161597a565b611b4b608086016060870161597a565b611b5b60a087016080880161597a565b604051611397959493929190615995565b600061177382613973565b611b7f61327e565b6001600160a01b0316336001600160a01b031614611bb2573360405163472511eb60e11b8152600401610d5e9190615220565b611bbb816139a0565b6040516001600160a01b038216907fd3b5d1e0ffaeff528910f3663f0adace7694ab8241d58e17a91351ced2e0803190600090a250565b6000610ed36139d7565b6060610ed3613a07565b6000610ed3613131565b6000611c1a612b35565b54919050565b6060611c2a6129c6565b6001600160a01b0316637c044e5586868686600161ffff6040518763ffffffff1660e01b8152600401611c62969594939291906159c7565b6000604051808303816000875af1158015611c81573d6000803e3d6000fd5b505050506040513d6000823e601f3d908101601f19168201604052611ca99190810190615a0d565b95945050505050565b6000610ed3613acd565b6040805180820190915260008082526020820152610ed3613afd565b6000610ed3611ce561365a565b6137c4565b6000610f22338484611cfc33886136e6565b61175b9190615768565b60003383611d148282613305565b8380611d33576040516336b216db60e21b815260040160405180910390fd5b338580611d3f83613431565b1015611d5e576040516351940b3960e11b815260040160405180910390fd5b6001600160a01b038816611d8e57604051637617407560e11b815233600482015260006024820152604401610d5e565b611d99338989612ab9565b98975050505050505050565b611dae81613b5d565b61130281610c9c565b611dbf612702565b6001600160a01b0316336001600160a01b031614611df2573360405163472511eb60e11b8152600401610d5e9190615220565b611302816127aa565b6000610ed3612a89565b6000610ed36129f6565b610f1333610c9c565b610ee061324e565b600061107183836136e6565b6040805180820190915260008082526020820152610ed3613b84565b610ee06135fa565b611e586139d7565b6001600160a01b0316336001600160a01b031614611e8b573360405163472511eb60e11b8152600401610d5e9190615220565b6000611e9561365a565b9050611ea2818335613bf2565b611ec25760405163a225656d60e01b815282356004820152602401610d5e565b611eca614f21565b6000611ed4612b35565b60038101546040840181905290915060608501351015611f19576040808301519051621ee1cf60e11b8152600481019190915260608501356024820152604401610d5e565b6040820151611f2c906060860135615768565b608083015260028101546060830181905260408501351015611f7357606082015160408051636f24834360e01b815260048101929092528501356024820152604401610d5e565b611f7b613131565b611f8b60c0860160a08701615aa2565b63ffffffff161180611fbb5750600581015463ffffffff16611fb360c0860160a08701615aa2565b63ffffffff16105b1561201057611fd060c0850160a08601615aa2565b611fd8613131565b6005830154604051632f776b1760e01b815263ffffffff93841660048201526024810192909252919091166044820152606401610d5e565b6060820151612023906040860135615768565b60a083015280546120379084908635613c4f565b60c08301525061204561318f565b815260a0810151608082015160009161205d91615673565b1115612075576120758160a001518260800151613c8a565b61207d614ea4565b83358152602080850135908201526040808501359082015260608085013590820152608080850135908201526120b960c0850160a08601615aa2565b63ffffffff1660a08201526120d5610100850160e08601615ad8565b151560c08201526120ee61012085016101008601615ad8565b151560e08201526120fe81613db7565b5061214661210f60c0850185615af5565b80806020026020016040519081016040528093929190818152602001838360200280828437600092019190915250613e6392505050565b6000612150613afd565b905060006121678284600001518560c00151613ecd565b905061217161318f565b6020840181905283511161220657825161218c908290615673565b836020015111156121d4578251602084015160c0850151845160405163eb7a968960e01b81526004810194909452602484019290925260448301526064820152608401610d5e565b825160208401516121e59190615768565b610120840180519190915251516121fc9082615768565b60e08401526122a2565b6000612216838560000151613f01565b9050612226818560000151612bca565b84516122329190615768565b8460200151101561228057835160208086015160c08701519186015160405163063bb83f60e11b8152610d5e9493919060040193845260208401929092526040830152606082015260800190565b602084015184516122919190615768565b61229b9083615673565b60e0850152505b60e083015115612300576122b98360e00151613f16565b61012084018051602090810192909252519081015181519091906122de908390615673565b9052506101208301516020015160e0840180516122fc908390615768565b9052505b60e08301511561233f576123178360e00151613fde565b6101208401805160409081019290925251015160e08401805161233b908390615768565b9052505b60e083015115612361576123568360e001516140a4565b610120840151606001525b610120830151511561237d576101208301515161237d90614176565b61238f61012086016101008701615ad8565b6123b1576123b160808601356123ac610100880160e08901615ad8565b6142a8565b6123b9614528565b6123c16146bb565b6123ce8360c001516146e3565b7f49ac0d2bb2a688ca460f7993eb93eccd3b9c9188da6b0727e9a409cf8b10587585846101200151604051612404929190615b86565b60405180910390a15050505050565b60006117738261378c565b600061177361242b61365a565b83613bf2565b612439612702565b6001600160a01b0316336001600160a01b03161461246c573360405163472511eb60e11b8152600401610d5e9190615220565b612475816134a2565b6040516001600160a01b038216907f0cc5437d7c9c1d9eab549acbb533eea3e9868e9443dd75309ed5820b33a3774e90600090a250565b6000610ed3612b9a565b6113026124e460017f82055909238c0f5e63d6f174068ebb8f51bcec9bd37de63bb68f6551feec0cfd615768565b829055565b9055565b6000610ed361251d60017f2b6136e423ab70d76431e2a635e877e16ea2dd9a895e054ad7f35f89d6c7b711615768565b5490565b7f48f67c1dada0cab2163f6282292ad97ea97376cfed46bb3851654aaa630db72761254a6124ed565b60408051918252602082018490520160405180910390a161130281614799565b600061257684836147c7565b90506000612582612a89565b9050836001600160a01b0316856001600160a01b0316141561260257604051632d20488160e11b81526001600160a01b03821690635a409102906125cd9088906001906004016156c1565b60006040518083038186803b1580156125e557600080fd5b505afa1580156125f9573d6000803e3d6000fd5b505050506126fb565b604051632d20488160e11b81526001600160a01b03821690635a409102906126319088906001906004016156c1565b60006040518083038186803b15801561264957600080fd5b505afa15801561265d573d6000803e3d6000fd5b505060405163e838dfbb60e01b81526001600160a01b038416925063e838dfbb915061268d908790600401615220565b602060405180830381865afa1580156126aa573d6000803e3d6000fd5b505050506040513d601f19601f820116820180604052508101906126ce9190615c5a565b156126ee578360405163e7d05e2760e01b8152600401610d5e9190615220565b6126f9858584612ab9565b505b5050505050565b6000610ed3614826565b61271581613b5d565b6113026124e460017ff4271262f3552a4108cde54dc75061de8de495709221d793b126e448522d6a80615768565b6000610ed361251d60017f82055909238c0f5e63d6f174068ebb8f51bcec9bd37de63bb68f6551feec0cfd615768565b61277c81613b5d565b6113026124e460017fe458cbedf69109e7d57b7f8c96816615aac0017187d87abab9001d22db32bae4615768565b6127b381614856565b805160208201516040517e4180017d3dd609da6980999655a6bd2591e313d31d6230b1889c369a9713a0926113979290916001600160801b0392831681529116602082015260400190565b61285a6040518060a00160405280896001600160401b03168152602001886001600160401b03168152602001876001600160401b03168152602001866001600160401b03168152602001856001600160401b03168152506138b7565b7f25777eb44be046f64180acf8275f0ac2ec51e63a65a5f8a0f2f6d86ba25b74cf8787878787604051612891959493929190615995565b60405180910390a16128b6604051806040016040528084815260200183815250613288565b60408051838152602081018390527f5ab79ffcd89b6380c7fbdd89d02cfe3d9c53c99a85e150c2319075018d1aac5c910160405180910390a16128f7614ea4565b6128ff6148a8565b81526129096148d8565b602082015260006040820181905260608201819052608082015261292b614908565b63ffffffff1660a0820152600060c0820181905260e082015261294d81613db7565b5050505050505050565b61296083613b5d565b61296982613b5d565b612974838383614938565b816001600160a01b0316836001600160a01b03167f8c5be1e5ebec7d5bd14f71427d1e84f3dd0314c0f7b2291e5b200ac8c7c3b925836040516129b991815260200190565b60405180910390a3505050565b6000610ed361251d60017fe458cbedf69109e7d57b7f8c96816615aac0017187d87abab9001d22db32bae4615768565b6000610ed361498f565b612a0981613b5d565b612a12816149bf565b6040516001600160a01b038216907f5a272403b402d892977df56625f4164ccaf70ca3863991c43ecfe76a6905b0a190600090a250565b612a52816149c8565b6040516001600160a01b038216907f2a0f8515de3fa34ef68b99300347b8793c01683350743e96fe440594528298f490600090a250565b6000610ed361251d60017f867d8f1a5e39d11d5bebde854d5359a509530ad32450f581da63c06ec8d1a780615768565b6000612ad88483612ac98761373e565b612ad39190615768565b6149d1565b612af08383612ae68661373e565b612ad39190615673565b826001600160a01b0316846001600160a01b0316600080516020615f6883398151915284604051612b2391815260200190565b60405180910390a35060019392505050565b60008061177360017fdbc0527c99b54cd325d6ce9eaae3a8413cd447b5205f37385f0ebc6551033c6d615768565b612b6c81613b5d565b6113026124e460017f8e9e2a1d30fed357d8a000c1131fc77ed65d2052918caf1ccc6eb1e7af3d13b6615768565b6000610ed361251d60017fbcfa5a69252c74010ad3e9ab18cfbdc116fcf85f084db1a8dc577a339fbee58b615768565b6000818311612bd95782611071565b50919050565b606080612bea613acd565b6001600160a01b031663277c9d45846040518263ffffffff1660e01b8152600401612c1791815260200190565b6000604051808303816000875af1158015612c36573d6000803e3d6000fd5b505050506040513d6000823e601f3d908101601f19168201604052612c5e9190810190615d3d565b91509150915091565b6000610ed361251d60017fb649e50315f962b32d487e696a81b4828631b11f8424daaaa37e9e97766a2c42615768565b6030835114612cb95760405163050cb55360e41b815260040160405180910390fd5b6060825114612cdb5760405163408ebd3960e01b815260040160405180910390fd5b6801bc16d674ec8000006000612cf5633b9aca008361571f565b90506000600286600060801b604051602001612d12929190615da0565b60408051601f1981840301815290829052612d2c91615dcf565b602060405180830381855afa158015612d49573d6000803e3d6000fd5b5050506040513d601f19601f82011682018060405250810190612d6c9190615deb565b90506000600280612d808860006040614a1d565b604051612d8d9190615dcf565b602060405180830381855afa158015612daa573d6000803e3d6000fd5b5050506040513d601f19601f82011682018060405250810190612dcd9190615deb565b6002612de5896040612de0816060615768565b614a1d565b604051612df89190600090602001615e04565b60408051601f1981840301815290829052612e1291615dcf565b602060405180830381855afa158015612e2f573d6000803e3d6000fd5b5050506040513d601f19601f82011682018060405250810190612e529190615deb565b60408051602081019390935282015260600160408051601f1981840301815290829052612e7e91615dcf565b602060405180830381855afa158015612e9b573d6000803e3d6000fd5b5050506040513d601f19601f82011682018060405250810190612ebe9190615deb565b905060006002808488604051602001612ee1929190918252602082015260400190565b60408051601f1981840301815290829052612efb91615dcf565b602060405180830381855afa158015612f18573d6000803e3d6000fd5b5050506040513d601f19601f82011682018060405250810190612f3b9190615deb565b6002612f4687614ae0565b604080516020810192909252810186905260600160408051601f1981840301815290829052612f7491615dcf565b602060405180830381855afa158015612f91573d6000803e3d6000fd5b5050506040513d601f19601f82011682018060405250810190612fb49190615deb565b60408051602081019390935282015260600160408051601f1981840301815290829052612fe091615dcf565b602060405180830381855afa158015612ffd573d6000803e3d6000fd5b5050506040513d601f19601f820116820180604052508101906130209190615deb565b9050600061302e8647615768565b9050613038614b4d565b6001600160a01b03166322895118878b8a60405160200161305b91815260200190565b6040516020818303038152906040528c876040518663ffffffff1660e01b815260040161308b9493929190615e26565b6000604051808303818588803b1580156130a457600080fd5b505af11580156130b8573d6000803e3d6000fd5b50505050508047146130dd57604051638051a6bb60e01b815260040160405180910390fd5b505050505050505050565b7f86fd21e9b5bd76b20471c7f93a82aa4e25c37d48b179bda0a4d1a45e22a842f4613111612b9a565b60408051918252602082018490520160405180910390a161130281614b7d565b6000610ed361251d60017fc77078e3530c08cdb2440817c81de4836500b4708ea4d15672b7fe98956423a8615768565b6113026124e460017fc77078e3530c08cdb2440817c81de4836500b4708ea4d15672b7fe98956423a8615768565b60008061319a612b35565b600581015490915063ffffffff1660006131b2613131565b905080821015613227576801bc16d674ec8000006131d08383615768565b6131da9190615749565b6131e261362a565b6131ea612b9a565b6131f26124ed565b86600101546132019190615673565b61320b9190615673565b6132159190615673565b61321f9190615673565b935050505090565b61322f61362a565b613237612b9a565b61323f6124ed565b856001015461320b9190615673565b6000610ed361251d60017ff4271262f3552a4108cde54dc75061de8de495709221d793b126e448522d6a80615768565b6000610ed361193a565b60006132b560017ff81b149de6749a3f46464b2cce61e24462f67599ea4a5ce028aaf4ab1521f96e615768565b8251815560209092015160019092019190915550565b6000610ed3614bab565b6000610ed361251d60017f094efef62d2ce60c14ffacd35a1b50546d3a9d503aff1df040176fffd6c92a37615768565b600061330f612a89565b60405163e838dfbb60e01b81529091506001600160a01b0382169063e838dfbb9061333e908690600401615220565b602060405180830381865afa15801561335b573d6000803e3d6000fd5b505050506040513d601f19601f8201168201806040525081019061337f9190615c5a565b1561339f578260405163e7d05e2760e01b8152600401610d5e9190615220565b60405163e838dfbb60e01b81526001600160a01b0382169063e838dfbb906133cb908590600401615220565b602060405180830381865afa1580156133e8573d6000803e3d6000fd5b505050506040513d601f19601f8201168201806040525081019061340c9190615c5a565b1561342c578160405163e7d05e2760e01b8152600401610d5e9190615220565b505050565b60006117738261373e565b600061344883336136e6565b90508181101561348a57604051637b936de360e01b81526001600160a01b03841660048201523360248201526044810182905260648101839052608401610d5e565b600019811461342c5761342c833361175b8585615768565b6134ab81613b5d565b6113026124e460017f082b6d18de7b10e438e6b1002141db737519cb4ceed679bc815e3aac00cd2227615768565b6134e281614bdb565b6113026124e460017f094efef62d2ce60c14ffacd35a1b50546d3a9d503aff1df040176fffd6c92a37615768565b61351981613b5d565b6113026124e460017f867d8f1a5e39d11d5bebde854d5359a509530ad32450f581da63c06ec8d1a780615768565b61355081613b5d565b6113026124e460017f3f075dea7ef99b1e5db245018e5e4ed8d2a0d93953f5932b2176bef59bd69061615768565b61358782614bfe565b6040516001600160a01b038316907e043cf7635f276413ae358250286a479a631abd9d74d57d4aa0bb87ebc7d11790600090a26135c381614c35565b6040518181527f4c86ba184ea1a1558f84835ca34f6d67e222e8ee5cc4f324b8861dda4cf1740c9060200160405180910390a15050565b6000610ed361251d60017f8e9e2a1d30fed357d8a000c1131fc77ed65d2052918caf1ccc6eb1e7af3d13b6615768565b6000610ed361251d60017f850308dd4e453a2a1bc3efb444560401d95c1a8bdea5b35c5c79531cd2241f1d615768565b613662614ef3565b600061368f60017fd84ee2c84c954c65bef1459fe03b761a42f49234527e3cd8fd9dce87cb83742b615768565b6040805160a08101825282546001600160401b038082168352600160401b820481166020840152600160801b8204811693830193909352600160c01b90048216606082015260019092015416608082015292915050565b60008061371460017fc852254d5b703a16bb13b3e233a335d6459c5da5db0ca732d7a684ee05407847615768565b6001600160a01b039485166000908152602091825260408082209590961681529390525050205490565b60008061376c60017f0fb4a5ac9287f4f508aa7253ee2d57c6a228b1b30e210d73fffd59389d3a8838615768565b6001600160a01b0390931660009081526020939093525050604090205490565b600080613797614bab565b9050806137a75750600092915050565b806137b061318f565b6137ba9085615749565b611071919061571f565b600081602001516001600160401b031682604001516001600160401b031683606001516001600160401b0316426137fb9190615768565b613805919061571f565b611773919061571f565b6000818310612bd95782611071565b6000610ed361251d60017f082b6d18de7b10e438e6b1002141db737519cb4ceed679bc815e3aac00cd2227615768565b805161130257604051638d46fe0560e01b815260040160405180910390fd5b600061389a60017fb63f3482ec84cb93d74a71645ad2e9e896fa02723e42170b4aad20a4bed6cdd6615768565b825190915081906138b19082906020860190614f9c565b50505050565b60006138e460017fd84ee2c84c954c65bef1459fe03b761a42f49234527e3cd8fd9dce87cb83742b615768565b825181546020850151604086015160608701516001600160401b039485166001600160801b031990941693909317600160401b92851692909202919091176001600160801b0316600160801b918416919091026001600160c01b031617600160c01b918316919091021782556080909301516001909101805467ffffffffffffffff1916919093161790915550565b60008061397e614bab565b90508061398e5750600092915050565b61399661318f565b6137ba8285615749565b6139a981613b5d565b6113026124e460017fc8cbea9407c380ae944f052b5a442330057683c5abdbd453493f9750806afecb615768565b6000610ed361251d60017fc8cbea9407c380ae944f052b5a442330057683c5abdbd453493f9750806afecb615768565b60606000613a3660017fb63f3482ec84cb93d74a71645ad2e9e896fa02723e42170b4aad20a4bed6cdd6615768565b805490915081908190613a4890615e71565b80601f0160208091040260200160405190810160405280929190818152602001828054613a7490615e71565b8015613ac15780601f10613a9657610100808354040283529160200191613ac1565b820191906000526020600020905b815481529060010190602001808311613aa457829003601f168201915b50505050509250505090565b6000610ed361251d60017f3f075dea7ef99b1e5db245018e5e4ed8d2a0d93953f5932b2176bef59bd69061615768565b60408051808201909152600080825260208201526000613b3e60017ff81b149de6749a3f46464b2cce61e24462f67599ea4a5ce028aaf4ab1521f96e615768565b6040805180820190915281548152600190910154602082015292915050565b6001600160a01b0381166113025760405163f6b2911f60e01b815260040160405180910390fd5b60408051808201909152600080825260208201526000613bc560017fc305db9f63aeed94a45229ff5ab4174e72b223a38ab4c5e8f518ee4f437918d1615768565b6040805180820190915290546001600160801b038082168352600160801b90910416602082015292915050565b600082608001516001600160401b031682613c0d9190615673565b613c16846137c4565b10158015613c2b5750613c27612b35565b5482115b801561107157508251613c47906001600160401b0316836157b1565b159392505050565b600083602001518460400151613c659190615ea6565b6001600160401b0316613c788484615768565b613c829190615749565b949350505050565b476000613c978385615673565b9050613ca1612c67565b6001600160a01b031663ea74f479826040518263ffffffff1660e01b8152600401613cce91815260200190565b600060405180830381600087803b158015613ce857600080fd5b505af1158015613cfc573d6000803e3d6000fd5b5050505060008247613d0e9190615768565b9050613d1a8486615673565b8114613d4e57613d2a8486615673565b6040516349a1938b60e01b8152600481019190915260248101829052604401610d5e565b8415613d6057613d6085610cc66124ed565b8315613d8157613d8184613d7261362a565b613d7c9190615673565b614c81565b60408051868152602081018690527fcb5410dc8f29b2f498e023c3f9237dbd600255a717edf94a6072bcd03b0c773c9101612404565b6000613de460017fdbc0527c99b54cd325d6ce9eaae3a8413cd447b5205f37385f0ebc6551033c6d615768565b825181556020830151600182015560408301516002820155606083015160038201556080830151600482015560a08301516005909101805460c085015160e0909501511515600160281b0265ff0000000000199515156401000000000264ffffffffff1990921663ffffffff9094169390931717939093161790915550565b613e6b613acd565b6001600160a01b031663b405e17482613e82613131565b6040518363ffffffff1660e01b8152600401613e9f929190615ed5565b600060405180830381600087803b158015613eb957600080fd5b505af11580156126fb573d6000803e3d6000fd5b6000613edf6301e13380612710615749565b84518390613eed9086615749565b613ef79190615749565b613c82919061571f565b60006127108360200151836137ba9190615749565b600080613f216135fa565b60405163c8a6dfd360e01b81526004810185905290915047906001600160a01b0383169063c8a6dfd390602401600060405180830381600087803b158015613f6857600080fd5b505af1158015613f7c573d6000803e3d6000fd5b5050505060008147613f8e9190615768565b90508015613fa257613fa281610cc66124ed565b6040518181527fda841d3042d792e2509a333b9dcbd4b3dd9b9047d382011f8788fab90ca7e3c7906020015b60405180910390a1949350505050565b600047613fe96129c6565b6001600160a01b0316630c779401846040518263ffffffff1660e01b815260040161401691815260200190565b600060405180830381600087803b15801561403057600080fd5b505af1158015614044573d6000803e3d6000fd5b50505050600081476140569190615768565b9050801561406a5761406a81610cc66124ed565b6040518181527f4e484734eb4d444bfa106f917d05d9ceb8ce18bf516c85d7aeb9b322925339f99060200160405180910390a19392505050565b6000806140af61324e565b90506001600160a01b0381166140c85750600092915050565b604051638ede6b6b60e01b81526004810184905247906001600160a01b03831690638ede6b6b90602401600060405180830381600087803b15801561410c57600080fd5b505af1158015614120573d6000803e3d6000fd5b50505050600081476141329190615768565b905080156141465761414681610cc66124ed565b6040518181527fd500b67e5bd8019c0af744cadeec120d1b5e3d3a3a011f18cf182aa4c97947b690602001613fce565b60006141806132cb565b9050806141a057604051630d35acd760e21b815260040160405180910390fd5b60006141aa61318f565b905060006141b66132d5565b90506000816141c58587615749565b6141cf9190615749565b905060006141dd8387615749565b6141e961271086615749565b6141f39190615768565b90506000811561420c57614207828461571f565b61420f565b60005b9050801561429f57600061422161381e565b905061422d8183614cca565b60006142376132cb565b905060006142458a89615768565b60408051828152602081018c90529081018a9052606081018490529091506001600160a01b038416907f3d1669e813a9845c288f0e1f642a4343a451103b87886d12de37e63b39bbd9429060800160405180910390a25050505b50505050505050565b60006142b26132cb565b9050801561342c5760006142c461362a565b905060006142d06124ed565b905060006143406142df6129c6565b6001600160a01b0316630d8d2a546040518163ffffffff1660e01b8152600401602060405180830381865afa15801561431c573d6000803e3d6000fd5b505050506040513d601f19601f8201168201806040525081019061176e9190615deb565b90508061434d8785615673565b10156126f9578480156143605750600082115b156143b157600061438583856143768a86615768565b6143809190615768565b612bca565b905080156143af576143978185615673565b93506143a284614c81565b6143af610cd08285615768565b505b60006143bb613acd565b9050600080826001600160a01b0316634a3c63bb6040518163ffffffff1660e01b81526004016040805180830381865afa1580156143fd573d6000803e3d6000fd5b505050506040513d601f19601f820116820180604052508101906144219190615f23565b915063ffffffff16915060006801bc16d674ec80000083831161444557600061444f565b61444f8484615768565b6144599190615749565b905084816144678c8a615673565b6144719190615673565b101561451c5760006144aa826144878d8b615673565b6144919190615673565b61449b9088615768565b6801bc16d674ec800000614d27565b9050846001600160a01b0316632d1fc39d826144c4613131565b6040516001600160e01b031960e085901b16815260048101929092526024820152604401600060405180830381600087803b15801561450257600080fd5b505af1158015614516573d6000803e3d6000fd5b50505050505b50505050505050505050565b60006145326129c6565b9050600061453e61318f565b9050600061454a6132cb565b905060008211801561455c5750600081115b1561342c576000836001600160a01b0316630d8d2a546040518163ffffffff1660e01b8152600401602060405180830381865afa1580156145a1573d6000803e3d6000fd5b505050506040513d601f19601f820116820180604052508101906145c59190615deb565b90508060006145d38261378c565b905060006145df61362a565b9050808211156145f8578091506145f582613973565b92505b60408051858152602081018590529081018390527f709263092d8d9fef472d907900405b5edae3d76f8ff4354858025b18424d71019060600160405180910390a1811561429f5761464c613d7c8383615768565b6146568784614d5a565b60405163b30d8bb760e01b8152600481018490526001600160a01b0388169063b30d8bb79084906024016000604051808303818588803b15801561469957600080fd5b505af11580156146ad573d6000803e3d6000fd5b505050505050505050505050565b60006146c561362a565b90508015611302576146d981610cc66124ed565b6113026000614c81565b60006146ed61318f565b905060006146f96124ed565b90506000614705613b84565b8051909150600090614749906001600160801b03166127106147278688615768565b85602001516001600160801b031661473f9190615749565b6117e9919061571f565b9050600061476e6201518061475e8885615749565b614768919061571f565b85612bca565b905080156126f95761478c81614782612b9a565b6112439190615673565b6126f9610cd08286615768565b6113026124e460017f2b6136e423ab70d76431e2a635e877e16ea2dd9a895e054ad7f35f89d6c7b711615768565b600080826147d361318f565b6147dd9190615768565b9050806147f6578291506147f18484614cca565b61481f565b806147ff6132cb565b6148099085615749565b614813919061571f565b915061481f8483614cca565b5092915050565b6000610ed361251d60017fb5b37715a3e346e996104f0086703f19825def429233930fd9399c38e05fb113615768565b600061488360017fc305db9f63aeed94a45229ff5ab4174e72b223a38ab4c5e8f518ee4f437918d1615768565b82516020909301516001600160801b03908116600160801b0293169290921790915550565b6000610ed361251d60017fd7f2d45e512a86049f7a113657b39731b6b558609584243063a52cd31a8eb529615768565b6000610ed361251d60017ffedfd2c285a57fb23bf45a3fe9ac02d36a76ebb72801b1c8aaf553d74e9d4653615768565b6000610ed361251d60017f0f1e7733641e4d843128fea0d2ec90d3d06a40b0fe244ff603d8c1aa200dc0f9615768565b600061496560017fc852254d5b703a16bb13b3e233a335d6459c5da5db0ca732d7a684ee05407847615768565b6001600160a01b039485166000908152602091825260408082209590961681529390525091902055565b6000610ed361251d60017f6e6ab8b7c7aaba79eef8cc633522d606bb008c101cf9832c9ad05d10a9847281615768565b61130281614daa565b61130281614de1565b60006149fe60017f0fb4a5ac9287f4f508aa7253ee2d57c6a228b1b30e210d73fffd59389d3a8838615768565b6001600160a01b03909316600090815260209390935250604090912055565b60608182601f011015614a43576040516323d5783d60e11b815260040160405180910390fd5b614a4d8284615673565b84511015614a6e57604051633b99b53d60e01b815260040160405180910390fd5b606082158015614a8d5760405191506000825260208201604052614ad7565b6040519150601f8416801560200281840101858101878315602002848b0101015b81831015614ac6578051835260209283019201614aae565b5050858452601f01601f1916604052505b50949350505050565b603881901c60ff908116603083901c8216602884901c8316602085901c8416601886901c8516601087901c8616600888811c9790971688881b61ff001617871b17861b17851b17841b17831b1790911b17604082901c8015614b4457614b44615f51565b5060c01b919050565b6000610ed361251d60017f35efb61d8784060218d9d6aa40eae55904de43779c1afc79c74dfefcfdf91260615768565b6113026124e460017fbcfa5a69252c74010ad3e9ab18cfbdc116fcf85f084db1a8dc577a339fbee58b615768565b6000610ed361251d60017f6b842b424335d94ccad97e54548dfa02673c1268aba38d3c3c32d28c8988b70b615768565b612710811115611302576040516358d620b360e01b815260040160405180910390fd5b614c0781613b5d565b6113026124e460017f35efb61d8784060218d9d6aa40eae55904de43779c1afc79c74dfefcfdf91260615768565b80614c535760405163a9cb9e0d60e01b815260040160405180910390fd5b6113026124e460017fb649e50315f962b32d487e696a81b4828631b11f8424daaaa37e9e97766a2c42615768565b7f215c2b83e8c232e42091088056ab75d2ff643855c32997024f786cddb22d2290614caa61362a565b60408051918252602082018490520160405180910390a161130281614e0f565b614ce581614cd6614bab565b614ce09190615673565b614e3d565b614cf38282612ae68561373e565b6040518181526001600160a01b03831690600090600080516020615f68833981519152906020015b60405180910390a35050565b600080614d3483856157b1565b11614d40576000614d43565b60015b60ff16614d50838561571f565b6110719190615673565b614d7081614d66614bab565b614ce09190615768565b614d7e8282612ac98561373e565b6040518181526000906001600160a01b03841690600080516020615f6883398151915290602001614d1b565b614db381613b5d565b6113026124e460017fb5b37715a3e346e996104f0086703f19825def429233930fd9399c38e05fb113615768565b6113026124e460017f6e6ab8b7c7aaba79eef8cc633522d606bb008c101cf9832c9ad05d10a9847281615768565b6113026124e460017f850308dd4e453a2a1bc3efb444560401d95c1a8bdea5b35c5c79531cd2241f1d615768565b614e4681614e76565b6040518181527fc80ea35a3f9016535e5b7c87746740c5045afe42188d02c5786eb97495c2f42990602001611397565b6113026124e460017f6b842b424335d94ccad97e54548dfa02673c1268aba38d3c3c32d28c8988b70b615768565b6040518061010001604052806000815260200160008152602001600081526020016000815260200160008152602001600063ffffffff1681526020016000151581526020016000151581525090565b6040805160a08101825260008082526020820181905291810182905260608101829052608081019190915290565b604051806101400160405280600081526020016000815260200160008152602001600081526020016000815260200160008152602001600081526020016000815260200160008152602001614f976040518060800160405280600081526020016000815260200160008152602001600081525090565b905290565b828054614fa890615e71565b90600052602060002090601f016020900481019282614fca5760008555615010565b82601f10614fe357805160ff1916838001178555615010565b82800160010185558215615010579182015b82811115615010578251825591602001919060010190614ff5565b5061501c929150615020565b5090565b5b8082111561501c5760008155600101615021565b80356001600160a01b038116811461504c57600080fd5b919050565b60006020828403121561506357600080fd5b61107182615035565b80356001600160401b038116811461504c57600080fd5b80356001600160801b038116811461504c57600080fd5b6000806000806000806000806000806101408b8d0312156150ba57600080fd5b6150c38b615035565b99506150d160208c0161506c565b98506150df60408c0161506c565b97506150ed60608c0161506c565b96506150fb60808c0161506c565b955061510960a08c0161506c565b945060c08b0135935060e08b013592506151266101008c01615083565b91506151356101208c01615083565b90509295989b9194979a5092959850565b60005b83811015615161578181015183820152602001615149565b838111156138b15750506000910152565b6000815180845261518a816020860160208601615146565b601f01601f19169290920160200192915050565b6020815260006110716020830184615172565b600080604083850312156151c457600080fd5b6151cd83615035565b946020939093013593505050565b600080604083850312156151ee57600080fd5b823591506151fe60208401615035565b90509250929050565b60006020828403121561521957600080fd5b5035919050565b6001600160a01b0391909116815260200190565b600060408284031215612bd957600080fd5b60008060006060848603121561525b57600080fd5b61526484615035565b925061527260208501615035565b9150604084013590509250925092565b60008060008060008060008060006101208a8c0312156152a157600080fd5b6152aa8a615035565b98506152b860208b01615035565b975060408a013596506152cd60608b01615035565b95506152db60808b01615035565b94506152e960a08b01615035565b93506152f760c08b01615035565b925061530560e08b01615035565b91506101008a013590509295985092959850929598565b60008083601f84011261532e57600080fd5b5081356001600160401b0381111561534557600080fd5b6020830191508360208260051b850101111561536057600080fd5b9250929050565b6000806020838503121561537a57600080fd5b82356001600160401b0381111561539057600080fd5b61539c8582860161531c565b90969095509350505050565b6020808252825182820181905260009190848201906040850190845b818110156153e357835160070b835292840192918401916001016153c4565b50909695505050505050565b634e487b7160e01b600052604160045260246000fd5b604080519081016001600160401b0381118282101715615427576154276153ef565b60405290565b604051601f8201601f191681016001600160401b0381118282101715615455576154556153ef565b604052919050565b60006001600160401b03821115615476576154766153ef565b50601f01601f191660200190565b60006020828403121561549657600080fd5b81356001600160401b038111156154ac57600080fd5b8201601f810184136154bd57600080fd5b80356154d06154cb8261545d565b61542d565b8181528560208385010111156154e557600080fd5b81602084016020830137600091810160200191909152949350505050565b600060a08284031215612bd957600080fd5b6000806000806040858703121561552b57600080fd5b84356001600160401b038082111561554257600080fd5b61554e8883890161531c565b9096509450602087013591508082111561556757600080fd5b506155748782880161531c565b95989497509550505050565b6020808252825182820181905260009190848201906040850190845b818110156153e357835160ff168352928401929184019160010161559c565b6000604082840312156155cd57600080fd5b6155d5615405565b6155de83615083565b81526155ec60208401615083565b60208201529392505050565b6000806040838503121561560b57600080fd5b61561483615035565b91506151fe60208401615035565b60006020828403121561563457600080fd5b81356001600160401b0381111561564a57600080fd5b8201610120818503121561107157600080fd5b634e487b7160e01b600052601160045260246000fd5b600082198211156156865761568661565d565b500190565b83815260406020820152816040820152818360608301376000818301606090810191909152601f909201601f1916010192915050565b6001600160a01b03929092168252602082015260400190565b63ffffffff8116811461130257600080fd5b6000602082840312156156fe57600080fd5b8151611071816156da565b634e487b7160e01b600052601260045260246000fd5b60008261572e5761572e615709565b500490565b634e487b7160e01b600052603260045260246000fd5b60008160001904831182151516156157635761576361565d565b500290565b60008282101561577a5761577a61565d565b500390565b60006040828403121561579157600080fd5b615799615405565b82358152602083013560208201528091505092915050565b6000826157c0576157c0615709565b500690565b803561504c816156da565b8183526000602080850194508260005b8581101561580b5781356157f3816156da565b63ffffffff16875295820195908201906001016157e0565b509495945050505050565b602081526000613c826020830184866157d0565b60006001600160401b03821115615843576158436153ef565b5060051b60200190565b6000602080838503121561586057600080fd5b82516001600160401b0381111561587657600080fd5b8301601f8101851361588757600080fd5b80516158956154cb8261582a565b81815260059190911b820183019083810190878311156158b457600080fd5b928401925b828410156158e25783518060070b81146158d35760008081fd5b825292840192908401906158b9565b979650505050505050565b600060a082840312156158ff57600080fd5b60405160a081018181106001600160401b0382111715615921576159216153ef565b60405261592d8361506c565b815261593b6020840161506c565b602082015261594c6040840161506c565b604082015261595d6060840161506c565b606082015261596e6080840161506c565b60808201529392505050565b60006020828403121561598c57600080fd5b6110718261506c565b6001600160401b0395861681529385166020850152918416604084015283166060830152909116608082015260a00190565b6080815260006159db60808301888a6157d0565b82810360208401526159ee8187896157d0565b9415156040840152505061ffff91909116606090910152949350505050565b60006020808385031215615a2057600080fd5b82516001600160401b03811115615a3657600080fd5b8301601f81018513615a4757600080fd5b8051615a556154cb8261582a565b81815260059190911b82018301908381019087831115615a7457600080fd5b928401925b828410156158e257835160ff81168114615a935760008081fd5b82529284019290840190615a79565b600060208284031215615ab457600080fd5b8135611071816156da565b801515811461130257600080fd5b803561504c81615abf565b600060208284031215615aea57600080fd5b813561107181615abf565b6000808335601e19843603018112615b0c57600080fd5b8301803591506001600160401b03821115615b2657600080fd5b6020019150600581901b360382131561536057600080fd5b6000808335601e19843603018112615b5557600080fd5b83016020810192503590506001600160401b03811115615b7457600080fd5b8060051b360383131561536057600080fd5b60a08152823560a0820152602083013560c0820152604083013560e08201526000610100606085013581840152610120608086013581850152615bcb60a087016157c5565b63ffffffff16610140850152615be460c0870187615b3e565b82610160870152615bfa6101c0870182846157d0565b92505050615c0a60e08701615acd565b1515610180850152615c1d868301615acd565b8015156101a08601529150915061107190506020830184805182526020810151602083015260408101516040830152606081015160608301525050565b600060208284031215615c6c57600080fd5b815161107181615abf565b600082601f830112615c8857600080fd5b81516020615c986154cb8361582a565b82815260059290921b84018101918181019086841115615cb757600080fd5b8286015b84811015615d325780516001600160401b03811115615cda5760008081fd5b8701603f81018913615cec5760008081fd5b848101516040615cfe6154cb8361545d565b8281528b82848601011115615d135760008081fd5b615d2283898301848701615146565b8652505050918301918301615cbb565b509695505050505050565b60008060408385031215615d5057600080fd5b82516001600160401b0380821115615d6757600080fd5b615d7386838701615c77565b93506020850151915080821115615d8957600080fd5b50615d9685828601615c77565b9150509250929050565b60008351615db2818460208801615146565b6001600160801b0319939093169190920190815260100192915050565b60008251615de1818460208701615146565b9190910192915050565b600060208284031215615dfd57600080fd5b5051919050565b60008351615e16818460208801615146565b9190910191825250602001919050565b608081526000615e396080830187615172565b8281036020840152615e4b8187615172565b90508281036040840152615e5f8186615172565b91505082606083015295945050505050565b600181811c90821680615e8557607f821691505b60208210811415612bd957634e487b7160e01b600052602260045260246000fd5b60006001600160401b0380831681851681830481118215151615615ecc57615ecc61565d565b02949350505050565b604080825283519082018190526000906020906060840190828701845b82811015615f1457815163ffffffff1684529284019290840190600101615ef2565b50505092019290925292915050565b60008060408385031215615f3657600080fd5b8251615f41816156da565b6020939093015192949293505050565b634e487b7160e01b600052600160045260246000fdfeddf252ad1be2c89b69c2b068fc378daa952ba7f163c4a11628f55a4df523b3efa26469706673582212203c95154b88c98fcf321ceba99ce7dd171954d01054728dc1860a4a88509b552164736f6c634300080a0033",
            "0x6080604052600436106103ba5760003560e01c80635d95e801116101f9578063a29a839f1161011e578063d4970524116100b6578063efd668461161007a578063efd6684614610c07578063f79c3f0214610c27578063f9f95a9014610c47578063fb5b82d014610c67578063fe7c12ae14610c87576103ca565b8063d497052414610b9b578063d7f8f47414610790578063dd62ed3e14610ba3578063e3a88e6114610bc3578063efd6034714610bff576103ca565b8063a29a839f14610acc578063a457c2d714610ae1578063a9059cbb14610b01578063ac232bde14610b21578063bb6583ec14610b34578063bf15af5614610b54578063c5eff3d014610b69578063d046815614610b7e578063d0e30db014610b93576103ca565b80637adbf973116101915780637adbf973146109b8578063833b1fce146109d857806386a92af7146109ed57806387f2adfb14610a0257806389896aef14610a175780639332525d14610a2c57806395d89b4114610a595780639b498e2614610a875780639d49cca114610a9c576103ca565b80635d95e801146108a95780635f2e5f07146108b157806363f62aaf146108de5780636e9960c3146108f357806370a082311461090857806372f79b1314610928578063750521f51461095857806378a010e814610978578063799a195414610998576103ca565b806323b872dd116102df5780633af9e669116102775780633af9e669146107cd57806346425ef0146107ed5780634b47b74f146108025780635022820114610817578063540bc5ea1461082c578063557ed1ba14610841578063563967151461085457806357fa85471461086957806358bf3c7f14610889576103ca565b806323b872dd14610686578063281a3122146106a6578063291206f6146106c65780632cb562e1146106e65780632d6b59bf146106fb5780632dc5c97c14610710578063313ce5671461077457806336bf33251461079057806339509351146107ad576103ca565b80631311cf8d116103525780631311cf8d1461052557806313d86aed14610545578063143a08d414610565578063147bf6c41461057a5780631546962b1461059a57806315ca4cee146105bc57806317e64858146105dc57806318160ddd1461065c5780631bcbfaba14610671576103ca565b8063020f086e146103e35780630407de471461040357806304843a1714610423578063056850c61461044b57806306fdde0314610453578063095ea7b3146104965780630e18b681146104c6578063107703ab146104db578063107d7fa014610510576103ca565b366103ca576103c833610c9c565b005b60405163574b16a760e11b815260040160405180910390fd5b3480156103ef57600080fd5b506103c86103fe366004615048565b610d23565b34801561040f57600080fd5b506103c861041e366004615091565b610da7565b34801561042f57600080fd5b50610438610ec9565b6040519081526020015b60405180910390f35b6103c8610ed8565b34801561045f57600080fd5b50604080518082019091526011815270098d2e2ead2c840a6e8c2d6cac8408aa89607b1b60208201525b6040516104429190615195565b3480156104a257600080fd5b506104b66104b13660046151a8565b610f15565b6040519015158152602001610442565b3480156104d257600080fd5b506103c8610f2b565b3480156104e757600080fd5b506104fb6104f63660046151d2565b610f80565b60405163ffffffff9091168152602001610442565b34801561051c57600080fd5b50610438611078565b34801561053157600080fd5b506103c8610540366004615048565b611091565b34801561055157600080fd5b506103c86105603660046151fe565b61110c565b34801561057157600080fd5b506104386112b4565b34801561058657600080fd5b506103c8610595366004615048565b6112be565b3480156105a657600080fd5b506105af611305565b6040516104429190615217565b3480156105c857600080fd5b506103c86105d736600461522b565b61130f565b3480156105e857600080fd5b506105f16113a2565b6040516104429190600061010082019050825182526020830151602083015260408301516040830152606083015160608301526080830151608083015263ffffffff60a08401511660a083015260c0830151151560c083015260e0830151151560e083015292915050565b34801561066857600080fd5b50610438611425565b34801561067d57600080fd5b5061043861142f565b34801561069257600080fd5b506104b66106a136600461523d565b611439565b3480156106b257600080fd5b506103c86106c1366004615279565b6114ec565b3480156106d257600080fd5b506103c86106e13660046151fe565b6116a7565b3480156106f257600080fd5b506105af61171b565b34801561070757600080fd5b50610438611725565b34801561071c57600080fd5b5061072561172f565b604051610442919081516001600160401b039081168252602080840151821690830152604080840151821690830152606080840151821690830152608092830151169181019190915260a00190565b34801561078057600080fd5b5060405160128152602001610442565b34801561079c57600080fd5b506104386801bc16d674ec80000081565b3480156107b957600080fd5b506104b66107c83660046151a8565b61173f565b3480156107d957600080fd5b506104386107e8366004615048565b611760565b3480156107f957600080fd5b50610438611779565b34801561080e57600080fd5b5061043861178c565b34801561082357600080fd5b506105af6117f5565b34801561083857600080fd5b50610438606081565b34801561084d57600080fd5b5042610438565b34801561086057600080fd5b506104386117ff565b34801561087557600080fd5b506104386108843660046151fe565b611809565b34801561089557600080fd5b506103c86108a4366004615048565b611831565b6103c86118ac565b3480156108bd57600080fd5b506108d16108cc36600461535e565b6118b4565b604051610442919061539f565b3480156108ea57600080fd5b506105af611930565b3480156108ff57600080fd5b506105af61193a565b34801561091457600080fd5b50610438610923366004615048565b611944565b34801561093457600080fd5b5061093d61194f565b60408051938452602084019290925290820152606001610442565b34801561096457600080fd5b506103c861097336600461547b565b611a1f565b34801561098457600080fd5b506103c86109933660046154fa565b611a9b565b3480156109a457600080fd5b506104386109b33660046151fe565b611b6c565b3480156109c457600080fd5b506103c86109d3366004615048565b611b77565b3480156109e457600080fd5b506105af611bf2565b3480156109f957600080fd5b50610489611bfc565b348015610a0e57600080fd5b50610438611c06565b348015610a2357600080fd5b50610438611c10565b348015610a3857600080fd5b50610a4c610a4736600461550c565b611c20565b6040516104429190615577565b348015610a6557600080fd5b50604080518082019091526005815264098e68aa8960db1b6020820152610489565b348015610a9357600080fd5b506105af611cb2565b348015610aa857600080fd5b50610ab1611cbc565b60408051825181526020928301519281019290925201610442565b348015610ad857600080fd5b50610438611cd8565b348015610aed57600080fd5b506104b6610afc3660046151a8565b611cea565b348015610b0d57600080fd5b506104b6610b1c3660046151a8565b611d06565b6103c8610b2f366004615048565b611da5565b348015610b4057600080fd5b506103c8610b4f3660046155b2565b611db7565b348015610b6057600080fd5b50610438603081565b348015610b7557600080fd5b506105af611dfb565b348015610b8a57600080fd5b506105af611e05565b6103c8611e0f565b6103c8611e18565b348015610baf57600080fd5b50610438610bbe3660046155ef565b611e20565b348015610bcf57600080fd5b50610bd8611e2c565b6040805182516001600160801b039081168252602093840151169281019290925201610442565b6103c8611e48565b348015610c1357600080fd5b506103c8610c22366004615619565b611e50565b348015610c3357600080fd5b50610438610c423660046151fe565b612407565b348015610c5357600080fd5b506104b6610c623660046151fe565b612412565b348015610c7357600080fd5b506103c8610c82366004615048565b612425565b348015610c9357600080fd5b506104386124a0565b34610cba576040516395b66fe960e01b815260040160405180910390fd5b610cd534610cc66124e1565b610cd0919061566a565b612515565b610ce033823461255e565b6040513481526001600160a01b0382169033907f3bc57f469ad6d10d7723ea226cd22bd2b9e527def2b529f6ab44645a166895829060200160405180910390a350565b610d2b6126f6565b6001600160a01b0316336001600160a01b031614610d67573360405163472511eb60e11b8152600401610d5e9190615217565b60405180910390fd5b610d7081612700565b6040516001600160a01b038216907f67b26a33f305cc027b2d45b2f6f418793afcd3e22f7376afa7be068ce18604e890600090a250565b6001610db1612737565b8114610de25780610dc0612737565b604051631cfd276760e31b815260048101929092526024820152604401610d5e565b610df5610df082600161566a565b6124aa565b610dfe8b612767565b7faf890c07e266df31e0725841eb0e85596a0caa1b17bbae5c0b206fdcc92d7ce18b604051610e2d9190615217565b60405180910390a1610e646040518060400160405280856001600160801b03168152602001846001600160801b031681525061279e565b610e738a8a8a8a8a8a8a6127f2565b610e80308c60001961294b565b7f1809e49bba43f2d39fa57894b50cd6ccb428cc438230e065cac3eb24a1355a7181600036604051610eb493929190615682565b60405180910390a15050505050505050505050565b6000610ed36124e1565b905090565b610ee06129ba565b6001600160a01b0316336001600160a01b031614610f13573360405163472511eb60e11b8152600401610d5e9190615217565b565b6000610f2233848461294b565b50600192915050565b610f336129ea565b6001600160a01b0316336001600160a01b031614610f66573360405163472511eb60e11b8152600401610d5e9190615217565b610f76610f716129ea565b6129f4565b610f136000612a3d565b6000610f8a612a7d565b6001600160a01b0316635a4091023360046040518363ffffffff1660e01b8152600401610fb89291906156b8565b60006040518083038186803b158015610fd057600080fd5b505afa158015610fe4573d6000803e3d6000fd5b50505050610ff3333085612aad565b50610ffc6129ba565b60405163107703ab60e01b8152600481018590526001600160a01b038481166024830152919091169063107703ab906044016020604051808303816000875af115801561104d573d6000803e3d6000fd5b505050506040513d601f19601f8201168201806040525081019061107191906156e3565b9392505050565b6000611082612b29565b6005015463ffffffff16919050565b6110996126f6565b6001600160a01b0316336001600160a01b0316146110cc573360405163472511eb60e11b8152600401610d5e9190615217565b6110d581612b57565b6040516001600160a01b038216907f1da4c245099590dc40be61880c9b97792f3694d970acc1e67ac0e6cc90f3780d90600090a250565b6000611116612b8e565b905060006111366111306801bc16d674ec80000084615716565b84612bbe565b90508061115657604051631036b5ad60e31b815260040160405180910390fd5b60008061116283612bd3565b81519193509150806111875760405163200149ad60e21b815260040160405180910390fd5b838111156111a857604051635993bd5760e01b815260040160405180910390fd5b60006111b2612c5b565b9050806111d257604051639be7315960e01b815260040160405180910390fd5b60005b828110156112225761121a8582815181106111f2576111f261572a565b602002602001015185838151811061120c5761120c61572a565b602002602001015184612c8b565b6001016111d5565b50611248611239836801bc16d674ec800000615740565b611243908861575f565b6130dc565b6000611252613125565b9050611266611261848361566a565b613155565b7f220ab8fd274cf58c09b0825ccf00e74ba4ce4117fd47285adc2183a635838f1b81611292858261566a565b6040805192835260208301919091520160405180910390a15050505050505050565b6000610ed3613183565b6112c66126f6565b6001600160a01b0316336001600160a01b0316146112f9573360405163472511eb60e11b8152600401610d5e9190615217565b61130281612a3d565b50565b6000610ed3613242565b611317613272565b6001600160a01b0316336001600160a01b03161461134a573360405163472511eb60e11b8152600401610d5e9190615217565b61136161135c36839003830183615776565b61327c565b6040805182358152602080840135908201527f5ab79ffcd89b6380c7fbdd89d02cfe3d9c53c99a85e150c2319075018d1aac5c91015b60405180910390a150565b6113aa614e9b565b6113b2612b29565b60408051610100810182528254815260018301546020820152600283015491810191909152600382015460608201526004820154608082015260059091015463ffffffff811660a083015260ff64010000000082048116151560c0840152600160281b90910416151560e0820152919050565b6000610ed36132bf565b6000610ed36132c9565b6000838361144782826132f9565b8380611466576040516336b216db60e21b815260040160405180910390fd5b86858061147283613425565b1015611491576040516351940b3960e11b815260040160405180910390fd5b6001600160a01b0388166114ca57604051637617407560e11b81526001600160a01b038a16600482015260006024820152604401610d5e565b6114d48988613430565b6114df898989612aad565b9998505050505050505050565b60006114f6612737565b81146115055780610dc0612737565b611513610df082600161566a565b61151c866129f4565b61152583613496565b6040516001600160a01b038416907f0cc5437d7c9c1d9eab549acbb533eea3e9868e9443dd75309ed5820b33a3774e90600090a2611562826134cd565b6040518281527fbd533e726baaf59b36f3914d950053f7e78f527057c97cd3f0043257fc0fc8849060200160405180910390a161159e89612b57565b6040516001600160a01b038a16907f1da4c245099590dc40be61880c9b97792f3694d970acc1e67ac0e6cc90f3780d90600090a26115db85613504565b6040516001600160a01b038616907f30f015a5d3c72c0a9414538199baa022323a483fa9e4ba2cd581596cf8ca042490600090a26116188461353b565b6040516001600160a01b038516907fffc0721ef0563a1b0a51a0dc92113025f33ca434ada9ee3eebff2f385d2a8f9a90600090a26116568a89613572565b61165f87611bb2565b7f1809e49bba43f2d39fa57894b50cd6ccb428cc438230e065cac3eb24a1355a718160003660405161169393929190615682565b60405180910390a150505050505050505050565b6116af6126f6565b6001600160a01b0316336001600160a01b0316146116e2573360405163472511eb60e11b8152600401610d5e9190615217565b6116eb816134cd565b6040518181527fbd533e726baaf59b36f3914d950053f7e78f527057c97cd3f0043257fc0fc88490602001611397565b6000610ed36135ee565b6000610ed361361e565b611737614eea565b610ed361364e565b6000610f2233848461175133886136da565b61175b919061566a565b61294b565b600061177361176e83613732565b613780565b92915050565b6000611783612b29565b60010154905090565b60008061179761364e565b905060006117a4826137b8565b90506117ee82600001516001600160401b03166117bf612b29565b546117ca919061566a565b83516117df906001600160401b0316846157a8565b6117e9908461575f565b613803565b9250505090565b6000610ed3613812565b6000610ed3612c5b565b600061181361364e565b51611827906001600160401b0316836157a8565b611773908361575f565b6118396126f6565b6001600160a01b0316336001600160a01b03161461186c573360405163472511eb60e11b8152600401610d5e9190615217565b61187581613504565b6040516001600160a01b038216907f30f015a5d3c72c0a9414538199baa022323a483fa9e4ba2cd581596cf8ca042490600090a250565b610ee0612c5b565b60606118be6129ba565b6001600160a01b0316635f2e5f0784846040518363ffffffff1660e01b81526004016118eb92919061580d565b600060405180830381865afa158015611908573d6000803e3d6000fd5b505050506040513d6000823e601f3d908101601f191682016040526110719190810190615844565b6000610ed36129ba565b6000610ed36126f6565b600061177382613425565b60008060008061195d61364e565b9050600061196a826137b8565b8251909150611982906001600160401b0316826157a8565b61198c908261575f565b945081604001516001600160401b031682602001516001600160401b0316866119b59190615740565b6119bf9190615740565b9350600182604001516001600160401b031683602001516001600160401b031684600001516001600160401b0316886119f8919061566a565b611a029190615740565b611a0c9190615740565b611a16919061575f565b92505050909192565b611a276126f6565b6001600160a01b0316336001600160a01b031614611a5a573360405163472511eb60e11b8152600401610d5e9190615217565b611a6381613842565b611a6c81613861565b7f8d2df192dd17edf92a7964b78aa322f3d717b2ab9de00651bee32bbc4c5da63a816040516113979190615195565b611aa3613272565b6001600160a01b0316336001600160a01b031614611ad6573360405163472511eb60e11b8152600401610d5e9190615217565b611aed611ae8368390038301836158e4565b6138ab565b7f25777eb44be046f64180acf8275f0ac2ec51e63a65a5f8a0f2f6d86ba25b74cf611b1b6020830183615971565b611b2b6040840160208501615971565b611b3b6060850160408601615971565b611b4b6080860160608701615971565b611b5b60a0870160808801615971565b60405161139795949392919061598c565b600061177382613967565b611b7f613272565b6001600160a01b0316336001600160a01b031614611bb2573360405163472511eb60e11b8152600401610d5e9190615217565b611bbb81613994565b6040516001600160a01b038216907fd3b5d1e0ffaeff528910f3663f0adace7694ab8241d58e17a91351ced2e0803190600090a250565b6000610ed36139cb565b6060610ed36139fb565b6000610ed3613125565b6000611c1a612b29565b54919050565b6060611c2a6129ba565b6001600160a01b0316637c044e5586868686600161ffff6040518763ffffffff1660e01b8152600401611c62969594939291906159be565b6000604051808303816000875af1158015611c81573d6000803e3d6000fd5b505050506040513d6000823e601f3d908101601f19168201604052611ca99190810190615a04565b95945050505050565b6000610ed3613ac1565b6040805180820190915260008082526020820152610ed3613af1565b6000610ed3611ce561364e565b6137b8565b6000610f22338484611cfc33886136da565b61175b919061575f565b60003383611d1482826132f9565b8380611d33576040516336b216db60e21b815260040160405180910390fd5b338580611d3f83613425565b1015611d5e576040516351940b3960e11b815260040160405180910390fd5b6001600160a01b038816611d8e57604051637617407560e11b815233600482015260006024820152604401610d5e565b611d99338989612aad565b98975050505050505050565b611dae81613b51565b61130281610c9c565b611dbf6126f6565b6001600160a01b0316336001600160a01b031614611df2573360405163472511eb60e11b8152600401610d5e9190615217565b6113028161279e565b6000610ed3612a7d565b6000610ed36129ea565b610f1333610c9c565b610ee0613242565b600061107183836136da565b6040805180820190915260008082526020820152610ed3613b78565b610ee06135ee565b611e586139cb565b6001600160a01b0316336001600160a01b031614611e8b573360405163472511eb60e11b8152600401610d5e9190615217565b6000611e9561364e565b9050611ea2818335613be6565b611ec25760405163a225656d60e01b815282356004820152602401610d5e565b611eca614f18565b6000611ed4612b29565b60038101546040840181905290915060608501351015611f19576040808301519051621ee1cf60e11b8152600481019190915260608501356024820152604401610d5e565b6040820151611f2c90606086013561575f565b608083015260028101546060830181905260408501351015611f7357606082015160408051636f24834360e01b815260048101929092528501356024820152604401610d5e565b611f7b613125565b611f8b60c0860160a08701615a99565b63ffffffff161180611fbb5750600581015463ffffffff16611fb360c0860160a08701615a99565b63ffffffff16105b1561201057611fd060c0850160a08601615a99565b611fd8613125565b6005830154604051632f776b1760e01b815263ffffffff93841660048201526024810192909252919091166044820152606401610d5e565b606082015161202390604086013561575f565b60a083015280546120379084908635613c43565b60c083015250612045613183565b815260a0810151608082015160009161205d9161566a565b1115612075576120758160a001518260800151613c7e565b61207d614e9b565b83358152602080850135908201526040808501359082015260608085013590820152608080850135908201526120b960c0850160a08601615a99565b63ffffffff1660a08201526120d5610100850160e08601615acf565b151560c08201526120ee61012085016101008601615acf565b151560e08201526120fe81613dab565b506000612109613af1565b905060006121208284600001518560c00151613e57565b905061212a613183565b602084018190528351116121bf57825161214590829061566a565b8360200151111561218d578251602084015160c0850151845160405163eb7a968960e01b81526004810194909452602484019290925260448301526064820152608401610d5e565b8251602084015161219e919061575f565b610120840180519190915251516121b5908261575f565b60e084015261225b565b60006121cf838560000151613e8b565b90506121df818560000151612bbe565b84516121eb919061575f565b8460200151101561223957835160208086015160c08701519186015160405163063bb83f60e11b8152610d5e9493919060040193845260208401929092526040830152606082015260800190565b6020840151845161224a919061575f565b612254908361566a565b60e0850152505b60e0830151156122b9576122728360e00151613ea0565b610120840180516020908101929092525190810151815190919061229790839061566a565b9052506101208301516020015160e0840180516122b590839061575f565b9052505b60e0830151156122f8576122d08360e00151613f68565b6101208401805160409081019290925251015160e0840180516122f490839061575f565b9052505b60e08301511561231a5761230f8360e0015161402e565b610120840151606001525b6101208301515115612336576101208301515161233690614100565b6123a5608086013561234b60c0880188615aec565b8080602002602001604051908101604052809392919081815260200183836020028082843760009201919091525061238e92505050610100890160e08a01615acf565b6123a06101208a016101008b01615acf565b614232565b6123ad61452d565b6123b56146b2565b6123c28360c001516146da565b7f49ac0d2bb2a688ca460f7993eb93eccd3b9c9188da6b0727e9a409cf8b105875858461012001516040516123f8929190615b7d565b60405180910390a15050505050565b600061177382613780565b600061177361241f61364e565b83613be6565b61242d6126f6565b6001600160a01b0316336001600160a01b031614612460573360405163472511eb60e11b8152600401610d5e9190615217565b61246981613496565b6040516001600160a01b038216907f0cc5437d7c9c1d9eab549acbb533eea3e9868e9443dd75309ed5820b33a3774e90600090a250565b6000610ed3612b8e565b6113026124d860017f82055909238c0f5e63d6f174068ebb8f51bcec9bd37de63bb68f6551feec0cfd61575f565b829055565b9055565b6000610ed361251160017f2b6136e423ab70d76431e2a635e877e16ea2dd9a895e054ad7f35f89d6c7b71161575f565b5490565b7f48f67c1dada0cab2163f6282292ad97ea97376cfed46bb3851654aaa630db72761253e6124e1565b60408051918252602082018490520160405180910390a161130281614790565b600061256a84836147be565b90506000612576612a7d565b9050836001600160a01b0316856001600160a01b031614156125f657604051632d20488160e11b81526001600160a01b03821690635a409102906125c19088906001906004016156b8565b60006040518083038186803b1580156125d957600080fd5b505afa1580156125ed573d6000803e3d6000fd5b505050506126ef565b604051632d20488160e11b81526001600160a01b03821690635a409102906126259088906001906004016156b8565b60006040518083038186803b15801561263d57600080fd5b505afa158015612651573d6000803e3d6000fd5b505060405163e838dfbb60e01b81526001600160a01b038416925063e838dfbb9150612681908790600401615217565b602060405180830381865afa15801561269e573d6000803e3d6000fd5b505050506040513d601f19601f820116820180604052508101906126c29190615c51565b156126e2578360405163e7d05e2760e01b8152600401610d5e9190615217565b6126ed858584612aad565b505b5050505050565b6000610ed361481d565b61270981613b51565b6113026124d860017ff4271262f3552a4108cde54dc75061de8de495709221d793b126e448522d6a8061575f565b6000610ed361251160017f82055909238c0f5e63d6f174068ebb8f51bcec9bd37de63bb68f6551feec0cfd61575f565b61277081613b51565b6113026124d860017fe458cbedf69109e7d57b7f8c96816615aac0017187d87abab9001d22db32bae461575f565b6127a78161484d565b805160208201516040517e4180017d3dd609da6980999655a6bd2591e313d31d6230b1889c369a9713a0926113979290916001600160801b0392831681529116602082015260400190565b61284e6040518060a00160405280896001600160401b03168152602001886001600160401b03168152602001876001600160401b03168152602001866001600160401b03168152602001856001600160401b03168152506138ab565b7f25777eb44be046f64180acf8275f0ac2ec51e63a65a5f8a0f2f6d86ba25b74cf878787878760405161288595949392919061598c565b60405180910390a16128aa60405180604001604052808481526020018381525061327c565b60408051838152602081018390527f5ab79ffcd89b6380c7fbdd89d02cfe3d9c53c99a85e150c2319075018d1aac5c910160405180910390a16128eb614e9b565b6128f361489f565b81526128fd6148cf565b602082015260006040820181905260608201819052608082015261291f6148ff565b63ffffffff1660a0820152600060c0820181905260e082015261294181613dab565b5050505050505050565b61295483613b51565b61295d82613b51565b61296883838361492f565b816001600160a01b0316836001600160a01b03167f8c5be1e5ebec7d5bd14f71427d1e84f3dd0314c0f7b2291e5b200ac8c7c3b925836040516129ad91815260200190565b60405180910390a3505050565b6000610ed361251160017fe458cbedf69109e7d57b7f8c96816615aac0017187d87abab9001d22db32bae461575f565b6000610ed3614986565b6129fd81613b51565b612a06816149b6565b6040516001600160a01b038216907f5a272403b402d892977df56625f4164ccaf70ca3863991c43ecfe76a6905b0a190600090a250565b612a46816149bf565b6040516001600160a01b038216907f2a0f8515de3fa34ef68b99300347b8793c01683350743e96fe440594528298f490600090a250565b6000610ed361251160017f867d8f1a5e39d11d5bebde854d5359a509530ad32450f581da63c06ec8d1a78061575f565b6000612acc8483612abd87613732565b612ac7919061575f565b6149c8565b612ae48383612ada86613732565b612ac7919061566a565b826001600160a01b0316846001600160a01b0316600080516020615f5f83398151915284604051612b1791815260200190565b60405180910390a35060019392505050565b60008061177360017fdbc0527c99b54cd325d6ce9eaae3a8413cd447b5205f37385f0ebc6551033c6d61575f565b612b6081613b51565b6113026124d860017f8e9e2a1d30fed357d8a000c1131fc77ed65d2052918caf1ccc6eb1e7af3d13b661575f565b6000610ed361251160017fbcfa5a69252c74010ad3e9ab18cfbdc116fcf85f084db1a8dc577a339fbee58b61575f565b6000818311612bcd5782611071565b50919050565b606080612bde613ac1565b6001600160a01b031663277c9d45846040518263ffffffff1660e01b8152600401612c0b91815260200190565b6000604051808303816000875af1158015612c2a573d6000803e3d6000fd5b505050506040513d6000823e601f3d908101601f19168201604052612c529190810190615d34565b91509150915091565b6000610ed361251160017fb649e50315f962b32d487e696a81b4828631b11f8424daaaa37e9e97766a2c4261575f565b6030835114612cad5760405163050cb55360e41b815260040160405180910390fd5b6060825114612ccf5760405163408ebd3960e01b815260040160405180910390fd5b6801bc16d674ec8000006000612ce9633b9aca0083615716565b90506000600286600060801b604051602001612d06929190615d97565b60408051601f1981840301815290829052612d2091615dc6565b602060405180830381855afa158015612d3d573d6000803e3d6000fd5b5050506040513d601f19601f82011682018060405250810190612d609190615de2565b90506000600280612d748860006040614a14565b604051612d819190615dc6565b602060405180830381855afa158015612d9e573d6000803e3d6000fd5b5050506040513d601f19601f82011682018060405250810190612dc19190615de2565b6002612dd9896040612dd481606061575f565b614a14565b604051612dec9190600090602001615dfb565b60408051601f1981840301815290829052612e0691615dc6565b602060405180830381855afa158015612e23573d6000803e3d6000fd5b5050506040513d601f19601f82011682018060405250810190612e469190615de2565b60408051602081019390935282015260600160408051601f1981840301815290829052612e7291615dc6565b602060405180830381855afa158015612e8f573d6000803e3d6000fd5b5050506040513d601f19601f82011682018060405250810190612eb29190615de2565b905060006002808488604051602001612ed5929190918252602082015260400190565b60408051601f1981840301815290829052612eef91615dc6565b602060405180830381855afa158015612f0c573d6000803e3d6000fd5b5050506040513d601f19601f82011682018060405250810190612f2f9190615de2565b6002612f3a87614ad7565b604080516020810192909252810186905260600160408051601f1981840301815290829052612f6891615dc6565b602060405180830381855afa158015612f85573d6000803e3d6000fd5b5050506040513d601f19601f82011682018060405250810190612fa89190615de2565b60408051602081019390935282015260600160408051601f1981840301815290829052612fd491615dc6565b602060405180830381855afa158015612ff1573d6000803e3d6000fd5b5050506040513d601f19601f820116820180604052508101906130149190615de2565b90506000613022864761575f565b905061302c614b44565b6001600160a01b03166322895118878b8a60405160200161304f91815260200190565b6040516020818303038152906040528c876040518663ffffffff1660e01b815260040161307f9493929190615e1d565b6000604051808303818588803b15801561309857600080fd5b505af11580156130ac573d6000803e3d6000fd5b50505050508047146130d157604051638051a6bb60e01b815260040160405180910390fd5b505050505050505050565b7f86fd21e9b5bd76b20471c7f93a82aa4e25c37d48b179bda0a4d1a45e22a842f4613105612b8e565b60408051918252602082018490520160405180910390a161130281614b74565b6000610ed361251160017fc77078e3530c08cdb2440817c81de4836500b4708ea4d15672b7fe98956423a861575f565b6113026124d860017fc77078e3530c08cdb2440817c81de4836500b4708ea4d15672b7fe98956423a861575f565b60008061318e612b29565b600581015490915063ffffffff1660006131a6613125565b90508082101561321b576801bc16d674ec8000006131c4838361575f565b6131ce9190615740565b6131d661361e565b6131de612b8e565b6131e66124e1565b86600101546131f5919061566a565b6131ff919061566a565b613209919061566a565b613213919061566a565b935050505090565b61322361361e565b61322b612b8e565b6132336124e1565b85600101546131ff919061566a565b6000610ed361251160017ff4271262f3552a4108cde54dc75061de8de495709221d793b126e448522d6a8061575f565b6000610ed361193a565b60006132a960017ff81b149de6749a3f46464b2cce61e24462f67599ea4a5ce028aaf4ab1521f96e61575f565b8251815560209092015160019092019190915550565b6000610ed3614ba2565b6000610ed361251160017f094efef62d2ce60c14ffacd35a1b50546d3a9d503aff1df040176fffd6c92a3761575f565b6000613303612a7d565b60405163e838dfbb60e01b81529091506001600160a01b0382169063e838dfbb90613332908690600401615217565b602060405180830381865afa15801561334f573d6000803e3d6000fd5b505050506040513d601f19601f820116820180604052508101906133739190615c51565b15613393578260405163e7d05e2760e01b8152600401610d5e9190615217565b60405163e838dfbb60e01b81526001600160a01b0382169063e838dfbb906133bf908590600401615217565b602060405180830381865afa1580156133dc573d6000803e3d6000fd5b505050506040513d601f19601f820116820180604052508101906134009190615c51565b15613420578160405163e7d05e2760e01b8152600401610d5e9190615217565b505050565b600061177382613732565b600061343c83336136da565b90508181101561347e57604051637b936de360e01b81526001600160a01b03841660048201523360248201526044810182905260648101839052608401610d5e565b600019811461342057613420833361175b858561575f565b61349f81613b51565b6113026124d860017f082b6d18de7b10e438e6b1002141db737519cb4ceed679bc815e3aac00cd222761575f565b6134d681614bd2565b6113026124d860017f094efef62d2ce60c14ffacd35a1b50546d3a9d503aff1df040176fffd6c92a3761575f565b61350d81613b51565b6113026124d860017f867d8f1a5e39d11d5bebde854d5359a509530ad32450f581da63c06ec8d1a78061575f565b61354481613b51565b6113026124d860017f3f075dea7ef99b1e5db245018e5e4ed8d2a0d93953f5932b2176bef59bd6906161575f565b61357b82614bf5565b6040516001600160a01b038316907e043cf7635f276413ae358250286a479a631abd9d74d57d4aa0bb87ebc7d11790600090a26135b781614c2c565b6040518181527f4c86ba184ea1a1558f84835ca34f6d67e222e8ee5cc4f324b8861dda4cf1740c9060200160405180910390a15050565b6000610ed361251160017f8e9e2a1d30fed357d8a000c1131fc77ed65d2052918caf1ccc6eb1e7af3d13b661575f565b6000610ed361251160017f850308dd4e453a2a1bc3efb444560401d95c1a8bdea5b35c5c79531cd2241f1d61575f565b613656614eea565b600061368360017fd84ee2c84c954c65bef1459fe03b761a42f49234527e3cd8fd9dce87cb83742b61575f565b6040805160a08101825282546001600160401b038082168352600160401b820481166020840152600160801b8204811693830193909352600160c01b90048216606082015260019092015416608082015292915050565b60008061370860017fc852254d5b703a16bb13b3e233a335d6459c5da5db0ca732d7a684ee0540784761575f565b6001600160a01b039485166000908152602091825260408082209590961681529390525050205490565b60008061376060017f0fb4a5ac9287f4f508aa7253ee2d57c6a228b1b30e210d73fffd59389d3a883861575f565b6001600160a01b0390931660009081526020939093525050604090205490565b60008061378b614ba2565b90508061379b5750600092915050565b806137a4613183565b6137ae9085615740565b6110719190615716565b600081602001516001600160401b031682604001516001600160401b031683606001516001600160401b0316426137ef919061575f565b6137f99190615716565b6117739190615716565b6000818310612bcd5782611071565b6000610ed361251160017f082b6d18de7b10e438e6b1002141db737519cb4ceed679bc815e3aac00cd222761575f565b805161130257604051638d46fe0560e01b815260040160405180910390fd5b600061388e60017fb63f3482ec84cb93d74a71645ad2e9e896fa02723e42170b4aad20a4bed6cdd661575f565b825190915081906138a59082906020860190614f93565b50505050565b60006138d860017fd84ee2c84c954c65bef1459fe03b761a42f49234527e3cd8fd9dce87cb83742b61575f565b825181546020850151604086015160608701516001600160401b039485166001600160801b031990941693909317600160401b92851692909202919091176001600160801b0316600160801b918416919091026001600160c01b031617600160c01b918316919091021782556080909301516001909101805467ffffffffffffffff1916919093161790915550565b600080613972614ba2565b9050806139825750600092915050565b61398a613183565b6137ae8285615740565b61399d81613b51565b6113026124d860017fc8cbea9407c380ae944f052b5a442330057683c5abdbd453493f9750806afecb61575f565b6000610ed361251160017fc8cbea9407c380ae944f052b5a442330057683c5abdbd453493f9750806afecb61575f565b60606000613a2a60017fb63f3482ec84cb93d74a71645ad2e9e896fa02723e42170b4aad20a4bed6cdd661575f565b805490915081908190613a3c90615e68565b80601f0160208091040260200160405190810160405280929190818152602001828054613a6890615e68565b8015613ab55780601f10613a8a57610100808354040283529160200191613ab5565b820191906000526020600020905b815481529060010190602001808311613a9857829003601f168201915b50505050509250505090565b6000610ed361251160017f3f075dea7ef99b1e5db245018e5e4ed8d2a0d93953f5932b2176bef59bd6906161575f565b60408051808201909152600080825260208201526000613b3260017ff81b149de6749a3f46464b2cce61e24462f67599ea4a5ce028aaf4ab1521f96e61575f565b6040805180820190915281548152600190910154602082015292915050565b6001600160a01b0381166113025760405163f6b2911f60e01b815260040160405180910390fd5b60408051808201909152600080825260208201526000613bb960017fc305db9f63aeed94a45229ff5ab4174e72b223a38ab4c5e8f518ee4f437918d161575f565b6040805180820190915290546001600160801b038082168352600160801b90910416602082015292915050565b600082608001516001600160401b031682613c01919061566a565b613c0a846137b8565b10158015613c1f5750613c1b612b29565b5482115b801561107157508251613c3b906001600160401b0316836157a8565b159392505050565b600083602001518460400151613c599190615e9d565b6001600160401b0316613c6c848461575f565b613c769190615740565b949350505050565b476000613c8b838561566a565b9050613c95612c5b565b6001600160a01b031663ea74f479826040518263ffffffff1660e01b8152600401613cc291815260200190565b600060405180830381600087803b158015613cdc57600080fd5b505af1158015613cf0573d6000803e3d6000fd5b5050505060008247613d02919061575f565b9050613d0e848661566a565b8114613d4257613d1e848661566a565b6040516349a1938b60e01b8152600481019190915260248101829052604401610d5e565b8415613d5457613d5485610cc66124e1565b8315613d7557613d7584613d6661361e565b613d70919061566a565b614c78565b60408051868152602081018690527fcb5410dc8f29b2f498e023c3f9237dbd600255a717edf94a6072bcd03b0c773c91016123f8565b6000613dd860017fdbc0527c99b54cd325d6ce9eaae3a8413cd447b5205f37385f0ebc6551033c6d61575f565b825181556020830151600182015560408301516002820155606083015160038201556080830151600482015560a08301516005909101805460c085015160e0909501511515600160281b0265ff0000000000199515156401000000000264ffffffffff1990921663ffffffff9094169390931717939093161790915550565b6000613e696301e13380612710615740565b84518390613e779086615740565b613e819190615740565b613c769190615716565b60006127108360200151836137ae9190615740565b600080613eab6135ee565b60405163c8a6dfd360e01b81526004810185905290915047906001600160a01b0383169063c8a6dfd390602401600060405180830381600087803b158015613ef257600080fd5b505af1158015613f06573d6000803e3d6000fd5b5050505060008147613f18919061575f565b90508015613f2c57613f2c81610cc66124e1565b6040518181527fda841d3042d792e2509a333b9dcbd4b3dd9b9047d382011f8788fab90ca7e3c7906020015b60405180910390a1949350505050565b600047613f736129ba565b6001600160a01b0316630c779401846040518263ffffffff1660e01b8152600401613fa091815260200190565b600060405180830381600087803b158015613fba57600080fd5b505af1158015613fce573d6000803e3d6000fd5b5050505060008147613fe0919061575f565b90508015613ff457613ff481610cc66124e1565b6040518181527f4e484734eb4d444bfa106f917d05d9ceb8ce18bf516c85d7aeb9b322925339f99060200160405180910390a19392505050565b600080614039613242565b90506001600160a01b0381166140525750600092915050565b604051638ede6b6b60e01b81526004810184905247906001600160a01b03831690638ede6b6b90602401600060405180830381600087803b15801561409657600080fd5b505af11580156140aa573d6000803e3d6000fd5b50505050600081476140bc919061575f565b905080156140d0576140d081610cc66124e1565b6040518181527fd500b67e5bd8019c0af744cadeec120d1b5e3d3a3a011f18cf182aa4c97947b690602001613f58565b600061410a6132bf565b90508061412a57604051630d35acd760e21b815260040160405180910390fd5b6000614134613183565b905060006141406132c9565b905060008161414f8587615740565b6141599190615740565b905060006141678387615740565b61417361271086615740565b61417d919061575f565b905060008115614196576141918284615716565b614199565b60005b905080156142295760006141ab613812565b90506141b78183614cc1565b60006141c16132bf565b905060006141cf8a8961575f565b60408051828152602081018c90529081018a9052606081018490529091506001600160a01b038416907f3d1669e813a9845c288f0e1f642a4343a451103b87886d12de37e63b39bbd9429060800160405180910390a25050505b50505050505050565b61423a613ac1565b6001600160a01b031663b405e17484614251613125565b6040518363ffffffff1660e01b815260040161426e929190615ecc565b600060405180830381600087803b15801561428857600080fd5b505af115801561429c573d6000803e3d6000fd5b5050505080156142ab576138a5565b60006142b56132bf565b905080156126ef5760006142c761361e565b905060006142d36124e1565b905060006143436142e26129ba565b6001600160a01b0316630d8d2a546040518163ffffffff1660e01b8152600401602060405180830381865afa15801561431f573d6000803e3d6000fd5b505050506040513d601f19601f8201168201806040525081019061176e9190615de2565b905080614350898561566a565b1015612941578580156143635750600082115b156143b457600061438883856143798c8661575f565b614383919061575f565b612bbe565b905080156143b25761439a818561566a565b93506143a584614c78565b6143b2610cd0828561575f565b505b60006143be613ac1565b9050600080826001600160a01b0316634a3c63bb6040518163ffffffff1660e01b81526004016040805180830381865afa158015614400573d6000803e3d6000fd5b505050506040513d601f19601f820116820180604052508101906144249190615f1a565b915063ffffffff16915060006801bc16d674ec800000838311614448576000614452565b614452848461575f565b61445c9190615740565b9050848161446a8e8a61566a565b614474919061566a565b101561451f5760006144ad8261448a8f8b61566a565b614494919061566a565b61449e908861575f565b6801bc16d674ec800000614d1e565b9050846001600160a01b0316632d1fc39d826144c7613125565b6040516001600160e01b031960e085901b16815260048101929092526024820152604401600060405180830381600087803b15801561450557600080fd5b505af1158015614519573d6000803e3d6000fd5b50505050505b505050505050505050505050565b60006145376129ba565b90506000614543613183565b9050600061454f6132bf565b90506000821180156145615750600081115b15613420576000836001600160a01b0316630d8d2a546040518163ffffffff1660e01b8152600401602060405180830381865afa1580156145a6573d6000803e3d6000fd5b505050506040513d601f19601f820116820180604052508101906145ca9190615de2565b90508060006145d882613780565b905060006145e461361e565b9050808211156145fd578091506145fa82613967565b92505b60408051858152602081018590529081018390527f709263092d8d9fef472d907900405b5edae3d76f8ff4354858025b18424d71019060600160405180910390a1811561422957614651613d70838361575f565b61465b8784614d51565b60405163b30d8bb760e01b8152600481018490526001600160a01b0388169063b30d8bb79084906024016000604051808303818588803b15801561469e57600080fd5b505af115801561451f573d6000803e3d6000fd5b60006146bc61361e565b90508015611302576146d081610cc66124e1565b6113026000614c78565b60006146e4613183565b905060006146f06124e1565b905060006146fc613b78565b8051909150600090614740906001600160801b031661271061471e868861575f565b85602001516001600160801b03166147369190615740565b6117e99190615716565b90506000614765620151806147558885615740565b61475f9190615716565b85612bbe565b905080156126ed5761478381614779612b8e565b611243919061566a565b6126ed610cd0828661575f565b6113026124d860017f2b6136e423ab70d76431e2a635e877e16ea2dd9a895e054ad7f35f89d6c7b71161575f565b600080826147ca613183565b6147d4919061575f565b9050806147ed578291506147e88484614cc1565b614816565b806147f66132bf565b6148009085615740565b61480a9190615716565b91506148168483614cc1565b5092915050565b6000610ed361251160017fb5b37715a3e346e996104f0086703f19825def429233930fd9399c38e05fb11361575f565b600061487a60017fc305db9f63aeed94a45229ff5ab4174e72b223a38ab4c5e8f518ee4f437918d161575f565b82516020909301516001600160801b03908116600160801b0293169290921790915550565b6000610ed361251160017fd7f2d45e512a86049f7a113657b39731b6b558609584243063a52cd31a8eb52961575f565b6000610ed361251160017ffedfd2c285a57fb23bf45a3fe9ac02d36a76ebb72801b1c8aaf553d74e9d465361575f565b6000610ed361251160017f0f1e7733641e4d843128fea0d2ec90d3d06a40b0fe244ff603d8c1aa200dc0f961575f565b600061495c60017fc852254d5b703a16bb13b3e233a335d6459c5da5db0ca732d7a684ee0540784761575f565b6001600160a01b039485166000908152602091825260408082209590961681529390525091902055565b6000610ed361251160017f6e6ab8b7c7aaba79eef8cc633522d606bb008c101cf9832c9ad05d10a984728161575f565b61130281614da1565b61130281614dd8565b60006149f560017f0fb4a5ac9287f4f508aa7253ee2d57c6a228b1b30e210d73fffd59389d3a883861575f565b6001600160a01b03909316600090815260209390935250604090912055565b60608182601f011015614a3a576040516323d5783d60e11b815260040160405180910390fd5b614a44828461566a565b84511015614a6557604051633b99b53d60e01b815260040160405180910390fd5b606082158015614a845760405191506000825260208201604052614ace565b6040519150601f8416801560200281840101858101878315602002848b0101015b81831015614abd578051835260209283019201614aa5565b5050858452601f01601f1916604052505b50949350505050565b603881901c60ff908116603083901c8216602884901c8316602085901c8416601886901c8516601087901c8616600888811c9790971688881b61ff001617871b17861b17851b17841b17831b1790911b17604082901c8015614b3b57614b3b615f48565b5060c01b919050565b6000610ed361251160017f35efb61d8784060218d9d6aa40eae55904de43779c1afc79c74dfefcfdf9126061575f565b6113026124d860017fbcfa5a69252c74010ad3e9ab18cfbdc116fcf85f084db1a8dc577a339fbee58b61575f565b6000610ed361251160017f6b842b424335d94ccad97e54548dfa02673c1268aba38d3c3c32d28c8988b70b61575f565b612710811115611302576040516358d620b360e01b815260040160405180910390fd5b614bfe81613b51565b6113026124d860017f35efb61d8784060218d9d6aa40eae55904de43779c1afc79c74dfefcfdf9126061575f565b80614c4a5760405163a9cb9e0d60e01b815260040160405180910390fd5b6113026124d860017fb649e50315f962b32d487e696a81b4828631b11f8424daaaa37e9e97766a2c4261575f565b7f215c2b83e8c232e42091088056ab75d2ff643855c32997024f786cddb22d2290614ca161361e565b60408051918252602082018490520160405180910390a161130281614e06565b614cdc81614ccd614ba2565b614cd7919061566a565b614e34565b614cea8282612ada85613732565b6040518181526001600160a01b03831690600090600080516020615f5f833981519152906020015b60405180910390a35050565b600080614d2b83856157a8565b11614d37576000614d3a565b60015b60ff16614d478385615716565b611071919061566a565b614d6781614d5d614ba2565b614cd7919061575f565b614d758282612abd85613732565b6040518181526000906001600160a01b03841690600080516020615f5f83398151915290602001614d12565b614daa81613b51565b6113026124d860017fb5b37715a3e346e996104f0086703f19825def429233930fd9399c38e05fb11361575f565b6113026124d860017f6e6ab8b7c7aaba79eef8cc633522d606bb008c101cf9832c9ad05d10a984728161575f565b6113026124d860017f850308dd4e453a2a1bc3efb444560401d95c1a8bdea5b35c5c79531cd2241f1d61575f565b614e3d81614e6d565b6040518181527fc80ea35a3f9016535e5b7c87746740c5045afe42188d02c5786eb97495c2f42990602001611397565b6113026124d860017f6b842b424335d94ccad97e54548dfa02673c1268aba38d3c3c32d28c8988b70b61575f565b6040518061010001604052806000815260200160008152602001600081526020016000815260200160008152602001600063ffffffff1681526020016000151581526020016000151581525090565b6040805160a08101825260008082526020820181905291810182905260608101829052608081019190915290565b604051806101400160405280600081526020016000815260200160008152602001600081526020016000815260200160008152602001600081526020016000815260200160008152602001614f8e6040518060800160405280600081526020016000815260200160008152602001600081525090565b905290565b828054614f9f90615e68565b90600052602060002090601f016020900481019282614fc15760008555615007565b82601f10614fda57805160ff1916838001178555615007565b82800160010185558215615007579182015b82811115615007578251825591602001919060010190614fec565b50615013929150615017565b5090565b5b808211156150135760008155600101615018565b80356001600160a01b038116811461504357600080fd5b919050565b60006020828403121561505a57600080fd5b6110718261502c565b80356001600160401b038116811461504357600080fd5b80356001600160801b038116811461504357600080fd5b6000806000806000806000806000806101408b8d0312156150b157600080fd5b6150ba8b61502c565b99506150c860208c01615063565b98506150d660408c01615063565b97506150e460608c01615063565b96506150f260808c01615063565b955061510060a08c01615063565b945060c08b0135935060e08b0135925061511d6101008c0161507a565b915061512c6101208c0161507a565b90509295989b9194979a5092959850565b60005b83811015615158578181015183820152602001615140565b838111156138a55750506000910152565b6000815180845261518181602086016020860161513d565b601f01601f19169290920160200192915050565b6020815260006110716020830184615169565b600080604083850312156151bb57600080fd5b6151c48361502c565b946020939093013593505050565b600080604083850312156151e557600080fd5b823591506151f56020840161502c565b90509250929050565b60006020828403121561521057600080fd5b5035919050565b6001600160a01b0391909116815260200190565b600060408284031215612bcd57600080fd5b60008060006060848603121561525257600080fd5b61525b8461502c565b92506152696020850161502c565b9150604084013590509250925092565b60008060008060008060008060006101208a8c03121561529857600080fd5b6152a18a61502c565b98506152af60208b0161502c565b975060408a013596506152c460608b0161502c565b95506152d260808b0161502c565b94506152e060a08b0161502c565b93506152ee60c08b0161502c565b92506152fc60e08b0161502c565b91506101008a013590509295985092959850929598565b60008083601f84011261532557600080fd5b5081356001600160401b0381111561533c57600080fd5b6020830191508360208260051b850101111561535757600080fd5b9250929050565b6000806020838503121561537157600080fd5b82356001600160401b0381111561538757600080fd5b61539385828601615313565b90969095509350505050565b6020808252825182820181905260009190848201906040850190845b818110156153da57835160070b835292840192918401916001016153bb565b50909695505050505050565b634e487b7160e01b600052604160045260246000fd5b604080519081016001600160401b038111828210171561541e5761541e6153e6565b60405290565b604051601f8201601f191681016001600160401b038111828210171561544c5761544c6153e6565b604052919050565b60006001600160401b0382111561546d5761546d6153e6565b50601f01601f191660200190565b60006020828403121561548d57600080fd5b81356001600160401b038111156154a357600080fd5b8201601f810184136154b457600080fd5b80356154c76154c282615454565b615424565b8181528560208385010111156154dc57600080fd5b81602084016020830137600091810160200191909152949350505050565b600060a08284031215612bcd57600080fd5b6000806000806040858703121561552257600080fd5b84356001600160401b038082111561553957600080fd5b61554588838901615313565b9096509450602087013591508082111561555e57600080fd5b5061556b87828801615313565b95989497509550505050565b6020808252825182820181905260009190848201906040850190845b818110156153da57835160ff1683529284019291840191600101615593565b6000604082840312156155c457600080fd5b6155cc6153fc565b6155d58361507a565b81526155e36020840161507a565b60208201529392505050565b6000806040838503121561560257600080fd5b61560b8361502c565b91506151f56020840161502c565b60006020828403121561562b57600080fd5b81356001600160401b0381111561564157600080fd5b8201610120818503121561107157600080fd5b634e487b7160e01b600052601160045260246000fd5b6000821982111561567d5761567d615654565b500190565b83815260406020820152816040820152818360608301376000818301606090810191909152601f909201601f1916010192915050565b6001600160a01b03929092168252602082015260400190565b63ffffffff8116811461130257600080fd5b6000602082840312156156f557600080fd5b8151611071816156d1565b634e487b7160e01b600052601260045260246000fd5b60008261572557615725615700565b500490565b634e487b7160e01b600052603260045260246000fd5b600081600019048311821515161561575a5761575a615654565b500290565b60008282101561577157615771615654565b500390565b60006040828403121561578857600080fd5b6157906153fc565b82358152602083013560208201528091505092915050565b6000826157b7576157b7615700565b500690565b8035615043816156d1565b8183526000602080850194508260005b858110156158025781356157ea816156d1565b63ffffffff16875295820195908201906001016157d7565b509495945050505050565b602081526000613c766020830184866157c7565b60006001600160401b0382111561583a5761583a6153e6565b5060051b60200190565b6000602080838503121561585757600080fd5b82516001600160401b0381111561586d57600080fd5b8301601f8101851361587e57600080fd5b805161588c6154c282615821565b81815260059190911b820183019083810190878311156158ab57600080fd5b928401925b828410156158d95783518060070b81146158ca5760008081fd5b825292840192908401906158b0565b979650505050505050565b600060a082840312156158f657600080fd5b60405160a081018181106001600160401b0382111715615918576159186153e6565b60405261592483615063565b815261593260208401615063565b602082015261594360408401615063565b604082015261595460608401615063565b606082015261596560808401615063565b60808201529392505050565b60006020828403121561598357600080fd5b61107182615063565b6001600160401b0395861681529385166020850152918416604084015283166060830152909116608082015260a00190565b6080815260006159d260808301888a6157c7565b82810360208401526159e58187896157c7565b9415156040840152505061ffff91909116606090910152949350505050565b60006020808385031215615a1757600080fd5b82516001600160401b03811115615a2d57600080fd5b8301601f81018513615a3e57600080fd5b8051615a4c6154c282615821565b81815260059190911b82018301908381019087831115615a6b57600080fd5b928401925b828410156158d957835160ff81168114615a8a5760008081fd5b82529284019290840190615a70565b600060208284031215615aab57600080fd5b8135611071816156d1565b801515811461130257600080fd5b803561504381615ab6565b600060208284031215615ae157600080fd5b813561107181615ab6565b6000808335601e19843603018112615b0357600080fd5b8301803591506001600160401b03821115615b1d57600080fd5b6020019150600581901b360382131561535757600080fd5b6000808335601e19843603018112615b4c57600080fd5b83016020810192503590506001600160401b03811115615b6b57600080fd5b8060051b360383131561535757600080fd5b60a08152823560a0820152602083013560c0820152604083013560e08201526000610100606085013581840152610120608086013581850152615bc260a087016157bc565b63ffffffff16610140850152615bdb60c0870187615b35565b82610160870152615bf16101c0870182846157c7565b92505050615c0160e08701615ac4565b1515610180850152615c14868301615ac4565b8015156101a08601529150915061107190506020830184805182526020810151602083015260408101516040830152606081015160608301525050565b600060208284031215615c6357600080fd5b815161107181615ab6565b600082601f830112615c7f57600080fd5b81516020615c8f6154c283615821565b82815260059290921b84018101918181019086841115615cae57600080fd5b8286015b84811015615d295780516001600160401b03811115615cd15760008081fd5b8701603f81018913615ce35760008081fd5b848101516040615cf56154c283615454565b8281528b82848601011115615d0a5760008081fd5b615d198389830184870161513d565b8652505050918301918301615cb2565b509695505050505050565b60008060408385031215615d4757600080fd5b82516001600160401b0380821115615d5e57600080fd5b615d6a86838701615c6e565b93506020850151915080821115615d8057600080fd5b50615d8d85828601615c6e565b9150509250929050565b60008351615da981846020880161513d565b6001600160801b0319939093169190920190815260100192915050565b60008251615dd881846020870161513d565b9190910192915050565b600060208284031215615df457600080fd5b5051919050565b60008351615e0d81846020880161513d565b9190910191825250602001919050565b608081526000615e306080830187615169565b8281036020840152615e428187615169565b90508281036040840152615e568186615169565b91505082606083015295945050505050565b600181811c90821680615e7c57607f821691505b60208210811415612bcd57634e487b7160e01b600052602260045260246000fd5b60006001600160401b0380831681851681830481118215151615615ec357615ec3615654565b02949350505050565b604080825283519082018190526000906020906060840190828701845b82811015615f0b57815163ffffffff1684529284019290840190600101615ee9565b50505092019290925292915050565b60008060408385031215615f2d57600080fd5b8251615f38816156d1565b6020939093015192949293505050565b634e487b7160e01b600052600160045260246000fdfeddf252ad1be2c89b69c2b068fc378daa952ba7f163c4a11628f55a4df523b3efa264697066735822122075e48ff7ca1ef56a4380c2b504633a9f2bf34000bc77bdf03103b2444951f22564736f6c634300080a0033"
        ],
        "devdoc": [
            {
                "author": "Kiln",
                "errors": {
                    "AllowanceTooLow(address,address,uint256,uint256)": [
                        {
                            "params": {
                                "_allowance": "Current allowance",
                                "_from": "Account where funds are sent from",
                                "_operator": "Account attempting the transfer",
                                "_value": "Requested transfer value in shares"
                            }
                        }
                    ],
                    "Denied(address)": [
                        {
                            "params": {
                                "account": "The account that was denied"
                            }
                        }
                    ],
                    "InvalidInitialization(uint256,uint256)": [
                        {
                            "params": {
                                "expectedVersion": "The version that was expected",
                                "version": "The version that was attempting to be initialized"
                            }
                        }
                    ],
                    "InvalidValidatorCountReport(uint256,uint256)": [
                        {
                            "params": {
                                "depositedValidatorCount": "The number of deposits performed by the system",
                                "providedValidatorCount": "The received validator count value"
                            }
                        }
                    ],
                    "Unauthorized(address)": [
                        {
                            "params": {
                                "caller": "Addres performing the call"
                            }
                        }
                    ],
                    "UnauthorizedTransfer(address,address)": [
                        {
                            "params": {
                                "_from": "Account sending the funds in the invalid transfer",
                                "_to": "Account receiving the funds in the invalid transfer"
                            }
                        }
                    ]
                },
                "kind": "dev",
                "methods": {
                    "acceptAdmin()": {
                        "details": "Only callable by the pending admin. Resets the pending admin if succesful."
                    },
                    "allowance(address,address)": {
                        "params": {
                            "_owner": "Address that issued the allowance",
                            "_spender": "Address that received the allowance"
                        },
                        "returns": {
                            "_0": "The allowance in shares for a given spender"
                        }
                    },
                    "approve(address,uint256)": {
                        "details": "An approved account can use transferFrom to transfer funds on behalf of the token owner",
                        "params": {
                            "_spender": "Address that is allowed to spend the tokens",
                            "_value": "The allowed amount in shares, will override previous value"
                        },
                        "returns": {
                            "_0": "True if success"
                        }
                    },
                    "balanceOf(address)": {
                        "params": {
                            "_owner": "Address to be checked"
                        },
                        "returns": {
                            "_0": "The balance of the account in shares"
                        }
                    },
                    "balanceOfUnderlying(address)": {
                        "params": {
                            "_owner": "Address to be checked"
                        },
                        "returns": {
                            "_0": "The underlying balance of the account"
                        }
                    },
                    "decimals()": {
                        "returns": {
                            "_0": "The decimal count"
                        }
                    },
                    "decreaseAllowance(address,uint256)": {
                        "params": {
                            "_spender": "Spender that receives the allowance",
                            "_subtractableValue": "Amount of shares to subtract"
                        },
                        "returns": {
                            "_0": "True if success"
                        }
                    },
                    "depositAndTransfer(address)": {
                        "params": {
                            "_recipient": "Address receiving the minted LsETH"
                        }
                    },
                    "depositToConsensusLayer(uint256)": {
                        "params": {
                            "_maxCount": "The maximum amount of validator keys to fund"
                        }
                    },
                    "getAdmin()": {
                        "returns": {
                            "_0": "The admin address"
                        }
                    },
                    "getAllowlist()": {
                        "returns": {
                            "_0": "The allowlist address"
                        }
                    },
                    "getBalanceToDeposit()": {
                        "returns": {
                            "_0": "The amount of pending ETH"
                        }
                    },
                    "getCLValidatorCount()": {
                        "returns": {
                            "_0": "The CL validator count"
                        }
                    },
                    "getCLValidatorTotalBalance()": {
                        "returns": {
                            "_0": "The CL Validator total balance"
                        }
                    },
                    "getCollector()": {
                        "returns": {
                            "_0": "The collector address"
                        }
                    },
                    "getDepositedValidatorCount()": {
                        "returns": {
                            "_0": "The deposited validator count"
                        }
                    },
                    "getELFeeRecipient()": {
                        "returns": {
                            "_0": "The execution layer fee recipient address"
                        }
                    },
                    "getGlobalFee()": {
                        "returns": {
                            "_0": "The global fee"
                        }
                    },
                    "getOperatorsRegistry()": {
                        "returns": {
                            "_0": "The operators registry address"
                        }
                    },
                    "getOracle()": {
                        "returns": {
                            "_0": "The oracle address"
                        }
                    },
                    "getPendingAdmin()": {
                        "returns": {
                            "_0": "The pending admin address"
                        }
                    },
                    "getWithdrawalCredentials()": {
                        "returns": {
                            "_0": "The withdrawal credentials"
                        }
                    },
                    "increaseAllowance(address,uint256)": {
                        "params": {
                            "_additionalValue": "Amount of shares to add",
                            "_spender": "Spender that receives the allowance"
                        },
                        "returns": {
                            "_0": "True if success"
                        }
                    },
                    "initRiverV1(address,address,bytes32,address,address,address,address,address,uint256)": {
                        "params": {
                            "_allowlistAddress": "Address of the allowlist contract",
                            "_collectorAddress": "Address receiving the the global fee on revenue",
                            "_depositContractAddress": "Address to make Consensus Layer deposits",
                            "_elFeeRecipientAddress": "Address that receives the execution layer fees",
                            "_globalFee": "Amount retained when the ETH balance increases and sent to the collector",
                            "_operatorRegistryAddress": "Address of the operator registry",
                            "_oracleAddress": "The address of the Oracle contract",
                            "_systemAdministratorAddress": "Administrator address",
                            "_withdrawalCredentials": "Credentials to use for every validator deposit"
                        }
                    },
                    "name()": {
                        "returns": {
                            "_0": "The token name"
                        }
                    },
                    "proposeAdmin(address)": {
                        "details": "This security prevents setting an invalid address as an admin. The pendingadmin has to claim its ownership of the contract, and prove that the newaddress is able to perform regular transactions.",
                        "params": {
                            "_newAdmin": "New admin address"
                        }
                    },
                    "setAllowlist(address)": {
                        "params": {
                            "_newAllowlist": "New address for the allowlist"
                        }
                    },
                    "setCollector(address)": {
                        "params": {
                            "_newCollector": "New address for the collector"
                        }
                    },
                    "setConsensusLayerData(uint256,uint256,bytes32,uint256)": {
                        "details": "Can only be called by the oracle addressThe round id is a blackbox value that should only be used to identify unique reportsWhen a report is performed, River computes the amount of fees that can be pulledfrom the execution layer fee recipient. This amount is capped by the max allowedincrease provided during the report.If the total asset balance increases (from the reported total balance and the pulled funds)we then compute the share that must be taken for the collector on the positive delta.The execution layer fees are taken into account here because they are the product ofnode operator's work, just like consensus layer fees, and both should be handled in thesame manner, as a single revenue stream for the users and the collector.",
                        "params": {
                            "_maxIncrease": "The maximum allowed increase in the total balance",
                            "_roundId": "An identifier for this update",
                            "_validatorCount": "The number of active validators on the consensus layer",
                            "_validatorTotalBalance": "The balance sum of the active validators on the consensus layer"
                        }
                    },
                    "setELFeeRecipient(address)": {
                        "params": {
                            "_newELFeeRecipient": "New address for the recipient"
                        }
                    },
                    "setGlobalFee(uint256)": {
                        "params": {
                            "newFee": "New fee value"
                        }
                    },
                    "setOracle(address)": {
                        "params": {
                            "_oracleAddress": "Address of the oracle"
                        }
                    },
                    "sharesFromUnderlyingBalance(uint256)": {
                        "params": {
                            "_underlyingAssetAmount": "Amount of underlying asset to convert"
                        },
                        "returns": {
                            "_0": "The amount of shares worth the underlying asset amopunt"
                        }
                    },
                    "symbol()": {
                        "returns": {
                            "_0": "The token symbol"
                        }
                    },
                    "totalSupply()": {
                        "returns": {
                            "_0": "The total supply in shares"
                        }
                    },
                    "totalUnderlyingSupply()": {
                        "returns": {
                            "_0": "The total underlying asset supply"
                        }
                    },
                    "transfer(address,uint256)": {
                        "params": {
                            "_to": "Address receiving the tokens",
                            "_value": "Amount of shares to be sent"
                        },
                        "returns": {
                            "_0": "True if success"
                        }
                    },
                    "transferFrom(address,address,uint256)": {
                        "params": {
                            "_from": "Address sending the tokens",
                            "_to": "Address receiving the tokens",
                            "_value": "Amount of shares to be sent"
                        },
                        "returns": {
                            "_0": "True if success"
                        }
                    },
                    "underlyingBalanceFromShares(uint256)": {
                        "params": {
                            "_shares": "Amount of shares to convert"
                        },
                        "returns": {
                            "_0": "The underlying asset balance represented by the shares"
                        }
                    }
                },
                "title": "River (v1)",
                "version": 1
            },
            {
                "author": "Kiln",
                "errors": {
                    "AllowanceTooLow(address,address,uint256,uint256)": [
                        {
                            "params": {
                                "_allowance": "Current allowance",
                                "_from": "Account where funds are sent from",
                                "_operator": "Account attempting the transfer",
                                "_value": "Requested transfer value in shares"
                            }
                        }
                    ],
                    "Denied(address)": [
                        {
                            "params": {
                                "account": "The account that was denied"
                            }
                        }
                    ],
                    "InvalidInitialization(uint256,uint256)": [
                        {
                            "params": {
                                "expectedVersion": "The version that was expected",
                                "version": "The version that was attempting to be initialized"
                            }
                        }
                    ],
                    "InvalidValidatorCountReport(uint256,uint256)": [
                        {
                            "params": {
                                "depositedValidatorCount": "The number of deposits performed by the system",
                                "providedValidatorCount": "The received validator count value"
                            }
                        }
                    ],
                    "Unauthorized(address)": [
                        {
                            "params": {
                                "caller": "Address performing the call"
                            }
                        }
                    ],
                    "UnauthorizedTransfer(address,address)": [
                        {
                            "params": {
                                "_from": "Account sending the funds in the invalid transfer",
                                "_to": "Account receiving the funds in the invalid transfer"
                            }
                        }
                    ]
                },
                "kind": "dev",
                "methods": {
                    "acceptAdmin()": {
                        "details": "Only callable by the pending admin. Resets the pending admin if succesful."
                    },
                    "allowance(address,address)": {
                        "params": {
                            "_owner": "Address that issued the allowance",
                            "_spender": "Address that received the allowance"
                        },
                        "returns": {
                            "_0": "The allowance in shares for a given spender"
                        }
                    },
                    "approve(address,uint256)": {
                        "details": "An approved account can use transferFrom to transfer funds on behalf of the token owner",
                        "params": {
                            "_spender": "Address that is allowed to spend the tokens",
                            "_value": "The allowed amount in shares, will override previous value"
                        },
                        "returns": {
                            "_0": "True if success"
                        }
                    },
                    "balanceOf(address)": {
                        "params": {
                            "_owner": "Address to be checked"
                        },
                        "returns": {
                            "_0": "The balance of the account in shares"
                        }
                    },
                    "balanceOfUnderlying(address)": {
                        "params": {
                            "_owner": "Address to be checked"
                        },
                        "returns": {
                            "_0": "The underlying balance of the account"
                        }
                    },
                    "decimals()": {
                        "returns": {
                            "_0": "The decimal count"
                        }
                    },
                    "decreaseAllowance(address,uint256)": {
                        "params": {
                            "_spender": "Spender that receives the allowance",
                            "_subtractableValue": "Amount of shares to subtract"
                        },
                        "returns": {
                            "_0": "True if success"
                        }
                    },
                    "depositAndTransfer(address)": {
                        "params": {
                            "_recipient": "Address receiving the minted LsETH"
                        }
                    },
                    "depositToConsensusLayer(uint256)": {
                        "params": {
                            "_maxCount": "The maximum amount of validator keys to fund"
                        }
                    },
                    "getAdmin()": {
                        "returns": {
                            "_0": "The admin address"
                        }
                    },
                    "getAllowlist()": {
                        "returns": {
                            "_0": "The allowlist address"
                        }
                    },
                    "getBalanceToDeposit()": {
                        "returns": {
                            "_0": "The amount of pending ETH"
                        }
                    },
                    "getCLValidatorCount()": {
                        "returns": {
                            "_0": "The CL validator count"
                        }
                    },
                    "getCLValidatorTotalBalance()": {
                        "returns": {
                            "_0": "The CL Validator total balance"
                        }
                    },
                    "getCollector()": {
                        "returns": {
                            "_0": "The collector address"
                        }
                    },
                    "getDepositedValidatorCount()": {
                        "returns": {
                            "_0": "The deposited validator count"
                        }
                    },
                    "getELFeeRecipient()": {
                        "returns": {
                            "_0": "The execution layer fee recipient address"
                        }
                    },
                    "getGlobalFee()": {
                        "returns": {
                            "_0": "The global fee"
                        }
                    },
                    "getOperatorsRegistry()": {
                        "returns": {
                            "_0": "The operators registry address"
                        }
                    },
                    "getOracle()": {
                        "returns": {
                            "_0": "The oracle address"
                        }
                    },
                    "getPendingAdmin()": {
                        "returns": {
                            "_0": "The pending admin address"
                        }
                    },
                    "getWithdrawalCredentials()": {
                        "returns": {
                            "_0": "The withdrawal credentials"
                        }
                    },
                    "increaseAllowance(address,uint256)": {
                        "params": {
                            "_additionalValue": "Amount of shares to add",
                            "_spender": "Spender that receives the allowance"
                        },
                        "returns": {
                            "_0": "True if success"
                        }
                    },
                    "initRiverV1(address,address,bytes32,address,address,address,address,address,uint256)": {
                        "params": {
                            "_allowlistAddress": "Address of the allowlist contract",
                            "_collectorAddress": "Address receiving the the global fee on revenue",
                            "_depositContractAddress": "Address to make Consensus Layer deposits",
                            "_elFeeRecipientAddress": "Address that receives the execution layer fees",
                            "_globalFee": "Amount retained when the ETH balance increases and sent to the collector",
                            "_operatorRegistryAddress": "Address of the operator registry",
                            "_oracleAddress": "The address of the Oracle contract",
                            "_systemAdministratorAddress": "Administrator address",
                            "_withdrawalCredentials": "Credentials to use for every validator deposit"
                        }
                    },
                    "name()": {
                        "returns": {
                            "_0": "The token name"
                        }
                    },
                    "proposeAdmin(address)": {
                        "details": "This security prevents setting an invalid address as an admin. The pendingadmin has to claim its ownership of the contract, and prove that the newaddress is able to perform regular transactions.",
                        "params": {
                            "_newAdmin": "New admin address"
                        }
                    },
                    "setAllowlist(address)": {
                        "params": {
                            "_newAllowlist": "New address for the allowlist"
                        }
                    },
                    "setCollector(address)": {
                        "params": {
                            "_newCollector": "New address for the collector"
                        }
                    },
                    "setConsensusLayerData(uint256,uint256,bytes32,uint256)": {
                        "details": "Can only be called by the oracle addressThe round id is a blackbox value that should only be used to identify unique reportsWhen a report is performed, River computes the amount of fees that can be pulledfrom the execution layer fee recipient. This amount is capped by the max allowedincrease provided during the report.If the total asset balance increases (from the reported total balance and the pulled funds)we then compute the share that must be taken for the collector on the positive delta.The execution layer fees are taken into account here because they are the product ofnode operator's work, just like consensus layer fees, and both should be handled in thesame manner, as a single revenue stream for the users and the collector.",
                        "params": {
                            "_maxIncrease": "The maximum allowed increase in the total balance",
                            "_roundId": "An identifier for this update",
                            "_validatorCount": "The number of active validators on the consensus layer",
                            "_validatorTotalBalance": "The balance sum of the active validators on the consensus layer"
                        }
                    },
                    "setELFeeRecipient(address)": {
                        "params": {
                            "_newELFeeRecipient": "New address for the recipient"
                        }
                    },
                    "setGlobalFee(uint256)": {
                        "params": {
                            "newFee": "New fee value"
                        }
                    },
                    "setOracle(address)": {
                        "params": {
                            "_oracleAddress": "Address of the oracle"
                        }
                    },
                    "sharesFromUnderlyingBalance(uint256)": {
                        "params": {
                            "_underlyingAssetAmount": "Amount of underlying asset to convert"
                        },
                        "returns": {
                            "_0": "The amount of shares worth the underlying asset amopunt"
                        }
                    },
                    "symbol()": {
                        "returns": {
                            "_0": "The token symbol"
                        }
                    },
                    "totalSupply()": {
                        "returns": {
                            "_0": "The total supply in shares"
                        }
                    },
                    "totalUnderlyingSupply()": {
                        "returns": {
                            "_0": "The total underlying asset supply"
                        }
                    },
                    "transfer(address,uint256)": {
                        "params": {
                            "_to": "Address receiving the tokens",
                            "_value": "Amount of shares to be sent"
                        },
                        "returns": {
                            "_0": "True if success"
                        }
                    },
                    "transferFrom(address,address,uint256)": {
                        "params": {
                            "_from": "Address sending the tokens",
                            "_to": "Address receiving the tokens",
                            "_value": "Amount of shares to be sent"
                        },
                        "returns": {
                            "_0": "True if success"
                        }
                    },
                    "underlyingBalanceFromShares(uint256)": {
                        "params": {
                            "_shares": "Amount of shares to convert"
                        },
                        "returns": {
                            "_0": "The underlying asset balance represented by the shares"
                        }
                    }
                },
                "title": "River (v1)",
                "version": 1
            },
            {
                "author": "Kiln",
                "errors": {
                    "AllowanceTooLow(address,address,uint256,uint256)": [
                        {
                            "params": {
                                "_allowance": "Current allowance",
                                "_from": "Account where funds are sent from",
                                "_operator": "Account attempting the transfer",
                                "_value": "Requested transfer value in shares"
                            }
                        }
                    ],
                    "Denied(address)": [
                        {
                            "params": {
                                "account": "The account that was denied"
                            }
                        }
                    ],
                    "InvalidInitialization(uint256,uint256)": [
                        {
                            "params": {
                                "expectedVersion": "The version that was expected",
                                "version": "The version that was attempting to be initialized"
                            }
                        }
                    ],
                    "InvalidValidatorCountReport(uint256,uint256)": [
                        {
                            "params": {
                                "depositedValidatorCount": "The number of deposits performed by the system",
                                "providedValidatorCount": "The received validator count value"
                            }
                        }
                    ],
                    "Unauthorized(address)": [
                        {
                            "params": {
                                "caller": "Address performing the call"
                            }
                        }
                    ],
                    "UnauthorizedTransfer(address,address)": [
                        {
                            "params": {
                                "_from": "Account sending the funds in the invalid transfer",
                                "_to": "Account receiving the funds in the invalid transfer"
                            }
                        }
                    ]
                },
                "kind": "dev",
                "methods": {
                    "acceptAdmin()": {
                        "details": "Only callable by the pending admin. Resets the pending admin if succesful."
                    },
                    "allowance(address,address)": {
                        "params": {
                            "_owner": "Address that issued the allowance",
                            "_spender": "Address that received the allowance"
                        },
                        "returns": {
                            "_0": "The allowance in shares for a given spender"
                        }
                    },
                    "approve(address,uint256)": {
                        "details": "An approved account can use transferFrom to transfer funds on behalf of the token owner",
                        "params": {
                            "_spender": "Address that is allowed to spend the tokens",
                            "_value": "The allowed amount in shares, will override previous value"
                        },
                        "returns": {
                            "_0": "True if success"
                        }
                    },
                    "balanceOf(address)": {
                        "params": {
                            "_owner": "Address to be checked"
                        },
                        "returns": {
                            "_0": "The balance of the account in shares"
                        }
                    },
                    "balanceOfUnderlying(address)": {
                        "params": {
                            "_owner": "Address to be checked"
                        },
                        "returns": {
                            "_0": "The underlying balance of the account"
                        }
                    },
                    "decimals()": {
                        "returns": {
                            "_0": "The decimal count"
                        }
                    },
                    "decreaseAllowance(address,uint256)": {
                        "params": {
                            "_spender": "Spender that receives the allowance",
                            "_subtractableValue": "Amount of shares to subtract"
                        },
                        "returns": {
                            "_0": "True if success"
                        }
                    },
                    "depositAndTransfer(address)": {
                        "params": {
                            "_recipient": "Address receiving the minted LsETH"
                        }
                    },
                    "depositToConsensusLayer(uint256)": {
                        "params": {
                            "_maxCount": "The maximum amount of validator keys to fund"
                        }
                    },
                    "getAdmin()": {
                        "returns": {
                            "_0": "The admin address"
                        }
                    },
                    "getAllowlist()": {
                        "returns": {
                            "_0": "The allowlist address"
                        }
                    },
                    "getBalanceToDeposit()": {
                        "returns": {
                            "_0": "The amount of pending ETH"
                        }
                    },
                    "getCLValidatorCount()": {
                        "returns": {
                            "_0": "The CL validator count"
                        }
                    },
                    "getCLValidatorTotalBalance()": {
                        "returns": {
                            "_0": "The CL Validator total balance"
                        }
                    },
                    "getCollector()": {
                        "returns": {
                            "_0": "The collector address"
                        }
                    },
                    "getCoverageFund()": {
                        "returns": {
                            "_0": "The coverage fund address"
                        }
                    },
                    "getDepositedValidatorCount()": {
                        "returns": {
                            "_0": "The deposited validator count"
                        }
                    },
                    "getELFeeRecipient()": {
                        "returns": {
                            "_0": "The execution layer fee recipient address"
                        }
                    },
                    "getGlobalFee()": {
                        "returns": {
                            "_0": "The global fee"
                        }
                    },
                    "getMetadataURI()": {
                        "returns": {
                            "_0": "The metadata uri string value"
                        }
                    },
                    "getOperatorsRegistry()": {
                        "returns": {
                            "_0": "The operators registry address"
                        }
                    },
                    "getOracle()": {
                        "returns": {
                            "_0": "The oracle address"
                        }
                    },
                    "getPendingAdmin()": {
                        "returns": {
                            "_0": "The pending admin address"
                        }
                    },
                    "getWithdrawalCredentials()": {
                        "returns": {
                            "_0": "The withdrawal credentials"
                        }
                    },
                    "increaseAllowance(address,uint256)": {
                        "params": {
                            "_additionalValue": "Amount of shares to add",
                            "_spender": "Spender that receives the allowance"
                        },
                        "returns": {
                            "_0": "True if success"
                        }
                    },
                    "initRiverV1(address,address,bytes32,address,address,address,address,address,uint256)": {
                        "params": {
                            "_allowlistAddress": "Address of the allowlist contract",
                            "_collectorAddress": "Address receiving the the global fee on revenue",
                            "_depositContractAddress": "Address to make Consensus Layer deposits",
                            "_elFeeRecipientAddress": "Address that receives the execution layer fees",
                            "_globalFee": "Amount retained when the ETH balance increases and sent to the collector",
                            "_operatorRegistryAddress": "Address of the operator registry",
                            "_oracleAddress": "The address of the Oracle contract",
                            "_systemAdministratorAddress": "Administrator address",
                            "_withdrawalCredentials": "Credentials to use for every validator deposit"
                        }
                    },
                    "name()": {
                        "returns": {
                            "_0": "The token name"
                        }
                    },
                    "proposeAdmin(address)": {
                        "details": "This security prevents setting an invalid address as an admin. The pendingadmin has to claim its ownership of the contract, and prove that the newaddress is able to perform regular transactions.",
                        "params": {
                            "_newAdmin": "New admin address"
                        }
                    },
                    "setAllowlist(address)": {
                        "params": {
                            "_newAllowlist": "New address for the allowlist"
                        }
                    },
                    "setCollector(address)": {
                        "params": {
                            "_newCollector": "New address for the collector"
                        }
                    },
                    "setConsensusLayerData(uint256,uint256,bytes32,uint256)": {
                        "details": "Can only be called by the oracle addressThe round id is a blackbox value that should only be used to identify unique reportsWhen a report is performed, River computes the amount of fees that can be pulledfrom the execution layer fee recipient. This amount is capped by the max allowedincrease provided during the report.If the total asset balance increases (from the reported total balance and the pulled funds)we then compute the share that must be taken for the collector on the positive delta.The execution layer fees are taken into account here because they are the product ofnode operator's work, just like consensus layer fees, and both should be handled in thesame manner, as a single revenue stream for the users and the collector.",
                        "params": {
                            "_maxIncrease": "The maximum allowed increase in the total balance",
                            "_roundId": "An identifier for this update",
                            "_validatorCount": "The number of active validators on the consensus layer",
                            "_validatorTotalBalance": "The balance sum of the active validators on the consensus layer"
                        }
                    },
                    "setCoverageFund(address)": {
                        "params": {
                            "_newCoverageFund": "New address for the fund"
                        }
                    },
                    "setELFeeRecipient(address)": {
                        "params": {
                            "_newELFeeRecipient": "New address for the recipient"
                        }
                    },
                    "setGlobalFee(uint256)": {
                        "params": {
                            "newFee": "New fee value"
                        }
                    },
                    "setMetadataURI(string)": {
                        "params": {
                            "_metadataURI": "The new metadata uri string value"
                        }
                    },
                    "setOracle(address)": {
                        "params": {
                            "_oracleAddress": "Address of the oracle"
                        }
                    },
                    "sharesFromUnderlyingBalance(uint256)": {
                        "params": {
                            "_underlyingAssetAmount": "Amount of underlying asset to convert"
                        },
                        "returns": {
                            "_0": "The amount of shares worth the underlying asset amopunt"
                        }
                    },
                    "symbol()": {
                        "returns": {
                            "_0": "The token symbol"
                        }
                    },
                    "totalSupply()": {
                        "returns": {
                            "_0": "The total supply in shares"
                        }
                    },
                    "totalUnderlyingSupply()": {
                        "returns": {
                            "_0": "The total underlying asset supply"
                        }
                    },
                    "transfer(address,uint256)": {
                        "params": {
                            "_to": "Address receiving the tokens",
                            "_value": "Amount of shares to be sent"
                        },
                        "returns": {
                            "_0": "True if success"
                        }
                    },
                    "transferFrom(address,address,uint256)": {
                        "params": {
                            "_from": "Address sending the tokens",
                            "_to": "Address receiving the tokens",
                            "_value": "Amount of shares to be sent"
                        },
                        "returns": {
                            "_0": "True if success"
                        }
                    },
                    "underlyingBalanceFromShares(uint256)": {
                        "params": {
                            "_shares": "Amount of shares to convert"
                        },
                        "returns": {
                            "_0": "The underlying asset balance represented by the shares"
                        }
                    }
                },
                "title": "River (v1)",
                "version": 1
            },
            {
                "author": "Kiln",
                "errors": {
                    "AllowanceTooLow(address,address,uint256,uint256)": [
                        {
                            "params": {
                                "_allowance": "Current allowance",
                                "_from": "Account where funds are sent from",
                                "_operator": "Account attempting the transfer",
                                "_value": "Requested transfer value in shares"
                            }
                        }
                    ],
                    "Denied(address)": [
                        {
                            "params": {
                                "account": "The account that was denied"
                            }
                        }
                    ],
                    "InvalidDecreasingValidatorsExitedBalance(uint256,uint256)": [
                        {
                            "params": {
                                "currentValidatorsExitedBalance": "The current exited balance",
                                "newValidatorsExitedBalance": "The new exited balance"
                            }
                        }
                    ],
                    "InvalidDecreasingValidatorsSkimmedBalance(uint256,uint256)": [
                        {
                            "params": {
                                "currentValidatorsSkimmedBalance": "The current exited balance",
                                "newValidatorsSkimmedBalance": "The new exited balance"
                            }
                        }
                    ],
                    "InvalidEpoch(uint256)": [
                        {
                            "params": {
                                "epoch": "Invalid epoch"
                            }
                        }
                    ],
                    "InvalidInitialization(uint256,uint256)": [
                        {
                            "params": {
                                "expectedVersion": "The version that was expected",
                                "version": "The version that was attempting to be initialized"
                            }
                        }
                    ],
                    "InvalidPulledClFundsAmount(uint256,uint256)": [
                        {
                            "params": {
                                "received": "The amount that was received",
                                "requested": "The amount that was requested"
                            }
                        }
                    ],
                    "InvalidValidatorCountReport(uint256,uint256,uint256)": [
                        {
                            "params": {
                                "depositedValidatorCount": "The number of deposits performed by the system",
                                "lastReportedValidatorCount": "The last reported validator count",
                                "providedValidatorCount": "The received validator count value"
                            }
                        }
                    ],
                    "TotalValidatorBalanceDecreaseOutOfBound(uint256,uint256,uint256,uint256)": [
                        {
                            "params": {
                                "postTotalEthIncludingExited": "The post-report total balance, including all exited balance",
                                "prevTotalEthIncludingExited": "The previous total balance, including all exited balance",
                                "relativeLowerBound": "The lower bound value that was used",
                                "timeElapsed": "The time in seconds since last report"
                            }
                        }
                    ],
                    "TotalValidatorBalanceIncreaseOutOfBound(uint256,uint256,uint256,uint256)": [
                        {
                            "params": {
                                "annualAprUpperBound": "The upper bound value that was used",
                                "postTotalEthIncludingExited": "The post-report total balance, including all exited balance",
                                "prevTotalEthIncludingExited": "The previous total balance, including all exited balance",
                                "timeElapsed": "The time in seconds since last report"
                            }
                        }
                    ],
                    "Unauthorized(address)": [
                        {
                            "params": {
                                "caller": "Address performing the call"
                            }
                        }
                    ],
                    "UnauthorizedTransfer(address,address)": [
                        {
                            "params": {
                                "_from": "Account sending the funds in the invalid transfer",
                                "_to": "Account receiving the funds in the invalid transfer"
                            }
                        }
                    ]
                },
                "kind": "dev",
                "methods": {
                    "acceptAdmin()": {
                        "details": "Only callable by the pending admin. Resets the pending admin if succesful."
                    },
                    "allowance(address,address)": {
                        "params": {
                            "_owner": "Address that issued the allowance",
                            "_spender": "Address that received the allowance"
                        },
                        "returns": {
                            "_0": "The allowance in shares for a given spender"
                        }
                    },
                    "approve(address,uint256)": {
                        "details": "An approved account can use transferFrom to transfer funds on behalf of the token owner",
                        "params": {
                            "_spender": "Address that is allowed to spend the tokens",
                            "_value": "The allowed amount in shares, will override previous value"
                        },
                        "returns": {
                            "_0": "True if success"
                        }
                    },
                    "balanceOf(address)": {
                        "params": {
                            "_owner": "Address to be checked"
                        },
                        "returns": {
                            "_0": "The balance of the account in shares"
                        }
                    },
                    "balanceOfUnderlying(address)": {
                        "params": {
                            "_owner": "Address to be checked"
                        },
                        "returns": {
                            "_0": "The underlying balance of the account"
                        }
                    },
                    "claimRedeemRequests(uint32[],uint32[])": {
                        "params": {
                            "_redeemRequestIds": "The list of redeem requests to claim",
                            "_withdrawalEventIds": "The list of resolved withdrawal event ids"
                        },
                        "returns": {
                            "claimStatuses": "The operation status results"
                        }
                    },
                    "decimals()": {
                        "returns": {
                            "_0": "The decimal count"
                        }
                    },
                    "decreaseAllowance(address,uint256)": {
                        "params": {
                            "_spender": "Spender that receives the allowance",
                            "_subtractableValue": "Amount of shares to subtract"
                        },
                        "returns": {
                            "_0": "True if success"
                        }
                    },
                    "depositAndTransfer(address)": {
                        "params": {
                            "_recipient": "Address receiving the minted LsETH"
                        }
                    },
                    "depositToConsensusLayer(uint256)": {
                        "params": {
                            "_maxCount": "The maximum amount of validator keys to fund"
                        }
                    },
                    "getAdmin()": {
                        "returns": {
                            "_0": "The admin address"
                        }
                    },
                    "getAllowlist()": {
                        "returns": {
                            "_0": "The allowlist address"
                        }
                    },
                    "getBalanceToDeposit()": {
                        "returns": {
                            "_0": "The amount of ETH not yet committed for deposit"
                        }
                    },
                    "getBalanceToRedeem()": {
                        "returns": {
                            "_0": "The current balance to redeem"
                        }
                    },
                    "getCLSpec()": {
                        "returns": {
                            "_0": "The Consensus Layer Specification"
                        }
                    },
                    "getCLValidatorCount()": {
                        "returns": {
                            "_0": "The CL validator count"
                        }
                    },
                    "getCLValidatorTotalBalance()": {
                        "returns": {
                            "_0": "The CL Validator total balance"
                        }
                    },
                    "getCollector()": {
                        "returns": {
                            "_0": "The collector address"
                        }
                    },
                    "getCommittedBalance()": {
                        "returns": {
                            "_0": "The amount of ETH committed for deposit"
                        }
                    },
                    "getCoverageFund()": {
                        "returns": {
                            "_0": "The coverage fund address"
                        }
                    },
                    "getCurrentEpochId()": {
                        "returns": {
                            "_0": "The current epoch id"
                        }
                    },
                    "getCurrentFrame()": {
                        "returns": {
                            "_endTime": "The timestamp of the end of the frame in seconds",
                            "_startEpochId": "The epoch at the beginning of the frame",
                            "_startTime": "The timestamp of the beginning of the frame in seconds"
                        }
                    },
                    "getDailyCommittableLimits()": {
                        "returns": {
                            "_0": "The daily committable limits structure"
                        }
                    },
                    "getDepositedValidatorCount()": {
                        "returns": {
                            "_0": "The deposited validator count"
                        }
                    },
                    "getELFeeRecipient()": {
                        "returns": {
                            "_0": "The execution layer fee recipient address"
                        }
                    },
                    "getExpectedEpochId()": {
                        "returns": {
                            "_0": "The current expected epoch id"
                        }
                    },
                    "getFrameFirstEpochId(uint256)": {
                        "params": {
                            "_epochId": "Epoch id used to get the frame"
                        },
                        "returns": {
                            "_0": "The first epoch id of the frame containing the given epoch id"
                        }
                    },
                    "getGlobalFee()": {
                        "returns": {
                            "_0": "The global fee"
                        }
                    },
                    "getLastCompletedEpochId()": {
                        "returns": {
                            "_0": "The last completed epoch id"
                        }
                    },
                    "getLastConsensusLayerReport()": {
                        "returns": {
                            "_0": "The stored consensus layer report"
                        }
                    },
                    "getMetadataURI()": {
                        "returns": {
                            "_0": "The metadata uri string value"
                        }
                    },
                    "getOperatorsRegistry()": {
                        "returns": {
                            "_0": "The operators registry address"
                        }
                    },
                    "getOracle()": {
                        "returns": {
                            "_0": "The oracle address"
                        }
                    },
                    "getPendingAdmin()": {
                        "returns": {
                            "_0": "The pending admin address"
                        }
                    },
                    "getRedeemManager()": {
                        "returns": {
                            "_0": "The redeem manager address"
                        }
                    },
                    "getReportBounds()": {
                        "returns": {
                            "_0": "The report bounds"
                        }
                    },
                    "getTime()": {
                        "returns": {
                            "_0": "The current timestamp from the EVM context"
                        }
                    },
                    "getWithdrawalCredentials()": {
                        "returns": {
                            "_0": "The withdrawal credentials"
                        }
                    },
                    "increaseAllowance(address,uint256)": {
                        "params": {
                            "_additionalValue": "Amount of shares to add",
                            "_spender": "Spender that receives the allowance"
                        },
                        "returns": {
                            "_0": "True if success"
                        }
                    },
                    "initRiverV1(address,address,bytes32,address,address,address,address,address,uint256)": {
                        "params": {
                            "_allowlistAddress": "Address of the allowlist contract",
                            "_collectorAddress": "Address receiving the the global fee on revenue",
                            "_depositContractAddress": "Address to make Consensus Layer deposits",
                            "_elFeeRecipientAddress": "Address that receives the execution layer fees",
                            "_globalFee": "Amount retained when the ETH balance increases and sent to the collector",
                            "_operatorRegistryAddress": "Address of the operator registry",
                            "_oracleAddress": "The address of the Oracle contract",
                            "_systemAdministratorAddress": "Administrator address",
                            "_withdrawalCredentials": "Credentials to use for every validator deposit"
                        }
                    },
                    "initRiverV1_1(address,uint64,uint64,uint64,uint64,uint64,uint256,uint256,uint128,uint128)": {
                        "params": {
                            "_annualAprUpperBound": "The reporting upper bound",
                            "_epochsPerFrame": "The amounts of epochs in a frame",
                            "_epochsToAssumedFinality": "The number of epochs before an epoch is considered final on-chain",
                            "_genesisTime": "The genesis timestamp",
                            "_maxDailyNetCommittableAmount_": "The net daily committable limit",
                            "_maxDailyRelativeCommittableAmount_": "The relative daily committable limit",
                            "_redeemManager": "The redeem manager address",
                            "_relativeLowerBound": "The reporting lower bound",
                            "_secondsPerSlot": "The seconds inside a slot",
                            "_slotsPerEpoch": "The slots inside an epoch"
                        }
                    },
                    "isValidEpoch(uint256)": {
                        "params": {
                            "epoch": "The epoch to lookup"
                        },
                        "returns": {
                            "_0": "True if valid"
                        }
                    },
                    "name()": {
                        "returns": {
                            "_0": "The token name"
                        }
                    },
                    "proposeAdmin(address)": {
                        "details": "This security prevents setting an invalid address as an admin. The pendingadmin has to claim its ownership of the contract, and prove that the newaddress is able to perform regular transactions.",
                        "params": {
                            "_newAdmin": "New admin address"
                        }
                    },
                    "requestRedeem(uint256,address)": {
                        "params": {
                            "_lsETHAmount": "The amount of LsETH to redeem",
                            "_recipient": "The address that will own the redeem request"
                        },
                        "returns": {
                            "_redeemRequestId": "The ID of the newly created redeem request"
                        }
                    },
                    "resolveRedeemRequests(uint32[])": {
                        "params": {
                            "_redeemRequestIds": "The list of redeem requests to resolve"
                        },
                        "returns": {
                            "withdrawalEventIds": "The list of matching withdrawal events, or error codes"
                        }
                    },
                    "setAllowlist(address)": {
                        "params": {
                            "_newAllowlist": "New address for the allowlist"
                        }
                    },
                    "setCLSpec((uint64,uint64,uint64,uint64,uint64))": {
                        "params": {
                            "_newValue": "The new consensus layer spec value"
                        }
                    },
                    "setCollector(address)": {
                        "params": {
                            "_newCollector": "New address for the collector"
                        }
                    },
                    "setConsensusLayerData((uint256,uint256,uint256,uint256,uint256,uint32,uint32[],bool,bool))": {
                        "params": {
                            "_report": "The consensus layer report structure"
                        }
                    },
                    "setCoverageFund(address)": {
                        "params": {
                            "_newCoverageFund": "New address for the fund"
                        }
                    },
                    "setDailyCommittableLimits((uint128,uint128))": {
                        "params": {
                            "_dcl": "The Daily Committable Limits structure"
                        }
                    },
                    "setELFeeRecipient(address)": {
                        "params": {
                            "_newELFeeRecipient": "New address for the recipient"
                        }
                    },
                    "setGlobalFee(uint256)": {
                        "params": {
                            "_newFee": "New fee value"
                        }
                    },
                    "setMetadataURI(string)": {
                        "params": {
                            "_metadataURI": "The new metadata uri string value"
                        }
                    },
                    "setOracle(address)": {
                        "params": {
                            "_oracleAddress": "Address of the oracle"
                        }
                    },
                    "setReportBounds((uint256,uint256))": {
                        "params": {
                            "_newValue": "The new report bounds value"
                        }
                    },
                    "sharesFromUnderlyingBalance(uint256)": {
                        "params": {
                            "_underlyingAssetAmount": "Amount of underlying asset to convert"
                        },
                        "returns": {
                            "_0": "The amount of shares worth the underlying asset amopunt"
                        }
                    },
                    "symbol()": {
                        "returns": {
                            "_0": "The token symbol"
                        }
                    },
                    "totalSupply()": {
                        "returns": {
                            "_0": "The total supply in shares"
                        }
                    },
                    "totalUnderlyingSupply()": {
                        "returns": {
                            "_0": "The total underlying asset supply"
                        }
                    },
                    "transfer(address,uint256)": {
                        "params": {
                            "_to": "Address receiving the tokens",
                            "_value": "Amount of shares to be sent"
                        },
                        "returns": {
                            "_0": "True if success"
                        }
                    },
                    "transferFrom(address,address,uint256)": {
                        "params": {
                            "_from": "Address sending the tokens",
                            "_to": "Address receiving the tokens",
                            "_value": "Amount of shares to be sent"
                        },
                        "returns": {
                            "_0": "True if success"
                        }
                    },
                    "underlyingBalanceFromShares(uint256)": {
                        "params": {
                            "_shares": "Amount of shares to convert"
                        },
                        "returns": {
                            "_0": "The underlying asset balance represented by the shares"
                        }
                    }
                },
                "title": "River (v1)",
                "version": 1
            },
            {
                "author": "Kiln",
                "errors": {
                    "AllowanceTooLow(address,address,uint256,uint256)": [
                        {
                            "params": {
                                "_allowance": "Current allowance",
                                "_from": "Account where funds are sent from",
                                "_operator": "Account attempting the transfer",
                                "_value": "Requested transfer value in shares"
                            }
                        }
                    ],
                    "Denied(address)": [
                        {
                            "params": {
                                "account": "The account that was denied"
                            }
                        }
                    ],
                    "InvalidDecreasingValidatorsExitedBalance(uint256,uint256)": [
                        {
                            "params": {
                                "currentValidatorsExitedBalance": "The current exited balance",
                                "newValidatorsExitedBalance": "The new exited balance"
                            }
                        }
                    ],
                    "InvalidDecreasingValidatorsSkimmedBalance(uint256,uint256)": [
                        {
                            "params": {
                                "currentValidatorsSkimmedBalance": "The current exited balance",
                                "newValidatorsSkimmedBalance": "The new exited balance"
                            }
                        }
                    ],
                    "InvalidEpoch(uint256)": [
                        {
                            "params": {
                                "epoch": "Invalid epoch"
                            }
                        }
                    ],
                    "InvalidInitialization(uint256,uint256)": [
                        {
                            "params": {
                                "expectedVersion": "The version that was expected",
                                "version": "The version that was attempting to be initialized"
                            }
                        }
                    ],
                    "InvalidPulledClFundsAmount(uint256,uint256)": [
                        {
                            "params": {
                                "received": "The amount that was received",
                                "requested": "The amount that was requested"
                            }
                        }
                    ],
                    "InvalidValidatorCountReport(uint256,uint256,uint256)": [
                        {
                            "params": {
                                "depositedValidatorCount": "The number of deposits performed by the system",
                                "lastReportedValidatorCount": "The last reported validator count",
                                "providedValidatorCount": "The received validator count value"
                            }
                        }
                    ],
                    "TotalValidatorBalanceDecreaseOutOfBound(uint256,uint256,uint256,uint256)": [
                        {
                            "params": {
                                "postTotalEthIncludingExited": "The post-report total balance, including all exited balance",
                                "prevTotalEthIncludingExited": "The previous total balance, including all exited balance",
                                "relativeLowerBound": "The lower bound value that was used",
                                "timeElapsed": "The time in seconds since last report"
                            }
                        }
                    ],
                    "TotalValidatorBalanceIncreaseOutOfBound(uint256,uint256,uint256,uint256)": [
                        {
                            "params": {
                                "annualAprUpperBound": "The upper bound value that was used",
                                "postTotalEthIncludingExited": "The post-report total balance, including all exited balance",
                                "prevTotalEthIncludingExited": "The previous total balance, including all exited balance",
                                "timeElapsed": "The time in seconds since last report"
                            }
                        }
                    ],
                    "Unauthorized(address)": [
                        {
                            "params": {
                                "caller": "Address performing the call"
                            }
                        }
                    ],
                    "UnauthorizedTransfer(address,address)": [
                        {
                            "params": {
                                "_from": "Account sending the funds in the invalid transfer",
                                "_to": "Account receiving the funds in the invalid transfer"
                            }
                        }
                    ]
                },
                "kind": "dev",
                "methods": {
                    "acceptAdmin()": {
                        "details": "Only callable by the pending admin. Resets the pending admin if succesful."
                    },
                    "allowance(address,address)": {
                        "params": {
                            "_owner": "Address that issued the allowance",
                            "_spender": "Address that received the allowance"
                        },
                        "returns": {
                            "_0": "The allowance in shares for a given spender"
                        }
                    },
                    "approve(address,uint256)": {
                        "details": "An approved account can use transferFrom to transfer funds on behalf of the token owner",
                        "params": {
                            "_spender": "Address that is allowed to spend the tokens",
                            "_value": "The allowed amount in shares, will override previous value"
                        },
                        "returns": {
                            "_0": "True if success"
                        }
                    },
                    "balanceOf(address)": {
                        "params": {
                            "_owner": "Address to be checked"
                        },
                        "returns": {
                            "_0": "The balance of the account in shares"
                        }
                    },
                    "balanceOfUnderlying(address)": {
                        "params": {
                            "_owner": "Address to be checked"
                        },
                        "returns": {
                            "_0": "The underlying balance of the account"
                        }
                    },
                    "claimRedeemRequests(uint32[],uint32[])": {
                        "params": {
                            "_redeemRequestIds": "The list of redeem requests to claim",
                            "_withdrawalEventIds": "The list of resolved withdrawal event ids"
                        },
                        "returns": {
                            "claimStatuses": "The operation status results"
                        }
                    },
                    "decimals()": {
                        "returns": {
                            "_0": "The decimal count"
                        }
                    },
                    "decreaseAllowance(address,uint256)": {
                        "params": {
                            "_spender": "Spender that receives the allowance",
                            "_subtractableValue": "Amount of shares to subtract"
                        },
                        "returns": {
                            "_0": "True if success"
                        }
                    },
                    "depositAndTransfer(address)": {
                        "params": {
                            "_recipient": "Address receiving the minted LsETH"
                        }
                    },
                    "depositToConsensusLayer(uint256)": {
                        "params": {
                            "_maxCount": "The maximum amount of validator keys to fund"
                        }
                    },
                    "getAdmin()": {
                        "returns": {
                            "_0": "The admin address"
                        }
                    },
                    "getAllowlist()": {
                        "returns": {
                            "_0": "The allowlist address"
                        }
                    },
                    "getBalanceToDeposit()": {
                        "returns": {
                            "_0": "The amount of ETH not yet committed for deposit"
                        }
                    },
                    "getBalanceToRedeem()": {
                        "returns": {
                            "_0": "The current balance to redeem"
                        }
                    },
                    "getCLSpec()": {
                        "returns": {
                            "_0": "The Consensus Layer Specification"
                        }
                    },
                    "getCLValidatorCount()": {
                        "returns": {
                            "_0": "The CL validator count"
                        }
                    },
                    "getCLValidatorTotalBalance()": {
                        "returns": {
                            "_0": "The CL Validator total balance"
                        }
                    },
                    "getCollector()": {
                        "returns": {
                            "_0": "The collector address"
                        }
                    },
                    "getCommittedBalance()": {
                        "returns": {
                            "_0": "The amount of ETH committed for deposit"
                        }
                    },
                    "getCoverageFund()": {
                        "returns": {
                            "_0": "The coverage fund address"
                        }
                    },
                    "getCurrentEpochId()": {
                        "returns": {
                            "_0": "The current epoch id"
                        }
                    },
                    "getCurrentFrame()": {
                        "returns": {
                            "_endTime": "The timestamp of the end of the frame in seconds",
                            "_startEpochId": "The epoch at the beginning of the frame",
                            "_startTime": "The timestamp of the beginning of the frame in seconds"
                        }
                    },
                    "getDailyCommittableLimits()": {
                        "returns": {
                            "_0": "The daily committable limits structure"
                        }
                    },
                    "getDepositedValidatorCount()": {
                        "returns": {
                            "_0": "The deposited validator count"
                        }
                    },
                    "getELFeeRecipient()": {
                        "returns": {
                            "_0": "The execution layer fee recipient address"
                        }
                    },
                    "getExpectedEpochId()": {
                        "returns": {
                            "_0": "The current expected epoch id"
                        }
                    },
                    "getFrameFirstEpochId(uint256)": {
                        "params": {
                            "_epochId": "Epoch id used to get the frame"
                        },
                        "returns": {
                            "_0": "The first epoch id of the frame containing the given epoch id"
                        }
                    },
                    "getGlobalFee()": {
                        "returns": {
                            "_0": "The global fee"
                        }
                    },
                    "getLastCompletedEpochId()": {
                        "returns": {
                            "_0": "The last completed epoch id"
                        }
                    },
                    "getLastConsensusLayerReport()": {
                        "returns": {
                            "_0": "The stored consensus layer report"
                        }
                    },
                    "getMetadataURI()": {
                        "returns": {
                            "_0": "The metadata uri string value"
                        }
                    },
                    "getOperatorsRegistry()": {
                        "returns": {
                            "_0": "The operators registry address"
                        }
                    },
                    "getOracle()": {
                        "returns": {
                            "_0": "The oracle address"
                        }
                    },
                    "getPendingAdmin()": {
                        "returns": {
                            "_0": "The pending admin address"
                        }
                    },
                    "getRedeemManager()": {
                        "returns": {
                            "_0": "The redeem manager address"
                        }
                    },
                    "getReportBounds()": {
                        "returns": {
                            "_0": "The report bounds"
                        }
                    },
                    "getTime()": {
                        "returns": {
                            "_0": "The current timestamp from the EVM context"
                        }
                    },
                    "getWithdrawalCredentials()": {
                        "returns": {
                            "_0": "The withdrawal credentials"
                        }
                    },
                    "increaseAllowance(address,uint256)": {
                        "params": {
                            "_additionalValue": "Amount of shares to add",
                            "_spender": "Spender that receives the allowance"
                        },
                        "returns": {
                            "_0": "True if success"
                        }
                    },
                    "initRiverV1(address,address,bytes32,address,address,address,address,address,uint256)": {
                        "params": {
                            "_allowlistAddress": "Address of the allowlist contract",
                            "_collectorAddress": "Address receiving the the global fee on revenue",
                            "_depositContractAddress": "Address to make Consensus Layer deposits",
                            "_elFeeRecipientAddress": "Address that receives the execution layer fees",
                            "_globalFee": "Amount retained when the ETH balance increases and sent to the collector",
                            "_operatorRegistryAddress": "Address of the operator registry",
                            "_oracleAddress": "The address of the Oracle contract",
                            "_systemAdministratorAddress": "Administrator address",
                            "_withdrawalCredentials": "Credentials to use for every validator deposit"
                        }
                    },
                    "initRiverV1_1(address,uint64,uint64,uint64,uint64,uint64,uint256,uint256,uint128,uint128)": {
                        "params": {
                            "_annualAprUpperBound": "The reporting upper bound",
                            "_epochsPerFrame": "The amounts of epochs in a frame",
                            "_epochsToAssumedFinality": "The number of epochs before an epoch is considered final on-chain",
                            "_genesisTime": "The genesis timestamp",
                            "_maxDailyNetCommittableAmount_": "The net daily committable limit",
                            "_maxDailyRelativeCommittableAmount_": "The relative daily committable limit",
                            "_redeemManager": "The redeem manager address",
                            "_relativeLowerBound": "The reporting lower bound",
                            "_secondsPerSlot": "The seconds inside a slot",
                            "_slotsPerEpoch": "The slots inside an epoch"
                        }
                    },
                    "isValidEpoch(uint256)": {
                        "params": {
                            "epoch": "The epoch to lookup"
                        },
                        "returns": {
                            "_0": "True if valid"
                        }
                    },
                    "name()": {
                        "returns": {
                            "_0": "The token name"
                        }
                    },
                    "proposeAdmin(address)": {
                        "details": "This security prevents setting an invalid address as an admin. The pendingadmin has to claim its ownership of the contract, and prove that the newaddress is able to perform regular transactions.",
                        "params": {
                            "_newAdmin": "New admin address"
                        }
                    },
                    "requestRedeem(uint256,address)": {
                        "params": {
                            "_lsETHAmount": "The amount of LsETH to redeem",
                            "_recipient": "The address that will own the redeem request"
                        },
                        "returns": {
                            "_redeemRequestId": "The ID of the newly created redeem request"
                        }
                    },
                    "resolveRedeemRequests(uint32[])": {
                        "params": {
                            "_redeemRequestIds": "The list of redeem requests to resolve"
                        },
                        "returns": {
                            "withdrawalEventIds": "The list of matching withdrawal events, or error codes"
                        }
                    },
                    "setAllowlist(address)": {
                        "params": {
                            "_newAllowlist": "New address for the allowlist"
                        }
                    },
                    "setCLSpec((uint64,uint64,uint64,uint64,uint64))": {
                        "params": {
                            "_newValue": "The new consensus layer spec value"
                        }
                    },
                    "setCollector(address)": {
                        "params": {
                            "_newCollector": "New address for the collector"
                        }
                    },
                    "setConsensusLayerData((uint256,uint256,uint256,uint256,uint256,uint32,uint32[],bool,bool))": {
                        "params": {
                            "_report": "The consensus layer report structure"
                        }
                    },
                    "setCoverageFund(address)": {
                        "params": {
                            "_newCoverageFund": "New address for the fund"
                        }
                    },
                    "setDailyCommittableLimits((uint128,uint128))": {
                        "params": {
                            "_dcl": "The Daily Committable Limits structure"
                        }
                    },
                    "setELFeeRecipient(address)": {
                        "params": {
                            "_newELFeeRecipient": "New address for the recipient"
                        }
                    },
                    "setGlobalFee(uint256)": {
                        "params": {
                            "_newFee": "New fee value"
                        }
                    },
                    "setMetadataURI(string)": {
                        "params": {
                            "_metadataURI": "The new metadata uri string value"
                        }
                    },
                    "setOracle(address)": {
                        "params": {
                            "_oracleAddress": "Address of the oracle"
                        }
                    },
                    "setReportBounds((uint256,uint256))": {
                        "params": {
                            "_newValue": "The new report bounds value"
                        }
                    },
                    "sharesFromUnderlyingBalance(uint256)": {
                        "params": {
                            "_underlyingAssetAmount": "Amount of underlying asset to convert"
                        },
                        "returns": {
                            "_0": "The amount of shares worth the underlying asset amopunt"
                        }
                    },
                    "symbol()": {
                        "returns": {
                            "_0": "The token symbol"
                        }
                    },
                    "totalSupply()": {
                        "returns": {
                            "_0": "The total supply in shares"
                        }
                    },
                    "totalUnderlyingSupply()": {
                        "returns": {
                            "_0": "The total underlying asset supply"
                        }
                    },
                    "transfer(address,uint256)": {
                        "params": {
                            "_to": "Address receiving the tokens",
                            "_value": "Amount of shares to be sent"
                        },
                        "returns": {
                            "_0": "True if success"
                        }
                    },
                    "transferFrom(address,address,uint256)": {
                        "params": {
                            "_from": "Address sending the tokens",
                            "_to": "Address receiving the tokens",
                            "_value": "Amount of shares to be sent"
                        },
                        "returns": {
                            "_0": "True if success"
                        }
                    },
                    "underlyingBalanceFromShares(uint256)": {
                        "params": {
                            "_shares": "Amount of shares to convert"
                        },
                        "returns": {
                            "_0": "The underlying asset balance represented by the shares"
                        }
                    }
                },
                "title": "River (v1)",
                "version": 1
            }
        ],
        "userdoc": [
            {
                "errors": {
                    "AllowanceTooLow(address,address,uint256,uint256)": [
                        {
                            "notice": "Allowance too low to perform operation"
                        }
                    ],
                    "BalanceTooLow()": [
                        {
                            "notice": "Balance too low to perform operation"
                        }
                    ],
                    "Denied(address)": [
                        {
                            "notice": "The access was denied"
                        }
                    ],
                    "EmptyDeposit()": [
                        {
                            "notice": "And empty deposit attempt was made"
                        }
                    ],
                    "ErrorOnDeposit()": [
                        {
                            "notice": "An error occured during the deposit"
                        }
                    ],
                    "InconsistentPublicKeys()": [
                        {
                            "notice": "The length of the BLS Public key is invalid during deposit"
                        }
                    ],
                    "InconsistentSignatures()": [
                        {
                            "notice": "The length of the BLS Signature is invalid during deposit"
                        }
                    ],
                    "InvalidArgument()": [
                        {
                            "notice": "The argument was invalid"
                        }
                    ],
                    "InvalidCall()": [
                        {
                            "notice": "The call was invalid"
                        }
                    ],
                    "InvalidFee()": [
                        {
                            "notice": "The fee is invalid"
                        }
                    ],
                    "InvalidInitialization(uint256,uint256)": [
                        {
                            "notice": "An error occured during the initialization"
                        }
                    ],
                    "InvalidPublicKeyCount()": [
                        {
                            "notice": "The received count of public keys to deposit is invalid"
                        }
                    ],
                    "InvalidSignatureCount()": [
                        {
                            "notice": "The received count of signatures to deposit is invalid"
                        }
                    ],
                    "InvalidValidatorCountReport(uint256,uint256)": [
                        {
                            "notice": "The reported validator count is invalid"
                        }
                    ],
                    "InvalidWithdrawalCredentials()": [
                        {
                            "notice": "The withdrawal credentials value is null"
                        }
                    ],
                    "InvalidZeroAddress()": [
                        {
                            "notice": "The address is zero"
                        }
                    ],
                    "NoAvailableValidatorKeys()": [
                        {
                            "notice": "The internal key retrieval returned no keys"
                        }
                    ],
                    "NotEnoughFunds()": [
                        {
                            "notice": "Not enough funds to deposit one validator"
                        }
                    ],
                    "NullTransfer()": [
                        {
                            "notice": "Invalid empty transfer"
                        }
                    ],
                    "SliceOutOfBounds()": [
                        {
                            "notice": "The slice is outside of the initial bytes bounds"
                        }
                    ],
                    "SliceOverflow()": [
                        {
                            "notice": "The length overflows an uint"
                        }
                    ],
                    "Unauthorized(address)": [
                        {
                            "notice": "The operator is unauthorized for the caller"
                        }
                    ],
                    "UnauthorizedTransfer(address,address)": [
                        {
                            "notice": "Invalid transfer recipients"
                        }
                    ],
                    "ZeroMintedShares()": [
                        {
                            "notice": "The computed amount of shares to mint is 0"
                        }
                    ]
                },
                "events": {
                    "ConsensusLayerDataUpdate(uint256,uint256,bytes32)": {
                        "notice": "The consensus layer data provided by the oracle has been updated"
                    },
                    "FundedValidatorKey(bytes)": {
                        "notice": "A validator key got funded on the deposit contract"
                    },
                    "Initialize(uint256,bytes)": {
                        "notice": "Emitted when the contract is properly initialized"
                    },
                    "PulledELFees(uint256)": {
                        "notice": "Funds have been pulled from the Execution Layer Fee Recipient"
                    },
                    "RewardsEarned(address,uint256,uint256,uint256,uint256)": {
                        "notice": "The system underlying supply increased. This is a snapshot of the balances for accounting purposes"
                    },
                    "SetAdmin(address)": {
                        "notice": "The admin address changed"
                    },
                    "SetAllowlist(address)": {
                        "notice": "The stored Allowlist has been changed"
                    },
                    "SetCollector(address)": {
                        "notice": "The stored Collector has been changed"
                    },
                    "SetDepositContractAddress(address)": {
                        "notice": "The stored deposit contract address changed"
                    },
                    "SetELFeeRecipient(address)": {
                        "notice": "The stored Execution Layer Fee Recipient has been changed"
                    },
                    "SetGlobalFee(uint256)": {
                        "notice": "The stored Global Fee has been changed"
                    },
                    "SetOperatorsRegistry(address)": {
                        "notice": "The stored Operators Registry has been changed"
                    },
                    "SetOracle(address)": {
                        "notice": "The stored oracle address changed"
                    },
                    "SetPendingAdmin(address)": {
                        "notice": "The pending admin address changed"
                    },
                    "SetWithdrawalCredentials(bytes32)": {
                        "notice": "The stored withdrawal credentials changed"
                    },
                    "UserDeposit(address,address,uint256)": {
                        "notice": "User deposited ETH in the system"
                    }
                },
                "kind": "user",
                "methods": {
                    "DEPOSIT_SIZE()": {
                        "notice": "Size of a deposit in ETH"
                    },
                    "PUBLIC_KEY_LENGTH()": {
                        "notice": "Size of a BLS Public key in bytes"
                    },
                    "SIGNATURE_LENGTH()": {
                        "notice": "Size of a BLS Signature in bytes"
                    },
                    "acceptAdmin()": {
                        "notice": "Accept the transfer of ownership"
                    },
                    "allowance(address,address)": {
                        "notice": "Retrieve the allowance value for a spender"
                    },
                    "approve(address,uint256)": {
                        "notice": "Approves an account for future spendings"
                    },
                    "balanceOf(address)": {
                        "notice": "Retrieve the balance of an account"
                    },
                    "balanceOfUnderlying(address)": {
                        "notice": "Retrieve the underlying asset balance of an account"
                    },
                    "decimals()": {
                        "notice": "Retrieve the decimal count"
                    },
                    "decreaseAllowance(address,uint256)": {
                        "notice": "Decrease allowance to another account"
                    },
                    "deposit()": {
                        "notice": "Explicit deposit method to mint on msg.sender"
                    },
                    "depositAndTransfer(address)": {
                        "notice": "Explicit deposit method to mint on msg.sender and transfer to _recipient"
                    },
                    "depositToConsensusLayer(uint256)": {
                        "notice": "Deposits current balance to the Consensus Layer by batches of 32 ETH"
                    },
                    "getAdmin()": {
                        "notice": "Retrieves the current admin address"
                    },
                    "getAllowlist()": {
                        "notice": "Retrieve the allowlist address"
                    },
                    "getBalanceToDeposit()": {
                        "notice": "Returns the amount of pending ETH"
                    },
                    "getCLValidatorCount()": {
                        "notice": "Get CL validator count (the amount of validator reported by the oracles)"
                    },
                    "getCLValidatorTotalBalance()": {
                        "notice": "Get CL validator total balance"
                    },
                    "getCollector()": {
                        "notice": "Retrieve the collector address"
                    },
                    "getDepositedValidatorCount()": {
                        "notice": "Get the deposited validator count (the count of deposits made by the contract)"
                    },
                    "getELFeeRecipient()": {
                        "notice": "Retrieve the execution layer fee recipient"
                    },
                    "getGlobalFee()": {
                        "notice": "Get the current global fee"
                    },
                    "getOperatorsRegistry()": {
                        "notice": "Retrieve the operators registry"
                    },
                    "getOracle()": {
                        "notice": "Get oracle address"
                    },
                    "getPendingAdmin()": {
                        "notice": "Retrieve the current pending admin address"
                    },
                    "getWithdrawalCredentials()": {
                        "notice": "Retrieve the withdrawal credentials"
                    },
                    "increaseAllowance(address,uint256)": {
                        "notice": "Increase allowance to another account"
                    },
                    "initRiverV1(address,address,bytes32,address,address,address,address,address,uint256)": {
                        "notice": "Initializes the River system"
                    },
                    "name()": {
                        "notice": "Retrieve the token name"
                    },
                    "proposeAdmin(address)": {
                        "notice": "Proposes a new address as admin"
                    },
                    "sendELFees()": {
                        "notice": "Input for execution layer fee earnings"
                    },
                    "setAllowlist(address)": {
                        "notice": "Changes the allowlist address"
                    },
                    "setCollector(address)": {
                        "notice": "Changes the collector address"
                    },
                    "setConsensusLayerData(uint256,uint256,bytes32,uint256)": {
                        "notice": "Sets the validator count and validator total balance sum reported by the oracle"
                    },
                    "setELFeeRecipient(address)": {
                        "notice": "Changes the execution layer fee recipient"
                    },
                    "setGlobalFee(uint256)": {
                        "notice": "Changes the global fee parameter"
                    },
                    "setOracle(address)": {
                        "notice": "Set the oracle address"
                    },
                    "sharesFromUnderlyingBalance(uint256)": {
                        "notice": "Retrieve the shares count from an underlying asset amount"
                    },
                    "symbol()": {
                        "notice": "Retrieve the token symbol"
                    },
                    "totalSupply()": {
                        "notice": "Retrieve the total token supply"
                    },
                    "totalUnderlyingSupply()": {
                        "notice": "Retrieve the total underlying asset supply"
                    },
                    "transfer(address,uint256)": {
                        "notice": "Performs a transfer from the message sender to the provided account"
                    },
                    "transferFrom(address,address,uint256)": {
                        "notice": "Performs a transfer between two recipients"
                    },
                    "underlyingBalanceFromShares(uint256)": {
                        "notice": "Retrieve the underlying asset balance from an amount of shares"
                    }
                },
                "notice": "This contract merges all the manager contracts and implements all the virtual methods stitching all components together@notice    +---------------------------------------------------------------------+|                                                                     ||                           Consensus Layer                           ||                                                                     || +-------------------+  +-------------------+  +-------------------+ || |                   |  |                   |  |                   | || |  EL Fee Recipient |  |      Oracle       |  |  Deposit Contract | || |                   |  |                   |  |                   | || +---------|---------+  +---------|---------+  +---------|---------+ |+---------------------------------------------------------------------+|         7            |            5         |+-----------------|    |    |-----------------+|    |6   ||    |    |+---------+          +----|----|----|----+            +---------+|         |          |                   |     2      |         ||Operator |          |       River       --------------  User   ||         |          |                   |            |         |+----|----+          +----|---------|----+            +---------+|                    |         ||             4      |         |       3|1     +-------------|         |--------------+|      |                                      ||      |                                      |+------|------|------------+           +-------------|------------+|                          |           |                          ||    Operators Registry    |           |         Allowlist        ||                          |           |                          |+--------------------------+           +--------------------------+@notice      1. Operators are adding BLS Public Keys of validators running in theirinfrastructure.2. User deposit ETH to the system and get shares minted in exchange3. Upon deposit, the system verifies if the User is allowed to depositby querying the Allowlist4. When the system has enough funds to deposit validators, keys are pulledfrom the Operators Registry5. The deposit data is computed and the validators are funded via the officialdeposit contract6. Oracles report the total balance of the running validators and the total countof running validators7. The running validators propose blocks that reward the EL Fee Recipient. The fundsare pulled back in the system.",
                "version": 1
            },
            {
                "errors": {
                    "AllowanceTooLow(address,address,uint256,uint256)": [
                        {
                            "notice": "Allowance too low to perform operation"
                        }
                    ],
                    "BalanceTooLow()": [
                        {
                            "notice": "Balance too low to perform operation"
                        }
                    ],
                    "Denied(address)": [
                        {
                            "notice": "The access was denied"
                        }
                    ],
                    "EmptyDeposit()": [
                        {
                            "notice": "And empty deposit attempt was made"
                        }
                    ],
                    "ErrorOnDeposit()": [
                        {
                            "notice": "An error occured during the deposit"
                        }
                    ],
                    "InconsistentPublicKeys()": [
                        {
                            "notice": "The length of the BLS Public key is invalid during deposit"
                        }
                    ],
                    "InconsistentSignatures()": [
                        {
                            "notice": "The length of the BLS Signature is invalid during deposit"
                        }
                    ],
                    "InvalidArgument()": [
                        {
                            "notice": "The argument was invalid"
                        }
                    ],
                    "InvalidCall()": [
                        {
                            "notice": "The call was invalid"
                        }
                    ],
                    "InvalidFee()": [
                        {
                            "notice": "The fee is invalid"
                        }
                    ],
                    "InvalidInitialization(uint256,uint256)": [
                        {
                            "notice": "An error occured during the initialization"
                        }
                    ],
                    "InvalidPublicKeyCount()": [
                        {
                            "notice": "The received count of public keys to deposit is invalid"
                        }
                    ],
                    "InvalidSignatureCount()": [
                        {
                            "notice": "The received count of signatures to deposit is invalid"
                        }
                    ],
                    "InvalidValidatorCountReport(uint256,uint256)": [
                        {
                            "notice": "The reported validator count is invalid"
                        }
                    ],
                    "InvalidWithdrawalCredentials()": [
                        {
                            "notice": "The withdrawal credentials value is null"
                        }
                    ],
                    "InvalidZeroAddress()": [
                        {
                            "notice": "The address is zero"
                        }
                    ],
                    "NoAvailableValidatorKeys()": [
                        {
                            "notice": "The internal key retrieval returned no keys"
                        }
                    ],
                    "NotEnoughFunds()": [
                        {
                            "notice": "Not enough funds to deposit one validator"
                        }
                    ],
                    "NullTransfer()": [
                        {
                            "notice": "Invalid empty transfer"
                        }
                    ],
                    "SliceOutOfBounds()": [
                        {
                            "notice": "The slice is outside of the initial bytes bounds"
                        }
                    ],
                    "SliceOverflow()": [
                        {
                            "notice": "The length overflows an uint"
                        }
                    ],
                    "Unauthorized(address)": [
                        {
                            "notice": "The operator is unauthorized for the caller"
                        }
                    ],
                    "UnauthorizedTransfer(address,address)": [
                        {
                            "notice": "Invalid transfer recipients"
                        }
                    ],
                    "ZeroMintedShares()": [
                        {
                            "notice": "The computed amount of shares to mint is 0"
                        }
                    ]
                },
                "events": {
                    "ConsensusLayerDataUpdate(uint256,uint256,bytes32)": {
                        "notice": "The consensus layer data provided by the oracle has been updated"
                    },
                    "FundedValidatorKey(bytes)": {
                        "notice": "A validator key got funded on the deposit contract"
                    },
                    "Initialize(uint256,bytes)": {
                        "notice": "Emitted when the contract is properly initialized"
                    },
                    "PulledELFees(uint256)": {
                        "notice": "Funds have been pulled from the Execution Layer Fee Recipient"
                    },
                    "RewardsEarned(address,uint256,uint256,uint256,uint256)": {
                        "notice": "The system underlying supply increased. This is a snapshot of the balances for accounting purposes"
                    },
                    "SetAdmin(address)": {
                        "notice": "The admin address changed"
                    },
                    "SetAllowlist(address)": {
                        "notice": "The stored Allowlist has been changed"
                    },
                    "SetCollector(address)": {
                        "notice": "The stored Collector has been changed"
                    },
                    "SetDepositContractAddress(address)": {
                        "notice": "The stored deposit contract address changed"
                    },
                    "SetELFeeRecipient(address)": {
                        "notice": "The stored Execution Layer Fee Recipient has been changed"
                    },
                    "SetGlobalFee(uint256)": {
                        "notice": "The stored Global Fee has been changed"
                    },
                    "SetOperatorsRegistry(address)": {
                        "notice": "The stored Operators Registry has been changed"
                    },
                    "SetOracle(address)": {
                        "notice": "The stored oracle address changed"
                    },
                    "SetPendingAdmin(address)": {
                        "notice": "The pending admin address changed"
                    },
                    "SetWithdrawalCredentials(bytes32)": {
                        "notice": "The stored withdrawal credentials changed"
                    },
                    "UserDeposit(address,address,uint256)": {
                        "notice": "User deposited ETH in the system"
                    }
                },
                "kind": "user",
                "methods": {
                    "DEPOSIT_SIZE()": {
                        "notice": "Size of a deposit in ETH"
                    },
                    "PUBLIC_KEY_LENGTH()": {
                        "notice": "Size of a BLS Public key in bytes"
                    },
                    "SIGNATURE_LENGTH()": {
                        "notice": "Size of a BLS Signature in bytes"
                    },
                    "acceptAdmin()": {
                        "notice": "Accept the transfer of ownership"
                    },
                    "allowance(address,address)": {
                        "notice": "Retrieve the allowance value for a spender"
                    },
                    "approve(address,uint256)": {
                        "notice": "Approves an account for future spendings"
                    },
                    "balanceOf(address)": {
                        "notice": "Retrieve the balance of an account"
                    },
                    "balanceOfUnderlying(address)": {
                        "notice": "Retrieve the underlying asset balance of an account"
                    },
                    "decimals()": {
                        "notice": "Retrieve the decimal count"
                    },
                    "decreaseAllowance(address,uint256)": {
                        "notice": "Decrease allowance to another account"
                    },
                    "deposit()": {
                        "notice": "Explicit deposit method to mint on msg.sender"
                    },
                    "depositAndTransfer(address)": {
                        "notice": "Explicit deposit method to mint on msg.sender and transfer to _recipient"
                    },
                    "depositToConsensusLayer(uint256)": {
                        "notice": "Deposits current balance to the Consensus Layer by batches of 32 ETH"
                    },
                    "getAdmin()": {
                        "notice": "Retrieves the current admin address"
                    },
                    "getAllowlist()": {
                        "notice": "Retrieve the allowlist address"
                    },
                    "getBalanceToDeposit()": {
                        "notice": "Returns the amount of pending ETH"
                    },
                    "getCLValidatorCount()": {
                        "notice": "Get CL validator count (the amount of validator reported by the oracles)"
                    },
                    "getCLValidatorTotalBalance()": {
                        "notice": "Get CL validator total balance"
                    },
                    "getCollector()": {
                        "notice": "Retrieve the collector address"
                    },
                    "getDepositedValidatorCount()": {
                        "notice": "Get the deposited validator count (the count of deposits made by the contract)"
                    },
                    "getELFeeRecipient()": {
                        "notice": "Retrieve the execution layer fee recipient"
                    },
                    "getGlobalFee()": {
                        "notice": "Get the current global fee"
                    },
                    "getOperatorsRegistry()": {
                        "notice": "Retrieve the operators registry"
                    },
                    "getOracle()": {
                        "notice": "Get oracle address"
                    },
                    "getPendingAdmin()": {
                        "notice": "Retrieve the current pending admin address"
                    },
                    "getWithdrawalCredentials()": {
                        "notice": "Retrieve the withdrawal credentials"
                    },
                    "increaseAllowance(address,uint256)": {
                        "notice": "Increase allowance to another account"
                    },
                    "initRiverV1(address,address,bytes32,address,address,address,address,address,uint256)": {
                        "notice": "Initializes the River system"
                    },
                    "name()": {
                        "notice": "Retrieve the token name"
                    },
                    "proposeAdmin(address)": {
                        "notice": "Proposes a new address as admin"
                    },
                    "sendELFees()": {
                        "notice": "Input for execution layer fee earnings"
                    },
                    "setAllowlist(address)": {
                        "notice": "Changes the allowlist address"
                    },
                    "setCollector(address)": {
                        "notice": "Changes the collector address"
                    },
                    "setConsensusLayerData(uint256,uint256,bytes32,uint256)": {
                        "notice": "Sets the validator count and validator total balance sum reported by the oracle"
                    },
                    "setELFeeRecipient(address)": {
                        "notice": "Changes the execution layer fee recipient"
                    },
                    "setGlobalFee(uint256)": {
                        "notice": "Changes the global fee parameter"
                    },
                    "setOracle(address)": {
                        "notice": "Set the oracle address"
                    },
                    "sharesFromUnderlyingBalance(uint256)": {
                        "notice": "Retrieve the shares count from an underlying asset amount"
                    },
                    "symbol()": {
                        "notice": "Retrieve the token symbol"
                    },
                    "totalSupply()": {
                        "notice": "Retrieve the total token supply"
                    },
                    "totalUnderlyingSupply()": {
                        "notice": "Retrieve the total underlying asset supply"
                    },
                    "transfer(address,uint256)": {
                        "notice": "Performs a transfer from the message sender to the provided account"
                    },
                    "transferFrom(address,address,uint256)": {
                        "notice": "Performs a transfer between two recipients"
                    },
                    "underlyingBalanceFromShares(uint256)": {
                        "notice": "Retrieve the underlying asset balance from an amount of shares"
                    }
                },
                "notice": "This contract merges all the manager contracts and implements all the virtual methods stitching all components together@notice    +---------------------------------------------------------------------+|                                                                     ||                           Consensus Layer                           ||                                                                     || +-------------------+  +-------------------+  +-------------------+ || |                   |  |                   |  |                   | || |  EL Fee Recipient |  |      Oracle       |  |  Deposit Contract | || |                   |  |                   |  |                   | || +---------|---------+  +---------|---------+  +---------|---------+ |+---------------------------------------------------------------------+|         7            |            5         |+-----------------|    |    |-----------------+|    |6   ||    |    |+---------+          +----|----|----|----+            +---------+|         |          |                   |     2      |         ||Operator |          |       River       --------------  User   ||         |          |                   |            |         |+----|----+          +----|---------|----+            +---------+|                    |         ||             4      |         |       3|1     +-------------|         |--------------+|      |                                      ||      |                                      |+------|------|------------+           +-------------|------------+|                          |           |                          ||    Operators Registry    |           |         Allowlist        ||                          |           |                          |+--------------------------+           +--------------------------+@notice      1. Operators are adding BLS Public Keys of validators running in theirinfrastructure.2. User deposit ETH to the system and get shares minted in exchange3. Upon deposit, the system verifies if the User is allowed to depositby querying the Allowlist4. When the system has enough funds to deposit validators, keys are pulledfrom the Operators Registry5. The deposit data is computed and the validators are funded via the officialdeposit contract6. Oracles report the total balance of the running validators and the total countof running validators7. The running validators propose blocks that reward the EL Fee Recipient. The fundsare pulled back in the system.",
                "version": 1
            },
            {
                "errors": {
                    "AllowanceTooLow(address,address,uint256,uint256)": [
                        {
                            "notice": "Allowance too low to perform operation"
                        }
                    ],
                    "BalanceTooLow()": [
                        {
                            "notice": "Balance too low to perform operation"
                        }
                    ],
                    "Denied(address)": [
                        {
                            "notice": "The access was denied"
                        }
                    ],
                    "EmptyDeposit()": [
                        {
                            "notice": "And empty deposit attempt was made"
                        }
                    ],
                    "ErrorOnDeposit()": [
                        {
                            "notice": "An error occured during the deposit"
                        }
                    ],
                    "InconsistentPublicKeys()": [
                        {
                            "notice": "The length of the BLS Public key is invalid during deposit"
                        }
                    ],
                    "InconsistentSignatures()": [
                        {
                            "notice": "The length of the BLS Signature is invalid during deposit"
                        }
                    ],
                    "InvalidArgument()": [
                        {
                            "notice": "The argument was invalid"
                        }
                    ],
                    "InvalidCall()": [
                        {
                            "notice": "The call was invalid"
                        }
                    ],
                    "InvalidEmptyString()": [
                        {
                            "notice": "The string is empty"
                        }
                    ],
                    "InvalidFee()": [
                        {
                            "notice": "The fee is invalid"
                        }
                    ],
                    "InvalidInitialization(uint256,uint256)": [
                        {
                            "notice": "An error occured during the initialization"
                        }
                    ],
                    "InvalidPublicKeyCount()": [
                        {
                            "notice": "The received count of public keys to deposit is invalid"
                        }
                    ],
                    "InvalidSignatureCount()": [
                        {
                            "notice": "The received count of signatures to deposit is invalid"
                        }
                    ],
                    "InvalidValidatorCountReport(uint256,uint256)": [
                        {
                            "notice": "The reported validator count is invalid"
                        }
                    ],
                    "InvalidWithdrawalCredentials()": [
                        {
                            "notice": "The withdrawal credentials value is null"
                        }
                    ],
                    "InvalidZeroAddress()": [
                        {
                            "notice": "The address is zero"
                        }
                    ],
                    "NoAvailableValidatorKeys()": [
                        {
                            "notice": "The internal key retrieval returned no keys"
                        }
                    ],
                    "NotEnoughFunds()": [
                        {
                            "notice": "Not enough funds to deposit one validator"
                        }
                    ],
                    "NullTransfer()": [
                        {
                            "notice": "Invalid empty transfer"
                        }
                    ],
                    "SliceOutOfBounds()": [
                        {
                            "notice": "The slice is outside of the initial bytes bounds"
                        }
                    ],
                    "SliceOverflow()": [
                        {
                            "notice": "The length overflows an uint"
                        }
                    ],
                    "Unauthorized(address)": [
                        {
                            "notice": "The operator is unauthorized for the caller"
                        }
                    ],
                    "UnauthorizedTransfer(address,address)": [
                        {
                            "notice": "Invalid transfer recipients"
                        }
                    ],
                    "ZeroMintedShares()": [
                        {
                            "notice": "The computed amount of shares to mint is 0"
                        }
                    ]
                },
                "events": {
                    "ConsensusLayerDataUpdate(uint256,uint256,bytes32)": {
                        "notice": "The consensus layer data provided by the oracle has been updated"
                    },
                    "FundedValidatorKey(bytes)": {
                        "notice": "A validator key got funded on the deposit contract"
                    },
                    "Initialize(uint256,bytes)": {
                        "notice": "Emitted when the contract is properly initialized"
                    },
                    "PulledCoverageFunds(uint256)": {
                        "notice": "Funds have been pulled from the Coverage Fund"
                    },
                    "PulledELFees(uint256)": {
                        "notice": "Funds have been pulled from the Execution Layer Fee Recipient"
                    },
                    "RewardsEarned(address,uint256,uint256,uint256,uint256)": {
                        "notice": "The system underlying supply increased. This is a snapshot of the balances for accounting purposes"
                    },
                    "SetAdmin(address)": {
                        "notice": "The admin address changed"
                    },
                    "SetAllowlist(address)": {
                        "notice": "The stored Allowlist has been changed"
                    },
                    "SetCollector(address)": {
                        "notice": "The stored Collector has been changed"
                    },
                    "SetCoverageFund(address)": {
                        "notice": "The stored Coverage Fund has been changed"
                    },
                    "SetDepositContractAddress(address)": {
                        "notice": "The stored deposit contract address changed"
                    },
                    "SetELFeeRecipient(address)": {
                        "notice": "The stored Execution Layer Fee Recipient has been changed"
                    },
                    "SetGlobalFee(uint256)": {
                        "notice": "The stored Global Fee has been changed"
                    },
                    "SetMetadataURI(string)": {
                        "notice": "The stored Metadata URI string has been changed"
                    },
                    "SetOperatorsRegistry(address)": {
                        "notice": "The stored Operators Registry has been changed"
                    },
                    "SetOracle(address)": {
                        "notice": "The stored oracle address changed"
                    },
                    "SetPendingAdmin(address)": {
                        "notice": "The pending admin address changed"
                    },
                    "SetWithdrawalCredentials(bytes32)": {
                        "notice": "The stored withdrawal credentials changed"
                    },
                    "UserDeposit(address,address,uint256)": {
                        "notice": "User deposited ETH in the system"
                    }
                },
                "kind": "user",
                "methods": {
                    "DEPOSIT_SIZE()": {
                        "notice": "Size of a deposit in ETH"
                    },
                    "PUBLIC_KEY_LENGTH()": {
                        "notice": "Size of a BLS Public key in bytes"
                    },
                    "SIGNATURE_LENGTH()": {
                        "notice": "Size of a BLS Signature in bytes"
                    },
                    "acceptAdmin()": {
                        "notice": "Accept the transfer of ownership"
                    },
                    "allowance(address,address)": {
                        "notice": "Retrieve the allowance value for a spender"
                    },
                    "approve(address,uint256)": {
                        "notice": "Approves an account for future spendings"
                    },
                    "balanceOf(address)": {
                        "notice": "Retrieve the balance of an account"
                    },
                    "balanceOfUnderlying(address)": {
                        "notice": "Retrieve the underlying asset balance of an account"
                    },
                    "decimals()": {
                        "notice": "Retrieve the decimal count"
                    },
                    "decreaseAllowance(address,uint256)": {
                        "notice": "Decrease allowance to another account"
                    },
                    "deposit()": {
                        "notice": "Explicit deposit method to mint on msg.sender"
                    },
                    "depositAndTransfer(address)": {
                        "notice": "Explicit deposit method to mint on msg.sender and transfer to _recipient"
                    },
                    "depositToConsensusLayer(uint256)": {
                        "notice": "Deposits current balance to the Consensus Layer by batches of 32 ETH"
                    },
                    "getAdmin()": {
                        "notice": "Retrieves the current admin address"
                    },
                    "getAllowlist()": {
                        "notice": "Retrieve the allowlist address"
                    },
                    "getBalanceToDeposit()": {
                        "notice": "Returns the amount of pending ETH"
                    },
                    "getCLValidatorCount()": {
                        "notice": "Get CL validator count (the amount of validator reported by the oracles)"
                    },
                    "getCLValidatorTotalBalance()": {
                        "notice": "Get CL validator total balance"
                    },
                    "getCollector()": {
                        "notice": "Retrieve the collector address"
                    },
                    "getCoverageFund()": {
                        "notice": "Retrieve the coverage fund"
                    },
                    "getDepositedValidatorCount()": {
                        "notice": "Get the deposited validator count (the count of deposits made by the contract)"
                    },
                    "getELFeeRecipient()": {
                        "notice": "Retrieve the execution layer fee recipient"
                    },
                    "getGlobalFee()": {
                        "notice": "Get the current global fee"
                    },
                    "getMetadataURI()": {
                        "notice": "Retrieve the metadata uri string value"
                    },
                    "getOperatorsRegistry()": {
                        "notice": "Retrieve the operators registry"
                    },
                    "getOracle()": {
                        "notice": "Get oracle address"
                    },
                    "getPendingAdmin()": {
                        "notice": "Retrieve the current pending admin address"
                    },
                    "getWithdrawalCredentials()": {
                        "notice": "Retrieve the withdrawal credentials"
                    },
                    "increaseAllowance(address,uint256)": {
                        "notice": "Increase allowance to another account"
                    },
                    "initRiverV1(address,address,bytes32,address,address,address,address,address,uint256)": {
                        "notice": "Initializes the River system"
                    },
                    "name()": {
                        "notice": "Retrieve the token name"
                    },
                    "proposeAdmin(address)": {
                        "notice": "Proposes a new address as admin"
                    },
                    "sendCoverageFunds()": {
                        "notice": "Input for coverage funds"
                    },
                    "sendELFees()": {
                        "notice": "Input for execution layer fee earnings"
                    },
                    "setAllowlist(address)": {
                        "notice": "Changes the allowlist address"
                    },
                    "setCollector(address)": {
                        "notice": "Changes the collector address"
                    },
                    "setConsensusLayerData(uint256,uint256,bytes32,uint256)": {
                        "notice": "Sets the validator count and validator total balance sum reported by the oracle"
                    },
                    "setCoverageFund(address)": {
                        "notice": "Changes the coverage fund"
                    },
                    "setELFeeRecipient(address)": {
                        "notice": "Changes the execution layer fee recipient"
                    },
                    "setGlobalFee(uint256)": {
                        "notice": "Changes the global fee parameter"
                    },
                    "setMetadataURI(string)": {
                        "notice": "Sets the metadata uri string value"
                    },
                    "setOracle(address)": {
                        "notice": "Set the oracle address"
                    },
                    "sharesFromUnderlyingBalance(uint256)": {
                        "notice": "Retrieve the shares count from an underlying asset amount"
                    },
                    "symbol()": {
                        "notice": "Retrieve the token symbol"
                    },
                    "totalSupply()": {
                        "notice": "Retrieve the total token supply"
                    },
                    "totalUnderlyingSupply()": {
                        "notice": "Retrieve the total underlying asset supply"
                    },
                    "transfer(address,uint256)": {
                        "notice": "Performs a transfer from the message sender to the provided account"
                    },
                    "transferFrom(address,address,uint256)": {
                        "notice": "Performs a transfer between two recipients"
                    },
                    "underlyingBalanceFromShares(uint256)": {
                        "notice": "Retrieve the underlying asset balance from an amount of shares"
                    }
                },
                "notice": "This contract merges all the manager contracts and implements all the virtual methods stitching all components together@notice    +---------------------------------------------------------------------+|                                                                     ||                           Consensus Layer                           ||                                                                     || +-------------------+  +-------------------+  +-------------------+ || |                   |  |                   |  |                   | || |  EL Fee Recipient |  |      Oracle       |  |  Deposit Contract | || |                   |  |                   |  |                   | || +---------|---------+  +---------|---------+  +---------|---------+ |+---------------------------------------------------------------------+|         7            |            5         |+-----------------|    |    |-----------------+|    |6   ||    |    |+---------+          +----|----|----|----+            +---------+|         |          |                   |     2      |         ||Operator |          |       River       --------------  User   ||         |          |                   |            |         |+----|----+          +----|---------|----+            +---------+|                    |         ||             4      |         |       3|1     +-------------|         |--------------+|      |                                      ||      |                                      |+------|------|------------+           +-------------|------------+|                          |           |                          ||    Operators Registry    |           |         Allowlist        ||                          |           |                          |+--------------------------+           +--------------------------+@notice      1. Operators are adding BLS Public Keys of validators running in theirinfrastructure.2. User deposit ETH to the system and get shares minted in exchange3. Upon deposit, the system verifies if the User is allowed to depositby querying the Allowlist4. When the system has enough funds to deposit validators, keys are pulledfrom the Operators Registry5. The deposit data is computed and the validators are funded via the officialdeposit contract6. Oracles report the total balance of the running validators and the total countof running validators7. The running validators propose blocks that reward the EL Fee Recipient. The fundsare pulled back in the system.",
                "version": 1
            },
            {
                "errors": {
                    "AllowanceTooLow(address,address,uint256,uint256)": [
                        {
                            "notice": "Allowance too low to perform operation"
                        }
                    ],
                    "BalanceTooLow()": [
                        {
                            "notice": "Balance too low to perform operation"
                        }
                    ],
                    "Denied(address)": [
                        {
                            "notice": "The access was denied"
                        }
                    ],
                    "EmptyDeposit()": [
                        {
                            "notice": "And empty deposit attempt was made"
                        }
                    ],
                    "ErrorOnDeposit()": [
                        {
                            "notice": "An error occured during the deposit"
                        }
                    ],
                    "InconsistentPublicKeys()": [
                        {
                            "notice": "The length of the BLS Public key is invalid during deposit"
                        }
                    ],
                    "InconsistentSignatures()": [
                        {
                            "notice": "The length of the BLS Signature is invalid during deposit"
                        }
                    ],
                    "InvalidArgument()": [
                        {
                            "notice": "The argument was invalid"
                        }
                    ],
                    "InvalidCall()": [
                        {
                            "notice": "The call was invalid"
                        }
                    ],
                    "InvalidDecreasingValidatorsExitedBalance(uint256,uint256)": [
                        {
                            "notice": "The total exited balance decreased"
                        }
                    ],
                    "InvalidDecreasingValidatorsSkimmedBalance(uint256,uint256)": [
                        {
                            "notice": "The total skimmed balance decreased"
                        }
                    ],
                    "InvalidEmptyString()": [
                        {
                            "notice": "The string is empty"
                        }
                    ],
                    "InvalidEpoch(uint256)": [
                        {
                            "notice": "Thrown when an invalid epoch was reported"
                        }
                    ],
                    "InvalidFee()": [
                        {
                            "notice": "The fee is invalid"
                        }
                    ],
                    "InvalidInitialization(uint256,uint256)": [
                        {
                            "notice": "An error occured during the initialization"
                        }
                    ],
                    "InvalidPublicKeyCount()": [
                        {
                            "notice": "The received count of public keys to deposit is invalid"
                        }
                    ],
                    "InvalidPulledClFundsAmount(uint256,uint256)": [
                        {
                            "notice": "Thrown when the amount received from the Withdraw contract doe not match the requested amount"
                        }
                    ],
                    "InvalidSignatureCount()": [
                        {
                            "notice": "The received count of signatures to deposit is invalid"
                        }
                    ],
                    "InvalidValidatorCountReport(uint256,uint256,uint256)": [
                        {
                            "notice": "The reported validator count is invalid"
                        }
                    ],
                    "InvalidWithdrawalCredentials()": [
                        {
                            "notice": "The withdrawal credentials value is null"
                        }
                    ],
                    "InvalidZeroAddress()": [
                        {
                            "notice": "The address is zero"
                        }
                    ],
                    "NoAvailableValidatorKeys()": [
                        {
                            "notice": "The internal key retrieval returned no keys"
                        }
                    ],
                    "NotEnoughFunds()": [
                        {
                            "notice": "Not enough funds to deposit one validator"
                        }
                    ],
                    "NullTransfer()": [
                        {
                            "notice": "Invalid empty transfer"
                        }
                    ],
                    "SliceOutOfBounds()": [
                        {
                            "notice": "The slice is outside of the initial bytes bounds"
                        }
                    ],
                    "SliceOverflow()": [
                        {
                            "notice": "The length overflows an uint"
                        }
                    ],
                    "TotalValidatorBalanceDecreaseOutOfBound(uint256,uint256,uint256,uint256)": [
                        {
                            "notice": "The balance decrease is higher than the maximum allowed by the lower bound"
                        }
                    ],
                    "TotalValidatorBalanceIncreaseOutOfBound(uint256,uint256,uint256,uint256)": [
                        {
                            "notice": "The balance increase is higher than the maximum allowed by the upper bound"
                        }
                    ],
                    "Unauthorized(address)": [
                        {
                            "notice": "The operator is unauthorized for the caller"
                        }
                    ],
                    "UnauthorizedTransfer(address,address)": [
                        {
                            "notice": "Invalid transfer recipients"
                        }
                    ],
                    "ZeroMintedShares()": [
                        {
                            "notice": "The computed amount of shares to mint is 0"
                        }
                    ]
                },
                "events": {
                    "ConsensusLayerDataUpdate(uint256,uint256,bytes32)": {
                        "notice": "The consensus layer data provided by the oracle has been updated"
                    },
                    "Initialize(uint256,bytes)": {
                        "notice": "Emitted when the contract is properly initialized"
                    },
                    "ProcessedConsensusLayerReport((uint256,uint256,uint256,uint256,uint256,uint32,uint32[],bool,bool),(uint256,uint256,uint256,uint256))": {
                        "notice": "The provided report has beend processed"
                    },
                    "PulledCLFunds(uint256,uint256)": {
                        "notice": "Emitted when funds are pulled from the CL recipient"
                    },
                    "PulledCoverageFunds(uint256)": {
                        "notice": "Funds have been pulled from the Coverage Fund"
                    },
                    "PulledELFees(uint256)": {
                        "notice": "Funds have been pulled from the Execution Layer Fee Recipient"
                    },
                    "PulledRedeemManagerExceedingEth(uint256)": {
                        "notice": "Emitted when funds are pulled from the redeem manager"
                    },
                    "ReportedRedeemManager(uint256,uint256,uint256)": {
                        "notice": "Emitted when the redeem manager received a withdraw event report"
                    },
                    "RewardsEarned(address,uint256,uint256,uint256,uint256)": {
                        "notice": "The system underlying supply increased. This is a snapshot of the balances for accounting purposes"
                    },
                    "SetAdmin(address)": {
                        "notice": "The admin address changed"
                    },
                    "SetAllowlist(address)": {
                        "notice": "The stored Allowlist has been changed"
                    },
                    "SetBalanceCommittedToDeposit(uint256,uint256)": {
                        "notice": "Emitted when the balance committed to deposit"
                    },
                    "SetBalanceToDeposit(uint256,uint256)": {
                        "notice": "Emitted when the balance to deposit is updated"
                    },
                    "SetBalanceToRedeem(uint256,uint256)": {
                        "notice": "Emitted when the balance to redeem is updated"
                    },
                    "SetBounds(uint256,uint256)": {
                        "notice": "The Report Bounds are changed"
                    },
                    "SetCollector(address)": {
                        "notice": "The stored Collector has been changed"
                    },
                    "SetCoverageFund(address)": {
                        "notice": "The stored Coverage Fund has been changed"
                    },
                    "SetDepositContractAddress(address)": {
                        "notice": "The stored deposit contract address changed"
                    },
                    "SetDepositedValidatorCount(uint256,uint256)": {
                        "notice": "Emitted when the deposited validator count is updated"
                    },
                    "SetELFeeRecipient(address)": {
                        "notice": "The stored Execution Layer Fee Recipient has been changed"
                    },
                    "SetGlobalFee(uint256)": {
                        "notice": "The stored Global Fee has been changed"
                    },
                    "SetMaxDailyCommittableAmounts(uint256,uint256)": {
                        "notice": "Emitted when the daily committable limits are changed"
                    },
                    "SetMetadataURI(string)": {
                        "notice": "The stored Metadata URI string has been changed"
                    },
                    "SetOperatorsRegistry(address)": {
                        "notice": "The stored Operators Registry has been changed"
                    },
                    "SetOracle(address)": {
                        "notice": "The stored oracle address changed"
                    },
                    "SetPendingAdmin(address)": {
                        "notice": "The pending admin address changed"
                    },
                    "SetRedeemManager(address)": {
                        "notice": "Emitted when the redeem manager address is changed"
                    },
                    "SetSpec(uint64,uint64,uint64,uint64,uint64)": {
                        "notice": "The Consensus Layer Spec is changed"
                    },
                    "SetTotalSupply(uint256)": {
                        "notice": "Emitted when the total supply is changed"
                    },
                    "SetWithdrawalCredentials(bytes32)": {
                        "notice": "The stored withdrawal credentials changed"
                    },
                    "UserDeposit(address,address,uint256)": {
                        "notice": "User deposited ETH in the system"
                    }
                },
                "kind": "user",
                "methods": {
                    "DEPOSIT_SIZE()": {
                        "notice": "Size of a deposit in ETH"
                    },
                    "PUBLIC_KEY_LENGTH()": {
                        "notice": "Size of a BLS Public key in bytes"
                    },
                    "SIGNATURE_LENGTH()": {
                        "notice": "Size of a BLS Signature in bytes"
                    },
                    "_DEPOSIT_SIZE()": {
                        "notice": "Size of a deposit in ETH"
                    },
                    "acceptAdmin()": {
                        "notice": "Accept the transfer of ownership"
                    },
                    "allowance(address,address)": {
                        "notice": "Retrieve the allowance value for a spender"
                    },
                    "approve(address,uint256)": {
                        "notice": "Approves an account for future spendings"
                    },
                    "balanceOf(address)": {
                        "notice": "Retrieve the balance of an account"
                    },
                    "balanceOfUnderlying(address)": {
                        "notice": "Retrieve the underlying asset balance of an account"
                    },
                    "claimRedeemRequests(uint32[],uint32[])": {
                        "notice": "Claims several redeem requests"
                    },
                    "decimals()": {
                        "notice": "Retrieve the decimal count"
                    },
                    "decreaseAllowance(address,uint256)": {
                        "notice": "Decrease allowance to another account"
                    },
                    "deposit()": {
                        "notice": "Explicit deposit method to mint on msg.sender"
                    },
                    "depositAndTransfer(address)": {
                        "notice": "Explicit deposit method to mint on msg.sender and transfer to _recipient"
                    },
                    "depositToConsensusLayer(uint256)": {
                        "notice": "Deposits current balance to the Consensus Layer by batches of 32 ETH"
                    },
                    "getAdmin()": {
                        "notice": "Retrieves the current admin address"
                    },
                    "getAllowlist()": {
                        "notice": "Retrieve the allowlist address"
                    },
                    "getBalanceToDeposit()": {
                        "notice": "Returns the amount of ETH not yet committed for deposit"
                    },
                    "getBalanceToRedeem()": {
                        "notice": "Retrieve the current balance to redeem"
                    },
                    "getCLSpec()": {
                        "notice": "Retrieve the current cl spec"
                    },
                    "getCLValidatorCount()": {
                        "notice": "Get CL validator count (the amount of validator reported by the oracles)"
                    },
                    "getCLValidatorTotalBalance()": {
                        "notice": "Get CL validator total balance"
                    },
                    "getCollector()": {
                        "notice": "Retrieve the collector address"
                    },
                    "getCommittedBalance()": {
                        "notice": "Returns the amount of ETH committed for deposit"
                    },
                    "getCoverageFund()": {
                        "notice": "Retrieve the coverage fund"
                    },
                    "getCurrentEpochId()": {
                        "notice": "Retrieve the current epoch id based on block timestamp"
                    },
                    "getCurrentFrame()": {
                        "notice": "Retrieve the current frame details"
                    },
                    "getDailyCommittableLimits()": {
                        "notice": "Retrieve the configured daily committable limits"
                    },
                    "getDepositedValidatorCount()": {
                        "notice": "Get the deposited validator count (the count of deposits made by the contract)"
                    },
                    "getELFeeRecipient()": {
                        "notice": "Retrieve the execution layer fee recipient"
                    },
                    "getExpectedEpochId()": {
                        "notice": "Retrieve expected epoch id"
                    },
                    "getFrameFirstEpochId(uint256)": {
                        "notice": "Retrieve the first epoch id of the frame of the provided epoch id"
                    },
                    "getGlobalFee()": {
                        "notice": "Get the current global fee"
                    },
                    "getLastCompletedEpochId()": {
                        "notice": "Retrieve the last completed epoch id"
                    },
                    "getLastConsensusLayerReport()": {
                        "notice": "Retrieve the last consensus layer report"
                    },
                    "getMetadataURI()": {
                        "notice": "Retrieve the metadata uri string value"
                    },
                    "getOperatorsRegistry()": {
                        "notice": "Retrieve the operators registry"
                    },
                    "getOracle()": {
                        "notice": "Get oracle address"
                    },
                    "getPendingAdmin()": {
                        "notice": "Retrieve the current pending admin address"
                    },
                    "getRedeemManager()": {
                        "notice": "Retrieve the redeem manager"
                    },
                    "getReportBounds()": {
                        "notice": "Retrieve the report bounds"
                    },
                    "getTime()": {
                        "notice": "Retrieve the block timestamp"
                    },
                    "getWithdrawalCredentials()": {
                        "notice": "Retrieve the withdrawal credentials"
                    },
                    "increaseAllowance(address,uint256)": {
                        "notice": "Increase allowance to another account"
                    },
                    "initRiverV1(address,address,bytes32,address,address,address,address,address,uint256)": {
                        "notice": "Initializes the River system"
                    },
                    "initRiverV1_1(address,uint64,uint64,uint64,uint64,uint64,uint256,uint256,uint128,uint128)": {
                        "notice": "Initialized version 1.1 of the River System"
                    },
                    "isValidEpoch(uint256)": {
                        "notice": "Verifies if the provided epoch is valid"
                    },
                    "name()": {
                        "notice": "Retrieve the token name"
                    },
                    "proposeAdmin(address)": {
                        "notice": "Proposes a new address as admin"
                    },
                    "requestRedeem(uint256,address)": {
                        "notice": "Performs a redeem request on the redeem manager"
                    },
                    "resolveRedeemRequests(uint32[])": {
                        "notice": "Resolves the provided redeem requests by calling the redeem manager"
                    },
                    "sendCLFunds()": {
                        "notice": "Input for consensus layer funds, containing both exit and skimming"
                    },
                    "sendCoverageFunds()": {
                        "notice": "Input for coverage funds"
                    },
                    "sendELFees()": {
                        "notice": "Input for execution layer fee earnings"
                    },
                    "sendRedeemManagerExceedingFunds()": {
                        "notice": "Input for the redeem manager funds"
                    },
                    "setAllowlist(address)": {
                        "notice": "Changes the allowlist address"
                    },
                    "setCLSpec((uint64,uint64,uint64,uint64,uint64))": {
                        "notice": "Set the consensus layer spec"
                    },
                    "setCollector(address)": {
                        "notice": "Changes the collector address"
                    },
                    "setConsensusLayerData((uint256,uint256,uint256,uint256,uint256,uint32,uint32[],bool,bool))": {
                        "notice": "Performs all the reporting logics"
                    },
                    "setCoverageFund(address)": {
                        "notice": "Changes the coverage fund"
                    },
                    "setDailyCommittableLimits((uint128,uint128))": {
                        "notice": "Set the daily committable limits"
                    },
                    "setELFeeRecipient(address)": {
                        "notice": "Changes the execution layer fee recipient"
                    },
                    "setGlobalFee(uint256)": {
                        "notice": "Changes the global fee parameter"
                    },
                    "setMetadataURI(string)": {
                        "notice": "Sets the metadata uri string value"
                    },
                    "setOracle(address)": {
                        "notice": "Set the oracle address"
                    },
                    "setReportBounds((uint256,uint256))": {
                        "notice": "Set the report bounds"
                    },
                    "sharesFromUnderlyingBalance(uint256)": {
                        "notice": "Retrieve the shares count from an underlying asset amount"
                    },
                    "symbol()": {
                        "notice": "Retrieve the token symbol"
                    },
                    "totalSupply()": {
                        "notice": "Retrieve the total token supply"
                    },
                    "totalUnderlyingSupply()": {
                        "notice": "Retrieve the total underlying asset supply"
                    },
                    "transfer(address,uint256)": {
                        "notice": "Performs a transfer from the message sender to the provided account"
                    },
                    "transferFrom(address,address,uint256)": {
                        "notice": "Performs a transfer between two recipients"
                    },
                    "underlyingBalanceFromShares(uint256)": {
                        "notice": "Retrieve the underlying asset balance from an amount of shares"
                    }
                },
                "notice": "This contract merges all the manager contracts and implements all the virtual methods stitching all components together",
                "version": 1
            },
            {
                "errors": {
                    "AllowanceTooLow(address,address,uint256,uint256)": [
                        {
                            "notice": "Allowance too low to perform operation"
                        }
                    ],
                    "BalanceTooLow()": [
                        {
                            "notice": "Balance too low to perform operation"
                        }
                    ],
                    "Denied(address)": [
                        {
                            "notice": "The access was denied"
                        }
                    ],
                    "EmptyDeposit()": [
                        {
                            "notice": "And empty deposit attempt was made"
                        }
                    ],
                    "ErrorOnDeposit()": [
                        {
                            "notice": "An error occured during the deposit"
                        }
                    ],
                    "InconsistentPublicKeys()": [
                        {
                            "notice": "The length of the BLS Public key is invalid during deposit"
                        }
                    ],
                    "InconsistentSignatures()": [
                        {
                            "notice": "The length of the BLS Signature is invalid during deposit"
                        }
                    ],
                    "InvalidArgument()": [
                        {
                            "notice": "The argument was invalid"
                        }
                    ],
                    "InvalidCall()": [
                        {
                            "notice": "The call was invalid"
                        }
                    ],
                    "InvalidDecreasingValidatorsExitedBalance(uint256,uint256)": [
                        {
                            "notice": "The total exited balance decreased"
                        }
                    ],
                    "InvalidDecreasingValidatorsSkimmedBalance(uint256,uint256)": [
                        {
                            "notice": "The total skimmed balance decreased"
                        }
                    ],
                    "InvalidEmptyString()": [
                        {
                            "notice": "The string is empty"
                        }
                    ],
                    "InvalidEpoch(uint256)": [
                        {
                            "notice": "Thrown when an invalid epoch was reported"
                        }
                    ],
                    "InvalidFee()": [
                        {
                            "notice": "The fee is invalid"
                        }
                    ],
                    "InvalidInitialization(uint256,uint256)": [
                        {
                            "notice": "An error occured during the initialization"
                        }
                    ],
                    "InvalidPublicKeyCount()": [
                        {
                            "notice": "The received count of public keys to deposit is invalid"
                        }
                    ],
                    "InvalidPulledClFundsAmount(uint256,uint256)": [
                        {
                            "notice": "Thrown when the amount received from the Withdraw contract doe not match the requested amount"
                        }
                    ],
                    "InvalidSignatureCount()": [
                        {
                            "notice": "The received count of signatures to deposit is invalid"
                        }
                    ],
                    "InvalidValidatorCountReport(uint256,uint256,uint256)": [
                        {
                            "notice": "The reported validator count is invalid"
                        }
                    ],
                    "InvalidWithdrawalCredentials()": [
                        {
                            "notice": "The withdrawal credentials value is null"
                        }
                    ],
                    "InvalidZeroAddress()": [
                        {
                            "notice": "The address is zero"
                        }
                    ],
                    "NoAvailableValidatorKeys()": [
                        {
                            "notice": "The internal key retrieval returned no keys"
                        }
                    ],
                    "NotEnoughFunds()": [
                        {
                            "notice": "Not enough funds to deposit one validator"
                        }
                    ],
                    "NullTransfer()": [
                        {
                            "notice": "Invalid empty transfer"
                        }
                    ],
                    "SliceOutOfBounds()": [
                        {
                            "notice": "The slice is outside of the initial bytes bounds"
                        }
                    ],
                    "SliceOverflow()": [
                        {
                            "notice": "The length overflows an uint"
                        }
                    ],
                    "TotalValidatorBalanceDecreaseOutOfBound(uint256,uint256,uint256,uint256)": [
                        {
                            "notice": "The balance decrease is higher than the maximum allowed by the lower bound"
                        }
                    ],
                    "TotalValidatorBalanceIncreaseOutOfBound(uint256,uint256,uint256,uint256)": [
                        {
                            "notice": "The balance increase is higher than the maximum allowed by the upper bound"
                        }
                    ],
                    "Unauthorized(address)": [
                        {
                            "notice": "The operator is unauthorized for the caller"
                        }
                    ],
                    "UnauthorizedTransfer(address,address)": [
                        {
                            "notice": "Invalid transfer recipients"
                        }
                    ],
                    "ZeroMintedShares()": [
                        {
                            "notice": "The computed amount of shares to mint is 0"
                        }
                    ]
                },
                "events": {
                    "ConsensusLayerDataUpdate(uint256,uint256,bytes32)": {
                        "notice": "The consensus layer data provided by the oracle has been updated"
                    },
                    "Initialize(uint256,bytes)": {
                        "notice": "Emitted when the contract is properly initialized"
                    },
                    "ProcessedConsensusLayerReport((uint256,uint256,uint256,uint256,uint256,uint32,uint32[],bool,bool),(uint256,uint256,uint256,uint256))": {
                        "notice": "The provided report has beend processed"
                    },
                    "PulledCLFunds(uint256,uint256)": {
                        "notice": "Emitted when funds are pulled from the CL recipient"
                    },
                    "PulledCoverageFunds(uint256)": {
                        "notice": "Funds have been pulled from the Coverage Fund"
                    },
                    "PulledELFees(uint256)": {
                        "notice": "Funds have been pulled from the Execution Layer Fee Recipient"
                    },
                    "PulledRedeemManagerExceedingEth(uint256)": {
                        "notice": "Emitted when funds are pulled from the redeem manager"
                    },
                    "ReportedRedeemManager(uint256,uint256,uint256)": {
                        "notice": "Emitted when the redeem manager received a withdraw event report"
                    },
                    "RewardsEarned(address,uint256,uint256,uint256,uint256)": {
                        "notice": "The system underlying supply increased. This is a snapshot of the balances for accounting purposes"
                    },
                    "SetAdmin(address)": {
                        "notice": "The admin address changed"
                    },
                    "SetAllowlist(address)": {
                        "notice": "The stored Allowlist has been changed"
                    },
                    "SetBalanceCommittedToDeposit(uint256,uint256)": {
                        "notice": "Emitted when the balance committed to deposit"
                    },
                    "SetBalanceToDeposit(uint256,uint256)": {
                        "notice": "Emitted when the balance to deposit is updated"
                    },
                    "SetBalanceToRedeem(uint256,uint256)": {
                        "notice": "Emitted when the balance to redeem is updated"
                    },
                    "SetBounds(uint256,uint256)": {
                        "notice": "The Report Bounds are changed"
                    },
                    "SetCollector(address)": {
                        "notice": "The stored Collector has been changed"
                    },
                    "SetCoverageFund(address)": {
                        "notice": "The stored Coverage Fund has been changed"
                    },
                    "SetDepositContractAddress(address)": {
                        "notice": "The stored deposit contract address changed"
                    },
                    "SetDepositedValidatorCount(uint256,uint256)": {
                        "notice": "Emitted when the deposited validator count is updated"
                    },
                    "SetELFeeRecipient(address)": {
                        "notice": "The stored Execution Layer Fee Recipient has been changed"
                    },
                    "SetGlobalFee(uint256)": {
                        "notice": "The stored Global Fee has been changed"
                    },
                    "SetMaxDailyCommittableAmounts(uint256,uint256)": {
                        "notice": "Emitted when the daily committable limits are changed"
                    },
                    "SetMetadataURI(string)": {
                        "notice": "The stored Metadata URI string has been changed"
                    },
                    "SetOperatorsRegistry(address)": {
                        "notice": "The stored Operators Registry has been changed"
                    },
                    "SetOracle(address)": {
                        "notice": "The stored oracle address changed"
                    },
                    "SetPendingAdmin(address)": {
                        "notice": "The pending admin address changed"
                    },
                    "SetRedeemManager(address)": {
                        "notice": "Emitted when the redeem manager address is changed"
                    },
                    "SetSpec(uint64,uint64,uint64,uint64,uint64)": {
                        "notice": "The Consensus Layer Spec is changed"
                    },
                    "SetTotalSupply(uint256)": {
                        "notice": "Emitted when the total supply is changed"
                    },
                    "SetWithdrawalCredentials(bytes32)": {
                        "notice": "The stored withdrawal credentials changed"
                    },
                    "UserDeposit(address,address,uint256)": {
                        "notice": "User deposited ETH in the system"
                    }
                },
                "kind": "user",
                "methods": {
                    "DEPOSIT_SIZE()": {
                        "notice": "Size of a deposit in ETH"
                    },
                    "PUBLIC_KEY_LENGTH()": {
                        "notice": "Size of a BLS Public key in bytes"
                    },
                    "SIGNATURE_LENGTH()": {
                        "notice": "Size of a BLS Signature in bytes"
                    },
                    "_DEPOSIT_SIZE()": {
                        "notice": "Size of a deposit in ETH"
                    },
                    "acceptAdmin()": {
                        "notice": "Accept the transfer of ownership"
                    },
                    "allowance(address,address)": {
                        "notice": "Retrieve the allowance value for a spender"
                    },
                    "approve(address,uint256)": {
                        "notice": "Approves an account for future spendings"
                    },
                    "balanceOf(address)": {
                        "notice": "Retrieve the balance of an account"
                    },
                    "balanceOfUnderlying(address)": {
                        "notice": "Retrieve the underlying asset balance of an account"
                    },
                    "claimRedeemRequests(uint32[],uint32[])": {
                        "notice": "Claims several redeem requests"
                    },
                    "decimals()": {
                        "notice": "Retrieve the decimal count"
                    },
                    "decreaseAllowance(address,uint256)": {
                        "notice": "Decrease allowance to another account"
                    },
                    "deposit()": {
                        "notice": "Explicit deposit method to mint on msg.sender"
                    },
                    "depositAndTransfer(address)": {
                        "notice": "Explicit deposit method to mint on msg.sender and transfer to _recipient"
                    },
                    "depositToConsensusLayer(uint256)": {
                        "notice": "Deposits current balance to the Consensus Layer by batches of 32 ETH"
                    },
                    "getAdmin()": {
                        "notice": "Retrieves the current admin address"
                    },
                    "getAllowlist()": {
                        "notice": "Retrieve the allowlist address"
                    },
                    "getBalanceToDeposit()": {
                        "notice": "Returns the amount of ETH not yet committed for deposit"
                    },
                    "getBalanceToRedeem()": {
                        "notice": "Retrieve the current balance to redeem"
                    },
                    "getCLSpec()": {
                        "notice": "Retrieve the current cl spec"
                    },
                    "getCLValidatorCount()": {
                        "notice": "Get CL validator count (the amount of validator reported by the oracles)"
                    },
                    "getCLValidatorTotalBalance()": {
                        "notice": "Get CL validator total balance"
                    },
                    "getCollector()": {
                        "notice": "Retrieve the collector address"
                    },
                    "getCommittedBalance()": {
                        "notice": "Returns the amount of ETH committed for deposit"
                    },
                    "getCoverageFund()": {
                        "notice": "Retrieve the coverage fund"
                    },
                    "getCurrentEpochId()": {
                        "notice": "Retrieve the current epoch id based on block timestamp"
                    },
                    "getCurrentFrame()": {
                        "notice": "Retrieve the current frame details"
                    },
                    "getDailyCommittableLimits()": {
                        "notice": "Retrieve the configured daily committable limits"
                    },
                    "getDepositedValidatorCount()": {
                        "notice": "Get the deposited validator count (the count of deposits made by the contract)"
                    },
                    "getELFeeRecipient()": {
                        "notice": "Retrieve the execution layer fee recipient"
                    },
                    "getExpectedEpochId()": {
                        "notice": "Retrieve expected epoch id"
                    },
                    "getFrameFirstEpochId(uint256)": {
                        "notice": "Retrieve the first epoch id of the frame of the provided epoch id"
                    },
                    "getGlobalFee()": {
                        "notice": "Get the current global fee"
                    },
                    "getLastCompletedEpochId()": {
                        "notice": "Retrieve the last completed epoch id"
                    },
                    "getLastConsensusLayerReport()": {
                        "notice": "Retrieve the last consensus layer report"
                    },
                    "getMetadataURI()": {
                        "notice": "Retrieve the metadata uri string value"
                    },
                    "getOperatorsRegistry()": {
                        "notice": "Retrieve the operators registry"
                    },
                    "getOracle()": {
                        "notice": "Get oracle address"
                    },
                    "getPendingAdmin()": {
                        "notice": "Retrieve the current pending admin address"
                    },
                    "getRedeemManager()": {
                        "notice": "Retrieve the redeem manager"
                    },
                    "getReportBounds()": {
                        "notice": "Retrieve the report bounds"
                    },
                    "getTime()": {
                        "notice": "Retrieve the block timestamp"
                    },
                    "getWithdrawalCredentials()": {
                        "notice": "Retrieve the withdrawal credentials"
                    },
                    "increaseAllowance(address,uint256)": {
                        "notice": "Increase allowance to another account"
                    },
                    "initRiverV1(address,address,bytes32,address,address,address,address,address,uint256)": {
                        "notice": "Initializes the River system"
                    },
                    "initRiverV1_1(address,uint64,uint64,uint64,uint64,uint64,uint256,uint256,uint128,uint128)": {
                        "notice": "Initialized version 1.1 of the River System"
                    },
                    "isValidEpoch(uint256)": {
                        "notice": "Verifies if the provided epoch is valid"
                    },
                    "name()": {
                        "notice": "Retrieve the token name"
                    },
                    "proposeAdmin(address)": {
                        "notice": "Proposes a new address as admin"
                    },
                    "requestRedeem(uint256,address)": {
                        "notice": "Performs a redeem request on the redeem manager"
                    },
                    "resolveRedeemRequests(uint32[])": {
                        "notice": "Resolves the provided redeem requests by calling the redeem manager"
                    },
                    "sendCLFunds()": {
                        "notice": "Input for consensus layer funds, containing both exit and skimming"
                    },
                    "sendCoverageFunds()": {
                        "notice": "Input for coverage funds"
                    },
                    "sendELFees()": {
                        "notice": "Input for execution layer fee earnings"
                    },
                    "sendRedeemManagerExceedingFunds()": {
                        "notice": "Input for the redeem manager funds"
                    },
                    "setAllowlist(address)": {
                        "notice": "Changes the allowlist address"
                    },
                    "setCLSpec((uint64,uint64,uint64,uint64,uint64))": {
                        "notice": "Set the consensus layer spec"
                    },
                    "setCollector(address)": {
                        "notice": "Changes the collector address"
                    },
                    "setConsensusLayerData((uint256,uint256,uint256,uint256,uint256,uint32,uint32[],bool,bool))": {
                        "notice": "Performs all the reporting logics"
                    },
                    "setCoverageFund(address)": {
                        "notice": "Changes the coverage fund"
                    },
                    "setDailyCommittableLimits((uint128,uint128))": {
                        "notice": "Set the daily committable limits"
                    },
                    "setELFeeRecipient(address)": {
                        "notice": "Changes the execution layer fee recipient"
                    },
                    "setGlobalFee(uint256)": {
                        "notice": "Changes the global fee parameter"
                    },
                    "setMetadataURI(string)": {
                        "notice": "Sets the metadata uri string value"
                    },
                    "setOracle(address)": {
                        "notice": "Set the oracle address"
                    },
                    "setReportBounds((uint256,uint256))": {
                        "notice": "Set the report bounds"
                    },
                    "sharesFromUnderlyingBalance(uint256)": {
                        "notice": "Retrieve the shares count from an underlying asset amount"
                    },
                    "symbol()": {
                        "notice": "Retrieve the token symbol"
                    },
                    "totalSupply()": {
                        "notice": "Retrieve the total token supply"
                    },
                    "totalUnderlyingSupply()": {
                        "notice": "Retrieve the total underlying asset supply"
                    },
                    "transfer(address,uint256)": {
                        "notice": "Performs a transfer from the message sender to the provided account"
                    },
                    "transferFrom(address,address,uint256)": {
                        "notice": "Performs a transfer between two recipients"
                    },
                    "underlyingBalanceFromShares(uint256)": {
                        "notice": "Retrieve the underlying asset balance from an amount of shares"
                    }
                },
                "notice": "This contract merges all the manager contracts and implements all the virtual methods stitching all components together",
                "version": 1
            }
        ],
        "storageLayout": [
            {
                "storage": [],
                "types": null
            },
            {
                "storage": [],
                "types": null
            },
            {
                "storage": [],
                "types": null
            },
            {
                "storage": [],
                "types": null
            },
            {
                "storage": [],
                "types": null
            }
        ]
    }
}