{
    "address": "0xb2f102b87022bf5a64e012b39FF25a404102e301",
    "abi": [
        {
            "inputs": [],
            "name": "InvalidRevokedVestingScheduleEnd",
            "type": "error"
        },
        {
            "inputs": [
                {
                    "internalType": "string",
                    "name": "msg",
                    "type": "string"
                }
            ],
            "name": "InvalidVestingScheduleParameter",
            "type": "error"
        },
        {
            "inputs": [],
            "name": "InvalidZeroAddress",
            "type": "error"
        },
        {
            "inputs": [
                {
                    "internalType": "address",
                    "name": "caller",
                    "type": "address"
                }
            ],
            "name": "Unauthorized",
            "type": "error"
        },
        {
            "inputs": [],
            "name": "UnsufficientVestingScheduleCreatorBalance",
            "type": "error"
        },
        {
            "inputs": [],
            "name": "VestingScheduleIsLocked",
            "type": "error"
        },
        {
            "inputs": [
                {
                    "internalType": "uint256",
                    "name": "index",
                    "type": "uint256"
                }
            ],
            "name": "VestingScheduleNotFound",
            "type": "error"
        },
        {
            "inputs": [],
            "name": "VestingScheduleNotRevocable",
            "type": "error"
        },
        {
            "inputs": [],
            "name": "VestingScheduleNotRevocableInPast",
            "type": "error"
        },
        {
            "inputs": [],
            "name": "ZeroReleasableAmount",
            "type": "error"
        },
        {
            "anonymous": false,
            "inputs": [
                {
                    "indexed": true,
                    "internalType": "address",
                    "name": "owner",
                    "type": "address"
                },
                {
                    "indexed": true,
                    "internalType": "address",
                    "name": "spender",
                    "type": "address"
                },
                {
                    "indexed": false,
                    "internalType": "uint256",
                    "name": "value",
                    "type": "uint256"
                }
            ],
            "name": "Approval",
            "type": "event"
        },
        {
            "anonymous": false,
            "inputs": [
                {
                    "indexed": false,
                    "internalType": "uint256",
                    "name": "index",
                    "type": "uint256"
                },
                {
                    "indexed": true,
                    "internalType": "address",
                    "name": "creator",
                    "type": "address"
                },
                {
                    "indexed": true,
                    "internalType": "address",
                    "name": "beneficiary",
                    "type": "address"
                },
                {
                    "indexed": false,
                    "internalType": "uint256",
                    "name": "amount",
                    "type": "uint256"
                }
            ],
            "name": "CreatedVestingSchedule",
            "type": "event"
        },
        {
            "anonymous": false,
            "inputs": [
                {
                    "indexed": true,
                    "internalType": "address",
                    "name": "delegator",
                    "type": "address"
                },
                {
                    "indexed": true,
                    "internalType": "address",
                    "name": "fromDelegate",
                    "type": "address"
                },
                {
                    "indexed": true,
                    "internalType": "address",
                    "name": "toDelegate",
                    "type": "address"
                }
            ],
            "name": "DelegateChanged",
            "type": "event"
        },
        {
            "anonymous": false,
            "inputs": [
                {
                    "indexed": true,
                    "internalType": "address",
                    "name": "delegate",
                    "type": "address"
                },
                {
                    "indexed": false,
                    "internalType": "uint256",
                    "name": "previousBalance",
                    "type": "uint256"
                },
                {
                    "indexed": false,
                    "internalType": "uint256",
                    "name": "newBalance",
                    "type": "uint256"
                }
            ],
            "name": "DelegateVotesChanged",
            "type": "event"
        },
        {
            "anonymous": false,
            "inputs": [
                {
                    "indexed": false,
                    "internalType": "uint256",
                    "name": "index",
                    "type": "uint256"
                },
                {
                    "indexed": false,
                    "internalType": "address",
                    "name": "oldDelegatee",
                    "type": "address"
                },
                {
                    "indexed": false,
                    "internalType": "address",
                    "name": "newDelegatee",
                    "type": "address"
                }
            ],
            "name": "DelegatedVestingEscrow",
            "type": "event"
        },
        {
            "anonymous": false,
            "inputs": [
                {
                    "indexed": false,
                    "internalType": "uint8",
                    "name": "version",
                    "type": "uint8"
                }
            ],
            "name": "Initialized",
            "type": "event"
        },
        {
            "anonymous": false,
            "inputs": [
                {
                    "indexed": false,
                    "internalType": "uint256",
                    "name": "index",
                    "type": "uint256"
                },
                {
                    "indexed": false,
                    "internalType": "uint256",
                    "name": "releasedAmount",
                    "type": "uint256"
                }
            ],
            "name": "ReleasedVestingSchedule",
            "type": "event"
        },
        {
            "anonymous": false,
            "inputs": [
                {
                    "indexed": false,
                    "internalType": "uint256",
                    "name": "index",
                    "type": "uint256"
                },
                {
                    "indexed": false,
                    "internalType": "uint256",
                    "name": "returnedAmount",
                    "type": "uint256"
                }
            ],
            "name": "RevokedVestingSchedule",
            "type": "event"
        },
        {
            "anonymous": false,
            "inputs": [
                {
                    "indexed": true,
                    "internalType": "address",
                    "name": "from",
                    "type": "address"
                },
                {
                    "indexed": true,
                    "internalType": "address",
                    "name": "to",
                    "type": "address"
                },
                {
                    "indexed": false,
                    "internalType": "uint256",
                    "name": "value",
                    "type": "uint256"
                }
            ],
            "name": "Transfer",
            "type": "event"
        },
        {
            "inputs": [],
            "name": "DOMAIN_SEPARATOR",
            "outputs": [
                {
                    "internalType": "bytes32",
                    "name": "",
                    "type": "bytes32"
                }
            ],
            "stateMutability": "view",
            "type": "function"
        },
        {
            "inputs": [
                {
                    "internalType": "address",
                    "name": "owner",
                    "type": "address"
                },
                {
                    "internalType": "address",
                    "name": "spender",
                    "type": "address"
                }
            ],
            "name": "allowance",
            "outputs": [
                {
                    "internalType": "uint256",
                    "name": "",
                    "type": "uint256"
                }
            ],
            "stateMutability": "view",
            "type": "function"
        },
        {
            "inputs": [
                {
                    "internalType": "address",
                    "name": "spender",
                    "type": "address"
                },
                {
                    "internalType": "uint256",
                    "name": "amount",
                    "type": "uint256"
                }
            ],
            "name": "approve",
            "outputs": [
                {
                    "internalType": "bool",
                    "name": "",
                    "type": "bool"
                }
            ],
            "stateMutability": "nonpayable",
            "type": "function"
        },
        {
            "inputs": [
                {
                    "internalType": "address",
                    "name": "account",
                    "type": "address"
                }
            ],
            "name": "balanceOf",
            "outputs": [
                {
                    "internalType": "uint256",
                    "name": "",
                    "type": "uint256"
                }
            ],
            "stateMutability": "view",
            "type": "function"
        },
        {
            "inputs": [
                {
                    "internalType": "address",
                    "name": "account",
                    "type": "address"
                },
                {
                    "internalType": "uint32",
                    "name": "pos",
                    "type": "uint32"
                }
            ],
            "name": "checkpoints",
            "outputs": [
                {
                    "components": [
                        {
                            "internalType": "uint32",
                            "name": "fromBlock",
                            "type": "uint32"
                        },
                        {
                            "internalType": "uint224",
                            "name": "votes",
                            "type": "uint224"
                        }
                    ],
                    "internalType": "struct ERC20VotesUpgradeable.Checkpoint",
                    "name": "",
                    "type": "tuple"
                }
            ],
            "stateMutability": "view",
            "type": "function"
        },
        {
            "inputs": [
                {
                    "internalType": "uint256",
                    "name": "_index",
                    "type": "uint256"
                }
            ],
            "name": "computeVestingReleasableAmount",
            "outputs": [
                {
                    "internalType": "uint256",
                    "name": "",
                    "type": "uint256"
                }
            ],
            "stateMutability": "view",
            "type": "function"
        },
        {
            "inputs": [
                {
                    "internalType": "uint256",
                    "name": "_index",
                    "type": "uint256"
                }
            ],
            "name": "computeVestingVestedAmount",
            "outputs": [
                {
                    "internalType": "uint256",
                    "name": "",
                    "type": "uint256"
                }
            ],
            "stateMutability": "view",
            "type": "function"
        },
        {
            "inputs": [
                {
                    "internalType": "uint64",
                    "name": "_start",
                    "type": "uint64"
                },
                {
                    "internalType": "uint32",
                    "name": "_cliffDuration",
                    "type": "uint32"
                },
                {
                    "internalType": "uint32",
                    "name": "_duration",
                    "type": "uint32"
                },
                {
                    "internalType": "uint32",
                    "name": "_period",
                    "type": "uint32"
                },
                {
                    "internalType": "uint32",
                    "name": "_lockDuration",
                    "type": "uint32"
                },
                {
                    "internalType": "bool",
                    "name": "_revocable",
                    "type": "bool"
                },
                {
                    "internalType": "uint256",
                    "name": "_amount",
                    "type": "uint256"
                },
                {
                    "internalType": "address",
                    "name": "_beneficiary",
                    "type": "address"
                },
                {
                    "internalType": "address",
                    "name": "_delegatee",
                    "type": "address"
                }
            ],
            "name": "createVestingSchedule",
            "outputs": [
                {
                    "internalType": "uint256",
                    "name": "",
                    "type": "uint256"
                }
            ],
            "stateMutability": "nonpayable",
            "type": "function"
        },
        {
            "inputs": [],
            "name": "decimals",
            "outputs": [
                {
                    "internalType": "uint8",
                    "name": "",
                    "type": "uint8"
                }
            ],
            "stateMutability": "view",
            "type": "function"
        },
        {
            "inputs": [
                {
                    "internalType": "address",
                    "name": "spender",
                    "type": "address"
                },
                {
                    "internalType": "uint256",
                    "name": "subtractedValue",
                    "type": "uint256"
                }
            ],
            "name": "decreaseAllowance",
            "outputs": [
                {
                    "internalType": "bool",
                    "name": "",
                    "type": "bool"
                }
            ],
            "stateMutability": "nonpayable",
            "type": "function"
        },
        {
            "inputs": [
                {
                    "internalType": "address",
                    "name": "delegatee",
                    "type": "address"
                }
            ],
            "name": "delegate",
            "outputs": [],
            "stateMutability": "nonpayable",
            "type": "function"
        },
        {
            "inputs": [
                {
                    "internalType": "address",
                    "name": "delegatee",
                    "type": "address"
                },
                {
                    "internalType": "uint256",
                    "name": "nonce",
                    "type": "uint256"
                },
                {
                    "internalType": "uint256",
                    "name": "expiry",
                    "type": "uint256"
                },
                {
                    "internalType": "uint8",
                    "name": "v",
                    "type": "uint8"
                },
                {
                    "internalType": "bytes32",
                    "name": "r",
                    "type": "bytes32"
                },
                {
                    "internalType": "bytes32",
                    "name": "s",
                    "type": "bytes32"
                }
            ],
            "name": "delegateBySig",
            "outputs": [],
            "stateMutability": "nonpayable",
            "type": "function"
        },
        {
            "inputs": [
                {
                    "internalType": "uint256",
                    "name": "_index",
                    "type": "uint256"
                },
                {
                    "internalType": "address",
                    "name": "_delegatee",
                    "type": "address"
                }
            ],
            "name": "delegateVestingEscrow",
            "outputs": [
                {
                    "internalType": "bool",
                    "name": "",
                    "type": "bool"
                }
            ],
            "stateMutability": "nonpayable",
            "type": "function"
        },
        {
            "inputs": [
                {
                    "internalType": "address",
                    "name": "account",
                    "type": "address"
                }
            ],
            "name": "delegates",
            "outputs": [
                {
                    "internalType": "address",
                    "name": "",
                    "type": "address"
                }
            ],
            "stateMutability": "view",
            "type": "function"
        },
        {
            "inputs": [
                {
                    "internalType": "uint256",
                    "name": "blockNumber",
                    "type": "uint256"
                }
            ],
            "name": "getPastTotalSupply",
            "outputs": [
                {
                    "internalType": "uint256",
                    "name": "",
                    "type": "uint256"
                }
            ],
            "stateMutability": "view",
            "type": "function"
        },
        {
            "inputs": [
                {
                    "internalType": "address",
                    "name": "account",
                    "type": "address"
                },
                {
                    "internalType": "uint256",
                    "name": "blockNumber",
                    "type": "uint256"
                }
            ],
            "name": "getPastVotes",
            "outputs": [
                {
                    "internalType": "uint256",
                    "name": "",
                    "type": "uint256"
                }
            ],
            "stateMutability": "view",
            "type": "function"
        },
        {
            "inputs": [
                {
                    "internalType": "uint256",
                    "name": "_index",
                    "type": "uint256"
                }
            ],
            "name": "getVestingSchedule",
            "outputs": [
                {
                    "components": [
                        {
                            "internalType": "uint64",
                            "name": "start",
                            "type": "uint64"
                        },
                        {
                            "internalType": "uint64",
                            "name": "end",
                            "type": "uint64"
                        },
                        {
                            "internalType": "uint32",
                            "name": "cliffDuration",
                            "type": "uint32"
                        },
                        {
                            "internalType": "uint32",
                            "name": "lockDuration",
                            "type": "uint32"
                        },
                        {
                            "internalType": "uint32",
                            "name": "duration",
                            "type": "uint32"
                        },
                        {
                            "internalType": "uint32",
                            "name": "period",
                            "type": "uint32"
                        },
                        {
                            "internalType": "uint256",
                            "name": "amount",
                            "type": "uint256"
                        },
                        {
                            "internalType": "address",
                            "name": "creator",
                            "type": "address"
                        },
                        {
                            "internalType": "address",
                            "name": "beneficiary",
                            "type": "address"
                        },
                        {
                            "internalType": "bool",
                            "name": "revocable",
                            "type": "bool"
                        }
                    ],
                    "internalType": "struct VestingSchedules.VestingSchedule",
                    "name": "",
                    "type": "tuple"
                }
            ],
            "stateMutability": "view",
            "type": "function"
        },
        {
            "inputs": [],
            "name": "getVestingScheduleCount",
            "outputs": [
                {
                    "internalType": "uint256",
                    "name": "",
                    "type": "uint256"
                }
            ],
            "stateMutability": "view",
            "type": "function"
        },
        {
            "inputs": [
                {
                    "internalType": "address",
                    "name": "account",
                    "type": "address"
                }
            ],
            "name": "getVotes",
            "outputs": [
                {
                    "internalType": "uint256",
                    "name": "",
                    "type": "uint256"
                }
            ],
            "stateMutability": "view",
            "type": "function"
        },
        {
            "inputs": [
                {
                    "internalType": "address",
                    "name": "spender",
                    "type": "address"
                },
                {
                    "internalType": "uint256",
                    "name": "addedValue",
                    "type": "uint256"
                }
            ],
            "name": "increaseAllowance",
            "outputs": [
                {
                    "internalType": "bool",
                    "name": "",
                    "type": "bool"
                }
            ],
            "stateMutability": "nonpayable",
            "type": "function"
        },
        {
            "inputs": [
                {
                    "internalType": "address",
                    "name": "_account",
                    "type": "address"
                }
            ],
            "name": "initTLCV1",
            "outputs": [],
            "stateMutability": "nonpayable",
            "type": "function"
        },
        {
            "inputs": [],
            "name": "name",
            "outputs": [
                {
                    "internalType": "string",
                    "name": "",
                    "type": "string"
                }
            ],
            "stateMutability": "view",
            "type": "function"
        },
        {
            "inputs": [
                {
                    "internalType": "address",
                    "name": "owner",
                    "type": "address"
                }
            ],
            "name": "nonces",
            "outputs": [
                {
                    "internalType": "uint256",
                    "name": "",
                    "type": "uint256"
                }
            ],
            "stateMutability": "view",
            "type": "function"
        },
        {
            "inputs": [
                {
                    "internalType": "address",
                    "name": "account",
                    "type": "address"
                }
            ],
            "name": "numCheckpoints",
            "outputs": [
                {
                    "internalType": "uint32",
                    "name": "",
                    "type": "uint32"
                }
            ],
            "stateMutability": "view",
            "type": "function"
        },
        {
            "inputs": [
                {
                    "internalType": "address",
                    "name": "owner",
                    "type": "address"
                },
                {
                    "internalType": "address",
                    "name": "spender",
                    "type": "address"
                },
                {
                    "internalType": "uint256",
                    "name": "value",
                    "type": "uint256"
                },
                {
                    "internalType": "uint256",
                    "name": "deadline",
                    "type": "uint256"
                },
                {
                    "internalType": "uint8",
                    "name": "v",
                    "type": "uint8"
                },
                {
                    "internalType": "bytes32",
                    "name": "r",
                    "type": "bytes32"
                },
                {
                    "internalType": "bytes32",
                    "name": "s",
                    "type": "bytes32"
                }
            ],
            "name": "permit",
            "outputs": [],
            "stateMutability": "nonpayable",
            "type": "function"
        },
        {
            "inputs": [
                {
                    "internalType": "uint256",
                    "name": "_index",
                    "type": "uint256"
                }
            ],
            "name": "releaseVestingSchedule",
            "outputs": [
                {
                    "internalType": "uint256",
                    "name": "",
                    "type": "uint256"
                }
            ],
            "stateMutability": "nonpayable",
            "type": "function"
        },
        {
            "inputs": [
                {
                    "internalType": "uint256",
                    "name": "_index",
                    "type": "uint256"
                },
                {
                    "internalType": "uint64",
                    "name": "_end",
                    "type": "uint64"
                }
            ],
            "name": "revokeVestingSchedule",
            "outputs": [
                {
                    "internalType": "uint256",
                    "name": "",
                    "type": "uint256"
                }
            ],
            "stateMutability": "nonpayable",
            "type": "function"
        },
        {
            "inputs": [],
            "name": "symbol",
            "outputs": [
                {
                    "internalType": "string",
                    "name": "",
                    "type": "string"
                }
            ],
            "stateMutability": "view",
            "type": "function"
        },
        {
            "inputs": [],
            "name": "totalSupply",
            "outputs": [
                {
                    "internalType": "uint256",
                    "name": "",
                    "type": "uint256"
                }
            ],
            "stateMutability": "view",
            "type": "function"
        },
        {
            "inputs": [
                {
                    "internalType": "address",
                    "name": "to",
                    "type": "address"
                },
                {
                    "internalType": "uint256",
                    "name": "amount",
                    "type": "uint256"
                }
            ],
            "name": "transfer",
            "outputs": [
                {
                    "internalType": "bool",
                    "name": "",
                    "type": "bool"
                }
            ],
            "stateMutability": "nonpayable",
            "type": "function"
        },
        {
            "inputs": [
                {
                    "internalType": "address",
                    "name": "from",
                    "type": "address"
                },
                {
                    "internalType": "address",
                    "name": "to",
                    "type": "address"
                },
                {
                    "internalType": "uint256",
                    "name": "amount",
                    "type": "uint256"
                }
            ],
            "name": "transferFrom",
            "outputs": [
                {
                    "internalType": "bool",
                    "name": "",
                    "type": "bool"
                }
            ],
            "stateMutability": "nonpayable",
            "type": "function"
        },
        {
            "inputs": [
                {
                    "internalType": "uint256",
                    "name": "_index",
                    "type": "uint256"
                }
            ],
            "name": "vestingEscrow",
            "outputs": [
                {
                    "internalType": "address",
                    "name": "",
                    "type": "address"
                }
            ],
            "stateMutability": "view",
            "type": "function"
        },
        {
            "inputs": [],
            "name": "InvalidRevokedVestingScheduleEnd",
            "type": "error"
        },
        {
            "inputs": [
                {
                    "internalType": "string",
                    "name": "msg",
                    "type": "string"
                }
            ],
            "name": "InvalidVestingScheduleParameter",
            "type": "error"
        },
        {
            "inputs": [],
            "name": "InvalidZeroAddress",
            "type": "error"
        },
        {
            "inputs": [
                {
                    "internalType": "address",
                    "name": "caller",
                    "type": "address"
                }
            ],
            "name": "Unauthorized",
            "type": "error"
        },
        {
            "inputs": [],
            "name": "UnsufficientVestingScheduleCreatorBalance",
            "type": "error"
        },
        {
            "inputs": [],
            "name": "VestingScheduleIsLocked",
            "type": "error"
        },
        {
            "inputs": [
                {
                    "internalType": "uint256",
                    "name": "index",
                    "type": "uint256"
                }
            ],
            "name": "VestingScheduleNotFound",
            "type": "error"
        },
        {
            "inputs": [
                {
                    "internalType": "uint256",
                    "name": "index",
                    "type": "uint256"
                }
            ],
            "name": "VestingScheduleNotFound",
            "type": "error"
        },
        {
            "inputs": [],
            "name": "VestingScheduleNotRevocable",
            "type": "error"
        },
        {
            "inputs": [],
            "name": "VestingScheduleNotRevocableInPast",
            "type": "error"
        },
        {
            "inputs": [],
            "name": "ZeroReleasableAmount",
            "type": "error"
        },
        {
            "anonymous": false,
            "inputs": [
                {
                    "indexed": true,
                    "internalType": "address",
                    "name": "owner",
                    "type": "address"
                },
                {
                    "indexed": true,
                    "internalType": "address",
                    "name": "spender",
                    "type": "address"
                },
                {
                    "indexed": false,
                    "internalType": "uint256",
                    "name": "value",
                    "type": "uint256"
                }
            ],
            "name": "Approval",
            "type": "event"
        },
        {
            "anonymous": false,
            "inputs": [
                {
                    "indexed": false,
                    "internalType": "uint256",
                    "name": "index",
                    "type": "uint256"
                },
                {
                    "indexed": true,
                    "internalType": "address",
                    "name": "creator",
                    "type": "address"
                },
                {
                    "indexed": true,
                    "internalType": "address",
                    "name": "beneficiary",
                    "type": "address"
                },
                {
                    "indexed": false,
                    "internalType": "uint256",
                    "name": "amount",
                    "type": "uint256"
                }
            ],
            "name": "CreatedVestingSchedule",
            "type": "event"
        },
        {
            "anonymous": false,
            "inputs": [
                {
                    "indexed": true,
                    "internalType": "address",
                    "name": "delegator",
                    "type": "address"
                },
                {
                    "indexed": true,
                    "internalType": "address",
                    "name": "fromDelegate",
                    "type": "address"
                },
                {
                    "indexed": true,
                    "internalType": "address",
                    "name": "toDelegate",
                    "type": "address"
                }
            ],
            "name": "DelegateChanged",
            "type": "event"
        },
        {
            "anonymous": false,
            "inputs": [
                {
                    "indexed": true,
                    "internalType": "address",
                    "name": "delegate",
                    "type": "address"
                },
                {
                    "indexed": false,
                    "internalType": "uint256",
                    "name": "previousBalance",
                    "type": "uint256"
                },
                {
                    "indexed": false,
                    "internalType": "uint256",
                    "name": "newBalance",
                    "type": "uint256"
                }
            ],
            "name": "DelegateVotesChanged",
            "type": "event"
        },
        {
            "anonymous": false,
            "inputs": [
                {
                    "indexed": false,
                    "internalType": "uint256",
                    "name": "index",
                    "type": "uint256"
                },
                {
                    "indexed": true,
                    "internalType": "address",
                    "name": "oldDelegatee",
                    "type": "address"
                },
                {
                    "indexed": true,
                    "internalType": "address",
                    "name": "newDelegatee",
                    "type": "address"
                },
                {
                    "indexed": true,
                    "internalType": "address",
                    "name": "beneficiary",
                    "type": "address"
                }
            ],
            "name": "DelegatedVestingEscrow",
            "type": "event"
        },
        {
            "anonymous": false,
            "inputs": [
                {
                    "indexed": false,
                    "internalType": "uint8",
                    "name": "version",
                    "type": "uint8"
                }
            ],
            "name": "Initialized",
            "type": "event"
        },
        {
            "anonymous": false,
            "inputs": [
                {
                    "indexed": false,
                    "internalType": "uint256",
                    "name": "index",
                    "type": "uint256"
                },
                {
                    "indexed": false,
                    "internalType": "uint256",
                    "name": "releasedAmount",
                    "type": "uint256"
                }
            ],
            "name": "ReleasedVestingSchedule",
            "type": "event"
        },
        {
            "anonymous": false,
            "inputs": [
                {
                    "indexed": false,
                    "internalType": "uint256",
                    "name": "index",
                    "type": "uint256"
                },
                {
                    "indexed": false,
                    "internalType": "uint256",
                    "name": "returnedAmount",
                    "type": "uint256"
                },
                {
                    "indexed": false,
                    "internalType": "uint256",
                    "name": "newEnd",
                    "type": "uint256"
                }
            ],
            "name": "RevokedVestingSchedule",
            "type": "event"
        },
        {
            "anonymous": false,
            "inputs": [
                {
                    "indexed": true,
                    "internalType": "address",
                    "name": "from",
                    "type": "address"
                },
                {
                    "indexed": true,
                    "internalType": "address",
                    "name": "to",
                    "type": "address"
                },
                {
                    "indexed": false,
                    "internalType": "uint256",
                    "name": "value",
                    "type": "uint256"
                }
            ],
            "name": "Transfer",
            "type": "event"
        },
        {
            "inputs": [],
            "name": "DOMAIN_SEPARATOR",
            "outputs": [
                {
                    "internalType": "bytes32",
                    "name": "",
                    "type": "bytes32"
                }
            ],
            "stateMutability": "view",
            "type": "function"
        },
        {
            "inputs": [
                {
                    "internalType": "address",
                    "name": "owner",
                    "type": "address"
                },
                {
                    "internalType": "address",
                    "name": "spender",
                    "type": "address"
                }
            ],
            "name": "allowance",
            "outputs": [
                {
                    "internalType": "uint256",
                    "name": "",
                    "type": "uint256"
                }
            ],
            "stateMutability": "view",
            "type": "function"
        },
        {
            "inputs": [
                {
                    "internalType": "address",
                    "name": "spender",
                    "type": "address"
                },
                {
                    "internalType": "uint256",
                    "name": "amount",
                    "type": "uint256"
                }
            ],
            "name": "approve",
            "outputs": [
                {
                    "internalType": "bool",
                    "name": "",
                    "type": "bool"
                }
            ],
            "stateMutability": "nonpayable",
            "type": "function"
        },
        {
            "inputs": [
                {
                    "internalType": "address",
                    "name": "account",
                    "type": "address"
                }
            ],
            "name": "balanceOf",
            "outputs": [
                {
                    "internalType": "uint256",
                    "name": "",
                    "type": "uint256"
                }
            ],
            "stateMutability": "view",
            "type": "function"
        },
        {
            "inputs": [
                {
                    "internalType": "address",
                    "name": "account",
                    "type": "address"
                },
                {
                    "internalType": "uint32",
                    "name": "pos",
                    "type": "uint32"
                }
            ],
            "name": "checkpoints",
            "outputs": [
                {
                    "components": [
                        {
                            "internalType": "uint32",
                            "name": "fromBlock",
                            "type": "uint32"
                        },
                        {
                            "internalType": "uint224",
                            "name": "votes",
                            "type": "uint224"
                        }
                    ],
                    "internalType": "struct ERC20VotesUpgradeable.Checkpoint",
                    "name": "",
                    "type": "tuple"
                }
            ],
            "stateMutability": "view",
            "type": "function"
        },
        {
            "inputs": [
                {
                    "internalType": "uint256",
                    "name": "_index",
                    "type": "uint256"
                }
            ],
            "name": "computeVestingReleasableAmount",
            "outputs": [
                {
                    "internalType": "uint256",
                    "name": "",
                    "type": "uint256"
                }
            ],
            "stateMutability": "view",
            "type": "function"
        },
        {
            "inputs": [
                {
                    "internalType": "uint256",
                    "name": "_index",
                    "type": "uint256"
                }
            ],
            "name": "computeVestingVestedAmount",
            "outputs": [
                {
                    "internalType": "uint256",
                    "name": "",
                    "type": "uint256"
                }
            ],
            "stateMutability": "view",
            "type": "function"
        },
        {
            "inputs": [
                {
                    "internalType": "uint64",
                    "name": "_start",
                    "type": "uint64"
                },
                {
                    "internalType": "uint32",
                    "name": "_cliffDuration",
                    "type": "uint32"
                },
                {
                    "internalType": "uint32",
                    "name": "_duration",
                    "type": "uint32"
                },
                {
                    "internalType": "uint32",
                    "name": "_periodDuration",
                    "type": "uint32"
                },
                {
                    "internalType": "uint32",
                    "name": "_lockDuration",
                    "type": "uint32"
                },
                {
                    "internalType": "bool",
                    "name": "_revocable",
                    "type": "bool"
                },
                {
                    "internalType": "uint256",
                    "name": "_amount",
                    "type": "uint256"
                },
                {
                    "internalType": "address",
                    "name": "_beneficiary",
                    "type": "address"
                },
                {
                    "internalType": "address",
                    "name": "_delegatee",
                    "type": "address"
                }
            ],
            "name": "createVestingSchedule",
            "outputs": [
                {
                    "internalType": "uint256",
                    "name": "",
                    "type": "uint256"
                }
            ],
            "stateMutability": "nonpayable",
            "type": "function"
        },
        {
            "inputs": [],
            "name": "decimals",
            "outputs": [
                {
                    "internalType": "uint8",
                    "name": "",
                    "type": "uint8"
                }
            ],
            "stateMutability": "view",
            "type": "function"
        },
        {
            "inputs": [
                {
                    "internalType": "address",
                    "name": "spender",
                    "type": "address"
                },
                {
                    "internalType": "uint256",
                    "name": "subtractedValue",
                    "type": "uint256"
                }
            ],
            "name": "decreaseAllowance",
            "outputs": [
                {
                    "internalType": "bool",
                    "name": "",
                    "type": "bool"
                }
            ],
            "stateMutability": "nonpayable",
            "type": "function"
        },
        {
            "inputs": [
                {
                    "internalType": "address",
                    "name": "delegatee",
                    "type": "address"
                }
            ],
            "name": "delegate",
            "outputs": [],
            "stateMutability": "nonpayable",
            "type": "function"
        },
        {
            "inputs": [
                {
                    "internalType": "address",
                    "name": "delegatee",
                    "type": "address"
                },
                {
                    "internalType": "uint256",
                    "name": "nonce",
                    "type": "uint256"
                },
                {
                    "internalType": "uint256",
                    "name": "expiry",
                    "type": "uint256"
                },
                {
                    "internalType": "uint8",
                    "name": "v",
                    "type": "uint8"
                },
                {
                    "internalType": "bytes32",
                    "name": "r",
                    "type": "bytes32"
                },
                {
                    "internalType": "bytes32",
                    "name": "s",
                    "type": "bytes32"
                }
            ],
            "name": "delegateBySig",
            "outputs": [],
            "stateMutability": "nonpayable",
            "type": "function"
        },
        {
            "inputs": [
                {
                    "internalType": "uint256",
                    "name": "_index",
                    "type": "uint256"
                },
                {
                    "internalType": "address",
                    "name": "_delegatee",
                    "type": "address"
                }
            ],
            "name": "delegateVestingEscrow",
            "outputs": [
                {
                    "internalType": "bool",
                    "name": "",
                    "type": "bool"
                }
            ],
            "stateMutability": "nonpayable",
            "type": "function"
        },
        {
            "inputs": [
                {
                    "internalType": "address",
                    "name": "account",
                    "type": "address"
                }
            ],
            "name": "delegates",
            "outputs": [
                {
                    "internalType": "address",
                    "name": "",
                    "type": "address"
                }
            ],
            "stateMutability": "view",
            "type": "function"
        },
        {
            "inputs": [
                {
                    "internalType": "uint256",
                    "name": "blockNumber",
                    "type": "uint256"
                }
            ],
            "name": "getPastTotalSupply",
            "outputs": [
                {
                    "internalType": "uint256",
                    "name": "",
                    "type": "uint256"
                }
            ],
            "stateMutability": "view",
            "type": "function"
        },
        {
            "inputs": [
                {
                    "internalType": "address",
                    "name": "account",
                    "type": "address"
                },
                {
                    "internalType": "uint256",
                    "name": "blockNumber",
                    "type": "uint256"
                }
            ],
            "name": "getPastVotes",
            "outputs": [
                {
                    "internalType": "uint256",
                    "name": "",
                    "type": "uint256"
                }
            ],
            "stateMutability": "view",
            "type": "function"
        },
        {
            "inputs": [
                {
                    "internalType": "uint256",
                    "name": "_index",
                    "type": "uint256"
                }
            ],
            "name": "getVestingSchedule",
            "outputs": [
                {
                    "components": [
                        {
                            "internalType": "uint64",
                            "name": "start",
                            "type": "uint64"
                        },
                        {
                            "internalType": "uint64",
                            "name": "end",
                            "type": "uint64"
                        },
                        {
                            "internalType": "uint32",
                            "name": "cliffDuration",
                            "type": "uint32"
                        },
                        {
                            "internalType": "uint32",
                            "name": "lockDuration",
                            "type": "uint32"
                        },
                        {
                            "internalType": "uint32",
                            "name": "duration",
                            "type": "uint32"
                        },
                        {
                            "internalType": "uint32",
                            "name": "periodDuration",
                            "type": "uint32"
                        },
                        {
                            "internalType": "uint256",
                            "name": "amount",
                            "type": "uint256"
                        },
                        {
                            "internalType": "address",
                            "name": "creator",
                            "type": "address"
                        },
                        {
                            "internalType": "address",
                            "name": "beneficiary",
                            "type": "address"
                        },
                        {
                            "internalType": "bool",
                            "name": "revocable",
                            "type": "bool"
                        },
                        {
                            "internalType": "uint256",
                            "name": "releasedAmount",
                            "type": "uint256"
                        }
                    ],
                    "internalType": "struct VestingSchedulesV2.VestingSchedule",
                    "name": "",
                    "type": "tuple"
                }
            ],
            "stateMutability": "view",
            "type": "function"
        },
        {
            "inputs": [],
            "name": "getVestingScheduleCount",
            "outputs": [
                {
                    "internalType": "uint256",
                    "name": "",
                    "type": "uint256"
                }
            ],
            "stateMutability": "view",
            "type": "function"
        },
        {
            "inputs": [
                {
                    "internalType": "address",
                    "name": "account",
                    "type": "address"
                }
            ],
            "name": "getVotes",
            "outputs": [
                {
                    "internalType": "uint256",
                    "name": "",
                    "type": "uint256"
                }
            ],
            "stateMutability": "view",
            "type": "function"
        },
        {
            "inputs": [
                {
                    "internalType": "address",
                    "name": "spender",
                    "type": "address"
                },
                {
                    "internalType": "uint256",
                    "name": "addedValue",
                    "type": "uint256"
                }
            ],
            "name": "increaseAllowance",
            "outputs": [
                {
                    "internalType": "bool",
                    "name": "",
                    "type": "bool"
                }
            ],
            "stateMutability": "nonpayable",
            "type": "function"
        },
        {
            "inputs": [
                {
                    "internalType": "address",
                    "name": "_account",
                    "type": "address"
                }
            ],
            "name": "initTLCV1",
            "outputs": [],
            "stateMutability": "nonpayable",
            "type": "function"
        },
        {
            "inputs": [],
            "name": "migrateVestingSchedules",
            "outputs": [],
            "stateMutability": "nonpayable",
            "type": "function"
        },
        {
            "inputs": [],
            "name": "name",
            "outputs": [
                {
                    "internalType": "string",
                    "name": "",
                    "type": "string"
                }
            ],
            "stateMutability": "view",
            "type": "function"
        },
        {
            "inputs": [
                {
                    "internalType": "address",
                    "name": "owner",
                    "type": "address"
                }
            ],
            "name": "nonces",
            "outputs": [
                {
                    "internalType": "uint256",
                    "name": "",
                    "type": "uint256"
                }
            ],
            "stateMutability": "view",
            "type": "function"
        },
        {
            "inputs": [
                {
                    "internalType": "address",
                    "name": "account",
                    "type": "address"
                }
            ],
            "name": "numCheckpoints",
            "outputs": [
                {
                    "internalType": "uint32",
                    "name": "",
                    "type": "uint32"
                }
            ],
            "stateMutability": "view",
            "type": "function"
        },
        {
            "inputs": [
                {
                    "internalType": "address",
                    "name": "owner",
                    "type": "address"
                },
                {
                    "internalType": "address",
                    "name": "spender",
                    "type": "address"
                },
                {
                    "internalType": "uint256",
                    "name": "value",
                    "type": "uint256"
                },
                {
                    "internalType": "uint256",
                    "name": "deadline",
                    "type": "uint256"
                },
                {
                    "internalType": "uint8",
                    "name": "v",
                    "type": "uint8"
                },
                {
                    "internalType": "bytes32",
                    "name": "r",
                    "type": "bytes32"
                },
                {
                    "internalType": "bytes32",
                    "name": "s",
                    "type": "bytes32"
                }
            ],
            "name": "permit",
            "outputs": [],
            "stateMutability": "nonpayable",
            "type": "function"
        },
        {
            "inputs": [
                {
                    "internalType": "uint256",
                    "name": "_index",
                    "type": "uint256"
                }
            ],
            "name": "releaseVestingSchedule",
            "outputs": [
                {
                    "internalType": "uint256",
                    "name": "",
                    "type": "uint256"
                }
            ],
            "stateMutability": "nonpayable",
            "type": "function"
        },
        {
            "inputs": [
                {
                    "internalType": "uint256",
                    "name": "_index",
                    "type": "uint256"
                },
                {
                    "internalType": "uint64",
                    "name": "_end",
                    "type": "uint64"
                }
            ],
            "name": "revokeVestingSchedule",
            "outputs": [
                {
                    "internalType": "uint256",
                    "name": "",
                    "type": "uint256"
                }
            ],
            "stateMutability": "nonpayable",
            "type": "function"
        },
        {
            "inputs": [],
            "name": "symbol",
            "outputs": [
                {
                    "internalType": "string",
                    "name": "",
                    "type": "string"
                }
            ],
            "stateMutability": "view",
            "type": "function"
        },
        {
            "inputs": [],
            "name": "totalSupply",
            "outputs": [
                {
                    "internalType": "uint256",
                    "name": "",
                    "type": "uint256"
                }
            ],
            "stateMutability": "view",
            "type": "function"
        },
        {
            "inputs": [
                {
                    "internalType": "address",
                    "name": "to",
                    "type": "address"
                },
                {
                    "internalType": "uint256",
                    "name": "amount",
                    "type": "uint256"
                }
            ],
            "name": "transfer",
            "outputs": [
                {
                    "internalType": "bool",
                    "name": "",
                    "type": "bool"
                }
            ],
            "stateMutability": "nonpayable",
            "type": "function"
        },
        {
            "inputs": [
                {
                    "internalType": "address",
                    "name": "from",
                    "type": "address"
                },
                {
                    "internalType": "address",
                    "name": "to",
                    "type": "address"
                },
                {
                    "internalType": "uint256",
                    "name": "amount",
                    "type": "uint256"
                }
            ],
            "name": "transferFrom",
            "outputs": [
                {
                    "internalType": "bool",
                    "name": "",
                    "type": "bool"
                }
            ],
            "stateMutability": "nonpayable",
            "type": "function"
        },
        {
            "inputs": [
                {
                    "internalType": "uint256",
                    "name": "_index",
                    "type": "uint256"
                }
            ],
            "name": "vestingEscrow",
            "outputs": [
                {
                    "internalType": "address",
                    "name": "",
                    "type": "address"
                }
            ],
            "stateMutability": "view",
            "type": "function"
        },
        {
            "inputs": [],
            "stateMutability": "nonpayable",
            "type": "constructor"
        },
        {
            "inputs": [],
            "name": "InvalidRevokedVestingScheduleEnd",
            "type": "error"
        },
        {
            "inputs": [
                {
                    "internalType": "string",
                    "name": "msg",
                    "type": "string"
                }
            ],
            "name": "InvalidVestingScheduleParameter",
            "type": "error"
        },
        {
            "inputs": [],
            "name": "InvalidZeroAddress",
            "type": "error"
        },
        {
            "inputs": [
                {
                    "internalType": "address",
                    "name": "caller",
                    "type": "address"
                }
            ],
            "name": "Unauthorized",
            "type": "error"
        },
        {
            "inputs": [],
            "name": "UnsufficientVestingScheduleCreatorBalance",
            "type": "error"
        },
        {
            "inputs": [],
            "name": "VestingScheduleIsLocked",
            "type": "error"
        },
        {
            "inputs": [
                {
                    "internalType": "uint256",
                    "name": "index",
                    "type": "uint256"
                }
            ],
            "name": "VestingScheduleNotFound",
            "type": "error"
        },
        {
            "inputs": [
                {
                    "internalType": "uint256",
                    "name": "index",
                    "type": "uint256"
                }
            ],
            "name": "VestingScheduleNotFound",
            "type": "error"
        },
        {
            "inputs": [],
            "name": "VestingScheduleNotRevocable",
            "type": "error"
        },
        {
            "inputs": [],
            "name": "VestingScheduleNotRevocableInPast",
            "type": "error"
        },
        {
            "inputs": [],
            "name": "ZeroReleasableAmount",
            "type": "error"
        },
        {
            "anonymous": false,
            "inputs": [
                {
                    "indexed": true,
                    "internalType": "address",
                    "name": "owner",
                    "type": "address"
                },
                {
                    "indexed": true,
                    "internalType": "address",
                    "name": "spender",
                    "type": "address"
                },
                {
                    "indexed": false,
                    "internalType": "uint256",
                    "name": "value",
                    "type": "uint256"
                }
            ],
            "name": "Approval",
            "type": "event"
        },
        {
            "anonymous": false,
            "inputs": [
                {
                    "indexed": false,
                    "internalType": "uint256",
                    "name": "index",
                    "type": "uint256"
                },
                {
                    "indexed": true,
                    "internalType": "address",
                    "name": "creator",
                    "type": "address"
                },
                {
                    "indexed": true,
                    "internalType": "address",
                    "name": "beneficiary",
                    "type": "address"
                },
                {
                    "indexed": false,
                    "internalType": "uint256",
                    "name": "amount",
                    "type": "uint256"
                }
            ],
            "name": "CreatedVestingSchedule",
            "type": "event"
        },
        {
            "anonymous": false,
            "inputs": [
                {
                    "indexed": true,
                    "internalType": "address",
                    "name": "delegator",
                    "type": "address"
                },
                {
                    "indexed": true,
                    "internalType": "address",
                    "name": "fromDelegate",
                    "type": "address"
                },
                {
                    "indexed": true,
                    "internalType": "address",
                    "name": "toDelegate",
                    "type": "address"
                }
            ],
            "name": "DelegateChanged",
            "type": "event"
        },
        {
            "anonymous": false,
            "inputs": [
                {
                    "indexed": true,
                    "internalType": "address",
                    "name": "delegate",
                    "type": "address"
                },
                {
                    "indexed": false,
                    "internalType": "uint256",
                    "name": "previousBalance",
                    "type": "uint256"
                },
                {
                    "indexed": false,
                    "internalType": "uint256",
                    "name": "newBalance",
                    "type": "uint256"
                }
            ],
            "name": "DelegateVotesChanged",
            "type": "event"
        },
        {
            "anonymous": false,
            "inputs": [
                {
                    "indexed": false,
                    "internalType": "uint256",
                    "name": "index",
                    "type": "uint256"
                },
                {
                    "indexed": true,
                    "internalType": "address",
                    "name": "oldDelegatee",
                    "type": "address"
                },
                {
                    "indexed": true,
                    "internalType": "address",
                    "name": "newDelegatee",
                    "type": "address"
                },
                {
                    "indexed": true,
                    "internalType": "address",
                    "name": "beneficiary",
                    "type": "address"
                }
            ],
            "name": "DelegatedVestingEscrow",
            "type": "event"
        },
        {
            "anonymous": false,
            "inputs": [
                {
                    "indexed": false,
                    "internalType": "uint8",
                    "name": "version",
                    "type": "uint8"
                }
            ],
            "name": "Initialized",
            "type": "event"
        },
        {
            "anonymous": false,
            "inputs": [
                {
                    "indexed": false,
                    "internalType": "uint256",
                    "name": "index",
                    "type": "uint256"
                },
                {
                    "indexed": false,
                    "internalType": "uint256",
                    "name": "releasedAmount",
                    "type": "uint256"
                }
            ],
            "name": "ReleasedVestingSchedule",
            "type": "event"
        },
        {
            "anonymous": false,
            "inputs": [
                {
                    "indexed": false,
                    "internalType": "uint256",
                    "name": "index",
                    "type": "uint256"
                },
                {
                    "indexed": false,
                    "internalType": "uint256",
                    "name": "returnedAmount",
                    "type": "uint256"
                },
                {
                    "indexed": false,
                    "internalType": "uint256",
                    "name": "newEnd",
                    "type": "uint256"
                }
            ],
            "name": "RevokedVestingSchedule",
            "type": "event"
        },
        {
            "anonymous": false,
            "inputs": [
                {
                    "indexed": true,
                    "internalType": "address",
                    "name": "from",
                    "type": "address"
                },
                {
                    "indexed": true,
                    "internalType": "address",
                    "name": "to",
                    "type": "address"
                },
                {
                    "indexed": false,
                    "internalType": "uint256",
                    "name": "value",
                    "type": "uint256"
                }
            ],
            "name": "Transfer",
            "type": "event"
        },
        {
            "inputs": [],
            "name": "DOMAIN_SEPARATOR",
            "outputs": [
                {
                    "internalType": "bytes32",
                    "name": "",
                    "type": "bytes32"
                }
            ],
            "stateMutability": "view",
            "type": "function"
        },
        {
            "inputs": [
                {
                    "internalType": "address",
                    "name": "owner",
                    "type": "address"
                },
                {
                    "internalType": "address",
                    "name": "spender",
                    "type": "address"
                }
            ],
            "name": "allowance",
            "outputs": [
                {
                    "internalType": "uint256",
                    "name": "",
                    "type": "uint256"
                }
            ],
            "stateMutability": "view",
            "type": "function"
        },
        {
            "inputs": [
                {
                    "internalType": "address",
                    "name": "spender",
                    "type": "address"
                },
                {
                    "internalType": "uint256",
                    "name": "amount",
                    "type": "uint256"
                }
            ],
            "name": "approve",
            "outputs": [
                {
                    "internalType": "bool",
                    "name": "",
                    "type": "bool"
                }
            ],
            "stateMutability": "nonpayable",
            "type": "function"
        },
        {
            "inputs": [
                {
                    "internalType": "address",
                    "name": "account",
                    "type": "address"
                }
            ],
            "name": "balanceOf",
            "outputs": [
                {
                    "internalType": "uint256",
                    "name": "",
                    "type": "uint256"
                }
            ],
            "stateMutability": "view",
            "type": "function"
        },
        {
            "inputs": [
                {
                    "internalType": "address",
                    "name": "account",
                    "type": "address"
                },
                {
                    "internalType": "uint32",
                    "name": "pos",
                    "type": "uint32"
                }
            ],
            "name": "checkpoints",
            "outputs": [
                {
                    "components": [
                        {
                            "internalType": "uint32",
                            "name": "fromBlock",
                            "type": "uint32"
                        },
                        {
                            "internalType": "uint224",
                            "name": "votes",
                            "type": "uint224"
                        }
                    ],
                    "internalType": "struct ERC20VotesUpgradeable.Checkpoint",
                    "name": "",
                    "type": "tuple"
                }
            ],
            "stateMutability": "view",
            "type": "function"
        },
        {
            "inputs": [
                {
                    "internalType": "uint256",
                    "name": "_index",
                    "type": "uint256"
                }
            ],
            "name": "computeVestingReleasableAmount",
            "outputs": [
                {
                    "internalType": "uint256",
                    "name": "",
                    "type": "uint256"
                }
            ],
            "stateMutability": "view",
            "type": "function"
        },
        {
            "inputs": [
                {
                    "internalType": "uint256",
                    "name": "_index",
                    "type": "uint256"
                }
            ],
            "name": "computeVestingVestedAmount",
            "outputs": [
                {
                    "internalType": "uint256",
                    "name": "",
                    "type": "uint256"
                }
            ],
            "stateMutability": "view",
            "type": "function"
        },
        {
            "inputs": [
                {
                    "internalType": "uint64",
                    "name": "_start",
                    "type": "uint64"
                },
                {
                    "internalType": "uint32",
                    "name": "_cliffDuration",
                    "type": "uint32"
                },
                {
                    "internalType": "uint32",
                    "name": "_duration",
                    "type": "uint32"
                },
                {
                    "internalType": "uint32",
                    "name": "_periodDuration",
                    "type": "uint32"
                },
                {
                    "internalType": "uint32",
                    "name": "_lockDuration",
                    "type": "uint32"
                },
                {
                    "internalType": "bool",
                    "name": "_revocable",
                    "type": "bool"
                },
                {
                    "internalType": "uint256",
                    "name": "_amount",
                    "type": "uint256"
                },
                {
                    "internalType": "address",
                    "name": "_beneficiary",
                    "type": "address"
                },
                {
                    "internalType": "address",
                    "name": "_delegatee",
                    "type": "address"
                }
            ],
            "name": "createVestingSchedule",
            "outputs": [
                {
                    "internalType": "uint256",
                    "name": "",
                    "type": "uint256"
                }
            ],
            "stateMutability": "nonpayable",
            "type": "function"
        },
        {
            "inputs": [],
            "name": "decimals",
            "outputs": [
                {
                    "internalType": "uint8",
                    "name": "",
                    "type": "uint8"
                }
            ],
            "stateMutability": "view",
            "type": "function"
        },
        {
            "inputs": [
                {
                    "internalType": "address",
                    "name": "spender",
                    "type": "address"
                },
                {
                    "internalType": "uint256",
                    "name": "subtractedValue",
                    "type": "uint256"
                }
            ],
            "name": "decreaseAllowance",
            "outputs": [
                {
                    "internalType": "bool",
                    "name": "",
                    "type": "bool"
                }
            ],
            "stateMutability": "nonpayable",
            "type": "function"
        },
        {
            "inputs": [
                {
                    "internalType": "address",
                    "name": "delegatee",
                    "type": "address"
                }
            ],
            "name": "delegate",
            "outputs": [],
            "stateMutability": "nonpayable",
            "type": "function"
        },
        {
            "inputs": [
                {
                    "internalType": "address",
                    "name": "delegatee",
                    "type": "address"
                },
                {
                    "internalType": "uint256",
                    "name": "nonce",
                    "type": "uint256"
                },
                {
                    "internalType": "uint256",
                    "name": "expiry",
                    "type": "uint256"
                },
                {
                    "internalType": "uint8",
                    "name": "v",
                    "type": "uint8"
                },
                {
                    "internalType": "bytes32",
                    "name": "r",
                    "type": "bytes32"
                },
                {
                    "internalType": "bytes32",
                    "name": "s",
                    "type": "bytes32"
                }
            ],
            "name": "delegateBySig",
            "outputs": [],
            "stateMutability": "nonpayable",
            "type": "function"
        },
        {
            "inputs": [
                {
                    "internalType": "uint256",
                    "name": "_index",
                    "type": "uint256"
                },
                {
                    "internalType": "address",
                    "name": "_delegatee",
                    "type": "address"
                }
            ],
            "name": "delegateVestingEscrow",
            "outputs": [
                {
                    "internalType": "bool",
                    "name": "",
                    "type": "bool"
                }
            ],
            "stateMutability": "nonpayable",
            "type": "function"
        },
        {
            "inputs": [
                {
                    "internalType": "address",
                    "name": "account",
                    "type": "address"
                }
            ],
            "name": "delegates",
            "outputs": [
                {
                    "internalType": "address",
                    "name": "",
                    "type": "address"
                }
            ],
            "stateMutability": "view",
            "type": "function"
        },
        {
            "inputs": [
                {
                    "internalType": "uint256",
                    "name": "blockNumber",
                    "type": "uint256"
                }
            ],
            "name": "getPastTotalSupply",
            "outputs": [
                {
                    "internalType": "uint256",
                    "name": "",
                    "type": "uint256"
                }
            ],
            "stateMutability": "view",
            "type": "function"
        },
        {
            "inputs": [
                {
                    "internalType": "address",
                    "name": "account",
                    "type": "address"
                },
                {
                    "internalType": "uint256",
                    "name": "blockNumber",
                    "type": "uint256"
                }
            ],
            "name": "getPastVotes",
            "outputs": [
                {
                    "internalType": "uint256",
                    "name": "",
                    "type": "uint256"
                }
            ],
            "stateMutability": "view",
            "type": "function"
        },
        {
            "inputs": [
                {
                    "internalType": "uint256",
                    "name": "_index",
                    "type": "uint256"
                }
            ],
            "name": "getVestingSchedule",
            "outputs": [
                {
                    "components": [
                        {
                            "internalType": "uint64",
                            "name": "start",
                            "type": "uint64"
                        },
                        {
                            "internalType": "uint64",
                            "name": "end",
                            "type": "uint64"
                        },
                        {
                            "internalType": "uint32",
                            "name": "cliffDuration",
                            "type": "uint32"
                        },
                        {
                            "internalType": "uint32",
                            "name": "lockDuration",
                            "type": "uint32"
                        },
                        {
                            "internalType": "uint32",
                            "name": "duration",
                            "type": "uint32"
                        },
                        {
                            "internalType": "uint32",
                            "name": "periodDuration",
                            "type": "uint32"
                        },
                        {
                            "internalType": "uint256",
                            "name": "amount",
                            "type": "uint256"
                        },
                        {
                            "internalType": "address",
                            "name": "creator",
                            "type": "address"
                        },
                        {
                            "internalType": "address",
                            "name": "beneficiary",
                            "type": "address"
                        },
                        {
                            "internalType": "bool",
                            "name": "revocable",
                            "type": "bool"
                        },
                        {
                            "internalType": "uint256",
                            "name": "releasedAmount",
                            "type": "uint256"
                        }
                    ],
                    "internalType": "struct VestingSchedulesV2.VestingSchedule",
                    "name": "",
                    "type": "tuple"
                }
            ],
            "stateMutability": "view",
            "type": "function"
        },
        {
            "inputs": [],
            "name": "getVestingScheduleCount",
            "outputs": [
                {
                    "internalType": "uint256",
                    "name": "",
                    "type": "uint256"
                }
            ],
            "stateMutability": "view",
            "type": "function"
        },
        {
            "inputs": [
                {
                    "internalType": "address",
                    "name": "account",
                    "type": "address"
                }
            ],
            "name": "getVotes",
            "outputs": [
                {
                    "internalType": "uint256",
                    "name": "",
                    "type": "uint256"
                }
            ],
            "stateMutability": "view",
            "type": "function"
        },
        {
            "inputs": [
                {
                    "internalType": "address",
                    "name": "spender",
                    "type": "address"
                },
                {
                    "internalType": "uint256",
                    "name": "addedValue",
                    "type": "uint256"
                }
            ],
            "name": "increaseAllowance",
            "outputs": [
                {
                    "internalType": "bool",
                    "name": "",
                    "type": "bool"
                }
            ],
            "stateMutability": "nonpayable",
            "type": "function"
        },
        {
            "inputs": [
                {
                    "internalType": "address",
                    "name": "_account",
                    "type": "address"
                }
            ],
            "name": "initTLCV1",
            "outputs": [],
            "stateMutability": "nonpayable",
            "type": "function"
        },
        {
            "inputs": [],
            "name": "migrateVestingSchedules",
            "outputs": [],
            "stateMutability": "nonpayable",
            "type": "function"
        },
        {
            "inputs": [],
            "name": "name",
            "outputs": [
                {
                    "internalType": "string",
                    "name": "",
                    "type": "string"
                }
            ],
            "stateMutability": "view",
            "type": "function"
        },
        {
            "inputs": [
                {
                    "internalType": "address",
                    "name": "owner",
                    "type": "address"
                }
            ],
            "name": "nonces",
            "outputs": [
                {
                    "internalType": "uint256",
                    "name": "",
                    "type": "uint256"
                }
            ],
            "stateMutability": "view",
            "type": "function"
        },
        {
            "inputs": [
                {
                    "internalType": "address",
                    "name": "account",
                    "type": "address"
                }
            ],
            "name": "numCheckpoints",
            "outputs": [
                {
                    "internalType": "uint32",
                    "name": "",
                    "type": "uint32"
                }
            ],
            "stateMutability": "view",
            "type": "function"
        },
        {
            "inputs": [
                {
                    "internalType": "address",
                    "name": "owner",
                    "type": "address"
                },
                {
                    "internalType": "address",
                    "name": "spender",
                    "type": "address"
                },
                {
                    "internalType": "uint256",
                    "name": "value",
                    "type": "uint256"
                },
                {
                    "internalType": "uint256",
                    "name": "deadline",
                    "type": "uint256"
                },
                {
                    "internalType": "uint8",
                    "name": "v",
                    "type": "uint8"
                },
                {
                    "internalType": "bytes32",
                    "name": "r",
                    "type": "bytes32"
                },
                {
                    "internalType": "bytes32",
                    "name": "s",
                    "type": "bytes32"
                }
            ],
            "name": "permit",
            "outputs": [],
            "stateMutability": "nonpayable",
            "type": "function"
        },
        {
            "inputs": [
                {
                    "internalType": "uint256",
                    "name": "_index",
                    "type": "uint256"
                }
            ],
            "name": "releaseVestingSchedule",
            "outputs": [
                {
                    "internalType": "uint256",
                    "name": "",
                    "type": "uint256"
                }
            ],
            "stateMutability": "nonpayable",
            "type": "function"
        },
        {
            "inputs": [
                {
                    "internalType": "uint256",
                    "name": "_index",
                    "type": "uint256"
                },
                {
                    "internalType": "uint64",
                    "name": "_end",
                    "type": "uint64"
                }
            ],
            "name": "revokeVestingSchedule",
            "outputs": [
                {
                    "internalType": "uint256",
                    "name": "",
                    "type": "uint256"
                }
            ],
            "stateMutability": "nonpayable",
            "type": "function"
        },
        {
            "inputs": [],
            "name": "symbol",
            "outputs": [
                {
                    "internalType": "string",
                    "name": "",
                    "type": "string"
                }
            ],
            "stateMutability": "view",
            "type": "function"
        },
        {
            "inputs": [],
            "name": "totalSupply",
            "outputs": [
                {
                    "internalType": "uint256",
                    "name": "",
                    "type": "uint256"
                }
            ],
            "stateMutability": "view",
            "type": "function"
        },
        {
            "inputs": [
                {
                    "internalType": "address",
                    "name": "to",
                    "type": "address"
                },
                {
                    "internalType": "uint256",
                    "name": "amount",
                    "type": "uint256"
                }
            ],
            "name": "transfer",
            "outputs": [
                {
                    "internalType": "bool",
                    "name": "",
                    "type": "bool"
                }
            ],
            "stateMutability": "nonpayable",
            "type": "function"
        },
        {
            "inputs": [
                {
                    "internalType": "address",
                    "name": "from",
                    "type": "address"
                },
                {
                    "internalType": "address",
                    "name": "to",
                    "type": "address"
                },
                {
                    "internalType": "uint256",
                    "name": "amount",
                    "type": "uint256"
                }
            ],
            "name": "transferFrom",
            "outputs": [
                {
                    "internalType": "bool",
                    "name": "",
                    "type": "bool"
                }
            ],
            "stateMutability": "nonpayable",
            "type": "function"
        },
        {
            "inputs": [
                {
                    "internalType": "uint256",
                    "name": "_index",
                    "type": "uint256"
                }
            ],
            "name": "vestingEscrow",
            "outputs": [
                {
                    "internalType": "address",
                    "name": "",
                    "type": "address"
                }
            ],
            "stateMutability": "view",
            "type": "function"
        },
        {
            "inputs": [],
            "stateMutability": "nonpayable",
            "type": "constructor"
        },
        {
            "inputs": [],
            "name": "InvalidRevokedVestingScheduleEnd",
            "type": "error"
        },
        {
            "inputs": [
                {
                    "internalType": "string",
                    "name": "msg",
                    "type": "string"
                }
            ],
            "name": "InvalidVestingScheduleParameter",
            "type": "error"
        },
        {
            "inputs": [],
            "name": "InvalidZeroAddress",
            "type": "error"
        },
        {
            "inputs": [
                {
                    "internalType": "address",
                    "name": "caller",
                    "type": "address"
                }
            ],
            "name": "Unauthorized",
            "type": "error"
        },
        {
            "inputs": [],
            "name": "UnsufficientVestingScheduleCreatorBalance",
            "type": "error"
        },
        {
            "inputs": [],
            "name": "VestingScheduleIsLocked",
            "type": "error"
        },
        {
            "inputs": [
                {
                    "internalType": "uint256",
                    "name": "index",
                    "type": "uint256"
                }
            ],
            "name": "VestingScheduleNotFound",
            "type": "error"
        },
        {
            "inputs": [
                {
                    "internalType": "uint256",
                    "name": "index",
                    "type": "uint256"
                }
            ],
            "name": "VestingScheduleNotFound",
            "type": "error"
        },
        {
            "inputs": [],
            "name": "VestingScheduleNotRevocable",
            "type": "error"
        },
        {
            "inputs": [],
            "name": "VestingScheduleNotRevocableInPast",
            "type": "error"
        },
        {
            "inputs": [],
            "name": "ZeroReleasableAmount",
            "type": "error"
        },
        {
            "anonymous": false,
            "inputs": [
                {
                    "indexed": true,
                    "internalType": "address",
                    "name": "owner",
                    "type": "address"
                },
                {
                    "indexed": true,
                    "internalType": "address",
                    "name": "spender",
                    "type": "address"
                },
                {
                    "indexed": false,
                    "internalType": "uint256",
                    "name": "value",
                    "type": "uint256"
                }
            ],
            "name": "Approval",
            "type": "event"
        },
        {
            "anonymous": false,
            "inputs": [
                {
                    "indexed": false,
                    "internalType": "uint256",
                    "name": "index",
                    "type": "uint256"
                },
                {
                    "indexed": true,
                    "internalType": "address",
                    "name": "creator",
                    "type": "address"
                },
                {
                    "indexed": true,
                    "internalType": "address",
                    "name": "beneficiary",
                    "type": "address"
                },
                {
                    "indexed": false,
                    "internalType": "uint256",
                    "name": "amount",
                    "type": "uint256"
                }
            ],
            "name": "CreatedVestingSchedule",
            "type": "event"
        },
        {
            "anonymous": false,
            "inputs": [
                {
                    "indexed": true,
                    "internalType": "address",
                    "name": "delegator",
                    "type": "address"
                },
                {
                    "indexed": true,
                    "internalType": "address",
                    "name": "fromDelegate",
                    "type": "address"
                },
                {
                    "indexed": true,
                    "internalType": "address",
                    "name": "toDelegate",
                    "type": "address"
                }
            ],
            "name": "DelegateChanged",
            "type": "event"
        },
        {
            "anonymous": false,
            "inputs": [
                {
                    "indexed": true,
                    "internalType": "address",
                    "name": "delegate",
                    "type": "address"
                },
                {
                    "indexed": false,
                    "internalType": "uint256",
                    "name": "previousBalance",
                    "type": "uint256"
                },
                {
                    "indexed": false,
                    "internalType": "uint256",
                    "name": "newBalance",
                    "type": "uint256"
                }
            ],
            "name": "DelegateVotesChanged",
            "type": "event"
        },
        {
            "anonymous": false,
            "inputs": [
                {
                    "indexed": false,
                    "internalType": "uint256",
                    "name": "index",
                    "type": "uint256"
                },
                {
                    "indexed": true,
                    "internalType": "address",
                    "name": "oldDelegatee",
                    "type": "address"
                },
                {
                    "indexed": true,
                    "internalType": "address",
                    "name": "newDelegatee",
                    "type": "address"
                },
                {
                    "indexed": true,
                    "internalType": "address",
                    "name": "beneficiary",
                    "type": "address"
                }
            ],
            "name": "DelegatedVestingEscrow",
            "type": "event"
        },
        {
            "anonymous": false,
            "inputs": [
                {
                    "indexed": false,
                    "internalType": "uint8",
                    "name": "version",
                    "type": "uint8"
                }
            ],
            "name": "Initialized",
            "type": "event"
        },
        {
            "anonymous": false,
            "inputs": [
                {
                    "indexed": false,
                    "internalType": "uint256",
                    "name": "index",
                    "type": "uint256"
                },
                {
                    "indexed": false,
                    "internalType": "uint256",
                    "name": "releasedAmount",
                    "type": "uint256"
                }
            ],
            "name": "ReleasedVestingSchedule",
            "type": "event"
        },
        {
            "anonymous": false,
            "inputs": [
                {
                    "indexed": false,
                    "internalType": "uint256",
                    "name": "index",
                    "type": "uint256"
                },
                {
                    "indexed": false,
                    "internalType": "uint256",
                    "name": "returnedAmount",
                    "type": "uint256"
                },
                {
                    "indexed": false,
                    "internalType": "uint256",
                    "name": "newEnd",
                    "type": "uint256"
                }
            ],
            "name": "RevokedVestingSchedule",
            "type": "event"
        },
        {
            "anonymous": false,
            "inputs": [
                {
                    "indexed": true,
                    "internalType": "address",
                    "name": "from",
                    "type": "address"
                },
                {
                    "indexed": true,
                    "internalType": "address",
                    "name": "to",
                    "type": "address"
                },
                {
                    "indexed": false,
                    "internalType": "uint256",
                    "name": "value",
                    "type": "uint256"
                }
            ],
            "name": "Transfer",
            "type": "event"
        },
        {
            "inputs": [],
            "name": "DOMAIN_SEPARATOR",
            "outputs": [
                {
                    "internalType": "bytes32",
                    "name": "",
                    "type": "bytes32"
                }
            ],
            "stateMutability": "view",
            "type": "function"
        },
        {
            "inputs": [
                {
                    "internalType": "address",
                    "name": "owner",
                    "type": "address"
                },
                {
                    "internalType": "address",
                    "name": "spender",
                    "type": "address"
                }
            ],
            "name": "allowance",
            "outputs": [
                {
                    "internalType": "uint256",
                    "name": "",
                    "type": "uint256"
                }
            ],
            "stateMutability": "view",
            "type": "function"
        },
        {
            "inputs": [
                {
                    "internalType": "address",
                    "name": "spender",
                    "type": "address"
                },
                {
                    "internalType": "uint256",
                    "name": "amount",
                    "type": "uint256"
                }
            ],
            "name": "approve",
            "outputs": [
                {
                    "internalType": "bool",
                    "name": "",
                    "type": "bool"
                }
            ],
            "stateMutability": "nonpayable",
            "type": "function"
        },
        {
            "inputs": [
                {
                    "internalType": "address",
                    "name": "account",
                    "type": "address"
                }
            ],
            "name": "balanceOf",
            "outputs": [
                {
                    "internalType": "uint256",
                    "name": "",
                    "type": "uint256"
                }
            ],
            "stateMutability": "view",
            "type": "function"
        },
        {
            "inputs": [
                {
                    "internalType": "address",
                    "name": "account",
                    "type": "address"
                },
                {
                    "internalType": "uint32",
                    "name": "pos",
                    "type": "uint32"
                }
            ],
            "name": "checkpoints",
            "outputs": [
                {
                    "components": [
                        {
                            "internalType": "uint32",
                            "name": "fromBlock",
                            "type": "uint32"
                        },
                        {
                            "internalType": "uint224",
                            "name": "votes",
                            "type": "uint224"
                        }
                    ],
                    "internalType": "struct ERC20VotesUpgradeable.Checkpoint",
                    "name": "",
                    "type": "tuple"
                }
            ],
            "stateMutability": "view",
            "type": "function"
        },
        {
            "inputs": [
                {
                    "internalType": "uint256",
                    "name": "_index",
                    "type": "uint256"
                }
            ],
            "name": "computeVestingReleasableAmount",
            "outputs": [
                {
                    "internalType": "uint256",
                    "name": "",
                    "type": "uint256"
                }
            ],
            "stateMutability": "view",
            "type": "function"
        },
        {
            "inputs": [
                {
                    "internalType": "uint256",
                    "name": "_index",
                    "type": "uint256"
                }
            ],
            "name": "computeVestingVestedAmount",
            "outputs": [
                {
                    "internalType": "uint256",
                    "name": "",
                    "type": "uint256"
                }
            ],
            "stateMutability": "view",
            "type": "function"
        },
        {
            "inputs": [
                {
                    "internalType": "uint64",
                    "name": "_start",
                    "type": "uint64"
                },
                {
                    "internalType": "uint32",
                    "name": "_cliffDuration",
                    "type": "uint32"
                },
                {
                    "internalType": "uint32",
                    "name": "_duration",
                    "type": "uint32"
                },
                {
                    "internalType": "uint32",
                    "name": "_periodDuration",
                    "type": "uint32"
                },
                {
                    "internalType": "uint32",
                    "name": "_lockDuration",
                    "type": "uint32"
                },
                {
                    "internalType": "bool",
                    "name": "_revocable",
                    "type": "bool"
                },
                {
                    "internalType": "uint256",
                    "name": "_amount",
                    "type": "uint256"
                },
                {
                    "internalType": "address",
                    "name": "_beneficiary",
                    "type": "address"
                },
                {
                    "internalType": "address",
                    "name": "_delegatee",
                    "type": "address"
                }
            ],
            "name": "createVestingSchedule",
            "outputs": [
                {
                    "internalType": "uint256",
                    "name": "",
                    "type": "uint256"
                }
            ],
            "stateMutability": "nonpayable",
            "type": "function"
        },
        {
            "inputs": [],
            "name": "decimals",
            "outputs": [
                {
                    "internalType": "uint8",
                    "name": "",
                    "type": "uint8"
                }
            ],
            "stateMutability": "view",
            "type": "function"
        },
        {
            "inputs": [
                {
                    "internalType": "address",
                    "name": "spender",
                    "type": "address"
                },
                {
                    "internalType": "uint256",
                    "name": "subtractedValue",
                    "type": "uint256"
                }
            ],
            "name": "decreaseAllowance",
            "outputs": [
                {
                    "internalType": "bool",
                    "name": "",
                    "type": "bool"
                }
            ],
            "stateMutability": "nonpayable",
            "type": "function"
        },
        {
            "inputs": [
                {
                    "internalType": "address",
                    "name": "delegatee",
                    "type": "address"
                }
            ],
            "name": "delegate",
            "outputs": [],
            "stateMutability": "nonpayable",
            "type": "function"
        },
        {
            "inputs": [
                {
                    "internalType": "address",
                    "name": "delegatee",
                    "type": "address"
                },
                {
                    "internalType": "uint256",
                    "name": "nonce",
                    "type": "uint256"
                },
                {
                    "internalType": "uint256",
                    "name": "expiry",
                    "type": "uint256"
                },
                {
                    "internalType": "uint8",
                    "name": "v",
                    "type": "uint8"
                },
                {
                    "internalType": "bytes32",
                    "name": "r",
                    "type": "bytes32"
                },
                {
                    "internalType": "bytes32",
                    "name": "s",
                    "type": "bytes32"
                }
            ],
            "name": "delegateBySig",
            "outputs": [],
            "stateMutability": "nonpayable",
            "type": "function"
        },
        {
            "inputs": [
                {
                    "internalType": "uint256",
                    "name": "_index",
                    "type": "uint256"
                },
                {
                    "internalType": "address",
                    "name": "_delegatee",
                    "type": "address"
                }
            ],
            "name": "delegateVestingEscrow",
            "outputs": [
                {
                    "internalType": "bool",
                    "name": "",
                    "type": "bool"
                }
            ],
            "stateMutability": "nonpayable",
            "type": "function"
        },
        {
            "inputs": [
                {
                    "internalType": "address",
                    "name": "account",
                    "type": "address"
                }
            ],
            "name": "delegates",
            "outputs": [
                {
                    "internalType": "address",
                    "name": "",
                    "type": "address"
                }
            ],
            "stateMutability": "view",
            "type": "function"
        },
        {
            "inputs": [
                {
                    "internalType": "uint256",
                    "name": "blockNumber",
                    "type": "uint256"
                }
            ],
            "name": "getPastTotalSupply",
            "outputs": [
                {
                    "internalType": "uint256",
                    "name": "",
                    "type": "uint256"
                }
            ],
            "stateMutability": "view",
            "type": "function"
        },
        {
            "inputs": [
                {
                    "internalType": "address",
                    "name": "account",
                    "type": "address"
                },
                {
                    "internalType": "uint256",
                    "name": "blockNumber",
                    "type": "uint256"
                }
            ],
            "name": "getPastVotes",
            "outputs": [
                {
                    "internalType": "uint256",
                    "name": "",
                    "type": "uint256"
                }
            ],
            "stateMutability": "view",
            "type": "function"
        },
        {
            "inputs": [
                {
                    "internalType": "uint256",
                    "name": "_index",
                    "type": "uint256"
                }
            ],
            "name": "getVestingSchedule",
            "outputs": [
                {
                    "components": [
                        {
                            "internalType": "uint64",
                            "name": "start",
                            "type": "uint64"
                        },
                        {
                            "internalType": "uint64",
                            "name": "end",
                            "type": "uint64"
                        },
                        {
                            "internalType": "uint32",
                            "name": "cliffDuration",
                            "type": "uint32"
                        },
                        {
                            "internalType": "uint32",
                            "name": "lockDuration",
                            "type": "uint32"
                        },
                        {
                            "internalType": "uint32",
                            "name": "duration",
                            "type": "uint32"
                        },
                        {
                            "internalType": "uint32",
                            "name": "periodDuration",
                            "type": "uint32"
                        },
                        {
                            "internalType": "uint256",
                            "name": "amount",
                            "type": "uint256"
                        },
                        {
                            "internalType": "address",
                            "name": "creator",
                            "type": "address"
                        },
                        {
                            "internalType": "address",
                            "name": "beneficiary",
                            "type": "address"
                        },
                        {
                            "internalType": "bool",
                            "name": "revocable",
                            "type": "bool"
                        },
                        {
                            "internalType": "uint256",
                            "name": "releasedAmount",
                            "type": "uint256"
                        }
                    ],
                    "internalType": "struct VestingSchedulesV2.VestingSchedule",
                    "name": "",
                    "type": "tuple"
                }
            ],
            "stateMutability": "view",
            "type": "function"
        },
        {
            "inputs": [],
            "name": "getVestingScheduleCount",
            "outputs": [
                {
                    "internalType": "uint256",
                    "name": "",
                    "type": "uint256"
                }
            ],
            "stateMutability": "view",
            "type": "function"
        },
        {
            "inputs": [
                {
                    "internalType": "address",
                    "name": "account",
                    "type": "address"
                }
            ],
            "name": "getVotes",
            "outputs": [
                {
                    "internalType": "uint256",
                    "name": "",
                    "type": "uint256"
                }
            ],
            "stateMutability": "view",
            "type": "function"
        },
        {
            "inputs": [
                {
                    "internalType": "address",
                    "name": "spender",
                    "type": "address"
                },
                {
                    "internalType": "uint256",
                    "name": "addedValue",
                    "type": "uint256"
                }
            ],
            "name": "increaseAllowance",
            "outputs": [
                {
                    "internalType": "bool",
                    "name": "",
                    "type": "bool"
                }
            ],
            "stateMutability": "nonpayable",
            "type": "function"
        },
        {
            "inputs": [
                {
                    "internalType": "address",
                    "name": "_account",
                    "type": "address"
                }
            ],
            "name": "initTLCV1",
            "outputs": [],
            "stateMutability": "nonpayable",
            "type": "function"
        },
        {
            "inputs": [],
            "name": "migrateVestingSchedules",
            "outputs": [],
            "stateMutability": "nonpayable",
            "type": "function"
        },
        {
            "inputs": [],
            "name": "name",
            "outputs": [
                {
                    "internalType": "string",
                    "name": "",
                    "type": "string"
                }
            ],
            "stateMutability": "view",
            "type": "function"
        },
        {
            "inputs": [
                {
                    "internalType": "address",
                    "name": "owner",
                    "type": "address"
                }
            ],
            "name": "nonces",
            "outputs": [
                {
                    "internalType": "uint256",
                    "name": "",
                    "type": "uint256"
                }
            ],
            "stateMutability": "view",
            "type": "function"
        },
        {
            "inputs": [
                {
                    "internalType": "address",
                    "name": "account",
                    "type": "address"
                }
            ],
            "name": "numCheckpoints",
            "outputs": [
                {
                    "internalType": "uint32",
                    "name": "",
                    "type": "uint32"
                }
            ],
            "stateMutability": "view",
            "type": "function"
        },
        {
            "inputs": [
                {
                    "internalType": "address",
                    "name": "owner",
                    "type": "address"
                },
                {
                    "internalType": "address",
                    "name": "spender",
                    "type": "address"
                },
                {
                    "internalType": "uint256",
                    "name": "value",
                    "type": "uint256"
                },
                {
                    "internalType": "uint256",
                    "name": "deadline",
                    "type": "uint256"
                },
                {
                    "internalType": "uint8",
                    "name": "v",
                    "type": "uint8"
                },
                {
                    "internalType": "bytes32",
                    "name": "r",
                    "type": "bytes32"
                },
                {
                    "internalType": "bytes32",
                    "name": "s",
                    "type": "bytes32"
                }
            ],
            "name": "permit",
            "outputs": [],
            "stateMutability": "nonpayable",
            "type": "function"
        },
        {
            "inputs": [
                {
                    "internalType": "uint256",
                    "name": "_index",
                    "type": "uint256"
                }
            ],
            "name": "releaseVestingSchedule",
            "outputs": [
                {
                    "internalType": "uint256",
                    "name": "",
                    "type": "uint256"
                }
            ],
            "stateMutability": "nonpayable",
            "type": "function"
        },
        {
            "inputs": [
                {
                    "internalType": "uint256",
                    "name": "_index",
                    "type": "uint256"
                },
                {
                    "internalType": "uint64",
                    "name": "_end",
                    "type": "uint64"
                }
            ],
            "name": "revokeVestingSchedule",
            "outputs": [
                {
                    "internalType": "uint256",
                    "name": "",
                    "type": "uint256"
                }
            ],
            "stateMutability": "nonpayable",
            "type": "function"
        },
        {
            "inputs": [],
            "name": "symbol",
            "outputs": [
                {
                    "internalType": "string",
                    "name": "",
                    "type": "string"
                }
            ],
            "stateMutability": "view",
            "type": "function"
        },
        {
            "inputs": [],
            "name": "totalSupply",
            "outputs": [
                {
                    "internalType": "uint256",
                    "name": "",
                    "type": "uint256"
                }
            ],
            "stateMutability": "view",
            "type": "function"
        },
        {
            "inputs": [
                {
                    "internalType": "address",
                    "name": "to",
                    "type": "address"
                },
                {
                    "internalType": "uint256",
                    "name": "amount",
                    "type": "uint256"
                }
            ],
            "name": "transfer",
            "outputs": [
                {
                    "internalType": "bool",
                    "name": "",
                    "type": "bool"
                }
            ],
            "stateMutability": "nonpayable",
            "type": "function"
        },
        {
            "inputs": [
                {
                    "internalType": "address",
                    "name": "from",
                    "type": "address"
                },
                {
                    "internalType": "address",
                    "name": "to",
                    "type": "address"
                },
                {
                    "internalType": "uint256",
                    "name": "amount",
                    "type": "uint256"
                }
            ],
            "name": "transferFrom",
            "outputs": [
                {
                    "internalType": "bool",
                    "name": "",
                    "type": "bool"
                }
            ],
            "stateMutability": "nonpayable",
            "type": "function"
        },
        {
            "inputs": [
                {
                    "internalType": "uint256",
                    "name": "_index",
                    "type": "uint256"
                }
            ],
            "name": "vestingEscrow",
            "outputs": [
                {
                    "internalType": "address",
                    "name": "",
                    "type": "address"
                }
            ],
            "stateMutability": "view",
            "type": "function"
        },
        {
            "inputs": [],
            "stateMutability": "nonpayable",
            "type": "constructor"
        },
        {
            "inputs": [],
            "name": "GlobalUnlockUnderlfow",
            "type": "error"
        },
        {
            "inputs": [],
            "name": "InvalidRevokedVestingScheduleEnd",
            "type": "error"
        },
        {
            "inputs": [
                {
                    "internalType": "string",
                    "name": "msg",
                    "type": "string"
                }
            ],
            "name": "InvalidVestingScheduleParameter",
            "type": "error"
        },
        {
            "inputs": [],
            "name": "InvalidZeroAddress",
            "type": "error"
        },
        {
            "inputs": [
                {
                    "internalType": "address",
                    "name": "caller",
                    "type": "address"
                }
            ],
            "name": "Unauthorized",
            "type": "error"
        },
        {
            "inputs": [],
            "name": "UnsufficientVestingScheduleCreatorBalance",
            "type": "error"
        },
        {
            "inputs": [],
            "name": "VestingScheduleIsLocked",
            "type": "error"
        },
        {
            "inputs": [
                {
                    "internalType": "uint256",
                    "name": "index",
                    "type": "uint256"
                }
            ],
            "name": "VestingScheduleNotFound",
            "type": "error"
        },
        {
            "inputs": [
                {
                    "internalType": "uint256",
                    "name": "index",
                    "type": "uint256"
                }
            ],
            "name": "VestingScheduleNotFound",
            "type": "error"
        },
        {
            "inputs": [],
            "name": "VestingScheduleNotRevocable",
            "type": "error"
        },
        {
            "inputs": [],
            "name": "VestingScheduleNotRevocableInPast",
            "type": "error"
        },
        {
            "inputs": [],
            "name": "ZeroReleasableAmount",
            "type": "error"
        },
        {
            "anonymous": false,
            "inputs": [
                {
                    "indexed": true,
                    "internalType": "address",
                    "name": "owner",
                    "type": "address"
                },
                {
                    "indexed": true,
                    "internalType": "address",
                    "name": "spender",
                    "type": "address"
                },
                {
                    "indexed": false,
                    "internalType": "uint256",
                    "name": "value",
                    "type": "uint256"
                }
            ],
            "name": "Approval",
            "type": "event"
        },
        {
            "anonymous": false,
            "inputs": [
                {
                    "indexed": false,
                    "internalType": "uint256",
                    "name": "index",
                    "type": "uint256"
                },
                {
                    "indexed": true,
                    "internalType": "address",
                    "name": "creator",
                    "type": "address"
                },
                {
                    "indexed": true,
                    "internalType": "address",
                    "name": "beneficiary",
                    "type": "address"
                },
                {
                    "indexed": false,
                    "internalType": "uint256",
                    "name": "amount",
                    "type": "uint256"
                }
            ],
            "name": "CreatedVestingSchedule",
            "type": "event"
        },
        {
            "anonymous": false,
            "inputs": [
                {
                    "indexed": true,
                    "internalType": "address",
                    "name": "delegator",
                    "type": "address"
                },
                {
                    "indexed": true,
                    "internalType": "address",
                    "name": "fromDelegate",
                    "type": "address"
                },
                {
                    "indexed": true,
                    "internalType": "address",
                    "name": "toDelegate",
                    "type": "address"
                }
            ],
            "name": "DelegateChanged",
            "type": "event"
        },
        {
            "anonymous": false,
            "inputs": [
                {
                    "indexed": true,
                    "internalType": "address",
                    "name": "delegate",
                    "type": "address"
                },
                {
                    "indexed": false,
                    "internalType": "uint256",
                    "name": "previousBalance",
                    "type": "uint256"
                },
                {
                    "indexed": false,
                    "internalType": "uint256",
                    "name": "newBalance",
                    "type": "uint256"
                }
            ],
            "name": "DelegateVotesChanged",
            "type": "event"
        },
        {
            "anonymous": false,
            "inputs": [
                {
                    "indexed": false,
                    "internalType": "uint256",
                    "name": "index",
                    "type": "uint256"
                },
                {
                    "indexed": true,
                    "internalType": "address",
                    "name": "oldDelegatee",
                    "type": "address"
                },
                {
                    "indexed": true,
                    "internalType": "address",
                    "name": "newDelegatee",
                    "type": "address"
                },
                {
                    "indexed": true,
                    "internalType": "address",
                    "name": "beneficiary",
                    "type": "address"
                }
            ],
            "name": "DelegatedVestingEscrow",
            "type": "event"
        },
        {
            "anonymous": false,
            "inputs": [
                {
                    "indexed": false,
                    "internalType": "uint8",
                    "name": "version",
                    "type": "uint8"
                }
            ],
            "name": "Initialized",
            "type": "event"
        },
        {
            "anonymous": false,
            "inputs": [
                {
                    "indexed": false,
                    "internalType": "uint256",
                    "name": "index",
                    "type": "uint256"
                },
                {
                    "indexed": false,
                    "internalType": "uint256",
                    "name": "releasedAmount",
                    "type": "uint256"
                }
            ],
            "name": "ReleasedVestingSchedule",
            "type": "event"
        },
        {
            "anonymous": false,
            "inputs": [
                {
                    "indexed": false,
                    "internalType": "uint256",
                    "name": "index",
                    "type": "uint256"
                },
                {
                    "indexed": false,
                    "internalType": "uint256",
                    "name": "returnedAmount",
                    "type": "uint256"
                },
                {
                    "indexed": false,
                    "internalType": "uint256",
                    "name": "newEnd",
                    "type": "uint256"
                }
            ],
            "name": "RevokedVestingSchedule",
            "type": "event"
        },
        {
            "anonymous": false,
            "inputs": [
                {
                    "indexed": true,
                    "internalType": "address",
                    "name": "from",
                    "type": "address"
                },
                {
                    "indexed": true,
                    "internalType": "address",
                    "name": "to",
                    "type": "address"
                },
                {
                    "indexed": false,
                    "internalType": "uint256",
                    "name": "value",
                    "type": "uint256"
                }
            ],
            "name": "Transfer",
            "type": "event"
        },
        {
            "inputs": [],
            "name": "DOMAIN_SEPARATOR",
            "outputs": [
                {
                    "internalType": "bytes32",
                    "name": "",
                    "type": "bytes32"
                }
            ],
            "stateMutability": "view",
            "type": "function"
        },
        {
            "inputs": [
                {
                    "internalType": "address",
                    "name": "owner",
                    "type": "address"
                },
                {
                    "internalType": "address",
                    "name": "spender",
                    "type": "address"
                }
            ],
            "name": "allowance",
            "outputs": [
                {
                    "internalType": "uint256",
                    "name": "",
                    "type": "uint256"
                }
            ],
            "stateMutability": "view",
            "type": "function"
        },
        {
            "inputs": [
                {
                    "internalType": "address",
                    "name": "spender",
                    "type": "address"
                },
                {
                    "internalType": "uint256",
                    "name": "amount",
                    "type": "uint256"
                }
            ],
            "name": "approve",
            "outputs": [
                {
                    "internalType": "bool",
                    "name": "",
                    "type": "bool"
                }
            ],
            "stateMutability": "nonpayable",
            "type": "function"
        },
        {
            "inputs": [
                {
                    "internalType": "address",
                    "name": "account",
                    "type": "address"
                }
            ],
            "name": "balanceOf",
            "outputs": [
                {
                    "internalType": "uint256",
                    "name": "",
                    "type": "uint256"
                }
            ],
            "stateMutability": "view",
            "type": "function"
        },
        {
            "inputs": [
                {
                    "internalType": "address",
                    "name": "account",
                    "type": "address"
                },
                {
                    "internalType": "uint32",
                    "name": "pos",
                    "type": "uint32"
                }
            ],
            "name": "checkpoints",
            "outputs": [
                {
                    "components": [
                        {
                            "internalType": "uint32",
                            "name": "fromBlock",
                            "type": "uint32"
                        },
                        {
                            "internalType": "uint224",
                            "name": "votes",
                            "type": "uint224"
                        }
                    ],
                    "internalType": "struct ERC20VotesUpgradeable.Checkpoint",
                    "name": "",
                    "type": "tuple"
                }
            ],
            "stateMutability": "view",
            "type": "function"
        },
        {
            "inputs": [
                {
                    "internalType": "uint256",
                    "name": "_index",
                    "type": "uint256"
                }
            ],
            "name": "computeVestingReleasableAmount",
            "outputs": [
                {
                    "internalType": "uint256",
                    "name": "",
                    "type": "uint256"
                }
            ],
            "stateMutability": "view",
            "type": "function"
        },
        {
            "inputs": [
                {
                    "internalType": "uint256",
                    "name": "_index",
                    "type": "uint256"
                }
            ],
            "name": "computeVestingVestedAmount",
            "outputs": [
                {
                    "internalType": "uint256",
                    "name": "",
                    "type": "uint256"
                }
            ],
            "stateMutability": "view",
            "type": "function"
        },
        {
            "inputs": [
                {
                    "internalType": "uint64",
                    "name": "_start",
                    "type": "uint64"
                },
                {
                    "internalType": "uint32",
                    "name": "_cliffDuration",
                    "type": "uint32"
                },
                {
                    "internalType": "uint32",
                    "name": "_duration",
                    "type": "uint32"
                },
                {
                    "internalType": "uint32",
                    "name": "_periodDuration",
                    "type": "uint32"
                },
                {
                    "internalType": "uint32",
                    "name": "_lockDuration",
                    "type": "uint32"
                },
                {
                    "internalType": "bool",
                    "name": "_revocable",
                    "type": "bool"
                },
                {
                    "internalType": "uint256",
                    "name": "_amount",
                    "type": "uint256"
                },
                {
                    "internalType": "address",
                    "name": "_beneficiary",
                    "type": "address"
                },
                {
                    "internalType": "address",
                    "name": "_delegatee",
                    "type": "address"
                },
                {
                    "internalType": "bool",
                    "name": "_ignoreGlobalUnlockSchedule",
                    "type": "bool"
                }
            ],
            "name": "createVestingSchedule",
            "outputs": [
                {
                    "internalType": "uint256",
                    "name": "",
                    "type": "uint256"
                }
            ],
            "stateMutability": "nonpayable",
            "type": "function"
        },
        {
            "inputs": [],
            "name": "decimals",
            "outputs": [
                {
                    "internalType": "uint8",
                    "name": "",
                    "type": "uint8"
                }
            ],
            "stateMutability": "view",
            "type": "function"
        },
        {
            "inputs": [
                {
                    "internalType": "address",
                    "name": "spender",
                    "type": "address"
                },
                {
                    "internalType": "uint256",
                    "name": "subtractedValue",
                    "type": "uint256"
                }
            ],
            "name": "decreaseAllowance",
            "outputs": [
                {
                    "internalType": "bool",
                    "name": "",
                    "type": "bool"
                }
            ],
            "stateMutability": "nonpayable",
            "type": "function"
        },
        {
            "inputs": [
                {
                    "internalType": "address",
                    "name": "delegatee",
                    "type": "address"
                }
            ],
            "name": "delegate",
            "outputs": [],
            "stateMutability": "nonpayable",
            "type": "function"
        },
        {
            "inputs": [
                {
                    "internalType": "address",
                    "name": "delegatee",
                    "type": "address"
                },
                {
                    "internalType": "uint256",
                    "name": "nonce",
                    "type": "uint256"
                },
                {
                    "internalType": "uint256",
                    "name": "expiry",
                    "type": "uint256"
                },
                {
                    "internalType": "uint8",
                    "name": "v",
                    "type": "uint8"
                },
                {
                    "internalType": "bytes32",
                    "name": "r",
                    "type": "bytes32"
                },
                {
                    "internalType": "bytes32",
                    "name": "s",
                    "type": "bytes32"
                }
            ],
            "name": "delegateBySig",
            "outputs": [],
            "stateMutability": "nonpayable",
            "type": "function"
        },
        {
            "inputs": [
                {
                    "internalType": "uint256",
                    "name": "_index",
                    "type": "uint256"
                },
                {
                    "internalType": "address",
                    "name": "_delegatee",
                    "type": "address"
                }
            ],
            "name": "delegateVestingEscrow",
            "outputs": [
                {
                    "internalType": "bool",
                    "name": "",
                    "type": "bool"
                }
            ],
            "stateMutability": "nonpayable",
            "type": "function"
        },
        {
            "inputs": [
                {
                    "internalType": "address",
                    "name": "account",
                    "type": "address"
                }
            ],
            "name": "delegates",
            "outputs": [
                {
                    "internalType": "address",
                    "name": "",
                    "type": "address"
                }
            ],
            "stateMutability": "view",
            "type": "function"
        },
        {
            "inputs": [
                {
                    "internalType": "uint256",
                    "name": "blockNumber",
                    "type": "uint256"
                }
            ],
            "name": "getPastTotalSupply",
            "outputs": [
                {
                    "internalType": "uint256",
                    "name": "",
                    "type": "uint256"
                }
            ],
            "stateMutability": "view",
            "type": "function"
        },
        {
            "inputs": [
                {
                    "internalType": "address",
                    "name": "account",
                    "type": "address"
                },
                {
                    "internalType": "uint256",
                    "name": "blockNumber",
                    "type": "uint256"
                }
            ],
            "name": "getPastVotes",
            "outputs": [
                {
                    "internalType": "uint256",
                    "name": "",
                    "type": "uint256"
                }
            ],
            "stateMutability": "view",
            "type": "function"
        },
        {
            "inputs": [
                {
                    "internalType": "uint256",
                    "name": "_index",
                    "type": "uint256"
                }
            ],
            "name": "getVestingSchedule",
            "outputs": [
                {
                    "components": [
                        {
                            "internalType": "uint64",
                            "name": "start",
                            "type": "uint64"
                        },
                        {
                            "internalType": "uint64",
                            "name": "end",
                            "type": "uint64"
                        },
                        {
                            "internalType": "uint32",
                            "name": "cliffDuration",
                            "type": "uint32"
                        },
                        {
                            "internalType": "uint32",
                            "name": "lockDuration",
                            "type": "uint32"
                        },
                        {
                            "internalType": "uint32",
                            "name": "duration",
                            "type": "uint32"
                        },
                        {
                            "internalType": "uint32",
                            "name": "periodDuration",
                            "type": "uint32"
                        },
                        {
                            "internalType": "uint256",
                            "name": "amount",
                            "type": "uint256"
                        },
                        {
                            "internalType": "address",
                            "name": "creator",
                            "type": "address"
                        },
                        {
                            "internalType": "address",
                            "name": "beneficiary",
                            "type": "address"
                        },
                        {
                            "internalType": "bool",
                            "name": "revocable",
                            "type": "bool"
                        },
                        {
                            "internalType": "uint256",
                            "name": "releasedAmount",
                            "type": "uint256"
                        }
                    ],
                    "internalType": "struct VestingSchedulesV2.VestingSchedule",
                    "name": "",
                    "type": "tuple"
                }
            ],
            "stateMutability": "view",
            "type": "function"
        },
        {
            "inputs": [],
            "name": "getVestingScheduleCount",
            "outputs": [
                {
                    "internalType": "uint256",
                    "name": "",
                    "type": "uint256"
                }
            ],
            "stateMutability": "view",
            "type": "function"
        },
        {
            "inputs": [
                {
                    "internalType": "address",
                    "name": "account",
                    "type": "address"
                }
            ],
            "name": "getVotes",
            "outputs": [
                {
                    "internalType": "uint256",
                    "name": "",
                    "type": "uint256"
                }
            ],
            "stateMutability": "view",
            "type": "function"
        },
        {
            "inputs": [
                {
                    "internalType": "address",
                    "name": "spender",
                    "type": "address"
                },
                {
                    "internalType": "uint256",
                    "name": "addedValue",
                    "type": "uint256"
                }
            ],
            "name": "increaseAllowance",
            "outputs": [
                {
                    "internalType": "bool",
                    "name": "",
                    "type": "bool"
                }
            ],
            "stateMutability": "nonpayable",
            "type": "function"
        },
        {
            "inputs": [
                {
                    "internalType": "address",
                    "name": "_account",
                    "type": "address"
                }
            ],
            "name": "initTLCV1",
            "outputs": [],
            "stateMutability": "nonpayable",
            "type": "function"
        },
        {
            "inputs": [
                {
                    "internalType": "uint256",
                    "name": "_index",
                    "type": "uint256"
                }
            ],
            "name": "isGlobalUnlockedScheduleIgnored",
            "outputs": [
                {
                    "internalType": "bool",
                    "name": "",
                    "type": "bool"
                }
            ],
            "stateMutability": "view",
            "type": "function"
        },
        {
            "inputs": [],
            "name": "migrateVestingSchedules",
            "outputs": [],
            "stateMutability": "nonpayable",
            "type": "function"
        },
        {
            "inputs": [],
            "name": "name",
            "outputs": [
                {
                    "internalType": "string",
                    "name": "",
                    "type": "string"
                }
            ],
            "stateMutability": "view",
            "type": "function"
        },
        {
            "inputs": [
                {
                    "internalType": "address",
                    "name": "owner",
                    "type": "address"
                }
            ],
            "name": "nonces",
            "outputs": [
                {
                    "internalType": "uint256",
                    "name": "",
                    "type": "uint256"
                }
            ],
            "stateMutability": "view",
            "type": "function"
        },
        {
            "inputs": [
                {
                    "internalType": "address",
                    "name": "account",
                    "type": "address"
                }
            ],
            "name": "numCheckpoints",
            "outputs": [
                {
                    "internalType": "uint32",
                    "name": "",
                    "type": "uint32"
                }
            ],
            "stateMutability": "view",
            "type": "function"
        },
        {
            "inputs": [
                {
                    "internalType": "address",
                    "name": "owner",
                    "type": "address"
                },
                {
                    "internalType": "address",
                    "name": "spender",
                    "type": "address"
                },
                {
                    "internalType": "uint256",
                    "name": "value",
                    "type": "uint256"
                },
                {
                    "internalType": "uint256",
                    "name": "deadline",
                    "type": "uint256"
                },
                {
                    "internalType": "uint8",
                    "name": "v",
                    "type": "uint8"
                },
                {
                    "internalType": "bytes32",
                    "name": "r",
                    "type": "bytes32"
                },
                {
                    "internalType": "bytes32",
                    "name": "s",
                    "type": "bytes32"
                }
            ],
            "name": "permit",
            "outputs": [],
            "stateMutability": "nonpayable",
            "type": "function"
        },
        {
            "inputs": [
                {
                    "internalType": "uint256",
                    "name": "_index",
                    "type": "uint256"
                }
            ],
            "name": "releaseVestingSchedule",
            "outputs": [
                {
                    "internalType": "uint256",
                    "name": "",
                    "type": "uint256"
                }
            ],
            "stateMutability": "nonpayable",
            "type": "function"
        },
        {
            "inputs": [
                {
                    "internalType": "uint256",
                    "name": "_index",
                    "type": "uint256"
                },
                {
                    "internalType": "uint64",
                    "name": "_end",
                    "type": "uint64"
                }
            ],
            "name": "revokeVestingSchedule",
            "outputs": [
                {
                    "internalType": "uint256",
                    "name": "",
                    "type": "uint256"
                }
            ],
            "stateMutability": "nonpayable",
            "type": "function"
        },
        {
            "inputs": [],
            "name": "symbol",
            "outputs": [
                {
                    "internalType": "string",
                    "name": "",
                    "type": "string"
                }
            ],
            "stateMutability": "view",
            "type": "function"
        },
        {
            "inputs": [],
            "name": "totalSupply",
            "outputs": [
                {
                    "internalType": "uint256",
                    "name": "",
                    "type": "uint256"
                }
            ],
            "stateMutability": "view",
            "type": "function"
        },
        {
            "inputs": [
                {
                    "internalType": "address",
                    "name": "to",
                    "type": "address"
                },
                {
                    "internalType": "uint256",
                    "name": "amount",
                    "type": "uint256"
                }
            ],
            "name": "transfer",
            "outputs": [
                {
                    "internalType": "bool",
                    "name": "",
                    "type": "bool"
                }
            ],
            "stateMutability": "nonpayable",
            "type": "function"
        },
        {
            "inputs": [
                {
                    "internalType": "address",
                    "name": "from",
                    "type": "address"
                },
                {
                    "internalType": "address",
                    "name": "to",
                    "type": "address"
                },
                {
                    "internalType": "uint256",
                    "name": "amount",
                    "type": "uint256"
                }
            ],
            "name": "transferFrom",
            "outputs": [
                {
                    "internalType": "bool",
                    "name": "",
                    "type": "bool"
                }
            ],
            "stateMutability": "nonpayable",
            "type": "function"
        },
        {
            "inputs": [
                {
                    "internalType": "uint256",
                    "name": "_index",
                    "type": "uint256"
                }
            ],
            "name": "vestingEscrow",
            "outputs": [
                {
                    "internalType": "address",
                    "name": "",
                    "type": "address"
                }
            ],
            "stateMutability": "view",
            "type": "function"
        },
        {
            "inputs": [
                {
                    "internalType": "address",
                    "name": "_logic",
                    "type": "address"
                },
                {
                    "internalType": "address",
                    "name": "__admin",
                    "type": "address"
                },
                {
                    "internalType": "bytes",
                    "name": "_data",
                    "type": "bytes"
                }
            ],
            "stateMutability": "payable",
            "type": "constructor"
        },
        {
            "inputs": [],
            "name": "CallWhenPaused",
            "type": "error"
        },
        {
            "anonymous": false,
            "inputs": [
                {
                    "indexed": false,
                    "internalType": "address",
                    "name": "previousAdmin",
                    "type": "address"
                },
                {
                    "indexed": false,
                    "internalType": "address",
                    "name": "newAdmin",
                    "type": "address"
                }
            ],
            "name": "AdminChanged",
            "type": "event"
        },
        {
            "anonymous": false,
            "inputs": [
                {
                    "indexed": true,
                    "internalType": "address",
                    "name": "beacon",
                    "type": "address"
                }
            ],
            "name": "BeaconUpgraded",
            "type": "event"
        },
        {
            "anonymous": false,
            "inputs": [
                {
                    "indexed": false,
                    "internalType": "address",
                    "name": "admin",
                    "type": "address"
                }
            ],
            "name": "Paused",
            "type": "event"
        },
        {
            "anonymous": false,
            "inputs": [
                {
                    "indexed": false,
                    "internalType": "address",
                    "name": "admin",
                    "type": "address"
                }
            ],
            "name": "Unpaused",
            "type": "event"
        },
        {
            "anonymous": false,
            "inputs": [
                {
                    "indexed": true,
                    "internalType": "address",
                    "name": "implementation",
                    "type": "address"
                }
            ],
            "name": "Upgraded",
            "type": "event"
        },
        {
            "stateMutability": "payable",
            "type": "fallback"
        },
        {
            "inputs": [],
            "name": "admin",
            "outputs": [
                {
                    "internalType": "address",
                    "name": "admin_",
                    "type": "address"
                }
            ],
            "stateMutability": "nonpayable",
            "type": "function"
        },
        {
            "inputs": [
                {
                    "internalType": "address",
                    "name": "newAdmin",
                    "type": "address"
                }
            ],
            "name": "changeAdmin",
            "outputs": [],
            "stateMutability": "nonpayable",
            "type": "function"
        },
        {
            "inputs": [],
            "name": "implementation",
            "outputs": [
                {
                    "internalType": "address",
                    "name": "implementation_",
                    "type": "address"
                }
            ],
            "stateMutability": "nonpayable",
            "type": "function"
        },
        {
            "inputs": [],
            "name": "pause",
            "outputs": [],
            "stateMutability": "nonpayable",
            "type": "function"
        },
        {
            "inputs": [],
            "name": "paused",
            "outputs": [
                {
                    "internalType": "bool",
                    "name": "",
                    "type": "bool"
                }
            ],
            "stateMutability": "nonpayable",
            "type": "function"
        },
        {
            "inputs": [],
            "name": "unpause",
            "outputs": [],
            "stateMutability": "nonpayable",
            "type": "function"
        },
        {
            "inputs": [
                {
                    "internalType": "address",
                    "name": "newImplementation",
                    "type": "address"
                }
            ],
            "name": "upgradeTo",
            "outputs": [],
            "stateMutability": "nonpayable",
            "type": "function"
        },
        {
            "inputs": [
                {
                    "internalType": "address",
                    "name": "newImplementation",
                    "type": "address"
                },
                {
                    "internalType": "bytes",
                    "name": "data",
                    "type": "bytes"
                }
            ],
            "name": "upgradeToAndCall",
            "outputs": [],
            "stateMutability": "payable",
            "type": "function"
        },
        {
            "stateMutability": "payable",
            "type": "receive"
        }
    ],
    "transactionHash": "0x10aa2cdb2a0f45987c74e4f29dca36b52a527eec381bd5ca3d925219b0e3feb4",
    "args": [
        "0xefFb05618fcAA507d9A00e2eFAe0ADEb0b9E1158",
        "0x5868e1Bc0CB23014ca3C52e39E559beC7E532C13",
        "0x28766ffd000000000000000000000000a3cf5f149a680f5ac72ec90dfb4382f5c88e5cbe"
    ],
    "numDeployments": 1,
    "solcInputHash": "803b991b13fc3eb82937205601e77786",
    "bytecode": "0x60806040523480156200001157600080fd5b506200001c62000022565b620000e4565b600054610100900460ff16156200008f5760405162461bcd60e51b815260206004820152602760248201527f496e697469616c697a61626c653a20636f6e747261637420697320696e697469604482015266616c697a696e6760c81b606482015260840160405180910390fd5b60005460ff9081161015620000e2576000805460ff191660ff9081179091556040519081527f7f26b83ff96e1f2b6a682f133852f6798a09c465da95921460cefb38474024989060200160405180910390a15b565b613aa380620000f46000396000f3fe608060405234801561001057600080fd5b50600436106101965760003560e01c806306fdde031461019b578063095ea7b3146101b957806318160ddd146101dc57806323b872dd146101ee57806323dd35b41461020157806328766ffd1461021457806329c9093b14610229578063313ce5671461023c5780633644e5151461024b57806339509351146102535780633a46b1a814610266578063574d918314610279578063587cde1e1461028c57806359facefd146102ac5780635c19a95c146102b45780636fcfff45146102c757806370a08231146102ef5780637ecebe00146103025780638c0aeff4146103155780638e539e8c146103285780638fb8ad841461033b5780639295ccec1461034e57806395d89b41146103565780639ab24eb01461035e578063a457c2d714610371578063a9059cbb14610384578063beb8f88314610397578063c3cda520146103b7578063d10a1faf146103ca578063d505accf146103dd578063dd62ed3e146103f0578063decc722414610403578063f0519be014610416578063f1127ed814610429575b600080fd5b6101a3610466565b6040516101b091906132fe565b60405180910390f35b6101cc6101c736600461336f565b6104f8565b60405190151581526020016101b0565b6035545b6040519081526020016101b0565b6101cc6101fc366004613399565b610512565b6101cc61020f3660046133d5565b610538565b610227610222366004613401565b610544565b005b6101e061023736600461341c565b61069c565b604051601281526020016101b0565b6101e0610772565b6101cc61026136600461336f565b610781565b6101e061027436600461336f565b6107a3565b6101e061028736600461341c565b6107e6565b61029f61029a366004613401565b6107f1565b6040516101b09190613442565b61022761080f565b6102276102c2366004613401565b61089b565b6102da6102d5366004613401565b6108a8565b60405163ffffffff90911681526020016101b0565b6101e06102fd366004613401565b6108ca565b6101e0610310366004613401565b6108e5565b6101cc61032336600461341c565b610903565b6101e061033636600461341c565b61090e565b6101e061034936600461341c565b61093a565b6101e0610a06565b6101a3610a10565b6101e061036c366004613401565b610a1f565b6101cc61037f36600461336f565b610aa5565b6101cc61039236600461336f565b610b2b565b6103aa6103a536600461341c565b610b39565b6040516101b09190613456565b6102276103c5366004613545565b610c53565b6101e06103d83660046135d8565b610d85565b6102276103eb36600461368b565b610da9565b6101e06103fe3660046136f5565b610f0d565b61029f61041136600461341c565b610f38565b6101e061042436600461371f565b610f43565b61043c610437366004613742565b610f4f565b60408051825163ffffffff1681526020928301516001600160e01b031692810192909252016101b0565b6060603680546104759061376c565b80601f01602080910402602001604051908101604052809291908181526020018280546104a19061376c565b80156104ee5780601f106104c3576101008083540402835291602001916104ee565b820191906000526020600020905b8154815290600101906020018083116104d157829003601f168201915b5050505050905090565b600033610506818585610fd2565b60019150505b92915050565b6000336105208582856110f6565b61052b858585611170565b60019150505b9392505050565b6000610531838361130f565b600054610100900460ff16158080156105645750600054600160ff909116105b8061057e5750303b15801561057e575060005460ff166001145b6105a35760405162461bcd60e51b815260040161059a906137a1565b60405180910390fd5b6000805460ff1916600117905580156105c6576000805461ff0019166101001790555b6105cf826113d4565b610601604051806040016040528060118152602001704c697175696420436f6c6c65637469766560781b8152506113fb565b61064f604051806040016040528060118152602001704c697175696420436f6c6c65637469766560781b81525060405180604001604052806003815260200162544c4360e81b815250611445565b61066482676765c793fa10079d601b1b611476565b8015610698576000805461ff001916905560405160018152600080516020613a0e8339815191529060200160405180910390a15b5050565b6000806106a883611500565b604080516101608101825282546001600160401b038082168352600160401b82041660208301819052600160801b820463ffffffff90811694840194909452600160a01b80830485166060850152600160c01b830485166080850152600160e01b90920490931660a0830152600184015460c083015260028401546001600160a01b0390811660e084015260038501549081166101008401520460ff16151561012082015260049092015461014083015290915061053190829061076d904290611571565b611586565b600061077c611657565b905090565b6000336105068185856107948383610f0d565b61079e9190613805565b610fd2565b60004382106107c45760405162461bcd60e51b815260040161059a9061381d565b6001600160a01b038316600090815260cd6020526040902061053190836116d2565b600061050c826117c8565b6001600160a01b03908116600090815260cc60205260409020541690565b600054600290610100900460ff16158015610831575060005460ff8083169116105b61084d5760405162461bcd60e51b815260040161059a906137a1565b6000805461ffff191660ff831617610100179055610869611958565b6000805461ff001916905560405160ff82168152600080516020613a0e8339815191529060200160405180910390a150565b6108a533826119c9565b50565b6001600160a01b038116600090815260cd602052604081205461050c90611a49565b6001600160a01b031660009081526033602052604090205490565b6001600160a01b03811660009081526099602052604081205461050c565b600061050c82611ab2565b600043821061092f5760405162461bcd60e51b815260040161059a9061381d565b61050c60ce836116d2565b60008061094683611500565b604080516101608101825282546001600160401b038082168352600160401b8204166020830152600160801b810463ffffffff90811693830193909352600160a01b80820484166060840152600160c01b820484166080840152600160e01b90910490921660a0820152600183015460c082015260028301546001600160a01b0390811660e083015260038401549081166101008301529190910460ff161515610120820152600490910154610140820152905061053181600085611ae3565b600061077c611c22565b6060603780546104759061376c565b6001600160a01b038116600090815260cd60205260408120548015610a92576001600160a01b038316600090815260cd60205260409020610a61600183613854565b81548110610a7157610a7161386b565b600091825260209091200154600160201b90046001600160e01b0316610a95565b60005b6001600160e01b03169392505050565b60003381610ab38286610f0d565b905083811015610b135760405162461bcd60e51b815260206004820152602560248201527f45524332303a2064656372656173656420616c6c6f77616e63652062656c6f77604482015264207a65726f60d81b606482015260840161059a565b610b208286868403610fd2565b506001949350505050565b600033610506818585611170565b6040805161016081018252600080825260208201819052918101829052606081018290526080810182905260a0810182905260c0810182905260e0810182905261010081018290526101208101829052610140810191909152610b9b82611500565b604080516101608101825282546001600160401b038082168352600160401b8204166020830152600160801b810463ffffffff90811693830193909352600160a01b80820484166060840152600160c01b820484166080840152600160e01b90910490921660a0820152600183015460c082015260028301546001600160a01b0390811660e083015260038401549081166101008301529190910460ff16151561012082015260049091015461014082015292915050565b83421115610ca35760405162461bcd60e51b815260206004820152601d60248201527f4552433230566f7465733a207369676e61747572652065787069726564000000604482015260640161059a565b604080517fe48329057bfd03d55e49b547132e39cffd9c1820ad7b9d4c5307691425d15adf60208201526001600160a01b038816918101919091526060810186905260808101859052600090610d1d90610d159060a00160405160208183030381529060405280519060200120611c45565b858585611c93565b9050610d2881611cbb565b8614610d725760405162461bcd60e51b81526020600482015260196024820152784552433230566f7465733a20696e76616c6964206e6f6e636560381b604482015260640161059a565b610d7c81886119c9565b50505050505050565b6000610d9a3385858e8e8e8e8e8e8e8c611cde565b9b9a5050505050505050505050565b83421115610df95760405162461bcd60e51b815260206004820152601d60248201527f45524332305065726d69743a206578706972656420646561646c696e65000000604482015260640161059a565b60007f6e71edae12b1b97f4d1f60370fef10105fa2faae0126114a169c64845d6126c9888888610e288c611cbb565b6040805160208101969096526001600160a01b0394851690860152929091166060840152608083015260a082015260c0810186905260e0016040516020818303038152906040528051906020012090506000610e8382611c45565b90506000610e9382878787611c93565b9050896001600160a01b0316816001600160a01b031614610ef65760405162461bcd60e51b815260206004820152601e60248201527f45524332305065726d69743a20696e76616c6964207369676e61747572650000604482015260640161059a565b610f018a8a8a610fd2565b50505050505050505050565b6001600160a01b03918216600090815260346020908152604080832093909416825291909152205490565b600061050c8261221f565b60006105318383612294565b60408051808201909152600080825260208201526001600160a01b038316600090815260cd60205260409020805463ffffffff8416908110610f9357610f9361386b565b60009182526020918290206040805180820190915291015463ffffffff81168252600160201b90046001600160e01b0316918101919091529392505050565b6001600160a01b0383166110345760405162461bcd60e51b8152602060048201526024808201527f45524332303a20617070726f76652066726f6d20746865207a65726f206164646044820152637265737360e01b606482015260840161059a565b6001600160a01b0382166110955760405162461bcd60e51b815260206004820152602260248201527f45524332303a20617070726f766520746f20746865207a65726f206164647265604482015261737360f01b606482015260840161059a565b6001600160a01b0383811660008181526034602090815260408083209487168084529482529182902085905590518481527f8c5be1e5ebec7d5bd14f71427d1e84f3dd0314c0f7b2291e5b200ac8c7c3b925910160405180910390a3505050565b60006111028484610f0d565b9050600019811461116a578181101561115d5760405162461bcd60e51b815260206004820152601d60248201527f45524332303a20696e73756666696369656e7420616c6c6f77616e6365000000604482015260640161059a565b61116a8484848403610fd2565b50505050565b6001600160a01b0383166111d45760405162461bcd60e51b815260206004820152602560248201527f45524332303a207472616e736665722066726f6d20746865207a65726f206164604482015264647265737360d81b606482015260840161059a565b6001600160a01b0382166112365760405162461bcd60e51b815260206004820152602360248201527f45524332303a207472616e7366657220746f20746865207a65726f206164647260448201526265737360e81b606482015260840161059a565b6001600160a01b038316600090815260336020526040902054818110156112ae5760405162461bcd60e51b815260206004820152602660248201527f45524332303a207472616e7366657220616d6f756e7420657863656564732062604482015265616c616e636560d01b606482015260840161059a565b6001600160a01b038085166000818152603360205260408082208686039055928616808252908390208054860190559151600080516020613a2e833981519152906112fc9086815260200190565b60405180910390a361116a8484846125b1565b60008061131b84611500565b60038101549091506001600160a01b0316331461134d573360405163472511eb60e11b815260040161059a9190613442565b60006113588561221f565b90506000611365826107f1565b905061137182866119c9565b336001600160a01b0316856001600160a01b0316826001600160a01b03167ff59662617e9c4f8707dff52c85bd8f49f665073ba5fffb29c2a55ebf58e7a75e896040516113c091815260200190565b60405180910390a450600195945050505050565b6001600160a01b0381166108a55760405163f6b2911f60e01b815260040160405180910390fd5b600054610100900460ff166114225760405162461bcd60e51b815260040161059a90613881565b6108a581604051806040016040528060018152602001603160f81b8152506125cc565b600054610100900460ff1661146c5760405162461bcd60e51b815260040161059a90613881565b610698828261260d565b611480828261265b565b6035546001600160e01b0310156114f25760405162461bcd60e51b815260206004820152603060248201527f4552433230566f7465733a20746f74616c20737570706c79207269736b73206f60448201526f766572666c6f77696e6720766f74657360801b606482015260840161059a565b61116a60ce6127128361271e565b60008061151c60016000805160206139ae833981519152613854565b8054909150819084106115455760405163ad7d6e0960e01b81526004810185905260240161059a565b80600001848154811061155a5761155a61386b565b906000526020600020906005020192505050919050565b60008183116115805782610531565b50919050565b6000826040015163ffffffff1683600001516115a291906138cc565b6001600160401b03168210156115ba5750600061050c565b608083015183516115d19163ffffffff16906138cc565b6001600160401b031682106115eb575060c082015161050c565b8251600090611603906001600160401b031684613854565b905060008460a0015163ffffffff168261161d919061390d565b6116279083613854565b9050846080015163ffffffff168560c00151826116449190613921565b61164e9190613940565b9250505061050c565b600061077c7f8b73c3c69bb8fe3d512ecc4cf759cc79239f7b179b0ffacaa9a75d522b39400f61168660655490565b6066546040805160208101859052908101839052606081018290524660808201523060a082015260009060c0016040516020818303038152906040528051906020012090509392505050565b81546000908181600581111561172c5760006116ed8461286f565b6116f79085613854565b600088815260209020909150869082015463ffffffff16111561171c5780915061172a565b611727816001613805565b92505b505b808210156117795760006117408383612954565b600088815260209020909150869082015463ffffffff16111561176557809150611773565b611770816001613805565b92505b5061172c565b80156117b25761179c8661178e600184613854565b600091825260209091200190565b54600160201b90046001600160e01b03166117b5565b60005b6001600160e01b03169695505050505050565b6000806117d483611500565b60038101549091506001600160a01b03163314611806573360405163472511eb60e11b815260040161059a9190613442565b604080516101608101825282546001600160401b038082168352600160401b8204166020830152600160801b810463ffffffff90811693830193909352600160a01b80820484166060840152600160c01b820484166080840152600160e01b90910490921660a082015260018084015460c083015260028401546001600160a01b0390811660e084015260038501549081166101008401529290920460ff16151561012082015260048301546101408201526000916118c6919086611ae3565b9050806118e657604051630fe6b58b60e41b815260040160405180910390fd5b60006118f18561221f565b90506118fe813384611170565b818360040160008282546119129190613805565b909155505060408051868152602081018490527f8e54a80e4adf22e5669cda627d76c97a21b0a2a54fab3b48b1b38b97b29580f0910160405180910390a1509392505050565b611960611c22565b6119c757600061196e61296f565b905060005b818110156106985760006119868261298b565b60010154905060006119a361199d6102fd8561221f565b83611571565b6119ad9083613854565b90506119b983826129fc565b508260010192505050611973565b565b60006119d4836107f1565b905060006119e1846108ca565b6001600160a01b03858116600081815260cc602052604080822080546001600160a01b031916898616908117909155905194955093928616927f3134e8a2e6d97e929a7e54011ea5485d7d196dd5f0ba4d4ef95803e8e3fc257f9190a461116a828483612c65565b600063ffffffff821115611aae5760405162461bcd60e51b815260206004820152602660248201527f53616665436173743a2076616c756520646f65736e27742066697420696e203360448201526532206269747360d01b606482015260840161059a565b5090565b600080611ace60016000805160206139ce833981519152613854565b60009384526020525050604090205460ff1690565b606083015183516000914291611aff9163ffffffff16906138cc565b6001600160401b0316811015611b38578315611b2e5760405163fad681e760e01b815260040160405180910390fd5b6000915050610531565b600085610140015190506000611b758788602001516001600160401b03168511611b625784611586565b88602001516001600160401b0316611586565b905081811115611c1557611b8885611ab2565b611c0b576000611bc88860c00151896060015163ffffffff168a60000151611bb091906138cc565b611bc3906001600160401b031687613854565b612d7e565b905080831115611beb576040516317eb986760e21b815260040160405180910390fd5b82611bf68383611571565b611c009190613854565b945050505050610531565b0391506105319050565b5060009695505050505050565b600080611c3e60016000805160206139ae833981519152613854565b5492915050565b600061050c611c52611657565b8360405161190160f01b6020820152602281018390526042810182905260009060620160405160208183030381529060405280519060200120905092915050565b6000806000611ca487878787612db6565b91509150611cb181612e70565b5095945050505050565b6001600160a01b0316600090815260996020526040902080546001810190915590565b600082611cea8d6108ca565b1015611d0957604051633464861d60e21b815260040160405180910390fd5b6001600160a01b038b16611d7e57604051630d63fe3160e31b815260206004820152603560248201527f56657374696e67207363686564756c652062656e6566696369617279206d757360448201527474206265206e6f6e207a65726f206164647265737360581b606482015260840161059a565b63ffffffff8716611dce57604051630d63fe3160e31b815260206004820152602560248201526000805160206139ee833981519152604482015264065203e20360dc1b606482015260840161059a565b82611e2857604051630d63fe3160e31b815260206004820152602360248201527f56657374696e67207363686564756c6520616d6f756e74206d7573742062652060448201526203e20360ec1b606482015260840161059a565b63ffffffff8616611e8857604051630d63fe3160e31b815260206004820152602360248201527f56657374696e67207363686564756c6520706572696f64206d7573742062652060448201526203e20360ec1b606482015260840161059a565b6000611e948789613954565b63ffffffff161115611f0757604051630d63fe3160e31b815260206004820152603560248201527f56657374696e67207363686564756c65206475726174696f6e206d7573742073604482015274706c697420696e20657861637420706572696f647360581b606482015260840161059a565b6000611f13878a613954565b63ffffffff161115611f8c57604051630d63fe3160e31b815260206004820152603b60248201527f56657374696e67207363686564756c6520636c696666206475726174696f6e2060448201527a6d7573742073706c697420696e20657861637420706572696f647360281b606482015260840161059a565b8663ffffffff168863ffffffff16111561201357604051630d63fe3160e31b815260206004820152604d60248201526000805160206139ee83398151915260448201527f652067726561746572207468616e206f7220657175616c20746f20746865206360648201526c3634b33310323ab930ba34b7b760991b608482015260a40161059a565b8663ffffffff168663ffffffff168461202c9190613921565b6120369190613940565b6120a357604051630d63fe3160e31b815260206004820152603760248201527f56657374696e67207363686564756c6520616d6f756e7420746f6f206c6f7720604482015276199bdc88191d5c985d1a5bdb88185b99081c195c9a5bd9604a1b606482015260840161059a565b6001600160401b0389166120b5574298505b60006040518061016001604052808b6001600160401b031681526020018963ffffffff168c6120e491906138cc565b6001600160401b031681526020018a63ffffffff1681526020018763ffffffff1681526020018963ffffffff1681526020018863ffffffff1681526020018581526020018e6001600160a01b031681526020018d6001600160a01b031681526020018615158152602001600081525090506000600161216283612fb9565b61216c9190613854565b90506121788185613115565b60006121838261221f565b90506121908f8288611170565b6001600160a01b038d166121ad576121a8818f6119c9565b6121b7565b6121b7818e6119c9565b8d6001600160a01b03168f6001600160a01b03167fb0274f4a20cdf2005bb6a28aab72868f144d56c0828753a0f6edc7a62ef131b18489604051612205929190918252602082015260400190565b60405180910390a3509d9c50505050505050505050505050565b6000803061224e60017f5c24c10d65ac9aa9e0f7f63d96fe83c89107fae52b4ef778334c906c1ec5c1ed613854565b60405160609290921b6001600160601b031916602083015260348201526054810184905260740160408051601f1981840301815291905280516020909101209392505050565b60006001600160401b0382166122ac574291506122d6565b42826001600160401b031610156122d6576040516317518afb60e11b815260040160405180910390fd5b60006122e184611500565b6003810154909150600160a01b900460ff16612310576040516341a76da360e01b815260040160405180910390fd5b80546001600160401b03908116908416108061233f575080546001600160401b03808516600160401b90920416105b1561235d57604051635178474560e11b815260040160405180910390fd5b60028101546001600160a01b0316331461238c573360405163472511eb60e11b815260040161059a9190613442565b604080516101608101825282546001600160401b038082168352600160401b82041660208301819052600160801b820463ffffffff90811694840194909452600160a01b80830485166060850152600160c01b830485166080850152600160e01b90920490931660a0830152600184015460c083015260028401546001600160a01b0390811660e084015260038501549081166101008401520460ff16151561012082015260048301546101408201526000916124499190611586565b604080516101608101825284546001600160401b038082168352600160401b820481166020840152600160801b820463ffffffff90811694840194909452600160a01b80830485166060850152600160c01b830485166080850152600160e01b90920490931660a0830152600186015460c083015260028601546001600160a01b0390811660e084015260038701549081166101008401520460ff1615156101208201526004850154610140820152919250600091612509918716611586565b905060006125178284613854565b9050801561253957600061252a8861221f565b9050612537813384611170565b505b8354600160401b600160801b031916600160401b6001600160401b0388169081029190911785556040805189815260208101849052908101919091527f2c802be755370b3a250faf14516cb3480b47417d4c12d7fa0ff3ee0b937d99e99060600160405180910390a19695505050505050565b505050565b6125ac6125bd846107f1565b6125c6846107f1565b83612c65565b600054610100900460ff166125f35760405162461bcd60e51b815260040161059a90613881565b815160209283012081519190920120606591909155606655565b600054610100900460ff166126345760405162461bcd60e51b815260040161059a90613881565b815161264790603690602085019061326e565b5080516125ac90603790602084019061326e565b6001600160a01b0382166126b15760405162461bcd60e51b815260206004820152601f60248201527f45524332303a206d696e7420746f20746865207a65726f206164647265737300604482015260640161059a565b80603560008282546126c39190613805565b90915550506001600160a01b038216600081815260336020908152604080832080548601905551848152600080516020613a2e833981519152910160405180910390a3610698600083836125b1565b60006105318284613805565b8254600090819081811561276a5761273b8761178e600185613854565b60408051808201909152905463ffffffff81168252600160201b90046001600160e01b0316602082015261277f565b60408051808201909152600080825260208201525b905080602001516001600160e01b0316935061279f84868863ffffffff16565b92506000821180156127b75750805163ffffffff1643145b156127fb576127c58361314f565b6127d48861178e600186613854565b80546001600160e01b0392909216600160201b0263ffffffff909216919091179055612865565b86604051806040016040528061281043611a49565b63ffffffff1681526020016128248661314f565b6001600160e01b039081169091528254600181018455600093845260209384902083519490930151909116600160201b0263ffffffff909316929092179101555b5050935093915050565b60008161287e57506000919050565b6000600161288b846131b8565b901c6001901b905060018184816128a4576128a46138f7565b048201901c905060018184816128bc576128bc6138f7565b048201901c905060018184816128d4576128d46138f7565b048201901c905060018184816128ec576128ec6138f7565b048201901c90506001818481612904576129046138f7565b048201901c9050600181848161291c5761291c6138f7565b048201901c90506001818481612934576129346138f7565b048201901c90506105318182858161294e5761294e6138f7565b0461324c565b60006129636002848418613940565b61053190848416613805565b600080611c3e600160008051602061398e833981519152613854565b6000806129a7600160008051602061398e833981519152613854565b8054909150819084106129d05760405163ad7d6e0960e01b81526004810185905260240161059a565b8060000184815481106129e5576129e561386b565b906000526020600020906004020192505050919050565b600080612a088461298b565b604051806101400160405290816000820160009054906101000a90046001600160401b03166001600160401b03166001600160401b031681526020016000820160089054906101000a90046001600160401b03166001600160401b03166001600160401b031681526020016000820160109054906101000a900463ffffffff1663ffffffff1663ffffffff1681526020016000820160149054906101000a900463ffffffff1663ffffffff1663ffffffff1681526020016000820160189054906101000a900463ffffffff1663ffffffff1663ffffffff16815260200160008201601c9054906101000a900463ffffffff1663ffffffff1663ffffffff168152602001600182015481526020016002820160009054906101000a90046001600160a01b03166001600160a01b03166001600160a01b031681526020016003820160009054906101000a90046001600160a01b03166001600160a01b03166001600160a01b031681526020016003820160149054906101000a900460ff1615151515815250509050600060405180610160016040528083600001516001600160401b0316815260200183602001516001600160401b03168152602001836040015163ffffffff168152602001836060015163ffffffff168152602001836080015163ffffffff1681526020018360a0015163ffffffff1681526020018360c0015181526020018360e001516001600160a01b031681526020018361010001516001600160a01b03168152602001836101200151151581526020018581525090506001612c5282612fb9565b612c5c9190613854565b95945050505050565b816001600160a01b0316836001600160a01b031614158015612c875750600081115b156125ac576001600160a01b03831615612d03576001600160a01b038316600090815260cd602052604081208190612cc2906132628561271e565b91509150846001600160a01b0316600080516020613a4e8339815191528383604051612cf8929190918252602082015260400190565b60405180910390a250505b6001600160a01b038216156125ac576001600160a01b038216600090815260cd602052604081208190612d39906127128561271e565b91509150836001600160a01b0316600080516020613a4e8339815191528383604051612d6f929190918252602082015260400190565b60405180910390a25050505050565b600080612d8e622819a084613940565b612d99601886613940565b612da39190613921565b905083811115610531578391505061050c565b6000806fa2a8918ca85bafe22016d0b997e4df60600160ff1b03831115612de35750600090506003612e67565b6040805160008082526020820180845289905260ff881692820192909252606081018690526080810185905260019060a0016020604051602081039080840390855afa158015612e37573d6000803e3d6000fd5b5050604051601f1901519150506001600160a01b038116612e6057600060019250925050612e67565b9150600090505b94509492505050565b6000816004811115612e8457612e84613977565b1415612e8d5750565b6001816004811115612ea157612ea1613977565b1415612eea5760405162461bcd60e51b815260206004820152601860248201527745434453413a20696e76616c6964207369676e617475726560401b604482015260640161059a565b6002816004811115612efe57612efe613977565b1415612f4c5760405162461bcd60e51b815260206004820152601f60248201527f45434453413a20696e76616c6964207369676e6174757265206c656e67746800604482015260640161059a565b6003816004811115612f6057612f60613977565b14156108a55760405162461bcd60e51b815260206004820152602260248201527f45434453413a20696e76616c6964207369676e6174757265202773272076616c604482015261756560f01b606482015260840161059a565b600080612fd560016000805160206139ae833981519152613854565b80546001808201835560008381526020908190208751600590940201805491880151604089015160608a015160808b015160a08c01516001600160401b039889166001600160801b031990971696909617600160401b989094169790970292909217600160801b600160c01b031916600160801b63ffffffff9283160263ffffffff60a01b191617600160a01b9282168302176001600160c01b0316600160c01b968216969096026001600160e01b031695909517600160e01b959093169490940291909117815560c08701519181019190915560e08601516002820180546001600160a01b0319166001600160a01b039283161790556101008701516003830180546101208a0151929093166001600160a81b031990931692909217901515909302929092179091556101409094015160049094019390935550505490565b600061313060016000805160206139ce833981519152613854565b6000938452602052506040909120805460ff1916911515919091179055565b60006001600160e01b03821115611aae5760405162461bcd60e51b815260206004820152602760248201527f53616665436173743a2076616c756520646f65736e27742066697420696e20326044820152663234206269747360c81b606482015260840161059a565b600080608083901c156131cd57608092831c92015b604083901c156131df57604092831c92015b602083901c156131f157602092831c92015b601083901c1561320357601092831c92015b600883901c1561321557600892831c92015b600483901c1561322757600492831c92015b600283901c1561323957600292831c92015b600183901c1561050c5760010192915050565b600081831061325b5781610531565b5090919050565b60006105318284613854565b82805461327a9061376c565b90600052602060002090601f01602090048101928261329c57600085556132e2565b82601f106132b557805160ff19168380011785556132e2565b828001600101855582156132e2579182015b828111156132e25782518255916020019190600101906132c7565b50611aae9291505b80821115611aae57600081556001016132ea565b600060208083528351808285015260005b8181101561332b5785810183015185820160400152820161330f565b8181111561333d576000604083870101525b50601f01601f1916929092016040019392505050565b80356001600160a01b038116811461336a57600080fd5b919050565b6000806040838503121561338257600080fd5b61338b83613353565b946020939093013593505050565b6000806000606084860312156133ae57600080fd5b6133b784613353565b92506133c560208501613353565b9150604084013590509250925092565b600080604083850312156133e857600080fd5b823591506133f860208401613353565b90509250929050565b60006020828403121561341357600080fd5b61053182613353565b60006020828403121561342e57600080fd5b5035919050565b6001600160a01b03169052565b6001600160a01b0391909116815260200190565b81516001600160401b031681526101608101602083015161348260208401826001600160401b03169052565b50604083015161349a604084018263ffffffff169052565b5060608301516134b2606084018263ffffffff169052565b5060808301516134ca608084018263ffffffff169052565b5060a08301516134e260a084018263ffffffff169052565b5060c083015160c083015260e08301516134ff60e0840182613435565b506101008084015161351382850182613435565b50506101208381015180151584830152505061014092830151919092015290565b803560ff8116811461336a57600080fd5b60008060008060008060c0878903121561355e57600080fd5b61356787613353565b9550602087013594506040870135935061358360608801613534565b92506080870135915060a087013590509295509295509295565b80356001600160401b038116811461336a57600080fd5b803563ffffffff8116811461336a57600080fd5b8035801515811461336a57600080fd5b6000806000806000806000806000806101408b8d0312156135f857600080fd5b6136018b61359d565b995061360f60208c016135b4565b985061361d60408c016135b4565b975061362b60608c016135b4565b965061363960808c016135b4565b955061364760a08c016135c8565b945060c08b0135935061365c60e08c01613353565b925061366b6101008c01613353565b915061367a6101208c016135c8565b90509295989b9194979a5092959850565b600080600080600080600060e0888a0312156136a657600080fd5b6136af88613353565b96506136bd60208901613353565b955060408801359450606088013593506136d960808901613534565b925060a0880135915060c0880135905092959891949750929550565b6000806040838503121561370857600080fd5b61371183613353565b91506133f860208401613353565b6000806040838503121561373257600080fd5b823591506133f86020840161359d565b6000806040838503121561375557600080fd5b61375e83613353565b91506133f8602084016135b4565b600181811c9082168061378057607f821691505b6020821081141561158057634e487b7160e01b600052602260045260246000fd5b6020808252602e908201527f496e697469616c697a61626c653a20636f6e747261637420697320616c72656160408201526d191e481a5b9a5d1a585b1a5e995960921b606082015260800190565b634e487b7160e01b600052601160045260246000fd5b60008219821115613818576138186137ef565b500190565b6020808252601f908201527f4552433230566f7465733a20626c6f636b206e6f7420796574206d696e656400604082015260600190565b600082821015613866576138666137ef565b500390565b634e487b7160e01b600052603260045260246000fd5b6020808252602b908201527f496e697469616c697a61626c653a20636f6e7472616374206973206e6f74206960408201526a6e697469616c697a696e6760a81b606082015260800190565b60006001600160401b038281168482168083038211156138ee576138ee6137ef565b01949350505050565b634e487b7160e01b600052601260045260246000fd5b60008261391c5761391c6138f7565b500690565b600081600019048311821515161561393b5761393b6137ef565b500290565b60008261394f5761394f6138f7565b500490565b600063ffffffff8084168061396b5761396b6138f7565b92169190910692915050565b634e487b7160e01b600052602160045260246000fdfef828a756855b22b2018e6c442f4e4296eacda2c58e90fa4824ff32229d084d6264404627f9392c993df73912dbfb24528266190d015c31a2a5dcf19d4c62184d423605f996078acc205f33a6458ae6ea5c4b6179bbe6f42712c6ca48e103aa3256657374696e67207363686564756c65206475726174696f6e206d75737420627f26b83ff96e1f2b6a682f133852f6798a09c465da95921460cefb3847402498ddf252ad1be2c89b69c2b068fc378daa952ba7f163c4a11628f55a4df523b3efdec2bacdd2f05b59de34da9b523dff8be42e5e38e818c82fdb0bae774387a724a264697066735822122021cac2e94e792ee465e86d273afdb0ce00e133cc6dd7ba8d1c000afa269f3ff864736f6c634300080a0033",
    "devdoc": {
        "author": "Kiln",
        "events": {
            "Paused(address)": {
                "params": {
                    "admin": "The admin at the time of the pause event"
                }
            },
            "Unpaused(address)": {
                "params": {
                    "admin": "The admin at the time of the unpause event"
                }
            }
        },
        "kind": "dev",
        "methods": {
            "admin()": {
                "details": "Returns the current admin. NOTE: Only the admin can call this function. See {ProxyAdmin-getProxyAdmin}. TIP: To get this value clients can read directly from the storage slot shown below (specified by EIP1967) using the https://eth.wiki/json-rpc/API#eth_getstorageat[`eth_getStorageAt`] RPC call. `0xb53127684a568b3173ae13b9f8a6016e243e63b6e8ee1178d6a717850b5d6103`"
            },
            "changeAdmin(address)": {
                "details": "Changes the admin of the proxy. Emits an {AdminChanged} event. NOTE: Only the admin can call this function. See {ProxyAdmin-changeProxyAdmin}."
            },
            "constructor": {
                "details": "The Admin of the proxy should not be the same as theadmin on the implementation logics. The admin here isthe only account allowed to perform calls on the proxy(the calls are never delegated to the implementation)",
                "params": {
                    "__admin": "Address of the admin in charge of the proxy",
                    "_data": "Calldata for an atomic initialization",
                    "_logic": "Address of the implementation"
                }
            },
            "implementation()": {
                "details": "Returns the current implementation. NOTE: Only the admin can call this function. See {ProxyAdmin-getProxyImplementation}. TIP: To get this value clients can read directly from the storage slot shown below (specified by EIP1967) using the https://eth.wiki/json-rpc/API#eth_getstorageat[`eth_getStorageAt`] RPC call. `0x360894a13ba1a3210667c828492db98dca3e2076cc3735a920a3ca505d382bbc`"
            },
            "pause()": {
                "details": "Pauses system"
            },
            "paused()": {
                "details": "Retrieves Paused state",
                "returns": {
                    "_0": "Paused state"
                }
            },
            "unpause()": {
                "details": "Unpauses system"
            },
            "upgradeTo(address)": {
                "details": "Upgrade the implementation of the proxy. NOTE: Only the admin can call this function. See {ProxyAdmin-upgrade}."
            },
            "upgradeToAndCall(address,bytes)": {
                "details": "Upgrade the implementation of the proxy, and then call a function from the new implementation as specified by `data`, which should be an encoded function call. This is useful to initialize new storage variables in the proxied contract. NOTE: Only the admin can call this function. See {ProxyAdmin-upgradeAndCall}."
            }
        },
        "title": "TUPProxy (Transparent Upgradeable Pausable Proxy)",
        "version": 1
    },
    "userdoc": {
        "errors": {
            "CallWhenPaused()": [
                {
                    "notice": "A call happened while the system was paused"
                }
            ]
        },
        "events": {
            "Paused(address)": {
                "notice": "The system is now paused"
            },
            "Unpaused(address)": {
                "notice": "The system is now unpaused"
            }
        },
        "kind": "user",
        "methods": {},
        "notice": "This contract extends the Transparent Upgradeable proxy and adds a system wide pause feature.         When the system is paused, the fallback will fail no matter what calls are made.         Address Zero is allowed to perform calls even if paused to allow view calls made         from RPC providers to properly work.",
        "version": 1
    },
    "storageLayout": {
        "storage": [],
        "types": null
    },
    "implementations": {
        "names": [
            "TLCV1_Implementation_0_4_0.json",
            "TLCV1_Implementation_0_5_0.json",
            "TLCV1_Implementation_0_6_0_rc2.json",
            "TLCV1_Implementation_1_0_0.json",
            "TLCV1_Implementation_1_1_0.json"
        ],
        "transactionHash": [
            "0x6b39d3d5a8f7545e2aa81e3a733199810b5166f1539950268d6bb6d5571ccc24",
            "0xa5bd2e44cf0480070e11d506f2fdd5453a5615514fca8963d7f005fb1df03519",
            "0x9d0f1ca7355011592e8f20b557eea6a61a9c30fbdf9f174301be256da3c4ab58",
            "0x66769a07228b75914dee0e66bdf4408bdd99d861b61bf2360e9ed14806d11773",
            "0x8b97b5cd56f42f218349f2d555ff6a4ef7371993a7741e359fc6b38a880cd0e1"
        ],
        "args": [
            [],
            [],
            [],
            [],
            []
        ],
        "numDeployments": [
            1,
            1,
            1,
            1,
            2
        ],
        "solcInputHash": [
            "9ba1ed0faeea52dcff29ad26ff904dbb",
            "3fdb9e1163d88d42993a4de988d05361",
            "34809fcc019ffc63dbbe04d139c52d63",
            "93b960a67e23979aa87ba4074b00c1d8",
            "7a7ee2ce31e910a20ebeaa44b02066a2"
        ],
        "bytecode": [
            "0x608060405234801561001057600080fd5b506132d7806100206000396000f3fe608060405234801561001057600080fd5b50600436106101b05760003560e01c80637ecebe00116100ef578063a9059cbb11610092578063a9059cbb14610396578063beb8f883146103a9578063c3cda520146103c9578063d505accf146103dc578063dd62ed3e146103ef578063decc722414610402578063f0519be014610415578063f1127ed81461042857600080fd5b80637ecebe00146103145780638e539e8c146103275780638fb8ad841461033a5780639295ccec1461034d57806395d89b41146103555780639ab24eb01461035d578063a33773f614610370578063a457c2d71461038357600080fd5b80633644e515116101575780633644e51514610265578063395093511461026d5780633a46b1a814610280578063574d918314610293578063587cde1e146102a65780635c19a95c146102c65780636fcfff45146102d957806370a082311461030157600080fd5b806306fdde03146101b5578063095ea7b3146101d357806318160ddd146101f657806323b872dd1461020857806323dd35b41461021b57806328766ffd1461022e57806329c9093b14610243578063313ce56714610256575b600080fd5b6101bd610465565b6040516101ca9190612c6c565b60405180910390f35b6101e66101e1366004612cdd565b6104f7565b60405190151581526020016101ca565b6035545b6040519081526020016101ca565b6101e6610216366004612d07565b610511565b6101e6610229366004612d43565b610537565b61024161023c366004612d6f565b610543565b005b6101fa610251366004612d8a565b6106f1565b604051601281526020016101ca565b6101fa6107ae565b6101e661027b366004612cdd565b6107bd565b6101fa61028e366004612cdd565b6107df565b6101fa6102a1366004612d8a565b610822565b6102b96102b4366004612d6f565b61082d565b6040516101ca9190612da3565b6102416102d4366004612d6f565b61084b565b6102ec6102e7366004612d6f565b610858565b60405163ffffffff90911681526020016101ca565b6101fa61030f366004612d6f565b61087a565b6101fa610322366004612d6f565b610895565b6101fa610335366004612d8a565b6108b3565b6101fa610348366004612d8a565b6108df565b6101fa6109df565b6101bd6109e9565b6101fa61036b366004612d6f565b6109f8565b6101fa61037e366004612de2565b610a7e565b6101e6610391366004612cdd565b610aa0565b6101e66103a4366004612cdd565b610b26565b6103bc6103b7366004612d8a565b610b34565b6040516101ca9190612e8a565b6102416103d7366004612f75565b610c39565b6102416103ea366004612fcd565b610d6b565b6101fa6103fd366004613037565b610ecf565b6102b9610410366004612d8a565b610efa565b6101fa610423366004613061565b610f05565b61043b610436366004613084565b610f11565b60408051825163ffffffff1681526020928301516001600160e01b031692810192909252016101ca565b606060368054610474906130ae565b80601f01602080910402602001604051908101604052809291908181526020018280546104a0906130ae565b80156104ed5780601f106104c2576101008083540402835291602001916104ed565b820191906000526020600020905b8154815290600101906020018083116104d057829003601f168201915b5050505050905090565b600033610505818585610f94565b60019150505b92915050565b60003361051f8582856110b8565b61052a858585611132565b60019150505b9392505050565b600061053083836112e3565b600054610100900460ff16158080156105635750600054600160ff909116105b8061057d5750303b15801561057d575060005460ff166001145b6105e55760405162461bcd60e51b815260206004820152602e60248201527f496e697469616c697a61626c653a20636f6e747261637420697320616c72656160448201526d191e481a5b9a5d1a585b1a5e995960921b60648201526084015b60405180910390fd5b6000805460ff191660011790558015610608576000805461ff0019166101001790555b6106118261139a565b610643604051806040016040528060118152602001704c697175696420436f6c6c65637469766560781b8152506113c1565b610691604051806040016040528060118152602001704c697175696420436f6c6c65637469766560781b81525060405180604001604052806003815260200162544c4360e81b81525061140b565b6106a7826b033b2e3c9fd0803ce800000061143c565b80156106ed576000805461ff0019169055604051600181527f7f26b83ff96e1f2b6a682f133852f6798a09c465da95921460cefb38474024989060200160405180910390a15b5050565b6000806106fd836114c6565b604080516101408101825282546001600160401b038082168352600160401b8204166020830152600160801b810463ffffffff90811693830193909352600160a01b80820484166060840152600160c01b820484166080840152600160e01b90910490921660a0820152600183015460c082015260028301546001600160a01b0390811660e0830152600390930154928316610100820152910460ff16151561012082015290506105308142611537565b60006107b8611608565b905090565b6000336105058185856107d08383610ecf565b6107da91906130f9565b610f94565b60004382106108005760405162461bcd60e51b81526004016105dc90613111565b6001600160a01b038316600090815260cd602052604090206105309083611683565b600061050b82611779565b6001600160a01b03908116600090815260cc60205260409020541690565b6108553382611922565b50565b6001600160a01b038116600090815260cd602052604081205461050b906119a2565b6001600160a01b031660009081526033602052604090205490565b6001600160a01b03811660009081526099602052604081205461050b565b60004382106108d45760405162461bcd60e51b81526004016105dc90613111565b61050b60ce83611683565b6000806108eb836114c6565b604080516101408101825282546001600160401b03808216808452600160401b83049091166020840152600160801b820463ffffffff90811694840194909452600160a01b808304851660608501819052600160c01b840486166080860152600160e01b90930490941660a0840152600185015460c084015260028501546001600160a01b0390811660e08501526003909501549485166101008401529290930460ff161515610120820152925042916109a491613148565b6001600160401b03168110156109be575060009392505050565b60006109c985611a0b565b90506109d6838284611a85565b95945050505050565b60006107b8611b0f565b606060378054610474906130ae565b6001600160a01b038116600090815260cd60205260408120548015610a6b576001600160a01b038316600090815260cd60205260409020610a3a600183613173565b81548110610a4a57610a4a61318a565b600091825260209091200154600160201b90046001600160e01b0316610a6e565b60005b6001600160e01b03169392505050565b6000610a923384848d8d8d8d8d8d8d611b32565b9a9950505050505050505050565b60003381610aae8286610ecf565b905083811015610b0e5760405162461bcd60e51b815260206004820152602560248201527f45524332303a2064656372656173656420616c6c6f77616e63652062656c6f77604482015264207a65726f60d81b60648201526084016105dc565b610b1b8286868403610f94565b506001949350505050565b600033610505818585611132565b6040805161014081018252600080825260208201819052918101829052606081018290526080810182905260a0810182905260c0810182905260e081018290526101008101829052610120810191909152610b8e826114c6565b604080516101408101825282546001600160401b038082168352600160401b8204166020830152600160801b810463ffffffff90811693830193909352600160a01b80820484166060840152600160c01b820484166080840152600160e01b90910490921660a0820152600183015460c082015260028301546001600160a01b0390811660e0830152600390930154928316610100820152910460ff16151561012082015292915050565b83421115610c895760405162461bcd60e51b815260206004820152601d60248201527f4552433230566f7465733a207369676e6174757265206578706972656400000060448201526064016105dc565b604080517fe48329057bfd03d55e49b547132e39cffd9c1820ad7b9d4c5307691425d15adf60208201526001600160a01b038816918101919091526060810186905260808101859052600090610d0390610cfb9060a00160405160208183030381529060405280519060200120611f64565b858585611fb2565b9050610d0e81611fda565b8614610d585760405162461bcd60e51b81526020600482015260196024820152784552433230566f7465733a20696e76616c6964206e6f6e636560381b60448201526064016105dc565b610d628188611922565b50505050505050565b83421115610dbb5760405162461bcd60e51b815260206004820152601d60248201527f45524332305065726d69743a206578706972656420646561646c696e6500000060448201526064016105dc565b60007f6e71edae12b1b97f4d1f60370fef10105fa2faae0126114a169c64845d6126c9888888610dea8c611fda565b6040805160208101969096526001600160a01b0394851690860152929091166060840152608083015260a082015260c0810186905260e0016040516020818303038152906040528051906020012090506000610e4582611f64565b90506000610e5582878787611fb2565b9050896001600160a01b0316816001600160a01b031614610eb85760405162461bcd60e51b815260206004820152601e60248201527f45524332305065726d69743a20696e76616c6964207369676e6174757265000060448201526064016105dc565b610ec38a8a8a610f94565b50505050505050505050565b6001600160a01b03918216600090815260346020908152604080832093909416825291909152205490565b600061050b82611a0b565b60006105308383612002565b60408051808201909152600080825260208201526001600160a01b038316600090815260cd60205260409020805463ffffffff8416908110610f5557610f5561318a565b60009182526020918290206040805180820190915291015463ffffffff81168252600160201b90046001600160e01b0316918101919091529392505050565b6001600160a01b038316610ff65760405162461bcd60e51b8152602060048201526024808201527f45524332303a20617070726f76652066726f6d20746865207a65726f206164646044820152637265737360e01b60648201526084016105dc565b6001600160a01b0382166110575760405162461bcd60e51b815260206004820152602260248201527f45524332303a20617070726f766520746f20746865207a65726f206164647265604482015261737360f01b60648201526084016105dc565b6001600160a01b0383811660008181526034602090815260408083209487168084529482529182902085905590518481527f8c5be1e5ebec7d5bd14f71427d1e84f3dd0314c0f7b2291e5b200ac8c7c3b925910160405180910390a3505050565b60006110c48484610ecf565b9050600019811461112c578181101561111f5760405162461bcd60e51b815260206004820152601d60248201527f45524332303a20696e73756666696369656e7420616c6c6f77616e636500000060448201526064016105dc565b61112c8484848403610f94565b50505050565b6001600160a01b0383166111965760405162461bcd60e51b815260206004820152602560248201527f45524332303a207472616e736665722066726f6d20746865207a65726f206164604482015264647265737360d81b60648201526084016105dc565b6001600160a01b0382166111f85760405162461bcd60e51b815260206004820152602360248201527f45524332303a207472616e7366657220746f20746865207a65726f206164647260448201526265737360e81b60648201526084016105dc565b6001600160a01b038316600090815260336020526040902054818110156112705760405162461bcd60e51b815260206004820152602660248201527f45524332303a207472616e7366657220616d6f756e7420657863656564732062604482015265616c616e636560d01b60648201526084016105dc565b6001600160a01b0380851660008181526033602052604080822086860390559286168082529083902080548601905591517fddf252ad1be2c89b69c2b068fc378daa952ba7f163c4a11628f55a4df523b3ef906112d09086815260200190565b60405180910390a361112c848484612261565b6000806112ef846114c6565b60038101549091506001600160a01b03163314611321573360405163472511eb60e11b81526004016105dc9190612da3565b600061132c85611a0b565b905060006113398261082d565b90506113458286611922565b604080518781526001600160a01b03838116602083015287168183015290517f9b9f521ec6aefca410a7e6f15a2d72e95a55a37543ed8cfebe25c600e5344ca99181900360600190a150600195945050505050565b6001600160a01b0381166108555760405163f6b2911f60e01b815260040160405180910390fd5b600054610100900460ff166113e85760405162461bcd60e51b81526004016105dc906131a0565b61085581604051806040016040528060018152602001603160f81b81525061227c565b600054610100900460ff166114325760405162461bcd60e51b81526004016105dc906131a0565b6106ed82826122bd565b611446828261230b565b6035546001600160e01b0310156114b85760405162461bcd60e51b815260206004820152603060248201527f4552433230566f7465733a20746f74616c20737570706c79207269736b73206f60448201526f766572666c6f77696e6720766f74657360801b60648201526084016105dc565b61112c60ce6123d4836123e0565b6000806114e26001600080516020613282833981519152613173565b80549091508190841061150b5760405163ad7d6e0960e01b8152600481018590526024016105dc565b8060000184815481106115205761152061318a565b906000526020600020906004020192505050919050565b6000826040015163ffffffff1683600001516115539190613148565b6001600160401b031682101561156b5750600061050b565b608083015183516115829163ffffffff1690613148565b6001600160401b0316821061159c575060c082015161050b565b82516000906115b4906001600160401b031684613173565b905060008460a0015163ffffffff16826115ce9190613201565b6115d89083613173565b9050846080015163ffffffff168560c00151826115f59190613215565b6115ff9190613234565b9250505061050b565b60006107b87f8b73c3c69bb8fe3d512ecc4cf759cc79239f7b179b0ffacaa9a75d522b39400f61163760655490565b6066546040805160208101859052908101839052606081018290524660808201523060a082015260009060c0016040516020818303038152906040528051906020012090509392505050565b8154600090818160058111156116dd57600061169e84612531565b6116a89085613173565b600088815260209020909150869082015463ffffffff1611156116cd578091506116db565b6116d88160016130f9565b92505b505b8082101561172a5760006116f18383612616565b600088815260209020909150869082015463ffffffff16111561171657809150611724565b6117218160016130f9565b92505b506116dd565b80156117635761174d8661173f600184613173565b600091825260209091200190565b54600160201b90046001600160e01b0316611766565b60005b6001600160e01b03169695505050505050565b600080611785836114c6565b604080516101408101825282546001600160401b038082168352600160401b8204166020830152600160801b810463ffffffff90811693830193909352600160a01b80820484166060840152600160c01b820484166080840152600160e01b90910490921660a0820152600183015460c082015260028301546001600160a01b0390811660e083015260039093015492831661010082018190529190920460ff1615156101208301529091503314611852573360405163472511eb60e11b81526004016105dc9190612da3565b60608101518151429161186d9163ffffffff90911690613148565b6001600160401b03168110156118965760405163fad681e760e01b815260040160405180910390fd5b60006118a185611a0b565b905060006118b0848385611a85565b9050806118d057604051630fe6b58b60e41b815260040160405180910390fd5b6118e08285610100015183611132565b60408051878152602081018390527f8e54a80e4adf22e5669cda627d76c97a21b0a2a54fab3b48b1b38b97b29580f0910160405180910390a195945050505050565b600061192d8361082d565b9050600061193a8461087a565b6001600160a01b03858116600081815260cc602052604080822080546001600160a01b031916898616908117909155905194955093928616927f3134e8a2e6d97e929a7e54011ea5485d7d196dd5f0ba4d4ef95803e8e3fc257f9190a461112c828483612631565b600063ffffffff821115611a075760405162461bcd60e51b815260206004820152602660248201527f53616665436173743a2076616c756520646f65736e27742066697420696e203360448201526532206269747360d01b60648201526084016105dc565b5090565b60008030611a3a60017f5c24c10d65ac9aa9e0f7f63d96fe83c89107fae52b4ef778334c906c1ec5c1ed613173565b60405160609290921b6bffffffffffffffffffffffff1916602083015260348201526054810184905260740160408051601f1981840301815291905280516020909101209392505050565b600083602001516001600160401b0316821015611afe576000611aa88584611537565b90506000611ab58561087a565b611acc8788602001516001600160401b0316611537565b611ad69190613173565b905080821115611af357611aea8183613173565b92505050610530565b600092505050610530565b611b078361087a565b949350505050565b600080611b2b6001600080516020613282833981519152613173565b5492915050565b600081611b3e8c61087a565b1015611b5d57604051633464861d60e21b815260040160405180910390fd5b6001600160a01b038a16611bd257604051630d63fe3160e31b815260206004820152603560248201527f56657374696e67207363686564756c652062656e6566696369617279206d757360448201527474206265206e6f6e207a65726f206164647265737360581b60648201526084016105dc565b63ffffffff8616611c3457604051630d63fe3160e31b815260206004820152602560248201527f56657374696e67207363686564756c65206475726174696f6e206d7573742062604482015264065203e20360dc1b60648201526084016105dc565b81611c8e57604051630d63fe3160e31b815260206004820152602360248201527f56657374696e67207363686564756c6520616d6f756e74206d7573742062652060448201526203e20360ec1b60648201526084016105dc565b63ffffffff8516611cee57604051630d63fe3160e31b815260206004820152602360248201527f56657374696e67207363686564756c6520706572696f64206d7573742062652060448201526203e20360ec1b60648201526084016105dc565b6000611cfa8688613248565b63ffffffff161115611d6d57604051630d63fe3160e31b815260206004820152603560248201527f56657374696e67207363686564756c65206475726174696f6e206d7573742073604482015274706c697420696e20657861637420706572696f647360581b60648201526084016105dc565b8563ffffffff168763ffffffff161115611dfa57604051630d63fe3160e31b815260206004820152604160248201527f56657374696e67207363686564756c65206475726174696f6e206d757374206260448201527f652067726561746572207468616e2074686520636c696666206475726174696f6064820152603760f91b608482015260a4016105dc565b6001600160401b038816611e0c574297505b60006040518061014001604052808a6001600160401b031681526020018863ffffffff168b611e3b9190613148565b6001600160401b031681526020018963ffffffff1681526020018663ffffffff1681526020018863ffffffff1681526020018763ffffffff1681526020018481526020018d6001600160a01b031681526020018c6001600160a01b03168152602001851515815250905060006001611eb28361276e565b611ebc9190613173565b90506000611ec982611a0b565b9050611ed68e8287611132565b6001600160a01b038c16611ef357611eee818e611922565b611efd565b611efd818d611922565b8c6001600160a01b03168e6001600160a01b03167fb0274f4a20cdf2005bb6a28aab72868f144d56c0828753a0f6edc7a62ef131b18488604051611f4b929190918252602082015260400190565b60405180910390a3509c9b505050505050505050505050565b600061050b611f71611608565b8360405161190160f01b6020820152602281018390526042810182905260009060620160405160208183030381529060405280519060200120905092915050565b6000806000611fc3878787876128ba565b91509150611fd081612974565b5095945050505050565b6001600160a01b03811660009081526099602052604090208054600181018255905b50919050565b60006001600160401b03821661201a57429150612044565b42826001600160401b03161015612044576040516317518afb60e11b815260040160405180910390fd5b600061204f846114c6565b6003810154909150600160a01b900460ff1661207e576040516341a76da360e01b815260040160405180910390fd5b80546001600160401b0390811690841610806120ad575080546001600160401b03808516600160401b90920416105b156120cb57604051635178474560e11b815260040160405180910390fd5b60028101546001600160a01b031633146120fa573360405163472511eb60e11b81526004016105dc9190612da3565b600061210585611a0b565b604080516101408101825284546001600160401b038082168352600160401b820481166020840152600160801b820463ffffffff90811694840194909452600160a01b80830485166060850152600160c01b830485166080850152600160e01b90920490931660a0830152600186015460c083015260028601546001600160a01b0390811660e084015260038701549081166101008401520460ff1615156101208201529192506000916121bc9184908816611a85565b90506000816121ca8461087a565b6121d49190613173565b905080156121f65760028401546121f69084906001600160a01b031683611132565b835467ffffffffffffffff60401b1916600160401b6001600160401b0388160217845560408051888152602081018390527fb9a2f4ba0df83f83fc8fb222ccd77a947d0e8c212e217bf1f3d2bc2142e5082c910160405180910390a19695505050505050565b505050565b61225c61226d8461082d565b6122768461082d565b83612631565b600054610100900460ff166122a35760405162461bcd60e51b81526004016105dc906131a0565b815160209283012081519190920120606591909155606655565b600054610100900460ff166122e45760405162461bcd60e51b81526004016105dc906131a0565b81516122f7906036906020850190612bdc565b50805161225c906037906020840190612bdc565b6001600160a01b0382166123615760405162461bcd60e51b815260206004820152601f60248201527f45524332303a206d696e7420746f20746865207a65726f20616464726573730060448201526064016105dc565b806035600082825461237391906130f9565b90915550506001600160a01b0382166000818152603360209081526040808320805486019055518481527fddf252ad1be2c89b69c2b068fc378daa952ba7f163c4a11628f55a4df523b3ef910160405180910390a36106ed60008383612261565b600061053082846130f9565b8254600090819081811561242c576123fd8761173f600185613173565b60408051808201909152905463ffffffff81168252600160201b90046001600160e01b03166020820152612441565b60408051808201909152600080825260208201525b905080602001516001600160e01b0316935061246184868863ffffffff16565b92506000821180156124795750805163ffffffff1643145b156124bd5761248783612abd565b6124968861173f600186613173565b80546001600160e01b0392909216600160201b0263ffffffff909216919091179055612527565b8660405180604001604052806124d2436119a2565b63ffffffff1681526020016124e686612abd565b6001600160e01b039081169091528254600181018455600093845260209384902083519490930151909116600160201b0263ffffffff909316929092179101555b5050935093915050565b60008161254057506000919050565b6000600161254d84612b26565b901c6001901b90506001818481612566576125666131eb565b048201901c9050600181848161257e5761257e6131eb565b048201901c90506001818481612596576125966131eb565b048201901c905060018184816125ae576125ae6131eb565b048201901c905060018184816125c6576125c66131eb565b048201901c905060018184816125de576125de6131eb565b048201901c905060018184816125f6576125f66131eb565b048201901c905061053081828581612610576126106131eb565b04612bba565b60006126256002848418613234565b610530908484166130f9565b816001600160a01b0316836001600160a01b0316141580156126535750600081115b1561225c576001600160a01b038316156126e1576001600160a01b038316600090815260cd60205260408120819061268e90612bd0856123e0565b91509150846001600160a01b03167fdec2bacdd2f05b59de34da9b523dff8be42e5e38e818c82fdb0bae774387a72483836040516126d6929190918252602082015260400190565b60405180910390a250505b6001600160a01b0382161561225c576001600160a01b038216600090815260cd602052604081208190612717906123d4856123e0565b91509150836001600160a01b03167fdec2bacdd2f05b59de34da9b523dff8be42e5e38e818c82fdb0bae774387a724838360405161275f929190918252602082015260400190565b60405180910390a25050505050565b60008061278a6001600080516020613282833981519152613173565b80546001808201835560008381526020908190208751600490940201805491880151604089015160608a015160808b015160a08c01516001600160401b039889166001600160801b031990971696909617600160401b98909416979097029290921767ffffffffffffffff60801b1916600160801b63ffffffff9283160263ffffffff60a01b191617600160a01b9282168302176001600160c01b0316600160c01b968216969096026001600160e01b031695909517600160e01b959093169490940291909117815560c08701519181019190915560e08601516002820180546001600160a01b0319166001600160a01b039283161790556101008701516003909201805461012090980151929091166001600160a81b0319909716969096179015159091021790935550505490565b6000806fa2a8918ca85bafe22016d0b997e4df60600160ff1b038311156128e7575060009050600361296b565b6040805160008082526020820180845289905260ff881692820192909252606081018690526080810185905260019060a0016020604051602081039080840390855afa15801561293b573d6000803e3d6000fd5b5050604051601f1901519150506001600160a01b0381166129645760006001925092505061296b565b9150600090505b94509492505050565b60008160048111156129885761298861326b565b14156129915750565b60018160048111156129a5576129a561326b565b14156129ee5760405162461bcd60e51b815260206004820152601860248201527745434453413a20696e76616c6964207369676e617475726560401b60448201526064016105dc565b6002816004811115612a0257612a0261326b565b1415612a505760405162461bcd60e51b815260206004820152601f60248201527f45434453413a20696e76616c6964207369676e6174757265206c656e6774680060448201526064016105dc565b6003816004811115612a6457612a6461326b565b14156108555760405162461bcd60e51b815260206004820152602260248201527f45434453413a20696e76616c6964207369676e6174757265202773272076616c604482015261756560f01b60648201526084016105dc565b60006001600160e01b03821115611a075760405162461bcd60e51b815260206004820152602760248201527f53616665436173743a2076616c756520646f65736e27742066697420696e20326044820152663234206269747360c81b60648201526084016105dc565b600080608083901c15612b3b57608092831c92015b604083901c15612b4d57604092831c92015b602083901c15612b5f57602092831c92015b601083901c15612b7157601092831c92015b600883901c15612b8357600892831c92015b600483901c15612b9557600492831c92015b600283901c15612ba757600292831c92015b600183901c1561050b5760010192915050565b6000818310612bc95781610530565b5090919050565b60006105308284613173565b828054612be8906130ae565b90600052602060002090601f016020900481019282612c0a5760008555612c50565b82601f10612c2357805160ff1916838001178555612c50565b82800160010185558215612c50579182015b82811115612c50578251825591602001919060010190612c35565b50611a079291505b80821115611a075760008155600101612c58565b600060208083528351808285015260005b81811015612c9957858101830151858201604001528201612c7d565b81811115612cab576000604083870101525b50601f01601f1916929092016040019392505050565b80356001600160a01b0381168114612cd857600080fd5b919050565b60008060408385031215612cf057600080fd5b612cf983612cc1565b946020939093013593505050565b600080600060608486031215612d1c57600080fd5b612d2584612cc1565b9250612d3360208501612cc1565b9150604084013590509250925092565b60008060408385031215612d5657600080fd5b82359150612d6660208401612cc1565b90509250929050565b600060208284031215612d8157600080fd5b61053082612cc1565b600060208284031215612d9c57600080fd5b5035919050565b6001600160a01b0391909116815260200190565b80356001600160401b0381168114612cd857600080fd5b803563ffffffff81168114612cd857600080fd5b60008060008060008060008060006101208a8c031215612e0157600080fd5b612e0a8a612db7565b9850612e1860208b01612dce565b9750612e2660408b01612dce565b9650612e3460608b01612dce565b9550612e4260808b01612dce565b945060a08a01358015158114612e5757600080fd5b935060c08a01359250612e6c60e08b01612cc1565b9150612e7b6101008b01612cc1565b90509295985092959850929598565b81516001600160401b0316815261014081016020830151612eb660208401826001600160401b03169052565b506040830151612ece604084018263ffffffff169052565b506060830151612ee6606084018263ffffffff169052565b506080830151612efe608084018263ffffffff169052565b5060a0830151612f1660a084018263ffffffff169052565b5060c083015160c083015260e0830151612f3b60e08401826001600160a01b03169052565b50610100838101516001600160a01b031690830152610120928301511515929091019190915290565b803560ff81168114612cd857600080fd5b60008060008060008060c08789031215612f8e57600080fd5b612f9787612cc1565b95506020870135945060408701359350612fb360608801612f64565b92506080870135915060a087013590509295509295509295565b600080600080600080600060e0888a031215612fe857600080fd5b612ff188612cc1565b9650612fff60208901612cc1565b9550604088013594506060880135935061301b60808901612f64565b925060a0880135915060c0880135905092959891949750929550565b6000806040838503121561304a57600080fd5b61305383612cc1565b9150612d6660208401612cc1565b6000806040838503121561307457600080fd5b82359150612d6660208401612db7565b6000806040838503121561309757600080fd5b6130a083612cc1565b9150612d6660208401612dce565b600181811c908216806130c257607f821691505b60208210811415611ffc57634e487b7160e01b600052602260045260246000fd5b634e487b7160e01b600052601160045260246000fd5b6000821982111561310c5761310c6130e3565b500190565b6020808252601f908201527f4552433230566f7465733a20626c6f636b206e6f7420796574206d696e656400604082015260600190565b60006001600160401b0380831681851680830382111561316a5761316a6130e3565b01949350505050565b600082821015613185576131856130e3565b500390565b634e487b7160e01b600052603260045260246000fd5b6020808252602b908201527f496e697469616c697a61626c653a20636f6e7472616374206973206e6f74206960408201526a6e697469616c697a696e6760a81b606082015260800190565b634e487b7160e01b600052601260045260246000fd5b600082613210576132106131eb565b500690565b600081600019048311821515161561322f5761322f6130e3565b500290565b600082613243576132436131eb565b500490565b600063ffffffff8084168061325f5761325f6131eb565b92169190910692915050565b634e487b7160e01b600052602160045260246000fdfef828a756855b22b2018e6c442f4e4296eacda2c58e90fa4824ff32229d084d62a2646970667358221220c3a2e5d68bab1aa6717165e934c1b0fd71f9885ea37aca4a075126ffbd66ac3064736f6c634300080a0033",
            "0x608060405234801561001057600080fd5b5061397c806100206000396000f3fe608060405234801561001057600080fd5b50600436106101bb5760003560e01c806370a08231116100fa578063a457c2d71161009d578063a457c2d714610396578063a9059cbb146103a9578063beb8f883146103bc578063c3cda520146103dc578063d505accf146103ef578063dd62ed3e14610402578063decc722414610415578063f0519be014610428578063f1127ed81461043b57600080fd5b806370a08231146103145780637ecebe00146103275780638e539e8c1461033a5780638fb8ad841461034d5780639295ccec1461036057806395d89b41146103685780639ab24eb014610370578063a33773f61461038357600080fd5b80633644e515116101625780633644e5151461027057806339509351146102785780633a46b1a81461028b578063574d91831461029e578063587cde1e146102b157806359facefd146102d15780635c19a95c146102d95780636fcfff45146102ec57600080fd5b806306fdde03146101c0578063095ea7b3146101de57806318160ddd1461020157806323b872dd1461021357806323dd35b41461022657806328766ffd1461023957806329c9093b1461024e578063313ce56714610261575b600080fd5b6101c8610478565b6040516101d591906132b8565b60405180910390f35b6101f16101ec366004613329565b61050a565b60405190151581526020016101d5565b6035545b6040519081526020016101d5565b6101f1610221366004613353565b610524565b6101f161023436600461338f565b610548565b61024c6102473660046133bb565b61055b565b005b61020561025c3660046133d6565b6106c6565b604051601281526020016101d5565b61020561079c565b6101f1610286366004613329565b6107ab565b610205610299366004613329565b6107cd565b6102056102ac3660046133d6565b610810565b6102c46102bf3660046133bb565b61081b565b6040516101d591906133ef565b61024c610839565b61024c6102e73660046133bb565b6108d7565b6102ff6102fa3660046133bb565b6108e4565b60405163ffffffff90911681526020016101d5565b6102056103223660046133bb565b610906565b6102056103353660046133bb565b610921565b6102056103483660046133d6565b61093f565b61020561035b3660046133d6565b61096b565b610205610a67565b6101c8610a71565b61020561037e3660046133bb565b610a80565b61020561039136600461342e565b610b06565b6101f16103a4366004613329565b610b28565b6101f16103b7366004613329565b610ba3565b6103cf6103ca3660046133d6565b610bb1565b6040516101d591906134d6565b61024c6103ea3660046135cc565b610ccb565b61024c6103fd366004613624565b610dfd565b61020561041036600461368e565b610f61565b6102c46104233660046133d6565b610f8c565b6102056104363660046136b8565b610f97565b61044e6104493660046136db565b610fa3565b60408051825163ffffffff1681526020928301516001600160e01b031692810192909252016101d5565b60606036805461048790613705565b80601f01602080910402602001604051908101604052809291908181526020018280546104b390613705565b80156105005780601f106104d557610100808354040283529160200191610500565b820191906000526020600020905b8154815290600101906020018083116104e357829003601f168201915b5050505050905090565b600033610518818585611026565b60019150505b92915050565b60003361053285828561114a565b61053d8585856111c4565b506001949350505050565b60006105548383611375565b9392505050565b600054610100900460ff161580801561057b5750600054600160ff909116105b806105955750303b158015610595575060005460ff166001145b6105ba5760405162461bcd60e51b81526004016105b19061373a565b60405180910390fd5b6000805460ff1916600117905580156105dd576000805461ff0019166101001790555b6105e68261142f565b610618604051806040016040528060118152602001704c697175696420436f6c6c65637469766560781b815250611456565b610666604051806040016040528060118152602001704c697175696420436f6c6c65637469766560781b81525060405180604001604052806003815260200162544c4360e81b8152506114a0565b61067c826b033b2e3c9fd0803ce80000006114d1565b80156106c2576000805461ff0019169055604051600181527f7f26b83ff96e1f2b6a682f133852f6798a09c465da95921460cefb38474024989060200160405180910390a15b5050565b6000806106d28361155b565b604080516101608101825282546001600160401b038082168352600160401b82041660208301819052600160801b820463ffffffff90811694840194909452600160a01b80830485166060850152600160c01b830485166080850152600160e01b90920490931660a0830152600184015460c083015260028401546001600160a01b0390811660e084015260038501549081166101008401520460ff1615156101208201526004909201546101408301529091506105549082906107979042906115cc565b6115e1565b60006107a66116b2565b905090565b6000336105188185856107be8383610f61565b6107c8919061379e565b611026565b60004382106107ee5760405162461bcd60e51b81526004016105b1906137b6565b6001600160a01b038316600090815260cd60205260409020610554908361172d565b600061051e82611823565b6001600160a01b03908116600090815260cc60205260409020541690565b600054600290610100900460ff1615801561085b575060005460ff8083169116105b6108775760405162461bcd60e51b81526004016105b19061373a565b6000805461ffff191660ff831617610100179055610893611a0f565b6000805461ff001916905560405160ff821681527f7f26b83ff96e1f2b6a682f133852f6798a09c465da95921460cefb38474024989060200160405180910390a150565b6108e13382611a80565b50565b6001600160a01b038116600090815260cd602052604081205461051e90611b00565b6001600160a01b031660009081526033602052604090205490565b6001600160a01b03811660009081526099602052604081205461051e565b60004382106109605760405162461bcd60e51b81526004016105b1906137b6565b61051e60ce8361172d565b6000806109778361155b565b604080516101608101825282546001600160401b03808216808452600160401b83049091166020840152600160801b820463ffffffff90811694840194909452600160a01b808304851660608501819052600160c01b840486166080860152600160e01b90930490941660a0840152600185015460c084015260028501546001600160a01b0390811660e085015260038601549081166101008501529390930460ff16151561012083015260049093015461014082015292504291610a3b916137ed565b6001600160401b0316811015610a55575060009392505050565b610a5f8282611b69565b949350505050565b60006107a6611bc2565b60606037805461048790613705565b6001600160a01b038116600090815260cd60205260408120548015610af3576001600160a01b038316600090815260cd60205260409020610ac2600183613818565b81548110610ad257610ad261382f565b600091825260209091200154600160201b90046001600160e01b0316610af6565b60005b6001600160e01b03169392505050565b6000610b1a3384848d8d8d8d8d8d8d611be5565b9a9950505050505050505050565b60003381610b368286610f61565b905083811015610b965760405162461bcd60e51b815260206004820152602560248201527f45524332303a2064656372656173656420616c6c6f77616e63652062656c6f77604482015264207a65726f60d81b60648201526084016105b1565b61053d8286868403611026565b6000336105188185856111c4565b6040805161016081018252600080825260208201819052918101829052606081018290526080810182905260a0810182905260c0810182905260e0810182905261010081018290526101208101829052610140810191909152610c138261155b565b604080516101608101825282546001600160401b038082168352600160401b8204166020830152600160801b810463ffffffff90811693830193909352600160a01b80820484166060840152600160c01b820484166080840152600160e01b90910490921660a0820152600183015460c082015260028301546001600160a01b0390811660e083015260038401549081166101008301529190910460ff16151561012082015260049091015461014082015292915050565b83421115610d1b5760405162461bcd60e51b815260206004820152601d60248201527f4552433230566f7465733a207369676e6174757265206578706972656400000060448201526064016105b1565b604080517fe48329057bfd03d55e49b547132e39cffd9c1820ad7b9d4c5307691425d15adf60208201526001600160a01b038816918101919091526060810186905260808101859052600090610d9590610d8d9060a00160405160208183030381529060405280519060200120612141565b85858561218f565b9050610da0816121b7565b8614610dea5760405162461bcd60e51b81526020600482015260196024820152784552433230566f7465733a20696e76616c6964206e6f6e636560381b60448201526064016105b1565b610df48188611a80565b50505050505050565b83421115610e4d5760405162461bcd60e51b815260206004820152601d60248201527f45524332305065726d69743a206578706972656420646561646c696e6500000060448201526064016105b1565b60007f6e71edae12b1b97f4d1f60370fef10105fa2faae0126114a169c64845d6126c9888888610e7c8c6121b7565b6040805160208101969096526001600160a01b0394851690860152929091166060840152608083015260a082015260c0810186905260e0016040516020818303038152906040528051906020012090506000610ed782612141565b90506000610ee78287878761218f565b9050896001600160a01b0316816001600160a01b031614610f4a5760405162461bcd60e51b815260206004820152601e60248201527f45524332305065726d69743a20696e76616c6964207369676e6174757265000060448201526064016105b1565b610f558a8a8a611026565b50505050505050505050565b6001600160a01b03918216600090815260346020908152604080832093909416825291909152205490565b600061051e826121da565b60006105548383612254565b60408051808201909152600080825260208201526001600160a01b038316600090815260cd60205260409020805463ffffffff8416908110610fe757610fe761382f565b60009182526020918290206040805180820190915291015463ffffffff81168252600160201b90046001600160e01b0316918101919091529392505050565b6001600160a01b0383166110885760405162461bcd60e51b8152602060048201526024808201527f45524332303a20617070726f76652066726f6d20746865207a65726f206164646044820152637265737360e01b60648201526084016105b1565b6001600160a01b0382166110e95760405162461bcd60e51b815260206004820152602260248201527f45524332303a20617070726f766520746f20746865207a65726f206164647265604482015261737360f01b60648201526084016105b1565b6001600160a01b0383811660008181526034602090815260408083209487168084529482529182902085905590518481527f8c5be1e5ebec7d5bd14f71427d1e84f3dd0314c0f7b2291e5b200ac8c7c3b925910160405180910390a3505050565b60006111568484610f61565b905060001981146111be57818110156111b15760405162461bcd60e51b815260206004820152601d60248201527f45524332303a20696e73756666696369656e7420616c6c6f77616e636500000060448201526064016105b1565b6111be8484848403611026565b50505050565b6001600160a01b0383166112285760405162461bcd60e51b815260206004820152602560248201527f45524332303a207472616e736665722066726f6d20746865207a65726f206164604482015264647265737360d81b60648201526084016105b1565b6001600160a01b03821661128a5760405162461bcd60e51b815260206004820152602360248201527f45524332303a207472616e7366657220746f20746865207a65726f206164647260448201526265737360e81b60648201526084016105b1565b6001600160a01b038316600090815260336020526040902054818110156113025760405162461bcd60e51b815260206004820152602660248201527f45524332303a207472616e7366657220616d6f756e7420657863656564732062604482015265616c616e636560d01b60648201526084016105b1565b6001600160a01b0380851660008181526033602052604080822086860390559286168082529083902080548601905591517fddf252ad1be2c89b69c2b068fc378daa952ba7f163c4a11628f55a4df523b3ef906113629086815260200190565b60405180910390a36111be848484612582565b6000806113818461155b565b60038101549091506001600160a01b031633146113b3573360405163472511eb60e11b81526004016105b191906133ef565b60006113be856121da565b905060006113cb8261081b565b90506113d78286611a80565b60038301546040518781526001600160a01b039182169187811691908416907ff59662617e9c4f8707dff52c85bd8f49f665073ba5fffb29c2a55ebf58e7a75e9060200160405180910390a450600195945050505050565b6001600160a01b0381166108e15760405163f6b2911f60e01b815260040160405180910390fd5b600054610100900460ff1661147d5760405162461bcd60e51b81526004016105b190613845565b6108e181604051806040016040528060018152602001603160f81b81525061259d565b600054610100900460ff166114c75760405162461bcd60e51b81526004016105b190613845565b6106c282826125de565b6114db828261262c565b6035546001600160e01b03101561154d5760405162461bcd60e51b815260206004820152603060248201527f4552433230566f7465733a20746f74616c20737570706c79207269736b73206f60448201526f766572666c6f77696e6720766f74657360801b60648201526084016105b1565b6111be60ce6126f583612701565b6000806115776001600080516020613927833981519152613818565b8054909150819084106115a05760405163ad7d6e0960e01b8152600481018590526024016105b1565b8060000184815481106115b5576115b561382f565b906000526020600020906005020192505050919050565b60008183116115db5782610554565b50919050565b6000826040015163ffffffff1683600001516115fd91906137ed565b6001600160401b03168210156116155750600061051e565b6080830151835161162c9163ffffffff16906137ed565b6001600160401b03168210611646575060c082015161051e565b825160009061165e906001600160401b031684613818565b905060008460a0015163ffffffff168261167891906138a6565b6116829083613818565b9050846080015163ffffffff168560c001518261169f91906138ba565b6116a991906138d9565b9250505061051e565b60006107a67f8b73c3c69bb8fe3d512ecc4cf759cc79239f7b179b0ffacaa9a75d522b39400f6116e160655490565b6066546040805160208101859052908101839052606081018290524660808201523060a082015260009060c0016040516020818303038152906040528051906020012090509392505050565b81546000908181600581111561178757600061174884612852565b6117529085613818565b600088815260209020909150869082015463ffffffff16111561177757809150611785565b61178281600161379e565b92505b505b808210156117d457600061179b8383612937565b600088815260209020909150869082015463ffffffff1611156117c0578091506117ce565b6117cb81600161379e565b92505b50611787565b801561180d576117f7866117e9600184613818565b600091825260209091200190565b54600160201b90046001600160e01b0316611810565b60005b6001600160e01b03169695505050505050565b60008061182f8361155b565b60038101549091506001600160a01b03163314611861573360405163472511eb60e11b81526004016105b191906133ef565b8054429061188590600160a01b810463ffffffff16906001600160401b03166137ed565b6001600160401b03168110156118ae5760405163fad681e760e01b815260040160405180910390fd5b604080516101608101825283546001600160401b038082168352600160401b8204166020830152600160801b810463ffffffff90811693830193909352600160a01b80820484166060840152600160c01b820484166080840152600160e01b90910490921660a0820152600184015460c082015260028401546001600160a01b0390811660e083015260038501549081166101008301529190910460ff161515610120820152600483015461014082015260009061196c9083611b69565b90508061198c57604051630fe6b58b60e41b815260040160405180910390fd5b6000611997866121da565b60038501549091506119b49082906001600160a01b0316846111c4565b818460040160008282546119c8919061379e565b909155505060408051878152602081018490527f8e54a80e4adf22e5669cda627d76c97a21b0a2a54fab3b48b1b38b97b29580f0910160405180910390a150949350505050565b611a17611bc2565b611a7e576000611a25612952565b905060005b818110156106c2576000611a3d82612980565b6001015490506000611a5a611a54610322856121da565b836115cc565b611a649083613818565b9050611a708382612a03565b508260010192505050611a2a565b565b6000611a8b8361081b565b90506000611a9884610906565b6001600160a01b03858116600081815260cc602052604080822080546001600160a01b031916898616908117909155905194955093928616927f3134e8a2e6d97e929a7e54011ea5485d7d196dd5f0ba4d4ef95803e8e3fc257f9190a46111be828483612c6c565b600063ffffffff821115611b655760405162461bcd60e51b815260206004820152602660248201527f53616665436173743a2076616c756520646f65736e27742066697420696e203360448201526532206269747360d01b60648201526084016105b1565b5090565b6101408201516020830151600091906001600160401b0316831115611b995783602001516001600160401b031692505b6000611ba585856115e1565b905081811115611bb75703905061051e565b506000949350505050565b600080611bde6001600080516020613927833981519152613818565b5492915050565b600081611bf18c610906565b1015611c1057604051633464861d60e21b815260040160405180910390fd5b6001600160a01b038a16611c8557604051630d63fe3160e31b815260206004820152603560248201527f56657374696e67207363686564756c652062656e6566696369617279206d757360448201527474206265206e6f6e207a65726f206164647265737360581b60648201526084016105b1565b63ffffffff8616611ce757604051630d63fe3160e31b815260206004820152602560248201527f56657374696e67207363686564756c65206475726174696f6e206d7573742062604482015264065203e20360dc1b60648201526084016105b1565b81611d4157604051630d63fe3160e31b815260206004820152602360248201527f56657374696e67207363686564756c6520616d6f756e74206d7573742062652060448201526203e20360ec1b60648201526084016105b1565b63ffffffff8516611da157604051630d63fe3160e31b815260206004820152602360248201527f56657374696e67207363686564756c6520706572696f64206d7573742062652060448201526203e20360ec1b60648201526084016105b1565b6000611dad86886138ed565b63ffffffff161115611e2057604051630d63fe3160e31b815260206004820152603560248201527f56657374696e67207363686564756c65206475726174696f6e206d7573742073604482015274706c697420696e20657861637420706572696f647360581b60648201526084016105b1565b6000611e2c86896138ed565b63ffffffff161115611ea757604051630d63fe3160e31b815260206004820152603b60248201527f56657374696e67207363686564756c6520636c696666206475726174696f6e2060448201527f6d7573742073706c697420696e20657861637420706572696f6473000000000060648201526084016105b1565b8563ffffffff168763ffffffff161115611f4057604051630d63fe3160e31b815260206004820152604d60248201527f56657374696e67207363686564756c65206475726174696f6e206d757374206260448201527f652067726561746572207468616e206f7220657175616c20746f20746865206360648201526c3634b33310323ab930ba34b7b760991b608482015260a4016105b1565b8563ffffffff168563ffffffff1683611f5991906138ba565b611f6391906138d9565b611fd057604051630d63fe3160e31b815260206004820152603760248201527f56657374696e67207363686564756c6520616d6f756e7420746f6f206c6f7720604482015276199bdc88191d5c985d1a5bdb88185b99081c195c9a5bd9604a1b60648201526084016105b1565b6001600160401b038816611fe2574297505b60006040518061016001604052808a6001600160401b031681526020018863ffffffff168b61201191906137ed565b6001600160401b031681526020018963ffffffff1681526020018663ffffffff1681526020018863ffffffff1681526020018763ffffffff1681526020018481526020018d6001600160a01b031681526020018c6001600160a01b031681526020018515158152602001600081525090506000600161208f83612da9565b6120999190613818565b905060006120a6826121da565b90506120b38e82876111c4565b6001600160a01b038c166120d0576120cb818e611a80565b6120da565b6120da818d611a80565b8c6001600160a01b03168e6001600160a01b03167fb0274f4a20cdf2005bb6a28aab72868f144d56c0828753a0f6edc7a62ef131b18488604051612128929190918252602082015260400190565b60405180910390a3509c9b505050505050505050505050565b600061051e61214e6116b2565b8360405161190160f01b6020820152602281018390526042810182905260009060620160405160208183030381529060405280519060200120905092915050565b60008060006121a087878787612f06565b915091506121ad81612fc0565b5095945050505050565b6001600160a01b0316600090815260996020526040902080546001810190915590565b6000803061220960017f5c24c10d65ac9aa9e0f7f63d96fe83c89107fae52b4ef778334c906c1ec5c1ed613818565b60405160609290921b6bffffffffffffffffffffffff1916602083015260348201526054810184905260740160408051601f1981840301815291905280516020909101209392505050565b60006001600160401b03821661226c57429150612296565b42826001600160401b03161015612296576040516317518afb60e11b815260040160405180910390fd5b60006122a18461155b565b6003810154909150600160a01b900460ff166122d0576040516341a76da360e01b815260040160405180910390fd5b80546001600160401b0390811690841610806122ff575080546001600160401b03808516600160401b90920416105b1561231d57604051635178474560e11b815260040160405180910390fd5b60028101546001600160a01b0316331461234c573360405163472511eb60e11b81526004016105b191906133ef565b604080516101608101825282546001600160401b038082168352600160401b82041660208301819052600160801b820463ffffffff90811694840194909452600160a01b80830485166060850152600160c01b830485166080850152600160e01b90920490931660a0830152600184015460c083015260028401546001600160a01b0390811660e084015260038501549081166101008401520460ff161515610120820152600483015461014082015260009161240991906115e1565b604080516101608101825284546001600160401b038082168352600160401b820481166020840152600160801b820463ffffffff90811694840194909452600160a01b80830485166060850152600160c01b830485166080850152600160e01b90920490931660a0830152600186015460c083015260028601546001600160a01b0390811660e084015260038701549081166101008401520460ff16151561012082015260048501546101408201529192506000916124c99187166115e1565b905060006124d78284613818565b905080156125095760006124ea886121da565b60028601549091506125079082906001600160a01b0316846111c4565b505b835467ffffffffffffffff60401b1916600160401b6001600160401b0388169081029190911785556040805189815260208101849052908101919091527f2c802be755370b3a250faf14516cb3480b47417d4c12d7fa0ff3ee0b937d99e99060600160405180910390a19695505050505050565b505050565b61257d61258e8461081b565b6125978461081b565b83612c6c565b600054610100900460ff166125c45760405162461bcd60e51b81526004016105b190613845565b815160209283012081519190920120606591909155606655565b600054610100900460ff166126055760405162461bcd60e51b81526004016105b190613845565b8151612618906036906020850190613228565b50805161257d906037906020840190613228565b6001600160a01b0382166126825760405162461bcd60e51b815260206004820152601f60248201527f45524332303a206d696e7420746f20746865207a65726f20616464726573730060448201526064016105b1565b8060356000828254612694919061379e565b90915550506001600160a01b0382166000818152603360209081526040808320805486019055518481527fddf252ad1be2c89b69c2b068fc378daa952ba7f163c4a11628f55a4df523b3ef910160405180910390a36106c260008383612582565b6000610554828461379e565b8254600090819081811561274d5761271e876117e9600185613818565b60408051808201909152905463ffffffff81168252600160201b90046001600160e01b03166020820152612762565b60408051808201909152600080825260208201525b905080602001516001600160e01b0316935061278284868863ffffffff16565b925060008211801561279a5750805163ffffffff1643145b156127de576127a883613109565b6127b7886117e9600186613818565b80546001600160e01b0392909216600160201b0263ffffffff909216919091179055612848565b8660405180604001604052806127f343611b00565b63ffffffff16815260200161280786613109565b6001600160e01b039081169091528254600181018455600093845260209384902083519490930151909116600160201b0263ffffffff909316929092179101555b5050935093915050565b60008161286157506000919050565b6000600161286e84613172565b901c6001901b9050600181848161288757612887613890565b048201901c9050600181848161289f5761289f613890565b048201901c905060018184816128b7576128b7613890565b048201901c905060018184816128cf576128cf613890565b048201901c905060018184816128e7576128e7613890565b048201901c905060018184816128ff576128ff613890565b048201901c9050600181848161291757612917613890565b048201901c90506105548182858161293157612931613890565b04613206565b600061294660028484186138d9565b6105549084841661379e565b600080611bde60017ff828a756855b22b2018e6c442f4e4296eacda2c58e90fa4824ff32229d084d62613818565b6000806129ae60017ff828a756855b22b2018e6c442f4e4296eacda2c58e90fa4824ff32229d084d62613818565b8054909150819084106129d75760405163ad7d6e0960e01b8152600481018590526024016105b1565b8060000184815481106129ec576129ec61382f565b906000526020600020906004020192505050919050565b600080612a0f84612980565b604051806101400160405290816000820160009054906101000a90046001600160401b03166001600160401b03166001600160401b031681526020016000820160089054906101000a90046001600160401b03166001600160401b03166001600160401b031681526020016000820160109054906101000a900463ffffffff1663ffffffff1663ffffffff1681526020016000820160149054906101000a900463ffffffff1663ffffffff1663ffffffff1681526020016000820160189054906101000a900463ffffffff1663ffffffff1663ffffffff16815260200160008201601c9054906101000a900463ffffffff1663ffffffff1663ffffffff168152602001600182015481526020016002820160009054906101000a90046001600160a01b03166001600160a01b03166001600160a01b031681526020016003820160009054906101000a90046001600160a01b03166001600160a01b03166001600160a01b031681526020016003820160149054906101000a900460ff1615151515815250509050600060405180610160016040528083600001516001600160401b0316815260200183602001516001600160401b03168152602001836040015163ffffffff168152602001836060015163ffffffff168152602001836080015163ffffffff1681526020018360a0015163ffffffff1681526020018360c0015181526020018360e001516001600160a01b031681526020018361010001516001600160a01b03168152602001836101200151151581526020018581525090506001612c5982612da9565b612c639190613818565b95945050505050565b816001600160a01b0316836001600160a01b031614158015612c8e5750600081115b1561257d576001600160a01b03831615612d1c576001600160a01b038316600090815260cd602052604081208190612cc99061321c85612701565b91509150846001600160a01b03167fdec2bacdd2f05b59de34da9b523dff8be42e5e38e818c82fdb0bae774387a7248383604051612d11929190918252602082015260400190565b60405180910390a250505b6001600160a01b0382161561257d576001600160a01b038216600090815260cd602052604081208190612d52906126f585612701565b91509150836001600160a01b03167fdec2bacdd2f05b59de34da9b523dff8be42e5e38e818c82fdb0bae774387a7248383604051612d9a929190918252602082015260400190565b60405180910390a25050505050565b600080612dc56001600080516020613927833981519152613818565b80546001808201835560008381526020908190208751600590940201805491880151604089015160608a015160808b015160a08c01516001600160401b039889166001600160801b031990971696909617600160401b98909416979097029290921767ffffffffffffffff60801b1916600160801b63ffffffff9283160263ffffffff60a01b191617600160a01b9282168302176001600160c01b0316600160c01b968216969096026001600160e01b031695909517600160e01b959093169490940291909117815560c08701519181019190915560e08601516002820180546001600160a01b0319166001600160a01b039283161790556101008701516003830180546101208a0151929093166001600160a81b031990931692909217901515909302929092179091556101409094015160049094019390935550505490565b6000806fa2a8918ca85bafe22016d0b997e4df60600160ff1b03831115612f335750600090506003612fb7565b6040805160008082526020820180845289905260ff881692820192909252606081018690526080810185905260019060a0016020604051602081039080840390855afa158015612f87573d6000803e3d6000fd5b5050604051601f1901519150506001600160a01b038116612fb057600060019250925050612fb7565b9150600090505b94509492505050565b6000816004811115612fd457612fd4613910565b1415612fdd5750565b6001816004811115612ff157612ff1613910565b141561303a5760405162461bcd60e51b815260206004820152601860248201527745434453413a20696e76616c6964207369676e617475726560401b60448201526064016105b1565b600281600481111561304e5761304e613910565b141561309c5760405162461bcd60e51b815260206004820152601f60248201527f45434453413a20696e76616c6964207369676e6174757265206c656e6774680060448201526064016105b1565b60038160048111156130b0576130b0613910565b14156108e15760405162461bcd60e51b815260206004820152602260248201527f45434453413a20696e76616c6964207369676e6174757265202773272076616c604482015261756560f01b60648201526084016105b1565b60006001600160e01b03821115611b655760405162461bcd60e51b815260206004820152602760248201527f53616665436173743a2076616c756520646f65736e27742066697420696e20326044820152663234206269747360c81b60648201526084016105b1565b600080608083901c1561318757608092831c92015b604083901c1561319957604092831c92015b602083901c156131ab57602092831c92015b601083901c156131bd57601092831c92015b600883901c156131cf57600892831c92015b600483901c156131e157600492831c92015b600283901c156131f357600292831c92015b600183901c1561051e5760010192915050565b60008183106132155781610554565b5090919050565b60006105548284613818565b82805461323490613705565b90600052602060002090601f016020900481019282613256576000855561329c565b82601f1061326f57805160ff191683800117855561329c565b8280016001018555821561329c579182015b8281111561329c578251825591602001919060010190613281565b50611b659291505b80821115611b6557600081556001016132a4565b600060208083528351808285015260005b818110156132e5578581018301518582016040015282016132c9565b818111156132f7576000604083870101525b50601f01601f1916929092016040019392505050565b80356001600160a01b038116811461332457600080fd5b919050565b6000806040838503121561333c57600080fd5b6133458361330d565b946020939093013593505050565b60008060006060848603121561336857600080fd5b6133718461330d565b925061337f6020850161330d565b9150604084013590509250925092565b600080604083850312156133a257600080fd5b823591506133b26020840161330d565b90509250929050565b6000602082840312156133cd57600080fd5b6105548261330d565b6000602082840312156133e857600080fd5b5035919050565b6001600160a01b0391909116815260200190565b80356001600160401b038116811461332457600080fd5b803563ffffffff8116811461332457600080fd5b60008060008060008060008060006101208a8c03121561344d57600080fd5b6134568a613403565b985061346460208b0161341a565b975061347260408b0161341a565b965061348060608b0161341a565b955061348e60808b0161341a565b945060a08a013580151581146134a357600080fd5b935060c08a013592506134b860e08b0161330d565b91506134c76101008b0161330d565b90509295985092959850929598565b81516001600160401b031681526101608101602083015161350260208401826001600160401b03169052565b50604083015161351a604084018263ffffffff169052565b506060830151613532606084018263ffffffff169052565b50608083015161354a608084018263ffffffff169052565b5060a083015161356260a084018263ffffffff169052565b5060c083015160c083015260e083015161358760e08401826001600160a01b03169052565b50610100838101516001600160a01b0316908301526101208084015115159083015261014092830151929091019190915290565b803560ff8116811461332457600080fd5b60008060008060008060c087890312156135e557600080fd5b6135ee8761330d565b9550602087013594506040870135935061360a606088016135bb565b92506080870135915060a087013590509295509295509295565b600080600080600080600060e0888a03121561363f57600080fd5b6136488861330d565b96506136566020890161330d565b95506040880135945060608801359350613672608089016135bb565b925060a0880135915060c0880135905092959891949750929550565b600080604083850312156136a157600080fd5b6136aa8361330d565b91506133b26020840161330d565b600080604083850312156136cb57600080fd5b823591506133b260208401613403565b600080604083850312156136ee57600080fd5b6136f78361330d565b91506133b26020840161341a565b600181811c9082168061371957607f821691505b602082108114156115db57634e487b7160e01b600052602260045260246000fd5b6020808252602e908201527f496e697469616c697a61626c653a20636f6e747261637420697320616c72656160408201526d191e481a5b9a5d1a585b1a5e995960921b606082015260800190565b634e487b7160e01b600052601160045260246000fd5b600082198211156137b1576137b1613788565b500190565b6020808252601f908201527f4552433230566f7465733a20626c6f636b206e6f7420796574206d696e656400604082015260600190565b60006001600160401b0380831681851680830382111561380f5761380f613788565b01949350505050565b60008282101561382a5761382a613788565b500390565b634e487b7160e01b600052603260045260246000fd5b6020808252602b908201527f496e697469616c697a61626c653a20636f6e7472616374206973206e6f74206960408201526a6e697469616c697a696e6760a81b606082015260800190565b634e487b7160e01b600052601260045260246000fd5b6000826138b5576138b5613890565b500690565b60008160001904831182151516156138d4576138d4613788565b500290565b6000826138e8576138e8613890565b500490565b600063ffffffff8084168061390457613904613890565b92169190910692915050565b634e487b7160e01b600052602160045260246000fdfe64404627f9392c993df73912dbfb24528266190d015c31a2a5dcf19d4c62184da26469706673582212207410522b689820dd941e2196adc8ee09a3a782416394ffb0f7ea7a7cc32237d064736f6c634300080a0033",
            "0x60806040523480156200001157600080fd5b506200001c62000022565b620000e4565b600054610100900460ff16156200008f5760405162461bcd60e51b815260206004820152602760248201527f496e697469616c697a61626c653a20636f6e747261637420697320696e697469604482015266616c697a696e6760c81b606482015260840160405180910390fd5b60005460ff9081161015620000e2576000805460ff191660ff9081179091556040519081527f7f26b83ff96e1f2b6a682f133852f6798a09c465da95921460cefb38474024989060200160405180910390a15b565b61397c80620000f46000396000f3fe608060405234801561001057600080fd5b50600436106101bb5760003560e01c806370a08231116100fa578063a457c2d71161009d578063a457c2d714610396578063a9059cbb146103a9578063beb8f883146103bc578063c3cda520146103dc578063d505accf146103ef578063dd62ed3e14610402578063decc722414610415578063f0519be014610428578063f1127ed81461043b57600080fd5b806370a08231146103145780637ecebe00146103275780638e539e8c1461033a5780638fb8ad841461034d5780639295ccec1461036057806395d89b41146103685780639ab24eb014610370578063a33773f61461038357600080fd5b80633644e515116101625780633644e5151461027057806339509351146102785780633a46b1a81461028b578063574d91831461029e578063587cde1e146102b157806359facefd146102d15780635c19a95c146102d95780636fcfff45146102ec57600080fd5b806306fdde03146101c0578063095ea7b3146101de57806318160ddd1461020157806323b872dd1461021357806323dd35b41461022657806328766ffd1461023957806329c9093b1461024e578063313ce56714610261575b600080fd5b6101c8610478565b6040516101d591906132b8565b60405180910390f35b6101f16101ec366004613329565b61050a565b60405190151581526020016101d5565b6035545b6040519081526020016101d5565b6101f1610221366004613353565b610524565b6101f161023436600461338f565b610548565b61024c6102473660046133bb565b61055b565b005b61020561025c3660046133d6565b6106c6565b604051601281526020016101d5565b61020561079c565b6101f1610286366004613329565b6107ab565b610205610299366004613329565b6107cd565b6102056102ac3660046133d6565b610810565b6102c46102bf3660046133bb565b61081b565b6040516101d591906133ef565b61024c610839565b61024c6102e73660046133bb565b6108d7565b6102ff6102fa3660046133bb565b6108e4565b60405163ffffffff90911681526020016101d5565b6102056103223660046133bb565b610906565b6102056103353660046133bb565b610921565b6102056103483660046133d6565b61093f565b61020561035b3660046133d6565b61096b565b610205610a67565b6101c8610a71565b61020561037e3660046133bb565b610a80565b61020561039136600461342e565b610b06565b6101f16103a4366004613329565b610b28565b6101f16103b7366004613329565b610ba3565b6103cf6103ca3660046133d6565b610bb1565b6040516101d591906134d6565b61024c6103ea3660046135cc565b610ccb565b61024c6103fd366004613624565b610dfd565b61020561041036600461368e565b610f61565b6102c46104233660046133d6565b610f8c565b6102056104363660046136b8565b610f97565b61044e6104493660046136db565b610fa3565b60408051825163ffffffff1681526020928301516001600160e01b031692810192909252016101d5565b60606036805461048790613705565b80601f01602080910402602001604051908101604052809291908181526020018280546104b390613705565b80156105005780601f106104d557610100808354040283529160200191610500565b820191906000526020600020905b8154815290600101906020018083116104e357829003601f168201915b5050505050905090565b600033610518818585611026565b60019150505b92915050565b60003361053285828561114a565b61053d8585856111c4565b506001949350505050565b60006105548383611375565b9392505050565b600054610100900460ff161580801561057b5750600054600160ff909116105b806105955750303b158015610595575060005460ff166001145b6105ba5760405162461bcd60e51b81526004016105b19061373a565b60405180910390fd5b6000805460ff1916600117905580156105dd576000805461ff0019166101001790555b6105e68261142f565b610618604051806040016040528060118152602001704c697175696420436f6c6c65637469766560781b815250611456565b610666604051806040016040528060118152602001704c697175696420436f6c6c65637469766560781b81525060405180604001604052806003815260200162544c4360e81b8152506114a0565b61067c826b033b2e3c9fd0803ce80000006114d1565b80156106c2576000805461ff0019169055604051600181527f7f26b83ff96e1f2b6a682f133852f6798a09c465da95921460cefb38474024989060200160405180910390a15b5050565b6000806106d28361155b565b604080516101608101825282546001600160401b038082168352600160401b82041660208301819052600160801b820463ffffffff90811694840194909452600160a01b80830485166060850152600160c01b830485166080850152600160e01b90920490931660a0830152600184015460c083015260028401546001600160a01b0390811660e084015260038501549081166101008401520460ff1615156101208201526004909201546101408301529091506105549082906107979042906115cc565b6115e1565b60006107a66116b2565b905090565b6000336105188185856107be8383610f61565b6107c8919061379e565b611026565b60004382106107ee5760405162461bcd60e51b81526004016105b1906137b6565b6001600160a01b038316600090815260cd60205260409020610554908361172d565b600061051e82611823565b6001600160a01b03908116600090815260cc60205260409020541690565b600054600290610100900460ff1615801561085b575060005460ff8083169116105b6108775760405162461bcd60e51b81526004016105b19061373a565b6000805461ffff191660ff831617610100179055610893611a0f565b6000805461ff001916905560405160ff821681527f7f26b83ff96e1f2b6a682f133852f6798a09c465da95921460cefb38474024989060200160405180910390a150565b6108e13382611a80565b50565b6001600160a01b038116600090815260cd602052604081205461051e90611b00565b6001600160a01b031660009081526033602052604090205490565b6001600160a01b03811660009081526099602052604081205461051e565b60004382106109605760405162461bcd60e51b81526004016105b1906137b6565b61051e60ce8361172d565b6000806109778361155b565b604080516101608101825282546001600160401b03808216808452600160401b83049091166020840152600160801b820463ffffffff90811694840194909452600160a01b808304851660608501819052600160c01b840486166080860152600160e01b90930490941660a0840152600185015460c084015260028501546001600160a01b0390811660e085015260038601549081166101008501529390930460ff16151561012083015260049093015461014082015292504291610a3b916137ed565b6001600160401b0316811015610a55575060009392505050565b610a5f8282611b69565b949350505050565b60006107a6611bc2565b60606037805461048790613705565b6001600160a01b038116600090815260cd60205260408120548015610af3576001600160a01b038316600090815260cd60205260409020610ac2600183613818565b81548110610ad257610ad261382f565b600091825260209091200154600160201b90046001600160e01b0316610af6565b60005b6001600160e01b03169392505050565b6000610b1a3384848d8d8d8d8d8d8d611be5565b9a9950505050505050505050565b60003381610b368286610f61565b905083811015610b965760405162461bcd60e51b815260206004820152602560248201527f45524332303a2064656372656173656420616c6c6f77616e63652062656c6f77604482015264207a65726f60d81b60648201526084016105b1565b61053d8286868403611026565b6000336105188185856111c4565b6040805161016081018252600080825260208201819052918101829052606081018290526080810182905260a0810182905260c0810182905260e0810182905261010081018290526101208101829052610140810191909152610c138261155b565b604080516101608101825282546001600160401b038082168352600160401b8204166020830152600160801b810463ffffffff90811693830193909352600160a01b80820484166060840152600160c01b820484166080840152600160e01b90910490921660a0820152600183015460c082015260028301546001600160a01b0390811660e083015260038401549081166101008301529190910460ff16151561012082015260049091015461014082015292915050565b83421115610d1b5760405162461bcd60e51b815260206004820152601d60248201527f4552433230566f7465733a207369676e6174757265206578706972656400000060448201526064016105b1565b604080517fe48329057bfd03d55e49b547132e39cffd9c1820ad7b9d4c5307691425d15adf60208201526001600160a01b038816918101919091526060810186905260808101859052600090610d9590610d8d9060a00160405160208183030381529060405280519060200120612141565b85858561218f565b9050610da0816121b7565b8614610dea5760405162461bcd60e51b81526020600482015260196024820152784552433230566f7465733a20696e76616c6964206e6f6e636560381b60448201526064016105b1565b610df48188611a80565b50505050505050565b83421115610e4d5760405162461bcd60e51b815260206004820152601d60248201527f45524332305065726d69743a206578706972656420646561646c696e6500000060448201526064016105b1565b60007f6e71edae12b1b97f4d1f60370fef10105fa2faae0126114a169c64845d6126c9888888610e7c8c6121b7565b6040805160208101969096526001600160a01b0394851690860152929091166060840152608083015260a082015260c0810186905260e0016040516020818303038152906040528051906020012090506000610ed782612141565b90506000610ee78287878761218f565b9050896001600160a01b0316816001600160a01b031614610f4a5760405162461bcd60e51b815260206004820152601e60248201527f45524332305065726d69743a20696e76616c6964207369676e6174757265000060448201526064016105b1565b610f558a8a8a611026565b50505050505050505050565b6001600160a01b03918216600090815260346020908152604080832093909416825291909152205490565b600061051e826121da565b60006105548383612254565b60408051808201909152600080825260208201526001600160a01b038316600090815260cd60205260409020805463ffffffff8416908110610fe757610fe761382f565b60009182526020918290206040805180820190915291015463ffffffff81168252600160201b90046001600160e01b0316918101919091529392505050565b6001600160a01b0383166110885760405162461bcd60e51b8152602060048201526024808201527f45524332303a20617070726f76652066726f6d20746865207a65726f206164646044820152637265737360e01b60648201526084016105b1565b6001600160a01b0382166110e95760405162461bcd60e51b815260206004820152602260248201527f45524332303a20617070726f766520746f20746865207a65726f206164647265604482015261737360f01b60648201526084016105b1565b6001600160a01b0383811660008181526034602090815260408083209487168084529482529182902085905590518481527f8c5be1e5ebec7d5bd14f71427d1e84f3dd0314c0f7b2291e5b200ac8c7c3b925910160405180910390a3505050565b60006111568484610f61565b905060001981146111be57818110156111b15760405162461bcd60e51b815260206004820152601d60248201527f45524332303a20696e73756666696369656e7420616c6c6f77616e636500000060448201526064016105b1565b6111be8484848403611026565b50505050565b6001600160a01b0383166112285760405162461bcd60e51b815260206004820152602560248201527f45524332303a207472616e736665722066726f6d20746865207a65726f206164604482015264647265737360d81b60648201526084016105b1565b6001600160a01b03821661128a5760405162461bcd60e51b815260206004820152602360248201527f45524332303a207472616e7366657220746f20746865207a65726f206164647260448201526265737360e81b60648201526084016105b1565b6001600160a01b038316600090815260336020526040902054818110156113025760405162461bcd60e51b815260206004820152602660248201527f45524332303a207472616e7366657220616d6f756e7420657863656564732062604482015265616c616e636560d01b60648201526084016105b1565b6001600160a01b0380851660008181526033602052604080822086860390559286168082529083902080548601905591517fddf252ad1be2c89b69c2b068fc378daa952ba7f163c4a11628f55a4df523b3ef906113629086815260200190565b60405180910390a36111be848484612582565b6000806113818461155b565b60038101549091506001600160a01b031633146113b3573360405163472511eb60e11b81526004016105b191906133ef565b60006113be856121da565b905060006113cb8261081b565b90506113d78286611a80565b60038301546040518781526001600160a01b039182169187811691908416907ff59662617e9c4f8707dff52c85bd8f49f665073ba5fffb29c2a55ebf58e7a75e9060200160405180910390a450600195945050505050565b6001600160a01b0381166108e15760405163f6b2911f60e01b815260040160405180910390fd5b600054610100900460ff1661147d5760405162461bcd60e51b81526004016105b190613845565b6108e181604051806040016040528060018152602001603160f81b81525061259d565b600054610100900460ff166114c75760405162461bcd60e51b81526004016105b190613845565b6106c282826125de565b6114db828261262c565b6035546001600160e01b03101561154d5760405162461bcd60e51b815260206004820152603060248201527f4552433230566f7465733a20746f74616c20737570706c79207269736b73206f60448201526f766572666c6f77696e6720766f74657360801b60648201526084016105b1565b6111be60ce6126f583612701565b6000806115776001600080516020613927833981519152613818565b8054909150819084106115a05760405163ad7d6e0960e01b8152600481018590526024016105b1565b8060000184815481106115b5576115b561382f565b906000526020600020906005020192505050919050565b60008183116115db5782610554565b50919050565b6000826040015163ffffffff1683600001516115fd91906137ed565b6001600160401b03168210156116155750600061051e565b6080830151835161162c9163ffffffff16906137ed565b6001600160401b03168210611646575060c082015161051e565b825160009061165e906001600160401b031684613818565b905060008460a0015163ffffffff168261167891906138a6565b6116829083613818565b9050846080015163ffffffff168560c001518261169f91906138ba565b6116a991906138d9565b9250505061051e565b60006107a67f8b73c3c69bb8fe3d512ecc4cf759cc79239f7b179b0ffacaa9a75d522b39400f6116e160655490565b6066546040805160208101859052908101839052606081018290524660808201523060a082015260009060c0016040516020818303038152906040528051906020012090509392505050565b81546000908181600581111561178757600061174884612852565b6117529085613818565b600088815260209020909150869082015463ffffffff16111561177757809150611785565b61178281600161379e565b92505b505b808210156117d457600061179b8383612937565b600088815260209020909150869082015463ffffffff1611156117c0578091506117ce565b6117cb81600161379e565b92505b50611787565b801561180d576117f7866117e9600184613818565b600091825260209091200190565b54600160201b90046001600160e01b0316611810565b60005b6001600160e01b03169695505050505050565b60008061182f8361155b565b60038101549091506001600160a01b03163314611861573360405163472511eb60e11b81526004016105b191906133ef565b8054429061188590600160a01b810463ffffffff16906001600160401b03166137ed565b6001600160401b03168110156118ae5760405163fad681e760e01b815260040160405180910390fd5b604080516101608101825283546001600160401b038082168352600160401b8204166020830152600160801b810463ffffffff90811693830193909352600160a01b80820484166060840152600160c01b820484166080840152600160e01b90910490921660a0820152600184015460c082015260028401546001600160a01b0390811660e083015260038501549081166101008301529190910460ff161515610120820152600483015461014082015260009061196c9083611b69565b90508061198c57604051630fe6b58b60e41b815260040160405180910390fd5b6000611997866121da565b60038501549091506119b49082906001600160a01b0316846111c4565b818460040160008282546119c8919061379e565b909155505060408051878152602081018490527f8e54a80e4adf22e5669cda627d76c97a21b0a2a54fab3b48b1b38b97b29580f0910160405180910390a150949350505050565b611a17611bc2565b611a7e576000611a25612952565b905060005b818110156106c2576000611a3d82612980565b6001015490506000611a5a611a54610322856121da565b836115cc565b611a649083613818565b9050611a708382612a03565b508260010192505050611a2a565b565b6000611a8b8361081b565b90506000611a9884610906565b6001600160a01b03858116600081815260cc602052604080822080546001600160a01b031916898616908117909155905194955093928616927f3134e8a2e6d97e929a7e54011ea5485d7d196dd5f0ba4d4ef95803e8e3fc257f9190a46111be828483612c6c565b600063ffffffff821115611b655760405162461bcd60e51b815260206004820152602660248201527f53616665436173743a2076616c756520646f65736e27742066697420696e203360448201526532206269747360d01b60648201526084016105b1565b5090565b6101408201516020830151600091906001600160401b0316831115611b995783602001516001600160401b031692505b6000611ba585856115e1565b905081811115611bb75703905061051e565b506000949350505050565b600080611bde6001600080516020613927833981519152613818565b5492915050565b600081611bf18c610906565b1015611c1057604051633464861d60e21b815260040160405180910390fd5b6001600160a01b038a16611c8557604051630d63fe3160e31b815260206004820152603560248201527f56657374696e67207363686564756c652062656e6566696369617279206d757360448201527474206265206e6f6e207a65726f206164647265737360581b60648201526084016105b1565b63ffffffff8616611ce757604051630d63fe3160e31b815260206004820152602560248201527f56657374696e67207363686564756c65206475726174696f6e206d7573742062604482015264065203e20360dc1b60648201526084016105b1565b81611d4157604051630d63fe3160e31b815260206004820152602360248201527f56657374696e67207363686564756c6520616d6f756e74206d7573742062652060448201526203e20360ec1b60648201526084016105b1565b63ffffffff8516611da157604051630d63fe3160e31b815260206004820152602360248201527f56657374696e67207363686564756c6520706572696f64206d7573742062652060448201526203e20360ec1b60648201526084016105b1565b6000611dad86886138ed565b63ffffffff161115611e2057604051630d63fe3160e31b815260206004820152603560248201527f56657374696e67207363686564756c65206475726174696f6e206d7573742073604482015274706c697420696e20657861637420706572696f647360581b60648201526084016105b1565b6000611e2c86896138ed565b63ffffffff161115611ea757604051630d63fe3160e31b815260206004820152603b60248201527f56657374696e67207363686564756c6520636c696666206475726174696f6e2060448201527f6d7573742073706c697420696e20657861637420706572696f6473000000000060648201526084016105b1565b8563ffffffff168763ffffffff161115611f4057604051630d63fe3160e31b815260206004820152604d60248201527f56657374696e67207363686564756c65206475726174696f6e206d757374206260448201527f652067726561746572207468616e206f7220657175616c20746f20746865206360648201526c3634b33310323ab930ba34b7b760991b608482015260a4016105b1565b8563ffffffff168563ffffffff1683611f5991906138ba565b611f6391906138d9565b611fd057604051630d63fe3160e31b815260206004820152603760248201527f56657374696e67207363686564756c6520616d6f756e7420746f6f206c6f7720604482015276199bdc88191d5c985d1a5bdb88185b99081c195c9a5bd9604a1b60648201526084016105b1565b6001600160401b038816611fe2574297505b60006040518061016001604052808a6001600160401b031681526020018863ffffffff168b61201191906137ed565b6001600160401b031681526020018963ffffffff1681526020018663ffffffff1681526020018863ffffffff1681526020018763ffffffff1681526020018481526020018d6001600160a01b031681526020018c6001600160a01b031681526020018515158152602001600081525090506000600161208f83612da9565b6120999190613818565b905060006120a6826121da565b90506120b38e82876111c4565b6001600160a01b038c166120d0576120cb818e611a80565b6120da565b6120da818d611a80565b8c6001600160a01b03168e6001600160a01b03167fb0274f4a20cdf2005bb6a28aab72868f144d56c0828753a0f6edc7a62ef131b18488604051612128929190918252602082015260400190565b60405180910390a3509c9b505050505050505050505050565b600061051e61214e6116b2565b8360405161190160f01b6020820152602281018390526042810182905260009060620160405160208183030381529060405280519060200120905092915050565b60008060006121a087878787612f06565b915091506121ad81612fc0565b5095945050505050565b6001600160a01b0316600090815260996020526040902080546001810190915590565b6000803061220960017f5c24c10d65ac9aa9e0f7f63d96fe83c89107fae52b4ef778334c906c1ec5c1ed613818565b60405160609290921b6bffffffffffffffffffffffff1916602083015260348201526054810184905260740160408051601f1981840301815291905280516020909101209392505050565b60006001600160401b03821661226c57429150612296565b42826001600160401b03161015612296576040516317518afb60e11b815260040160405180910390fd5b60006122a18461155b565b6003810154909150600160a01b900460ff166122d0576040516341a76da360e01b815260040160405180910390fd5b80546001600160401b0390811690841610806122ff575080546001600160401b03808516600160401b90920416105b1561231d57604051635178474560e11b815260040160405180910390fd5b60028101546001600160a01b0316331461234c573360405163472511eb60e11b81526004016105b191906133ef565b604080516101608101825282546001600160401b038082168352600160401b82041660208301819052600160801b820463ffffffff90811694840194909452600160a01b80830485166060850152600160c01b830485166080850152600160e01b90920490931660a0830152600184015460c083015260028401546001600160a01b0390811660e084015260038501549081166101008401520460ff161515610120820152600483015461014082015260009161240991906115e1565b604080516101608101825284546001600160401b038082168352600160401b820481166020840152600160801b820463ffffffff90811694840194909452600160a01b80830485166060850152600160c01b830485166080850152600160e01b90920490931660a0830152600186015460c083015260028601546001600160a01b0390811660e084015260038701549081166101008401520460ff16151561012082015260048501546101408201529192506000916124c99187166115e1565b905060006124d78284613818565b905080156125095760006124ea886121da565b60028601549091506125079082906001600160a01b0316846111c4565b505b835467ffffffffffffffff60401b1916600160401b6001600160401b0388169081029190911785556040805189815260208101849052908101919091527f2c802be755370b3a250faf14516cb3480b47417d4c12d7fa0ff3ee0b937d99e99060600160405180910390a19695505050505050565b505050565b61257d61258e8461081b565b6125978461081b565b83612c6c565b600054610100900460ff166125c45760405162461bcd60e51b81526004016105b190613845565b815160209283012081519190920120606591909155606655565b600054610100900460ff166126055760405162461bcd60e51b81526004016105b190613845565b8151612618906036906020850190613228565b50805161257d906037906020840190613228565b6001600160a01b0382166126825760405162461bcd60e51b815260206004820152601f60248201527f45524332303a206d696e7420746f20746865207a65726f20616464726573730060448201526064016105b1565b8060356000828254612694919061379e565b90915550506001600160a01b0382166000818152603360209081526040808320805486019055518481527fddf252ad1be2c89b69c2b068fc378daa952ba7f163c4a11628f55a4df523b3ef910160405180910390a36106c260008383612582565b6000610554828461379e565b8254600090819081811561274d5761271e876117e9600185613818565b60408051808201909152905463ffffffff81168252600160201b90046001600160e01b03166020820152612762565b60408051808201909152600080825260208201525b905080602001516001600160e01b0316935061278284868863ffffffff16565b925060008211801561279a5750805163ffffffff1643145b156127de576127a883613109565b6127b7886117e9600186613818565b80546001600160e01b0392909216600160201b0263ffffffff909216919091179055612848565b8660405180604001604052806127f343611b00565b63ffffffff16815260200161280786613109565b6001600160e01b039081169091528254600181018455600093845260209384902083519490930151909116600160201b0263ffffffff909316929092179101555b5050935093915050565b60008161286157506000919050565b6000600161286e84613172565b901c6001901b9050600181848161288757612887613890565b048201901c9050600181848161289f5761289f613890565b048201901c905060018184816128b7576128b7613890565b048201901c905060018184816128cf576128cf613890565b048201901c905060018184816128e7576128e7613890565b048201901c905060018184816128ff576128ff613890565b048201901c9050600181848161291757612917613890565b048201901c90506105548182858161293157612931613890565b04613206565b600061294660028484186138d9565b6105549084841661379e565b600080611bde60017ff828a756855b22b2018e6c442f4e4296eacda2c58e90fa4824ff32229d084d62613818565b6000806129ae60017ff828a756855b22b2018e6c442f4e4296eacda2c58e90fa4824ff32229d084d62613818565b8054909150819084106129d75760405163ad7d6e0960e01b8152600481018590526024016105b1565b8060000184815481106129ec576129ec61382f565b906000526020600020906004020192505050919050565b600080612a0f84612980565b604051806101400160405290816000820160009054906101000a90046001600160401b03166001600160401b03166001600160401b031681526020016000820160089054906101000a90046001600160401b03166001600160401b03166001600160401b031681526020016000820160109054906101000a900463ffffffff1663ffffffff1663ffffffff1681526020016000820160149054906101000a900463ffffffff1663ffffffff1663ffffffff1681526020016000820160189054906101000a900463ffffffff1663ffffffff1663ffffffff16815260200160008201601c9054906101000a900463ffffffff1663ffffffff1663ffffffff168152602001600182015481526020016002820160009054906101000a90046001600160a01b03166001600160a01b03166001600160a01b031681526020016003820160009054906101000a90046001600160a01b03166001600160a01b03166001600160a01b031681526020016003820160149054906101000a900460ff1615151515815250509050600060405180610160016040528083600001516001600160401b0316815260200183602001516001600160401b03168152602001836040015163ffffffff168152602001836060015163ffffffff168152602001836080015163ffffffff1681526020018360a0015163ffffffff1681526020018360c0015181526020018360e001516001600160a01b031681526020018361010001516001600160a01b03168152602001836101200151151581526020018581525090506001612c5982612da9565b612c639190613818565b95945050505050565b816001600160a01b0316836001600160a01b031614158015612c8e5750600081115b1561257d576001600160a01b03831615612d1c576001600160a01b038316600090815260cd602052604081208190612cc99061321c85612701565b91509150846001600160a01b03167fdec2bacdd2f05b59de34da9b523dff8be42e5e38e818c82fdb0bae774387a7248383604051612d11929190918252602082015260400190565b60405180910390a250505b6001600160a01b0382161561257d576001600160a01b038216600090815260cd602052604081208190612d52906126f585612701565b91509150836001600160a01b03167fdec2bacdd2f05b59de34da9b523dff8be42e5e38e818c82fdb0bae774387a7248383604051612d9a929190918252602082015260400190565b60405180910390a25050505050565b600080612dc56001600080516020613927833981519152613818565b80546001808201835560008381526020908190208751600590940201805491880151604089015160608a015160808b015160a08c01516001600160401b039889166001600160801b031990971696909617600160401b98909416979097029290921767ffffffffffffffff60801b1916600160801b63ffffffff9283160263ffffffff60a01b191617600160a01b9282168302176001600160c01b0316600160c01b968216969096026001600160e01b031695909517600160e01b959093169490940291909117815560c08701519181019190915560e08601516002820180546001600160a01b0319166001600160a01b039283161790556101008701516003830180546101208a0151929093166001600160a81b031990931692909217901515909302929092179091556101409094015160049094019390935550505490565b6000806fa2a8918ca85bafe22016d0b997e4df60600160ff1b03831115612f335750600090506003612fb7565b6040805160008082526020820180845289905260ff881692820192909252606081018690526080810185905260019060a0016020604051602081039080840390855afa158015612f87573d6000803e3d6000fd5b5050604051601f1901519150506001600160a01b038116612fb057600060019250925050612fb7565b9150600090505b94509492505050565b6000816004811115612fd457612fd4613910565b1415612fdd5750565b6001816004811115612ff157612ff1613910565b141561303a5760405162461bcd60e51b815260206004820152601860248201527745434453413a20696e76616c6964207369676e617475726560401b60448201526064016105b1565b600281600481111561304e5761304e613910565b141561309c5760405162461bcd60e51b815260206004820152601f60248201527f45434453413a20696e76616c6964207369676e6174757265206c656e6774680060448201526064016105b1565b60038160048111156130b0576130b0613910565b14156108e15760405162461bcd60e51b815260206004820152602260248201527f45434453413a20696e76616c6964207369676e6174757265202773272076616c604482015261756560f01b60648201526084016105b1565b60006001600160e01b03821115611b655760405162461bcd60e51b815260206004820152602760248201527f53616665436173743a2076616c756520646f65736e27742066697420696e20326044820152663234206269747360c81b60648201526084016105b1565b600080608083901c1561318757608092831c92015b604083901c1561319957604092831c92015b602083901c156131ab57602092831c92015b601083901c156131bd57601092831c92015b600883901c156131cf57600892831c92015b600483901c156131e157600492831c92015b600283901c156131f357600292831c92015b600183901c1561051e5760010192915050565b60008183106132155781610554565b5090919050565b60006105548284613818565b82805461323490613705565b90600052602060002090601f016020900481019282613256576000855561329c565b82601f1061326f57805160ff191683800117855561329c565b8280016001018555821561329c579182015b8281111561329c578251825591602001919060010190613281565b50611b659291505b80821115611b6557600081556001016132a4565b600060208083528351808285015260005b818110156132e5578581018301518582016040015282016132c9565b818111156132f7576000604083870101525b50601f01601f1916929092016040019392505050565b80356001600160a01b038116811461332457600080fd5b919050565b6000806040838503121561333c57600080fd5b6133458361330d565b946020939093013593505050565b60008060006060848603121561336857600080fd5b6133718461330d565b925061337f6020850161330d565b9150604084013590509250925092565b600080604083850312156133a257600080fd5b823591506133b26020840161330d565b90509250929050565b6000602082840312156133cd57600080fd5b6105548261330d565b6000602082840312156133e857600080fd5b5035919050565b6001600160a01b0391909116815260200190565b80356001600160401b038116811461332457600080fd5b803563ffffffff8116811461332457600080fd5b60008060008060008060008060006101208a8c03121561344d57600080fd5b6134568a613403565b985061346460208b0161341a565b975061347260408b0161341a565b965061348060608b0161341a565b955061348e60808b0161341a565b945060a08a013580151581146134a357600080fd5b935060c08a013592506134b860e08b0161330d565b91506134c76101008b0161330d565b90509295985092959850929598565b81516001600160401b031681526101608101602083015161350260208401826001600160401b03169052565b50604083015161351a604084018263ffffffff169052565b506060830151613532606084018263ffffffff169052565b50608083015161354a608084018263ffffffff169052565b5060a083015161356260a084018263ffffffff169052565b5060c083015160c083015260e083015161358760e08401826001600160a01b03169052565b50610100838101516001600160a01b0316908301526101208084015115159083015261014092830151929091019190915290565b803560ff8116811461332457600080fd5b60008060008060008060c087890312156135e557600080fd5b6135ee8761330d565b9550602087013594506040870135935061360a606088016135bb565b92506080870135915060a087013590509295509295509295565b600080600080600080600060e0888a03121561363f57600080fd5b6136488861330d565b96506136566020890161330d565b95506040880135945060608801359350613672608089016135bb565b925060a0880135915060c0880135905092959891949750929550565b600080604083850312156136a157600080fd5b6136aa8361330d565b91506133b26020840161330d565b600080604083850312156136cb57600080fd5b823591506133b260208401613403565b600080604083850312156136ee57600080fd5b6136f78361330d565b91506133b26020840161341a565b600181811c9082168061371957607f821691505b602082108114156115db57634e487b7160e01b600052602260045260246000fd5b6020808252602e908201527f496e697469616c697a61626c653a20636f6e747261637420697320616c72656160408201526d191e481a5b9a5d1a585b1a5e995960921b606082015260800190565b634e487b7160e01b600052601160045260246000fd5b600082198211156137b1576137b1613788565b500190565b6020808252601f908201527f4552433230566f7465733a20626c6f636b206e6f7420796574206d696e656400604082015260600190565b60006001600160401b0380831681851680830382111561380f5761380f613788565b01949350505050565b60008282101561382a5761382a613788565b500390565b634e487b7160e01b600052603260045260246000fd5b6020808252602b908201527f496e697469616c697a61626c653a20636f6e7472616374206973206e6f74206960408201526a6e697469616c697a696e6760a81b606082015260800190565b634e487b7160e01b600052601260045260246000fd5b6000826138b5576138b5613890565b500690565b60008160001904831182151516156138d4576138d4613788565b500290565b6000826138e8576138e8613890565b500490565b600063ffffffff8084168061390457613904613890565b92169190910692915050565b634e487b7160e01b600052602160045260246000fdfe64404627f9392c993df73912dbfb24528266190d015c31a2a5dcf19d4c62184da2646970667358221220c9fa20cbe1cad9b0b2cd61866d4b5f38acc91b73384603776c10cec403ceefe964736f6c634300080a0033",
            "0x60806040523480156200001157600080fd5b506200001c62000022565b620000e4565b600054610100900460ff16156200008f5760405162461bcd60e51b815260206004820152602760248201527f496e697469616c697a61626c653a20636f6e747261637420697320696e697469604482015266616c697a696e6760c81b606482015260840160405180910390fd5b60005460ff9081161015620000e2576000805460ff191660ff9081179091556040519081527f7f26b83ff96e1f2b6a682f133852f6798a09c465da95921460cefb38474024989060200160405180910390a15b565b61397c80620000f46000396000f3fe608060405234801561001057600080fd5b50600436106101bb5760003560e01c806370a08231116100fa578063a457c2d71161009d578063a457c2d714610396578063a9059cbb146103a9578063beb8f883146103bc578063c3cda520146103dc578063d505accf146103ef578063dd62ed3e14610402578063decc722414610415578063f0519be014610428578063f1127ed81461043b57600080fd5b806370a08231146103145780637ecebe00146103275780638e539e8c1461033a5780638fb8ad841461034d5780639295ccec1461036057806395d89b41146103685780639ab24eb014610370578063a33773f61461038357600080fd5b80633644e515116101625780633644e5151461027057806339509351146102785780633a46b1a81461028b578063574d91831461029e578063587cde1e146102b157806359facefd146102d15780635c19a95c146102d95780636fcfff45146102ec57600080fd5b806306fdde03146101c0578063095ea7b3146101de57806318160ddd1461020157806323b872dd1461021357806323dd35b41461022657806328766ffd1461023957806329c9093b1461024e578063313ce56714610261575b600080fd5b6101c8610478565b6040516101d591906132b8565b60405180910390f35b6101f16101ec366004613329565b61050a565b60405190151581526020016101d5565b6035545b6040519081526020016101d5565b6101f1610221366004613353565b610524565b6101f161023436600461338f565b610548565b61024c6102473660046133bb565b61055b565b005b61020561025c3660046133d6565b6106c6565b604051601281526020016101d5565b61020561079c565b6101f1610286366004613329565b6107ab565b610205610299366004613329565b6107cd565b6102056102ac3660046133d6565b610810565b6102c46102bf3660046133bb565b61081b565b6040516101d591906133ef565b61024c610839565b61024c6102e73660046133bb565b6108d7565b6102ff6102fa3660046133bb565b6108e4565b60405163ffffffff90911681526020016101d5565b6102056103223660046133bb565b610906565b6102056103353660046133bb565b610921565b6102056103483660046133d6565b61093f565b61020561035b3660046133d6565b61096b565b610205610a67565b6101c8610a71565b61020561037e3660046133bb565b610a80565b61020561039136600461342e565b610b06565b6101f16103a4366004613329565b610b28565b6101f16103b7366004613329565b610ba3565b6103cf6103ca3660046133d6565b610bb1565b6040516101d591906134d6565b61024c6103ea3660046135cc565b610ccb565b61024c6103fd366004613624565b610dfd565b61020561041036600461368e565b610f61565b6102c46104233660046133d6565b610f8c565b6102056104363660046136b8565b610f97565b61044e6104493660046136db565b610fa3565b60408051825163ffffffff1681526020928301516001600160e01b031692810192909252016101d5565b60606036805461048790613705565b80601f01602080910402602001604051908101604052809291908181526020018280546104b390613705565b80156105005780601f106104d557610100808354040283529160200191610500565b820191906000526020600020905b8154815290600101906020018083116104e357829003601f168201915b5050505050905090565b600033610518818585611026565b60019150505b92915050565b60003361053285828561114a565b61053d8585856111c4565b506001949350505050565b60006105548383611375565b9392505050565b600054610100900460ff161580801561057b5750600054600160ff909116105b806105955750303b158015610595575060005460ff166001145b6105ba5760405162461bcd60e51b81526004016105b19061373a565b60405180910390fd5b6000805460ff1916600117905580156105dd576000805461ff0019166101001790555b6105e68261142f565b610618604051806040016040528060118152602001704c697175696420436f6c6c65637469766560781b815250611456565b610666604051806040016040528060118152602001704c697175696420436f6c6c65637469766560781b81525060405180604001604052806003815260200162544c4360e81b8152506114a0565b61067c826b033b2e3c9fd0803ce80000006114d1565b80156106c2576000805461ff0019169055604051600181527f7f26b83ff96e1f2b6a682f133852f6798a09c465da95921460cefb38474024989060200160405180910390a15b5050565b6000806106d28361155b565b604080516101608101825282546001600160401b038082168352600160401b82041660208301819052600160801b820463ffffffff90811694840194909452600160a01b80830485166060850152600160c01b830485166080850152600160e01b90920490931660a0830152600184015460c083015260028401546001600160a01b0390811660e084015260038501549081166101008401520460ff1615156101208201526004909201546101408301529091506105549082906107979042906115cc565b6115e1565b60006107a66116b2565b905090565b6000336105188185856107be8383610f61565b6107c8919061379e565b611026565b60004382106107ee5760405162461bcd60e51b81526004016105b1906137b6565b6001600160a01b038316600090815260cd60205260409020610554908361172d565b600061051e82611823565b6001600160a01b03908116600090815260cc60205260409020541690565b600054600290610100900460ff1615801561085b575060005460ff8083169116105b6108775760405162461bcd60e51b81526004016105b19061373a565b6000805461ffff191660ff831617610100179055610893611a0f565b6000805461ff001916905560405160ff821681527f7f26b83ff96e1f2b6a682f133852f6798a09c465da95921460cefb38474024989060200160405180910390a150565b6108e13382611a80565b50565b6001600160a01b038116600090815260cd602052604081205461051e90611b00565b6001600160a01b031660009081526033602052604090205490565b6001600160a01b03811660009081526099602052604081205461051e565b60004382106109605760405162461bcd60e51b81526004016105b1906137b6565b61051e60ce8361172d565b6000806109778361155b565b604080516101608101825282546001600160401b03808216808452600160401b83049091166020840152600160801b820463ffffffff90811694840194909452600160a01b808304851660608501819052600160c01b840486166080860152600160e01b90930490941660a0840152600185015460c084015260028501546001600160a01b0390811660e085015260038601549081166101008501529390930460ff16151561012083015260049093015461014082015292504291610a3b916137ed565b6001600160401b0316811015610a55575060009392505050565b610a5f8282611b69565b949350505050565b60006107a6611bc2565b60606037805461048790613705565b6001600160a01b038116600090815260cd60205260408120548015610af3576001600160a01b038316600090815260cd60205260409020610ac2600183613818565b81548110610ad257610ad261382f565b600091825260209091200154600160201b90046001600160e01b0316610af6565b60005b6001600160e01b03169392505050565b6000610b1a3384848d8d8d8d8d8d8d611be5565b9a9950505050505050505050565b60003381610b368286610f61565b905083811015610b965760405162461bcd60e51b815260206004820152602560248201527f45524332303a2064656372656173656420616c6c6f77616e63652062656c6f77604482015264207a65726f60d81b60648201526084016105b1565b61053d8286868403611026565b6000336105188185856111c4565b6040805161016081018252600080825260208201819052918101829052606081018290526080810182905260a0810182905260c0810182905260e0810182905261010081018290526101208101829052610140810191909152610c138261155b565b604080516101608101825282546001600160401b038082168352600160401b8204166020830152600160801b810463ffffffff90811693830193909352600160a01b80820484166060840152600160c01b820484166080840152600160e01b90910490921660a0820152600183015460c082015260028301546001600160a01b0390811660e083015260038401549081166101008301529190910460ff16151561012082015260049091015461014082015292915050565b83421115610d1b5760405162461bcd60e51b815260206004820152601d60248201527f4552433230566f7465733a207369676e6174757265206578706972656400000060448201526064016105b1565b604080517fe48329057bfd03d55e49b547132e39cffd9c1820ad7b9d4c5307691425d15adf60208201526001600160a01b038816918101919091526060810186905260808101859052600090610d9590610d8d9060a00160405160208183030381529060405280519060200120612141565b85858561218f565b9050610da0816121b7565b8614610dea5760405162461bcd60e51b81526020600482015260196024820152784552433230566f7465733a20696e76616c6964206e6f6e636560381b60448201526064016105b1565b610df48188611a80565b50505050505050565b83421115610e4d5760405162461bcd60e51b815260206004820152601d60248201527f45524332305065726d69743a206578706972656420646561646c696e6500000060448201526064016105b1565b60007f6e71edae12b1b97f4d1f60370fef10105fa2faae0126114a169c64845d6126c9888888610e7c8c6121b7565b6040805160208101969096526001600160a01b0394851690860152929091166060840152608083015260a082015260c0810186905260e0016040516020818303038152906040528051906020012090506000610ed782612141565b90506000610ee78287878761218f565b9050896001600160a01b0316816001600160a01b031614610f4a5760405162461bcd60e51b815260206004820152601e60248201527f45524332305065726d69743a20696e76616c6964207369676e6174757265000060448201526064016105b1565b610f558a8a8a611026565b50505050505050505050565b6001600160a01b03918216600090815260346020908152604080832093909416825291909152205490565b600061051e826121da565b60006105548383612254565b60408051808201909152600080825260208201526001600160a01b038316600090815260cd60205260409020805463ffffffff8416908110610fe757610fe761382f565b60009182526020918290206040805180820190915291015463ffffffff81168252600160201b90046001600160e01b0316918101919091529392505050565b6001600160a01b0383166110885760405162461bcd60e51b8152602060048201526024808201527f45524332303a20617070726f76652066726f6d20746865207a65726f206164646044820152637265737360e01b60648201526084016105b1565b6001600160a01b0382166110e95760405162461bcd60e51b815260206004820152602260248201527f45524332303a20617070726f766520746f20746865207a65726f206164647265604482015261737360f01b60648201526084016105b1565b6001600160a01b0383811660008181526034602090815260408083209487168084529482529182902085905590518481527f8c5be1e5ebec7d5bd14f71427d1e84f3dd0314c0f7b2291e5b200ac8c7c3b925910160405180910390a3505050565b60006111568484610f61565b905060001981146111be57818110156111b15760405162461bcd60e51b815260206004820152601d60248201527f45524332303a20696e73756666696369656e7420616c6c6f77616e636500000060448201526064016105b1565b6111be8484848403611026565b50505050565b6001600160a01b0383166112285760405162461bcd60e51b815260206004820152602560248201527f45524332303a207472616e736665722066726f6d20746865207a65726f206164604482015264647265737360d81b60648201526084016105b1565b6001600160a01b03821661128a5760405162461bcd60e51b815260206004820152602360248201527f45524332303a207472616e7366657220746f20746865207a65726f206164647260448201526265737360e81b60648201526084016105b1565b6001600160a01b038316600090815260336020526040902054818110156113025760405162461bcd60e51b815260206004820152602660248201527f45524332303a207472616e7366657220616d6f756e7420657863656564732062604482015265616c616e636560d01b60648201526084016105b1565b6001600160a01b0380851660008181526033602052604080822086860390559286168082529083902080548601905591517fddf252ad1be2c89b69c2b068fc378daa952ba7f163c4a11628f55a4df523b3ef906113629086815260200190565b60405180910390a36111be848484612582565b6000806113818461155b565b60038101549091506001600160a01b031633146113b3573360405163472511eb60e11b81526004016105b191906133ef565b60006113be856121da565b905060006113cb8261081b565b90506113d78286611a80565b60038301546040518781526001600160a01b039182169187811691908416907ff59662617e9c4f8707dff52c85bd8f49f665073ba5fffb29c2a55ebf58e7a75e9060200160405180910390a450600195945050505050565b6001600160a01b0381166108e15760405163f6b2911f60e01b815260040160405180910390fd5b600054610100900460ff1661147d5760405162461bcd60e51b81526004016105b190613845565b6108e181604051806040016040528060018152602001603160f81b81525061259d565b600054610100900460ff166114c75760405162461bcd60e51b81526004016105b190613845565b6106c282826125de565b6114db828261262c565b6035546001600160e01b03101561154d5760405162461bcd60e51b815260206004820152603060248201527f4552433230566f7465733a20746f74616c20737570706c79207269736b73206f60448201526f766572666c6f77696e6720766f74657360801b60648201526084016105b1565b6111be60ce6126f583612701565b6000806115776001600080516020613927833981519152613818565b8054909150819084106115a05760405163ad7d6e0960e01b8152600481018590526024016105b1565b8060000184815481106115b5576115b561382f565b906000526020600020906005020192505050919050565b60008183116115db5782610554565b50919050565b6000826040015163ffffffff1683600001516115fd91906137ed565b6001600160401b03168210156116155750600061051e565b6080830151835161162c9163ffffffff16906137ed565b6001600160401b03168210611646575060c082015161051e565b825160009061165e906001600160401b031684613818565b905060008460a0015163ffffffff168261167891906138a6565b6116829083613818565b9050846080015163ffffffff168560c001518261169f91906138ba565b6116a991906138d9565b9250505061051e565b60006107a67f8b73c3c69bb8fe3d512ecc4cf759cc79239f7b179b0ffacaa9a75d522b39400f6116e160655490565b6066546040805160208101859052908101839052606081018290524660808201523060a082015260009060c0016040516020818303038152906040528051906020012090509392505050565b81546000908181600581111561178757600061174884612852565b6117529085613818565b600088815260209020909150869082015463ffffffff16111561177757809150611785565b61178281600161379e565b92505b505b808210156117d457600061179b8383612937565b600088815260209020909150869082015463ffffffff1611156117c0578091506117ce565b6117cb81600161379e565b92505b50611787565b801561180d576117f7866117e9600184613818565b600091825260209091200190565b54600160201b90046001600160e01b0316611810565b60005b6001600160e01b03169695505050505050565b60008061182f8361155b565b60038101549091506001600160a01b03163314611861573360405163472511eb60e11b81526004016105b191906133ef565b8054429061188590600160a01b810463ffffffff16906001600160401b03166137ed565b6001600160401b03168110156118ae5760405163fad681e760e01b815260040160405180910390fd5b604080516101608101825283546001600160401b038082168352600160401b8204166020830152600160801b810463ffffffff90811693830193909352600160a01b80820484166060840152600160c01b820484166080840152600160e01b90910490921660a0820152600184015460c082015260028401546001600160a01b0390811660e083015260038501549081166101008301529190910460ff161515610120820152600483015461014082015260009061196c9083611b69565b90508061198c57604051630fe6b58b60e41b815260040160405180910390fd5b6000611997866121da565b60038501549091506119b49082906001600160a01b0316846111c4565b818460040160008282546119c8919061379e565b909155505060408051878152602081018490527f8e54a80e4adf22e5669cda627d76c97a21b0a2a54fab3b48b1b38b97b29580f0910160405180910390a150949350505050565b611a17611bc2565b611a7e576000611a25612952565b905060005b818110156106c2576000611a3d82612980565b6001015490506000611a5a611a54610322856121da565b836115cc565b611a649083613818565b9050611a708382612a03565b508260010192505050611a2a565b565b6000611a8b8361081b565b90506000611a9884610906565b6001600160a01b03858116600081815260cc602052604080822080546001600160a01b031916898616908117909155905194955093928616927f3134e8a2e6d97e929a7e54011ea5485d7d196dd5f0ba4d4ef95803e8e3fc257f9190a46111be828483612c6c565b600063ffffffff821115611b655760405162461bcd60e51b815260206004820152602660248201527f53616665436173743a2076616c756520646f65736e27742066697420696e203360448201526532206269747360d01b60648201526084016105b1565b5090565b6101408201516020830151600091906001600160401b0316831115611b995783602001516001600160401b031692505b6000611ba585856115e1565b905081811115611bb75703905061051e565b506000949350505050565b600080611bde6001600080516020613927833981519152613818565b5492915050565b600081611bf18c610906565b1015611c1057604051633464861d60e21b815260040160405180910390fd5b6001600160a01b038a16611c8557604051630d63fe3160e31b815260206004820152603560248201527f56657374696e67207363686564756c652062656e6566696369617279206d757360448201527474206265206e6f6e207a65726f206164647265737360581b60648201526084016105b1565b63ffffffff8616611ce757604051630d63fe3160e31b815260206004820152602560248201527f56657374696e67207363686564756c65206475726174696f6e206d7573742062604482015264065203e20360dc1b60648201526084016105b1565b81611d4157604051630d63fe3160e31b815260206004820152602360248201527f56657374696e67207363686564756c6520616d6f756e74206d7573742062652060448201526203e20360ec1b60648201526084016105b1565b63ffffffff8516611da157604051630d63fe3160e31b815260206004820152602360248201527f56657374696e67207363686564756c6520706572696f64206d7573742062652060448201526203e20360ec1b60648201526084016105b1565b6000611dad86886138ed565b63ffffffff161115611e2057604051630d63fe3160e31b815260206004820152603560248201527f56657374696e67207363686564756c65206475726174696f6e206d7573742073604482015274706c697420696e20657861637420706572696f647360581b60648201526084016105b1565b6000611e2c86896138ed565b63ffffffff161115611ea757604051630d63fe3160e31b815260206004820152603b60248201527f56657374696e67207363686564756c6520636c696666206475726174696f6e2060448201527f6d7573742073706c697420696e20657861637420706572696f6473000000000060648201526084016105b1565b8563ffffffff168763ffffffff161115611f4057604051630d63fe3160e31b815260206004820152604d60248201527f56657374696e67207363686564756c65206475726174696f6e206d757374206260448201527f652067726561746572207468616e206f7220657175616c20746f20746865206360648201526c3634b33310323ab930ba34b7b760991b608482015260a4016105b1565b8563ffffffff168563ffffffff1683611f5991906138ba565b611f6391906138d9565b611fd057604051630d63fe3160e31b815260206004820152603760248201527f56657374696e67207363686564756c6520616d6f756e7420746f6f206c6f7720604482015276199bdc88191d5c985d1a5bdb88185b99081c195c9a5bd9604a1b60648201526084016105b1565b6001600160401b038816611fe2574297505b60006040518061016001604052808a6001600160401b031681526020018863ffffffff168b61201191906137ed565b6001600160401b031681526020018963ffffffff1681526020018663ffffffff1681526020018863ffffffff1681526020018763ffffffff1681526020018481526020018d6001600160a01b031681526020018c6001600160a01b031681526020018515158152602001600081525090506000600161208f83612da9565b6120999190613818565b905060006120a6826121da565b90506120b38e82876111c4565b6001600160a01b038c166120d0576120cb818e611a80565b6120da565b6120da818d611a80565b8c6001600160a01b03168e6001600160a01b03167fb0274f4a20cdf2005bb6a28aab72868f144d56c0828753a0f6edc7a62ef131b18488604051612128929190918252602082015260400190565b60405180910390a3509c9b505050505050505050505050565b600061051e61214e6116b2565b8360405161190160f01b6020820152602281018390526042810182905260009060620160405160208183030381529060405280519060200120905092915050565b60008060006121a087878787612f06565b915091506121ad81612fc0565b5095945050505050565b6001600160a01b0316600090815260996020526040902080546001810190915590565b6000803061220960017f5c24c10d65ac9aa9e0f7f63d96fe83c89107fae52b4ef778334c906c1ec5c1ed613818565b60405160609290921b6bffffffffffffffffffffffff1916602083015260348201526054810184905260740160408051601f1981840301815291905280516020909101209392505050565b60006001600160401b03821661226c57429150612296565b42826001600160401b03161015612296576040516317518afb60e11b815260040160405180910390fd5b60006122a18461155b565b6003810154909150600160a01b900460ff166122d0576040516341a76da360e01b815260040160405180910390fd5b80546001600160401b0390811690841610806122ff575080546001600160401b03808516600160401b90920416105b1561231d57604051635178474560e11b815260040160405180910390fd5b60028101546001600160a01b0316331461234c573360405163472511eb60e11b81526004016105b191906133ef565b604080516101608101825282546001600160401b038082168352600160401b82041660208301819052600160801b820463ffffffff90811694840194909452600160a01b80830485166060850152600160c01b830485166080850152600160e01b90920490931660a0830152600184015460c083015260028401546001600160a01b0390811660e084015260038501549081166101008401520460ff161515610120820152600483015461014082015260009161240991906115e1565b604080516101608101825284546001600160401b038082168352600160401b820481166020840152600160801b820463ffffffff90811694840194909452600160a01b80830485166060850152600160c01b830485166080850152600160e01b90920490931660a0830152600186015460c083015260028601546001600160a01b0390811660e084015260038701549081166101008401520460ff16151561012082015260048501546101408201529192506000916124c99187166115e1565b905060006124d78284613818565b905080156125095760006124ea886121da565b60028601549091506125079082906001600160a01b0316846111c4565b505b835467ffffffffffffffff60401b1916600160401b6001600160401b0388169081029190911785556040805189815260208101849052908101919091527f2c802be755370b3a250faf14516cb3480b47417d4c12d7fa0ff3ee0b937d99e99060600160405180910390a19695505050505050565b505050565b61257d61258e8461081b565b6125978461081b565b83612c6c565b600054610100900460ff166125c45760405162461bcd60e51b81526004016105b190613845565b815160209283012081519190920120606591909155606655565b600054610100900460ff166126055760405162461bcd60e51b81526004016105b190613845565b8151612618906036906020850190613228565b50805161257d906037906020840190613228565b6001600160a01b0382166126825760405162461bcd60e51b815260206004820152601f60248201527f45524332303a206d696e7420746f20746865207a65726f20616464726573730060448201526064016105b1565b8060356000828254612694919061379e565b90915550506001600160a01b0382166000818152603360209081526040808320805486019055518481527fddf252ad1be2c89b69c2b068fc378daa952ba7f163c4a11628f55a4df523b3ef910160405180910390a36106c260008383612582565b6000610554828461379e565b8254600090819081811561274d5761271e876117e9600185613818565b60408051808201909152905463ffffffff81168252600160201b90046001600160e01b03166020820152612762565b60408051808201909152600080825260208201525b905080602001516001600160e01b0316935061278284868863ffffffff16565b925060008211801561279a5750805163ffffffff1643145b156127de576127a883613109565b6127b7886117e9600186613818565b80546001600160e01b0392909216600160201b0263ffffffff909216919091179055612848565b8660405180604001604052806127f343611b00565b63ffffffff16815260200161280786613109565b6001600160e01b039081169091528254600181018455600093845260209384902083519490930151909116600160201b0263ffffffff909316929092179101555b5050935093915050565b60008161286157506000919050565b6000600161286e84613172565b901c6001901b9050600181848161288757612887613890565b048201901c9050600181848161289f5761289f613890565b048201901c905060018184816128b7576128b7613890565b048201901c905060018184816128cf576128cf613890565b048201901c905060018184816128e7576128e7613890565b048201901c905060018184816128ff576128ff613890565b048201901c9050600181848161291757612917613890565b048201901c90506105548182858161293157612931613890565b04613206565b600061294660028484186138d9565b6105549084841661379e565b600080611bde60017ff828a756855b22b2018e6c442f4e4296eacda2c58e90fa4824ff32229d084d62613818565b6000806129ae60017ff828a756855b22b2018e6c442f4e4296eacda2c58e90fa4824ff32229d084d62613818565b8054909150819084106129d75760405163ad7d6e0960e01b8152600481018590526024016105b1565b8060000184815481106129ec576129ec61382f565b906000526020600020906004020192505050919050565b600080612a0f84612980565b604051806101400160405290816000820160009054906101000a90046001600160401b03166001600160401b03166001600160401b031681526020016000820160089054906101000a90046001600160401b03166001600160401b03166001600160401b031681526020016000820160109054906101000a900463ffffffff1663ffffffff1663ffffffff1681526020016000820160149054906101000a900463ffffffff1663ffffffff1663ffffffff1681526020016000820160189054906101000a900463ffffffff1663ffffffff1663ffffffff16815260200160008201601c9054906101000a900463ffffffff1663ffffffff1663ffffffff168152602001600182015481526020016002820160009054906101000a90046001600160a01b03166001600160a01b03166001600160a01b031681526020016003820160009054906101000a90046001600160a01b03166001600160a01b03166001600160a01b031681526020016003820160149054906101000a900460ff1615151515815250509050600060405180610160016040528083600001516001600160401b0316815260200183602001516001600160401b03168152602001836040015163ffffffff168152602001836060015163ffffffff168152602001836080015163ffffffff1681526020018360a0015163ffffffff1681526020018360c0015181526020018360e001516001600160a01b031681526020018361010001516001600160a01b03168152602001836101200151151581526020018581525090506001612c5982612da9565b612c639190613818565b95945050505050565b816001600160a01b0316836001600160a01b031614158015612c8e5750600081115b1561257d576001600160a01b03831615612d1c576001600160a01b038316600090815260cd602052604081208190612cc99061321c85612701565b91509150846001600160a01b03167fdec2bacdd2f05b59de34da9b523dff8be42e5e38e818c82fdb0bae774387a7248383604051612d11929190918252602082015260400190565b60405180910390a250505b6001600160a01b0382161561257d576001600160a01b038216600090815260cd602052604081208190612d52906126f585612701565b91509150836001600160a01b03167fdec2bacdd2f05b59de34da9b523dff8be42e5e38e818c82fdb0bae774387a7248383604051612d9a929190918252602082015260400190565b60405180910390a25050505050565b600080612dc56001600080516020613927833981519152613818565b80546001808201835560008381526020908190208751600590940201805491880151604089015160608a015160808b015160a08c01516001600160401b039889166001600160801b031990971696909617600160401b98909416979097029290921767ffffffffffffffff60801b1916600160801b63ffffffff9283160263ffffffff60a01b191617600160a01b9282168302176001600160c01b0316600160c01b968216969096026001600160e01b031695909517600160e01b959093169490940291909117815560c08701519181019190915560e08601516002820180546001600160a01b0319166001600160a01b039283161790556101008701516003830180546101208a0151929093166001600160a81b031990931692909217901515909302929092179091556101409094015160049094019390935550505490565b6000806fa2a8918ca85bafe22016d0b997e4df60600160ff1b03831115612f335750600090506003612fb7565b6040805160008082526020820180845289905260ff881692820192909252606081018690526080810185905260019060a0016020604051602081039080840390855afa158015612f87573d6000803e3d6000fd5b5050604051601f1901519150506001600160a01b038116612fb057600060019250925050612fb7565b9150600090505b94509492505050565b6000816004811115612fd457612fd4613910565b1415612fdd5750565b6001816004811115612ff157612ff1613910565b141561303a5760405162461bcd60e51b815260206004820152601860248201527745434453413a20696e76616c6964207369676e617475726560401b60448201526064016105b1565b600281600481111561304e5761304e613910565b141561309c5760405162461bcd60e51b815260206004820152601f60248201527f45434453413a20696e76616c6964207369676e6174757265206c656e6774680060448201526064016105b1565b60038160048111156130b0576130b0613910565b14156108e15760405162461bcd60e51b815260206004820152602260248201527f45434453413a20696e76616c6964207369676e6174757265202773272076616c604482015261756560f01b60648201526084016105b1565b60006001600160e01b03821115611b655760405162461bcd60e51b815260206004820152602760248201527f53616665436173743a2076616c756520646f65736e27742066697420696e20326044820152663234206269747360c81b60648201526084016105b1565b600080608083901c1561318757608092831c92015b604083901c1561319957604092831c92015b602083901c156131ab57602092831c92015b601083901c156131bd57601092831c92015b600883901c156131cf57600892831c92015b600483901c156131e157600492831c92015b600283901c156131f357600292831c92015b600183901c1561051e5760010192915050565b60008183106132155781610554565b5090919050565b60006105548284613818565b82805461323490613705565b90600052602060002090601f016020900481019282613256576000855561329c565b82601f1061326f57805160ff191683800117855561329c565b8280016001018555821561329c579182015b8281111561329c578251825591602001919060010190613281565b50611b659291505b80821115611b6557600081556001016132a4565b600060208083528351808285015260005b818110156132e5578581018301518582016040015282016132c9565b818111156132f7576000604083870101525b50601f01601f1916929092016040019392505050565b80356001600160a01b038116811461332457600080fd5b919050565b6000806040838503121561333c57600080fd5b6133458361330d565b946020939093013593505050565b60008060006060848603121561336857600080fd5b6133718461330d565b925061337f6020850161330d565b9150604084013590509250925092565b600080604083850312156133a257600080fd5b823591506133b26020840161330d565b90509250929050565b6000602082840312156133cd57600080fd5b6105548261330d565b6000602082840312156133e857600080fd5b5035919050565b6001600160a01b0391909116815260200190565b80356001600160401b038116811461332457600080fd5b803563ffffffff8116811461332457600080fd5b60008060008060008060008060006101208a8c03121561344d57600080fd5b6134568a613403565b985061346460208b0161341a565b975061347260408b0161341a565b965061348060608b0161341a565b955061348e60808b0161341a565b945060a08a013580151581146134a357600080fd5b935060c08a013592506134b860e08b0161330d565b91506134c76101008b0161330d565b90509295985092959850929598565b81516001600160401b031681526101608101602083015161350260208401826001600160401b03169052565b50604083015161351a604084018263ffffffff169052565b506060830151613532606084018263ffffffff169052565b50608083015161354a608084018263ffffffff169052565b5060a083015161356260a084018263ffffffff169052565b5060c083015160c083015260e083015161358760e08401826001600160a01b03169052565b50610100838101516001600160a01b0316908301526101208084015115159083015261014092830151929091019190915290565b803560ff8116811461332457600080fd5b60008060008060008060c087890312156135e557600080fd5b6135ee8761330d565b9550602087013594506040870135935061360a606088016135bb565b92506080870135915060a087013590509295509295509295565b600080600080600080600060e0888a03121561363f57600080fd5b6136488861330d565b96506136566020890161330d565b95506040880135945060608801359350613672608089016135bb565b925060a0880135915060c0880135905092959891949750929550565b600080604083850312156136a157600080fd5b6136aa8361330d565b91506133b26020840161330d565b600080604083850312156136cb57600080fd5b823591506133b260208401613403565b600080604083850312156136ee57600080fd5b6136f78361330d565b91506133b26020840161341a565b600181811c9082168061371957607f821691505b602082108114156115db57634e487b7160e01b600052602260045260246000fd5b6020808252602e908201527f496e697469616c697a61626c653a20636f6e747261637420697320616c72656160408201526d191e481a5b9a5d1a585b1a5e995960921b606082015260800190565b634e487b7160e01b600052601160045260246000fd5b600082198211156137b1576137b1613788565b500190565b6020808252601f908201527f4552433230566f7465733a20626c6f636b206e6f7420796574206d696e656400604082015260600190565b60006001600160401b0380831681851680830382111561380f5761380f613788565b01949350505050565b60008282101561382a5761382a613788565b500390565b634e487b7160e01b600052603260045260246000fd5b6020808252602b908201527f496e697469616c697a61626c653a20636f6e7472616374206973206e6f74206960408201526a6e697469616c697a696e6760a81b606082015260800190565b634e487b7160e01b600052601260045260246000fd5b6000826138b5576138b5613890565b500690565b60008160001904831182151516156138d4576138d4613788565b500290565b6000826138e8576138e8613890565b500490565b600063ffffffff8084168061390457613904613890565b92169190910692915050565b634e487b7160e01b600052602160045260246000fdfe64404627f9392c993df73912dbfb24528266190d015c31a2a5dcf19d4c62184da2646970667358221220c9fa20cbe1cad9b0b2cd61866d4b5f38acc91b73384603776c10cec403ceefe964736f6c634300080a0033",
            "0x60806040523480156200001157600080fd5b506200001c62000022565b620000e4565b600054610100900460ff16156200008f5760405162461bcd60e51b815260206004820152602760248201527f496e697469616c697a61626c653a20636f6e747261637420697320696e697469604482015266616c697a696e6760c81b606482015260840160405180910390fd5b60005460ff9081161015620000e2576000805460ff191660ff9081179091556040519081527f7f26b83ff96e1f2b6a682f133852f6798a09c465da95921460cefb38474024989060200160405180910390a15b565b613aa380620000f46000396000f3fe608060405234801561001057600080fd5b50600436106101965760003560e01c806306fdde031461019b578063095ea7b3146101b957806318160ddd146101dc57806323b872dd146101ee57806323dd35b41461020157806328766ffd1461021457806329c9093b14610229578063313ce5671461023c5780633644e5151461024b57806339509351146102535780633a46b1a814610266578063574d918314610279578063587cde1e1461028c57806359facefd146102ac5780635c19a95c146102b45780636fcfff45146102c757806370a08231146102ef5780637ecebe00146103025780638c0aeff4146103155780638e539e8c146103285780638fb8ad841461033b5780639295ccec1461034e57806395d89b41146103565780639ab24eb01461035e578063a457c2d714610371578063a9059cbb14610384578063beb8f88314610397578063c3cda520146103b7578063d10a1faf146103ca578063d505accf146103dd578063dd62ed3e146103f0578063decc722414610403578063f0519be014610416578063f1127ed814610429575b600080fd5b6101a3610466565b6040516101b091906132fe565b60405180910390f35b6101cc6101c736600461336f565b6104f8565b60405190151581526020016101b0565b6035545b6040519081526020016101b0565b6101cc6101fc366004613399565b610512565b6101cc61020f3660046133d5565b610538565b610227610222366004613401565b610544565b005b6101e061023736600461341c565b61069c565b604051601281526020016101b0565b6101e0610772565b6101cc61026136600461336f565b610781565b6101e061027436600461336f565b6107a3565b6101e061028736600461341c565b6107e6565b61029f61029a366004613401565b6107f1565b6040516101b09190613442565b61022761080f565b6102276102c2366004613401565b61089b565b6102da6102d5366004613401565b6108a8565b60405163ffffffff90911681526020016101b0565b6101e06102fd366004613401565b6108ca565b6101e0610310366004613401565b6108e5565b6101cc61032336600461341c565b610903565b6101e061033636600461341c565b61090e565b6101e061034936600461341c565b61093a565b6101e0610a06565b6101a3610a10565b6101e061036c366004613401565b610a1f565b6101cc61037f36600461336f565b610aa5565b6101cc61039236600461336f565b610b2b565b6103aa6103a536600461341c565b610b39565b6040516101b09190613456565b6102276103c5366004613545565b610c53565b6101e06103d83660046135d8565b610d85565b6102276103eb36600461368b565b610da9565b6101e06103fe3660046136f5565b610f0d565b61029f61041136600461341c565b610f38565b6101e061042436600461371f565b610f43565b61043c610437366004613742565b610f4f565b60408051825163ffffffff1681526020928301516001600160e01b031692810192909252016101b0565b6060603680546104759061376c565b80601f01602080910402602001604051908101604052809291908181526020018280546104a19061376c565b80156104ee5780601f106104c3576101008083540402835291602001916104ee565b820191906000526020600020905b8154815290600101906020018083116104d157829003601f168201915b5050505050905090565b600033610506818585610fd2565b60019150505b92915050565b6000336105208582856110f6565b61052b858585611170565b60019150505b9392505050565b6000610531838361130f565b600054610100900460ff16158080156105645750600054600160ff909116105b8061057e5750303b15801561057e575060005460ff166001145b6105a35760405162461bcd60e51b815260040161059a906137a1565b60405180910390fd5b6000805460ff1916600117905580156105c6576000805461ff0019166101001790555b6105cf826113d4565b610601604051806040016040528060118152602001704c697175696420436f6c6c65637469766560781b8152506113fb565b61064f604051806040016040528060118152602001704c697175696420436f6c6c65637469766560781b81525060405180604001604052806003815260200162544c4360e81b815250611445565b61066482676765c793fa10079d601b1b611476565b8015610698576000805461ff001916905560405160018152600080516020613a0e8339815191529060200160405180910390a15b5050565b6000806106a883611500565b604080516101608101825282546001600160401b038082168352600160401b82041660208301819052600160801b820463ffffffff90811694840194909452600160a01b80830485166060850152600160c01b830485166080850152600160e01b90920490931660a0830152600184015460c083015260028401546001600160a01b0390811660e084015260038501549081166101008401520460ff16151561012082015260049092015461014083015290915061053190829061076d904290611571565b611586565b600061077c611657565b905090565b6000336105068185856107948383610f0d565b61079e9190613805565b610fd2565b60004382106107c45760405162461bcd60e51b815260040161059a9061381d565b6001600160a01b038316600090815260cd6020526040902061053190836116d2565b600061050c826117c8565b6001600160a01b03908116600090815260cc60205260409020541690565b600054600290610100900460ff16158015610831575060005460ff8083169116105b61084d5760405162461bcd60e51b815260040161059a906137a1565b6000805461ffff191660ff831617610100179055610869611958565b6000805461ff001916905560405160ff82168152600080516020613a0e8339815191529060200160405180910390a150565b6108a533826119c9565b50565b6001600160a01b038116600090815260cd602052604081205461050c90611a49565b6001600160a01b031660009081526033602052604090205490565b6001600160a01b03811660009081526099602052604081205461050c565b600061050c82611ab2565b600043821061092f5760405162461bcd60e51b815260040161059a9061381d565b61050c60ce836116d2565b60008061094683611500565b604080516101608101825282546001600160401b038082168352600160401b8204166020830152600160801b810463ffffffff90811693830193909352600160a01b80820484166060840152600160c01b820484166080840152600160e01b90910490921660a0820152600183015460c082015260028301546001600160a01b0390811660e083015260038401549081166101008301529190910460ff161515610120820152600490910154610140820152905061053181600085611ae3565b600061077c611c22565b6060603780546104759061376c565b6001600160a01b038116600090815260cd60205260408120548015610a92576001600160a01b038316600090815260cd60205260409020610a61600183613854565b81548110610a7157610a7161386b565b600091825260209091200154600160201b90046001600160e01b0316610a95565b60005b6001600160e01b03169392505050565b60003381610ab38286610f0d565b905083811015610b135760405162461bcd60e51b815260206004820152602560248201527f45524332303a2064656372656173656420616c6c6f77616e63652062656c6f77604482015264207a65726f60d81b606482015260840161059a565b610b208286868403610fd2565b506001949350505050565b600033610506818585611170565b6040805161016081018252600080825260208201819052918101829052606081018290526080810182905260a0810182905260c0810182905260e0810182905261010081018290526101208101829052610140810191909152610b9b82611500565b604080516101608101825282546001600160401b038082168352600160401b8204166020830152600160801b810463ffffffff90811693830193909352600160a01b80820484166060840152600160c01b820484166080840152600160e01b90910490921660a0820152600183015460c082015260028301546001600160a01b0390811660e083015260038401549081166101008301529190910460ff16151561012082015260049091015461014082015292915050565b83421115610ca35760405162461bcd60e51b815260206004820152601d60248201527f4552433230566f7465733a207369676e61747572652065787069726564000000604482015260640161059a565b604080517fe48329057bfd03d55e49b547132e39cffd9c1820ad7b9d4c5307691425d15adf60208201526001600160a01b038816918101919091526060810186905260808101859052600090610d1d90610d159060a00160405160208183030381529060405280519060200120611c45565b858585611c93565b9050610d2881611cbb565b8614610d725760405162461bcd60e51b81526020600482015260196024820152784552433230566f7465733a20696e76616c6964206e6f6e636560381b604482015260640161059a565b610d7c81886119c9565b50505050505050565b6000610d9a3385858e8e8e8e8e8e8e8c611cde565b9b9a5050505050505050505050565b83421115610df95760405162461bcd60e51b815260206004820152601d60248201527f45524332305065726d69743a206578706972656420646561646c696e65000000604482015260640161059a565b60007f6e71edae12b1b97f4d1f60370fef10105fa2faae0126114a169c64845d6126c9888888610e288c611cbb565b6040805160208101969096526001600160a01b0394851690860152929091166060840152608083015260a082015260c0810186905260e0016040516020818303038152906040528051906020012090506000610e8382611c45565b90506000610e9382878787611c93565b9050896001600160a01b0316816001600160a01b031614610ef65760405162461bcd60e51b815260206004820152601e60248201527f45524332305065726d69743a20696e76616c6964207369676e61747572650000604482015260640161059a565b610f018a8a8a610fd2565b50505050505050505050565b6001600160a01b03918216600090815260346020908152604080832093909416825291909152205490565b600061050c8261221f565b60006105318383612294565b60408051808201909152600080825260208201526001600160a01b038316600090815260cd60205260409020805463ffffffff8416908110610f9357610f9361386b565b60009182526020918290206040805180820190915291015463ffffffff81168252600160201b90046001600160e01b0316918101919091529392505050565b6001600160a01b0383166110345760405162461bcd60e51b8152602060048201526024808201527f45524332303a20617070726f76652066726f6d20746865207a65726f206164646044820152637265737360e01b606482015260840161059a565b6001600160a01b0382166110955760405162461bcd60e51b815260206004820152602260248201527f45524332303a20617070726f766520746f20746865207a65726f206164647265604482015261737360f01b606482015260840161059a565b6001600160a01b0383811660008181526034602090815260408083209487168084529482529182902085905590518481527f8c5be1e5ebec7d5bd14f71427d1e84f3dd0314c0f7b2291e5b200ac8c7c3b925910160405180910390a3505050565b60006111028484610f0d565b9050600019811461116a578181101561115d5760405162461bcd60e51b815260206004820152601d60248201527f45524332303a20696e73756666696369656e7420616c6c6f77616e6365000000604482015260640161059a565b61116a8484848403610fd2565b50505050565b6001600160a01b0383166111d45760405162461bcd60e51b815260206004820152602560248201527f45524332303a207472616e736665722066726f6d20746865207a65726f206164604482015264647265737360d81b606482015260840161059a565b6001600160a01b0382166112365760405162461bcd60e51b815260206004820152602360248201527f45524332303a207472616e7366657220746f20746865207a65726f206164647260448201526265737360e81b606482015260840161059a565b6001600160a01b038316600090815260336020526040902054818110156112ae5760405162461bcd60e51b815260206004820152602660248201527f45524332303a207472616e7366657220616d6f756e7420657863656564732062604482015265616c616e636560d01b606482015260840161059a565b6001600160a01b038085166000818152603360205260408082208686039055928616808252908390208054860190559151600080516020613a2e833981519152906112fc9086815260200190565b60405180910390a361116a8484846125b1565b60008061131b84611500565b60038101549091506001600160a01b0316331461134d573360405163472511eb60e11b815260040161059a9190613442565b60006113588561221f565b90506000611365826107f1565b905061137182866119c9565b336001600160a01b0316856001600160a01b0316826001600160a01b03167ff59662617e9c4f8707dff52c85bd8f49f665073ba5fffb29c2a55ebf58e7a75e896040516113c091815260200190565b60405180910390a450600195945050505050565b6001600160a01b0381166108a55760405163f6b2911f60e01b815260040160405180910390fd5b600054610100900460ff166114225760405162461bcd60e51b815260040161059a90613881565b6108a581604051806040016040528060018152602001603160f81b8152506125cc565b600054610100900460ff1661146c5760405162461bcd60e51b815260040161059a90613881565b610698828261260d565b611480828261265b565b6035546001600160e01b0310156114f25760405162461bcd60e51b815260206004820152603060248201527f4552433230566f7465733a20746f74616c20737570706c79207269736b73206f60448201526f766572666c6f77696e6720766f74657360801b606482015260840161059a565b61116a60ce6127128361271e565b60008061151c60016000805160206139ae833981519152613854565b8054909150819084106115455760405163ad7d6e0960e01b81526004810185905260240161059a565b80600001848154811061155a5761155a61386b565b906000526020600020906005020192505050919050565b60008183116115805782610531565b50919050565b6000826040015163ffffffff1683600001516115a291906138cc565b6001600160401b03168210156115ba5750600061050c565b608083015183516115d19163ffffffff16906138cc565b6001600160401b031682106115eb575060c082015161050c565b8251600090611603906001600160401b031684613854565b905060008460a0015163ffffffff168261161d919061390d565b6116279083613854565b9050846080015163ffffffff168560c00151826116449190613921565b61164e9190613940565b9250505061050c565b600061077c7f8b73c3c69bb8fe3d512ecc4cf759cc79239f7b179b0ffacaa9a75d522b39400f61168660655490565b6066546040805160208101859052908101839052606081018290524660808201523060a082015260009060c0016040516020818303038152906040528051906020012090509392505050565b81546000908181600581111561172c5760006116ed8461286f565b6116f79085613854565b600088815260209020909150869082015463ffffffff16111561171c5780915061172a565b611727816001613805565b92505b505b808210156117795760006117408383612954565b600088815260209020909150869082015463ffffffff16111561176557809150611773565b611770816001613805565b92505b5061172c565b80156117b25761179c8661178e600184613854565b600091825260209091200190565b54600160201b90046001600160e01b03166117b5565b60005b6001600160e01b03169695505050505050565b6000806117d483611500565b60038101549091506001600160a01b03163314611806573360405163472511eb60e11b815260040161059a9190613442565b604080516101608101825282546001600160401b038082168352600160401b8204166020830152600160801b810463ffffffff90811693830193909352600160a01b80820484166060840152600160c01b820484166080840152600160e01b90910490921660a082015260018084015460c083015260028401546001600160a01b0390811660e084015260038501549081166101008401529290920460ff16151561012082015260048301546101408201526000916118c6919086611ae3565b9050806118e657604051630fe6b58b60e41b815260040160405180910390fd5b60006118f18561221f565b90506118fe813384611170565b818360040160008282546119129190613805565b909155505060408051868152602081018490527f8e54a80e4adf22e5669cda627d76c97a21b0a2a54fab3b48b1b38b97b29580f0910160405180910390a1509392505050565b611960611c22565b6119c757600061196e61296f565b905060005b818110156106985760006119868261298b565b60010154905060006119a361199d6102fd8561221f565b83611571565b6119ad9083613854565b90506119b983826129fc565b508260010192505050611973565b565b60006119d4836107f1565b905060006119e1846108ca565b6001600160a01b03858116600081815260cc602052604080822080546001600160a01b031916898616908117909155905194955093928616927f3134e8a2e6d97e929a7e54011ea5485d7d196dd5f0ba4d4ef95803e8e3fc257f9190a461116a828483612c65565b600063ffffffff821115611aae5760405162461bcd60e51b815260206004820152602660248201527f53616665436173743a2076616c756520646f65736e27742066697420696e203360448201526532206269747360d01b606482015260840161059a565b5090565b600080611ace60016000805160206139ce833981519152613854565b60009384526020525050604090205460ff1690565b606083015183516000914291611aff9163ffffffff16906138cc565b6001600160401b0316811015611b38578315611b2e5760405163fad681e760e01b815260040160405180910390fd5b6000915050610531565b600085610140015190506000611b758788602001516001600160401b03168511611b625784611586565b88602001516001600160401b0316611586565b905081811115611c1557611b8885611ab2565b611c0b576000611bc88860c00151896060015163ffffffff168a60000151611bb091906138cc565b611bc3906001600160401b031687613854565b612d7e565b905080831115611beb576040516317eb986760e21b815260040160405180910390fd5b82611bf68383611571565b611c009190613854565b945050505050610531565b0391506105319050565b5060009695505050505050565b600080611c3e60016000805160206139ae833981519152613854565b5492915050565b600061050c611c52611657565b8360405161190160f01b6020820152602281018390526042810182905260009060620160405160208183030381529060405280519060200120905092915050565b6000806000611ca487878787612db6565b91509150611cb181612e70565b5095945050505050565b6001600160a01b0316600090815260996020526040902080546001810190915590565b600082611cea8d6108ca565b1015611d0957604051633464861d60e21b815260040160405180910390fd5b6001600160a01b038b16611d7e57604051630d63fe3160e31b815260206004820152603560248201527f56657374696e67207363686564756c652062656e6566696369617279206d757360448201527474206265206e6f6e207a65726f206164647265737360581b606482015260840161059a565b63ffffffff8716611dce57604051630d63fe3160e31b815260206004820152602560248201526000805160206139ee833981519152604482015264065203e20360dc1b606482015260840161059a565b82611e2857604051630d63fe3160e31b815260206004820152602360248201527f56657374696e67207363686564756c6520616d6f756e74206d7573742062652060448201526203e20360ec1b606482015260840161059a565b63ffffffff8616611e8857604051630d63fe3160e31b815260206004820152602360248201527f56657374696e67207363686564756c6520706572696f64206d7573742062652060448201526203e20360ec1b606482015260840161059a565b6000611e948789613954565b63ffffffff161115611f0757604051630d63fe3160e31b815260206004820152603560248201527f56657374696e67207363686564756c65206475726174696f6e206d7573742073604482015274706c697420696e20657861637420706572696f647360581b606482015260840161059a565b6000611f13878a613954565b63ffffffff161115611f8c57604051630d63fe3160e31b815260206004820152603b60248201527f56657374696e67207363686564756c6520636c696666206475726174696f6e2060448201527a6d7573742073706c697420696e20657861637420706572696f647360281b606482015260840161059a565b8663ffffffff168863ffffffff16111561201357604051630d63fe3160e31b815260206004820152604d60248201526000805160206139ee83398151915260448201527f652067726561746572207468616e206f7220657175616c20746f20746865206360648201526c3634b33310323ab930ba34b7b760991b608482015260a40161059a565b8663ffffffff168663ffffffff168461202c9190613921565b6120369190613940565b6120a357604051630d63fe3160e31b815260206004820152603760248201527f56657374696e67207363686564756c6520616d6f756e7420746f6f206c6f7720604482015276199bdc88191d5c985d1a5bdb88185b99081c195c9a5bd9604a1b606482015260840161059a565b6001600160401b0389166120b5574298505b60006040518061016001604052808b6001600160401b031681526020018963ffffffff168c6120e491906138cc565b6001600160401b031681526020018a63ffffffff1681526020018763ffffffff1681526020018963ffffffff1681526020018863ffffffff1681526020018581526020018e6001600160a01b031681526020018d6001600160a01b031681526020018615158152602001600081525090506000600161216283612fb9565b61216c9190613854565b90506121788185613115565b60006121838261221f565b90506121908f8288611170565b6001600160a01b038d166121ad576121a8818f6119c9565b6121b7565b6121b7818e6119c9565b8d6001600160a01b03168f6001600160a01b03167fb0274f4a20cdf2005bb6a28aab72868f144d56c0828753a0f6edc7a62ef131b18489604051612205929190918252602082015260400190565b60405180910390a3509d9c50505050505050505050505050565b6000803061224e60017f5c24c10d65ac9aa9e0f7f63d96fe83c89107fae52b4ef778334c906c1ec5c1ed613854565b60405160609290921b6001600160601b031916602083015260348201526054810184905260740160408051601f1981840301815291905280516020909101209392505050565b60006001600160401b0382166122ac574291506122d6565b42826001600160401b031610156122d6576040516317518afb60e11b815260040160405180910390fd5b60006122e184611500565b6003810154909150600160a01b900460ff16612310576040516341a76da360e01b815260040160405180910390fd5b80546001600160401b03908116908416108061233f575080546001600160401b03808516600160401b90920416105b1561235d57604051635178474560e11b815260040160405180910390fd5b60028101546001600160a01b0316331461238c573360405163472511eb60e11b815260040161059a9190613442565b604080516101608101825282546001600160401b038082168352600160401b82041660208301819052600160801b820463ffffffff90811694840194909452600160a01b80830485166060850152600160c01b830485166080850152600160e01b90920490931660a0830152600184015460c083015260028401546001600160a01b0390811660e084015260038501549081166101008401520460ff16151561012082015260048301546101408201526000916124499190611586565b604080516101608101825284546001600160401b038082168352600160401b820481166020840152600160801b820463ffffffff90811694840194909452600160a01b80830485166060850152600160c01b830485166080850152600160e01b90920490931660a0830152600186015460c083015260028601546001600160a01b0390811660e084015260038701549081166101008401520460ff1615156101208201526004850154610140820152919250600091612509918716611586565b905060006125178284613854565b9050801561253957600061252a8861221f565b9050612537813384611170565b505b8354600160401b600160801b031916600160401b6001600160401b0388169081029190911785556040805189815260208101849052908101919091527f2c802be755370b3a250faf14516cb3480b47417d4c12d7fa0ff3ee0b937d99e99060600160405180910390a19695505050505050565b505050565b6125ac6125bd846107f1565b6125c6846107f1565b83612c65565b600054610100900460ff166125f35760405162461bcd60e51b815260040161059a90613881565b815160209283012081519190920120606591909155606655565b600054610100900460ff166126345760405162461bcd60e51b815260040161059a90613881565b815161264790603690602085019061326e565b5080516125ac90603790602084019061326e565b6001600160a01b0382166126b15760405162461bcd60e51b815260206004820152601f60248201527f45524332303a206d696e7420746f20746865207a65726f206164647265737300604482015260640161059a565b80603560008282546126c39190613805565b90915550506001600160a01b038216600081815260336020908152604080832080548601905551848152600080516020613a2e833981519152910160405180910390a3610698600083836125b1565b60006105318284613805565b8254600090819081811561276a5761273b8761178e600185613854565b60408051808201909152905463ffffffff81168252600160201b90046001600160e01b0316602082015261277f565b60408051808201909152600080825260208201525b905080602001516001600160e01b0316935061279f84868863ffffffff16565b92506000821180156127b75750805163ffffffff1643145b156127fb576127c58361314f565b6127d48861178e600186613854565b80546001600160e01b0392909216600160201b0263ffffffff909216919091179055612865565b86604051806040016040528061281043611a49565b63ffffffff1681526020016128248661314f565b6001600160e01b039081169091528254600181018455600093845260209384902083519490930151909116600160201b0263ffffffff909316929092179101555b5050935093915050565b60008161287e57506000919050565b6000600161288b846131b8565b901c6001901b905060018184816128a4576128a46138f7565b048201901c905060018184816128bc576128bc6138f7565b048201901c905060018184816128d4576128d46138f7565b048201901c905060018184816128ec576128ec6138f7565b048201901c90506001818481612904576129046138f7565b048201901c9050600181848161291c5761291c6138f7565b048201901c90506001818481612934576129346138f7565b048201901c90506105318182858161294e5761294e6138f7565b0461324c565b60006129636002848418613940565b61053190848416613805565b600080611c3e600160008051602061398e833981519152613854565b6000806129a7600160008051602061398e833981519152613854565b8054909150819084106129d05760405163ad7d6e0960e01b81526004810185905260240161059a565b8060000184815481106129e5576129e561386b565b906000526020600020906004020192505050919050565b600080612a088461298b565b604051806101400160405290816000820160009054906101000a90046001600160401b03166001600160401b03166001600160401b031681526020016000820160089054906101000a90046001600160401b03166001600160401b03166001600160401b031681526020016000820160109054906101000a900463ffffffff1663ffffffff1663ffffffff1681526020016000820160149054906101000a900463ffffffff1663ffffffff1663ffffffff1681526020016000820160189054906101000a900463ffffffff1663ffffffff1663ffffffff16815260200160008201601c9054906101000a900463ffffffff1663ffffffff1663ffffffff168152602001600182015481526020016002820160009054906101000a90046001600160a01b03166001600160a01b03166001600160a01b031681526020016003820160009054906101000a90046001600160a01b03166001600160a01b03166001600160a01b031681526020016003820160149054906101000a900460ff1615151515815250509050600060405180610160016040528083600001516001600160401b0316815260200183602001516001600160401b03168152602001836040015163ffffffff168152602001836060015163ffffffff168152602001836080015163ffffffff1681526020018360a0015163ffffffff1681526020018360c0015181526020018360e001516001600160a01b031681526020018361010001516001600160a01b03168152602001836101200151151581526020018581525090506001612c5282612fb9565b612c5c9190613854565b95945050505050565b816001600160a01b0316836001600160a01b031614158015612c875750600081115b156125ac576001600160a01b03831615612d03576001600160a01b038316600090815260cd602052604081208190612cc2906132628561271e565b91509150846001600160a01b0316600080516020613a4e8339815191528383604051612cf8929190918252602082015260400190565b60405180910390a250505b6001600160a01b038216156125ac576001600160a01b038216600090815260cd602052604081208190612d39906127128561271e565b91509150836001600160a01b0316600080516020613a4e8339815191528383604051612d6f929190918252602082015260400190565b60405180910390a25050505050565b600080612d8e622819a084613940565b612d99601886613940565b612da39190613921565b905083811115610531578391505061050c565b6000806fa2a8918ca85bafe22016d0b997e4df60600160ff1b03831115612de35750600090506003612e67565b6040805160008082526020820180845289905260ff881692820192909252606081018690526080810185905260019060a0016020604051602081039080840390855afa158015612e37573d6000803e3d6000fd5b5050604051601f1901519150506001600160a01b038116612e6057600060019250925050612e67565b9150600090505b94509492505050565b6000816004811115612e8457612e84613977565b1415612e8d5750565b6001816004811115612ea157612ea1613977565b1415612eea5760405162461bcd60e51b815260206004820152601860248201527745434453413a20696e76616c6964207369676e617475726560401b604482015260640161059a565b6002816004811115612efe57612efe613977565b1415612f4c5760405162461bcd60e51b815260206004820152601f60248201527f45434453413a20696e76616c6964207369676e6174757265206c656e67746800604482015260640161059a565b6003816004811115612f6057612f60613977565b14156108a55760405162461bcd60e51b815260206004820152602260248201527f45434453413a20696e76616c6964207369676e6174757265202773272076616c604482015261756560f01b606482015260840161059a565b600080612fd560016000805160206139ae833981519152613854565b80546001808201835560008381526020908190208751600590940201805491880151604089015160608a015160808b015160a08c01516001600160401b039889166001600160801b031990971696909617600160401b989094169790970292909217600160801b600160c01b031916600160801b63ffffffff9283160263ffffffff60a01b191617600160a01b9282168302176001600160c01b0316600160c01b968216969096026001600160e01b031695909517600160e01b959093169490940291909117815560c08701519181019190915560e08601516002820180546001600160a01b0319166001600160a01b039283161790556101008701516003830180546101208a0151929093166001600160a81b031990931692909217901515909302929092179091556101409094015160049094019390935550505490565b600061313060016000805160206139ce833981519152613854565b6000938452602052506040909120805460ff1916911515919091179055565b60006001600160e01b03821115611aae5760405162461bcd60e51b815260206004820152602760248201527f53616665436173743a2076616c756520646f65736e27742066697420696e20326044820152663234206269747360c81b606482015260840161059a565b600080608083901c156131cd57608092831c92015b604083901c156131df57604092831c92015b602083901c156131f157602092831c92015b601083901c1561320357601092831c92015b600883901c1561321557600892831c92015b600483901c1561322757600492831c92015b600283901c1561323957600292831c92015b600183901c1561050c5760010192915050565b600081831061325b5781610531565b5090919050565b60006105318284613854565b82805461327a9061376c565b90600052602060002090601f01602090048101928261329c57600085556132e2565b82601f106132b557805160ff19168380011785556132e2565b828001600101855582156132e2579182015b828111156132e25782518255916020019190600101906132c7565b50611aae9291505b80821115611aae57600081556001016132ea565b600060208083528351808285015260005b8181101561332b5785810183015185820160400152820161330f565b8181111561333d576000604083870101525b50601f01601f1916929092016040019392505050565b80356001600160a01b038116811461336a57600080fd5b919050565b6000806040838503121561338257600080fd5b61338b83613353565b946020939093013593505050565b6000806000606084860312156133ae57600080fd5b6133b784613353565b92506133c560208501613353565b9150604084013590509250925092565b600080604083850312156133e857600080fd5b823591506133f860208401613353565b90509250929050565b60006020828403121561341357600080fd5b61053182613353565b60006020828403121561342e57600080fd5b5035919050565b6001600160a01b03169052565b6001600160a01b0391909116815260200190565b81516001600160401b031681526101608101602083015161348260208401826001600160401b03169052565b50604083015161349a604084018263ffffffff169052565b5060608301516134b2606084018263ffffffff169052565b5060808301516134ca608084018263ffffffff169052565b5060a08301516134e260a084018263ffffffff169052565b5060c083015160c083015260e08301516134ff60e0840182613435565b506101008084015161351382850182613435565b50506101208381015180151584830152505061014092830151919092015290565b803560ff8116811461336a57600080fd5b60008060008060008060c0878903121561355e57600080fd5b61356787613353565b9550602087013594506040870135935061358360608801613534565b92506080870135915060a087013590509295509295509295565b80356001600160401b038116811461336a57600080fd5b803563ffffffff8116811461336a57600080fd5b8035801515811461336a57600080fd5b6000806000806000806000806000806101408b8d0312156135f857600080fd5b6136018b61359d565b995061360f60208c016135b4565b985061361d60408c016135b4565b975061362b60608c016135b4565b965061363960808c016135b4565b955061364760a08c016135c8565b945060c08b0135935061365c60e08c01613353565b925061366b6101008c01613353565b915061367a6101208c016135c8565b90509295989b9194979a5092959850565b600080600080600080600060e0888a0312156136a657600080fd5b6136af88613353565b96506136bd60208901613353565b955060408801359450606088013593506136d960808901613534565b925060a0880135915060c0880135905092959891949750929550565b6000806040838503121561370857600080fd5b61371183613353565b91506133f860208401613353565b6000806040838503121561373257600080fd5b823591506133f86020840161359d565b6000806040838503121561375557600080fd5b61375e83613353565b91506133f8602084016135b4565b600181811c9082168061378057607f821691505b6020821081141561158057634e487b7160e01b600052602260045260246000fd5b6020808252602e908201527f496e697469616c697a61626c653a20636f6e747261637420697320616c72656160408201526d191e481a5b9a5d1a585b1a5e995960921b606082015260800190565b634e487b7160e01b600052601160045260246000fd5b60008219821115613818576138186137ef565b500190565b6020808252601f908201527f4552433230566f7465733a20626c6f636b206e6f7420796574206d696e656400604082015260600190565b600082821015613866576138666137ef565b500390565b634e487b7160e01b600052603260045260246000fd5b6020808252602b908201527f496e697469616c697a61626c653a20636f6e7472616374206973206e6f74206960408201526a6e697469616c697a696e6760a81b606082015260800190565b60006001600160401b038281168482168083038211156138ee576138ee6137ef565b01949350505050565b634e487b7160e01b600052601260045260246000fd5b60008261391c5761391c6138f7565b500690565b600081600019048311821515161561393b5761393b6137ef565b500290565b60008261394f5761394f6138f7565b500490565b600063ffffffff8084168061396b5761396b6138f7565b92169190910692915050565b634e487b7160e01b600052602160045260246000fdfef828a756855b22b2018e6c442f4e4296eacda2c58e90fa4824ff32229d084d6264404627f9392c993df73912dbfb24528266190d015c31a2a5dcf19d4c62184d423605f996078acc205f33a6458ae6ea5c4b6179bbe6f42712c6ca48e103aa3256657374696e67207363686564756c65206475726174696f6e206d75737420627f26b83ff96e1f2b6a682f133852f6798a09c465da95921460cefb3847402498ddf252ad1be2c89b69c2b068fc378daa952ba7f163c4a11628f55a4df523b3efdec2bacdd2f05b59de34da9b523dff8be42e5e38e818c82fdb0bae774387a724a264697066735822122021cac2e94e792ee465e86d273afdb0ce00e133cc6dd7ba8d1c000afa269f3ff864736f6c634300080a0033"
        ],
        "deployedBytecode": [
            "0x608060405234801561001057600080fd5b50600436106101b05760003560e01c80637ecebe00116100ef578063a9059cbb11610092578063a9059cbb14610396578063beb8f883146103a9578063c3cda520146103c9578063d505accf146103dc578063dd62ed3e146103ef578063decc722414610402578063f0519be014610415578063f1127ed81461042857600080fd5b80637ecebe00146103145780638e539e8c146103275780638fb8ad841461033a5780639295ccec1461034d57806395d89b41146103555780639ab24eb01461035d578063a33773f614610370578063a457c2d71461038357600080fd5b80633644e515116101575780633644e51514610265578063395093511461026d5780633a46b1a814610280578063574d918314610293578063587cde1e146102a65780635c19a95c146102c65780636fcfff45146102d957806370a082311461030157600080fd5b806306fdde03146101b5578063095ea7b3146101d357806318160ddd146101f657806323b872dd1461020857806323dd35b41461021b57806328766ffd1461022e57806329c9093b14610243578063313ce56714610256575b600080fd5b6101bd610465565b6040516101ca9190612c6c565b60405180910390f35b6101e66101e1366004612cdd565b6104f7565b60405190151581526020016101ca565b6035545b6040519081526020016101ca565b6101e6610216366004612d07565b610511565b6101e6610229366004612d43565b610537565b61024161023c366004612d6f565b610543565b005b6101fa610251366004612d8a565b6106f1565b604051601281526020016101ca565b6101fa6107ae565b6101e661027b366004612cdd565b6107bd565b6101fa61028e366004612cdd565b6107df565b6101fa6102a1366004612d8a565b610822565b6102b96102b4366004612d6f565b61082d565b6040516101ca9190612da3565b6102416102d4366004612d6f565b61084b565b6102ec6102e7366004612d6f565b610858565b60405163ffffffff90911681526020016101ca565b6101fa61030f366004612d6f565b61087a565b6101fa610322366004612d6f565b610895565b6101fa610335366004612d8a565b6108b3565b6101fa610348366004612d8a565b6108df565b6101fa6109df565b6101bd6109e9565b6101fa61036b366004612d6f565b6109f8565b6101fa61037e366004612de2565b610a7e565b6101e6610391366004612cdd565b610aa0565b6101e66103a4366004612cdd565b610b26565b6103bc6103b7366004612d8a565b610b34565b6040516101ca9190612e8a565b6102416103d7366004612f75565b610c39565b6102416103ea366004612fcd565b610d6b565b6101fa6103fd366004613037565b610ecf565b6102b9610410366004612d8a565b610efa565b6101fa610423366004613061565b610f05565b61043b610436366004613084565b610f11565b60408051825163ffffffff1681526020928301516001600160e01b031692810192909252016101ca565b606060368054610474906130ae565b80601f01602080910402602001604051908101604052809291908181526020018280546104a0906130ae565b80156104ed5780601f106104c2576101008083540402835291602001916104ed565b820191906000526020600020905b8154815290600101906020018083116104d057829003601f168201915b5050505050905090565b600033610505818585610f94565b60019150505b92915050565b60003361051f8582856110b8565b61052a858585611132565b60019150505b9392505050565b600061053083836112e3565b600054610100900460ff16158080156105635750600054600160ff909116105b8061057d5750303b15801561057d575060005460ff166001145b6105e55760405162461bcd60e51b815260206004820152602e60248201527f496e697469616c697a61626c653a20636f6e747261637420697320616c72656160448201526d191e481a5b9a5d1a585b1a5e995960921b60648201526084015b60405180910390fd5b6000805460ff191660011790558015610608576000805461ff0019166101001790555b6106118261139a565b610643604051806040016040528060118152602001704c697175696420436f6c6c65637469766560781b8152506113c1565b610691604051806040016040528060118152602001704c697175696420436f6c6c65637469766560781b81525060405180604001604052806003815260200162544c4360e81b81525061140b565b6106a7826b033b2e3c9fd0803ce800000061143c565b80156106ed576000805461ff0019169055604051600181527f7f26b83ff96e1f2b6a682f133852f6798a09c465da95921460cefb38474024989060200160405180910390a15b5050565b6000806106fd836114c6565b604080516101408101825282546001600160401b038082168352600160401b8204166020830152600160801b810463ffffffff90811693830193909352600160a01b80820484166060840152600160c01b820484166080840152600160e01b90910490921660a0820152600183015460c082015260028301546001600160a01b0390811660e0830152600390930154928316610100820152910460ff16151561012082015290506105308142611537565b60006107b8611608565b905090565b6000336105058185856107d08383610ecf565b6107da91906130f9565b610f94565b60004382106108005760405162461bcd60e51b81526004016105dc90613111565b6001600160a01b038316600090815260cd602052604090206105309083611683565b600061050b82611779565b6001600160a01b03908116600090815260cc60205260409020541690565b6108553382611922565b50565b6001600160a01b038116600090815260cd602052604081205461050b906119a2565b6001600160a01b031660009081526033602052604090205490565b6001600160a01b03811660009081526099602052604081205461050b565b60004382106108d45760405162461bcd60e51b81526004016105dc90613111565b61050b60ce83611683565b6000806108eb836114c6565b604080516101408101825282546001600160401b03808216808452600160401b83049091166020840152600160801b820463ffffffff90811694840194909452600160a01b808304851660608501819052600160c01b840486166080860152600160e01b90930490941660a0840152600185015460c084015260028501546001600160a01b0390811660e08501526003909501549485166101008401529290930460ff161515610120820152925042916109a491613148565b6001600160401b03168110156109be575060009392505050565b60006109c985611a0b565b90506109d6838284611a85565b95945050505050565b60006107b8611b0f565b606060378054610474906130ae565b6001600160a01b038116600090815260cd60205260408120548015610a6b576001600160a01b038316600090815260cd60205260409020610a3a600183613173565b81548110610a4a57610a4a61318a565b600091825260209091200154600160201b90046001600160e01b0316610a6e565b60005b6001600160e01b03169392505050565b6000610a923384848d8d8d8d8d8d8d611b32565b9a9950505050505050505050565b60003381610aae8286610ecf565b905083811015610b0e5760405162461bcd60e51b815260206004820152602560248201527f45524332303a2064656372656173656420616c6c6f77616e63652062656c6f77604482015264207a65726f60d81b60648201526084016105dc565b610b1b8286868403610f94565b506001949350505050565b600033610505818585611132565b6040805161014081018252600080825260208201819052918101829052606081018290526080810182905260a0810182905260c0810182905260e081018290526101008101829052610120810191909152610b8e826114c6565b604080516101408101825282546001600160401b038082168352600160401b8204166020830152600160801b810463ffffffff90811693830193909352600160a01b80820484166060840152600160c01b820484166080840152600160e01b90910490921660a0820152600183015460c082015260028301546001600160a01b0390811660e0830152600390930154928316610100820152910460ff16151561012082015292915050565b83421115610c895760405162461bcd60e51b815260206004820152601d60248201527f4552433230566f7465733a207369676e6174757265206578706972656400000060448201526064016105dc565b604080517fe48329057bfd03d55e49b547132e39cffd9c1820ad7b9d4c5307691425d15adf60208201526001600160a01b038816918101919091526060810186905260808101859052600090610d0390610cfb9060a00160405160208183030381529060405280519060200120611f64565b858585611fb2565b9050610d0e81611fda565b8614610d585760405162461bcd60e51b81526020600482015260196024820152784552433230566f7465733a20696e76616c6964206e6f6e636560381b60448201526064016105dc565b610d628188611922565b50505050505050565b83421115610dbb5760405162461bcd60e51b815260206004820152601d60248201527f45524332305065726d69743a206578706972656420646561646c696e6500000060448201526064016105dc565b60007f6e71edae12b1b97f4d1f60370fef10105fa2faae0126114a169c64845d6126c9888888610dea8c611fda565b6040805160208101969096526001600160a01b0394851690860152929091166060840152608083015260a082015260c0810186905260e0016040516020818303038152906040528051906020012090506000610e4582611f64565b90506000610e5582878787611fb2565b9050896001600160a01b0316816001600160a01b031614610eb85760405162461bcd60e51b815260206004820152601e60248201527f45524332305065726d69743a20696e76616c6964207369676e6174757265000060448201526064016105dc565b610ec38a8a8a610f94565b50505050505050505050565b6001600160a01b03918216600090815260346020908152604080832093909416825291909152205490565b600061050b82611a0b565b60006105308383612002565b60408051808201909152600080825260208201526001600160a01b038316600090815260cd60205260409020805463ffffffff8416908110610f5557610f5561318a565b60009182526020918290206040805180820190915291015463ffffffff81168252600160201b90046001600160e01b0316918101919091529392505050565b6001600160a01b038316610ff65760405162461bcd60e51b8152602060048201526024808201527f45524332303a20617070726f76652066726f6d20746865207a65726f206164646044820152637265737360e01b60648201526084016105dc565b6001600160a01b0382166110575760405162461bcd60e51b815260206004820152602260248201527f45524332303a20617070726f766520746f20746865207a65726f206164647265604482015261737360f01b60648201526084016105dc565b6001600160a01b0383811660008181526034602090815260408083209487168084529482529182902085905590518481527f8c5be1e5ebec7d5bd14f71427d1e84f3dd0314c0f7b2291e5b200ac8c7c3b925910160405180910390a3505050565b60006110c48484610ecf565b9050600019811461112c578181101561111f5760405162461bcd60e51b815260206004820152601d60248201527f45524332303a20696e73756666696369656e7420616c6c6f77616e636500000060448201526064016105dc565b61112c8484848403610f94565b50505050565b6001600160a01b0383166111965760405162461bcd60e51b815260206004820152602560248201527f45524332303a207472616e736665722066726f6d20746865207a65726f206164604482015264647265737360d81b60648201526084016105dc565b6001600160a01b0382166111f85760405162461bcd60e51b815260206004820152602360248201527f45524332303a207472616e7366657220746f20746865207a65726f206164647260448201526265737360e81b60648201526084016105dc565b6001600160a01b038316600090815260336020526040902054818110156112705760405162461bcd60e51b815260206004820152602660248201527f45524332303a207472616e7366657220616d6f756e7420657863656564732062604482015265616c616e636560d01b60648201526084016105dc565b6001600160a01b0380851660008181526033602052604080822086860390559286168082529083902080548601905591517fddf252ad1be2c89b69c2b068fc378daa952ba7f163c4a11628f55a4df523b3ef906112d09086815260200190565b60405180910390a361112c848484612261565b6000806112ef846114c6565b60038101549091506001600160a01b03163314611321573360405163472511eb60e11b81526004016105dc9190612da3565b600061132c85611a0b565b905060006113398261082d565b90506113458286611922565b604080518781526001600160a01b03838116602083015287168183015290517f9b9f521ec6aefca410a7e6f15a2d72e95a55a37543ed8cfebe25c600e5344ca99181900360600190a150600195945050505050565b6001600160a01b0381166108555760405163f6b2911f60e01b815260040160405180910390fd5b600054610100900460ff166113e85760405162461bcd60e51b81526004016105dc906131a0565b61085581604051806040016040528060018152602001603160f81b81525061227c565b600054610100900460ff166114325760405162461bcd60e51b81526004016105dc906131a0565b6106ed82826122bd565b611446828261230b565b6035546001600160e01b0310156114b85760405162461bcd60e51b815260206004820152603060248201527f4552433230566f7465733a20746f74616c20737570706c79207269736b73206f60448201526f766572666c6f77696e6720766f74657360801b60648201526084016105dc565b61112c60ce6123d4836123e0565b6000806114e26001600080516020613282833981519152613173565b80549091508190841061150b5760405163ad7d6e0960e01b8152600481018590526024016105dc565b8060000184815481106115205761152061318a565b906000526020600020906004020192505050919050565b6000826040015163ffffffff1683600001516115539190613148565b6001600160401b031682101561156b5750600061050b565b608083015183516115829163ffffffff1690613148565b6001600160401b0316821061159c575060c082015161050b565b82516000906115b4906001600160401b031684613173565b905060008460a0015163ffffffff16826115ce9190613201565b6115d89083613173565b9050846080015163ffffffff168560c00151826115f59190613215565b6115ff9190613234565b9250505061050b565b60006107b87f8b73c3c69bb8fe3d512ecc4cf759cc79239f7b179b0ffacaa9a75d522b39400f61163760655490565b6066546040805160208101859052908101839052606081018290524660808201523060a082015260009060c0016040516020818303038152906040528051906020012090509392505050565b8154600090818160058111156116dd57600061169e84612531565b6116a89085613173565b600088815260209020909150869082015463ffffffff1611156116cd578091506116db565b6116d88160016130f9565b92505b505b8082101561172a5760006116f18383612616565b600088815260209020909150869082015463ffffffff16111561171657809150611724565b6117218160016130f9565b92505b506116dd565b80156117635761174d8661173f600184613173565b600091825260209091200190565b54600160201b90046001600160e01b0316611766565b60005b6001600160e01b03169695505050505050565b600080611785836114c6565b604080516101408101825282546001600160401b038082168352600160401b8204166020830152600160801b810463ffffffff90811693830193909352600160a01b80820484166060840152600160c01b820484166080840152600160e01b90910490921660a0820152600183015460c082015260028301546001600160a01b0390811660e083015260039093015492831661010082018190529190920460ff1615156101208301529091503314611852573360405163472511eb60e11b81526004016105dc9190612da3565b60608101518151429161186d9163ffffffff90911690613148565b6001600160401b03168110156118965760405163fad681e760e01b815260040160405180910390fd5b60006118a185611a0b565b905060006118b0848385611a85565b9050806118d057604051630fe6b58b60e41b815260040160405180910390fd5b6118e08285610100015183611132565b60408051878152602081018390527f8e54a80e4adf22e5669cda627d76c97a21b0a2a54fab3b48b1b38b97b29580f0910160405180910390a195945050505050565b600061192d8361082d565b9050600061193a8461087a565b6001600160a01b03858116600081815260cc602052604080822080546001600160a01b031916898616908117909155905194955093928616927f3134e8a2e6d97e929a7e54011ea5485d7d196dd5f0ba4d4ef95803e8e3fc257f9190a461112c828483612631565b600063ffffffff821115611a075760405162461bcd60e51b815260206004820152602660248201527f53616665436173743a2076616c756520646f65736e27742066697420696e203360448201526532206269747360d01b60648201526084016105dc565b5090565b60008030611a3a60017f5c24c10d65ac9aa9e0f7f63d96fe83c89107fae52b4ef778334c906c1ec5c1ed613173565b60405160609290921b6bffffffffffffffffffffffff1916602083015260348201526054810184905260740160408051601f1981840301815291905280516020909101209392505050565b600083602001516001600160401b0316821015611afe576000611aa88584611537565b90506000611ab58561087a565b611acc8788602001516001600160401b0316611537565b611ad69190613173565b905080821115611af357611aea8183613173565b92505050610530565b600092505050610530565b611b078361087a565b949350505050565b600080611b2b6001600080516020613282833981519152613173565b5492915050565b600081611b3e8c61087a565b1015611b5d57604051633464861d60e21b815260040160405180910390fd5b6001600160a01b038a16611bd257604051630d63fe3160e31b815260206004820152603560248201527f56657374696e67207363686564756c652062656e6566696369617279206d757360448201527474206265206e6f6e207a65726f206164647265737360581b60648201526084016105dc565b63ffffffff8616611c3457604051630d63fe3160e31b815260206004820152602560248201527f56657374696e67207363686564756c65206475726174696f6e206d7573742062604482015264065203e20360dc1b60648201526084016105dc565b81611c8e57604051630d63fe3160e31b815260206004820152602360248201527f56657374696e67207363686564756c6520616d6f756e74206d7573742062652060448201526203e20360ec1b60648201526084016105dc565b63ffffffff8516611cee57604051630d63fe3160e31b815260206004820152602360248201527f56657374696e67207363686564756c6520706572696f64206d7573742062652060448201526203e20360ec1b60648201526084016105dc565b6000611cfa8688613248565b63ffffffff161115611d6d57604051630d63fe3160e31b815260206004820152603560248201527f56657374696e67207363686564756c65206475726174696f6e206d7573742073604482015274706c697420696e20657861637420706572696f647360581b60648201526084016105dc565b8563ffffffff168763ffffffff161115611dfa57604051630d63fe3160e31b815260206004820152604160248201527f56657374696e67207363686564756c65206475726174696f6e206d757374206260448201527f652067726561746572207468616e2074686520636c696666206475726174696f6064820152603760f91b608482015260a4016105dc565b6001600160401b038816611e0c574297505b60006040518061014001604052808a6001600160401b031681526020018863ffffffff168b611e3b9190613148565b6001600160401b031681526020018963ffffffff1681526020018663ffffffff1681526020018863ffffffff1681526020018763ffffffff1681526020018481526020018d6001600160a01b031681526020018c6001600160a01b03168152602001851515815250905060006001611eb28361276e565b611ebc9190613173565b90506000611ec982611a0b565b9050611ed68e8287611132565b6001600160a01b038c16611ef357611eee818e611922565b611efd565b611efd818d611922565b8c6001600160a01b03168e6001600160a01b03167fb0274f4a20cdf2005bb6a28aab72868f144d56c0828753a0f6edc7a62ef131b18488604051611f4b929190918252602082015260400190565b60405180910390a3509c9b505050505050505050505050565b600061050b611f71611608565b8360405161190160f01b6020820152602281018390526042810182905260009060620160405160208183030381529060405280519060200120905092915050565b6000806000611fc3878787876128ba565b91509150611fd081612974565b5095945050505050565b6001600160a01b03811660009081526099602052604090208054600181018255905b50919050565b60006001600160401b03821661201a57429150612044565b42826001600160401b03161015612044576040516317518afb60e11b815260040160405180910390fd5b600061204f846114c6565b6003810154909150600160a01b900460ff1661207e576040516341a76da360e01b815260040160405180910390fd5b80546001600160401b0390811690841610806120ad575080546001600160401b03808516600160401b90920416105b156120cb57604051635178474560e11b815260040160405180910390fd5b60028101546001600160a01b031633146120fa573360405163472511eb60e11b81526004016105dc9190612da3565b600061210585611a0b565b604080516101408101825284546001600160401b038082168352600160401b820481166020840152600160801b820463ffffffff90811694840194909452600160a01b80830485166060850152600160c01b830485166080850152600160e01b90920490931660a0830152600186015460c083015260028601546001600160a01b0390811660e084015260038701549081166101008401520460ff1615156101208201529192506000916121bc9184908816611a85565b90506000816121ca8461087a565b6121d49190613173565b905080156121f65760028401546121f69084906001600160a01b031683611132565b835467ffffffffffffffff60401b1916600160401b6001600160401b0388160217845560408051888152602081018390527fb9a2f4ba0df83f83fc8fb222ccd77a947d0e8c212e217bf1f3d2bc2142e5082c910160405180910390a19695505050505050565b505050565b61225c61226d8461082d565b6122768461082d565b83612631565b600054610100900460ff166122a35760405162461bcd60e51b81526004016105dc906131a0565b815160209283012081519190920120606591909155606655565b600054610100900460ff166122e45760405162461bcd60e51b81526004016105dc906131a0565b81516122f7906036906020850190612bdc565b50805161225c906037906020840190612bdc565b6001600160a01b0382166123615760405162461bcd60e51b815260206004820152601f60248201527f45524332303a206d696e7420746f20746865207a65726f20616464726573730060448201526064016105dc565b806035600082825461237391906130f9565b90915550506001600160a01b0382166000818152603360209081526040808320805486019055518481527fddf252ad1be2c89b69c2b068fc378daa952ba7f163c4a11628f55a4df523b3ef910160405180910390a36106ed60008383612261565b600061053082846130f9565b8254600090819081811561242c576123fd8761173f600185613173565b60408051808201909152905463ffffffff81168252600160201b90046001600160e01b03166020820152612441565b60408051808201909152600080825260208201525b905080602001516001600160e01b0316935061246184868863ffffffff16565b92506000821180156124795750805163ffffffff1643145b156124bd5761248783612abd565b6124968861173f600186613173565b80546001600160e01b0392909216600160201b0263ffffffff909216919091179055612527565b8660405180604001604052806124d2436119a2565b63ffffffff1681526020016124e686612abd565b6001600160e01b039081169091528254600181018455600093845260209384902083519490930151909116600160201b0263ffffffff909316929092179101555b5050935093915050565b60008161254057506000919050565b6000600161254d84612b26565b901c6001901b90506001818481612566576125666131eb565b048201901c9050600181848161257e5761257e6131eb565b048201901c90506001818481612596576125966131eb565b048201901c905060018184816125ae576125ae6131eb565b048201901c905060018184816125c6576125c66131eb565b048201901c905060018184816125de576125de6131eb565b048201901c905060018184816125f6576125f66131eb565b048201901c905061053081828581612610576126106131eb565b04612bba565b60006126256002848418613234565b610530908484166130f9565b816001600160a01b0316836001600160a01b0316141580156126535750600081115b1561225c576001600160a01b038316156126e1576001600160a01b038316600090815260cd60205260408120819061268e90612bd0856123e0565b91509150846001600160a01b03167fdec2bacdd2f05b59de34da9b523dff8be42e5e38e818c82fdb0bae774387a72483836040516126d6929190918252602082015260400190565b60405180910390a250505b6001600160a01b0382161561225c576001600160a01b038216600090815260cd602052604081208190612717906123d4856123e0565b91509150836001600160a01b03167fdec2bacdd2f05b59de34da9b523dff8be42e5e38e818c82fdb0bae774387a724838360405161275f929190918252602082015260400190565b60405180910390a25050505050565b60008061278a6001600080516020613282833981519152613173565b80546001808201835560008381526020908190208751600490940201805491880151604089015160608a015160808b015160a08c01516001600160401b039889166001600160801b031990971696909617600160401b98909416979097029290921767ffffffffffffffff60801b1916600160801b63ffffffff9283160263ffffffff60a01b191617600160a01b9282168302176001600160c01b0316600160c01b968216969096026001600160e01b031695909517600160e01b959093169490940291909117815560c08701519181019190915560e08601516002820180546001600160a01b0319166001600160a01b039283161790556101008701516003909201805461012090980151929091166001600160a81b0319909716969096179015159091021790935550505490565b6000806fa2a8918ca85bafe22016d0b997e4df60600160ff1b038311156128e7575060009050600361296b565b6040805160008082526020820180845289905260ff881692820192909252606081018690526080810185905260019060a0016020604051602081039080840390855afa15801561293b573d6000803e3d6000fd5b5050604051601f1901519150506001600160a01b0381166129645760006001925092505061296b565b9150600090505b94509492505050565b60008160048111156129885761298861326b565b14156129915750565b60018160048111156129a5576129a561326b565b14156129ee5760405162461bcd60e51b815260206004820152601860248201527745434453413a20696e76616c6964207369676e617475726560401b60448201526064016105dc565b6002816004811115612a0257612a0261326b565b1415612a505760405162461bcd60e51b815260206004820152601f60248201527f45434453413a20696e76616c6964207369676e6174757265206c656e6774680060448201526064016105dc565b6003816004811115612a6457612a6461326b565b14156108555760405162461bcd60e51b815260206004820152602260248201527f45434453413a20696e76616c6964207369676e6174757265202773272076616c604482015261756560f01b60648201526084016105dc565b60006001600160e01b03821115611a075760405162461bcd60e51b815260206004820152602760248201527f53616665436173743a2076616c756520646f65736e27742066697420696e20326044820152663234206269747360c81b60648201526084016105dc565b600080608083901c15612b3b57608092831c92015b604083901c15612b4d57604092831c92015b602083901c15612b5f57602092831c92015b601083901c15612b7157601092831c92015b600883901c15612b8357600892831c92015b600483901c15612b9557600492831c92015b600283901c15612ba757600292831c92015b600183901c1561050b5760010192915050565b6000818310612bc95781610530565b5090919050565b60006105308284613173565b828054612be8906130ae565b90600052602060002090601f016020900481019282612c0a5760008555612c50565b82601f10612c2357805160ff1916838001178555612c50565b82800160010185558215612c50579182015b82811115612c50578251825591602001919060010190612c35565b50611a079291505b80821115611a075760008155600101612c58565b600060208083528351808285015260005b81811015612c9957858101830151858201604001528201612c7d565b81811115612cab576000604083870101525b50601f01601f1916929092016040019392505050565b80356001600160a01b0381168114612cd857600080fd5b919050565b60008060408385031215612cf057600080fd5b612cf983612cc1565b946020939093013593505050565b600080600060608486031215612d1c57600080fd5b612d2584612cc1565b9250612d3360208501612cc1565b9150604084013590509250925092565b60008060408385031215612d5657600080fd5b82359150612d6660208401612cc1565b90509250929050565b600060208284031215612d8157600080fd5b61053082612cc1565b600060208284031215612d9c57600080fd5b5035919050565b6001600160a01b0391909116815260200190565b80356001600160401b0381168114612cd857600080fd5b803563ffffffff81168114612cd857600080fd5b60008060008060008060008060006101208a8c031215612e0157600080fd5b612e0a8a612db7565b9850612e1860208b01612dce565b9750612e2660408b01612dce565b9650612e3460608b01612dce565b9550612e4260808b01612dce565b945060a08a01358015158114612e5757600080fd5b935060c08a01359250612e6c60e08b01612cc1565b9150612e7b6101008b01612cc1565b90509295985092959850929598565b81516001600160401b0316815261014081016020830151612eb660208401826001600160401b03169052565b506040830151612ece604084018263ffffffff169052565b506060830151612ee6606084018263ffffffff169052565b506080830151612efe608084018263ffffffff169052565b5060a0830151612f1660a084018263ffffffff169052565b5060c083015160c083015260e0830151612f3b60e08401826001600160a01b03169052565b50610100838101516001600160a01b031690830152610120928301511515929091019190915290565b803560ff81168114612cd857600080fd5b60008060008060008060c08789031215612f8e57600080fd5b612f9787612cc1565b95506020870135945060408701359350612fb360608801612f64565b92506080870135915060a087013590509295509295509295565b600080600080600080600060e0888a031215612fe857600080fd5b612ff188612cc1565b9650612fff60208901612cc1565b9550604088013594506060880135935061301b60808901612f64565b925060a0880135915060c0880135905092959891949750929550565b6000806040838503121561304a57600080fd5b61305383612cc1565b9150612d6660208401612cc1565b6000806040838503121561307457600080fd5b82359150612d6660208401612db7565b6000806040838503121561309757600080fd5b6130a083612cc1565b9150612d6660208401612dce565b600181811c908216806130c257607f821691505b60208210811415611ffc57634e487b7160e01b600052602260045260246000fd5b634e487b7160e01b600052601160045260246000fd5b6000821982111561310c5761310c6130e3565b500190565b6020808252601f908201527f4552433230566f7465733a20626c6f636b206e6f7420796574206d696e656400604082015260600190565b60006001600160401b0380831681851680830382111561316a5761316a6130e3565b01949350505050565b600082821015613185576131856130e3565b500390565b634e487b7160e01b600052603260045260246000fd5b6020808252602b908201527f496e697469616c697a61626c653a20636f6e7472616374206973206e6f74206960408201526a6e697469616c697a696e6760a81b606082015260800190565b634e487b7160e01b600052601260045260246000fd5b600082613210576132106131eb565b500690565b600081600019048311821515161561322f5761322f6130e3565b500290565b600082613243576132436131eb565b500490565b600063ffffffff8084168061325f5761325f6131eb565b92169190910692915050565b634e487b7160e01b600052602160045260246000fdfef828a756855b22b2018e6c442f4e4296eacda2c58e90fa4824ff32229d084d62a2646970667358221220c3a2e5d68bab1aa6717165e934c1b0fd71f9885ea37aca4a075126ffbd66ac3064736f6c634300080a0033",
            "0x608060405234801561001057600080fd5b50600436106101bb5760003560e01c806370a08231116100fa578063a457c2d71161009d578063a457c2d714610396578063a9059cbb146103a9578063beb8f883146103bc578063c3cda520146103dc578063d505accf146103ef578063dd62ed3e14610402578063decc722414610415578063f0519be014610428578063f1127ed81461043b57600080fd5b806370a08231146103145780637ecebe00146103275780638e539e8c1461033a5780638fb8ad841461034d5780639295ccec1461036057806395d89b41146103685780639ab24eb014610370578063a33773f61461038357600080fd5b80633644e515116101625780633644e5151461027057806339509351146102785780633a46b1a81461028b578063574d91831461029e578063587cde1e146102b157806359facefd146102d15780635c19a95c146102d95780636fcfff45146102ec57600080fd5b806306fdde03146101c0578063095ea7b3146101de57806318160ddd1461020157806323b872dd1461021357806323dd35b41461022657806328766ffd1461023957806329c9093b1461024e578063313ce56714610261575b600080fd5b6101c8610478565b6040516101d591906132b8565b60405180910390f35b6101f16101ec366004613329565b61050a565b60405190151581526020016101d5565b6035545b6040519081526020016101d5565b6101f1610221366004613353565b610524565b6101f161023436600461338f565b610548565b61024c6102473660046133bb565b61055b565b005b61020561025c3660046133d6565b6106c6565b604051601281526020016101d5565b61020561079c565b6101f1610286366004613329565b6107ab565b610205610299366004613329565b6107cd565b6102056102ac3660046133d6565b610810565b6102c46102bf3660046133bb565b61081b565b6040516101d591906133ef565b61024c610839565b61024c6102e73660046133bb565b6108d7565b6102ff6102fa3660046133bb565b6108e4565b60405163ffffffff90911681526020016101d5565b6102056103223660046133bb565b610906565b6102056103353660046133bb565b610921565b6102056103483660046133d6565b61093f565b61020561035b3660046133d6565b61096b565b610205610a67565b6101c8610a71565b61020561037e3660046133bb565b610a80565b61020561039136600461342e565b610b06565b6101f16103a4366004613329565b610b28565b6101f16103b7366004613329565b610ba3565b6103cf6103ca3660046133d6565b610bb1565b6040516101d591906134d6565b61024c6103ea3660046135cc565b610ccb565b61024c6103fd366004613624565b610dfd565b61020561041036600461368e565b610f61565b6102c46104233660046133d6565b610f8c565b6102056104363660046136b8565b610f97565b61044e6104493660046136db565b610fa3565b60408051825163ffffffff1681526020928301516001600160e01b031692810192909252016101d5565b60606036805461048790613705565b80601f01602080910402602001604051908101604052809291908181526020018280546104b390613705565b80156105005780601f106104d557610100808354040283529160200191610500565b820191906000526020600020905b8154815290600101906020018083116104e357829003601f168201915b5050505050905090565b600033610518818585611026565b60019150505b92915050565b60003361053285828561114a565b61053d8585856111c4565b506001949350505050565b60006105548383611375565b9392505050565b600054610100900460ff161580801561057b5750600054600160ff909116105b806105955750303b158015610595575060005460ff166001145b6105ba5760405162461bcd60e51b81526004016105b19061373a565b60405180910390fd5b6000805460ff1916600117905580156105dd576000805461ff0019166101001790555b6105e68261142f565b610618604051806040016040528060118152602001704c697175696420436f6c6c65637469766560781b815250611456565b610666604051806040016040528060118152602001704c697175696420436f6c6c65637469766560781b81525060405180604001604052806003815260200162544c4360e81b8152506114a0565b61067c826b033b2e3c9fd0803ce80000006114d1565b80156106c2576000805461ff0019169055604051600181527f7f26b83ff96e1f2b6a682f133852f6798a09c465da95921460cefb38474024989060200160405180910390a15b5050565b6000806106d28361155b565b604080516101608101825282546001600160401b038082168352600160401b82041660208301819052600160801b820463ffffffff90811694840194909452600160a01b80830485166060850152600160c01b830485166080850152600160e01b90920490931660a0830152600184015460c083015260028401546001600160a01b0390811660e084015260038501549081166101008401520460ff1615156101208201526004909201546101408301529091506105549082906107979042906115cc565b6115e1565b60006107a66116b2565b905090565b6000336105188185856107be8383610f61565b6107c8919061379e565b611026565b60004382106107ee5760405162461bcd60e51b81526004016105b1906137b6565b6001600160a01b038316600090815260cd60205260409020610554908361172d565b600061051e82611823565b6001600160a01b03908116600090815260cc60205260409020541690565b600054600290610100900460ff1615801561085b575060005460ff8083169116105b6108775760405162461bcd60e51b81526004016105b19061373a565b6000805461ffff191660ff831617610100179055610893611a0f565b6000805461ff001916905560405160ff821681527f7f26b83ff96e1f2b6a682f133852f6798a09c465da95921460cefb38474024989060200160405180910390a150565b6108e13382611a80565b50565b6001600160a01b038116600090815260cd602052604081205461051e90611b00565b6001600160a01b031660009081526033602052604090205490565b6001600160a01b03811660009081526099602052604081205461051e565b60004382106109605760405162461bcd60e51b81526004016105b1906137b6565b61051e60ce8361172d565b6000806109778361155b565b604080516101608101825282546001600160401b03808216808452600160401b83049091166020840152600160801b820463ffffffff90811694840194909452600160a01b808304851660608501819052600160c01b840486166080860152600160e01b90930490941660a0840152600185015460c084015260028501546001600160a01b0390811660e085015260038601549081166101008501529390930460ff16151561012083015260049093015461014082015292504291610a3b916137ed565b6001600160401b0316811015610a55575060009392505050565b610a5f8282611b69565b949350505050565b60006107a6611bc2565b60606037805461048790613705565b6001600160a01b038116600090815260cd60205260408120548015610af3576001600160a01b038316600090815260cd60205260409020610ac2600183613818565b81548110610ad257610ad261382f565b600091825260209091200154600160201b90046001600160e01b0316610af6565b60005b6001600160e01b03169392505050565b6000610b1a3384848d8d8d8d8d8d8d611be5565b9a9950505050505050505050565b60003381610b368286610f61565b905083811015610b965760405162461bcd60e51b815260206004820152602560248201527f45524332303a2064656372656173656420616c6c6f77616e63652062656c6f77604482015264207a65726f60d81b60648201526084016105b1565b61053d8286868403611026565b6000336105188185856111c4565b6040805161016081018252600080825260208201819052918101829052606081018290526080810182905260a0810182905260c0810182905260e0810182905261010081018290526101208101829052610140810191909152610c138261155b565b604080516101608101825282546001600160401b038082168352600160401b8204166020830152600160801b810463ffffffff90811693830193909352600160a01b80820484166060840152600160c01b820484166080840152600160e01b90910490921660a0820152600183015460c082015260028301546001600160a01b0390811660e083015260038401549081166101008301529190910460ff16151561012082015260049091015461014082015292915050565b83421115610d1b5760405162461bcd60e51b815260206004820152601d60248201527f4552433230566f7465733a207369676e6174757265206578706972656400000060448201526064016105b1565b604080517fe48329057bfd03d55e49b547132e39cffd9c1820ad7b9d4c5307691425d15adf60208201526001600160a01b038816918101919091526060810186905260808101859052600090610d9590610d8d9060a00160405160208183030381529060405280519060200120612141565b85858561218f565b9050610da0816121b7565b8614610dea5760405162461bcd60e51b81526020600482015260196024820152784552433230566f7465733a20696e76616c6964206e6f6e636560381b60448201526064016105b1565b610df48188611a80565b50505050505050565b83421115610e4d5760405162461bcd60e51b815260206004820152601d60248201527f45524332305065726d69743a206578706972656420646561646c696e6500000060448201526064016105b1565b60007f6e71edae12b1b97f4d1f60370fef10105fa2faae0126114a169c64845d6126c9888888610e7c8c6121b7565b6040805160208101969096526001600160a01b0394851690860152929091166060840152608083015260a082015260c0810186905260e0016040516020818303038152906040528051906020012090506000610ed782612141565b90506000610ee78287878761218f565b9050896001600160a01b0316816001600160a01b031614610f4a5760405162461bcd60e51b815260206004820152601e60248201527f45524332305065726d69743a20696e76616c6964207369676e6174757265000060448201526064016105b1565b610f558a8a8a611026565b50505050505050505050565b6001600160a01b03918216600090815260346020908152604080832093909416825291909152205490565b600061051e826121da565b60006105548383612254565b60408051808201909152600080825260208201526001600160a01b038316600090815260cd60205260409020805463ffffffff8416908110610fe757610fe761382f565b60009182526020918290206040805180820190915291015463ffffffff81168252600160201b90046001600160e01b0316918101919091529392505050565b6001600160a01b0383166110885760405162461bcd60e51b8152602060048201526024808201527f45524332303a20617070726f76652066726f6d20746865207a65726f206164646044820152637265737360e01b60648201526084016105b1565b6001600160a01b0382166110e95760405162461bcd60e51b815260206004820152602260248201527f45524332303a20617070726f766520746f20746865207a65726f206164647265604482015261737360f01b60648201526084016105b1565b6001600160a01b0383811660008181526034602090815260408083209487168084529482529182902085905590518481527f8c5be1e5ebec7d5bd14f71427d1e84f3dd0314c0f7b2291e5b200ac8c7c3b925910160405180910390a3505050565b60006111568484610f61565b905060001981146111be57818110156111b15760405162461bcd60e51b815260206004820152601d60248201527f45524332303a20696e73756666696369656e7420616c6c6f77616e636500000060448201526064016105b1565b6111be8484848403611026565b50505050565b6001600160a01b0383166112285760405162461bcd60e51b815260206004820152602560248201527f45524332303a207472616e736665722066726f6d20746865207a65726f206164604482015264647265737360d81b60648201526084016105b1565b6001600160a01b03821661128a5760405162461bcd60e51b815260206004820152602360248201527f45524332303a207472616e7366657220746f20746865207a65726f206164647260448201526265737360e81b60648201526084016105b1565b6001600160a01b038316600090815260336020526040902054818110156113025760405162461bcd60e51b815260206004820152602660248201527f45524332303a207472616e7366657220616d6f756e7420657863656564732062604482015265616c616e636560d01b60648201526084016105b1565b6001600160a01b0380851660008181526033602052604080822086860390559286168082529083902080548601905591517fddf252ad1be2c89b69c2b068fc378daa952ba7f163c4a11628f55a4df523b3ef906113629086815260200190565b60405180910390a36111be848484612582565b6000806113818461155b565b60038101549091506001600160a01b031633146113b3573360405163472511eb60e11b81526004016105b191906133ef565b60006113be856121da565b905060006113cb8261081b565b90506113d78286611a80565b60038301546040518781526001600160a01b039182169187811691908416907ff59662617e9c4f8707dff52c85bd8f49f665073ba5fffb29c2a55ebf58e7a75e9060200160405180910390a450600195945050505050565b6001600160a01b0381166108e15760405163f6b2911f60e01b815260040160405180910390fd5b600054610100900460ff1661147d5760405162461bcd60e51b81526004016105b190613845565b6108e181604051806040016040528060018152602001603160f81b81525061259d565b600054610100900460ff166114c75760405162461bcd60e51b81526004016105b190613845565b6106c282826125de565b6114db828261262c565b6035546001600160e01b03101561154d5760405162461bcd60e51b815260206004820152603060248201527f4552433230566f7465733a20746f74616c20737570706c79207269736b73206f60448201526f766572666c6f77696e6720766f74657360801b60648201526084016105b1565b6111be60ce6126f583612701565b6000806115776001600080516020613927833981519152613818565b8054909150819084106115a05760405163ad7d6e0960e01b8152600481018590526024016105b1565b8060000184815481106115b5576115b561382f565b906000526020600020906005020192505050919050565b60008183116115db5782610554565b50919050565b6000826040015163ffffffff1683600001516115fd91906137ed565b6001600160401b03168210156116155750600061051e565b6080830151835161162c9163ffffffff16906137ed565b6001600160401b03168210611646575060c082015161051e565b825160009061165e906001600160401b031684613818565b905060008460a0015163ffffffff168261167891906138a6565b6116829083613818565b9050846080015163ffffffff168560c001518261169f91906138ba565b6116a991906138d9565b9250505061051e565b60006107a67f8b73c3c69bb8fe3d512ecc4cf759cc79239f7b179b0ffacaa9a75d522b39400f6116e160655490565b6066546040805160208101859052908101839052606081018290524660808201523060a082015260009060c0016040516020818303038152906040528051906020012090509392505050565b81546000908181600581111561178757600061174884612852565b6117529085613818565b600088815260209020909150869082015463ffffffff16111561177757809150611785565b61178281600161379e565b92505b505b808210156117d457600061179b8383612937565b600088815260209020909150869082015463ffffffff1611156117c0578091506117ce565b6117cb81600161379e565b92505b50611787565b801561180d576117f7866117e9600184613818565b600091825260209091200190565b54600160201b90046001600160e01b0316611810565b60005b6001600160e01b03169695505050505050565b60008061182f8361155b565b60038101549091506001600160a01b03163314611861573360405163472511eb60e11b81526004016105b191906133ef565b8054429061188590600160a01b810463ffffffff16906001600160401b03166137ed565b6001600160401b03168110156118ae5760405163fad681e760e01b815260040160405180910390fd5b604080516101608101825283546001600160401b038082168352600160401b8204166020830152600160801b810463ffffffff90811693830193909352600160a01b80820484166060840152600160c01b820484166080840152600160e01b90910490921660a0820152600184015460c082015260028401546001600160a01b0390811660e083015260038501549081166101008301529190910460ff161515610120820152600483015461014082015260009061196c9083611b69565b90508061198c57604051630fe6b58b60e41b815260040160405180910390fd5b6000611997866121da565b60038501549091506119b49082906001600160a01b0316846111c4565b818460040160008282546119c8919061379e565b909155505060408051878152602081018490527f8e54a80e4adf22e5669cda627d76c97a21b0a2a54fab3b48b1b38b97b29580f0910160405180910390a150949350505050565b611a17611bc2565b611a7e576000611a25612952565b905060005b818110156106c2576000611a3d82612980565b6001015490506000611a5a611a54610322856121da565b836115cc565b611a649083613818565b9050611a708382612a03565b508260010192505050611a2a565b565b6000611a8b8361081b565b90506000611a9884610906565b6001600160a01b03858116600081815260cc602052604080822080546001600160a01b031916898616908117909155905194955093928616927f3134e8a2e6d97e929a7e54011ea5485d7d196dd5f0ba4d4ef95803e8e3fc257f9190a46111be828483612c6c565b600063ffffffff821115611b655760405162461bcd60e51b815260206004820152602660248201527f53616665436173743a2076616c756520646f65736e27742066697420696e203360448201526532206269747360d01b60648201526084016105b1565b5090565b6101408201516020830151600091906001600160401b0316831115611b995783602001516001600160401b031692505b6000611ba585856115e1565b905081811115611bb75703905061051e565b506000949350505050565b600080611bde6001600080516020613927833981519152613818565b5492915050565b600081611bf18c610906565b1015611c1057604051633464861d60e21b815260040160405180910390fd5b6001600160a01b038a16611c8557604051630d63fe3160e31b815260206004820152603560248201527f56657374696e67207363686564756c652062656e6566696369617279206d757360448201527474206265206e6f6e207a65726f206164647265737360581b60648201526084016105b1565b63ffffffff8616611ce757604051630d63fe3160e31b815260206004820152602560248201527f56657374696e67207363686564756c65206475726174696f6e206d7573742062604482015264065203e20360dc1b60648201526084016105b1565b81611d4157604051630d63fe3160e31b815260206004820152602360248201527f56657374696e67207363686564756c6520616d6f756e74206d7573742062652060448201526203e20360ec1b60648201526084016105b1565b63ffffffff8516611da157604051630d63fe3160e31b815260206004820152602360248201527f56657374696e67207363686564756c6520706572696f64206d7573742062652060448201526203e20360ec1b60648201526084016105b1565b6000611dad86886138ed565b63ffffffff161115611e2057604051630d63fe3160e31b815260206004820152603560248201527f56657374696e67207363686564756c65206475726174696f6e206d7573742073604482015274706c697420696e20657861637420706572696f647360581b60648201526084016105b1565b6000611e2c86896138ed565b63ffffffff161115611ea757604051630d63fe3160e31b815260206004820152603b60248201527f56657374696e67207363686564756c6520636c696666206475726174696f6e2060448201527f6d7573742073706c697420696e20657861637420706572696f6473000000000060648201526084016105b1565b8563ffffffff168763ffffffff161115611f4057604051630d63fe3160e31b815260206004820152604d60248201527f56657374696e67207363686564756c65206475726174696f6e206d757374206260448201527f652067726561746572207468616e206f7220657175616c20746f20746865206360648201526c3634b33310323ab930ba34b7b760991b608482015260a4016105b1565b8563ffffffff168563ffffffff1683611f5991906138ba565b611f6391906138d9565b611fd057604051630d63fe3160e31b815260206004820152603760248201527f56657374696e67207363686564756c6520616d6f756e7420746f6f206c6f7720604482015276199bdc88191d5c985d1a5bdb88185b99081c195c9a5bd9604a1b60648201526084016105b1565b6001600160401b038816611fe2574297505b60006040518061016001604052808a6001600160401b031681526020018863ffffffff168b61201191906137ed565b6001600160401b031681526020018963ffffffff1681526020018663ffffffff1681526020018863ffffffff1681526020018763ffffffff1681526020018481526020018d6001600160a01b031681526020018c6001600160a01b031681526020018515158152602001600081525090506000600161208f83612da9565b6120999190613818565b905060006120a6826121da565b90506120b38e82876111c4565b6001600160a01b038c166120d0576120cb818e611a80565b6120da565b6120da818d611a80565b8c6001600160a01b03168e6001600160a01b03167fb0274f4a20cdf2005bb6a28aab72868f144d56c0828753a0f6edc7a62ef131b18488604051612128929190918252602082015260400190565b60405180910390a3509c9b505050505050505050505050565b600061051e61214e6116b2565b8360405161190160f01b6020820152602281018390526042810182905260009060620160405160208183030381529060405280519060200120905092915050565b60008060006121a087878787612f06565b915091506121ad81612fc0565b5095945050505050565b6001600160a01b0316600090815260996020526040902080546001810190915590565b6000803061220960017f5c24c10d65ac9aa9e0f7f63d96fe83c89107fae52b4ef778334c906c1ec5c1ed613818565b60405160609290921b6bffffffffffffffffffffffff1916602083015260348201526054810184905260740160408051601f1981840301815291905280516020909101209392505050565b60006001600160401b03821661226c57429150612296565b42826001600160401b03161015612296576040516317518afb60e11b815260040160405180910390fd5b60006122a18461155b565b6003810154909150600160a01b900460ff166122d0576040516341a76da360e01b815260040160405180910390fd5b80546001600160401b0390811690841610806122ff575080546001600160401b03808516600160401b90920416105b1561231d57604051635178474560e11b815260040160405180910390fd5b60028101546001600160a01b0316331461234c573360405163472511eb60e11b81526004016105b191906133ef565b604080516101608101825282546001600160401b038082168352600160401b82041660208301819052600160801b820463ffffffff90811694840194909452600160a01b80830485166060850152600160c01b830485166080850152600160e01b90920490931660a0830152600184015460c083015260028401546001600160a01b0390811660e084015260038501549081166101008401520460ff161515610120820152600483015461014082015260009161240991906115e1565b604080516101608101825284546001600160401b038082168352600160401b820481166020840152600160801b820463ffffffff90811694840194909452600160a01b80830485166060850152600160c01b830485166080850152600160e01b90920490931660a0830152600186015460c083015260028601546001600160a01b0390811660e084015260038701549081166101008401520460ff16151561012082015260048501546101408201529192506000916124c99187166115e1565b905060006124d78284613818565b905080156125095760006124ea886121da565b60028601549091506125079082906001600160a01b0316846111c4565b505b835467ffffffffffffffff60401b1916600160401b6001600160401b0388169081029190911785556040805189815260208101849052908101919091527f2c802be755370b3a250faf14516cb3480b47417d4c12d7fa0ff3ee0b937d99e99060600160405180910390a19695505050505050565b505050565b61257d61258e8461081b565b6125978461081b565b83612c6c565b600054610100900460ff166125c45760405162461bcd60e51b81526004016105b190613845565b815160209283012081519190920120606591909155606655565b600054610100900460ff166126055760405162461bcd60e51b81526004016105b190613845565b8151612618906036906020850190613228565b50805161257d906037906020840190613228565b6001600160a01b0382166126825760405162461bcd60e51b815260206004820152601f60248201527f45524332303a206d696e7420746f20746865207a65726f20616464726573730060448201526064016105b1565b8060356000828254612694919061379e565b90915550506001600160a01b0382166000818152603360209081526040808320805486019055518481527fddf252ad1be2c89b69c2b068fc378daa952ba7f163c4a11628f55a4df523b3ef910160405180910390a36106c260008383612582565b6000610554828461379e565b8254600090819081811561274d5761271e876117e9600185613818565b60408051808201909152905463ffffffff81168252600160201b90046001600160e01b03166020820152612762565b60408051808201909152600080825260208201525b905080602001516001600160e01b0316935061278284868863ffffffff16565b925060008211801561279a5750805163ffffffff1643145b156127de576127a883613109565b6127b7886117e9600186613818565b80546001600160e01b0392909216600160201b0263ffffffff909216919091179055612848565b8660405180604001604052806127f343611b00565b63ffffffff16815260200161280786613109565b6001600160e01b039081169091528254600181018455600093845260209384902083519490930151909116600160201b0263ffffffff909316929092179101555b5050935093915050565b60008161286157506000919050565b6000600161286e84613172565b901c6001901b9050600181848161288757612887613890565b048201901c9050600181848161289f5761289f613890565b048201901c905060018184816128b7576128b7613890565b048201901c905060018184816128cf576128cf613890565b048201901c905060018184816128e7576128e7613890565b048201901c905060018184816128ff576128ff613890565b048201901c9050600181848161291757612917613890565b048201901c90506105548182858161293157612931613890565b04613206565b600061294660028484186138d9565b6105549084841661379e565b600080611bde60017ff828a756855b22b2018e6c442f4e4296eacda2c58e90fa4824ff32229d084d62613818565b6000806129ae60017ff828a756855b22b2018e6c442f4e4296eacda2c58e90fa4824ff32229d084d62613818565b8054909150819084106129d75760405163ad7d6e0960e01b8152600481018590526024016105b1565b8060000184815481106129ec576129ec61382f565b906000526020600020906004020192505050919050565b600080612a0f84612980565b604051806101400160405290816000820160009054906101000a90046001600160401b03166001600160401b03166001600160401b031681526020016000820160089054906101000a90046001600160401b03166001600160401b03166001600160401b031681526020016000820160109054906101000a900463ffffffff1663ffffffff1663ffffffff1681526020016000820160149054906101000a900463ffffffff1663ffffffff1663ffffffff1681526020016000820160189054906101000a900463ffffffff1663ffffffff1663ffffffff16815260200160008201601c9054906101000a900463ffffffff1663ffffffff1663ffffffff168152602001600182015481526020016002820160009054906101000a90046001600160a01b03166001600160a01b03166001600160a01b031681526020016003820160009054906101000a90046001600160a01b03166001600160a01b03166001600160a01b031681526020016003820160149054906101000a900460ff1615151515815250509050600060405180610160016040528083600001516001600160401b0316815260200183602001516001600160401b03168152602001836040015163ffffffff168152602001836060015163ffffffff168152602001836080015163ffffffff1681526020018360a0015163ffffffff1681526020018360c0015181526020018360e001516001600160a01b031681526020018361010001516001600160a01b03168152602001836101200151151581526020018581525090506001612c5982612da9565b612c639190613818565b95945050505050565b816001600160a01b0316836001600160a01b031614158015612c8e5750600081115b1561257d576001600160a01b03831615612d1c576001600160a01b038316600090815260cd602052604081208190612cc99061321c85612701565b91509150846001600160a01b03167fdec2bacdd2f05b59de34da9b523dff8be42e5e38e818c82fdb0bae774387a7248383604051612d11929190918252602082015260400190565b60405180910390a250505b6001600160a01b0382161561257d576001600160a01b038216600090815260cd602052604081208190612d52906126f585612701565b91509150836001600160a01b03167fdec2bacdd2f05b59de34da9b523dff8be42e5e38e818c82fdb0bae774387a7248383604051612d9a929190918252602082015260400190565b60405180910390a25050505050565b600080612dc56001600080516020613927833981519152613818565b80546001808201835560008381526020908190208751600590940201805491880151604089015160608a015160808b015160a08c01516001600160401b039889166001600160801b031990971696909617600160401b98909416979097029290921767ffffffffffffffff60801b1916600160801b63ffffffff9283160263ffffffff60a01b191617600160a01b9282168302176001600160c01b0316600160c01b968216969096026001600160e01b031695909517600160e01b959093169490940291909117815560c08701519181019190915560e08601516002820180546001600160a01b0319166001600160a01b039283161790556101008701516003830180546101208a0151929093166001600160a81b031990931692909217901515909302929092179091556101409094015160049094019390935550505490565b6000806fa2a8918ca85bafe22016d0b997e4df60600160ff1b03831115612f335750600090506003612fb7565b6040805160008082526020820180845289905260ff881692820192909252606081018690526080810185905260019060a0016020604051602081039080840390855afa158015612f87573d6000803e3d6000fd5b5050604051601f1901519150506001600160a01b038116612fb057600060019250925050612fb7565b9150600090505b94509492505050565b6000816004811115612fd457612fd4613910565b1415612fdd5750565b6001816004811115612ff157612ff1613910565b141561303a5760405162461bcd60e51b815260206004820152601860248201527745434453413a20696e76616c6964207369676e617475726560401b60448201526064016105b1565b600281600481111561304e5761304e613910565b141561309c5760405162461bcd60e51b815260206004820152601f60248201527f45434453413a20696e76616c6964207369676e6174757265206c656e6774680060448201526064016105b1565b60038160048111156130b0576130b0613910565b14156108e15760405162461bcd60e51b815260206004820152602260248201527f45434453413a20696e76616c6964207369676e6174757265202773272076616c604482015261756560f01b60648201526084016105b1565b60006001600160e01b03821115611b655760405162461bcd60e51b815260206004820152602760248201527f53616665436173743a2076616c756520646f65736e27742066697420696e20326044820152663234206269747360c81b60648201526084016105b1565b600080608083901c1561318757608092831c92015b604083901c1561319957604092831c92015b602083901c156131ab57602092831c92015b601083901c156131bd57601092831c92015b600883901c156131cf57600892831c92015b600483901c156131e157600492831c92015b600283901c156131f357600292831c92015b600183901c1561051e5760010192915050565b60008183106132155781610554565b5090919050565b60006105548284613818565b82805461323490613705565b90600052602060002090601f016020900481019282613256576000855561329c565b82601f1061326f57805160ff191683800117855561329c565b8280016001018555821561329c579182015b8281111561329c578251825591602001919060010190613281565b50611b659291505b80821115611b6557600081556001016132a4565b600060208083528351808285015260005b818110156132e5578581018301518582016040015282016132c9565b818111156132f7576000604083870101525b50601f01601f1916929092016040019392505050565b80356001600160a01b038116811461332457600080fd5b919050565b6000806040838503121561333c57600080fd5b6133458361330d565b946020939093013593505050565b60008060006060848603121561336857600080fd5b6133718461330d565b925061337f6020850161330d565b9150604084013590509250925092565b600080604083850312156133a257600080fd5b823591506133b26020840161330d565b90509250929050565b6000602082840312156133cd57600080fd5b6105548261330d565b6000602082840312156133e857600080fd5b5035919050565b6001600160a01b0391909116815260200190565b80356001600160401b038116811461332457600080fd5b803563ffffffff8116811461332457600080fd5b60008060008060008060008060006101208a8c03121561344d57600080fd5b6134568a613403565b985061346460208b0161341a565b975061347260408b0161341a565b965061348060608b0161341a565b955061348e60808b0161341a565b945060a08a013580151581146134a357600080fd5b935060c08a013592506134b860e08b0161330d565b91506134c76101008b0161330d565b90509295985092959850929598565b81516001600160401b031681526101608101602083015161350260208401826001600160401b03169052565b50604083015161351a604084018263ffffffff169052565b506060830151613532606084018263ffffffff169052565b50608083015161354a608084018263ffffffff169052565b5060a083015161356260a084018263ffffffff169052565b5060c083015160c083015260e083015161358760e08401826001600160a01b03169052565b50610100838101516001600160a01b0316908301526101208084015115159083015261014092830151929091019190915290565b803560ff8116811461332457600080fd5b60008060008060008060c087890312156135e557600080fd5b6135ee8761330d565b9550602087013594506040870135935061360a606088016135bb565b92506080870135915060a087013590509295509295509295565b600080600080600080600060e0888a03121561363f57600080fd5b6136488861330d565b96506136566020890161330d565b95506040880135945060608801359350613672608089016135bb565b925060a0880135915060c0880135905092959891949750929550565b600080604083850312156136a157600080fd5b6136aa8361330d565b91506133b26020840161330d565b600080604083850312156136cb57600080fd5b823591506133b260208401613403565b600080604083850312156136ee57600080fd5b6136f78361330d565b91506133b26020840161341a565b600181811c9082168061371957607f821691505b602082108114156115db57634e487b7160e01b600052602260045260246000fd5b6020808252602e908201527f496e697469616c697a61626c653a20636f6e747261637420697320616c72656160408201526d191e481a5b9a5d1a585b1a5e995960921b606082015260800190565b634e487b7160e01b600052601160045260246000fd5b600082198211156137b1576137b1613788565b500190565b6020808252601f908201527f4552433230566f7465733a20626c6f636b206e6f7420796574206d696e656400604082015260600190565b60006001600160401b0380831681851680830382111561380f5761380f613788565b01949350505050565b60008282101561382a5761382a613788565b500390565b634e487b7160e01b600052603260045260246000fd5b6020808252602b908201527f496e697469616c697a61626c653a20636f6e7472616374206973206e6f74206960408201526a6e697469616c697a696e6760a81b606082015260800190565b634e487b7160e01b600052601260045260246000fd5b6000826138b5576138b5613890565b500690565b60008160001904831182151516156138d4576138d4613788565b500290565b6000826138e8576138e8613890565b500490565b600063ffffffff8084168061390457613904613890565b92169190910692915050565b634e487b7160e01b600052602160045260246000fdfe64404627f9392c993df73912dbfb24528266190d015c31a2a5dcf19d4c62184da26469706673582212207410522b689820dd941e2196adc8ee09a3a782416394ffb0f7ea7a7cc32237d064736f6c634300080a0033",
            "0x608060405234801561001057600080fd5b50600436106101bb5760003560e01c806370a08231116100fa578063a457c2d71161009d578063a457c2d714610396578063a9059cbb146103a9578063beb8f883146103bc578063c3cda520146103dc578063d505accf146103ef578063dd62ed3e14610402578063decc722414610415578063f0519be014610428578063f1127ed81461043b57600080fd5b806370a08231146103145780637ecebe00146103275780638e539e8c1461033a5780638fb8ad841461034d5780639295ccec1461036057806395d89b41146103685780639ab24eb014610370578063a33773f61461038357600080fd5b80633644e515116101625780633644e5151461027057806339509351146102785780633a46b1a81461028b578063574d91831461029e578063587cde1e146102b157806359facefd146102d15780635c19a95c146102d95780636fcfff45146102ec57600080fd5b806306fdde03146101c0578063095ea7b3146101de57806318160ddd1461020157806323b872dd1461021357806323dd35b41461022657806328766ffd1461023957806329c9093b1461024e578063313ce56714610261575b600080fd5b6101c8610478565b6040516101d591906132b8565b60405180910390f35b6101f16101ec366004613329565b61050a565b60405190151581526020016101d5565b6035545b6040519081526020016101d5565b6101f1610221366004613353565b610524565b6101f161023436600461338f565b610548565b61024c6102473660046133bb565b61055b565b005b61020561025c3660046133d6565b6106c6565b604051601281526020016101d5565b61020561079c565b6101f1610286366004613329565b6107ab565b610205610299366004613329565b6107cd565b6102056102ac3660046133d6565b610810565b6102c46102bf3660046133bb565b61081b565b6040516101d591906133ef565b61024c610839565b61024c6102e73660046133bb565b6108d7565b6102ff6102fa3660046133bb565b6108e4565b60405163ffffffff90911681526020016101d5565b6102056103223660046133bb565b610906565b6102056103353660046133bb565b610921565b6102056103483660046133d6565b61093f565b61020561035b3660046133d6565b61096b565b610205610a67565b6101c8610a71565b61020561037e3660046133bb565b610a80565b61020561039136600461342e565b610b06565b6101f16103a4366004613329565b610b28565b6101f16103b7366004613329565b610ba3565b6103cf6103ca3660046133d6565b610bb1565b6040516101d591906134d6565b61024c6103ea3660046135cc565b610ccb565b61024c6103fd366004613624565b610dfd565b61020561041036600461368e565b610f61565b6102c46104233660046133d6565b610f8c565b6102056104363660046136b8565b610f97565b61044e6104493660046136db565b610fa3565b60408051825163ffffffff1681526020928301516001600160e01b031692810192909252016101d5565b60606036805461048790613705565b80601f01602080910402602001604051908101604052809291908181526020018280546104b390613705565b80156105005780601f106104d557610100808354040283529160200191610500565b820191906000526020600020905b8154815290600101906020018083116104e357829003601f168201915b5050505050905090565b600033610518818585611026565b60019150505b92915050565b60003361053285828561114a565b61053d8585856111c4565b506001949350505050565b60006105548383611375565b9392505050565b600054610100900460ff161580801561057b5750600054600160ff909116105b806105955750303b158015610595575060005460ff166001145b6105ba5760405162461bcd60e51b81526004016105b19061373a565b60405180910390fd5b6000805460ff1916600117905580156105dd576000805461ff0019166101001790555b6105e68261142f565b610618604051806040016040528060118152602001704c697175696420436f6c6c65637469766560781b815250611456565b610666604051806040016040528060118152602001704c697175696420436f6c6c65637469766560781b81525060405180604001604052806003815260200162544c4360e81b8152506114a0565b61067c826b033b2e3c9fd0803ce80000006114d1565b80156106c2576000805461ff0019169055604051600181527f7f26b83ff96e1f2b6a682f133852f6798a09c465da95921460cefb38474024989060200160405180910390a15b5050565b6000806106d28361155b565b604080516101608101825282546001600160401b038082168352600160401b82041660208301819052600160801b820463ffffffff90811694840194909452600160a01b80830485166060850152600160c01b830485166080850152600160e01b90920490931660a0830152600184015460c083015260028401546001600160a01b0390811660e084015260038501549081166101008401520460ff1615156101208201526004909201546101408301529091506105549082906107979042906115cc565b6115e1565b60006107a66116b2565b905090565b6000336105188185856107be8383610f61565b6107c8919061379e565b611026565b60004382106107ee5760405162461bcd60e51b81526004016105b1906137b6565b6001600160a01b038316600090815260cd60205260409020610554908361172d565b600061051e82611823565b6001600160a01b03908116600090815260cc60205260409020541690565b600054600290610100900460ff1615801561085b575060005460ff8083169116105b6108775760405162461bcd60e51b81526004016105b19061373a565b6000805461ffff191660ff831617610100179055610893611a0f565b6000805461ff001916905560405160ff821681527f7f26b83ff96e1f2b6a682f133852f6798a09c465da95921460cefb38474024989060200160405180910390a150565b6108e13382611a80565b50565b6001600160a01b038116600090815260cd602052604081205461051e90611b00565b6001600160a01b031660009081526033602052604090205490565b6001600160a01b03811660009081526099602052604081205461051e565b60004382106109605760405162461bcd60e51b81526004016105b1906137b6565b61051e60ce8361172d565b6000806109778361155b565b604080516101608101825282546001600160401b03808216808452600160401b83049091166020840152600160801b820463ffffffff90811694840194909452600160a01b808304851660608501819052600160c01b840486166080860152600160e01b90930490941660a0840152600185015460c084015260028501546001600160a01b0390811660e085015260038601549081166101008501529390930460ff16151561012083015260049093015461014082015292504291610a3b916137ed565b6001600160401b0316811015610a55575060009392505050565b610a5f8282611b69565b949350505050565b60006107a6611bc2565b60606037805461048790613705565b6001600160a01b038116600090815260cd60205260408120548015610af3576001600160a01b038316600090815260cd60205260409020610ac2600183613818565b81548110610ad257610ad261382f565b600091825260209091200154600160201b90046001600160e01b0316610af6565b60005b6001600160e01b03169392505050565b6000610b1a3384848d8d8d8d8d8d8d611be5565b9a9950505050505050505050565b60003381610b368286610f61565b905083811015610b965760405162461bcd60e51b815260206004820152602560248201527f45524332303a2064656372656173656420616c6c6f77616e63652062656c6f77604482015264207a65726f60d81b60648201526084016105b1565b61053d8286868403611026565b6000336105188185856111c4565b6040805161016081018252600080825260208201819052918101829052606081018290526080810182905260a0810182905260c0810182905260e0810182905261010081018290526101208101829052610140810191909152610c138261155b565b604080516101608101825282546001600160401b038082168352600160401b8204166020830152600160801b810463ffffffff90811693830193909352600160a01b80820484166060840152600160c01b820484166080840152600160e01b90910490921660a0820152600183015460c082015260028301546001600160a01b0390811660e083015260038401549081166101008301529190910460ff16151561012082015260049091015461014082015292915050565b83421115610d1b5760405162461bcd60e51b815260206004820152601d60248201527f4552433230566f7465733a207369676e6174757265206578706972656400000060448201526064016105b1565b604080517fe48329057bfd03d55e49b547132e39cffd9c1820ad7b9d4c5307691425d15adf60208201526001600160a01b038816918101919091526060810186905260808101859052600090610d9590610d8d9060a00160405160208183030381529060405280519060200120612141565b85858561218f565b9050610da0816121b7565b8614610dea5760405162461bcd60e51b81526020600482015260196024820152784552433230566f7465733a20696e76616c6964206e6f6e636560381b60448201526064016105b1565b610df48188611a80565b50505050505050565b83421115610e4d5760405162461bcd60e51b815260206004820152601d60248201527f45524332305065726d69743a206578706972656420646561646c696e6500000060448201526064016105b1565b60007f6e71edae12b1b97f4d1f60370fef10105fa2faae0126114a169c64845d6126c9888888610e7c8c6121b7565b6040805160208101969096526001600160a01b0394851690860152929091166060840152608083015260a082015260c0810186905260e0016040516020818303038152906040528051906020012090506000610ed782612141565b90506000610ee78287878761218f565b9050896001600160a01b0316816001600160a01b031614610f4a5760405162461bcd60e51b815260206004820152601e60248201527f45524332305065726d69743a20696e76616c6964207369676e6174757265000060448201526064016105b1565b610f558a8a8a611026565b50505050505050505050565b6001600160a01b03918216600090815260346020908152604080832093909416825291909152205490565b600061051e826121da565b60006105548383612254565b60408051808201909152600080825260208201526001600160a01b038316600090815260cd60205260409020805463ffffffff8416908110610fe757610fe761382f565b60009182526020918290206040805180820190915291015463ffffffff81168252600160201b90046001600160e01b0316918101919091529392505050565b6001600160a01b0383166110885760405162461bcd60e51b8152602060048201526024808201527f45524332303a20617070726f76652066726f6d20746865207a65726f206164646044820152637265737360e01b60648201526084016105b1565b6001600160a01b0382166110e95760405162461bcd60e51b815260206004820152602260248201527f45524332303a20617070726f766520746f20746865207a65726f206164647265604482015261737360f01b60648201526084016105b1565b6001600160a01b0383811660008181526034602090815260408083209487168084529482529182902085905590518481527f8c5be1e5ebec7d5bd14f71427d1e84f3dd0314c0f7b2291e5b200ac8c7c3b925910160405180910390a3505050565b60006111568484610f61565b905060001981146111be57818110156111b15760405162461bcd60e51b815260206004820152601d60248201527f45524332303a20696e73756666696369656e7420616c6c6f77616e636500000060448201526064016105b1565b6111be8484848403611026565b50505050565b6001600160a01b0383166112285760405162461bcd60e51b815260206004820152602560248201527f45524332303a207472616e736665722066726f6d20746865207a65726f206164604482015264647265737360d81b60648201526084016105b1565b6001600160a01b03821661128a5760405162461bcd60e51b815260206004820152602360248201527f45524332303a207472616e7366657220746f20746865207a65726f206164647260448201526265737360e81b60648201526084016105b1565b6001600160a01b038316600090815260336020526040902054818110156113025760405162461bcd60e51b815260206004820152602660248201527f45524332303a207472616e7366657220616d6f756e7420657863656564732062604482015265616c616e636560d01b60648201526084016105b1565b6001600160a01b0380851660008181526033602052604080822086860390559286168082529083902080548601905591517fddf252ad1be2c89b69c2b068fc378daa952ba7f163c4a11628f55a4df523b3ef906113629086815260200190565b60405180910390a36111be848484612582565b6000806113818461155b565b60038101549091506001600160a01b031633146113b3573360405163472511eb60e11b81526004016105b191906133ef565b60006113be856121da565b905060006113cb8261081b565b90506113d78286611a80565b60038301546040518781526001600160a01b039182169187811691908416907ff59662617e9c4f8707dff52c85bd8f49f665073ba5fffb29c2a55ebf58e7a75e9060200160405180910390a450600195945050505050565b6001600160a01b0381166108e15760405163f6b2911f60e01b815260040160405180910390fd5b600054610100900460ff1661147d5760405162461bcd60e51b81526004016105b190613845565b6108e181604051806040016040528060018152602001603160f81b81525061259d565b600054610100900460ff166114c75760405162461bcd60e51b81526004016105b190613845565b6106c282826125de565b6114db828261262c565b6035546001600160e01b03101561154d5760405162461bcd60e51b815260206004820152603060248201527f4552433230566f7465733a20746f74616c20737570706c79207269736b73206f60448201526f766572666c6f77696e6720766f74657360801b60648201526084016105b1565b6111be60ce6126f583612701565b6000806115776001600080516020613927833981519152613818565b8054909150819084106115a05760405163ad7d6e0960e01b8152600481018590526024016105b1565b8060000184815481106115b5576115b561382f565b906000526020600020906005020192505050919050565b60008183116115db5782610554565b50919050565b6000826040015163ffffffff1683600001516115fd91906137ed565b6001600160401b03168210156116155750600061051e565b6080830151835161162c9163ffffffff16906137ed565b6001600160401b03168210611646575060c082015161051e565b825160009061165e906001600160401b031684613818565b905060008460a0015163ffffffff168261167891906138a6565b6116829083613818565b9050846080015163ffffffff168560c001518261169f91906138ba565b6116a991906138d9565b9250505061051e565b60006107a67f8b73c3c69bb8fe3d512ecc4cf759cc79239f7b179b0ffacaa9a75d522b39400f6116e160655490565b6066546040805160208101859052908101839052606081018290524660808201523060a082015260009060c0016040516020818303038152906040528051906020012090509392505050565b81546000908181600581111561178757600061174884612852565b6117529085613818565b600088815260209020909150869082015463ffffffff16111561177757809150611785565b61178281600161379e565b92505b505b808210156117d457600061179b8383612937565b600088815260209020909150869082015463ffffffff1611156117c0578091506117ce565b6117cb81600161379e565b92505b50611787565b801561180d576117f7866117e9600184613818565b600091825260209091200190565b54600160201b90046001600160e01b0316611810565b60005b6001600160e01b03169695505050505050565b60008061182f8361155b565b60038101549091506001600160a01b03163314611861573360405163472511eb60e11b81526004016105b191906133ef565b8054429061188590600160a01b810463ffffffff16906001600160401b03166137ed565b6001600160401b03168110156118ae5760405163fad681e760e01b815260040160405180910390fd5b604080516101608101825283546001600160401b038082168352600160401b8204166020830152600160801b810463ffffffff90811693830193909352600160a01b80820484166060840152600160c01b820484166080840152600160e01b90910490921660a0820152600184015460c082015260028401546001600160a01b0390811660e083015260038501549081166101008301529190910460ff161515610120820152600483015461014082015260009061196c9083611b69565b90508061198c57604051630fe6b58b60e41b815260040160405180910390fd5b6000611997866121da565b60038501549091506119b49082906001600160a01b0316846111c4565b818460040160008282546119c8919061379e565b909155505060408051878152602081018490527f8e54a80e4adf22e5669cda627d76c97a21b0a2a54fab3b48b1b38b97b29580f0910160405180910390a150949350505050565b611a17611bc2565b611a7e576000611a25612952565b905060005b818110156106c2576000611a3d82612980565b6001015490506000611a5a611a54610322856121da565b836115cc565b611a649083613818565b9050611a708382612a03565b508260010192505050611a2a565b565b6000611a8b8361081b565b90506000611a9884610906565b6001600160a01b03858116600081815260cc602052604080822080546001600160a01b031916898616908117909155905194955093928616927f3134e8a2e6d97e929a7e54011ea5485d7d196dd5f0ba4d4ef95803e8e3fc257f9190a46111be828483612c6c565b600063ffffffff821115611b655760405162461bcd60e51b815260206004820152602660248201527f53616665436173743a2076616c756520646f65736e27742066697420696e203360448201526532206269747360d01b60648201526084016105b1565b5090565b6101408201516020830151600091906001600160401b0316831115611b995783602001516001600160401b031692505b6000611ba585856115e1565b905081811115611bb75703905061051e565b506000949350505050565b600080611bde6001600080516020613927833981519152613818565b5492915050565b600081611bf18c610906565b1015611c1057604051633464861d60e21b815260040160405180910390fd5b6001600160a01b038a16611c8557604051630d63fe3160e31b815260206004820152603560248201527f56657374696e67207363686564756c652062656e6566696369617279206d757360448201527474206265206e6f6e207a65726f206164647265737360581b60648201526084016105b1565b63ffffffff8616611ce757604051630d63fe3160e31b815260206004820152602560248201527f56657374696e67207363686564756c65206475726174696f6e206d7573742062604482015264065203e20360dc1b60648201526084016105b1565b81611d4157604051630d63fe3160e31b815260206004820152602360248201527f56657374696e67207363686564756c6520616d6f756e74206d7573742062652060448201526203e20360ec1b60648201526084016105b1565b63ffffffff8516611da157604051630d63fe3160e31b815260206004820152602360248201527f56657374696e67207363686564756c6520706572696f64206d7573742062652060448201526203e20360ec1b60648201526084016105b1565b6000611dad86886138ed565b63ffffffff161115611e2057604051630d63fe3160e31b815260206004820152603560248201527f56657374696e67207363686564756c65206475726174696f6e206d7573742073604482015274706c697420696e20657861637420706572696f647360581b60648201526084016105b1565b6000611e2c86896138ed565b63ffffffff161115611ea757604051630d63fe3160e31b815260206004820152603b60248201527f56657374696e67207363686564756c6520636c696666206475726174696f6e2060448201527f6d7573742073706c697420696e20657861637420706572696f6473000000000060648201526084016105b1565b8563ffffffff168763ffffffff161115611f4057604051630d63fe3160e31b815260206004820152604d60248201527f56657374696e67207363686564756c65206475726174696f6e206d757374206260448201527f652067726561746572207468616e206f7220657175616c20746f20746865206360648201526c3634b33310323ab930ba34b7b760991b608482015260a4016105b1565b8563ffffffff168563ffffffff1683611f5991906138ba565b611f6391906138d9565b611fd057604051630d63fe3160e31b815260206004820152603760248201527f56657374696e67207363686564756c6520616d6f756e7420746f6f206c6f7720604482015276199bdc88191d5c985d1a5bdb88185b99081c195c9a5bd9604a1b60648201526084016105b1565b6001600160401b038816611fe2574297505b60006040518061016001604052808a6001600160401b031681526020018863ffffffff168b61201191906137ed565b6001600160401b031681526020018963ffffffff1681526020018663ffffffff1681526020018863ffffffff1681526020018763ffffffff1681526020018481526020018d6001600160a01b031681526020018c6001600160a01b031681526020018515158152602001600081525090506000600161208f83612da9565b6120999190613818565b905060006120a6826121da565b90506120b38e82876111c4565b6001600160a01b038c166120d0576120cb818e611a80565b6120da565b6120da818d611a80565b8c6001600160a01b03168e6001600160a01b03167fb0274f4a20cdf2005bb6a28aab72868f144d56c0828753a0f6edc7a62ef131b18488604051612128929190918252602082015260400190565b60405180910390a3509c9b505050505050505050505050565b600061051e61214e6116b2565b8360405161190160f01b6020820152602281018390526042810182905260009060620160405160208183030381529060405280519060200120905092915050565b60008060006121a087878787612f06565b915091506121ad81612fc0565b5095945050505050565b6001600160a01b0316600090815260996020526040902080546001810190915590565b6000803061220960017f5c24c10d65ac9aa9e0f7f63d96fe83c89107fae52b4ef778334c906c1ec5c1ed613818565b60405160609290921b6bffffffffffffffffffffffff1916602083015260348201526054810184905260740160408051601f1981840301815291905280516020909101209392505050565b60006001600160401b03821661226c57429150612296565b42826001600160401b03161015612296576040516317518afb60e11b815260040160405180910390fd5b60006122a18461155b565b6003810154909150600160a01b900460ff166122d0576040516341a76da360e01b815260040160405180910390fd5b80546001600160401b0390811690841610806122ff575080546001600160401b03808516600160401b90920416105b1561231d57604051635178474560e11b815260040160405180910390fd5b60028101546001600160a01b0316331461234c573360405163472511eb60e11b81526004016105b191906133ef565b604080516101608101825282546001600160401b038082168352600160401b82041660208301819052600160801b820463ffffffff90811694840194909452600160a01b80830485166060850152600160c01b830485166080850152600160e01b90920490931660a0830152600184015460c083015260028401546001600160a01b0390811660e084015260038501549081166101008401520460ff161515610120820152600483015461014082015260009161240991906115e1565b604080516101608101825284546001600160401b038082168352600160401b820481166020840152600160801b820463ffffffff90811694840194909452600160a01b80830485166060850152600160c01b830485166080850152600160e01b90920490931660a0830152600186015460c083015260028601546001600160a01b0390811660e084015260038701549081166101008401520460ff16151561012082015260048501546101408201529192506000916124c99187166115e1565b905060006124d78284613818565b905080156125095760006124ea886121da565b60028601549091506125079082906001600160a01b0316846111c4565b505b835467ffffffffffffffff60401b1916600160401b6001600160401b0388169081029190911785556040805189815260208101849052908101919091527f2c802be755370b3a250faf14516cb3480b47417d4c12d7fa0ff3ee0b937d99e99060600160405180910390a19695505050505050565b505050565b61257d61258e8461081b565b6125978461081b565b83612c6c565b600054610100900460ff166125c45760405162461bcd60e51b81526004016105b190613845565b815160209283012081519190920120606591909155606655565b600054610100900460ff166126055760405162461bcd60e51b81526004016105b190613845565b8151612618906036906020850190613228565b50805161257d906037906020840190613228565b6001600160a01b0382166126825760405162461bcd60e51b815260206004820152601f60248201527f45524332303a206d696e7420746f20746865207a65726f20616464726573730060448201526064016105b1565b8060356000828254612694919061379e565b90915550506001600160a01b0382166000818152603360209081526040808320805486019055518481527fddf252ad1be2c89b69c2b068fc378daa952ba7f163c4a11628f55a4df523b3ef910160405180910390a36106c260008383612582565b6000610554828461379e565b8254600090819081811561274d5761271e876117e9600185613818565b60408051808201909152905463ffffffff81168252600160201b90046001600160e01b03166020820152612762565b60408051808201909152600080825260208201525b905080602001516001600160e01b0316935061278284868863ffffffff16565b925060008211801561279a5750805163ffffffff1643145b156127de576127a883613109565b6127b7886117e9600186613818565b80546001600160e01b0392909216600160201b0263ffffffff909216919091179055612848565b8660405180604001604052806127f343611b00565b63ffffffff16815260200161280786613109565b6001600160e01b039081169091528254600181018455600093845260209384902083519490930151909116600160201b0263ffffffff909316929092179101555b5050935093915050565b60008161286157506000919050565b6000600161286e84613172565b901c6001901b9050600181848161288757612887613890565b048201901c9050600181848161289f5761289f613890565b048201901c905060018184816128b7576128b7613890565b048201901c905060018184816128cf576128cf613890565b048201901c905060018184816128e7576128e7613890565b048201901c905060018184816128ff576128ff613890565b048201901c9050600181848161291757612917613890565b048201901c90506105548182858161293157612931613890565b04613206565b600061294660028484186138d9565b6105549084841661379e565b600080611bde60017ff828a756855b22b2018e6c442f4e4296eacda2c58e90fa4824ff32229d084d62613818565b6000806129ae60017ff828a756855b22b2018e6c442f4e4296eacda2c58e90fa4824ff32229d084d62613818565b8054909150819084106129d75760405163ad7d6e0960e01b8152600481018590526024016105b1565b8060000184815481106129ec576129ec61382f565b906000526020600020906004020192505050919050565b600080612a0f84612980565b604051806101400160405290816000820160009054906101000a90046001600160401b03166001600160401b03166001600160401b031681526020016000820160089054906101000a90046001600160401b03166001600160401b03166001600160401b031681526020016000820160109054906101000a900463ffffffff1663ffffffff1663ffffffff1681526020016000820160149054906101000a900463ffffffff1663ffffffff1663ffffffff1681526020016000820160189054906101000a900463ffffffff1663ffffffff1663ffffffff16815260200160008201601c9054906101000a900463ffffffff1663ffffffff1663ffffffff168152602001600182015481526020016002820160009054906101000a90046001600160a01b03166001600160a01b03166001600160a01b031681526020016003820160009054906101000a90046001600160a01b03166001600160a01b03166001600160a01b031681526020016003820160149054906101000a900460ff1615151515815250509050600060405180610160016040528083600001516001600160401b0316815260200183602001516001600160401b03168152602001836040015163ffffffff168152602001836060015163ffffffff168152602001836080015163ffffffff1681526020018360a0015163ffffffff1681526020018360c0015181526020018360e001516001600160a01b031681526020018361010001516001600160a01b03168152602001836101200151151581526020018581525090506001612c5982612da9565b612c639190613818565b95945050505050565b816001600160a01b0316836001600160a01b031614158015612c8e5750600081115b1561257d576001600160a01b03831615612d1c576001600160a01b038316600090815260cd602052604081208190612cc99061321c85612701565b91509150846001600160a01b03167fdec2bacdd2f05b59de34da9b523dff8be42e5e38e818c82fdb0bae774387a7248383604051612d11929190918252602082015260400190565b60405180910390a250505b6001600160a01b0382161561257d576001600160a01b038216600090815260cd602052604081208190612d52906126f585612701565b91509150836001600160a01b03167fdec2bacdd2f05b59de34da9b523dff8be42e5e38e818c82fdb0bae774387a7248383604051612d9a929190918252602082015260400190565b60405180910390a25050505050565b600080612dc56001600080516020613927833981519152613818565b80546001808201835560008381526020908190208751600590940201805491880151604089015160608a015160808b015160a08c01516001600160401b039889166001600160801b031990971696909617600160401b98909416979097029290921767ffffffffffffffff60801b1916600160801b63ffffffff9283160263ffffffff60a01b191617600160a01b9282168302176001600160c01b0316600160c01b968216969096026001600160e01b031695909517600160e01b959093169490940291909117815560c08701519181019190915560e08601516002820180546001600160a01b0319166001600160a01b039283161790556101008701516003830180546101208a0151929093166001600160a81b031990931692909217901515909302929092179091556101409094015160049094019390935550505490565b6000806fa2a8918ca85bafe22016d0b997e4df60600160ff1b03831115612f335750600090506003612fb7565b6040805160008082526020820180845289905260ff881692820192909252606081018690526080810185905260019060a0016020604051602081039080840390855afa158015612f87573d6000803e3d6000fd5b5050604051601f1901519150506001600160a01b038116612fb057600060019250925050612fb7565b9150600090505b94509492505050565b6000816004811115612fd457612fd4613910565b1415612fdd5750565b6001816004811115612ff157612ff1613910565b141561303a5760405162461bcd60e51b815260206004820152601860248201527745434453413a20696e76616c6964207369676e617475726560401b60448201526064016105b1565b600281600481111561304e5761304e613910565b141561309c5760405162461bcd60e51b815260206004820152601f60248201527f45434453413a20696e76616c6964207369676e6174757265206c656e6774680060448201526064016105b1565b60038160048111156130b0576130b0613910565b14156108e15760405162461bcd60e51b815260206004820152602260248201527f45434453413a20696e76616c6964207369676e6174757265202773272076616c604482015261756560f01b60648201526084016105b1565b60006001600160e01b03821115611b655760405162461bcd60e51b815260206004820152602760248201527f53616665436173743a2076616c756520646f65736e27742066697420696e20326044820152663234206269747360c81b60648201526084016105b1565b600080608083901c1561318757608092831c92015b604083901c1561319957604092831c92015b602083901c156131ab57602092831c92015b601083901c156131bd57601092831c92015b600883901c156131cf57600892831c92015b600483901c156131e157600492831c92015b600283901c156131f357600292831c92015b600183901c1561051e5760010192915050565b60008183106132155781610554565b5090919050565b60006105548284613818565b82805461323490613705565b90600052602060002090601f016020900481019282613256576000855561329c565b82601f1061326f57805160ff191683800117855561329c565b8280016001018555821561329c579182015b8281111561329c578251825591602001919060010190613281565b50611b659291505b80821115611b6557600081556001016132a4565b600060208083528351808285015260005b818110156132e5578581018301518582016040015282016132c9565b818111156132f7576000604083870101525b50601f01601f1916929092016040019392505050565b80356001600160a01b038116811461332457600080fd5b919050565b6000806040838503121561333c57600080fd5b6133458361330d565b946020939093013593505050565b60008060006060848603121561336857600080fd5b6133718461330d565b925061337f6020850161330d565b9150604084013590509250925092565b600080604083850312156133a257600080fd5b823591506133b26020840161330d565b90509250929050565b6000602082840312156133cd57600080fd5b6105548261330d565b6000602082840312156133e857600080fd5b5035919050565b6001600160a01b0391909116815260200190565b80356001600160401b038116811461332457600080fd5b803563ffffffff8116811461332457600080fd5b60008060008060008060008060006101208a8c03121561344d57600080fd5b6134568a613403565b985061346460208b0161341a565b975061347260408b0161341a565b965061348060608b0161341a565b955061348e60808b0161341a565b945060a08a013580151581146134a357600080fd5b935060c08a013592506134b860e08b0161330d565b91506134c76101008b0161330d565b90509295985092959850929598565b81516001600160401b031681526101608101602083015161350260208401826001600160401b03169052565b50604083015161351a604084018263ffffffff169052565b506060830151613532606084018263ffffffff169052565b50608083015161354a608084018263ffffffff169052565b5060a083015161356260a084018263ffffffff169052565b5060c083015160c083015260e083015161358760e08401826001600160a01b03169052565b50610100838101516001600160a01b0316908301526101208084015115159083015261014092830151929091019190915290565b803560ff8116811461332457600080fd5b60008060008060008060c087890312156135e557600080fd5b6135ee8761330d565b9550602087013594506040870135935061360a606088016135bb565b92506080870135915060a087013590509295509295509295565b600080600080600080600060e0888a03121561363f57600080fd5b6136488861330d565b96506136566020890161330d565b95506040880135945060608801359350613672608089016135bb565b925060a0880135915060c0880135905092959891949750929550565b600080604083850312156136a157600080fd5b6136aa8361330d565b91506133b26020840161330d565b600080604083850312156136cb57600080fd5b823591506133b260208401613403565b600080604083850312156136ee57600080fd5b6136f78361330d565b91506133b26020840161341a565b600181811c9082168061371957607f821691505b602082108114156115db57634e487b7160e01b600052602260045260246000fd5b6020808252602e908201527f496e697469616c697a61626c653a20636f6e747261637420697320616c72656160408201526d191e481a5b9a5d1a585b1a5e995960921b606082015260800190565b634e487b7160e01b600052601160045260246000fd5b600082198211156137b1576137b1613788565b500190565b6020808252601f908201527f4552433230566f7465733a20626c6f636b206e6f7420796574206d696e656400604082015260600190565b60006001600160401b0380831681851680830382111561380f5761380f613788565b01949350505050565b60008282101561382a5761382a613788565b500390565b634e487b7160e01b600052603260045260246000fd5b6020808252602b908201527f496e697469616c697a61626c653a20636f6e7472616374206973206e6f74206960408201526a6e697469616c697a696e6760a81b606082015260800190565b634e487b7160e01b600052601260045260246000fd5b6000826138b5576138b5613890565b500690565b60008160001904831182151516156138d4576138d4613788565b500290565b6000826138e8576138e8613890565b500490565b600063ffffffff8084168061390457613904613890565b92169190910692915050565b634e487b7160e01b600052602160045260246000fdfe64404627f9392c993df73912dbfb24528266190d015c31a2a5dcf19d4c62184da2646970667358221220c9fa20cbe1cad9b0b2cd61866d4b5f38acc91b73384603776c10cec403ceefe964736f6c634300080a0033",
            "0x608060405234801561001057600080fd5b50600436106101bb5760003560e01c806370a08231116100fa578063a457c2d71161009d578063a457c2d714610396578063a9059cbb146103a9578063beb8f883146103bc578063c3cda520146103dc578063d505accf146103ef578063dd62ed3e14610402578063decc722414610415578063f0519be014610428578063f1127ed81461043b57600080fd5b806370a08231146103145780637ecebe00146103275780638e539e8c1461033a5780638fb8ad841461034d5780639295ccec1461036057806395d89b41146103685780639ab24eb014610370578063a33773f61461038357600080fd5b80633644e515116101625780633644e5151461027057806339509351146102785780633a46b1a81461028b578063574d91831461029e578063587cde1e146102b157806359facefd146102d15780635c19a95c146102d95780636fcfff45146102ec57600080fd5b806306fdde03146101c0578063095ea7b3146101de57806318160ddd1461020157806323b872dd1461021357806323dd35b41461022657806328766ffd1461023957806329c9093b1461024e578063313ce56714610261575b600080fd5b6101c8610478565b6040516101d591906132b8565b60405180910390f35b6101f16101ec366004613329565b61050a565b60405190151581526020016101d5565b6035545b6040519081526020016101d5565b6101f1610221366004613353565b610524565b6101f161023436600461338f565b610548565b61024c6102473660046133bb565b61055b565b005b61020561025c3660046133d6565b6106c6565b604051601281526020016101d5565b61020561079c565b6101f1610286366004613329565b6107ab565b610205610299366004613329565b6107cd565b6102056102ac3660046133d6565b610810565b6102c46102bf3660046133bb565b61081b565b6040516101d591906133ef565b61024c610839565b61024c6102e73660046133bb565b6108d7565b6102ff6102fa3660046133bb565b6108e4565b60405163ffffffff90911681526020016101d5565b6102056103223660046133bb565b610906565b6102056103353660046133bb565b610921565b6102056103483660046133d6565b61093f565b61020561035b3660046133d6565b61096b565b610205610a67565b6101c8610a71565b61020561037e3660046133bb565b610a80565b61020561039136600461342e565b610b06565b6101f16103a4366004613329565b610b28565b6101f16103b7366004613329565b610ba3565b6103cf6103ca3660046133d6565b610bb1565b6040516101d591906134d6565b61024c6103ea3660046135cc565b610ccb565b61024c6103fd366004613624565b610dfd565b61020561041036600461368e565b610f61565b6102c46104233660046133d6565b610f8c565b6102056104363660046136b8565b610f97565b61044e6104493660046136db565b610fa3565b60408051825163ffffffff1681526020928301516001600160e01b031692810192909252016101d5565b60606036805461048790613705565b80601f01602080910402602001604051908101604052809291908181526020018280546104b390613705565b80156105005780601f106104d557610100808354040283529160200191610500565b820191906000526020600020905b8154815290600101906020018083116104e357829003601f168201915b5050505050905090565b600033610518818585611026565b60019150505b92915050565b60003361053285828561114a565b61053d8585856111c4565b506001949350505050565b60006105548383611375565b9392505050565b600054610100900460ff161580801561057b5750600054600160ff909116105b806105955750303b158015610595575060005460ff166001145b6105ba5760405162461bcd60e51b81526004016105b19061373a565b60405180910390fd5b6000805460ff1916600117905580156105dd576000805461ff0019166101001790555b6105e68261142f565b610618604051806040016040528060118152602001704c697175696420436f6c6c65637469766560781b815250611456565b610666604051806040016040528060118152602001704c697175696420436f6c6c65637469766560781b81525060405180604001604052806003815260200162544c4360e81b8152506114a0565b61067c826b033b2e3c9fd0803ce80000006114d1565b80156106c2576000805461ff0019169055604051600181527f7f26b83ff96e1f2b6a682f133852f6798a09c465da95921460cefb38474024989060200160405180910390a15b5050565b6000806106d28361155b565b604080516101608101825282546001600160401b038082168352600160401b82041660208301819052600160801b820463ffffffff90811694840194909452600160a01b80830485166060850152600160c01b830485166080850152600160e01b90920490931660a0830152600184015460c083015260028401546001600160a01b0390811660e084015260038501549081166101008401520460ff1615156101208201526004909201546101408301529091506105549082906107979042906115cc565b6115e1565b60006107a66116b2565b905090565b6000336105188185856107be8383610f61565b6107c8919061379e565b611026565b60004382106107ee5760405162461bcd60e51b81526004016105b1906137b6565b6001600160a01b038316600090815260cd60205260409020610554908361172d565b600061051e82611823565b6001600160a01b03908116600090815260cc60205260409020541690565b600054600290610100900460ff1615801561085b575060005460ff8083169116105b6108775760405162461bcd60e51b81526004016105b19061373a565b6000805461ffff191660ff831617610100179055610893611a0f565b6000805461ff001916905560405160ff821681527f7f26b83ff96e1f2b6a682f133852f6798a09c465da95921460cefb38474024989060200160405180910390a150565b6108e13382611a80565b50565b6001600160a01b038116600090815260cd602052604081205461051e90611b00565b6001600160a01b031660009081526033602052604090205490565b6001600160a01b03811660009081526099602052604081205461051e565b60004382106109605760405162461bcd60e51b81526004016105b1906137b6565b61051e60ce8361172d565b6000806109778361155b565b604080516101608101825282546001600160401b03808216808452600160401b83049091166020840152600160801b820463ffffffff90811694840194909452600160a01b808304851660608501819052600160c01b840486166080860152600160e01b90930490941660a0840152600185015460c084015260028501546001600160a01b0390811660e085015260038601549081166101008501529390930460ff16151561012083015260049093015461014082015292504291610a3b916137ed565b6001600160401b0316811015610a55575060009392505050565b610a5f8282611b69565b949350505050565b60006107a6611bc2565b60606037805461048790613705565b6001600160a01b038116600090815260cd60205260408120548015610af3576001600160a01b038316600090815260cd60205260409020610ac2600183613818565b81548110610ad257610ad261382f565b600091825260209091200154600160201b90046001600160e01b0316610af6565b60005b6001600160e01b03169392505050565b6000610b1a3384848d8d8d8d8d8d8d611be5565b9a9950505050505050505050565b60003381610b368286610f61565b905083811015610b965760405162461bcd60e51b815260206004820152602560248201527f45524332303a2064656372656173656420616c6c6f77616e63652062656c6f77604482015264207a65726f60d81b60648201526084016105b1565b61053d8286868403611026565b6000336105188185856111c4565b6040805161016081018252600080825260208201819052918101829052606081018290526080810182905260a0810182905260c0810182905260e0810182905261010081018290526101208101829052610140810191909152610c138261155b565b604080516101608101825282546001600160401b038082168352600160401b8204166020830152600160801b810463ffffffff90811693830193909352600160a01b80820484166060840152600160c01b820484166080840152600160e01b90910490921660a0820152600183015460c082015260028301546001600160a01b0390811660e083015260038401549081166101008301529190910460ff16151561012082015260049091015461014082015292915050565b83421115610d1b5760405162461bcd60e51b815260206004820152601d60248201527f4552433230566f7465733a207369676e6174757265206578706972656400000060448201526064016105b1565b604080517fe48329057bfd03d55e49b547132e39cffd9c1820ad7b9d4c5307691425d15adf60208201526001600160a01b038816918101919091526060810186905260808101859052600090610d9590610d8d9060a00160405160208183030381529060405280519060200120612141565b85858561218f565b9050610da0816121b7565b8614610dea5760405162461bcd60e51b81526020600482015260196024820152784552433230566f7465733a20696e76616c6964206e6f6e636560381b60448201526064016105b1565b610df48188611a80565b50505050505050565b83421115610e4d5760405162461bcd60e51b815260206004820152601d60248201527f45524332305065726d69743a206578706972656420646561646c696e6500000060448201526064016105b1565b60007f6e71edae12b1b97f4d1f60370fef10105fa2faae0126114a169c64845d6126c9888888610e7c8c6121b7565b6040805160208101969096526001600160a01b0394851690860152929091166060840152608083015260a082015260c0810186905260e0016040516020818303038152906040528051906020012090506000610ed782612141565b90506000610ee78287878761218f565b9050896001600160a01b0316816001600160a01b031614610f4a5760405162461bcd60e51b815260206004820152601e60248201527f45524332305065726d69743a20696e76616c6964207369676e6174757265000060448201526064016105b1565b610f558a8a8a611026565b50505050505050505050565b6001600160a01b03918216600090815260346020908152604080832093909416825291909152205490565b600061051e826121da565b60006105548383612254565b60408051808201909152600080825260208201526001600160a01b038316600090815260cd60205260409020805463ffffffff8416908110610fe757610fe761382f565b60009182526020918290206040805180820190915291015463ffffffff81168252600160201b90046001600160e01b0316918101919091529392505050565b6001600160a01b0383166110885760405162461bcd60e51b8152602060048201526024808201527f45524332303a20617070726f76652066726f6d20746865207a65726f206164646044820152637265737360e01b60648201526084016105b1565b6001600160a01b0382166110e95760405162461bcd60e51b815260206004820152602260248201527f45524332303a20617070726f766520746f20746865207a65726f206164647265604482015261737360f01b60648201526084016105b1565b6001600160a01b0383811660008181526034602090815260408083209487168084529482529182902085905590518481527f8c5be1e5ebec7d5bd14f71427d1e84f3dd0314c0f7b2291e5b200ac8c7c3b925910160405180910390a3505050565b60006111568484610f61565b905060001981146111be57818110156111b15760405162461bcd60e51b815260206004820152601d60248201527f45524332303a20696e73756666696369656e7420616c6c6f77616e636500000060448201526064016105b1565b6111be8484848403611026565b50505050565b6001600160a01b0383166112285760405162461bcd60e51b815260206004820152602560248201527f45524332303a207472616e736665722066726f6d20746865207a65726f206164604482015264647265737360d81b60648201526084016105b1565b6001600160a01b03821661128a5760405162461bcd60e51b815260206004820152602360248201527f45524332303a207472616e7366657220746f20746865207a65726f206164647260448201526265737360e81b60648201526084016105b1565b6001600160a01b038316600090815260336020526040902054818110156113025760405162461bcd60e51b815260206004820152602660248201527f45524332303a207472616e7366657220616d6f756e7420657863656564732062604482015265616c616e636560d01b60648201526084016105b1565b6001600160a01b0380851660008181526033602052604080822086860390559286168082529083902080548601905591517fddf252ad1be2c89b69c2b068fc378daa952ba7f163c4a11628f55a4df523b3ef906113629086815260200190565b60405180910390a36111be848484612582565b6000806113818461155b565b60038101549091506001600160a01b031633146113b3573360405163472511eb60e11b81526004016105b191906133ef565b60006113be856121da565b905060006113cb8261081b565b90506113d78286611a80565b60038301546040518781526001600160a01b039182169187811691908416907ff59662617e9c4f8707dff52c85bd8f49f665073ba5fffb29c2a55ebf58e7a75e9060200160405180910390a450600195945050505050565b6001600160a01b0381166108e15760405163f6b2911f60e01b815260040160405180910390fd5b600054610100900460ff1661147d5760405162461bcd60e51b81526004016105b190613845565b6108e181604051806040016040528060018152602001603160f81b81525061259d565b600054610100900460ff166114c75760405162461bcd60e51b81526004016105b190613845565b6106c282826125de565b6114db828261262c565b6035546001600160e01b03101561154d5760405162461bcd60e51b815260206004820152603060248201527f4552433230566f7465733a20746f74616c20737570706c79207269736b73206f60448201526f766572666c6f77696e6720766f74657360801b60648201526084016105b1565b6111be60ce6126f583612701565b6000806115776001600080516020613927833981519152613818565b8054909150819084106115a05760405163ad7d6e0960e01b8152600481018590526024016105b1565b8060000184815481106115b5576115b561382f565b906000526020600020906005020192505050919050565b60008183116115db5782610554565b50919050565b6000826040015163ffffffff1683600001516115fd91906137ed565b6001600160401b03168210156116155750600061051e565b6080830151835161162c9163ffffffff16906137ed565b6001600160401b03168210611646575060c082015161051e565b825160009061165e906001600160401b031684613818565b905060008460a0015163ffffffff168261167891906138a6565b6116829083613818565b9050846080015163ffffffff168560c001518261169f91906138ba565b6116a991906138d9565b9250505061051e565b60006107a67f8b73c3c69bb8fe3d512ecc4cf759cc79239f7b179b0ffacaa9a75d522b39400f6116e160655490565b6066546040805160208101859052908101839052606081018290524660808201523060a082015260009060c0016040516020818303038152906040528051906020012090509392505050565b81546000908181600581111561178757600061174884612852565b6117529085613818565b600088815260209020909150869082015463ffffffff16111561177757809150611785565b61178281600161379e565b92505b505b808210156117d457600061179b8383612937565b600088815260209020909150869082015463ffffffff1611156117c0578091506117ce565b6117cb81600161379e565b92505b50611787565b801561180d576117f7866117e9600184613818565b600091825260209091200190565b54600160201b90046001600160e01b0316611810565b60005b6001600160e01b03169695505050505050565b60008061182f8361155b565b60038101549091506001600160a01b03163314611861573360405163472511eb60e11b81526004016105b191906133ef565b8054429061188590600160a01b810463ffffffff16906001600160401b03166137ed565b6001600160401b03168110156118ae5760405163fad681e760e01b815260040160405180910390fd5b604080516101608101825283546001600160401b038082168352600160401b8204166020830152600160801b810463ffffffff90811693830193909352600160a01b80820484166060840152600160c01b820484166080840152600160e01b90910490921660a0820152600184015460c082015260028401546001600160a01b0390811660e083015260038501549081166101008301529190910460ff161515610120820152600483015461014082015260009061196c9083611b69565b90508061198c57604051630fe6b58b60e41b815260040160405180910390fd5b6000611997866121da565b60038501549091506119b49082906001600160a01b0316846111c4565b818460040160008282546119c8919061379e565b909155505060408051878152602081018490527f8e54a80e4adf22e5669cda627d76c97a21b0a2a54fab3b48b1b38b97b29580f0910160405180910390a150949350505050565b611a17611bc2565b611a7e576000611a25612952565b905060005b818110156106c2576000611a3d82612980565b6001015490506000611a5a611a54610322856121da565b836115cc565b611a649083613818565b9050611a708382612a03565b508260010192505050611a2a565b565b6000611a8b8361081b565b90506000611a9884610906565b6001600160a01b03858116600081815260cc602052604080822080546001600160a01b031916898616908117909155905194955093928616927f3134e8a2e6d97e929a7e54011ea5485d7d196dd5f0ba4d4ef95803e8e3fc257f9190a46111be828483612c6c565b600063ffffffff821115611b655760405162461bcd60e51b815260206004820152602660248201527f53616665436173743a2076616c756520646f65736e27742066697420696e203360448201526532206269747360d01b60648201526084016105b1565b5090565b6101408201516020830151600091906001600160401b0316831115611b995783602001516001600160401b031692505b6000611ba585856115e1565b905081811115611bb75703905061051e565b506000949350505050565b600080611bde6001600080516020613927833981519152613818565b5492915050565b600081611bf18c610906565b1015611c1057604051633464861d60e21b815260040160405180910390fd5b6001600160a01b038a16611c8557604051630d63fe3160e31b815260206004820152603560248201527f56657374696e67207363686564756c652062656e6566696369617279206d757360448201527474206265206e6f6e207a65726f206164647265737360581b60648201526084016105b1565b63ffffffff8616611ce757604051630d63fe3160e31b815260206004820152602560248201527f56657374696e67207363686564756c65206475726174696f6e206d7573742062604482015264065203e20360dc1b60648201526084016105b1565b81611d4157604051630d63fe3160e31b815260206004820152602360248201527f56657374696e67207363686564756c6520616d6f756e74206d7573742062652060448201526203e20360ec1b60648201526084016105b1565b63ffffffff8516611da157604051630d63fe3160e31b815260206004820152602360248201527f56657374696e67207363686564756c6520706572696f64206d7573742062652060448201526203e20360ec1b60648201526084016105b1565b6000611dad86886138ed565b63ffffffff161115611e2057604051630d63fe3160e31b815260206004820152603560248201527f56657374696e67207363686564756c65206475726174696f6e206d7573742073604482015274706c697420696e20657861637420706572696f647360581b60648201526084016105b1565b6000611e2c86896138ed565b63ffffffff161115611ea757604051630d63fe3160e31b815260206004820152603b60248201527f56657374696e67207363686564756c6520636c696666206475726174696f6e2060448201527f6d7573742073706c697420696e20657861637420706572696f6473000000000060648201526084016105b1565b8563ffffffff168763ffffffff161115611f4057604051630d63fe3160e31b815260206004820152604d60248201527f56657374696e67207363686564756c65206475726174696f6e206d757374206260448201527f652067726561746572207468616e206f7220657175616c20746f20746865206360648201526c3634b33310323ab930ba34b7b760991b608482015260a4016105b1565b8563ffffffff168563ffffffff1683611f5991906138ba565b611f6391906138d9565b611fd057604051630d63fe3160e31b815260206004820152603760248201527f56657374696e67207363686564756c6520616d6f756e7420746f6f206c6f7720604482015276199bdc88191d5c985d1a5bdb88185b99081c195c9a5bd9604a1b60648201526084016105b1565b6001600160401b038816611fe2574297505b60006040518061016001604052808a6001600160401b031681526020018863ffffffff168b61201191906137ed565b6001600160401b031681526020018963ffffffff1681526020018663ffffffff1681526020018863ffffffff1681526020018763ffffffff1681526020018481526020018d6001600160a01b031681526020018c6001600160a01b031681526020018515158152602001600081525090506000600161208f83612da9565b6120999190613818565b905060006120a6826121da565b90506120b38e82876111c4565b6001600160a01b038c166120d0576120cb818e611a80565b6120da565b6120da818d611a80565b8c6001600160a01b03168e6001600160a01b03167fb0274f4a20cdf2005bb6a28aab72868f144d56c0828753a0f6edc7a62ef131b18488604051612128929190918252602082015260400190565b60405180910390a3509c9b505050505050505050505050565b600061051e61214e6116b2565b8360405161190160f01b6020820152602281018390526042810182905260009060620160405160208183030381529060405280519060200120905092915050565b60008060006121a087878787612f06565b915091506121ad81612fc0565b5095945050505050565b6001600160a01b0316600090815260996020526040902080546001810190915590565b6000803061220960017f5c24c10d65ac9aa9e0f7f63d96fe83c89107fae52b4ef778334c906c1ec5c1ed613818565b60405160609290921b6bffffffffffffffffffffffff1916602083015260348201526054810184905260740160408051601f1981840301815291905280516020909101209392505050565b60006001600160401b03821661226c57429150612296565b42826001600160401b03161015612296576040516317518afb60e11b815260040160405180910390fd5b60006122a18461155b565b6003810154909150600160a01b900460ff166122d0576040516341a76da360e01b815260040160405180910390fd5b80546001600160401b0390811690841610806122ff575080546001600160401b03808516600160401b90920416105b1561231d57604051635178474560e11b815260040160405180910390fd5b60028101546001600160a01b0316331461234c573360405163472511eb60e11b81526004016105b191906133ef565b604080516101608101825282546001600160401b038082168352600160401b82041660208301819052600160801b820463ffffffff90811694840194909452600160a01b80830485166060850152600160c01b830485166080850152600160e01b90920490931660a0830152600184015460c083015260028401546001600160a01b0390811660e084015260038501549081166101008401520460ff161515610120820152600483015461014082015260009161240991906115e1565b604080516101608101825284546001600160401b038082168352600160401b820481166020840152600160801b820463ffffffff90811694840194909452600160a01b80830485166060850152600160c01b830485166080850152600160e01b90920490931660a0830152600186015460c083015260028601546001600160a01b0390811660e084015260038701549081166101008401520460ff16151561012082015260048501546101408201529192506000916124c99187166115e1565b905060006124d78284613818565b905080156125095760006124ea886121da565b60028601549091506125079082906001600160a01b0316846111c4565b505b835467ffffffffffffffff60401b1916600160401b6001600160401b0388169081029190911785556040805189815260208101849052908101919091527f2c802be755370b3a250faf14516cb3480b47417d4c12d7fa0ff3ee0b937d99e99060600160405180910390a19695505050505050565b505050565b61257d61258e8461081b565b6125978461081b565b83612c6c565b600054610100900460ff166125c45760405162461bcd60e51b81526004016105b190613845565b815160209283012081519190920120606591909155606655565b600054610100900460ff166126055760405162461bcd60e51b81526004016105b190613845565b8151612618906036906020850190613228565b50805161257d906037906020840190613228565b6001600160a01b0382166126825760405162461bcd60e51b815260206004820152601f60248201527f45524332303a206d696e7420746f20746865207a65726f20616464726573730060448201526064016105b1565b8060356000828254612694919061379e565b90915550506001600160a01b0382166000818152603360209081526040808320805486019055518481527fddf252ad1be2c89b69c2b068fc378daa952ba7f163c4a11628f55a4df523b3ef910160405180910390a36106c260008383612582565b6000610554828461379e565b8254600090819081811561274d5761271e876117e9600185613818565b60408051808201909152905463ffffffff81168252600160201b90046001600160e01b03166020820152612762565b60408051808201909152600080825260208201525b905080602001516001600160e01b0316935061278284868863ffffffff16565b925060008211801561279a5750805163ffffffff1643145b156127de576127a883613109565b6127b7886117e9600186613818565b80546001600160e01b0392909216600160201b0263ffffffff909216919091179055612848565b8660405180604001604052806127f343611b00565b63ffffffff16815260200161280786613109565b6001600160e01b039081169091528254600181018455600093845260209384902083519490930151909116600160201b0263ffffffff909316929092179101555b5050935093915050565b60008161286157506000919050565b6000600161286e84613172565b901c6001901b9050600181848161288757612887613890565b048201901c9050600181848161289f5761289f613890565b048201901c905060018184816128b7576128b7613890565b048201901c905060018184816128cf576128cf613890565b048201901c905060018184816128e7576128e7613890565b048201901c905060018184816128ff576128ff613890565b048201901c9050600181848161291757612917613890565b048201901c90506105548182858161293157612931613890565b04613206565b600061294660028484186138d9565b6105549084841661379e565b600080611bde60017ff828a756855b22b2018e6c442f4e4296eacda2c58e90fa4824ff32229d084d62613818565b6000806129ae60017ff828a756855b22b2018e6c442f4e4296eacda2c58e90fa4824ff32229d084d62613818565b8054909150819084106129d75760405163ad7d6e0960e01b8152600481018590526024016105b1565b8060000184815481106129ec576129ec61382f565b906000526020600020906004020192505050919050565b600080612a0f84612980565b604051806101400160405290816000820160009054906101000a90046001600160401b03166001600160401b03166001600160401b031681526020016000820160089054906101000a90046001600160401b03166001600160401b03166001600160401b031681526020016000820160109054906101000a900463ffffffff1663ffffffff1663ffffffff1681526020016000820160149054906101000a900463ffffffff1663ffffffff1663ffffffff1681526020016000820160189054906101000a900463ffffffff1663ffffffff1663ffffffff16815260200160008201601c9054906101000a900463ffffffff1663ffffffff1663ffffffff168152602001600182015481526020016002820160009054906101000a90046001600160a01b03166001600160a01b03166001600160a01b031681526020016003820160009054906101000a90046001600160a01b03166001600160a01b03166001600160a01b031681526020016003820160149054906101000a900460ff1615151515815250509050600060405180610160016040528083600001516001600160401b0316815260200183602001516001600160401b03168152602001836040015163ffffffff168152602001836060015163ffffffff168152602001836080015163ffffffff1681526020018360a0015163ffffffff1681526020018360c0015181526020018360e001516001600160a01b031681526020018361010001516001600160a01b03168152602001836101200151151581526020018581525090506001612c5982612da9565b612c639190613818565b95945050505050565b816001600160a01b0316836001600160a01b031614158015612c8e5750600081115b1561257d576001600160a01b03831615612d1c576001600160a01b038316600090815260cd602052604081208190612cc99061321c85612701565b91509150846001600160a01b03167fdec2bacdd2f05b59de34da9b523dff8be42e5e38e818c82fdb0bae774387a7248383604051612d11929190918252602082015260400190565b60405180910390a250505b6001600160a01b0382161561257d576001600160a01b038216600090815260cd602052604081208190612d52906126f585612701565b91509150836001600160a01b03167fdec2bacdd2f05b59de34da9b523dff8be42e5e38e818c82fdb0bae774387a7248383604051612d9a929190918252602082015260400190565b60405180910390a25050505050565b600080612dc56001600080516020613927833981519152613818565b80546001808201835560008381526020908190208751600590940201805491880151604089015160608a015160808b015160a08c01516001600160401b039889166001600160801b031990971696909617600160401b98909416979097029290921767ffffffffffffffff60801b1916600160801b63ffffffff9283160263ffffffff60a01b191617600160a01b9282168302176001600160c01b0316600160c01b968216969096026001600160e01b031695909517600160e01b959093169490940291909117815560c08701519181019190915560e08601516002820180546001600160a01b0319166001600160a01b039283161790556101008701516003830180546101208a0151929093166001600160a81b031990931692909217901515909302929092179091556101409094015160049094019390935550505490565b6000806fa2a8918ca85bafe22016d0b997e4df60600160ff1b03831115612f335750600090506003612fb7565b6040805160008082526020820180845289905260ff881692820192909252606081018690526080810185905260019060a0016020604051602081039080840390855afa158015612f87573d6000803e3d6000fd5b5050604051601f1901519150506001600160a01b038116612fb057600060019250925050612fb7565b9150600090505b94509492505050565b6000816004811115612fd457612fd4613910565b1415612fdd5750565b6001816004811115612ff157612ff1613910565b141561303a5760405162461bcd60e51b815260206004820152601860248201527745434453413a20696e76616c6964207369676e617475726560401b60448201526064016105b1565b600281600481111561304e5761304e613910565b141561309c5760405162461bcd60e51b815260206004820152601f60248201527f45434453413a20696e76616c6964207369676e6174757265206c656e6774680060448201526064016105b1565b60038160048111156130b0576130b0613910565b14156108e15760405162461bcd60e51b815260206004820152602260248201527f45434453413a20696e76616c6964207369676e6174757265202773272076616c604482015261756560f01b60648201526084016105b1565b60006001600160e01b03821115611b655760405162461bcd60e51b815260206004820152602760248201527f53616665436173743a2076616c756520646f65736e27742066697420696e20326044820152663234206269747360c81b60648201526084016105b1565b600080608083901c1561318757608092831c92015b604083901c1561319957604092831c92015b602083901c156131ab57602092831c92015b601083901c156131bd57601092831c92015b600883901c156131cf57600892831c92015b600483901c156131e157600492831c92015b600283901c156131f357600292831c92015b600183901c1561051e5760010192915050565b60008183106132155781610554565b5090919050565b60006105548284613818565b82805461323490613705565b90600052602060002090601f016020900481019282613256576000855561329c565b82601f1061326f57805160ff191683800117855561329c565b8280016001018555821561329c579182015b8281111561329c578251825591602001919060010190613281565b50611b659291505b80821115611b6557600081556001016132a4565b600060208083528351808285015260005b818110156132e5578581018301518582016040015282016132c9565b818111156132f7576000604083870101525b50601f01601f1916929092016040019392505050565b80356001600160a01b038116811461332457600080fd5b919050565b6000806040838503121561333c57600080fd5b6133458361330d565b946020939093013593505050565b60008060006060848603121561336857600080fd5b6133718461330d565b925061337f6020850161330d565b9150604084013590509250925092565b600080604083850312156133a257600080fd5b823591506133b26020840161330d565b90509250929050565b6000602082840312156133cd57600080fd5b6105548261330d565b6000602082840312156133e857600080fd5b5035919050565b6001600160a01b0391909116815260200190565b80356001600160401b038116811461332457600080fd5b803563ffffffff8116811461332457600080fd5b60008060008060008060008060006101208a8c03121561344d57600080fd5b6134568a613403565b985061346460208b0161341a565b975061347260408b0161341a565b965061348060608b0161341a565b955061348e60808b0161341a565b945060a08a013580151581146134a357600080fd5b935060c08a013592506134b860e08b0161330d565b91506134c76101008b0161330d565b90509295985092959850929598565b81516001600160401b031681526101608101602083015161350260208401826001600160401b03169052565b50604083015161351a604084018263ffffffff169052565b506060830151613532606084018263ffffffff169052565b50608083015161354a608084018263ffffffff169052565b5060a083015161356260a084018263ffffffff169052565b5060c083015160c083015260e083015161358760e08401826001600160a01b03169052565b50610100838101516001600160a01b0316908301526101208084015115159083015261014092830151929091019190915290565b803560ff8116811461332457600080fd5b60008060008060008060c087890312156135e557600080fd5b6135ee8761330d565b9550602087013594506040870135935061360a606088016135bb565b92506080870135915060a087013590509295509295509295565b600080600080600080600060e0888a03121561363f57600080fd5b6136488861330d565b96506136566020890161330d565b95506040880135945060608801359350613672608089016135bb565b925060a0880135915060c0880135905092959891949750929550565b600080604083850312156136a157600080fd5b6136aa8361330d565b91506133b26020840161330d565b600080604083850312156136cb57600080fd5b823591506133b260208401613403565b600080604083850312156136ee57600080fd5b6136f78361330d565b91506133b26020840161341a565b600181811c9082168061371957607f821691505b602082108114156115db57634e487b7160e01b600052602260045260246000fd5b6020808252602e908201527f496e697469616c697a61626c653a20636f6e747261637420697320616c72656160408201526d191e481a5b9a5d1a585b1a5e995960921b606082015260800190565b634e487b7160e01b600052601160045260246000fd5b600082198211156137b1576137b1613788565b500190565b6020808252601f908201527f4552433230566f7465733a20626c6f636b206e6f7420796574206d696e656400604082015260600190565b60006001600160401b0380831681851680830382111561380f5761380f613788565b01949350505050565b60008282101561382a5761382a613788565b500390565b634e487b7160e01b600052603260045260246000fd5b6020808252602b908201527f496e697469616c697a61626c653a20636f6e7472616374206973206e6f74206960408201526a6e697469616c697a696e6760a81b606082015260800190565b634e487b7160e01b600052601260045260246000fd5b6000826138b5576138b5613890565b500690565b60008160001904831182151516156138d4576138d4613788565b500290565b6000826138e8576138e8613890565b500490565b600063ffffffff8084168061390457613904613890565b92169190910692915050565b634e487b7160e01b600052602160045260246000fdfe64404627f9392c993df73912dbfb24528266190d015c31a2a5dcf19d4c62184da2646970667358221220c9fa20cbe1cad9b0b2cd61866d4b5f38acc91b73384603776c10cec403ceefe964736f6c634300080a0033",
            "0x608060405234801561001057600080fd5b50600436106101965760003560e01c806306fdde031461019b578063095ea7b3146101b957806318160ddd146101dc57806323b872dd146101ee57806323dd35b41461020157806328766ffd1461021457806329c9093b14610229578063313ce5671461023c5780633644e5151461024b57806339509351146102535780633a46b1a814610266578063574d918314610279578063587cde1e1461028c57806359facefd146102ac5780635c19a95c146102b45780636fcfff45146102c757806370a08231146102ef5780637ecebe00146103025780638c0aeff4146103155780638e539e8c146103285780638fb8ad841461033b5780639295ccec1461034e57806395d89b41146103565780639ab24eb01461035e578063a457c2d714610371578063a9059cbb14610384578063beb8f88314610397578063c3cda520146103b7578063d10a1faf146103ca578063d505accf146103dd578063dd62ed3e146103f0578063decc722414610403578063f0519be014610416578063f1127ed814610429575b600080fd5b6101a3610466565b6040516101b091906132fe565b60405180910390f35b6101cc6101c736600461336f565b6104f8565b60405190151581526020016101b0565b6035545b6040519081526020016101b0565b6101cc6101fc366004613399565b610512565b6101cc61020f3660046133d5565b610538565b610227610222366004613401565b610544565b005b6101e061023736600461341c565b61069c565b604051601281526020016101b0565b6101e0610772565b6101cc61026136600461336f565b610781565b6101e061027436600461336f565b6107a3565b6101e061028736600461341c565b6107e6565b61029f61029a366004613401565b6107f1565b6040516101b09190613442565b61022761080f565b6102276102c2366004613401565b61089b565b6102da6102d5366004613401565b6108a8565b60405163ffffffff90911681526020016101b0565b6101e06102fd366004613401565b6108ca565b6101e0610310366004613401565b6108e5565b6101cc61032336600461341c565b610903565b6101e061033636600461341c565b61090e565b6101e061034936600461341c565b61093a565b6101e0610a06565b6101a3610a10565b6101e061036c366004613401565b610a1f565b6101cc61037f36600461336f565b610aa5565b6101cc61039236600461336f565b610b2b565b6103aa6103a536600461341c565b610b39565b6040516101b09190613456565b6102276103c5366004613545565b610c53565b6101e06103d83660046135d8565b610d85565b6102276103eb36600461368b565b610da9565b6101e06103fe3660046136f5565b610f0d565b61029f61041136600461341c565b610f38565b6101e061042436600461371f565b610f43565b61043c610437366004613742565b610f4f565b60408051825163ffffffff1681526020928301516001600160e01b031692810192909252016101b0565b6060603680546104759061376c565b80601f01602080910402602001604051908101604052809291908181526020018280546104a19061376c565b80156104ee5780601f106104c3576101008083540402835291602001916104ee565b820191906000526020600020905b8154815290600101906020018083116104d157829003601f168201915b5050505050905090565b600033610506818585610fd2565b60019150505b92915050565b6000336105208582856110f6565b61052b858585611170565b60019150505b9392505050565b6000610531838361130f565b600054610100900460ff16158080156105645750600054600160ff909116105b8061057e5750303b15801561057e575060005460ff166001145b6105a35760405162461bcd60e51b815260040161059a906137a1565b60405180910390fd5b6000805460ff1916600117905580156105c6576000805461ff0019166101001790555b6105cf826113d4565b610601604051806040016040528060118152602001704c697175696420436f6c6c65637469766560781b8152506113fb565b61064f604051806040016040528060118152602001704c697175696420436f6c6c65637469766560781b81525060405180604001604052806003815260200162544c4360e81b815250611445565b61066482676765c793fa10079d601b1b611476565b8015610698576000805461ff001916905560405160018152600080516020613a0e8339815191529060200160405180910390a15b5050565b6000806106a883611500565b604080516101608101825282546001600160401b038082168352600160401b82041660208301819052600160801b820463ffffffff90811694840194909452600160a01b80830485166060850152600160c01b830485166080850152600160e01b90920490931660a0830152600184015460c083015260028401546001600160a01b0390811660e084015260038501549081166101008401520460ff16151561012082015260049092015461014083015290915061053190829061076d904290611571565b611586565b600061077c611657565b905090565b6000336105068185856107948383610f0d565b61079e9190613805565b610fd2565b60004382106107c45760405162461bcd60e51b815260040161059a9061381d565b6001600160a01b038316600090815260cd6020526040902061053190836116d2565b600061050c826117c8565b6001600160a01b03908116600090815260cc60205260409020541690565b600054600290610100900460ff16158015610831575060005460ff8083169116105b61084d5760405162461bcd60e51b815260040161059a906137a1565b6000805461ffff191660ff831617610100179055610869611958565b6000805461ff001916905560405160ff82168152600080516020613a0e8339815191529060200160405180910390a150565b6108a533826119c9565b50565b6001600160a01b038116600090815260cd602052604081205461050c90611a49565b6001600160a01b031660009081526033602052604090205490565b6001600160a01b03811660009081526099602052604081205461050c565b600061050c82611ab2565b600043821061092f5760405162461bcd60e51b815260040161059a9061381d565b61050c60ce836116d2565b60008061094683611500565b604080516101608101825282546001600160401b038082168352600160401b8204166020830152600160801b810463ffffffff90811693830193909352600160a01b80820484166060840152600160c01b820484166080840152600160e01b90910490921660a0820152600183015460c082015260028301546001600160a01b0390811660e083015260038401549081166101008301529190910460ff161515610120820152600490910154610140820152905061053181600085611ae3565b600061077c611c22565b6060603780546104759061376c565b6001600160a01b038116600090815260cd60205260408120548015610a92576001600160a01b038316600090815260cd60205260409020610a61600183613854565b81548110610a7157610a7161386b565b600091825260209091200154600160201b90046001600160e01b0316610a95565b60005b6001600160e01b03169392505050565b60003381610ab38286610f0d565b905083811015610b135760405162461bcd60e51b815260206004820152602560248201527f45524332303a2064656372656173656420616c6c6f77616e63652062656c6f77604482015264207a65726f60d81b606482015260840161059a565b610b208286868403610fd2565b506001949350505050565b600033610506818585611170565b6040805161016081018252600080825260208201819052918101829052606081018290526080810182905260a0810182905260c0810182905260e0810182905261010081018290526101208101829052610140810191909152610b9b82611500565b604080516101608101825282546001600160401b038082168352600160401b8204166020830152600160801b810463ffffffff90811693830193909352600160a01b80820484166060840152600160c01b820484166080840152600160e01b90910490921660a0820152600183015460c082015260028301546001600160a01b0390811660e083015260038401549081166101008301529190910460ff16151561012082015260049091015461014082015292915050565b83421115610ca35760405162461bcd60e51b815260206004820152601d60248201527f4552433230566f7465733a207369676e61747572652065787069726564000000604482015260640161059a565b604080517fe48329057bfd03d55e49b547132e39cffd9c1820ad7b9d4c5307691425d15adf60208201526001600160a01b038816918101919091526060810186905260808101859052600090610d1d90610d159060a00160405160208183030381529060405280519060200120611c45565b858585611c93565b9050610d2881611cbb565b8614610d725760405162461bcd60e51b81526020600482015260196024820152784552433230566f7465733a20696e76616c6964206e6f6e636560381b604482015260640161059a565b610d7c81886119c9565b50505050505050565b6000610d9a3385858e8e8e8e8e8e8e8c611cde565b9b9a5050505050505050505050565b83421115610df95760405162461bcd60e51b815260206004820152601d60248201527f45524332305065726d69743a206578706972656420646561646c696e65000000604482015260640161059a565b60007f6e71edae12b1b97f4d1f60370fef10105fa2faae0126114a169c64845d6126c9888888610e288c611cbb565b6040805160208101969096526001600160a01b0394851690860152929091166060840152608083015260a082015260c0810186905260e0016040516020818303038152906040528051906020012090506000610e8382611c45565b90506000610e9382878787611c93565b9050896001600160a01b0316816001600160a01b031614610ef65760405162461bcd60e51b815260206004820152601e60248201527f45524332305065726d69743a20696e76616c6964207369676e61747572650000604482015260640161059a565b610f018a8a8a610fd2565b50505050505050505050565b6001600160a01b03918216600090815260346020908152604080832093909416825291909152205490565b600061050c8261221f565b60006105318383612294565b60408051808201909152600080825260208201526001600160a01b038316600090815260cd60205260409020805463ffffffff8416908110610f9357610f9361386b565b60009182526020918290206040805180820190915291015463ffffffff81168252600160201b90046001600160e01b0316918101919091529392505050565b6001600160a01b0383166110345760405162461bcd60e51b8152602060048201526024808201527f45524332303a20617070726f76652066726f6d20746865207a65726f206164646044820152637265737360e01b606482015260840161059a565b6001600160a01b0382166110955760405162461bcd60e51b815260206004820152602260248201527f45524332303a20617070726f766520746f20746865207a65726f206164647265604482015261737360f01b606482015260840161059a565b6001600160a01b0383811660008181526034602090815260408083209487168084529482529182902085905590518481527f8c5be1e5ebec7d5bd14f71427d1e84f3dd0314c0f7b2291e5b200ac8c7c3b925910160405180910390a3505050565b60006111028484610f0d565b9050600019811461116a578181101561115d5760405162461bcd60e51b815260206004820152601d60248201527f45524332303a20696e73756666696369656e7420616c6c6f77616e6365000000604482015260640161059a565b61116a8484848403610fd2565b50505050565b6001600160a01b0383166111d45760405162461bcd60e51b815260206004820152602560248201527f45524332303a207472616e736665722066726f6d20746865207a65726f206164604482015264647265737360d81b606482015260840161059a565b6001600160a01b0382166112365760405162461bcd60e51b815260206004820152602360248201527f45524332303a207472616e7366657220746f20746865207a65726f206164647260448201526265737360e81b606482015260840161059a565b6001600160a01b038316600090815260336020526040902054818110156112ae5760405162461bcd60e51b815260206004820152602660248201527f45524332303a207472616e7366657220616d6f756e7420657863656564732062604482015265616c616e636560d01b606482015260840161059a565b6001600160a01b038085166000818152603360205260408082208686039055928616808252908390208054860190559151600080516020613a2e833981519152906112fc9086815260200190565b60405180910390a361116a8484846125b1565b60008061131b84611500565b60038101549091506001600160a01b0316331461134d573360405163472511eb60e11b815260040161059a9190613442565b60006113588561221f565b90506000611365826107f1565b905061137182866119c9565b336001600160a01b0316856001600160a01b0316826001600160a01b03167ff59662617e9c4f8707dff52c85bd8f49f665073ba5fffb29c2a55ebf58e7a75e896040516113c091815260200190565b60405180910390a450600195945050505050565b6001600160a01b0381166108a55760405163f6b2911f60e01b815260040160405180910390fd5b600054610100900460ff166114225760405162461bcd60e51b815260040161059a90613881565b6108a581604051806040016040528060018152602001603160f81b8152506125cc565b600054610100900460ff1661146c5760405162461bcd60e51b815260040161059a90613881565b610698828261260d565b611480828261265b565b6035546001600160e01b0310156114f25760405162461bcd60e51b815260206004820152603060248201527f4552433230566f7465733a20746f74616c20737570706c79207269736b73206f60448201526f766572666c6f77696e6720766f74657360801b606482015260840161059a565b61116a60ce6127128361271e565b60008061151c60016000805160206139ae833981519152613854565b8054909150819084106115455760405163ad7d6e0960e01b81526004810185905260240161059a565b80600001848154811061155a5761155a61386b565b906000526020600020906005020192505050919050565b60008183116115805782610531565b50919050565b6000826040015163ffffffff1683600001516115a291906138cc565b6001600160401b03168210156115ba5750600061050c565b608083015183516115d19163ffffffff16906138cc565b6001600160401b031682106115eb575060c082015161050c565b8251600090611603906001600160401b031684613854565b905060008460a0015163ffffffff168261161d919061390d565b6116279083613854565b9050846080015163ffffffff168560c00151826116449190613921565b61164e9190613940565b9250505061050c565b600061077c7f8b73c3c69bb8fe3d512ecc4cf759cc79239f7b179b0ffacaa9a75d522b39400f61168660655490565b6066546040805160208101859052908101839052606081018290524660808201523060a082015260009060c0016040516020818303038152906040528051906020012090509392505050565b81546000908181600581111561172c5760006116ed8461286f565b6116f79085613854565b600088815260209020909150869082015463ffffffff16111561171c5780915061172a565b611727816001613805565b92505b505b808210156117795760006117408383612954565b600088815260209020909150869082015463ffffffff16111561176557809150611773565b611770816001613805565b92505b5061172c565b80156117b25761179c8661178e600184613854565b600091825260209091200190565b54600160201b90046001600160e01b03166117b5565b60005b6001600160e01b03169695505050505050565b6000806117d483611500565b60038101549091506001600160a01b03163314611806573360405163472511eb60e11b815260040161059a9190613442565b604080516101608101825282546001600160401b038082168352600160401b8204166020830152600160801b810463ffffffff90811693830193909352600160a01b80820484166060840152600160c01b820484166080840152600160e01b90910490921660a082015260018084015460c083015260028401546001600160a01b0390811660e084015260038501549081166101008401529290920460ff16151561012082015260048301546101408201526000916118c6919086611ae3565b9050806118e657604051630fe6b58b60e41b815260040160405180910390fd5b60006118f18561221f565b90506118fe813384611170565b818360040160008282546119129190613805565b909155505060408051868152602081018490527f8e54a80e4adf22e5669cda627d76c97a21b0a2a54fab3b48b1b38b97b29580f0910160405180910390a1509392505050565b611960611c22565b6119c757600061196e61296f565b905060005b818110156106985760006119868261298b565b60010154905060006119a361199d6102fd8561221f565b83611571565b6119ad9083613854565b90506119b983826129fc565b508260010192505050611973565b565b60006119d4836107f1565b905060006119e1846108ca565b6001600160a01b03858116600081815260cc602052604080822080546001600160a01b031916898616908117909155905194955093928616927f3134e8a2e6d97e929a7e54011ea5485d7d196dd5f0ba4d4ef95803e8e3fc257f9190a461116a828483612c65565b600063ffffffff821115611aae5760405162461bcd60e51b815260206004820152602660248201527f53616665436173743a2076616c756520646f65736e27742066697420696e203360448201526532206269747360d01b606482015260840161059a565b5090565b600080611ace60016000805160206139ce833981519152613854565b60009384526020525050604090205460ff1690565b606083015183516000914291611aff9163ffffffff16906138cc565b6001600160401b0316811015611b38578315611b2e5760405163fad681e760e01b815260040160405180910390fd5b6000915050610531565b600085610140015190506000611b758788602001516001600160401b03168511611b625784611586565b88602001516001600160401b0316611586565b905081811115611c1557611b8885611ab2565b611c0b576000611bc88860c00151896060015163ffffffff168a60000151611bb091906138cc565b611bc3906001600160401b031687613854565b612d7e565b905080831115611beb576040516317eb986760e21b815260040160405180910390fd5b82611bf68383611571565b611c009190613854565b945050505050610531565b0391506105319050565b5060009695505050505050565b600080611c3e60016000805160206139ae833981519152613854565b5492915050565b600061050c611c52611657565b8360405161190160f01b6020820152602281018390526042810182905260009060620160405160208183030381529060405280519060200120905092915050565b6000806000611ca487878787612db6565b91509150611cb181612e70565b5095945050505050565b6001600160a01b0316600090815260996020526040902080546001810190915590565b600082611cea8d6108ca565b1015611d0957604051633464861d60e21b815260040160405180910390fd5b6001600160a01b038b16611d7e57604051630d63fe3160e31b815260206004820152603560248201527f56657374696e67207363686564756c652062656e6566696369617279206d757360448201527474206265206e6f6e207a65726f206164647265737360581b606482015260840161059a565b63ffffffff8716611dce57604051630d63fe3160e31b815260206004820152602560248201526000805160206139ee833981519152604482015264065203e20360dc1b606482015260840161059a565b82611e2857604051630d63fe3160e31b815260206004820152602360248201527f56657374696e67207363686564756c6520616d6f756e74206d7573742062652060448201526203e20360ec1b606482015260840161059a565b63ffffffff8616611e8857604051630d63fe3160e31b815260206004820152602360248201527f56657374696e67207363686564756c6520706572696f64206d7573742062652060448201526203e20360ec1b606482015260840161059a565b6000611e948789613954565b63ffffffff161115611f0757604051630d63fe3160e31b815260206004820152603560248201527f56657374696e67207363686564756c65206475726174696f6e206d7573742073604482015274706c697420696e20657861637420706572696f647360581b606482015260840161059a565b6000611f13878a613954565b63ffffffff161115611f8c57604051630d63fe3160e31b815260206004820152603b60248201527f56657374696e67207363686564756c6520636c696666206475726174696f6e2060448201527a6d7573742073706c697420696e20657861637420706572696f647360281b606482015260840161059a565b8663ffffffff168863ffffffff16111561201357604051630d63fe3160e31b815260206004820152604d60248201526000805160206139ee83398151915260448201527f652067726561746572207468616e206f7220657175616c20746f20746865206360648201526c3634b33310323ab930ba34b7b760991b608482015260a40161059a565b8663ffffffff168663ffffffff168461202c9190613921565b6120369190613940565b6120a357604051630d63fe3160e31b815260206004820152603760248201527f56657374696e67207363686564756c6520616d6f756e7420746f6f206c6f7720604482015276199bdc88191d5c985d1a5bdb88185b99081c195c9a5bd9604a1b606482015260840161059a565b6001600160401b0389166120b5574298505b60006040518061016001604052808b6001600160401b031681526020018963ffffffff168c6120e491906138cc565b6001600160401b031681526020018a63ffffffff1681526020018763ffffffff1681526020018963ffffffff1681526020018863ffffffff1681526020018581526020018e6001600160a01b031681526020018d6001600160a01b031681526020018615158152602001600081525090506000600161216283612fb9565b61216c9190613854565b90506121788185613115565b60006121838261221f565b90506121908f8288611170565b6001600160a01b038d166121ad576121a8818f6119c9565b6121b7565b6121b7818e6119c9565b8d6001600160a01b03168f6001600160a01b03167fb0274f4a20cdf2005bb6a28aab72868f144d56c0828753a0f6edc7a62ef131b18489604051612205929190918252602082015260400190565b60405180910390a3509d9c50505050505050505050505050565b6000803061224e60017f5c24c10d65ac9aa9e0f7f63d96fe83c89107fae52b4ef778334c906c1ec5c1ed613854565b60405160609290921b6001600160601b031916602083015260348201526054810184905260740160408051601f1981840301815291905280516020909101209392505050565b60006001600160401b0382166122ac574291506122d6565b42826001600160401b031610156122d6576040516317518afb60e11b815260040160405180910390fd5b60006122e184611500565b6003810154909150600160a01b900460ff16612310576040516341a76da360e01b815260040160405180910390fd5b80546001600160401b03908116908416108061233f575080546001600160401b03808516600160401b90920416105b1561235d57604051635178474560e11b815260040160405180910390fd5b60028101546001600160a01b0316331461238c573360405163472511eb60e11b815260040161059a9190613442565b604080516101608101825282546001600160401b038082168352600160401b82041660208301819052600160801b820463ffffffff90811694840194909452600160a01b80830485166060850152600160c01b830485166080850152600160e01b90920490931660a0830152600184015460c083015260028401546001600160a01b0390811660e084015260038501549081166101008401520460ff16151561012082015260048301546101408201526000916124499190611586565b604080516101608101825284546001600160401b038082168352600160401b820481166020840152600160801b820463ffffffff90811694840194909452600160a01b80830485166060850152600160c01b830485166080850152600160e01b90920490931660a0830152600186015460c083015260028601546001600160a01b0390811660e084015260038701549081166101008401520460ff1615156101208201526004850154610140820152919250600091612509918716611586565b905060006125178284613854565b9050801561253957600061252a8861221f565b9050612537813384611170565b505b8354600160401b600160801b031916600160401b6001600160401b0388169081029190911785556040805189815260208101849052908101919091527f2c802be755370b3a250faf14516cb3480b47417d4c12d7fa0ff3ee0b937d99e99060600160405180910390a19695505050505050565b505050565b6125ac6125bd846107f1565b6125c6846107f1565b83612c65565b600054610100900460ff166125f35760405162461bcd60e51b815260040161059a90613881565b815160209283012081519190920120606591909155606655565b600054610100900460ff166126345760405162461bcd60e51b815260040161059a90613881565b815161264790603690602085019061326e565b5080516125ac90603790602084019061326e565b6001600160a01b0382166126b15760405162461bcd60e51b815260206004820152601f60248201527f45524332303a206d696e7420746f20746865207a65726f206164647265737300604482015260640161059a565b80603560008282546126c39190613805565b90915550506001600160a01b038216600081815260336020908152604080832080548601905551848152600080516020613a2e833981519152910160405180910390a3610698600083836125b1565b60006105318284613805565b8254600090819081811561276a5761273b8761178e600185613854565b60408051808201909152905463ffffffff81168252600160201b90046001600160e01b0316602082015261277f565b60408051808201909152600080825260208201525b905080602001516001600160e01b0316935061279f84868863ffffffff16565b92506000821180156127b75750805163ffffffff1643145b156127fb576127c58361314f565b6127d48861178e600186613854565b80546001600160e01b0392909216600160201b0263ffffffff909216919091179055612865565b86604051806040016040528061281043611a49565b63ffffffff1681526020016128248661314f565b6001600160e01b039081169091528254600181018455600093845260209384902083519490930151909116600160201b0263ffffffff909316929092179101555b5050935093915050565b60008161287e57506000919050565b6000600161288b846131b8565b901c6001901b905060018184816128a4576128a46138f7565b048201901c905060018184816128bc576128bc6138f7565b048201901c905060018184816128d4576128d46138f7565b048201901c905060018184816128ec576128ec6138f7565b048201901c90506001818481612904576129046138f7565b048201901c9050600181848161291c5761291c6138f7565b048201901c90506001818481612934576129346138f7565b048201901c90506105318182858161294e5761294e6138f7565b0461324c565b60006129636002848418613940565b61053190848416613805565b600080611c3e600160008051602061398e833981519152613854565b6000806129a7600160008051602061398e833981519152613854565b8054909150819084106129d05760405163ad7d6e0960e01b81526004810185905260240161059a565b8060000184815481106129e5576129e561386b565b906000526020600020906004020192505050919050565b600080612a088461298b565b604051806101400160405290816000820160009054906101000a90046001600160401b03166001600160401b03166001600160401b031681526020016000820160089054906101000a90046001600160401b03166001600160401b03166001600160401b031681526020016000820160109054906101000a900463ffffffff1663ffffffff1663ffffffff1681526020016000820160149054906101000a900463ffffffff1663ffffffff1663ffffffff1681526020016000820160189054906101000a900463ffffffff1663ffffffff1663ffffffff16815260200160008201601c9054906101000a900463ffffffff1663ffffffff1663ffffffff168152602001600182015481526020016002820160009054906101000a90046001600160a01b03166001600160a01b03166001600160a01b031681526020016003820160009054906101000a90046001600160a01b03166001600160a01b03166001600160a01b031681526020016003820160149054906101000a900460ff1615151515815250509050600060405180610160016040528083600001516001600160401b0316815260200183602001516001600160401b03168152602001836040015163ffffffff168152602001836060015163ffffffff168152602001836080015163ffffffff1681526020018360a0015163ffffffff1681526020018360c0015181526020018360e001516001600160a01b031681526020018361010001516001600160a01b03168152602001836101200151151581526020018581525090506001612c5282612fb9565b612c5c9190613854565b95945050505050565b816001600160a01b0316836001600160a01b031614158015612c875750600081115b156125ac576001600160a01b03831615612d03576001600160a01b038316600090815260cd602052604081208190612cc2906132628561271e565b91509150846001600160a01b0316600080516020613a4e8339815191528383604051612cf8929190918252602082015260400190565b60405180910390a250505b6001600160a01b038216156125ac576001600160a01b038216600090815260cd602052604081208190612d39906127128561271e565b91509150836001600160a01b0316600080516020613a4e8339815191528383604051612d6f929190918252602082015260400190565b60405180910390a25050505050565b600080612d8e622819a084613940565b612d99601886613940565b612da39190613921565b905083811115610531578391505061050c565b6000806fa2a8918ca85bafe22016d0b997e4df60600160ff1b03831115612de35750600090506003612e67565b6040805160008082526020820180845289905260ff881692820192909252606081018690526080810185905260019060a0016020604051602081039080840390855afa158015612e37573d6000803e3d6000fd5b5050604051601f1901519150506001600160a01b038116612e6057600060019250925050612e67565b9150600090505b94509492505050565b6000816004811115612e8457612e84613977565b1415612e8d5750565b6001816004811115612ea157612ea1613977565b1415612eea5760405162461bcd60e51b815260206004820152601860248201527745434453413a20696e76616c6964207369676e617475726560401b604482015260640161059a565b6002816004811115612efe57612efe613977565b1415612f4c5760405162461bcd60e51b815260206004820152601f60248201527f45434453413a20696e76616c6964207369676e6174757265206c656e67746800604482015260640161059a565b6003816004811115612f6057612f60613977565b14156108a55760405162461bcd60e51b815260206004820152602260248201527f45434453413a20696e76616c6964207369676e6174757265202773272076616c604482015261756560f01b606482015260840161059a565b600080612fd560016000805160206139ae833981519152613854565b80546001808201835560008381526020908190208751600590940201805491880151604089015160608a015160808b015160a08c01516001600160401b039889166001600160801b031990971696909617600160401b989094169790970292909217600160801b600160c01b031916600160801b63ffffffff9283160263ffffffff60a01b191617600160a01b9282168302176001600160c01b0316600160c01b968216969096026001600160e01b031695909517600160e01b959093169490940291909117815560c08701519181019190915560e08601516002820180546001600160a01b0319166001600160a01b039283161790556101008701516003830180546101208a0151929093166001600160a81b031990931692909217901515909302929092179091556101409094015160049094019390935550505490565b600061313060016000805160206139ce833981519152613854565b6000938452602052506040909120805460ff1916911515919091179055565b60006001600160e01b03821115611aae5760405162461bcd60e51b815260206004820152602760248201527f53616665436173743a2076616c756520646f65736e27742066697420696e20326044820152663234206269747360c81b606482015260840161059a565b600080608083901c156131cd57608092831c92015b604083901c156131df57604092831c92015b602083901c156131f157602092831c92015b601083901c1561320357601092831c92015b600883901c1561321557600892831c92015b600483901c1561322757600492831c92015b600283901c1561323957600292831c92015b600183901c1561050c5760010192915050565b600081831061325b5781610531565b5090919050565b60006105318284613854565b82805461327a9061376c565b90600052602060002090601f01602090048101928261329c57600085556132e2565b82601f106132b557805160ff19168380011785556132e2565b828001600101855582156132e2579182015b828111156132e25782518255916020019190600101906132c7565b50611aae9291505b80821115611aae57600081556001016132ea565b600060208083528351808285015260005b8181101561332b5785810183015185820160400152820161330f565b8181111561333d576000604083870101525b50601f01601f1916929092016040019392505050565b80356001600160a01b038116811461336a57600080fd5b919050565b6000806040838503121561338257600080fd5b61338b83613353565b946020939093013593505050565b6000806000606084860312156133ae57600080fd5b6133b784613353565b92506133c560208501613353565b9150604084013590509250925092565b600080604083850312156133e857600080fd5b823591506133f860208401613353565b90509250929050565b60006020828403121561341357600080fd5b61053182613353565b60006020828403121561342e57600080fd5b5035919050565b6001600160a01b03169052565b6001600160a01b0391909116815260200190565b81516001600160401b031681526101608101602083015161348260208401826001600160401b03169052565b50604083015161349a604084018263ffffffff169052565b5060608301516134b2606084018263ffffffff169052565b5060808301516134ca608084018263ffffffff169052565b5060a08301516134e260a084018263ffffffff169052565b5060c083015160c083015260e08301516134ff60e0840182613435565b506101008084015161351382850182613435565b50506101208381015180151584830152505061014092830151919092015290565b803560ff8116811461336a57600080fd5b60008060008060008060c0878903121561355e57600080fd5b61356787613353565b9550602087013594506040870135935061358360608801613534565b92506080870135915060a087013590509295509295509295565b80356001600160401b038116811461336a57600080fd5b803563ffffffff8116811461336a57600080fd5b8035801515811461336a57600080fd5b6000806000806000806000806000806101408b8d0312156135f857600080fd5b6136018b61359d565b995061360f60208c016135b4565b985061361d60408c016135b4565b975061362b60608c016135b4565b965061363960808c016135b4565b955061364760a08c016135c8565b945060c08b0135935061365c60e08c01613353565b925061366b6101008c01613353565b915061367a6101208c016135c8565b90509295989b9194979a5092959850565b600080600080600080600060e0888a0312156136a657600080fd5b6136af88613353565b96506136bd60208901613353565b955060408801359450606088013593506136d960808901613534565b925060a0880135915060c0880135905092959891949750929550565b6000806040838503121561370857600080fd5b61371183613353565b91506133f860208401613353565b6000806040838503121561373257600080fd5b823591506133f86020840161359d565b6000806040838503121561375557600080fd5b61375e83613353565b91506133f8602084016135b4565b600181811c9082168061378057607f821691505b6020821081141561158057634e487b7160e01b600052602260045260246000fd5b6020808252602e908201527f496e697469616c697a61626c653a20636f6e747261637420697320616c72656160408201526d191e481a5b9a5d1a585b1a5e995960921b606082015260800190565b634e487b7160e01b600052601160045260246000fd5b60008219821115613818576138186137ef565b500190565b6020808252601f908201527f4552433230566f7465733a20626c6f636b206e6f7420796574206d696e656400604082015260600190565b600082821015613866576138666137ef565b500390565b634e487b7160e01b600052603260045260246000fd5b6020808252602b908201527f496e697469616c697a61626c653a20636f6e7472616374206973206e6f74206960408201526a6e697469616c697a696e6760a81b606082015260800190565b60006001600160401b038281168482168083038211156138ee576138ee6137ef565b01949350505050565b634e487b7160e01b600052601260045260246000fd5b60008261391c5761391c6138f7565b500690565b600081600019048311821515161561393b5761393b6137ef565b500290565b60008261394f5761394f6138f7565b500490565b600063ffffffff8084168061396b5761396b6138f7565b92169190910692915050565b634e487b7160e01b600052602160045260246000fdfef828a756855b22b2018e6c442f4e4296eacda2c58e90fa4824ff32229d084d6264404627f9392c993df73912dbfb24528266190d015c31a2a5dcf19d4c62184d423605f996078acc205f33a6458ae6ea5c4b6179bbe6f42712c6ca48e103aa3256657374696e67207363686564756c65206475726174696f6e206d75737420627f26b83ff96e1f2b6a682f133852f6798a09c465da95921460cefb3847402498ddf252ad1be2c89b69c2b068fc378daa952ba7f163c4a11628f55a4df523b3efdec2bacdd2f05b59de34da9b523dff8be42e5e38e818c82fdb0bae774387a724a264697066735822122021cac2e94e792ee465e86d273afdb0ce00e133cc6dd7ba8d1c000afa269f3ff864736f6c634300080a0033"
        ],
        "devdoc": [
            {
                "errors": {
                    "Unauthorized(address)": [
                        {
                            "params": {
                                "caller": "Address performing the call"
                            }
                        }
                    ],
                    "VestingScheduleNotFound(uint256)": [
                        {
                            "params": {
                                "index": "vesting schedule index"
                            }
                        }
                    ]
                },
                "kind": "dev",
                "methods": {
                    "DOMAIN_SEPARATOR()": {
                        "details": "See {IERC20Permit-DOMAIN_SEPARATOR}."
                    },
                    "allowance(address,address)": {
                        "details": "See {IERC20-allowance}."
                    },
                    "approve(address,uint256)": {
                        "details": "See {IERC20-approve}. NOTE: If `amount` is the maximum `uint256`, the allowance is not updated on `transferFrom`. This is semantically equivalent to an infinite approval. Requirements: - `spender` cannot be the zero address."
                    },
                    "balanceOf(address)": {
                        "details": "See {IERC20-balanceOf}."
                    },
                    "checkpoints(address,uint32)": {
                        "details": "Get the `pos`-th checkpoint for `account`."
                    },
                    "computeVestingReleasableAmount(uint256)": {
                        "params": {
                            "_index": "index of the vesting schedule"
                        },
                        "returns": {
                            "_0": "amount of releasable tokens"
                        }
                    },
                    "computeVestingVestedAmount(uint256)": {
                        "params": {
                            "_index": "index of the vesting schedule"
                        },
                        "returns": {
                            "_0": "amount of vested tokens"
                        }
                    },
                    "createVestingSchedule(uint64,uint32,uint32,uint32,uint32,bool,uint256,address,address)": {
                        "params": {
                            "_amount": "amount of token attributed by the vesting schedule",
                            "_beneficiary": "address of the beneficiary of the tokens",
                            "_cliffDuration": "duration to vesting cliff (in seconds)",
                            "_delegatee": "address to delegate escrow voting power to",
                            "_duration": "total vesting schedule duration after which all tokens are vested (in seconds)",
                            "_lockDuration": "duration during which tokens are locked (in seconds)",
                            "_period": "duration of a period after which new tokens unlock (in seconds)",
                            "_revocable": "whether the vesting schedule is revocable or not",
                            "_start": "start time of the vesting"
                        },
                        "returns": {
                            "_0": "index of the created vesting schedule"
                        }
                    },
                    "decimals()": {
                        "details": "Returns the number of decimals used to get its user representation. For example, if `decimals` equals `2`, a balance of `505` tokens should be displayed to a user as `5.05` (`505 / 10 ** 2`). Tokens usually opt for a value of 18, imitating the relationship between Ether and Wei. This is the value {ERC20} uses, unless this function is overridden; NOTE: This information is only used for _display_ purposes: it in no way affects any of the arithmetic of the contract, including {IERC20-balanceOf} and {IERC20-transfer}."
                    },
                    "decreaseAllowance(address,uint256)": {
                        "details": "Atomically decreases the allowance granted to `spender` by the caller. This is an alternative to {approve} that can be used as a mitigation for problems described in {IERC20-approve}. Emits an {Approval} event indicating the updated allowance. Requirements: - `spender` cannot be the zero address. - `spender` must have allowance for the caller of at least `subtractedValue`."
                    },
                    "delegate(address)": {
                        "details": "Delegate votes from the sender to `delegatee`."
                    },
                    "delegateBySig(address,uint256,uint256,uint8,bytes32,bytes32)": {
                        "details": "Delegates votes from signer to `delegatee`"
                    },
                    "delegateVestingEscrow(uint256,address)": {
                        "params": {
                            "_delegatee": "address to delegate the token to",
                            "_index": "index of the vesting schedule"
                        }
                    },
                    "delegates(address)": {
                        "details": "Get the address `account` is currently delegating to."
                    },
                    "getPastTotalSupply(uint256)": {
                        "details": "Retrieve the `totalSupply` at the end of `blockNumber`. Note, this value is the sum of all balances. It is but NOT the sum of all the delegated votes! Requirements: - `blockNumber` must have been already mined"
                    },
                    "getPastVotes(address,uint256)": {
                        "details": "Retrieve the number of votes for `account` at the end of `blockNumber`. Requirements: - `blockNumber` must have been already mined"
                    },
                    "getVestingSchedule(uint256)": {
                        "params": {
                            "_index": "Index of the vesting schedule"
                        }
                    },
                    "getVestingScheduleCount()": {
                        "returns": {
                            "_0": "count of vesting schedules"
                        }
                    },
                    "getVotes(address)": {
                        "details": "Gets the current votes balance for `account`"
                    },
                    "increaseAllowance(address,uint256)": {
                        "details": "Atomically increases the allowance granted to `spender` by the caller. This is an alternative to {approve} that can be used as a mitigation for problems described in {IERC20-approve}. Emits an {Approval} event indicating the updated allowance. Requirements: - `spender` cannot be the zero address."
                    },
                    "initTLCV1(address)": {
                        "params": {
                            "_account": "The initial account to grant all the minted tokens"
                        }
                    },
                    "name()": {
                        "details": "Returns the name of the token."
                    },
                    "nonces(address)": {
                        "details": "See {IERC20Permit-nonces}."
                    },
                    "numCheckpoints(address)": {
                        "details": "Get number of checkpoints for `account`."
                    },
                    "permit(address,address,uint256,uint256,uint8,bytes32,bytes32)": {
                        "details": "See {IERC20Permit-permit}."
                    },
                    "releaseVestingSchedule(uint256)": {
                        "params": {
                            "_index": "Index of the vesting schedule to release"
                        },
                        "returns": {
                            "_0": "released amount"
                        }
                    },
                    "revokeVestingSchedule(uint256,uint64)": {
                        "params": {
                            "_end": "End date for the schedule",
                            "_index": "Index of the vesting schedule to revoke"
                        },
                        "returns": {
                            "_0": "amount returned to the vesting schedule creator"
                        }
                    },
                    "symbol()": {
                        "details": "Returns the symbol of the token, usually a shorter version of the name."
                    },
                    "totalSupply()": {
                        "details": "See {IERC20-totalSupply}."
                    },
                    "transfer(address,uint256)": {
                        "details": "See {IERC20-transfer}. Requirements: - `to` cannot be the zero address. - the caller must have a balance of at least `amount`."
                    },
                    "transferFrom(address,address,uint256)": {
                        "details": "See {IERC20-transferFrom}. Emits an {Approval} event indicating the updated allowance. This is not required by the EIP. See the note at the beginning of {ERC20}. NOTE: Does not update the allowance if the current allowance is the maximum `uint256`. Requirements: - `from` and `to` cannot be the zero address. - `from` must have a balance of at least `amount`. - the caller must have allowance for ``from``'s tokens of at least `amount`."
                    },
                    "vestingEscrow(uint256)": {
                        "params": {
                            "_index": "Index of the vesting schedule"
                        },
                        "returns": {
                            "_0": "address of the escrow"
                        }
                    }
                },
                "version": 1
            },
            {
                "author": "Alluvial",
                "errors": {
                    "Unauthorized(address)": [
                        {
                            "params": {
                                "caller": "Address performing the call"
                            }
                        }
                    ],
                    "VestingScheduleNotFound(uint256)": [
                        {
                            "params": {
                                "index": "vesting schedule index"
                            }
                        },
                        {
                            "params": {
                                "index": "vesting schedule index"
                            }
                        }
                    ]
                },
                "kind": "dev",
                "methods": {
                    "DOMAIN_SEPARATOR()": {
                        "details": "See {IERC20Permit-DOMAIN_SEPARATOR}."
                    },
                    "allowance(address,address)": {
                        "details": "See {IERC20-allowance}."
                    },
                    "approve(address,uint256)": {
                        "details": "See {IERC20-approve}. NOTE: If `amount` is the maximum `uint256`, the allowance is not updated on `transferFrom`. This is semantically equivalent to an infinite approval. Requirements: - `spender` cannot be the zero address."
                    },
                    "balanceOf(address)": {
                        "details": "See {IERC20-balanceOf}."
                    },
                    "checkpoints(address,uint32)": {
                        "details": "Get the `pos`-th checkpoint for `account`."
                    },
                    "computeVestingReleasableAmount(uint256)": {
                        "params": {
                            "_index": "index of the vesting schedule"
                        },
                        "returns": {
                            "_0": "amount of releasable tokens"
                        }
                    },
                    "computeVestingVestedAmount(uint256)": {
                        "params": {
                            "_index": "index of the vesting schedule"
                        },
                        "returns": {
                            "_0": "amount of vested tokens"
                        }
                    },
                    "createVestingSchedule(uint64,uint32,uint32,uint32,uint32,bool,uint256,address,address)": {
                        "details": "As vesting schedules can be created in the past, this means that you should be careful when creating a vesting schedule and what duration parametersyou use as this contract would allow creating a vesting schedule in the past and even a vesting schedule that has already ended.",
                        "params": {
                            "_amount": "amount of token attributed by the vesting schedule",
                            "_beneficiary": "address of the beneficiary of the tokens",
                            "_cliffDuration": "duration to vesting cliff (in seconds)",
                            "_delegatee": "address to delegate escrow voting power to",
                            "_duration": "total vesting schedule duration after which all tokens are vested (in seconds)",
                            "_lockDuration": "duration during which tokens are locked (in seconds)",
                            "_periodDuration": "duration of a period after which new tokens unlock (in seconds)",
                            "_revocable": "whether the vesting schedule is revocable or not",
                            "_start": "start time of the vesting"
                        },
                        "returns": {
                            "_0": "index of the created vesting schedule"
                        }
                    },
                    "decimals()": {
                        "details": "Returns the number of decimals used to get its user representation. For example, if `decimals` equals `2`, a balance of `505` tokens should be displayed to a user as `5.05` (`505 / 10 ** 2`). Tokens usually opt for a value of 18, imitating the relationship between Ether and Wei. This is the value {ERC20} uses, unless this function is overridden; NOTE: This information is only used for _display_ purposes: it in no way affects any of the arithmetic of the contract, including {IERC20-balanceOf} and {IERC20-transfer}."
                    },
                    "decreaseAllowance(address,uint256)": {
                        "details": "Atomically decreases the allowance granted to `spender` by the caller. This is an alternative to {approve} that can be used as a mitigation for problems described in {IERC20-approve}. Emits an {Approval} event indicating the updated allowance. Requirements: - `spender` cannot be the zero address. - `spender` must have allowance for the caller of at least `subtractedValue`."
                    },
                    "delegate(address)": {
                        "details": "Delegate votes from the sender to `delegatee`."
                    },
                    "delegateBySig(address,uint256,uint256,uint8,bytes32,bytes32)": {
                        "details": "Delegates votes from signer to `delegatee`"
                    },
                    "delegateVestingEscrow(uint256,address)": {
                        "params": {
                            "_delegatee": "address to delegate the token to",
                            "_index": "index of the vesting schedule"
                        },
                        "returns": {
                            "_0": "True on success"
                        }
                    },
                    "delegates(address)": {
                        "details": "Get the address `account` is currently delegating to."
                    },
                    "getPastTotalSupply(uint256)": {
                        "details": "Retrieve the `totalSupply` at the end of `blockNumber`. Note, this value is the sum of all balances. It is but NOT the sum of all the delegated votes! Requirements: - `blockNumber` must have been already mined"
                    },
                    "getPastVotes(address,uint256)": {
                        "details": "Retrieve the number of votes for `account` at the end of `blockNumber`. Requirements: - `blockNumber` must have been already mined"
                    },
                    "getVestingSchedule(uint256)": {
                        "details": "The vesting schedule structure represents a static configuration used to compute the desiredvesting details of a beneficiary at all times. The values won't change even after tokens are released.The only dynamic field of the structure is end, and is updated whenever a vesting schedule is revoked",
                        "params": {
                            "_index": "Index of the vesting schedule"
                        }
                    },
                    "getVestingScheduleCount()": {
                        "returns": {
                            "_0": "count of vesting schedules"
                        }
                    },
                    "getVotes(address)": {
                        "details": "Gets the current votes balance for `account`"
                    },
                    "increaseAllowance(address,uint256)": {
                        "details": "Atomically increases the allowance granted to `spender` by the caller. This is an alternative to {approve} that can be used as a mitigation for problems described in {IERC20-approve}. Emits an {Approval} event indicating the updated allowance. Requirements: - `spender` cannot be the zero address."
                    },
                    "initTLCV1(address)": {
                        "params": {
                            "_account": "The initial account to grant all the minted tokens"
                        }
                    },
                    "name()": {
                        "details": "Returns the name of the token."
                    },
                    "nonces(address)": {
                        "details": "See {IERC20Permit-nonces}."
                    },
                    "numCheckpoints(address)": {
                        "details": "Get number of checkpoints for `account`."
                    },
                    "permit(address,address,uint256,uint256,uint8,bytes32,bytes32)": {
                        "details": "See {IERC20Permit-permit}."
                    },
                    "releaseVestingSchedule(uint256)": {
                        "params": {
                            "_index": "Index of the vesting schedule to release"
                        },
                        "returns": {
                            "_0": "released amount"
                        }
                    },
                    "revokeVestingSchedule(uint256,uint64)": {
                        "params": {
                            "_end": "End date for the schedule",
                            "_index": "Index of the vesting schedule to revoke"
                        },
                        "returns": {
                            "_0": "amount returned to the vesting schedule creator"
                        }
                    },
                    "symbol()": {
                        "details": "Returns the symbol of the token, usually a shorter version of the name."
                    },
                    "totalSupply()": {
                        "details": "See {IERC20-totalSupply}."
                    },
                    "transfer(address,uint256)": {
                        "details": "See {IERC20-transfer}. Requirements: - `to` cannot be the zero address. - the caller must have a balance of at least `amount`."
                    },
                    "transferFrom(address,address,uint256)": {
                        "details": "See {IERC20-transferFrom}. Emits an {Approval} event indicating the updated allowance. This is not required by the EIP. See the note at the beginning of {ERC20}. NOTE: Does not update the allowance if the current allowance is the maximum `uint256`. Requirements: - `from` and `to` cannot be the zero address. - `from` must have a balance of at least `amount`. - the caller must have allowance for ``from``'s tokens of at least `amount`."
                    },
                    "vestingEscrow(uint256)": {
                        "params": {
                            "_index": "Index of the vesting schedule"
                        },
                        "returns": {
                            "_0": "address of the escrow"
                        }
                    }
                },
                "title": "TLC (v1)",
                "version": 1
            },
            {
                "author": "Alluvial",
                "errors": {
                    "Unauthorized(address)": [
                        {
                            "params": {
                                "caller": "Address performing the call"
                            }
                        }
                    ],
                    "VestingScheduleNotFound(uint256)": [
                        {
                            "params": {
                                "index": "vesting schedule index"
                            }
                        },
                        {
                            "params": {
                                "index": "vesting schedule index"
                            }
                        }
                    ]
                },
                "kind": "dev",
                "methods": {
                    "DOMAIN_SEPARATOR()": {
                        "details": "See {IERC20Permit-DOMAIN_SEPARATOR}."
                    },
                    "allowance(address,address)": {
                        "details": "See {IERC20-allowance}."
                    },
                    "approve(address,uint256)": {
                        "details": "See {IERC20-approve}. NOTE: If `amount` is the maximum `uint256`, the allowance is not updated on `transferFrom`. This is semantically equivalent to an infinite approval. Requirements: - `spender` cannot be the zero address."
                    },
                    "balanceOf(address)": {
                        "details": "See {IERC20-balanceOf}."
                    },
                    "checkpoints(address,uint32)": {
                        "details": "Get the `pos`-th checkpoint for `account`."
                    },
                    "computeVestingReleasableAmount(uint256)": {
                        "params": {
                            "_index": "index of the vesting schedule"
                        },
                        "returns": {
                            "_0": "amount of releasable tokens"
                        }
                    },
                    "computeVestingVestedAmount(uint256)": {
                        "params": {
                            "_index": "index of the vesting schedule"
                        },
                        "returns": {
                            "_0": "amount of vested tokens"
                        }
                    },
                    "createVestingSchedule(uint64,uint32,uint32,uint32,uint32,bool,uint256,address,address)": {
                        "details": "As vesting schedules can be created in the past, this means that you should be careful when creating a vesting schedule and what duration parametersyou use as this contract would allow creating a vesting schedule in the past and even a vesting schedule that has already ended.",
                        "params": {
                            "_amount": "amount of token attributed by the vesting schedule",
                            "_beneficiary": "address of the beneficiary of the tokens",
                            "_cliffDuration": "duration to vesting cliff (in seconds)",
                            "_delegatee": "address to delegate escrow voting power to",
                            "_duration": "total vesting schedule duration after which all tokens are vested (in seconds)",
                            "_lockDuration": "duration during which tokens are locked (in seconds)",
                            "_periodDuration": "duration of a period after which new tokens unlock (in seconds)",
                            "_revocable": "whether the vesting schedule is revocable or not",
                            "_start": "start time of the vesting"
                        },
                        "returns": {
                            "_0": "index of the created vesting schedule"
                        }
                    },
                    "decimals()": {
                        "details": "Returns the number of decimals used to get its user representation. For example, if `decimals` equals `2`, a balance of `505` tokens should be displayed to a user as `5.05` (`505 / 10 ** 2`). Tokens usually opt for a value of 18, imitating the relationship between Ether and Wei. This is the value {ERC20} uses, unless this function is overridden; NOTE: This information is only used for _display_ purposes: it in no way affects any of the arithmetic of the contract, including {IERC20-balanceOf} and {IERC20-transfer}."
                    },
                    "decreaseAllowance(address,uint256)": {
                        "details": "Atomically decreases the allowance granted to `spender` by the caller. This is an alternative to {approve} that can be used as a mitigation for problems described in {IERC20-approve}. Emits an {Approval} event indicating the updated allowance. Requirements: - `spender` cannot be the zero address. - `spender` must have allowance for the caller of at least `subtractedValue`."
                    },
                    "delegate(address)": {
                        "details": "Delegate votes from the sender to `delegatee`."
                    },
                    "delegateBySig(address,uint256,uint256,uint8,bytes32,bytes32)": {
                        "details": "Delegates votes from signer to `delegatee`"
                    },
                    "delegateVestingEscrow(uint256,address)": {
                        "params": {
                            "_delegatee": "address to delegate the token to",
                            "_index": "index of the vesting schedule"
                        },
                        "returns": {
                            "_0": "True on success"
                        }
                    },
                    "delegates(address)": {
                        "details": "Get the address `account` is currently delegating to."
                    },
                    "getPastTotalSupply(uint256)": {
                        "details": "Retrieve the `totalSupply` at the end of `blockNumber`. Note, this value is the sum of all balances. It is but NOT the sum of all the delegated votes! Requirements: - `blockNumber` must have been already mined"
                    },
                    "getPastVotes(address,uint256)": {
                        "details": "Retrieve the number of votes for `account` at the end of `blockNumber`. Requirements: - `blockNumber` must have been already mined"
                    },
                    "getVestingSchedule(uint256)": {
                        "details": "The vesting schedule structure represents a static configuration used to compute the desiredvesting details of a beneficiary at all times. The values won't change even after tokens are released.The only dynamic field of the structure is end, and is updated whenever a vesting schedule is revoked",
                        "params": {
                            "_index": "Index of the vesting schedule"
                        }
                    },
                    "getVestingScheduleCount()": {
                        "returns": {
                            "_0": "count of vesting schedules"
                        }
                    },
                    "getVotes(address)": {
                        "details": "Gets the current votes balance for `account`"
                    },
                    "increaseAllowance(address,uint256)": {
                        "details": "Atomically increases the allowance granted to `spender` by the caller. This is an alternative to {approve} that can be used as a mitigation for problems described in {IERC20-approve}. Emits an {Approval} event indicating the updated allowance. Requirements: - `spender` cannot be the zero address."
                    },
                    "initTLCV1(address)": {
                        "params": {
                            "_account": "The initial account to grant all the minted tokens"
                        }
                    },
                    "name()": {
                        "details": "Returns the name of the token."
                    },
                    "nonces(address)": {
                        "details": "See {IERC20Permit-nonces}."
                    },
                    "numCheckpoints(address)": {
                        "details": "Get number of checkpoints for `account`."
                    },
                    "permit(address,address,uint256,uint256,uint8,bytes32,bytes32)": {
                        "details": "See {IERC20Permit-permit}."
                    },
                    "releaseVestingSchedule(uint256)": {
                        "params": {
                            "_index": "Index of the vesting schedule to release"
                        },
                        "returns": {
                            "_0": "released amount"
                        }
                    },
                    "revokeVestingSchedule(uint256,uint64)": {
                        "params": {
                            "_end": "End date for the schedule",
                            "_index": "Index of the vesting schedule to revoke"
                        },
                        "returns": {
                            "_0": "amount returned to the vesting schedule creator"
                        }
                    },
                    "symbol()": {
                        "details": "Returns the symbol of the token, usually a shorter version of the name."
                    },
                    "totalSupply()": {
                        "details": "See {IERC20-totalSupply}."
                    },
                    "transfer(address,uint256)": {
                        "details": "See {IERC20-transfer}. Requirements: - `to` cannot be the zero address. - the caller must have a balance of at least `amount`."
                    },
                    "transferFrom(address,address,uint256)": {
                        "details": "See {IERC20-transferFrom}. Emits an {Approval} event indicating the updated allowance. This is not required by the EIP. See the note at the beginning of {ERC20}. NOTE: Does not update the allowance if the current allowance is the maximum `uint256`. Requirements: - `from` and `to` cannot be the zero address. - `from` must have a balance of at least `amount`. - the caller must have allowance for ``from``'s tokens of at least `amount`."
                    },
                    "vestingEscrow(uint256)": {
                        "params": {
                            "_index": "Index of the vesting schedule"
                        },
                        "returns": {
                            "_0": "address of the escrow"
                        }
                    }
                },
                "title": "TLC (v1)",
                "version": 1
            },
            {
                "author": "Alluvial",
                "errors": {
                    "Unauthorized(address)": [
                        {
                            "params": {
                                "caller": "Address performing the call"
                            }
                        }
                    ],
                    "VestingScheduleNotFound(uint256)": [
                        {
                            "params": {
                                "index": "vesting schedule index"
                            }
                        },
                        {
                            "params": {
                                "index": "vesting schedule index"
                            }
                        }
                    ]
                },
                "kind": "dev",
                "methods": {
                    "DOMAIN_SEPARATOR()": {
                        "details": "See {IERC20Permit-DOMAIN_SEPARATOR}."
                    },
                    "allowance(address,address)": {
                        "details": "See {IERC20-allowance}."
                    },
                    "approve(address,uint256)": {
                        "details": "See {IERC20-approve}. NOTE: If `amount` is the maximum `uint256`, the allowance is not updated on `transferFrom`. This is semantically equivalent to an infinite approval. Requirements: - `spender` cannot be the zero address."
                    },
                    "balanceOf(address)": {
                        "details": "See {IERC20-balanceOf}."
                    },
                    "checkpoints(address,uint32)": {
                        "details": "Get the `pos`-th checkpoint for `account`."
                    },
                    "computeVestingReleasableAmount(uint256)": {
                        "params": {
                            "_index": "index of the vesting schedule"
                        },
                        "returns": {
                            "_0": "amount of releasable tokens"
                        }
                    },
                    "computeVestingVestedAmount(uint256)": {
                        "params": {
                            "_index": "index of the vesting schedule"
                        },
                        "returns": {
                            "_0": "amount of vested tokens"
                        }
                    },
                    "createVestingSchedule(uint64,uint32,uint32,uint32,uint32,bool,uint256,address,address)": {
                        "details": "As vesting schedules can be created in the past, this means that you should be careful when creating a vesting schedule and what duration parametersyou use as this contract would allow creating a vesting schedule in the past and even a vesting schedule that has already ended.",
                        "params": {
                            "_amount": "amount of token attributed by the vesting schedule",
                            "_beneficiary": "address of the beneficiary of the tokens",
                            "_cliffDuration": "duration to vesting cliff (in seconds)",
                            "_delegatee": "address to delegate escrow voting power to",
                            "_duration": "total vesting schedule duration after which all tokens are vested (in seconds)",
                            "_lockDuration": "duration during which tokens are locked (in seconds)",
                            "_periodDuration": "duration of a period after which new tokens unlock (in seconds)",
                            "_revocable": "whether the vesting schedule is revocable or not",
                            "_start": "start time of the vesting"
                        },
                        "returns": {
                            "_0": "index of the created vesting schedule"
                        }
                    },
                    "decimals()": {
                        "details": "Returns the number of decimals used to get its user representation. For example, if `decimals` equals `2`, a balance of `505` tokens should be displayed to a user as `5.05` (`505 / 10 ** 2`). Tokens usually opt for a value of 18, imitating the relationship between Ether and Wei. This is the value {ERC20} uses, unless this function is overridden; NOTE: This information is only used for _display_ purposes: it in no way affects any of the arithmetic of the contract, including {IERC20-balanceOf} and {IERC20-transfer}."
                    },
                    "decreaseAllowance(address,uint256)": {
                        "details": "Atomically decreases the allowance granted to `spender` by the caller. This is an alternative to {approve} that can be used as a mitigation for problems described in {IERC20-approve}. Emits an {Approval} event indicating the updated allowance. Requirements: - `spender` cannot be the zero address. - `spender` must have allowance for the caller of at least `subtractedValue`."
                    },
                    "delegate(address)": {
                        "details": "Delegate votes from the sender to `delegatee`."
                    },
                    "delegateBySig(address,uint256,uint256,uint8,bytes32,bytes32)": {
                        "details": "Delegates votes from signer to `delegatee`"
                    },
                    "delegateVestingEscrow(uint256,address)": {
                        "params": {
                            "_delegatee": "address to delegate the token to",
                            "_index": "index of the vesting schedule"
                        },
                        "returns": {
                            "_0": "True on success"
                        }
                    },
                    "delegates(address)": {
                        "details": "Get the address `account` is currently delegating to."
                    },
                    "getPastTotalSupply(uint256)": {
                        "details": "Retrieve the `totalSupply` at the end of `blockNumber`. Note, this value is the sum of all balances. It is but NOT the sum of all the delegated votes! Requirements: - `blockNumber` must have been already mined"
                    },
                    "getPastVotes(address,uint256)": {
                        "details": "Retrieve the number of votes for `account` at the end of `blockNumber`. Requirements: - `blockNumber` must have been already mined"
                    },
                    "getVestingSchedule(uint256)": {
                        "details": "The vesting schedule structure represents a static configuration used to compute the desiredvesting details of a beneficiary at all times. The values won't change even after tokens are released.The only dynamic field of the structure is end, and is updated whenever a vesting schedule is revoked",
                        "params": {
                            "_index": "Index of the vesting schedule"
                        }
                    },
                    "getVestingScheduleCount()": {
                        "returns": {
                            "_0": "count of vesting schedules"
                        }
                    },
                    "getVotes(address)": {
                        "details": "Gets the current votes balance for `account`"
                    },
                    "increaseAllowance(address,uint256)": {
                        "details": "Atomically increases the allowance granted to `spender` by the caller. This is an alternative to {approve} that can be used as a mitigation for problems described in {IERC20-approve}. Emits an {Approval} event indicating the updated allowance. Requirements: - `spender` cannot be the zero address."
                    },
                    "initTLCV1(address)": {
                        "params": {
                            "_account": "The initial account to grant all the minted tokens"
                        }
                    },
                    "name()": {
                        "details": "Returns the name of the token."
                    },
                    "nonces(address)": {
                        "details": "See {IERC20Permit-nonces}."
                    },
                    "numCheckpoints(address)": {
                        "details": "Get number of checkpoints for `account`."
                    },
                    "permit(address,address,uint256,uint256,uint8,bytes32,bytes32)": {
                        "details": "See {IERC20Permit-permit}."
                    },
                    "releaseVestingSchedule(uint256)": {
                        "params": {
                            "_index": "Index of the vesting schedule to release"
                        },
                        "returns": {
                            "_0": "released amount"
                        }
                    },
                    "revokeVestingSchedule(uint256,uint64)": {
                        "params": {
                            "_end": "End date for the schedule",
                            "_index": "Index of the vesting schedule to revoke"
                        },
                        "returns": {
                            "_0": "amount returned to the vesting schedule creator"
                        }
                    },
                    "symbol()": {
                        "details": "Returns the symbol of the token, usually a shorter version of the name."
                    },
                    "totalSupply()": {
                        "details": "See {IERC20-totalSupply}."
                    },
                    "transfer(address,uint256)": {
                        "details": "See {IERC20-transfer}. Requirements: - `to` cannot be the zero address. - the caller must have a balance of at least `amount`."
                    },
                    "transferFrom(address,address,uint256)": {
                        "details": "See {IERC20-transferFrom}. Emits an {Approval} event indicating the updated allowance. This is not required by the EIP. See the note at the beginning of {ERC20}. NOTE: Does not update the allowance if the current allowance is the maximum `uint256`. Requirements: - `from` and `to` cannot be the zero address. - `from` must have a balance of at least `amount`. - the caller must have allowance for ``from``'s tokens of at least `amount`."
                    },
                    "vestingEscrow(uint256)": {
                        "params": {
                            "_index": "Index of the vesting schedule"
                        },
                        "returns": {
                            "_0": "address of the escrow"
                        }
                    }
                },
                "title": "TLC (v1)",
                "version": 1
            },
            {
                "author": "Alluvial",
                "errors": {
                    "Unauthorized(address)": [
                        {
                            "params": {
                                "caller": "Address performing the call"
                            }
                        }
                    ],
                    "VestingScheduleNotFound(uint256)": [
                        {
                            "params": {
                                "index": "vesting schedule index"
                            }
                        },
                        {
                            "params": {
                                "index": "vesting schedule index"
                            }
                        }
                    ]
                },
                "kind": "dev",
                "methods": {
                    "DOMAIN_SEPARATOR()": {
                        "details": "See {IERC20Permit-DOMAIN_SEPARATOR}."
                    },
                    "allowance(address,address)": {
                        "details": "See {IERC20-allowance}."
                    },
                    "approve(address,uint256)": {
                        "details": "See {IERC20-approve}. NOTE: If `amount` is the maximum `uint256`, the allowance is not updated on `transferFrom`. This is semantically equivalent to an infinite approval. Requirements: - `spender` cannot be the zero address."
                    },
                    "balanceOf(address)": {
                        "details": "See {IERC20-balanceOf}."
                    },
                    "checkpoints(address,uint32)": {
                        "details": "Get the `pos`-th checkpoint for `account`."
                    },
                    "computeVestingReleasableAmount(uint256)": {
                        "params": {
                            "_index": "index of the vesting schedule"
                        },
                        "returns": {
                            "_0": "amount of releasable tokens"
                        }
                    },
                    "computeVestingVestedAmount(uint256)": {
                        "params": {
                            "_index": "index of the vesting schedule"
                        },
                        "returns": {
                            "_0": "amount of vested tokens"
                        }
                    },
                    "createVestingSchedule(uint64,uint32,uint32,uint32,uint32,bool,uint256,address,address,bool)": {
                        "details": "As vesting schedules can be created in the past, this means that you should be careful when creating a vesting schedule and what duration parametersyou use as this contract would allow creating a vesting schedule in the past and even a vesting schedule that has already ended.",
                        "params": {
                            "_amount": "amount of token attributed by the vesting schedule",
                            "_beneficiary": "address of the beneficiary of the tokens",
                            "_cliffDuration": "duration to vesting cliff (in seconds)",
                            "_delegatee": "address to delegate escrow voting power to",
                            "_duration": "total vesting schedule duration after which all tokens are vested (in seconds)",
                            "_ignoreGlobalUnlockSchedule": "whether the vesting schedule should ignore the global lock",
                            "_lockDuration": "duration during which tokens are locked (in seconds)",
                            "_periodDuration": "duration of a period after which new tokens unlock (in seconds)",
                            "_revocable": "whether the vesting schedule is revocable or not",
                            "_start": "start time of the vesting"
                        },
                        "returns": {
                            "_0": "index of the created vesting schedule"
                        }
                    },
                    "decimals()": {
                        "details": "Returns the number of decimals used to get its user representation. For example, if `decimals` equals `2`, a balance of `505` tokens should be displayed to a user as `5.05` (`505 / 10 ** 2`). Tokens usually opt for a value of 18, imitating the relationship between Ether and Wei. This is the value {ERC20} uses, unless this function is overridden; NOTE: This information is only used for _display_ purposes: it in no way affects any of the arithmetic of the contract, including {IERC20-balanceOf} and {IERC20-transfer}."
                    },
                    "decreaseAllowance(address,uint256)": {
                        "details": "Atomically decreases the allowance granted to `spender` by the caller. This is an alternative to {approve} that can be used as a mitigation for problems described in {IERC20-approve}. Emits an {Approval} event indicating the updated allowance. Requirements: - `spender` cannot be the zero address. - `spender` must have allowance for the caller of at least `subtractedValue`."
                    },
                    "delegate(address)": {
                        "details": "Delegate votes from the sender to `delegatee`."
                    },
                    "delegateBySig(address,uint256,uint256,uint8,bytes32,bytes32)": {
                        "details": "Delegates votes from signer to `delegatee`"
                    },
                    "delegateVestingEscrow(uint256,address)": {
                        "params": {
                            "_delegatee": "address to delegate the token to",
                            "_index": "index of the vesting schedule"
                        },
                        "returns": {
                            "_0": "True on success"
                        }
                    },
                    "delegates(address)": {
                        "details": "Get the address `account` is currently delegating to."
                    },
                    "getPastTotalSupply(uint256)": {
                        "details": "Retrieve the `totalSupply` at the end of `blockNumber`. Note, this value is the sum of all balances. It is but NOT the sum of all the delegated votes! Requirements: - `blockNumber` must have been already mined"
                    },
                    "getPastVotes(address,uint256)": {
                        "details": "Retrieve the number of votes for `account` at the end of `blockNumber`. Requirements: - `blockNumber` must have been already mined"
                    },
                    "getVestingSchedule(uint256)": {
                        "details": "The vesting schedule structure represents a static configuration used to compute the desiredvesting details of a beneficiary at all times. The values won't change even after tokens are released.The only dynamic field of the structure is end, and is updated whenever a vesting schedule is revoked",
                        "params": {
                            "_index": "Index of the vesting schedule"
                        }
                    },
                    "getVestingScheduleCount()": {
                        "returns": {
                            "_0": "count of vesting schedules"
                        }
                    },
                    "getVotes(address)": {
                        "details": "Gets the current votes balance for `account`"
                    },
                    "increaseAllowance(address,uint256)": {
                        "details": "Atomically increases the allowance granted to `spender` by the caller. This is an alternative to {approve} that can be used as a mitigation for problems described in {IERC20-approve}. Emits an {Approval} event indicating the updated allowance. Requirements: - `spender` cannot be the zero address."
                    },
                    "initTLCV1(address)": {
                        "params": {
                            "_account": "The initial account to grant all the minted tokens"
                        }
                    },
                    "isGlobalUnlockedScheduleIgnored(uint256)": {
                        "params": {
                            "_index": "Index of the vesting schedule"
                        },
                        "returns": {
                            "_0": "true if the vesting schedule should ignore the global unlock schedule"
                        }
                    },
                    "name()": {
                        "details": "Returns the name of the token."
                    },
                    "nonces(address)": {
                        "details": "See {IERC20Permit-nonces}."
                    },
                    "numCheckpoints(address)": {
                        "details": "Get number of checkpoints for `account`."
                    },
                    "permit(address,address,uint256,uint256,uint8,bytes32,bytes32)": {
                        "details": "See {IERC20Permit-permit}."
                    },
                    "releaseVestingSchedule(uint256)": {
                        "params": {
                            "_index": "Index of the vesting schedule to release"
                        },
                        "returns": {
                            "_0": "released amount"
                        }
                    },
                    "revokeVestingSchedule(uint256,uint64)": {
                        "params": {
                            "_end": "End date for the schedule",
                            "_index": "Index of the vesting schedule to revoke"
                        },
                        "returns": {
                            "_0": "amount returned to the vesting schedule creator"
                        }
                    },
                    "symbol()": {
                        "details": "Returns the symbol of the token, usually a shorter version of the name."
                    },
                    "totalSupply()": {
                        "details": "See {IERC20-totalSupply}."
                    },
                    "transfer(address,uint256)": {
                        "details": "See {IERC20-transfer}. Requirements: - `to` cannot be the zero address. - the caller must have a balance of at least `amount`."
                    },
                    "transferFrom(address,address,uint256)": {
                        "details": "See {IERC20-transferFrom}. Emits an {Approval} event indicating the updated allowance. This is not required by the EIP. See the note at the beginning of {ERC20}. NOTE: Does not update the allowance if the current allowance is the maximum `uint256`. Requirements: - `from` and `to` cannot be the zero address. - `from` must have a balance of at least `amount`. - the caller must have allowance for ``from``'s tokens of at least `amount`."
                    },
                    "vestingEscrow(uint256)": {
                        "params": {
                            "_index": "Index of the vesting schedule"
                        },
                        "returns": {
                            "_0": "address of the escrow"
                        }
                    }
                },
                "title": "TLC (v1)",
                "version": 1
            }
        ],
        "userdoc": [
            {
                "errors": {
                    "InvalidRevokedVestingScheduleEnd()": [
                        {
                            "notice": "Attempt to revoke at a"
                        }
                    ],
                    "InvalidVestingScheduleParameter(string)": [
                        {
                            "notice": "Invalid parameter for a vesting schedule"
                        }
                    ],
                    "InvalidZeroAddress()": [
                        {
                            "notice": "The address is zero"
                        }
                    ],
                    "Unauthorized(address)": [
                        {
                            "notice": "The operator is unauthorized for the caller"
                        }
                    ],
                    "UnsufficientVestingScheduleCreatorBalance()": [
                        {
                            "notice": "Vesting schedule creator has unsufficient balance to create vesting schedule"
                        }
                    ],
                    "VestingScheduleIsLocked()": [
                        {
                            "notice": "The vesting schedule is locked"
                        }
                    ],
                    "VestingScheduleNotFound(uint256)": [
                        {
                            "notice": "The VestingSchedule was not found"
                        }
                    ],
                    "VestingScheduleNotRevocable()": [
                        {
                            "notice": "The vesting schedule is not revocable"
                        }
                    ],
                    "VestingScheduleNotRevocableInPast()": [
                        {
                            "notice": "Attempt to revoke a schedule in the past"
                        }
                    ],
                    "ZeroReleasableAmount()": [
                        {
                            "notice": "No token to release"
                        }
                    ]
                },
                "events": {
                    "CreatedVestingSchedule(uint256,address,address,uint256)": {
                        "notice": "A new vesting schedule has been created"
                    },
                    "DelegatedVestingEscrow(uint256,address,address)": {
                        "notice": "Vesting escrow has been delegated"
                    },
                    "ReleasedVestingSchedule(uint256,uint256)": {
                        "notice": "Vesting schedule has been released"
                    },
                    "RevokedVestingSchedule(uint256,uint256)": {
                        "notice": "Vesting schedule has been revoked"
                    }
                },
                "kind": "user",
                "methods": {
                    "computeVestingReleasableAmount(uint256)": {
                        "notice": "Computes the releasable amount of tokens for a vesting schedule."
                    },
                    "computeVestingVestedAmount(uint256)": {
                        "notice": "Computes the vested amount of tokens for a vesting schedule."
                    },
                    "createVestingSchedule(uint64,uint32,uint32,uint32,uint32,bool,uint256,address,address)": {
                        "notice": "Creates a new vesting schedule"
                    },
                    "delegateVestingEscrow(uint256,address)": {
                        "notice": "Delegate vesting escrowed tokens"
                    },
                    "getVestingSchedule(uint256)": {
                        "notice": "Get vesting schedule"
                    },
                    "getVestingScheduleCount()": {
                        "notice": "Get count of vesting schedules"
                    },
                    "initTLCV1(address)": {
                        "notice": "Initializes the TLC Token"
                    },
                    "releaseVestingSchedule(uint256)": {
                        "notice": "Release vesting schedule"
                    },
                    "revokeVestingSchedule(uint256,uint64)": {
                        "notice": "Revoke vesting schedule"
                    },
                    "vestingEscrow(uint256)": {
                        "notice": "Get the address of the escrow for a vesting schedule"
                    }
                },
                "version": 1
            },
            {
                "errors": {
                    "InvalidRevokedVestingScheduleEnd()": [
                        {
                            "notice": "Attempt to revoke a vesting schedule with an invalid end parameter"
                        }
                    ],
                    "InvalidVestingScheduleParameter(string)": [
                        {
                            "notice": "Invalid parameter for a vesting schedule"
                        }
                    ],
                    "InvalidZeroAddress()": [
                        {
                            "notice": "The address is zero"
                        }
                    ],
                    "Unauthorized(address)": [
                        {
                            "notice": "The operator is unauthorized for the caller"
                        }
                    ],
                    "UnsufficientVestingScheduleCreatorBalance()": [
                        {
                            "notice": "Vesting schedule creator has unsufficient balance to create vesting schedule"
                        }
                    ],
                    "VestingScheduleIsLocked()": [
                        {
                            "notice": "The vesting schedule is locked"
                        }
                    ],
                    "VestingScheduleNotFound(uint256)": [
                        {
                            "notice": "The VestingSchedule was not found"
                        },
                        {
                            "notice": "The VestingSchedule was not found"
                        }
                    ],
                    "VestingScheduleNotRevocable()": [
                        {
                            "notice": "The vesting schedule is not revocable"
                        }
                    ],
                    "VestingScheduleNotRevocableInPast()": [
                        {
                            "notice": "Attempt to revoke a schedule in the past"
                        }
                    ],
                    "ZeroReleasableAmount()": [
                        {
                            "notice": "No token to release"
                        }
                    ]
                },
                "events": {
                    "CreatedVestingSchedule(uint256,address,address,uint256)": {
                        "notice": "A new vesting schedule has been created"
                    },
                    "DelegatedVestingEscrow(uint256,address,address,address)": {
                        "notice": "Vesting escrow has been delegated"
                    },
                    "ReleasedVestingSchedule(uint256,uint256)": {
                        "notice": "Vesting schedule has been released"
                    },
                    "RevokedVestingSchedule(uint256,uint256,uint256)": {
                        "notice": "Vesting schedule has been revoked"
                    }
                },
                "kind": "user",
                "methods": {
                    "computeVestingReleasableAmount(uint256)": {
                        "notice": "Computes the releasable amount of tokens for a vesting schedule."
                    },
                    "computeVestingVestedAmount(uint256)": {
                        "notice": "Computes the vested amount of tokens for a vesting schedule."
                    },
                    "createVestingSchedule(uint64,uint32,uint32,uint32,uint32,bool,uint256,address,address)": {
                        "notice": "Creates a new vesting scheduleThere may delay between the time a user should start vesting tokens and the time the vesting schedule is actually created on the contract.Typically a user joins the Liquid Collective but some weeks pass before the user gets all legal agreements in place and signed for thetoken grant emission to happen. In this case, the vesting schedule created for the token grant would start on the join date which is in the past."
                    },
                    "delegateVestingEscrow(uint256,address)": {
                        "notice": "Delegate vesting escrowed tokens"
                    },
                    "getVestingSchedule(uint256)": {
                        "notice": "Get vesting schedule"
                    },
                    "getVestingScheduleCount()": {
                        "notice": "Get count of vesting schedules"
                    },
                    "initTLCV1(address)": {
                        "notice": "Initializes the TLC Token"
                    },
                    "migrateVestingSchedules()": {
                        "notice": "Migrates the vesting schedule state structures"
                    },
                    "releaseVestingSchedule(uint256)": {
                        "notice": "Release vesting scheduleWhen tokens are released from the escrow, the delegated address of the escrow will see its voting power decrease.The beneficiary has to make sure its delegation parameters are set properly to be able to use/delegate the voting power of its balance."
                    },
                    "revokeVestingSchedule(uint256,uint64)": {
                        "notice": "Revoke vesting schedule"
                    },
                    "vestingEscrow(uint256)": {
                        "notice": "Get the address of the escrow for a vesting schedule"
                    }
                },
                "notice": "The TLC token has a max supply of 1,000,000,000 and 18 decimal places.Upon deployment, all minted tokens are send to account provided at construction, in charge of creating the vesting schedulesThe contract is based on ERC20Votes by OpenZeppelin. Users need to delegate their voting power to someone or themselves to be able to vote.The contract contains vesting logics allowing vested users to still be able to delegate their voting power while their tokens are held in an escrow",
                "version": 1
            },
            {
                "errors": {
                    "InvalidRevokedVestingScheduleEnd()": [
                        {
                            "notice": "Attempt to revoke a vesting schedule with an invalid end parameter"
                        }
                    ],
                    "InvalidVestingScheduleParameter(string)": [
                        {
                            "notice": "Invalid parameter for a vesting schedule"
                        }
                    ],
                    "InvalidZeroAddress()": [
                        {
                            "notice": "The address is zero"
                        }
                    ],
                    "Unauthorized(address)": [
                        {
                            "notice": "The operator is unauthorized for the caller"
                        }
                    ],
                    "UnsufficientVestingScheduleCreatorBalance()": [
                        {
                            "notice": "Vesting schedule creator has unsufficient balance to create vesting schedule"
                        }
                    ],
                    "VestingScheduleIsLocked()": [
                        {
                            "notice": "The vesting schedule is locked"
                        }
                    ],
                    "VestingScheduleNotFound(uint256)": [
                        {
                            "notice": "The VestingSchedule was not found"
                        },
                        {
                            "notice": "The VestingSchedule was not found"
                        }
                    ],
                    "VestingScheduleNotRevocable()": [
                        {
                            "notice": "The vesting schedule is not revocable"
                        }
                    ],
                    "VestingScheduleNotRevocableInPast()": [
                        {
                            "notice": "Attempt to revoke a schedule in the past"
                        }
                    ],
                    "ZeroReleasableAmount()": [
                        {
                            "notice": "No token to release"
                        }
                    ]
                },
                "events": {
                    "CreatedVestingSchedule(uint256,address,address,uint256)": {
                        "notice": "A new vesting schedule has been created"
                    },
                    "DelegatedVestingEscrow(uint256,address,address,address)": {
                        "notice": "Vesting escrow has been delegated"
                    },
                    "ReleasedVestingSchedule(uint256,uint256)": {
                        "notice": "Vesting schedule has been released"
                    },
                    "RevokedVestingSchedule(uint256,uint256,uint256)": {
                        "notice": "Vesting schedule has been revoked"
                    }
                },
                "kind": "user",
                "methods": {
                    "computeVestingReleasableAmount(uint256)": {
                        "notice": "Computes the releasable amount of tokens for a vesting schedule."
                    },
                    "computeVestingVestedAmount(uint256)": {
                        "notice": "Computes the vested amount of tokens for a vesting schedule."
                    },
                    "constructor": {
                        "notice": "Disables implementation initialization"
                    },
                    "createVestingSchedule(uint64,uint32,uint32,uint32,uint32,bool,uint256,address,address)": {
                        "notice": "Creates a new vesting scheduleThere may delay between the time a user should start vesting tokens and the time the vesting schedule is actually created on the contract.Typically a user joins the Liquid Collective but some weeks pass before the user gets all legal agreements in place and signed for thetoken grant emission to happen. In this case, the vesting schedule created for the token grant would start on the join date which is in the past."
                    },
                    "delegateVestingEscrow(uint256,address)": {
                        "notice": "Delegate vesting escrowed tokens"
                    },
                    "getVestingSchedule(uint256)": {
                        "notice": "Get vesting schedule"
                    },
                    "getVestingScheduleCount()": {
                        "notice": "Get count of vesting schedules"
                    },
                    "initTLCV1(address)": {
                        "notice": "Initializes the TLC Token"
                    },
                    "migrateVestingSchedules()": {
                        "notice": "Migrates the vesting schedule state structures"
                    },
                    "releaseVestingSchedule(uint256)": {
                        "notice": "Release vesting scheduleWhen tokens are released from the escrow, the delegated address of the escrow will see its voting power decrease.The beneficiary has to make sure its delegation parameters are set properly to be able to use/delegate the voting power of its balance."
                    },
                    "revokeVestingSchedule(uint256,uint64)": {
                        "notice": "Revoke vesting schedule"
                    },
                    "vestingEscrow(uint256)": {
                        "notice": "Get the address of the escrow for a vesting schedule"
                    }
                },
                "notice": "The TLC token has a max supply of 1,000,000,000 and 18 decimal places.Upon deployment, all minted tokens are send to account provided at construction, in charge of creating the vesting schedulesThe contract is based on ERC20Votes by OpenZeppelin. Users need to delegate their voting power to someone or themselves to be able to vote.The contract contains vesting logics allowing vested users to still be able to delegate their voting power while their tokens are held in an escrow",
                "version": 1
            },
            {
                "errors": {
                    "InvalidRevokedVestingScheduleEnd()": [
                        {
                            "notice": "Attempt to revoke a vesting schedule with an invalid end parameter"
                        }
                    ],
                    "InvalidVestingScheduleParameter(string)": [
                        {
                            "notice": "Invalid parameter for a vesting schedule"
                        }
                    ],
                    "InvalidZeroAddress()": [
                        {
                            "notice": "The address is zero"
                        }
                    ],
                    "Unauthorized(address)": [
                        {
                            "notice": "The operator is unauthorized for the caller"
                        }
                    ],
                    "UnsufficientVestingScheduleCreatorBalance()": [
                        {
                            "notice": "Vesting schedule creator has unsufficient balance to create vesting schedule"
                        }
                    ],
                    "VestingScheduleIsLocked()": [
                        {
                            "notice": "The vesting schedule is locked"
                        }
                    ],
                    "VestingScheduleNotFound(uint256)": [
                        {
                            "notice": "The VestingSchedule was not found"
                        },
                        {
                            "notice": "The VestingSchedule was not found"
                        }
                    ],
                    "VestingScheduleNotRevocable()": [
                        {
                            "notice": "The vesting schedule is not revocable"
                        }
                    ],
                    "VestingScheduleNotRevocableInPast()": [
                        {
                            "notice": "Attempt to revoke a schedule in the past"
                        }
                    ],
                    "ZeroReleasableAmount()": [
                        {
                            "notice": "No token to release"
                        }
                    ]
                },
                "events": {
                    "CreatedVestingSchedule(uint256,address,address,uint256)": {
                        "notice": "A new vesting schedule has been created"
                    },
                    "DelegatedVestingEscrow(uint256,address,address,address)": {
                        "notice": "Vesting escrow has been delegated"
                    },
                    "ReleasedVestingSchedule(uint256,uint256)": {
                        "notice": "Vesting schedule has been released"
                    },
                    "RevokedVestingSchedule(uint256,uint256,uint256)": {
                        "notice": "Vesting schedule has been revoked"
                    }
                },
                "kind": "user",
                "methods": {
                    "computeVestingReleasableAmount(uint256)": {
                        "notice": "Computes the releasable amount of tokens for a vesting schedule."
                    },
                    "computeVestingVestedAmount(uint256)": {
                        "notice": "Computes the vested amount of tokens for a vesting schedule."
                    },
                    "constructor": {
                        "notice": "Disables implementation initialization"
                    },
                    "createVestingSchedule(uint64,uint32,uint32,uint32,uint32,bool,uint256,address,address)": {
                        "notice": "Creates a new vesting scheduleThere may delay between the time a user should start vesting tokens and the time the vesting schedule is actually created on the contract.Typically a user joins the Liquid Collective but some weeks pass before the user gets all legal agreements in place and signed for thetoken grant emission to happen. In this case, the vesting schedule created for the token grant would start on the join date which is in the past."
                    },
                    "delegateVestingEscrow(uint256,address)": {
                        "notice": "Delegate vesting escrowed tokens"
                    },
                    "getVestingSchedule(uint256)": {
                        "notice": "Get vesting schedule"
                    },
                    "getVestingScheduleCount()": {
                        "notice": "Get count of vesting schedules"
                    },
                    "initTLCV1(address)": {
                        "notice": "Initializes the TLC Token"
                    },
                    "migrateVestingSchedules()": {
                        "notice": "Migrates the vesting schedule state structures"
                    },
                    "releaseVestingSchedule(uint256)": {
                        "notice": "Release vesting scheduleWhen tokens are released from the escrow, the delegated address of the escrow will see its voting power decrease.The beneficiary has to make sure its delegation parameters are set properly to be able to use/delegate the voting power of its balance."
                    },
                    "revokeVestingSchedule(uint256,uint64)": {
                        "notice": "Revoke vesting schedule"
                    },
                    "vestingEscrow(uint256)": {
                        "notice": "Get the address of the escrow for a vesting schedule"
                    }
                },
                "notice": "The TLC token has a max supply of 1,000,000,000 and 18 decimal places.Upon deployment, all minted tokens are send to account provided at construction, in charge of creating the vesting schedulesThe contract is based on ERC20Votes by OpenZeppelin. Users need to delegate their voting power to someone or themselves to be able to vote.The contract contains vesting logics allowing vested users to still be able to delegate their voting power while their tokens are held in an escrow",
                "version": 1
            },
            {
                "errors": {
                    "GlobalUnlockUnderlfow()": [
                        {
                            "notice": "Underflow in global unlock logic (should never happen)"
                        }
                    ],
                    "InvalidRevokedVestingScheduleEnd()": [
                        {
                            "notice": "Attempt to revoke a vesting schedule with an invalid end parameter"
                        }
                    ],
                    "InvalidVestingScheduleParameter(string)": [
                        {
                            "notice": "Invalid parameter for a vesting schedule"
                        }
                    ],
                    "InvalidZeroAddress()": [
                        {
                            "notice": "The address is zero"
                        }
                    ],
                    "Unauthorized(address)": [
                        {
                            "notice": "The operator is unauthorized for the caller"
                        }
                    ],
                    "UnsufficientVestingScheduleCreatorBalance()": [
                        {
                            "notice": "Vesting schedule creator has unsufficient balance to create vesting schedule"
                        }
                    ],
                    "VestingScheduleIsLocked()": [
                        {
                            "notice": "The vesting schedule is locked"
                        }
                    ],
                    "VestingScheduleNotFound(uint256)": [
                        {
                            "notice": "The VestingSchedule was not found"
                        },
                        {
                            "notice": "The VestingSchedule was not found"
                        }
                    ],
                    "VestingScheduleNotRevocable()": [
                        {
                            "notice": "The vesting schedule is not revocable"
                        }
                    ],
                    "VestingScheduleNotRevocableInPast()": [
                        {
                            "notice": "Attempt to revoke a schedule in the past"
                        }
                    ],
                    "ZeroReleasableAmount()": [
                        {
                            "notice": "No token to release"
                        }
                    ]
                },
                "events": {
                    "CreatedVestingSchedule(uint256,address,address,uint256)": {
                        "notice": "A new vesting schedule has been created"
                    },
                    "DelegatedVestingEscrow(uint256,address,address,address)": {
                        "notice": "Vesting escrow has been delegated"
                    },
                    "ReleasedVestingSchedule(uint256,uint256)": {
                        "notice": "Vesting schedule has been released"
                    },
                    "RevokedVestingSchedule(uint256,uint256,uint256)": {
                        "notice": "Vesting schedule has been revoked"
                    }
                },
                "kind": "user",
                "methods": {
                    "computeVestingReleasableAmount(uint256)": {
                        "notice": "Computes the releasable amount of tokens for a vesting schedule."
                    },
                    "computeVestingVestedAmount(uint256)": {
                        "notice": "Computes the vested amount of tokens for a vesting schedule."
                    },
                    "constructor": {
                        "notice": "Disables implementation initialization"
                    },
                    "createVestingSchedule(uint64,uint32,uint32,uint32,uint32,bool,uint256,address,address,bool)": {
                        "notice": "Creates a new vesting scheduleThere may delay between the time a user should start vesting tokens and the time the vesting schedule is actually created on the contract.Typically a user joins the Liquid Collective but some weeks pass before the user gets all legal agreements in place and signed for thetoken grant emission to happen. In this case, the vesting schedule created for the token grant would start on the join date which is in the past."
                    },
                    "delegateVestingEscrow(uint256,address)": {
                        "notice": "Delegate vesting escrowed tokens"
                    },
                    "getVestingSchedule(uint256)": {
                        "notice": "Get vesting schedule"
                    },
                    "getVestingScheduleCount()": {
                        "notice": "Get count of vesting schedules"
                    },
                    "initTLCV1(address)": {
                        "notice": "Initializes the TLC Token"
                    },
                    "isGlobalUnlockedScheduleIgnored(uint256)": {
                        "notice": "Get vesting global unlock schedule activation status for a vesting schedule"
                    },
                    "migrateVestingSchedules()": {
                        "notice": "Migrates the vesting schedule state structures"
                    },
                    "releaseVestingSchedule(uint256)": {
                        "notice": "Release vesting scheduleWhen tokens are released from the escrow, the delegated address of the escrow will see its voting power decrease.The beneficiary has to make sure its delegation parameters are set properly to be able to use/delegate the voting power of its balance."
                    },
                    "revokeVestingSchedule(uint256,uint64)": {
                        "notice": "Revoke vesting schedule"
                    },
                    "vestingEscrow(uint256)": {
                        "notice": "Get the address of the escrow for a vesting schedule"
                    }
                },
                "notice": "The TLC token has a max supply of 1,000,000,000 and 18 decimal places.Upon deployment, all minted tokens are send to account provided at construction, in charge of creating the vesting schedulesThe contract is based on ERC20Votes by OpenZeppelin. Users need to delegate their voting power to someone or themselves to be able to vote.The contract contains vesting logics allowing vested users to still be able to delegate their voting power while their tokens are held in an escrow",
                "version": 1
            }
        ],
        "storageLayout": [
            {
                "storage": [
                    {
                        "astId": 12173,
                        "contract": "contracts/src/TLC.1.sol:TLCV1",
                        "label": "_initialized",
                        "offset": 0,
                        "slot": "0",
                        "type": "t_uint8"
                    },
                    {
                        "astId": 12176,
                        "contract": "contracts/src/TLC.1.sol:TLCV1",
                        "label": "_initializing",
                        "offset": 1,
                        "slot": "0",
                        "type": "t_bool"
                    },
                    {
                        "astId": 14319,
                        "contract": "contracts/src/TLC.1.sol:TLCV1",
                        "label": "__gap",
                        "offset": 0,
                        "slot": "1",
                        "type": "t_array(t_uint256)50_storage"
                    },
                    {
                        "astId": 12354,
                        "contract": "contracts/src/TLC.1.sol:TLCV1",
                        "label": "_balances",
                        "offset": 0,
                        "slot": "51",
                        "type": "t_mapping(t_address,t_uint256)"
                    },
                    {
                        "astId": 12360,
                        "contract": "contracts/src/TLC.1.sol:TLCV1",
                        "label": "_allowances",
                        "offset": 0,
                        "slot": "52",
                        "type": "t_mapping(t_address,t_mapping(t_address,t_uint256))"
                    },
                    {
                        "astId": 12362,
                        "contract": "contracts/src/TLC.1.sol:TLCV1",
                        "label": "_totalSupply",
                        "offset": 0,
                        "slot": "53",
                        "type": "t_uint256"
                    },
                    {
                        "astId": 12364,
                        "contract": "contracts/src/TLC.1.sol:TLCV1",
                        "label": "_name",
                        "offset": 0,
                        "slot": "54",
                        "type": "t_string_storage"
                    },
                    {
                        "astId": 12366,
                        "contract": "contracts/src/TLC.1.sol:TLCV1",
                        "label": "_symbol",
                        "offset": 0,
                        "slot": "55",
                        "type": "t_string_storage"
                    },
                    {
                        "astId": 12946,
                        "contract": "contracts/src/TLC.1.sol:TLCV1",
                        "label": "__gap",
                        "offset": 0,
                        "slot": "56",
                        "type": "t_array(t_uint256)45_storage"
                    },
                    {
                        "astId": 14939,
                        "contract": "contracts/src/TLC.1.sol:TLCV1",
                        "label": "_HASHED_NAME",
                        "offset": 0,
                        "slot": "101",
                        "type": "t_bytes32"
                    },
                    {
                        "astId": 14941,
                        "contract": "contracts/src/TLC.1.sol:TLCV1",
                        "label": "_HASHED_VERSION",
                        "offset": 0,
                        "slot": "102",
                        "type": "t_bytes32"
                    },
                    {
                        "astId": 15079,
                        "contract": "contracts/src/TLC.1.sol:TLCV1",
                        "label": "__gap",
                        "offset": 0,
                        "slot": "103",
                        "type": "t_array(t_uint256)50_storage"
                    },
                    {
                        "astId": 13793,
                        "contract": "contracts/src/TLC.1.sol:TLCV1",
                        "label": "_nonces",
                        "offset": 0,
                        "slot": "153",
                        "type": "t_mapping(t_address,t_struct(Counter)14326_storage)"
                    },
                    {
                        "astId": 13801,
                        "contract": "contracts/src/TLC.1.sol:TLCV1",
                        "label": "_PERMIT_TYPEHASH_DEPRECATED_SLOT",
                        "offset": 0,
                        "slot": "154",
                        "type": "t_bytes32"
                    },
                    {
                        "astId": 13957,
                        "contract": "contracts/src/TLC.1.sol:TLCV1",
                        "label": "__gap",
                        "offset": 0,
                        "slot": "155",
                        "type": "t_array(t_uint256)49_storage"
                    },
                    {
                        "astId": 13066,
                        "contract": "contracts/src/TLC.1.sol:TLCV1",
                        "label": "_delegates",
                        "offset": 0,
                        "slot": "204",
                        "type": "t_mapping(t_address,t_address)"
                    },
                    {
                        "astId": 13072,
                        "contract": "contracts/src/TLC.1.sol:TLCV1",
                        "label": "_checkpoints",
                        "offset": 0,
                        "slot": "205",
                        "type": "t_mapping(t_address,t_array(t_struct(Checkpoint)13057_storage)dyn_storage)"
                    },
                    {
                        "astId": 13076,
                        "contract": "contracts/src/TLC.1.sol:TLCV1",
                        "label": "_totalSupplyCheckpoints",
                        "offset": 0,
                        "slot": "206",
                        "type": "t_array(t_struct(Checkpoint)13057_storage)dyn_storage"
                    },
                    {
                        "astId": 13741,
                        "contract": "contracts/src/TLC.1.sol:TLCV1",
                        "label": "__gap",
                        "offset": 0,
                        "slot": "207",
                        "type": "t_array(t_uint256)47_storage"
                    }
                ],
                "types": {
                    "t_address": {
                        "encoding": "inplace",
                        "label": "address",
                        "numberOfBytes": "20"
                    },
                    "t_array(t_struct(Checkpoint)13057_storage)dyn_storage": {
                        "base": "t_struct(Checkpoint)13057_storage",
                        "encoding": "dynamic_array",
                        "label": "struct ERC20VotesUpgradeable.Checkpoint[]",
                        "numberOfBytes": "32"
                    },
                    "t_array(t_uint256)45_storage": {
                        "base": "t_uint256",
                        "encoding": "inplace",
                        "label": "uint256[45]",
                        "numberOfBytes": "1440"
                    },
                    "t_array(t_uint256)47_storage": {
                        "base": "t_uint256",
                        "encoding": "inplace",
                        "label": "uint256[47]",
                        "numberOfBytes": "1504"
                    },
                    "t_array(t_uint256)49_storage": {
                        "base": "t_uint256",
                        "encoding": "inplace",
                        "label": "uint256[49]",
                        "numberOfBytes": "1568"
                    },
                    "t_array(t_uint256)50_storage": {
                        "base": "t_uint256",
                        "encoding": "inplace",
                        "label": "uint256[50]",
                        "numberOfBytes": "1600"
                    },
                    "t_bool": {
                        "encoding": "inplace",
                        "label": "bool",
                        "numberOfBytes": "1"
                    },
                    "t_bytes32": {
                        "encoding": "inplace",
                        "label": "bytes32",
                        "numberOfBytes": "32"
                    },
                    "t_mapping(t_address,t_address)": {
                        "encoding": "mapping",
                        "key": "t_address",
                        "label": "mapping(address => address)",
                        "numberOfBytes": "32",
                        "value": "t_address"
                    },
                    "t_mapping(t_address,t_array(t_struct(Checkpoint)13057_storage)dyn_storage)": {
                        "encoding": "mapping",
                        "key": "t_address",
                        "label": "mapping(address => struct ERC20VotesUpgradeable.Checkpoint[])",
                        "numberOfBytes": "32",
                        "value": "t_array(t_struct(Checkpoint)13057_storage)dyn_storage"
                    },
                    "t_mapping(t_address,t_mapping(t_address,t_uint256))": {
                        "encoding": "mapping",
                        "key": "t_address",
                        "label": "mapping(address => mapping(address => uint256))",
                        "numberOfBytes": "32",
                        "value": "t_mapping(t_address,t_uint256)"
                    },
                    "t_mapping(t_address,t_struct(Counter)14326_storage)": {
                        "encoding": "mapping",
                        "key": "t_address",
                        "label": "mapping(address => struct CountersUpgradeable.Counter)",
                        "numberOfBytes": "32",
                        "value": "t_struct(Counter)14326_storage"
                    },
                    "t_mapping(t_address,t_uint256)": {
                        "encoding": "mapping",
                        "key": "t_address",
                        "label": "mapping(address => uint256)",
                        "numberOfBytes": "32",
                        "value": "t_uint256"
                    },
                    "t_string_storage": {
                        "encoding": "bytes",
                        "label": "string",
                        "numberOfBytes": "32"
                    },
                    "t_struct(Checkpoint)13057_storage": {
                        "encoding": "inplace",
                        "label": "struct ERC20VotesUpgradeable.Checkpoint",
                        "members": [
                            {
                                "astId": 13054,
                                "contract": "contracts/src/TLC.1.sol:TLCV1",
                                "label": "fromBlock",
                                "offset": 0,
                                "slot": "0",
                                "type": "t_uint32"
                            },
                            {
                                "astId": 13056,
                                "contract": "contracts/src/TLC.1.sol:TLCV1",
                                "label": "votes",
                                "offset": 4,
                                "slot": "0",
                                "type": "t_uint224"
                            }
                        ],
                        "numberOfBytes": "32"
                    },
                    "t_struct(Counter)14326_storage": {
                        "encoding": "inplace",
                        "label": "struct CountersUpgradeable.Counter",
                        "members": [
                            {
                                "astId": 14325,
                                "contract": "contracts/src/TLC.1.sol:TLCV1",
                                "label": "_value",
                                "offset": 0,
                                "slot": "0",
                                "type": "t_uint256"
                            }
                        ],
                        "numberOfBytes": "32"
                    },
                    "t_uint224": {
                        "encoding": "inplace",
                        "label": "uint224",
                        "numberOfBytes": "28"
                    },
                    "t_uint256": {
                        "encoding": "inplace",
                        "label": "uint256",
                        "numberOfBytes": "32"
                    },
                    "t_uint32": {
                        "encoding": "inplace",
                        "label": "uint32",
                        "numberOfBytes": "4"
                    },
                    "t_uint8": {
                        "encoding": "inplace",
                        "label": "uint8",
                        "numberOfBytes": "1"
                    }
                }
            },
            {
                "storage": [
                    {
                        "astId": 13119,
                        "contract": "contracts/src/TLC.1.sol:TLCV1",
                        "label": "_initialized",
                        "offset": 0,
                        "slot": "0",
                        "type": "t_uint8"
                    },
                    {
                        "astId": 13122,
                        "contract": "contracts/src/TLC.1.sol:TLCV1",
                        "label": "_initializing",
                        "offset": 1,
                        "slot": "0",
                        "type": "t_bool"
                    },
                    {
                        "astId": 15265,
                        "contract": "contracts/src/TLC.1.sol:TLCV1",
                        "label": "__gap",
                        "offset": 0,
                        "slot": "1",
                        "type": "t_array(t_uint256)50_storage"
                    },
                    {
                        "astId": 13300,
                        "contract": "contracts/src/TLC.1.sol:TLCV1",
                        "label": "_balances",
                        "offset": 0,
                        "slot": "51",
                        "type": "t_mapping(t_address,t_uint256)"
                    },
                    {
                        "astId": 13306,
                        "contract": "contracts/src/TLC.1.sol:TLCV1",
                        "label": "_allowances",
                        "offset": 0,
                        "slot": "52",
                        "type": "t_mapping(t_address,t_mapping(t_address,t_uint256))"
                    },
                    {
                        "astId": 13308,
                        "contract": "contracts/src/TLC.1.sol:TLCV1",
                        "label": "_totalSupply",
                        "offset": 0,
                        "slot": "53",
                        "type": "t_uint256"
                    },
                    {
                        "astId": 13310,
                        "contract": "contracts/src/TLC.1.sol:TLCV1",
                        "label": "_name",
                        "offset": 0,
                        "slot": "54",
                        "type": "t_string_storage"
                    },
                    {
                        "astId": 13312,
                        "contract": "contracts/src/TLC.1.sol:TLCV1",
                        "label": "_symbol",
                        "offset": 0,
                        "slot": "55",
                        "type": "t_string_storage"
                    },
                    {
                        "astId": 13892,
                        "contract": "contracts/src/TLC.1.sol:TLCV1",
                        "label": "__gap",
                        "offset": 0,
                        "slot": "56",
                        "type": "t_array(t_uint256)45_storage"
                    },
                    {
                        "astId": 15885,
                        "contract": "contracts/src/TLC.1.sol:TLCV1",
                        "label": "_HASHED_NAME",
                        "offset": 0,
                        "slot": "101",
                        "type": "t_bytes32"
                    },
                    {
                        "astId": 15887,
                        "contract": "contracts/src/TLC.1.sol:TLCV1",
                        "label": "_HASHED_VERSION",
                        "offset": 0,
                        "slot": "102",
                        "type": "t_bytes32"
                    },
                    {
                        "astId": 16025,
                        "contract": "contracts/src/TLC.1.sol:TLCV1",
                        "label": "__gap",
                        "offset": 0,
                        "slot": "103",
                        "type": "t_array(t_uint256)50_storage"
                    },
                    {
                        "astId": 14739,
                        "contract": "contracts/src/TLC.1.sol:TLCV1",
                        "label": "_nonces",
                        "offset": 0,
                        "slot": "153",
                        "type": "t_mapping(t_address,t_struct(Counter)15272_storage)"
                    },
                    {
                        "astId": 14747,
                        "contract": "contracts/src/TLC.1.sol:TLCV1",
                        "label": "_PERMIT_TYPEHASH_DEPRECATED_SLOT",
                        "offset": 0,
                        "slot": "154",
                        "type": "t_bytes32"
                    },
                    {
                        "astId": 14903,
                        "contract": "contracts/src/TLC.1.sol:TLCV1",
                        "label": "__gap",
                        "offset": 0,
                        "slot": "155",
                        "type": "t_array(t_uint256)49_storage"
                    },
                    {
                        "astId": 14012,
                        "contract": "contracts/src/TLC.1.sol:TLCV1",
                        "label": "_delegates",
                        "offset": 0,
                        "slot": "204",
                        "type": "t_mapping(t_address,t_address)"
                    },
                    {
                        "astId": 14018,
                        "contract": "contracts/src/TLC.1.sol:TLCV1",
                        "label": "_checkpoints",
                        "offset": 0,
                        "slot": "205",
                        "type": "t_mapping(t_address,t_array(t_struct(Checkpoint)14003_storage)dyn_storage)"
                    },
                    {
                        "astId": 14022,
                        "contract": "contracts/src/TLC.1.sol:TLCV1",
                        "label": "_totalSupplyCheckpoints",
                        "offset": 0,
                        "slot": "206",
                        "type": "t_array(t_struct(Checkpoint)14003_storage)dyn_storage"
                    },
                    {
                        "astId": 14687,
                        "contract": "contracts/src/TLC.1.sol:TLCV1",
                        "label": "__gap",
                        "offset": 0,
                        "slot": "207",
                        "type": "t_array(t_uint256)47_storage"
                    }
                ],
                "types": {
                    "t_address": {
                        "encoding": "inplace",
                        "label": "address",
                        "numberOfBytes": "20"
                    },
                    "t_array(t_struct(Checkpoint)14003_storage)dyn_storage": {
                        "base": "t_struct(Checkpoint)14003_storage",
                        "encoding": "dynamic_array",
                        "label": "struct ERC20VotesUpgradeable.Checkpoint[]",
                        "numberOfBytes": "32"
                    },
                    "t_array(t_uint256)45_storage": {
                        "base": "t_uint256",
                        "encoding": "inplace",
                        "label": "uint256[45]",
                        "numberOfBytes": "1440"
                    },
                    "t_array(t_uint256)47_storage": {
                        "base": "t_uint256",
                        "encoding": "inplace",
                        "label": "uint256[47]",
                        "numberOfBytes": "1504"
                    },
                    "t_array(t_uint256)49_storage": {
                        "base": "t_uint256",
                        "encoding": "inplace",
                        "label": "uint256[49]",
                        "numberOfBytes": "1568"
                    },
                    "t_array(t_uint256)50_storage": {
                        "base": "t_uint256",
                        "encoding": "inplace",
                        "label": "uint256[50]",
                        "numberOfBytes": "1600"
                    },
                    "t_bool": {
                        "encoding": "inplace",
                        "label": "bool",
                        "numberOfBytes": "1"
                    },
                    "t_bytes32": {
                        "encoding": "inplace",
                        "label": "bytes32",
                        "numberOfBytes": "32"
                    },
                    "t_mapping(t_address,t_address)": {
                        "encoding": "mapping",
                        "key": "t_address",
                        "label": "mapping(address => address)",
                        "numberOfBytes": "32",
                        "value": "t_address"
                    },
                    "t_mapping(t_address,t_array(t_struct(Checkpoint)14003_storage)dyn_storage)": {
                        "encoding": "mapping",
                        "key": "t_address",
                        "label": "mapping(address => struct ERC20VotesUpgradeable.Checkpoint[])",
                        "numberOfBytes": "32",
                        "value": "t_array(t_struct(Checkpoint)14003_storage)dyn_storage"
                    },
                    "t_mapping(t_address,t_mapping(t_address,t_uint256))": {
                        "encoding": "mapping",
                        "key": "t_address",
                        "label": "mapping(address => mapping(address => uint256))",
                        "numberOfBytes": "32",
                        "value": "t_mapping(t_address,t_uint256)"
                    },
                    "t_mapping(t_address,t_struct(Counter)15272_storage)": {
                        "encoding": "mapping",
                        "key": "t_address",
                        "label": "mapping(address => struct CountersUpgradeable.Counter)",
                        "numberOfBytes": "32",
                        "value": "t_struct(Counter)15272_storage"
                    },
                    "t_mapping(t_address,t_uint256)": {
                        "encoding": "mapping",
                        "key": "t_address",
                        "label": "mapping(address => uint256)",
                        "numberOfBytes": "32",
                        "value": "t_uint256"
                    },
                    "t_string_storage": {
                        "encoding": "bytes",
                        "label": "string",
                        "numberOfBytes": "32"
                    },
                    "t_struct(Checkpoint)14003_storage": {
                        "encoding": "inplace",
                        "label": "struct ERC20VotesUpgradeable.Checkpoint",
                        "members": [
                            {
                                "astId": 14000,
                                "contract": "contracts/src/TLC.1.sol:TLCV1",
                                "label": "fromBlock",
                                "offset": 0,
                                "slot": "0",
                                "type": "t_uint32"
                            },
                            {
                                "astId": 14002,
                                "contract": "contracts/src/TLC.1.sol:TLCV1",
                                "label": "votes",
                                "offset": 4,
                                "slot": "0",
                                "type": "t_uint224"
                            }
                        ],
                        "numberOfBytes": "32"
                    },
                    "t_struct(Counter)15272_storage": {
                        "encoding": "inplace",
                        "label": "struct CountersUpgradeable.Counter",
                        "members": [
                            {
                                "astId": 15271,
                                "contract": "contracts/src/TLC.1.sol:TLCV1",
                                "label": "_value",
                                "offset": 0,
                                "slot": "0",
                                "type": "t_uint256"
                            }
                        ],
                        "numberOfBytes": "32"
                    },
                    "t_uint224": {
                        "encoding": "inplace",
                        "label": "uint224",
                        "numberOfBytes": "28"
                    },
                    "t_uint256": {
                        "encoding": "inplace",
                        "label": "uint256",
                        "numberOfBytes": "32"
                    },
                    "t_uint32": {
                        "encoding": "inplace",
                        "label": "uint32",
                        "numberOfBytes": "4"
                    },
                    "t_uint8": {
                        "encoding": "inplace",
                        "label": "uint8",
                        "numberOfBytes": "1"
                    }
                }
            },
            {
                "storage": [
                    {
                        "astId": 19272,
                        "contract": "contracts/src/TLC.1.sol:TLCV1",
                        "label": "_initialized",
                        "offset": 0,
                        "slot": "0",
                        "type": "t_uint8"
                    },
                    {
                        "astId": 19275,
                        "contract": "contracts/src/TLC.1.sol:TLCV1",
                        "label": "_initializing",
                        "offset": 1,
                        "slot": "0",
                        "type": "t_bool"
                    },
                    {
                        "astId": 21418,
                        "contract": "contracts/src/TLC.1.sol:TLCV1",
                        "label": "__gap",
                        "offset": 0,
                        "slot": "1",
                        "type": "t_array(t_uint256)50_storage"
                    },
                    {
                        "astId": 19453,
                        "contract": "contracts/src/TLC.1.sol:TLCV1",
                        "label": "_balances",
                        "offset": 0,
                        "slot": "51",
                        "type": "t_mapping(t_address,t_uint256)"
                    },
                    {
                        "astId": 19459,
                        "contract": "contracts/src/TLC.1.sol:TLCV1",
                        "label": "_allowances",
                        "offset": 0,
                        "slot": "52",
                        "type": "t_mapping(t_address,t_mapping(t_address,t_uint256))"
                    },
                    {
                        "astId": 19461,
                        "contract": "contracts/src/TLC.1.sol:TLCV1",
                        "label": "_totalSupply",
                        "offset": 0,
                        "slot": "53",
                        "type": "t_uint256"
                    },
                    {
                        "astId": 19463,
                        "contract": "contracts/src/TLC.1.sol:TLCV1",
                        "label": "_name",
                        "offset": 0,
                        "slot": "54",
                        "type": "t_string_storage"
                    },
                    {
                        "astId": 19465,
                        "contract": "contracts/src/TLC.1.sol:TLCV1",
                        "label": "_symbol",
                        "offset": 0,
                        "slot": "55",
                        "type": "t_string_storage"
                    },
                    {
                        "astId": 20045,
                        "contract": "contracts/src/TLC.1.sol:TLCV1",
                        "label": "__gap",
                        "offset": 0,
                        "slot": "56",
                        "type": "t_array(t_uint256)45_storage"
                    },
                    {
                        "astId": 22038,
                        "contract": "contracts/src/TLC.1.sol:TLCV1",
                        "label": "_HASHED_NAME",
                        "offset": 0,
                        "slot": "101",
                        "type": "t_bytes32"
                    },
                    {
                        "astId": 22040,
                        "contract": "contracts/src/TLC.1.sol:TLCV1",
                        "label": "_HASHED_VERSION",
                        "offset": 0,
                        "slot": "102",
                        "type": "t_bytes32"
                    },
                    {
                        "astId": 22178,
                        "contract": "contracts/src/TLC.1.sol:TLCV1",
                        "label": "__gap",
                        "offset": 0,
                        "slot": "103",
                        "type": "t_array(t_uint256)50_storage"
                    },
                    {
                        "astId": 20892,
                        "contract": "contracts/src/TLC.1.sol:TLCV1",
                        "label": "_nonces",
                        "offset": 0,
                        "slot": "153",
                        "type": "t_mapping(t_address,t_struct(Counter)21425_storage)"
                    },
                    {
                        "astId": 20900,
                        "contract": "contracts/src/TLC.1.sol:TLCV1",
                        "label": "_PERMIT_TYPEHASH_DEPRECATED_SLOT",
                        "offset": 0,
                        "slot": "154",
                        "type": "t_bytes32"
                    },
                    {
                        "astId": 21056,
                        "contract": "contracts/src/TLC.1.sol:TLCV1",
                        "label": "__gap",
                        "offset": 0,
                        "slot": "155",
                        "type": "t_array(t_uint256)49_storage"
                    },
                    {
                        "astId": 20165,
                        "contract": "contracts/src/TLC.1.sol:TLCV1",
                        "label": "_delegates",
                        "offset": 0,
                        "slot": "204",
                        "type": "t_mapping(t_address,t_address)"
                    },
                    {
                        "astId": 20171,
                        "contract": "contracts/src/TLC.1.sol:TLCV1",
                        "label": "_checkpoints",
                        "offset": 0,
                        "slot": "205",
                        "type": "t_mapping(t_address,t_array(t_struct(Checkpoint)20156_storage)dyn_storage)"
                    },
                    {
                        "astId": 20175,
                        "contract": "contracts/src/TLC.1.sol:TLCV1",
                        "label": "_totalSupplyCheckpoints",
                        "offset": 0,
                        "slot": "206",
                        "type": "t_array(t_struct(Checkpoint)20156_storage)dyn_storage"
                    },
                    {
                        "astId": 20840,
                        "contract": "contracts/src/TLC.1.sol:TLCV1",
                        "label": "__gap",
                        "offset": 0,
                        "slot": "207",
                        "type": "t_array(t_uint256)47_storage"
                    }
                ],
                "types": {
                    "t_address": {
                        "encoding": "inplace",
                        "label": "address",
                        "numberOfBytes": "20"
                    },
                    "t_array(t_struct(Checkpoint)20156_storage)dyn_storage": {
                        "base": "t_struct(Checkpoint)20156_storage",
                        "encoding": "dynamic_array",
                        "label": "struct ERC20VotesUpgradeable.Checkpoint[]",
                        "numberOfBytes": "32"
                    },
                    "t_array(t_uint256)45_storage": {
                        "base": "t_uint256",
                        "encoding": "inplace",
                        "label": "uint256[45]",
                        "numberOfBytes": "1440"
                    },
                    "t_array(t_uint256)47_storage": {
                        "base": "t_uint256",
                        "encoding": "inplace",
                        "label": "uint256[47]",
                        "numberOfBytes": "1504"
                    },
                    "t_array(t_uint256)49_storage": {
                        "base": "t_uint256",
                        "encoding": "inplace",
                        "label": "uint256[49]",
                        "numberOfBytes": "1568"
                    },
                    "t_array(t_uint256)50_storage": {
                        "base": "t_uint256",
                        "encoding": "inplace",
                        "label": "uint256[50]",
                        "numberOfBytes": "1600"
                    },
                    "t_bool": {
                        "encoding": "inplace",
                        "label": "bool",
                        "numberOfBytes": "1"
                    },
                    "t_bytes32": {
                        "encoding": "inplace",
                        "label": "bytes32",
                        "numberOfBytes": "32"
                    },
                    "t_mapping(t_address,t_address)": {
                        "encoding": "mapping",
                        "key": "t_address",
                        "label": "mapping(address => address)",
                        "numberOfBytes": "32",
                        "value": "t_address"
                    },
                    "t_mapping(t_address,t_array(t_struct(Checkpoint)20156_storage)dyn_storage)": {
                        "encoding": "mapping",
                        "key": "t_address",
                        "label": "mapping(address => struct ERC20VotesUpgradeable.Checkpoint[])",
                        "numberOfBytes": "32",
                        "value": "t_array(t_struct(Checkpoint)20156_storage)dyn_storage"
                    },
                    "t_mapping(t_address,t_mapping(t_address,t_uint256))": {
                        "encoding": "mapping",
                        "key": "t_address",
                        "label": "mapping(address => mapping(address => uint256))",
                        "numberOfBytes": "32",
                        "value": "t_mapping(t_address,t_uint256)"
                    },
                    "t_mapping(t_address,t_struct(Counter)21425_storage)": {
                        "encoding": "mapping",
                        "key": "t_address",
                        "label": "mapping(address => struct CountersUpgradeable.Counter)",
                        "numberOfBytes": "32",
                        "value": "t_struct(Counter)21425_storage"
                    },
                    "t_mapping(t_address,t_uint256)": {
                        "encoding": "mapping",
                        "key": "t_address",
                        "label": "mapping(address => uint256)",
                        "numberOfBytes": "32",
                        "value": "t_uint256"
                    },
                    "t_string_storage": {
                        "encoding": "bytes",
                        "label": "string",
                        "numberOfBytes": "32"
                    },
                    "t_struct(Checkpoint)20156_storage": {
                        "encoding": "inplace",
                        "label": "struct ERC20VotesUpgradeable.Checkpoint",
                        "members": [
                            {
                                "astId": 20153,
                                "contract": "contracts/src/TLC.1.sol:TLCV1",
                                "label": "fromBlock",
                                "offset": 0,
                                "slot": "0",
                                "type": "t_uint32"
                            },
                            {
                                "astId": 20155,
                                "contract": "contracts/src/TLC.1.sol:TLCV1",
                                "label": "votes",
                                "offset": 4,
                                "slot": "0",
                                "type": "t_uint224"
                            }
                        ],
                        "numberOfBytes": "32"
                    },
                    "t_struct(Counter)21425_storage": {
                        "encoding": "inplace",
                        "label": "struct CountersUpgradeable.Counter",
                        "members": [
                            {
                                "astId": 21424,
                                "contract": "contracts/src/TLC.1.sol:TLCV1",
                                "label": "_value",
                                "offset": 0,
                                "slot": "0",
                                "type": "t_uint256"
                            }
                        ],
                        "numberOfBytes": "32"
                    },
                    "t_uint224": {
                        "encoding": "inplace",
                        "label": "uint224",
                        "numberOfBytes": "28"
                    },
                    "t_uint256": {
                        "encoding": "inplace",
                        "label": "uint256",
                        "numberOfBytes": "32"
                    },
                    "t_uint32": {
                        "encoding": "inplace",
                        "label": "uint32",
                        "numberOfBytes": "4"
                    },
                    "t_uint8": {
                        "encoding": "inplace",
                        "label": "uint8",
                        "numberOfBytes": "1"
                    }
                }
            },
            {
                "storage": [
                    {
                        "astId": 19589,
                        "contract": "contracts/src/TLC.1.sol:TLCV1",
                        "label": "_initialized",
                        "offset": 0,
                        "slot": "0",
                        "type": "t_uint8"
                    },
                    {
                        "astId": 19592,
                        "contract": "contracts/src/TLC.1.sol:TLCV1",
                        "label": "_initializing",
                        "offset": 1,
                        "slot": "0",
                        "type": "t_bool"
                    },
                    {
                        "astId": 21735,
                        "contract": "contracts/src/TLC.1.sol:TLCV1",
                        "label": "__gap",
                        "offset": 0,
                        "slot": "1",
                        "type": "t_array(t_uint256)50_storage"
                    },
                    {
                        "astId": 19770,
                        "contract": "contracts/src/TLC.1.sol:TLCV1",
                        "label": "_balances",
                        "offset": 0,
                        "slot": "51",
                        "type": "t_mapping(t_address,t_uint256)"
                    },
                    {
                        "astId": 19776,
                        "contract": "contracts/src/TLC.1.sol:TLCV1",
                        "label": "_allowances",
                        "offset": 0,
                        "slot": "52",
                        "type": "t_mapping(t_address,t_mapping(t_address,t_uint256))"
                    },
                    {
                        "astId": 19778,
                        "contract": "contracts/src/TLC.1.sol:TLCV1",
                        "label": "_totalSupply",
                        "offset": 0,
                        "slot": "53",
                        "type": "t_uint256"
                    },
                    {
                        "astId": 19780,
                        "contract": "contracts/src/TLC.1.sol:TLCV1",
                        "label": "_name",
                        "offset": 0,
                        "slot": "54",
                        "type": "t_string_storage"
                    },
                    {
                        "astId": 19782,
                        "contract": "contracts/src/TLC.1.sol:TLCV1",
                        "label": "_symbol",
                        "offset": 0,
                        "slot": "55",
                        "type": "t_string_storage"
                    },
                    {
                        "astId": 20362,
                        "contract": "contracts/src/TLC.1.sol:TLCV1",
                        "label": "__gap",
                        "offset": 0,
                        "slot": "56",
                        "type": "t_array(t_uint256)45_storage"
                    },
                    {
                        "astId": 22355,
                        "contract": "contracts/src/TLC.1.sol:TLCV1",
                        "label": "_HASHED_NAME",
                        "offset": 0,
                        "slot": "101",
                        "type": "t_bytes32"
                    },
                    {
                        "astId": 22357,
                        "contract": "contracts/src/TLC.1.sol:TLCV1",
                        "label": "_HASHED_VERSION",
                        "offset": 0,
                        "slot": "102",
                        "type": "t_bytes32"
                    },
                    {
                        "astId": 22495,
                        "contract": "contracts/src/TLC.1.sol:TLCV1",
                        "label": "__gap",
                        "offset": 0,
                        "slot": "103",
                        "type": "t_array(t_uint256)50_storage"
                    },
                    {
                        "astId": 21209,
                        "contract": "contracts/src/TLC.1.sol:TLCV1",
                        "label": "_nonces",
                        "offset": 0,
                        "slot": "153",
                        "type": "t_mapping(t_address,t_struct(Counter)21742_storage)"
                    },
                    {
                        "astId": 21217,
                        "contract": "contracts/src/TLC.1.sol:TLCV1",
                        "label": "_PERMIT_TYPEHASH_DEPRECATED_SLOT",
                        "offset": 0,
                        "slot": "154",
                        "type": "t_bytes32"
                    },
                    {
                        "astId": 21373,
                        "contract": "contracts/src/TLC.1.sol:TLCV1",
                        "label": "__gap",
                        "offset": 0,
                        "slot": "155",
                        "type": "t_array(t_uint256)49_storage"
                    },
                    {
                        "astId": 20482,
                        "contract": "contracts/src/TLC.1.sol:TLCV1",
                        "label": "_delegates",
                        "offset": 0,
                        "slot": "204",
                        "type": "t_mapping(t_address,t_address)"
                    },
                    {
                        "astId": 20488,
                        "contract": "contracts/src/TLC.1.sol:TLCV1",
                        "label": "_checkpoints",
                        "offset": 0,
                        "slot": "205",
                        "type": "t_mapping(t_address,t_array(t_struct(Checkpoint)20473_storage)dyn_storage)"
                    },
                    {
                        "astId": 20492,
                        "contract": "contracts/src/TLC.1.sol:TLCV1",
                        "label": "_totalSupplyCheckpoints",
                        "offset": 0,
                        "slot": "206",
                        "type": "t_array(t_struct(Checkpoint)20473_storage)dyn_storage"
                    },
                    {
                        "astId": 21157,
                        "contract": "contracts/src/TLC.1.sol:TLCV1",
                        "label": "__gap",
                        "offset": 0,
                        "slot": "207",
                        "type": "t_array(t_uint256)47_storage"
                    }
                ],
                "types": {
                    "t_address": {
                        "encoding": "inplace",
                        "label": "address",
                        "numberOfBytes": "20"
                    },
                    "t_array(t_struct(Checkpoint)20473_storage)dyn_storage": {
                        "base": "t_struct(Checkpoint)20473_storage",
                        "encoding": "dynamic_array",
                        "label": "struct ERC20VotesUpgradeable.Checkpoint[]",
                        "numberOfBytes": "32"
                    },
                    "t_array(t_uint256)45_storage": {
                        "base": "t_uint256",
                        "encoding": "inplace",
                        "label": "uint256[45]",
                        "numberOfBytes": "1440"
                    },
                    "t_array(t_uint256)47_storage": {
                        "base": "t_uint256",
                        "encoding": "inplace",
                        "label": "uint256[47]",
                        "numberOfBytes": "1504"
                    },
                    "t_array(t_uint256)49_storage": {
                        "base": "t_uint256",
                        "encoding": "inplace",
                        "label": "uint256[49]",
                        "numberOfBytes": "1568"
                    },
                    "t_array(t_uint256)50_storage": {
                        "base": "t_uint256",
                        "encoding": "inplace",
                        "label": "uint256[50]",
                        "numberOfBytes": "1600"
                    },
                    "t_bool": {
                        "encoding": "inplace",
                        "label": "bool",
                        "numberOfBytes": "1"
                    },
                    "t_bytes32": {
                        "encoding": "inplace",
                        "label": "bytes32",
                        "numberOfBytes": "32"
                    },
                    "t_mapping(t_address,t_address)": {
                        "encoding": "mapping",
                        "key": "t_address",
                        "label": "mapping(address => address)",
                        "numberOfBytes": "32",
                        "value": "t_address"
                    },
                    "t_mapping(t_address,t_array(t_struct(Checkpoint)20473_storage)dyn_storage)": {
                        "encoding": "mapping",
                        "key": "t_address",
                        "label": "mapping(address => struct ERC20VotesUpgradeable.Checkpoint[])",
                        "numberOfBytes": "32",
                        "value": "t_array(t_struct(Checkpoint)20473_storage)dyn_storage"
                    },
                    "t_mapping(t_address,t_mapping(t_address,t_uint256))": {
                        "encoding": "mapping",
                        "key": "t_address",
                        "label": "mapping(address => mapping(address => uint256))",
                        "numberOfBytes": "32",
                        "value": "t_mapping(t_address,t_uint256)"
                    },
                    "t_mapping(t_address,t_struct(Counter)21742_storage)": {
                        "encoding": "mapping",
                        "key": "t_address",
                        "label": "mapping(address => struct CountersUpgradeable.Counter)",
                        "numberOfBytes": "32",
                        "value": "t_struct(Counter)21742_storage"
                    },
                    "t_mapping(t_address,t_uint256)": {
                        "encoding": "mapping",
                        "key": "t_address",
                        "label": "mapping(address => uint256)",
                        "numberOfBytes": "32",
                        "value": "t_uint256"
                    },
                    "t_string_storage": {
                        "encoding": "bytes",
                        "label": "string",
                        "numberOfBytes": "32"
                    },
                    "t_struct(Checkpoint)20473_storage": {
                        "encoding": "inplace",
                        "label": "struct ERC20VotesUpgradeable.Checkpoint",
                        "members": [
                            {
                                "astId": 20470,
                                "contract": "contracts/src/TLC.1.sol:TLCV1",
                                "label": "fromBlock",
                                "offset": 0,
                                "slot": "0",
                                "type": "t_uint32"
                            },
                            {
                                "astId": 20472,
                                "contract": "contracts/src/TLC.1.sol:TLCV1",
                                "label": "votes",
                                "offset": 4,
                                "slot": "0",
                                "type": "t_uint224"
                            }
                        ],
                        "numberOfBytes": "32"
                    },
                    "t_struct(Counter)21742_storage": {
                        "encoding": "inplace",
                        "label": "struct CountersUpgradeable.Counter",
                        "members": [
                            {
                                "astId": 21741,
                                "contract": "contracts/src/TLC.1.sol:TLCV1",
                                "label": "_value",
                                "offset": 0,
                                "slot": "0",
                                "type": "t_uint256"
                            }
                        ],
                        "numberOfBytes": "32"
                    },
                    "t_uint224": {
                        "encoding": "inplace",
                        "label": "uint224",
                        "numberOfBytes": "28"
                    },
                    "t_uint256": {
                        "encoding": "inplace",
                        "label": "uint256",
                        "numberOfBytes": "32"
                    },
                    "t_uint32": {
                        "encoding": "inplace",
                        "label": "uint32",
                        "numberOfBytes": "4"
                    },
                    "t_uint8": {
                        "encoding": "inplace",
                        "label": "uint8",
                        "numberOfBytes": "1"
                    }
                }
            },
            {
                "storage": [
                    {
                        "astId": 20380,
                        "contract": "contracts/src/TLC.1.sol:TLCV1",
                        "label": "_initialized",
                        "offset": 0,
                        "slot": "0",
                        "type": "t_uint8"
                    },
                    {
                        "astId": 20383,
                        "contract": "contracts/src/TLC.1.sol:TLCV1",
                        "label": "_initializing",
                        "offset": 1,
                        "slot": "0",
                        "type": "t_bool"
                    },
                    {
                        "astId": 22526,
                        "contract": "contracts/src/TLC.1.sol:TLCV1",
                        "label": "__gap",
                        "offset": 0,
                        "slot": "1",
                        "type": "t_array(t_uint256)50_storage"
                    },
                    {
                        "astId": 20561,
                        "contract": "contracts/src/TLC.1.sol:TLCV1",
                        "label": "_balances",
                        "offset": 0,
                        "slot": "51",
                        "type": "t_mapping(t_address,t_uint256)"
                    },
                    {
                        "astId": 20567,
                        "contract": "contracts/src/TLC.1.sol:TLCV1",
                        "label": "_allowances",
                        "offset": 0,
                        "slot": "52",
                        "type": "t_mapping(t_address,t_mapping(t_address,t_uint256))"
                    },
                    {
                        "astId": 20569,
                        "contract": "contracts/src/TLC.1.sol:TLCV1",
                        "label": "_totalSupply",
                        "offset": 0,
                        "slot": "53",
                        "type": "t_uint256"
                    },
                    {
                        "astId": 20571,
                        "contract": "contracts/src/TLC.1.sol:TLCV1",
                        "label": "_name",
                        "offset": 0,
                        "slot": "54",
                        "type": "t_string_storage"
                    },
                    {
                        "astId": 20573,
                        "contract": "contracts/src/TLC.1.sol:TLCV1",
                        "label": "_symbol",
                        "offset": 0,
                        "slot": "55",
                        "type": "t_string_storage"
                    },
                    {
                        "astId": 21153,
                        "contract": "contracts/src/TLC.1.sol:TLCV1",
                        "label": "__gap",
                        "offset": 0,
                        "slot": "56",
                        "type": "t_array(t_uint256)45_storage"
                    },
                    {
                        "astId": 23146,
                        "contract": "contracts/src/TLC.1.sol:TLCV1",
                        "label": "_HASHED_NAME",
                        "offset": 0,
                        "slot": "101",
                        "type": "t_bytes32"
                    },
                    {
                        "astId": 23148,
                        "contract": "contracts/src/TLC.1.sol:TLCV1",
                        "label": "_HASHED_VERSION",
                        "offset": 0,
                        "slot": "102",
                        "type": "t_bytes32"
                    },
                    {
                        "astId": 23286,
                        "contract": "contracts/src/TLC.1.sol:TLCV1",
                        "label": "__gap",
                        "offset": 0,
                        "slot": "103",
                        "type": "t_array(t_uint256)50_storage"
                    },
                    {
                        "astId": 22000,
                        "contract": "contracts/src/TLC.1.sol:TLCV1",
                        "label": "_nonces",
                        "offset": 0,
                        "slot": "153",
                        "type": "t_mapping(t_address,t_struct(Counter)22533_storage)"
                    },
                    {
                        "astId": 22008,
                        "contract": "contracts/src/TLC.1.sol:TLCV1",
                        "label": "_PERMIT_TYPEHASH_DEPRECATED_SLOT",
                        "offset": 0,
                        "slot": "154",
                        "type": "t_bytes32"
                    },
                    {
                        "astId": 22164,
                        "contract": "contracts/src/TLC.1.sol:TLCV1",
                        "label": "__gap",
                        "offset": 0,
                        "slot": "155",
                        "type": "t_array(t_uint256)49_storage"
                    },
                    {
                        "astId": 21273,
                        "contract": "contracts/src/TLC.1.sol:TLCV1",
                        "label": "_delegates",
                        "offset": 0,
                        "slot": "204",
                        "type": "t_mapping(t_address,t_address)"
                    },
                    {
                        "astId": 21279,
                        "contract": "contracts/src/TLC.1.sol:TLCV1",
                        "label": "_checkpoints",
                        "offset": 0,
                        "slot": "205",
                        "type": "t_mapping(t_address,t_array(t_struct(Checkpoint)21264_storage)dyn_storage)"
                    },
                    {
                        "astId": 21283,
                        "contract": "contracts/src/TLC.1.sol:TLCV1",
                        "label": "_totalSupplyCheckpoints",
                        "offset": 0,
                        "slot": "206",
                        "type": "t_array(t_struct(Checkpoint)21264_storage)dyn_storage"
                    },
                    {
                        "astId": 21948,
                        "contract": "contracts/src/TLC.1.sol:TLCV1",
                        "label": "__gap",
                        "offset": 0,
                        "slot": "207",
                        "type": "t_array(t_uint256)47_storage"
                    }
                ],
                "types": {
                    "t_address": {
                        "encoding": "inplace",
                        "label": "address",
                        "numberOfBytes": "20"
                    },
                    "t_array(t_struct(Checkpoint)21264_storage)dyn_storage": {
                        "base": "t_struct(Checkpoint)21264_storage",
                        "encoding": "dynamic_array",
                        "label": "struct ERC20VotesUpgradeable.Checkpoint[]",
                        "numberOfBytes": "32"
                    },
                    "t_array(t_uint256)45_storage": {
                        "base": "t_uint256",
                        "encoding": "inplace",
                        "label": "uint256[45]",
                        "numberOfBytes": "1440"
                    },
                    "t_array(t_uint256)47_storage": {
                        "base": "t_uint256",
                        "encoding": "inplace",
                        "label": "uint256[47]",
                        "numberOfBytes": "1504"
                    },
                    "t_array(t_uint256)49_storage": {
                        "base": "t_uint256",
                        "encoding": "inplace",
                        "label": "uint256[49]",
                        "numberOfBytes": "1568"
                    },
                    "t_array(t_uint256)50_storage": {
                        "base": "t_uint256",
                        "encoding": "inplace",
                        "label": "uint256[50]",
                        "numberOfBytes": "1600"
                    },
                    "t_bool": {
                        "encoding": "inplace",
                        "label": "bool",
                        "numberOfBytes": "1"
                    },
                    "t_bytes32": {
                        "encoding": "inplace",
                        "label": "bytes32",
                        "numberOfBytes": "32"
                    },
                    "t_mapping(t_address,t_address)": {
                        "encoding": "mapping",
                        "key": "t_address",
                        "label": "mapping(address => address)",
                        "numberOfBytes": "32",
                        "value": "t_address"
                    },
                    "t_mapping(t_address,t_array(t_struct(Checkpoint)21264_storage)dyn_storage)": {
                        "encoding": "mapping",
                        "key": "t_address",
                        "label": "mapping(address => struct ERC20VotesUpgradeable.Checkpoint[])",
                        "numberOfBytes": "32",
                        "value": "t_array(t_struct(Checkpoint)21264_storage)dyn_storage"
                    },
                    "t_mapping(t_address,t_mapping(t_address,t_uint256))": {
                        "encoding": "mapping",
                        "key": "t_address",
                        "label": "mapping(address => mapping(address => uint256))",
                        "numberOfBytes": "32",
                        "value": "t_mapping(t_address,t_uint256)"
                    },
                    "t_mapping(t_address,t_struct(Counter)22533_storage)": {
                        "encoding": "mapping",
                        "key": "t_address",
                        "label": "mapping(address => struct CountersUpgradeable.Counter)",
                        "numberOfBytes": "32",
                        "value": "t_struct(Counter)22533_storage"
                    },
                    "t_mapping(t_address,t_uint256)": {
                        "encoding": "mapping",
                        "key": "t_address",
                        "label": "mapping(address => uint256)",
                        "numberOfBytes": "32",
                        "value": "t_uint256"
                    },
                    "t_string_storage": {
                        "encoding": "bytes",
                        "label": "string",
                        "numberOfBytes": "32"
                    },
                    "t_struct(Checkpoint)21264_storage": {
                        "encoding": "inplace",
                        "label": "struct ERC20VotesUpgradeable.Checkpoint",
                        "members": [
                            {
                                "astId": 21261,
                                "contract": "contracts/src/TLC.1.sol:TLCV1",
                                "label": "fromBlock",
                                "offset": 0,
                                "slot": "0",
                                "type": "t_uint32"
                            },
                            {
                                "astId": 21263,
                                "contract": "contracts/src/TLC.1.sol:TLCV1",
                                "label": "votes",
                                "offset": 4,
                                "slot": "0",
                                "type": "t_uint224"
                            }
                        ],
                        "numberOfBytes": "32"
                    },
                    "t_struct(Counter)22533_storage": {
                        "encoding": "inplace",
                        "label": "struct CountersUpgradeable.Counter",
                        "members": [
                            {
                                "astId": 22532,
                                "contract": "contracts/src/TLC.1.sol:TLCV1",
                                "label": "_value",
                                "offset": 0,
                                "slot": "0",
                                "type": "t_uint256"
                            }
                        ],
                        "numberOfBytes": "32"
                    },
                    "t_uint224": {
                        "encoding": "inplace",
                        "label": "uint224",
                        "numberOfBytes": "28"
                    },
                    "t_uint256": {
                        "encoding": "inplace",
                        "label": "uint256",
                        "numberOfBytes": "32"
                    },
                    "t_uint32": {
                        "encoding": "inplace",
                        "label": "uint32",
                        "numberOfBytes": "4"
                    },
                    "t_uint8": {
                        "encoding": "inplace",
                        "label": "uint8",
                        "numberOfBytes": "1"
                    }
                }
            }
        ]
    }
}