{
  "address": "0x7bcc8Bb59f88b74a706EF901152CF95BA6f9cC42",
  "abi": [
    {
      "inputs": [
        {
          "internalType": "address",
          "name": "_admin",
          "type": "address"
        },
        {
          "internalType": "address",
          "name": "_executor",
          "type": "address"
        },
        {
          "internalType": "address",
          "name": "_destination",
          "type": "address"
        },
        {
          "internalType": "bytes4[]",
          "name": "_executorCallableSelectors",
          "type": "bytes4[]"
        }
      ],
      "stateMutability": "nonpayable",
      "type": "constructor"
    },
    {
      "inputs": [],
      "name": "InvalidZeroAddress",
      "type": "error"
    },
    {
      "inputs": [
        {
          "internalType": "address",
          "name": "caller",
          "type": "address"
        }
      ],
      "name": "Unauthorized",
      "type": "error"
    },
    {
      "anonymous": false,
      "inputs": [
        {
          "indexed": true,
          "internalType": "address",
          "name": "admin",
          "type": "address"
        }
      ],
      "name": "SetAdmin",
      "type": "event"
    },
    {
      "anonymous": false,
      "inputs": [
        {
          "indexed": true,
          "internalType": "address",
          "name": "destination",
          "type": "address"
        }
      ],
      "name": "SetDestination",
      "type": "event"
    },
    {
      "anonymous": false,
      "inputs": [
        {
          "indexed": true,
          "internalType": "address",
          "name": "executor",
          "type": "address"
        }
      ],
      "name": "SetExecutor",
      "type": "event"
    },
    {
      "anonymous": false,
      "inputs": [
        {
          "indexed": false,
          "internalType": "bytes4",
          "name": "selector",
          "type": "bytes4"
        },
        {
          "indexed": false,
          "internalType": "bool",
          "name": "status",
          "type": "bool"
        }
      ],
      "name": "SetExecutorPermissions",
      "type": "event"
    },
    {
      "anonymous": false,
      "inputs": [
        {
          "indexed": true,
          "internalType": "address",
          "name": "pendingAdmin",
          "type": "address"
        }
      ],
      "name": "SetPendingAdmin",
      "type": "event"
    },
    {
      "stateMutability": "payable",
      "type": "fallback"
    },
    {
      "inputs": [],
      "name": "acceptAdmin",
      "outputs": [],
      "stateMutability": "nonpayable",
      "type": "function"
    },
    {
      "inputs": [
        {
          "internalType": "bytes4",
          "name": "_functionSelector",
          "type": "bytes4"
        },
        {
          "internalType": "bool",
          "name": "_executorCanCall",
          "type": "bool"
        }
      ],
      "name": "allowExecutor",
      "outputs": [],
      "stateMutability": "nonpayable",
      "type": "function"
    },
    {
      "inputs": [],
      "name": "destination",
      "outputs": [
        {
          "internalType": "address",
          "name": "",
          "type": "address"
        }
      ],
      "stateMutability": "view",
      "type": "function"
    },
    {
      "inputs": [],
      "name": "executor",
      "outputs": [
        {
          "internalType": "address",
          "name": "",
          "type": "address"
        }
      ],
      "stateMutability": "view",
      "type": "function"
    },
    {
      "inputs": [
        {
          "internalType": "bytes4",
          "name": "",
          "type": "bytes4"
        }
      ],
      "name": "executorCanCall",
      "outputs": [
        {
          "internalType": "bool",
          "name": "",
          "type": "bool"
        }
      ],
      "stateMutability": "view",
      "type": "function"
    },
    {
      "inputs": [],
      "name": "getAdmin",
      "outputs": [
        {
          "internalType": "address",
          "name": "",
          "type": "address"
        }
      ],
      "stateMutability": "view",
      "type": "function"
    },
    {
      "inputs": [],
      "name": "getPendingAdmin",
      "outputs": [
        {
          "internalType": "address",
          "name": "",
          "type": "address"
        }
      ],
      "stateMutability": "view",
      "type": "function"
    },
    {
      "inputs": [
        {
          "internalType": "address",
          "name": "_newAdmin",
          "type": "address"
        }
      ],
      "name": "proposeAdmin",
      "outputs": [],
      "stateMutability": "nonpayable",
      "type": "function"
    },
    {
      "inputs": [
        {
          "internalType": "address",
          "name": "_newExecutor",
          "type": "address"
        }
      ],
      "name": "setExecutor",
      "outputs": [],
      "stateMutability": "nonpayable",
      "type": "function"
    },
    {
      "stateMutability": "payable",
      "type": "receive"
    }
  ],
  "transactionHash": "0x374a25600023b2723bbd84e0699fda67fc7cd3715cbd6985cc0a6e1b98305c8f",
  "args": [
    "0x0e9eAd2FEB500DB46E6EB95b352FA4a86aC13dBE",
    "0xe953E4df3dDd575D2C1E1950ec4Fa33CF89947DA",
    "0x1C8d258846f5e3EaCC0885AD265Fb505c69B600f",
    []
  ],
  "numDeployments": 1,
  "solcInputHash": "afb6920dfa036af584d4d7d7334b0ff3",
  "bytecode": "0x6040608081523461023d5761087a8038038061001a81610258565b928339810160808282031261023d576100328261027d565b60209061004082850161027d565b9361004c86820161027d565b93606082015160018060401b039283821161023d570181601f8201121561023d578051928311610242578260051b908580610088818501610258565b80968152019282010192831161023d578501905b82821061021d575050506100af856102bb565b6100b8846102bb565b6100c1826102bb565b6100ca826102bb565b7fb5b37715a3e346e996104f0086703f19825def429233930fd9399c38e05fb1128290556001600160a01b039460009286919082167f5a272403b402d892977df56625f4164ccaf70ca3863991c43ecfe76a6905b0a18580a2169460018060a01b031994868685541617845516809560019687968754161786557f34d4f6a542f13533b1eaa27e7ae8691368028d05b7075ad7a6c34df851a67a438480a27f44bcfad6adf95e4168c90f181d665d8b22f3f7708a74828c51854ef849f708578380a281935b6101a2575b855161059c90816102de8239f35b805184101561021857849384907fe1d1d2578e62581ba0a25d03a939b23a37d567cee7e6113f5d4a6a2f446ad5a9886001600160e01b0319806101e58588610291565b5116875260028852818720805460ff1916861790556102048487610291565b511681519081528488820152a1019361018f565b610194565b81516001600160e01b03198116810361023d57815290850190850161009c565b600080fd5b634e487b7160e01b600052604160045260246000fd5b6040519190601f01601f191682016001600160401b0381118382101761024257604052565b51906001600160a01b038216820361023d57565b80518210156102a55760209160051b010190565b634e487b7160e01b600052603260045260246000fd5b6001600160a01b0316156102cb57565b60405163f6b2911f60e01b8152600490fdfe60806040526004361015610018575b3661044f5761044f565b6000803560e01c90816302aaa9cc146100ab575080630e18b681146100a6578063147bf6c4146100a15780631c3c0ea81461009c5780636e9960c314610097578063b269681d14610092578063c34c08e51461008d578063d0468156146100885763f0e70dab0361000e5761040f565b6103d9565b6103b0565b610387565b610351565b6102c4565b61025b565b61017a565b3461015b57604036600319011261015b576100c461015e565b6024359081151580920361015757600080516020610547833981519152546001600160a01b031633036101425763ffffffff60e01b1680835260026020526040832060ff1981541660ff841617905560805260a0527fe1d1d2578e62581ba0a25d03a939b23a37d567cee7e6113f5d4a6a2f446ad5a960406080a180f35b63472511eb60e11b6080523360845260246080fd5b8280fd5b80fd5b600435906001600160e01b03198216820361017557565b600080fd5b346101755760008060031936011261015b576000805160206105278339815191528054906001600160a01b0382163381900361022157826101bb8594610504565b6101c481610504565b600080516020610547833981519152557f5a272403b402d892977df56625f4164ccaf70ca3863991c43ecfe76a6905b0a18380a255807f2a0f8515de3fa34ef68b99300347b8793c01683350743e96fe440594528298f48180a280f35b60405163472511eb60e11b8152336004820152602490fd5b6020906003190112610175576004356001600160a01b03811681036101755790565b346101755761026936610239565b600080516020610547833981519152546001600160a01b03919082163303610221578060008051602061052783398151915255167f2a0f8515de3fa34ef68b99300347b8793c01683350743e96fe440594528298f4600080a2005b34610175576102d236610239565b600080516020610547833981519152546001600160a01b039190821633141580610343575b6102215761030481610504565b600080546001600160a01b031916929091169182178155907f34d4f6a542f13533b1eaa27e7ae8691368028d05b7075ad7a6c34df851a67a438280a280f35b5081600054163314156102f7565b3461017557600036600319011261017557600080516020610547833981519152546040516001600160a01b039091168152602090f35b34610175576000366003190112610175576001546040516001600160a01b039091168152602090f35b34610175576000366003190112610175576000546040516001600160a01b039091168152602090f35b3461017557600036600319011261017557600080516020610527833981519152546040516001600160a01b039091168152602090f35b34610175576020366003190112610175576001600160e01b031961043161015e565b166000526002602052602060ff604060002054166040519015158152f35b610457610486565b600154600090819081906001600160a01b03163682803781369134905af13d82803e15610482573d90f35b3d90fd5b60008051602061054783398151915254336001600160a01b03918216149081156104ca575b506104c85760405163472511eb60e11b8152336004820152602490fd5b565b600080356001600160e01b03191681526002602052604090205460ff169150816104f6575b50386104ab565b9050600054163314386104ef565b6001600160a01b03161561051457565b60405163f6b2911f60e01b8152600490fdfe6e6ab8b7c7aaba79eef8cc633522d606bb008c101cf9832c9ad05d10a9847280b5b37715a3e346e996104f0086703f19825def429233930fd9399c38e05fb112a2646970667358221220c5aa9407c9533408f5ea140f96cba39402dd0869488071c5111bed869e173b5064736f6c63430008140033",
  "devdoc": {
    "author": "Figment",
    "errors": {
      "Unauthorized(address)": [
        {
          "params": {
            "caller": "Address performing the call"
          }
        }
      ]
    },
    "events": {
      "SetAdmin(address)": {
        "params": {
          "admin": "New admin address"
        }
      },
      "SetDestination(address)": {
        "params": {
          "destination": "The new destination address"
        }
      },
      "SetExecutor(address)": {
        "params": {
          "executor": "The new executor address"
        }
      },
      "SetExecutorPermissions(bytes4,bool)": {
        "params": {
          "selector": "The 4 bytes method selector",
          "status": "True if executor is allowed"
        }
      },
      "SetPendingAdmin(address)": {
        "params": {
          "pendingAdmin": "New pending admin address"
        }
      }
    },
    "kind": "dev",
    "methods": {
      "acceptAdmin()": {
        "details": "Only callable by the pending admin. Resets the pending admin if succesful."
      },
      "allowExecutor(bytes4,bool)": {
        "params": {
          "_executorCanCall": "True if selector is callable by the executor",
          "_functionSelector": "Method signature on which the permission is changed"
        }
      },
      "constructor": {
        "params": {
          "_admin": "Address of the administrator, that is able to perform all calls via the Firewall",
          "_executor": "Address of the executor, that is able to perform only a subset of calls via the Firewall",
          "_executorCallableSelectors": "Initial list of allowed selectors for the executor"
        }
      },
      "getAdmin()": {
        "returns": {
          "_0": "The admin address"
        }
      },
      "getPendingAdmin()": {
        "returns": {
          "_0": "The pending admin address"
        }
      },
      "proposeAdmin(address)": {
        "details": "This security prevents setting an invalid address as an admin. The pendingadmin has to claim its ownership of the contract, and prove that the newaddress is able to perform regular transactions.",
        "params": {
          "_newAdmin": "New admin address"
        }
      },
      "setExecutor(address)": {
        "params": {
          "_newExecutor": "New address for the executor"
        }
      }
    },
    "stateVariables": {
      "destination": {
        "return": "The destination address",
        "returns": {
          "_0": "The destination address"
        }
      },
      "executor": {
        "return": "The executor address",
        "returns": {
          "_0": "The executor address"
        }
      },
      "executorCanCall": {
        "params": {
          "_selector": "The selector to verify"
        },
        "return": "True if executor is allowed to call",
        "returns": {
          "_0": "True if executor is allowed to call"
        }
      }
    },
    "title": "Firewall",
    "version": 1
  },
  "userdoc": {
    "errors": {
      "InvalidZeroAddress()": [
        {
          "notice": "The address is zero"
        }
      ],
      "Unauthorized(address)": [
        {
          "notice": "The operator is unauthorized for the caller"
        }
      ]
    },
    "events": {
      "SetAdmin(address)": {
        "notice": "The admin address changed"
      },
      "SetDestination(address)": {
        "notice": "The stored destination address has been changed"
      },
      "SetExecutor(address)": {
        "notice": "The stored executor address has been changed"
      },
      "SetExecutorPermissions(bytes4,bool)": {
        "notice": "The storage permission for a selector has been changed"
      },
      "SetPendingAdmin(address)": {
        "notice": "The pending admin address changed"
      }
    },
    "kind": "user",
    "methods": {
      "acceptAdmin()": {
        "notice": "Accept the transfer of ownership"
      },
      "allowExecutor(bytes4,bool)": {
        "notice": "Sets the permission for a function selector"
      },
      "destination()": {
        "notice": "Retrieve the destination address"
      },
      "executor()": {
        "notice": "Retrieve the executor address"
      },
      "executorCanCall(bytes4)": {
        "notice": "Returns true if the executor is allowed to perform a call on the given selector"
      },
      "getAdmin()": {
        "notice": "Retrieves the current admin address"
      },
      "getPendingAdmin()": {
        "notice": "Retrieve the current pending admin address"
      },
      "proposeAdmin(address)": {
        "notice": "Proposes a new address as admin"
      },
      "setExecutor(address)": {
        "notice": "Sets the executor address"
      }
    },
    "notice": "This contract accepts calls to admin-level functions of an underlying contract, and         ensures the caller holds an appropriate role for calling that function. There are two roles:          - An Admin can call anything          - An Executor can call specific functions. The list of function is customisable.         Random callers cannot call anything through this contract, even if the underlying function         is unpermissioned in the underlying contract.         Calls to non-admin functions should be called at the underlying contract directly.",
    "version": 1
  },
  "storageLayout": {
    "storage": [
      {
        "astId": 909,
        "contract": "contracts/src/Firewall.sol:Firewall",
        "label": "executor",
        "offset": 0,
        "slot": "0",
        "type": "t_address"
      },
      {
        "astId": 912,
        "contract": "contracts/src/Firewall.sol:Firewall",
        "label": "destination",
        "offset": 0,
        "slot": "1",
        "type": "t_address"
      },
      {
        "astId": 917,
        "contract": "contracts/src/Firewall.sol:Firewall",
        "label": "executorCanCall",
        "offset": 0,
        "slot": "2",
        "type": "t_mapping(t_bytes4,t_bool)"
      }
    ],
    "types": {
      "t_address": {
        "encoding": "inplace",
        "label": "address",
        "numberOfBytes": "20"
      },
      "t_bool": {
        "encoding": "inplace",
        "label": "bool",
        "numberOfBytes": "1"
      },
      "t_bytes4": {
        "encoding": "inplace",
        "label": "bytes4",
        "numberOfBytes": "4"
      },
      "t_mapping(t_bytes4,t_bool)": {
        "encoding": "mapping",
        "key": "t_bytes4",
        "label": "mapping(bytes4 => bool)",
        "numberOfBytes": "32",
        "value": "t_bool"
      }
    }
  }
}