{
  "address": "0x57Ce8e0AB7E9BD0489E9D2C0f297dfd85aF5cE33",
  "abi": [
    {
      "inputs": [],
      "name": "EmptyDonation",
      "type": "error"
    },
    {
      "inputs": [],
      "name": "InvalidCall",
      "type": "error"
    },
    {
      "inputs": [
        {
          "internalType": "uint256",
          "name": "version",
          "type": "uint256"
        },
        {
          "internalType": "uint256",
          "name": "expectedVersion",
          "type": "uint256"
        }
      ],
      "name": "InvalidInitialization",
      "type": "error"
    },
    {
      "inputs": [],
      "name": "InvalidZeroAddress",
      "type": "error"
    },
    {
      "inputs": [
        {
          "internalType": "address",
          "name": "caller",
          "type": "address"
        }
      ],
      "name": "Unauthorized",
      "type": "error"
    },
    {
      "anonymous": false,
      "inputs": [
        {
          "indexed": true,
          "internalType": "address",
          "name": "donator",
          "type": "address"
        },
        {
          "indexed": false,
          "internalType": "uint256",
          "name": "amount",
          "type": "uint256"
        }
      ],
      "name": "Donate",
      "type": "event"
    },
    {
      "anonymous": false,
      "inputs": [
        {
          "indexed": false,
          "internalType": "uint256",
          "name": "version",
          "type": "uint256"
        },
        {
          "indexed": false,
          "internalType": "bytes",
          "name": "cdata",
          "type": "bytes"
        }
      ],
      "name": "Initialize",
      "type": "event"
    },
    {
      "anonymous": false,
      "inputs": [
        {
          "indexed": true,
          "internalType": "address",
          "name": "river",
          "type": "address"
        }
      ],
      "name": "SetRiver",
      "type": "event"
    },
    {
      "stateMutability": "payable",
      "type": "fallback"
    },
    {
      "inputs": [],
      "name": "donate",
      "outputs": [],
      "stateMutability": "payable",
      "type": "function"
    },
    {
      "inputs": [
        {
          "internalType": "address",
          "name": "_riverAddress",
          "type": "address"
        }
      ],
      "name": "initCoverageFundV1",
      "outputs": [],
      "stateMutability": "nonpayable",
      "type": "function"
    },
    {
      "inputs": [
        {
          "internalType": "uint256",
          "name": "_maxAmount",
          "type": "uint256"
        }
      ],
      "name": "pullCoverageFunds",
      "outputs": [],
      "stateMutability": "nonpayable",
      "type": "function"
    },
    {
      "inputs": [],
      "name": "version",
      "outputs": [
        {
          "internalType": "string",
          "name": "",
          "type": "string"
        }
      ],
      "stateMutability": "pure",
      "type": "function"
    },
    {
      "stateMutability": "payable",
      "type": "receive"
    }
  ],
  "transactionHash": "0x38ddfb56b1fe0f21abf979da7ce9e79d3c2e7f486b0081cf4c7b4d74506778db",
  "args": [],
  "numDeployments": 1,
  "solcInputHash": "7ebc7ef25dc340660cce17b337ec071d",
  "bytecode": "0x60808060405234610092577f1809e49bba43f2d39fa57894b50cd6ccb428cc438230e065cac3eb24a1355a7190600019807f82055909238c0f5e63d6f174068ebb8f51bcec9bd37de63bb68f6551feec0cfc558152604060208201523660408201523660006060830137600060603683010152606081601f19601f3601168101030190a160405161054390816100988239f35b600080fdfe6080604081815260049182361015610033575b503615610026575163574b16a760e11b8152fd5b5163574b16a760e11b8152fd5b600090813560e01c90816335566ba9146103aa5750806354fd4d501461030e5780638ede6b6b146102185763ed88c68e0361001257918260031936011261017857341561020a577f3de1dea2e9e1b295da689a537f5463d5899dee73a7714a096299ff85f7bf49438054903482018092116101f557556000805160206104ee833981519152548251630c5eff3d60e41b81528492916001600160a01b03919060209082908590829086165afa9081156101eb57849161017c575b501690813b156101785782906044855180948193632d20488160e11b83523390830152600260248301525afa801561016b57610153575b5050513481527f0553260a2e46b0577270d8992db02d30856ca880144c72d6e9503760946aef1360203392a280f35b61015c906104c3565b610167578138610124565b5080fd5b50505051903d90823e3d90fd5b8280fd5b919293505060203d81116101e4575b601f8101601f1916820167ffffffffffffffff8111838210176101cf578287959493926020928852810103126101cb575181811681036101cb57386100ed565b8380fd5b604185634e487b7160e01b6000525260246000fd5b503d61018b565b85513d86823e3d90fd5b601183634e487b7160e01b6000525260246000fd5b90516389d209d760e01b8152fd5b509190346101785760203660031901126101785781359160018060a01b036000805160206104ee8339815191525416908133036102f7577f3de1dea2e9e1b295da689a537f5463d5899dee73a7714a096299ff85f7bf494380549094818111156102f1575080945b85610289578680f35b8582039182116102de5755849190813b1561017857835180958193633525c14960e21b83525af19081156102d557506102c6575b80808080808680f35b6102cf906104c3565b386102bd565b513d84823e3d90fd5b634e487b7160e01b875260118352602487fd5b94610280565b60249083519063472511eb60e11b82523390820152fd5b5091346101785782600319360112610178578151908282019082821067ffffffffffffffff831117610397575082526005815260209064312e322e3160d81b8282015282519382859384528251928382860152825b84811061038157505050828201840152601f01601f19168101030190f35b8181018301518882018801528795508201610363565b634e487b7160e01b855260419052602484fd5b91929050346101785760203660031901126101785783356001600160a01b038116928382036104bf577f82055909238c0f5e63d6f174068ebb8f51bcec9bd37de63bb68f6551feec0cfc908154806104a4575050600190558215610494577f1809e49bba43f2d39fa57894b50cd6ccb428cc438230e065cac3eb24a1355a719394506000805160206104ee833981519152558051917ffc0d749143b04e0d92a3b49edae84a45f6bc88b75e99d9118ec4d7e87fe626c58580a28382528060208301523690820152368360608301378260603683010152606081601f19601f3601168101030190a180f35b815163f6b2911f60e01b81528590fd5b631cfd276760e31b8252818801879052602482015260449150fd5b8480fd5b67ffffffffffffffff81116104d757604052565b634e487b7160e01b600052604160045260246000fdfe1ec4138404500a2a0be2c2f9b103581c2a7fa783a934f91a6cc5cc924404973ba26469706673582212206a8732f68a027f05808b9954f865696be0386b007102b2ed957683b71217dbda64736f6c63430008140033",
  "devdoc": {
    "author": "Alluvial Finance Inc.",
    "errors": {
      "InvalidInitialization(uint256,uint256)": [
        {
          "params": {
            "expectedVersion": "The version that was expected",
            "version": "The version that was attempting to be initialized"
          }
        }
      ],
      "Unauthorized(address)": [
        {
          "params": {
            "caller": "Address performing the call"
          }
        }
      ]
    },
    "events": {
      "Donate(address,uint256)": {
        "params": {
          "amount": "The amount donated",
          "donator": "Address that performed the donation"
        }
      },
      "Initialize(uint256,bytes)": {
        "params": {
          "cdata": "Complete calldata that was used during the initialization",
          "version": "New version of the contracts"
        }
      },
      "SetRiver(address)": {
        "params": {
          "river": "The new river address"
        }
      }
    },
    "kind": "dev",
    "methods": {
      "initCoverageFundV1(address)": {
        "params": {
          "_riverAddress": "Address of River"
        }
      },
      "pullCoverageFunds(uint256)": {
        "details": "Only callable by the River contract",
        "params": {
          "_maxAmount": "The maximum amount to pull into the system"
        }
      },
      "version()": {
        "returns": {
          "_0": "Version of the contract"
        }
      }
    },
    "title": "Coverage Fund (v1)",
    "version": 1
  },
  "userdoc": {
    "errors": {
      "EmptyDonation()": [
        {
          "notice": "A donation with 0 ETH has been performed"
        }
      ],
      "InvalidCall()": [
        {
          "notice": "The fallback or receive callback has been triggered"
        }
      ],
      "InvalidInitialization(uint256,uint256)": [
        {
          "notice": "An error occured during the initialization"
        }
      ],
      "InvalidZeroAddress()": [
        {
          "notice": "The address is zero"
        }
      ],
      "Unauthorized(address)": [
        {
          "notice": "The operator is unauthorized for the caller"
        }
      ]
    },
    "events": {
      "Donate(address,uint256)": {
        "notice": "A donation has been made to the coverage fund"
      },
      "Initialize(uint256,bytes)": {
        "notice": "Emitted when the contract is properly initialized"
      },
      "SetRiver(address)": {
        "notice": "The storage river address has changed"
      }
    },
    "kind": "user",
    "methods": {
      "donate()": {
        "notice": "Donates ETH to the coverage fund contract"
      },
      "initCoverageFundV1(address)": {
        "notice": "Initialize the coverage fund with the required arguments"
      },
      "pullCoverageFunds(uint256)": {
        "notice": "Pulls ETH into the River contract"
      },
      "version()": {
        "notice": "Retrieves the version of the contract"
      }
    },
    "notice": "This contract receive donations for the slashing coverage fund and pull the funds into riverThis contract acts as a temporary buffer for funds that should be pulled in case of a loss of money on the consensus layer due to slashing events.There is no fee taken on these funds, they are entirely distributed to the LsETH holders, and no shares will get minted.Funds will be distributed by increasing the underlying value of every LsETH share.The fund will be called on every report and if eth is available in the contract, River will attempt to pull as muchETH as possible. This maximum is defined by the upper bound allowed by the Oracle. This means that it might take multiplereports for funds to be pulled entirely into the system due to this upper bound, ensuring a lower secondary market impact.The value provided to this contract is computed off-chain and provided manually by Alluvial or any authorized insurance entity.The Coverage funds are pulled upon an oracle report, after the ELFees have been pulled in the system, if there is a margin leftbefore crossing the upper bound. The reason behind this is to favor the revenue stream, that depends on market and network usage, whilethe coverage fund will be pulled after the revenue stream, and there won't be any commission on the eth pulled.Once a Slashing event occurs, the team will do its best to inject the recovery funds in at maximum 365 daysThe entities allowed to donate are selected by the team. It will mainly be treasury entities or insurance protocols able to fill this coverage fund properly.",
    "version": 1
  },
  "storageLayout": {
    "storage": [],
    "types": null
  }
}