{
  "address": "0x66c643FA15FEbB2fdaC3b65bdb3fA920D1cC1608",
  "abi": [
    {
      "inputs": [],
      "name": "InvalidCall",
      "type": "error"
    },
    {
      "inputs": [
        {
          "internalType": "uint256",
          "name": "version",
          "type": "uint256"
        },
        {
          "internalType": "uint256",
          "name": "expectedVersion",
          "type": "uint256"
        }
      ],
      "name": "InvalidInitialization",
      "type": "error"
    },
    {
      "inputs": [],
      "name": "InvalidZeroAddress",
      "type": "error"
    },
    {
      "inputs": [
        {
          "internalType": "address",
          "name": "caller",
          "type": "address"
        }
      ],
      "name": "Unauthorized",
      "type": "error"
    },
    {
      "anonymous": false,
      "inputs": [
        {
          "indexed": false,
          "internalType": "uint256",
          "name": "version",
          "type": "uint256"
        },
        {
          "indexed": false,
          "internalType": "bytes",
          "name": "cdata",
          "type": "bytes"
        }
      ],
      "name": "Initialize",
      "type": "event"
    },
    {
      "anonymous": false,
      "inputs": [
        {
          "indexed": true,
          "internalType": "address",
          "name": "river",
          "type": "address"
        }
      ],
      "name": "SetRiver",
      "type": "event"
    },
    {
      "stateMutability": "payable",
      "type": "fallback"
    },
    {
      "inputs": [
        {
          "internalType": "address",
          "name": "_riverAddress",
          "type": "address"
        }
      ],
      "name": "initELFeeRecipientV1",
      "outputs": [],
      "stateMutability": "nonpayable",
      "type": "function"
    },
    {
      "inputs": [
        {
          "internalType": "uint256",
          "name": "_maxAmount",
          "type": "uint256"
        }
      ],
      "name": "pullELFees",
      "outputs": [],
      "stateMutability": "nonpayable",
      "type": "function"
    },
    {
      "inputs": [],
      "name": "version",
      "outputs": [
        {
          "internalType": "string",
          "name": "",
          "type": "string"
        }
      ],
      "stateMutability": "pure",
      "type": "function"
    },
    {
      "stateMutability": "payable",
      "type": "receive"
    }
  ],
  "transactionHash": "0x059537ab3b23e1d773080a0d00552ef35f28073dc47d340e633d4126712694ca",
  "args": [],
  "numDeployments": 1,
  "solcInputHash": "a7ddca3914142be28d7ebbaeaa44c2a3",
  "bytecode": "0x60808060405234610092577f1809e49bba43f2d39fa57894b50cd6ccb428cc438230e065cac3eb24a1355a7190600019807f82055909238c0f5e63d6f174068ebb8f51bcec9bd37de63bb68f6551feec0cfc558152604060208201523660408201523660006060830137600060603683010152606081601f19601f3601168101030190a160405161033490816100988239f35b600080fdfe6080604081815260049182361015610028575b503615610026575163574b16a760e11b8152fd5b005b600090813560e01c9081635404dd79146101d35750806354fd4d50146101375763c8a6dfd30361001257919034610133576020366003190112610133577f1ec4138404500a2a0be2c2f9b103581c2a7fa783a934f91a6cc5cc924404973b546001600160a01b03169180353384900361011c5784904790818111156101145750935b846100b3575080f35b803b15610110578284518096819363efd6034760e01b83525af18015610106576100db578380f35b67ffffffffffffffff83116100f35750523880808380f35b634e487b7160e01b845260419052602483fd5b82513d86823e3d90fd5b5080fd5b9050936100aa565b50602491519063472511eb60e11b82523390820152fd5b8280fd5b5091346101335782600319360112610133578151908282019082821067ffffffffffffffff8311176101c05750825260058152602090640312e322e360dc1b8282015282519382859384528251928382860152825b8481106101aa57505050828201840152601f01601f19168101030190f35b818101830151888201880152879550820161018c565b634e487b7160e01b855260419052602484fd5b91929050346101335760203660031901126101335783356001600160a01b038116928382036102fa577f82055909238c0f5e63d6f174068ebb8f51bcec9bd37de63bb68f6551feec0cfc908154806102df5750506001905582156102cf577f1809e49bba43f2d39fa57894b50cd6ccb428cc438230e065cac3eb24a1355a719394507f1ec4138404500a2a0be2c2f9b103581c2a7fa783a934f91a6cc5cc924404973b558051917ffc0d749143b04e0d92a3b49edae84a45f6bc88b75e99d9118ec4d7e87fe626c58580a28382528060208301523690820152368360608301378260603683010152606081601f19601f3601168101030190a180f35b815163f6b2911f60e01b81528590fd5b631cfd276760e31b8252818801879052602482015260449150fd5b8480fdfea26469706673582212207bd10e7c33332ad5cc38dd6f976960655d6e795c1f55f9978effdec8ab61f7ea64736f6c63430008140033",
  "devdoc": {
    "author": "Kiln",
    "errors": {
      "InvalidInitialization(uint256,uint256)": [
        {
          "params": {
            "expectedVersion": "The version that was expected",
            "version": "The version that was attempting to be initialized"
          }
        }
      ],
      "Unauthorized(address)": [
        {
          "params": {
            "caller": "Address performing the call"
          }
        }
      ]
    },
    "events": {
      "Initialize(uint256,bytes)": {
        "params": {
          "cdata": "Complete calldata that was used during the initialization",
          "version": "New version of the contracts"
        }
      },
      "SetRiver(address)": {
        "params": {
          "river": "The new river address"
        }
      }
    },
    "kind": "dev",
    "methods": {
      "initELFeeRecipientV1(address)": {
        "params": {
          "_riverAddress": "Address of River"
        }
      },
      "pullELFees(uint256)": {
        "details": "Only callable by the River contract",
        "params": {
          "_maxAmount": "The maximum amount to pull into the system"
        }
      },
      "version()": {
        "returns": {
          "_0": "Version of the contract"
        }
      }
    },
    "title": "Execution Layer Fee Recipient (v1)",
    "version": 1
  },
  "userdoc": {
    "errors": {
      "InvalidCall()": [
        {
          "notice": "The fallback has been triggered"
        }
      ],
      "InvalidInitialization(uint256,uint256)": [
        {
          "notice": "An error occured during the initialization"
        }
      ],
      "InvalidZeroAddress()": [
        {
          "notice": "The address is zero"
        }
      ],
      "Unauthorized(address)": [
        {
          "notice": "The operator is unauthorized for the caller"
        }
      ]
    },
    "events": {
      "Initialize(uint256,bytes)": {
        "notice": "Emitted when the contract is properly initialized"
      },
      "SetRiver(address)": {
        "notice": "The storage river address has changed"
      }
    },
    "kind": "user",
    "methods": {
      "initELFeeRecipientV1(address)": {
        "notice": "Initialize the fee recipient with the required arguments"
      },
      "pullELFees(uint256)": {
        "notice": "Pulls ETH to the River contract"
      },
      "version()": {
        "notice": "Retrieves the version of the contract"
      }
    },
    "notice": "This contract receives all the execution layer fees from the proposed blocks + bribes",
    "version": 1
  },
  "storageLayout": {
    "storage": [],
    "types": null
  }
}