{
  "address": "0x291f64A2F400a585cc0c3f0f96568D8Cf316d278",
  "abi": [
    {
      "inputs": [
        {
          "internalType": "address",
          "name": "newAddress",
          "type": "address"
        }
      ],
      "name": "AddressAlreadyInUse",
      "type": "error"
    },
    {
      "inputs": [
        {
          "internalType": "uint256",
          "name": "epochId",
          "type": "uint256"
        },
        {
          "internalType": "address",
          "name": "member",
          "type": "address"
        }
      ],
      "name": "AlreadyReported",
      "type": "error"
    },
    {
      "inputs": [
        {
          "internalType": "uint256",
          "name": "providedEpochId",
          "type": "uint256"
        },
        {
          "internalType": "uint256",
          "name": "minExpectedEpochId",
          "type": "uint256"
        }
      ],
      "name": "EpochTooOld",
      "type": "error"
    },
    {
      "inputs": [],
      "name": "InvalidArgument",
      "type": "error"
    },
    {
      "inputs": [],
      "name": "InvalidCall",
      "type": "error"
    },
    {
      "inputs": [
        {
          "internalType": "uint256",
          "name": "epoch",
          "type": "uint256"
        }
      ],
      "name": "InvalidEpoch",
      "type": "error"
    },
    {
      "inputs": [
        {
          "internalType": "uint256",
          "name": "version",
          "type": "uint256"
        },
        {
          "internalType": "uint256",
          "name": "expectedVersion",
          "type": "uint256"
        }
      ],
      "name": "InvalidInitialization",
      "type": "error"
    },
    {
      "inputs": [],
      "name": "InvalidZeroAddress",
      "type": "error"
    },
    {
      "inputs": [
        {
          "internalType": "uint256",
          "name": "index",
          "type": "uint256"
        },
        {
          "internalType": "uint256",
          "name": "length",
          "type": "uint256"
        }
      ],
      "name": "ReportIndexOutOfBounds",
      "type": "error"
    },
    {
      "inputs": [
        {
          "internalType": "address",
          "name": "caller",
          "type": "address"
        }
      ],
      "name": "Unauthorized",
      "type": "error"
    },
    {
      "anonymous": false,
      "inputs": [
        {
          "indexed": true,
          "internalType": "address",
          "name": "member",
          "type": "address"
        }
      ],
      "name": "AddMember",
      "type": "event"
    },
    {
      "anonymous": false,
      "inputs": [],
      "name": "ClearedReporting",
      "type": "event"
    },
    {
      "anonymous": false,
      "inputs": [
        {
          "indexed": false,
          "internalType": "uint256",
          "name": "version",
          "type": "uint256"
        },
        {
          "indexed": false,
          "internalType": "bytes",
          "name": "cdata",
          "type": "bytes"
        }
      ],
      "name": "Initialize",
      "type": "event"
    },
    {
      "anonymous": false,
      "inputs": [
        {
          "indexed": true,
          "internalType": "address",
          "name": "member",
          "type": "address"
        }
      ],
      "name": "RemoveMember",
      "type": "event"
    },
    {
      "anonymous": false,
      "inputs": [
        {
          "indexed": true,
          "internalType": "address",
          "name": "member",
          "type": "address"
        },
        {
          "indexed": true,
          "internalType": "bytes32",
          "name": "variant",
          "type": "bytes32"
        },
        {
          "components": [
            {
              "internalType": "uint256",
              "name": "epoch",
              "type": "uint256"
            },
            {
              "internalType": "uint256",
              "name": "validatorsBalance",
              "type": "uint256"
            },
            {
              "internalType": "uint256",
              "name": "validatorsSkimmedBalance",
              "type": "uint256"
            },
            {
              "internalType": "uint256",
              "name": "validatorsExitedBalance",
              "type": "uint256"
            },
            {
              "internalType": "uint256",
              "name": "validatorsExitingBalance",
              "type": "uint256"
            },
            {
              "internalType": "uint32",
              "name": "validatorsCount",
              "type": "uint32"
            },
            {
              "internalType": "uint32[]",
              "name": "stoppedValidatorCountPerOperator",
              "type": "uint32[]"
            },
            {
              "internalType": "bool",
              "name": "rebalanceDepositToRedeemMode",
              "type": "bool"
            },
            {
              "internalType": "bool",
              "name": "slashingContainmentMode",
              "type": "bool"
            }
          ],
          "indexed": false,
          "internalType": "struct IOracleManagerV1.ConsensusLayerReport",
          "name": "report",
          "type": "tuple"
        },
        {
          "indexed": false,
          "internalType": "uint256",
          "name": "voteCount",
          "type": "uint256"
        },
        {
          "indexed": false,
          "internalType": "uint256",
          "name": "quorum",
          "type": "uint256"
        }
      ],
      "name": "ReportedConsensusLayerData",
      "type": "event"
    },
    {
      "anonymous": false,
      "inputs": [
        {
          "indexed": true,
          "internalType": "address",
          "name": "admin",
          "type": "address"
        }
      ],
      "name": "SetAdmin",
      "type": "event"
    },
    {
      "anonymous": false,
      "inputs": [
        {
          "indexed": false,
          "internalType": "uint256",
          "name": "annualAprUpperBound",
          "type": "uint256"
        },
        {
          "indexed": false,
          "internalType": "uint256",
          "name": "relativeLowerBound",
          "type": "uint256"
        }
      ],
      "name": "SetBounds",
      "type": "event"
    },
    {
      "anonymous": false,
      "inputs": [
        {
          "indexed": false,
          "internalType": "uint256",
          "name": "lastReportedEpoch",
          "type": "uint256"
        }
      ],
      "name": "SetLastReportedEpoch",
      "type": "event"
    },
    {
      "anonymous": false,
      "inputs": [
        {
          "indexed": true,
          "internalType": "address",
          "name": "oldAddress",
          "type": "address"
        },
        {
          "indexed": true,
          "internalType": "address",
          "name": "newAddress",
          "type": "address"
        }
      ],
      "name": "SetMember",
      "type": "event"
    },
    {
      "anonymous": false,
      "inputs": [
        {
          "indexed": true,
          "internalType": "address",
          "name": "pendingAdmin",
          "type": "address"
        }
      ],
      "name": "SetPendingAdmin",
      "type": "event"
    },
    {
      "anonymous": false,
      "inputs": [
        {
          "indexed": false,
          "internalType": "uint256",
          "name": "newQuorum",
          "type": "uint256"
        }
      ],
      "name": "SetQuorum",
      "type": "event"
    },
    {
      "anonymous": false,
      "inputs": [
        {
          "indexed": false,
          "internalType": "address",
          "name": "_river",
          "type": "address"
        }
      ],
      "name": "SetRiver",
      "type": "event"
    },
    {
      "anonymous": false,
      "inputs": [
        {
          "indexed": false,
          "internalType": "uint64",
          "name": "epochsPerFrame",
          "type": "uint64"
        },
        {
          "indexed": false,
          "internalType": "uint64",
          "name": "slotsPerEpoch",
          "type": "uint64"
        },
        {
          "indexed": false,
          "internalType": "uint64",
          "name": "secondsPerSlot",
          "type": "uint64"
        },
        {
          "indexed": false,
          "internalType": "uint64",
          "name": "genesisTime",
          "type": "uint64"
        }
      ],
      "name": "SetSpec",
      "type": "event"
    },
    {
      "inputs": [],
      "name": "acceptAdmin",
      "outputs": [],
      "stateMutability": "nonpayable",
      "type": "function"
    },
    {
      "inputs": [
        {
          "internalType": "address",
          "name": "_newOracleMember",
          "type": "address"
        },
        {
          "internalType": "uint256",
          "name": "_newQuorum",
          "type": "uint256"
        }
      ],
      "name": "addMember",
      "outputs": [],
      "stateMutability": "nonpayable",
      "type": "function"
    },
    {
      "inputs": [],
      "name": "getAdmin",
      "outputs": [
        {
          "internalType": "address",
          "name": "",
          "type": "address"
        }
      ],
      "stateMutability": "view",
      "type": "function"
    },
    {
      "inputs": [],
      "name": "getGlobalReportStatus",
      "outputs": [
        {
          "internalType": "uint256",
          "name": "",
          "type": "uint256"
        }
      ],
      "stateMutability": "view",
      "type": "function"
    },
    {
      "inputs": [],
      "name": "getLastReportedEpochId",
      "outputs": [
        {
          "internalType": "uint256",
          "name": "",
          "type": "uint256"
        }
      ],
      "stateMutability": "view",
      "type": "function"
    },
    {
      "inputs": [
        {
          "internalType": "address",
          "name": "_oracleMember",
          "type": "address"
        }
      ],
      "name": "getMemberReportStatus",
      "outputs": [
        {
          "internalType": "bool",
          "name": "",
          "type": "bool"
        }
      ],
      "stateMutability": "view",
      "type": "function"
    },
    {
      "inputs": [],
      "name": "getOracleMembers",
      "outputs": [
        {
          "internalType": "address[]",
          "name": "",
          "type": "address[]"
        }
      ],
      "stateMutability": "view",
      "type": "function"
    },
    {
      "inputs": [],
      "name": "getPendingAdmin",
      "outputs": [
        {
          "internalType": "address",
          "name": "",
          "type": "address"
        }
      ],
      "stateMutability": "view",
      "type": "function"
    },
    {
      "inputs": [],
      "name": "getQuorum",
      "outputs": [
        {
          "internalType": "uint256",
          "name": "",
          "type": "uint256"
        }
      ],
      "stateMutability": "view",
      "type": "function"
    },
    {
      "inputs": [
        {
          "internalType": "uint256",
          "name": "_idx",
          "type": "uint256"
        }
      ],
      "name": "getReportVariantDetails",
      "outputs": [
        {
          "components": [
            {
              "internalType": "bytes32",
              "name": "variant",
              "type": "bytes32"
            },
            {
              "internalType": "uint256",
              "name": "votes",
              "type": "uint256"
            }
          ],
          "internalType": "struct ReportsVariants.ReportVariantDetails",
          "name": "",
          "type": "tuple"
        }
      ],
      "stateMutability": "view",
      "type": "function"
    },
    {
      "inputs": [],
      "name": "getReportVariantsCount",
      "outputs": [
        {
          "internalType": "uint256",
          "name": "",
          "type": "uint256"
        }
      ],
      "stateMutability": "view",
      "type": "function"
    },
    {
      "inputs": [],
      "name": "getRiver",
      "outputs": [
        {
          "internalType": "address",
          "name": "",
          "type": "address"
        }
      ],
      "stateMutability": "view",
      "type": "function"
    },
    {
      "inputs": [
        {
          "internalType": "address",
          "name": "_riverAddress",
          "type": "address"
        },
        {
          "internalType": "address",
          "name": "_administratorAddress",
          "type": "address"
        },
        {
          "internalType": "uint64",
          "name": "_epochsPerFrame",
          "type": "uint64"
        },
        {
          "internalType": "uint64",
          "name": "_slotsPerEpoch",
          "type": "uint64"
        },
        {
          "internalType": "uint64",
          "name": "_secondsPerSlot",
          "type": "uint64"
        },
        {
          "internalType": "uint64",
          "name": "_genesisTime",
          "type": "uint64"
        },
        {
          "internalType": "uint256",
          "name": "_annualAprUpperBound",
          "type": "uint256"
        },
        {
          "internalType": "uint256",
          "name": "_relativeLowerBound",
          "type": "uint256"
        }
      ],
      "name": "initOracleV1",
      "outputs": [],
      "stateMutability": "nonpayable",
      "type": "function"
    },
    {
      "inputs": [],
      "name": "initOracleV1_1",
      "outputs": [],
      "stateMutability": "nonpayable",
      "type": "function"
    },
    {
      "inputs": [
        {
          "internalType": "address",
          "name": "_memberAddress",
          "type": "address"
        }
      ],
      "name": "isMember",
      "outputs": [
        {
          "internalType": "bool",
          "name": "",
          "type": "bool"
        }
      ],
      "stateMutability": "view",
      "type": "function"
    },
    {
      "inputs": [
        {
          "internalType": "address",
          "name": "_newAdmin",
          "type": "address"
        }
      ],
      "name": "proposeAdmin",
      "outputs": [],
      "stateMutability": "nonpayable",
      "type": "function"
    },
    {
      "inputs": [
        {
          "internalType": "address",
          "name": "_oracleMember",
          "type": "address"
        },
        {
          "internalType": "uint256",
          "name": "_newQuorum",
          "type": "uint256"
        }
      ],
      "name": "removeMember",
      "outputs": [],
      "stateMutability": "nonpayable",
      "type": "function"
    },
    {
      "inputs": [
        {
          "components": [
            {
              "internalType": "uint256",
              "name": "epoch",
              "type": "uint256"
            },
            {
              "internalType": "uint256",
              "name": "validatorsBalance",
              "type": "uint256"
            },
            {
              "internalType": "uint256",
              "name": "validatorsSkimmedBalance",
              "type": "uint256"
            },
            {
              "internalType": "uint256",
              "name": "validatorsExitedBalance",
              "type": "uint256"
            },
            {
              "internalType": "uint256",
              "name": "validatorsExitingBalance",
              "type": "uint256"
            },
            {
              "internalType": "uint32",
              "name": "validatorsCount",
              "type": "uint32"
            },
            {
              "internalType": "uint32[]",
              "name": "stoppedValidatorCountPerOperator",
              "type": "uint32[]"
            },
            {
              "internalType": "bool",
              "name": "rebalanceDepositToRedeemMode",
              "type": "bool"
            },
            {
              "internalType": "bool",
              "name": "slashingContainmentMode",
              "type": "bool"
            }
          ],
          "internalType": "struct IOracleManagerV1.ConsensusLayerReport",
          "name": "_report",
          "type": "tuple"
        }
      ],
      "name": "reportConsensusLayerData",
      "outputs": [],
      "stateMutability": "nonpayable",
      "type": "function"
    },
    {
      "inputs": [
        {
          "internalType": "address",
          "name": "_oracleMember",
          "type": "address"
        },
        {
          "internalType": "address",
          "name": "_newAddress",
          "type": "address"
        }
      ],
      "name": "setMember",
      "outputs": [],
      "stateMutability": "nonpayable",
      "type": "function"
    },
    {
      "inputs": [
        {
          "internalType": "uint256",
          "name": "_newQuorum",
          "type": "uint256"
        }
      ],
      "name": "setQuorum",
      "outputs": [],
      "stateMutability": "nonpayable",
      "type": "function"
    },
    {
      "inputs": [],
      "name": "version",
      "outputs": [
        {
          "internalType": "string",
          "name": "",
          "type": "string"
        }
      ],
      "stateMutability": "pure",
      "type": "function"
    }
  ],
  "transactionHash": "0x0406735807ffc9e7205f2cc143afcde983a228c2c6525a95aecb40a019d0eaf4",
  "args": [],
  "numDeployments": 1,
  "solcInputHash": "7ebc7ef25dc340660cce17b337ec071d",
  "bytecode": "0x60808060405234610092577f1809e49bba43f2d39fa57894b50cd6ccb428cc438230e065cac3eb24a1355a7190600019807f82055909238c0f5e63d6f174068ebb8f51bcec9bd37de63bb68f6551feec0cfc558152604060208201523660408201523660006060830137600060603683010152606081601f19601f3601168101030190a16040516117dd90816100988239f35b600080fdfe6040608081526004908136101561001557600080fd5b600091823560e01c90816303bc7f2714610e495781630c64739714610dba5781630e18b68114610cfc578163147bf6c414610c8057816314c8cd6a14610c5457816316f6f03e14610af55781635190dce014610a9d57816354fd4d5014610a26578163628105d11461092f57816365872cbe146108f15781636e9960c3146108bb57816398041ea31461078c578163a230c5241461075d578163a519f06014610727578163b4aff5e714610662578163bc8b8f97146102ed578163c1ba4e591461026d57508063c26c12eb14610242578063d04681561461020d578063dabb5757146101385763fad2e86a1461010a57600080fd5b346101345781600319360112610134576020906000805160206116e8833981519152549051908152f35b5080fd5b50903461020a578060031936011261020a57815160008051602061170883398151915280548083529083526020939284830192909183907f63755606cf73d5c64eddfab3a72d02c5beec519b19bb6916c2013d93b726214590845b8181106101ed57505050816101a99103826112c7565b83519485948186019282875251809352850193925b8281106101cd57505050500390f35b83516001600160a01b0316855286955093810193928101926001016101be565b82546001600160a01b031684529288019260019283019201610193565b80fd5b50346101345781600319360112610134576000805160206116c88339815191525490516001600160a01b039091168152602090f35b5034610134578160031936011261013457602090600080516020611728833981519152549051908152f35b83833461013457602036600319011261013457600080516020611768833981519152548335906001600160a01b031633036102d75760008051602061172883398151915254918183146102c85750906102c591611439565b80f35b5163a9cb9e0d60e01b81528490fd5b815163472511eb60e11b81523381860152602490fd5b838334610134576101003660031901126101345761030961126a565b90610312611280565b93604435946001600160401b0380871680970361065d5760643581811680820361065d57608435928084169283850361065d5760a435948286169586810361065d5760c4359860e435987f82055909238c0f5e63d6f174068ebb8f51bcec9bd37de63bb68f6551feec0cfc80548061063e57506001905561039281611627565b6000805160206117688339815191528190556001600160a01b039081167f5a272403b402d892977df56625f4164ccaf70ca3863991c43ecfe76a6905b0a1600080a26103dd8d611627565b8c600080516020611748833981519152558b519c168c527ffc0d749143b04e0d92a3b49edae84a45f6bc88b75e99d9118ec4d7e87fe626c56020809da18a519060a08201908282108783111761062957509c608095819f957f1809e49bba43f2d39fa57894b50cd6ccb428cc438230e065cac3eb24a1355a719f958f8f9d9b967f5ab79ffcd89b6380c7fbdd89d02cfe3d9c53c99a85e150c2319075018d1aac5c9f9d988f928d987f4a7503ca21ae5342feb83892e899e95fb309502a0016ed300e4965e2dbfe73359e8e928e8b95885283528201528a858201528b606082015201526001600160401b0360c01b9060c01b16926001600160401b0360401b911b168817906001600160401b038a1b908a1b1617177fd84ee2c84c954c65bef1459fe03b761a42f49234527e3cd8fd9dce87cb83742a557fd84ee2c84c954c65bef1459fe03b761a42f49234527e3cd8fd9dce87cb83742b91166001600160401b031982541617905588519384528b840152878301526060820152a18086845161056681611296565b8481520152817ff81b149de6749a3f46464b2cce61e24462f67599ea4a5ce028aaf4ab1521f96d55807ff81b149de6749a3f46464b2cce61e24462f67599ea4a5ce028aaf4ab1521f96e55825191825285820152a183600080516020611728833981519152557f8e72be630a666d46b219565c1647e3792924d9c74e901fa3c4a33e23b91fb9b1828251868152a1808051926000845283015236908201523660006060830137600060603683010152606081601f19601f3601168101030190a180f35b604190634e487b7160e01b6000525260246000fd5b915050604492508d8c5192631cfd276760e31b84528301526024820152fd5b600080fd5b9050346107235782600319360112610723577f82055909238c0f5e63d6f174068ebb8f51bcec9bd37de63bb68f6551feec0cfc9081548060010361070657847f1809e49bba43f2d39fa57894b50cd6ccb428cc438230e065cac3eb24a1355a7185600286556106cf611526565b8051906001825280602083015236908201523660006060830137600060603683010152606081601f19601f3601168101030190a180f35b604492506001845192631cfd276760e31b84528301526024820152fd5b8280fd5b5050346101345781600319360112610134576000805160206117488339815191525490516001600160a01b039091168152602090f35b5050346101345760203660031901126101345760209161078361077e61126a565b611670565b12159051908152f35b9050346107235781600319360112610723576107a661126a565b600080516020611768833981519152546001600160a01b039391929190841633036108a457846107d584611670565b121561088d57506107e582611627565b600080516020611708833981519152805491600160401b83101561087a5750610818828492600161083795019055611649565b90919082549060031b9160018060a01b03809116831b921b1916179055565b61085260008051602061172883398151915254602435611439565b167f1a2323d99020f3db8e6ea85b1eea81e5bf422695877228e3d8a0241d7e957a6c8280a280f35b634e487b7160e01b865260419052602485fd5b9260249351926307bbad8160e51b84521690820152fd5b60249250519063472511eb60e11b82523390820152fd5b5050346101345781600319360112610134576000805160206117688339815191525490516001600160a01b039091168152602090f35b5050346101345781600319360112610134576020907faf3d74d3b4106d19ea8994739c1a66b48922195975ea284f4cd201487a79b9ec549051908152f35b90503461072357816003193601126107235761094961126a565b91610952611280565b9060018060a01b039283600080516020611768833981519152541633141580610a1a575b610a045761098383611627565b8561098d84611670565b12156109ec5761099c85611670565b918683126109df575050906109b5816108188594611649565b1691167fc20826a9a3cb354d2c12357704db9eb03d7344375b092d70146dbbbc4d3f84d18380a380f35b5163574b16a760e11b8152fd5b909260249351926307bbad8160e51b84521690820152fd5b602491519063472511eb60e11b82523390820152fd5b50838516331415610976565b5050346101345781600319360112610134578051610a4381611296565b6005815260209064312e322e3160d81b8282015282519382859384528251928382860152825b848110610a8757505050828201840152601f01601f19168101030190f35b8181018301518882018801528795508201610a69565b50503461013457602036600319011261013457602090610abe61077e61126a565b600019811415919082610ad5575b50519015158152f35b60019192501b806000805160206117888339815191525416149083610acc565b905034610723578160031936011261072357610b0f61126a565b600080516020611768833981519152546001600160a01b039391929190841633036108a457610b3d83611670565b90858212610c45575060008051602061170883398151915291825460001992838201918211610c3257908187928203610bec575b5050508254908115610bd957500190610b8982611649565b8582549160031b1b1916905555610bb160008051602061172883398151915254602435611439565b167f7693a3e9eac51f172f145e6f54bc5554168997a1f4efb40f3fad091aa7cfb0e78280a280f35b634e487b7160e01b875260319052602486fd5b610c2a92610bfc610c0593611649565b93905492611649565b92909360031b1c169082549060031b9160018060a01b03809116831b921b1916179055565b843880610b71565b634e487b7160e01b885260118352602488fd5b5163574b16a760e11b81529050fd5b505034610134578160031936011261013457602090600080516020611788833981519152549051908152f35b90503461072357602036600319011261072357610c9b61126a565b600080516020611768833981519152546001600160a01b039391929190841633036108a4575050806000805160206116c883398151915255167f2a0f8515de3fa34ef68b99300347b8793c01683350743e96fe440594528298f4600080a280f35b839150346101345781600319360112610134576000805160206116c8833981519152805490916001600160a01b038216919033839003610da357506000939450610d4581611627565b600080516020611768833981519152557f5a272403b402d892977df56625f4164ccaf70ca3863991c43ecfe76a6905b0a18380a25560007f2a0f8515de3fa34ef68b99300347b8793c01683350743e96fe440594528298f48180a280f35b60249086519063472511eb60e11b82523390820152fd5b839150346101345760203660031901126101345780359160208451610dde81611296565b82815201526000805160206116e88339815191525482811115610e2f5783610e05846112e8565b508151610e1181611296565b60206001835493848452015491019081528251918252516020820152f35b60449284519263b21b708160e01b84528301526024820152fd5b8391503461013457602090600319938285360112611266578135916001600160401b03958684116112625761012090848301943603011261125e57610e8d33611670565b956000198714611247577faf3d74d3b4106d19ea8994739c1a66b48922195975ea284f4cd201487a79b9ec9384549781359589871061122b57600080516020611748833981519152548651630f9f95a960e41b815286810189905260249b6001600160a01b039092169391908a818e81885afa908115611221578c916111e7575b50156111d1578811611199575b600180911b600080516020611788833981519152908154818082161461117d571790558651898101908a8252610f6581610f578b820189611347565b03601f1981018352826112c7565b519020610f71816115d1565b6000805160206117288339815191525484820180831161116b57848e7f76eeea294370eab10c370cba335d68bef19ccdb73231925a08563dcf69d5be678b8f8086610fc789935194606086526060860190611347565b958401528201528033930390a3106110a957505050610fe4611526565b870180971161109757869055803b156110935761102193929188918a838a8951988995869485936377eb342360e11b85528b850152830190611347565b03925af180156110895761105f575b5050507f3b16582fd30a1d07d3a11bd74e5cd9290bd62bf73d4df6a19e434b5bde09c47693945051908152a180f35b82969396116110775750845292935083858080611030565b634e487b7160e01b8352604190528582fd5b84513d89823e3d90fd5b8780fd5b634e487b7160e01b8952601185528989fd5b945094509694509794989996505015600014611134575051916110cb83611296565b82528101918383526000805160206116e8833981519152805490600160401b8210156111225785820190556110ff906112e8565b9590956111125750505183555191015580f35b634e487b7160e01b875286905285fd5b634e487b7160e01b8852604187528288fd5b9050849594925061114591506112e8565b500191825493840180941161115a5750505580f35b634e487b7160e01b85526011905283fd5b634e487b7160e01b8f5260118b528f8ffd5b6044898f8d8d5192637a6a90d160e11b84528301523390820152fd5b6111a1611526565b8782557f3b16582fd30a1d07d3a11bd74e5cd9290bd62bf73d4df6a19e434b5bde09c4768988518a8152a1610f1b565b875163a225656d60e01b81528088018a90528c90fd5b90508a81813d831161121a575b6111fe81836112c7565b8101031261121657518015158103611216578d610f0e565b8b80fd5b503d6111f4565b89513d8e823e3d90fd5b6044858b898951926304f6456960e11b84528301526024820152fd5b50602491519063472511eb60e11b82523390820152fd5b8480fd5b8580fd5b8380fd5b600435906001600160a01b038216820361065d57565b602435906001600160a01b038216820361065d57565b604081019081106001600160401b038211176112b157604052565b634e487b7160e01b600052604160045260246000fd5b90601f801991011681019081106001600160401b038211176112b157604052565b6000805160206116e883398151915280548210156113135760005260206000209060011b0190600090565b634e487b7160e01b600052603260045260246000fd5b359063ffffffff8216820361065d57565b3590811515820361065d57565b906101209182820192813583526020808301358185015260408301356040850152606083013560608501526080830135608085015263ffffffff8061138e60a08601611329565b1660a086015260c0840135601e198536030181121561065d578401928284359401966001600160401b03851161065d578460051b3603881361065d57849392949160c088015252610140850195926000905b8382106114155750505050506113f860e0820161133a565b151560e083015261140d61010080920161133a565b151591015290565b90919293968380600192846114298c611329565b16815201980194939201906113e0565b90604051908160008051602061170883398151915281815491828652602080960190600052856000209260005b878282106115075750505061147d925003826112c7565b51831590816114fd575b81156114f3575b506114e15761149b611526565b82036114a5575050565b817f8e72be630a666d46b219565c1647e3792924d9c74e901fa3c4a33e23b91fb9b19260008051602061172883398151915255604051908152a1565b60405163a9cb9e0d60e01b8152600490fd5b905083113861148e565b8015159150611487565b85546001600160a01b0316845260019586019587955093019201611466565b6000805160206116e8833981519152908154916000908181558361157f575b507f59bc16d5874dc28f6f69be9e88387299800118ede161a5169eec92191977ebe5919250806000805160206117888339815191525580a1565b6001600160ff1b03841684036115bd5781526020812092600190811b8401935b8481106115ac5750611545565b80836002925583838201550161159f565b634e487b7160e01b82526011600452602482fd5b906000805160206116e8833981519152549160005b8381106115fa575060001992506000919050565b81611604826112e8565b505414611613576001016115e6565b9250506001611621836112e8565b50015490565b6001600160a01b03161561163757565b60405163f6b2911f60e01b8152600490fd5b60008051602061170883398151915280548210156113135760005260206000200190600090565b600080516020611708833981519152549060005b8281106116945750505060001990565b61169d81611649565b905460039190911b1c6001600160a01b03908116908316146116c157600101611684565b9150509056fe6e6ab8b7c7aaba79eef8cc633522d606bb008c101cf9832c9ad05d10a9847280f1827321f6d023724a23b4e28f3ef67f741d185cff4e224f6dcbb56935784fccc4aba040293e5848600dd7b64a390db880c4a70937c23383e6c5b6619689863affa4a5d927096d2bbb9d71111d7c9929ecbdcbe9bffc8d35f55b642e81698eba1ec4138404500a2a0be2c2f9b103581c2a7fa783a934f91a6cc5cc924404973bb5b37715a3e346e996104f0086703f19825def429233930fd9399c38e05fb11250e65b39a6b6b7bb3298d9d19e41cecec530b7916ba516c44f4d79e3a9dcd7a6a2646970667358221220957bfad01e6f2bf6cdb0d06a791bc6e405941861c7be8ded67f2b6e38e5f0e3764736f6c63430008140033",
  "devdoc": {
    "author": "Alluvial Finance Inc.",
    "errors": {
      "AddressAlreadyInUse(address)": [
        {
          "params": {
            "newAddress": "The address already in use"
          }
        }
      ],
      "AlreadyReported(uint256,address)": [
        {
          "params": {
            "epochId": "The epoch id provided as input",
            "member": "The oracle member"
          }
        }
      ],
      "EpochTooOld(uint256,uint256)": [
        {
          "params": {
            "minExpectedEpochId": "The minimum epoch id expected",
            "providedEpochId": "The epoch id provided as input"
          }
        }
      ],
      "InvalidEpoch(uint256)": [
        {
          "params": {
            "epoch": "The invalid epoch"
          }
        }
      ],
      "InvalidInitialization(uint256,uint256)": [
        {
          "params": {
            "expectedVersion": "The version that was expected",
            "version": "The version that was attempting to be initialized"
          }
        }
      ],
      "ReportIndexOutOfBounds(uint256,uint256)": [
        {
          "params": {
            "index": "Requested index",
            "length": "Size of the variant array"
          }
        }
      ],
      "Unauthorized(address)": [
        {
          "params": {
            "caller": "Address performing the call"
          }
        }
      ]
    },
    "events": {
      "AddMember(address)": {
        "params": {
          "member": "The address of the member"
        }
      },
      "Initialize(uint256,bytes)": {
        "params": {
          "cdata": "Complete calldata that was used during the initialization",
          "version": "New version of the contracts"
        }
      },
      "RemoveMember(address)": {
        "params": {
          "member": "The address of the member"
        }
      },
      "ReportedConsensusLayerData(address,bytes32,(uint256,uint256,uint256,uint256,uint256,uint32,uint32[],bool,bool),uint256,uint256)": {
        "params": {
          "member": "The oracle member",
          "report": "The raw report structure",
          "variant": "The variant of the report",
          "voteCount": "The vote count"
        }
      },
      "SetAdmin(address)": {
        "params": {
          "admin": "New admin address"
        }
      },
      "SetBounds(uint256,uint256)": {
        "params": {
          "annualAprUpperBound": "The maximum allowed apr. 10% means increases in balance extrapolated to a year should not exceed 10%.",
          "relativeLowerBound": "The maximum allowed balance decrease as a relative % of the total balance"
        }
      },
      "SetMember(address,address)": {
        "params": {
          "newAddress": "The new member address",
          "oldAddress": "The previous member address"
        }
      },
      "SetPendingAdmin(address)": {
        "params": {
          "pendingAdmin": "New pending admin address"
        }
      },
      "SetQuorum(uint256)": {
        "params": {
          "newQuorum": "The new quorum value"
        }
      },
      "SetRiver(address)": {
        "params": {
          "_river": "The new river address"
        }
      },
      "SetSpec(uint64,uint64,uint64,uint64)": {
        "params": {
          "epochsPerFrame": "The number of epochs inside a frame (225 = 24 hours)",
          "genesisTime": "The timestamp of block #0",
          "secondsPerSlot": "The time between two slots (12 seconds on ethereum mainnet)",
          "slotsPerEpoch": "The number of slots inside an epoch (32 on ethereum mainnet)"
        }
      }
    },
    "kind": "dev",
    "methods": {
      "acceptAdmin()": {
        "details": "Only callable by the pending admin. Resets the pending admin if succesful."
      },
      "addMember(address,uint256)": {
        "details": "Only callable by the adminstratorModifying the quorum clears all the reporting data",
        "params": {
          "_newOracleMember": "Address of the new member",
          "_newQuorum": "New quorum value"
        }
      },
      "getAdmin()": {
        "returns": {
          "_0": "The admin address"
        }
      },
      "getGlobalReportStatus()": {
        "returns": {
          "_0": "The raw report status value"
        }
      },
      "getLastReportedEpochId()": {
        "details": "The Oracle contracts expects reports on an epoch id >= that the returned value",
        "returns": {
          "_0": "The last reported epoch id"
        }
      },
      "getMemberReportStatus(address)": {
        "params": {
          "_oracleMember": "Address of member to check"
        },
        "returns": {
          "_0": "True if member has reported"
        }
      },
      "getOracleMembers()": {
        "returns": {
          "_0": "The oracle members"
        }
      },
      "getPendingAdmin()": {
        "returns": {
          "_0": "The pending admin address"
        }
      },
      "getQuorum()": {
        "returns": {
          "_0": "The current quorum"
        }
      },
      "getReportVariantDetails(uint256)": {
        "params": {
          "_idx": "The index of the report variant"
        },
        "returns": {
          "_0": "The report variant details"
        }
      },
      "getReportVariantsCount()": {
        "returns": {
          "_0": "The count of report variants"
        }
      },
      "getRiver()": {
        "returns": {
          "_0": "The address of River"
        }
      },
      "initOracleV1(address,address,uint64,uint64,uint64,uint64,uint256,uint256)": {
        "params": {
          "_administratorAddress": "Address able to call administrative methods",
          "_annualAprUpperBound": "CL bound parameter. Maximum apr allowed for balance increase. Delta between updates is extrapolated on a year time frame.",
          "_epochsPerFrame": "CL spec parameter. Number of epochs in a frame.",
          "_genesisTime": "CL spec parameter. Timestamp of the genesis slot.",
          "_relativeLowerBound": "CL bound parameter. Maximum relative balance decrease.",
          "_river": "Address of the River contract, able to receive oracle input data after quorum is met",
          "_secondsPerSlot": "CL spec parameter. Number of seconds between slots.",
          "_slotsPerEpoch": "CL spec parameter. Number of slots in one epoch."
        }
      },
      "isMember(address)": {
        "details": "Performs a naive search, do not call this on-chain, used as an off-chain helper",
        "params": {
          "_memberAddress": "Address of the member"
        },
        "returns": {
          "_0": "True if address is a member"
        }
      },
      "proposeAdmin(address)": {
        "details": "This security prevents setting an invalid address as an admin. The pendingadmin has to claim its ownership of the contract, and prove that the newaddress is able to perform regular transactions.",
        "params": {
          "_newAdmin": "New admin address"
        }
      },
      "removeMember(address,uint256)": {
        "details": "Only callable by the adminstratorModifying the quorum clears all the reporting dataRemaining members that have already voted should vote again for the same frame.",
        "params": {
          "_newQuorum": "New quorum value",
          "_oracleMember": "Address to remove"
        }
      },
      "reportConsensusLayerData((uint256,uint256,uint256,uint256,uint256,uint32,uint32[],bool,bool))": {
        "params": {
          "_report": "The report structure"
        }
      },
      "setMember(address,address)": {
        "details": "Only callable by the adminitrator or the member itselfCannot use an address already in use",
        "params": {
          "_newAddress": "New address for the member",
          "_oracleMember": "Address to change"
        }
      },
      "setQuorum(uint256)": {
        "details": "Modifying the quorum clears all the reporting data",
        "params": {
          "_newQuorum": "New quorum parameter"
        }
      },
      "version()": {
        "returns": {
          "_0": "Version of the contract"
        }
      }
    },
    "title": "Oracle (v1)",
    "version": 1
  },
  "userdoc": {
    "errors": {
      "AddressAlreadyInUse(address)": [
        {
          "notice": "The address is already in use by an oracle member"
        }
      ],
      "AlreadyReported(uint256,address)": [
        {
          "notice": "The member already reported on the given epoch id"
        }
      ],
      "EpochTooOld(uint256,uint256)": [
        {
          "notice": "The provided epoch is too old compared to the expected epoch id"
        }
      ],
      "InvalidArgument()": [
        {
          "notice": "The argument was invalid"
        }
      ],
      "InvalidCall()": [
        {
          "notice": "The call was invalid"
        }
      ],
      "InvalidEpoch(uint256)": [
        {
          "notice": "Thrown when the reported epoch is invalid"
        }
      ],
      "InvalidInitialization(uint256,uint256)": [
        {
          "notice": "An error occured during the initialization"
        }
      ],
      "InvalidZeroAddress()": [
        {
          "notice": "The address is zero"
        }
      ],
      "ReportIndexOutOfBounds(uint256,uint256)": [
        {
          "notice": "Thrown when the report indexs fetched is out of bounds"
        }
      ],
      "Unauthorized(address)": [
        {
          "notice": "The operator is unauthorized for the caller"
        }
      ]
    },
    "events": {
      "AddMember(address)": {
        "notice": "A member has been added to the oracle member list"
      },
      "ClearedReporting()": {
        "notice": "Cleared reporting data"
      },
      "Initialize(uint256,bytes)": {
        "notice": "Emitted when the contract is properly initialized"
      },
      "RemoveMember(address)": {
        "notice": "A member has been removed from the oracle member list"
      },
      "ReportedConsensusLayerData(address,bytes32,(uint256,uint256,uint256,uint256,uint256,uint32,uint32[],bool,bool),uint256,uint256)": {
        "notice": "An oracle member performed a report"
      },
      "SetAdmin(address)": {
        "notice": "The admin address changed"
      },
      "SetBounds(uint256,uint256)": {
        "notice": "The report bounds have been changed"
      },
      "SetLastReportedEpoch(uint256)": {
        "notice": "The last reported epoch has changed"
      },
      "SetMember(address,address)": {
        "notice": "A member address has been edited"
      },
      "SetPendingAdmin(address)": {
        "notice": "The pending admin address changed"
      },
      "SetQuorum(uint256)": {
        "notice": "The storage quorum value has been changed"
      },
      "SetRiver(address)": {
        "notice": "The storage river address value has been changed"
      },
      "SetSpec(uint64,uint64,uint64,uint64)": {
        "notice": "The consensus layer spec has been changed"
      }
    },
    "kind": "user",
    "methods": {
      "acceptAdmin()": {
        "notice": "Accept the transfer of ownership"
      },
      "addMember(address,uint256)": {
        "notice": "Adds new address as oracle member, giving the ability to push cl reports."
      },
      "getAdmin()": {
        "notice": "Retrieves the current admin address"
      },
      "getGlobalReportStatus()": {
        "notice": "Retrieve member report status"
      },
      "getLastReportedEpochId()": {
        "notice": "Retrieve the last reported epoch id"
      },
      "getMemberReportStatus(address)": {
        "notice": "Retrieve member report status"
      },
      "getOracleMembers()": {
        "notice": "Retrieve the list of oracle members"
      },
      "getPendingAdmin()": {
        "notice": "Retrieve the current pending admin address"
      },
      "getQuorum()": {
        "notice": "Retrieve the current quorum"
      },
      "getReportVariantDetails(uint256)": {
        "notice": "Retrieve the details of a report variant"
      },
      "getReportVariantsCount()": {
        "notice": "Retrieve report variants count"
      },
      "getRiver()": {
        "notice": "Retrieve River address"
      },
      "initOracleV1(address,address,uint64,uint64,uint64,uint64,uint256,uint256)": {
        "notice": "Initializes the oracle"
      },
      "initOracleV1_1()": {
        "notice": "Initializes the oracle"
      },
      "isMember(address)": {
        "notice": "Returns true if address is member"
      },
      "proposeAdmin(address)": {
        "notice": "Proposes a new address as admin"
      },
      "removeMember(address,uint256)": {
        "notice": "Removes an address from the oracle members."
      },
      "reportConsensusLayerData((uint256,uint256,uint256,uint256,uint256,uint32,uint32[],bool,bool))": {
        "notice": "Submit a report as an oracle member"
      },
      "setMember(address,address)": {
        "notice": "Changes the address of an oracle member"
      },
      "setQuorum(uint256)": {
        "notice": "Edits the quorum required to forward cl data to River"
      },
      "version()": {
        "notice": "Retrieves the version of the contract"
      }
    },
    "notice": "This contract handles the input from the allowed oracle members. Highly inspired by Lido's implementation.",
    "version": 1
  },
  "storageLayout": {
    "storage": [],
    "types": null
  }
}