{
  "address": "0x5F95085152E8F2D0774bC5c041a15B35558747a2",
  "abi": [
    {
      "inputs": [
        {
          "internalType": "address",
          "name": "newAddress",
          "type": "address"
        }
      ],
      "name": "AddressAlreadyInUse",
      "type": "error"
    },
    {
      "inputs": [
        {
          "internalType": "uint256",
          "name": "epochId",
          "type": "uint256"
        },
        {
          "internalType": "address",
          "name": "member",
          "type": "address"
        }
      ],
      "name": "AlreadyReported",
      "type": "error"
    },
    {
      "inputs": [
        {
          "internalType": "uint256",
          "name": "providedEpochId",
          "type": "uint256"
        },
        {
          "internalType": "uint256",
          "name": "minExpectedEpochId",
          "type": "uint256"
        }
      ],
      "name": "EpochTooOld",
      "type": "error"
    },
    {
      "inputs": [],
      "name": "InvalidArgument",
      "type": "error"
    },
    {
      "inputs": [],
      "name": "InvalidCall",
      "type": "error"
    },
    {
      "inputs": [
        {
          "internalType": "uint256",
          "name": "epoch",
          "type": "uint256"
        }
      ],
      "name": "InvalidEpoch",
      "type": "error"
    },
    {
      "inputs": [
        {
          "internalType": "uint256",
          "name": "version",
          "type": "uint256"
        },
        {
          "internalType": "uint256",
          "name": "expectedVersion",
          "type": "uint256"
        }
      ],
      "name": "InvalidInitialization",
      "type": "error"
    },
    {
      "inputs": [],
      "name": "InvalidZeroAddress",
      "type": "error"
    },
    {
      "inputs": [
        {
          "internalType": "uint256",
          "name": "index",
          "type": "uint256"
        },
        {
          "internalType": "uint256",
          "name": "length",
          "type": "uint256"
        }
      ],
      "name": "ReportIndexOutOfBounds",
      "type": "error"
    },
    {
      "inputs": [
        {
          "internalType": "address",
          "name": "caller",
          "type": "address"
        }
      ],
      "name": "Unauthorized",
      "type": "error"
    },
    {
      "anonymous": false,
      "inputs": [
        {
          "indexed": true,
          "internalType": "address",
          "name": "member",
          "type": "address"
        }
      ],
      "name": "AddMember",
      "type": "event"
    },
    {
      "anonymous": false,
      "inputs": [],
      "name": "ClearedReporting",
      "type": "event"
    },
    {
      "anonymous": false,
      "inputs": [
        {
          "indexed": false,
          "internalType": "uint256",
          "name": "version",
          "type": "uint256"
        },
        {
          "indexed": false,
          "internalType": "bytes",
          "name": "cdata",
          "type": "bytes"
        }
      ],
      "name": "Initialize",
      "type": "event"
    },
    {
      "anonymous": false,
      "inputs": [
        {
          "indexed": true,
          "internalType": "address",
          "name": "member",
          "type": "address"
        }
      ],
      "name": "RemoveMember",
      "type": "event"
    },
    {
      "anonymous": false,
      "inputs": [
        {
          "indexed": true,
          "internalType": "address",
          "name": "member",
          "type": "address"
        },
        {
          "indexed": true,
          "internalType": "bytes32",
          "name": "variant",
          "type": "bytes32"
        },
        {
          "components": [
            {
              "internalType": "uint256",
              "name": "epoch",
              "type": "uint256"
            },
            {
              "internalType": "uint256",
              "name": "validatorsBalance",
              "type": "uint256"
            },
            {
              "internalType": "uint256",
              "name": "validatorsSkimmedBalance",
              "type": "uint256"
            },
            {
              "internalType": "uint256",
              "name": "validatorsExitedBalance",
              "type": "uint256"
            },
            {
              "internalType": "uint256",
              "name": "validatorsExitingBalance",
              "type": "uint256"
            },
            {
              "internalType": "uint32",
              "name": "validatorsCount",
              "type": "uint32"
            },
            {
              "internalType": "uint32[]",
              "name": "stoppedValidatorCountPerOperator",
              "type": "uint32[]"
            },
            {
              "internalType": "bool",
              "name": "rebalanceDepositToRedeemMode",
              "type": "bool"
            },
            {
              "internalType": "bool",
              "name": "slashingContainmentMode",
              "type": "bool"
            }
          ],
          "indexed": false,
          "internalType": "struct IOracleManagerV1.ConsensusLayerReport",
          "name": "report",
          "type": "tuple"
        },
        {
          "indexed": false,
          "internalType": "uint256",
          "name": "voteCount",
          "type": "uint256"
        },
        {
          "indexed": false,
          "internalType": "uint256",
          "name": "quorum",
          "type": "uint256"
        }
      ],
      "name": "ReportedConsensusLayerData",
      "type": "event"
    },
    {
      "anonymous": false,
      "inputs": [
        {
          "indexed": true,
          "internalType": "address",
          "name": "admin",
          "type": "address"
        }
      ],
      "name": "SetAdmin",
      "type": "event"
    },
    {
      "anonymous": false,
      "inputs": [
        {
          "indexed": false,
          "internalType": "uint256",
          "name": "annualAprUpperBound",
          "type": "uint256"
        },
        {
          "indexed": false,
          "internalType": "uint256",
          "name": "relativeLowerBound",
          "type": "uint256"
        }
      ],
      "name": "SetBounds",
      "type": "event"
    },
    {
      "anonymous": false,
      "inputs": [
        {
          "indexed": false,
          "internalType": "uint256",
          "name": "lastReportedEpoch",
          "type": "uint256"
        }
      ],
      "name": "SetLastReportedEpoch",
      "type": "event"
    },
    {
      "anonymous": false,
      "inputs": [
        {
          "indexed": true,
          "internalType": "address",
          "name": "oldAddress",
          "type": "address"
        },
        {
          "indexed": true,
          "internalType": "address",
          "name": "newAddress",
          "type": "address"
        }
      ],
      "name": "SetMember",
      "type": "event"
    },
    {
      "anonymous": false,
      "inputs": [
        {
          "indexed": true,
          "internalType": "address",
          "name": "pendingAdmin",
          "type": "address"
        }
      ],
      "name": "SetPendingAdmin",
      "type": "event"
    },
    {
      "anonymous": false,
      "inputs": [
        {
          "indexed": false,
          "internalType": "uint256",
          "name": "newQuorum",
          "type": "uint256"
        }
      ],
      "name": "SetQuorum",
      "type": "event"
    },
    {
      "anonymous": false,
      "inputs": [
        {
          "indexed": false,
          "internalType": "address",
          "name": "_river",
          "type": "address"
        }
      ],
      "name": "SetRiver",
      "type": "event"
    },
    {
      "anonymous": false,
      "inputs": [
        {
          "indexed": false,
          "internalType": "uint64",
          "name": "epochsPerFrame",
          "type": "uint64"
        },
        {
          "indexed": false,
          "internalType": "uint64",
          "name": "slotsPerEpoch",
          "type": "uint64"
        },
        {
          "indexed": false,
          "internalType": "uint64",
          "name": "secondsPerSlot",
          "type": "uint64"
        },
        {
          "indexed": false,
          "internalType": "uint64",
          "name": "genesisTime",
          "type": "uint64"
        }
      ],
      "name": "SetSpec",
      "type": "event"
    },
    {
      "inputs": [],
      "name": "acceptAdmin",
      "outputs": [],
      "stateMutability": "nonpayable",
      "type": "function"
    },
    {
      "inputs": [
        {
          "internalType": "address",
          "name": "_newOracleMember",
          "type": "address"
        },
        {
          "internalType": "uint256",
          "name": "_newQuorum",
          "type": "uint256"
        }
      ],
      "name": "addMember",
      "outputs": [],
      "stateMutability": "nonpayable",
      "type": "function"
    },
    {
      "inputs": [],
      "name": "getAdmin",
      "outputs": [
        {
          "internalType": "address",
          "name": "",
          "type": "address"
        }
      ],
      "stateMutability": "view",
      "type": "function"
    },
    {
      "inputs": [],
      "name": "getGlobalReportStatus",
      "outputs": [
        {
          "internalType": "uint256",
          "name": "",
          "type": "uint256"
        }
      ],
      "stateMutability": "view",
      "type": "function"
    },
    {
      "inputs": [],
      "name": "getLastReportedEpochId",
      "outputs": [
        {
          "internalType": "uint256",
          "name": "",
          "type": "uint256"
        }
      ],
      "stateMutability": "view",
      "type": "function"
    },
    {
      "inputs": [
        {
          "internalType": "address",
          "name": "_oracleMember",
          "type": "address"
        }
      ],
      "name": "getMemberReportStatus",
      "outputs": [
        {
          "internalType": "bool",
          "name": "",
          "type": "bool"
        }
      ],
      "stateMutability": "view",
      "type": "function"
    },
    {
      "inputs": [],
      "name": "getOracleMembers",
      "outputs": [
        {
          "internalType": "address[]",
          "name": "",
          "type": "address[]"
        }
      ],
      "stateMutability": "view",
      "type": "function"
    },
    {
      "inputs": [],
      "name": "getPendingAdmin",
      "outputs": [
        {
          "internalType": "address",
          "name": "",
          "type": "address"
        }
      ],
      "stateMutability": "view",
      "type": "function"
    },
    {
      "inputs": [],
      "name": "getQuorum",
      "outputs": [
        {
          "internalType": "uint256",
          "name": "",
          "type": "uint256"
        }
      ],
      "stateMutability": "view",
      "type": "function"
    },
    {
      "inputs": [
        {
          "internalType": "uint256",
          "name": "_idx",
          "type": "uint256"
        }
      ],
      "name": "getReportVariantDetails",
      "outputs": [
        {
          "components": [
            {
              "internalType": "bytes32",
              "name": "variant",
              "type": "bytes32"
            },
            {
              "internalType": "uint256",
              "name": "votes",
              "type": "uint256"
            }
          ],
          "internalType": "struct ReportsVariants.ReportVariantDetails",
          "name": "",
          "type": "tuple"
        }
      ],
      "stateMutability": "view",
      "type": "function"
    },
    {
      "inputs": [],
      "name": "getReportVariantsCount",
      "outputs": [
        {
          "internalType": "uint256",
          "name": "",
          "type": "uint256"
        }
      ],
      "stateMutability": "view",
      "type": "function"
    },
    {
      "inputs": [],
      "name": "getRiver",
      "outputs": [
        {
          "internalType": "address",
          "name": "",
          "type": "address"
        }
      ],
      "stateMutability": "view",
      "type": "function"
    },
    {
      "inputs": [
        {
          "internalType": "address",
          "name": "_riverAddress",
          "type": "address"
        },
        {
          "internalType": "address",
          "name": "_administratorAddress",
          "type": "address"
        },
        {
          "internalType": "uint64",
          "name": "_epochsPerFrame",
          "type": "uint64"
        },
        {
          "internalType": "uint64",
          "name": "_slotsPerEpoch",
          "type": "uint64"
        },
        {
          "internalType": "uint64",
          "name": "_secondsPerSlot",
          "type": "uint64"
        },
        {
          "internalType": "uint64",
          "name": "_genesisTime",
          "type": "uint64"
        },
        {
          "internalType": "uint256",
          "name": "_annualAprUpperBound",
          "type": "uint256"
        },
        {
          "internalType": "uint256",
          "name": "_relativeLowerBound",
          "type": "uint256"
        }
      ],
      "name": "initOracleV1",
      "outputs": [],
      "stateMutability": "nonpayable",
      "type": "function"
    },
    {
      "inputs": [],
      "name": "initOracleV1_1",
      "outputs": [],
      "stateMutability": "nonpayable",
      "type": "function"
    },
    {
      "inputs": [
        {
          "internalType": "address",
          "name": "_memberAddress",
          "type": "address"
        }
      ],
      "name": "isMember",
      "outputs": [
        {
          "internalType": "bool",
          "name": "",
          "type": "bool"
        }
      ],
      "stateMutability": "view",
      "type": "function"
    },
    {
      "inputs": [
        {
          "internalType": "address",
          "name": "_newAdmin",
          "type": "address"
        }
      ],
      "name": "proposeAdmin",
      "outputs": [],
      "stateMutability": "nonpayable",
      "type": "function"
    },
    {
      "inputs": [
        {
          "internalType": "address",
          "name": "_oracleMember",
          "type": "address"
        },
        {
          "internalType": "uint256",
          "name": "_newQuorum",
          "type": "uint256"
        }
      ],
      "name": "removeMember",
      "outputs": [],
      "stateMutability": "nonpayable",
      "type": "function"
    },
    {
      "inputs": [
        {
          "components": [
            {
              "internalType": "uint256",
              "name": "epoch",
              "type": "uint256"
            },
            {
              "internalType": "uint256",
              "name": "validatorsBalance",
              "type": "uint256"
            },
            {
              "internalType": "uint256",
              "name": "validatorsSkimmedBalance",
              "type": "uint256"
            },
            {
              "internalType": "uint256",
              "name": "validatorsExitedBalance",
              "type": "uint256"
            },
            {
              "internalType": "uint256",
              "name": "validatorsExitingBalance",
              "type": "uint256"
            },
            {
              "internalType": "uint32",
              "name": "validatorsCount",
              "type": "uint32"
            },
            {
              "internalType": "uint32[]",
              "name": "stoppedValidatorCountPerOperator",
              "type": "uint32[]"
            },
            {
              "internalType": "bool",
              "name": "rebalanceDepositToRedeemMode",
              "type": "bool"
            },
            {
              "internalType": "bool",
              "name": "slashingContainmentMode",
              "type": "bool"
            }
          ],
          "internalType": "struct IOracleManagerV1.ConsensusLayerReport",
          "name": "_report",
          "type": "tuple"
        }
      ],
      "name": "reportConsensusLayerData",
      "outputs": [],
      "stateMutability": "nonpayable",
      "type": "function"
    },
    {
      "inputs": [
        {
          "internalType": "address",
          "name": "_oracleMember",
          "type": "address"
        },
        {
          "internalType": "address",
          "name": "_newAddress",
          "type": "address"
        }
      ],
      "name": "setMember",
      "outputs": [],
      "stateMutability": "nonpayable",
      "type": "function"
    },
    {
      "inputs": [
        {
          "internalType": "uint256",
          "name": "_newQuorum",
          "type": "uint256"
        }
      ],
      "name": "setQuorum",
      "outputs": [],
      "stateMutability": "nonpayable",
      "type": "function"
    }
  ],
  "transactionHash": "0x49cb947a146ee828cdefaec063e69edd09a6cf9b4fbbb5348b6184a3d44daf37",
  "args": [],
  "numDeployments": 1,
  "solcInputHash": "326843f44b9486998dc19acaea9f584b",
  "bytecode": "0x60806040523480156200001157600080fd5b506200002a6000196200007060201b62000cc41760201c565b7f1809e49bba43f2d39fa57894b50cd6ccb428cc438230e065cac3eb24a1355a716000196000366040516200006293929190620000bd565b60405180910390a162000119565b620000b6620000a160017f82055909238c0f5e63d6f174068ebb8f51bcec9bd37de63bb68f6551feec0cfd620000f3565b60001b82620000b960201b62000ce51760201c565b50565b9055565b83815260406020820152816040820152818360608301376000818301606090810191909152601f909201601f1916010192915050565b6000828210156200011457634e487b7160e01b600052601160045260246000fd5b500390565b611bbb80620001296000396000f3fe608060405234801561001057600080fd5b50600436106100fc5760003560e01c806303bc7f27146101015780630c647397146101165780630e18b68114610149578063147bf6c41461015157806314c8cd6a1461016457806316f6f03e1461017a5780635190dce01461018d578063628105d1146101b057806365872cbe146101c35780636e9960c3146101cb57806398041ea3146101e0578063a230c524146101f3578063a519f06014610206578063b4aff5e71461020e578063bc8b8f9714610216578063c1ba4e5914610229578063c26c12eb1461023c578063d046815614610244578063dabb57571461024c578063fad2e86a14610261575b600080fd5b61011461010f3660046115c4565b610269565b005b6101296101243660046115ff565b610593565b604080518251815260209283015192810192909252015b60405180910390f35b61011461062f565b61011461015f366004611634565b610686565b61016c6106cd565b604051908152602001610140565b61011461018836600461164f565b6106dc565b6101a061019b366004611634565b61079f565b6040519015158152602001610140565b6101146101be366004611679565b6107ca565b61016c6108d0565b6101d36108da565b60405161014091906116ac565b6101146101ee36600461164f565b6108e4565b6101a0610201366004611634565b6109a8565b6101d36109bc565b6101146109c6565b6101146102243660046116d7565b610a49565b6101146102373660046115ff565b610c20565b61016c610c96565b6101d3610ca0565b610254610caa565b6040516101409190611760565b61016c610cb4565b600061027433610ce9565b90508060001914156102a4573360405163472511eb60e11b815260040161029b91906116ac565b60405180910390fd5b60006102ae610d6a565b905082358111156102e55782356102c3610d6a565b6040516304f6456960e11b81526004810192909252602482015260440161029b565b60006102ef610d8c565b604051630f9f95a960e41b8152853560048201529091506001600160a01b0382169063f9f95a9090602401602060405180830381865afa158015610337573d6000803e3d6000fd5b505050506040513d601f19601f8201168201806040525081019061035b91906117bb565b61037b5760405163a225656d60e01b81528435600482015260240161029b565b83358210156103b95761038c610daa565b6103968435610de5565b60405184358152600080516020611b468339815191529060200160405180910390a15b6103c283610e01565b156103e957604051637a6a90d160e11b81528435600482015233602482015260440161029b565b6103f283610e32565b60006103fd85610e76565b905060008061040b83610ea6565b915091506000610419610f41565b905083337f76eeea294370eab10c370cba335d68bef19ccdb73231925a08563dcf69d5be678a61044a8660016117ee565b8560405161045a93929190611954565b60405180910390a38061046e8360016117ee565b106105205761047b610daa565b61048f61048a893560016117ee565b610de5565b6040516377eb342360e11b81526001600160a01b0386169063efd66846906104bb908b90600401611979565b600060405180830381600087803b1580156104d557600080fd5b505af11580156104e9573d6000803e3d6000fd5b50600080516020611b46833981519152925061050a915050893560016117ee565b60405190815260200160405180910390a1610589565b816105485761054360405180604001604052808681526020016001815250610f5f565b610589565b6001610552610fa7565b84815481106105635761056361198c565b9060005260206000209060020201600101600082825461058391906117ee565b90915550505b5050505050505050565b6040805180820190915260008082526020820152816105b0610fa7565b54116105e257816105bf610fa7565b5460405163b21b708160e01b81526004810192909252602482015260440161029b565b6105ea610fa7565b82815481106105fb576105fb61198c565b9060005260206000209060020201604051806040016040529081600082015481526020016001820154815250509050919050565b610637610fc9565b6001600160a01b0316336001600160a01b03161461066a573360405163472511eb60e11b815260040161029b91906116ac565b61067a610675610fc9565b610fd3565b610684600061101c565b565b61068e61105c565b6001600160a01b0316336001600160a01b0316146106c1573360405163472511eb60e11b815260040161029b91906116ac565b6106ca8161101c565b50565b60006106d7611066565b905090565b6106e461105c565b6001600160a01b0316336001600160a01b031614610717573360405163472511eb60e11b815260040161029b91906116ac565b600061072283610ce9565b905060008112156107465760405163574b16a760e11b815260040160405180910390fd5b61074f81611084565b6000610759610f41565b90506107658382611167565b6040516001600160a01b038516907f7693a3e9eac51f172f145e6f54bc5554168997a1f4efb40f3fad091aa7cfb0e790600090a250505050565b6000806107ab83610ce9565b905080600019141580156107c357506107c381610e01565b9392505050565b816107d36108da565b6001600160a01b0316336001600160a01b0316141580156107fd5750336001600160a01b03821614155b1561081d573360405163472511eb60e11b815260040161029b91906116ac565b610826826111e9565b600061083183610ce9565b1261085157816040516307bbad8160e51b815260040161029b91906116ac565b600061085c84610ce9565b905060008112156108805760405163574b16a760e11b815260040160405180910390fd5b61088a8184611210565b826001600160a01b0316846001600160a01b03167fc20826a9a3cb354d2c12357704db9eb03d7344375b092d70146dbbbc4d3f84d160405160405180910390a350505050565b60006106d7610d6a565b60006106d761105c565b6108ec61105c565b6001600160a01b0316336001600160a01b03161461091f573360405163472511eb60e11b815260040161029b91906116ac565b600061092a83610ce9565b90506000811261094f57826040516307bbad8160e51b815260040161029b91906116ac565b6109588361127a565b6000610962610f41565b905061096e8382611167565b6040516001600160a01b038516907f1a2323d99020f3db8e6ea85b1eea81e5bf422695877228e3d8a0241d7e957a6c90600090a250505050565b6000806109b483610ce9565b121592915050565b60006106d7610d8c565b60016109d06112d3565b8114610a0157806109df6112d3565b604051631cfd276760e31b81526004810192909252602482015260440161029b565b610a14610a0f8260016117ee565b610cc4565b610a1c610daa565b600080516020611a0683398151915281600036604051610a3e939291906119a2565b60405180910390a150565b6000610a536112d3565b8114610a6257806109df6112d3565b610a70610a0f8260016117ee565b610a7988610fd3565b610a82896112f1565b7ffc0d749143b04e0d92a3b49edae84a45f6bc88b75e99d9118ec4d7e87fe626c589604051610ab191906116ac565b60405180910390a1610b166040518060a00160405280896001600160401b03168152602001886001600160401b03168152602001876001600160401b03168152602001866001600160401b0316815260200160006001600160401b0316815250611316565b604080516001600160401b0389811682528881166020830152878116828401528616606082015290517f4a7503ca21ae5342feb83892e899e95fb309502a0016ed300e4965e2dbfe73359181900360800190a1610b866040518060400160405280858152602001848152506113d1565b60408051848152602081018490527f5ab79ffcd89b6380c7fbdd89d02cfe3d9c53c99a85e150c2319075018d1aac5c910160405180910390a1610bc96000611414565b60405160008152600080516020611a468339815191529060200160405180910390a1600080516020611a0683398151915281600036604051610c0d939291906119a2565b60405180910390a1505050505050505050565b610c2861105c565b6001600160a01b0316336001600160a01b031614610c5b573360405163472511eb60e11b815260040161029b91906116ac565b6000610c65610f41565b905081811415610c885760405163a9cb9e0d60e01b815260040160405180910390fd5b610c928282611167565b5050565b60006106d7610f41565b60006106d7610fc9565b60606106d7611430565b6000610cbe610fa7565b54919050565b6106ca610ce06001600080516020611b068339815191526119d8565b829055565b9055565b600080610d056001600080516020611aa68339815191526119d8565b90508060005b8154811015610d5e57846001600160a01b0316826000018281548110610d3357610d3361198c565b6000918252602090912001546001600160a01b03161415610d5657949350505050565b600101610d0b565b50600019949350505050565b60006106d7610d886001600080516020611a668339815191526119d8565b5490565b60006106d7610d886001600080516020611a868339815191526119d8565b610db26114af565b610dba6114d8565b6040517f59bc16d5874dc28f6f69be9e88387299800118ede161a5169eec92191977ebe590600090a1565b6106ca610ce06001600080516020611a668339815191526119d8565b6000600180831b9081908190610e2990610d8890600080516020611ae68339815191526119d8565b16149392505050565b600180821b90610c9290610e5490600080516020611ae68339815191526119d8565b82610e71610d886001600080516020611ae68339815191526119d8565b179055565b600081604051602001610e899190611979565b604051602081830303815290604052805190602001209050919050565b6000806000610eb3610fa7565b54905060005b81811015610f325784610eca610fa7565b8281548110610edb57610edb61198c565b9060005260206000209060020201600001541415610f2a5780610efc610fa7565b8281548110610f0d57610f0d61198c565b906000526020600020906002020160010154935093505050915091565b600101610eb9565b50600019946000945092505050565b60006106d7610d886001600080516020611ac68339815191526119d8565b6000610f7a6001600080516020611b668339815191526119d8565b80546001818101835560009283526020928390208551600290930201918255919093015192019190915550565b600080610fc36001600080516020611b668339815191526119d8565b92915050565b60006106d76114fa565b610fdc816111e9565b610fe581611518565b6040516001600160a01b038216907f5a272403b402d892977df56625f4164ccaf70ca3863991c43ecfe76a6905b0a190600090a250565b61102581611521565b6040516001600160a01b038216907f2a0f8515de3fa34ef68b99300347b8793c01683350743e96fe440594528298f490600090a250565b60006106d761152a565b60006106d7610d886001600080516020611ae68339815191526119d8565b600061109f6001600080516020611aa68339815191526119d8565b805490915081906000906110b5906001906119d8565b905083811461112e578160000181815481106110d3576110d361198c565b60009182526020909120015482546001600160a01b03909116908390869081106110ff576110ff61198c565b9060005260206000200160006101000a8154816001600160a01b0302191690836001600160a01b031602179055505b815482908061113f5761113f6119ef565b600082815260209020810160001990810180546001600160a01b031916905501905550505050565b6000611171611430565b519050821580156111825750600081115b8061118c57508083115b156111aa5760405163a9cb9e0d60e01b815260040160405180910390fd5b6111b2610daa565b8183146111e4576111c283611414565b604051838152600080516020611a468339815191529060200160405180910390a15b505050565b6001600160a01b0381166106ca5760405163f6b2911f60e01b815260040160405180910390fd5b600061122b6001600080516020611aa68339815191526119d8565b8054909150819083908290869081106112465761124661198c565b9060005260206000200160006101000a8154816001600160a01b0302191690836001600160a01b0316021790555050505050565b611283816111e9565b600061129e6001600080516020611aa68339815191526119d8565b8054600181018255600091825260209091200180546001600160a01b0319166001600160a01b03939093169290921790915550565b60006106d7610d886001600080516020611b068339815191526119d8565b6112fa816111e9565b6106ca610ce06001600080516020611a868339815191526119d8565b600061134360017fd84ee2c84c954c65bef1459fe03b761a42f49234527e3cd8fd9dce87cb83742b6119d8565b825181546020850151604086015160608701516001600160401b039485166001600160801b031990941693909317600160401b92851692909202919091176001600160801b0316600160801b918416919091026001600160c01b031617600160c01b91831691909102178255608090930151600190910180546001600160401b031916919093161790915550565b60006113fe60017ff81b149de6749a3f46464b2cce61e24462f67599ea4a5ce028aaf4ab1521f96e6119d8565b8251815560209092015160019092019190915550565b6106ca610ce06001600080516020611ac68339815191526119d8565b6060600061144d6001600080516020611aa68339815191526119d8565b80546040805160208084028201810190925282815292935083929183918301828280156114a357602002820191906000526020600020905b81546001600160a01b03168152600190910190602001808311611485575b50505050509250505090565b60006114ca6001600080516020611b668339815191526119d8565b905080610c92816000611589565b6106846114f46001600080516020611ae68339815191526119d8565b60009055565b60006106d7610d886001600080516020611b268339815191526119d8565b6106ca81611548565b6106ca8161156d565b60006106d7610d886001600080516020611a268339815191526119d8565b611551816111e9565b6106ca610ce06001600080516020611a268339815191526119d8565b6106ca610ce06001600080516020611b268339815191526119d8565b50805460008255600202906000526020600020908101906106ca91905b808211156115c057600080825560018201556002016115a6565b5090565b6000602082840312156115d657600080fd5b81356001600160401b038111156115ec57600080fd5b820161012081850312156107c357600080fd5b60006020828403121561161157600080fd5b5035919050565b80356001600160a01b038116811461162f57600080fd5b919050565b60006020828403121561164657600080fd5b6107c382611618565b6000806040838503121561166257600080fd5b61166b83611618565b946020939093013593505050565b6000806040838503121561168c57600080fd5b61169583611618565b91506116a360208401611618565b90509250929050565b6001600160a01b0391909116815260200190565b80356001600160401b038116811461162f57600080fd5b600080600080600080600080610100898b0312156116f457600080fd5b6116fd89611618565b975061170b60208a01611618565b965061171960408a016116c0565b955061172760608a016116c0565b945061173560808a016116c0565b935061174360a08a016116c0565b925060c0890135915060e089013590509295985092959890939650565b6020808252825182820181905260009190848201906040850190845b818110156117a15783516001600160a01b03168352928401929184019160010161177c565b50909695505050505050565b80151581146106ca57600080fd5b6000602082840312156117cd57600080fd5b81516107c3816117ad565b634e487b7160e01b600052601160045260246000fd5b60008219821115611801576118016117d8565b500190565b803563ffffffff8116811461162f57600080fd5b6000808335601e1984360301811261183157600080fd5b83016020810192503590506001600160401b0381111561185057600080fd5b8060051b360383131561186257600080fd5b9250929050565b8183526000602080850194508260005b858110156118a25763ffffffff61188f83611806565b1687529582019590820190600101611879565b509495945050505050565b803561162f816117ad565b6000610120823584526020830135602085015260408301356040850152606083013560608501526080830135608085015263ffffffff6118fa60a08501611806565b1660a085015261190d60c084018461181a565b8260c08701526119208387018284611869565b9250505061193060e084016118ad565b151560e08501526101006119458482016118ad565b15159401939093525090919050565b60608152600061196760608301866118b8565b60208301949094525060400152919050565b6020815260006107c360208301846118b8565b634e487b7160e01b600052603260045260246000fd5b83815260406020820152816040820152818360608301376000818301606090810191909152601f909201601f1916010192915050565b6000828210156119ea576119ea6117d8565b500390565b634e487b7160e01b600052603160045260246000fdfe1809e49bba43f2d39fa57894b50cd6ccb428cc438230e065cac3eb24a1355a71b5b37715a3e346e996104f0086703f19825def429233930fd9399c38e05fb1138e72be630a666d46b219565c1647e3792924d9c74e901fa3c4a33e23b91fb9b1af3d74d3b4106d19ea8994739c1a66b48922195975ea284f4cd201487a79b9ed1ec4138404500a2a0be2c2f9b103581c2a7fa783a934f91a6cc5cc924404973cc4aba040293e5848600dd7b64a390db880c4a70937c23383e6c5b6619689863bffa4a5d927096d2bbb9d71111d7c9929ecbdcbe9bffc8d35f55b642e81698ebb50e65b39a6b6b7bb3298d9d19e41cecec530b7916ba516c44f4d79e3a9dcd7a782055909238c0f5e63d6f174068ebb8f51bcec9bd37de63bb68f6551feec0cfd6e6ab8b7c7aaba79eef8cc633522d606bb008c101cf9832c9ad05d10a98472813b16582fd30a1d07d3a11bd74e5cd9290bd62bf73d4df6a19e434b5bde09c476f1827321f6d023724a23b4e28f3ef67f741d185cff4e224f6dcbb56935784fcda2646970667358221220e8e40d7a725897d79a369b2696aa1b2f5b3a514f55596358abde0aef9c2ccb5464736f6c634300080a0033",
  "devdoc": {
    "author": "Kiln",
    "errors": {
      "AddressAlreadyInUse(address)": [
        {
          "params": {
            "newAddress": "The address already in use"
          }
        }
      ],
      "AlreadyReported(uint256,address)": [
        {
          "params": {
            "epochId": "The epoch id provided as input",
            "member": "The oracle member"
          }
        }
      ],
      "EpochTooOld(uint256,uint256)": [
        {
          "params": {
            "minExpectedEpochId": "The minimum epoch id expected",
            "providedEpochId": "The epoch id provided as input"
          }
        }
      ],
      "InvalidEpoch(uint256)": [
        {
          "params": {
            "epoch": "The invalid epoch"
          }
        }
      ],
      "InvalidInitialization(uint256,uint256)": [
        {
          "params": {
            "expectedVersion": "The version that was expected",
            "version": "The version that was attempting to be initialized"
          }
        }
      ],
      "ReportIndexOutOfBounds(uint256,uint256)": [
        {
          "params": {
            "index": "Requested index",
            "length": "Size of the variant array"
          }
        }
      ],
      "Unauthorized(address)": [
        {
          "params": {
            "caller": "Address performing the call"
          }
        }
      ]
    },
    "kind": "dev",
    "methods": {
      "acceptAdmin()": {
        "details": "Only callable by the pending admin. Resets the pending admin if succesful."
      },
      "addMember(address,uint256)": {
        "details": "Only callable by the adminstratorModifying the quorum clears all the reporting data",
        "params": {
          "_newOracleMember": "Address of the new member",
          "_newQuorum": "New quorum value"
        }
      },
      "getAdmin()": {
        "returns": {
          "_0": "The admin address"
        }
      },
      "getGlobalReportStatus()": {
        "returns": {
          "_0": "The raw report status value"
        }
      },
      "getLastReportedEpochId()": {
        "details": "The Oracle contracts expects reports on an epoch id >= that the returned value",
        "returns": {
          "_0": "The last reported epoch id"
        }
      },
      "getMemberReportStatus(address)": {
        "params": {
          "_oracleMember": "Address of member to check"
        },
        "returns": {
          "_0": "True if member has reported"
        }
      },
      "getOracleMembers()": {
        "returns": {
          "_0": "The oracle members"
        }
      },
      "getPendingAdmin()": {
        "returns": {
          "_0": "The pending admin address"
        }
      },
      "getQuorum()": {
        "returns": {
          "_0": "The current quorum"
        }
      },
      "getReportVariantDetails(uint256)": {
        "params": {
          "_idx": "The index of the report variant"
        },
        "returns": {
          "_0": "The report variant details"
        }
      },
      "getReportVariantsCount()": {
        "returns": {
          "_0": "The count of report variants"
        }
      },
      "getRiver()": {
        "returns": {
          "_0": "The address of River"
        }
      },
      "initOracleV1(address,address,uint64,uint64,uint64,uint64,uint256,uint256)": {
        "params": {
          "_administratorAddress": "Address able to call administrative methods",
          "_annualAprUpperBound": "CL bound parameter. Maximum apr allowed for balance increase. Delta between updates is extrapolated on a year time frame.",
          "_epochsPerFrame": "CL spec parameter. Number of epochs in a frame.",
          "_genesisTime": "CL spec parameter. Timestamp of the genesis slot.",
          "_relativeLowerBound": "CL bound parameter. Maximum relative balance decrease.",
          "_river": "Address of the River contract, able to receive oracle input data after quorum is met",
          "_secondsPerSlot": "CL spec parameter. Number of seconds between slots.",
          "_slotsPerEpoch": "CL spec parameter. Number of slots in one epoch."
        }
      },
      "isMember(address)": {
        "details": "Performs a naive search, do not call this on-chain, used as an off-chain helper",
        "params": {
          "_memberAddress": "Address of the member"
        },
        "returns": {
          "_0": "True if address is a member"
        }
      },
      "proposeAdmin(address)": {
        "details": "This security prevents setting an invalid address as an admin. The pendingadmin has to claim its ownership of the contract, and prove that the newaddress is able to perform regular transactions.",
        "params": {
          "_newAdmin": "New admin address"
        }
      },
      "removeMember(address,uint256)": {
        "details": "Only callable by the adminstratorModifying the quorum clears all the reporting dataRemaining members that have already voted should vote again for the same frame.",
        "params": {
          "_newQuorum": "New quorum value",
          "_oracleMember": "Address to remove"
        }
      },
      "reportConsensusLayerData((uint256,uint256,uint256,uint256,uint256,uint32,uint32[],bool,bool))": {
        "params": {
          "_report": "The report structure"
        }
      },
      "setMember(address,address)": {
        "details": "Only callable by the adminitrator or the member itselfCannot use an address already in use",
        "params": {
          "_newAddress": "New address for the member",
          "_oracleMember": "Address to change"
        }
      },
      "setQuorum(uint256)": {
        "details": "Modifying the quorum clears all the reporting data",
        "params": {
          "_newQuorum": "New quorum parameter"
        }
      }
    },
    "title": "Oracle (v1)",
    "version": 1
  },
  "userdoc": {
    "errors": {
      "AddressAlreadyInUse(address)": [
        {
          "notice": "The address is already in use by an oracle member"
        }
      ],
      "AlreadyReported(uint256,address)": [
        {
          "notice": "The member already reported on the given epoch id"
        }
      ],
      "EpochTooOld(uint256,uint256)": [
        {
          "notice": "The provided epoch is too old compared to the expected epoch id"
        }
      ],
      "InvalidArgument()": [
        {
          "notice": "The argument was invalid"
        }
      ],
      "InvalidCall()": [
        {
          "notice": "The call was invalid"
        }
      ],
      "InvalidEpoch(uint256)": [
        {
          "notice": "Thrown when the reported epoch is invalid"
        }
      ],
      "InvalidInitialization(uint256,uint256)": [
        {
          "notice": "An error occured during the initialization"
        }
      ],
      "InvalidZeroAddress()": [
        {
          "notice": "The address is zero"
        }
      ],
      "ReportIndexOutOfBounds(uint256,uint256)": [
        {
          "notice": "Thrown when the report indexs fetched is out of bounds"
        }
      ],
      "Unauthorized(address)": [
        {
          "notice": "The operator is unauthorized for the caller"
        }
      ]
    },
    "events": {
      "AddMember(address)": {
        "notice": "A member has been added to the oracle member list"
      },
      "ClearedReporting()": {
        "notice": "Cleared reporting data"
      },
      "Initialize(uint256,bytes)": {
        "notice": "Emitted when the contract is properly initialized"
      },
      "RemoveMember(address)": {
        "notice": "A member has been removed from the oracle member list"
      },
      "ReportedConsensusLayerData(address,bytes32,(uint256,uint256,uint256,uint256,uint256,uint32,uint32[],bool,bool),uint256,uint256)": {
        "notice": "An oracle member performed a report"
      },
      "SetAdmin(address)": {
        "notice": "The admin address changed"
      },
      "SetBounds(uint256,uint256)": {
        "notice": "The report bounds have been changed"
      },
      "SetLastReportedEpoch(uint256)": {
        "notice": "The last reported epoch has changed"
      },
      "SetMember(address,address)": {
        "notice": "A member address has been edited"
      },
      "SetPendingAdmin(address)": {
        "notice": "The pending admin address changed"
      },
      "SetQuorum(uint256)": {
        "notice": "The storage quorum value has been changed"
      },
      "SetRiver(address)": {
        "notice": "The storage river address value has been changed"
      },
      "SetSpec(uint64,uint64,uint64,uint64)": {
        "notice": "The consensus layer spec has been changed"
      }
    },
    "kind": "user",
    "methods": {
      "acceptAdmin()": {
        "notice": "Accept the transfer of ownership"
      },
      "addMember(address,uint256)": {
        "notice": "Adds new address as oracle member, giving the ability to push cl reports."
      },
      "getAdmin()": {
        "notice": "Retrieves the current admin address"
      },
      "getGlobalReportStatus()": {
        "notice": "Retrieve member report status"
      },
      "getLastReportedEpochId()": {
        "notice": "Retrieve the last reported epoch id"
      },
      "getMemberReportStatus(address)": {
        "notice": "Retrieve member report status"
      },
      "getOracleMembers()": {
        "notice": "Retrieve the list of oracle members"
      },
      "getPendingAdmin()": {
        "notice": "Retrieve the current pending admin address"
      },
      "getQuorum()": {
        "notice": "Retrieve the current quorum"
      },
      "getReportVariantDetails(uint256)": {
        "notice": "Retrieve the details of a report variant"
      },
      "getReportVariantsCount()": {
        "notice": "Retrieve report variants count"
      },
      "getRiver()": {
        "notice": "Retrieve River address"
      },
      "initOracleV1(address,address,uint64,uint64,uint64,uint64,uint256,uint256)": {
        "notice": "Initializes the oracle"
      },
      "initOracleV1_1()": {
        "notice": "Initializes the oracle"
      },
      "isMember(address)": {
        "notice": "Returns true if address is member"
      },
      "proposeAdmin(address)": {
        "notice": "Proposes a new address as admin"
      },
      "removeMember(address,uint256)": {
        "notice": "Removes an address from the oracle members."
      },
      "reportConsensusLayerData((uint256,uint256,uint256,uint256,uint256,uint32,uint32[],bool,bool))": {
        "notice": "Submit a report as an oracle member"
      },
      "setMember(address,address)": {
        "notice": "Changes the address of an oracle member"
      },
      "setQuorum(uint256)": {
        "notice": "Edits the quorum required to forward cl data to River"
      }
    },
    "notice": "This contract handles the input from the allowed oracle members. Highly inspired by Lido's implementation.",
    "version": 1
  },
  "storageLayout": {
    "storage": [],
    "types": null
  }
}