{
  "address": "0xC0FbD5Da2f2567d0e311fee77650bc41feDE33b7",
  "abi": [
    {
      "inputs": [],
      "name": "ClaimInitiatorIsDenied",
      "type": "error"
    },
    {
      "inputs": [],
      "name": "ClaimRecipientIsDenied",
      "type": "error"
    },
    {
      "inputs": [
        {
          "internalType": "address",
          "name": "recipient",
          "type": "address"
        },
        {
          "internalType": "bytes",
          "name": "rdata",
          "type": "bytes"
        }
      ],
      "name": "ClaimRedeemFailed",
      "type": "error"
    },
    {
      "inputs": [
        {
          "internalType": "uint256",
          "name": "redeemRequestId",
          "type": "uint256"
        },
        {
          "internalType": "uint256",
          "name": "withdrawalEventId",
          "type": "uint256"
        }
      ],
      "name": "DoesNotMatch",
      "type": "error"
    },
    {
      "inputs": [],
      "name": "IncompatibleArrayLengths",
      "type": "error"
    },
    {
      "inputs": [
        {
          "internalType": "uint256",
          "name": "version",
          "type": "uint256"
        },
        {
          "internalType": "uint256",
          "name": "expectedVersion",
          "type": "uint256"
        }
      ],
      "name": "InvalidInitialization",
      "type": "error"
    },
    {
      "inputs": [],
      "name": "InvalidZeroAddress",
      "type": "error"
    },
    {
      "inputs": [],
      "name": "InvalidZeroAmount",
      "type": "error"
    },
    {
      "inputs": [],
      "name": "RecipientIsDenied",
      "type": "error"
    },
    {
      "inputs": [
        {
          "internalType": "uint256",
          "name": "id",
          "type": "uint256"
        }
      ],
      "name": "RedeemRequestAlreadyClaimed",
      "type": "error"
    },
    {
      "inputs": [
        {
          "internalType": "uint256",
          "name": "id",
          "type": "uint256"
        }
      ],
      "name": "RedeemRequestOutOfBounds",
      "type": "error"
    },
    {
      "inputs": [],
      "name": "TransferError",
      "type": "error"
    },
    {
      "inputs": [
        {
          "internalType": "address",
          "name": "caller",
          "type": "address"
        }
      ],
      "name": "Unauthorized",
      "type": "error"
    },
    {
      "inputs": [
        {
          "internalType": "uint256",
          "name": "id",
          "type": "uint256"
        }
      ],
      "name": "WithdrawalEventOutOfBounds",
      "type": "error"
    },
    {
      "inputs": [
        {
          "internalType": "uint256",
          "name": "withdrawalAmount",
          "type": "uint256"
        },
        {
          "internalType": "uint256",
          "name": "redeemDemand",
          "type": "uint256"
        }
      ],
      "name": "WithdrawalExceedsRedeemDemand",
      "type": "error"
    },
    {
      "anonymous": false,
      "inputs": [
        {
          "indexed": true,
          "internalType": "uint32",
          "name": "redeemRequestId",
          "type": "uint32"
        },
        {
          "indexed": true,
          "internalType": "address",
          "name": "recipient",
          "type": "address"
        },
        {
          "indexed": false,
          "internalType": "uint256",
          "name": "ethAmount",
          "type": "uint256"
        },
        {
          "indexed": false,
          "internalType": "uint256",
          "name": "lsEthAmount",
          "type": "uint256"
        },
        {
          "indexed": false,
          "internalType": "uint256",
          "name": "remainingLsEthAmount",
          "type": "uint256"
        }
      ],
      "name": "ClaimedRedeemRequest",
      "type": "event"
    },
    {
      "anonymous": false,
      "inputs": [
        {
          "indexed": false,
          "internalType": "uint256",
          "name": "version",
          "type": "uint256"
        },
        {
          "indexed": false,
          "internalType": "bytes",
          "name": "cdata",
          "type": "bytes"
        }
      ],
      "name": "Initialize",
      "type": "event"
    },
    {
      "anonymous": false,
      "inputs": [
        {
          "indexed": false,
          "internalType": "uint256",
          "name": "height",
          "type": "uint256"
        },
        {
          "indexed": false,
          "internalType": "uint256",
          "name": "amount",
          "type": "uint256"
        },
        {
          "indexed": false,
          "internalType": "uint256",
          "name": "ethAmount",
          "type": "uint256"
        },
        {
          "indexed": false,
          "internalType": "uint32",
          "name": "id",
          "type": "uint32"
        }
      ],
      "name": "ReportedWithdrawal",
      "type": "event"
    },
    {
      "anonymous": false,
      "inputs": [
        {
          "indexed": true,
          "internalType": "address",
          "name": "recipient",
          "type": "address"
        },
        {
          "indexed": false,
          "internalType": "uint256",
          "name": "height",
          "type": "uint256"
        },
        {
          "indexed": false,
          "internalType": "uint256",
          "name": "amount",
          "type": "uint256"
        },
        {
          "indexed": false,
          "internalType": "uint256",
          "name": "maxRedeemableEth",
          "type": "uint256"
        },
        {
          "indexed": false,
          "internalType": "uint32",
          "name": "id",
          "type": "uint32"
        }
      ],
      "name": "RequestedRedeem",
      "type": "event"
    },
    {
      "anonymous": false,
      "inputs": [
        {
          "indexed": true,
          "internalType": "uint32",
          "name": "redeemRequestId",
          "type": "uint32"
        },
        {
          "indexed": true,
          "internalType": "uint32",
          "name": "withdrawalEventId",
          "type": "uint32"
        },
        {
          "indexed": false,
          "internalType": "uint256",
          "name": "lsEthAmountSatisfied",
          "type": "uint256"
        },
        {
          "indexed": false,
          "internalType": "uint256",
          "name": "ethAmountSatisfied",
          "type": "uint256"
        },
        {
          "indexed": false,
          "internalType": "uint256",
          "name": "lsEthAmountRemaining",
          "type": "uint256"
        },
        {
          "indexed": false,
          "internalType": "uint256",
          "name": "ethAmountExceeding",
          "type": "uint256"
        }
      ],
      "name": "SatisfiedRedeemRequest",
      "type": "event"
    },
    {
      "anonymous": false,
      "inputs": [
        {
          "indexed": false,
          "internalType": "uint256",
          "name": "oldRedeemDemand",
          "type": "uint256"
        },
        {
          "indexed": false,
          "internalType": "uint256",
          "name": "newRedeemDemand",
          "type": "uint256"
        }
      ],
      "name": "SetRedeemDemand",
      "type": "event"
    },
    {
      "anonymous": false,
      "inputs": [
        {
          "indexed": false,
          "internalType": "address",
          "name": "river",
          "type": "address"
        }
      ],
      "name": "SetRiver",
      "type": "event"
    },
    {
      "inputs": [
        {
          "internalType": "uint32[]",
          "name": "redeemRequestIds",
          "type": "uint32[]"
        },
        {
          "internalType": "uint32[]",
          "name": "withdrawalEventIds",
          "type": "uint32[]"
        },
        {
          "internalType": "bool",
          "name": "skipAlreadyClaimed",
          "type": "bool"
        },
        {
          "internalType": "uint16",
          "name": "_depth",
          "type": "uint16"
        }
      ],
      "name": "claimRedeemRequests",
      "outputs": [
        {
          "internalType": "uint8[]",
          "name": "claimStatuses",
          "type": "uint8[]"
        }
      ],
      "stateMutability": "nonpayable",
      "type": "function"
    },
    {
      "inputs": [
        {
          "internalType": "uint32[]",
          "name": "_redeemRequestIds",
          "type": "uint32[]"
        },
        {
          "internalType": "uint32[]",
          "name": "_withdrawalEventIds",
          "type": "uint32[]"
        }
      ],
      "name": "claimRedeemRequests",
      "outputs": [
        {
          "internalType": "uint8[]",
          "name": "claimStatuses",
          "type": "uint8[]"
        }
      ],
      "stateMutability": "nonpayable",
      "type": "function"
    },
    {
      "inputs": [],
      "name": "getBufferedExceedingEth",
      "outputs": [
        {
          "internalType": "uint256",
          "name": "",
          "type": "uint256"
        }
      ],
      "stateMutability": "view",
      "type": "function"
    },
    {
      "inputs": [],
      "name": "getRedeemDemand",
      "outputs": [
        {
          "internalType": "uint256",
          "name": "",
          "type": "uint256"
        }
      ],
      "stateMutability": "view",
      "type": "function"
    },
    {
      "inputs": [],
      "name": "getRedeemRequestCount",
      "outputs": [
        {
          "internalType": "uint256",
          "name": "",
          "type": "uint256"
        }
      ],
      "stateMutability": "view",
      "type": "function"
    },
    {
      "inputs": [
        {
          "internalType": "uint32",
          "name": "_redeemRequestId",
          "type": "uint32"
        }
      ],
      "name": "getRedeemRequestDetails",
      "outputs": [
        {
          "components": [
            {
              "internalType": "uint256",
              "name": "amount",
              "type": "uint256"
            },
            {
              "internalType": "uint256",
              "name": "maxRedeemableEth",
              "type": "uint256"
            },
            {
              "internalType": "address",
              "name": "recipient",
              "type": "address"
            },
            {
              "internalType": "address",
              "name": "initiator",
              "type": "address"
            },
            {
              "internalType": "uint256",
              "name": "height",
              "type": "uint256"
            }
          ],
          "internalType": "struct RedeemQueue.RedeemRequest",
          "name": "",
          "type": "tuple"
        }
      ],
      "stateMutability": "view",
      "type": "function"
    },
    {
      "inputs": [],
      "name": "getRiver",
      "outputs": [
        {
          "internalType": "address",
          "name": "",
          "type": "address"
        }
      ],
      "stateMutability": "view",
      "type": "function"
    },
    {
      "inputs": [],
      "name": "getWithdrawalEventCount",
      "outputs": [
        {
          "internalType": "uint256",
          "name": "",
          "type": "uint256"
        }
      ],
      "stateMutability": "view",
      "type": "function"
    },
    {
      "inputs": [
        {
          "internalType": "uint32",
          "name": "_withdrawalEventId",
          "type": "uint32"
        }
      ],
      "name": "getWithdrawalEventDetails",
      "outputs": [
        {
          "components": [
            {
              "internalType": "uint256",
              "name": "amount",
              "type": "uint256"
            },
            {
              "internalType": "uint256",
              "name": "withdrawnEth",
              "type": "uint256"
            },
            {
              "internalType": "uint256",
              "name": "height",
              "type": "uint256"
            }
          ],
          "internalType": "struct WithdrawalStack.WithdrawalEvent",
          "name": "",
          "type": "tuple"
        }
      ],
      "stateMutability": "view",
      "type": "function"
    },
    {
      "inputs": [
        {
          "internalType": "address",
          "name": "_river",
          "type": "address"
        }
      ],
      "name": "initializeRedeemManagerV1",
      "outputs": [],
      "stateMutability": "nonpayable",
      "type": "function"
    },
    {
      "inputs": [
        {
          "internalType": "uint256",
          "name": "_max",
          "type": "uint256"
        }
      ],
      "name": "pullExceedingEth",
      "outputs": [],
      "stateMutability": "nonpayable",
      "type": "function"
    },
    {
      "inputs": [
        {
          "internalType": "uint256",
          "name": "_lsETHWithdrawable",
          "type": "uint256"
        }
      ],
      "name": "reportWithdraw",
      "outputs": [],
      "stateMutability": "payable",
      "type": "function"
    },
    {
      "inputs": [
        {
          "internalType": "uint256",
          "name": "_lsETHAmount",
          "type": "uint256"
        },
        {
          "internalType": "address",
          "name": "_recipient",
          "type": "address"
        }
      ],
      "name": "requestRedeem",
      "outputs": [
        {
          "internalType": "uint32",
          "name": "redeemRequestId",
          "type": "uint32"
        }
      ],
      "stateMutability": "nonpayable",
      "type": "function"
    },
    {
      "inputs": [
        {
          "internalType": "uint256",
          "name": "_lsETHAmount",
          "type": "uint256"
        }
      ],
      "name": "requestRedeem",
      "outputs": [
        {
          "internalType": "uint32",
          "name": "redeemRequestId",
          "type": "uint32"
        }
      ],
      "stateMutability": "nonpayable",
      "type": "function"
    },
    {
      "inputs": [
        {
          "internalType": "uint32[]",
          "name": "_redeemRequestIds",
          "type": "uint32[]"
        }
      ],
      "name": "resolveRedeemRequests",
      "outputs": [
        {
          "internalType": "int64[]",
          "name": "withdrawalEventIds",
          "type": "int64[]"
        }
      ],
      "stateMutability": "view",
      "type": "function"
    },
    {
      "inputs": [],
      "name": "version",
      "outputs": [
        {
          "internalType": "string",
          "name": "",
          "type": "string"
        }
      ],
      "stateMutability": "pure",
      "type": "function"
    }
  ],
  "transactionHash": "0xa5f630f00135d03e013d4c6c2f601b35717947bc22b456f1d26a2674401ff0a8",
  "args": [],
  "numDeployments": 1,
  "solcInputHash": "9213235610761b71d3e739f6815540a5",
  "bytecode": "0x60808060405234610092577f1809e49bba43f2d39fa57894b50cd6ccb428cc438230e065cac3eb24a1355a7190600019807f82055909238c0f5e63d6f174068ebb8f51bcec9bd37de63bb68f6551feec0cfc558152604060208201523660408201523660006060830137600060603683010152606081601f19601f3601168101030190a160405161205f90816100988239f35b600080fdfe608080604052600436101561001357600080fd5b600090813560e01c9081630c77940114611373575080630d8d2a5414611348578063107703ab1461119a578063319798d11461116f57806354fd4d50146111015780635b5985a2146110d65780635f2e5f0714610f925780637c044e5514610acf578063841ecb8514610aa45780638623375414610a4e5780639332525d1461054b5780639b92d6de146104d1578063a519f0601461049b578063aa2f892d1461039b578063b30d8bb7146101e65763c8fade5a146100d157600080fd5b346101e35760203660031901126101e3576004356001600160a01b038116908181036101de577f82055909238c0f5e63d6f174068ebb8f51bcec9bd37de63bb68f6551feec0cfc8054806101c057509160209160017ffc0d749143b04e0d92a3b49edae84a45f6bc88b75e99d9118ec4d7e87fe626c5945561015281611f56565b600080516020611fca83398151915255604051908152a17f1809e49bba43f2d39fa57894b50cd6ccb428cc438230e065cac3eb24a1355a7160405182815260406020820152366040820152368360608301378260603683010152606081601f19601f3601168101030190a180f35b8460449160405191631cfd276760e31b835260048301526024820152fd5b600080fd5b80fd5b5060203660031901126101e357600080516020611fca8339815191525460043591906001600160a01b0316330361038357600080516020611faa83398151915254918281116103655760008051602061200a8339815191529081549363ffffffff851694849386610333575b6040519161025f8361151e565b84835260208301903482526040840192878452600160401b82101561031f5760018201905561028d90611664565b93909361030b57937f05e5b10ca266c2e8cfd73b1fb719694fb6b89fcda9e3739ace4cc19b3e85544597989360026102d8948894610305985184555160018401555191015503611f13565b604051938493349185929363ffffffff919594606093608086019786526020860152604085015216910152565b0390a180f35b634e487b7160e01b88526004889052602488fd5b634e487b7160e01b89526041600452602489fd5b935061035f61035261034c6103478961173a565b611664565b5061168f565b60408101519051906114e8565b93610252565b6044908360405191632ea1a50d60e11b835260048301526024820152fd5b60405163472511eb60e11b8152336004820152602490fd5b50346101e35760203660031901126101e357600080516020611fca83398151915254604051630c5eff3d60e41b81526001600160a01b03916020908290600490829086165afa908115610490578391610462575b501681813b156101e35760449160405192838092632d20488160e11b8252336004830152600460248301525afa801561045757610443575b60206104353360043561192f565b63ffffffff60405191168152f35b61044d829161150b565b6101e35780610427565b6040513d84823e3d90fd5b610483915060203d8111610489575b61047b8183611570565b810190611703565b386103ef565b503d610471565b6040513d85823e3d90fd5b50346101e357806003193601126101e357600080516020611fca833981519152546040516001600160a01b039091168152602090f35b50346101e35760203660031901126101e3576004359063ffffffff821682036101e35760a061051161050b84610505611591565b506115bc565b506115fd565b6080604051918051835260208101516020840152600180851b03806040830151166040850152606082015116606084015201516080820152f35b50346101e35760403660031901126101e3576001600160401b0390600435828111610a4a5761057e90369060040161147a565b9290916024359182116101e3575061059a90369060040161147a565b808403610a38576105aa846116b7565b926105b86040519485611570565b848452601f196105c7866116b7565b01366020860137604051916105db83611554565b6105e3611591565b83526105ed611645565b60208401526000604084015260006060840152600060a0840152600060c0840152600060e084015263ffffffff60008051602061200a8339815191525416608084015263ffffffff600080516020611f8a8339815191525416936004602060018060a01b03600080516020611fca833981519152541660405192838092630c5eff3d60e41b82525afa9081156109ac57600091610a19575b5060005b8881106106a2576040518061069e8a826114aa565b0390f35b63ffffffff6106ba6106b5838c896116ce565b6116de565b16604087015263ffffffff6106d36106b58387876116ce565b16606087015263ffffffff60408701511687811015610a01575063ffffffff60608701511663ffffffff6080880151168110156109e9575061072461050b61071f6106b5848d8a6116ce565b6115bc565b808752604090810151905163e838dfbb60e01b81526001600160a01b039182166004820152906020908290602490829087165afa9081156109ac576000916109ca575b506109b85785516060015160405163e838dfbb60e01b81526001600160a01b039182166004820152906020908290602490829087165afa9081156109ac5760009161097d575b5061096b5785515115610954576107de6107d161034c6103476106b58589896116ce565b8060208901528751611901565b156109255761ffff60a0870152600060e0870152600060c087015261080286611c31565b85515161091e5760005b60ff610818838b6116ef565b91169052600080808060018060a01b0360408b5101511660e08b0151905af13d15610916573d9061084882611bce565b916108566040519384611570565b82523d6000602084013e5b156108da5750806108786106b56001938c896116ce565b877f25f4dfa5f0703d4c509bd7216e70f8378f419433c14840c14f3eaadb60642ad1606063ffffffff835194878060a01b036040870151169560c060e0870151960151905190604051968752602087015260408601521692a301955b95610689565b86604060018060a01b03915101511661091260405192839263f2fc9fa160e01b8452600484015260406024840152604483019061143a565b0390fd5b606090610861565b600161080c565b60448663ffffffff606081604084015116920151166040519163b826420960e01b835260048301526024820152fd5b8060026109636001938b6116ef565b5201956108d4565b604051633de3fb0960e11b8152600490fd5b61099f915060203d6020116109a5575b6109978183611570565b810190611722565b386107ad565b503d61098d565b6040513d6000823e3d90fd5b604051635941eb9d60e01b8152600490fd5b6109e3915060203d6020116109a5576109978183611570565b38610767565b6024906040519063311569d960e01b82526004820152fd5b60249060405190637ba6f8f560e11b82526004820152fd5b610a32915060203d6020116104895761047b8183611570565b38610685565b604051633a5e3f0d60e01b8152600490fd5b5080fd5b50346101e35760203660031901126101e3576004359063ffffffff821682036101e3576060610a8861034c84610a82611645565b50611664565b6040805191805183526020810151602084015201516040820152f35b50346101e357806003193601126101e357602060008051602061200a83398151915254604051908152f35b50346101e35760803660031901126101e3576001600160401b0390600435828111610a4a57610b0290369060040161147a565b92602435908111610f8e57610b1b90369060040161147a565b9091604435151560443503610f8a576064359361ffff851685036101e35750818503610a3857610b4a856116b7565b93610b586040519586611570565b858552601f19610b67876116b7565b0136602087013760405192610b7b84611554565b610b83611591565b8452610b8d611645565b60208501526000604085015260006060850152600060a0850152600060c0850152600060e085015263ffffffff60008051602061200a8339815191525416608085015263ffffffff600080516020611f8a8339815191525416946004602060018060a01b03600080516020611fca833981519152541660405192838092630c5eff3d60e41b82525afa9081156109ac57600091610f6b575b5060005b898110610c3e576040518061069e8b826114aa565b63ffffffff610c516106b5838d8a6116ce565b16604088015263ffffffff610c6a6106b58387876116ce565b16606088015263ffffffff60408801511688811015610a01575063ffffffff60608801511663ffffffff6080890151168110156109e95750610cb661050b61071f6106b5848e8b6116ce565b808852604090810151905163e838dfbb60e01b81526001600160a01b039182166004820152906020908290602490829087165afa9081156109ac57600091610f4c575b506109b85786516060015160405163e838dfbb60e01b81526001600160a01b039182166004820152906020908290602490829087165afa9081156109ac57600091610f2d575b5061096b5786515115610ee457610d70610d6361034c6103476106b58589896116ce565b8060208a01528851611901565b15610eb55761ffff851660a0880152600060e0880152600060c0880152610d9687611c31565b865151610eae5760005b60ff610dac838c6116ef565b91169052600080808060018060a01b0360408c5101511660e08c0151905af13d15610ea6573d90610ddc82611bce565b91610dea6040519384611570565b82523d6000602084013e5b15610e6e575080610e0c6106b56001938d8a6116ce565b887f25f4dfa5f0703d4c509bd7216e70f8378f419433c14840c14f3eaadb60642ad1606063ffffffff835194878060a01b036040870151169560c060e0870151960151905190604051968752602087015260408601521692a301965b96610c29565b87604060018060a01b03915101511661091260405192839263f2fc9fa160e01b8452600484015260406024840152604483019061143a565b606090610df5565b6001610da0565b60448763ffffffff606081604084015116920151166040519163b826420960e01b835260048301526024820152fd5b6044999897969935610f1257602463ffffffff60408c015116604051906339775c8160e01b82526004820152fd5b806002610f256001938b9c9d9a9b6116ef565b520196610e68565b610f46915060203d6020116109a5576109978183611570565b38610d3f565b610f65915060203d6020116109a5576109978183611570565b38610cf9565b610f84915060203d6020116104895761047b8183611570565b38610c25565b8380fd5b8280fd5b50346101e357602080600319360112610a4a576004356001600160401b038111610f8e57610fc490369060040161147a565b91610fce836116b7565b91610fdc6040519384611570565b838352610fe8846116b7565b8383019490601f1901368637610ffc611645565b9060008051602061200a83398151915254806110bc575b5086939594965b818110611066575050505060405193838594850191818652518092526040850193925b82811061104c57505050500390f35b835160070b8552869550938101939281019260010161103d565b6110828361107d6106b58486899d9b9c9a9d6116ce565b61175d565b61108c82886116ef565b9060070b905260001981146110a857600101969395949661101a565b634e487b7160e01b88526011600452602488fd5b6110cf91925061034c9060001901611664565b9038611013565b50346101e357806003193601126101e3576020600080516020611fea83398151915254604051908152f35b50346101e357806003193601126101e35760405160408101908082106001600160401b038311176111595761069e9160405260058152640312e322e360dc1b602082015260405191829160208352602083019061143a565b634e487b7160e01b600052604160045260246000fd5b50346101e357806003193601126101e3576020600080516020611f8a83398151915254604051908152f35b50346101e35760403660031901126101e3576024356001600160a01b0381811692908383036101de5780600080516020611fca83398151915254168033036112ad575b604051948591630c5eff3d60e41b835282600460209889935afa9182156112a257908692918592611280575b50602490604051948593849263e838dfbb60e01b84526004840152165afa9182156112745791611257575b50611245576104359060043561192f565b604051637e0aa9d960e01b8152600490fd5b61126e9150833d85116109a5576109978183611570565b38611234565b604051903d90823e3d90fd5b602491925061129b90843d86116104895761047b8183611570565b9190611209565b6040513d86823e3d90fd5b604051630c5eff3d60e41b8152602081600481855afa9081156112a257908391859161132a575b5016803b15610f8a578360449160405192838092632d20488160e11b8252336004830152600460248301525afa80156112a257908491611316575b50506111dd565b61131f9061150b565b610f8e57823861130f565b611342915060203d81116104895761047b8183611570565b386112d4565b50346101e357806003193601126101e3576020600080516020611faa83398151915254604051908152f35b905034610a4a576020366003190112610a4a576004359060018060a01b03600080516020611fca83398151915254169081330361142557508290600080516020611fea83398151915280549380851160001461141e57935b846113d4578380f35b846113de91611750565b9055803b15610a4a576004604051809481936302b4286360e11b83525af180156104575761140f575b818180808380f35b6114189061150b565b38611407565b50836113cb565b63472511eb60e11b8152336004820152602490fd5b919082519283825260005b848110611466575050826000602080949584010152601f8019910116010190565b602081830181015184830182015201611445565b9181601f840112156101de578235916001600160401b0383116101de576020808501948460051b0101116101de57565b6020908160408183019282815285518094520193019160005b8281106114d1575050505090565b835160ff16855293810193928101926001016114c3565b919082018092116114f557565b634e487b7160e01b600052601160045260246000fd5b6001600160401b03811161115957604052565b606081019081106001600160401b0382111761115957604052565b60a081019081106001600160401b0382111761115957604052565b61010081019081106001600160401b0382111761115957604052565b90601f801991011681019081106001600160401b0382111761115957604052565b6040519061159e82611539565b60006080838281528260208201528260408201528260608201520152565b600080516020611f8a83398151915280548210156115e7576000526005602060002091020190600090565b634e487b7160e01b600052603260045260246000fd5b9060405161160a81611539565b825481526001830154602082015260028301546001600160a01b03908116604083015260038401541660608201526004909201546080830152565b604051906116528261151e565b60006040838281528260208201520152565b60008051602061200a83398151915280548210156115e7576000526003602060002091020190600090565b9060405161169c8161151e565b60406002829480548452600181015460208501520154910152565b6001600160401b0381116111595760051b60200190565b91908110156115e75760051b0190565b3563ffffffff811681036101de5790565b80518210156115e75760209160051b010190565b908160209103126101de57516001600160a01b03811681036101de5790565b908160209103126101de575180151581036101de5790565b63ffffffff90811660001901919082116114f557565b919082039182116114f557565b600080516020611f8a8339815191525463ffffffff821610156117e65761050b611786916115bc565b908151156117de5760008051602061200a83398151915254159081156117bf575b506117b8576117b5906117ee565b90565b5060001990565b6117d1915060408101519051906114e8565b60808201511015386117a7565b505060021990565b505060011990565b60008051602061200a83398151915280546000198101939291908085116114f55760079185830b9061183561182f61034c6001600160401b03998a16611664565b86611901565b6118f957600092156118e55782526118586118526020842061168f565b85611901565b6118de575b80830b82840b8181146118d45701677fffffffffffffff8113677fffffffffffffff198212176114f557600290840b059061189c61034c838916611664565b6118a68187611901565b6118ca5760406080870151910151116000146118c2575061185d565b91509061185d565b5090955050505050565b5091955050505050565b5093505050565b634e487b7160e01b83526032600452602483fd5b509450505050565b608001908151611919604083019283519051906114e8565b11918261192557505090565b5190511115919050565b91909161193b83611f56565b8015611bbc5760018060a01b0390600080516020611fca833981519152828154169260408051946323b872dd60e01b8652600433818801523060248801528560448801526020968781606481600080975af1908115611bb2578391611b95575b5015611b8757600080516020611f8a833981519152805463ffffffff81169a84978c80611b5b575b5087905416968a8a60248951809b8193637bce1f8160e11b83528a8301525afa978815611b51578698611b1e575b5086519a6119fe8c611539565b8a8c528b0188815281888d0193169b8c8452606081019433865260808201968c8852600160401b821015611b0b57600182019055611a3b906115bc565b989098611af9575051875551600187015590516002860180546001600160a01b03199081169284169290921790559151600386018054909316911617905551910155600080516020611faa833981519152547f9a1bb960783a8679f42036f0c1fe89288fd279ed545a19f86bd284c72947b187949392611af4928992611acb90611ac69088906114e8565b611f13565b5194859485929363ffffffff919594606093608086019786526020860152604085015216910152565b0390a2565b634e487b7160e01b8152808852602490fd5b634e487b7160e01b8a526041895260248afd5b9097508a81813d8311611b4a575b611b368183611570565b81010312611b46575196386119f1565b8580fd5b503d611b2c565b87513d88823e3d90fd5b88919950611b7161050b61071f611b7e9361173a565b60808101519051906114e8565b9890508c6119c3565b82516313ff771f60e21b8152fd5b611bac9150883d8a116109a5576109978183611570565b3861199b565b84513d85823e3d90fd5b604051630dd484e760e41b8152600490fd5b6001600160401b03811161115957601f01601f191660200190565b818102929181159184041417156114f557565b8115611c06570490565b634e487b7160e01b600052601260045260246000fd5b90600163ffffffff809316019182116114f557565b611c39611645565b9060208101611c6c611c53825160408101519051906114e8565b611c668451916080835193015190611750565b90611f78565b611c8f611c86602086019280845260208551015190611be9565b83515190611bfc565b8452611cae611ca5825160208651015190611be9565b84515190611bfc565b8451808210611e8a575b50508051611ccc60808551019182516114e8565b90528051611cdd8451918251611750565b90528351611cf16020855101918251611750565b90528051611d0460c085019182516114e8565b90528351611d1760e085019182516114e8565b9052604083015163ffffffff1660608401947f01d87b0f07b182b784c074487c5a8f901a8e2348275f5480d822a70de74fa8b7611d58875163ffffffff1690565b9351918051611d97604089515193015160405193849363ffffffff80809b16991697859094939260609260808301968352602083015260408201520152565b0390a382515115159081611e4b575b5080611e30575b15611e2557611df361034c61034785611de9611ddf611dd3611e23995163ffffffff1690565b60010163ffffffff1690565b63ffffffff168252565b5163ffffffff1690565b9052611e1e60a08201611e16611e0b825161ffff1690565b6000190161ffff1690565b61ffff169052565b611c31565b565b50611e239150611ec9565b5061ffff611e4360a084015161ffff1690565b161515611dad565b9050611e63611e5e855163ffffffff1690565b611c1c565b90611e81611e78608086015163ffffffff1690565b63ffffffff1690565b91161038611da6565b611eae82611ec09203806040890152600080516020611fea833981519152546114e8565b600080516020611fea83398151915255565b84523880611cb8565b6001611f0e6080835101516020604085019463ffffffff926004611eef858951166115bc565b500155805151611f01848851166115bc565b50555101519351166115bc565b500155565b600080516020611faa8339815191527f81ba2e33f1e91d5b498c91742740d1de8a6149f571c26bec9ae77b5cf099c582604082548151908152846020820152a155565b6001600160a01b031615611f6657565b60405163f6b2911f60e01b8152600490fd5b81811115611f84575090565b90509056fe232f0d723a47bd57c991606dd0525f28484745095475b69dffe8416b3749c3c18ec604dcc41d380ed48f70a4a32dd9623b98c284836361a21b8992d2845ee53c1ec4138404500a2a0be2c2f9b103581c2a7fa783a934f91a6cc5cc924404973b9afb091d33aa9fdd4ac2dbd1cbba78215a097062e9dbdc7b707ac5bb59049bc00c9122afab04eaf9e9bdaa10927c74406e40c7f08744e32826fff29b1c9e7abca2646970667358221220e3c92afe6a925ad1a5bf11cb934612757add7123c69fb70706671727bcfd695b64736f6c63430008140033",
  "devdoc": {
    "author": "Alluvial Finance Inc.",
    "errors": {
      "ClaimRedeemFailed(address,bytes)": [
        {
          "params": {
            "rdata": "The revert data",
            "recipient": "The recipient of the payment"
          }
        }
      ],
      "DoesNotMatch(uint256,uint256)": [
        {
          "params": {
            "redeemRequestId": "The provided redeem request id",
            "withdrawalEventId": "The provided associated withdrawal event id"
          }
        }
      ],
      "InvalidInitialization(uint256,uint256)": [
        {
          "params": {
            "expectedVersion": "The version that was expected",
            "version": "The version that was attempting to be initialized"
          }
        }
      ],
      "RedeemRequestAlreadyClaimed(uint256)": [
        {
          "params": {
            "id": "The redeem request id"
          }
        }
      ],
      "RedeemRequestOutOfBounds(uint256)": [
        {
          "params": {
            "id": "The redeem request id"
          }
        }
      ],
      "Unauthorized(address)": [
        {
          "params": {
            "caller": "Address performing the call"
          }
        }
      ],
      "WithdrawalEventOutOfBounds(uint256)": [
        {
          "params": {
            "id": "The withdrawal event id"
          }
        }
      ],
      "WithdrawalExceedsRedeemDemand(uint256,uint256)": [
        {
          "params": {
            "redeemDemand": "The current redeem demand",
            "withdrawalAmount": "The amount of the withdrawal event"
          }
        }
      ]
    },
    "events": {
      "ClaimedRedeemRequest(uint32,address,uint256,uint256,uint256)": {
        "params": {
          "ethAmount": "The amount of eth retrieved",
          "lsEthAmount": "The total amount of LsETH used to redeem the eth",
          "recipient": "The address receiving the redeem request funds",
          "redeemRequestId": "The id of the redeem request",
          "remainingLsEthAmount": "The amount of LsETH remaining"
        }
      },
      "Initialize(uint256,bytes)": {
        "params": {
          "cdata": "Complete calldata that was used during the initialization",
          "version": "New version of the contracts"
        }
      },
      "ReportedWithdrawal(uint256,uint256,uint256,uint32)": {
        "params": {
          "amount": "The amount of the withdrawal event in LsETH",
          "ethAmount": "The amount of eth to distrubute to claimers",
          "height": "The height of the withdrawal event in LsETH",
          "id": "The id of the withdrawal event"
        }
      },
      "RequestedRedeem(address,uint256,uint256,uint256,uint32)": {
        "params": {
          "amount": "The amount of the redeem request in LsETH",
          "height": "The height of the redeem request in LsETH",
          "id": "The id of the new redeem request",
          "maxRedeemableEth": "The maximum amount of eth that can be redeemed from this request",
          "recipient": "The recipient of the redeem request"
        }
      },
      "SatisfiedRedeemRequest(uint32,uint32,uint256,uint256,uint256,uint256)": {
        "params": {
          "ethAmountExceeding": "The amount of eth added to the exceeding buffer",
          "ethAmountSatisfied": "The amount of ETH filled",
          "lsEthAmountRemaining": "The amount of LsETH remaining",
          "lsEthAmountSatisfied": "The amount of LsETH filled",
          "redeemRequestId": "The id of the redeem request",
          "withdrawalEventId": "The id of the withdrawal event used to fill the request"
        }
      },
      "SetRedeemDemand(uint256,uint256)": {
        "params": {
          "newRedeemDemand": "The new redeem demand",
          "oldRedeemDemand": "The old redeem demand"
        }
      },
      "SetRiver(address)": {
        "params": {
          "river": "The new river address"
        }
      }
    },
    "kind": "dev",
    "methods": {
      "claimRedeemRequests(uint32[],uint32[])": {
        "params": {
          "_redeemRequestIds": "The list of redeem requests to claim",
          "_withdrawalEventIds": "The list of withdrawal events to use for every redeem request claim"
        },
        "returns": {
          "claimStatuses": "The list of claim statuses. 0 for fully claimed, 1 for partially claimed, 2 for skipped"
        }
      },
      "claimRedeemRequests(uint32[],uint32[],bool,uint16)": {
        "params": {
          "_depth": "The maximum recursive depth for the resolution of the redeem requests",
          "_redeemRequestIds": "The list of redeem requests to claim",
          "_skipAlreadyClaimed": "True if the call should not revert on claiming of already claimed requests",
          "_withdrawalEventIds": "The list of withdrawal events to use for every redeem request claim"
        },
        "returns": {
          "claimStatuses": "The list of claim statuses. 0 for fully claimed, 1 for partially claimed, 2 for skipped"
        }
      },
      "getBufferedExceedingEth()": {
        "returns": {
          "_0": "The amount of eth in the buffer"
        }
      },
      "getRedeemDemand()": {
        "returns": {
          "_0": "The amount of LsETH waiting to be exited"
        }
      },
      "getRedeemRequestDetails(uint32)": {
        "params": {
          "_redeemRequestId": "The id of the request"
        },
        "returns": {
          "_0": "The redeem request details"
        }
      },
      "getRiver()": {
        "returns": {
          "_0": "The address of River"
        }
      },
      "getWithdrawalEventDetails(uint32)": {
        "params": {
          "_withdrawalEventId": "The id of the withdrawal event"
        },
        "returns": {
          "_0": "The withdrawal event details"
        }
      },
      "initializeRedeemManagerV1(address)": {
        "params": {
          "_river": "The address of the River contract"
        }
      },
      "pullExceedingEth(uint256)": {
        "params": {
          "_max": "The maximum amount that should be pulled"
        }
      },
      "reportWithdraw(uint256)": {
        "params": {
          "_lsETHWithdrawable": "The amount of LsETH that can be redeemed due to this new withdraw event"
        }
      },
      "requestRedeem(uint256)": {
        "params": {
          "_lsETHAmount": "The amount of LsETH to redeem"
        },
        "returns": {
          "redeemRequestId": "The id of the redeem request"
        }
      },
      "requestRedeem(uint256,address)": {
        "params": {
          "_lsETHAmount": "The amount of LsETH to redeem",
          "_recipient": "The recipient owning the redeem request"
        },
        "returns": {
          "redeemRequestId": "The id of the redeem request"
        }
      },
      "resolveRedeemRequests(uint32[])": {
        "details": "The result is an array of equal length with ids or error code-1 means that the request is not satisfied yet-2 means that the request is out of bounds-3 means that the request has already been claimedThis call was created to be called by an off-chain interface, the output could then be used to perform the claimRewards call in a regular transaction",
        "params": {
          "_redeemRequestIds": "The list of redeem requests to resolve"
        },
        "returns": {
          "withdrawalEventIds": "The list of withdrawal events matching every redeem request (or error codes)"
        }
      },
      "version()": {
        "returns": {
          "_0": "Version of the contract"
        }
      }
    },
    "title": "Redeem Manager (v1)",
    "version": 1
  },
  "userdoc": {
    "errors": {
      "ClaimInitiatorIsDenied()": [
        {
          "notice": "Thrown when the claim initiator is denied"
        }
      ],
      "ClaimRecipientIsDenied()": [
        {
          "notice": "Thrown when the claim recipient is denied"
        }
      ],
      "ClaimRedeemFailed(address,bytes)": [
        {
          "notice": "Thrown when the payment after a claim failed"
        }
      ],
      "DoesNotMatch(uint256,uint256)": [
        {
          "notice": "Thrown when the redeem request and withdrawal event are not matching during claim"
        }
      ],
      "IncompatibleArrayLengths()": [
        {
          "notice": "Thrown when the provided arrays don't have matching lengths"
        }
      ],
      "InvalidInitialization(uint256,uint256)": [
        {
          "notice": "An error occured during the initialization"
        }
      ],
      "InvalidZeroAddress()": [
        {
          "notice": "The address is zero"
        }
      ],
      "InvalidZeroAmount()": [
        {
          "notice": "Thrown When a zero value is provided"
        }
      ],
      "RecipientIsDenied()": [
        {
          "notice": "Thrown when the recipient of redeemRequest is denied"
        }
      ],
      "RedeemRequestAlreadyClaimed(uint256)": [
        {
          "notice": "Thrown when\tthe redeem request id is already claimed"
        }
      ],
      "RedeemRequestOutOfBounds(uint256)": [
        {
          "notice": "Thrown when the provided redeem request id is out of bounds"
        }
      ],
      "TransferError()": [
        {
          "notice": "Thrown when a transfer error occured with LsETH"
        }
      ],
      "Unauthorized(address)": [
        {
          "notice": "The operator is unauthorized for the caller"
        }
      ],
      "WithdrawalEventOutOfBounds(uint256)": [
        {
          "notice": "Thrown when the withdrawal request id if out of bounds"
        }
      ],
      "WithdrawalExceedsRedeemDemand(uint256,uint256)": [
        {
          "notice": "Thrown when the provided withdrawal event exceeds the redeem demand"
        }
      ]
    },
    "events": {
      "ClaimedRedeemRequest(uint32,address,uint256,uint256,uint256)": {
        "notice": "Emitted when a redeem request claim has been processed and matched at least once and funds are sent to the recipient"
      },
      "Initialize(uint256,bytes)": {
        "notice": "Emitted when the contract is properly initialized"
      },
      "ReportedWithdrawal(uint256,uint256,uint256,uint32)": {
        "notice": "Emitted when a withdrawal event is created"
      },
      "RequestedRedeem(address,uint256,uint256,uint256,uint32)": {
        "notice": "Emitted when a redeem request is created"
      },
      "SatisfiedRedeemRequest(uint32,uint32,uint256,uint256,uint256,uint256)": {
        "notice": "Emitted when a redeem request has been satisfied and filled (even partially) from a withdrawal event"
      },
      "SetRedeemDemand(uint256,uint256)": {
        "notice": "Emitted when the redeem demand is set"
      },
      "SetRiver(address)": {
        "notice": "Emitted when the River address is set"
      }
    },
    "kind": "user",
    "methods": {
      "claimRedeemRequests(uint32[],uint32[])": {
        "notice": "Claims the rewards of the provided redeem request ids"
      },
      "claimRedeemRequests(uint32[],uint32[],bool,uint16)": {
        "notice": "Claims the rewards of the provided redeem request ids"
      },
      "getBufferedExceedingEth()": {
        "notice": "Retrieve the amount of redeemed LsETH pending to be supplied with withdrawn ETH"
      },
      "getRedeemDemand()": {
        "notice": "Retrieve the amount of LsETH waiting to be exited"
      },
      "getRedeemRequestCount()": {
        "notice": "Retrieve the global count of redeem requests"
      },
      "getRedeemRequestDetails(uint32)": {
        "notice": "Retrieve the details of a specific redeem request"
      },
      "getRiver()": {
        "notice": "Retrieve River address"
      },
      "getWithdrawalEventCount()": {
        "notice": "Retrieve the global count of withdrawal events"
      },
      "getWithdrawalEventDetails(uint32)": {
        "notice": "Retrieve the details of a specific withdrawal event"
      },
      "pullExceedingEth(uint256)": {
        "notice": "Pulls exceeding buffer eth"
      },
      "reportWithdraw(uint256)": {
        "notice": "Reports a withdraw event from River"
      },
      "requestRedeem(uint256)": {
        "notice": "Creates a redeem request using msg.sender as recipient"
      },
      "requestRedeem(uint256,address)": {
        "notice": "Creates a redeem request"
      },
      "resolveRedeemRequests(uint32[])": {
        "notice": "Resolves the provided list of redeem request ids"
      },
      "version()": {
        "notice": "Retrieves the version of the contract"
      }
    },
    "notice": "This contract handles the redeem requests of all users",
    "version": 1
  },
  "storageLayout": {
    "storage": [],
    "types": null
  }
}