{
  "address": "0xA9ab3821b1c3657a779Eb751F2f8a2E109fb8332",
  "abi": [
    {
      "inputs": [
        {
          "internalType": "address",
          "name": "_from",
          "type": "address"
        },
        {
          "internalType": "address",
          "name": "_operator",
          "type": "address"
        },
        {
          "internalType": "uint256",
          "name": "_allowance",
          "type": "uint256"
        },
        {
          "internalType": "uint256",
          "name": "_value",
          "type": "uint256"
        }
      ],
      "name": "AllowanceTooLow",
      "type": "error"
    },
    {
      "inputs": [],
      "name": "BalanceTooLow",
      "type": "error"
    },
    {
      "inputs": [
        {
          "internalType": "address",
          "name": "account",
          "type": "address"
        }
      ],
      "name": "Denied",
      "type": "error"
    },
    {
      "inputs": [],
      "name": "EmptyDeposit",
      "type": "error"
    },
    {
      "inputs": [],
      "name": "ErrorOnDeposit",
      "type": "error"
    },
    {
      "inputs": [],
      "name": "InconsistentPublicKeys",
      "type": "error"
    },
    {
      "inputs": [],
      "name": "InconsistentSignatures",
      "type": "error"
    },
    {
      "inputs": [],
      "name": "InvalidArgument",
      "type": "error"
    },
    {
      "inputs": [],
      "name": "InvalidCall",
      "type": "error"
    },
    {
      "inputs": [
        {
          "internalType": "uint256",
          "name": "currentValidatorsExitedBalance",
          "type": "uint256"
        },
        {
          "internalType": "uint256",
          "name": "newValidatorsExitedBalance",
          "type": "uint256"
        }
      ],
      "name": "InvalidDecreasingValidatorsExitedBalance",
      "type": "error"
    },
    {
      "inputs": [
        {
          "internalType": "uint256",
          "name": "currentValidatorsSkimmedBalance",
          "type": "uint256"
        },
        {
          "internalType": "uint256",
          "name": "newValidatorsSkimmedBalance",
          "type": "uint256"
        }
      ],
      "name": "InvalidDecreasingValidatorsSkimmedBalance",
      "type": "error"
    },
    {
      "inputs": [],
      "name": "InvalidEmptyString",
      "type": "error"
    },
    {
      "inputs": [
        {
          "internalType": "uint256",
          "name": "epoch",
          "type": "uint256"
        }
      ],
      "name": "InvalidEpoch",
      "type": "error"
    },
    {
      "inputs": [],
      "name": "InvalidFee",
      "type": "error"
    },
    {
      "inputs": [
        {
          "internalType": "uint256",
          "name": "version",
          "type": "uint256"
        },
        {
          "internalType": "uint256",
          "name": "expectedVersion",
          "type": "uint256"
        }
      ],
      "name": "InvalidInitialization",
      "type": "error"
    },
    {
      "inputs": [],
      "name": "InvalidPublicKeyCount",
      "type": "error"
    },
    {
      "inputs": [
        {
          "internalType": "uint256",
          "name": "requested",
          "type": "uint256"
        },
        {
          "internalType": "uint256",
          "name": "received",
          "type": "uint256"
        }
      ],
      "name": "InvalidPulledClFundsAmount",
      "type": "error"
    },
    {
      "inputs": [],
      "name": "InvalidSignatureCount",
      "type": "error"
    },
    {
      "inputs": [
        {
          "internalType": "uint256",
          "name": "providedValidatorCount",
          "type": "uint256"
        },
        {
          "internalType": "uint256",
          "name": "depositedValidatorCount",
          "type": "uint256"
        },
        {
          "internalType": "uint256",
          "name": "lastReportedValidatorCount",
          "type": "uint256"
        }
      ],
      "name": "InvalidValidatorCountReport",
      "type": "error"
    },
    {
      "inputs": [],
      "name": "InvalidWithdrawalCredentials",
      "type": "error"
    },
    {
      "inputs": [],
      "name": "InvalidZeroAddress",
      "type": "error"
    },
    {
      "inputs": [],
      "name": "NoAvailableValidatorKeys",
      "type": "error"
    },
    {
      "inputs": [],
      "name": "NotEnoughFunds",
      "type": "error"
    },
    {
      "inputs": [],
      "name": "NullTransfer",
      "type": "error"
    },
    {
      "inputs": [],
      "name": "SliceOutOfBounds",
      "type": "error"
    },
    {
      "inputs": [],
      "name": "SliceOverflow",
      "type": "error"
    },
    {
      "inputs": [
        {
          "internalType": "uint256",
          "name": "prevTotalEthIncludingExited",
          "type": "uint256"
        },
        {
          "internalType": "uint256",
          "name": "postTotalEthIncludingExited",
          "type": "uint256"
        },
        {
          "internalType": "uint256",
          "name": "timeElapsed",
          "type": "uint256"
        },
        {
          "internalType": "uint256",
          "name": "relativeLowerBound",
          "type": "uint256"
        }
      ],
      "name": "TotalValidatorBalanceDecreaseOutOfBound",
      "type": "error"
    },
    {
      "inputs": [
        {
          "internalType": "uint256",
          "name": "prevTotalEthIncludingExited",
          "type": "uint256"
        },
        {
          "internalType": "uint256",
          "name": "postTotalEthIncludingExited",
          "type": "uint256"
        },
        {
          "internalType": "uint256",
          "name": "timeElapsed",
          "type": "uint256"
        },
        {
          "internalType": "uint256",
          "name": "annualAprUpperBound",
          "type": "uint256"
        }
      ],
      "name": "TotalValidatorBalanceIncreaseOutOfBound",
      "type": "error"
    },
    {
      "inputs": [
        {
          "internalType": "address",
          "name": "caller",
          "type": "address"
        }
      ],
      "name": "Unauthorized",
      "type": "error"
    },
    {
      "inputs": [
        {
          "internalType": "address",
          "name": "_from",
          "type": "address"
        },
        {
          "internalType": "address",
          "name": "_to",
          "type": "address"
        }
      ],
      "name": "UnauthorizedTransfer",
      "type": "error"
    },
    {
      "inputs": [],
      "name": "ZeroMintedShares",
      "type": "error"
    },
    {
      "anonymous": false,
      "inputs": [
        {
          "indexed": true,
          "internalType": "address",
          "name": "owner",
          "type": "address"
        },
        {
          "indexed": true,
          "internalType": "address",
          "name": "spender",
          "type": "address"
        },
        {
          "indexed": false,
          "internalType": "uint256",
          "name": "value",
          "type": "uint256"
        }
      ],
      "name": "Approval",
      "type": "event"
    },
    {
      "anonymous": false,
      "inputs": [
        {
          "indexed": false,
          "internalType": "uint256",
          "name": "validatorCount",
          "type": "uint256"
        },
        {
          "indexed": false,
          "internalType": "uint256",
          "name": "validatorTotalBalance",
          "type": "uint256"
        },
        {
          "indexed": false,
          "internalType": "bytes32",
          "name": "roundId",
          "type": "bytes32"
        }
      ],
      "name": "ConsensusLayerDataUpdate",
      "type": "event"
    },
    {
      "anonymous": false,
      "inputs": [
        {
          "indexed": false,
          "internalType": "uint256",
          "name": "version",
          "type": "uint256"
        },
        {
          "indexed": false,
          "internalType": "bytes",
          "name": "cdata",
          "type": "bytes"
        }
      ],
      "name": "Initialize",
      "type": "event"
    },
    {
      "anonymous": false,
      "inputs": [
        {
          "components": [
            {
              "internalType": "uint256",
              "name": "epoch",
              "type": "uint256"
            },
            {
              "internalType": "uint256",
              "name": "validatorsBalance",
              "type": "uint256"
            },
            {
              "internalType": "uint256",
              "name": "validatorsSkimmedBalance",
              "type": "uint256"
            },
            {
              "internalType": "uint256",
              "name": "validatorsExitedBalance",
              "type": "uint256"
            },
            {
              "internalType": "uint256",
              "name": "validatorsExitingBalance",
              "type": "uint256"
            },
            {
              "internalType": "uint32",
              "name": "validatorsCount",
              "type": "uint32"
            },
            {
              "internalType": "uint32[]",
              "name": "stoppedValidatorCountPerOperator",
              "type": "uint32[]"
            },
            {
              "internalType": "bool",
              "name": "rebalanceDepositToRedeemMode",
              "type": "bool"
            },
            {
              "internalType": "bool",
              "name": "slashingContainmentMode",
              "type": "bool"
            }
          ],
          "indexed": false,
          "internalType": "struct IOracleManagerV1.ConsensusLayerReport",
          "name": "report",
          "type": "tuple"
        },
        {
          "components": [
            {
              "internalType": "uint256",
              "name": "rewards",
              "type": "uint256"
            },
            {
              "internalType": "uint256",
              "name": "pulledELFees",
              "type": "uint256"
            },
            {
              "internalType": "uint256",
              "name": "pulledRedeemManagerExceedingEthBuffer",
              "type": "uint256"
            },
            {
              "internalType": "uint256",
              "name": "pulledCoverageFunds",
              "type": "uint256"
            }
          ],
          "indexed": false,
          "internalType": "struct IOracleManagerV1.ConsensusLayerDataReportingTrace",
          "name": "trace",
          "type": "tuple"
        }
      ],
      "name": "ProcessedConsensusLayerReport",
      "type": "event"
    },
    {
      "anonymous": false,
      "inputs": [
        {
          "indexed": false,
          "internalType": "uint256",
          "name": "pulledSkimmedEthAmount",
          "type": "uint256"
        },
        {
          "indexed": false,
          "internalType": "uint256",
          "name": "pullExitedEthAmount",
          "type": "uint256"
        }
      ],
      "name": "PulledCLFunds",
      "type": "event"
    },
    {
      "anonymous": false,
      "inputs": [
        {
          "indexed": false,
          "internalType": "uint256",
          "name": "amount",
          "type": "uint256"
        }
      ],
      "name": "PulledCoverageFunds",
      "type": "event"
    },
    {
      "anonymous": false,
      "inputs": [
        {
          "indexed": false,
          "internalType": "uint256",
          "name": "amount",
          "type": "uint256"
        }
      ],
      "name": "PulledELFees",
      "type": "event"
    },
    {
      "anonymous": false,
      "inputs": [
        {
          "indexed": false,
          "internalType": "uint256",
          "name": "amount",
          "type": "uint256"
        }
      ],
      "name": "PulledRedeemManagerExceedingEth",
      "type": "event"
    },
    {
      "anonymous": false,
      "inputs": [
        {
          "indexed": false,
          "internalType": "uint256",
          "name": "redeemManagerDemand",
          "type": "uint256"
        },
        {
          "indexed": false,
          "internalType": "uint256",
          "name": "suppliedRedeemManagerDemand",
          "type": "uint256"
        },
        {
          "indexed": false,
          "internalType": "uint256",
          "name": "suppliedRedeemManagerDemandInEth",
          "type": "uint256"
        }
      ],
      "name": "ReportedRedeemManager",
      "type": "event"
    },
    {
      "anonymous": false,
      "inputs": [
        {
          "indexed": true,
          "internalType": "address",
          "name": "_collector",
          "type": "address"
        },
        {
          "indexed": false,
          "internalType": "uint256",
          "name": "_oldTotalUnderlyingBalance",
          "type": "uint256"
        },
        {
          "indexed": false,
          "internalType": "uint256",
          "name": "_oldTotalSupply",
          "type": "uint256"
        },
        {
          "indexed": false,
          "internalType": "uint256",
          "name": "_newTotalUnderlyingBalance",
          "type": "uint256"
        },
        {
          "indexed": false,
          "internalType": "uint256",
          "name": "_newTotalSupply",
          "type": "uint256"
        }
      ],
      "name": "RewardsEarned",
      "type": "event"
    },
    {
      "anonymous": false,
      "inputs": [
        {
          "indexed": true,
          "internalType": "address",
          "name": "admin",
          "type": "address"
        }
      ],
      "name": "SetAdmin",
      "type": "event"
    },
    {
      "anonymous": false,
      "inputs": [
        {
          "indexed": true,
          "internalType": "address",
          "name": "allowlist",
          "type": "address"
        }
      ],
      "name": "SetAllowlist",
      "type": "event"
    },
    {
      "anonymous": false,
      "inputs": [
        {
          "indexed": false,
          "internalType": "uint256",
          "name": "oldAmount",
          "type": "uint256"
        },
        {
          "indexed": false,
          "internalType": "uint256",
          "name": "newAmount",
          "type": "uint256"
        }
      ],
      "name": "SetBalanceCommittedToDeposit",
      "type": "event"
    },
    {
      "anonymous": false,
      "inputs": [
        {
          "indexed": false,
          "internalType": "uint256",
          "name": "oldAmount",
          "type": "uint256"
        },
        {
          "indexed": false,
          "internalType": "uint256",
          "name": "newAmount",
          "type": "uint256"
        }
      ],
      "name": "SetBalanceToDeposit",
      "type": "event"
    },
    {
      "anonymous": false,
      "inputs": [
        {
          "indexed": false,
          "internalType": "uint256",
          "name": "oldAmount",
          "type": "uint256"
        },
        {
          "indexed": false,
          "internalType": "uint256",
          "name": "newAmount",
          "type": "uint256"
        }
      ],
      "name": "SetBalanceToRedeem",
      "type": "event"
    },
    {
      "anonymous": false,
      "inputs": [
        {
          "indexed": false,
          "internalType": "uint256",
          "name": "annualAprUpperBound",
          "type": "uint256"
        },
        {
          "indexed": false,
          "internalType": "uint256",
          "name": "relativeLowerBound",
          "type": "uint256"
        }
      ],
      "name": "SetBounds",
      "type": "event"
    },
    {
      "anonymous": false,
      "inputs": [
        {
          "indexed": true,
          "internalType": "address",
          "name": "collector",
          "type": "address"
        }
      ],
      "name": "SetCollector",
      "type": "event"
    },
    {
      "anonymous": false,
      "inputs": [
        {
          "indexed": true,
          "internalType": "address",
          "name": "coverageFund",
          "type": "address"
        }
      ],
      "name": "SetCoverageFund",
      "type": "event"
    },
    {
      "anonymous": false,
      "inputs": [
        {
          "indexed": true,
          "internalType": "address",
          "name": "depositContract",
          "type": "address"
        }
      ],
      "name": "SetDepositContractAddress",
      "type": "event"
    },
    {
      "anonymous": false,
      "inputs": [
        {
          "indexed": false,
          "internalType": "uint256",
          "name": "oldDepositedValidatorCount",
          "type": "uint256"
        },
        {
          "indexed": false,
          "internalType": "uint256",
          "name": "newDepositedValidatorCount",
          "type": "uint256"
        }
      ],
      "name": "SetDepositedValidatorCount",
      "type": "event"
    },
    {
      "anonymous": false,
      "inputs": [
        {
          "indexed": true,
          "internalType": "address",
          "name": "elFeeRecipient",
          "type": "address"
        }
      ],
      "name": "SetELFeeRecipient",
      "type": "event"
    },
    {
      "anonymous": false,
      "inputs": [
        {
          "indexed": false,
          "internalType": "uint256",
          "name": "fee",
          "type": "uint256"
        }
      ],
      "name": "SetGlobalFee",
      "type": "event"
    },
    {
      "anonymous": false,
      "inputs": [
        {
          "indexed": false,
          "internalType": "uint256",
          "name": "minNetAmount",
          "type": "uint256"
        },
        {
          "indexed": false,
          "internalType": "uint256",
          "name": "maxRelativeAmount",
          "type": "uint256"
        }
      ],
      "name": "SetMaxDailyCommittableAmounts",
      "type": "event"
    },
    {
      "anonymous": false,
      "inputs": [
        {
          "indexed": false,
          "internalType": "string",
          "name": "metadataURI",
          "type": "string"
        }
      ],
      "name": "SetMetadataURI",
      "type": "event"
    },
    {
      "anonymous": false,
      "inputs": [
        {
          "indexed": true,
          "internalType": "address",
          "name": "operatorRegistry",
          "type": "address"
        }
      ],
      "name": "SetOperatorsRegistry",
      "type": "event"
    },
    {
      "anonymous": false,
      "inputs": [
        {
          "indexed": true,
          "internalType": "address",
          "name": "oracleAddress",
          "type": "address"
        }
      ],
      "name": "SetOracle",
      "type": "event"
    },
    {
      "anonymous": false,
      "inputs": [
        {
          "indexed": true,
          "internalType": "address",
          "name": "pendingAdmin",
          "type": "address"
        }
      ],
      "name": "SetPendingAdmin",
      "type": "event"
    },
    {
      "anonymous": false,
      "inputs": [
        {
          "indexed": false,
          "internalType": "address",
          "name": "redeemManager",
          "type": "address"
        }
      ],
      "name": "SetRedeemManager",
      "type": "event"
    },
    {
      "anonymous": false,
      "inputs": [
        {
          "indexed": false,
          "internalType": "uint64",
          "name": "epochsPerFrame",
          "type": "uint64"
        },
        {
          "indexed": false,
          "internalType": "uint64",
          "name": "slotsPerEpoch",
          "type": "uint64"
        },
        {
          "indexed": false,
          "internalType": "uint64",
          "name": "secondsPerSlot",
          "type": "uint64"
        },
        {
          "indexed": false,
          "internalType": "uint64",
          "name": "genesisTime",
          "type": "uint64"
        },
        {
          "indexed": false,
          "internalType": "uint64",
          "name": "epochsToAssumedFinality",
          "type": "uint64"
        }
      ],
      "name": "SetSpec",
      "type": "event"
    },
    {
      "anonymous": false,
      "inputs": [
        {
          "indexed": false,
          "internalType": "uint256",
          "name": "totalSupply",
          "type": "uint256"
        }
      ],
      "name": "SetTotalSupply",
      "type": "event"
    },
    {
      "anonymous": false,
      "inputs": [
        {
          "indexed": false,
          "internalType": "bytes32",
          "name": "withdrawalCredentials",
          "type": "bytes32"
        }
      ],
      "name": "SetWithdrawalCredentials",
      "type": "event"
    },
    {
      "anonymous": false,
      "inputs": [
        {
          "indexed": true,
          "internalType": "address",
          "name": "from",
          "type": "address"
        },
        {
          "indexed": true,
          "internalType": "address",
          "name": "to",
          "type": "address"
        },
        {
          "indexed": false,
          "internalType": "uint256",
          "name": "value",
          "type": "uint256"
        }
      ],
      "name": "Transfer",
      "type": "event"
    },
    {
      "anonymous": false,
      "inputs": [
        {
          "indexed": true,
          "internalType": "address",
          "name": "depositor",
          "type": "address"
        },
        {
          "indexed": true,
          "internalType": "address",
          "name": "recipient",
          "type": "address"
        },
        {
          "indexed": false,
          "internalType": "uint256",
          "name": "amount",
          "type": "uint256"
        }
      ],
      "name": "UserDeposit",
      "type": "event"
    },
    {
      "stateMutability": "payable",
      "type": "fallback"
    },
    {
      "inputs": [],
      "name": "DEPOSIT_SIZE",
      "outputs": [
        {
          "internalType": "uint256",
          "name": "",
          "type": "uint256"
        }
      ],
      "stateMutability": "view",
      "type": "function"
    },
    {
      "inputs": [],
      "name": "PUBLIC_KEY_LENGTH",
      "outputs": [
        {
          "internalType": "uint256",
          "name": "",
          "type": "uint256"
        }
      ],
      "stateMutability": "view",
      "type": "function"
    },
    {
      "inputs": [],
      "name": "SIGNATURE_LENGTH",
      "outputs": [
        {
          "internalType": "uint256",
          "name": "",
          "type": "uint256"
        }
      ],
      "stateMutability": "view",
      "type": "function"
    },
    {
      "inputs": [],
      "name": "_DEPOSIT_SIZE",
      "outputs": [
        {
          "internalType": "uint256",
          "name": "",
          "type": "uint256"
        }
      ],
      "stateMutability": "view",
      "type": "function"
    },
    {
      "inputs": [],
      "name": "acceptAdmin",
      "outputs": [],
      "stateMutability": "nonpayable",
      "type": "function"
    },
    {
      "inputs": [
        {
          "internalType": "address",
          "name": "_owner",
          "type": "address"
        },
        {
          "internalType": "address",
          "name": "_spender",
          "type": "address"
        }
      ],
      "name": "allowance",
      "outputs": [
        {
          "internalType": "uint256",
          "name": "",
          "type": "uint256"
        }
      ],
      "stateMutability": "view",
      "type": "function"
    },
    {
      "inputs": [
        {
          "internalType": "address",
          "name": "_spender",
          "type": "address"
        },
        {
          "internalType": "uint256",
          "name": "_value",
          "type": "uint256"
        }
      ],
      "name": "approve",
      "outputs": [
        {
          "internalType": "bool",
          "name": "",
          "type": "bool"
        }
      ],
      "stateMutability": "nonpayable",
      "type": "function"
    },
    {
      "inputs": [
        {
          "internalType": "address",
          "name": "_owner",
          "type": "address"
        }
      ],
      "name": "balanceOf",
      "outputs": [
        {
          "internalType": "uint256",
          "name": "",
          "type": "uint256"
        }
      ],
      "stateMutability": "view",
      "type": "function"
    },
    {
      "inputs": [
        {
          "internalType": "address",
          "name": "_owner",
          "type": "address"
        }
      ],
      "name": "balanceOfUnderlying",
      "outputs": [
        {
          "internalType": "uint256",
          "name": "",
          "type": "uint256"
        }
      ],
      "stateMutability": "view",
      "type": "function"
    },
    {
      "inputs": [
        {
          "internalType": "uint32[]",
          "name": "_redeemRequestIds",
          "type": "uint32[]"
        },
        {
          "internalType": "uint32[]",
          "name": "_withdrawalEventIds",
          "type": "uint32[]"
        }
      ],
      "name": "claimRedeemRequests",
      "outputs": [
        {
          "internalType": "uint8[]",
          "name": "claimStatuses",
          "type": "uint8[]"
        }
      ],
      "stateMutability": "nonpayable",
      "type": "function"
    },
    {
      "inputs": [],
      "name": "decimals",
      "outputs": [
        {
          "internalType": "uint8",
          "name": "",
          "type": "uint8"
        }
      ],
      "stateMutability": "pure",
      "type": "function"
    },
    {
      "inputs": [
        {
          "internalType": "address",
          "name": "_spender",
          "type": "address"
        },
        {
          "internalType": "uint256",
          "name": "_subtractableValue",
          "type": "uint256"
        }
      ],
      "name": "decreaseAllowance",
      "outputs": [
        {
          "internalType": "bool",
          "name": "",
          "type": "bool"
        }
      ],
      "stateMutability": "nonpayable",
      "type": "function"
    },
    {
      "inputs": [],
      "name": "deposit",
      "outputs": [],
      "stateMutability": "payable",
      "type": "function"
    },
    {
      "inputs": [
        {
          "internalType": "address",
          "name": "_recipient",
          "type": "address"
        }
      ],
      "name": "depositAndTransfer",
      "outputs": [],
      "stateMutability": "payable",
      "type": "function"
    },
    {
      "inputs": [
        {
          "internalType": "uint256",
          "name": "_maxCount",
          "type": "uint256"
        }
      ],
      "name": "depositToConsensusLayer",
      "outputs": [],
      "stateMutability": "nonpayable",
      "type": "function"
    },
    {
      "inputs": [],
      "name": "getAdmin",
      "outputs": [
        {
          "internalType": "address",
          "name": "",
          "type": "address"
        }
      ],
      "stateMutability": "view",
      "type": "function"
    },
    {
      "inputs": [],
      "name": "getAllowlist",
      "outputs": [
        {
          "internalType": "address",
          "name": "",
          "type": "address"
        }
      ],
      "stateMutability": "view",
      "type": "function"
    },
    {
      "inputs": [],
      "name": "getBalanceToDeposit",
      "outputs": [
        {
          "internalType": "uint256",
          "name": "",
          "type": "uint256"
        }
      ],
      "stateMutability": "view",
      "type": "function"
    },
    {
      "inputs": [],
      "name": "getBalanceToRedeem",
      "outputs": [
        {
          "internalType": "uint256",
          "name": "",
          "type": "uint256"
        }
      ],
      "stateMutability": "view",
      "type": "function"
    },
    {
      "inputs": [],
      "name": "getCLSpec",
      "outputs": [
        {
          "components": [
            {
              "internalType": "uint64",
              "name": "epochsPerFrame",
              "type": "uint64"
            },
            {
              "internalType": "uint64",
              "name": "slotsPerEpoch",
              "type": "uint64"
            },
            {
              "internalType": "uint64",
              "name": "secondsPerSlot",
              "type": "uint64"
            },
            {
              "internalType": "uint64",
              "name": "genesisTime",
              "type": "uint64"
            },
            {
              "internalType": "uint64",
              "name": "epochsToAssumedFinality",
              "type": "uint64"
            }
          ],
          "internalType": "struct CLSpec.CLSpecStruct",
          "name": "",
          "type": "tuple"
        }
      ],
      "stateMutability": "view",
      "type": "function"
    },
    {
      "inputs": [],
      "name": "getCLValidatorCount",
      "outputs": [
        {
          "internalType": "uint256",
          "name": "",
          "type": "uint256"
        }
      ],
      "stateMutability": "view",
      "type": "function"
    },
    {
      "inputs": [],
      "name": "getCLValidatorTotalBalance",
      "outputs": [
        {
          "internalType": "uint256",
          "name": "",
          "type": "uint256"
        }
      ],
      "stateMutability": "view",
      "type": "function"
    },
    {
      "inputs": [],
      "name": "getCollector",
      "outputs": [
        {
          "internalType": "address",
          "name": "",
          "type": "address"
        }
      ],
      "stateMutability": "view",
      "type": "function"
    },
    {
      "inputs": [],
      "name": "getCommittedBalance",
      "outputs": [
        {
          "internalType": "uint256",
          "name": "",
          "type": "uint256"
        }
      ],
      "stateMutability": "view",
      "type": "function"
    },
    {
      "inputs": [],
      "name": "getCoverageFund",
      "outputs": [
        {
          "internalType": "address",
          "name": "",
          "type": "address"
        }
      ],
      "stateMutability": "view",
      "type": "function"
    },
    {
      "inputs": [],
      "name": "getCurrentEpochId",
      "outputs": [
        {
          "internalType": "uint256",
          "name": "",
          "type": "uint256"
        }
      ],
      "stateMutability": "view",
      "type": "function"
    },
    {
      "inputs": [],
      "name": "getCurrentFrame",
      "outputs": [
        {
          "internalType": "uint256",
          "name": "_startEpochId",
          "type": "uint256"
        },
        {
          "internalType": "uint256",
          "name": "_startTime",
          "type": "uint256"
        },
        {
          "internalType": "uint256",
          "name": "_endTime",
          "type": "uint256"
        }
      ],
      "stateMutability": "view",
      "type": "function"
    },
    {
      "inputs": [],
      "name": "getDailyCommittableLimits",
      "outputs": [
        {
          "components": [
            {
              "internalType": "uint128",
              "name": "minDailyNetCommittableAmount",
              "type": "uint128"
            },
            {
              "internalType": "uint128",
              "name": "maxDailyRelativeCommittableAmount",
              "type": "uint128"
            }
          ],
          "internalType": "struct DailyCommittableLimits.DailyCommittableLimitsStruct",
          "name": "",
          "type": "tuple"
        }
      ],
      "stateMutability": "view",
      "type": "function"
    },
    {
      "inputs": [],
      "name": "getDepositedValidatorCount",
      "outputs": [
        {
          "internalType": "uint256",
          "name": "",
          "type": "uint256"
        }
      ],
      "stateMutability": "view",
      "type": "function"
    },
    {
      "inputs": [],
      "name": "getELFeeRecipient",
      "outputs": [
        {
          "internalType": "address",
          "name": "",
          "type": "address"
        }
      ],
      "stateMutability": "view",
      "type": "function"
    },
    {
      "inputs": [],
      "name": "getExpectedEpochId",
      "outputs": [
        {
          "internalType": "uint256",
          "name": "",
          "type": "uint256"
        }
      ],
      "stateMutability": "view",
      "type": "function"
    },
    {
      "inputs": [
        {
          "internalType": "uint256",
          "name": "_epochId",
          "type": "uint256"
        }
      ],
      "name": "getFrameFirstEpochId",
      "outputs": [
        {
          "internalType": "uint256",
          "name": "",
          "type": "uint256"
        }
      ],
      "stateMutability": "view",
      "type": "function"
    },
    {
      "inputs": [],
      "name": "getGlobalFee",
      "outputs": [
        {
          "internalType": "uint256",
          "name": "",
          "type": "uint256"
        }
      ],
      "stateMutability": "view",
      "type": "function"
    },
    {
      "inputs": [],
      "name": "getLastCompletedEpochId",
      "outputs": [
        {
          "internalType": "uint256",
          "name": "",
          "type": "uint256"
        }
      ],
      "stateMutability": "view",
      "type": "function"
    },
    {
      "inputs": [],
      "name": "getLastConsensusLayerReport",
      "outputs": [
        {
          "components": [
            {
              "internalType": "uint256",
              "name": "epoch",
              "type": "uint256"
            },
            {
              "internalType": "uint256",
              "name": "validatorsBalance",
              "type": "uint256"
            },
            {
              "internalType": "uint256",
              "name": "validatorsSkimmedBalance",
              "type": "uint256"
            },
            {
              "internalType": "uint256",
              "name": "validatorsExitedBalance",
              "type": "uint256"
            },
            {
              "internalType": "uint256",
              "name": "validatorsExitingBalance",
              "type": "uint256"
            },
            {
              "internalType": "uint32",
              "name": "validatorsCount",
              "type": "uint32"
            },
            {
              "internalType": "bool",
              "name": "rebalanceDepositToRedeemMode",
              "type": "bool"
            },
            {
              "internalType": "bool",
              "name": "slashingContainmentMode",
              "type": "bool"
            }
          ],
          "internalType": "struct IOracleManagerV1.StoredConsensusLayerReport",
          "name": "",
          "type": "tuple"
        }
      ],
      "stateMutability": "view",
      "type": "function"
    },
    {
      "inputs": [],
      "name": "getMetadataURI",
      "outputs": [
        {
          "internalType": "string",
          "name": "",
          "type": "string"
        }
      ],
      "stateMutability": "view",
      "type": "function"
    },
    {
      "inputs": [],
      "name": "getOperatorsRegistry",
      "outputs": [
        {
          "internalType": "address",
          "name": "",
          "type": "address"
        }
      ],
      "stateMutability": "view",
      "type": "function"
    },
    {
      "inputs": [],
      "name": "getOracle",
      "outputs": [
        {
          "internalType": "address",
          "name": "",
          "type": "address"
        }
      ],
      "stateMutability": "view",
      "type": "function"
    },
    {
      "inputs": [],
      "name": "getPendingAdmin",
      "outputs": [
        {
          "internalType": "address",
          "name": "",
          "type": "address"
        }
      ],
      "stateMutability": "view",
      "type": "function"
    },
    {
      "inputs": [],
      "name": "getRedeemManager",
      "outputs": [
        {
          "internalType": "address",
          "name": "",
          "type": "address"
        }
      ],
      "stateMutability": "view",
      "type": "function"
    },
    {
      "inputs": [],
      "name": "getReportBounds",
      "outputs": [
        {
          "components": [
            {
              "internalType": "uint256",
              "name": "annualAprUpperBound",
              "type": "uint256"
            },
            {
              "internalType": "uint256",
              "name": "relativeLowerBound",
              "type": "uint256"
            }
          ],
          "internalType": "struct ReportBounds.ReportBoundsStruct",
          "name": "",
          "type": "tuple"
        }
      ],
      "stateMutability": "view",
      "type": "function"
    },
    {
      "inputs": [],
      "name": "getTime",
      "outputs": [
        {
          "internalType": "uint256",
          "name": "",
          "type": "uint256"
        }
      ],
      "stateMutability": "view",
      "type": "function"
    },
    {
      "inputs": [],
      "name": "getWithdrawalCredentials",
      "outputs": [
        {
          "internalType": "bytes32",
          "name": "",
          "type": "bytes32"
        }
      ],
      "stateMutability": "view",
      "type": "function"
    },
    {
      "inputs": [
        {
          "internalType": "address",
          "name": "_spender",
          "type": "address"
        },
        {
          "internalType": "uint256",
          "name": "_additionalValue",
          "type": "uint256"
        }
      ],
      "name": "increaseAllowance",
      "outputs": [
        {
          "internalType": "bool",
          "name": "",
          "type": "bool"
        }
      ],
      "stateMutability": "nonpayable",
      "type": "function"
    },
    {
      "inputs": [
        {
          "internalType": "address",
          "name": "_depositContractAddress",
          "type": "address"
        },
        {
          "internalType": "address",
          "name": "_elFeeRecipientAddress",
          "type": "address"
        },
        {
          "internalType": "bytes32",
          "name": "_withdrawalCredentials",
          "type": "bytes32"
        },
        {
          "internalType": "address",
          "name": "_oracleAddress",
          "type": "address"
        },
        {
          "internalType": "address",
          "name": "_systemAdministratorAddress",
          "type": "address"
        },
        {
          "internalType": "address",
          "name": "_allowlistAddress",
          "type": "address"
        },
        {
          "internalType": "address",
          "name": "_operatorRegistryAddress",
          "type": "address"
        },
        {
          "internalType": "address",
          "name": "_collectorAddress",
          "type": "address"
        },
        {
          "internalType": "uint256",
          "name": "_globalFee",
          "type": "uint256"
        }
      ],
      "name": "initRiverV1",
      "outputs": [],
      "stateMutability": "nonpayable",
      "type": "function"
    },
    {
      "inputs": [
        {
          "internalType": "address",
          "name": "_redeemManager",
          "type": "address"
        },
        {
          "internalType": "uint64",
          "name": "_epochsPerFrame",
          "type": "uint64"
        },
        {
          "internalType": "uint64",
          "name": "_slotsPerEpoch",
          "type": "uint64"
        },
        {
          "internalType": "uint64",
          "name": "_secondsPerSlot",
          "type": "uint64"
        },
        {
          "internalType": "uint64",
          "name": "_genesisTime",
          "type": "uint64"
        },
        {
          "internalType": "uint64",
          "name": "_epochsToAssumedFinality",
          "type": "uint64"
        },
        {
          "internalType": "uint256",
          "name": "_annualAprUpperBound",
          "type": "uint256"
        },
        {
          "internalType": "uint256",
          "name": "_relativeLowerBound",
          "type": "uint256"
        },
        {
          "internalType": "uint128",
          "name": "_minDailyNetCommittableAmount_",
          "type": "uint128"
        },
        {
          "internalType": "uint128",
          "name": "_maxDailyRelativeCommittableAmount_",
          "type": "uint128"
        }
      ],
      "name": "initRiverV1_1",
      "outputs": [],
      "stateMutability": "nonpayable",
      "type": "function"
    },
    {
      "inputs": [],
      "name": "initRiverV1_2",
      "outputs": [],
      "stateMutability": "nonpayable",
      "type": "function"
    },
    {
      "inputs": [
        {
          "internalType": "uint256",
          "name": "_epoch",
          "type": "uint256"
        }
      ],
      "name": "isValidEpoch",
      "outputs": [
        {
          "internalType": "bool",
          "name": "",
          "type": "bool"
        }
      ],
      "stateMutability": "view",
      "type": "function"
    },
    {
      "inputs": [],
      "name": "name",
      "outputs": [
        {
          "internalType": "string",
          "name": "",
          "type": "string"
        }
      ],
      "stateMutability": "pure",
      "type": "function"
    },
    {
      "inputs": [
        {
          "internalType": "address",
          "name": "_newAdmin",
          "type": "address"
        }
      ],
      "name": "proposeAdmin",
      "outputs": [],
      "stateMutability": "nonpayable",
      "type": "function"
    },
    {
      "inputs": [
        {
          "internalType": "uint256",
          "name": "_lsETHAmount",
          "type": "uint256"
        },
        {
          "internalType": "address",
          "name": "_recipient",
          "type": "address"
        }
      ],
      "name": "requestRedeem",
      "outputs": [
        {
          "internalType": "uint32",
          "name": "_redeemRequestId",
          "type": "uint32"
        }
      ],
      "stateMutability": "nonpayable",
      "type": "function"
    },
    {
      "inputs": [
        {
          "internalType": "uint32[]",
          "name": "_redeemRequestIds",
          "type": "uint32[]"
        }
      ],
      "name": "resolveRedeemRequests",
      "outputs": [
        {
          "internalType": "int64[]",
          "name": "withdrawalEventIds",
          "type": "int64[]"
        }
      ],
      "stateMutability": "view",
      "type": "function"
    },
    {
      "inputs": [],
      "name": "sendCLFunds",
      "outputs": [],
      "stateMutability": "payable",
      "type": "function"
    },
    {
      "inputs": [],
      "name": "sendCoverageFunds",
      "outputs": [],
      "stateMutability": "payable",
      "type": "function"
    },
    {
      "inputs": [],
      "name": "sendELFees",
      "outputs": [],
      "stateMutability": "payable",
      "type": "function"
    },
    {
      "inputs": [],
      "name": "sendRedeemManagerExceedingFunds",
      "outputs": [],
      "stateMutability": "payable",
      "type": "function"
    },
    {
      "inputs": [
        {
          "internalType": "address",
          "name": "_newAllowlist",
          "type": "address"
        }
      ],
      "name": "setAllowlist",
      "outputs": [],
      "stateMutability": "nonpayable",
      "type": "function"
    },
    {
      "inputs": [
        {
          "components": [
            {
              "internalType": "uint64",
              "name": "epochsPerFrame",
              "type": "uint64"
            },
            {
              "internalType": "uint64",
              "name": "slotsPerEpoch",
              "type": "uint64"
            },
            {
              "internalType": "uint64",
              "name": "secondsPerSlot",
              "type": "uint64"
            },
            {
              "internalType": "uint64",
              "name": "genesisTime",
              "type": "uint64"
            },
            {
              "internalType": "uint64",
              "name": "epochsToAssumedFinality",
              "type": "uint64"
            }
          ],
          "internalType": "struct CLSpec.CLSpecStruct",
          "name": "_newValue",
          "type": "tuple"
        }
      ],
      "name": "setCLSpec",
      "outputs": [],
      "stateMutability": "nonpayable",
      "type": "function"
    },
    {
      "inputs": [
        {
          "internalType": "address",
          "name": "_newCollector",
          "type": "address"
        }
      ],
      "name": "setCollector",
      "outputs": [],
      "stateMutability": "nonpayable",
      "type": "function"
    },
    {
      "inputs": [
        {
          "components": [
            {
              "internalType": "uint256",
              "name": "epoch",
              "type": "uint256"
            },
            {
              "internalType": "uint256",
              "name": "validatorsBalance",
              "type": "uint256"
            },
            {
              "internalType": "uint256",
              "name": "validatorsSkimmedBalance",
              "type": "uint256"
            },
            {
              "internalType": "uint256",
              "name": "validatorsExitedBalance",
              "type": "uint256"
            },
            {
              "internalType": "uint256",
              "name": "validatorsExitingBalance",
              "type": "uint256"
            },
            {
              "internalType": "uint32",
              "name": "validatorsCount",
              "type": "uint32"
            },
            {
              "internalType": "uint32[]",
              "name": "stoppedValidatorCountPerOperator",
              "type": "uint32[]"
            },
            {
              "internalType": "bool",
              "name": "rebalanceDepositToRedeemMode",
              "type": "bool"
            },
            {
              "internalType": "bool",
              "name": "slashingContainmentMode",
              "type": "bool"
            }
          ],
          "internalType": "struct IOracleManagerV1.ConsensusLayerReport",
          "name": "_report",
          "type": "tuple"
        }
      ],
      "name": "setConsensusLayerData",
      "outputs": [],
      "stateMutability": "nonpayable",
      "type": "function"
    },
    {
      "inputs": [
        {
          "internalType": "address",
          "name": "_newCoverageFund",
          "type": "address"
        }
      ],
      "name": "setCoverageFund",
      "outputs": [],
      "stateMutability": "nonpayable",
      "type": "function"
    },
    {
      "inputs": [
        {
          "components": [
            {
              "internalType": "uint128",
              "name": "minDailyNetCommittableAmount",
              "type": "uint128"
            },
            {
              "internalType": "uint128",
              "name": "maxDailyRelativeCommittableAmount",
              "type": "uint128"
            }
          ],
          "internalType": "struct DailyCommittableLimits.DailyCommittableLimitsStruct",
          "name": "_dcl",
          "type": "tuple"
        }
      ],
      "name": "setDailyCommittableLimits",
      "outputs": [],
      "stateMutability": "nonpayable",
      "type": "function"
    },
    {
      "inputs": [
        {
          "internalType": "address",
          "name": "_newELFeeRecipient",
          "type": "address"
        }
      ],
      "name": "setELFeeRecipient",
      "outputs": [],
      "stateMutability": "nonpayable",
      "type": "function"
    },
    {
      "inputs": [
        {
          "internalType": "uint256",
          "name": "_newFee",
          "type": "uint256"
        }
      ],
      "name": "setGlobalFee",
      "outputs": [],
      "stateMutability": "nonpayable",
      "type": "function"
    },
    {
      "inputs": [
        {
          "internalType": "string",
          "name": "_metadataURI",
          "type": "string"
        }
      ],
      "name": "setMetadataURI",
      "outputs": [],
      "stateMutability": "nonpayable",
      "type": "function"
    },
    {
      "inputs": [
        {
          "internalType": "address",
          "name": "_oracleAddress",
          "type": "address"
        }
      ],
      "name": "setOracle",
      "outputs": [],
      "stateMutability": "nonpayable",
      "type": "function"
    },
    {
      "inputs": [
        {
          "components": [
            {
              "internalType": "uint256",
              "name": "annualAprUpperBound",
              "type": "uint256"
            },
            {
              "internalType": "uint256",
              "name": "relativeLowerBound",
              "type": "uint256"
            }
          ],
          "internalType": "struct ReportBounds.ReportBoundsStruct",
          "name": "_newValue",
          "type": "tuple"
        }
      ],
      "name": "setReportBounds",
      "outputs": [],
      "stateMutability": "nonpayable",
      "type": "function"
    },
    {
      "inputs": [
        {
          "internalType": "uint256",
          "name": "_underlyingAssetAmount",
          "type": "uint256"
        }
      ],
      "name": "sharesFromUnderlyingBalance",
      "outputs": [
        {
          "internalType": "uint256",
          "name": "",
          "type": "uint256"
        }
      ],
      "stateMutability": "view",
      "type": "function"
    },
    {
      "inputs": [],
      "name": "symbol",
      "outputs": [
        {
          "internalType": "string",
          "name": "",
          "type": "string"
        }
      ],
      "stateMutability": "pure",
      "type": "function"
    },
    {
      "inputs": [],
      "name": "totalSupply",
      "outputs": [
        {
          "internalType": "uint256",
          "name": "",
          "type": "uint256"
        }
      ],
      "stateMutability": "view",
      "type": "function"
    },
    {
      "inputs": [],
      "name": "totalUnderlyingSupply",
      "outputs": [
        {
          "internalType": "uint256",
          "name": "",
          "type": "uint256"
        }
      ],
      "stateMutability": "view",
      "type": "function"
    },
    {
      "inputs": [
        {
          "internalType": "address",
          "name": "_to",
          "type": "address"
        },
        {
          "internalType": "uint256",
          "name": "_value",
          "type": "uint256"
        }
      ],
      "name": "transfer",
      "outputs": [
        {
          "internalType": "bool",
          "name": "",
          "type": "bool"
        }
      ],
      "stateMutability": "nonpayable",
      "type": "function"
    },
    {
      "inputs": [
        {
          "internalType": "address",
          "name": "_from",
          "type": "address"
        },
        {
          "internalType": "address",
          "name": "_to",
          "type": "address"
        },
        {
          "internalType": "uint256",
          "name": "_value",
          "type": "uint256"
        }
      ],
      "name": "transferFrom",
      "outputs": [
        {
          "internalType": "bool",
          "name": "",
          "type": "bool"
        }
      ],
      "stateMutability": "nonpayable",
      "type": "function"
    },
    {
      "inputs": [
        {
          "internalType": "uint256",
          "name": "_shares",
          "type": "uint256"
        }
      ],
      "name": "underlyingBalanceFromShares",
      "outputs": [
        {
          "internalType": "uint256",
          "name": "",
          "type": "uint256"
        }
      ],
      "stateMutability": "view",
      "type": "function"
    },
    {
      "stateMutability": "payable",
      "type": "receive"
    }
  ],
  "transactionHash": "0x552a837d7339ceb2bb7397225d7ed1d40b9b3af8f344cc2396ee3f2f272ae3ce",
  "args": [],
  "numDeployments": 1,
  "solcInputHash": "afb6920dfa036af584d4d7d7334b0ff3",
  "bytecode": "0x60808060405234610092577f1809e49bba43f2d39fa57894b50cd6ccb428cc438230e065cac3eb24a1355a7190600019807f82055909238c0f5e63d6f174068ebb8f51bcec9bd37de63bb68f6551feec0cfc558152604060208201523660408201523660006060830137600060603683010152606081601f19601f3601168101030190a160405161575d90816100988239f35b600080fdfe6080604052600436101561001d575b36614c605761001b614c57565b005b60003560e01c8063020f086e146104b85780630407de47146104b357806304843a17146104ae578063056850c6146104a957806306fdde03146104a4578063095ea7b31461049f5780630e18b6811461049a578063107703ab14610495578063107d7fa0146104905780631311cf8d1461048b57806313d86aed14610486578063143a08d414610481578063147bf6c41461047c5780631546962b1461047757806315ca4cee1461047257806317e648581461046d57806318160ddd146104685780631bcbfaba1461046357806323b872dd1461045e578063281a312214610459578063291206f6146104545780632cb562e11461044f5780632d6b59bf1461044a5780632dc5c97c14610445578063313ce5671461044057806336bf332514610378578063395093511461043b5780633af9e6691461043657806346425ef0146104315780634b47b74f1461042c5780635022820114610427578063540bc5ea1461042257806354a29cdc1461041d578063557ed1ba14610418578063563967151461041357806357fa85471461040e57806358bf3c7f146104095780635d95e801146104045780635f2e5f07146103ff57806363f62aaf146103fa5780636e9960c3146103f557806370a08231146103f057806372f79b13146103eb578063750521f5146103e657806378a010e8146103e1578063799a1954146103dc5780637adbf973146103d7578063833b1fce146103d257806386a92af7146103cd57806387f2adfb146103c857806389896aef146103c35780639332525d146103be57806395d89b41146103b95780639b498e26146103b45780639d49cca1146103af578063a29a839f146103aa578063a457c2d7146103a5578063a9059cbb146103a0578063ac232bde1461039b578063bb6583ec14610396578063bf15af5614610391578063c5eff3d01461038c578063d046815614610387578063d0e30db014610382578063d49705241461037d578063d7f8f47414610378578063dd62ed3e14610373578063e3a88e611461036e578063efd6034714610369578063efd6684614610364578063f79c3f021461035f578063f9f95a901461035a578063fb5b82d0146103555763fe7c12ae0361000e57612874565b6127f7565b6127c7565b6127a9565b6121c5565b612198565b612157565b6120f2565b6111bb565b6120c5565b6120b0565b61207a565b612044565b612028565b611fc1565b611f9c565b611f23565b611ec3565b611ea0565b611e6a565b611e34565b611dee565b611cf3565b611c8a565b611c5f565b611b93565b611b5d565b611b1c565b611afe565b611a0e565b61199c565b6117ba565b611773565b61173d565b611707565b6115ce565b611533565b6114b6565b611474565b611449565b61142e565b611371565b611355565b61131f565b6112b1565b611286565b61123f565b6111df565b61119f565b611138565b61110d565b6110d7565b61106d565b610ff9565b610e9b565b610e70565b610e45565b610d02565b610c74565b610c3e565b610bca565b610ba7565b610a30565b6109b3565b610982565b610815565b6107ab565b61077a565b610724565b61069b565b610670565b6105d6565b61051a565b600435906001600160a01b03821682036104d357565b600080fd5b602435906001600160a01b03821682036104d357565b60c435906001600160a01b03821682036104d357565b60e435906001600160a01b03821682036104d357565b346104d35760203660031901126104d3576105336104bd565b600080516020615628833981519152546001600160a01b039190821633036105975761055e81614f0c565b806000805160206156c883398151915255167f67b26a33f305cc027b2d45b2f6f418793afcd3e22f7376afa7be068ce18604e8600080a2005b60405163472511eb60e11b8152336004820152602490fd5b6001600160401b038116036104d357565b602435906001600160801b03821682036104d357565b346104d3576101403660031901126104d3576105f06104bd565b6024356105fc816105af565b60443591610609836105af565b60643591610616836105af565b60843591610623836105af565b60a43561062f816105af565b6001600160801b039461010435949086861686036104d3576101243596871687036104d35761001b9760e4359560c43595612b45565b60009103126104d357565b346104d35760003660031901126104d357602060008051602061566883398151915254604051908152f35b60003660031901126104d357600080516020615468833981519152546001600160a01b0316330361059757005b60005b8381106106db5750506000910152565b81810151838201526020016106cb565b90602091610704815180928185528580860191016106c8565b601f01601f1916010190565b9060206107219281815201906106eb565b90565b346104d35760003660031901126104d357610776604051610744816118d7565b6011815270098d2e2ead2c840a6e8c2d6cac8408aa89607b1b60208201526040519182916020835260208301906106eb565b0390f35b346104d35760403660031901126104d3576107a06107966104bd565b60243590336149db565b602060405160018152f35b346104d357600080600319360112610812576000805160206154288339815191528054906001600160a01b0382163303610597576107e9839261289f565b55807f2a0f8515de3fa34ef68b99300347b8793c01683350743e96fe440594528298f48180a280f35b80fd5b346104d35760403660031901126104d3576004356108316104d8565b6000805160206156a88339815191525490919061085e906001600160a01b03165b6001600160a01b031690565b91823b156104d357604051632d20488160e11b815233600480830191909152602482015292600090849060449082905afa9182156109645761090893602093610969575b506108ae813033614a4b565b50600080516020615468833981519152546108d1906001600160a01b0316610852565b60405163107703ab60e01b815260048101929092526001600160a01b03909216602482015292839190829060009082906044820190565b03925af180156109645761077691600091610936575b5060405163ffffffff90911681529081906020820190565b610957915060203d811161095d575b61094f8183611944565b810190612e96565b3861091e565b503d610945565b612e8a565b8061097661097c926118bf565b80610665565b386108a2565b346104d35760003660031901126104d357602063ffffffff6000805160206156488339815191525416604051908152f35b346104d35760203660031901126104d3576109cc6104bd565b600080516020615628833981519152546001600160a01b03919082163303610597576109f781614f0c565b8060008051602061550883398151915255167f1da4c245099590dc40be61880c9b97792f3694d970acc1e67ac0e6cc90f3780d600080a2005b346104d35760203660031901126104d35760008051602061568883398151915254610a686004356801bc16d674ec8000008304614f2e565b8015610b9557610a77816133b5565b8151928315610b83578311610b71576000805160206154c883398151915254908115610b5f5760005b848110610b36577f220ab8fd274cf58c09b0825ccf00e74ba4ce4117fd47285adc2183a635838f1b85610ae4610adf89610ad9846132b0565b90612def565b61317f565b610b1d6000805160206155688339815191525491610b17610b058285612909565b60008051602061556883398151915255565b82612909565b604080519283526020830191909152819081015b0390a1005b80610b5984610b4760019488613286565b51610b528487613286565b5190613593565b01610aa0565b604051639be7315960e01b8152600490fd5b604051635993bd5760e01b8152600490fd5b60405163200149ad60e21b8152600490fd5b604051631036b5ad60e31b8152600490fd5b346104d35760003660031901126104d3576020610bc2613dbf565b604051908152f35b346104d35760203660031901126104d357610be36104bd565b600080516020615628833981519152546001600160a01b03919082163303610597578060008051602061542883398151915255167f2a0f8515de3fa34ef68b99300347b8793c01683350743e96fe440594528298f4600080a2005b346104d35760003660031901126104d3576000805160206156c8833981519152546040516001600160a01b039091168152602090f35b346104d35760403660031901126104d357600080516020615628833981519152546001600160a01b03163303610597577f5ab79ffcd89b6380c7fbdd89d02cfe3d9c53c99a85e150c2319075018d1aac5c604051610cd1816118d7565b600435808252610ce960243592836020820152615354565b6040805191825260208201929092529081908101610b31565b346104d35760003660031901126104d357610d1b613819565b50610776604051610d2b816118f2565b6000805160206154e88339815191525481526000805160206153c88339815191525460208201526000805160206154a88339815191525460408201526000805160206155288339815191525460608201527fdbc0527c99b54cd325d6ce9eaae3a8413cd447b5205f37385f0ebc6551033c705460808201526000805160206156488339815191525463ffffffff811660a0830152610de19060ff90602081901c8216151560c085015260281c16151560e0830152565b6040519182918291909160e080610100830194805184526020810151602085015260408101516040850152606081015160608501526080810151608085015263ffffffff60a08201511660a085015260c0810151151560c085015201511515910152565b346104d35760003660031901126104d357602060008051602061544883398151915254604051908152f35b346104d35760003660031901126104d357602060008051602061560883398151915254604051908152f35b346104d35760603660031901126104d357610eb46104bd565b610ebc6104d8565b60443590610eca8184614856565b8115610fe75781610eda846153a0565b5410610fd5576001600160a01b0381811615610fa9576001600160a01b03841660009081526000805160206155c88339815191526020908152604080832033845290915290205490838210610f7f575060018101610f53575b610776610f41848487614a4b565b60405190151581529081906020820190565b9190818303928311610f7a5761077693610f71610f419433836149db565b93509091610f33565b6128f3565b604051637b936de360e01b8152941660048501523360248501526044840152506064820152608490fd5b604051637617407560e11b81526001600160a01b038516600482015260006024820152604490fd5b0390fd5b6040516351940b3960e11b8152600490fd5b6040516336b216db60e21b8152600490fd5b346104d3576101203660031901126104d3576110136104bd565b61101b6104d8565b6001600160a01b039160643583811681036104d3576084359380851685036104d35760a43590811681036104d35761001b946110556104ee565b9261105e610504565b946101043596604435916129a3565b346104d35760203660031901126104d35760008051602061562883398151915254600435906001600160a01b03163303610597576020816110ce7fbd533e726baaf59b36f3914d950053f7e78f527057c97cd3f0043257fc0fc8849361511f565b604051908152a1005b346104d35760003660031901126104d357600080516020615508833981519152546040516001600160a01b039091168152602090f35b346104d35760003660031901126104d357602060008051602061554883398151915254604051908152f35b346104d35760003660031901126104d357611151613857565b5060a061115c614f99565b6040519060806001600160401b03918281511684528260208201511660208501528260408201511660408501528260608201511660608501520151166080820152f35b346104d35760003660031901126104d357602060405160128152f35b346104d35760003660031901126104d35760206040516801bc16d674ec8000008152f35b346104d35760403660031901126104d3576111f86104bd565b3360009081526000805160206155c8833981519152602090815260408083206001600160a01b03851684529091529020546024358101809111610f7a576107a091336149db565b346104d35760203660031901126104d3576001600160a01b036112606104bd565b166000526000805160206157088339815191526020526020610bc2604060002054614ac8565b346104d35760003660031901126104d35760206000805160206153c883398151915254604051908152f35b346104d35760003660031901126104d3576112ca614f99565b6112d381614753565b906000805160206154e883398151915254906001600160401b0390818151168301809311610f7a575116801561131a5782068203918211610f7a57602091610bc291614f3f565b612db3565b346104d35760003660031901126104d357600080516020615588833981519152546040516001600160a01b039091168152602090f35b346104d35760003660031901126104d357602060405160608152f35b346104d35760003660031901126104d3576000805160206153e883398151915280548060020361140f5760038255600080516020615688833981519152546801bc16d674ec800000810690818103908111610f7a576113cf9061317f565b60008051602061566883398151915254908101809111610f7a576113f290613132565b60008051602061540883398151915260405180610b313682612916565b60449060405190631cfd276760e31b8252600260048301526024820152fd5b346104d35760003660031901126104d3576020604051428152f35b346104d35760003660031901126104d35760206000805160206154c883398151915254604051908152f35b346104d35760203660031901126104d3576004356001600160401b03611498614f99565b5116801561131a5781068103908111610f7a57602090604051908152f35b346104d35760203660031901126104d3576114cf6104bd565b600080516020615628833981519152546001600160a01b03919082163303610597576114fa81614f0c565b806000805160206156a883398151915255167f30f015a5d3c72c0a9414538199baa022323a483fa9e4ba2cd581596cf8ca0424600080a2005b60003660031901126104d3576000805160206154c8833981519152546001600160a01b0316330361059757005b9181601f840112156104d3578235916001600160401b0383116104d3576020808501948460051b0101116104d357565b6020908160408183019282815285518094520193019160005b8281106115b7575050505090565b835160070b855293810193928101926001016115a9565b346104d3576020806003193601126104d3576001600160401b036004358181116104d357611600903690600401611560565b60018060a01b036000805160206154688339815191525416906040518092635f2e5f0760e01b8252866004830152818061164260009788966024840191612e45565b03915afa928315610964578293611662575b604051806107768682611590565b909192503d8084843e6116758184611944565b820191848184031261170357805191821161170357019181601f84011215610812578251906116a382612e15565b936116b16040519586611944565b828552858086019360051b8201019384116116ff578501915b8383106116e257505050506107769150388080611654565b82518060070b81036116fb5781529185019185016116ca565b8280fd5b5080fd5b8380fd5b346104d35760003660031901126104d357600080516020615468833981519152546040516001600160a01b039091168152602090f35b346104d35760003660031901126104d357600080516020615628833981519152546040516001600160a01b039091168152602090f35b346104d35760203660031901126104d3576001600160a01b036117946104bd565b166000526000805160206157088339815191526020526020604060002054604051908152f35b346104d35760003660031901126104d3576117d3614f99565b6117dc81614753565b6001600160401b03825116801561131a5781068103908111610f7a5761077661188c6118878461184861183c6118798761184861183c61187961187361183c611865604061184e60208d019861184861183c8b516001600160401b031690565b6001600160401b031690565b906132e7565b9b019a61184861183c8d516001600160401b031690565b9e516001600160401b031690565b8c612909565b92516001600160401b031690565b612dc9565b604051938493846040919493926060820195825260208201520152565b634e487b7160e01b600052604160045260246000fd5b6001600160401b0381116118d257604052565b6118a9565b604081019081106001600160401b038211176118d257604052565b61010081019081106001600160401b038211176118d257604052565b60a081019081106001600160401b038211176118d257604052565b608081019081106001600160401b038211176118d257604052565b90601f801991011681019081106001600160401b038211176118d257604052565b604051906119728261190e565b565b60405190611972826118d7565b6001600160401b0381116118d257601f01601f191660200190565b346104d35760203660031901126104d3576004356001600160401b0381116104d357366023820112156104d35780600401356119d781611981565b906119e56040519283611944565b80825236602482850101116104d357602081600092602461001b96018386013783010152612f2e565b346104d35760a03660031901126104d357600080516020615628833981519152546001600160a01b0316330361059757611aa4604051611a4d8161190e565b600435611a59816105af565b8152602435611a67816105af565b6020820152604435611a78816105af565b6040820152606435611a89816105af565b6060820152608435611a9a816105af565b6080820152615027565b7f25777eb44be046f64180acf8275f0ac2ec51e63a65a5f8a0f2f6d86ba25b74cf611acd613882565b611ad561388e565b90610b31611ae161389a565b611ae96138a6565b611af16138b2565b91604051958695866137e6565b346104d35760203660031901126104d3576020610bc2600435614aeb565b346104d35760203660031901126104d357611b356104bd565b600080516020615628833981519152546001600160a01b031633036105975761001b9061379b565b346104d35760003660031901126104d357600080516020615488833981519152546040516001600160a01b039091168152602090f35b346104d35760008060031936011261081257604051816000805160206155a88339815191528054611bc38161523b565b80855291600191808316908115611c345750600114611bf9575b61077685611bed81890382611944565b60405191829182610710565b835260208084209095505b828410611c21575050508161077693611bed928201019338611bdd565b8054858501870152928501928101611c04565b90506107769650611bed9450602092508593915060ff191682840152151560051b8201019338611bdd565b346104d35760003660031901126104d357602060008051602061556883398151915254604051908152f35b346104d35760003660031901126104d35760206000805160206154e883398151915254604051908152f35b6020908160408183019282815285518094520193019160005b828110611cdc575050505090565b835160ff1685529381019392810192600101611cce565b346104d3576003196040368201126104d3576001600160401b036004358181116104d357611d25903690600401611560565b6024929192359182116104d35760009283611d9b92611d4b611d8c953690600401611560565b94909760018060a01b03600080516020615468833981519152541695604051998a9889978896637c044e5560e01b8852608060048901526084880191612e45565b92858403016024860152612e45565b6001604483015261ffff606483015203925af180156109645761077691600091611dcd575b5060405191829182611cb5565b611de8913d8091833e611de08183611944565b810190612eab565b38611dc0565b346104d35760003660031901126104d357610776604051611e0e816118d7565b6005815264098e68aa8960db1b60208201526040519182916020835260208301906106eb565b346104d35760003660031901126104d3576000805160206156e8833981519152546040516001600160a01b039091168152602090f35b346104d35760003660031901126104d357611e83612dfc565b506040611e8e6152f1565b60208251918051835201516020820152f35b346104d35760003660031901126104d3576020610bc2611ebe614f99565b614753565b346104d35760403660031901126104d357611edc6104bd565b3360009081526000805160206155c8833981519152602090815260408083206001600160a01b03851684529091529020546024358103908111610f7a576107a091336149db565b346104d35760403660031901126104d357611f3c6104bd565b60243590611f4a8133614856565b8115610fe75781611f5a336153a0565b5410610fd5576001600160a01b03811615611f7d5761077691610f419133614a4b565b604051637617407560e11b815233600482015260006024820152604490fd5b60203660031901126104d35761001b611fb36104bd565b611fbc81614f0c565b614c72565b346104d35760403660031901126104d357604051611fde816118d7565b6004356001600160801b03811681036104d3578152611ffb6105c0565b6020820152600080516020615628833981519152546001600160a01b031633036105975761001b906130c0565b346104d35760003660031901126104d357602060405160308152f35b346104d35760003660031901126104d3576000805160206156a8833981519152546040516001600160a01b039091168152602090f35b346104d35760003660031901126104d357600080516020615428833981519152546040516001600160a01b039091168152602090f35b60003660031901126104d35761001b33614c72565b60003660031901126104d3576000805160206156c8833981519152546001600160a01b0316330361059757005b346104d35760403660031901126104d357602061214e6121106104bd565b6121186104d8565b6001600160a01b0391821660009081526000805160206155c8833981519152855260408082209290931681526020919091522090565b54604051908152f35b346104d35760003660031901126104d357612170612dfc565b50604061217b6150d1565b815190602060018060801b03918281511684520151166020820152f35b60003660031901126104d357600080516020615508833981519152546001600160a01b0316330361059757005b346104d357602060031981813601126104d3576004906001600160401b038235116104d357610120908235360301126104d357600080516020615488833981519152546001600160a01b0316330361278b5761221f614f99565b813582013590612236612232838361478c565b1590565b61276e576122426138be565b9060008051602061552883398151915254604083018181526064863501359180831061274c5750612274905182612def565b91608084019283526000805160206154a88339815191525490606085019382855260448835013592808410612729575060a4883501946122b38661393c565b60008051602061556883398151915254908163ffffffff809216119081156126ec575b5061268e575091612373959391612314896122f661236698965186612def565b9360a08b019485526000805160206154e8833981519152549061480c565b60c0890152612321613dbf565b88526123308151835190612909565b61267a575b505061233f613819565b9687526024883501358988015260408701526060860152608486350135608086015261393c565b63ffffffff1660a0840152565b61238c61238360e4853501613950565b151560c0840152565b6123b0610104843501926123ab6123a285613950565b151560e0830152565b61514c565b6123b86152f1565b936123ca825160c084015190876147f2565b6123d2613dbf565b8383018181528451909791849082116125c657505086516123f4838651612909565b1061258857509160c0916124446124d9946124337f49ac0d2bb2a688ca460f7993eb93eccd3b9c9188da6b0727e9a409cf8b1058759951855190612def565b610120850190815152515190612def565b60e08301525b60e08201519081612546575b505060e081015180612515575b5060e0810151806124fc575b506124c26124b7610120830195865151806124ed575b5061249760c489350189358a0161395a565b92906124af6124a960e48c3501613950565b93613950565b93369161398f565b608489350135614338565b6124ca61411b565b6124d2614626565b015161469a565b5190610b3160405192828493350183613a26565b6124f690613c9c565b38612485565b61250590613bc7565b606061012083015101523861246f565b604061252361253b92614046565b610120840190828251015251015160e0830151612def565b60e082015238612463565b61255261257c92613afa565b6101208401908282510152805161256d838201518251612909565b905251015160e0830151612def565b60e08201523880612456565b8351965160c09094015190516040805163eb7a968960e01b815297880198895260208901959095529387015250506060840152509081900360800190fd5b6125d990612710929301928351906132e7565b046125ec885191610ad987518092614f2e565b1161263c57509160c0916126326124d99461262c7f49ac0d2bb2a688ca460f7993eb93eccd3b9c9188da6b0727e9a409cf8b105875998551905190612def565b90612909565b60e083015261244a565b8351965160c09094015190516040805163063bb83f60e11b815297880198895260208901959095529387015250506060840152509081900360800190fd5b6126879151905190613ebc565b3880612335565b89610fd161269b8961393c565b926126b86000805160206156488339815191525463ffffffff1690565b90604051948594632f776b1760e01b8652850191939290604091606084019563ffffffff8093168552602085015216910152565b90506126f78861393c565b906127206127176000805160206156488339815191525463ffffffff1690565b63ffffffff1690565b911610386122d6565b60408051636f24834360e01b8152808b0192835260208301869052918291010390fd5b60408051621ee1cf60e11b815280890192835260208301859052918291010390fd5b5060405163a225656d60e01b815291820190815281906020010390fd5b60405163472511eb60e11b8152339181019182529081906020010390fd5b346104d35760203660031901126104d3576020610bc2600435614ac8565b346104d35760203660031901126104d35760206127ed6004356127e8614f99565b61478c565b6040519015158152f35b346104d35760203660031901126104d3576128106104bd565b600080516020615628833981519152546001600160a01b039190821633036105975761283b81614f0c565b8060008051602061558883398151915255167f0cc5437d7c9c1d9eab549acbb533eea3e9868e9443dd75309ed5820b33a3774e600080a2005b346104d35760003660031901126104d357602060008051602061568883398151915254604051908152f35b6128a881614f0c565b6128b181614f0c565b6000805160206156288339815191528190556001600160a01b03167f5a272403b402d892977df56625f4164ccaf70ca3863991c43ecfe76a6905b0a1600080a2565b634e487b7160e01b600052601160045260246000fd5b91908201809211610f7a57565b6060916002825260406020830152806040830152806000848401376000828201840152601f01601f1916010190565b6060916000825260406020830152806040830152806000848401376000828201840152601f01601f1916010190565b6060916001825260406020830152806040830152806000848401376000828201840152601f01601f1916010190565b95939791969492976000805160206153e8833981519152805480612b265750612b04999896947fffc0721ef0563a1b0a51a0dc92113025f33ca434ada9ee3eebff2f385d2a8f9a947fbd533e726baaf59b36f3914d950053f7e78f527057c97cd3f0043257fc0fc88494612a21612aff9b999560016020965561289f565b612a2a88614f0c565b876000805160206155888339815191525560018060a01b0395869485938460009b167f0cc5437d7c9c1d9eab549acbb533eea3e9868e9443dd75309ed5820b33a3774e8c80a2612a798161511f565b604051908152a1612a8981614f0c565b8060008051602061550883398151915255167f1da4c245099590dc40be61880c9b97792f3694d970acc1e67ac0e6cc90f3780d8780a2612ac881614f7e565b167f30f015a5d3c72c0a9414538199baa022323a483fa9e4ba2cd581596cf8ca04248580a2612af6816152d6565b169180a26131ca565b61379b565b60008051602061540883398151915260405180612b213682612945565b0390a1565b60449060405190631cfd276760e31b8252600060048301526024820152fd5b97989695969491939092946000805160206153e8833981519152805480600103612d94575060029055612b7789614f0c565b600080516020615468833981519152899055604080516001600160a01b038b168152909a907faf890c07e266df31e0725841eb0e85596a0caa1b17bbae5c0b206fdcc92d7ce190602090a18a5191612bce836118d7565b6001600160801b039182168352166020820152612bea906130c0565b612bf2611965565b6001600160401b03841681526001600160401b03851660208201526001600160401b038616818b01526001600160401b03821660608201526001600160401b0383166080820152612c4290615027565b8851948594612c5194866137e6565b037f25777eb44be046f64180acf8275f0ac2ec51e63a65a5f8a0f2f6d86ba25b74cf91a1612c7d611974565b828152816020820152612c8f90615354565b835191825260208201527f5ab79ffcd89b6380c7fbdd89d02cfe3d9c53c99a85e150c2319075018d1aac5c90604090a1612cc7613819565b7fd7f2d45e512a86049f7a113657b39731b6b558609584243063a52cd31a8eb5285481527ffedfd2c285a57fb23bf45a3fe9ac02d36a76ebb72801b1c8aaf553d74e9d4652546020820152600083820181905260608201819052608082018190527f0f1e7733641e4d843128fea0d2ec90d3d06a40b0fe244ff603d8c1aa200dc0f85463ffffffff1660a083015260c0820181905260e0820152612d6a9061514c565b612d74903061495d565b5180612d803682612974565b0360008051602061540883398151915291a1565b60449060405190631cfd276760e31b8252600160048301526024820152fd5b634e487b7160e01b600052601260045260246000fd5b600019810191908211610f7a57565b6801bc16d674ec7fffff19810191908211610f7a57565b91908203918211610f7a57565b60405190612e09826118d7565b60006020838281520152565b6001600160401b0381116118d25760051b60200190565b63ffffffff8116036104d357565b359061197282612e2c565b91908082526020809201929160005b828110612e62575050505090565b90919293828060019263ffffffff8835612e7b81612e2c565b16815201950193929101612e54565b6040513d6000823e3d90fd5b908160209103126104d3575161072181612e2c565b60209081818403126104d3578051906001600160401b0382116104d357019180601f840112156104d3578251612ee081612e15565b93612eee6040519586611944565b818552838086019260051b8201019283116104d3578301905b828210612f15575050505090565b815160ff811681036104d3578152908301908301612f07565b600080516020615628833981519152549091906001600160a01b03163303610597578151156130ae578151916001600160401b0383116118d2576000805160206155a883398151915292612f8b81612f86865461523b565b615275565b602080601f8311600114612ff657509381612b2193927f8d2df192dd17edf92a7964b78aa322f3d717b2ab9de00651bee32bbc4c5da63a9596600091612feb575b508160011b916000199060031b1c191617905560405191829182610710565b905083015138612fcc565b6000805160206155a883398151915260005290601f1983167f992d979edf4f3c53d0b672011f4c4543809e6b0ed7af1d628abb72f3026d823f926000905b828210613096575050927f8d2df192dd17edf92a7964b78aa322f3d717b2ab9de00651bee32bbc4c5da63a95969260019282612b2197961061307d575b5050811b019055611bed565b85015160001960f88460031b161c191690553880613071565b80600185968294968a01518155019501930190613034565b604051638d46fe0560e01b8152600490fd5b60407e4180017d3dd609da6980999655a6bd2591e313d31d6230b1889c369a9713a09160018060801b0360208183511692015160018060801b03198160801b1683177fc305db9f63aeed94a45229ff5ab4174e72b223a38ab4c5e8f518ee4f437918d0558351928352166020820152a1565b600080516020615668833981519152805460408051918252602082018490527f48f67c1dada0cab2163f6282292ad97ea97376cfed46bb3851654aaa630db7279190819081015b0390a155565b600080516020615688833981519152805460408051918252602082018490527f86fd21e9b5bd76b20471c7f93a82aa4e25c37d48b179bda0a4d1a45e22a842f4919081908101613179565b6131d381614f0c565b7f35efb61d8784060218d9d6aa40eae55904de43779c1afc79c74dfefcfdf9125f819055604051906001600160a01b03167e043cf7635f276413ae358250286a479a631abd9d74d57d4aa0bb87ebc7d117600080a2811561326d57506020817f4c86ba184ea1a1558f84835ca34f6d67e222e8ee5cc4f324b8861dda4cf1740c926000805160206154c883398151915255604051908152a1565b63a9cb9e0d60e01b8152600490fd5b811561131a570490565b805182101561329a5760209160051b010190565b634e487b7160e01b600052603260045260246000fd5b906801bc16d674ec8000009180830292830403610f7a57565b906801bc16d674ec80000091828102928184041490151715610f7a57565b81810292918115918404141715610f7a57565b9080601f830112156104d35781519161331283612e15565b9260409061332282519586611944565b808552602093848087019260051b850101938185116104d357858101925b858410613351575050505050505090565b83516001600160401b0381116104d35782019083603f830112156104d357878201519061337d82611981565b61338988519182611944565b828152858884860101116104d3576133aa8a949385948a86850191016106c8565b815201930192613340565b6000805160206156e88339815191525460405163277c9d4560e01b81526004810192909252600092919083908290602490829084906001600160a01b03165af1928315610964578091819461340b575b50509190565b92915092503d8084843e61341f8184611944565b82016040838203126117035782516001600160401b039081811161346b57826134499186016132fa565b93602081015191821161346b5761346393949550016132fa565b913880613405565b8580fd5b90613482602092828151948592016106c8565b0190565b906119726030604051846134a48296518092602080860191016106c8565b810160006020820152036010810185520183611944565b9061197260408051846134d88296518092602080860191016106c8565b810160006020820152036020810185520183611944565b9060405191634059730760d81b6020840152604083015260408252606082018281106001600160401b038211176118d257604052565b9190604051926020840152604083015260408252606082018281106001600160401b038211176118d257604052565b94939261358060609361357261358e9460808a5260808a01906106eb565b9088820360208a01526106eb565b9086820360408801526106eb565b930152565b90916030825103613789576060835103613777576135b082613486565b6040938451918260208092826135c9600097889361346f565b03600293845afa1561096457835182856135f06135e587614e6d565b8b519182809261346f565b0390855afa15610964578451838661361d61361261360d89614ec6565b6134bb565b8c519182809261346f565b0390865afa1561096457856136386135e58693835190613525565b0390855afa156109645782856136536135e589835195613525565b0390855afa1561096457828561366d6135e58251946134ef565b0390855afa156109645782916136946136898793845190613525565b8a519182809261346f565b03915afa15610964578251936136a947612dd8565b7f35efb61d8784060218d9d6aa40eae55904de43779c1afc79c74dfefcfdf9125f54909690613706906136e4906001600160a01b0316610852565b936136f88a51948592830160209181520190565b03601f198101845283611944565b823b15613773576801bc16d674ec800000906137378951978896879586946304512a2360e31b865260048601613554565b03925af1801561096457613760575b5047036137505750565b51638051a6bb60e01b8152600490fd5b8061097661376d926118bf565b38613746565b8480fd5b60405163408ebd3960e01b8152600490fd5b60405163050cb55360e41b8152600490fd5b6137a481614f0c565b6000805160206154888339815191528190556001600160a01b03167fd3b5d1e0ffaeff528910f3663f0adace7694ab8241d58e17a91351ced2e08031600080a2565b6001600160401b039182168152918116602083015291821660408201529181166060830152909116608082015260a00190565b60405190613826826118f2565b8160e06000918281528260208201528260408201528260608201528260808201528260a08201528260c08201520152565b604051906138648261190e565b60006080838281528260208201528260408201528260608201520152565b600435610721816105af565b602435610721816105af565b604435610721816105af565b606435610721816105af565b608435610721816105af565b6040519061014082018281106001600160401b038211176118d257604052816101206000918281528260208201528260408201528260608201528260808201528260a08201528260c08201528260e0820152826101008201526040519261392484611929565b80845280602085015280604085015260608401520152565b3561072181612e2c565b801515036104d357565b3561072181613946565b903590601e19813603018212156104d357018035906001600160401b0382116104d357602001918160051b360383136104d357565b929161399a82612e15565b916139a86040519384611944565b829481845260208094019160051b81019283116104d357905b8282106139ce5750505050565b83809183356139dc81612e2c565b8152019101906139c1565b9035601e19823603018112156104d35701602081359101916001600160401b0382116104d3578160051b360383136104d357565b359061197282613946565b929160206119729260a08652803560a08701528181013560c0870152604081013560e0870152613ad4613aca6101006060840135818a0152613aaa6101206080860135818c0152613a8a613a7c60a08801612e3a565b63ffffffff166101408d0152565b613a9760c08701876139e7565b90916101608d01526101c08c0191612e45565b93613ac4613aba60e08301613a1b565b15156101808c0152565b01613a1b565b15156101a0880152565b940190606080918051845260208101516020850152604081015160408501520151910152565b6000805160206155088339815191525447916001600160a01b0390911690813b156104d35760009160248392604051948593849263c8a6dfd360e01b845260048401525af1801561096457613bb8575b50479080820391808311610f7a5703613b92575b6040518181527fda841d3042d792e2509a333b9dcbd4b3dd9b9047d382011f8788fab90ca7e3c79080602081015b0390a190565b613bb3613bae8260008051602061566883398151915254612909565b613132565b613b5e565b613bc1906118bf565b38613b4a565b6000805160206156c8833981519152546001600160a01b03168015613c95574790803b156104d357604051638ede6b6b60e01b815260048101939093526000908390602490829084905af191821561096457613c2992613c82575b5047612def565b80613c61575b6040518181527fd500b67e5bd8019c0af744cadeec120d1b5e3d3a3a011f18cf182aa4c97947b6908060208101613b8c565b613c7d613bae8260008051602061566883398151915254612909565b613c2f565b80610976613c8f926118bf565b38613c22565b5050600090565b6000805160206154488339815191529081548015613dad57613cbc613dbf565b9260008051602061560883398151915254613ce081613cdb85876132e7565b6132e7565b90612710808702908782041487151715610f7a57610ad9613d0192876132e7565b80613d9e5750506000905b81613d19575b5050505050565b7f3d1669e813a9845c288f0e1f642a4343a451103b87886d12de37e63b39bbd94293613d64613d9192613d5c600080516020615588833981519152549586614b1d565b549187612def565b9560405194859460018060a01b031697859094939260609260808301968352602083015260408201520152565b0390a23880808080613d12565b613da79161327c565b90613d0c565b604051630d35acd760e21b8152600490fd5b63ffffffff600080516020615648833981519152541660008051602061556883398151915254808210600014613e5f5761262c613e5a61072193613e54613e3e613e286000805160206153c8833981519152546000805160206156688339815191525490612909565b6000805160206156888339815191525490612909565b6000805160206155488339815191525490612909565b93612def565b6132c9565b50506000805160206153c883398151915254600080516020615668833981519152548101809111610f7a57600080516020615688833981519152548101809111610f7a576000805160206155488339815191525461072191612909565b919047613ec98285612909565b6000805160206154c883398151915254909190613eee906001600160a01b0316610852565b803b156104d35760405163ea74f47960e01b815260048101939093526000908390602490829084905af191821561096457613f2e92613c82575047612def565b92613f398282612909565b8403613fcf577fcb5410dc8f29b2f498e023c3f9237dbd600255a717edf94a6072bcd03b0c773c92935080613fae575b81613f88575b6040805191825260208201929092529081908101612b21565b613fa9613fa48360008051602061554883398151915254612909565b613ffb565b613f6f565b613fca613bae8260008051602061566883398151915254612909565b613f69565b613fd99250612909565b6040516349a1938b60e01b815260048101919091526024810191909152604490fd5b600080516020615548833981519152805460408051918252602082018490527f215c2b83e8c232e42091088056ab75d2ff643855c32997024f786cddb22d2290919081908101613179565b6000805160206154688339815191525447916001600160a01b0390911690813b156104d357600091602483926040519485938492630c77940160e01b845260048401525af18015610964576140fd575b50479080820391808311610f7a57036140dc575b6040518181527f4e484734eb4d444bfa106f917d05d9ceb8ce18bf516c85d7aeb9b322925339f9908060208101613b8c565b6140f8613bae8260008051602061566883398151915254612909565b6140aa565b614106906118bf565b38614096565b908160209103126104d3575190565b600080516020615468833981519152546001600160a01b031661413c613dbf565b6000805160206154488339815191525490151590816142c6575b5061415e5750565b6040516303634a9560e21b8152906001600160a01b0316602082600481845afa91821561096457600092614296575b508161419883614ac8565b92600080516020615548833981519152549081851161425e575b604080519182526020820184905281018590527f709263092d8d9fef472d907900405b5edae3d76f8ff4354858025b18424d710190606090a1836141f7575b50505050565b613fa48461420492612def565b61420e8183614b9a565b813b156104d35760405163b30d8bb760e01b815260048101919091529160009183916024918391905af180156109645761424b575b8080806141f1565b80610976614258926118bf565b38614243565b9150809350927f709263092d8d9fef472d907900405b5edae3d76f8ff4354858025b18424d710161428e82614aeb565b9290506141b2565b6142b891925060203d81116142bf575b6142b08183611944565b81019061410c565b903861418d565b503d6142a6565b9050151538614156565b92919060408401604085528151809152606085019060208093019060005b848282106142ff5750505050930152565b835163ffffffff16855293840193909201916001016142ee565b91908260409103126104d3576020825161433281612e2c565b92015190565b6000805160206156e8833981519152805492959490939092614362906001600160a01b0316610852565b9360008051602061556883398151915293845495803b156104d3576143a5966040998a5192838092632d01785d60e21b82528160009c8d968793600484016142d0565b03925af1801561096457614613575b506143ce57600080516020615448833981519152546143d7575b50505050509050565b6000805160206155488339815191525490600080516020615668833981519152546004602061441d6108526000805160206154688339815191525460018060a01b031690565b8b516303634a9560e21b815292839182905afa8015610964576144479189916145f5575b50614ac8565b93846144538786612909565b10614461575b5050506143ce565b806145ec575b61459b575b5054614480906001600160a01b0316610852565b928751634a3c63bb60e01b81528881600481885afa9081156109645787908892614567575b5063ffffffff16908181111561455c576144c291613e5a91612def565b91836144d7846144d28585612909565b612909565b106144e3575b80614459565b6144f8926144d26144fd9593610ad993612909565b614f4b565b915491813b15611703579451632d1fc39d60e01b8152600481019590955260248501919091529192918290604490829084905af1801561096457614549575b80808080808087966144dd565b80610976614556926118bf565b3861453c565b50506144c2866132c9565b63ffffffff925061458e91508a3d8c11614594575b6145868183611944565b810190614319565b916144a5565b503d61457c565b6145b76145b1846145ac8888612def565b612def565b82614f2e565b806145c3575b5061446c565b916145e6613bae846145dc614480966108529698612909565b966145ac88613ffb565b916145bd565b50801515614467565b61460d915060203d81116142bf576142b08183611944565b38614441565b80610976614620926118bf565b386143b4565b60008051602061554883398151915280549081614641575050565b60008051602061566883398151915254918201809211610f7a57614666600092613132565b7f215c2b83e8c232e42091088056ab75d2ff643855c32997024f786cddb22d2290604082548151908152846020820152a155565b6146a2613dbf565b9060008051602061566883398151915254916146bc6150d1565b9160018060801b0360208185511694015116848303928311610f7a576201518061470961470f93613cdb614715976127106147026801bc16d674ec800000998c986132e7565b0490614f3f565b04614f2e565b046132c9565b8061471e575050565b60008051602061568883398151915254818101809111610f7a576147419061317f565b8103908111610f7a5761197290613132565b6001600160401b039081606082015116420391428311610f7a578060408301511691821561131a57602001511691821561131a57040490565b9061479682614753565b6001600160401b039081608085015116830190818411610f7a57101592836147d9575b836147c5575b50505090565b51169150811561131a5706153880806147bf565b6000805160206154e883398151915254831193506147b9565b91613cdb6148089264496cebb8009451906132e7565b0490565b908203918211610f7a576001600160401b0390816020816040840151169201511602908116908103610f7a57610721916132e7565b908160209103126104d3575161072181613946565b6000805160206156a883398151915254614878906001600160a01b0316610852565b60405163e838dfbb60e01b8082526001600160a01b038416600483015260209390918481602481875afa90811561096457600091614940575b506148f057506040519081526001600160a01b0384166004820152908290829060249082905afa91821561096457600092614913575b50506148f05750565b60405163e7d05e2760e01b81526001600160a01b03919091166004820152602490fd5b6149329250803d10614939575b61492a8183611944565b810190614841565b38806148e7565b503d614920565b6149579150853d87116149395761492a8183611944565b386148b1565b61496681614f0c565b61496f82614f0c565b6001600160a01b0390811660008181526000805160206155c883398151915260209081526040808320868616845282529091206000199492937f8c5be1e5ebec7d5bd14f71427d1e84f3dd0314c0f7b2291e5b200ac8c7c3b92593909186905b556040519586521693a3565b60207f8c5be1e5ebec7d5bd14f71427d1e84f3dd0314c0f7b2291e5b200ac8c7c3b92591614a0881614f0c565b614a1184614f0c565b6001600160a01b0390811660008181526000805160206155c8833981519152845260408082208785168352602052902090949086906149cf565b9160018060a01b038093169160009383855260008051602061570883398151915290816020526040862054848103908111610f7a5760409286885260205282872055821694858152205491808301809311610f7a576000805160206155e883398151915292614abb6020936153a0565b55604051908152a3600190565b60008051602061544883398151915254908115613c955761480890611848613dbf565b600080516020615448833981519152548015613c9557614b0a916132e7565b614b12613dbf565b90811561131a570490565b60008051602061544883398151915254828101809111610f7a57614b4090614c19565b60018060a01b031690816000526000805160206157088339815191528060205260406000205490828201809211610f7a576000926000805160206155e88339815191529260209286865283526040852055604051908152a3565b60008051602061544883398151915254828103908111610f7a57614bbd90614c19565b6001600160a01b03166000818152600080516020615708833981519152602081905260409091205483810391908211610f7a576000936000805160206155e88339815191529260209285875283526040862055604051908152a3565b60207fc80ea35a3f9016535e5b7c87746740c5045afe42188d02c5786eb97495c2f429918060008051602061544883398151915255604051908152a1565b61197233614c72565b60405163574b16a760e11b8152600490fd5b3415614e0f5760008051602061566883398151915254348101809111610f7a57614c9b90613132565b614ca53433614e21565b6000805160206156a8833981519152546001600160a01b03166001600160a01b0383811693909290338503614d5557505016803b156104d357604051632d20488160e11b81523360048201526001602482015290600090829060449082905afa801561096457614d42575b505b60405134815233907f3bc57f469ad6d10d7723ea226cd22bd2b9e527def2b529f6ab44645a1668958290602090a3565b80610976614d4f926118bf565b38614d10565b9192909216803b156104d357604051632d20488160e11b815233600482015260016024820152600081604481855afa801561096457614dfc575b5060405163e838dfbb60e01b81526001600160a01b038316600482015290602090829060249082905afa90811561096457600091614dde575b506148f05790614dd89133614a4b565b50614d12565b614df6915060203d81116149395761492a8183611944565b38614dc8565b80610976614e09926118bf565b38614d8f565b6040516395b66fe960e01b8152600490fd5b9190614e2b613dbf565b81810390808211610f7a578203614e485750806119729193614b1d565b614e656119729260008051602061544883398151915254906132e7565b048093614b1d565b6040815110614eb45760405190602080830191810190606084015b808410614ea35750505060408252601f801991011660405290565b825184529281019291810191614e88565b604051633b99b53d60e01b8152600490fd5b6060815110614eb457604051906020808301916060604085019101905b808410614efb5750508252601f01601f191660405290565b815184529282019290820190614ee3565b6001600160a01b031615614f1c57565b60405163f6b2911f60e01b8152600490fd5b81811115614f3a575090565b905090565b81811015614f3a575090565b6801bc16d674ec80000080820491600091900615614f76575060ff60015b168101809111610f7a5790565b60ff90614f69565b614f8781614f0c565b6000805160206156a883398151915255565b614fa1613857565b50604051614fae8161190e565b7fd84ee2c84c954c65bef1459fe03b761a42f49234527e3cd8fd9dce87cb83742a546001600160401b03908181168352818160401c166020840152818160801c16604084015260c01c60608301527fd84ee2c84c954c65bef1459fe03b761a42f49234527e3cd8fd9dce87cb83742b5416608082015290565b60806001600160401b0391828151166020820151906040830151906001600160401b0360c01b606085015160c01b16926001600160401b0360401b9060401b1617906001600160401b03851b90851b1617177fd84ee2c84c954c65bef1459fe03b761a42f49234527e3cd8fd9dce87cb83742a550151167fd84ee2c84c954c65bef1459fe03b761a42f49234527e3cd8fd9dce87cb83742b906001600160401b0319825416179055565b6150d9612dfc565b506040516150e6816118d7565b7fc305db9f63aeed94a45229ff5ab4174e72b223a38ab4c5e8f518ee4f437918d0546001600160801b038116825260801c602082015290565b612710811161513a5760008051602061560883398151915255565b6040516358d620b360e01b8152600490fd5b61521060e06119729280516000805160206154e88339815191525560208101516000805160206153c88339815191525560408101516000805160206154a88339815191525560608101516000805160206155288339815191525560808101517fdbc0527c99b54cd325d6ce9eaae3a8413cd447b5205f37385f0ebc6551033c705563ffffffff60a0820151166000805160206156488339815191529081549064ff0000000060c0850151151560201b169164ffffffffff1916171790550151151590565b6000805160206156488339815191529060ff60281b825491151560281b169060ff60281b1916179055565b90600182811c9216801561526b575b602083101461525557565b634e487b7160e01b600052602260045260246000fd5b91607f169161524a565b601f8111615281575050565b6000906000805160206155a8833981519152825260208220906020601f850160051c830194106152cc575b601f0160051c01915b8281106152c157505050565b8181556001016152b5565b90925082906152ac565b6152df81614f0c565b6000805160206156e883398151915255565b6152f9612dfc565b50604051615306816118d7565b7ff81b149de6749a3f46464b2cce61e24462f67599ea4a5ce028aaf4ab1521f96d5481527ff81b149de6749a3f46464b2cce61e24462f67599ea4a5ce028aaf4ab1521f96e54602082015290565b80517ff81b149de6749a3f46464b2cce61e24462f67599ea4a5ce028aaf4ab1521f96d55602001517ff81b149de6749a3f46464b2cce61e24462f67599ea4a5ce028aaf4ab1521f96e55565b6001600160a01b03166000908152600080516020615708833981519152602052604090209056fedbc0527c99b54cd325d6ce9eaae3a8413cd447b5205f37385f0ebc6551033c6d82055909238c0f5e63d6f174068ebb8f51bcec9bd37de63bb68f6551feec0cfc1809e49bba43f2d39fa57894b50cd6ccb428cc438230e065cac3eb24a1355a716e6ab8b7c7aaba79eef8cc633522d606bb008c101cf9832c9ad05d10a98472806b842b424335d94ccad97e54548dfa02673c1268aba38d3c3c32d28c8988b70ae458cbedf69109e7d57b7f8c96816615aac0017187d87abab9001d22db32bae3c8cbea9407c380ae944f052b5a442330057683c5abdbd453493f9750806afecadbc0527c99b54cd325d6ce9eaae3a8413cd447b5205f37385f0ebc6551033c6eb649e50315f962b32d487e696a81b4828631b11f8424daaaa37e9e97766a2c41dbc0527c99b54cd325d6ce9eaae3a8413cd447b5205f37385f0ebc6551033c6c8e9e2a1d30fed357d8a000c1131fc77ed65d2052918caf1ccc6eb1e7af3d13b5dbc0527c99b54cd325d6ce9eaae3a8413cd447b5205f37385f0ebc6551033c6f850308dd4e453a2a1bc3efb444560401d95c1a8bdea5b35c5c79531cd2241f1cc77078e3530c08cdb2440817c81de4836500b4708ea4d15672b7fe98956423a7082b6d18de7b10e438e6b1002141db737519cb4ceed679bc815e3aac00cd2226b63f3482ec84cb93d74a71645ad2e9e896fa02723e42170b4aad20a4bed6cdd5c852254d5b703a16bb13b3e233a335d6459c5da5db0ca732d7a684ee05407846ddf252ad1be2c89b69c2b068fc378daa952ba7f163c4a11628f55a4df523b3ef094efef62d2ce60c14ffacd35a1b50546d3a9d503aff1df040176fffd6c92a36b5b37715a3e346e996104f0086703f19825def429233930fd9399c38e05fb112dbc0527c99b54cd325d6ce9eaae3a8413cd447b5205f37385f0ebc6551033c712b6136e423ab70d76431e2a635e877e16ea2dd9a895e054ad7f35f89d6c7b710bcfa5a69252c74010ad3e9ab18cfbdc116fcf85f084db1a8dc577a339fbee58a867d8f1a5e39d11d5bebde854d5359a509530ad32450f581da63c06ec8d1a77ff4271262f3552a4108cde54dc75061de8de495709221d793b126e448522d6a7f3f075dea7ef99b1e5db245018e5e4ed8d2a0d93953f5932b2176bef59bd690600fb4a5ac9287f4f508aa7253ee2d57c6a228b1b30e210d73fffd59389d3a8837a2646970667358221220af59c96552d947b8f097c3639e7680d3cd797ea2c56f89a9ec05f2cc227dba3564736f6c63430008140033",
  "devdoc": {
    "author": "Kiln",
    "errors": {
      "AllowanceTooLow(address,address,uint256,uint256)": [
        {
          "params": {
            "_allowance": "Current allowance",
            "_from": "Account where funds are sent from",
            "_operator": "Account attempting the transfer",
            "_value": "Requested transfer value in shares"
          }
        }
      ],
      "Denied(address)": [
        {
          "params": {
            "account": "The account that was denied"
          }
        }
      ],
      "InvalidDecreasingValidatorsExitedBalance(uint256,uint256)": [
        {
          "params": {
            "currentValidatorsExitedBalance": "The current exited balance",
            "newValidatorsExitedBalance": "The new exited balance"
          }
        }
      ],
      "InvalidDecreasingValidatorsSkimmedBalance(uint256,uint256)": [
        {
          "params": {
            "currentValidatorsSkimmedBalance": "The current exited balance",
            "newValidatorsSkimmedBalance": "The new exited balance"
          }
        }
      ],
      "InvalidEpoch(uint256)": [
        {
          "params": {
            "epoch": "Invalid epoch"
          }
        }
      ],
      "InvalidInitialization(uint256,uint256)": [
        {
          "params": {
            "expectedVersion": "The version that was expected",
            "version": "The version that was attempting to be initialized"
          }
        }
      ],
      "InvalidPulledClFundsAmount(uint256,uint256)": [
        {
          "params": {
            "received": "The amount that was received",
            "requested": "The amount that was requested"
          }
        }
      ],
      "InvalidValidatorCountReport(uint256,uint256,uint256)": [
        {
          "params": {
            "depositedValidatorCount": "The number of deposits performed by the system",
            "lastReportedValidatorCount": "The last reported validator count",
            "providedValidatorCount": "The received validator count value"
          }
        }
      ],
      "TotalValidatorBalanceDecreaseOutOfBound(uint256,uint256,uint256,uint256)": [
        {
          "params": {
            "postTotalEthIncludingExited": "The post-report total balance, including all exited balance",
            "prevTotalEthIncludingExited": "The previous total balance, including all exited balance",
            "relativeLowerBound": "The lower bound value that was used",
            "timeElapsed": "The time in seconds since last report"
          }
        }
      ],
      "TotalValidatorBalanceIncreaseOutOfBound(uint256,uint256,uint256,uint256)": [
        {
          "params": {
            "annualAprUpperBound": "The upper bound value that was used",
            "postTotalEthIncludingExited": "The post-report total balance, including all exited balance",
            "prevTotalEthIncludingExited": "The previous total balance, including all exited balance",
            "timeElapsed": "The time in seconds since last report"
          }
        }
      ],
      "Unauthorized(address)": [
        {
          "params": {
            "caller": "Address performing the call"
          }
        }
      ],
      "UnauthorizedTransfer(address,address)": [
        {
          "params": {
            "_from": "Account sending the funds in the invalid transfer",
            "_to": "Account receiving the funds in the invalid transfer"
          }
        }
      ]
    },
    "events": {
      "Approval(address,address,uint256)": {
        "details": "Emitted when the allowance of a `spender` for an `owner` is set by a call to {approve}. `value` is the new allowance."
      },
      "ConsensusLayerDataUpdate(uint256,uint256,bytes32)": {
        "params": {
          "roundId": "Round identifier",
          "validatorCount": "The new count of validators running on the consensus layer",
          "validatorTotalBalance": "The new total balance sum of all validators"
        }
      },
      "Initialize(uint256,bytes)": {
        "params": {
          "cdata": "Complete calldata that was used during the initialization",
          "version": "New version of the contracts"
        }
      },
      "ProcessedConsensusLayerReport((uint256,uint256,uint256,uint256,uint256,uint32,uint32[],bool,bool),(uint256,uint256,uint256,uint256))": {
        "params": {
          "report": "The report that was provided",
          "trace": "The trace structure providing more insights on internals"
        }
      },
      "PulledCLFunds(uint256,uint256)": {
        "params": {
          "pullExitedEthAmount": "The amount of exited ETH pulled",
          "pulledSkimmedEthAmount": "The amount of skimmed ETH pulled"
        }
      },
      "PulledCoverageFunds(uint256)": {
        "params": {
          "amount": "The amount pulled"
        }
      },
      "PulledELFees(uint256)": {
        "params": {
          "amount": "The amount pulled"
        }
      },
      "PulledRedeemManagerExceedingEth(uint256)": {
        "params": {
          "amount": "The amount pulled"
        }
      },
      "ReportedRedeemManager(uint256,uint256,uint256)": {
        "params": {
          "redeemManagerDemand": "The total demand in LsETH of the redeem manager",
          "suppliedRedeemManagerDemand": "The amount of LsETH demand actually supplied",
          "suppliedRedeemManagerDemandInEth": "The amount in ETH of the supplied demand"
        }
      },
      "RewardsEarned(address,uint256,uint256,uint256,uint256)": {
        "params": {
          "_collector": "The address of the collector during this event",
          "_newTotalSupply": "New total supply in shares",
          "_newTotalUnderlyingBalance": "New total ETH balance under management by River",
          "_oldTotalSupply": "Old total supply in shares",
          "_oldTotalUnderlyingBalance": "Old total ETH balance under management by River"
        }
      },
      "SetAdmin(address)": {
        "params": {
          "admin": "New admin address"
        }
      },
      "SetAllowlist(address)": {
        "params": {
          "allowlist": "The new Allowlist"
        }
      },
      "SetBalanceCommittedToDeposit(uint256,uint256)": {
        "params": {
          "newAmount": "The new balance committed to deposit",
          "oldAmount": "The old balance committed to deposit"
        }
      },
      "SetBalanceToDeposit(uint256,uint256)": {
        "params": {
          "newAmount": "The new balance to deposit",
          "oldAmount": "The old balance to deposit"
        }
      },
      "SetBalanceToRedeem(uint256,uint256)": {
        "params": {
          "newAmount": "The new balance to redeem",
          "oldAmount": "The old balance to redeem"
        }
      },
      "SetBounds(uint256,uint256)": {
        "params": {
          "annualAprUpperBound": "The reporting upper bound",
          "relativeLowerBound": "The reporting lower bound"
        }
      },
      "SetCollector(address)": {
        "params": {
          "collector": "The new Collector"
        }
      },
      "SetCoverageFund(address)": {
        "params": {
          "coverageFund": "The new Coverage Fund"
        }
      },
      "SetDepositContractAddress(address)": {
        "params": {
          "depositContract": "Address of the deposit contract"
        }
      },
      "SetDepositedValidatorCount(uint256,uint256)": {
        "params": {
          "newDepositedValidatorCount": "The new deposited validator count value",
          "oldDepositedValidatorCount": "The old deposited validator count value"
        }
      },
      "SetELFeeRecipient(address)": {
        "params": {
          "elFeeRecipient": "The new Execution Layer Fee Recipient"
        }
      },
      "SetGlobalFee(uint256)": {
        "params": {
          "fee": "The new Global Fee"
        }
      },
      "SetMaxDailyCommittableAmounts(uint256,uint256)": {
        "params": {
          "maxRelativeAmount": "The maximum amount that can be used as the daily committable amount, relative to the total underlying supply",
          "minNetAmount": "The minimum amount that must be used as the daily committable amount"
        }
      },
      "SetMetadataURI(string)": {
        "params": {
          "metadataURI": "The new Metadata URI string"
        }
      },
      "SetOperatorsRegistry(address)": {
        "params": {
          "operatorRegistry": "The new Operators Registry"
        }
      },
      "SetOracle(address)": {
        "params": {
          "oracleAddress": "The new oracle address"
        }
      },
      "SetPendingAdmin(address)": {
        "params": {
          "pendingAdmin": "New pending admin address"
        }
      },
      "SetRedeemManager(address)": {
        "params": {
          "redeemManager": "The address of the redeem manager"
        }
      },
      "SetSpec(uint64,uint64,uint64,uint64,uint64)": {
        "params": {
          "epochsPerFrame": "The number of epochs inside a frame",
          "epochsToAssumedFinality": "The number of epochs before an epoch is considered final",
          "genesisTime": "The genesis timestamp",
          "secondsPerSlot": "The number of seconds inside a slot",
          "slotsPerEpoch": "The number of slots inside an epoch"
        }
      },
      "SetWithdrawalCredentials(bytes32)": {
        "params": {
          "withdrawalCredentials": "The withdrawal credentials to use for deposits"
        }
      },
      "Transfer(address,address,uint256)": {
        "details": "Emitted when `value` tokens are moved from one account (`from`) to another (`to`). Note that `value` may be zero."
      },
      "UserDeposit(address,address,uint256)": {
        "params": {
          "amount": "Amount in ETH deposited",
          "depositor": "Address performing the deposit",
          "recipient": "Address receiving the minted shares"
        }
      }
    },
    "kind": "dev",
    "methods": {
      "acceptAdmin()": {
        "details": "Only callable by the pending admin. Resets the pending admin if succesful."
      },
      "allowance(address,address)": {
        "params": {
          "_owner": "Address that issued the allowance",
          "_spender": "Address that received the allowance"
        },
        "returns": {
          "_0": "The allowance in shares for a given spender"
        }
      },
      "approve(address,uint256)": {
        "details": "An approved account can use transferFrom to transfer funds on behalf of the token owner",
        "params": {
          "_spender": "Address that is allowed to spend the tokens",
          "_value": "The allowed amount in shares, will override previous value"
        },
        "returns": {
          "_0": "True if success"
        }
      },
      "balanceOf(address)": {
        "params": {
          "_owner": "Address to be checked"
        },
        "returns": {
          "_0": "The balance of the account in shares"
        }
      },
      "balanceOfUnderlying(address)": {
        "params": {
          "_owner": "Address to be checked"
        },
        "returns": {
          "_0": "The underlying balance of the account"
        }
      },
      "claimRedeemRequests(uint32[],uint32[])": {
        "params": {
          "_redeemRequestIds": "The list of redeem requests to claim",
          "_withdrawalEventIds": "The list of resolved withdrawal event ids"
        },
        "returns": {
          "claimStatuses": "The operation status results"
        }
      },
      "decimals()": {
        "returns": {
          "_0": "The decimal count"
        }
      },
      "decreaseAllowance(address,uint256)": {
        "params": {
          "_spender": "Spender that receives the allowance",
          "_subtractableValue": "Amount of shares to subtract"
        },
        "returns": {
          "_0": "True if success"
        }
      },
      "depositAndTransfer(address)": {
        "params": {
          "_recipient": "Address receiving the minted LsETH"
        }
      },
      "depositToConsensusLayer(uint256)": {
        "params": {
          "_maxCount": "The maximum amount of validator keys to fund"
        }
      },
      "getAdmin()": {
        "returns": {
          "_0": "The admin address"
        }
      },
      "getAllowlist()": {
        "returns": {
          "_0": "The allowlist address"
        }
      },
      "getBalanceToDeposit()": {
        "returns": {
          "_0": "The amount of ETH not yet committed for deposit"
        }
      },
      "getBalanceToRedeem()": {
        "returns": {
          "_0": "The current balance to redeem"
        }
      },
      "getCLSpec()": {
        "returns": {
          "_0": "The Consensus Layer Specification"
        }
      },
      "getCLValidatorCount()": {
        "returns": {
          "_0": "The CL validator count"
        }
      },
      "getCLValidatorTotalBalance()": {
        "returns": {
          "_0": "The CL Validator total balance"
        }
      },
      "getCollector()": {
        "returns": {
          "_0": "The collector address"
        }
      },
      "getCommittedBalance()": {
        "returns": {
          "_0": "The amount of ETH committed for deposit"
        }
      },
      "getCoverageFund()": {
        "returns": {
          "_0": "The coverage fund address"
        }
      },
      "getCurrentEpochId()": {
        "returns": {
          "_0": "The current epoch id"
        }
      },
      "getCurrentFrame()": {
        "returns": {
          "_endTime": "The timestamp of the end of the frame in seconds",
          "_startEpochId": "The epoch at the beginning of the frame",
          "_startTime": "The timestamp of the beginning of the frame in seconds"
        }
      },
      "getDailyCommittableLimits()": {
        "returns": {
          "_0": "The daily committable limits structure"
        }
      },
      "getDepositedValidatorCount()": {
        "returns": {
          "_0": "The deposited validator count"
        }
      },
      "getELFeeRecipient()": {
        "returns": {
          "_0": "The execution layer fee recipient address"
        }
      },
      "getExpectedEpochId()": {
        "returns": {
          "_0": "The current expected epoch id"
        }
      },
      "getFrameFirstEpochId(uint256)": {
        "params": {
          "_epochId": "Epoch id used to get the frame"
        },
        "returns": {
          "_0": "The first epoch id of the frame containing the given epoch id"
        }
      },
      "getGlobalFee()": {
        "returns": {
          "_0": "The global fee"
        }
      },
      "getLastCompletedEpochId()": {
        "returns": {
          "_0": "The last completed epoch id"
        }
      },
      "getLastConsensusLayerReport()": {
        "returns": {
          "_0": "The stored consensus layer report"
        }
      },
      "getMetadataURI()": {
        "returns": {
          "_0": "The metadata uri string value"
        }
      },
      "getOperatorsRegistry()": {
        "returns": {
          "_0": "The operators registry address"
        }
      },
      "getOracle()": {
        "returns": {
          "_0": "The oracle address"
        }
      },
      "getPendingAdmin()": {
        "returns": {
          "_0": "The pending admin address"
        }
      },
      "getRedeemManager()": {
        "returns": {
          "_0": "The redeem manager address"
        }
      },
      "getReportBounds()": {
        "returns": {
          "_0": "The report bounds"
        }
      },
      "getTime()": {
        "returns": {
          "_0": "The current timestamp from the EVM context"
        }
      },
      "getWithdrawalCredentials()": {
        "returns": {
          "_0": "The withdrawal credentials"
        }
      },
      "increaseAllowance(address,uint256)": {
        "params": {
          "_additionalValue": "Amount of shares to add",
          "_spender": "Spender that receives the allowance"
        },
        "returns": {
          "_0": "True if success"
        }
      },
      "initRiverV1(address,address,bytes32,address,address,address,address,address,uint256)": {
        "params": {
          "_allowlistAddress": "Address of the allowlist contract",
          "_collectorAddress": "Address receiving the the global fee on revenue",
          "_depositContractAddress": "Address to make Consensus Layer deposits",
          "_elFeeRecipientAddress": "Address that receives the execution layer fees",
          "_globalFee": "Amount retained when the ETH balance increases and sent to the collector",
          "_operatorRegistryAddress": "Address of the operator registry",
          "_oracleAddress": "The address of the Oracle contract",
          "_systemAdministratorAddress": "Administrator address",
          "_withdrawalCredentials": "Credentials to use for every validator deposit"
        }
      },
      "initRiverV1_1(address,uint64,uint64,uint64,uint64,uint64,uint256,uint256,uint128,uint128)": {
        "params": {
          "_annualAprUpperBound": "The reporting upper bound",
          "_epochsPerFrame": "The amounts of epochs in a frame",
          "_epochsToAssumedFinality": "The number of epochs before an epoch is considered final on-chain",
          "_genesisTime": "The genesis timestamp",
          "_maxDailyNetCommittableAmount_": "The net daily committable limit",
          "_maxDailyRelativeCommittableAmount_": "The relative daily committable limit",
          "_redeemManager": "The redeem manager address",
          "_relativeLowerBound": "The reporting lower bound",
          "_secondsPerSlot": "The seconds inside a slot",
          "_slotsPerEpoch": "The slots inside an epoch"
        }
      },
      "isValidEpoch(uint256)": {
        "params": {
          "epoch": "The epoch to lookup"
        },
        "returns": {
          "_0": "True if valid"
        }
      },
      "name()": {
        "returns": {
          "_0": "The token name"
        }
      },
      "proposeAdmin(address)": {
        "details": "This security prevents setting an invalid address as an admin. The pendingadmin has to claim its ownership of the contract, and prove that the newaddress is able to perform regular transactions.",
        "params": {
          "_newAdmin": "New admin address"
        }
      },
      "requestRedeem(uint256,address)": {
        "params": {
          "_lsETHAmount": "The amount of LsETH to redeem",
          "_recipient": "The address that will own the redeem request"
        },
        "returns": {
          "_redeemRequestId": "The ID of the newly created redeem request"
        }
      },
      "resolveRedeemRequests(uint32[])": {
        "params": {
          "_redeemRequestIds": "The list of redeem requests to resolve"
        },
        "returns": {
          "withdrawalEventIds": "The list of matching withdrawal events, or error codes"
        }
      },
      "setAllowlist(address)": {
        "params": {
          "_newAllowlist": "New address for the allowlist"
        }
      },
      "setCLSpec((uint64,uint64,uint64,uint64,uint64))": {
        "params": {
          "_newValue": "The new consensus layer spec value"
        }
      },
      "setCollector(address)": {
        "params": {
          "_newCollector": "New address for the collector"
        }
      },
      "setConsensusLayerData((uint256,uint256,uint256,uint256,uint256,uint32,uint32[],bool,bool))": {
        "params": {
          "_report": "The consensus layer report structure"
        }
      },
      "setCoverageFund(address)": {
        "params": {
          "_newCoverageFund": "New address for the fund"
        }
      },
      "setDailyCommittableLimits((uint128,uint128))": {
        "params": {
          "_dcl": "The Daily Committable Limits structure"
        }
      },
      "setELFeeRecipient(address)": {
        "params": {
          "_newELFeeRecipient": "New address for the recipient"
        }
      },
      "setGlobalFee(uint256)": {
        "params": {
          "_newFee": "New fee value"
        }
      },
      "setMetadataURI(string)": {
        "params": {
          "_metadataURI": "The new metadata uri string value"
        }
      },
      "setOracle(address)": {
        "params": {
          "_oracleAddress": "Address of the oracle"
        }
      },
      "setReportBounds((uint256,uint256))": {
        "params": {
          "_newValue": "The new report bounds value"
        }
      },
      "sharesFromUnderlyingBalance(uint256)": {
        "params": {
          "_underlyingAssetAmount": "Amount of underlying asset to convert"
        },
        "returns": {
          "_0": "The amount of shares worth the underlying asset amopunt"
        }
      },
      "symbol()": {
        "returns": {
          "_0": "The token symbol"
        }
      },
      "totalSupply()": {
        "returns": {
          "_0": "The total supply in shares"
        }
      },
      "totalUnderlyingSupply()": {
        "returns": {
          "_0": "The total underlying asset supply"
        }
      },
      "transfer(address,uint256)": {
        "params": {
          "_to": "Address receiving the tokens",
          "_value": "Amount of shares to be sent"
        },
        "returns": {
          "_0": "True if success"
        }
      },
      "transferFrom(address,address,uint256)": {
        "params": {
          "_from": "Address sending the tokens",
          "_to": "Address receiving the tokens",
          "_value": "Amount of shares to be sent"
        },
        "returns": {
          "_0": "True if success"
        }
      },
      "underlyingBalanceFromShares(uint256)": {
        "params": {
          "_shares": "Amount of shares to convert"
        },
        "returns": {
          "_0": "The underlying asset balance represented by the shares"
        }
      }
    },
    "title": "River (v1)",
    "version": 1
  },
  "userdoc": {
    "errors": {
      "AllowanceTooLow(address,address,uint256,uint256)": [
        {
          "notice": "Allowance too low to perform operation"
        }
      ],
      "BalanceTooLow()": [
        {
          "notice": "Balance too low to perform operation"
        }
      ],
      "Denied(address)": [
        {
          "notice": "The access was denied"
        }
      ],
      "EmptyDeposit()": [
        {
          "notice": "And empty deposit attempt was made"
        }
      ],
      "ErrorOnDeposit()": [
        {
          "notice": "An error occured during the deposit"
        }
      ],
      "InconsistentPublicKeys()": [
        {
          "notice": "The length of the BLS Public key is invalid during deposit"
        }
      ],
      "InconsistentSignatures()": [
        {
          "notice": "The length of the BLS Signature is invalid during deposit"
        }
      ],
      "InvalidArgument()": [
        {
          "notice": "The argument was invalid"
        }
      ],
      "InvalidCall()": [
        {
          "notice": "The call was invalid"
        }
      ],
      "InvalidDecreasingValidatorsExitedBalance(uint256,uint256)": [
        {
          "notice": "The total exited balance decreased"
        }
      ],
      "InvalidDecreasingValidatorsSkimmedBalance(uint256,uint256)": [
        {
          "notice": "The total skimmed balance decreased"
        }
      ],
      "InvalidEmptyString()": [
        {
          "notice": "The string is empty"
        }
      ],
      "InvalidEpoch(uint256)": [
        {
          "notice": "Thrown when an invalid epoch was reported"
        }
      ],
      "InvalidFee()": [
        {
          "notice": "The fee is invalid"
        }
      ],
      "InvalidInitialization(uint256,uint256)": [
        {
          "notice": "An error occured during the initialization"
        }
      ],
      "InvalidPublicKeyCount()": [
        {
          "notice": "The received count of public keys to deposit is invalid"
        }
      ],
      "InvalidPulledClFundsAmount(uint256,uint256)": [
        {
          "notice": "Thrown when the amount received from the Withdraw contract doe not match the requested amount"
        }
      ],
      "InvalidSignatureCount()": [
        {
          "notice": "The received count of signatures to deposit is invalid"
        }
      ],
      "InvalidValidatorCountReport(uint256,uint256,uint256)": [
        {
          "notice": "The reported validator count is invalid"
        }
      ],
      "InvalidWithdrawalCredentials()": [
        {
          "notice": "The withdrawal credentials value is null"
        }
      ],
      "InvalidZeroAddress()": [
        {
          "notice": "The address is zero"
        }
      ],
      "NoAvailableValidatorKeys()": [
        {
          "notice": "The internal key retrieval returned no keys"
        }
      ],
      "NotEnoughFunds()": [
        {
          "notice": "Not enough funds to deposit one validator"
        }
      ],
      "NullTransfer()": [
        {
          "notice": "Invalid empty transfer"
        }
      ],
      "SliceOutOfBounds()": [
        {
          "notice": "The slice is outside of the initial bytes bounds"
        }
      ],
      "SliceOverflow()": [
        {
          "notice": "The length overflows an uint"
        }
      ],
      "TotalValidatorBalanceDecreaseOutOfBound(uint256,uint256,uint256,uint256)": [
        {
          "notice": "The balance decrease is higher than the maximum allowed by the lower bound"
        }
      ],
      "TotalValidatorBalanceIncreaseOutOfBound(uint256,uint256,uint256,uint256)": [
        {
          "notice": "The balance increase is higher than the maximum allowed by the upper bound"
        }
      ],
      "Unauthorized(address)": [
        {
          "notice": "The operator is unauthorized for the caller"
        }
      ],
      "UnauthorizedTransfer(address,address)": [
        {
          "notice": "Invalid transfer recipients"
        }
      ],
      "ZeroMintedShares()": [
        {
          "notice": "The computed amount of shares to mint is 0"
        }
      ]
    },
    "events": {
      "ConsensusLayerDataUpdate(uint256,uint256,bytes32)": {
        "notice": "The consensus layer data provided by the oracle has been updated"
      },
      "Initialize(uint256,bytes)": {
        "notice": "Emitted when the contract is properly initialized"
      },
      "ProcessedConsensusLayerReport((uint256,uint256,uint256,uint256,uint256,uint32,uint32[],bool,bool),(uint256,uint256,uint256,uint256))": {
        "notice": "The provided report has beend processed"
      },
      "PulledCLFunds(uint256,uint256)": {
        "notice": "Emitted when funds are pulled from the CL recipient"
      },
      "PulledCoverageFunds(uint256)": {
        "notice": "Funds have been pulled from the Coverage Fund"
      },
      "PulledELFees(uint256)": {
        "notice": "Funds have been pulled from the Execution Layer Fee Recipient"
      },
      "PulledRedeemManagerExceedingEth(uint256)": {
        "notice": "Emitted when funds are pulled from the redeem manager"
      },
      "ReportedRedeemManager(uint256,uint256,uint256)": {
        "notice": "Emitted when the redeem manager received a withdraw event report"
      },
      "RewardsEarned(address,uint256,uint256,uint256,uint256)": {
        "notice": "The system underlying supply increased. This is a snapshot of the balances for accounting purposes"
      },
      "SetAdmin(address)": {
        "notice": "The admin address changed"
      },
      "SetAllowlist(address)": {
        "notice": "The stored Allowlist has been changed"
      },
      "SetBalanceCommittedToDeposit(uint256,uint256)": {
        "notice": "Emitted when the balance committed to deposit"
      },
      "SetBalanceToDeposit(uint256,uint256)": {
        "notice": "Emitted when the balance to deposit is updated"
      },
      "SetBalanceToRedeem(uint256,uint256)": {
        "notice": "Emitted when the balance to redeem is updated"
      },
      "SetBounds(uint256,uint256)": {
        "notice": "The Report Bounds are changed"
      },
      "SetCollector(address)": {
        "notice": "The stored Collector has been changed"
      },
      "SetCoverageFund(address)": {
        "notice": "The stored Coverage Fund has been changed"
      },
      "SetDepositContractAddress(address)": {
        "notice": "The stored deposit contract address changed"
      },
      "SetDepositedValidatorCount(uint256,uint256)": {
        "notice": "Emitted when the deposited validator count is updated"
      },
      "SetELFeeRecipient(address)": {
        "notice": "The stored Execution Layer Fee Recipient has been changed"
      },
      "SetGlobalFee(uint256)": {
        "notice": "The stored Global Fee has been changed"
      },
      "SetMaxDailyCommittableAmounts(uint256,uint256)": {
        "notice": "Emitted when the daily committable limits are changed"
      },
      "SetMetadataURI(string)": {
        "notice": "The stored Metadata URI string has been changed"
      },
      "SetOperatorsRegistry(address)": {
        "notice": "The stored Operators Registry has been changed"
      },
      "SetOracle(address)": {
        "notice": "The stored oracle address changed"
      },
      "SetPendingAdmin(address)": {
        "notice": "The pending admin address changed"
      },
      "SetRedeemManager(address)": {
        "notice": "Emitted when the redeem manager address is changed"
      },
      "SetSpec(uint64,uint64,uint64,uint64,uint64)": {
        "notice": "The Consensus Layer Spec is changed"
      },
      "SetTotalSupply(uint256)": {
        "notice": "Emitted when the total supply is changed"
      },
      "SetWithdrawalCredentials(bytes32)": {
        "notice": "The stored withdrawal credentials changed"
      },
      "UserDeposit(address,address,uint256)": {
        "notice": "User deposited ETH in the system"
      }
    },
    "kind": "user",
    "methods": {
      "DEPOSIT_SIZE()": {
        "notice": "Size of a deposit in ETH"
      },
      "PUBLIC_KEY_LENGTH()": {
        "notice": "Size of a BLS Public key in bytes"
      },
      "SIGNATURE_LENGTH()": {
        "notice": "Size of a BLS Signature in bytes"
      },
      "_DEPOSIT_SIZE()": {
        "notice": "Size of a deposit in ETH"
      },
      "acceptAdmin()": {
        "notice": "Accept the transfer of ownership"
      },
      "allowance(address,address)": {
        "notice": "Retrieve the allowance value for a spender"
      },
      "approve(address,uint256)": {
        "notice": "Approves an account for future spendings"
      },
      "balanceOf(address)": {
        "notice": "Retrieve the balance of an account"
      },
      "balanceOfUnderlying(address)": {
        "notice": "Retrieve the underlying asset balance of an account"
      },
      "claimRedeemRequests(uint32[],uint32[])": {
        "notice": "Claims several redeem requests"
      },
      "decimals()": {
        "notice": "Retrieve the decimal count"
      },
      "decreaseAllowance(address,uint256)": {
        "notice": "Decrease allowance to another account"
      },
      "deposit()": {
        "notice": "Explicit deposit method to mint on msg.sender"
      },
      "depositAndTransfer(address)": {
        "notice": "Explicit deposit method to mint on msg.sender and transfer to _recipient"
      },
      "depositToConsensusLayer(uint256)": {
        "notice": "Deposits current balance to the Consensus Layer by batches of 32 ETH"
      },
      "getAdmin()": {
        "notice": "Retrieves the current admin address"
      },
      "getAllowlist()": {
        "notice": "Retrieve the allowlist address"
      },
      "getBalanceToDeposit()": {
        "notice": "Returns the amount of ETH not yet committed for deposit"
      },
      "getBalanceToRedeem()": {
        "notice": "Retrieve the current balance to redeem"
      },
      "getCLSpec()": {
        "notice": "Retrieve the current cl spec"
      },
      "getCLValidatorCount()": {
        "notice": "Get CL validator count (the amount of validator reported by the oracles)"
      },
      "getCLValidatorTotalBalance()": {
        "notice": "Get CL validator total balance"
      },
      "getCollector()": {
        "notice": "Retrieve the collector address"
      },
      "getCommittedBalance()": {
        "notice": "Returns the amount of ETH committed for deposit"
      },
      "getCoverageFund()": {
        "notice": "Retrieve the coverage fund"
      },
      "getCurrentEpochId()": {
        "notice": "Retrieve the current epoch id based on block timestamp"
      },
      "getCurrentFrame()": {
        "notice": "Retrieve the current frame details"
      },
      "getDailyCommittableLimits()": {
        "notice": "Retrieve the configured daily committable limits"
      },
      "getDepositedValidatorCount()": {
        "notice": "Get the deposited validator count (the count of deposits made by the contract)"
      },
      "getELFeeRecipient()": {
        "notice": "Retrieve the execution layer fee recipient"
      },
      "getExpectedEpochId()": {
        "notice": "Retrieve expected epoch id"
      },
      "getFrameFirstEpochId(uint256)": {
        "notice": "Retrieve the first epoch id of the frame of the provided epoch id"
      },
      "getGlobalFee()": {
        "notice": "Get the current global fee"
      },
      "getLastCompletedEpochId()": {
        "notice": "Retrieve the last completed epoch id"
      },
      "getLastConsensusLayerReport()": {
        "notice": "Retrieve the last consensus layer report"
      },
      "getMetadataURI()": {
        "notice": "Retrieve the metadata uri string value"
      },
      "getOperatorsRegistry()": {
        "notice": "Retrieve the operators registry"
      },
      "getOracle()": {
        "notice": "Get oracle address"
      },
      "getPendingAdmin()": {
        "notice": "Retrieve the current pending admin address"
      },
      "getRedeemManager()": {
        "notice": "Retrieve the redeem manager"
      },
      "getReportBounds()": {
        "notice": "Retrieve the report bounds"
      },
      "getTime()": {
        "notice": "Retrieve the block timestamp"
      },
      "getWithdrawalCredentials()": {
        "notice": "Retrieve the withdrawal credentials"
      },
      "increaseAllowance(address,uint256)": {
        "notice": "Increase allowance to another account"
      },
      "initRiverV1(address,address,bytes32,address,address,address,address,address,uint256)": {
        "notice": "Initializes the River system"
      },
      "initRiverV1_1(address,uint64,uint64,uint64,uint64,uint64,uint256,uint256,uint128,uint128)": {
        "notice": "Initialized version 1.1 of the River System"
      },
      "initRiverV1_2()": {
        "notice": "Initializes version 1.2 of the River System"
      },
      "isValidEpoch(uint256)": {
        "notice": "Verifies if the provided epoch is valid"
      },
      "name()": {
        "notice": "Retrieve the token name"
      },
      "proposeAdmin(address)": {
        "notice": "Proposes a new address as admin"
      },
      "requestRedeem(uint256,address)": {
        "notice": "Performs a redeem request on the redeem manager"
      },
      "resolveRedeemRequests(uint32[])": {
        "notice": "Resolves the provided redeem requests by calling the redeem manager"
      },
      "sendCLFunds()": {
        "notice": "Input for consensus layer funds, containing both exit and skimming"
      },
      "sendCoverageFunds()": {
        "notice": "Input for coverage funds"
      },
      "sendELFees()": {
        "notice": "Input for execution layer fee earnings"
      },
      "sendRedeemManagerExceedingFunds()": {
        "notice": "Input for the redeem manager funds"
      },
      "setAllowlist(address)": {
        "notice": "Changes the allowlist address"
      },
      "setCLSpec((uint64,uint64,uint64,uint64,uint64))": {
        "notice": "Set the consensus layer spec"
      },
      "setCollector(address)": {
        "notice": "Changes the collector address"
      },
      "setConsensusLayerData((uint256,uint256,uint256,uint256,uint256,uint32,uint32[],bool,bool))": {
        "notice": "Performs all the reporting logics"
      },
      "setCoverageFund(address)": {
        "notice": "Changes the coverage fund"
      },
      "setDailyCommittableLimits((uint128,uint128))": {
        "notice": "Set the daily committable limits"
      },
      "setELFeeRecipient(address)": {
        "notice": "Changes the execution layer fee recipient"
      },
      "setGlobalFee(uint256)": {
        "notice": "Changes the global fee parameter"
      },
      "setMetadataURI(string)": {
        "notice": "Sets the metadata uri string value"
      },
      "setOracle(address)": {
        "notice": "Set the oracle address"
      },
      "setReportBounds((uint256,uint256))": {
        "notice": "Set the report bounds"
      },
      "sharesFromUnderlyingBalance(uint256)": {
        "notice": "Retrieve the shares count from an underlying asset amount"
      },
      "symbol()": {
        "notice": "Retrieve the token symbol"
      },
      "totalSupply()": {
        "notice": "Retrieve the total token supply"
      },
      "totalUnderlyingSupply()": {
        "notice": "Retrieve the total underlying asset supply"
      },
      "transfer(address,uint256)": {
        "notice": "Performs a transfer from the message sender to the provided account"
      },
      "transferFrom(address,address,uint256)": {
        "notice": "Performs a transfer between two recipients"
      },
      "underlyingBalanceFromShares(uint256)": {
        "notice": "Retrieve the underlying asset balance from an amount of shares"
      }
    },
    "notice": "This contract merges all the manager contracts and implements all the virtual methods stitching all components together",
    "version": 1
  },
  "storageLayout": {
    "storage": [],
    "types": null
  }
}