{
  "address": "0x04b2E58e547F0C3e151112e3059D273Ee94A4dA6",
  "abi": [
    {
      "inputs": [
        {
          "internalType": "address",
          "name": "_from",
          "type": "address"
        },
        {
          "internalType": "address",
          "name": "_operator",
          "type": "address"
        },
        {
          "internalType": "uint256",
          "name": "_allowance",
          "type": "uint256"
        },
        {
          "internalType": "uint256",
          "name": "_value",
          "type": "uint256"
        }
      ],
      "name": "AllowanceTooLow",
      "type": "error"
    },
    {
      "inputs": [],
      "name": "BalanceTooLow",
      "type": "error"
    },
    {
      "inputs": [
        {
          "internalType": "address",
          "name": "account",
          "type": "address"
        }
      ],
      "name": "Denied",
      "type": "error"
    },
    {
      "inputs": [],
      "name": "EmptyDeposit",
      "type": "error"
    },
    {
      "inputs": [],
      "name": "ErrorOnDeposit",
      "type": "error"
    },
    {
      "inputs": [],
      "name": "InconsistentPublicKeys",
      "type": "error"
    },
    {
      "inputs": [],
      "name": "InconsistentSignatures",
      "type": "error"
    },
    {
      "inputs": [],
      "name": "InvalidArgument",
      "type": "error"
    },
    {
      "inputs": [],
      "name": "InvalidCall",
      "type": "error"
    },
    {
      "inputs": [
        {
          "internalType": "uint256",
          "name": "currentValidatorsExitedBalance",
          "type": "uint256"
        },
        {
          "internalType": "uint256",
          "name": "newValidatorsExitedBalance",
          "type": "uint256"
        }
      ],
      "name": "InvalidDecreasingValidatorsExitedBalance",
      "type": "error"
    },
    {
      "inputs": [
        {
          "internalType": "uint256",
          "name": "currentValidatorsSkimmedBalance",
          "type": "uint256"
        },
        {
          "internalType": "uint256",
          "name": "newValidatorsSkimmedBalance",
          "type": "uint256"
        }
      ],
      "name": "InvalidDecreasingValidatorsSkimmedBalance",
      "type": "error"
    },
    {
      "inputs": [],
      "name": "InvalidDepositRoot",
      "type": "error"
    },
    {
      "inputs": [],
      "name": "InvalidEmptyString",
      "type": "error"
    },
    {
      "inputs": [
        {
          "internalType": "uint256",
          "name": "epoch",
          "type": "uint256"
        }
      ],
      "name": "InvalidEpoch",
      "type": "error"
    },
    {
      "inputs": [],
      "name": "InvalidFee",
      "type": "error"
    },
    {
      "inputs": [
        {
          "internalType": "uint256",
          "name": "version",
          "type": "uint256"
        },
        {
          "internalType": "uint256",
          "name": "expectedVersion",
          "type": "uint256"
        }
      ],
      "name": "InvalidInitialization",
      "type": "error"
    },
    {
      "inputs": [],
      "name": "InvalidPublicKeyCount",
      "type": "error"
    },
    {
      "inputs": [
        {
          "internalType": "uint256",
          "name": "requested",
          "type": "uint256"
        },
        {
          "internalType": "uint256",
          "name": "received",
          "type": "uint256"
        }
      ],
      "name": "InvalidPulledClFundsAmount",
      "type": "error"
    },
    {
      "inputs": [],
      "name": "InvalidSignatureCount",
      "type": "error"
    },
    {
      "inputs": [
        {
          "internalType": "uint256",
          "name": "providedValidatorCount",
          "type": "uint256"
        },
        {
          "internalType": "uint256",
          "name": "depositedValidatorCount",
          "type": "uint256"
        },
        {
          "internalType": "uint256",
          "name": "lastReportedValidatorCount",
          "type": "uint256"
        }
      ],
      "name": "InvalidValidatorCountReport",
      "type": "error"
    },
    {
      "inputs": [],
      "name": "InvalidWithdrawalCredentials",
      "type": "error"
    },
    {
      "inputs": [],
      "name": "InvalidZeroAddress",
      "type": "error"
    },
    {
      "inputs": [],
      "name": "NoAvailableValidatorKeys",
      "type": "error"
    },
    {
      "inputs": [],
      "name": "NotEnoughFunds",
      "type": "error"
    },
    {
      "inputs": [],
      "name": "NullTransfer",
      "type": "error"
    },
    {
      "inputs": [],
      "name": "OnlyKeeper",
      "type": "error"
    },
    {
      "inputs": [],
      "name": "SliceOutOfBounds",
      "type": "error"
    },
    {
      "inputs": [],
      "name": "SliceOverflow",
      "type": "error"
    },
    {
      "inputs": [
        {
          "internalType": "uint256",
          "name": "prevTotalEthIncludingExited",
          "type": "uint256"
        },
        {
          "internalType": "uint256",
          "name": "postTotalEthIncludingExited",
          "type": "uint256"
        },
        {
          "internalType": "uint256",
          "name": "timeElapsed",
          "type": "uint256"
        },
        {
          "internalType": "uint256",
          "name": "relativeLowerBound",
          "type": "uint256"
        }
      ],
      "name": "TotalValidatorBalanceDecreaseOutOfBound",
      "type": "error"
    },
    {
      "inputs": [
        {
          "internalType": "uint256",
          "name": "prevTotalEthIncludingExited",
          "type": "uint256"
        },
        {
          "internalType": "uint256",
          "name": "postTotalEthIncludingExited",
          "type": "uint256"
        },
        {
          "internalType": "uint256",
          "name": "timeElapsed",
          "type": "uint256"
        },
        {
          "internalType": "uint256",
          "name": "annualAprUpperBound",
          "type": "uint256"
        }
      ],
      "name": "TotalValidatorBalanceIncreaseOutOfBound",
      "type": "error"
    },
    {
      "inputs": [
        {
          "internalType": "address",
          "name": "caller",
          "type": "address"
        }
      ],
      "name": "Unauthorized",
      "type": "error"
    },
    {
      "inputs": [
        {
          "internalType": "address",
          "name": "_from",
          "type": "address"
        },
        {
          "internalType": "address",
          "name": "_to",
          "type": "address"
        }
      ],
      "name": "UnauthorizedTransfer",
      "type": "error"
    },
    {
      "inputs": [],
      "name": "ZeroMintedShares",
      "type": "error"
    },
    {
      "anonymous": false,
      "inputs": [
        {
          "indexed": true,
          "internalType": "address",
          "name": "owner",
          "type": "address"
        },
        {
          "indexed": true,
          "internalType": "address",
          "name": "spender",
          "type": "address"
        },
        {
          "indexed": false,
          "internalType": "uint256",
          "name": "value",
          "type": "uint256"
        }
      ],
      "name": "Approval",
      "type": "event"
    },
    {
      "anonymous": false,
      "inputs": [
        {
          "indexed": false,
          "internalType": "uint256",
          "name": "validatorCount",
          "type": "uint256"
        },
        {
          "indexed": false,
          "internalType": "uint256",
          "name": "validatorTotalBalance",
          "type": "uint256"
        },
        {
          "indexed": false,
          "internalType": "bytes32",
          "name": "roundId",
          "type": "bytes32"
        }
      ],
      "name": "ConsensusLayerDataUpdate",
      "type": "event"
    },
    {
      "anonymous": false,
      "inputs": [
        {
          "indexed": false,
          "internalType": "uint256",
          "name": "version",
          "type": "uint256"
        },
        {
          "indexed": false,
          "internalType": "bytes",
          "name": "cdata",
          "type": "bytes"
        }
      ],
      "name": "Initialize",
      "type": "event"
    },
    {
      "anonymous": false,
      "inputs": [
        {
          "components": [
            {
              "internalType": "uint256",
              "name": "epoch",
              "type": "uint256"
            },
            {
              "internalType": "uint256",
              "name": "validatorsBalance",
              "type": "uint256"
            },
            {
              "internalType": "uint256",
              "name": "validatorsSkimmedBalance",
              "type": "uint256"
            },
            {
              "internalType": "uint256",
              "name": "validatorsExitedBalance",
              "type": "uint256"
            },
            {
              "internalType": "uint256",
              "name": "validatorsExitingBalance",
              "type": "uint256"
            },
            {
              "internalType": "uint32",
              "name": "validatorsCount",
              "type": "uint32"
            },
            {
              "internalType": "uint32[]",
              "name": "stoppedValidatorCountPerOperator",
              "type": "uint32[]"
            },
            {
              "internalType": "bool",
              "name": "rebalanceDepositToRedeemMode",
              "type": "bool"
            },
            {
              "internalType": "bool",
              "name": "slashingContainmentMode",
              "type": "bool"
            }
          ],
          "indexed": false,
          "internalType": "struct IOracleManagerV1.ConsensusLayerReport",
          "name": "report",
          "type": "tuple"
        },
        {
          "components": [
            {
              "internalType": "uint256",
              "name": "rewards",
              "type": "uint256"
            },
            {
              "internalType": "uint256",
              "name": "pulledELFees",
              "type": "uint256"
            },
            {
              "internalType": "uint256",
              "name": "pulledRedeemManagerExceedingEthBuffer",
              "type": "uint256"
            },
            {
              "internalType": "uint256",
              "name": "pulledCoverageFunds",
              "type": "uint256"
            }
          ],
          "indexed": false,
          "internalType": "struct IOracleManagerV1.ConsensusLayerDataReportingTrace",
          "name": "trace",
          "type": "tuple"
        }
      ],
      "name": "ProcessedConsensusLayerReport",
      "type": "event"
    },
    {
      "anonymous": false,
      "inputs": [
        {
          "indexed": false,
          "internalType": "uint256",
          "name": "pulledSkimmedEthAmount",
          "type": "uint256"
        },
        {
          "indexed": false,
          "internalType": "uint256",
          "name": "pullExitedEthAmount",
          "type": "uint256"
        }
      ],
      "name": "PulledCLFunds",
      "type": "event"
    },
    {
      "anonymous": false,
      "inputs": [
        {
          "indexed": false,
          "internalType": "uint256",
          "name": "amount",
          "type": "uint256"
        }
      ],
      "name": "PulledCoverageFunds",
      "type": "event"
    },
    {
      "anonymous": false,
      "inputs": [
        {
          "indexed": false,
          "internalType": "uint256",
          "name": "amount",
          "type": "uint256"
        }
      ],
      "name": "PulledELFees",
      "type": "event"
    },
    {
      "anonymous": false,
      "inputs": [
        {
          "indexed": false,
          "internalType": "uint256",
          "name": "amount",
          "type": "uint256"
        }
      ],
      "name": "PulledRedeemManagerExceedingEth",
      "type": "event"
    },
    {
      "anonymous": false,
      "inputs": [
        {
          "indexed": false,
          "internalType": "uint256",
          "name": "redeemManagerDemand",
          "type": "uint256"
        },
        {
          "indexed": false,
          "internalType": "uint256",
          "name": "suppliedRedeemManagerDemand",
          "type": "uint256"
        },
        {
          "indexed": false,
          "internalType": "uint256",
          "name": "suppliedRedeemManagerDemandInEth",
          "type": "uint256"
        }
      ],
      "name": "ReportedRedeemManager",
      "type": "event"
    },
    {
      "anonymous": false,
      "inputs": [
        {
          "indexed": true,
          "internalType": "address",
          "name": "_collector",
          "type": "address"
        },
        {
          "indexed": false,
          "internalType": "uint256",
          "name": "_oldTotalUnderlyingBalance",
          "type": "uint256"
        },
        {
          "indexed": false,
          "internalType": "uint256",
          "name": "_oldTotalSupply",
          "type": "uint256"
        },
        {
          "indexed": false,
          "internalType": "uint256",
          "name": "_newTotalUnderlyingBalance",
          "type": "uint256"
        },
        {
          "indexed": false,
          "internalType": "uint256",
          "name": "_newTotalSupply",
          "type": "uint256"
        }
      ],
      "name": "RewardsEarned",
      "type": "event"
    },
    {
      "anonymous": false,
      "inputs": [
        {
          "indexed": true,
          "internalType": "address",
          "name": "admin",
          "type": "address"
        }
      ],
      "name": "SetAdmin",
      "type": "event"
    },
    {
      "anonymous": false,
      "inputs": [
        {
          "indexed": true,
          "internalType": "address",
          "name": "allowlist",
          "type": "address"
        }
      ],
      "name": "SetAllowlist",
      "type": "event"
    },
    {
      "anonymous": false,
      "inputs": [
        {
          "indexed": false,
          "internalType": "uint256",
          "name": "oldAmount",
          "type": "uint256"
        },
        {
          "indexed": false,
          "internalType": "uint256",
          "name": "newAmount",
          "type": "uint256"
        }
      ],
      "name": "SetBalanceCommittedToDeposit",
      "type": "event"
    },
    {
      "anonymous": false,
      "inputs": [
        {
          "indexed": false,
          "internalType": "uint256",
          "name": "oldAmount",
          "type": "uint256"
        },
        {
          "indexed": false,
          "internalType": "uint256",
          "name": "newAmount",
          "type": "uint256"
        }
      ],
      "name": "SetBalanceToDeposit",
      "type": "event"
    },
    {
      "anonymous": false,
      "inputs": [
        {
          "indexed": false,
          "internalType": "uint256",
          "name": "oldAmount",
          "type": "uint256"
        },
        {
          "indexed": false,
          "internalType": "uint256",
          "name": "newAmount",
          "type": "uint256"
        }
      ],
      "name": "SetBalanceToRedeem",
      "type": "event"
    },
    {
      "anonymous": false,
      "inputs": [
        {
          "indexed": false,
          "internalType": "uint256",
          "name": "annualAprUpperBound",
          "type": "uint256"
        },
        {
          "indexed": false,
          "internalType": "uint256",
          "name": "relativeLowerBound",
          "type": "uint256"
        }
      ],
      "name": "SetBounds",
      "type": "event"
    },
    {
      "anonymous": false,
      "inputs": [
        {
          "indexed": true,
          "internalType": "address",
          "name": "collector",
          "type": "address"
        }
      ],
      "name": "SetCollector",
      "type": "event"
    },
    {
      "anonymous": false,
      "inputs": [
        {
          "indexed": true,
          "internalType": "address",
          "name": "coverageFund",
          "type": "address"
        }
      ],
      "name": "SetCoverageFund",
      "type": "event"
    },
    {
      "anonymous": false,
      "inputs": [
        {
          "indexed": true,
          "internalType": "address",
          "name": "depositContract",
          "type": "address"
        }
      ],
      "name": "SetDepositContractAddress",
      "type": "event"
    },
    {
      "anonymous": false,
      "inputs": [
        {
          "indexed": false,
          "internalType": "uint256",
          "name": "oldDepositedValidatorCount",
          "type": "uint256"
        },
        {
          "indexed": false,
          "internalType": "uint256",
          "name": "newDepositedValidatorCount",
          "type": "uint256"
        }
      ],
      "name": "SetDepositedValidatorCount",
      "type": "event"
    },
    {
      "anonymous": false,
      "inputs": [
        {
          "indexed": true,
          "internalType": "address",
          "name": "elFeeRecipient",
          "type": "address"
        }
      ],
      "name": "SetELFeeRecipient",
      "type": "event"
    },
    {
      "anonymous": false,
      "inputs": [
        {
          "indexed": false,
          "internalType": "uint256",
          "name": "fee",
          "type": "uint256"
        }
      ],
      "name": "SetGlobalFee",
      "type": "event"
    },
    {
      "anonymous": false,
      "inputs": [
        {
          "indexed": false,
          "internalType": "uint256",
          "name": "minNetAmount",
          "type": "uint256"
        },
        {
          "indexed": false,
          "internalType": "uint256",
          "name": "maxRelativeAmount",
          "type": "uint256"
        }
      ],
      "name": "SetMaxDailyCommittableAmounts",
      "type": "event"
    },
    {
      "anonymous": false,
      "inputs": [
        {
          "indexed": false,
          "internalType": "string",
          "name": "metadataURI",
          "type": "string"
        }
      ],
      "name": "SetMetadataURI",
      "type": "event"
    },
    {
      "anonymous": false,
      "inputs": [
        {
          "indexed": true,
          "internalType": "address",
          "name": "operatorRegistry",
          "type": "address"
        }
      ],
      "name": "SetOperatorsRegistry",
      "type": "event"
    },
    {
      "anonymous": false,
      "inputs": [
        {
          "indexed": true,
          "internalType": "address",
          "name": "oracleAddress",
          "type": "address"
        }
      ],
      "name": "SetOracle",
      "type": "event"
    },
    {
      "anonymous": false,
      "inputs": [
        {
          "indexed": true,
          "internalType": "address",
          "name": "pendingAdmin",
          "type": "address"
        }
      ],
      "name": "SetPendingAdmin",
      "type": "event"
    },
    {
      "anonymous": false,
      "inputs": [
        {
          "indexed": false,
          "internalType": "address",
          "name": "redeemManager",
          "type": "address"
        }
      ],
      "name": "SetRedeemManager",
      "type": "event"
    },
    {
      "anonymous": false,
      "inputs": [
        {
          "indexed": false,
          "internalType": "uint64",
          "name": "epochsPerFrame",
          "type": "uint64"
        },
        {
          "indexed": false,
          "internalType": "uint64",
          "name": "slotsPerEpoch",
          "type": "uint64"
        },
        {
          "indexed": false,
          "internalType": "uint64",
          "name": "secondsPerSlot",
          "type": "uint64"
        },
        {
          "indexed": false,
          "internalType": "uint64",
          "name": "genesisTime",
          "type": "uint64"
        },
        {
          "indexed": false,
          "internalType": "uint64",
          "name": "epochsToAssumedFinality",
          "type": "uint64"
        }
      ],
      "name": "SetSpec",
      "type": "event"
    },
    {
      "anonymous": false,
      "inputs": [
        {
          "indexed": false,
          "internalType": "uint256",
          "name": "totalSupply",
          "type": "uint256"
        }
      ],
      "name": "SetTotalSupply",
      "type": "event"
    },
    {
      "anonymous": false,
      "inputs": [
        {
          "indexed": false,
          "internalType": "bytes32",
          "name": "withdrawalCredentials",
          "type": "bytes32"
        }
      ],
      "name": "SetWithdrawalCredentials",
      "type": "event"
    },
    {
      "anonymous": false,
      "inputs": [
        {
          "indexed": true,
          "internalType": "address",
          "name": "from",
          "type": "address"
        },
        {
          "indexed": true,
          "internalType": "address",
          "name": "to",
          "type": "address"
        },
        {
          "indexed": false,
          "internalType": "uint256",
          "name": "value",
          "type": "uint256"
        }
      ],
      "name": "Transfer",
      "type": "event"
    },
    {
      "anonymous": false,
      "inputs": [
        {
          "indexed": true,
          "internalType": "address",
          "name": "depositor",
          "type": "address"
        },
        {
          "indexed": true,
          "internalType": "address",
          "name": "recipient",
          "type": "address"
        },
        {
          "indexed": false,
          "internalType": "uint256",
          "name": "amount",
          "type": "uint256"
        }
      ],
      "name": "UserDeposit",
      "type": "event"
    },
    {
      "stateMutability": "payable",
      "type": "fallback"
    },
    {
      "inputs": [],
      "name": "DEPOSIT_SIZE",
      "outputs": [
        {
          "internalType": "uint256",
          "name": "",
          "type": "uint256"
        }
      ],
      "stateMutability": "view",
      "type": "function"
    },
    {
      "inputs": [],
      "name": "PUBLIC_KEY_LENGTH",
      "outputs": [
        {
          "internalType": "uint256",
          "name": "",
          "type": "uint256"
        }
      ],
      "stateMutability": "view",
      "type": "function"
    },
    {
      "inputs": [],
      "name": "SIGNATURE_LENGTH",
      "outputs": [
        {
          "internalType": "uint256",
          "name": "",
          "type": "uint256"
        }
      ],
      "stateMutability": "view",
      "type": "function"
    },
    {
      "inputs": [],
      "name": "_DEPOSIT_SIZE",
      "outputs": [
        {
          "internalType": "uint256",
          "name": "",
          "type": "uint256"
        }
      ],
      "stateMutability": "view",
      "type": "function"
    },
    {
      "inputs": [],
      "name": "acceptAdmin",
      "outputs": [],
      "stateMutability": "nonpayable",
      "type": "function"
    },
    {
      "inputs": [
        {
          "internalType": "address",
          "name": "_owner",
          "type": "address"
        },
        {
          "internalType": "address",
          "name": "_spender",
          "type": "address"
        }
      ],
      "name": "allowance",
      "outputs": [
        {
          "internalType": "uint256",
          "name": "",
          "type": "uint256"
        }
      ],
      "stateMutability": "view",
      "type": "function"
    },
    {
      "inputs": [
        {
          "internalType": "address",
          "name": "_spender",
          "type": "address"
        },
        {
          "internalType": "uint256",
          "name": "_value",
          "type": "uint256"
        }
      ],
      "name": "approve",
      "outputs": [
        {
          "internalType": "bool",
          "name": "",
          "type": "bool"
        }
      ],
      "stateMutability": "nonpayable",
      "type": "function"
    },
    {
      "inputs": [
        {
          "internalType": "address",
          "name": "_owner",
          "type": "address"
        }
      ],
      "name": "balanceOf",
      "outputs": [
        {
          "internalType": "uint256",
          "name": "",
          "type": "uint256"
        }
      ],
      "stateMutability": "view",
      "type": "function"
    },
    {
      "inputs": [
        {
          "internalType": "address",
          "name": "_owner",
          "type": "address"
        }
      ],
      "name": "balanceOfUnderlying",
      "outputs": [
        {
          "internalType": "uint256",
          "name": "",
          "type": "uint256"
        }
      ],
      "stateMutability": "view",
      "type": "function"
    },
    {
      "inputs": [
        {
          "internalType": "uint32[]",
          "name": "_redeemRequestIds",
          "type": "uint32[]"
        },
        {
          "internalType": "uint32[]",
          "name": "_withdrawalEventIds",
          "type": "uint32[]"
        }
      ],
      "name": "claimRedeemRequests",
      "outputs": [
        {
          "internalType": "uint8[]",
          "name": "claimStatuses",
          "type": "uint8[]"
        }
      ],
      "stateMutability": "nonpayable",
      "type": "function"
    },
    {
      "inputs": [],
      "name": "decimals",
      "outputs": [
        {
          "internalType": "uint8",
          "name": "",
          "type": "uint8"
        }
      ],
      "stateMutability": "pure",
      "type": "function"
    },
    {
      "inputs": [
        {
          "internalType": "address",
          "name": "_spender",
          "type": "address"
        },
        {
          "internalType": "uint256",
          "name": "_subtractableValue",
          "type": "uint256"
        }
      ],
      "name": "decreaseAllowance",
      "outputs": [
        {
          "internalType": "bool",
          "name": "",
          "type": "bool"
        }
      ],
      "stateMutability": "nonpayable",
      "type": "function"
    },
    {
      "inputs": [],
      "name": "deposit",
      "outputs": [],
      "stateMutability": "payable",
      "type": "function"
    },
    {
      "inputs": [
        {
          "internalType": "address",
          "name": "_recipient",
          "type": "address"
        }
      ],
      "name": "depositAndTransfer",
      "outputs": [],
      "stateMutability": "payable",
      "type": "function"
    },
    {
      "inputs": [
        {
          "internalType": "uint256",
          "name": "_maxCount",
          "type": "uint256"
        },
        {
          "internalType": "bytes32",
          "name": "_depositRoot",
          "type": "bytes32"
        }
      ],
      "name": "depositToConsensusLayerWithDepositRoot",
      "outputs": [],
      "stateMutability": "nonpayable",
      "type": "function"
    },
    {
      "inputs": [],
      "name": "getAdmin",
      "outputs": [
        {
          "internalType": "address",
          "name": "",
          "type": "address"
        }
      ],
      "stateMutability": "view",
      "type": "function"
    },
    {
      "inputs": [],
      "name": "getAllowlist",
      "outputs": [
        {
          "internalType": "address",
          "name": "",
          "type": "address"
        }
      ],
      "stateMutability": "view",
      "type": "function"
    },
    {
      "inputs": [],
      "name": "getBalanceToDeposit",
      "outputs": [
        {
          "internalType": "uint256",
          "name": "",
          "type": "uint256"
        }
      ],
      "stateMutability": "view",
      "type": "function"
    },
    {
      "inputs": [],
      "name": "getBalanceToRedeem",
      "outputs": [
        {
          "internalType": "uint256",
          "name": "",
          "type": "uint256"
        }
      ],
      "stateMutability": "view",
      "type": "function"
    },
    {
      "inputs": [],
      "name": "getCLSpec",
      "outputs": [
        {
          "components": [
            {
              "internalType": "uint64",
              "name": "epochsPerFrame",
              "type": "uint64"
            },
            {
              "internalType": "uint64",
              "name": "slotsPerEpoch",
              "type": "uint64"
            },
            {
              "internalType": "uint64",
              "name": "secondsPerSlot",
              "type": "uint64"
            },
            {
              "internalType": "uint64",
              "name": "genesisTime",
              "type": "uint64"
            },
            {
              "internalType": "uint64",
              "name": "epochsToAssumedFinality",
              "type": "uint64"
            }
          ],
          "internalType": "struct CLSpec.CLSpecStruct",
          "name": "",
          "type": "tuple"
        }
      ],
      "stateMutability": "view",
      "type": "function"
    },
    {
      "inputs": [],
      "name": "getCLValidatorCount",
      "outputs": [
        {
          "internalType": "uint256",
          "name": "",
          "type": "uint256"
        }
      ],
      "stateMutability": "view",
      "type": "function"
    },
    {
      "inputs": [],
      "name": "getCLValidatorTotalBalance",
      "outputs": [
        {
          "internalType": "uint256",
          "name": "",
          "type": "uint256"
        }
      ],
      "stateMutability": "view",
      "type": "function"
    },
    {
      "inputs": [],
      "name": "getCollector",
      "outputs": [
        {
          "internalType": "address",
          "name": "",
          "type": "address"
        }
      ],
      "stateMutability": "view",
      "type": "function"
    },
    {
      "inputs": [],
      "name": "getCommittedBalance",
      "outputs": [
        {
          "internalType": "uint256",
          "name": "",
          "type": "uint256"
        }
      ],
      "stateMutability": "view",
      "type": "function"
    },
    {
      "inputs": [],
      "name": "getCoverageFund",
      "outputs": [
        {
          "internalType": "address",
          "name": "",
          "type": "address"
        }
      ],
      "stateMutability": "view",
      "type": "function"
    },
    {
      "inputs": [],
      "name": "getCurrentEpochId",
      "outputs": [
        {
          "internalType": "uint256",
          "name": "",
          "type": "uint256"
        }
      ],
      "stateMutability": "view",
      "type": "function"
    },
    {
      "inputs": [],
      "name": "getCurrentFrame",
      "outputs": [
        {
          "internalType": "uint256",
          "name": "_startEpochId",
          "type": "uint256"
        },
        {
          "internalType": "uint256",
          "name": "_startTime",
          "type": "uint256"
        },
        {
          "internalType": "uint256",
          "name": "_endTime",
          "type": "uint256"
        }
      ],
      "stateMutability": "view",
      "type": "function"
    },
    {
      "inputs": [],
      "name": "getDailyCommittableLimits",
      "outputs": [
        {
          "components": [
            {
              "internalType": "uint128",
              "name": "minDailyNetCommittableAmount",
              "type": "uint128"
            },
            {
              "internalType": "uint128",
              "name": "maxDailyRelativeCommittableAmount",
              "type": "uint128"
            }
          ],
          "internalType": "struct DailyCommittableLimits.DailyCommittableLimitsStruct",
          "name": "",
          "type": "tuple"
        }
      ],
      "stateMutability": "view",
      "type": "function"
    },
    {
      "inputs": [],
      "name": "getDepositedValidatorCount",
      "outputs": [
        {
          "internalType": "uint256",
          "name": "",
          "type": "uint256"
        }
      ],
      "stateMutability": "view",
      "type": "function"
    },
    {
      "inputs": [],
      "name": "getELFeeRecipient",
      "outputs": [
        {
          "internalType": "address",
          "name": "",
          "type": "address"
        }
      ],
      "stateMutability": "view",
      "type": "function"
    },
    {
      "inputs": [],
      "name": "getExpectedEpochId",
      "outputs": [
        {
          "internalType": "uint256",
          "name": "",
          "type": "uint256"
        }
      ],
      "stateMutability": "view",
      "type": "function"
    },
    {
      "inputs": [
        {
          "internalType": "uint256",
          "name": "_epochId",
          "type": "uint256"
        }
      ],
      "name": "getFrameFirstEpochId",
      "outputs": [
        {
          "internalType": "uint256",
          "name": "",
          "type": "uint256"
        }
      ],
      "stateMutability": "view",
      "type": "function"
    },
    {
      "inputs": [],
      "name": "getGlobalFee",
      "outputs": [
        {
          "internalType": "uint256",
          "name": "",
          "type": "uint256"
        }
      ],
      "stateMutability": "view",
      "type": "function"
    },
    {
      "inputs": [],
      "name": "getKeeper",
      "outputs": [
        {
          "internalType": "address",
          "name": "",
          "type": "address"
        }
      ],
      "stateMutability": "view",
      "type": "function"
    },
    {
      "inputs": [],
      "name": "getLastCompletedEpochId",
      "outputs": [
        {
          "internalType": "uint256",
          "name": "",
          "type": "uint256"
        }
      ],
      "stateMutability": "view",
      "type": "function"
    },
    {
      "inputs": [],
      "name": "getLastConsensusLayerReport",
      "outputs": [
        {
          "components": [
            {
              "internalType": "uint256",
              "name": "epoch",
              "type": "uint256"
            },
            {
              "internalType": "uint256",
              "name": "validatorsBalance",
              "type": "uint256"
            },
            {
              "internalType": "uint256",
              "name": "validatorsSkimmedBalance",
              "type": "uint256"
            },
            {
              "internalType": "uint256",
              "name": "validatorsExitedBalance",
              "type": "uint256"
            },
            {
              "internalType": "uint256",
              "name": "validatorsExitingBalance",
              "type": "uint256"
            },
            {
              "internalType": "uint32",
              "name": "validatorsCount",
              "type": "uint32"
            },
            {
              "internalType": "bool",
              "name": "rebalanceDepositToRedeemMode",
              "type": "bool"
            },
            {
              "internalType": "bool",
              "name": "slashingContainmentMode",
              "type": "bool"
            }
          ],
          "internalType": "struct IOracleManagerV1.StoredConsensusLayerReport",
          "name": "",
          "type": "tuple"
        }
      ],
      "stateMutability": "view",
      "type": "function"
    },
    {
      "inputs": [],
      "name": "getMetadataURI",
      "outputs": [
        {
          "internalType": "string",
          "name": "",
          "type": "string"
        }
      ],
      "stateMutability": "view",
      "type": "function"
    },
    {
      "inputs": [],
      "name": "getOperatorsRegistry",
      "outputs": [
        {
          "internalType": "address",
          "name": "",
          "type": "address"
        }
      ],
      "stateMutability": "view",
      "type": "function"
    },
    {
      "inputs": [],
      "name": "getOracle",
      "outputs": [
        {
          "internalType": "address",
          "name": "",
          "type": "address"
        }
      ],
      "stateMutability": "view",
      "type": "function"
    },
    {
      "inputs": [],
      "name": "getPendingAdmin",
      "outputs": [
        {
          "internalType": "address",
          "name": "",
          "type": "address"
        }
      ],
      "stateMutability": "view",
      "type": "function"
    },
    {
      "inputs": [],
      "name": "getRedeemManager",
      "outputs": [
        {
          "internalType": "address",
          "name": "",
          "type": "address"
        }
      ],
      "stateMutability": "view",
      "type": "function"
    },
    {
      "inputs": [],
      "name": "getReportBounds",
      "outputs": [
        {
          "components": [
            {
              "internalType": "uint256",
              "name": "annualAprUpperBound",
              "type": "uint256"
            },
            {
              "internalType": "uint256",
              "name": "relativeLowerBound",
              "type": "uint256"
            }
          ],
          "internalType": "struct ReportBounds.ReportBoundsStruct",
          "name": "",
          "type": "tuple"
        }
      ],
      "stateMutability": "view",
      "type": "function"
    },
    {
      "inputs": [],
      "name": "getTime",
      "outputs": [
        {
          "internalType": "uint256",
          "name": "",
          "type": "uint256"
        }
      ],
      "stateMutability": "view",
      "type": "function"
    },
    {
      "inputs": [],
      "name": "getWithdrawalCredentials",
      "outputs": [
        {
          "internalType": "bytes32",
          "name": "",
          "type": "bytes32"
        }
      ],
      "stateMutability": "view",
      "type": "function"
    },
    {
      "inputs": [
        {
          "internalType": "address",
          "name": "_spender",
          "type": "address"
        },
        {
          "internalType": "uint256",
          "name": "_additionalValue",
          "type": "uint256"
        }
      ],
      "name": "increaseAllowance",
      "outputs": [
        {
          "internalType": "bool",
          "name": "",
          "type": "bool"
        }
      ],
      "stateMutability": "nonpayable",
      "type": "function"
    },
    {
      "inputs": [
        {
          "internalType": "address",
          "name": "_depositContractAddress",
          "type": "address"
        },
        {
          "internalType": "address",
          "name": "_elFeeRecipientAddress",
          "type": "address"
        },
        {
          "internalType": "bytes32",
          "name": "_withdrawalCredentials",
          "type": "bytes32"
        },
        {
          "internalType": "address",
          "name": "_oracleAddress",
          "type": "address"
        },
        {
          "internalType": "address",
          "name": "_systemAdministratorAddress",
          "type": "address"
        },
        {
          "internalType": "address",
          "name": "_allowlistAddress",
          "type": "address"
        },
        {
          "internalType": "address",
          "name": "_operatorRegistryAddress",
          "type": "address"
        },
        {
          "internalType": "address",
          "name": "_collectorAddress",
          "type": "address"
        },
        {
          "internalType": "uint256",
          "name": "_globalFee",
          "type": "uint256"
        }
      ],
      "name": "initRiverV1",
      "outputs": [],
      "stateMutability": "nonpayable",
      "type": "function"
    },
    {
      "inputs": [
        {
          "internalType": "address",
          "name": "_redeemManager",
          "type": "address"
        },
        {
          "internalType": "uint64",
          "name": "_epochsPerFrame",
          "type": "uint64"
        },
        {
          "internalType": "uint64",
          "name": "_slotsPerEpoch",
          "type": "uint64"
        },
        {
          "internalType": "uint64",
          "name": "_secondsPerSlot",
          "type": "uint64"
        },
        {
          "internalType": "uint64",
          "name": "_genesisTime",
          "type": "uint64"
        },
        {
          "internalType": "uint64",
          "name": "_epochsToAssumedFinality",
          "type": "uint64"
        },
        {
          "internalType": "uint256",
          "name": "_annualAprUpperBound",
          "type": "uint256"
        },
        {
          "internalType": "uint256",
          "name": "_relativeLowerBound",
          "type": "uint256"
        },
        {
          "internalType": "uint128",
          "name": "_minDailyNetCommittableAmount_",
          "type": "uint128"
        },
        {
          "internalType": "uint128",
          "name": "_maxDailyRelativeCommittableAmount_",
          "type": "uint128"
        }
      ],
      "name": "initRiverV1_1",
      "outputs": [],
      "stateMutability": "nonpayable",
      "type": "function"
    },
    {
      "inputs": [],
      "name": "initRiverV1_2",
      "outputs": [],
      "stateMutability": "nonpayable",
      "type": "function"
    },
    {
      "inputs": [
        {
          "internalType": "uint256",
          "name": "_epoch",
          "type": "uint256"
        }
      ],
      "name": "isValidEpoch",
      "outputs": [
        {
          "internalType": "bool",
          "name": "",
          "type": "bool"
        }
      ],
      "stateMutability": "view",
      "type": "function"
    },
    {
      "inputs": [],
      "name": "name",
      "outputs": [
        {
          "internalType": "string",
          "name": "",
          "type": "string"
        }
      ],
      "stateMutability": "pure",
      "type": "function"
    },
    {
      "inputs": [
        {
          "internalType": "address",
          "name": "_newAdmin",
          "type": "address"
        }
      ],
      "name": "proposeAdmin",
      "outputs": [],
      "stateMutability": "nonpayable",
      "type": "function"
    },
    {
      "inputs": [
        {
          "internalType": "uint256",
          "name": "_lsETHAmount",
          "type": "uint256"
        },
        {
          "internalType": "address",
          "name": "_recipient",
          "type": "address"
        }
      ],
      "name": "requestRedeem",
      "outputs": [
        {
          "internalType": "uint32",
          "name": "_redeemRequestId",
          "type": "uint32"
        }
      ],
      "stateMutability": "nonpayable",
      "type": "function"
    },
    {
      "inputs": [
        {
          "internalType": "uint32[]",
          "name": "_redeemRequestIds",
          "type": "uint32[]"
        }
      ],
      "name": "resolveRedeemRequests",
      "outputs": [
        {
          "internalType": "int64[]",
          "name": "withdrawalEventIds",
          "type": "int64[]"
        }
      ],
      "stateMutability": "view",
      "type": "function"
    },
    {
      "inputs": [],
      "name": "sendCLFunds",
      "outputs": [],
      "stateMutability": "payable",
      "type": "function"
    },
    {
      "inputs": [],
      "name": "sendCoverageFunds",
      "outputs": [],
      "stateMutability": "payable",
      "type": "function"
    },
    {
      "inputs": [],
      "name": "sendELFees",
      "outputs": [],
      "stateMutability": "payable",
      "type": "function"
    },
    {
      "inputs": [],
      "name": "sendRedeemManagerExceedingFunds",
      "outputs": [],
      "stateMutability": "payable",
      "type": "function"
    },
    {
      "inputs": [
        {
          "internalType": "address",
          "name": "_newAllowlist",
          "type": "address"
        }
      ],
      "name": "setAllowlist",
      "outputs": [],
      "stateMutability": "nonpayable",
      "type": "function"
    },
    {
      "inputs": [
        {
          "components": [
            {
              "internalType": "uint64",
              "name": "epochsPerFrame",
              "type": "uint64"
            },
            {
              "internalType": "uint64",
              "name": "slotsPerEpoch",
              "type": "uint64"
            },
            {
              "internalType": "uint64",
              "name": "secondsPerSlot",
              "type": "uint64"
            },
            {
              "internalType": "uint64",
              "name": "genesisTime",
              "type": "uint64"
            },
            {
              "internalType": "uint64",
              "name": "epochsToAssumedFinality",
              "type": "uint64"
            }
          ],
          "internalType": "struct CLSpec.CLSpecStruct",
          "name": "_newValue",
          "type": "tuple"
        }
      ],
      "name": "setCLSpec",
      "outputs": [],
      "stateMutability": "nonpayable",
      "type": "function"
    },
    {
      "inputs": [
        {
          "internalType": "address",
          "name": "_newCollector",
          "type": "address"
        }
      ],
      "name": "setCollector",
      "outputs": [],
      "stateMutability": "nonpayable",
      "type": "function"
    },
    {
      "inputs": [
        {
          "components": [
            {
              "internalType": "uint256",
              "name": "epoch",
              "type": "uint256"
            },
            {
              "internalType": "uint256",
              "name": "validatorsBalance",
              "type": "uint256"
            },
            {
              "internalType": "uint256",
              "name": "validatorsSkimmedBalance",
              "type": "uint256"
            },
            {
              "internalType": "uint256",
              "name": "validatorsExitedBalance",
              "type": "uint256"
            },
            {
              "internalType": "uint256",
              "name": "validatorsExitingBalance",
              "type": "uint256"
            },
            {
              "internalType": "uint32",
              "name": "validatorsCount",
              "type": "uint32"
            },
            {
              "internalType": "uint32[]",
              "name": "stoppedValidatorCountPerOperator",
              "type": "uint32[]"
            },
            {
              "internalType": "bool",
              "name": "rebalanceDepositToRedeemMode",
              "type": "bool"
            },
            {
              "internalType": "bool",
              "name": "slashingContainmentMode",
              "type": "bool"
            }
          ],
          "internalType": "struct IOracleManagerV1.ConsensusLayerReport",
          "name": "_report",
          "type": "tuple"
        }
      ],
      "name": "setConsensusLayerData",
      "outputs": [],
      "stateMutability": "nonpayable",
      "type": "function"
    },
    {
      "inputs": [
        {
          "internalType": "address",
          "name": "_newCoverageFund",
          "type": "address"
        }
      ],
      "name": "setCoverageFund",
      "outputs": [],
      "stateMutability": "nonpayable",
      "type": "function"
    },
    {
      "inputs": [
        {
          "components": [
            {
              "internalType": "uint128",
              "name": "minDailyNetCommittableAmount",
              "type": "uint128"
            },
            {
              "internalType": "uint128",
              "name": "maxDailyRelativeCommittableAmount",
              "type": "uint128"
            }
          ],
          "internalType": "struct DailyCommittableLimits.DailyCommittableLimitsStruct",
          "name": "_dcl",
          "type": "tuple"
        }
      ],
      "name": "setDailyCommittableLimits",
      "outputs": [],
      "stateMutability": "nonpayable",
      "type": "function"
    },
    {
      "inputs": [
        {
          "internalType": "address",
          "name": "_newELFeeRecipient",
          "type": "address"
        }
      ],
      "name": "setELFeeRecipient",
      "outputs": [],
      "stateMutability": "nonpayable",
      "type": "function"
    },
    {
      "inputs": [
        {
          "internalType": "uint256",
          "name": "_newFee",
          "type": "uint256"
        }
      ],
      "name": "setGlobalFee",
      "outputs": [],
      "stateMutability": "nonpayable",
      "type": "function"
    },
    {
      "inputs": [
        {
          "internalType": "address",
          "name": "_keeper",
          "type": "address"
        }
      ],
      "name": "setKeeper",
      "outputs": [],
      "stateMutability": "nonpayable",
      "type": "function"
    },
    {
      "inputs": [
        {
          "internalType": "string",
          "name": "_metadataURI",
          "type": "string"
        }
      ],
      "name": "setMetadataURI",
      "outputs": [],
      "stateMutability": "nonpayable",
      "type": "function"
    },
    {
      "inputs": [
        {
          "internalType": "address",
          "name": "_oracleAddress",
          "type": "address"
        }
      ],
      "name": "setOracle",
      "outputs": [],
      "stateMutability": "nonpayable",
      "type": "function"
    },
    {
      "inputs": [
        {
          "components": [
            {
              "internalType": "uint256",
              "name": "annualAprUpperBound",
              "type": "uint256"
            },
            {
              "internalType": "uint256",
              "name": "relativeLowerBound",
              "type": "uint256"
            }
          ],
          "internalType": "struct ReportBounds.ReportBoundsStruct",
          "name": "_newValue",
          "type": "tuple"
        }
      ],
      "name": "setReportBounds",
      "outputs": [],
      "stateMutability": "nonpayable",
      "type": "function"
    },
    {
      "inputs": [
        {
          "internalType": "uint256",
          "name": "_underlyingAssetAmount",
          "type": "uint256"
        }
      ],
      "name": "sharesFromUnderlyingBalance",
      "outputs": [
        {
          "internalType": "uint256",
          "name": "",
          "type": "uint256"
        }
      ],
      "stateMutability": "view",
      "type": "function"
    },
    {
      "inputs": [],
      "name": "symbol",
      "outputs": [
        {
          "internalType": "string",
          "name": "",
          "type": "string"
        }
      ],
      "stateMutability": "pure",
      "type": "function"
    },
    {
      "inputs": [],
      "name": "totalSupply",
      "outputs": [
        {
          "internalType": "uint256",
          "name": "",
          "type": "uint256"
        }
      ],
      "stateMutability": "view",
      "type": "function"
    },
    {
      "inputs": [],
      "name": "totalUnderlyingSupply",
      "outputs": [
        {
          "internalType": "uint256",
          "name": "",
          "type": "uint256"
        }
      ],
      "stateMutability": "view",
      "type": "function"
    },
    {
      "inputs": [
        {
          "internalType": "address",
          "name": "_to",
          "type": "address"
        },
        {
          "internalType": "uint256",
          "name": "_value",
          "type": "uint256"
        }
      ],
      "name": "transfer",
      "outputs": [
        {
          "internalType": "bool",
          "name": "",
          "type": "bool"
        }
      ],
      "stateMutability": "nonpayable",
      "type": "function"
    },
    {
      "inputs": [
        {
          "internalType": "address",
          "name": "_from",
          "type": "address"
        },
        {
          "internalType": "address",
          "name": "_to",
          "type": "address"
        },
        {
          "internalType": "uint256",
          "name": "_value",
          "type": "uint256"
        }
      ],
      "name": "transferFrom",
      "outputs": [
        {
          "internalType": "bool",
          "name": "",
          "type": "bool"
        }
      ],
      "stateMutability": "nonpayable",
      "type": "function"
    },
    {
      "inputs": [
        {
          "internalType": "uint256",
          "name": "_shares",
          "type": "uint256"
        }
      ],
      "name": "underlyingBalanceFromShares",
      "outputs": [
        {
          "internalType": "uint256",
          "name": "",
          "type": "uint256"
        }
      ],
      "stateMutability": "view",
      "type": "function"
    },
    {
      "inputs": [],
      "name": "version",
      "outputs": [
        {
          "internalType": "string",
          "name": "",
          "type": "string"
        }
      ],
      "stateMutability": "pure",
      "type": "function"
    },
    {
      "stateMutability": "payable",
      "type": "receive"
    }
  ],
  "transactionHash": "0x8583b99188e576e5181bab163c425c5629dd58f8a375ae15143892e7eae3f6a4",
  "args": [],
  "numDeployments": 1,
  "solcInputHash": "a7ddca3914142be28d7ebbaeaa44c2a3",
  "bytecode": "0x60808060405234610093577f1809e49bba43f2d39fa57894b50cd6ccb428cc438230e065cac3eb24a1355a7190600019807f82055909238c0f5e63d6f174068ebb8f51bcec9bd37de63bb68f6551feec0cfc558152604060208201523660408201523660006060830137600060603683010152606081601f19601f3601168101030190a16040516158e09081620000998239f35b600080fdfe6080604052600436101561001d575b36614dd05761001b614dc7565b005b60003560e01c8063020f086e146104e85780630407de47146104e357806304843a17146104de578063056850c6146104d957806306fdde03146104d4578063095ea7b3146104cf5780630e18b681146104ca578063107703ab146104c5578063107d7fa0146104c05780631311cf8d146104bb578063143a08d4146104b6578063147bf6c4146104b15780631546962b146104ac57806315ca4cee146104a757806317e64858146104a257806318160ddd1461049d5780631bcbfaba1461049857806323b872dd14610493578063281a31221461048e578063291206f6146104895780632cb562e1146104845780632d6b59bf1461047f5780632dc5c97c1461047a578063313ce5671461047557806336bf33251461039e578063391b6f4e14610470578063395093511461046b5780633af9e6691461046657806346425ef0146104615780634b47b74f1461045c5780635022820114610457578063540bc5ea1461045257806354a29cdc1461044d57806354fd4d5014610448578063557ed1ba14610443578063563967151461043e57806357fa85471461043957806358bf3c7f146104345780635d95e8011461042f5780635f2e5f071461042a57806363f62aaf146104255780636e9960c31461042057806370a082311461041b57806372f79b1314610416578063748747e614610411578063750521f51461040c57806378a010e814610407578063799a1954146104025780637adbf973146103fd578063833b1fce146103f857806386a92af7146103f357806387f2adfb146103ee57806389896aef146103e95780639332525d146103e457806395d89b41146103df5780639b498e26146103da5780639d49cca1146103d5578063a29a839f146103d0578063a457c2d7146103cb578063a9059cbb146103c6578063ac232bde146103c1578063bb6583ec146103bc578063bf15af56146103b7578063c5eff3d0146103b2578063d0468156146103ad578063d0e30db0146103a8578063d4970524146103a3578063d7f8f4741461039e578063d96f186d14610399578063dd62ed3e14610394578063e3a88e611461038f578063efd603471461038a578063efd6684614610385578063f79c3f0214610380578063f9f95a901461037b578063fb5b82d0146103765763fe7c12ae0361000e57612bca565b612b4d565b612b1d565b612aff565b61251b565b6124ee565b6124ad565b612448565b612218565b611220565b6121eb565b6121d6565b6121a0565b61216a565b61214e565b6120e7565b6120c2565b612049565b611fe9565b611fc6565b611f90565b611f5a565b611f14565b611e19565b611db0565b611d85565b611cb9565b611c83565b611c42565b611c24565b611b34565b611ac2565b61197c565b61188d565b611846565b611810565b6117da565b6116a1565b611606565b611589565b611547565b61151c565b611501565b6114bb565b611411565b6113f5565b6113bf565b611351565b611326565b6112df565b61127a565b611244565b611204565b61119d565b611172565b61113c565b6110d2565b610ee2565b610d97565b610d6c565b610d41565b610bfe565b610b6f565b610b39565b610ac5565b610aa2565b610a25565b6109f4565b610887565b61081d565b6107ec565b610796565b61070d565b6106e2565b610648565b61058c565b600435906001600160a01b038216820361050357565b600080fd5b602435906001600160a01b038216820361050357565b606435906001600160a01b038216820361050357565b608435906001600160a01b038216820361050357565b60a435906001600160a01b038216820361050357565b60c435906001600160a01b038216820361050357565b60e435906001600160a01b038216820361050357565b34610503576020366003190112610503576105a56104ed565b6000805160206157ab833981519152546001600160a01b03919082163303610609576105d08161504f565b8060008051602061584b83398151915255167f67b26a33f305cc027b2d45b2f6f418793afcd3e22f7376afa7be068ce18604e8600080a2005b60405163472511eb60e11b8152336004820152602490fd5b6001600160401b0381160361050357565b602435906001600160801b038216820361050357565b3461050357610140366003190112610503576106626104ed565b60243561066e81610621565b6044359161067b83610621565b6064359161068883610621565b6084359161069583610621565b60a4356106a181610621565b6001600160801b03946101043594908686168603610503576101243596871687036105035761001b9760e4359560c43595612cf0565b600091031261050357565b346105035760003660031901126105035760206000805160206157eb83398151915254604051908152f35b6000366003190112610503576000805160206155ab833981519152546001600160a01b0316330361060957005b60005b83811061074d5750506000910152565b818101518382015260200161073d565b906020916107768151809281855285808601910161073a565b601f01601f1916010190565b90602061079392818152019061075d565b90565b34610503576000366003190112610503576107e86040516107b6816119fd565b6011815270098d2e2ead2c840a6e8c2d6cac8408aa89607b1b602082015260405191829160208352602083019061075d565b0390f35b34610503576040366003190112610503576108126108086104ed565b6024359033614b55565b602060405160018152f35b34610503576000806003193601126108845760008051602061556b8339815191528054906001600160a01b03821633036106095761085b8392612bf5565b55807f2a0f8515de3fa34ef68b99300347b8793c01683350743e96fe440594528298f48180a280f35b80fd5b34610503576040366003190112610503576004356108a3610508565b60008051602061582b833981519152549091906108d0906001600160a01b03165b6001600160a01b031690565b91823b1561050357604051632d20488160e11b815233600480830191909152602482015292600090849060449082905afa9182156109d65761097a936020936109db575b50610920813033614bc5565b506000805160206155ab83398151915254610943906001600160a01b03166108c4565b60405163107703ab60e01b815260048101929092526001600160a01b03909216602482015292839190829060009082906044820190565b03925af180156109d6576107e8916000916109a8575b5060405163ffffffff90911681529081906020820190565b6109c9915060203d81116109cf575b6109c18183611a6a565b81019061300e565b38610990565b503d6109b7565b613002565b806109e86109ee926119e5565b806106d7565b38610914565b3461050357600036600319011261050357602063ffffffff6000805160206157cb8339815191525416604051908152f35b3461050357602036600319011261050357610a3e6104ed565b6000805160206157ab833981519152546001600160a01b0391908216330361060957610a698161504f565b8060008051602061564b83398151915255167f1da4c245099590dc40be61880c9b97792f3694d970acc1e67ac0e6cc90f3780d600080a2005b34610503576000366003190112610503576020610abd613f5a565b604051908152f35b3461050357602036600319011261050357610ade6104ed565b6000805160206157ab833981519152546001600160a01b03919082163303610609578060008051602061556b83398151915255167f2a0f8515de3fa34ef68b99300347b8793c01683350743e96fe440594528298f4600080a2005b346105035760003660031901126105035760008051602061584b833981519152546040516001600160a01b039091168152602090f35b34610503576040366003190112610503576000805160206157ab833981519152546001600160a01b03163303610609577f5ab79ffcd89b6380c7fbdd89d02cfe3d9c53c99a85e150c2319075018d1aac5c604051610bcc816119fd565b600435808252610be460243592836020820152615497565b60408051918252602082019290925290819081015b0390a1005b3461050357600036600319011261050357610c176139b4565b506107e8604051610c2781611a18565b60008051602061562b83398151915254815260008051602061550b8339815191525460208201526000805160206155eb83398151915254604082015260008051602061568b8339815191525460608201527fdbc0527c99b54cd325d6ce9eaae3a8413cd447b5205f37385f0ebc6551033c705460808201526000805160206157cb8339815191525463ffffffff811660a0830152610cdd9060ff90602081901c8216151560c085015260281c16151560e0830152565b6040519182918291909160e080610100830194805184526020810151602085015260408101516040850152606081015160608501526080810151608085015263ffffffff60a08201511660a085015260c0810151151560c085015201511515910152565b3461050357600036600319011261050357602060008051602061558b83398151915254604051908152f35b3461050357600036600319011261050357602060008051602061578b83398151915254604051908152f35b3461050357606036600319011261050357610db06104ed565b610db8610508565b60443591610dc682826149d0565b8215610ed05782610dd6826154e3565b5410610ebe576001600160a01b0382811615610e92576001600160a01b038216600090815260008051602061572b8339815191526020908152604080832033845290915290205490848210610e65576107e8610e40868686868360018201610e52575b5050614bc5565b60405190151581529081906020820190565b610e5e91033383614b55565b8583610e39565b604051637b936de360e01b8152921660048301523360248301526044820152606481019290925250608490fd5b604051637617407560e11b81526001600160a01b038316600482015260006024820152604490fd5b0390fd5b6040516351940b3960e11b8152600490fd5b6040516336b216db60e21b8152600490fd5b346105035761012036600319011261050357610efc6104ed565b610f04610508565b90610f0d61051e565b90610f16610534565b92610f1f61054a565b93610f28610560565b90610f31610576565b95610104359160008051602061552b8339815191528054806110b3575060019055610f5b90612bf5565b610f648761504f565b6000805160206156eb8339815191528790556000966001600160a01b03948593849283167f0cc5437d7c9c1d9eab549acbb533eea3e9868e9443dd75309ed5820b33a3774e8b80a2610fb581615262565b60405190815260207fbd533e726baaf59b36f3914d950053f7e78f527057c97cd3f0043257fc0fc88491a1610fe98161504f565b8060008051602061564b83398151915255167f1da4c245099590dc40be61880c9b97792f3694d970acc1e67ac0e6cc90f3780d8880a2611028816150c1565b167f30f015a5d3c72c0a9414538199baa022323a483fa9e4ba2cd581596cf8ca04248680a261105681615419565b167fffc0721ef0563a1b0a51a0dc92113025f33ca434ada9ee3eebff2f385d2a8f9a8480a260443561108791613347565b61109090613936565b6040518061109e3682612c63565b0360008051602061554b83398151915291a180f35b60449060405190631cfd276760e31b8252600060048301526024820152fd5b34610503576020366003190112610503576000805160206157ab83398151915254600435906001600160a01b03163303610609576020816111337fbd533e726baaf59b36f3914d950053f7e78f527057c97cd3f0043257fc0fc88493615262565b604051908152a1005b346105035760003660031901126105035760008051602061564b833981519152546040516001600160a01b039091168152602090f35b346105035760003660031901126105035760206000805160206156ab83398151915254604051908152f35b34610503576000366003190112610503576111b66139f2565b5060a06111c16150dc565b6040519060806001600160401b03918281511684528260208201511660208501528260408201511660408501528260608201511660608501520151166080820152f35b3461050357600036600319011261050357602060405160128152f35b346105035760003660031901126105035760206040516801bc16d674ec8000008152f35b346105035760003660031901126105035760008051602061576b833981519152546040516001600160a01b039091168152602090f35b34610503576040366003190112610503576112936104ed565b33600090815260008051602061572b833981519152602090815260408083206001600160a01b038516845290915290205460243581018091116112da576108129133614b55565b612c40565b34610503576020366003190112610503576001600160a01b036113006104ed565b1660005260008051602061588b8339815191526020526020610abd604060002054614c42565b3461050357600036600319011261050357602060008051602061550b83398151915254604051908152f35b346105035760003660031901126105035761136a6150dc565b611373816148cd565b9060008051602061562b83398151915254906001600160401b03908181511683018093116112da57511680156113ba57820682039182116112da57602091610abd91615082565b612f5e565b34610503576000366003190112610503576000805160206156eb833981519152546040516001600160a01b039091168152602090f35b3461050357600036600319011261050357602060405160608152f35b346105035760003660031901126105035760008051602061552b83398151915280548060020361149c576003825561147f60008051602061580b833981519152546114696801bc16d674ec80000082068092036132fc565b6000805160206157eb83398151915254016132af565b60008051602061554b83398151915260405180610bf93682612c92565b60449060405190631cfd276760e31b8252600260048301526024820152fd5b34610503576000366003190112610503576107e86040516114db816119fd565b60058152640312e322e360dc1b602082015260405191829160208352602083019061075d565b34610503576000366003190112610503576020604051428152f35b3461050357600036600319011261050357602060008051602061560b83398151915254604051908152f35b34610503576020366003190112610503576004356001600160401b0361156b6150dc565b511680156113ba57810681039081116112da57602090604051908152f35b34610503576020366003190112610503576115a26104ed565b6000805160206157ab833981519152546001600160a01b03919082163303610609576115cd8161504f565b8060008051602061582b83398151915255167f30f015a5d3c72c0a9414538199baa022323a483fa9e4ba2cd581596cf8ca0424600080a2005b60003660031901126105035760008051602061560b833981519152546001600160a01b0316330361060957005b9181601f84011215610503578235916001600160401b038311610503576020808501948460051b01011161050357565b6020908160408183019282815285518094520193019160005b82811061168a575050505090565b835160070b8552938101939281019260010161167c565b3461050357602080600319360112610503576001600160401b03600435818111610503576116d3903690600401611633565b60018060a01b036000805160206155ab8339815191525416906040518092635f2e5f0760e01b8252866004830152818061171560009788966024840191612fbd565b03915afa9283156109d6578293611735575b604051806107e88682611663565b909192503d8084843e6117488184611a6a565b82019184818403126117d65780519182116117d657019181601f840112156108845782519061177682612f8d565b936117846040519586611a6a565b828552858086019360051b8201019384116117d2578501915b8383106117b557505050506107e89150388080611727565b82518060070b81036117ce57815291850191850161179d565b8280fd5b5080fd5b8380fd5b34610503576000366003190112610503576000805160206155ab833981519152546040516001600160a01b039091168152602090f35b34610503576000366003190112610503576000805160206157ab833981519152546040516001600160a01b039091168152602090f35b34610503576020366003190112610503576001600160a01b036118676104ed565b1660005260008051602061588b8339815191526020526020604060002054604051908152f35b34610503576000366003190112610503576118a66150dc565b6118af816148cd565b6001600160401b0382511680156113ba57810681039081116112da576107e861195f61195a8461191b61190f61194c8761191b61190f61194c61194661190f611938604061192160208d019861191b61190f8b516001600160401b031690565b6001600160401b031690565b90613461565b9b019a61191b61190f8d516001600160401b031690565b9e516001600160401b031690565b8c612c56565b92516001600160401b031690565b613474565b604051938493846040919493926060820195825260208201520152565b34610503576020366003190112610503576119956104ed565b6000805160206157ab833981519152546001600160a01b03163303610609576119bd8161504f565b60008051602061576b83398151915255005b634e487b7160e01b600052604160045260246000fd5b6001600160401b0381116119f857604052565b6119cf565b604081019081106001600160401b038211176119f857604052565b61010081019081106001600160401b038211176119f857604052565b60a081019081106001600160401b038211176119f857604052565b608081019081106001600160401b038211176119f857604052565b90601f801991011681019081106001600160401b038211176119f857604052565b60405190611a9882611a34565b565b60405190611a98826119fd565b6001600160401b0381116119f857601f01601f191660200190565b34610503576020366003190112610503576004356001600160401b0381116105035736602382011215610503578060040135611afd81611aa7565b90611b0b6040519283611a6a565b808252366024828501011161050357602081600092602461001b960183860137830101526130a6565b346105035760a0366003190112610503576000805160206157ab833981519152546001600160a01b0316330361060957611bca604051611b7381611a34565b600435611b7f81610621565b8152602435611b8d81610621565b6020820152604435611b9e81610621565b6040820152606435611baf81610621565b6060820152608435611bc081610621565b608082015261516a565b7f25777eb44be046f64180acf8275f0ac2ec51e63a65a5f8a0f2f6d86ba25b74cf611bf3613a1d565b611bfb613a29565b90610bf9611c07613a35565b611c0f613a41565b611c17613a4d565b9160405195869586613981565b34610503576020366003190112610503576020610abd600435614c65565b3461050357602036600319011261050357611c5b6104ed565b6000805160206157ab833981519152546001600160a01b031633036106095761001b90613936565b34610503576000366003190112610503576000805160206155cb833981519152546040516001600160a01b039091168152602090f35b3461050357600080600319360112610884576040518160008051602061570b8339815191528054611ce98161537e565b80855291600191808316908115611d5a5750600114611d1f575b6107e885611d1381890382611a6a565b60405191829182610782565b835260208084209095505b828410611d4757505050816107e893611d13928201019338611d03565b8054858501870152928501928101611d2a565b90506107e89650611d139450602092508593915060ff191682840152151560051b8201019338611d03565b346105035760003660031901126105035760206000805160206156cb83398151915254604051908152f35b3461050357600036600319011261050357602060008051602061562b83398151915254604051908152f35b6020908160408183019282815285518094520193019160005b828110611e02575050505090565b835160ff1685529381019392810192600101611df4565b3461050357600319604036820112610503576001600160401b0360043581811161050357611e4b903690600401611633565b6024929192359182116105035760009283611ec192611e71611eb2953690600401611633565b94909760018060a01b036000805160206155ab833981519152541695604051998a9889978896637c044e5560e01b8852608060048901526084880191612fbd565b92858403016024860152612fbd565b6001604483015261ffff606483015203925af180156109d6576107e891600091611ef3575b5060405191829182611ddb565b611f0e913d8091833e611f068183611a6a565b810190613023565b38611ee6565b34610503576000366003190112610503576107e8604051611f34816119fd565b6005815264098e68aa8960db1b602082015260405191829160208352602083019061075d565b346105035760003660031901126105035760008051602061586b833981519152546040516001600160a01b039091168152602090f35b3461050357600036600319011261050357611fa9612f74565b506040611fb4615434565b60208251918051835201516020820152f35b34610503576000366003190112610503576020610abd611fe46150dc565b6148cd565b34610503576040366003190112610503576120026104ed565b33600090815260008051602061572b833981519152602090815260408083206001600160a01b038516845290915290205460243581039081116112da576108129133614b55565b34610503576040366003190112610503576120626104ed565b6024359061207081336149d0565b8115610ed05781612080336154e3565b5410610ebe576001600160a01b038116156120a3576107e891610e409133614bc5565b604051637617407560e11b815233600482015260006024820152604490fd5b60203660031901126105035761001b6120d96104ed565b6120e28161504f565b614de2565b3461050357604036600319011261050357604051612104816119fd565b6004356001600160801b0381168103610503578152612121610632565b60208201526000805160206157ab833981519152546001600160a01b031633036106095761001b9061323d565b3461050357600036600319011261050357602060405160308152f35b346105035760003660031901126105035760008051602061582b833981519152546040516001600160a01b039091168152602090f35b346105035760003660031901126105035760008051602061556b833981519152546040516001600160a01b039091168152602090f35b60003660031901126105035761001b33614de2565b60003660031901126105035760008051602061584b833981519152546001600160a01b0316330361060957005b34610503576040806003193601126105035760008051602061576b833981519152546001600160a01b031633036124385760008051602061566b833981519152546020919061226f906001600160a01b03166108c4565b81519283809263c5f2892f60e01b825260049586915afa9081156109d65760009161240a575b50602435036123fd5760008051602061580b83398151915254916122c581356801bc16d674ec8000008504615071565b9081156123ef576122d582613562565b819291519384156123df5784116123d05760008051602061560b833981519152549182156123c2575060005b848110612399577f220ab8fd274cf58c09b0825ccf00e74ba4ce4117fd47285adc2183a635838f1b86866123466123418b61233b8461342a565b9061349a565b6132fc565b610bf96123826000805160206156cb833981519152549261237c61236a8286612c56565b6000805160206156cb83398151915255565b83612c56565b925191825260208201929092529081906040820190565b806123bc846123aa60019488613400565b516123b58487613400565b5190613740565b01612301565b8551639be7315960e01b8152fd5b508351635993bd5760e01b8152fd5b855163200149ad60e21b81528390fd5b8251631036b5ad60e31b8152fd5b51632b3b4dab60e21b8152fd5b61242b915060203d8111612431575b6124238183611a6a565b8101906133e7565b38612295565b503d612419565b5163c60eb33560e01b8152600490fd5b346105035760403660031901126105035760206124a46124666104ed565b61246e610508565b6001600160a01b03918216600090815260008051602061572b833981519152855260408082209290931681526020919091522090565b54604051908152f35b34610503576000366003190112610503576124c6612f74565b5060406124d1615214565b815190602060018060801b03918281511684520151166020820152f35b60003660031901126105035760008051602061564b833981519152546001600160a01b0316330361060957005b346105035760206003198181360112610503576004906001600160401b038235116105035761012090823536030112610503576000805160206155cb833981519152546001600160a01b03163303612ae1576125756150dc565b81358201359061258c6125888383614906565b1590565b612ac457612598613a59565b9060008051602061568b833981519152546040830181815260648635013591808310612aa257506125ca90518261349a565b91608084019283526000805160206155eb8339815191525490606085019382855260448835013592808410612a7f575060a48835019461260986613ad7565b6000805160206156cb83398151915254908163ffffffff80921611908115612a42575b506129e45750916126c995939161266a8961264c6126bc9896518661349a565b9360a08b0194855260008051602061562b8339815191525490614986565b60c0890152612677613f5a565b88526126868151835190612c56565b6129d0575b50506126956139b4565b96875260248835013589880152604087015260608601526084863501356080860152613ad7565b63ffffffff1660a0840152565b6126e26126d960e4853501613aeb565b151560c0840152565b612706610104843501926127016126f885613aeb565b151560e0830152565b61528f565b61270e615434565b93612720825160c0840151908761496c565b612728613f5a565b83830181815284519097918490821161291c575050865161274a838651612c56565b106128de57509160c09161279a61282f946127897f49ac0d2bb2a688ca460f7993eb93eccd3b9c9188da6b0727e9a409cf8b105875995185519061349a565b61012085019081515251519061349a565b60e08301525b60e0820151908161289c575b505060e08101518061286b575b5060e081015180612852575b5061281861280d61012083019586515180612843575b506127ed60c489350189358a01613af5565b92906128056127ff60e48c3501613aeb565b93613aeb565b933691613b2a565b6084893501356144b2565b6128206142a7565b6128286147a0565b0151614814565b5190610bf960405192828493350183613bc1565b61284c90613e37565b386127db565b61285b90613d62565b60606101208301510152386127c5565b6040612879612891926141e1565b610120840190828251015251015160e083015161349a565b60e0820152386127b9565b6128a86128d292613c95565b610120840190828251015280516128c3838201518251612c56565b905251015160e083015161349a565b60e082015238806127ac565b8351965160c09094015190516040805163eb7a968960e01b815297880198895260208901959095529387015250506060840152509081900360800190fd5b61292f9061271092930192835190613461565b0461294288519161233b87518092615071565b1161299257509160c09161298861282f946129827f49ac0d2bb2a688ca460f7993eb93eccd3b9c9188da6b0727e9a409cf8b10587599855190519061349a565b90612c56565b60e08301526127a0565b8351965160c09094015190516040805163063bb83f60e11b815297880198895260208901959095529387015250506060840152509081900360800190fd5b6129dd9151905190614057565b388061268b565b89610eba6129f189613ad7565b92612a0e6000805160206157cb8339815191525463ffffffff1690565b90604051948594632f776b1760e01b8652850191939290604091606084019563ffffffff8093168552602085015216910152565b9050612a4d88613ad7565b90612a76612a6d6000805160206157cb8339815191525463ffffffff1690565b63ffffffff1690565b9116103861262c565b60408051636f24834360e01b8152808b0192835260208301869052918291010390fd5b60408051621ee1cf60e11b815280890192835260208301859052918291010390fd5b5060405163a225656d60e01b815291820190815281906020010390fd5b60405163472511eb60e11b8152339181019182529081906020010390fd5b34610503576020366003190112610503576020610abd600435614c42565b34610503576020366003190112610503576020612b43600435612b3e6150dc565b614906565b6040519015158152f35b3461050357602036600319011261050357612b666104ed565b6000805160206157ab833981519152546001600160a01b0391908216330361060957612b918161504f565b806000805160206156eb83398151915255167f0cc5437d7c9c1d9eab549acbb533eea3e9868e9443dd75309ed5820b33a3774e600080a2005b3461050357600036600319011261050357602060008051602061580b83398151915254604051908152f35b612bfe8161504f565b6000805160206157ab8339815191528190556001600160a01b03167f5a272403b402d892977df56625f4164ccaf70ca3863991c43ecfe76a6905b0a1600080a2565b634e487b7160e01b600052601160045260246000fd5b919082018092116112da57565b6060916000825260406020830152806040830152806000848401376000828201840152601f01601f1916010190565b6060916002825260406020830152806040830152806000848401376000828201840152601f01601f1916010190565b6060916001825260406020830152806040830152806000848401376000828201840152601f01601f1916010190565b979896959694919390929460008051602061552b833981519152805480600103612f3f575060029055612d228961504f565b6000805160206155ab833981519152899055604080516001600160a01b038b168152909a907faf890c07e266df31e0725841eb0e85596a0caa1b17bbae5c0b206fdcc92d7ce190602090a18a5191612d79836119fd565b6001600160801b039182168352166020820152612d959061323d565b612d9d611a8b565b6001600160401b03841681526001600160401b03851660208201526001600160401b038616818b01526001600160401b03821660608201526001600160401b0383166080820152612ded9061516a565b8851948594612dfc9486613981565b037f25777eb44be046f64180acf8275f0ac2ec51e63a65a5f8a0f2f6d86ba25b74cf91a1612e28611a9a565b828152816020820152612e3a90615497565b835191825260208201527f5ab79ffcd89b6380c7fbdd89d02cfe3d9c53c99a85e150c2319075018d1aac5c90604090a1612e726139b4565b7fd7f2d45e512a86049f7a113657b39731b6b558609584243063a52cd31a8eb5285481527ffedfd2c285a57fb23bf45a3fe9ac02d36a76ebb72801b1c8aaf553d74e9d4652546020820152600083820181905260608201819052608082018190527f0f1e7733641e4d843128fea0d2ec90d3d06a40b0fe244ff603d8c1aa200dc0f85463ffffffff1660a083015260c0820181905260e0820152612f159061528f565b612f1f9030614ad7565b5180612f2b3682612cc1565b0360008051602061554b83398151915291a1565b60449060405190631cfd276760e31b8252600160048301526024820152fd5b634e487b7160e01b600052601260045260246000fd5b60405190612f81826119fd565b60006020838281520152565b6001600160401b0381116119f85760051b60200190565b63ffffffff81160361050357565b3590611a9882612fa4565b91908082526020809201929160005b828110612fda575050505090565b90919293828060019263ffffffff8835612ff381612fa4565b16815201950193929101612fcc565b6040513d6000823e3d90fd5b90816020910312610503575161079381612fa4565b6020908181840312610503578051906001600160401b03821161050357019180601f8401121561050357825161305881612f8d565b936130666040519586611a6a565b818552838086019260051b820101928311610503578301905b82821061308d575050505090565b815160ff8116810361050357815290830190830161307f565b6000805160206157ab833981519152549091906001600160a01b031633036106095781511561322b578151916001600160401b0383116119f85760008051602061570b83398151915292613103816130fe865461537e565b6153b8565b602080601f83116001146131735750938161316393927f8d2df192dd17edf92a7964b78aa322f3d717b2ab9de00651bee32bbc4c5da63a9596600091613168575b508160011b916000199060031b1c191617905560405191829182610782565b0390a1565b905083015138613144565b60008051602061570b83398151915260005290601f1983167f992d979edf4f3c53d0b672011f4c4543809e6b0ed7af1d628abb72f3026d823f926000905b828210613213575050927f8d2df192dd17edf92a7964b78aa322f3d717b2ab9de00651bee32bbc4c5da63a959692600192826131639796106131fa575b5050811b019055611d13565b85015160001960f88460031b161c1916905538806131ee565b80600185968294968a015181550195019301906131b1565b604051638d46fe0560e01b8152600490fd5b60407e4180017d3dd609da6980999655a6bd2591e313d31d6230b1889c369a9713a09160018060801b0360208183511692015160018060801b03198160801b1683177fc305db9f63aeed94a45229ff5ab4174e72b223a38ab4c5e8f518ee4f437918d0558351928352166020820152a1565b6000805160206157eb833981519152805460408051918252602082018490527f48f67c1dada0cab2163f6282292ad97ea97376cfed46bb3851654aaa630db7279190819081015b0390a155565b60008051602061580b833981519152805460408051918252602082018490527f86fd21e9b5bd76b20471c7f93a82aa4e25c37d48b179bda0a4d1a45e22a842f49190819081016132f6565b6133508161504f565b60008051602061566b833981519152819055604051906001600160a01b03167e043cf7635f276413ae358250286a479a631abd9d74d57d4aa0bb87ebc7d117600080a281156133d857506020817f4c86ba184ea1a1558f84835ca34f6d67e222e8ee5cc4f324b8861dda4cf1740c9260008051602061560b83398151915255604051908152a1565b63a9cb9e0d60e01b8152600490fd5b90816020910312610503575190565b81156113ba570490565b80518210156134145760209160051b010190565b634e487b7160e01b600052603260045260246000fd5b906801bc16d674ec80000091808302928304036112da57565b906801bc16d674ec800000918281029281840414901517156112da57565b818102929181159184041417156112da57565b6000198101919082116112da57565b6801bc16d674ec7fffff198101919082116112da57565b919082039182116112da57565b9080601f83011215610503578151916134bf83612f8d565b926040906134cf82519586611a6a565b808552602093848087019260051b8501019381851161050357858101925b8584106134fe575050505050505090565b83516001600160401b0381116105035782019083603f8301121561050357878201519061352a82611aa7565b61353688519182611a6a565b82815285888486010111610503576135578a949385948a868501910161073a565b8152019301926134ed565b60008051602061586b8339815191525460405163277c9d4560e01b81526004810192909252600092919083908290602490829084906001600160a01b03165af19283156109d657809181946135b8575b50509190565b92915092503d8084843e6135cc8184611a6a565b82016040838203126117d65782516001600160401b039081811161361857826135f69186016134a7565b9360208101519182116136185761361093949550016134a7565b9138806135b2565b8580fd5b9061362f6020928281519485920161073a565b0190565b90611a9860306040518461365182965180926020808601910161073a565b810160006020820152036010810185520183611a6a565b90611a98604080518461368582965180926020808601910161073a565b810160006020820152036020810185520183611a6a565b9060405191634059730760d81b6020840152604083015260408252606082018281106001600160401b038211176119f857604052565b9190604051926020840152604083015260408252606082018281106001600160401b038211176119f857604052565b94939261372d60609361371f61373b9460808a5260808a019061075d565b9088820360208a015261075d565b90868203604088015261075d565b930152565b909160308251036139245760608351036139125761375d82613633565b604093845191826020809282613776600097889361361c565b03600293845afa156109d6578351828561379d61379287614fb0565b8b519182809261361c565b0390855afa156109d657845183866137ca6137bf6137ba89615009565b613668565b8c519182809261361c565b0390865afa156109d657856137e561379286938351906136d2565b0390855afa156109d6578285613800613792898351956136d2565b0390855afa156109d657828561381a61379282519461369c565b0390855afa156109d657829161384161383687938451906136d2565b8a519182809261361c565b03915afa156109d65782519361385647613483565b60008051602061566b833981519152549096906138a19061387f906001600160a01b03166108c4565b936138938a51948592830160209181520190565b03601f198101845283611a6a565b823b1561390e576801bc16d674ec800000906138d28951978896879586946304512a2360e31b865260048601613701565b03925af180156109d6576138fb575b5047036138eb5750565b51638051a6bb60e01b8152600490fd5b806109e8613908926119e5565b386138e1565b8480fd5b60405163408ebd3960e01b8152600490fd5b60405163050cb55360e41b8152600490fd5b61393f8161504f565b6000805160206155cb8339815191528190556001600160a01b03167fd3b5d1e0ffaeff528910f3663f0adace7694ab8241d58e17a91351ced2e08031600080a2565b6001600160401b039182168152918116602083015291821660408201529181166060830152909116608082015260a00190565b604051906139c182611a18565b8160e06000918281528260208201528260408201528260608201528260808201528260a08201528260c08201520152565b604051906139ff82611a34565b60006080838281528260208201528260408201528260608201520152565b60043561079381610621565b60243561079381610621565b60443561079381610621565b60643561079381610621565b60843561079381610621565b6040519061014082018281106001600160401b038211176119f857604052816101206000918281528260208201528260408201528260608201528260808201528260a08201528260c08201528260e08201528261010082015260405192613abf84611a4f565b80845280602085015280604085015260608401520152565b3561079381612fa4565b8015150361050357565b3561079381613ae1565b903590601e198136030182121561050357018035906001600160401b03821161050357602001918160051b3603831361050357565b9291613b3582612f8d565b91613b436040519384611a6a565b829481845260208094019160051b810192831161050357905b828210613b695750505050565b8380918335613b7781612fa4565b815201910190613b5c565b9035601e19823603018112156105035701602081359101916001600160401b038211610503578160051b3603831361050357565b3590611a9882613ae1565b92916020611a989260a08652803560a08701528181013560c0870152604081013560e0870152613c6f613c656101006060840135818a0152613c456101206080860135818c0152613c25613c1760a08801612fb2565b63ffffffff166101408d0152565b613c3260c0870187613b82565b90916101608d01526101c08c0191612fbd565b93613c5f613c5560e08301613bb6565b15156101808c0152565b01613bb6565b15156101a0880152565b940190606080918051845260208101516020850152604081015160408501520151910152565b60008051602061564b8339815191525447916001600160a01b0390911690813b156105035760009160248392604051948593849263c8a6dfd360e01b845260048401525af180156109d657613d53575b504790808203918083116112da5703613d2d575b6040518181527fda841d3042d792e2509a333b9dcbd4b3dd9b9047d382011f8788fab90ca7e3c79080602081015b0390a190565b613d4e613d49826000805160206157eb83398151915254612c56565b6132af565b613cf9565b613d5c906119e5565b38613ce5565b60008051602061584b833981519152546001600160a01b03168015613e30574790803b1561050357604051638ede6b6b60e01b815260048101939093526000908390602490829084905af19182156109d657613dc492613e1d575b504761349a565b80613dfc575b6040518181527fd500b67e5bd8019c0af744cadeec120d1b5e3d3a3a011f18cf182aa4c97947b6908060208101613d27565b613e18613d49826000805160206157eb83398151915254612c56565b613dca565b806109e8613e2a926119e5565b38613dbd565b5050600090565b60008051602061558b8339815191529081548015613f4857613e57613f5a565b9260008051602061578b83398151915254613e7b81613e768587613461565b613461565b906127108087029087820414871517156112da5761233b613e9c9287613461565b80613f395750506000905b81613eb4575b5050505050565b7f3d1669e813a9845c288f0e1f642a4343a451103b87886d12de37e63b39bbd94293613eff613f2c92613ef76000805160206156eb833981519152549586614c8d565b54918761349a565b9560405194859460018060a01b031697859094939260609260808301968352602083015260408201520152565b0390a23880808080613ead565b613f42916133f6565b90613ea7565b604051630d35acd760e21b8152600490fd5b63ffffffff6000805160206157cb83398151915254166000805160206156cb83398151915254808210600014613ffa57612982613ff561079393613fef613fd9613fc360008051602061550b833981519152546000805160206157eb8339815191525490612c56565b60008051602061580b8339815191525490612c56565b6000805160206156ab8339815191525490612c56565b9361349a565b613443565b505060008051602061550b833981519152546000805160206157eb8339815191525481018091116112da5760008051602061580b8339815191525481018091116112da576000805160206156ab8339815191525461079391612c56565b9190476140648285612c56565b60008051602061560b83398151915254909190614089906001600160a01b03166108c4565b803b156105035760405163ea74f47960e01b815260048101939093526000908390602490829084905af19182156109d6576140c992613e1d57504761349a565b926140d48282612c56565b840361416a577fcb5410dc8f29b2f498e023c3f9237dbd600255a717edf94a6072bcd03b0c773c92935080614149575b81614123575b6040805191825260208201929092529081908101613163565b61414461413f836000805160206156ab83398151915254612c56565b614196565b61410a565b614165613d49826000805160206157eb83398151915254612c56565b614104565b6141749250612c56565b6040516349a1938b60e01b815260048101919091526024810191909152604490fd5b6000805160206156ab833981519152805460408051918252602082018490527f215c2b83e8c232e42091088056ab75d2ff643855c32997024f786cddb22d22909190819081016132f6565b6000805160206155ab8339815191525447916001600160a01b0390911690813b1561050357600091602483926040519485938492630c77940160e01b845260048401525af180156109d657614298575b504790808203918083116112da5703614277575b6040518181527f4e484734eb4d444bfa106f917d05d9ceb8ce18bf516c85d7aeb9b322925339f9908060208101613d27565b614293613d49826000805160206157eb83398151915254612c56565b614245565b6142a1906119e5565b38614231565b6000805160206155ab833981519152546001600160a01b03166142c8613f5a565b60008051602061558b833981519152549015159081614440575b506142ea5750565b6040516303634a9560e21b8152906001600160a01b0316602082600481845afa9182156109d657600092614420575b508161432483614c42565b926000805160206156ab83398151915254908185116143e8575b604080519182526020820184905281018590527f709263092d8d9fef472d907900405b5edae3d76f8ff4354858025b18424d710190606090a183614383575b50505050565b8361438e9103614196565b6143988183614d0a565b813b156105035760405163b30d8bb760e01b815260048101919091529160009183916024918391905af180156109d6576143d5575b80808061437d565b806109e86143e2926119e5565b386143cd565b9150809350927f709263092d8d9fef472d907900405b5edae3d76f8ff4354858025b18424d710161441882614c65565b92905061433e565b61443991925060203d8111612431576124238183611a6a565b9038614319565b90501515386142e2565b92919060408401604085528151809152606085019060208093019060005b848282106144795750505050930152565b835163ffffffff1685529384019390920191600101614468565b919082604091031261050357602082516144ac81612fa4565b92015190565b60008051602061586b8339815191528054929594909390926144dc906001600160a01b03166108c4565b936000805160206156cb83398151915293845495803b156105035761451f966040998a5192838092632d01785d60e21b82528160009c8d9687936004840161444a565b03925af180156109d65761478d575b506145485760008051602061558b83398151915254614551575b50505050509050565b6000805160206156ab83398151915254906000805160206157eb83398151915254600460206145976108c46000805160206155ab8339815191525460018060a01b031690565b8b516303634a9560e21b815292839182905afa80156109d6576145c191899161476f575b50614c42565b93846145cd8786612c56565b106145db575b505050614548565b80614766575b614715575b50546145fa906001600160a01b03166108c4565b928751634a3c63bb60e01b81528881600481885afa9081156109d657879088926146e1575b5063ffffffff1690818111156146d65761463c91613ff59161349a565b91836146518461464c8585612c56565b612c56565b1061465d575b806145d3565b6146729261464c614677959361233b93612c56565b61508e565b915491813b156117d6579451632d1fc39d60e01b8152600481019590955260248501919091529192918290604490829084905af180156109d6576146c3575b8080808080808796614657565b806109e86146d0926119e5565b386146b6565b505061463c86613443565b63ffffffff925061470891508a3d8c1161470e575b6147008183611a6a565b810190614493565b9161461f565b503d6146f6565b61473161472b84614726888861349a565b61349a565b82615071565b8061473d575b506145e6565b91614760613d49846147566145fa966108c49698612c56565b9661472688614196565b91614737565b508015156145e1565b614787915060203d8111612431576124238183611a6a565b386145bb565b806109e861479a926119e5565b3861452e565b6000805160206156ab833981519152805490816147bb575050565b6000805160206157eb833981519152549182018092116112da576147e06000926132af565b7f215c2b83e8c232e42091088056ab75d2ff643855c32997024f786cddb22d2290604082548151908152846020820152a155565b61481c613f5a565b906000805160206157eb8339815191525491614836615214565b9160018060801b03602081855116940151168483039283116112da576201518061488361488993613e7661488f9761271061487c6801bc16d674ec800000998c98613461565b0490615082565b04615071565b04613443565b80614898575050565b60008051602061580b833981519152548181018091116112da576148bb906132fc565b81039081116112da57611a98906132af565b6001600160401b0390816060820151164203914283116112da57806040830151169182156113ba5760200151169182156113ba57040490565b90614910826148cd565b6001600160401b0390816080850151168301908184116112da5710159283614953575b8361493f575b50505090565b5116915081156113ba570615388080614939565b60008051602061562b8339815191525483119350614933565b91613e766149829264496cebb800945190613461565b0490565b9082039182116112da576001600160401b03908160208160408401511692015116029081169081036112da5761079391613461565b90816020910312610503575161079381613ae1565b60008051602061582b833981519152546149f2906001600160a01b03166108c4565b60405163e838dfbb60e01b8082526001600160a01b038416600483015260209390918481602481875afa9081156109d657600091614aba575b50614a6a57506040519081526001600160a01b0384166004820152908290829060249082905afa9182156109d657600092614a8d575b5050614a6a5750565b60405163e7d05e2760e01b81526001600160a01b03919091166004820152602490fd5b614aac9250803d10614ab3575b614aa48183611a6a565b8101906149bb565b3880614a61565b503d614a9a565b614ad19150853d8711614ab357614aa48183611a6a565b38614a2b565b614ae08161504f565b614ae98261504f565b6001600160a01b03908116600081815260008051602061572b83398151915260209081526040808320868616845282529091206000199492937f8c5be1e5ebec7d5bd14f71427d1e84f3dd0314c0f7b2291e5b200ac8c7c3b92593909186905b556040519586521693a3565b60207f8c5be1e5ebec7d5bd14f71427d1e84f3dd0314c0f7b2291e5b200ac8c7c3b92591614b828161504f565b614b8b8461504f565b6001600160a01b03908116600081815260008051602061572b83398151915284526040808220878516835260205290209094908690614b49565b9160018060a01b038093169160009383855260008051602061588b833981519152908160205260408620548481039081116112da57604092868852602052828720558216948581522054918083018093116112da5760008051602061574b83398151915292614c356020936154e3565b55604051908152a3600190565b60008051602061558b83398151915254908115613e30576149829061191b613f5a565b614c6d613f5a565b908115613e305760008051602061558b8339815191525461498291613461565b60008051602061558b833981519152548281018091116112da57614cb090614d89565b60018060a01b0316908160005260008051602061588b83398151915280602052604060002054908282018092116112da5760009260008051602061574b8339815191529260209286865283526040852055604051908152a3565b60008051602061558b833981519152548281039081116112da57614d2d90614d89565b6001600160a01b0316600081815260008051602061588b8339815191526020819052604090912054838103919082116112da5760009360008051602061574b8339815191529260209285875283526040862055604051908152a3565b60207fc80ea35a3f9016535e5b7c87746740c5045afe42188d02c5786eb97495c2f429918060008051602061558b83398151915255604051908152a1565b611a9833614de2565b60405163574b16a760e11b8152600490fd5b3415614f37576000805160206157eb833981519152543481018091116112da57614e0b906132af565b614e153433614f49565b60008051602061582b83398151915254614e37906001600160a01b03166108c4565b91823b1561050357604051632d20488160e11b815233600482015260016024820152600081604481875afa80156109d657614f24575b506001600160a01b0381169233849003614eb5575b50506040513481523391507f3bc57f469ad6d10d7723ea226cd22bd2b9e527def2b529f6ab44645a1668958290602090a3565b60405163e838dfbb60e01b81526001600160a01b038316600482015290602090829060249082905afa9081156109d657600091614f06575b50614a6a5790614efd9133614bc5565b50388080614e82565b614f1e915060203d8111614ab357614aa48183611a6a565b38614eed565b806109e8614f31926119e5565b38614e6d565b6040516395b66fe960e01b8152600490fd5b9190614f53613f5a565b908082038281116112da578160008051602061558b83398151915254931492838015614fa8575b15614f8d575050611a9891508093614c8d565b614f979192613461565b916113ba57611a9891048093614c8d565b508015614f7a565b6040815110614ff75760405190602080830191810190606084015b808410614fe65750505060408252601f801991011660405290565b825184529281019291810191614fcb565b604051633b99b53d60e01b8152600490fd5b6060815110614ff757604051906020808301916060604085019101905b80841061503e5750508252601f01601f191660405290565b815184529282019290820190615026565b6001600160a01b03161561505f57565b60405163f6b2911f60e01b8152600490fd5b8181111561507d575090565b905090565b8181101561507d575090565b6801bc16d674ec800000808204916000919006156150b9575060ff60015b1681018091116112da5790565b60ff906150ac565b6150ca8161504f565b60008051602061582b83398151915255565b6150e46139f2565b506040516150f181611a34565b7fd84ee2c84c954c65bef1459fe03b761a42f49234527e3cd8fd9dce87cb83742a546001600160401b03908181168352818160401c166020840152818160801c16604084015260c01c60608301527fd84ee2c84c954c65bef1459fe03b761a42f49234527e3cd8fd9dce87cb83742b5416608082015290565b60806001600160401b0391828151166020820151906040830151906001600160401b0360c01b606085015160c01b16926001600160401b0360401b9060401b1617906001600160401b03851b90851b1617177fd84ee2c84c954c65bef1459fe03b761a42f49234527e3cd8fd9dce87cb83742a550151167fd84ee2c84c954c65bef1459fe03b761a42f49234527e3cd8fd9dce87cb83742b906001600160401b0319825416179055565b61521c612f74565b50604051615229816119fd565b7fc305db9f63aeed94a45229ff5ab4174e72b223a38ab4c5e8f518ee4f437918d0546001600160801b038116825260801c602082015290565b612710811161527d5760008051602061578b83398151915255565b6040516358d620b360e01b8152600490fd5b61535360e0611a9892805160008051602061562b83398151915255602081015160008051602061550b8339815191525560408101516000805160206155eb83398151915255606081015160008051602061568b8339815191525560808101517fdbc0527c99b54cd325d6ce9eaae3a8413cd447b5205f37385f0ebc6551033c705563ffffffff60a0820151166000805160206157cb8339815191529081549064ff0000000060c0850151151560201b169164ffffffffff1916171790550151151590565b6000805160206157cb8339815191529060ff60281b825491151560281b169060ff60281b1916179055565b90600182811c921680156153ae575b602083101461539857565b634e487b7160e01b600052602260045260246000fd5b91607f169161538d565b601f81116153c4575050565b60009060008051602061570b833981519152825260208220906020601f850160051c8301941061540f575b601f0160051c01915b82811061540457505050565b8181556001016153f8565b90925082906153ef565b6154228161504f565b60008051602061586b83398151915255565b61543c612f74565b50604051615449816119fd565b7ff81b149de6749a3f46464b2cce61e24462f67599ea4a5ce028aaf4ab1521f96d5481527ff81b149de6749a3f46464b2cce61e24462f67599ea4a5ce028aaf4ab1521f96e54602082015290565b80517ff81b149de6749a3f46464b2cce61e24462f67599ea4a5ce028aaf4ab1521f96d55602001517ff81b149de6749a3f46464b2cce61e24462f67599ea4a5ce028aaf4ab1521f96e55565b6001600160a01b0316600090815260008051602061588b833981519152602052604090209056fedbc0527c99b54cd325d6ce9eaae3a8413cd447b5205f37385f0ebc6551033c6d82055909238c0f5e63d6f174068ebb8f51bcec9bd37de63bb68f6551feec0cfc1809e49bba43f2d39fa57894b50cd6ccb428cc438230e065cac3eb24a1355a716e6ab8b7c7aaba79eef8cc633522d606bb008c101cf9832c9ad05d10a98472806b842b424335d94ccad97e54548dfa02673c1268aba38d3c3c32d28c8988b70ae458cbedf69109e7d57b7f8c96816615aac0017187d87abab9001d22db32bae3c8cbea9407c380ae944f052b5a442330057683c5abdbd453493f9750806afecadbc0527c99b54cd325d6ce9eaae3a8413cd447b5205f37385f0ebc6551033c6eb649e50315f962b32d487e696a81b4828631b11f8424daaaa37e9e97766a2c41dbc0527c99b54cd325d6ce9eaae3a8413cd447b5205f37385f0ebc6551033c6c8e9e2a1d30fed357d8a000c1131fc77ed65d2052918caf1ccc6eb1e7af3d13b535efb61d8784060218d9d6aa40eae55904de43779c1afc79c74dfefcfdf9125fdbc0527c99b54cd325d6ce9eaae3a8413cd447b5205f37385f0ebc6551033c6f850308dd4e453a2a1bc3efb444560401d95c1a8bdea5b35c5c79531cd2241f1cc77078e3530c08cdb2440817c81de4836500b4708ea4d15672b7fe98956423a7082b6d18de7b10e438e6b1002141db737519cb4ceed679bc815e3aac00cd2226b63f3482ec84cb93d74a71645ad2e9e896fa02723e42170b4aad20a4bed6cdd5c852254d5b703a16bb13b3e233a335d6459c5da5db0ca732d7a684ee05407846ddf252ad1be2c89b69c2b068fc378daa952ba7f163c4a11628f55a4df523b3ef196d9102c3340d5a65e2b9be034bbfee2b1e2fa95880c2e72d47ee926be36321094efef62d2ce60c14ffacd35a1b50546d3a9d503aff1df040176fffd6c92a36b5b37715a3e346e996104f0086703f19825def429233930fd9399c38e05fb112dbc0527c99b54cd325d6ce9eaae3a8413cd447b5205f37385f0ebc6551033c712b6136e423ab70d76431e2a635e877e16ea2dd9a895e054ad7f35f89d6c7b710bcfa5a69252c74010ad3e9ab18cfbdc116fcf85f084db1a8dc577a339fbee58a867d8f1a5e39d11d5bebde854d5359a509530ad32450f581da63c06ec8d1a77ff4271262f3552a4108cde54dc75061de8de495709221d793b126e448522d6a7f3f075dea7ef99b1e5db245018e5e4ed8d2a0d93953f5932b2176bef59bd690600fb4a5ac9287f4f508aa7253ee2d57c6a228b1b30e210d73fffd59389d3a8837a26469706673582212200e0a7da5c4820b819507fa166f6d6f45a4e56e0934f113be708da955495359e564736f6c63430008140033",
  "devdoc": {
    "author": "Kiln",
    "errors": {
      "AllowanceTooLow(address,address,uint256,uint256)": [
        {
          "params": {
            "_allowance": "Current allowance",
            "_from": "Account where funds are sent from",
            "_operator": "Account attempting the transfer",
            "_value": "Requested transfer value in shares"
          }
        }
      ],
      "Denied(address)": [
        {
          "params": {
            "account": "The account that was denied"
          }
        }
      ],
      "InvalidDecreasingValidatorsExitedBalance(uint256,uint256)": [
        {
          "params": {
            "currentValidatorsExitedBalance": "The current exited balance",
            "newValidatorsExitedBalance": "The new exited balance"
          }
        }
      ],
      "InvalidDecreasingValidatorsSkimmedBalance(uint256,uint256)": [
        {
          "params": {
            "currentValidatorsSkimmedBalance": "The current exited balance",
            "newValidatorsSkimmedBalance": "The new exited balance"
          }
        }
      ],
      "InvalidEpoch(uint256)": [
        {
          "params": {
            "epoch": "Invalid epoch"
          }
        }
      ],
      "InvalidInitialization(uint256,uint256)": [
        {
          "params": {
            "expectedVersion": "The version that was expected",
            "version": "The version that was attempting to be initialized"
          }
        }
      ],
      "InvalidPulledClFundsAmount(uint256,uint256)": [
        {
          "params": {
            "received": "The amount that was received",
            "requested": "The amount that was requested"
          }
        }
      ],
      "InvalidValidatorCountReport(uint256,uint256,uint256)": [
        {
          "params": {
            "depositedValidatorCount": "The number of deposits performed by the system",
            "lastReportedValidatorCount": "The last reported validator count",
            "providedValidatorCount": "The received validator count value"
          }
        }
      ],
      "TotalValidatorBalanceDecreaseOutOfBound(uint256,uint256,uint256,uint256)": [
        {
          "params": {
            "postTotalEthIncludingExited": "The post-report total balance, including all exited balance",
            "prevTotalEthIncludingExited": "The previous total balance, including all exited balance",
            "relativeLowerBound": "The lower bound value that was used",
            "timeElapsed": "The time in seconds since last report"
          }
        }
      ],
      "TotalValidatorBalanceIncreaseOutOfBound(uint256,uint256,uint256,uint256)": [
        {
          "params": {
            "annualAprUpperBound": "The upper bound value that was used",
            "postTotalEthIncludingExited": "The post-report total balance, including all exited balance",
            "prevTotalEthIncludingExited": "The previous total balance, including all exited balance",
            "timeElapsed": "The time in seconds since last report"
          }
        }
      ],
      "Unauthorized(address)": [
        {
          "params": {
            "caller": "Address performing the call"
          }
        }
      ],
      "UnauthorizedTransfer(address,address)": [
        {
          "params": {
            "_from": "Account sending the funds in the invalid transfer",
            "_to": "Account receiving the funds in the invalid transfer"
          }
        }
      ]
    },
    "events": {
      "Approval(address,address,uint256)": {
        "details": "Emitted when the allowance of a `spender` for an `owner` is set by a call to {approve}. `value` is the new allowance."
      },
      "ConsensusLayerDataUpdate(uint256,uint256,bytes32)": {
        "params": {
          "roundId": "Round identifier",
          "validatorCount": "The new count of validators running on the consensus layer",
          "validatorTotalBalance": "The new total balance sum of all validators"
        }
      },
      "Initialize(uint256,bytes)": {
        "params": {
          "cdata": "Complete calldata that was used during the initialization",
          "version": "New version of the contracts"
        }
      },
      "ProcessedConsensusLayerReport((uint256,uint256,uint256,uint256,uint256,uint32,uint32[],bool,bool),(uint256,uint256,uint256,uint256))": {
        "params": {
          "report": "The report that was provided",
          "trace": "The trace structure providing more insights on internals"
        }
      },
      "PulledCLFunds(uint256,uint256)": {
        "params": {
          "pullExitedEthAmount": "The amount of exited ETH pulled",
          "pulledSkimmedEthAmount": "The amount of skimmed ETH pulled"
        }
      },
      "PulledCoverageFunds(uint256)": {
        "params": {
          "amount": "The amount pulled"
        }
      },
      "PulledELFees(uint256)": {
        "params": {
          "amount": "The amount pulled"
        }
      },
      "PulledRedeemManagerExceedingEth(uint256)": {
        "params": {
          "amount": "The amount pulled"
        }
      },
      "ReportedRedeemManager(uint256,uint256,uint256)": {
        "params": {
          "redeemManagerDemand": "The total demand in LsETH of the redeem manager",
          "suppliedRedeemManagerDemand": "The amount of LsETH demand actually supplied",
          "suppliedRedeemManagerDemandInEth": "The amount in ETH of the supplied demand"
        }
      },
      "RewardsEarned(address,uint256,uint256,uint256,uint256)": {
        "params": {
          "_collector": "The address of the collector during this event",
          "_newTotalSupply": "New total supply in shares",
          "_newTotalUnderlyingBalance": "New total ETH balance under management by River",
          "_oldTotalSupply": "Old total supply in shares",
          "_oldTotalUnderlyingBalance": "Old total ETH balance under management by River"
        }
      },
      "SetAdmin(address)": {
        "params": {
          "admin": "New admin address"
        }
      },
      "SetAllowlist(address)": {
        "params": {
          "allowlist": "The new Allowlist"
        }
      },
      "SetBalanceCommittedToDeposit(uint256,uint256)": {
        "params": {
          "newAmount": "The new balance committed to deposit",
          "oldAmount": "The old balance committed to deposit"
        }
      },
      "SetBalanceToDeposit(uint256,uint256)": {
        "params": {
          "newAmount": "The new balance to deposit",
          "oldAmount": "The old balance to deposit"
        }
      },
      "SetBalanceToRedeem(uint256,uint256)": {
        "params": {
          "newAmount": "The new balance to redeem",
          "oldAmount": "The old balance to redeem"
        }
      },
      "SetBounds(uint256,uint256)": {
        "params": {
          "annualAprUpperBound": "The reporting upper bound",
          "relativeLowerBound": "The reporting lower bound"
        }
      },
      "SetCollector(address)": {
        "params": {
          "collector": "The new Collector"
        }
      },
      "SetCoverageFund(address)": {
        "params": {
          "coverageFund": "The new Coverage Fund"
        }
      },
      "SetDepositContractAddress(address)": {
        "params": {
          "depositContract": "Address of the deposit contract"
        }
      },
      "SetDepositedValidatorCount(uint256,uint256)": {
        "params": {
          "newDepositedValidatorCount": "The new deposited validator count value",
          "oldDepositedValidatorCount": "The old deposited validator count value"
        }
      },
      "SetELFeeRecipient(address)": {
        "params": {
          "elFeeRecipient": "The new Execution Layer Fee Recipient"
        }
      },
      "SetGlobalFee(uint256)": {
        "params": {
          "fee": "The new Global Fee"
        }
      },
      "SetMaxDailyCommittableAmounts(uint256,uint256)": {
        "params": {
          "maxRelativeAmount": "The maximum amount that can be used as the daily committable amount, relative to the total underlying supply",
          "minNetAmount": "The minimum amount that must be used as the daily committable amount"
        }
      },
      "SetMetadataURI(string)": {
        "params": {
          "metadataURI": "The new Metadata URI string"
        }
      },
      "SetOperatorsRegistry(address)": {
        "params": {
          "operatorRegistry": "The new Operators Registry"
        }
      },
      "SetOracle(address)": {
        "params": {
          "oracleAddress": "The new oracle address"
        }
      },
      "SetPendingAdmin(address)": {
        "params": {
          "pendingAdmin": "New pending admin address"
        }
      },
      "SetRedeemManager(address)": {
        "params": {
          "redeemManager": "The address of the redeem manager"
        }
      },
      "SetSpec(uint64,uint64,uint64,uint64,uint64)": {
        "params": {
          "epochsPerFrame": "The number of epochs inside a frame",
          "epochsToAssumedFinality": "The number of epochs before an epoch is considered final",
          "genesisTime": "The genesis timestamp",
          "secondsPerSlot": "The number of seconds inside a slot",
          "slotsPerEpoch": "The number of slots inside an epoch"
        }
      },
      "SetWithdrawalCredentials(bytes32)": {
        "params": {
          "withdrawalCredentials": "The withdrawal credentials to use for deposits"
        }
      },
      "Transfer(address,address,uint256)": {
        "details": "Emitted when `value` tokens are moved from one account (`from`) to another (`to`). Note that `value` may be zero."
      },
      "UserDeposit(address,address,uint256)": {
        "params": {
          "amount": "Amount in ETH deposited",
          "depositor": "Address performing the deposit",
          "recipient": "Address receiving the minted shares"
        }
      }
    },
    "kind": "dev",
    "methods": {
      "acceptAdmin()": {
        "details": "Only callable by the pending admin. Resets the pending admin if succesful."
      },
      "allowance(address,address)": {
        "params": {
          "_owner": "Address that issued the allowance",
          "_spender": "Address that received the allowance"
        },
        "returns": {
          "_0": "The allowance in shares for a given spender"
        }
      },
      "approve(address,uint256)": {
        "details": "An approved account can use transferFrom to transfer funds on behalf of the token owner",
        "params": {
          "_spender": "Address that is allowed to spend the tokens",
          "_value": "The allowed amount in shares, will override previous value"
        },
        "returns": {
          "_0": "True if success"
        }
      },
      "balanceOf(address)": {
        "params": {
          "_owner": "Address to be checked"
        },
        "returns": {
          "_0": "The balance of the account in shares"
        }
      },
      "balanceOfUnderlying(address)": {
        "params": {
          "_owner": "Address to be checked"
        },
        "returns": {
          "_0": "The underlying balance of the account"
        }
      },
      "claimRedeemRequests(uint32[],uint32[])": {
        "params": {
          "_redeemRequestIds": "The list of redeem requests to claim",
          "_withdrawalEventIds": "The list of resolved withdrawal event ids"
        },
        "returns": {
          "claimStatuses": "The operation status results"
        }
      },
      "decimals()": {
        "returns": {
          "_0": "The decimal count"
        }
      },
      "decreaseAllowance(address,uint256)": {
        "params": {
          "_spender": "Spender that receives the allowance",
          "_subtractableValue": "Amount of shares to subtract"
        },
        "returns": {
          "_0": "True if success"
        }
      },
      "depositAndTransfer(address)": {
        "params": {
          "_recipient": "Address receiving the minted LsETH"
        }
      },
      "depositToConsensusLayerWithDepositRoot(uint256,bytes32)": {
        "params": {
          "_depositRoot": "The root of the deposit tree",
          "_maxCount": "The maximum amount of validator keys to fund"
        }
      },
      "getAdmin()": {
        "returns": {
          "_0": "The admin address"
        }
      },
      "getAllowlist()": {
        "returns": {
          "_0": "The allowlist address"
        }
      },
      "getBalanceToDeposit()": {
        "returns": {
          "_0": "The amount of ETH not yet committed for deposit"
        }
      },
      "getBalanceToRedeem()": {
        "returns": {
          "_0": "The current balance to redeem"
        }
      },
      "getCLSpec()": {
        "returns": {
          "_0": "The Consensus Layer Specification"
        }
      },
      "getCLValidatorCount()": {
        "returns": {
          "_0": "The CL validator count"
        }
      },
      "getCLValidatorTotalBalance()": {
        "returns": {
          "_0": "The CL Validator total balance"
        }
      },
      "getCollector()": {
        "returns": {
          "_0": "The collector address"
        }
      },
      "getCommittedBalance()": {
        "returns": {
          "_0": "The amount of ETH committed for deposit"
        }
      },
      "getCoverageFund()": {
        "returns": {
          "_0": "The coverage fund address"
        }
      },
      "getCurrentEpochId()": {
        "returns": {
          "_0": "The current epoch id"
        }
      },
      "getCurrentFrame()": {
        "returns": {
          "_endTime": "The timestamp of the end of the frame in seconds",
          "_startEpochId": "The epoch at the beginning of the frame",
          "_startTime": "The timestamp of the beginning of the frame in seconds"
        }
      },
      "getDailyCommittableLimits()": {
        "returns": {
          "_0": "The daily committable limits structure"
        }
      },
      "getDepositedValidatorCount()": {
        "returns": {
          "_0": "The deposited validator count"
        }
      },
      "getELFeeRecipient()": {
        "returns": {
          "_0": "The execution layer fee recipient address"
        }
      },
      "getExpectedEpochId()": {
        "returns": {
          "_0": "The current expected epoch id"
        }
      },
      "getFrameFirstEpochId(uint256)": {
        "params": {
          "_epochId": "Epoch id used to get the frame"
        },
        "returns": {
          "_0": "The first epoch id of the frame containing the given epoch id"
        }
      },
      "getGlobalFee()": {
        "returns": {
          "_0": "The global fee"
        }
      },
      "getKeeper()": {
        "returns": {
          "_0": "The keeper address"
        }
      },
      "getLastCompletedEpochId()": {
        "returns": {
          "_0": "The last completed epoch id"
        }
      },
      "getLastConsensusLayerReport()": {
        "returns": {
          "_0": "The stored consensus layer report"
        }
      },
      "getMetadataURI()": {
        "returns": {
          "_0": "The metadata uri string value"
        }
      },
      "getOperatorsRegistry()": {
        "returns": {
          "_0": "The operators registry address"
        }
      },
      "getOracle()": {
        "returns": {
          "_0": "The oracle address"
        }
      },
      "getPendingAdmin()": {
        "returns": {
          "_0": "The pending admin address"
        }
      },
      "getRedeemManager()": {
        "returns": {
          "_0": "The redeem manager address"
        }
      },
      "getReportBounds()": {
        "returns": {
          "_0": "The report bounds"
        }
      },
      "getTime()": {
        "returns": {
          "_0": "The current timestamp from the EVM context"
        }
      },
      "getWithdrawalCredentials()": {
        "returns": {
          "_0": "The withdrawal credentials"
        }
      },
      "increaseAllowance(address,uint256)": {
        "params": {
          "_additionalValue": "Amount of shares to add",
          "_spender": "Spender that receives the allowance"
        },
        "returns": {
          "_0": "True if success"
        }
      },
      "initRiverV1(address,address,bytes32,address,address,address,address,address,uint256)": {
        "params": {
          "_allowlistAddress": "Address of the allowlist contract",
          "_collectorAddress": "Address receiving the the global fee on revenue",
          "_depositContractAddress": "Address to make Consensus Layer deposits",
          "_elFeeRecipientAddress": "Address that receives the execution layer fees",
          "_globalFee": "Amount retained when the ETH balance increases and sent to the collector",
          "_operatorRegistryAddress": "Address of the operator registry",
          "_oracleAddress": "The address of the Oracle contract",
          "_systemAdministratorAddress": "Administrator address",
          "_withdrawalCredentials": "Credentials to use for every validator deposit"
        }
      },
      "initRiverV1_1(address,uint64,uint64,uint64,uint64,uint64,uint256,uint256,uint128,uint128)": {
        "params": {
          "_annualAprUpperBound": "The reporting upper bound",
          "_epochsPerFrame": "The amounts of epochs in a frame",
          "_epochsToAssumedFinality": "The number of epochs before an epoch is considered final on-chain",
          "_genesisTime": "The genesis timestamp",
          "_maxDailyNetCommittableAmount_": "The net daily committable limit",
          "_maxDailyRelativeCommittableAmount_": "The relative daily committable limit",
          "_redeemManager": "The redeem manager address",
          "_relativeLowerBound": "The reporting lower bound",
          "_secondsPerSlot": "The seconds inside a slot",
          "_slotsPerEpoch": "The slots inside an epoch"
        }
      },
      "isValidEpoch(uint256)": {
        "params": {
          "epoch": "The epoch to lookup"
        },
        "returns": {
          "_0": "True if valid"
        }
      },
      "name()": {
        "returns": {
          "_0": "The token name"
        }
      },
      "proposeAdmin(address)": {
        "details": "This security prevents setting an invalid address as an admin. The pendingadmin has to claim its ownership of the contract, and prove that the newaddress is able to perform regular transactions.",
        "params": {
          "_newAdmin": "New admin address"
        }
      },
      "requestRedeem(uint256,address)": {
        "params": {
          "_lsETHAmount": "The amount of LsETH to redeem",
          "_recipient": "The address that will own the redeem request"
        },
        "returns": {
          "_redeemRequestId": "The ID of the newly created redeem request"
        }
      },
      "resolveRedeemRequests(uint32[])": {
        "params": {
          "_redeemRequestIds": "The list of redeem requests to resolve"
        },
        "returns": {
          "withdrawalEventIds": "The list of matching withdrawal events, or error codes"
        }
      },
      "setAllowlist(address)": {
        "params": {
          "_newAllowlist": "New address for the allowlist"
        }
      },
      "setCLSpec((uint64,uint64,uint64,uint64,uint64))": {
        "params": {
          "_newValue": "The new consensus layer spec value"
        }
      },
      "setCollector(address)": {
        "params": {
          "_newCollector": "New address for the collector"
        }
      },
      "setConsensusLayerData((uint256,uint256,uint256,uint256,uint256,uint32,uint32[],bool,bool))": {
        "params": {
          "_report": "The consensus layer report structure"
        }
      },
      "setCoverageFund(address)": {
        "params": {
          "_newCoverageFund": "New address for the fund"
        }
      },
      "setDailyCommittableLimits((uint128,uint128))": {
        "params": {
          "_dcl": "The Daily Committable Limits structure"
        }
      },
      "setELFeeRecipient(address)": {
        "params": {
          "_newELFeeRecipient": "New address for the recipient"
        }
      },
      "setGlobalFee(uint256)": {
        "params": {
          "_newFee": "New fee value"
        }
      },
      "setMetadataURI(string)": {
        "params": {
          "_metadataURI": "The new metadata uri string value"
        }
      },
      "setOracle(address)": {
        "params": {
          "_oracleAddress": "Address of the oracle"
        }
      },
      "setReportBounds((uint256,uint256))": {
        "params": {
          "_newValue": "The new report bounds value"
        }
      },
      "sharesFromUnderlyingBalance(uint256)": {
        "params": {
          "_underlyingAssetAmount": "Amount of underlying asset to convert"
        },
        "returns": {
          "_0": "The amount of shares worth the underlying asset amopunt"
        }
      },
      "symbol()": {
        "returns": {
          "_0": "The token symbol"
        }
      },
      "totalSupply()": {
        "returns": {
          "_0": "The total supply in shares"
        }
      },
      "totalUnderlyingSupply()": {
        "returns": {
          "_0": "The total underlying asset supply"
        }
      },
      "transfer(address,uint256)": {
        "params": {
          "_to": "Address receiving the tokens",
          "_value": "Amount of shares to be sent"
        },
        "returns": {
          "_0": "True if success"
        }
      },
      "transferFrom(address,address,uint256)": {
        "params": {
          "_from": "Address sending the tokens",
          "_to": "Address receiving the tokens",
          "_value": "Amount of shares to be sent"
        },
        "returns": {
          "_0": "True if success"
        }
      },
      "underlyingBalanceFromShares(uint256)": {
        "params": {
          "_shares": "Amount of shares to convert"
        },
        "returns": {
          "_0": "The underlying asset balance represented by the shares"
        }
      },
      "version()": {
        "returns": {
          "_0": "Version of the contract"
        }
      }
    },
    "title": "River (v1)",
    "version": 1
  },
  "userdoc": {
    "errors": {
      "AllowanceTooLow(address,address,uint256,uint256)": [
        {
          "notice": "Allowance too low to perform operation"
        }
      ],
      "BalanceTooLow()": [
        {
          "notice": "Balance too low to perform operation"
        }
      ],
      "Denied(address)": [
        {
          "notice": "The access was denied"
        }
      ],
      "EmptyDeposit()": [
        {
          "notice": "And empty deposit attempt was made"
        }
      ],
      "ErrorOnDeposit()": [
        {
          "notice": "An error occured during the deposit"
        }
      ],
      "InconsistentPublicKeys()": [
        {
          "notice": "The length of the BLS Public key is invalid during deposit"
        }
      ],
      "InconsistentSignatures()": [
        {
          "notice": "The length of the BLS Signature is invalid during deposit"
        }
      ],
      "InvalidArgument()": [
        {
          "notice": "The argument was invalid"
        }
      ],
      "InvalidCall()": [
        {
          "notice": "The call was invalid"
        }
      ],
      "InvalidDecreasingValidatorsExitedBalance(uint256,uint256)": [
        {
          "notice": "The total exited balance decreased"
        }
      ],
      "InvalidDecreasingValidatorsSkimmedBalance(uint256,uint256)": [
        {
          "notice": "The total skimmed balance decreased"
        }
      ],
      "InvalidDepositRoot()": [
        {
          "notice": "Invalid deposit root"
        }
      ],
      "InvalidEmptyString()": [
        {
          "notice": "The string is empty"
        }
      ],
      "InvalidEpoch(uint256)": [
        {
          "notice": "Thrown when an invalid epoch was reported"
        }
      ],
      "InvalidFee()": [
        {
          "notice": "The fee is invalid"
        }
      ],
      "InvalidInitialization(uint256,uint256)": [
        {
          "notice": "An error occured during the initialization"
        }
      ],
      "InvalidPublicKeyCount()": [
        {
          "notice": "The received count of public keys to deposit is invalid"
        }
      ],
      "InvalidPulledClFundsAmount(uint256,uint256)": [
        {
          "notice": "Thrown when the amount received from the Withdraw contract doe not match the requested amount"
        }
      ],
      "InvalidSignatureCount()": [
        {
          "notice": "The received count of signatures to deposit is invalid"
        }
      ],
      "InvalidValidatorCountReport(uint256,uint256,uint256)": [
        {
          "notice": "The reported validator count is invalid"
        }
      ],
      "InvalidWithdrawalCredentials()": [
        {
          "notice": "The withdrawal credentials value is null"
        }
      ],
      "InvalidZeroAddress()": [
        {
          "notice": "The address is zero"
        }
      ],
      "NoAvailableValidatorKeys()": [
        {
          "notice": "The internal key retrieval returned no keys"
        }
      ],
      "NotEnoughFunds()": [
        {
          "notice": "Not enough funds to deposit one validator"
        }
      ],
      "NullTransfer()": [
        {
          "notice": "Invalid empty transfer"
        }
      ],
      "SliceOutOfBounds()": [
        {
          "notice": "The slice is outside of the initial bytes bounds"
        }
      ],
      "SliceOverflow()": [
        {
          "notice": "The length overflows an uint"
        }
      ],
      "TotalValidatorBalanceDecreaseOutOfBound(uint256,uint256,uint256,uint256)": [
        {
          "notice": "The balance decrease is higher than the maximum allowed by the lower bound"
        }
      ],
      "TotalValidatorBalanceIncreaseOutOfBound(uint256,uint256,uint256,uint256)": [
        {
          "notice": "The balance increase is higher than the maximum allowed by the upper bound"
        }
      ],
      "Unauthorized(address)": [
        {
          "notice": "The operator is unauthorized for the caller"
        }
      ],
      "UnauthorizedTransfer(address,address)": [
        {
          "notice": "Invalid transfer recipients"
        }
      ],
      "ZeroMintedShares()": [
        {
          "notice": "The computed amount of shares to mint is 0"
        }
      ]
    },
    "events": {
      "ConsensusLayerDataUpdate(uint256,uint256,bytes32)": {
        "notice": "The consensus layer data provided by the oracle has been updated"
      },
      "Initialize(uint256,bytes)": {
        "notice": "Emitted when the contract is properly initialized"
      },
      "ProcessedConsensusLayerReport((uint256,uint256,uint256,uint256,uint256,uint32,uint32[],bool,bool),(uint256,uint256,uint256,uint256))": {
        "notice": "The provided report has beend processed"
      },
      "PulledCLFunds(uint256,uint256)": {
        "notice": "Emitted when funds are pulled from the CL recipient"
      },
      "PulledCoverageFunds(uint256)": {
        "notice": "Funds have been pulled from the Coverage Fund"
      },
      "PulledELFees(uint256)": {
        "notice": "Funds have been pulled from the Execution Layer Fee Recipient"
      },
      "PulledRedeemManagerExceedingEth(uint256)": {
        "notice": "Emitted when funds are pulled from the redeem manager"
      },
      "ReportedRedeemManager(uint256,uint256,uint256)": {
        "notice": "Emitted when the redeem manager received a withdraw event report"
      },
      "RewardsEarned(address,uint256,uint256,uint256,uint256)": {
        "notice": "The system underlying supply increased. This is a snapshot of the balances for accounting purposes"
      },
      "SetAdmin(address)": {
        "notice": "The admin address changed"
      },
      "SetAllowlist(address)": {
        "notice": "The stored Allowlist has been changed"
      },
      "SetBalanceCommittedToDeposit(uint256,uint256)": {
        "notice": "Emitted when the balance committed to deposit"
      },
      "SetBalanceToDeposit(uint256,uint256)": {
        "notice": "Emitted when the balance to deposit is updated"
      },
      "SetBalanceToRedeem(uint256,uint256)": {
        "notice": "Emitted when the balance to redeem is updated"
      },
      "SetBounds(uint256,uint256)": {
        "notice": "The Report Bounds are changed"
      },
      "SetCollector(address)": {
        "notice": "The stored Collector has been changed"
      },
      "SetCoverageFund(address)": {
        "notice": "The stored Coverage Fund has been changed"
      },
      "SetDepositContractAddress(address)": {
        "notice": "The stored deposit contract address changed"
      },
      "SetDepositedValidatorCount(uint256,uint256)": {
        "notice": "Emitted when the deposited validator count is updated"
      },
      "SetELFeeRecipient(address)": {
        "notice": "The stored Execution Layer Fee Recipient has been changed"
      },
      "SetGlobalFee(uint256)": {
        "notice": "The stored Global Fee has been changed"
      },
      "SetMaxDailyCommittableAmounts(uint256,uint256)": {
        "notice": "Emitted when the daily committable limits are changed"
      },
      "SetMetadataURI(string)": {
        "notice": "The stored Metadata URI string has been changed"
      },
      "SetOperatorsRegistry(address)": {
        "notice": "The stored Operators Registry has been changed"
      },
      "SetOracle(address)": {
        "notice": "The stored oracle address changed"
      },
      "SetPendingAdmin(address)": {
        "notice": "The pending admin address changed"
      },
      "SetRedeemManager(address)": {
        "notice": "Emitted when the redeem manager address is changed"
      },
      "SetSpec(uint64,uint64,uint64,uint64,uint64)": {
        "notice": "The Consensus Layer Spec is changed"
      },
      "SetTotalSupply(uint256)": {
        "notice": "Emitted when the total supply is changed"
      },
      "SetWithdrawalCredentials(bytes32)": {
        "notice": "The stored withdrawal credentials changed"
      },
      "UserDeposit(address,address,uint256)": {
        "notice": "User deposited ETH in the system"
      }
    },
    "kind": "user",
    "methods": {
      "DEPOSIT_SIZE()": {
        "notice": "Size of a deposit in ETH"
      },
      "PUBLIC_KEY_LENGTH()": {
        "notice": "Size of a BLS Public key in bytes"
      },
      "SIGNATURE_LENGTH()": {
        "notice": "Size of a BLS Signature in bytes"
      },
      "_DEPOSIT_SIZE()": {
        "notice": "Size of a deposit in ETH"
      },
      "acceptAdmin()": {
        "notice": "Accept the transfer of ownership"
      },
      "allowance(address,address)": {
        "notice": "Retrieve the allowance value for a spender"
      },
      "approve(address,uint256)": {
        "notice": "Approves an account for future spendings"
      },
      "balanceOf(address)": {
        "notice": "Retrieve the balance of an account"
      },
      "balanceOfUnderlying(address)": {
        "notice": "Retrieve the underlying asset balance of an account"
      },
      "claimRedeemRequests(uint32[],uint32[])": {
        "notice": "Claims several redeem requests"
      },
      "decimals()": {
        "notice": "Retrieve the decimal count"
      },
      "decreaseAllowance(address,uint256)": {
        "notice": "Decrease allowance to another account"
      },
      "deposit()": {
        "notice": "Explicit deposit method to mint on msg.sender"
      },
      "depositAndTransfer(address)": {
        "notice": "Explicit deposit method to mint on msg.sender and transfer to _recipient"
      },
      "depositToConsensusLayerWithDepositRoot(uint256,bytes32)": {
        "notice": "Deposits current balance to the Consensus Layer by batches of 32 ETH"
      },
      "getAdmin()": {
        "notice": "Retrieves the current admin address"
      },
      "getAllowlist()": {
        "notice": "Retrieve the allowlist address"
      },
      "getBalanceToDeposit()": {
        "notice": "Returns the amount of ETH not yet committed for deposit"
      },
      "getBalanceToRedeem()": {
        "notice": "Retrieve the current balance to redeem"
      },
      "getCLSpec()": {
        "notice": "Retrieve the current cl spec"
      },
      "getCLValidatorCount()": {
        "notice": "Get CL validator count (the amount of validator reported by the oracles)"
      },
      "getCLValidatorTotalBalance()": {
        "notice": "Get CL validator total balance"
      },
      "getCollector()": {
        "notice": "Retrieve the collector address"
      },
      "getCommittedBalance()": {
        "notice": "Returns the amount of ETH committed for deposit"
      },
      "getCoverageFund()": {
        "notice": "Retrieve the coverage fund"
      },
      "getCurrentEpochId()": {
        "notice": "Retrieve the current epoch id based on block timestamp"
      },
      "getCurrentFrame()": {
        "notice": "Retrieve the current frame details"
      },
      "getDailyCommittableLimits()": {
        "notice": "Retrieve the configured daily committable limits"
      },
      "getDepositedValidatorCount()": {
        "notice": "Get the deposited validator count (the count of deposits made by the contract)"
      },
      "getELFeeRecipient()": {
        "notice": "Retrieve the execution layer fee recipient"
      },
      "getExpectedEpochId()": {
        "notice": "Retrieve expected epoch id"
      },
      "getFrameFirstEpochId(uint256)": {
        "notice": "Retrieve the first epoch id of the frame of the provided epoch id"
      },
      "getGlobalFee()": {
        "notice": "Get the current global fee"
      },
      "getKeeper()": {
        "notice": "Get the keeper address"
      },
      "getLastCompletedEpochId()": {
        "notice": "Retrieve the last completed epoch id"
      },
      "getLastConsensusLayerReport()": {
        "notice": "Retrieve the last consensus layer report"
      },
      "getMetadataURI()": {
        "notice": "Retrieve the metadata uri string value"
      },
      "getOperatorsRegistry()": {
        "notice": "Retrieve the operators registry"
      },
      "getOracle()": {
        "notice": "Get oracle address"
      },
      "getPendingAdmin()": {
        "notice": "Retrieve the current pending admin address"
      },
      "getRedeemManager()": {
        "notice": "Retrieve the redeem manager"
      },
      "getReportBounds()": {
        "notice": "Retrieve the report bounds"
      },
      "getTime()": {
        "notice": "Retrieve the block timestamp"
      },
      "getWithdrawalCredentials()": {
        "notice": "Retrieve the withdrawal credentials"
      },
      "increaseAllowance(address,uint256)": {
        "notice": "Increase allowance to another account"
      },
      "initRiverV1(address,address,bytes32,address,address,address,address,address,uint256)": {
        "notice": "Initializes the River system"
      },
      "initRiverV1_1(address,uint64,uint64,uint64,uint64,uint64,uint256,uint256,uint128,uint128)": {
        "notice": "Initialized version 1.1 of the River System"
      },
      "initRiverV1_2()": {
        "notice": "Initializes version 1.2 of the River System"
      },
      "isValidEpoch(uint256)": {
        "notice": "Verifies if the provided epoch is valid"
      },
      "name()": {
        "notice": "Retrieve the token name"
      },
      "proposeAdmin(address)": {
        "notice": "Proposes a new address as admin"
      },
      "requestRedeem(uint256,address)": {
        "notice": "Performs a redeem request on the redeem manager"
      },
      "resolveRedeemRequests(uint32[])": {
        "notice": "Resolves the provided redeem requests by calling the redeem manager"
      },
      "sendCLFunds()": {
        "notice": "Input for consensus layer funds, containing both exit and skimming"
      },
      "sendCoverageFunds()": {
        "notice": "Input for coverage funds"
      },
      "sendELFees()": {
        "notice": "Input for execution layer fee earnings"
      },
      "sendRedeemManagerExceedingFunds()": {
        "notice": "Input for the redeem manager funds"
      },
      "setAllowlist(address)": {
        "notice": "Changes the allowlist address"
      },
      "setCLSpec((uint64,uint64,uint64,uint64,uint64))": {
        "notice": "Set the consensus layer spec"
      },
      "setCollector(address)": {
        "notice": "Changes the collector address"
      },
      "setConsensusLayerData((uint256,uint256,uint256,uint256,uint256,uint32,uint32[],bool,bool))": {
        "notice": "Performs all the reporting logics"
      },
      "setCoverageFund(address)": {
        "notice": "Changes the coverage fund"
      },
      "setDailyCommittableLimits((uint128,uint128))": {
        "notice": "Set the daily committable limits"
      },
      "setELFeeRecipient(address)": {
        "notice": "Changes the execution layer fee recipient"
      },
      "setGlobalFee(uint256)": {
        "notice": "Changes the global fee parameter"
      },
      "setMetadataURI(string)": {
        "notice": "Sets the metadata uri string value"
      },
      "setOracle(address)": {
        "notice": "Set the oracle address"
      },
      "setReportBounds((uint256,uint256))": {
        "notice": "Set the report bounds"
      },
      "sharesFromUnderlyingBalance(uint256)": {
        "notice": "Retrieve the shares count from an underlying asset amount"
      },
      "symbol()": {
        "notice": "Retrieve the token symbol"
      },
      "totalSupply()": {
        "notice": "Retrieve the total token supply"
      },
      "totalUnderlyingSupply()": {
        "notice": "Retrieve the total underlying asset supply"
      },
      "transfer(address,uint256)": {
        "notice": "Performs a transfer from the message sender to the provided account"
      },
      "transferFrom(address,address,uint256)": {
        "notice": "Performs a transfer between two recipients"
      },
      "underlyingBalanceFromShares(uint256)": {
        "notice": "Retrieve the underlying asset balance from an amount of shares"
      },
      "version()": {
        "notice": "Retrieves the version of the contract"
      }
    },
    "notice": "This contract merges all the manager contracts and implements all the virtual methods stitching all components together",
    "version": 1
  },
  "storageLayout": {
    "storage": [],
    "types": null
  }
}