{
  "address": "0x08DE7d4F59f301b0Dfc012cCCF2C892b7e1bB8D3",
  "abi": [
    {
      "inputs": [
        {
          "internalType": "address",
          "name": "_from",
          "type": "address"
        },
        {
          "internalType": "address",
          "name": "_operator",
          "type": "address"
        },
        {
          "internalType": "uint256",
          "name": "_allowance",
          "type": "uint256"
        },
        {
          "internalType": "uint256",
          "name": "_value",
          "type": "uint256"
        }
      ],
      "name": "AllowanceTooLow",
      "type": "error"
    },
    {
      "inputs": [],
      "name": "BalanceTooLow",
      "type": "error"
    },
    {
      "inputs": [
        {
          "internalType": "uint256",
          "name": "version",
          "type": "uint256"
        },
        {
          "internalType": "uint256",
          "name": "expectedVersion",
          "type": "uint256"
        }
      ],
      "name": "InvalidInitialization",
      "type": "error"
    },
    {
      "inputs": [],
      "name": "InvalidZeroAddress",
      "type": "error"
    },
    {
      "inputs": [],
      "name": "NullTransfer",
      "type": "error"
    },
    {
      "inputs": [],
      "name": "TokenTransferError",
      "type": "error"
    },
    {
      "inputs": [
        {
          "internalType": "address",
          "name": "_from",
          "type": "address"
        },
        {
          "internalType": "address",
          "name": "_to",
          "type": "address"
        }
      ],
      "name": "UnauthorizedTransfer",
      "type": "error"
    },
    {
      "anonymous": false,
      "inputs": [
        {
          "indexed": true,
          "internalType": "address",
          "name": "owner",
          "type": "address"
        },
        {
          "indexed": true,
          "internalType": "address",
          "name": "spender",
          "type": "address"
        },
        {
          "indexed": false,
          "internalType": "uint256",
          "name": "value",
          "type": "uint256"
        }
      ],
      "name": "Approval",
      "type": "event"
    },
    {
      "anonymous": false,
      "inputs": [
        {
          "indexed": true,
          "internalType": "address",
          "name": "recipient",
          "type": "address"
        },
        {
          "indexed": false,
          "internalType": "uint256",
          "name": "shares",
          "type": "uint256"
        }
      ],
      "name": "Burn",
      "type": "event"
    },
    {
      "anonymous": false,
      "inputs": [
        {
          "indexed": false,
          "internalType": "uint256",
          "name": "version",
          "type": "uint256"
        },
        {
          "indexed": false,
          "internalType": "bytes",
          "name": "cdata",
          "type": "bytes"
        }
      ],
      "name": "Initialize",
      "type": "event"
    },
    {
      "anonymous": false,
      "inputs": [
        {
          "indexed": true,
          "internalType": "address",
          "name": "recipient",
          "type": "address"
        },
        {
          "indexed": false,
          "internalType": "uint256",
          "name": "shares",
          "type": "uint256"
        }
      ],
      "name": "Mint",
      "type": "event"
    },
    {
      "anonymous": false,
      "inputs": [
        {
          "indexed": true,
          "internalType": "address",
          "name": "river",
          "type": "address"
        }
      ],
      "name": "SetRiver",
      "type": "event"
    },
    {
      "anonymous": false,
      "inputs": [
        {
          "indexed": true,
          "internalType": "address",
          "name": "from",
          "type": "address"
        },
        {
          "indexed": true,
          "internalType": "address",
          "name": "to",
          "type": "address"
        },
        {
          "indexed": false,
          "internalType": "uint256",
          "name": "value",
          "type": "uint256"
        }
      ],
      "name": "Transfer",
      "type": "event"
    },
    {
      "inputs": [
        {
          "internalType": "address",
          "name": "_owner",
          "type": "address"
        },
        {
          "internalType": "address",
          "name": "_spender",
          "type": "address"
        }
      ],
      "name": "allowance",
      "outputs": [
        {
          "internalType": "uint256",
          "name": "",
          "type": "uint256"
        }
      ],
      "stateMutability": "view",
      "type": "function"
    },
    {
      "inputs": [
        {
          "internalType": "address",
          "name": "_spender",
          "type": "address"
        },
        {
          "internalType": "uint256",
          "name": "_value",
          "type": "uint256"
        }
      ],
      "name": "approve",
      "outputs": [
        {
          "internalType": "bool",
          "name": "",
          "type": "bool"
        }
      ],
      "stateMutability": "nonpayable",
      "type": "function"
    },
    {
      "inputs": [
        {
          "internalType": "address",
          "name": "_owner",
          "type": "address"
        }
      ],
      "name": "balanceOf",
      "outputs": [
        {
          "internalType": "uint256",
          "name": "",
          "type": "uint256"
        }
      ],
      "stateMutability": "view",
      "type": "function"
    },
    {
      "inputs": [
        {
          "internalType": "address",
          "name": "_recipient",
          "type": "address"
        },
        {
          "internalType": "uint256",
          "name": "_shares",
          "type": "uint256"
        }
      ],
      "name": "burn",
      "outputs": [],
      "stateMutability": "nonpayable",
      "type": "function"
    },
    {
      "inputs": [],
      "name": "decimals",
      "outputs": [
        {
          "internalType": "uint8",
          "name": "",
          "type": "uint8"
        }
      ],
      "stateMutability": "pure",
      "type": "function"
    },
    {
      "inputs": [
        {
          "internalType": "address",
          "name": "_spender",
          "type": "address"
        },
        {
          "internalType": "uint256",
          "name": "_subtractableValue",
          "type": "uint256"
        }
      ],
      "name": "decreaseAllowance",
      "outputs": [
        {
          "internalType": "bool",
          "name": "",
          "type": "bool"
        }
      ],
      "stateMutability": "nonpayable",
      "type": "function"
    },
    {
      "inputs": [
        {
          "internalType": "address",
          "name": "_spender",
          "type": "address"
        },
        {
          "internalType": "uint256",
          "name": "_additionalValue",
          "type": "uint256"
        }
      ],
      "name": "increaseAllowance",
      "outputs": [
        {
          "internalType": "bool",
          "name": "",
          "type": "bool"
        }
      ],
      "stateMutability": "nonpayable",
      "type": "function"
    },
    {
      "inputs": [
        {
          "internalType": "address",
          "name": "_river",
          "type": "address"
        }
      ],
      "name": "initWLSETHV1",
      "outputs": [],
      "stateMutability": "nonpayable",
      "type": "function"
    },
    {
      "inputs": [
        {
          "internalType": "address",
          "name": "_recipient",
          "type": "address"
        },
        {
          "internalType": "uint256",
          "name": "_shares",
          "type": "uint256"
        }
      ],
      "name": "mint",
      "outputs": [],
      "stateMutability": "nonpayable",
      "type": "function"
    },
    {
      "inputs": [],
      "name": "name",
      "outputs": [
        {
          "internalType": "string",
          "name": "",
          "type": "string"
        }
      ],
      "stateMutability": "pure",
      "type": "function"
    },
    {
      "inputs": [
        {
          "internalType": "address",
          "name": "_owner",
          "type": "address"
        }
      ],
      "name": "sharesOf",
      "outputs": [
        {
          "internalType": "uint256",
          "name": "",
          "type": "uint256"
        }
      ],
      "stateMutability": "view",
      "type": "function"
    },
    {
      "inputs": [],
      "name": "symbol",
      "outputs": [
        {
          "internalType": "string",
          "name": "",
          "type": "string"
        }
      ],
      "stateMutability": "pure",
      "type": "function"
    },
    {
      "inputs": [],
      "name": "totalSupply",
      "outputs": [
        {
          "internalType": "uint256",
          "name": "",
          "type": "uint256"
        }
      ],
      "stateMutability": "view",
      "type": "function"
    },
    {
      "inputs": [
        {
          "internalType": "address",
          "name": "_to",
          "type": "address"
        },
        {
          "internalType": "uint256",
          "name": "_value",
          "type": "uint256"
        }
      ],
      "name": "transfer",
      "outputs": [
        {
          "internalType": "bool",
          "name": "",
          "type": "bool"
        }
      ],
      "stateMutability": "nonpayable",
      "type": "function"
    },
    {
      "inputs": [
        {
          "internalType": "address",
          "name": "_from",
          "type": "address"
        },
        {
          "internalType": "address",
          "name": "_to",
          "type": "address"
        },
        {
          "internalType": "uint256",
          "name": "_value",
          "type": "uint256"
        }
      ],
      "name": "transferFrom",
      "outputs": [
        {
          "internalType": "bool",
          "name": "",
          "type": "bool"
        }
      ],
      "stateMutability": "nonpayable",
      "type": "function"
    }
  ],
  "transactionHash": "0x884a53ebc5db1f3b9c71e04f6ff27174c19bd9155ace6b4b9a2bfc4f04007588",
  "args": [],
  "numDeployments": 1,
  "solcInputHash": "afb6920dfa036af584d4d7d7334b0ff3",
  "bytecode": "0x60808060405234610097577f1809e49bba43f2d39fa57894b50cd6ccb428cc438230e065cac3eb24a1355a7190600019807f82055909238c0f5e63d6f174068ebb8f51bcec9bd37de63bb68f6551feec0cfc558152604060208201523660408201523660006060830137600060603683010152606081601f19601f3601168101030190a16001600055604051610e56908161009d8239f35b600080fdfe608060408181526004918236101561001657600080fd5b600092833560e01c91826306fdde03146109b257508163095ea7b3146109885781630fa74a101461088557816318160ddd146107e057816323b872dd146106c1578163313ce567146106a5578163395093511461064f57816340c10f19146104ae57816370a082311461048157816395d89b411461043f5781639dc29fac14610268578163a457c2d714610204578163a9059cbb1461016657508063dd62ed3e146101115763f5eb42dc146100ca57600080fd5b3461010d57602036600319011261010d5760209181906001600160a01b036100f0610a48565b168152600080516020610da1833981519152845220549051908152f35b5080fd5b503461010d578060031936011261010d578060209261012e610a48565b610136610a63565b6001600160a01b039182168352600080516020610dc1833981519152865283832091168252845220549051908152f35b9050823461020157826003193601126102015750610182610a48565b6024359182156101f3578261019633610b8b565b106101e5576001600160a01b038216156101c1576020846101b8858533610c2c565b90519015158152f35b8351637617407560e11b815233918101918252600060208301529081906040010390fd5b83516351940b3960e11b8152fd5b83516336b216db60e21b8152fd5b80fd5b50503461010d578060031936011261010d5761026160209261025a610227610a48565b338352600080516020610dc183398151915286528483206001600160a01b03821684528652918490205460243590610af0565b9033610b15565b5160018152f35b90503461043b578160031936011261043b57610282610a48565b9160243561028e610d4a565b338552600080516020610da1833981519152916020928084528187205480841161042b57836102bc91610af0565b33885290845281872055600080516020610de183398151915254815163a9059cbb60e01b81526001600160a01b039687168682018190526024820185905296909116949084816044818b8a5af19081156104215788916103f4575b50156103e65783836024899385519889938492637bce1f8160e11b84528301525afa80156103da57819061038d575b7fcc16f5dbb4873280815c1ee09dbd06736cffcc184412cf7a71a0fdb75d397ca595508251908152600080516020610e01833981519152853392a351908152a26001815580f35b508385813d83116103d3575b6103a38183610ace565b81010312610201577fcc16f5dbb4873280815c1ee09dbd06736cffcc184412cf7a71a0fdb75d397ca59451610346565b503d610399565b509051903d90823e3d90fd5b9051630c87abf760e21b8152fd5b6104149150853d871161041a575b61040c8183610ace565b810190610afd565b38610317565b503d610402565b83513d8a823e3d90fd5b82516351940b3960e11b81528690fd5b8280fd5b50503461010d578160031936011261010d57805161047d9161046082610a9c565b60068252650ee98e68aa8960d31b602083015251918291826109ff565b0390f35b50503461010d57602036600319011261010d576020906104a76104a2610a48565b610b8b565b9051908152f35b83833461010d578060031936011261010d576104c8610a48565b602435906104d4610d4a565b60018060a01b0380911692838552600080516020610da1833981519152916020928084526105058584892054610a79565b90868852845282872055600080516020610de183398151915254169281516323b872dd60e01b8152338882015230602482015281604482015283816064818a895af1908115610645578791610628575b501561061857829060248798877f0f6798a560793a54c3bcfe86a93cde1e73087d944c0ea20544137d412139688585879b9a9b51868152a284519687938492637bce1f8160e11b84528301525afa90811561060f5784916105ce575b600080516020610e01833981519152935051908152a36001815580f35b90508183813d8311610608575b6105e58183610ace565b8101031261060457600080516020610e018339815191529251906105b1565b8380fd5b503d6105db565b513d85823e3d90fd5b8151630c87abf760e21b81528790fd5b61063f9150843d861161041a5761040c8183610ace565b88610555565b83513d89823e3d90fd5b50503461010d578060031936011261010d5761026160209261025a610672610a48565b338352600080516020610dc183398151915286528483206001600160a01b03821684528652918490205460243590610a79565b50503461010d578160031936011261010d576020905160128152f35b90503461043b57606036600319011261043b576106dc610a48565b6106e4610a63565b936044359283156107d257836106f984610b8b565b106107c4576001600160a01b0386811615610798578590841692838152600080516020610dc1833981519152602052818120338252602052205491848310610771576020866101b8878a88828960018101610756575b5050610c2c565b61076a9161076391610af0565b3383610b15565b828761074f565b6084928591875193637b936de360e01b855284015233602484015260448301526064820152fd5b8551637617407560e11b81526001600160a01b0385168184019081526000602082015281906040010390fd5b84516351940b3960e11b8152fd5b84516336b216db60e21b8152fd5b9190503461043b578260031936011261043b57600080516020610de1833981519152548151633af9e66960e01b81523093810193909352602090839060249082906001600160a01b03165afa91821561087b578392610844575b6020838351908152f35b9091506020813d8211610873575b8161085f60209383610ace565b8101031261043b576020925051903861083a565b3d9150610852565b81513d85823e3d90fd5b83833461010d57602036600319011261010d576108a0610a48565b907f82055909238c0f5e63d6f174068ebb8f51bcec9bd37de63bb68f6551feec0cfc9384548061096e57505060017f1809e49bba43f2d39fa57894b50cd6ccb428cc438230e065cac3eb24a1355a719394556108fb82610d28565b600080516020610de18339815191528290558051916001600160a01b03167ffc0d749143b04e0d92a3b49edae84a45f6bc88b75e99d9118ec4d7e87fe626c58580a28382528060208301523690820152368360608301378260603683010152606081601f19601f3601168101030190a180f35b846044935192631cfd276760e31b84528301526024820152fd5b50503461010d578060031936011261010d576020906102616109a8610a48565b6024359033610b15565b8490843461043b578260031936011261043b5761047d92506109d382610a9c565b60198252780aee4c2e0e0cac84098d2e2ead2c840a6e8c2d6cac8408aa89603b1b602083015251918291825b6020808252825181830181905290939260005b828110610a3457505060409293506000838284010152601f8019910116010190565b818101860151848201604001528501610a12565b600435906001600160a01b0382168203610a5e57565b600080fd5b602435906001600160a01b0382168203610a5e57565b91908201809211610a8657565b634e487b7160e01b600052601160045260246000fd5b6040810190811067ffffffffffffffff821117610ab857604052565b634e487b7160e01b600052604160045260246000fd5b90601f8019910116810190811067ffffffffffffffff821117610ab857604052565b91908203918211610a8657565b90816020910312610a5e57518015158103610a5e5790565b909160207f8c5be1e5ebec7d5bd14f71427d1e84f3dd0314c0f7b2291e5b200ac8c7c3b92591610b4484610d28565b610b4d85610d28565b60018060a01b038094169384600052600080516020610dc18339815191528352604060002095169485600052825280604060002055604051908152a3565b60018060a01b0380600080516020610de1833981519152541690600092168252600080516020610da183398151915260205260206040832054602460405180948193637bce1f8160e11b835260048301525afa918215610c20578092610bf057505090565b9091506020823d8211610c18575b81610c0b60209383610ace565b8101031261020157505190565b3d9150610bfe565b604051903d90823e3d90fd5b929160018060a01b039081600080516020610de183398151915254169060408051948593631e66865560e21b855283600486015284602460209687935afa958615610d1d57600096610cea575b50610cd485600080516020610e0183398151915296979899169687600052600080516020610da183398151915292838752610cb88a8660002054610af0565b8960005284885285600020551697886000528360002054610a79565b90876000528452816000205551908152a3600190565b97958489813d8311610d16575b610d018183610ace565b81010312610201575096519496610cd4610c79565b503d610cf7565b82513d6000823e3d90fd5b6001600160a01b031615610d3857565b60405163f6b2911f60e01b8152600490fd5b600260005414610d5b576002600055565b60405162461bcd60e51b815260206004820152601f60248201527f5265656e7472616e637947756172643a207265656e7472616e742063616c6c006044820152606490fdfece1633dc2255491f780d2d58eb35f53cb7635f8ce2320aa44b03b0e6ae6fdeacc852254d5b703a16bb13b3e233a335d6459c5da5db0ca732d7a684ee054078461ec4138404500a2a0be2c2f9b103581c2a7fa783a934f91a6cc5cc924404973bddf252ad1be2c89b69c2b068fc378daa952ba7f163c4a11628f55a4df523b3efa2646970667358221220ebb931c15ece6c55487d3ceb6e38cf93793ed805dfb7e9a5e73a5ad62bae2b7964736f6c63430008140033",
  "devdoc": {
    "author": "Kiln",
    "errors": {
      "AllowanceTooLow(address,address,uint256,uint256)": [
        {
          "params": {
            "_allowance": "Current allowance",
            "_from": "Account where funds are sent from",
            "_operator": "Account attempting the transfer",
            "_value": "Requested transfer value"
          }
        }
      ],
      "InvalidInitialization(uint256,uint256)": [
        {
          "params": {
            "expectedVersion": "The version that was expected",
            "version": "The version that was attempting to be initialized"
          }
        }
      ],
      "UnauthorizedTransfer(address,address)": [
        {
          "params": {
            "_from": "Account sending the funds in the invalid transfer",
            "_to": "Account receiving the funds in the invalid transfer"
          }
        }
      ]
    },
    "events": {
      "Approval(address,address,uint256)": {
        "params": {
          "owner": "The token owner",
          "spender": "The account allowed by the owner",
          "value": "The amount allowed"
        }
      },
      "Burn(address,uint256)": {
        "params": {
          "recipient": "The account that receive the underlying LsETH",
          "shares": "The amount of LsETH that got sent back"
        }
      },
      "Initialize(uint256,bytes)": {
        "params": {
          "cdata": "Complete calldata that was used during the initialization",
          "version": "New version of the contracts"
        }
      },
      "Mint(address,uint256)": {
        "params": {
          "recipient": "The account receiving the new tokens",
          "shares": "The amount of LsETH provided"
        }
      },
      "SetRiver(address)": {
        "params": {
          "river": "The new address of river"
        }
      },
      "Transfer(address,address,uint256)": {
        "params": {
          "from": "The transfer sender",
          "to": "The transfer recipient",
          "value": "The amount transfered"
        }
      }
    },
    "kind": "dev",
    "methods": {
      "allowance(address,address)": {
        "params": {
          "_owner": "Owner that gave the allowance",
          "_spender": "Spender that received the allowance"
        },
        "returns": {
          "_0": "The allowance of the owner to the spender"
        }
      },
      "approve(address,uint256)": {
        "params": {
          "_spender": "Spender that receives the allowance",
          "_value": "Amount to allow"
        },
        "returns": {
          "_0": "True if success"
        }
      },
      "balanceOf(address)": {
        "params": {
          "_owner": "Owner to check the balance"
        },
        "returns": {
          "_0": "The balance of the owner"
        }
      },
      "burn(address,uint256)": {
        "details": "The message sender burns shares from its balance for the LsETH equivalent valueThe message sender doesn't need to approve the contract to burn the sharesThe freed LsETH is sent to the specified recipient",
        "params": {
          "_recipient": "The account receiving the underlying LsETH tokens after shares are burned",
          "_shares": "Amount of LsETH to free by burning wrapped LsETH"
        }
      },
      "decimals()": {
        "returns": {
          "_0": "The decimal count"
        }
      },
      "decreaseAllowance(address,uint256)": {
        "params": {
          "_spender": "Spender that receives the allowance",
          "_subtractableValue": "Amount to subtract"
        },
        "returns": {
          "_0": "True if success"
        }
      },
      "increaseAllowance(address,uint256)": {
        "params": {
          "_additionalValue": "Amount to add",
          "_spender": "Spender that receives the allowance"
        },
        "returns": {
          "_0": "True if success"
        }
      },
      "initWLSETHV1(address)": {
        "params": {
          "_river": "Address of the River contract"
        }
      },
      "mint(address,uint256)": {
        "details": "The message sender locks LsETH tokens and received wrapped LsETH tokens in exchangeThe message sender needs to approve the contract to mint the wrapped tokensThe minted wrapped LsETH is sent to the specified recipient",
        "params": {
          "_recipient": "The account receiving the new minted wrapped LsETH",
          "_shares": "The amount of LsETH to wrap"
        }
      },
      "name()": {
        "returns": {
          "_0": "The name of the token"
        }
      },
      "sharesOf(address)": {
        "params": {
          "_owner": "Owner to check the shares balance"
        },
        "returns": {
          "_0": "The shares of the owner"
        }
      },
      "symbol()": {
        "returns": {
          "_0": "The symbol of the token"
        }
      },
      "totalSupply()": {
        "returns": {
          "_0": "The total supply"
        }
      },
      "transfer(address,uint256)": {
        "params": {
          "_to": "Recipient of the transfer",
          "_value": "Amount to transfer"
        },
        "returns": {
          "_0": "True if success"
        }
      },
      "transferFrom(address,address,uint256)": {
        "details": "It is expected that _from has given at least _value allowance to msg.sender",
        "params": {
          "_from": "Sender account",
          "_to": "Recipient of the transfer",
          "_value": "Amount to transfer"
        },
        "returns": {
          "_0": "True if success"
        }
      }
    },
    "title": "Wrapped LsETH (v1)",
    "version": 1
  },
  "userdoc": {
    "errors": {
      "AllowanceTooLow(address,address,uint256,uint256)": [
        {
          "notice": "Allowance too low to perform operation"
        }
      ],
      "BalanceTooLow()": [
        {
          "notice": "Balance too low to perform operation"
        }
      ],
      "InvalidInitialization(uint256,uint256)": [
        {
          "notice": "An error occured during the initialization"
        }
      ],
      "InvalidZeroAddress()": [
        {
          "notice": "The address is zero"
        }
      ],
      "NullTransfer()": [
        {
          "notice": "Invalid empty transfer"
        }
      ],
      "TokenTransferError()": [
        {
          "notice": "The token transfer failed during the minting or burning process"
        }
      ],
      "UnauthorizedTransfer(address,address)": [
        {
          "notice": "Invalid transfer recipients"
        }
      ]
    },
    "events": {
      "Approval(address,address,uint256)": {
        "notice": "An approval has been made"
      },
      "Burn(address,uint256)": {
        "notice": "Tokens have been burned"
      },
      "Initialize(uint256,bytes)": {
        "notice": "Emitted when the contract is properly initialized"
      },
      "Mint(address,uint256)": {
        "notice": "Tokens have been minted"
      },
      "SetRiver(address)": {
        "notice": "The stored value of river has been changed"
      },
      "Transfer(address,address,uint256)": {
        "notice": "A transfer has been made"
      }
    },
    "kind": "user",
    "methods": {
      "allowance(address,address)": {
        "notice": "Retrieves the token allowance given from one address to another"
      },
      "approve(address,uint256)": {
        "notice": "Approves another account to transfer tokens"
      },
      "balanceOf(address)": {
        "notice": "Retrieves the token balance of the specified user"
      },
      "burn(address,uint256)": {
        "notice": "Burn tokens and retrieve underlying LsETH tokens"
      },
      "decimals()": {
        "notice": "Retrieves the token decimal count"
      },
      "decreaseAllowance(address,uint256)": {
        "notice": "Decrease allowance to another account"
      },
      "increaseAllowance(address,uint256)": {
        "notice": "Increase allowance to another account"
      },
      "initWLSETHV1(address)": {
        "notice": "Initializes the wrapped token contract"
      },
      "mint(address,uint256)": {
        "notice": "Mint tokens by providing LsETH tokens"
      },
      "name()": {
        "notice": "Retrieves the token full name"
      },
      "sharesOf(address)": {
        "notice": "Retrieves the raw shares count of the user"
      },
      "symbol()": {
        "notice": "Retrieves the token symbol"
      },
      "totalSupply()": {
        "notice": "Retrieves the token total supply"
      },
      "transfer(address,uint256)": {
        "notice": "Transfers tokens between the message sender and a recipient"
      },
      "transferFrom(address,address,uint256)": {
        "notice": "Transfers tokens between two accounts"
      }
    },
    "notice": "This contract wraps the LsETH token into a rebase token, more suitable for some DeFi use-cases         like stable swaps.",
    "version": 1
  },
  "storageLayout": {
    "storage": [
      {
        "astId": 27333,
        "contract": "contracts/src/WLSETH.1.sol:WLSETHV1",
        "label": "_status",
        "offset": 0,
        "slot": "0",
        "type": "t_uint256"
      }
    ],
    "types": {
      "t_uint256": {
        "encoding": "inplace",
        "label": "uint256",
        "numberOfBytes": "32"
      }
    }
  }
}