{
  "address": "0x936bD0b59fa8BD46dD1E1c9630aBF7926401A704",
  "abi": [
    {
      "inputs": [],
      "name": "AttemptToRemoveDenyPermission",
      "type": "error"
    },
    {
      "inputs": [],
      "name": "AttemptToSetDenyPermission",
      "type": "error"
    },
    {
      "inputs": [
        {
          "internalType": "address",
          "name": "_account",
          "type": "address"
        }
      ],
      "name": "Denied",
      "type": "error"
    },
    {
      "inputs": [],
      "name": "InvalidCount",
      "type": "error"
    },
    {
      "inputs": [
        {
          "internalType": "uint256",
          "name": "version",
          "type": "uint256"
        },
        {
          "internalType": "uint256",
          "name": "expectedVersion",
          "type": "uint256"
        }
      ],
      "name": "InvalidInitialization",
      "type": "error"
    },
    {
      "inputs": [],
      "name": "InvalidZeroAddress",
      "type": "error"
    },
    {
      "inputs": [],
      "name": "MismatchedArrayLengths",
      "type": "error"
    },
    {
      "inputs": [
        {
          "internalType": "address",
          "name": "caller",
          "type": "address"
        }
      ],
      "name": "Unauthorized",
      "type": "error"
    },
    {
      "anonymous": false,
      "inputs": [
        {
          "indexed": false,
          "internalType": "uint256",
          "name": "version",
          "type": "uint256"
        },
        {
          "indexed": false,
          "internalType": "bytes",
          "name": "cdata",
          "type": "bytes"
        }
      ],
      "name": "Initialize",
      "type": "event"
    },
    {
      "anonymous": false,
      "inputs": [
        {
          "indexed": true,
          "internalType": "address",
          "name": "admin",
          "type": "address"
        }
      ],
      "name": "SetAdmin",
      "type": "event"
    },
    {
      "anonymous": false,
      "inputs": [
        {
          "indexed": true,
          "internalType": "address",
          "name": "allower",
          "type": "address"
        }
      ],
      "name": "SetAllower",
      "type": "event"
    },
    {
      "anonymous": false,
      "inputs": [
        {
          "indexed": false,
          "internalType": "address[]",
          "name": "accounts",
          "type": "address[]"
        },
        {
          "indexed": false,
          "internalType": "uint256[]",
          "name": "permissions",
          "type": "uint256[]"
        }
      ],
      "name": "SetAllowlistPermissions",
      "type": "event"
    },
    {
      "anonymous": false,
      "inputs": [
        {
          "indexed": true,
          "internalType": "address",
          "name": "denier",
          "type": "address"
        }
      ],
      "name": "SetDenier",
      "type": "event"
    },
    {
      "anonymous": false,
      "inputs": [
        {
          "indexed": true,
          "internalType": "address",
          "name": "pendingAdmin",
          "type": "address"
        }
      ],
      "name": "SetPendingAdmin",
      "type": "event"
    },
    {
      "inputs": [],
      "name": "acceptAdmin",
      "outputs": [],
      "stateMutability": "nonpayable",
      "type": "function"
    },
    {
      "inputs": [],
      "name": "getAdmin",
      "outputs": [
        {
          "internalType": "address",
          "name": "",
          "type": "address"
        }
      ],
      "stateMutability": "view",
      "type": "function"
    },
    {
      "inputs": [],
      "name": "getAllower",
      "outputs": [
        {
          "internalType": "address",
          "name": "",
          "type": "address"
        }
      ],
      "stateMutability": "view",
      "type": "function"
    },
    {
      "inputs": [],
      "name": "getDenier",
      "outputs": [
        {
          "internalType": "address",
          "name": "",
          "type": "address"
        }
      ],
      "stateMutability": "view",
      "type": "function"
    },
    {
      "inputs": [],
      "name": "getPendingAdmin",
      "outputs": [
        {
          "internalType": "address",
          "name": "",
          "type": "address"
        }
      ],
      "stateMutability": "view",
      "type": "function"
    },
    {
      "inputs": [
        {
          "internalType": "address",
          "name": "_account",
          "type": "address"
        }
      ],
      "name": "getPermissions",
      "outputs": [
        {
          "internalType": "uint256",
          "name": "",
          "type": "uint256"
        }
      ],
      "stateMutability": "view",
      "type": "function"
    },
    {
      "inputs": [
        {
          "internalType": "address",
          "name": "_account",
          "type": "address"
        },
        {
          "internalType": "uint256",
          "name": "_mask",
          "type": "uint256"
        }
      ],
      "name": "hasPermission",
      "outputs": [
        {
          "internalType": "bool",
          "name": "",
          "type": "bool"
        }
      ],
      "stateMutability": "view",
      "type": "function"
    },
    {
      "inputs": [
        {
          "internalType": "address",
          "name": "_admin",
          "type": "address"
        },
        {
          "internalType": "address",
          "name": "_allower",
          "type": "address"
        }
      ],
      "name": "initAllowlistV1",
      "outputs": [],
      "stateMutability": "nonpayable",
      "type": "function"
    },
    {
      "inputs": [
        {
          "internalType": "address",
          "name": "_denier",
          "type": "address"
        }
      ],
      "name": "initAllowlistV1_1",
      "outputs": [],
      "stateMutability": "nonpayable",
      "type": "function"
    },
    {
      "inputs": [
        {
          "internalType": "address",
          "name": "_account",
          "type": "address"
        },
        {
          "internalType": "uint256",
          "name": "_mask",
          "type": "uint256"
        }
      ],
      "name": "isAllowed",
      "outputs": [
        {
          "internalType": "bool",
          "name": "",
          "type": "bool"
        }
      ],
      "stateMutability": "view",
      "type": "function"
    },
    {
      "inputs": [
        {
          "internalType": "address",
          "name": "_account",
          "type": "address"
        }
      ],
      "name": "isDenied",
      "outputs": [
        {
          "internalType": "bool",
          "name": "",
          "type": "bool"
        }
      ],
      "stateMutability": "view",
      "type": "function"
    },
    {
      "inputs": [
        {
          "internalType": "address",
          "name": "_account",
          "type": "address"
        },
        {
          "internalType": "uint256",
          "name": "_mask",
          "type": "uint256"
        }
      ],
      "name": "onlyAllowed",
      "outputs": [],
      "stateMutability": "view",
      "type": "function"
    },
    {
      "inputs": [
        {
          "internalType": "address",
          "name": "_newAdmin",
          "type": "address"
        }
      ],
      "name": "proposeAdmin",
      "outputs": [],
      "stateMutability": "nonpayable",
      "type": "function"
    },
    {
      "inputs": [
        {
          "internalType": "address[]",
          "name": "_accounts",
          "type": "address[]"
        },
        {
          "internalType": "uint256[]",
          "name": "_permissions",
          "type": "uint256[]"
        }
      ],
      "name": "setAllowPermissions",
      "outputs": [],
      "stateMutability": "nonpayable",
      "type": "function"
    },
    {
      "inputs": [
        {
          "internalType": "address",
          "name": "_newAllowerAddress",
          "type": "address"
        }
      ],
      "name": "setAllower",
      "outputs": [],
      "stateMutability": "nonpayable",
      "type": "function"
    },
    {
      "inputs": [
        {
          "internalType": "address",
          "name": "_newDenierAddress",
          "type": "address"
        }
      ],
      "name": "setDenier",
      "outputs": [],
      "stateMutability": "nonpayable",
      "type": "function"
    },
    {
      "inputs": [
        {
          "internalType": "address[]",
          "name": "_accounts",
          "type": "address[]"
        },
        {
          "internalType": "uint256[]",
          "name": "_permissions",
          "type": "uint256[]"
        }
      ],
      "name": "setDenyPermissions",
      "outputs": [],
      "stateMutability": "nonpayable",
      "type": "function"
    },
    {
      "inputs": [],
      "name": "version",
      "outputs": [
        {
          "internalType": "string",
          "name": "",
          "type": "string"
        }
      ],
      "stateMutability": "pure",
      "type": "function"
    }
  ],
  "transactionHash": "0xba51479c5bcb69e77cce4c98fa7fefd5d1b0ea0fba998824f817531e3912df9c",
  "args": [],
  "numDeployments": 1,
  "solcInputHash": "09ab035d61ef908ac37f7fdfb0b5b7d1",
  "bytecode": "0x608080604052346093577f1809e49bba43f2d39fa57894b50cd6ccb428cc438230e065cac3eb24a1355a71906000197f82055909238c0f5e63d6f174068ebb8f51bcec9bd37de63bb68f6551feec0cfc556000198152604060208201523660408201523660006060830137600060603683010152606081601f19601f3601168101030190a1604051610d4990816100998239f35b600080fdfe6080604052600436101561001257600080fd5b60003560e01c8063029baf561461097157806307a400081461093b5780630e18b681146108d4578063147bf6c41461085a578063160a7925146108135780633daee8e9146106fa5780634679a9e11461067757806354fd4d50146105d257806355b3cd94146104625780635a409102146103c95780636231bd4a146103935780636e8cac111461027d5780636e9960c3146102475780638d944fd9146101fa57806391df0bdf146101a2578063d04681561461016c578063e838dfbb146101185763f8350ed0146100e257600080fd5b34610113576040366003190112610113576020610109610100610a35565b60243590610bc8565b6040519015158152f35b600080fd5b3461011357602036600319011261011357610131610a35565b6001600160a01b03166000908152600080516020610c948339815191526020908152604091829020549151600160ff1b928316909214825290f35b3461011357600036600319011261011357600080516020610cb4833981519152546040516001600160a01b039091168152602090f35b34610113576020366003190112610113576101bb610a35565b600080516020610cd4833981519152546001600160a01b031633036101e5576101e390610ace565b005b63472511eb60e11b6000523360045260246000fd5b34610113576040366003190112610113576020610215610a35565b60243590600080516020610c948339815191529060018060a01b03166000528252806040600020541614604051908152f35b3461011357600036600319011261011357600080516020610cd4833981519152546040516001600160a01b039091168152602090f35b3461011357604036600319011261011357610296610a35565b6024356001600160a01b03811690818103610113577f82055909238c0f5e63d6f174068ebb8f51bcec9bd37de63bb68f6551feec0cfc928354610378576103019060017f1809e49bba43f2d39fa57894b50cd6ccb428cc438230e065cac3eb24a1355a719555610c07565b61030a81610c52565b600080516020610cf483398151915255604051907fb96ab8443049f385aba7fbc2899e3fcdfba4d80ac8458847f40b7d426bae2dcf600080a260008152604060208201523660408201523660006060830137600060603683010152606081601f19601f3601168101030190a1005b8354631cfd276760e31b600052600060045260245260446000fd5b3461011357600036600319011261011357600080516020610c74833981519152546040516001600160a01b039091168152602090f35b34610113576040366003190112610113576103e2610a35565b6001600160a01b0381166000908152600080516020610c94833981519152602052604090205460243590600160ff1b808216146104435781160361042257005b63472511eb60e11b60009081526001600160a01b0391909116600452602490fd5b63e7d05e2760e01b60009081526001600160a01b038416600452602490fd5b346101135761047036610a7c565b600080516020610cf4833981519152549193916001600160a01b031633036101e55782156105c1578083036105b057600080516020610c948339815191529360005b8481106104f1576040517f649636a73c855dfe2014a555a98949d77640be8f4eb6702749d5f83c9aa6fcd090806104ec86868a8a85610b53565b0390a1005b61050c610507610502838888610b19565b610b3f565b610c52565b604061051c610502838888610b19565b6001600160a01b0316600090815260208890522054600160ff1b9081161461059f57600160ff1b8061054f838686610b19565b35161461058e57806105676105026001938888610b19565b6040610574838787610b19565b3591600090858060a01b03168152896020522055016104b2565b63d93c678560e01b60005260046000fd5b63234817a360e01b60005260046000fd5b632b477e7160e11b60005260046000fd5b631a49577b60e11b60005260046000fd5b34610113576000366003190112610113576040516040810181811067ffffffffffffffff8211176106615760405260058152640312e332e360dc1b602082015260405190602082528181519182602083015260005b8381106106495750508160006040809484010152601f80199101168101030190f35b60208282018101516040878401015285935001610627565b634e487b7160e01b600052604160045260246000fd5b3461011357602036600319011261011357610690610a35565b600080516020610cd4833981519152546001600160a01b031633036101e5576106b881610c52565b600080516020610cf48339815191528190556001600160a01b03167fb96ab8443049f385aba7fbc2899e3fcdfba4d80ac8458847f40b7d426bae2dcf600080a2005b346101135761070836610a7c565b600080516020610c7483398151915254909391906001600160a01b031633036101e55782156105c1578383036105b05760005b83811061077557507f649636a73c855dfe2014a555a98949d77640be8f4eb6702749d5f83c9aa6fcd0936104ec9160405194859485610b53565b806107896105076105026001948888610b19565b60ff82901b8061079a838987610b19565b3516036107dd5760406107b1610502838888610b19565b600080516020610c94833981519152600091858060a01b03168252602052208260ff1b90555b0161073b565b600060406107ef610502848989610b19565b600080516020610c948339815191528391868060a01b0316825260205220556107d7565b346101135760203660031901126101135761082c610a35565b600080516020610c948339815191529060018060a01b03166000526020526020604060002054604051908152f35b3461011357602036600319011261011357610873610a35565b600080516020610cd4833981519152546001600160a01b031633036101e557600080516020610cb48339815191528190556001600160a01b03167f2a0f8515de3fa34ef68b99300347b8793c01683350743e96fe440594528298f4600080a2005b3461011357600036600319011261011357600080516020610cb483398151915280546001600160a01b031633036101e5578061091260009254610c07565b5560007f2a0f8515de3fa34ef68b99300347b8793c01683350743e96fe440594528298f48180a2005b3461011357600036600319011261011357600080516020610cf4833981519152546040516001600160a01b039091168152602090f35b346101135760203660031901126101135761098a610a35565b7f82055909238c0f5e63d6f174068ebb8f51bcec9bd37de63bb68f6551feec0cfc908154600103610a1a5760026109c19255610ace565b7f1809e49bba43f2d39fa57894b50cd6ccb428cc438230e065cac3eb24a1355a7160405160018152604060208201523660408201523660006060830137600060603683010152606081601f19601f3601168101030190a1005b5054631cfd276760e31b600052600160045260245260446000fd5b600435906001600160a01b038216820361011357565b9181601f840112156101135782359167ffffffffffffffff8311610113576020808501948460051b01011161011357565b60406003198201126101135760043567ffffffffffffffff81116101135781610aa791600401610a4b565b929092916024359067ffffffffffffffff821161011357610aca91600401610a4b565b9091565b610ad781610c52565b600080516020610c748339815191528190556001600160a01b03167f19cda96968bca1626d03a55a2075bba1bb7a09e2dd1aa05c6db5fa64e667f1ff600080a2565b9190811015610b295760051b0190565b634e487b7160e01b600052603260045260246000fd5b356001600160a01b03811681036101135790565b9091806040830160408452526060820192906000905b808210610b9e575050508082036020909101528281526001600160fb1b0383116101135760209260051b809284830137010190565b90919384359060018060a01b03821680920361011357602081600193829352019501920190610b69565b6001600160a01b03166000908152600080516020610c948339815191526020526040902054600160ff1b80821614610c005781161490565b5050600090565b610c1081610c52565b600080516020610cd48339815191528190556001600160a01b03167f5a272403b402d892977df56625f4164ccaf70ca3863991c43ecfe76a6905b0a1600080a2565b6001600160a01b031615610c6257565b63f6b2911f60e01b60005260046000fdfe8903d9e1ebb78d6e769aff34517c83745b66dd8832ab7766ebf6fe8bab2a7099f13551d5cf1b23afc8669eb5ef15070e351923179334eb1a5aa569477f4a41346e6ab8b7c7aaba79eef8cc633522d606bb008c101cf9832c9ad05d10a9847280b5b37715a3e346e996104f0086703f19825def429233930fd9399c38e05fb1123d8762f71ac4675044de4231ebed7df0f8a8819893c6b6278d0461fc4a979b7fa264697066735822122038bceba696e5bf8df97d0c0d2167d20b241fba37d3dcc0fabe7171684e73ae4864736f6c63430008220033",
  "devdoc": {
    "author": "Alluvial Finance Inc.",
    "errors": {
      "Denied(address)": [
        {
          "params": {
            "_account": "The denied account"
          }
        }
      ],
      "InvalidInitialization(uint256,uint256)": [
        {
          "params": {
            "expectedVersion": "The version that was expected",
            "version": "The version that was attempting to be initialized"
          }
        }
      ],
      "Unauthorized(address)": [
        {
          "params": {
            "caller": "Address performing the call"
          }
        }
      ]
    },
    "events": {
      "Initialize(uint256,bytes)": {
        "params": {
          "cdata": "Complete calldata that was used during the initialization",
          "version": "New version of the contracts"
        }
      },
      "SetAdmin(address)": {
        "params": {
          "admin": "New admin address"
        }
      },
      "SetAllower(address)": {
        "params": {
          "allower": "The new allower address"
        }
      },
      "SetAllowlistPermissions(address[],uint256[])": {
        "params": {
          "accounts": "List of accounts",
          "permissions": "New permissions for each account at the same index"
        }
      },
      "SetDenier(address)": {
        "params": {
          "denier": "The new denier address"
        }
      },
      "SetPendingAdmin(address)": {
        "params": {
          "pendingAdmin": "New pending admin address"
        }
      }
    },
    "kind": "dev",
    "methods": {
      "acceptAdmin()": {
        "details": "Only callable by the pending admin. Resets the pending admin if succesful."
      },
      "getAdmin()": {
        "returns": {
          "_0": "The admin address"
        }
      },
      "getAllower()": {
        "returns": {
          "_0": "The address of the allower"
        }
      },
      "getDenier()": {
        "returns": {
          "_0": "The address of the denier"
        }
      },
      "getPendingAdmin()": {
        "returns": {
          "_0": "The pending admin address"
        }
      },
      "getPermissions(address)": {
        "params": {
          "_account": "Recipient to verify"
        },
        "returns": {
          "_0": "The raw permissions value of the account"
        }
      },
      "hasPermission(address,uint256)": {
        "params": {
          "_account": "Recipient to verify",
          "_mask": "Combination of permissions to verify"
        },
        "returns": {
          "_0": "True if mask is respected"
        }
      },
      "initAllowlistV1(address,address)": {
        "params": {
          "_admin": "Address of the Allowlist administrator",
          "_allower": "Address of the allower"
        }
      },
      "initAllowlistV1_1(address)": {
        "params": {
          "_denier": "Address of the denier"
        }
      },
      "isAllowed(address,uint256)": {
        "params": {
          "_account": "Recipient to verify",
          "_mask": "Combination of permissions to verify"
        },
        "returns": {
          "_0": "True if mask is respected and user is allowed"
        }
      },
      "isDenied(address)": {
        "params": {
          "_account": "Recipient to verify"
        },
        "returns": {
          "_0": "True if user is denied access"
        }
      },
      "onlyAllowed(address,uint256)": {
        "params": {
          "_account": "Recipient to verify",
          "_mask": "Combination of permissions to verify"
        }
      },
      "proposeAdmin(address)": {
        "details": "This security prevents setting an invalid address as an admin. The pendingadmin has to claim its ownership of the contract, and prove that the newaddress is able to perform regular transactions.",
        "params": {
          "_newAdmin": "New admin address"
        }
      },
      "setAllowPermissions(address[],uint256[])": {
        "details": "This function is for allocating or removing deposit, redeem or donate permissions.      This function could be used to give any permissions that we come up with in the future.      An address which was denied has to be undenied first before they could be given any permission(s).",
        "params": {
          "_accounts": "Accounts to update",
          "_permissions": "New permission values"
        }
      },
      "setAllower(address)": {
        "params": {
          "_newAllowerAddress": "New address allowed to edit the allowlist"
        }
      },
      "setDenier(address)": {
        "params": {
          "_newDenierAddress": "New address allowed to edit the allowlist"
        }
      },
      "setDenyPermissions(address[],uint256[])": {
        "details": "This function is for allocating or removing deny permissions.      An address which is undenied has to be given permissions again for them to be able to deposit, donate or redeem.",
        "params": {
          "_accounts": "Accounts to update",
          "_permissions": "New permission values"
        }
      },
      "version()": {
        "returns": {
          "_0": "Version of the contract"
        }
      }
    },
    "title": "Allowlist (v1)",
    "version": 1
  },
  "userdoc": {
    "errors": {
      "AttemptToRemoveDenyPermission()": [
        {
          "notice": "Allower can't remove deny permission"
        }
      ],
      "AttemptToSetDenyPermission()": [
        {
          "notice": "Allower can't set deny permission"
        }
      ],
      "Denied(address)": [
        {
          "notice": "The account is denied access"
        }
      ],
      "InvalidCount()": [
        {
          "notice": "The provided accounts list is empty"
        }
      ],
      "InvalidInitialization(uint256,uint256)": [
        {
          "notice": "An error occured during the initialization"
        }
      ],
      "InvalidZeroAddress()": [
        {
          "notice": "The address is zero"
        }
      ],
      "MismatchedArrayLengths()": [
        {
          "notice": "The provided accounts and permissions list have different lengths"
        }
      ],
      "Unauthorized(address)": [
        {
          "notice": "The operator is unauthorized for the caller"
        }
      ]
    },
    "events": {
      "Initialize(uint256,bytes)": {
        "notice": "Emitted when the contract is properly initialized"
      },
      "SetAdmin(address)": {
        "notice": "The admin address changed"
      },
      "SetAllower(address)": {
        "notice": "The stored allower address has been changed"
      },
      "SetAllowlistPermissions(address[],uint256[])": {
        "notice": "The permissions of several accounts have changed"
      },
      "SetDenier(address)": {
        "notice": "The stored denier address has been changed"
      },
      "SetPendingAdmin(address)": {
        "notice": "The pending admin address changed"
      }
    },
    "kind": "user",
    "methods": {
      "acceptAdmin()": {
        "notice": "Accept the transfer of ownership"
      },
      "getAdmin()": {
        "notice": "Retrieves the current admin address"
      },
      "getAllower()": {
        "notice": "Retrieves the allower address"
      },
      "getDenier()": {
        "notice": "Retrieves the denier address"
      },
      "getPendingAdmin()": {
        "notice": "Retrieve the current pending admin address"
      },
      "getPermissions(address)": {
        "notice": "This method retrieves the raw permission value"
      },
      "hasPermission(address,uint256)": {
        "notice": "This method returns true if the user has the expected permission         ignoring any deny list membership"
      },
      "initAllowlistV1(address,address)": {
        "notice": "Initializes the allowlist"
      },
      "initAllowlistV1_1(address)": {
        "notice": "Initializes the allowlist denier"
      },
      "isAllowed(address,uint256)": {
        "notice": "This method returns true if the user has the expected permission and         is not in the deny list"
      },
      "isDenied(address)": {
        "notice": "This method returns true if the user is in the deny list"
      },
      "onlyAllowed(address,uint256)": {
        "notice": "This method should be used as a modifier and is expected to revert         if the user hasn't got the required permission or if the user is         in the deny list."
      },
      "proposeAdmin(address)": {
        "notice": "Proposes a new address as admin"
      },
      "setAllowPermissions(address[],uint256[])": {
        "notice": "Sets the allow permissions for one or more accounts"
      },
      "setAllower(address)": {
        "notice": "Changes the allower address"
      },
      "setDenier(address)": {
        "notice": "Changes the denier address"
      },
      "setDenyPermissions(address[],uint256[])": {
        "notice": "Sets the deny permissions for one or more accounts"
      },
      "version()": {
        "notice": "Retrieves the version of the contract"
      }
    },
    "notice": "This contract handles the list of allowed recipients.All accounts have an uint256 value associated with their addresses whereeach bit represents a right in the system. The DENY_MASK defined the maskused to identify if the denied bit is on, preventing users from interactingwith the system",
    "version": 1
  },
  "storageLayout": {
    "storage": [],
    "types": null
  }
}