{
  "address": "0xC0d70Bf38009CA2F3Bbe16C5C58de26630A148bC",
  "abi": [
    {
      "inputs": [],
      "name": "ClaimInitiatorIsDenied",
      "type": "error"
    },
    {
      "inputs": [],
      "name": "ClaimRecipientIsDenied",
      "type": "error"
    },
    {
      "inputs": [
        {
          "internalType": "address",
          "name": "recipient",
          "type": "address"
        },
        {
          "internalType": "bytes",
          "name": "rdata",
          "type": "bytes"
        }
      ],
      "name": "ClaimRedeemFailed",
      "type": "error"
    },
    {
      "inputs": [
        {
          "internalType": "uint256",
          "name": "redeemRequestId",
          "type": "uint256"
        },
        {
          "internalType": "uint256",
          "name": "withdrawalEventId",
          "type": "uint256"
        }
      ],
      "name": "DoesNotMatch",
      "type": "error"
    },
    {
      "inputs": [],
      "name": "IncompatibleArrayLengths",
      "type": "error"
    },
    {
      "inputs": [
        {
          "internalType": "uint256",
          "name": "version",
          "type": "uint256"
        },
        {
          "internalType": "uint256",
          "name": "expectedVersion",
          "type": "uint256"
        }
      ],
      "name": "InvalidInitialization",
      "type": "error"
    },
    {
      "inputs": [],
      "name": "InvalidZeroAddress",
      "type": "error"
    },
    {
      "inputs": [],
      "name": "InvalidZeroAmount",
      "type": "error"
    },
    {
      "inputs": [],
      "name": "RecipientIsDenied",
      "type": "error"
    },
    {
      "inputs": [
        {
          "internalType": "uint256",
          "name": "id",
          "type": "uint256"
        }
      ],
      "name": "RedeemRequestAlreadyClaimed",
      "type": "error"
    },
    {
      "inputs": [
        {
          "internalType": "uint256",
          "name": "id",
          "type": "uint256"
        }
      ],
      "name": "RedeemRequestOutOfBounds",
      "type": "error"
    },
    {
      "inputs": [],
      "name": "SlashingContainmentModeEnabled",
      "type": "error"
    },
    {
      "inputs": [],
      "name": "TransferError",
      "type": "error"
    },
    {
      "inputs": [
        {
          "internalType": "address",
          "name": "caller",
          "type": "address"
        }
      ],
      "name": "Unauthorized",
      "type": "error"
    },
    {
      "inputs": [
        {
          "internalType": "uint256",
          "name": "id",
          "type": "uint256"
        }
      ],
      "name": "WithdrawalEventOutOfBounds",
      "type": "error"
    },
    {
      "inputs": [
        {
          "internalType": "uint256",
          "name": "withdrawalAmount",
          "type": "uint256"
        },
        {
          "internalType": "uint256",
          "name": "redeemDemand",
          "type": "uint256"
        }
      ],
      "name": "WithdrawalExceedsRedeemDemand",
      "type": "error"
    },
    {
      "anonymous": false,
      "inputs": [
        {
          "indexed": true,
          "internalType": "uint32",
          "name": "redeemRequestId",
          "type": "uint32"
        },
        {
          "indexed": true,
          "internalType": "address",
          "name": "recipient",
          "type": "address"
        },
        {
          "indexed": false,
          "internalType": "uint256",
          "name": "ethAmount",
          "type": "uint256"
        },
        {
          "indexed": false,
          "internalType": "uint256",
          "name": "lsEthAmount",
          "type": "uint256"
        },
        {
          "indexed": false,
          "internalType": "uint256",
          "name": "remainingLsEthAmount",
          "type": "uint256"
        }
      ],
      "name": "ClaimedRedeemRequest",
      "type": "event"
    },
    {
      "anonymous": false,
      "inputs": [
        {
          "indexed": false,
          "internalType": "uint256",
          "name": "version",
          "type": "uint256"
        },
        {
          "indexed": false,
          "internalType": "bytes",
          "name": "cdata",
          "type": "bytes"
        }
      ],
      "name": "Initialize",
      "type": "event"
    },
    {
      "anonymous": false,
      "inputs": [
        {
          "indexed": false,
          "internalType": "uint256",
          "name": "height",
          "type": "uint256"
        },
        {
          "indexed": false,
          "internalType": "uint256",
          "name": "amount",
          "type": "uint256"
        },
        {
          "indexed": false,
          "internalType": "uint256",
          "name": "ethAmount",
          "type": "uint256"
        },
        {
          "indexed": false,
          "internalType": "uint32",
          "name": "id",
          "type": "uint32"
        }
      ],
      "name": "ReportedWithdrawal",
      "type": "event"
    },
    {
      "anonymous": false,
      "inputs": [
        {
          "indexed": true,
          "internalType": "address",
          "name": "recipient",
          "type": "address"
        },
        {
          "indexed": false,
          "internalType": "uint256",
          "name": "height",
          "type": "uint256"
        },
        {
          "indexed": false,
          "internalType": "uint256",
          "name": "amount",
          "type": "uint256"
        },
        {
          "indexed": false,
          "internalType": "uint256",
          "name": "maxRedeemableEth",
          "type": "uint256"
        },
        {
          "indexed": false,
          "internalType": "uint32",
          "name": "id",
          "type": "uint32"
        }
      ],
      "name": "RequestedRedeem",
      "type": "event"
    },
    {
      "anonymous": false,
      "inputs": [
        {
          "indexed": true,
          "internalType": "uint32",
          "name": "redeemRequestId",
          "type": "uint32"
        },
        {
          "indexed": true,
          "internalType": "uint32",
          "name": "withdrawalEventId",
          "type": "uint32"
        },
        {
          "indexed": false,
          "internalType": "uint256",
          "name": "lsEthAmountSatisfied",
          "type": "uint256"
        },
        {
          "indexed": false,
          "internalType": "uint256",
          "name": "ethAmountSatisfied",
          "type": "uint256"
        },
        {
          "indexed": false,
          "internalType": "uint256",
          "name": "lsEthAmountRemaining",
          "type": "uint256"
        },
        {
          "indexed": false,
          "internalType": "uint256",
          "name": "ethAmountExceeding",
          "type": "uint256"
        }
      ],
      "name": "SatisfiedRedeemRequest",
      "type": "event"
    },
    {
      "anonymous": false,
      "inputs": [
        {
          "indexed": false,
          "internalType": "uint256",
          "name": "oldRedeemDemand",
          "type": "uint256"
        },
        {
          "indexed": false,
          "internalType": "uint256",
          "name": "newRedeemDemand",
          "type": "uint256"
        }
      ],
      "name": "SetRedeemDemand",
      "type": "event"
    },
    {
      "anonymous": false,
      "inputs": [
        {
          "indexed": false,
          "internalType": "address",
          "name": "river",
          "type": "address"
        }
      ],
      "name": "SetRiver",
      "type": "event"
    },
    {
      "inputs": [
        {
          "internalType": "uint32[]",
          "name": "redeemRequestIds",
          "type": "uint32[]"
        },
        {
          "internalType": "uint32[]",
          "name": "withdrawalEventIds",
          "type": "uint32[]"
        },
        {
          "internalType": "bool",
          "name": "skipAlreadyClaimed",
          "type": "bool"
        },
        {
          "internalType": "uint16",
          "name": "_depth",
          "type": "uint16"
        }
      ],
      "name": "claimRedeemRequests",
      "outputs": [
        {
          "internalType": "uint8[]",
          "name": "claimStatuses",
          "type": "uint8[]"
        }
      ],
      "stateMutability": "nonpayable",
      "type": "function"
    },
    {
      "inputs": [
        {
          "internalType": "uint32[]",
          "name": "_redeemRequestIds",
          "type": "uint32[]"
        },
        {
          "internalType": "uint32[]",
          "name": "_withdrawalEventIds",
          "type": "uint32[]"
        }
      ],
      "name": "claimRedeemRequests",
      "outputs": [
        {
          "internalType": "uint8[]",
          "name": "claimStatuses",
          "type": "uint8[]"
        }
      ],
      "stateMutability": "nonpayable",
      "type": "function"
    },
    {
      "inputs": [],
      "name": "getBufferedExceedingEth",
      "outputs": [
        {
          "internalType": "uint256",
          "name": "",
          "type": "uint256"
        }
      ],
      "stateMutability": "view",
      "type": "function"
    },
    {
      "inputs": [],
      "name": "getRedeemDemand",
      "outputs": [
        {
          "internalType": "uint256",
          "name": "",
          "type": "uint256"
        }
      ],
      "stateMutability": "view",
      "type": "function"
    },
    {
      "inputs": [],
      "name": "getRedeemRequestCount",
      "outputs": [
        {
          "internalType": "uint256",
          "name": "",
          "type": "uint256"
        }
      ],
      "stateMutability": "view",
      "type": "function"
    },
    {
      "inputs": [
        {
          "internalType": "uint32",
          "name": "_redeemRequestId",
          "type": "uint32"
        }
      ],
      "name": "getRedeemRequestDetails",
      "outputs": [
        {
          "components": [
            {
              "internalType": "uint256",
              "name": "amount",
              "type": "uint256"
            },
            {
              "internalType": "uint256",
              "name": "maxRedeemableEth",
              "type": "uint256"
            },
            {
              "internalType": "address",
              "name": "recipient",
              "type": "address"
            },
            {
              "internalType": "uint256",
              "name": "height",
              "type": "uint256"
            },
            {
              "internalType": "address",
              "name": "initiator",
              "type": "address"
            }
          ],
          "internalType": "struct RedeemQueueV2.RedeemRequest",
          "name": "",
          "type": "tuple"
        }
      ],
      "stateMutability": "view",
      "type": "function"
    },
    {
      "inputs": [],
      "name": "getRiver",
      "outputs": [
        {
          "internalType": "address",
          "name": "",
          "type": "address"
        }
      ],
      "stateMutability": "view",
      "type": "function"
    },
    {
      "inputs": [],
      "name": "getWithdrawalEventCount",
      "outputs": [
        {
          "internalType": "uint256",
          "name": "",
          "type": "uint256"
        }
      ],
      "stateMutability": "view",
      "type": "function"
    },
    {
      "inputs": [
        {
          "internalType": "uint32",
          "name": "_withdrawalEventId",
          "type": "uint32"
        }
      ],
      "name": "getWithdrawalEventDetails",
      "outputs": [
        {
          "components": [
            {
              "internalType": "uint256",
              "name": "amount",
              "type": "uint256"
            },
            {
              "internalType": "uint256",
              "name": "withdrawnEth",
              "type": "uint256"
            },
            {
              "internalType": "uint256",
              "name": "height",
              "type": "uint256"
            }
          ],
          "internalType": "struct WithdrawalStack.WithdrawalEvent",
          "name": "",
          "type": "tuple"
        }
      ],
      "stateMutability": "view",
      "type": "function"
    },
    {
      "inputs": [
        {
          "internalType": "address",
          "name": "_river",
          "type": "address"
        }
      ],
      "name": "initializeRedeemManagerV1",
      "outputs": [],
      "stateMutability": "nonpayable",
      "type": "function"
    },
    {
      "inputs": [],
      "name": "initializeRedeemManagerV1_2",
      "outputs": [],
      "stateMutability": "nonpayable",
      "type": "function"
    },
    {
      "inputs": [
        {
          "internalType": "uint256",
          "name": "_max",
          "type": "uint256"
        }
      ],
      "name": "pullExceedingEth",
      "outputs": [],
      "stateMutability": "nonpayable",
      "type": "function"
    },
    {
      "inputs": [
        {
          "internalType": "uint256",
          "name": "_lsETHWithdrawable",
          "type": "uint256"
        }
      ],
      "name": "reportWithdraw",
      "outputs": [],
      "stateMutability": "payable",
      "type": "function"
    },
    {
      "inputs": [
        {
          "internalType": "uint256",
          "name": "_lsETHAmount",
          "type": "uint256"
        },
        {
          "internalType": "address",
          "name": "_recipient",
          "type": "address"
        }
      ],
      "name": "requestRedeem",
      "outputs": [
        {
          "internalType": "uint32",
          "name": "redeemRequestId",
          "type": "uint32"
        }
      ],
      "stateMutability": "nonpayable",
      "type": "function"
    },
    {
      "inputs": [
        {
          "internalType": "uint256",
          "name": "_lsETHAmount",
          "type": "uint256"
        },
        {
          "internalType": "address",
          "name": "_recipient",
          "type": "address"
        },
        {
          "internalType": "address",
          "name": "_initiator",
          "type": "address"
        }
      ],
      "name": "requestRedeem",
      "outputs": [
        {
          "internalType": "uint32",
          "name": "redeemRequestId",
          "type": "uint32"
        }
      ],
      "stateMutability": "nonpayable",
      "type": "function"
    },
    {
      "inputs": [
        {
          "internalType": "uint256",
          "name": "_lsETHAmount",
          "type": "uint256"
        }
      ],
      "name": "requestRedeem",
      "outputs": [
        {
          "internalType": "uint32",
          "name": "redeemRequestId",
          "type": "uint32"
        }
      ],
      "stateMutability": "nonpayable",
      "type": "function"
    },
    {
      "inputs": [
        {
          "internalType": "uint32[]",
          "name": "_redeemRequestIds",
          "type": "uint32[]"
        }
      ],
      "name": "resolveRedeemRequests",
      "outputs": [
        {
          "internalType": "int64[]",
          "name": "withdrawalEventIds",
          "type": "int64[]"
        }
      ],
      "stateMutability": "view",
      "type": "function"
    },
    {
      "inputs": [],
      "name": "version",
      "outputs": [
        {
          "internalType": "string",
          "name": "",
          "type": "string"
        }
      ],
      "stateMutability": "pure",
      "type": "function"
    }
  ],
  "transactionHash": "0x1c1504c4b2a8c3ca66c0b46b17f0defb50f18d7c1ae38224bc8a01fbfd8c6b3c",
  "args": [],
  "numDeployments": 1,
  "solcInputHash": "09ab035d61ef908ac37f7fdfb0b5b7d1",
  "bytecode": "0x608080604052346098577f1809e49bba43f2d39fa57894b50cd6ccb428cc438230e065cac3eb24a1355a71906000197f82055909238c0f5e63d6f174068ebb8f51bcec9bd37de63bb68f6551feec0cfc556000198152604060208201523660408201523660006060830137600060603683010152606081601f19601f3601168101030190a160016000556040516124b0908161009e8239f35b600080fdfe6080604052600436101561001257600080fd5b6000803560e01c80630c779401146116e05780630d8d2a54146116b4578063107703ab146114b7578063319798d11461148b57806354fd4d50146114425780635b5985a2146114165780635f2e5f07146112f55780637c044e5514610dbc5780637d41c86e14610d60578063841ecb8514610d345780638623375414610cce5780639332525d146107d25780639b92d6de14610742578063a519f0601461070b578063aa2f892d1461058b578063b30d8bb7146103f5578063b69dd9e6146101ef5763c8fade5a146100e357600080fd5b346101ec5760203660031901126101ec57600435906001600160a01b0382168083036101ea577f82055909238c0f5e63d6f174068ebb8f51bcec9bd37de63bb68f6551feec0cfc9283546101d1577ffc0d749143b04e0d92a3b49edae84a45f6bc88b75e99d9118ec4d7e87fe626c5916020916001865561016381611f00565b60008051602061241b83398151915255604051908152a17f1809e49bba43f2d39fa57894b50cd6ccb428cc438230e065cac3eb24a1355a7160405182815260406020820152366040820152368360608301378260603683010152606081601f19601f3601168101030190a180f35b8354631cfd276760e31b84526004849052602452604483fd5b505b80fd5b50346101ec57806003193601126101ec577f82055909238c0f5e63d6f174068ebb8f51bcec9bd37de63bb68f6551feec0cfc80546001036103dd57600290556000805160206123db833981519152805461024881611986565b906102566040519283611913565b80825260208201908385526020852085925b82841061036f5750505050805191835b8381106102d857847f1809e49bba43f2d39fa57894b50cd6ccb428cc438230e065cac3eb24a1355a716040516001815260406020820152366040820152368360608301378260603683010152606081601f19601f3601168101030190a180f35b806103696102e860019386611a37565b515160206102f68488611a37565b510151848060a01b03604061030b868a611a37565b51015116606061031b868a611a37565b51015190868060a01b036040610331888c611a37565b510151169260405194610343866118dc565b855260208501526040840152606083015260808201526103638386611a76565b90611b13565b01610278565b604051608081018181106001600160401b038211176103c957600192600492602092604052855481528486015483820152848060a01b03600287015416604082015260038601546060820152815201920193019290610268565b634e487b7160e01b89526041600452602489fd5b54631cfd276760e31b82526001600452602452604490fd5b5060203660031901126101ec5760008051602061241b8339815191525460043591906001600160a01b03163303610578576000805160206123fb83398151915254918281116105625760008051602061245b8339815191529081549363ffffffff85169484938661052f575b6040519161046e836118ab565b84835260208301903482526040840192878452600160401b8210156103c9579061049d916001820181556119bc565b93909361051b57937f05e5b10ca266c2e8cfd73b1fb719694fb6b89fcda9e3739ace4cc19b3e85544597989360026104e8948894610515985184555160018401555191015503611ebd565b604051938493349185929363ffffffff919594606093608086019786526020860152604085015216910152565b0390a180f35b634e487b7160e01b88526004889052602488fd5b935061055c61054f61054961054389611adc565b876119bc565b506119ee565b6040810151905190611af5565b93610461565b91604492632ea1a50d60e11b8352600452602452fd5b63472511eb60e11b815233600452602490fd5b50346101ec5760203660031901126101ec5760008051602061241b8339815191528054604051637bda5cfd60e01b815290602090829060049082906001600160a01b03165afa9081156107005783916106d1575b506106c25754604051630c5eff3d60e41b815290602090829060049082906001600160a01b03165afa908115610688578291610693575b506001600160a01b031681813b156101ec5760449160405192838092632d20488160e11b8252336004830152600460248301525afa801561068857610673575b60206106653333600435611b88565b63ffffffff60405191168152f35b61067e828092611913565b6101ec5780610656565b6040513d84823e3d90fd5b6106b5915060203d6020116106bb575b6106ad8183611913565b81019061194c565b38610616565b503d6106a3565b63431af7d160e01b8252600482fd5b6106f3915060203d6020116106f9575b6106eb8183611913565b810190611934565b386105df565b503d6106e1565b6040513d85823e3d90fd5b50346101ec57806003193601126101ec575060008051602061241b833981519152546040516001600160a01b039091168152602090f35b50346101ec5760203660031901126101ec5760043563ffffffff811681036101ea5761078c6107929160a093610776611a4b565b50506000805160206123db833981519152611a76565b50611a92565b604051908051825260208101516020830152600180841b036040820151166040830152606081015160608301526080600180851b03910151166080820152f35b50346101ec5760403660031901126101ec576004356001600160401b0381116101ea5761080390369060040161181b565b6024929192356001600160401b038111610cca5761082590369060040161181b565b9061082e611e67565b818303610cbb5761083e83611986565b9461084c6040519687611913565b838652601f1961085b85611986565b013660208801376000805160206123db8339815191529260008051602061245b833981519152906040519361088f856118f7565b610897611a4b565b85526108a161199d565b60208601528760408601528760608601528760a08601528760c08601528760e086015263ffffffff8354166080860152600463ffffffff87541696602060008051602061241b83398151915260018060a01b0390541660405193848092630c5eff3d60e41b82525afa918215610cb0578a92610c8f575b50895b8981106109385760018b55604051806109348e8261184b565b0390f35b63ffffffff61095061094b838d8b611a16565b611a26565b16604089015263ffffffff61096961094b838888611a16565b16606089015263ffffffff60408901511689811015610c7d575063ffffffff60608901511663ffffffff60808a015116811015610c6b57506109bb61078c6109b561094b848e8c611a16565b84611a76565b808952604090810151905163e838dfbb60e01b81526001600160a01b039182166004820152906020908290602490829088165afa908115610c33578c91610c4d575b50610c3e5787516080015160405163e838dfbb60e01b81526001600160a01b039182166004820152906020908290602490829088165afa908115610c33578c91610c15575b50610c06578b88515115610bf15750610a7b610a6e610549610a6861094b858a8a611a16565b896119bc565b8060208b01528951612037565b15610bc95761ffff60a08901528a60e08901528a60c0890152610a9d886120d8565b8b818c8a515115600014610bba5760ff91610ab89193611a37565b911690528a80808060018060a01b0360408d5101511660e08d0151905af13d15610bb2573d90610ae78261196b565b91610af56040519384611913565b82523d8d602084013e5b15610b76575080610b1661094b6001938d8b611a16565b897f25f4dfa5f0703d4c509bd7216e70f8378f419433c14840c14f3eaadb60642ad1606063ffffffff835194878060a01b036040870151169560c060e0870151960151905190604051968752602087015260408601521692a35b0161091b565b88604060018060a01b039151015116610bae60405192839263f2fc9fa160e01b845260048401526040602484015260448301906117da565b0390fd5b606090610aff565b50610ab860ff91600193611a37565b6040880151606089015163b826420960e01b8d5263ffffffff9182166004521660245260448bfd5b906002610c0082600194611a37565b52610b70565b633de3fb0960e11b8b5260048bfd5b610c2d915060203d81116106f9576106eb8183611913565b38610a42565b6040513d8e823e3d90fd5b635941eb9d60e01b8b5260048bfd5b610c65915060203d81116106f9576106eb8183611913565b386109fd565b63311569d960e01b8c5260045260248bfd5b637ba6f8f560e11b8c5260045260248bfd5b610ca991925060203d6020116106bb576106ad8183611913565b9038610918565b6040513d8c823e3d90fd5b633a5e3f0d60e01b8452600484fd5b8280fd5b50346101ec5760203660031901126101ec5760043563ffffffff811681036101ea57610549610d1891606093610d0261199d565b505060008051602061245b8339815191526119bc565b6040805191805183526020810151602084015201516040820152f35b50346101ec57806003193601126101ec5750602060008051602061245b83398151915254604051908152f35b50346101ec5760603660031901126101ec57610d7a6117bf565b604435916001600160a01b03831683036101ec5760008051602061241b833981519152546001600160a01b031633036105785760206106658484600435611b88565b50346101ec5760803660031901126101ec576004356001600160401b0381116101ea57610ded90369060040161181b565b6024929192356001600160401b038111610cca57610e0f90369060040161181b565b906044351515604435036112f1576064359461ffff861686036112ed57610e34611e67565b8284036112de57610e4484611986565b95610e526040519788611913565b848752601f19610e6186611986565b013660208901376000805160206123db8339815191529360008051602061245b8339815191529060405194610e95866118f7565b610e9d611a4b565b8652610ea761199d565b60208701528860408701528860608701528860a08701528860c08701528860e087015263ffffffff8354166080870152600463ffffffff88541697602060008051602061241b83398151915260018060a01b0390541660405193848092630c5eff3d60e41b82525afa9182156112d3578b926112b2575b508a5b8a8110610f3a5760018c55604051806109348f8261184b565b63ffffffff610f4d61094b838e8c611a16565b1660408a015263ffffffff610f6661094b838888611a16565b1660608a015263ffffffff60408a0151168a8110156112a0575063ffffffff60608a01511663ffffffff60808b01511681101561128e5750610fb261078c6109b561094b848f8d611a16565b808a52604090810151905163e838dfbb60e01b81526001600160a01b039182166004820152906020908290602490829088165afa908115611256578d91611270575b506112615788516080015160405163e838dfbb60e01b81526001600160a01b039182166004820152906020908290602490829088165afa908115611256578d91611238575b5061122957885151156111e55761106a61105d610549610a6861094b858a8a611a16565b8060208c01528a51612037565b156111bd5761ffff871660a08a01528b60e08a01528b60c08a015261108e896120d8565b8c818d8b5151156000146111ae5760ff916110a99193611a37565b9116905288516040015160e08a01518d9182918291829182916001600160a01b03165af13d156111a5573d6110dd8161196b565b906110eb6040519283611913565b8152809260203d92013e5b1561116d57508061110d61094b6001938e8c611a16565b8a7f25f4dfa5f0703d4c509bd7216e70f8378f419433c14840c14f3eaadb60642ad1606063ffffffff835194878060a01b036040870151169560c060e0870151960151905190604051968752602087015260408601521692a35b01610f21565b89604060018060a01b039151015116610bae60405192839263f2fc9fa160e01b845260048401526040602484015260448301906117da565b606091506110f6565b506110a960ff91600193611a37565b604089015160608a015163b826420960e01b8e5263ffffffff9182166004521660245260448cfd5b60449c9a99989c3561120f575060408c01516339775c8160e01b8c5263ffffffff1660045260248bfd5b8060026112238d9f9b9c9d93600194611a37565b52611167565b633de3fb0960e11b8c5260048cfd5b611250915060203d81116106f9576106eb8183611913565b38611039565b6040513d8f823e3d90fd5b635941eb9d60e01b8c5260048cfd5b611288915060203d81116106f9576106eb8183611913565b38610ff4565b63311569d960e01b8d5260045260248cfd5b637ba6f8f560e11b8d5260045260248cfd5b6112cc91925060203d6020116106bb576106ad8183611913565b9038610f1e565b6040513d8d823e3d90fd5b633a5e3f0d60e01b8552600485fd5b8480fd5b8380fd5b50346101ec5760203660031901126101ec576004356001600160401b0381116101ea5761132690369060040161181b565b9061133082611986565b9061133e6040519283611913565b82825261134a83611986565b602083019390601f190136853761135f61199d565b9060008051602061245b8339815191528054806113f9575b5050855b8181106113c957868587604051928392602084019060208552518091526040840192915b8181106113ad575050500390f35b825160070b84528594506020938401939092019160010161139f565b806113e3846113de61094b600195878a611a16565b611dd3565b6113ed8288611a37565b9060070b90520161137b565b61140e929350906105499160001901906119bc565b903880611377565b50346101ec57806003193601126101ec5750602060008051602061243b83398151915254604051908152f35b50346101ec57806003193601126101ec5750610934604051611465604082611913565b60058152640312e332e360dc1b60208201526040519182916020835260208301906117da565b50346101ec57806003193601126101ec575060206000805160206123db83398151915254604051908152f35b50346101ec5760403660031901126101ec576114d16117bf565b60008051602061241b8339815191528054604051637bda5cfd60e01b815292939290602090829060049082906001600160a01b03165afa908115610700578391611695575b506106c2578054604051630c5eff3d60e41b815290602090829060049082906001600160a01b03165afa908115610700578391611676575b506001600160a01b0316803b15610cca578260449160405192838092632d20488160e11b8252336004830152600460248301525afa801561070057908391611661575b505054604051630c5eff3d60e41b815290602090829060049082906001600160a01b03165afa908115610688576024916020918491611644575b5060405163e838dfbb60e01b81526001600160a01b0386811660048301529093849290918391165afa908115610688578291611625575b506116165760206106653384600435611b88565b637e0aa9d960e01b8152600490fd5b61163e915060203d6020116106f9576106eb8183611913565b38611602565b61165b9150823d84116106bb576106ad8183611913565b386115cb565b8161166b91611913565b6101ea578138611591565b61168f915060203d6020116106bb576106ad8183611913565b3861154e565b6116ae915060203d6020116106f9576106eb8183611913565b38611516565b50346101ec57806003193601126101ec575060206000805160206123fb83398151915254604051908152f35b50346101ec5760203660031901126101ec5760008051602061241b833981519152805460043591906001600160a01b031633036117ac57829060008051602061243b8339815191529283548181116000146117a45750925b83611741578280f35b61174c848254611888565b9055546001600160a01b0316803b156101ea5781906004604051809581936302b4286360e11b83525af1801561179757611787575b81808280f35b61179091611913565b3881611781565b50604051903d90823e3d90fd5b905092611738565b63472511eb60e11b835233600452602483fd5b602435906001600160a01b03821682036117d557565b600080fd5b919082519283825260005b848110611806575050826000602080949584010152601f8019910116010190565b806020809284010151828286010152016117e5565b9181601f840112156117d5578235916001600160401b0383116117d5576020808501948460051b0101116117d557565b602060408183019282815284518094520192019060005b81811061186f5750505090565b825160ff16845260209384019390920191600101611862565b9190820391821161189557565b634e487b7160e01b600052601160045260246000fd5b606081019081106001600160401b038211176118c657604052565b634e487b7160e01b600052604160045260246000fd5b60a081019081106001600160401b038211176118c657604052565b61010081019081106001600160401b038211176118c657604052565b90601f801991011681019081106001600160401b038211176118c657604052565b908160209103126117d5575180151581036117d55790565b908160209103126117d557516001600160a01b03811681036117d55790565b6001600160401b0381116118c657601f01601f191660200190565b6001600160401b0381116118c65760051b60200190565b604051906119aa826118ab565b60006040838281528260208201520152565b80548210156119d8576000526003602060002091020190600090565b634e487b7160e01b600052603260045260246000fd5b906040516119fb816118ab565b60406002829480548452600181015460208501520154910152565b91908110156119d85760051b0190565b3563ffffffff811681036117d55790565b80518210156119d85760209160051b010190565b60405190611a58826118dc565b60006080838281528260208201528260408201528260608201520152565b80548210156119d8576000526005602060002091020190600090565b90604051611a9f816118dc565b825481526001830154602082015260028301546001600160a01b039081166040830152600384015460608301526004909301549092166080830152565b63ffffffff6000199116019063ffffffff821161189557565b9190820180921161189557565b81811115611b0e575090565b905090565b9190611b7257805182556020810151600183015560408101516002830180546001600160a01b03199081166001600160a01b03938416179091556060830151600385015560809092015160049390930180549092169216919091179055565b634e487b7160e01b600052600060045260246000fd5b929190611b9481611f00565b8315611dc25760008051602061241b833981519152936000602060018060a01b038754166064604051809481936323b872dd60e01b83523360048401523060248401528760448401525af1908115611d5257600091611da3575b5015611d92576000805160206123db8339815191529485549263ffffffff84169660009288611d5e575b54604051637bce1f8160e11b81526004810186905290602090829060249082906001600160a01b03165afa908115611d5257600091611d20575b5060405192611c60846118dc565b858452602084018290526001600160a01b03908116604085018190526060850186905297166080840152600160401b8610156118c657611ccf611d1b93610363888c9560017f9a1bb960783a8679f42036f0c1fe89288fd279ed545a19f86bd284c72947b1879b018155611a76565b611cf0611ceb866000805160206123fb83398151915254611af5565b611ebd565b60405194859485929363ffffffff919594606093608086019786526020860152604085015216910152565b0390a2565b90506020813d602011611d4a575b81611d3b60209383611913565b810103126117d5575138611c52565b3d9150611d2e565b6040513d6000823e3d90fd5b925060246020611d89611d7c61078c611d768d611adc565b86611a76565b6060810151905190611af5565b94915050611c18565b6313ff771f60e21b60005260046000fd5b611dbc915060203d6020116106f9576106eb8183611913565b38611bee565b630dd484e760e41b60005260046000fd5b6000805160206123db833981519152805463ffffffff83161015611e5e57611dfe9161078c91611a76565b90815115611e565760008051602061245b8339815191525415908115611e37575b50611e3057611e2d90611f21565b90565b5060001990565b611e4991506040810151905190611af5565b6060820151101538611e1f565b505060021990565b50505060011990565b600260005414611e78576002600055565b60405162461bcd60e51b815260206004820152601f60248201527f5265656e7472616e637947756172643a207265656e7472616e742063616c6c006044820152606490fd5b6000805160206123fb8339815191527f81ba2e33f1e91d5b498c91742740d1de8a6149f571c26bec9ae77b5cf099c582604082548151908152846020820152a155565b6001600160a01b031615611f1057565b63f6b2911f60e01b60005260046000fd5b9060008051602061245b833981519152918254600019810190811161189557611f63611f5d6105498360070b936001600160401b0316876119bc565b83612037565b6120325760009084541561201e57848252611f89611f83602084206119ee565b84612037565b612018575b8060070b8260070b81811461200f5701677fffffffffffffff8113677fffffffffffffff198212176118955760029060070b0590611fd8610549836001600160401b0316886119bc565b611fe28186612037565b612006576040606086015191015111600014611ffe5750611f8e565b915090611f8e565b50909450505050565b50919450505050565b50925050565b634e487b7160e01b82526032600452602482fd5b925050565b60600190815161204f60408301928351905190611af5565b11918261205b57505090565b5190511115919050565b8181029291811591840414171561189557565b8115612082570490565b634e487b7160e01b600052601260045260246000fd5b63ffffffff60019116019063ffffffff821161189557565b63ffffffff1663ffffffff81146118955760010190565b61ffff168015611895576000190190565b6120e061199d565b90602081016121136120fa82516040810151905190611af5565b61210d8451916060835193015190611888565b90611b02565b9261213761212e602083019580875260208551015190612065565b83515190612078565b815261215661214d855160208651015190612065565b84515190612078565b815180821061233c575b505083516121746060855101918251611af5565b905283516121858451918251611888565b905280516121996020855101918251611888565b905283516121ac60c08501918251611af5565b905280516121bf60e08501918251611af5565b9052604083015163ffffffff16907f01d87b0f07b182b784c074487c5a8f901a8e2348275f5480d822a70de74fa8b763ffffffff6060860196612240612209895163ffffffff1690565b91519480519060408a5151910151918560405196879616991697859094939260609260808301968352602083015260408201520152565b0390a38151511515806122fb575b806122e0575b156122d5576122a96105496122d3946122a360008051602061245b8339815191529161229961228f61228a835163ffffffff1690565b6120b0565b63ffffffff168252565b5163ffffffff1690565b906119bc565b90526122ce60a082016122c66122c1825161ffff1690565b6120c7565b61ffff169052565b6120d8565b565b506122d3915061237e565b5061ffff6122f360a084015161ffff1690565b161515612254565b5061231261230d845163ffffffff1690565b612098565b63ffffffff61233461232b608086015163ffffffff1690565b63ffffffff1690565b91161061224e565b8190036040830181905260008051602061243b833981519152546123759161236391611af5565b60008051602061243b83398151915255565b81523880612160565b60016123d56000805160206123db83398151915263ffffffff602060608651015195604081019660036123b4858a511687611a76565b5001558051516123c78489511686611a76565b505551015194511690611a76565b50015556fe232f0d723a47bd57c991606dd0525f28484745095475b69dffe8416b3749c3c18ec604dcc41d380ed48f70a4a32dd9623b98c284836361a21b8992d2845ee53c1ec4138404500a2a0be2c2f9b103581c2a7fa783a934f91a6cc5cc924404973b9afb091d33aa9fdd4ac2dbd1cbba78215a097062e9dbdc7b707ac5bb59049bc00c9122afab04eaf9e9bdaa10927c74406e40c7f08744e32826fff29b1c9e7abca26469706673582212207a6ed5317c6a7fec8753f81d824611bb14a129d8e386889f3128c1045f398d0b64736f6c63430008220033",
  "devdoc": {
    "author": "Alluvial Finance Inc.",
    "errors": {
      "ClaimRedeemFailed(address,bytes)": [
        {
          "params": {
            "rdata": "The revert data",
            "recipient": "The recipient of the payment"
          }
        }
      ],
      "DoesNotMatch(uint256,uint256)": [
        {
          "params": {
            "redeemRequestId": "The provided redeem request id",
            "withdrawalEventId": "The provided associated withdrawal event id"
          }
        }
      ],
      "InvalidInitialization(uint256,uint256)": [
        {
          "params": {
            "expectedVersion": "The version that was expected",
            "version": "The version that was attempting to be initialized"
          }
        }
      ],
      "RedeemRequestAlreadyClaimed(uint256)": [
        {
          "params": {
            "id": "The redeem request id"
          }
        }
      ],
      "RedeemRequestOutOfBounds(uint256)": [
        {
          "params": {
            "id": "The redeem request id"
          }
        }
      ],
      "Unauthorized(address)": [
        {
          "params": {
            "caller": "Address performing the call"
          }
        }
      ],
      "WithdrawalEventOutOfBounds(uint256)": [
        {
          "params": {
            "id": "The withdrawal event id"
          }
        }
      ],
      "WithdrawalExceedsRedeemDemand(uint256,uint256)": [
        {
          "params": {
            "redeemDemand": "The current redeem demand",
            "withdrawalAmount": "The amount of the withdrawal event"
          }
        }
      ]
    },
    "events": {
      "ClaimedRedeemRequest(uint32,address,uint256,uint256,uint256)": {
        "params": {
          "ethAmount": "The amount of eth retrieved",
          "lsEthAmount": "The total amount of LsETH used to redeem the eth",
          "recipient": "The address receiving the redeem request funds",
          "redeemRequestId": "The id of the redeem request",
          "remainingLsEthAmount": "The amount of LsETH remaining"
        }
      },
      "Initialize(uint256,bytes)": {
        "params": {
          "cdata": "Complete calldata that was used during the initialization",
          "version": "New version of the contracts"
        }
      },
      "ReportedWithdrawal(uint256,uint256,uint256,uint32)": {
        "params": {
          "amount": "The amount of the withdrawal event in LsETH",
          "ethAmount": "The amount of eth to distrubute to claimers",
          "height": "The height of the withdrawal event in LsETH",
          "id": "The id of the withdrawal event"
        }
      },
      "RequestedRedeem(address,uint256,uint256,uint256,uint32)": {
        "params": {
          "amount": "The amount of the redeem request in LsETH",
          "height": "The height of the redeem request in LsETH",
          "id": "The id of the new redeem request",
          "maxRedeemableEth": "The maximum amount of eth that can be redeemed from this request",
          "recipient": "The recipient of the redeem request"
        }
      },
      "SatisfiedRedeemRequest(uint32,uint32,uint256,uint256,uint256,uint256)": {
        "params": {
          "ethAmountExceeding": "The amount of eth added to the exceeding buffer",
          "ethAmountSatisfied": "The amount of ETH filled",
          "lsEthAmountRemaining": "The amount of LsETH remaining",
          "lsEthAmountSatisfied": "The amount of LsETH filled",
          "redeemRequestId": "The id of the redeem request",
          "withdrawalEventId": "The id of the withdrawal event used to fill the request"
        }
      },
      "SetRedeemDemand(uint256,uint256)": {
        "params": {
          "newRedeemDemand": "The new redeem demand",
          "oldRedeemDemand": "The old redeem demand"
        }
      },
      "SetRiver(address)": {
        "params": {
          "river": "The new river address"
        }
      }
    },
    "kind": "dev",
    "methods": {
      "claimRedeemRequests(uint32[],uint32[])": {
        "params": {
          "_redeemRequestIds": "The list of redeem requests to claim",
          "_withdrawalEventIds": "The list of withdrawal events to use for every redeem request claim"
        },
        "returns": {
          "claimStatuses": "The list of claim statuses. 0 for fully claimed, 1 for partially claimed, 2 for skipped"
        }
      },
      "claimRedeemRequests(uint32[],uint32[],bool,uint16)": {
        "params": {
          "_depth": "The maximum recursive depth for the resolution of the redeem requests",
          "_redeemRequestIds": "The list of redeem requests to claim",
          "_skipAlreadyClaimed": "True if the call should not revert on claiming of already claimed requests",
          "_withdrawalEventIds": "The list of withdrawal events to use for every redeem request claim"
        },
        "returns": {
          "claimStatuses": "The list of claim statuses. 0 for fully claimed, 1 for partially claimed, 2 for skipped"
        }
      },
      "getBufferedExceedingEth()": {
        "returns": {
          "_0": "The amount of eth in the buffer"
        }
      },
      "getRedeemDemand()": {
        "returns": {
          "_0": "The amount of LsETH waiting to be exited"
        }
      },
      "getRedeemRequestDetails(uint32)": {
        "params": {
          "_redeemRequestId": "The id of the request"
        },
        "returns": {
          "_0": "The redeem request details"
        }
      },
      "getRiver()": {
        "returns": {
          "_0": "The address of River"
        }
      },
      "getWithdrawalEventDetails(uint32)": {
        "params": {
          "_withdrawalEventId": "The id of the withdrawal event"
        },
        "returns": {
          "_0": "The withdrawal event details"
        }
      },
      "initializeRedeemManagerV1(address)": {
        "params": {
          "_river": "The address of the River contract"
        }
      },
      "pullExceedingEth(uint256)": {
        "params": {
          "_max": "The maximum amount that should be pulled"
        }
      },
      "reportWithdraw(uint256)": {
        "params": {
          "_lsETHWithdrawable": "The amount of LsETH that can be redeemed due to this new withdraw event"
        }
      },
      "requestRedeem(uint256)": {
        "params": {
          "_lsETHAmount": "The amount of LsETH to redeem"
        },
        "returns": {
          "redeemRequestId": "The id of the redeem request"
        }
      },
      "requestRedeem(uint256,address)": {
        "params": {
          "_lsETHAmount": "The amount of LsETH to redeem",
          "_recipient": "The recipient owning the redeem request"
        },
        "returns": {
          "redeemRequestId": "The id of the redeem request"
        }
      },
      "requestRedeem(uint256,address,address)": {
        "params": {
          "_initiator": "The initiator of the request",
          "_lsETHAmount": "The amount of LsETH to redeem",
          "_recipient": "The recipient owning the redeem request"
        },
        "returns": {
          "redeemRequestId": "The id of the redeem request"
        }
      },
      "resolveRedeemRequests(uint32[])": {
        "details": "The result is an array of equal length with ids or error code-1 means that the request is not satisfied yet-2 means that the request is out of bounds-3 means that the request has already been claimedThis call was created to be called by an off-chain interface, the output could then be used to perform the claimRewards call in a regular transaction",
        "params": {
          "_redeemRequestIds": "The list of redeem requests to resolve"
        },
        "returns": {
          "withdrawalEventIds": "The list of withdrawal events matching every redeem request (or error codes)"
        }
      },
      "version()": {
        "returns": {
          "_0": "Version of the contract"
        }
      }
    },
    "title": "Redeem Manager (v1)",
    "version": 1
  },
  "userdoc": {
    "errors": {
      "ClaimInitiatorIsDenied()": [
        {
          "notice": "Thrown when the claim initiator is denied"
        }
      ],
      "ClaimRecipientIsDenied()": [
        {
          "notice": "Thrown when the claim recipient is denied"
        }
      ],
      "ClaimRedeemFailed(address,bytes)": [
        {
          "notice": "Thrown when the payment after a claim failed"
        }
      ],
      "DoesNotMatch(uint256,uint256)": [
        {
          "notice": "Thrown when the redeem request and withdrawal event are not matching during claim"
        }
      ],
      "IncompatibleArrayLengths()": [
        {
          "notice": "Thrown when the provided arrays don't have matching lengths"
        }
      ],
      "InvalidInitialization(uint256,uint256)": [
        {
          "notice": "An error occured during the initialization"
        }
      ],
      "InvalidZeroAddress()": [
        {
          "notice": "The address is zero"
        }
      ],
      "InvalidZeroAmount()": [
        {
          "notice": "Thrown When a zero value is provided"
        }
      ],
      "RecipientIsDenied()": [
        {
          "notice": "Thrown when the recipient of redeemRequest is denied"
        }
      ],
      "RedeemRequestAlreadyClaimed(uint256)": [
        {
          "notice": "Thrown when\tthe redeem request id is already claimed"
        }
      ],
      "RedeemRequestOutOfBounds(uint256)": [
        {
          "notice": "Thrown when the provided redeem request id is out of bounds"
        }
      ],
      "SlashingContainmentModeEnabled()": [
        {
          "notice": "Thrown when an action is blocked because slashing containment mode is active"
        }
      ],
      "TransferError()": [
        {
          "notice": "Thrown when a transfer error occured with LsETH"
        }
      ],
      "Unauthorized(address)": [
        {
          "notice": "The operator is unauthorized for the caller"
        }
      ],
      "WithdrawalEventOutOfBounds(uint256)": [
        {
          "notice": "Thrown when the withdrawal request id if out of bounds"
        }
      ],
      "WithdrawalExceedsRedeemDemand(uint256,uint256)": [
        {
          "notice": "Thrown when the provided withdrawal event exceeds the redeem demand"
        }
      ]
    },
    "events": {
      "ClaimedRedeemRequest(uint32,address,uint256,uint256,uint256)": {
        "notice": "Emitted when a redeem request claim has been processed and matched at least once and funds are sent to the recipient"
      },
      "Initialize(uint256,bytes)": {
        "notice": "Emitted when the contract is properly initialized"
      },
      "ReportedWithdrawal(uint256,uint256,uint256,uint32)": {
        "notice": "Emitted when a withdrawal event is created"
      },
      "RequestedRedeem(address,uint256,uint256,uint256,uint32)": {
        "notice": "Emitted when a redeem request is created"
      },
      "SatisfiedRedeemRequest(uint32,uint32,uint256,uint256,uint256,uint256)": {
        "notice": "Emitted when a redeem request has been satisfied and filled (even partially) from a withdrawal event"
      },
      "SetRedeemDemand(uint256,uint256)": {
        "notice": "Emitted when the redeem demand is set"
      },
      "SetRiver(address)": {
        "notice": "Emitted when the River address is set"
      }
    },
    "kind": "user",
    "methods": {
      "claimRedeemRequests(uint32[],uint32[])": {
        "notice": "Claims the rewards of the provided redeem request ids"
      },
      "claimRedeemRequests(uint32[],uint32[],bool,uint16)": {
        "notice": "Claims the rewards of the provided redeem request ids"
      },
      "getBufferedExceedingEth()": {
        "notice": "Retrieve the amount of redeemed LsETH pending to be supplied with withdrawn ETH"
      },
      "getRedeemDemand()": {
        "notice": "Retrieve the amount of LsETH waiting to be exited"
      },
      "getRedeemRequestCount()": {
        "notice": "Retrieve the global count of redeem requests"
      },
      "getRedeemRequestDetails(uint32)": {
        "notice": "Retrieve the details of a specific redeem request"
      },
      "getRiver()": {
        "notice": "Retrieve River address"
      },
      "getWithdrawalEventCount()": {
        "notice": "Retrieve the global count of withdrawal events"
      },
      "getWithdrawalEventDetails(uint32)": {
        "notice": "Retrieve the details of a specific withdrawal event"
      },
      "pullExceedingEth(uint256)": {
        "notice": "Pulls exceeding buffer eth"
      },
      "reportWithdraw(uint256)": {
        "notice": "Reports a withdraw event from River"
      },
      "requestRedeem(uint256)": {
        "notice": "Creates a redeem request using msg.sender as recipient"
      },
      "requestRedeem(uint256,address)": {
        "notice": "Creates a redeem request"
      },
      "requestRedeem(uint256,address,address)": {
        "notice": "Creates a redeem request"
      },
      "resolveRedeemRequests(uint32[])": {
        "notice": "Resolves the provided list of redeem request ids"
      },
      "version()": {
        "notice": "Retrieves the version of the contract"
      }
    },
    "notice": "This contract handles the redeem requests of all users",
    "version": 1
  },
  "storageLayout": {
    "storage": [
      {
        "astId": 29423,
        "contract": "contracts/src/RedeemManager.1.sol:RedeemManagerV1",
        "label": "_status",
        "offset": 0,
        "slot": "0",
        "type": "t_uint256"
      }
    ],
    "types": {
      "t_uint256": {
        "encoding": "inplace",
        "label": "uint256",
        "numberOfBytes": "32"
      }
    }
  }
}