{
  "address": "0xB277168384029E678326049260a4B9Eab6619E39",
  "abi": [
    {
      "inputs": [
        {
          "internalType": "address",
          "name": "_from",
          "type": "address"
        },
        {
          "internalType": "address",
          "name": "_operator",
          "type": "address"
        },
        {
          "internalType": "uint256",
          "name": "_allowance",
          "type": "uint256"
        },
        {
          "internalType": "uint256",
          "name": "_value",
          "type": "uint256"
        }
      ],
      "name": "AllowanceTooLow",
      "type": "error"
    },
    {
      "inputs": [],
      "name": "BalanceTooLow",
      "type": "error"
    },
    {
      "inputs": [
        {
          "internalType": "address",
          "name": "account",
          "type": "address"
        }
      ],
      "name": "Denied",
      "type": "error"
    },
    {
      "inputs": [],
      "name": "EmptyDeposit",
      "type": "error"
    },
    {
      "inputs": [],
      "name": "ErrorOnDeposit",
      "type": "error"
    },
    {
      "inputs": [],
      "name": "InconsistentPublicKeys",
      "type": "error"
    },
    {
      "inputs": [],
      "name": "InconsistentSignatures",
      "type": "error"
    },
    {
      "inputs": [],
      "name": "InvalidArgument",
      "type": "error"
    },
    {
      "inputs": [],
      "name": "InvalidCall",
      "type": "error"
    },
    {
      "inputs": [
        {
          "internalType": "uint256",
          "name": "currentValidatorsExitedBalance",
          "type": "uint256"
        },
        {
          "internalType": "uint256",
          "name": "newValidatorsExitedBalance",
          "type": "uint256"
        }
      ],
      "name": "InvalidDecreasingValidatorsExitedBalance",
      "type": "error"
    },
    {
      "inputs": [
        {
          "internalType": "uint256",
          "name": "currentValidatorsSkimmedBalance",
          "type": "uint256"
        },
        {
          "internalType": "uint256",
          "name": "newValidatorsSkimmedBalance",
          "type": "uint256"
        }
      ],
      "name": "InvalidDecreasingValidatorsSkimmedBalance",
      "type": "error"
    },
    {
      "inputs": [],
      "name": "InvalidDepositRoot",
      "type": "error"
    },
    {
      "inputs": [],
      "name": "InvalidEmptyString",
      "type": "error"
    },
    {
      "inputs": [
        {
          "internalType": "uint256",
          "name": "epoch",
          "type": "uint256"
        }
      ],
      "name": "InvalidEpoch",
      "type": "error"
    },
    {
      "inputs": [],
      "name": "InvalidFee",
      "type": "error"
    },
    {
      "inputs": [
        {
          "internalType": "uint256",
          "name": "version",
          "type": "uint256"
        },
        {
          "internalType": "uint256",
          "name": "expectedVersion",
          "type": "uint256"
        }
      ],
      "name": "InvalidInitialization",
      "type": "error"
    },
    {
      "inputs": [],
      "name": "InvalidPublicKeyCount",
      "type": "error"
    },
    {
      "inputs": [
        {
          "internalType": "uint256",
          "name": "requested",
          "type": "uint256"
        },
        {
          "internalType": "uint256",
          "name": "received",
          "type": "uint256"
        }
      ],
      "name": "InvalidPulledClFundsAmount",
      "type": "error"
    },
    {
      "inputs": [
        {
          "internalType": "uint256",
          "name": "providedValidatorCount",
          "type": "uint256"
        },
        {
          "internalType": "uint256",
          "name": "depositedValidatorCount",
          "type": "uint256"
        },
        {
          "internalType": "uint256",
          "name": "lastReportedValidatorCount",
          "type": "uint256"
        }
      ],
      "name": "InvalidValidatorCountReport",
      "type": "error"
    },
    {
      "inputs": [],
      "name": "InvalidWithdrawalCredentials",
      "type": "error"
    },
    {
      "inputs": [],
      "name": "InvalidZeroAddress",
      "type": "error"
    },
    {
      "inputs": [],
      "name": "NoAvailableValidatorKeys",
      "type": "error"
    },
    {
      "inputs": [],
      "name": "NotEnoughFunds",
      "type": "error"
    },
    {
      "inputs": [],
      "name": "NullTransfer",
      "type": "error"
    },
    {
      "inputs": [],
      "name": "OnlyKeeper",
      "type": "error"
    },
    {
      "inputs": [],
      "name": "OperatorAllocationsExceedCommittedBalance",
      "type": "error"
    },
    {
      "inputs": [],
      "name": "RecipientIsDenied",
      "type": "error"
    },
    {
      "inputs": [],
      "name": "SlashingContainmentModeEnabled",
      "type": "error"
    },
    {
      "inputs": [],
      "name": "SliceOutOfBounds",
      "type": "error"
    },
    {
      "inputs": [],
      "name": "SliceOverflow",
      "type": "error"
    },
    {
      "inputs": [
        {
          "internalType": "uint256",
          "name": "prevTotalEthIncludingExited",
          "type": "uint256"
        },
        {
          "internalType": "uint256",
          "name": "postTotalEthIncludingExited",
          "type": "uint256"
        },
        {
          "internalType": "uint256",
          "name": "timeElapsed",
          "type": "uint256"
        },
        {
          "internalType": "uint256",
          "name": "relativeLowerBound",
          "type": "uint256"
        }
      ],
      "name": "TotalValidatorBalanceDecreaseOutOfBound",
      "type": "error"
    },
    {
      "inputs": [
        {
          "internalType": "uint256",
          "name": "prevTotalEthIncludingExited",
          "type": "uint256"
        },
        {
          "internalType": "uint256",
          "name": "postTotalEthIncludingExited",
          "type": "uint256"
        },
        {
          "internalType": "uint256",
          "name": "timeElapsed",
          "type": "uint256"
        },
        {
          "internalType": "uint256",
          "name": "annualAprUpperBound",
          "type": "uint256"
        }
      ],
      "name": "TotalValidatorBalanceIncreaseOutOfBound",
      "type": "error"
    },
    {
      "inputs": [
        {
          "internalType": "address",
          "name": "caller",
          "type": "address"
        }
      ],
      "name": "Unauthorized",
      "type": "error"
    },
    {
      "inputs": [
        {
          "internalType": "address",
          "name": "_from",
          "type": "address"
        },
        {
          "internalType": "address",
          "name": "_to",
          "type": "address"
        }
      ],
      "name": "UnauthorizedTransfer",
      "type": "error"
    },
    {
      "inputs": [],
      "name": "ZeroMintedShares",
      "type": "error"
    },
    {
      "anonymous": false,
      "inputs": [
        {
          "indexed": true,
          "internalType": "address",
          "name": "owner",
          "type": "address"
        },
        {
          "indexed": true,
          "internalType": "address",
          "name": "spender",
          "type": "address"
        },
        {
          "indexed": false,
          "internalType": "uint256",
          "name": "value",
          "type": "uint256"
        }
      ],
      "name": "Approval",
      "type": "event"
    },
    {
      "anonymous": false,
      "inputs": [
        {
          "indexed": false,
          "internalType": "uint256",
          "name": "validatorCount",
          "type": "uint256"
        },
        {
          "indexed": false,
          "internalType": "uint256",
          "name": "validatorTotalBalance",
          "type": "uint256"
        },
        {
          "indexed": false,
          "internalType": "bytes32",
          "name": "roundId",
          "type": "bytes32"
        }
      ],
      "name": "ConsensusLayerDataUpdate",
      "type": "event"
    },
    {
      "anonymous": false,
      "inputs": [
        {
          "indexed": false,
          "internalType": "uint256",
          "name": "version",
          "type": "uint256"
        },
        {
          "indexed": false,
          "internalType": "bytes",
          "name": "cdata",
          "type": "bytes"
        }
      ],
      "name": "Initialize",
      "type": "event"
    },
    {
      "anonymous": false,
      "inputs": [
        {
          "components": [
            {
              "internalType": "uint256",
              "name": "epoch",
              "type": "uint256"
            },
            {
              "internalType": "uint256",
              "name": "validatorsBalance",
              "type": "uint256"
            },
            {
              "internalType": "uint256",
              "name": "validatorsSkimmedBalance",
              "type": "uint256"
            },
            {
              "internalType": "uint256",
              "name": "validatorsExitedBalance",
              "type": "uint256"
            },
            {
              "internalType": "uint256",
              "name": "validatorsExitingBalance",
              "type": "uint256"
            },
            {
              "internalType": "uint32",
              "name": "validatorsCount",
              "type": "uint32"
            },
            {
              "internalType": "uint32[]",
              "name": "stoppedValidatorCountPerOperator",
              "type": "uint32[]"
            },
            {
              "internalType": "bool",
              "name": "rebalanceDepositToRedeemMode",
              "type": "bool"
            },
            {
              "internalType": "bool",
              "name": "slashingContainmentMode",
              "type": "bool"
            }
          ],
          "indexed": false,
          "internalType": "struct IOracleManagerV1.ConsensusLayerReport",
          "name": "report",
          "type": "tuple"
        },
        {
          "components": [
            {
              "internalType": "uint256",
              "name": "rewards",
              "type": "uint256"
            },
            {
              "internalType": "uint256",
              "name": "pulledELFees",
              "type": "uint256"
            },
            {
              "internalType": "uint256",
              "name": "pulledRedeemManagerExceedingEthBuffer",
              "type": "uint256"
            },
            {
              "internalType": "uint256",
              "name": "pulledCoverageFunds",
              "type": "uint256"
            }
          ],
          "indexed": false,
          "internalType": "struct IOracleManagerV1.ConsensusLayerDataReportingTrace",
          "name": "trace",
          "type": "tuple"
        }
      ],
      "name": "ProcessedConsensusLayerReport",
      "type": "event"
    },
    {
      "anonymous": false,
      "inputs": [
        {
          "indexed": false,
          "internalType": "uint256",
          "name": "pulledSkimmedEthAmount",
          "type": "uint256"
        },
        {
          "indexed": false,
          "internalType": "uint256",
          "name": "pullExitedEthAmount",
          "type": "uint256"
        }
      ],
      "name": "PulledCLFunds",
      "type": "event"
    },
    {
      "anonymous": false,
      "inputs": [
        {
          "indexed": false,
          "internalType": "uint256",
          "name": "amount",
          "type": "uint256"
        }
      ],
      "name": "PulledCoverageFunds",
      "type": "event"
    },
    {
      "anonymous": false,
      "inputs": [
        {
          "indexed": false,
          "internalType": "uint256",
          "name": "amount",
          "type": "uint256"
        }
      ],
      "name": "PulledELFees",
      "type": "event"
    },
    {
      "anonymous": false,
      "inputs": [
        {
          "indexed": false,
          "internalType": "uint256",
          "name": "amount",
          "type": "uint256"
        }
      ],
      "name": "PulledRedeemManagerExceedingEth",
      "type": "event"
    },
    {
      "anonymous": false,
      "inputs": [
        {
          "indexed": false,
          "internalType": "uint256",
          "name": "redeemManagerDemand",
          "type": "uint256"
        },
        {
          "indexed": false,
          "internalType": "uint256",
          "name": "suppliedRedeemManagerDemand",
          "type": "uint256"
        },
        {
          "indexed": false,
          "internalType": "uint256",
          "name": "suppliedRedeemManagerDemandInEth",
          "type": "uint256"
        }
      ],
      "name": "ReportedRedeemManager",
      "type": "event"
    },
    {
      "anonymous": false,
      "inputs": [
        {
          "indexed": true,
          "internalType": "address",
          "name": "_collector",
          "type": "address"
        },
        {
          "indexed": false,
          "internalType": "uint256",
          "name": "_oldTotalUnderlyingBalance",
          "type": "uint256"
        },
        {
          "indexed": false,
          "internalType": "uint256",
          "name": "_oldTotalSupply",
          "type": "uint256"
        },
        {
          "indexed": false,
          "internalType": "uint256",
          "name": "_newTotalUnderlyingBalance",
          "type": "uint256"
        },
        {
          "indexed": false,
          "internalType": "uint256",
          "name": "_newTotalSupply",
          "type": "uint256"
        }
      ],
      "name": "RewardsEarned",
      "type": "event"
    },
    {
      "anonymous": false,
      "inputs": [
        {
          "indexed": true,
          "internalType": "address",
          "name": "admin",
          "type": "address"
        }
      ],
      "name": "SetAdmin",
      "type": "event"
    },
    {
      "anonymous": false,
      "inputs": [
        {
          "indexed": true,
          "internalType": "address",
          "name": "allowlist",
          "type": "address"
        }
      ],
      "name": "SetAllowlist",
      "type": "event"
    },
    {
      "anonymous": false,
      "inputs": [
        {
          "indexed": false,
          "internalType": "uint256",
          "name": "oldAmount",
          "type": "uint256"
        },
        {
          "indexed": false,
          "internalType": "uint256",
          "name": "newAmount",
          "type": "uint256"
        }
      ],
      "name": "SetBalanceCommittedToDeposit",
      "type": "event"
    },
    {
      "anonymous": false,
      "inputs": [
        {
          "indexed": false,
          "internalType": "uint256",
          "name": "oldAmount",
          "type": "uint256"
        },
        {
          "indexed": false,
          "internalType": "uint256",
          "name": "newAmount",
          "type": "uint256"
        }
      ],
      "name": "SetBalanceToDeposit",
      "type": "event"
    },
    {
      "anonymous": false,
      "inputs": [
        {
          "indexed": false,
          "internalType": "uint256",
          "name": "oldAmount",
          "type": "uint256"
        },
        {
          "indexed": false,
          "internalType": "uint256",
          "name": "newAmount",
          "type": "uint256"
        }
      ],
      "name": "SetBalanceToRedeem",
      "type": "event"
    },
    {
      "anonymous": false,
      "inputs": [
        {
          "indexed": false,
          "internalType": "uint256",
          "name": "annualAprUpperBound",
          "type": "uint256"
        },
        {
          "indexed": false,
          "internalType": "uint256",
          "name": "relativeLowerBound",
          "type": "uint256"
        }
      ],
      "name": "SetBounds",
      "type": "event"
    },
    {
      "anonymous": false,
      "inputs": [
        {
          "indexed": true,
          "internalType": "address",
          "name": "collector",
          "type": "address"
        }
      ],
      "name": "SetCollector",
      "type": "event"
    },
    {
      "anonymous": false,
      "inputs": [
        {
          "indexed": true,
          "internalType": "address",
          "name": "coverageFund",
          "type": "address"
        }
      ],
      "name": "SetCoverageFund",
      "type": "event"
    },
    {
      "anonymous": false,
      "inputs": [
        {
          "indexed": true,
          "internalType": "address",
          "name": "depositContract",
          "type": "address"
        }
      ],
      "name": "SetDepositContractAddress",
      "type": "event"
    },
    {
      "anonymous": false,
      "inputs": [
        {
          "indexed": false,
          "internalType": "uint256",
          "name": "oldDepositedValidatorCount",
          "type": "uint256"
        },
        {
          "indexed": false,
          "internalType": "uint256",
          "name": "newDepositedValidatorCount",
          "type": "uint256"
        }
      ],
      "name": "SetDepositedValidatorCount",
      "type": "event"
    },
    {
      "anonymous": false,
      "inputs": [
        {
          "indexed": true,
          "internalType": "address",
          "name": "elFeeRecipient",
          "type": "address"
        }
      ],
      "name": "SetELFeeRecipient",
      "type": "event"
    },
    {
      "anonymous": false,
      "inputs": [
        {
          "indexed": false,
          "internalType": "uint256",
          "name": "fee",
          "type": "uint256"
        }
      ],
      "name": "SetGlobalFee",
      "type": "event"
    },
    {
      "anonymous": false,
      "inputs": [
        {
          "indexed": true,
          "internalType": "address",
          "name": "keeper",
          "type": "address"
        }
      ],
      "name": "SetKeeper",
      "type": "event"
    },
    {
      "anonymous": false,
      "inputs": [
        {
          "indexed": false,
          "internalType": "uint256",
          "name": "minNetAmount",
          "type": "uint256"
        },
        {
          "indexed": false,
          "internalType": "uint256",
          "name": "maxRelativeAmount",
          "type": "uint256"
        }
      ],
      "name": "SetMaxDailyCommittableAmounts",
      "type": "event"
    },
    {
      "anonymous": false,
      "inputs": [
        {
          "indexed": false,
          "internalType": "string",
          "name": "metadataURI",
          "type": "string"
        }
      ],
      "name": "SetMetadataURI",
      "type": "event"
    },
    {
      "anonymous": false,
      "inputs": [
        {
          "indexed": true,
          "internalType": "address",
          "name": "operatorRegistry",
          "type": "address"
        }
      ],
      "name": "SetOperatorsRegistry",
      "type": "event"
    },
    {
      "anonymous": false,
      "inputs": [
        {
          "indexed": true,
          "internalType": "address",
          "name": "oracleAddress",
          "type": "address"
        }
      ],
      "name": "SetOracle",
      "type": "event"
    },
    {
      "anonymous": false,
      "inputs": [
        {
          "indexed": true,
          "internalType": "address",
          "name": "pendingAdmin",
          "type": "address"
        }
      ],
      "name": "SetPendingAdmin",
      "type": "event"
    },
    {
      "anonymous": false,
      "inputs": [
        {
          "indexed": false,
          "internalType": "address",
          "name": "redeemManager",
          "type": "address"
        }
      ],
      "name": "SetRedeemManager",
      "type": "event"
    },
    {
      "anonymous": false,
      "inputs": [
        {
          "indexed": false,
          "internalType": "uint64",
          "name": "epochsPerFrame",
          "type": "uint64"
        },
        {
          "indexed": false,
          "internalType": "uint64",
          "name": "slotsPerEpoch",
          "type": "uint64"
        },
        {
          "indexed": false,
          "internalType": "uint64",
          "name": "secondsPerSlot",
          "type": "uint64"
        },
        {
          "indexed": false,
          "internalType": "uint64",
          "name": "genesisTime",
          "type": "uint64"
        },
        {
          "indexed": false,
          "internalType": "uint64",
          "name": "epochsToAssumedFinality",
          "type": "uint64"
        }
      ],
      "name": "SetSpec",
      "type": "event"
    },
    {
      "anonymous": false,
      "inputs": [
        {
          "indexed": false,
          "internalType": "uint256",
          "name": "totalSupply",
          "type": "uint256"
        }
      ],
      "name": "SetTotalSupply",
      "type": "event"
    },
    {
      "anonymous": false,
      "inputs": [
        {
          "indexed": false,
          "internalType": "bytes32",
          "name": "withdrawalCredentials",
          "type": "bytes32"
        }
      ],
      "name": "SetWithdrawalCredentials",
      "type": "event"
    },
    {
      "anonymous": false,
      "inputs": [
        {
          "indexed": true,
          "internalType": "address",
          "name": "from",
          "type": "address"
        },
        {
          "indexed": true,
          "internalType": "address",
          "name": "to",
          "type": "address"
        },
        {
          "indexed": false,
          "internalType": "uint256",
          "name": "value",
          "type": "uint256"
        }
      ],
      "name": "Transfer",
      "type": "event"
    },
    {
      "anonymous": false,
      "inputs": [
        {
          "indexed": true,
          "internalType": "address",
          "name": "depositor",
          "type": "address"
        },
        {
          "indexed": true,
          "internalType": "address",
          "name": "recipient",
          "type": "address"
        },
        {
          "indexed": false,
          "internalType": "uint256",
          "name": "amount",
          "type": "uint256"
        }
      ],
      "name": "UserDeposit",
      "type": "event"
    },
    {
      "stateMutability": "payable",
      "type": "fallback"
    },
    {
      "inputs": [],
      "name": "DEPOSIT_SIZE",
      "outputs": [
        {
          "internalType": "uint256",
          "name": "",
          "type": "uint256"
        }
      ],
      "stateMutability": "view",
      "type": "function"
    },
    {
      "inputs": [],
      "name": "PUBLIC_KEY_LENGTH",
      "outputs": [
        {
          "internalType": "uint256",
          "name": "",
          "type": "uint256"
        }
      ],
      "stateMutability": "view",
      "type": "function"
    },
    {
      "inputs": [],
      "name": "SIGNATURE_LENGTH",
      "outputs": [
        {
          "internalType": "uint256",
          "name": "",
          "type": "uint256"
        }
      ],
      "stateMutability": "view",
      "type": "function"
    },
    {
      "inputs": [],
      "name": "_DEPOSIT_SIZE",
      "outputs": [
        {
          "internalType": "uint256",
          "name": "",
          "type": "uint256"
        }
      ],
      "stateMutability": "view",
      "type": "function"
    },
    {
      "inputs": [],
      "name": "acceptAdmin",
      "outputs": [],
      "stateMutability": "nonpayable",
      "type": "function"
    },
    {
      "inputs": [
        {
          "internalType": "address",
          "name": "_owner",
          "type": "address"
        },
        {
          "internalType": "address",
          "name": "_spender",
          "type": "address"
        }
      ],
      "name": "allowance",
      "outputs": [
        {
          "internalType": "uint256",
          "name": "",
          "type": "uint256"
        }
      ],
      "stateMutability": "view",
      "type": "function"
    },
    {
      "inputs": [
        {
          "internalType": "address",
          "name": "_spender",
          "type": "address"
        },
        {
          "internalType": "uint256",
          "name": "_value",
          "type": "uint256"
        }
      ],
      "name": "approve",
      "outputs": [
        {
          "internalType": "bool",
          "name": "",
          "type": "bool"
        }
      ],
      "stateMutability": "nonpayable",
      "type": "function"
    },
    {
      "inputs": [
        {
          "internalType": "address",
          "name": "_owner",
          "type": "address"
        }
      ],
      "name": "balanceOf",
      "outputs": [
        {
          "internalType": "uint256",
          "name": "",
          "type": "uint256"
        }
      ],
      "stateMutability": "view",
      "type": "function"
    },
    {
      "inputs": [
        {
          "internalType": "address",
          "name": "_owner",
          "type": "address"
        }
      ],
      "name": "balanceOfUnderlying",
      "outputs": [
        {
          "internalType": "uint256",
          "name": "",
          "type": "uint256"
        }
      ],
      "stateMutability": "view",
      "type": "function"
    },
    {
      "inputs": [
        {
          "internalType": "uint32[]",
          "name": "_redeemRequestIds",
          "type": "uint32[]"
        },
        {
          "internalType": "uint32[]",
          "name": "_withdrawalEventIds",
          "type": "uint32[]"
        }
      ],
      "name": "claimRedeemRequests",
      "outputs": [
        {
          "internalType": "uint8[]",
          "name": "claimStatuses",
          "type": "uint8[]"
        }
      ],
      "stateMutability": "nonpayable",
      "type": "function"
    },
    {
      "inputs": [],
      "name": "decimals",
      "outputs": [
        {
          "internalType": "uint8",
          "name": "",
          "type": "uint8"
        }
      ],
      "stateMutability": "pure",
      "type": "function"
    },
    {
      "inputs": [
        {
          "internalType": "address",
          "name": "_spender",
          "type": "address"
        },
        {
          "internalType": "uint256",
          "name": "_subtractableValue",
          "type": "uint256"
        }
      ],
      "name": "decreaseAllowance",
      "outputs": [
        {
          "internalType": "bool",
          "name": "",
          "type": "bool"
        }
      ],
      "stateMutability": "nonpayable",
      "type": "function"
    },
    {
      "inputs": [],
      "name": "deposit",
      "outputs": [],
      "stateMutability": "payable",
      "type": "function"
    },
    {
      "inputs": [
        {
          "internalType": "address",
          "name": "_recipient",
          "type": "address"
        }
      ],
      "name": "depositAndTransfer",
      "outputs": [],
      "stateMutability": "payable",
      "type": "function"
    },
    {
      "inputs": [
        {
          "components": [
            {
              "internalType": "uint256",
              "name": "operatorIndex",
              "type": "uint256"
            },
            {
              "internalType": "uint256",
              "name": "validatorCount",
              "type": "uint256"
            }
          ],
          "internalType": "struct IOperatorsRegistryV1.OperatorAllocation[]",
          "name": "_allocations",
          "type": "tuple[]"
        },
        {
          "internalType": "bytes32",
          "name": "_depositRoot",
          "type": "bytes32"
        }
      ],
      "name": "depositToConsensusLayerWithDepositRoot",
      "outputs": [],
      "stateMutability": "nonpayable",
      "type": "function"
    },
    {
      "inputs": [],
      "name": "getAdmin",
      "outputs": [
        {
          "internalType": "address",
          "name": "",
          "type": "address"
        }
      ],
      "stateMutability": "view",
      "type": "function"
    },
    {
      "inputs": [],
      "name": "getAllowlist",
      "outputs": [
        {
          "internalType": "address",
          "name": "",
          "type": "address"
        }
      ],
      "stateMutability": "view",
      "type": "function"
    },
    {
      "inputs": [],
      "name": "getBalanceToDeposit",
      "outputs": [
        {
          "internalType": "uint256",
          "name": "",
          "type": "uint256"
        }
      ],
      "stateMutability": "view",
      "type": "function"
    },
    {
      "inputs": [],
      "name": "getBalanceToRedeem",
      "outputs": [
        {
          "internalType": "uint256",
          "name": "",
          "type": "uint256"
        }
      ],
      "stateMutability": "view",
      "type": "function"
    },
    {
      "inputs": [],
      "name": "getCLSpec",
      "outputs": [
        {
          "components": [
            {
              "internalType": "uint64",
              "name": "epochsPerFrame",
              "type": "uint64"
            },
            {
              "internalType": "uint64",
              "name": "slotsPerEpoch",
              "type": "uint64"
            },
            {
              "internalType": "uint64",
              "name": "secondsPerSlot",
              "type": "uint64"
            },
            {
              "internalType": "uint64",
              "name": "genesisTime",
              "type": "uint64"
            },
            {
              "internalType": "uint64",
              "name": "epochsToAssumedFinality",
              "type": "uint64"
            }
          ],
          "internalType": "struct CLSpec.CLSpecStruct",
          "name": "",
          "type": "tuple"
        }
      ],
      "stateMutability": "view",
      "type": "function"
    },
    {
      "inputs": [],
      "name": "getCLValidatorCount",
      "outputs": [
        {
          "internalType": "uint256",
          "name": "",
          "type": "uint256"
        }
      ],
      "stateMutability": "view",
      "type": "function"
    },
    {
      "inputs": [],
      "name": "getCLValidatorTotalBalance",
      "outputs": [
        {
          "internalType": "uint256",
          "name": "",
          "type": "uint256"
        }
      ],
      "stateMutability": "view",
      "type": "function"
    },
    {
      "inputs": [],
      "name": "getCollector",
      "outputs": [
        {
          "internalType": "address",
          "name": "",
          "type": "address"
        }
      ],
      "stateMutability": "view",
      "type": "function"
    },
    {
      "inputs": [],
      "name": "getCommittedBalance",
      "outputs": [
        {
          "internalType": "uint256",
          "name": "",
          "type": "uint256"
        }
      ],
      "stateMutability": "view",
      "type": "function"
    },
    {
      "inputs": [],
      "name": "getCoverageFund",
      "outputs": [
        {
          "internalType": "address",
          "name": "",
          "type": "address"
        }
      ],
      "stateMutability": "view",
      "type": "function"
    },
    {
      "inputs": [],
      "name": "getCurrentEpochId",
      "outputs": [
        {
          "internalType": "uint256",
          "name": "",
          "type": "uint256"
        }
      ],
      "stateMutability": "view",
      "type": "function"
    },
    {
      "inputs": [],
      "name": "getCurrentFrame",
      "outputs": [
        {
          "internalType": "uint256",
          "name": "_startEpochId",
          "type": "uint256"
        },
        {
          "internalType": "uint256",
          "name": "_startTime",
          "type": "uint256"
        },
        {
          "internalType": "uint256",
          "name": "_endTime",
          "type": "uint256"
        }
      ],
      "stateMutability": "view",
      "type": "function"
    },
    {
      "inputs": [],
      "name": "getDailyCommittableLimits",
      "outputs": [
        {
          "components": [
            {
              "internalType": "uint128",
              "name": "minDailyNetCommittableAmount",
              "type": "uint128"
            },
            {
              "internalType": "uint128",
              "name": "maxDailyRelativeCommittableAmount",
              "type": "uint128"
            }
          ],
          "internalType": "struct DailyCommittableLimits.DailyCommittableLimitsStruct",
          "name": "",
          "type": "tuple"
        }
      ],
      "stateMutability": "view",
      "type": "function"
    },
    {
      "inputs": [],
      "name": "getDepositedValidatorCount",
      "outputs": [
        {
          "internalType": "uint256",
          "name": "",
          "type": "uint256"
        }
      ],
      "stateMutability": "view",
      "type": "function"
    },
    {
      "inputs": [],
      "name": "getELFeeRecipient",
      "outputs": [
        {
          "internalType": "address",
          "name": "",
          "type": "address"
        }
      ],
      "stateMutability": "view",
      "type": "function"
    },
    {
      "inputs": [],
      "name": "getExpectedEpochId",
      "outputs": [
        {
          "internalType": "uint256",
          "name": "",
          "type": "uint256"
        }
      ],
      "stateMutability": "view",
      "type": "function"
    },
    {
      "inputs": [
        {
          "internalType": "uint256",
          "name": "_epochId",
          "type": "uint256"
        }
      ],
      "name": "getFrameFirstEpochId",
      "outputs": [
        {
          "internalType": "uint256",
          "name": "",
          "type": "uint256"
        }
      ],
      "stateMutability": "view",
      "type": "function"
    },
    {
      "inputs": [],
      "name": "getGlobalFee",
      "outputs": [
        {
          "internalType": "uint256",
          "name": "",
          "type": "uint256"
        }
      ],
      "stateMutability": "view",
      "type": "function"
    },
    {
      "inputs": [],
      "name": "getKeeper",
      "outputs": [
        {
          "internalType": "address",
          "name": "",
          "type": "address"
        }
      ],
      "stateMutability": "view",
      "type": "function"
    },
    {
      "inputs": [],
      "name": "getLastCompletedEpochId",
      "outputs": [
        {
          "internalType": "uint256",
          "name": "",
          "type": "uint256"
        }
      ],
      "stateMutability": "view",
      "type": "function"
    },
    {
      "inputs": [],
      "name": "getLastConsensusLayerReport",
      "outputs": [
        {
          "components": [
            {
              "internalType": "uint256",
              "name": "epoch",
              "type": "uint256"
            },
            {
              "internalType": "uint256",
              "name": "validatorsBalance",
              "type": "uint256"
            },
            {
              "internalType": "uint256",
              "name": "validatorsSkimmedBalance",
              "type": "uint256"
            },
            {
              "internalType": "uint256",
              "name": "validatorsExitedBalance",
              "type": "uint256"
            },
            {
              "internalType": "uint256",
              "name": "validatorsExitingBalance",
              "type": "uint256"
            },
            {
              "internalType": "uint32",
              "name": "validatorsCount",
              "type": "uint32"
            },
            {
              "internalType": "bool",
              "name": "rebalanceDepositToRedeemMode",
              "type": "bool"
            },
            {
              "internalType": "bool",
              "name": "slashingContainmentMode",
              "type": "bool"
            }
          ],
          "internalType": "struct IOracleManagerV1.StoredConsensusLayerReport",
          "name": "",
          "type": "tuple"
        }
      ],
      "stateMutability": "view",
      "type": "function"
    },
    {
      "inputs": [],
      "name": "getMetadataURI",
      "outputs": [
        {
          "internalType": "string",
          "name": "",
          "type": "string"
        }
      ],
      "stateMutability": "view",
      "type": "function"
    },
    {
      "inputs": [],
      "name": "getOperatorsRegistry",
      "outputs": [
        {
          "internalType": "address",
          "name": "",
          "type": "address"
        }
      ],
      "stateMutability": "view",
      "type": "function"
    },
    {
      "inputs": [],
      "name": "getOracle",
      "outputs": [
        {
          "internalType": "address",
          "name": "",
          "type": "address"
        }
      ],
      "stateMutability": "view",
      "type": "function"
    },
    {
      "inputs": [],
      "name": "getPendingAdmin",
      "outputs": [
        {
          "internalType": "address",
          "name": "",
          "type": "address"
        }
      ],
      "stateMutability": "view",
      "type": "function"
    },
    {
      "inputs": [],
      "name": "getRedeemManager",
      "outputs": [
        {
          "internalType": "address",
          "name": "",
          "type": "address"
        }
      ],
      "stateMutability": "view",
      "type": "function"
    },
    {
      "inputs": [],
      "name": "getReportBounds",
      "outputs": [
        {
          "components": [
            {
              "internalType": "uint256",
              "name": "annualAprUpperBound",
              "type": "uint256"
            },
            {
              "internalType": "uint256",
              "name": "relativeLowerBound",
              "type": "uint256"
            }
          ],
          "internalType": "struct ReportBounds.ReportBoundsStruct",
          "name": "",
          "type": "tuple"
        }
      ],
      "stateMutability": "view",
      "type": "function"
    },
    {
      "inputs": [],
      "name": "getSlashingContainmentMode",
      "outputs": [
        {
          "internalType": "bool",
          "name": "",
          "type": "bool"
        }
      ],
      "stateMutability": "view",
      "type": "function"
    },
    {
      "inputs": [],
      "name": "getTime",
      "outputs": [
        {
          "internalType": "uint256",
          "name": "",
          "type": "uint256"
        }
      ],
      "stateMutability": "view",
      "type": "function"
    },
    {
      "inputs": [],
      "name": "getWithdrawalCredentials",
      "outputs": [
        {
          "internalType": "bytes32",
          "name": "",
          "type": "bytes32"
        }
      ],
      "stateMutability": "view",
      "type": "function"
    },
    {
      "inputs": [
        {
          "internalType": "address",
          "name": "_spender",
          "type": "address"
        },
        {
          "internalType": "uint256",
          "name": "_additionalValue",
          "type": "uint256"
        }
      ],
      "name": "increaseAllowance",
      "outputs": [
        {
          "internalType": "bool",
          "name": "",
          "type": "bool"
        }
      ],
      "stateMutability": "nonpayable",
      "type": "function"
    },
    {
      "inputs": [
        {
          "internalType": "address",
          "name": "_depositContractAddress",
          "type": "address"
        },
        {
          "internalType": "address",
          "name": "_elFeeRecipientAddress",
          "type": "address"
        },
        {
          "internalType": "bytes32",
          "name": "_withdrawalCredentials",
          "type": "bytes32"
        },
        {
          "internalType": "address",
          "name": "_oracleAddress",
          "type": "address"
        },
        {
          "internalType": "address",
          "name": "_systemAdministratorAddress",
          "type": "address"
        },
        {
          "internalType": "address",
          "name": "_allowlistAddress",
          "type": "address"
        },
        {
          "internalType": "address",
          "name": "_operatorRegistryAddress",
          "type": "address"
        },
        {
          "internalType": "address",
          "name": "_collectorAddress",
          "type": "address"
        },
        {
          "internalType": "uint256",
          "name": "_globalFee",
          "type": "uint256"
        }
      ],
      "name": "initRiverV1",
      "outputs": [],
      "stateMutability": "nonpayable",
      "type": "function"
    },
    {
      "inputs": [
        {
          "internalType": "address",
          "name": "_redeemManager",
          "type": "address"
        },
        {
          "internalType": "uint64",
          "name": "_epochsPerFrame",
          "type": "uint64"
        },
        {
          "internalType": "uint64",
          "name": "_slotsPerEpoch",
          "type": "uint64"
        },
        {
          "internalType": "uint64",
          "name": "_secondsPerSlot",
          "type": "uint64"
        },
        {
          "internalType": "uint64",
          "name": "_genesisTime",
          "type": "uint64"
        },
        {
          "internalType": "uint64",
          "name": "_epochsToAssumedFinality",
          "type": "uint64"
        },
        {
          "internalType": "uint256",
          "name": "_annualAprUpperBound",
          "type": "uint256"
        },
        {
          "internalType": "uint256",
          "name": "_relativeLowerBound",
          "type": "uint256"
        },
        {
          "internalType": "uint128",
          "name": "_minDailyNetCommittableAmount_",
          "type": "uint128"
        },
        {
          "internalType": "uint128",
          "name": "_maxDailyRelativeCommittableAmount_",
          "type": "uint128"
        }
      ],
      "name": "initRiverV1_1",
      "outputs": [],
      "stateMutability": "nonpayable",
      "type": "function"
    },
    {
      "inputs": [],
      "name": "initRiverV1_2",
      "outputs": [],
      "stateMutability": "nonpayable",
      "type": "function"
    },
    {
      "inputs": [
        {
          "internalType": "uint256",
          "name": "_epoch",
          "type": "uint256"
        }
      ],
      "name": "isValidEpoch",
      "outputs": [
        {
          "internalType": "bool",
          "name": "",
          "type": "bool"
        }
      ],
      "stateMutability": "view",
      "type": "function"
    },
    {
      "inputs": [],
      "name": "name",
      "outputs": [
        {
          "internalType": "string",
          "name": "",
          "type": "string"
        }
      ],
      "stateMutability": "pure",
      "type": "function"
    },
    {
      "inputs": [
        {
          "internalType": "address",
          "name": "_newAdmin",
          "type": "address"
        }
      ],
      "name": "proposeAdmin",
      "outputs": [],
      "stateMutability": "nonpayable",
      "type": "function"
    },
    {
      "inputs": [
        {
          "internalType": "uint256",
          "name": "_lsETHAmount",
          "type": "uint256"
        },
        {
          "internalType": "address",
          "name": "_recipient",
          "type": "address"
        }
      ],
      "name": "requestRedeem",
      "outputs": [
        {
          "internalType": "uint32",
          "name": "_redeemRequestId",
          "type": "uint32"
        }
      ],
      "stateMutability": "nonpayable",
      "type": "function"
    },
    {
      "inputs": [
        {
          "internalType": "uint32[]",
          "name": "_redeemRequestIds",
          "type": "uint32[]"
        }
      ],
      "name": "resolveRedeemRequests",
      "outputs": [
        {
          "internalType": "int64[]",
          "name": "withdrawalEventIds",
          "type": "int64[]"
        }
      ],
      "stateMutability": "view",
      "type": "function"
    },
    {
      "inputs": [],
      "name": "sendCLFunds",
      "outputs": [],
      "stateMutability": "payable",
      "type": "function"
    },
    {
      "inputs": [],
      "name": "sendCoverageFunds",
      "outputs": [],
      "stateMutability": "payable",
      "type": "function"
    },
    {
      "inputs": [],
      "name": "sendELFees",
      "outputs": [],
      "stateMutability": "payable",
      "type": "function"
    },
    {
      "inputs": [],
      "name": "sendRedeemManagerExceedingFunds",
      "outputs": [],
      "stateMutability": "payable",
      "type": "function"
    },
    {
      "inputs": [
        {
          "internalType": "address",
          "name": "_newAllowlist",
          "type": "address"
        }
      ],
      "name": "setAllowlist",
      "outputs": [],
      "stateMutability": "nonpayable",
      "type": "function"
    },
    {
      "inputs": [
        {
          "components": [
            {
              "internalType": "uint64",
              "name": "epochsPerFrame",
              "type": "uint64"
            },
            {
              "internalType": "uint64",
              "name": "slotsPerEpoch",
              "type": "uint64"
            },
            {
              "internalType": "uint64",
              "name": "secondsPerSlot",
              "type": "uint64"
            },
            {
              "internalType": "uint64",
              "name": "genesisTime",
              "type": "uint64"
            },
            {
              "internalType": "uint64",
              "name": "epochsToAssumedFinality",
              "type": "uint64"
            }
          ],
          "internalType": "struct CLSpec.CLSpecStruct",
          "name": "_newValue",
          "type": "tuple"
        }
      ],
      "name": "setCLSpec",
      "outputs": [],
      "stateMutability": "nonpayable",
      "type": "function"
    },
    {
      "inputs": [
        {
          "internalType": "address",
          "name": "_newCollector",
          "type": "address"
        }
      ],
      "name": "setCollector",
      "outputs": [],
      "stateMutability": "nonpayable",
      "type": "function"
    },
    {
      "inputs": [
        {
          "components": [
            {
              "internalType": "uint256",
              "name": "epoch",
              "type": "uint256"
            },
            {
              "internalType": "uint256",
              "name": "validatorsBalance",
              "type": "uint256"
            },
            {
              "internalType": "uint256",
              "name": "validatorsSkimmedBalance",
              "type": "uint256"
            },
            {
              "internalType": "uint256",
              "name": "validatorsExitedBalance",
              "type": "uint256"
            },
            {
              "internalType": "uint256",
              "name": "validatorsExitingBalance",
              "type": "uint256"
            },
            {
              "internalType": "uint32",
              "name": "validatorsCount",
              "type": "uint32"
            },
            {
              "internalType": "uint32[]",
              "name": "stoppedValidatorCountPerOperator",
              "type": "uint32[]"
            },
            {
              "internalType": "bool",
              "name": "rebalanceDepositToRedeemMode",
              "type": "bool"
            },
            {
              "internalType": "bool",
              "name": "slashingContainmentMode",
              "type": "bool"
            }
          ],
          "internalType": "struct IOracleManagerV1.ConsensusLayerReport",
          "name": "_report",
          "type": "tuple"
        }
      ],
      "name": "setConsensusLayerData",
      "outputs": [],
      "stateMutability": "nonpayable",
      "type": "function"
    },
    {
      "inputs": [
        {
          "internalType": "address",
          "name": "_newCoverageFund",
          "type": "address"
        }
      ],
      "name": "setCoverageFund",
      "outputs": [],
      "stateMutability": "nonpayable",
      "type": "function"
    },
    {
      "inputs": [
        {
          "components": [
            {
              "internalType": "uint128",
              "name": "minDailyNetCommittableAmount",
              "type": "uint128"
            },
            {
              "internalType": "uint128",
              "name": "maxDailyRelativeCommittableAmount",
              "type": "uint128"
            }
          ],
          "internalType": "struct DailyCommittableLimits.DailyCommittableLimitsStruct",
          "name": "_dcl",
          "type": "tuple"
        }
      ],
      "name": "setDailyCommittableLimits",
      "outputs": [],
      "stateMutability": "nonpayable",
      "type": "function"
    },
    {
      "inputs": [
        {
          "internalType": "address",
          "name": "_newELFeeRecipient",
          "type": "address"
        }
      ],
      "name": "setELFeeRecipient",
      "outputs": [],
      "stateMutability": "nonpayable",
      "type": "function"
    },
    {
      "inputs": [
        {
          "internalType": "uint256",
          "name": "_newFee",
          "type": "uint256"
        }
      ],
      "name": "setGlobalFee",
      "outputs": [],
      "stateMutability": "nonpayable",
      "type": "function"
    },
    {
      "inputs": [
        {
          "internalType": "address",
          "name": "_keeper",
          "type": "address"
        }
      ],
      "name": "setKeeper",
      "outputs": [],
      "stateMutability": "nonpayable",
      "type": "function"
    },
    {
      "inputs": [
        {
          "internalType": "string",
          "name": "_metadataURI",
          "type": "string"
        }
      ],
      "name": "setMetadataURI",
      "outputs": [],
      "stateMutability": "nonpayable",
      "type": "function"
    },
    {
      "inputs": [
        {
          "internalType": "address",
          "name": "_oracleAddress",
          "type": "address"
        }
      ],
      "name": "setOracle",
      "outputs": [],
      "stateMutability": "nonpayable",
      "type": "function"
    },
    {
      "inputs": [
        {
          "components": [
            {
              "internalType": "uint256",
              "name": "annualAprUpperBound",
              "type": "uint256"
            },
            {
              "internalType": "uint256",
              "name": "relativeLowerBound",
              "type": "uint256"
            }
          ],
          "internalType": "struct ReportBounds.ReportBoundsStruct",
          "name": "_newValue",
          "type": "tuple"
        }
      ],
      "name": "setReportBounds",
      "outputs": [],
      "stateMutability": "nonpayable",
      "type": "function"
    },
    {
      "inputs": [
        {
          "internalType": "uint256",
          "name": "_underlyingAssetAmount",
          "type": "uint256"
        }
      ],
      "name": "sharesFromUnderlyingBalance",
      "outputs": [
        {
          "internalType": "uint256",
          "name": "",
          "type": "uint256"
        }
      ],
      "stateMutability": "view",
      "type": "function"
    },
    {
      "inputs": [],
      "name": "symbol",
      "outputs": [
        {
          "internalType": "string",
          "name": "",
          "type": "string"
        }
      ],
      "stateMutability": "pure",
      "type": "function"
    },
    {
      "inputs": [],
      "name": "totalSupply",
      "outputs": [
        {
          "internalType": "uint256",
          "name": "",
          "type": "uint256"
        }
      ],
      "stateMutability": "view",
      "type": "function"
    },
    {
      "inputs": [],
      "name": "totalUnderlyingSupply",
      "outputs": [
        {
          "internalType": "uint256",
          "name": "",
          "type": "uint256"
        }
      ],
      "stateMutability": "view",
      "type": "function"
    },
    {
      "inputs": [
        {
          "internalType": "address",
          "name": "_to",
          "type": "address"
        },
        {
          "internalType": "uint256",
          "name": "_value",
          "type": "uint256"
        }
      ],
      "name": "transfer",
      "outputs": [
        {
          "internalType": "bool",
          "name": "",
          "type": "bool"
        }
      ],
      "stateMutability": "nonpayable",
      "type": "function"
    },
    {
      "inputs": [
        {
          "internalType": "address",
          "name": "_from",
          "type": "address"
        },
        {
          "internalType": "address",
          "name": "_to",
          "type": "address"
        },
        {
          "internalType": "uint256",
          "name": "_value",
          "type": "uint256"
        }
      ],
      "name": "transferFrom",
      "outputs": [
        {
          "internalType": "bool",
          "name": "",
          "type": "bool"
        }
      ],
      "stateMutability": "nonpayable",
      "type": "function"
    },
    {
      "inputs": [
        {
          "internalType": "uint256",
          "name": "_shares",
          "type": "uint256"
        }
      ],
      "name": "underlyingBalanceFromShares",
      "outputs": [
        {
          "internalType": "uint256",
          "name": "",
          "type": "uint256"
        }
      ],
      "stateMutability": "view",
      "type": "function"
    },
    {
      "inputs": [],
      "name": "version",
      "outputs": [
        {
          "internalType": "string",
          "name": "",
          "type": "string"
        }
      ],
      "stateMutability": "pure",
      "type": "function"
    },
    {
      "stateMutability": "payable",
      "type": "receive"
    }
  ],
  "transactionHash": "0x575a02ce4bbccfa3258a758bd05f89a295ec217c7ba7a4b9294d4eef6444e396",
  "args": [],
  "numDeployments": 1,
  "solcInputHash": "09ab035d61ef908ac37f7fdfb0b5b7d1",
  "bytecode": "0x608080604052346093577f1809e49bba43f2d39fa57894b50cd6ccb428cc438230e065cac3eb24a1355a71906000197f82055909238c0f5e63d6f174068ebb8f51bcec9bd37de63bb68f6551feec0cfc556000198152604060208201523660408201523660006060830137600060603683010152606081601f19601f3601168101030190a160405161590f90816100998239f35b600080fdfe6080604052600436101561002f575b36156100255763574b16a760e11b60005260046000fd5b61002d6143ef565b005b6000803560e01c8063020f086e14613f805780630407de4714613c2a57806304843a1714613bfe578063056850c614613bd057806306fdde0314613b7b578063095ea7b314613b545780630e18b68114613aee578063107703ab1461391f578063107d7fa0146138ed5780631311cf8d14613869578063143a08d41461384e578063147bf6c4146137d35780631546962b1461379c57806315ca4cee1461371c57806317e64858146135f857806318160ddd146135cc5780631bcbfaba146135a057806323b872dd14613471578063281a312214613170578063291206f6146131045780632cb562e1146130cd5780632d6b59bf146130a15780632dc5c97c1461303b578063313ce5671461301f57806336bf332514611417578063391b6f4e14612fe85780633950935114612f895780633af9e66914612f3f57806346425ef014612f135780634b47b74f14612ea05780635022820114612e69578063540bc5ea14612e4d57806354a29cdc14612d8157806354fd4d5014612d3a578063557ed1ba14612d1f5780635639671514612cf357806357fa854714612cbe57806358bf3c7f14612c3a5780635d95e80114612c0c5780635f2e5f0714612a9f57806363f62aaf14612a685780636e9960c314612a3157806370a08231146129e757806372f79b1314612934578063748747e6146128b0578063750521f51461266d57806378a010e814612556578063799a1954146125375780637adbf973146124f55780637bda5cfd146124c2578063833b1fce1461248b57806386a92af7146123a057806387f2adfb1461237457806389896aef146123485780638fcc4e5214611b295780639332525d1461197057806395d89b41146119255780639b498e26146118ee5780639d49cca1146118b8578063a29a839f14611895578063a457c2d714611824578063a9059cbb14611781578063ac232bde14611562578063bb6583ec146114eb578063bf15af56146114cf578063c5eff3d014611498578063d046815614611461578063d0e30db01461144a578063d49705241461141c578063d7f8f47414611417578063dd62ed3e146113b1578063e3a88e611461136c578063efd603471461133e578063efd66846146104b2578063f79c3f021461048b578063f9f95a901461045a578063fb5b82d0146103c35763fe7c12ae14610395575061000e565b346103c057806003193601126103c05750602060008051602061583a83398151915254604051908152f35b80fd5b50346103c05760203660031901126103c0576103dd614004565b6000805160206157da833981519152546001600160a01b031633036104475761040581614d89565b60008051602061573a8339815191528190556001600160a01b03167f0cc5437d7c9c1d9eab549acbb533eea3e9868e9443dd75309ed5820b33a3774e8280a280f35b63472511eb60e11b825233600452602482fd5b50346103c05760203660031901126103c057602061048160043561047c6149a0565b614df8565b6040519015158152f35b50346103c05760203660031901126103c05760206104aa600435614a42565b604051908152f35b50346103c05760203660031901126103c0576001600160401b03600435116103c057610120600435360360031901126103c05760008051602061563a833981519152546001600160a01b0316330361132b5761050c6149a0565b90600435600401359161051f8382614df8565b15611318576040519061014082018281106001600160401b0382111761130457604052828252602082019083825260408301908482526060840191858352608085019186835260a08601918783528760c088015260e087019488865288610100890152604051608081018181106001600160401b038211176112f05760405289815289602082015289604082015289606082015261012089015260008051602061569a833981519152916000805160206156da833981519152548082528060646004350135106112d557506105fb90516064600435013561429c565b855260008051602061565a833981519152548082528060446004350135106112b9575061062c60a460043501614539565b60008051602061571a8339815191529063ffffffff8254911611801561128b575b61124957509061066761067092516044600435013561429c565b8452548961429c565b906001600160401b036020816040840151169201511602906001600160401b03821691820361123557906106a391614310565b60c08601526106b0614740565b85526106bf82518251906141c8565b6110ef575b50506106ce614214565b9185835260246004350135602084015260446004350135604084015260646004350135606084015260846004350135608084015263ffffffff61071560a460043501614539565b1660a084015261075060e4600435019361072e8561454a565b151560c08201526107446101046004350161454a565b151560e0820152614e5e565b610758614d26565b9064496cebb80061077a865161077560c089015191865190614310565b614310565b0491610784614740565b808352865190811161105b5750815161079e8488516141c8565b106110215750906107b56107c9925186519061429c565b61012086015152610120850151519061429c565b81525b805180610f20575b50805180610e27575b505180610e0e575b506101208201515180610cd4575b5060043560c48101359290360360221901831215610c1b5782600435016004810135906001600160401b038211610a5e5760248101918060051b928336038113610cd0576108408661454a565b926020600461085361010482350161454a565b9661085d866142a9565b9561086b604051978861418c565b86528286019301010191368311610ccc57905b828210610cb4575050509061089a92916084600435013561500a565b60008051602061561a833981519152546001600160a01b03166108bb614740565b906000805160206155fa8339815191529182549015159081610caa575b50610abd575b505061012090846000805160206156fa833981519152805480610a62575b50505061091c60c08201516109166101046004350161454a565b9061538e565b0151906040519260a084526101c084019560a08501526024600435013560c08501526044600435013560e0850152606460043501356101008501526084600435013561012085015263ffffffff61097760a4600435016142c0565b1661014085015260043501602460048201359101956001600160401b038211610a5e578160051b36038713610a5e578190610120610160870152526101e084019590855b818110610a3957867f49ac0d2bb2a688ca460f7993eb93eccd3b9c9188da6b0727e9a409cf8b10587587808b60608a6109f38b614557565b1515610180850152610a0a61010460043501614557565b15156101a08501528051602085015260208101516040850152604081015182850152015160808301520390a180f35b90919660208060019263ffffffff610a508c6142c0565b1681520198019291016109bb565b8580fd5b610a7e610a839160008051602061581a833981519152546141c8565b614aef565b7f215c2b83e8c232e42091088056ab75d2ff643855c32997024f786cddb22d2290604082548151908152846020820152a1558438806108fc565b6040516303634a9560e21b815291602083600481855afa928315610c9f578793610c66575b508290610aee84614a42565b936000805160206156fa8339815191525490818611610c2e575b604080519182526020820185905281018690527f709263092d8d9fef472d907900405b5edae3d76f8ff4354858025b18424d710190606090a184610b4f575b5050506108de565b82610b6d92610b6287610b689403615476565b5461429c565b61553b565b6000805160206158ba83398151915260018060a01b03831660005280602052610b9b8260406000205461429c565b9060018060a01b038416600052602052604060002055868260008051602061577a8339815191526020604051858152a3813b15610c2a579060248792604051948593849263b30d8bb760e01b845260048401525af18015610c1f57908591610c06575b808080610b47565b81610c109161418c565b610c1b578338610bfe565b8380fd5b6040513d87823e3d90fd5b8680fd5b9250809450937f709263092d8d9fef472d907900405b5edae3d76f8ff4354858025b18424d7101610c5e82614c20565b939050610b08565b9092506020813d602011610c97575b81610c826020938361418c565b81010312610c9257519138610ae2565b600080fd5b3d9150610c75565b6040513d89823e3d90fd5b90501515386108d8565b60208091610cc1846142c0565b81520191019061087e565b8980fd5b8780fd5b6000805160206155fa8339815191529081548015610dff57610cf4614740565b926000805160206157ba83398151915254610d13816107758587614310565b90856127108102046127101486151715610deb57610d34610d3e9186614310565b612710870261429c565b80610ddc57505086905b81610d57575b505050506107f3565b7f3d1669e813a9845c288f0e1f642a4343a451103b87886d12de37e63b39bbd94293610da2610dcf92610d9a60008051602061573a8339815191525495866154b9565b54918761429c565b9560405194859460018060a01b031697859094939260609260808301968352602083015260408201520152565b0390a23880808080610d4e565b610de5916143a2565b90610d48565b634e487b7160e01b89526011600452602489fd5b630d35acd760e21b8652600486fd5b610e1790614f36565b60606101208401510152386107e5565b60008051602061561a8339815191525447916001600160a01b0390911690813b15610c2a578691602483926040519485938492630c77940160e01b845260048401525af18015610f1557908691610efc575b5050610e85904761429c565b80610edb575b7f4e484734eb4d444bfa106f917d05d9ceb8ce18bf516c85d7aeb9b322925339f96020604051838152a160406101208501510152610ed360406101208501510151825161429c565b8152386107dd565b610ef7610a7e8260008051602061581a833981519152546141c8565b610e8b565b81610f069161418c565b610f11578438610e79565b8480fd5b6040513d88823e3d90fd5b6000805160206156ba8339815191525447916001600160a01b0390911690813b15610c2a57869160248392604051948593849263c8a6dfd360e01b845260048401525af18015610f155790869161100c575b5050610f7e904761429c565b80610feb575b7fda841d3042d792e2509a333b9dcbd4b3dd9b9047d382011f8788fab90ca7e3c76020604051838152a160206101208501510152610120830151610fcd602082015182516141c8565b9052610fe360206101208501510151825161429c565b8152386107d4565b611007610a7e8260008051602061581a833981519152546141c8565b610f84565b816110169161418c565b610f11578438610f72565b8551915160c0870151915160405163eb7a968960e01b81526004810194909452602484019190915260448301919091526064820152608490fd5b9061106f6020612710920192835190614310565b0461108a8351918851908181116000146110e957508061429c565b116110af5750906110a26110a892865190519061429c565b906141c8565b81526107cc565b8551915160c0870151915160405163063bb83f60e11b81526004810194909452602484019190915260448301919091526064820152608490fd5b9061429c565b519051476110fd82846141c8565b60008051602061567a833981519152546001600160a01b031690813b1561123157889160248392604051948593849263ea74f47960e01b845260048401525af1801561122657908891611211575b5050611157904761429c565b61116182846141c8565b81036111f25750816040917fcb5410dc8f29b2f498e023c3f9237dbd600255a717edf94a6072bcd03b0c773c936111d1575b806111ab575b82519182526020820152a138806106c4565b6111cc6111c7826000805160206156fa833981519152546141c8565b615476565b611199565b6111ed610a7e8360008051602061581a833981519152546141c8565b611193565b6111ff87926044946141c8565b6349a1938b60e01b8352600452602452fd5b8161121b9161418c565b610c2a57863861114b565b6040513d8a823e3d90fd5b8880fd5b634e487b7160e01b88526011600452602488fd5b8960649161125b60a460043501614539565b905463ffffffff806000805160206157fa833981519152541692632f776b1760e01b855216600452602452604452fd5b5061129a60a460043501614539565b63ffffffff806000805160206157fa833981519152541691161061064d565b636f24834360e01b8a5260049081523560449081013560245289fd5b621ee1cf60e11b8b526004908152356064013560245260448afd5b634e487b7160e01b8b52604160045260248bfd5b634e487b7160e01b84526041600452602484fd5b5060249163a225656d60e01b8252600452fd5b63472511eb60e11b815233600452602490fd5b50806003193601126103c0576000805160206156ba833981519152546001600160a01b0316330361132b5780f35b50346103c057806003193601126103c0576113856143d6565b506040611390614daa565b815181516001600160801b0390811682526020928301511691810191909152f35b50346103c05760403660031901126103c0576113cb614004565b6113d361401a565b915060008051602061575a8339815191529060018060a01b031660005260205260406000209060018060a01b03166000526020526020604060002054604051908152f35b6140d0565b50806003193601126103c05760008051602061587a833981519152546001600160a01b0316330361132b5780f35b50806003193601126103c05761145e6143ef565b80f35b50346103c057806003193601126103c057506000805160206155da833981519152546040516001600160a01b039091168152602090f35b50346103c057806003193601126103c0575060008051602061585a833981519152546040516001600160a01b039091168152602090f35b50346103c057806003193601126103c057602060405160308152f35b50346103c05760403660031901126103c05760405161150981614124565b6004356001600160801b038116810361155e5781526024356001600160801b038116810361155e5760208201526000805160206157da833981519152546001600160a01b031633036104475761145e90614564565b8280fd5b5060203660031901126103c057611577614004565b61158081614d89565b60ff6000805160206157fa8339815191525460281c16611772573415611763576115bd610a7e60008051602061581a8339815191523490546141c8565b6115ce346115c9614740565b61429c565b6000805160206155fa83398151915254908015801561175b575b1561173a575050346115fa34336154b9565b60008051602061585a833981519152546001600160a01b031691823b15610c1b57604051632d20488160e11b81523360048201526001602482015284908181604481885afa801561172f5761171a575b50506001600160a01b0381169233849003611692575b5050506040513481527f3bc57f469ad6d10d7723ea226cd22bd2b9e527def2b529f6ab44645a1668958260203392a380f35b60206024916040519283809263e838dfbb60e01b82528860048301525afa908115610c1f5785916116eb575b506116d757906116ce91336146a3565b50388080611660565b63e7d05e2760e01b84526004839052602484fd5b61170d915060203d602011611713575b611705818361418c565b8101906141eb565b386116be565b503d6116fb565b816117249161418c565b610c1b57833861164a565b6040513d84823e3d90fd5b61174761174c9234614310565b6143a2565b61175681336154b9565b6115fa565b5081156115e8565b6395b66fe960e01b8252600482fd5b63431af7d160e01b8252600482fd5b50346103c05760403660031901126103c05761179b614004565b602435916117a98233614880565b8215611815573360009081526000805160206158ba83398151915260205260409020548311611806576001600160a01b038216156117ee5760206104818484336146a3565b637617407560e11b8152336004526024819052604490fd5b6351940b3960e11b8152600490fd5b6336b216db60e21b8152600490fd5b50346103c05760403660031901126103c05761188a90611842614004565b33600090815260008051602061575a833981519152602090815260408083206001600160a01b0385168452909152902054909150611883906024359061429c565b90336145e0565b602060405160018152f35b50346103c057806003193601126103c05760206104aa6118b36149a0565b614a74565b50346103c057806003193601126103c0576118d16143d6565b5060406118dc614d26565b60208251918051835201516020820152f35b50346103c057806003193601126103c0575060008051602061589a833981519152546040516001600160a01b039091168152602090f35b50346103c057806003193601126103c05761196c6040805190611948818361418c565b6005825264098e68aa8960db1b6020830152519182916020835260208301906140ab565b0390f35b50346103c05760403660031901126103c057806004356001600160401b038111611b26576119a29036906004016140f4565b602435906001600160401b038211611b235783926119c7611a0c9336906004016140f4565b959092611a1e60008051602061561a83398151915260018060a01b039054169460405198899788968795637c044e5560e01b87526080600488015260848701916142d1565b848103600319016024860152916142d1565b6001604483015261ffff606483015203925af190811561172f578291611a88575b5090604051918291602083016020845282518091526020604085019301915b818110611a6c575050500390f35b825160ff16845285945060209384019390920191600101611a5e565b90503d8083833e611a99818361418c565b81019060208183031261155e578051906001600160401b038211610c1b57019080601f8301121561155e57815190611ad0826142a9565b92611ade604051948561418c565b82845260208085019360051b820101918211610f1157602001915b818310611b095750505038611a3f565b825160ff81168103610a5e57815260209283019201611af9565b50505b50fd5b50346103c05760403660031901126103c057600435906001600160401b0382116103c057366023830112156103c0578160040135916001600160401b0383116123445760248360061b820101913683116103c05760008051602061579a833981519152546001600160a01b031633036123355760ff6000805160206157fa8339815191525460281c16612326577f35efb61d8784060218d9d6aa40eae55904de43779c1afc79c74dfefcfdf9125f805460405163c5f2892f60e01b815291959190602090829060049082906001600160a01b03165afa90811561231b5783916122e9575b50602435036122da5760008051602061583a833981519152546801bc16d674ec80000081049182156122cb57839684975b82891015611c6457611c5c60019160448b60061b8a010135906141c8565b980197611c3e565b9086888684116122bc579380611c7a89926142a9565b90611c88604051928361418c565b8152602081018096602460009501915b81831061227d57505060008051602061589a83398151915254604051630f6b1ccf60e01b815260206004820152925160248401819052929788936001600160a01b0390921692506044840191855b818110612255575050508383809203925af1928315610c9f57879488946121f4575b5084519687156121e55787119081156121da575b506121cb5760008051602061567a8339815191525480156121bc57875b878110611de257888888816801bc16d674ec80000002906801bc16d674ec80000082048303611dce5791611d98611d936040937f220ab8fd274cf58c09b0825ccf00e74ba4ce4117fd47285adc2183a635838f1b9561429c565b614aac565b611dc060008051602061571a83398151915291825492611db882856141c8565b9055826141c8565b82519182526020820152a180f35b634e487b7160e01b84526011600452602484fd5b611dec81876143ac565b51611df782876143ac565b519960308251036121ad5760608b510361219e57602081611e5860405183810190611e476010868381611e308c88815193849201614088565b810188838201520301600f1981018452018261418c565b604051928392839251928391614088565b8101039060025afa156121925780519a80518260409361217e5750821161216f578151866020820191826060820160208601905b808310612159575050858252601f01601f19168086529051602093829190611eb79082908490614088565b8101039060025afa1561210c57855181519c60609182899f1061214a57845189602082019182888201878901905b808310612134575050928160209485611f409452601f80199101168a52611f3085808c518094611f1d83830197889251928391614088565b810188838201520301808452018261418c565b8951928392839251928391614088565b8101039060025afa1561212a5788611f71611f5f602093835190614d05565b83885192828480945193849201614088565b8101039060025afa1561212057602088611f90611f5f8a835195614d05565b8101039060025afa156121205787611fd8602092825194611fc888519186830193634059730760d81b85528a8401528983528261418c565b8751928392839251928391614088565b8101039060025afa156121165786612009611ff7602093835190614d05565b83865192828480945193849201614088565b8101039060025afa1561210c57855147936801bc16d674ec7fffff1985019485116112355760018060a01b038954169184519388602086015260208552612050868661418c565b833b15610ccc576801bc16d674ec8000008695938b95936120b9612095946120a79a519a8b98899788966304512a2360e31b88526080600489015260848801906140ab565b868103600319016024880152906140ab565b848103600319016044860152906140ab565b90606483015203925af190811561210357506120ee575b5047036120df57600101611d39565b638051a6bb60e01b8952600489fd5b6120fb919a50849061418c565b82988a6120d0565b513d87823e3d90fd5b81513d87823e3d90fd5b82513d88823e3d90fd5b83513d89823e3d90fd5b84513d8a823e3d90fd5b815183528e945060209283019290910190611ee5565b633b99b53d60e01b8952600489fd5b815183528b945060209283019290910190611e8c565b633b99b53d60e01b8652600486fd5b634e487b7160e01b81526011600452602490fd5b604051903d90823e3d90fd5b63408ebd3960e01b8152600490fd5b63050cb55360e41b8152600490fd5b639be7315960e01b8852600488fd5b635993bd5760e01b8752600487fd5b905086141588611d1c565b63200149ad60e21b8952600489fd5b945092503d8088863e612207818661418c565b840193604081860312610cd05780516001600160401b0381116112315785612230918301614c4b565b9460208201516001600160401b038111610ccc5761224e9201614c4b565b9288611d08565b825180518552602090810151818601528e97508b965060409094019390920191600101611ce6565b9091929793506040833603126122b8576020604091825161229d81614124565b8535815282860135838201528152019201908a939792611c98565b8a80fd5b63ba505b3560e01b8852600488fd5b631036b5ad60e31b8452600484fd5b632b3b4dab60e21b8252600482fd5b90506020813d602011612313575b816123046020938361418c565b8101031261155e575138611c0d565b3d91506122f7565b6040513d85823e3d90fd5b63431af7d160e01b8152600490fd5b63c60eb33560e01b8152600490fd5b5080fd5b50346103c057806003193601126103c05750602060008051602061569a83398151915254604051908152f35b50346103c057806003193601126103c05750602060008051602061571a83398151915254604051908152f35b50346103c057806003193601126103c0577fb63f3482ec84cb93d74a71645ad2e9e896fa02723e42170b4aad20a4bed6cdd59060405191818154916123e483614b32565b80865292600181169081156124615750600114612420575b61196c8561240c8187038261418c565b6040519182916020835260208301906140ab565b815260208120939250905b8082106124475750909150810160200161240c8261196c6123fc565b91926001816020925483858801015201910190929161242b565b86955061196c9693506020925061240c94915060ff191682840152151560051b82010192936123fc565b50346103c057806003193601126103c0575060008051602061563a833981519152546040516001600160a01b039091168152602090f35b50346103c057806003193601126103c057602060ff6000805160206157fa8339815191525460281c166040519015158152f35b50346103c05760203660031901126103c05761250f614004565b6000805160206157da833981519152546001600160a01b031633036104475761145e90614357565b50346103c05760203660031901126103c05760206104aa600435614c20565b50346103c05760a03660031901126103c0576000805160206157da833981519152546001600160a01b0316330361132b5760405161259381614155565b600435906001600160401b038216820361155e5780826125e792526125b6614030565b60208201526125c3614046565b60408201526125d061405c565b60608201526125dd614072565b6080820152614b6c565b6024356001600160401b038116810361155e57604435916001600160401b0383168303610c1b57606435926001600160401b0384168403610f11576084356001600160401b0381168103610a5e577f25777eb44be046f64180acf8275f0ac2ec51e63a65a5f8a0f2f6d86ba25b74cf946126679260405195869586614323565b0390a180f35b50346103c05760203660031901126103c057600435906001600160401b0382116103c057366023830112156103c05781600401356126aa816141ad565b926126b8604051948561418c565b818452366024838301011161155e5781839260246020930183870137840101526000805160206157da833981519152546001600160a01b0316330361132b578151156128a1578151917fb63f3482ec84cb93d74a71645ad2e9e896fa02723e42170b4aad20a4bed6cdd56001600160401b03841161288d5761273a8154614b32565b601f811161283b575b50602093601f81116001146127b5579081612667939285967f8d2df192dd17edf92a7964b78aa322f3d717b2ab9de00651bee32bbc4c5da63a96916127aa575b508160011b916000199060031b1c19161790556040519182916020835260208301906140ab565b905083015138612783565b818452848420601f198216855b8181106128235750916001917f8d2df192dd17edf92a7964b78aa322f3d717b2ab9de00651bee32bbc4c5da63a9697826126679796951061280a575b5050811b01905561240c565b85015160001960f88460031b161c1916905538806127fe565b858801518355602097880197600190930192016127c2565b848111156127435781845260208420601f860160051c9060208710612885575b81601f9101920160051c0390845b828110612877575050612743565b808660019284015501612869565b85915061285b565b634e487b7160e01b83526041600452602483fd5b638d46fe0560e01b8152600490fd5b50346103c05760203660031901126103c0576128ca614004565b6000805160206157da833981519152546001600160a01b03163303610447576128f281614d89565b60008051602061579a8339815191528190556001600160a01b03167fefb5cfa1a8690c124332ab93324539c5c9c4be03f28aeb8be86f2d8a0c9fb99b8280a280f35b50346103c057806003193601126103c05761294d6149a0565b9061296e61295a83614a74565b6110e96001600160401b038551168261427c565b906129b8602084016001600160401b036129af61298e8284511687614310565b92826129af816129a660408c01978289511690614310565b9a5116896141c8565b91511690614310565b60001981019190821161217e575061196c90604051938493846040919493926060820195825260208201520152565b50346103c05760203660031901126103c057612a01614004565b90506000805160206158ba8339815191529060018060a01b03166000526020526020604060002054604051908152f35b50346103c057806003193601126103c057506000805160206157da833981519152546040516001600160a01b039091168152602090f35b50346103c057806003193601126103c0575060008051602061561a833981519152546040516001600160a01b039091168152602090f35b50346103c05760203660031901126103c057600435816001600160401b0382116103c057612ad4612b169236906004016140f4565b60008051602061561a83398151915254604051635f2e5f0760e01b8152602060048201529485936001600160a01b0390921692849283929160248401916142d1565b03915afa90811561172f578291612b71575b5090604051918291602083016020845282518091526020604085019301915b818110612b55575050500390f35b825160070b845285945060209384019390920191600101612b47565b90503d8083833e612b82818361418c565b81019060208183031261155e578051906001600160401b038211610c1b57019080601f8301121561155e57815190612bb9826142a9565b92612bc7604051948561418c565b82845260208085019360051b820101918211610f1157602001915b818310612bf25750505038612b28565b82518060070b8103610a5e57815260209283019201612be2565b50806003193601126103c05760008051602061567a833981519152546001600160a01b0316330361132b5780f35b50346103c05760203660031901126103c057612c54614004565b6000805160206157da833981519152546001600160a01b0316330361044757612c7c81614d89565b60008051602061585a8339815191528190556001600160a01b03167f30f015a5d3c72c0a9414538199baa022323a483fa9e4ba2cd581596cf8ca04248280a280f35b50346103c05760203660031901126103c05760206104aa6004356110e96001600160401b03612ceb6149a0565b51168261427c565b50346103c057806003193601126103c05750602060008051602061567a83398151915254604051908152f35b50346103c057806003193601126103c0576020604051428152f35b50346103c057806003193601126103c05761196c6040805190612d5d818361418c565b60058252640312e332e360dc1b6020830152519182916020835260208301906140ab565b50346103c057806003193601126103c05760008051602061559a8339815191528054600203612e355760039055612def60008051602061583a833981519152612dd96801bc16d674ec80000082540680925403614aac565b60008051602061581a8339815191525401614aef565b6000805160206155ba8339815191526040516002815260406020820152366040820152368360608301378260603683010152606081601f19601f3601168101030190a180f35b54631cfd276760e31b82526002600452602452604490fd5b50346103c057806003193601126103c057602060405160608152f35b50346103c057806003193601126103c0575060008051602061573a833981519152546040516001600160a01b039091168152602090f35b50346103c057806003193601126103c057602090612ebc6149a0565b612ef9612ec882614a74565b6110e96001600160401b03612ef060008051602061569a8339815191525482875116906141c8565b9451168261427c565b915081811015612f0c5750604051908152f35b90506104aa565b50346103c057806003193601126103c05750602060008051602061557a83398151915254604051908152f35b50346103c05760203660031901126103c057612f59614004565b90506000805160206158ba8339815191529060018060a01b031660005260205260206104aa604060002054614a42565b50346103c05760403660031901126103c05761188a90612fa7614004565b33600090815260008051602061575a833981519152602090815260408083206001600160a01b038516845290915290205490915061188390602435906141c8565b50346103c057806003193601126103c0575060008051602061579a833981519152546040516001600160a01b039091168152602090f35b50346103c057806003193601126103c057602060405160128152f35b50346103c057806003193601126103c057613054614251565b5060a061305f6149a0565b6001600160401b036080604051928281511684528260208201511660208501528260408201511660408501528260608201511660608501520151166080820152f35b50346103c057806003193601126103c0575060206000805160206156fa83398151915254604051908152f35b50346103c057806003193601126103c057506000805160206156ba833981519152546040516001600160a01b039091168152602090f35b50346103c05760203660031901126103c0576000805160206157da83398151915254600435906001600160a01b03163303610447576020816131667fbd533e726baaf59b36f3914d950053f7e78f527057c97cd3f0043257fc0fc88493614974565b604051908152a180f35b50346103c0576101203660031901126103c05761318b614004565b61319361401a565b60643591604435916001600160a01b0384168403610f1157608435906001600160a01b0382168203610a5e5760a4356001600160a01b03811690818103610cd05760c4356001600160a01b03811694909390858503610ccc5760e4356001600160a01b0381169081810361346d57610104359260008051602061559a8339815191528054613455579161324e6020949260017fbd533e726baaf59b36f3914d950053f7e78f527057c97cd3f0043257fc0fc884979555614658565b61325781614d89565b60008051602061573a833981519152557f0cc5437d7c9c1d9eab549acbb533eea3e9868e9443dd75309ed5820b33a3774e8d80a261329481614974565b604051908152a16132a481614d89565b6000805160206156ba8339815191528190556001600160a01b03167f1da4c245099590dc40be61880c9b97792f3694d970acc1e67ac0e6cc90f3780d8980a26132ec81614d89565b60008051602061585a833981519152557f30f015a5d3c72c0a9414538199baa022323a483fa9e4ba2cd581596cf8ca04248780a261332981614d89565b60008051602061589a833981519152557fffc0721ef0563a1b0a51a0dc92113025f33ca434ada9ee3eebff2f385d2a8f9a8580a261336681614d89565b7f35efb61d8784060218d9d6aa40eae55904de43779c1afc79c74dfefcfdf9125f8190556001600160a01b03167e043cf7635f276413ae358250286a479a631abd9d74d57d4aa0bb87ebc7d1178480a2801561344657907f4c86ba184ea1a1558f84835ca34f6d67e222e8ee5cc4f324b8861dda4cf1740c6020613401938060008051602061567a83398151915255604051908152a1614357565b6000805160206155ba83398151915260405182815260406020820152366040820152368360608301378260603683010152606081601f19601f3601168101030190a180f35b63a9cb9e0d60e01b8352600483fd5b54631cfd276760e31b8e5260048e905260245260448dfd5b8b80fd5b50346103c05760603660031901126103c05761348b614004565b61349361401a565b90604435926134a28383614880565b8315611815576001600160a01b03821660009081526000805160206158ba83398151915260205260409020548411611806576001600160a01b0383161561357e57506001600160a01b038116600090815260008051602061575a8339815191526020908152604080832033845290915290205483811061354a57918391610481936020956000198203613537575b50506146a3565b613543910333836145e0565b3883613530565b604051637b936de360e01b81526001600160a01b039092166004830152336024830152604482015260648101839052608490fd5b637617407560e11b81526001600160a01b039091166004526024819052604490fd5b50346103c057806003193601126103c0575060206000805160206157ba83398151915254604051908152f35b50346103c057806003193601126103c0575060206000805160206155fa83398151915254604051908152f35b50346103c057806003193601126103c057613611614214565b505061010060008051602061569a8339815191526040519061363282614170565b549081815260008051602061557a83398151915254906020810191825263ffffffff60008051602061565a8339815191525492604083019384526000805160206156da83398151915254606084019081527fdbc0527c99b54cd325d6ce9eaae3a8413cd447b5205f37385f0ebc6551033c705490608085019182526000805160206157fa833981519152549560a0860193858816855260ff60e060c0890198828b60201c1615158a52019860281c1615158852604051988952516020890152516040880152516060870152516080860152511660a084015251151560c083015251151560e0820152f35b50346103c057366003190160408112612344576000805160206157da833981519152546001600160a01b03163303610447576040136103c0577f5ab79ffcd89b6380c7fbdd89d02cfe3d9c53c99a85e150c2319075018d1aac5c6040805161378381614124565b60043590818152611dc060243591826020820152614834565b50346103c057806003193601126103c0575060008051602061587a833981519152546040516001600160a01b039091168152602090f35b50346103c05760203660031901126103c0576137ed614004565b6000805160206157da833981519152546001600160a01b03163303610447576000805160206155da8339815191528190556001600160a01b03167f2a0f8515de3fa34ef68b99300347b8793c01683350743e96fe440594528298f48280a280f35b50346103c057806003193601126103c05760206104aa614740565b50346103c05760203660031901126103c057613883614004565b6000805160206157da833981519152546001600160a01b03163303610447576138ab81614d89565b6000805160206156ba8339815191528190556001600160a01b03167f1da4c245099590dc40be61880c9b97792f3694d970acc1e67ac0e6cc90f3780d8280a280f35b50346103c057806003193601126103c05750602063ffffffff6000805160206157fa8339815191525416604051908152f35b50346103c05760403660031901126103c0576004359061393d61401a565b60ff6000805160206157fa8339815191525460281c166117725760008051602061585a83398151915280546001600160a01b0316803b15610c1b578360449160405192838092632d20488160e11b8252336004830152600460248301525afa8015613ae357613acb575b505460405163e838dfbb60e01b81526001600160a01b039283166004820181905292909160209183916024918391165afa90811561231b578391613aac575b50613a9d576020906139f98430336146a3565b5060008051602061561a83398151915254604051633ea0e43760e11b8152600481019590955260248501919091523360448501528390606490829085906001600160a01b03165af1908115612192578091613a60575b60208263ffffffff60405191168152f35b90506020823d602011613a95575b81613a7b6020938361418c565b810103126103c05750613a8f602091614203565b38613a4f565b3d9150613a6e565b637e0aa9d960e01b8252600482fd5b613ac5915060203d60201161171357611705818361418c565b386139e6565b83613adb6024939560209361418c565b9391506139a7565b6040513d86823e3d90fd5b50346103c057806003193601126103c0576000805160206155da83398151915280546001600160a01b031633036104475780613b2b839254614658565b55807f2a0f8515de3fa34ef68b99300347b8793c01683350743e96fe440594528298f48180a280f35b50346103c05760403660031901126103c05761188a613b71614004565b60243590336145e0565b50346103c057806003193601126103c0575061196c604051613b9e60408261418c565b6011815270098d2e2ead2c840a6e8c2d6cac8408aa89607b1b60208201526040519182916020835260208301906140ab565b50806003193601126103c05760008051602061561a833981519152546001600160a01b0316330361132b5780f35b50346103c057806003193601126103c05750602060008051602061581a83398151915254604051908152f35b50346103c0576101403660031901126103c057613c45614004565b613c4d614030565b90613c56614046565b613c5e61405c565b613c66614072565b9060a435926001600160401b03841695868503610cd05760c4359460e43594610104359860018060801b038a16809a036122b857610124356001600160801b0381169a908b900361346d5760008051602061559a8339815191528054600103613f685760029055613cd68a614d89565b60008051602061561a8339815191528a90556040516001600160a01b038b168082529b907faf890c07e266df31e0725841eb0e85596a0caa1b17bbae5c0b206fdcc92d7ce190602090a160405191613d2d83614124565b82526020820152613d3d90614564565b60405190613d4a82614155565b6001600160401b03851682526001600160401b03861660208301526001600160401b03871660408301526001600160401b03831660608301526080820152613d9190614b6c565b604051948594613da19486614323565b037f25777eb44be046f64180acf8275f0ac2ec51e63a65a5f8a0f2f6d86ba25b74cf91a1604051613dd181614124565b828152816020820152613de390614834565b604051918252602082015260407f5ab79ffcd89b6380c7fbdd89d02cfe3d9c53c99a85e150c2319075018d1aac5c91a1613e1b614214565b7fd7f2d45e512a86049f7a113657b39731b6b558609584243063a52cd31a8eb5285481527ffedfd2c285a57fb23bf45a3fe9ac02d36a76ebb72801b1c8aaf553d74e9d46525460208201528360408201528360608201528360808201527f0f1e7733641e4d843128fea0d2ec90d3d06a40b0fe244ff603d8c1aa200dc0f85463ffffffff1660a08201528360c08201528360e0820152613eba90614e5e565b613ec330614d89565b613ecc90614d89565b3080835260008051602061575a8339815191526020908152604080852084865282528085206000199081905590519081527f8c5be1e5ebec7d5bd14f71427d1e84f3dd0314c0f7b2291e5b200ac8c7c3b9259190a360405160018152602081016040905236604082015236826060830137813682016060015280601f1936601f01168101036060016000805160206155ba83398151915291a180f35b54631cfd276760e31b8d52600160045260245260448cfd5b50346103c05760203660031901126103c057613f9a614004565b6000805160206157da833981519152546001600160a01b0316330361044757613fc281614d89565b60008051602061587a8339815191528190556001600160a01b03167f67b26a33f305cc027b2d45b2f6f418793afcd3e22f7376afa7be068ce18604e88280a280f35b600435906001600160a01b0382168203610c9257565b602435906001600160a01b0382168203610c9257565b602435906001600160401b0382168203610c9257565b604435906001600160401b0382168203610c9257565b606435906001600160401b0382168203610c9257565b608435906001600160401b0382168203610c9257565b60005b83811061409b5750506000910152565b818101518382015260200161408b565b906020916140c481518092818552858086019101614088565b601f01601f1916010190565b34610c92576000366003190112610c925760206040516801bc16d674ec8000008152f35b9181601f84011215610c92578235916001600160401b038311610c92576020808501948460051b010111610c9257565b604081019081106001600160401b0382111761413f57604052565b634e487b7160e01b600052604160045260246000fd5b60a081019081106001600160401b0382111761413f57604052565b61010081019081106001600160401b0382111761413f57604052565b90601f801991011681019081106001600160401b0382111761413f57604052565b6001600160401b03811161413f57601f01601f191660200190565b919082018092116141d557565b634e487b7160e01b600052601160045260246000fd5b90816020910312610c9257518015158103610c925790565b519063ffffffff82168203610c9257565b6040519061422182614170565b600060e0838281528260208201528260408201528260608201528260808201528260a08201528260c08201520152565b6040519061425e82614155565b60006080838281528260208201528260408201528260608201520152565b8115614286570690565b634e487b7160e01b600052601260045260246000fd5b919082039182116141d557565b6001600160401b03811161413f5760051b60200190565b359063ffffffff82168203610c9257565b9160209082815201919060005b8181106142eb5750505090565b90919260208060019263ffffffff614302886142c0565b1681520194019291016142de565b818102929181159184041417156141d557565b6001600160401b03918216815291811660208301529182166040820152918116606083015291909116608082015260a00190565b61436081614d89565b60008051602061563a8339815191528190556001600160a01b03167fd3b5d1e0ffaeff528910f3663f0adace7694ab8241d58e17a91351ced2e08031600080a2565b8115614286570490565b80518210156143c05760209160051b010190565b634e487b7160e01b600052603260045260246000fd5b604051906143e382614124565b60006020838281520152565b60ff6000805160206157fa8339815191525460281c1661452857600034156145195761442e610a7e60008051602061581a8339815191523490546141c8565b61443a346115c9614740565b6000805160206155fa8339815191525481158015614511575b156144f557505061446434336154b9565b60008051602061585a833981519152546001600160a01b0316803b15612344578160449160405192838092632d20488160e11b8252336004830152600160248301525afa801561172f576144e5575b505060405134815233907f3bc57f469ad6d10d7723ea226cd22bd2b9e527def2b529f6ab44645a1668958260203392a3565b816144ef9161418c565b386144b3565b61450c916117476145069234614310565b336154b9565b614464565b508015614453565b6395b66fe960e01b8152600490fd5b63431af7d160e01b60005260046000fd5b3563ffffffff81168103610c925790565b358015158103610c925790565b35908115158203610c9257565b80516020918201516001600160801b039182166001600160801b0319608083901b1681177fc305db9f63aeed94a45229ff5ab4174e72b223a38ab4c5e8f518ee4f437918d0556040805191825292909116928101929092527e4180017d3dd609da6980999655a6bd2591e313d31d6230b1889c369a9713a091a1565b919060207f8c5be1e5ebec7d5bd14f71427d1e84f3dd0314c0f7b2291e5b200ac8c7c3b9259161460f85614d89565b61461881614d89565b6001600160a01b03948516600081815260008051602061575a833981519152845260408082209390971680825292845286902085905594519384529392a3565b61466181614d89565b6000805160206157da8339815191528190556001600160a01b03167f5a272403b402d892977df56625f4164ccaf70ca3863991c43ecfe76a6905b0a1600080a2565b9190602060008051602061577a833981519152916000805160206158ba83398151915260018060a01b0386166000528083526146e48560406000205461429c565b6001600160a01b038781166000908152838652604080822093909355908416815282855220546147159086906141c8565b6001600160a01b039283166000818152928552604092839020919091559051948552941692a3600190565b6000805160206157fa8339815191525460008051602061571a833981519152549063ffffffff1681811015614803576147d4906147ce6147b86147a260008051602061557a8339815191525460008051602061581a83398151915254906141c8565b60008051602061583a83398151915254906141c8565b6000805160206156fa83398151915254906141c8565b9261429c565b6801bc16d674ec8000008102908082046801bc16d674ec80000014901517156141d557614800916141c8565b90565b50506148006147b86147a260008051602061557a8339815191525460008051602061581a83398151915254906141c8565b80517ff81b149de6749a3f46464b2cce61e24462f67599ea4a5ce028aaf4ab1521f96d55602001517ff81b149de6749a3f46464b2cce61e24462f67599ea4a5ce028aaf4ab1521f96e55565b60008051602061585a8339815191525460405163e838dfbb60e01b81526001600160a01b0392831660048201819052919092169291602081602481875afa90811561494957600091614955575b50614916575060405163e838dfbb60e01b81526001600160a01b039091166004820181905291602090829060249082905afa9081156149495760009161492a575b506149165750565b63e7d05e2760e01b60005260045260246000fd5b614943915060203d60201161171357611705818361418c565b3861490e565b6040513d6000823e3d90fd5b61496e915060203d60201161171357611705818361418c565b386148cd565b612710811161498f576000805160206157ba83398151915255565b6358d620b360e01b60005260046000fd5b6149a8614251565b506040517fd84ee2c84c954c65bef1459fe03b761a42f49234527e3cd8fd9dce87cb83742a6149d682614155565b546001600160401b03811682526001600160401b038160401c1660208301526001600160401b038160801c16604083015260c01c60608201526001600160401b037fd84ee2c84c954c65bef1459fe03b761a42f49234527e3cd8fd9dce87cb83742b5416608082015290565b6000805160206155fa833981519152548015614a6d5761174761480092614a67614740565b90614310565b5050600090565b614800906001600160401b036020614aa2614a95836060860151164261429c565b83604086015116906143a2565b92015116906143a2565b60008051602061583a8339815191527f86fd21e9b5bd76b20471c7f93a82aa4e25c37d48b179bda0a4d1a45e22a842f4604082548151908152846020820152a155565b60008051602061581a8339815191527f48f67c1dada0cab2163f6282292ad97ea97376cfed46bb3851654aaa630db727604082548151908152846020820152a155565b90600182811c92168015614b62575b6020831014614b4c57565b634e487b7160e01b600052602260045260246000fd5b91607f1691614b41565b8051602082015160408084015160608501519290911b67ffffffffffffffff60401b166001600160401b0393841617608091821b67ffffffffffffffff60801b161760c09290921b6001600160c01b031916919091177fd84ee2c84c954c65bef1459fe03b761a42f49234527e3cd8fd9dce87cb83742a5591909101517fd84ee2c84c954c65bef1459fe03b761a42f49234527e3cd8fd9dce87cb83742b805467ffffffffffffffff191691909216179055565b614c28614740565b8015614a6d57611747614800926000805160206155fa8339815191525490614310565b81601f82011215610c9257805190614c62826142a9565b92614c70604051948561418c565b82845260208085019360051b83010191818311610c925760208101935b838510614c9c57505050505090565b84516001600160401b038111610c925782019083603f83011215610c9257602082015190614cc9826141ad565b614cd6604051918261418c565b8281526040848401018610610c9257614cfa60209493859460408685019101614088565b815201940193614c8d565b9190604051926020840152604083015260408252614d2460608361418c565b565b614d2e6143d6565b506040517ff81b149de6749a3f46464b2cce61e24462f67599ea4a5ce028aaf4ab1521f96d614d5c82614124565b5481527ff81b149de6749a3f46464b2cce61e24462f67599ea4a5ce028aaf4ab1521f96e54602082015290565b6001600160a01b031615614d9957565b63f6b2911f60e01b60005260046000fd5b614db26143d6565b506040517fc305db9f63aeed94a45229ff5ab4174e72b223a38ab4c5e8f518ee4f437918d0614de082614124565b546001600160801b038116825260801c602082015290565b90614e0282614a74565b614e196001600160401b03608085015116836141c8565b11159182614e45575b82614e2c57505090565b51614e4192506001600160401b03169061427c565b1590565b60008051602061569a8339815191525482119250614e22565b60008051602061569a83398151915281519055602081015160008051602061557a83398151915255604081015160008051602061565a8339815191525560608101516000805160206156da8339815191525560808101517fdbc0527c99b54cd325d6ce9eaae3a8413cd447b5205f37385f0ebc6551033c705563ffffffff60a082015116906000805160206157fa833981519152549165ff000000000060e064ff0000000060c0850151151560201b16930151151560281b169265ffffffffffff19161717176000805160206157fa83398151915255565b60008051602061587a83398151915254600091906001600160a01b03168015615005574791813b15610c1b578391602483926040519485938492638ede6b6b60e01b845260048401525af1801561231b57614fef575b50614f97904761429c565b9081614fcc575b507fd500b67e5bd8019c0af744cadeec120d1b5e3d3a3a011f18cf182aa4c97947b66020604051838152a190565b50614fe9610a7e8260008051602061581a833981519152546141c8565b38614f9e565b91614ffe81614f97939461418c565b9190614f8c565b505090565b60008051602061589a83398151915260009460018060a01b038254169360008051602061571a83398151915294855491813b1561123157918891604051938492632d01785d60e21b845260448401604060048601528251809152602060648601930190865b81811061536c575050508380928692602483015203925af18015610c9f57615358575b506150ac576000805160206155fa833981519152546150b3575b5050505050565b6000805160206156fa8339815191525460008051602061581a8339815191525460008051602061561a833981519152546040516303634a9560e21b815292939290602090829060049082906001600160a01b03165afa8015611226578890615324575b6151209150614a42565b958661512c86866141c8565b1061513a575b5050506150ac565b8061531b575b6152ce575b505460408051634a3c63bb60e01b81526001600160a01b0390921695919081600481895afa908115610c9f5787908892615288575b5063ffffffff168082111561527f576151929161429c565b925b6801bc16d674ec8000008402938085046801bc16d674ec800000149015171561526b57816151cb856151c684876141c8565b6141c8565b106151d7575b80615132565b61520b936151c66110e9926151eb956141c8565b6801bc16d674ec8000008082049106156152635760ff60015b16906141c8565b905490823b15610c1b579060448492836040519586948593632d1fc39d60e01b8552600485015260248401525af1801561172f5761524e575b80808080806151d1565b61525982809261418c565b6103c05780615244565b60ff85615204565b634e487b7160e01b87526011600452602487fd5b50508592615194565b9150506040813d6040116152c6575b816152a46040938361418c565b81010312610c2a5763ffffffff60206152bc83614203565b920151919061517a565b3d9150615297565b6152dc836115c9868961429c565b80821115615314575b806152f1575b50615145565b80615303610a7e9261530d94966141c8565b946115c986615476565b38806152eb565b50806152e5565b50801515615140565b506020813d602011615350575b8161533e6020938361418c565b81010312610c92576151209051615116565b3d9150615331565b866153659197929761418c565b9438615092565b825163ffffffff1685528e97508896506020948501949092019160010161506f565b9061547357620151806153f46153a2614740565b9260008051602061581a83398151915254936127106153e46153c2614daa565b80516020909101516001600160801b0391821694911690614a6790899061429c565b04908181101561546c5750614310565b048181111561545c57506801bc16d674ec800000815b04906801bc16d674ec8000008202918083046801bc16d674ec80000014901517156141d55781615438575050565b614d2491610a7e916115c9611d938360008051602061583a833981519152546141c8565b6801bc16d674ec8000009061540a565b9050614310565b50565b6000805160206156fa8339815191527f215c2b83e8c232e42091088056ab75d2ff643855c32997024f786cddb22d2290604082548151908152846020820152a155565b60008051602061577a83398151915260206000926154e9610b68866000805160206155fa833981519152546141c8565b6001600160a01b03811684526000805160206158ba83398151915280835260408520546155179087906141c8565b6001600160a01b0392909216808652908352604080862092909255905194855293a3565b60207fc80ea35a3f9016535e5b7c87746740c5045afe42188d02c5786eb97495c2f42991806000805160206155fa83398151915255604051908152a156fedbc0527c99b54cd325d6ce9eaae3a8413cd447b5205f37385f0ebc6551033c6d82055909238c0f5e63d6f174068ebb8f51bcec9bd37de63bb68f6551feec0cfc1809e49bba43f2d39fa57894b50cd6ccb428cc438230e065cac3eb24a1355a716e6ab8b7c7aaba79eef8cc633522d606bb008c101cf9832c9ad05d10a98472806b842b424335d94ccad97e54548dfa02673c1268aba38d3c3c32d28c8988b70ae458cbedf69109e7d57b7f8c96816615aac0017187d87abab9001d22db32bae3c8cbea9407c380ae944f052b5a442330057683c5abdbd453493f9750806afecadbc0527c99b54cd325d6ce9eaae3a8413cd447b5205f37385f0ebc6551033c6eb649e50315f962b32d487e696a81b4828631b11f8424daaaa37e9e97766a2c41dbc0527c99b54cd325d6ce9eaae3a8413cd447b5205f37385f0ebc6551033c6c8e9e2a1d30fed357d8a000c1131fc77ed65d2052918caf1ccc6eb1e7af3d13b5dbc0527c99b54cd325d6ce9eaae3a8413cd447b5205f37385f0ebc6551033c6f850308dd4e453a2a1bc3efb444560401d95c1a8bdea5b35c5c79531cd2241f1cc77078e3530c08cdb2440817c81de4836500b4708ea4d15672b7fe98956423a7082b6d18de7b10e438e6b1002141db737519cb4ceed679bc815e3aac00cd2226c852254d5b703a16bb13b3e233a335d6459c5da5db0ca732d7a684ee05407846ddf252ad1be2c89b69c2b068fc378daa952ba7f163c4a11628f55a4df523b3ef196d9102c3340d5a65e2b9be034bbfee2b1e2fa95880c2e72d47ee926be36321094efef62d2ce60c14ffacd35a1b50546d3a9d503aff1df040176fffd6c92a36b5b37715a3e346e996104f0086703f19825def429233930fd9399c38e05fb112dbc0527c99b54cd325d6ce9eaae3a8413cd447b5205f37385f0ebc6551033c712b6136e423ab70d76431e2a635e877e16ea2dd9a895e054ad7f35f89d6c7b710bcfa5a69252c74010ad3e9ab18cfbdc116fcf85f084db1a8dc577a339fbee58a867d8f1a5e39d11d5bebde854d5359a509530ad32450f581da63c06ec8d1a77ff4271262f3552a4108cde54dc75061de8de495709221d793b126e448522d6a7f3f075dea7ef99b1e5db245018e5e4ed8d2a0d93953f5932b2176bef59bd690600fb4a5ac9287f4f508aa7253ee2d57c6a228b1b30e210d73fffd59389d3a8837a2646970667358221220e80a268522f880b836c2eaaf190a4ed69f7dcfc99232a0605c3f9a1973b5c6c064736f6c63430008220033",
  "devdoc": {
    "author": "Alluvial Finance Inc.",
    "errors": {
      "AllowanceTooLow(address,address,uint256,uint256)": [
        {
          "params": {
            "_allowance": "Current allowance",
            "_from": "Account where funds are sent from",
            "_operator": "Account attempting the transfer",
            "_value": "Requested transfer value in shares"
          }
        }
      ],
      "Denied(address)": [
        {
          "params": {
            "account": "The account that was denied"
          }
        }
      ],
      "InvalidDecreasingValidatorsExitedBalance(uint256,uint256)": [
        {
          "params": {
            "currentValidatorsExitedBalance": "The current exited balance",
            "newValidatorsExitedBalance": "The new exited balance"
          }
        }
      ],
      "InvalidDecreasingValidatorsSkimmedBalance(uint256,uint256)": [
        {
          "params": {
            "currentValidatorsSkimmedBalance": "The current exited balance",
            "newValidatorsSkimmedBalance": "The new exited balance"
          }
        }
      ],
      "InvalidEpoch(uint256)": [
        {
          "params": {
            "epoch": "Invalid epoch"
          }
        }
      ],
      "InvalidInitialization(uint256,uint256)": [
        {
          "params": {
            "expectedVersion": "The version that was expected",
            "version": "The version that was attempting to be initialized"
          }
        }
      ],
      "InvalidPulledClFundsAmount(uint256,uint256)": [
        {
          "params": {
            "received": "The amount that was received",
            "requested": "The amount that was requested"
          }
        }
      ],
      "InvalidValidatorCountReport(uint256,uint256,uint256)": [
        {
          "params": {
            "depositedValidatorCount": "The number of deposits performed by the system",
            "lastReportedValidatorCount": "The last reported validator count",
            "providedValidatorCount": "The received validator count value"
          }
        }
      ],
      "TotalValidatorBalanceDecreaseOutOfBound(uint256,uint256,uint256,uint256)": [
        {
          "params": {
            "postTotalEthIncludingExited": "The post-report total balance, including all exited balance",
            "prevTotalEthIncludingExited": "The previous total balance, including all exited balance",
            "relativeLowerBound": "The lower bound value that was used",
            "timeElapsed": "The time in seconds since last report"
          }
        }
      ],
      "TotalValidatorBalanceIncreaseOutOfBound(uint256,uint256,uint256,uint256)": [
        {
          "params": {
            "annualAprUpperBound": "The upper bound value that was used",
            "postTotalEthIncludingExited": "The post-report total balance, including all exited balance",
            "prevTotalEthIncludingExited": "The previous total balance, including all exited balance",
            "timeElapsed": "The time in seconds since last report"
          }
        }
      ],
      "Unauthorized(address)": [
        {
          "params": {
            "caller": "Address performing the call"
          }
        }
      ],
      "UnauthorizedTransfer(address,address)": [
        {
          "params": {
            "_from": "Account sending the funds in the invalid transfer",
            "_to": "Account receiving the funds in the invalid transfer"
          }
        }
      ]
    },
    "events": {
      "Approval(address,address,uint256)": {
        "details": "Emitted when the allowance of a `spender` for an `owner` is set by a call to {approve}. `value` is the new allowance."
      },
      "ConsensusLayerDataUpdate(uint256,uint256,bytes32)": {
        "params": {
          "roundId": "Round identifier",
          "validatorCount": "The new count of validators running on the consensus layer",
          "validatorTotalBalance": "The new total balance sum of all validators"
        }
      },
      "Initialize(uint256,bytes)": {
        "params": {
          "cdata": "Complete calldata that was used during the initialization",
          "version": "New version of the contracts"
        }
      },
      "ProcessedConsensusLayerReport((uint256,uint256,uint256,uint256,uint256,uint32,uint32[],bool,bool),(uint256,uint256,uint256,uint256))": {
        "params": {
          "report": "The report that was provided",
          "trace": "The trace structure providing more insights on internals"
        }
      },
      "PulledCLFunds(uint256,uint256)": {
        "params": {
          "pullExitedEthAmount": "The amount of exited ETH pulled",
          "pulledSkimmedEthAmount": "The amount of skimmed ETH pulled"
        }
      },
      "PulledCoverageFunds(uint256)": {
        "params": {
          "amount": "The amount pulled"
        }
      },
      "PulledELFees(uint256)": {
        "params": {
          "amount": "The amount pulled"
        }
      },
      "PulledRedeemManagerExceedingEth(uint256)": {
        "params": {
          "amount": "The amount pulled"
        }
      },
      "ReportedRedeemManager(uint256,uint256,uint256)": {
        "params": {
          "redeemManagerDemand": "The total demand in LsETH of the redeem manager",
          "suppliedRedeemManagerDemand": "The amount of LsETH demand actually supplied",
          "suppliedRedeemManagerDemandInEth": "The amount in ETH of the supplied demand"
        }
      },
      "RewardsEarned(address,uint256,uint256,uint256,uint256)": {
        "params": {
          "_collector": "The address of the collector during this event",
          "_newTotalSupply": "New total supply in shares",
          "_newTotalUnderlyingBalance": "New total ETH balance under management by River",
          "_oldTotalSupply": "Old total supply in shares",
          "_oldTotalUnderlyingBalance": "Old total ETH balance under management by River"
        }
      },
      "SetAdmin(address)": {
        "params": {
          "admin": "New admin address"
        }
      },
      "SetAllowlist(address)": {
        "params": {
          "allowlist": "The new Allowlist"
        }
      },
      "SetBalanceCommittedToDeposit(uint256,uint256)": {
        "params": {
          "newAmount": "The new balance committed to deposit",
          "oldAmount": "The old balance committed to deposit"
        }
      },
      "SetBalanceToDeposit(uint256,uint256)": {
        "params": {
          "newAmount": "The new balance to deposit",
          "oldAmount": "The old balance to deposit"
        }
      },
      "SetBalanceToRedeem(uint256,uint256)": {
        "params": {
          "newAmount": "The new balance to redeem",
          "oldAmount": "The old balance to redeem"
        }
      },
      "SetBounds(uint256,uint256)": {
        "params": {
          "annualAprUpperBound": "The reporting upper bound",
          "relativeLowerBound": "The reporting lower bound"
        }
      },
      "SetCollector(address)": {
        "params": {
          "collector": "The new Collector"
        }
      },
      "SetCoverageFund(address)": {
        "params": {
          "coverageFund": "The new Coverage Fund"
        }
      },
      "SetDepositContractAddress(address)": {
        "params": {
          "depositContract": "Address of the deposit contract"
        }
      },
      "SetDepositedValidatorCount(uint256,uint256)": {
        "params": {
          "newDepositedValidatorCount": "The new deposited validator count value",
          "oldDepositedValidatorCount": "The old deposited validator count value"
        }
      },
      "SetELFeeRecipient(address)": {
        "params": {
          "elFeeRecipient": "The new Execution Layer Fee Recipient"
        }
      },
      "SetGlobalFee(uint256)": {
        "params": {
          "fee": "The new Global Fee"
        }
      },
      "SetKeeper(address)": {
        "params": {
          "keeper": "The new keeper address"
        }
      },
      "SetMaxDailyCommittableAmounts(uint256,uint256)": {
        "params": {
          "maxRelativeAmount": "The maximum amount that can be used as the daily committable amount, relative to the total underlying supply",
          "minNetAmount": "The minimum amount that must be used as the daily committable amount"
        }
      },
      "SetMetadataURI(string)": {
        "params": {
          "metadataURI": "The new Metadata URI string"
        }
      },
      "SetOperatorsRegistry(address)": {
        "params": {
          "operatorRegistry": "The new Operators Registry"
        }
      },
      "SetOracle(address)": {
        "params": {
          "oracleAddress": "The new oracle address"
        }
      },
      "SetPendingAdmin(address)": {
        "params": {
          "pendingAdmin": "New pending admin address"
        }
      },
      "SetRedeemManager(address)": {
        "params": {
          "redeemManager": "The address of the redeem manager"
        }
      },
      "SetSpec(uint64,uint64,uint64,uint64,uint64)": {
        "params": {
          "epochsPerFrame": "The number of epochs inside a frame",
          "epochsToAssumedFinality": "The number of epochs before an epoch is considered final",
          "genesisTime": "The genesis timestamp",
          "secondsPerSlot": "The number of seconds inside a slot",
          "slotsPerEpoch": "The number of slots inside an epoch"
        }
      },
      "SetWithdrawalCredentials(bytes32)": {
        "params": {
          "withdrawalCredentials": "The withdrawal credentials to use for deposits"
        }
      },
      "Transfer(address,address,uint256)": {
        "details": "Emitted when `value` tokens are moved from one account (`from`) to another (`to`). Note that `value` may be zero."
      },
      "UserDeposit(address,address,uint256)": {
        "params": {
          "amount": "Amount in ETH deposited",
          "depositor": "Address performing the deposit",
          "recipient": "Address receiving the minted shares"
        }
      }
    },
    "kind": "dev",
    "methods": {
      "acceptAdmin()": {
        "details": "Only callable by the pending admin. Resets the pending admin if succesful."
      },
      "allowance(address,address)": {
        "params": {
          "_owner": "Address that issued the allowance",
          "_spender": "Address that received the allowance"
        },
        "returns": {
          "_0": "The allowance in shares for a given spender"
        }
      },
      "approve(address,uint256)": {
        "details": "An approved account can use transferFrom to transfer funds on behalf of the token owner",
        "params": {
          "_spender": "Address that is allowed to spend the tokens",
          "_value": "The allowed amount in shares, will override previous value"
        },
        "returns": {
          "_0": "True if success"
        }
      },
      "balanceOf(address)": {
        "params": {
          "_owner": "Address to be checked"
        },
        "returns": {
          "_0": "The balance of the account in shares"
        }
      },
      "balanceOfUnderlying(address)": {
        "params": {
          "_owner": "Address to be checked"
        },
        "returns": {
          "_0": "The underlying balance of the account"
        }
      },
      "claimRedeemRequests(uint32[],uint32[])": {
        "params": {
          "_redeemRequestIds": "The list of redeem requests to claim",
          "_withdrawalEventIds": "The list of resolved withdrawal event ids"
        },
        "returns": {
          "claimStatuses": "The operation status results"
        }
      },
      "decimals()": {
        "returns": {
          "_0": "The decimal count"
        }
      },
      "decreaseAllowance(address,uint256)": {
        "params": {
          "_spender": "Spender that receives the allowance",
          "_subtractableValue": "Amount of shares to subtract"
        },
        "returns": {
          "_0": "True if success"
        }
      },
      "depositAndTransfer(address)": {
        "params": {
          "_recipient": "Address receiving the minted LsETH"
        }
      },
      "depositToConsensusLayerWithDepositRoot((uint256,uint256)[],bytes32)": {
        "params": {
          "_allocations": "The operator allocations specifying how many validators per operator",
          "_depositRoot": "The root of the deposit tree"
        }
      },
      "getAdmin()": {
        "returns": {
          "_0": "The admin address"
        }
      },
      "getAllowlist()": {
        "returns": {
          "_0": "The allowlist address"
        }
      },
      "getBalanceToDeposit()": {
        "returns": {
          "_0": "The amount of ETH not yet committed for deposit"
        }
      },
      "getBalanceToRedeem()": {
        "returns": {
          "_0": "The current balance to redeem"
        }
      },
      "getCLSpec()": {
        "returns": {
          "_0": "The Consensus Layer Specification"
        }
      },
      "getCLValidatorCount()": {
        "returns": {
          "_0": "The CL validator count"
        }
      },
      "getCLValidatorTotalBalance()": {
        "returns": {
          "_0": "The CL Validator total balance"
        }
      },
      "getCollector()": {
        "returns": {
          "_0": "The collector address"
        }
      },
      "getCommittedBalance()": {
        "returns": {
          "_0": "The amount of ETH committed for deposit"
        }
      },
      "getCoverageFund()": {
        "returns": {
          "_0": "The coverage fund address"
        }
      },
      "getCurrentEpochId()": {
        "returns": {
          "_0": "The current epoch id"
        }
      },
      "getCurrentFrame()": {
        "returns": {
          "_endTime": "The timestamp of the end of the frame in seconds",
          "_startEpochId": "The epoch at the beginning of the frame",
          "_startTime": "The timestamp of the beginning of the frame in seconds"
        }
      },
      "getDailyCommittableLimits()": {
        "returns": {
          "_0": "The daily committable limits structure"
        }
      },
      "getDepositedValidatorCount()": {
        "returns": {
          "_0": "The deposited validator count"
        }
      },
      "getELFeeRecipient()": {
        "returns": {
          "_0": "The execution layer fee recipient address"
        }
      },
      "getExpectedEpochId()": {
        "returns": {
          "_0": "The current expected epoch id"
        }
      },
      "getFrameFirstEpochId(uint256)": {
        "params": {
          "_epochId": "Epoch id used to get the frame"
        },
        "returns": {
          "_0": "The first epoch id of the frame containing the given epoch id"
        }
      },
      "getGlobalFee()": {
        "returns": {
          "_0": "The global fee"
        }
      },
      "getKeeper()": {
        "returns": {
          "_0": "The keeper address"
        }
      },
      "getLastCompletedEpochId()": {
        "returns": {
          "_0": "The last completed epoch id"
        }
      },
      "getLastConsensusLayerReport()": {
        "returns": {
          "_0": "The stored consensus layer report"
        }
      },
      "getMetadataURI()": {
        "returns": {
          "_0": "The metadata uri string value"
        }
      },
      "getOperatorsRegistry()": {
        "returns": {
          "_0": "The operators registry address"
        }
      },
      "getOracle()": {
        "returns": {
          "_0": "The oracle address"
        }
      },
      "getPendingAdmin()": {
        "returns": {
          "_0": "The pending admin address"
        }
      },
      "getRedeemManager()": {
        "returns": {
          "_0": "The redeem manager address"
        }
      },
      "getReportBounds()": {
        "returns": {
          "_0": "The report bounds"
        }
      },
      "getSlashingContainmentMode()": {
        "returns": {
          "_0": "True if slashing containment mode is active"
        }
      },
      "getTime()": {
        "returns": {
          "_0": "The current timestamp from the EVM context"
        }
      },
      "getWithdrawalCredentials()": {
        "returns": {
          "_0": "The withdrawal credentials"
        }
      },
      "increaseAllowance(address,uint256)": {
        "params": {
          "_additionalValue": "Amount of shares to add",
          "_spender": "Spender that receives the allowance"
        },
        "returns": {
          "_0": "True if success"
        }
      },
      "initRiverV1(address,address,bytes32,address,address,address,address,address,uint256)": {
        "params": {
          "_allowlistAddress": "Address of the allowlist contract",
          "_collectorAddress": "Address receiving the the global fee on revenue",
          "_depositContractAddress": "Address to make Consensus Layer deposits",
          "_elFeeRecipientAddress": "Address that receives the execution layer fees",
          "_globalFee": "Amount retained when the ETH balance increases and sent to the collector",
          "_operatorRegistryAddress": "Address of the operator registry",
          "_oracleAddress": "The address of the Oracle contract",
          "_systemAdministratorAddress": "Administrator address",
          "_withdrawalCredentials": "Credentials to use for every validator deposit"
        }
      },
      "initRiverV1_1(address,uint64,uint64,uint64,uint64,uint64,uint256,uint256,uint128,uint128)": {
        "params": {
          "_annualAprUpperBound": "The reporting upper bound",
          "_epochsPerFrame": "The amounts of epochs in a frame",
          "_epochsToAssumedFinality": "The number of epochs before an epoch is considered final on-chain",
          "_genesisTime": "The genesis timestamp",
          "_maxDailyNetCommittableAmount_": "The net daily committable limit",
          "_maxDailyRelativeCommittableAmount_": "The relative daily committable limit",
          "_redeemManager": "The redeem manager address",
          "_relativeLowerBound": "The reporting lower bound",
          "_secondsPerSlot": "The seconds inside a slot",
          "_slotsPerEpoch": "The slots inside an epoch"
        }
      },
      "isValidEpoch(uint256)": {
        "params": {
          "epoch": "The epoch to lookup"
        },
        "returns": {
          "_0": "True if valid"
        }
      },
      "name()": {
        "returns": {
          "_0": "The token name"
        }
      },
      "proposeAdmin(address)": {
        "details": "This security prevents setting an invalid address as an admin. The pendingadmin has to claim its ownership of the contract, and prove that the newaddress is able to perform regular transactions.",
        "params": {
          "_newAdmin": "New admin address"
        }
      },
      "requestRedeem(uint256,address)": {
        "params": {
          "_lsETHAmount": "The amount of LsETH to redeem",
          "_recipient": "The address that will own the redeem request"
        },
        "returns": {
          "_redeemRequestId": "The ID of the newly created redeem request"
        }
      },
      "resolveRedeemRequests(uint32[])": {
        "params": {
          "_redeemRequestIds": "The list of redeem requests to resolve"
        },
        "returns": {
          "withdrawalEventIds": "The list of matching withdrawal events, or error codes"
        }
      },
      "setAllowlist(address)": {
        "params": {
          "_newAllowlist": "New address for the allowlist"
        }
      },
      "setCLSpec((uint64,uint64,uint64,uint64,uint64))": {
        "params": {
          "_newValue": "The new consensus layer spec value"
        }
      },
      "setCollector(address)": {
        "params": {
          "_newCollector": "New address for the collector"
        }
      },
      "setConsensusLayerData((uint256,uint256,uint256,uint256,uint256,uint32,uint32[],bool,bool))": {
        "params": {
          "_report": "The consensus layer report structure"
        }
      },
      "setCoverageFund(address)": {
        "params": {
          "_newCoverageFund": "New address for the fund"
        }
      },
      "setDailyCommittableLimits((uint128,uint128))": {
        "params": {
          "_dcl": "The Daily Committable Limits structure"
        }
      },
      "setELFeeRecipient(address)": {
        "params": {
          "_newELFeeRecipient": "New address for the recipient"
        }
      },
      "setGlobalFee(uint256)": {
        "params": {
          "_newFee": "New fee value"
        }
      },
      "setKeeper(address)": {
        "params": {
          "_keeper": "New address for the keeper"
        }
      },
      "setMetadataURI(string)": {
        "params": {
          "_metadataURI": "The new metadata uri string value"
        }
      },
      "setOracle(address)": {
        "params": {
          "_oracleAddress": "Address of the oracle"
        }
      },
      "setReportBounds((uint256,uint256))": {
        "params": {
          "_newValue": "The new report bounds value"
        }
      },
      "sharesFromUnderlyingBalance(uint256)": {
        "params": {
          "_underlyingAssetAmount": "Amount of underlying asset to convert"
        },
        "returns": {
          "_0": "The amount of shares worth the underlying asset amopunt"
        }
      },
      "symbol()": {
        "returns": {
          "_0": "The token symbol"
        }
      },
      "totalSupply()": {
        "returns": {
          "_0": "The total supply in shares"
        }
      },
      "totalUnderlyingSupply()": {
        "returns": {
          "_0": "The total underlying asset supply"
        }
      },
      "transfer(address,uint256)": {
        "params": {
          "_to": "Address receiving the tokens",
          "_value": "Amount of shares to be sent"
        },
        "returns": {
          "_0": "True if success"
        }
      },
      "transferFrom(address,address,uint256)": {
        "params": {
          "_from": "Address sending the tokens",
          "_to": "Address receiving the tokens",
          "_value": "Amount of shares to be sent"
        },
        "returns": {
          "_0": "True if success"
        }
      },
      "underlyingBalanceFromShares(uint256)": {
        "params": {
          "_shares": "Amount of shares to convert"
        },
        "returns": {
          "_0": "The underlying asset balance represented by the shares"
        }
      },
      "version()": {
        "returns": {
          "_0": "Version of the contract"
        }
      }
    },
    "title": "River (v1)",
    "version": 1
  },
  "userdoc": {
    "errors": {
      "AllowanceTooLow(address,address,uint256,uint256)": [
        {
          "notice": "Allowance too low to perform operation"
        }
      ],
      "BalanceTooLow()": [
        {
          "notice": "Balance too low to perform operation"
        }
      ],
      "Denied(address)": [
        {
          "notice": "The access was denied"
        }
      ],
      "EmptyDeposit()": [
        {
          "notice": "And empty deposit attempt was made"
        }
      ],
      "ErrorOnDeposit()": [
        {
          "notice": "An error occured during the deposit"
        }
      ],
      "InconsistentPublicKeys()": [
        {
          "notice": "The length of the BLS Public key is invalid during deposit"
        }
      ],
      "InconsistentSignatures()": [
        {
          "notice": "The length of the BLS Signature is invalid during deposit"
        }
      ],
      "InvalidArgument()": [
        {
          "notice": "The argument was invalid"
        }
      ],
      "InvalidCall()": [
        {
          "notice": "The call was invalid"
        }
      ],
      "InvalidDecreasingValidatorsExitedBalance(uint256,uint256)": [
        {
          "notice": "The total exited balance decreased"
        }
      ],
      "InvalidDecreasingValidatorsSkimmedBalance(uint256,uint256)": [
        {
          "notice": "The total skimmed balance decreased"
        }
      ],
      "InvalidDepositRoot()": [
        {
          "notice": "Invalid deposit root"
        }
      ],
      "InvalidEmptyString()": [
        {
          "notice": "The string is empty"
        }
      ],
      "InvalidEpoch(uint256)": [
        {
          "notice": "Thrown when an invalid epoch was reported"
        }
      ],
      "InvalidFee()": [
        {
          "notice": "The fee is invalid"
        }
      ],
      "InvalidInitialization(uint256,uint256)": [
        {
          "notice": "An error occured during the initialization"
        }
      ],
      "InvalidPublicKeyCount()": [
        {
          "notice": "The received count of public keys to deposit is invalid"
        }
      ],
      "InvalidPulledClFundsAmount(uint256,uint256)": [
        {
          "notice": "Thrown when the amount received from the Withdraw contract doe not match the requested amount"
        }
      ],
      "InvalidValidatorCountReport(uint256,uint256,uint256)": [
        {
          "notice": "The reported validator count is invalid"
        }
      ],
      "InvalidWithdrawalCredentials()": [
        {
          "notice": "The withdrawal credentials value is null"
        }
      ],
      "InvalidZeroAddress()": [
        {
          "notice": "The address is zero"
        }
      ],
      "NoAvailableValidatorKeys()": [
        {
          "notice": "The internal key retrieval returned no keys"
        }
      ],
      "NotEnoughFunds()": [
        {
          "notice": "Not enough funds to deposit one validator"
        }
      ],
      "NullTransfer()": [
        {
          "notice": "Invalid empty transfer"
        }
      ],
      "OperatorAllocationsExceedCommittedBalance()": [
        {
          "notice": "The operator allocations exceed the committed balance"
        }
      ],
      "RecipientIsDenied()": [
        {
          "notice": "Thrown when the recipient of redeemRequest is denied"
        }
      ],
      "SlashingContainmentModeEnabled()": [
        {
          "notice": "Deposits are blocked while slashing containment mode is active"
        }
      ],
      "SliceOutOfBounds()": [
        {
          "notice": "The slice is outside of the initial bytes bounds"
        }
      ],
      "SliceOverflow()": [
        {
          "notice": "The length overflows an uint"
        }
      ],
      "TotalValidatorBalanceDecreaseOutOfBound(uint256,uint256,uint256,uint256)": [
        {
          "notice": "The balance decrease is higher than the maximum allowed by the lower bound"
        }
      ],
      "TotalValidatorBalanceIncreaseOutOfBound(uint256,uint256,uint256,uint256)": [
        {
          "notice": "The balance increase is higher than the maximum allowed by the upper bound"
        }
      ],
      "Unauthorized(address)": [
        {
          "notice": "The operator is unauthorized for the caller"
        }
      ],
      "UnauthorizedTransfer(address,address)": [
        {
          "notice": "Invalid transfer recipients"
        }
      ],
      "ZeroMintedShares()": [
        {
          "notice": "The computed amount of shares to mint is 0"
        }
      ]
    },
    "events": {
      "ConsensusLayerDataUpdate(uint256,uint256,bytes32)": {
        "notice": "The consensus layer data provided by the oracle has been updated"
      },
      "Initialize(uint256,bytes)": {
        "notice": "Emitted when the contract is properly initialized"
      },
      "ProcessedConsensusLayerReport((uint256,uint256,uint256,uint256,uint256,uint32,uint32[],bool,bool),(uint256,uint256,uint256,uint256))": {
        "notice": "The provided report has beend processed"
      },
      "PulledCLFunds(uint256,uint256)": {
        "notice": "Emitted when funds are pulled from the CL recipient"
      },
      "PulledCoverageFunds(uint256)": {
        "notice": "Funds have been pulled from the Coverage Fund"
      },
      "PulledELFees(uint256)": {
        "notice": "Funds have been pulled from the Execution Layer Fee Recipient"
      },
      "PulledRedeemManagerExceedingEth(uint256)": {
        "notice": "Emitted when funds are pulled from the redeem manager"
      },
      "ReportedRedeemManager(uint256,uint256,uint256)": {
        "notice": "Emitted when the redeem manager received a withdraw event report"
      },
      "RewardsEarned(address,uint256,uint256,uint256,uint256)": {
        "notice": "The system underlying supply increased. This is a snapshot of the balances for accounting purposes"
      },
      "SetAdmin(address)": {
        "notice": "The admin address changed"
      },
      "SetAllowlist(address)": {
        "notice": "The stored Allowlist has been changed"
      },
      "SetBalanceCommittedToDeposit(uint256,uint256)": {
        "notice": "Emitted when the balance committed to deposit"
      },
      "SetBalanceToDeposit(uint256,uint256)": {
        "notice": "Emitted when the balance to deposit is updated"
      },
      "SetBalanceToRedeem(uint256,uint256)": {
        "notice": "Emitted when the balance to redeem is updated"
      },
      "SetBounds(uint256,uint256)": {
        "notice": "The Report Bounds are changed"
      },
      "SetCollector(address)": {
        "notice": "The stored Collector has been changed"
      },
      "SetCoverageFund(address)": {
        "notice": "The stored Coverage Fund has been changed"
      },
      "SetDepositContractAddress(address)": {
        "notice": "The stored deposit contract address changed"
      },
      "SetDepositedValidatorCount(uint256,uint256)": {
        "notice": "Emitted when the deposited validator count is updated"
      },
      "SetELFeeRecipient(address)": {
        "notice": "The stored Execution Layer Fee Recipient has been changed"
      },
      "SetGlobalFee(uint256)": {
        "notice": "The stored Global Fee has been changed"
      },
      "SetKeeper(address)": {
        "notice": "Emitted when the keeper address is updated"
      },
      "SetMaxDailyCommittableAmounts(uint256,uint256)": {
        "notice": "Emitted when the daily committable limits are changed"
      },
      "SetMetadataURI(string)": {
        "notice": "The stored Metadata URI string has been changed"
      },
      "SetOperatorsRegistry(address)": {
        "notice": "The stored Operators Registry has been changed"
      },
      "SetOracle(address)": {
        "notice": "The stored oracle address changed"
      },
      "SetPendingAdmin(address)": {
        "notice": "The pending admin address changed"
      },
      "SetRedeemManager(address)": {
        "notice": "Emitted when the redeem manager address is changed"
      },
      "SetSpec(uint64,uint64,uint64,uint64,uint64)": {
        "notice": "The Consensus Layer Spec is changed"
      },
      "SetTotalSupply(uint256)": {
        "notice": "Emitted when the total supply is changed"
      },
      "SetWithdrawalCredentials(bytes32)": {
        "notice": "The stored withdrawal credentials changed"
      },
      "UserDeposit(address,address,uint256)": {
        "notice": "User deposited ETH in the system"
      }
    },
    "kind": "user",
    "methods": {
      "DEPOSIT_SIZE()": {
        "notice": "Size of a deposit in ETH"
      },
      "PUBLIC_KEY_LENGTH()": {
        "notice": "Size of a BLS Public key in bytes"
      },
      "SIGNATURE_LENGTH()": {
        "notice": "Size of a BLS Signature in bytes"
      },
      "_DEPOSIT_SIZE()": {
        "notice": "Size of a deposit in ETH"
      },
      "acceptAdmin()": {
        "notice": "Accept the transfer of ownership"
      },
      "allowance(address,address)": {
        "notice": "Retrieve the allowance value for a spender"
      },
      "approve(address,uint256)": {
        "notice": "Approves an account for future spendings"
      },
      "balanceOf(address)": {
        "notice": "Retrieve the balance of an account"
      },
      "balanceOfUnderlying(address)": {
        "notice": "Retrieve the underlying asset balance of an account"
      },
      "claimRedeemRequests(uint32[],uint32[])": {
        "notice": "Claims several redeem requests"
      },
      "decimals()": {
        "notice": "Retrieve the decimal count"
      },
      "decreaseAllowance(address,uint256)": {
        "notice": "Decrease allowance to another account"
      },
      "deposit()": {
        "notice": "Explicit deposit method to mint on msg.sender"
      },
      "depositAndTransfer(address)": {
        "notice": "Explicit deposit method to mint on msg.sender and transfer to _recipient"
      },
      "depositToConsensusLayerWithDepositRoot((uint256,uint256)[],bytes32)": {
        "notice": "Deposits current balance to the Consensus Layer based on explicit operator allocations"
      },
      "getAdmin()": {
        "notice": "Retrieves the current admin address"
      },
      "getAllowlist()": {
        "notice": "Retrieve the allowlist address"
      },
      "getBalanceToDeposit()": {
        "notice": "Returns the amount of ETH not yet committed for deposit"
      },
      "getBalanceToRedeem()": {
        "notice": "Retrieve the current balance to redeem"
      },
      "getCLSpec()": {
        "notice": "Retrieve the current cl spec"
      },
      "getCLValidatorCount()": {
        "notice": "Get CL validator count (the amount of validator reported by the oracles)"
      },
      "getCLValidatorTotalBalance()": {
        "notice": "Get CL validator total balance"
      },
      "getCollector()": {
        "notice": "Retrieve the collector address"
      },
      "getCommittedBalance()": {
        "notice": "Returns the amount of ETH committed for deposit"
      },
      "getCoverageFund()": {
        "notice": "Retrieve the coverage fund"
      },
      "getCurrentEpochId()": {
        "notice": "Retrieve the current epoch id based on block timestamp"
      },
      "getCurrentFrame()": {
        "notice": "Retrieve the current frame details"
      },
      "getDailyCommittableLimits()": {
        "notice": "Retrieve the configured daily committable limits"
      },
      "getDepositedValidatorCount()": {
        "notice": "Get the deposited validator count (the count of deposits made by the contract)"
      },
      "getELFeeRecipient()": {
        "notice": "Retrieve the execution layer fee recipient"
      },
      "getExpectedEpochId()": {
        "notice": "Retrieve expected epoch id"
      },
      "getFrameFirstEpochId(uint256)": {
        "notice": "Retrieve the first epoch id of the frame of the provided epoch id"
      },
      "getGlobalFee()": {
        "notice": "Get the current global fee"
      },
      "getKeeper()": {
        "notice": "Get the keeper address"
      },
      "getLastCompletedEpochId()": {
        "notice": "Retrieve the last completed epoch id"
      },
      "getLastConsensusLayerReport()": {
        "notice": "Retrieve the last consensus layer report"
      },
      "getMetadataURI()": {
        "notice": "Retrieve the metadata uri string value"
      },
      "getOperatorsRegistry()": {
        "notice": "Retrieve the operators registry"
      },
      "getOracle()": {
        "notice": "Get oracle address"
      },
      "getPendingAdmin()": {
        "notice": "Retrieve the current pending admin address"
      },
      "getRedeemManager()": {
        "notice": "Retrieve the redeem manager"
      },
      "getReportBounds()": {
        "notice": "Retrieve the report bounds"
      },
      "getSlashingContainmentMode()": {
        "notice": "Returns whether slashing containment mode is currently active"
      },
      "getTime()": {
        "notice": "Retrieve the block timestamp"
      },
      "getWithdrawalCredentials()": {
        "notice": "Retrieve the withdrawal credentials"
      },
      "increaseAllowance(address,uint256)": {
        "notice": "Increase allowance to another account"
      },
      "initRiverV1(address,address,bytes32,address,address,address,address,address,uint256)": {
        "notice": "Initializes the River system"
      },
      "initRiverV1_1(address,uint64,uint64,uint64,uint64,uint64,uint256,uint256,uint128,uint128)": {
        "notice": "Initialized version 1.1 of the River System"
      },
      "initRiverV1_2()": {
        "notice": "Initializes version 1.2 of the River System"
      },
      "isValidEpoch(uint256)": {
        "notice": "Verifies if the provided epoch is valid"
      },
      "name()": {
        "notice": "Retrieve the token name"
      },
      "proposeAdmin(address)": {
        "notice": "Proposes a new address as admin"
      },
      "requestRedeem(uint256,address)": {
        "notice": "Performs a redeem request on the redeem manager"
      },
      "resolveRedeemRequests(uint32[])": {
        "notice": "Resolves the provided redeem requests by calling the redeem manager"
      },
      "sendCLFunds()": {
        "notice": "Input for consensus layer funds, containing both exit and skimming"
      },
      "sendCoverageFunds()": {
        "notice": "Input for coverage funds"
      },
      "sendELFees()": {
        "notice": "Input for execution layer fee earnings"
      },
      "sendRedeemManagerExceedingFunds()": {
        "notice": "Input for the redeem manager funds"
      },
      "setAllowlist(address)": {
        "notice": "Changes the allowlist address"
      },
      "setCLSpec((uint64,uint64,uint64,uint64,uint64))": {
        "notice": "Set the consensus layer spec"
      },
      "setCollector(address)": {
        "notice": "Changes the collector address"
      },
      "setConsensusLayerData((uint256,uint256,uint256,uint256,uint256,uint32,uint32[],bool,bool))": {
        "notice": "Performs all the reporting logics"
      },
      "setCoverageFund(address)": {
        "notice": "Changes the coverage fund"
      },
      "setDailyCommittableLimits((uint128,uint128))": {
        "notice": "Set the daily committable limits"
      },
      "setELFeeRecipient(address)": {
        "notice": "Changes the execution layer fee recipient"
      },
      "setGlobalFee(uint256)": {
        "notice": "Changes the global fee parameter"
      },
      "setKeeper(address)": {
        "notice": "Changes the keeper address"
      },
      "setMetadataURI(string)": {
        "notice": "Sets the metadata uri string value"
      },
      "setOracle(address)": {
        "notice": "Set the oracle address"
      },
      "setReportBounds((uint256,uint256))": {
        "notice": "Set the report bounds"
      },
      "sharesFromUnderlyingBalance(uint256)": {
        "notice": "Retrieve the shares count from an underlying asset amount"
      },
      "symbol()": {
        "notice": "Retrieve the token symbol"
      },
      "totalSupply()": {
        "notice": "Retrieve the total token supply"
      },
      "totalUnderlyingSupply()": {
        "notice": "Retrieve the total underlying asset supply"
      },
      "transfer(address,uint256)": {
        "notice": "Performs a transfer from the message sender to the provided account"
      },
      "transferFrom(address,address,uint256)": {
        "notice": "Performs a transfer between two recipients"
      },
      "underlyingBalanceFromShares(uint256)": {
        "notice": "Retrieve the underlying asset balance from an amount of shares"
      },
      "version()": {
        "notice": "Retrieves the version of the contract"
      }
    },
    "notice": "This contract merges all the manager contracts and implements all the virtual methods stitching all components together",
    "version": 1
  },
  "storageLayout": {
    "storage": [],
    "types": null
  }
}