{
  "address": "0x87f13e2427C09922B9858130b384D7A88F89E406",
  "abi": [
    {
      "inputs": [
        {
          "internalType": "uint256",
          "name": "version",
          "type": "uint256"
        },
        {
          "internalType": "uint256",
          "name": "expectedVersion",
          "type": "uint256"
        }
      ],
      "name": "InvalidInitialization",
      "type": "error"
    },
    {
      "inputs": [],
      "name": "InvalidZeroAddress",
      "type": "error"
    },
    {
      "inputs": [
        {
          "internalType": "address",
          "name": "caller",
          "type": "address"
        }
      ],
      "name": "Unauthorized",
      "type": "error"
    },
    {
      "anonymous": false,
      "inputs": [
        {
          "indexed": false,
          "internalType": "uint256",
          "name": "version",
          "type": "uint256"
        },
        {
          "indexed": false,
          "internalType": "bytes",
          "name": "cdata",
          "type": "bytes"
        }
      ],
      "name": "Initialize",
      "type": "event"
    },
    {
      "anonymous": false,
      "inputs": [
        {
          "indexed": false,
          "internalType": "address",
          "name": "river",
          "type": "address"
        }
      ],
      "name": "SetRiver",
      "type": "event"
    },
    {
      "inputs": [],
      "name": "getCredentials",
      "outputs": [
        {
          "internalType": "bytes32",
          "name": "",
          "type": "bytes32"
        }
      ],
      "stateMutability": "view",
      "type": "function"
    },
    {
      "inputs": [],
      "name": "getRiver",
      "outputs": [
        {
          "internalType": "address",
          "name": "",
          "type": "address"
        }
      ],
      "stateMutability": "view",
      "type": "function"
    },
    {
      "inputs": [
        {
          "internalType": "address",
          "name": "_river",
          "type": "address"
        }
      ],
      "name": "initializeWithdrawV1",
      "outputs": [],
      "stateMutability": "nonpayable",
      "type": "function"
    },
    {
      "inputs": [
        {
          "internalType": "uint256",
          "name": "_max",
          "type": "uint256"
        }
      ],
      "name": "pullEth",
      "outputs": [],
      "stateMutability": "nonpayable",
      "type": "function"
    },
    {
      "inputs": [],
      "name": "version",
      "outputs": [
        {
          "internalType": "string",
          "name": "",
          "type": "string"
        }
      ],
      "stateMutability": "pure",
      "type": "function"
    }
  ],
  "transactionHash": "0xc79364d87093853a82f4689e2c62c1e60cec57700086c35f59f6c6a251a4c6e8",
  "args": [],
  "numDeployments": 1,
  "solcInputHash": "09ab035d61ef908ac37f7fdfb0b5b7d1",
  "bytecode": "0x608080604052346093577f1809e49bba43f2d39fa57894b50cd6ccb428cc438230e065cac3eb24a1355a71906000197f82055909238c0f5e63d6f174068ebb8f51bcec9bd37de63bb68f6551feec0cfc556000198152604060208201523660408201523660006060830137600060603683010152606081601f19601f3601168101030190a16040516103b090816100998239f35b600080fdfe608080604052600436101561001357600080fd5b600090813560e01c908163229413381461031e5750806354fd4d501461027d578063a519f06014610246578063af254f12146101305763ea74f4791461005857600080fd5b3461012d57602036600319011261012d5760008051602061035b8339815191528054600435906001600160a01b0316330361011a57829047818111156101125750915b826100a4575080f35b546001600160a01b0316803b1561010e57600460405180948193635d95e80160e01b83525af18015610103576100d8578180f35b67ffffffffffffffff81116100ef57604052388180f35b634e487b7160e01b82526041600452602482fd5b6040513d84823e3d90fd5b5080fd5b90509161009b565b63472511eb60e11b835233600452602483fd5b80fd5b503461012d57602036600319011261012d576004356001600160a01b03811690818103610242577f82055909238c0f5e63d6f174068ebb8f51bcec9bd37de63bb68f6551feec0cfc805461022a5760019055811561021b577ffc0d749143b04e0d92a3b49edae84a45f6bc88b75e99d9118ec4d7e87fe626c59160209160008051602061035b83398151915255604051908152a17f1809e49bba43f2d39fa57894b50cd6ccb428cc438230e065cac3eb24a1355a7160405182815260406020820152366040820152368360608301378260603683010152606081601f19601f3601168101030190a180f35b63f6b2911f60e01b8352600483fd5b54631cfd276760e31b84526004849052602452604483fd5b8280fd5b503461012d578060031936011261012d575060008051602061035b833981519152546040516001600160a01b039091168152602090f35b503461012d578060031936011261012d576040516040810181811067ffffffffffffffff82111761030a5760405260058152640312e332e360dc1b6020820152604051809260208252825192836020840152815b8481106102f257505091604092838284010152601f80199101168101030190f35b602082820181015160408884010152869450016102d1565b634e487b7160e01b83526041600452602483fd5b90503461010e578160031936011261010e57600160f81b300180301161034657602092508152f35b634e487b7160e01b83526011600452602483fdfe1ec4138404500a2a0be2c2f9b103581c2a7fa783a934f91a6cc5cc924404973ba2646970667358221220f0a07b308ebdd616deb3e608987a5aef5e619ecfbbe6b862c5d1f7c79825885064736f6c63430008220033",
  "devdoc": {
    "author": "Alluvial Finance Inc.",
    "errors": {
      "InvalidInitialization(uint256,uint256)": [
        {
          "params": {
            "expectedVersion": "The version that was expected",
            "version": "The version that was attempting to be initialized"
          }
        }
      ],
      "Unauthorized(address)": [
        {
          "params": {
            "caller": "Address performing the call"
          }
        }
      ]
    },
    "events": {
      "Initialize(uint256,bytes)": {
        "params": {
          "cdata": "Complete calldata that was used during the initialization",
          "version": "New version of the contracts"
        }
      },
      "SetRiver(address)": {
        "params": {
          "river": "The new River address"
        }
      }
    },
    "kind": "dev",
    "methods": {
      "getCredentials()": {
        "returns": {
          "_0": "The withdrawal credentials"
        }
      },
      "getRiver()": {
        "returns": {
          "_0": "The River address"
        }
      },
      "initializeWithdrawV1(address)": {
        "params": {
          "_river": "The address of the River contract"
        }
      },
      "pullEth(uint256)": {
        "params": {
          "_amount": "The amount to pull"
        }
      },
      "version()": {
        "returns": {
          "_0": "Version of the contract"
        }
      }
    },
    "title": "Withdraw (v1)",
    "version": 1
  },
  "userdoc": {
    "errors": {
      "InvalidInitialization(uint256,uint256)": [
        {
          "notice": "An error occured during the initialization"
        }
      ],
      "InvalidZeroAddress()": [
        {
          "notice": "The address is zero"
        }
      ],
      "Unauthorized(address)": [
        {
          "notice": "The operator is unauthorized for the caller"
        }
      ]
    },
    "events": {
      "Initialize(uint256,bytes)": {
        "notice": "Emitted when the contract is properly initialized"
      },
      "SetRiver(address)": {
        "notice": "Emitted when the linked River address is changed"
      }
    },
    "kind": "user",
    "methods": {
      "getCredentials()": {
        "notice": "Retrieve the withdrawal credentials to use"
      },
      "getRiver()": {
        "notice": "Retrieve the linked River address"
      },
      "pullEth(uint256)": {
        "notice": "Callable by River, sends the specified amount of ETH to River"
      },
      "version()": {
        "notice": "Retrieves the version of the contract"
      }
    },
    "notice": "This contract is in charge of holding the exit and skimming funds and allow river to pull these funds",
    "version": 1
  },
  "storageLayout": {
    "storage": [],
    "types": null
  }
}