{
  "address": "0x2Af9EE712a72bB1E7F4F51DACad827bF24F1f8A8",
  "abi": [
    {
      "inputs": [],
      "stateMutability": "nonpayable",
      "type": "constructor"
    },
    {
      "inputs": [
        {
          "internalType": "address",
          "name": "recipient",
          "type": "address"
        }
      ],
      "name": "InvalidRecipient",
      "type": "error"
    },
    {
      "anonymous": false,
      "inputs": [
        {
          "indexed": true,
          "internalType": "address",
          "name": "owner",
          "type": "address"
        },
        {
          "indexed": true,
          "internalType": "address",
          "name": "spender",
          "type": "address"
        },
        {
          "indexed": false,
          "internalType": "uint256",
          "name": "value",
          "type": "uint256"
        }
      ],
      "name": "Approval",
      "type": "event"
    },
    {
      "anonymous": false,
      "inputs": [
        {
          "indexed": true,
          "internalType": "address",
          "name": "previousAdmin",
          "type": "address"
        },
        {
          "indexed": true,
          "internalType": "address",
          "name": "newAdmin",
          "type": "address"
        }
      ],
      "name": "CCIPAdminTransferred",
      "type": "event"
    },
    {
      "anonymous": false,
      "inputs": [
        {
          "indexed": false,
          "internalType": "uint8",
          "name": "version",
          "type": "uint8"
        }
      ],
      "name": "Initialized",
      "type": "event"
    },
    {
      "anonymous": false,
      "inputs": [
        {
          "indexed": true,
          "internalType": "bytes32",
          "name": "role",
          "type": "bytes32"
        },
        {
          "indexed": true,
          "internalType": "bytes32",
          "name": "previousAdminRole",
          "type": "bytes32"
        },
        {
          "indexed": true,
          "internalType": "bytes32",
          "name": "newAdminRole",
          "type": "bytes32"
        }
      ],
      "name": "RoleAdminChanged",
      "type": "event"
    },
    {
      "anonymous": false,
      "inputs": [
        {
          "indexed": true,
          "internalType": "bytes32",
          "name": "role",
          "type": "bytes32"
        },
        {
          "indexed": true,
          "internalType": "address",
          "name": "account",
          "type": "address"
        },
        {
          "indexed": true,
          "internalType": "address",
          "name": "sender",
          "type": "address"
        }
      ],
      "name": "RoleGranted",
      "type": "event"
    },
    {
      "anonymous": false,
      "inputs": [
        {
          "indexed": true,
          "internalType": "bytes32",
          "name": "role",
          "type": "bytes32"
        },
        {
          "indexed": true,
          "internalType": "address",
          "name": "account",
          "type": "address"
        },
        {
          "indexed": true,
          "internalType": "address",
          "name": "sender",
          "type": "address"
        }
      ],
      "name": "RoleRevoked",
      "type": "event"
    },
    {
      "anonymous": false,
      "inputs": [
        {
          "indexed": true,
          "internalType": "address",
          "name": "from",
          "type": "address"
        },
        {
          "indexed": true,
          "internalType": "address",
          "name": "to",
          "type": "address"
        },
        {
          "indexed": false,
          "internalType": "uint256",
          "name": "value",
          "type": "uint256"
        }
      ],
      "name": "Transfer",
      "type": "event"
    },
    {
      "inputs": [],
      "name": "BURNER_ROLE",
      "outputs": [
        {
          "internalType": "bytes32",
          "name": "",
          "type": "bytes32"
        }
      ],
      "stateMutability": "view",
      "type": "function"
    },
    {
      "inputs": [],
      "name": "DEFAULT_ADMIN_ROLE",
      "outputs": [
        {
          "internalType": "bytes32",
          "name": "",
          "type": "bytes32"
        }
      ],
      "stateMutability": "view",
      "type": "function"
    },
    {
      "inputs": [],
      "name": "MINTER_ROLE",
      "outputs": [
        {
          "internalType": "bytes32",
          "name": "",
          "type": "bytes32"
        }
      ],
      "stateMutability": "view",
      "type": "function"
    },
    {
      "inputs": [
        {
          "internalType": "address",
          "name": "owner",
          "type": "address"
        },
        {
          "internalType": "address",
          "name": "spender",
          "type": "address"
        }
      ],
      "name": "allowance",
      "outputs": [
        {
          "internalType": "uint256",
          "name": "",
          "type": "uint256"
        }
      ],
      "stateMutability": "view",
      "type": "function"
    },
    {
      "inputs": [
        {
          "internalType": "address",
          "name": "spender",
          "type": "address"
        },
        {
          "internalType": "uint256",
          "name": "amount",
          "type": "uint256"
        }
      ],
      "name": "approve",
      "outputs": [
        {
          "internalType": "bool",
          "name": "",
          "type": "bool"
        }
      ],
      "stateMutability": "nonpayable",
      "type": "function"
    },
    {
      "inputs": [
        {
          "internalType": "address",
          "name": "account",
          "type": "address"
        }
      ],
      "name": "balanceOf",
      "outputs": [
        {
          "internalType": "uint256",
          "name": "",
          "type": "uint256"
        }
      ],
      "stateMutability": "view",
      "type": "function"
    },
    {
      "inputs": [
        {
          "internalType": "uint256",
          "name": "amount",
          "type": "uint256"
        }
      ],
      "name": "burn",
      "outputs": [],
      "stateMutability": "nonpayable",
      "type": "function"
    },
    {
      "inputs": [
        {
          "internalType": "address",
          "name": "account",
          "type": "address"
        },
        {
          "internalType": "uint256",
          "name": "amount",
          "type": "uint256"
        }
      ],
      "name": "burn",
      "outputs": [],
      "stateMutability": "nonpayable",
      "type": "function"
    },
    {
      "inputs": [
        {
          "internalType": "address",
          "name": "account",
          "type": "address"
        },
        {
          "internalType": "uint256",
          "name": "amount",
          "type": "uint256"
        }
      ],
      "name": "burnFrom",
      "outputs": [],
      "stateMutability": "nonpayable",
      "type": "function"
    },
    {
      "inputs": [],
      "name": "decimals",
      "outputs": [
        {
          "internalType": "uint8",
          "name": "",
          "type": "uint8"
        }
      ],
      "stateMutability": "view",
      "type": "function"
    },
    {
      "inputs": [
        {
          "internalType": "address",
          "name": "spender",
          "type": "address"
        },
        {
          "internalType": "uint256",
          "name": "subtractedValue",
          "type": "uint256"
        }
      ],
      "name": "decreaseAllowance",
      "outputs": [
        {
          "internalType": "bool",
          "name": "",
          "type": "bool"
        }
      ],
      "stateMutability": "nonpayable",
      "type": "function"
    },
    {
      "inputs": [],
      "name": "getCCIPAdmin",
      "outputs": [
        {
          "internalType": "address",
          "name": "",
          "type": "address"
        }
      ],
      "stateMutability": "view",
      "type": "function"
    },
    {
      "inputs": [
        {
          "internalType": "bytes32",
          "name": "role",
          "type": "bytes32"
        }
      ],
      "name": "getRoleAdmin",
      "outputs": [
        {
          "internalType": "bytes32",
          "name": "",
          "type": "bytes32"
        }
      ],
      "stateMutability": "view",
      "type": "function"
    },
    {
      "inputs": [
        {
          "internalType": "address",
          "name": "burnAndMinter",
          "type": "address"
        }
      ],
      "name": "grantMintAndBurnRoles",
      "outputs": [],
      "stateMutability": "nonpayable",
      "type": "function"
    },
    {
      "inputs": [
        {
          "internalType": "bytes32",
          "name": "role",
          "type": "bytes32"
        },
        {
          "internalType": "address",
          "name": "account",
          "type": "address"
        }
      ],
      "name": "grantRole",
      "outputs": [],
      "stateMutability": "nonpayable",
      "type": "function"
    },
    {
      "inputs": [
        {
          "internalType": "bytes32",
          "name": "role",
          "type": "bytes32"
        },
        {
          "internalType": "address",
          "name": "account",
          "type": "address"
        }
      ],
      "name": "hasRole",
      "outputs": [
        {
          "internalType": "bool",
          "name": "",
          "type": "bool"
        }
      ],
      "stateMutability": "view",
      "type": "function"
    },
    {
      "inputs": [
        {
          "internalType": "address",
          "name": "spender",
          "type": "address"
        },
        {
          "internalType": "uint256",
          "name": "addedValue",
          "type": "uint256"
        }
      ],
      "name": "increaseAllowance",
      "outputs": [
        {
          "internalType": "bool",
          "name": "",
          "type": "bool"
        }
      ],
      "stateMutability": "nonpayable",
      "type": "function"
    },
    {
      "inputs": [
        {
          "internalType": "string",
          "name": "_name",
          "type": "string"
        },
        {
          "internalType": "string",
          "name": "_symbol",
          "type": "string"
        },
        {
          "internalType": "address",
          "name": "_admin",
          "type": "address"
        }
      ],
      "name": "initialize",
      "outputs": [],
      "stateMutability": "nonpayable",
      "type": "function"
    },
    {
      "inputs": [
        {
          "internalType": "address",
          "name": "account",
          "type": "address"
        },
        {
          "internalType": "uint256",
          "name": "amount",
          "type": "uint256"
        }
      ],
      "name": "mint",
      "outputs": [],
      "stateMutability": "nonpayable",
      "type": "function"
    },
    {
      "inputs": [],
      "name": "name",
      "outputs": [
        {
          "internalType": "string",
          "name": "",
          "type": "string"
        }
      ],
      "stateMutability": "view",
      "type": "function"
    },
    {
      "inputs": [
        {
          "internalType": "bytes32",
          "name": "role",
          "type": "bytes32"
        },
        {
          "internalType": "address",
          "name": "account",
          "type": "address"
        }
      ],
      "name": "renounceRole",
      "outputs": [],
      "stateMutability": "nonpayable",
      "type": "function"
    },
    {
      "inputs": [
        {
          "internalType": "bytes32",
          "name": "role",
          "type": "bytes32"
        },
        {
          "internalType": "address",
          "name": "account",
          "type": "address"
        }
      ],
      "name": "revokeRole",
      "outputs": [],
      "stateMutability": "nonpayable",
      "type": "function"
    },
    {
      "inputs": [
        {
          "internalType": "address",
          "name": "newAdmin",
          "type": "address"
        }
      ],
      "name": "setCCIPAdmin",
      "outputs": [],
      "stateMutability": "nonpayable",
      "type": "function"
    },
    {
      "inputs": [
        {
          "internalType": "bytes4",
          "name": "interfaceId",
          "type": "bytes4"
        }
      ],
      "name": "supportsInterface",
      "outputs": [
        {
          "internalType": "bool",
          "name": "",
          "type": "bool"
        }
      ],
      "stateMutability": "pure",
      "type": "function"
    },
    {
      "inputs": [],
      "name": "symbol",
      "outputs": [
        {
          "internalType": "string",
          "name": "",
          "type": "string"
        }
      ],
      "stateMutability": "view",
      "type": "function"
    },
    {
      "inputs": [],
      "name": "totalSupply",
      "outputs": [
        {
          "internalType": "uint256",
          "name": "",
          "type": "uint256"
        }
      ],
      "stateMutability": "view",
      "type": "function"
    },
    {
      "inputs": [
        {
          "internalType": "address",
          "name": "to",
          "type": "address"
        },
        {
          "internalType": "uint256",
          "name": "amount",
          "type": "uint256"
        }
      ],
      "name": "transfer",
      "outputs": [
        {
          "internalType": "bool",
          "name": "",
          "type": "bool"
        }
      ],
      "stateMutability": "nonpayable",
      "type": "function"
    },
    {
      "inputs": [
        {
          "internalType": "address",
          "name": "from",
          "type": "address"
        },
        {
          "internalType": "address",
          "name": "to",
          "type": "address"
        },
        {
          "internalType": "uint256",
          "name": "amount",
          "type": "uint256"
        }
      ],
      "name": "transferFrom",
      "outputs": [
        {
          "internalType": "bool",
          "name": "",
          "type": "bool"
        }
      ],
      "stateMutability": "nonpayable",
      "type": "function"
    }
  ],
  "transactionHash": "0x3d0464d6053ee7e161dde835540c6a6d1a99a88145ffd70b8fd988f32055d402",
  "args": [],
  "numDeployments": 1,
  "solcInputHash": "410a5ba3271eba764c605433e1c244d8",
  "bytecode": "0x608080604052346100c1576000549060ff8260081c1661006f575060ff80821603610034575b604051611df790816100c78239f35b60ff90811916176000557f7f26b83ff96e1f2b6a682f133852f6798a09c465da95921460cefb3847402498602060405160ff8152a138610025565b62461bcd60e51b815260206004820152602760248201527f496e697469616c697a61626c653a20636f6e747261637420697320696e697469604482015266616c697a696e6760c81b6064820152608490fd5b600080fdfe608080604052600436101561001357600080fd5b60003560e01c90816301ffc9a7146112445750806306fdde031461119f578063077f224a14610d34578063095ea7b314610d0e57806318160ddd14610cf057806323b872dd14610cb8578063248a9ca314610c89578063282c51f314610c605780632f2ff15d14610bbf578063313ce56714610ba357806336568abe14610b115780633950935114610ac057806340c10f191461084557806342966c681461082057806370a08231146107e657806379cc67901461064d5780638fd6a6ac146107b057806391d148541461076357806395d89b41146106855780639dc29fac1461064d578063a217fddf14610631578063a457c2d71461058a578063a8fa343c14610374578063a9059cbb14610343578063c630948d14610213578063d5391393146101ea578063d547741f146101a95763dd62ed3e1461015357600080fd5b346101a45760403660031901126101a45761016c6113c0565b6101746113d6565b9060018060a01b038091166000526034602052604060002091166000526020526020604060002054604051908152f35b600080fd5b346101a45760403660031901126101a4576101e86004356101c86113d6565b908060005260c96020526101e3600160406000200154611611565b61171b565b005b346101a45760003660031901126101a4576020604051600080516020611d828339815191528152f35b346101a4576020806003193601126101a45761022d6113c0565b600080516020611d82833981519152918260005260c992838252610258600160406000200154611611565b600081815284835260408082206001600160a01b0390951680835294845290205460ff1615610305575b50600080516020611d6283398151915292836000528082526102ab600160406000200154611611565b83600052808252604060002083600052825260ff60406000205416156102cd57005b83600052815260406000209082600052526040600020600160ff198254161790553391600080516020611d02833981519152600080a4005b8060005283825260406000208360005282526040600020600160ff19825416179055823391600080516020611d02833981519152600080a483610282565b346101a45760403660031901126101a45761036961035f6113c0565b60243590336117cb565b602060405160018152f35b346101a4576020806003193601126101a45761038e6113c0565b906000805260c98152604060002033600052815260ff60406000205416156103fa5750600080516020611d228339815191528054908290556001600160a01b0391821691167f9524c9e4b0b61eb018dd58a1cd856e3e74009528328ab4a613b434fa631d7242600080a3005b61040333611c05565b6040516000916104128261132e565b604282528382019260603685378251156105745760308453825160019081101561057457607860218501536041905b80821161051a5750506104e9576104e593610495936104cd936104be604894604051978576020b1b1b2b9b9a1b7b73a3937b61d1030b1b1b7bab73a1604d1b8a9788015282519283916037890191016112df565b8401917001034b99036b4b9b9b4b733903937b6329607d1b6037840152518093868401906112df565b01036028810184520182611349565b60405162461bcd60e51b815291829160048301611302565b0390fd5b6064846040519062461bcd60e51b82528060048301526024820152600080516020611d428339815191526044820152fd5b9091600f81166010811015610574576f181899199a1a9b1b9c1cb0b131b232b360811b901a6105498487611bf4565b5360041c91801561055e576000190190610441565b634e487b7160e01b600052601160045260246000fd5b634e487b7160e01b600052603260045260246000fd5b346101a45760403660031901126101a4576105a36113c0565b60243590336000526034602052604060002060018060a01b038216600052602052604060002054918083106105de576103699203903361194b565b60405162461bcd60e51b815260206004820152602560248201527f45524332303a2064656372656173656420616c6c6f77616e63652062656c6f77604482015264207a65726f60d81b6064820152608490fd5b346101a45760003660031901126101a457602060405160008152f35b346101a45760403660031901126101a4576101e86106696113c0565b6024359061067561144c565b610680823383611a63565b611afb565b346101a45760003660031901126101a4576040516000906037546106a881611791565b80835260019180831690811561073b57506001146106e1575b6106dd836106d181870382611349565b60405191829182611302565b0390f35b6037600090815260209450917f42a7b7dd785cd69714a189dffb3fd7d7174edc9ece837694ce50f7078f7c31ae5b828410610728575050508101909101906106d1816106c1565b805485850187015292850192810161070f565b6106dd95506106d193506020915091849260ff191682840152151560051b82010193506106c1565b346101a45760403660031901126101a45761077c6113d6565b60043560005260c960205260406000209060018060a01b0316600052602052602060ff604060002054166040519015158152f35b346101a45760003660031901126101a457600080516020611d22833981519152546040516001600160a01b039091168152602090f35b346101a45760203660031901126101a4576001600160a01b036108076113c0565b1660005260336020526020604060002054604051908152f35b346101a45760203660031901126101a45761083961144c565b6101e860043533611afb565b346101a45760403660031901126101a45761085e6113c0565b3360009081527f51111423f5e835a1e334a686a7d9f998a65310f720d529827b76c12f396de4826020908152604090912054602492833591600080516020611d828339815191529060ff161561095c57506001600160a01b0316923084146109465783156109035750600091816108e6600080516020611da283398151915293603554611a56565b6035558484526033825260408420818154019055604051908152a3005b82601f6064926040519262461bcd60e51b845260048401528201527f45524332303a206d696e7420746f20746865207a65726f2061646472657373006044820152fd5b604051630bc2c5df60e11b815260048101859052fd5b83908561096833611c05565b604051916109758361132e565b60428352848301936060368637835115610aab57603085538351600190811015610a9657607860218601536041905b808211610a285750506109f8576104e56104956104cd60488888886104be89604051978576020b1b1b2b9b9a1b7b73a3937b61d1030b1b1b7bab73a1604d1b8a9788015282519283916037890191016112df565b606490856040519162461bcd60e51b8352816004840152820152600080516020611d428339815191526044820152fd5b9091600f81166010811015610a81576f181899199a1a9b1b9c1cb0b131b232b360811b901a610a578488611bf4565b5360041c918015610a6c5760001901906109a4565b83634e487b7160e01b60005260116004526000fd5b84634e487b7160e01b60005260326004526000fd5b82634e487b7160e01b60005260326004526000fd5b50634e487b7160e01b60009081526032600452fd5b346101a45760403660031901126101a457610369610adc6113c0565b336000526034602052604060002060018060a01b038216600052602052610b0a602435604060002054611a56565b903361194b565b346101a45760403660031901126101a457610b2a6113d6565b336001600160a01b03821603610b46576101e89060043561171b565b60405162461bcd60e51b815260206004820152602f60248201527f416363657373436f6e74726f6c3a2063616e206f6e6c792072656e6f756e636560448201526e103937b632b9903337b91039b2b63360891b6064820152608490fd5b346101a45760003660031901126101a457602060405160128152f35b346101a45760403660031901126101a457600435610bdb6113d6565b8160005260c9602052610bf5600160406000200154611611565b8160005260c960205260406000209060018060a01b0316908160005260205260ff6040600020541615610c2457005b8160005260c96020526040600020816000526020526040600020600160ff198254161790553391600080516020611d02833981519152600080a4005b346101a45760003660031901126101a4576020604051600080516020611d628339815191528152f35b346101a45760203660031901126101a45760043560005260c96020526020600160406000200154604051908152f35b346101a45760603660031901126101a457610369610cd46113c0565b610cdc6113d6565b60443591610ceb833383611a63565b6117cb565b346101a45760003660031901126101a4576020603554604051908152f35b346101a45760403660031901126101a457610369610d2a6113c0565b602435903361194b565b346101a45760603660031901126101a4576004356001600160401b0381116101a457610d6490369060040161136a565b6024356001600160401b0381116101a457610d8390369060040161136a565b6044356001600160a01b03811690036101a45760005460ff8160081c161590818092611192575b801561117b575b1561111f5760ff1981166001176000558161110d575b50610deb60ff60005460081c16610ddd816113ec565b610de6816113ec565b6113ec565b8251916001600160401b03831161103f57610e07603654611791565b92601f938481116110c7575b5060209484821160011461106057948192939495600092611055575b50508160011b916000199060031b1c1916176036555b8051906001600160401b03821161103f57610e61603754611791565b848111610ff9575b506020938211600114610f945792819293600092610f89575b50508160011b916000199060031b1c1916176037555b604435600080516020611d228339815191528190556001600160a01b031660009081527f81fe90a866a48a634a12852c1be675b683a22307409932a7443b8029347be756602052604090205460ff1615610f2b575b610ef357005b61ff0019600054166000557f7f26b83ff96e1f2b6a682f133852f6798a09c465da95921460cefb3847402498602060405160018152a1005b6044356001600160a01b031660008181527f81fe90a866a48a634a12852c1be675b683a22307409932a7443b8029347be75660205260408120805460ff19166001179055339190600080516020611d028339815191528180a4610eed565b015190508380610e82565b601f198216936037600052806000209160005b868110610fe15750836001959610610fc8575b505050811b01603755610e98565b015160001960f88460031b161c19169055838080610fba565b91926020600181928685015181550194019201610fa7565b603760005260206000208580850160051c82019260208610611036575b0160051c01905b81811061102a5750610e69565b6000815560010161101d565b92508192611016565b634e487b7160e01b600052604160045260246000fd5b015190508580610e2f565b601f198216956036600052806000209160005b8881106110af57508360019596979810611096575b505050811b01603655610e45565b015160001960f88460031b161c19169055858080611088565b91926020600181928685015181550194019201611073565b603660005260206000208580840160051c82019260208510611104575b0160051c01905b8181106110f85750610e13565b600081556001016110eb565b925081926110e4565b61ffff19166101011760005583610dc7565b60405162461bcd60e51b815260206004820152602e60248201527f496e697469616c697a61626c653a20636f6e747261637420697320616c72656160448201526d191e481a5b9a5d1a585b1a5e995960921b6064820152608490fd5b50303b158015610db15750600160ff821614610db1565b50600160ff821610610daa565b346101a45760003660031901126101a4576040516000906036546111c281611791565b80835260019180831690811561073b57506001146111ea576106dd836106d181870382611349565b6036600090815260209450917f4a11f94e20a93c79f6ec743a1954ec4fc2c08429ae2122118bf234b2185c81b85b828410611231575050508101909101906106d1816106c1565b8054858501870152928501928101611218565b346101a45760203660031901126101a4576004359063ffffffff60e01b82168092036101a4576020916336372b0760e01b81149081156112ce575b81156112bd575b81156112ac575b811561129b575b5015158152f35b6323f5a9ab60e21b14905083611294565b637965db0b60e01b8114915061128d565b6301ffc9a760e01b81149150611286565b63e6599b4d60e01b8114915061127f565b60005b8381106112f25750506000910152565b81810151838201526020016112e2565b6040916020825261132281518092816020860152602086860191016112df565b601f01601f1916010190565b608081019081106001600160401b0382111761103f57604052565b90601f801991011681019081106001600160401b0382111761103f57604052565b81601f820112156101a4578035906001600160401b03821161103f576040519261139e601f8401601f191660200185611349565b828452602083830101116101a457816000926020809301838601378301015290565b600435906001600160a01b03821682036101a457565b602435906001600160a01b03821682036101a457565b156113f357565b60405162461bcd60e51b815260206004820152602b60248201527f496e697469616c697a61626c653a20636f6e7472616374206973206e6f74206960448201526a6e697469616c697a696e6760a81b6064820152608490fd5b3360009081527fa27be7c14b1df545302532e79c789c68fb54e61e371dba3646b4727cbc3c0d1d6020908152604080832054909290600080516020611d628339815191529060ff161561149f5750505050565b6114a833611c05565b8451916114b48361132e565b604283528483019360603686378351156115fd57603085538351906001918210156115fd5790607860218601536041915b81831161158f5750505061155f576104959385936115499361153a6048946104e59951988576020b1b1b2b9b9a1b7b73a3937b61d1030b1b1b7bab73a1604d1b8b9788015282519283916037890191016112df565b01036028810185520183611349565b5162461bcd60e51b815291829160048301611302565b60648486519062461bcd60e51b82528060048301526024820152600080516020611d428339815191526044820152fd5b909192600f811660108110156115e9576f181899199a1a9b1b9c1cb0b131b232b360811b901a6115bf8588611bf4565b5360041c9280156115d5576000190191906114e5565b634e487b7160e01b82526011600452602482fd5b634e487b7160e01b83526032600452602483fd5b634e487b7160e01b81526032600452602490fd5b600081815260209060c98252604092838220338352835260ff84832054161561163a5750505050565b61164333611c05565b84519161164f8361132e565b604283528483019360603686378351156115fd57603085538351906001918210156115fd5790607860218601536041915b8183116116d55750505061155f576104959385936115499361153a6048946104e59951988576020b1b1b2b9b9a1b7b73a3937b61d1030b1b1b7bab73a1604d1b8b9788015282519283916037890191016112df565b909192600f811660108110156115e9576f181899199a1a9b1b9c1cb0b131b232b360811b901a6117058588611bf4565b5360041c9280156115d557600019019190611680565b9060009180835260c9602052604083209160018060a01b03169182845260205260ff60408420541661174c57505050565b80835260c9602052604083208284526020526040832060ff1981541690557ff6391f5c32d9c69d2a47ea670b442974b53935d1edc7fd64eb21e047a839171b339380a4565b90600182811c921680156117c1575b60208310146117ab57565b634e487b7160e01b600052602260045260246000fd5b91607f16916117a0565b6001600160a01b0391821692919030841461193257169081156118df57821561188e576000828152603360205260408120549180831061183a5760408282600080516020611da283398151915295876020965260338652038282205586815220818154019055604051908152a3565b60405162461bcd60e51b815260206004820152602660248201527f45524332303a207472616e7366657220616d6f756e7420657863656564732062604482015265616c616e636560d01b6064820152608490fd5b60405162461bcd60e51b815260206004820152602360248201527f45524332303a207472616e7366657220746f20746865207a65726f206164647260448201526265737360e81b6064820152608490fd5b60405162461bcd60e51b815260206004820152602560248201527f45524332303a207472616e736665722066726f6d20746865207a65726f206164604482015264647265737360d81b6064820152608490fd5b604051630bc2c5df60e11b815260048101859052602490fd5b6001600160a01b039182169291903084146119325716908115611a055782156119b55760207f8c5be1e5ebec7d5bd14f71427d1e84f3dd0314c0f7b2291e5b200ac8c7c3b925918360005260348252604060002085600052825280604060002055604051908152a3565b60405162461bcd60e51b815260206004820152602260248201527f45524332303a20617070726f766520746f20746865207a65726f206164647265604482015261737360f01b6064820152608490fd5b60405162461bcd60e51b8152602060048201526024808201527f45524332303a20617070726f76652066726f6d20746865207a65726f206164646044820152637265737360e01b6064820152608490fd5b9190820180921161055e57565b9060018060a01b0380831660005260346020526040600020908216600052602052604060002054926000198403611a9b575b50505050565b808410611ab657611aad93039161194b565b38808080611a95565b60405162461bcd60e51b815260206004820152601d60248201527f45524332303a20696e73756666696369656e7420616c6c6f77616e63650000006044820152606490fd5b6001600160a01b03168015611ba55780600052603360205260406000205491808310611b5557602081600080516020611da283398151915292600095858752603384520360408620558060355403603555604051908152a3565b60405162461bcd60e51b815260206004820152602260248201527f45524332303a206275726e20616d6f756e7420657863656564732062616c616e604482015261636560f01b6064820152608490fd5b60405162461bcd60e51b815260206004820152602160248201527f45524332303a206275726e2066726f6d20746865207a65726f206164647265736044820152607360f81b6064820152608490fd5b908151811015610574570160200190565b60405190606082018281106001600160401b0382111761103f57604052602a82526020820160403682378251156105745760309053815160019081101561057457607860218401536029905b808211611c93575050611c615790565b606460405162461bcd60e51b81526020600482015260206024820152600080516020611d428339815191526044820152fd5b9091600f81166010811015611cec576f181899199a1a9b1b9c1cb0b131b232b360811b901a611cc28486611bf4565b5360041c918015611cd7576000190190611c51565b60246000634e487b7160e01b81526011600452fd5b60246000634e487b7160e01b81526032600452fdfe2f8788117e7eff1d82e926ec794901d17c78024a50270940304540a733656f0d9eb8c1d96f649a50b68207f03bdec19913240129d9e648541f97a65d3d040208537472696e67733a20686578206c656e67746820696e73756666696369656e743c11d16cbaffd01df69ce1c404f6340ee057498f5f00246190ea54220576a8489f2df0fed2c77648de5860a4cc508cd0818c85b8b8a1ab4ceeef8d981c8956a6ddf252ad1be2c89b69c2b068fc378daa952ba7f163c4a11628f55a4df523b3efa2646970667358221220e0fbc75978333120a89cf6516fb71a250de1756bb6fee34b65ef622d318d3fc164736f6c63430008140033",
  "devdoc": {
    "details": "This contract has not been audited and is not yet approved for production use.",
    "events": {
      "Approval(address,address,uint256)": {
        "details": "Emitted when the allowance of a `spender` for an `owner` is set by a call to {approve}. `value` is the new allowance."
      },
      "Initialized(uint8)": {
        "details": "Triggered when the contract has been initialized or reinitialized."
      },
      "RoleAdminChanged(bytes32,bytes32,bytes32)": {
        "details": "Emitted when `newAdminRole` is set as ``role``'s admin role, replacing `previousAdminRole` `DEFAULT_ADMIN_ROLE` is the starting admin for all roles, despite {RoleAdminChanged} not being emitted signaling this. _Available since v3.1._"
      },
      "RoleGranted(bytes32,address,address)": {
        "details": "Emitted when `account` is granted `role`. `sender` is the account that originated the contract call, an admin role bearer except when using {AccessControl-_setupRole}."
      },
      "RoleRevoked(bytes32,address,address)": {
        "details": "Emitted when `account` is revoked `role`. `sender` is the account that originated the contract call:   - if using `revokeRole`, it is the admin role bearer   - if using `renounceRole`, it is the role bearer (i.e. `account`)"
      },
      "Transfer(address,address,uint256)": {
        "details": "Emitted when `value` tokens are moved from one account (`from`) to another (`to`). Note that `value` may be zero."
      }
    },
    "kind": "dev",
    "methods": {
      "allowance(address,address)": {
        "details": "See {IERC20-allowance}."
      },
      "approve(address,uint256)": {
        "details": "See {IERC20-approve}. NOTE: If `amount` is the maximum `uint256`, the allowance is not updated on `transferFrom`. This is semantically equivalent to an infinite approval. Requirements: - `spender` cannot be the zero address."
      },
      "balanceOf(address)": {
        "details": "See {IERC20-balanceOf}."
      },
      "burn(address,uint256)": {
        "details": "Alias for BurnFrom for compatibility with the older naming convention.Uses burnFrom for all validation & logic.",
        "params": {
          "account": "The address to burn tokens from.",
          "amount": "The number of tokens to be burned."
        }
      },
      "burn(uint256)": {
        "details": "Uses OZ ERC20 _burn to disallow burning from address(0).Decreases the total supply."
      },
      "burnFrom(address,uint256)": {
        "details": "Uses OZ ERC20 _burn to disallow burning from address(0).Decreases the total supply."
      },
      "decimals()": {
        "details": "Returns the number of decimals used to get its user representation. For example, if `decimals` equals `2`, a balance of `505` tokens should be displayed to a user as `5.05` (`505 / 10 ** 2`). Tokens usually opt for a value of 18, imitating the relationship between Ether and Wei. This is the default value returned by this function, unless it's overridden. NOTE: This information is only used for _display_ purposes: it in no way affects any of the arithmetic of the contract, including {IERC20-balanceOf} and {IERC20-transfer}."
      },
      "decreaseAllowance(address,uint256)": {
        "details": "Atomically decreases the allowance granted to `spender` by the caller. This is an alternative to {approve} that can be used as a mitigation for problems described in {IERC20-approve}. Emits an {Approval} event indicating the updated allowance. Requirements: - `spender` cannot be the zero address. - `spender` must have allowance for the caller of at least `subtractedValue`."
      },
      "getRoleAdmin(bytes32)": {
        "details": "Returns the admin role that controls `role`. See {grantRole} and {revokeRole}. To change a role's admin, use {_setRoleAdmin}."
      },
      "grantMintAndBurnRoles(address)": {
        "details": "calls public functions so this function does not require access controls. This is handled in the inner functions."
      },
      "grantRole(bytes32,address)": {
        "details": "Grants `role` to `account`. If `account` had not been already granted `role`, emits a {RoleGranted} event. Requirements: - the caller must have ``role``'s admin role. May emit a {RoleGranted} event."
      },
      "hasRole(bytes32,address)": {
        "details": "Returns `true` if `account` has been granted `role`."
      },
      "increaseAllowance(address,uint256)": {
        "details": "Atomically increases the allowance granted to `spender` by the caller. This is an alternative to {approve} that can be used as a mitigation for problems described in {IERC20-approve}. Emits an {Approval} event indicating the updated allowance. Requirements: - `spender` cannot be the zero address."
      },
      "mint(address,uint256)": {
        "details": "Uses OZ ERC20 _mint to disallow minting to address(0).Disallows minting to address(this)Increases the total supply.",
        "params": {
          "account": "The address to mint the new tokens to.",
          "amount": "The number of tokens to be minted."
        }
      },
      "name()": {
        "details": "Returns the name of the token."
      },
      "renounceRole(bytes32,address)": {
        "details": "Revokes `role` from the calling account. Roles are often managed via {grantRole} and {revokeRole}: this function's purpose is to provide a mechanism for accounts to lose their privileges if they are compromised (such as when a trusted device is misplaced). If the calling account had been revoked `role`, emits a {RoleRevoked} event. Requirements: - the caller must be `account`. May emit a {RoleRevoked} event."
      },
      "revokeRole(bytes32,address)": {
        "details": "Revokes `role` from `account`. If `account` had been granted `role`, emits a {RoleRevoked} event. Requirements: - the caller must have ``role``'s admin role. May emit a {RoleRevoked} event."
      },
      "setCCIPAdmin(address)": {
        "details": "only the owner can call this function, NOT the current ccipAdmin, and 1-step ownership transfer is used.",
        "params": {
          "newAdmin": "The address to transfer the CCIPAdmin role to. Setting to address(0) is a valid way to revoke the role"
        }
      },
      "supportsInterface(bytes4)": {
        "details": "Returns true if this contract implements the interface defined by `interfaceId`. See the corresponding https://eips.ethereum.org/EIPS/eip-165#how-interfaces-are-identified[EIP section] to learn more about how these ids are created. This function call must use less than 30 000 gas."
      },
      "symbol()": {
        "details": "Returns the symbol of the token, usually a shorter version of the name."
      },
      "totalSupply()": {
        "details": "See {IERC20-totalSupply}."
      },
      "transfer(address,uint256)": {
        "details": "See {IERC20-transfer}. Requirements: - `to` cannot be the zero address. - the caller must have a balance of at least `amount`."
      },
      "transferFrom(address,address,uint256)": {
        "details": "See {IERC20-transferFrom}. Emits an {Approval} event indicating the updated allowance. This is not required by the EIP. See the note at the beginning of {ERC20}. NOTE: Does not update the allowance if the current allowance is the maximum `uint256`. Requirements: - `from` and `to` cannot be the zero address. - `from` must have a balance of at least `amount`. - the caller must have allowance for ``from``'s tokens of at least `amount`."
      }
    },
    "version": 1
  },
  "userdoc": {
    "kind": "user",
    "methods": {
      "burn(address,uint256)": {
        "notice": "Burns tokens from a given address.."
      },
      "getCCIPAdmin()": {
        "notice": "Returns the current CCIPAdmin"
      },
      "grantMintAndBurnRoles(address)": {
        "notice": "grants both mint and burn roles to `burnAndMinter`."
      },
      "mint(address,uint256)": {
        "notice": "Mints new tokens for a given address."
      },
      "setCCIPAdmin(address)": {
        "notice": "Transfers the CCIPAdmin role to a new address"
      }
    },
    "notice": "A basic ERC20 compatible token contract with burn and minting roles.",
    "version": 1
  },
  "storageLayout": {
    "storage": [
      {
        "astId": 1025,
        "contract": "contracts/src/l2-token/BurnMintERC20.sol:BurnMintERC20",
        "label": "_initialized",
        "offset": 0,
        "slot": "0",
        "type": "t_uint8"
      },
      {
        "astId": 1028,
        "contract": "contracts/src/l2-token/BurnMintERC20.sol:BurnMintERC20",
        "label": "_initializing",
        "offset": 1,
        "slot": "0",
        "type": "t_bool"
      },
      {
        "astId": 2337,
        "contract": "contracts/src/l2-token/BurnMintERC20.sol:BurnMintERC20",
        "label": "__gap",
        "offset": 0,
        "slot": "1",
        "type": "t_array(t_uint256)50_storage"
      },
      {
        "astId": 1206,
        "contract": "contracts/src/l2-token/BurnMintERC20.sol:BurnMintERC20",
        "label": "_balances",
        "offset": 0,
        "slot": "51",
        "type": "t_mapping(t_address,t_uint256)"
      },
      {
        "astId": 1212,
        "contract": "contracts/src/l2-token/BurnMintERC20.sol:BurnMintERC20",
        "label": "_allowances",
        "offset": 0,
        "slot": "52",
        "type": "t_mapping(t_address,t_mapping(t_address,t_uint256))"
      },
      {
        "astId": 1214,
        "contract": "contracts/src/l2-token/BurnMintERC20.sol:BurnMintERC20",
        "label": "_totalSupply",
        "offset": 0,
        "slot": "53",
        "type": "t_uint256"
      },
      {
        "astId": 1216,
        "contract": "contracts/src/l2-token/BurnMintERC20.sol:BurnMintERC20",
        "label": "_name",
        "offset": 0,
        "slot": "54",
        "type": "t_string_storage"
      },
      {
        "astId": 1218,
        "contract": "contracts/src/l2-token/BurnMintERC20.sol:BurnMintERC20",
        "label": "_symbol",
        "offset": 0,
        "slot": "55",
        "type": "t_string_storage"
      },
      {
        "astId": 1798,
        "contract": "contracts/src/l2-token/BurnMintERC20.sol:BurnMintERC20",
        "label": "__gap",
        "offset": 0,
        "slot": "56",
        "type": "t_array(t_uint256)45_storage"
      },
      {
        "astId": 1940,
        "contract": "contracts/src/l2-token/BurnMintERC20.sol:BurnMintERC20",
        "label": "__gap",
        "offset": 0,
        "slot": "101",
        "type": "t_array(t_uint256)50_storage"
      },
      {
        "astId": 2610,
        "contract": "contracts/src/l2-token/BurnMintERC20.sol:BurnMintERC20",
        "label": "__gap",
        "offset": 0,
        "slot": "151",
        "type": "t_array(t_uint256)50_storage"
      },
      {
        "astId": 649,
        "contract": "contracts/src/l2-token/BurnMintERC20.sol:BurnMintERC20",
        "label": "_roles",
        "offset": 0,
        "slot": "201",
        "type": "t_mapping(t_bytes32,t_struct(RoleData)644_storage)"
      },
      {
        "astId": 944,
        "contract": "contracts/src/l2-token/BurnMintERC20.sol:BurnMintERC20",
        "label": "__gap",
        "offset": 0,
        "slot": "202",
        "type": "t_array(t_uint256)49_storage"
      }
    ],
    "types": {
      "t_address": {
        "encoding": "inplace",
        "label": "address",
        "numberOfBytes": "20"
      },
      "t_array(t_uint256)45_storage": {
        "base": "t_uint256",
        "encoding": "inplace",
        "label": "uint256[45]",
        "numberOfBytes": "1440"
      },
      "t_array(t_uint256)49_storage": {
        "base": "t_uint256",
        "encoding": "inplace",
        "label": "uint256[49]",
        "numberOfBytes": "1568"
      },
      "t_array(t_uint256)50_storage": {
        "base": "t_uint256",
        "encoding": "inplace",
        "label": "uint256[50]",
        "numberOfBytes": "1600"
      },
      "t_bool": {
        "encoding": "inplace",
        "label": "bool",
        "numberOfBytes": "1"
      },
      "t_bytes32": {
        "encoding": "inplace",
        "label": "bytes32",
        "numberOfBytes": "32"
      },
      "t_mapping(t_address,t_bool)": {
        "encoding": "mapping",
        "key": "t_address",
        "label": "mapping(address => bool)",
        "numberOfBytes": "32",
        "value": "t_bool"
      },
      "t_mapping(t_address,t_mapping(t_address,t_uint256))": {
        "encoding": "mapping",
        "key": "t_address",
        "label": "mapping(address => mapping(address => uint256))",
        "numberOfBytes": "32",
        "value": "t_mapping(t_address,t_uint256)"
      },
      "t_mapping(t_address,t_uint256)": {
        "encoding": "mapping",
        "key": "t_address",
        "label": "mapping(address => uint256)",
        "numberOfBytes": "32",
        "value": "t_uint256"
      },
      "t_mapping(t_bytes32,t_struct(RoleData)644_storage)": {
        "encoding": "mapping",
        "key": "t_bytes32",
        "label": "mapping(bytes32 => struct AccessControlUpgradeable.RoleData)",
        "numberOfBytes": "32",
        "value": "t_struct(RoleData)644_storage"
      },
      "t_string_storage": {
        "encoding": "bytes",
        "label": "string",
        "numberOfBytes": "32"
      },
      "t_struct(RoleData)644_storage": {
        "encoding": "inplace",
        "label": "struct AccessControlUpgradeable.RoleData",
        "members": [
          {
            "astId": 641,
            "contract": "contracts/src/l2-token/BurnMintERC20.sol:BurnMintERC20",
            "label": "members",
            "offset": 0,
            "slot": "0",
            "type": "t_mapping(t_address,t_bool)"
          },
          {
            "astId": 643,
            "contract": "contracts/src/l2-token/BurnMintERC20.sol:BurnMintERC20",
            "label": "adminRole",
            "offset": 0,
            "slot": "1",
            "type": "t_bytes32"
          }
        ],
        "numberOfBytes": "64"
      },
      "t_uint256": {
        "encoding": "inplace",
        "label": "uint256",
        "numberOfBytes": "32"
      },
      "t_uint8": {
        "encoding": "inplace",
        "label": "uint8",
        "numberOfBytes": "1"
      }
    }
  }
}