{
  "address": "0x7572eF956eE783a1E19A4458379A633CdA30C704",
  "abi": [
    {
      "inputs": [],
      "name": "FundedKeyEventMigrationComplete",
      "type": "error"
    },
    {
      "inputs": [
        {
          "internalType": "uint256",
          "name": "index",
          "type": "uint256"
        }
      ],
      "name": "InactiveOperator",
      "type": "error"
    },
    {
      "inputs": [],
      "name": "InvalidArrayLengths",
      "type": "error"
    },
    {
      "inputs": [],
      "name": "InvalidEmptyArray",
      "type": "error"
    },
    {
      "inputs": [],
      "name": "InvalidEmptyStoppedValidatorCountsArray",
      "type": "error"
    },
    {
      "inputs": [],
      "name": "InvalidEmptyString",
      "type": "error"
    },
    {
      "inputs": [],
      "name": "InvalidFundedKeyDeletionAttempt",
      "type": "error"
    },
    {
      "inputs": [],
      "name": "InvalidIndexOutOfBounds",
      "type": "error"
    },
    {
      "inputs": [
        {
          "internalType": "uint256",
          "name": "version",
          "type": "uint256"
        },
        {
          "internalType": "uint256",
          "name": "expectedVersion",
          "type": "uint256"
        }
      ],
      "name": "InvalidInitialization",
      "type": "error"
    },
    {
      "inputs": [],
      "name": "InvalidKeyCount",
      "type": "error"
    },
    {
      "inputs": [],
      "name": "InvalidKeysLength",
      "type": "error"
    },
    {
      "inputs": [],
      "name": "InvalidStoppedValidatorCountsSum",
      "type": "error"
    },
    {
      "inputs": [],
      "name": "InvalidUnsortedIndexes",
      "type": "error"
    },
    {
      "inputs": [],
      "name": "InvalidZeroAddress",
      "type": "error"
    },
    {
      "inputs": [],
      "name": "NoExitRequestsToPerform",
      "type": "error"
    },
    {
      "inputs": [
        {
          "internalType": "uint256",
          "name": "index",
          "type": "uint256"
        },
        {
          "internalType": "uint256",
          "name": "limit",
          "type": "uint256"
        },
        {
          "internalType": "uint256",
          "name": "keyCount",
          "type": "uint256"
        }
      ],
      "name": "OperatorLimitTooHigh",
      "type": "error"
    },
    {
      "inputs": [
        {
          "internalType": "uint256",
          "name": "index",
          "type": "uint256"
        },
        {
          "internalType": "uint256",
          "name": "limit",
          "type": "uint256"
        },
        {
          "internalType": "uint256",
          "name": "fundedKeyCount",
          "type": "uint256"
        }
      ],
      "name": "OperatorLimitTooLow",
      "type": "error"
    },
    {
      "inputs": [
        {
          "internalType": "uint256",
          "name": "index",
          "type": "uint256"
        }
      ],
      "name": "OperatorNotFound",
      "type": "error"
    },
    {
      "inputs": [
        {
          "internalType": "uint256",
          "name": "index",
          "type": "uint256"
        }
      ],
      "name": "OperatorNotFound",
      "type": "error"
    },
    {
      "inputs": [],
      "name": "SliceOutOfBounds",
      "type": "error"
    },
    {
      "inputs": [],
      "name": "SliceOverflow",
      "type": "error"
    },
    {
      "inputs": [
        {
          "internalType": "uint256",
          "name": "operatorIndex",
          "type": "uint256"
        },
        {
          "internalType": "uint32",
          "name": "stoppedCount",
          "type": "uint32"
        },
        {
          "internalType": "uint32",
          "name": "fundedCount",
          "type": "uint32"
        }
      ],
      "name": "StoppedValidatorCountAboveFundedCount",
      "type": "error"
    },
    {
      "inputs": [],
      "name": "StoppedValidatorCountArrayShrinking",
      "type": "error"
    },
    {
      "inputs": [],
      "name": "StoppedValidatorCountsDecreased",
      "type": "error"
    },
    {
      "inputs": [],
      "name": "StoppedValidatorCountsTooHigh",
      "type": "error"
    },
    {
      "inputs": [
        {
          "internalType": "address",
          "name": "caller",
          "type": "address"
        }
      ],
      "name": "Unauthorized",
      "type": "error"
    },
    {
      "inputs": [],
      "name": "UnorderedOperatorList",
      "type": "error"
    },
    {
      "anonymous": false,
      "inputs": [
        {
          "indexed": true,
          "internalType": "uint256",
          "name": "index",
          "type": "uint256"
        },
        {
          "indexed": false,
          "internalType": "string",
          "name": "name",
          "type": "string"
        },
        {
          "indexed": true,
          "internalType": "address",
          "name": "operatorAddress",
          "type": "address"
        }
      ],
      "name": "AddedOperator",
      "type": "event"
    },
    {
      "anonymous": false,
      "inputs": [
        {
          "indexed": true,
          "internalType": "uint256",
          "name": "index",
          "type": "uint256"
        },
        {
          "indexed": false,
          "internalType": "bytes",
          "name": "publicKeysAndSignatures",
          "type": "bytes"
        }
      ],
      "name": "AddedValidatorKeys",
      "type": "event"
    },
    {
      "anonymous": false,
      "inputs": [
        {
          "indexed": true,
          "internalType": "uint256",
          "name": "index",
          "type": "uint256"
        },
        {
          "indexed": false,
          "internalType": "bytes[]",
          "name": "publicKeys",
          "type": "bytes[]"
        },
        {
          "indexed": false,
          "internalType": "bool",
          "name": "deferred",
          "type": "bool"
        }
      ],
      "name": "FundedValidatorKeys",
      "type": "event"
    },
    {
      "anonymous": false,
      "inputs": [
        {
          "indexed": false,
          "internalType": "uint256",
          "name": "version",
          "type": "uint256"
        },
        {
          "indexed": false,
          "internalType": "bytes",
          "name": "cdata",
          "type": "bytes"
        }
      ],
      "name": "Initialize",
      "type": "event"
    },
    {
      "anonymous": false,
      "inputs": [
        {
          "indexed": true,
          "internalType": "uint256",
          "name": "index",
          "type": "uint256"
        },
        {
          "indexed": false,
          "internalType": "uint256",
          "name": "currentLimit",
          "type": "uint256"
        },
        {
          "indexed": false,
          "internalType": "uint256",
          "name": "newLimit",
          "type": "uint256"
        },
        {
          "indexed": true,
          "internalType": "uint256",
          "name": "latestKeysEditBlockNumber",
          "type": "uint256"
        },
        {
          "indexed": true,
          "internalType": "uint256",
          "name": "snapshotBlock",
          "type": "uint256"
        }
      ],
      "name": "OperatorEditsAfterSnapshot",
      "type": "event"
    },
    {
      "anonymous": false,
      "inputs": [
        {
          "indexed": true,
          "internalType": "uint256",
          "name": "index",
          "type": "uint256"
        },
        {
          "indexed": false,
          "internalType": "uint256",
          "name": "limit",
          "type": "uint256"
        }
      ],
      "name": "OperatorLimitUnchanged",
      "type": "event"
    },
    {
      "anonymous": false,
      "inputs": [
        {
          "indexed": true,
          "internalType": "uint256",
          "name": "index",
          "type": "uint256"
        },
        {
          "indexed": false,
          "internalType": "bytes",
          "name": "publicKey",
          "type": "bytes"
        }
      ],
      "name": "RemovedValidatorKey",
      "type": "event"
    },
    {
      "anonymous": false,
      "inputs": [
        {
          "indexed": true,
          "internalType": "uint256",
          "name": "index",
          "type": "uint256"
        },
        {
          "indexed": false,
          "internalType": "uint256",
          "name": "count",
          "type": "uint256"
        }
      ],
      "name": "RequestedValidatorExits",
      "type": "event"
    },
    {
      "anonymous": false,
      "inputs": [
        {
          "indexed": true,
          "internalType": "address",
          "name": "admin",
          "type": "address"
        }
      ],
      "name": "SetAdmin",
      "type": "event"
    },
    {
      "anonymous": false,
      "inputs": [
        {
          "indexed": false,
          "internalType": "uint256",
          "name": "previousValidatorExitsDemand",
          "type": "uint256"
        },
        {
          "indexed": false,
          "internalType": "uint256",
          "name": "nextValidatorExitsDemand",
          "type": "uint256"
        }
      ],
      "name": "SetCurrentValidatorExitsDemand",
      "type": "event"
    },
    {
      "anonymous": false,
      "inputs": [
        {
          "indexed": true,
          "internalType": "uint256",
          "name": "index",
          "type": "uint256"
        },
        {
          "indexed": true,
          "internalType": "address",
          "name": "newOperatorAddress",
          "type": "address"
        }
      ],
      "name": "SetOperatorAddress",
      "type": "event"
    },
    {
      "anonymous": false,
      "inputs": [
        {
          "indexed": true,
          "internalType": "uint256",
          "name": "index",
          "type": "uint256"
        },
        {
          "indexed": false,
          "internalType": "uint256",
          "name": "newLimit",
          "type": "uint256"
        }
      ],
      "name": "SetOperatorLimit",
      "type": "event"
    },
    {
      "anonymous": false,
      "inputs": [
        {
          "indexed": true,
          "internalType": "uint256",
          "name": "index",
          "type": "uint256"
        },
        {
          "indexed": false,
          "internalType": "string",
          "name": "newName",
          "type": "string"
        }
      ],
      "name": "SetOperatorName",
      "type": "event"
    },
    {
      "anonymous": false,
      "inputs": [
        {
          "indexed": true,
          "internalType": "uint256",
          "name": "index",
          "type": "uint256"
        },
        {
          "indexed": false,
          "internalType": "bool",
          "name": "active",
          "type": "bool"
        }
      ],
      "name": "SetOperatorStatus",
      "type": "event"
    },
    {
      "anonymous": false,
      "inputs": [
        {
          "indexed": true,
          "internalType": "uint256",
          "name": "index",
          "type": "uint256"
        },
        {
          "indexed": false,
          "internalType": "uint256",
          "name": "newStoppedValidatorCount",
          "type": "uint256"
        }
      ],
      "name": "SetOperatorStoppedValidatorCount",
      "type": "event"
    },
    {
      "anonymous": false,
      "inputs": [
        {
          "indexed": true,
          "internalType": "address",
          "name": "pendingAdmin",
          "type": "address"
        }
      ],
      "name": "SetPendingAdmin",
      "type": "event"
    },
    {
      "anonymous": false,
      "inputs": [
        {
          "indexed": true,
          "internalType": "address",
          "name": "river",
          "type": "address"
        }
      ],
      "name": "SetRiver",
      "type": "event"
    },
    {
      "anonymous": false,
      "inputs": [
        {
          "indexed": false,
          "internalType": "uint256",
          "name": "previousTotalValidatorExitsRequested",
          "type": "uint256"
        },
        {
          "indexed": false,
          "internalType": "uint256",
          "name": "newTotalValidatorExitsRequested",
          "type": "uint256"
        }
      ],
      "name": "SetTotalValidatorExitsRequested",
      "type": "event"
    },
    {
      "anonymous": false,
      "inputs": [
        {
          "indexed": true,
          "internalType": "uint256",
          "name": "index",
          "type": "uint256"
        },
        {
          "indexed": false,
          "internalType": "uint32",
          "name": "oldRequestedExits",
          "type": "uint32"
        },
        {
          "indexed": false,
          "internalType": "uint32",
          "name": "newRequestedExits",
          "type": "uint32"
        }
      ],
      "name": "UpdatedRequestedValidatorExitsUponStopped",
      "type": "event"
    },
    {
      "anonymous": false,
      "inputs": [
        {
          "indexed": false,
          "internalType": "uint32[]",
          "name": "stoppedValidatorCounts",
          "type": "uint32[]"
        }
      ],
      "name": "UpdatedStoppedValidators",
      "type": "event"
    },
    {
      "inputs": [],
      "name": "acceptAdmin",
      "outputs": [],
      "stateMutability": "nonpayable",
      "type": "function"
    },
    {
      "inputs": [
        {
          "internalType": "string",
          "name": "_name",
          "type": "string"
        },
        {
          "internalType": "address",
          "name": "_operator",
          "type": "address"
        }
      ],
      "name": "addOperator",
      "outputs": [
        {
          "internalType": "uint256",
          "name": "",
          "type": "uint256"
        }
      ],
      "stateMutability": "nonpayable",
      "type": "function"
    },
    {
      "inputs": [
        {
          "internalType": "uint256",
          "name": "_index",
          "type": "uint256"
        },
        {
          "internalType": "uint32",
          "name": "_keyCount",
          "type": "uint32"
        },
        {
          "internalType": "bytes",
          "name": "_publicKeysAndSignatures",
          "type": "bytes"
        }
      ],
      "name": "addValidators",
      "outputs": [],
      "stateMutability": "nonpayable",
      "type": "function"
    },
    {
      "inputs": [
        {
          "internalType": "uint256",
          "name": "_count",
          "type": "uint256"
        },
        {
          "internalType": "uint256",
          "name": "_depositedValidatorCount",
          "type": "uint256"
        }
      ],
      "name": "demandValidatorExits",
      "outputs": [],
      "stateMutability": "nonpayable",
      "type": "function"
    },
    {
      "inputs": [
        {
          "internalType": "uint256",
          "name": "_amountToEmit",
          "type": "uint256"
        }
      ],
      "name": "forceFundedValidatorKeysEventEmission",
      "outputs": [],
      "stateMutability": "nonpayable",
      "type": "function"
    },
    {
      "inputs": [],
      "name": "getAdmin",
      "outputs": [
        {
          "internalType": "address",
          "name": "",
          "type": "address"
        }
      ],
      "stateMutability": "view",
      "type": "function"
    },
    {
      "inputs": [],
      "name": "getCurrentValidatorExitsDemand",
      "outputs": [
        {
          "internalType": "uint256",
          "name": "",
          "type": "uint256"
        }
      ],
      "stateMutability": "view",
      "type": "function"
    },
    {
      "inputs": [
        {
          "internalType": "uint256",
          "name": "_count",
          "type": "uint256"
        }
      ],
      "name": "getNextValidatorsToDepositFromActiveOperators",
      "outputs": [
        {
          "internalType": "bytes[]",
          "name": "publicKeys",
          "type": "bytes[]"
        },
        {
          "internalType": "bytes[]",
          "name": "signatures",
          "type": "bytes[]"
        }
      ],
      "stateMutability": "view",
      "type": "function"
    },
    {
      "inputs": [
        {
          "internalType": "uint256",
          "name": "_index",
          "type": "uint256"
        }
      ],
      "name": "getOperator",
      "outputs": [
        {
          "components": [
            {
              "internalType": "uint32",
              "name": "limit",
              "type": "uint32"
            },
            {
              "internalType": "uint32",
              "name": "funded",
              "type": "uint32"
            },
            {
              "internalType": "uint32",
              "name": "requestedExits",
              "type": "uint32"
            },
            {
              "internalType": "uint32",
              "name": "keys",
              "type": "uint32"
            },
            {
              "internalType": "uint64",
              "name": "latestKeysEditBlockNumber",
              "type": "uint64"
            },
            {
              "internalType": "bool",
              "name": "active",
              "type": "bool"
            },
            {
              "internalType": "string",
              "name": "name",
              "type": "string"
            },
            {
              "internalType": "address",
              "name": "operator",
              "type": "address"
            }
          ],
          "internalType": "struct OperatorsV2.Operator",
          "name": "",
          "type": "tuple"
        }
      ],
      "stateMutability": "view",
      "type": "function"
    },
    {
      "inputs": [],
      "name": "getOperatorCount",
      "outputs": [
        {
          "internalType": "uint256",
          "name": "",
          "type": "uint256"
        }
      ],
      "stateMutability": "view",
      "type": "function"
    },
    {
      "inputs": [
        {
          "internalType": "uint256",
          "name": "_idx",
          "type": "uint256"
        }
      ],
      "name": "getOperatorStoppedValidatorCount",
      "outputs": [
        {
          "internalType": "uint32",
          "name": "",
          "type": "uint32"
        }
      ],
      "stateMutability": "view",
      "type": "function"
    },
    {
      "inputs": [],
      "name": "getPendingAdmin",
      "outputs": [
        {
          "internalType": "address",
          "name": "",
          "type": "address"
        }
      ],
      "stateMutability": "view",
      "type": "function"
    },
    {
      "inputs": [],
      "name": "getRiver",
      "outputs": [
        {
          "internalType": "address",
          "name": "",
          "type": "address"
        }
      ],
      "stateMutability": "view",
      "type": "function"
    },
    {
      "inputs": [],
      "name": "getStoppedAndRequestedExitCounts",
      "outputs": [
        {
          "internalType": "uint32",
          "name": "",
          "type": "uint32"
        },
        {
          "internalType": "uint256",
          "name": "",
          "type": "uint256"
        }
      ],
      "stateMutability": "view",
      "type": "function"
    },
    {
      "inputs": [],
      "name": "getStoppedValidatorCountPerOperator",
      "outputs": [
        {
          "internalType": "uint32[]",
          "name": "",
          "type": "uint32[]"
        }
      ],
      "stateMutability": "view",
      "type": "function"
    },
    {
      "inputs": [],
      "name": "getTotalStoppedValidatorCount",
      "outputs": [
        {
          "internalType": "uint32",
          "name": "",
          "type": "uint32"
        }
      ],
      "stateMutability": "view",
      "type": "function"
    },
    {
      "inputs": [],
      "name": "getTotalValidatorExitsRequested",
      "outputs": [
        {
          "internalType": "uint256",
          "name": "",
          "type": "uint256"
        }
      ],
      "stateMutability": "view",
      "type": "function"
    },
    {
      "inputs": [
        {
          "internalType": "uint256",
          "name": "_operatorIndex",
          "type": "uint256"
        },
        {
          "internalType": "uint256",
          "name": "_validatorIndex",
          "type": "uint256"
        }
      ],
      "name": "getValidator",
      "outputs": [
        {
          "internalType": "bytes",
          "name": "publicKey",
          "type": "bytes"
        },
        {
          "internalType": "bytes",
          "name": "signature",
          "type": "bytes"
        },
        {
          "internalType": "bool",
          "name": "funded",
          "type": "bool"
        }
      ],
      "stateMutability": "view",
      "type": "function"
    },
    {
      "inputs": [
        {
          "internalType": "address",
          "name": "_admin",
          "type": "address"
        },
        {
          "internalType": "address",
          "name": "_river",
          "type": "address"
        }
      ],
      "name": "initOperatorsRegistryV1",
      "outputs": [],
      "stateMutability": "nonpayable",
      "type": "function"
    },
    {
      "inputs": [],
      "name": "initOperatorsRegistryV1_1",
      "outputs": [],
      "stateMutability": "nonpayable",
      "type": "function"
    },
    {
      "inputs": [],
      "name": "listActiveOperators",
      "outputs": [
        {
          "components": [
            {
              "internalType": "uint32",
              "name": "limit",
              "type": "uint32"
            },
            {
              "internalType": "uint32",
              "name": "funded",
              "type": "uint32"
            },
            {
              "internalType": "uint32",
              "name": "requestedExits",
              "type": "uint32"
            },
            {
              "internalType": "uint32",
              "name": "keys",
              "type": "uint32"
            },
            {
              "internalType": "uint64",
              "name": "latestKeysEditBlockNumber",
              "type": "uint64"
            },
            {
              "internalType": "bool",
              "name": "active",
              "type": "bool"
            },
            {
              "internalType": "string",
              "name": "name",
              "type": "string"
            },
            {
              "internalType": "address",
              "name": "operator",
              "type": "address"
            }
          ],
          "internalType": "struct OperatorsV2.Operator[]",
          "name": "",
          "type": "tuple[]"
        }
      ],
      "stateMutability": "view",
      "type": "function"
    },
    {
      "inputs": [
        {
          "internalType": "uint256",
          "name": "_count",
          "type": "uint256"
        }
      ],
      "name": "pickNextValidatorsToDeposit",
      "outputs": [
        {
          "internalType": "bytes[]",
          "name": "publicKeys",
          "type": "bytes[]"
        },
        {
          "internalType": "bytes[]",
          "name": "signatures",
          "type": "bytes[]"
        }
      ],
      "stateMutability": "nonpayable",
      "type": "function"
    },
    {
      "inputs": [
        {
          "internalType": "address",
          "name": "_newAdmin",
          "type": "address"
        }
      ],
      "name": "proposeAdmin",
      "outputs": [],
      "stateMutability": "nonpayable",
      "type": "function"
    },
    {
      "inputs": [
        {
          "internalType": "uint256",
          "name": "_index",
          "type": "uint256"
        },
        {
          "internalType": "uint256[]",
          "name": "_indexes",
          "type": "uint256[]"
        }
      ],
      "name": "removeValidators",
      "outputs": [],
      "stateMutability": "nonpayable",
      "type": "function"
    },
    {
      "inputs": [
        {
          "internalType": "uint32[]",
          "name": "_stoppedValidatorCounts",
          "type": "uint32[]"
        },
        {
          "internalType": "uint256",
          "name": "_depositedValidatorCount",
          "type": "uint256"
        }
      ],
      "name": "reportStoppedValidatorCounts",
      "outputs": [],
      "stateMutability": "nonpayable",
      "type": "function"
    },
    {
      "inputs": [
        {
          "internalType": "uint256",
          "name": "_count",
          "type": "uint256"
        }
      ],
      "name": "requestValidatorExits",
      "outputs": [],
      "stateMutability": "nonpayable",
      "type": "function"
    },
    {
      "inputs": [
        {
          "internalType": "uint256",
          "name": "_index",
          "type": "uint256"
        },
        {
          "internalType": "address",
          "name": "_newOperatorAddress",
          "type": "address"
        }
      ],
      "name": "setOperatorAddress",
      "outputs": [],
      "stateMutability": "nonpayable",
      "type": "function"
    },
    {
      "inputs": [
        {
          "internalType": "uint256[]",
          "name": "_operatorIndexes",
          "type": "uint256[]"
        },
        {
          "internalType": "uint32[]",
          "name": "_newLimits",
          "type": "uint32[]"
        },
        {
          "internalType": "uint256",
          "name": "_snapshotBlock",
          "type": "uint256"
        }
      ],
      "name": "setOperatorLimits",
      "outputs": [],
      "stateMutability": "nonpayable",
      "type": "function"
    },
    {
      "inputs": [
        {
          "internalType": "uint256",
          "name": "_index",
          "type": "uint256"
        },
        {
          "internalType": "string",
          "name": "_newName",
          "type": "string"
        }
      ],
      "name": "setOperatorName",
      "outputs": [],
      "stateMutability": "nonpayable",
      "type": "function"
    },
    {
      "inputs": [
        {
          "internalType": "uint256",
          "name": "_index",
          "type": "uint256"
        },
        {
          "internalType": "bool",
          "name": "_newStatus",
          "type": "bool"
        }
      ],
      "name": "setOperatorStatus",
      "outputs": [],
      "stateMutability": "nonpayable",
      "type": "function"
    },
    {
      "inputs": [],
      "name": "version",
      "outputs": [
        {
          "internalType": "string",
          "name": "",
          "type": "string"
        }
      ],
      "stateMutability": "pure",
      "type": "function"
    }
  ],
  "transactionHash": "0xad05145e9d11d88e5f5c49bc599a0ff162ca610315afb43be2eabfc0e3b469d6",
  "args": [],
  "numDeployments": 1,
  "solcInputHash": "762834da2cfe67e977958281c99d1a0e",
  "bytecode": "0x60808060405234610092577f1809e49bba43f2d39fa57894b50cd6ccb428cc438230e065cac3eb24a1355a7190600019807f82055909238c0f5e63d6f174068ebb8f51bcec9bd37de63bb68f6551feec0cfc558152604060208201523660408201523660006060830137600060603683010152606081601f19601f3601168101030190a160405161414d90816100988239f35b600080fdfe6080604052600436101561001257600080fd5b60003560e01c806305f63c8a146102075780630e18b68114610202578063147bf6c4146101fd5780631864636c146101f85780631a4a7c61146101f3578063217aad3c146101ee578063277c9d45146101e95780632d1fc39d146101e4578063354454c5146101df5780633587ad60146101da57806339251321146101d55780634a3c63bb146101d057806350545d2f146101cb57806354001d09146101c657806354fd4d50146101c15780635876220f146101bc5780635a16f135146101b757806361685d9f146101b257806363b4118f146101ad5780636e9960c3146101a857806370b23845146101a3578063718929ad1461019e5780638cb310031461019957806390de236f14610194578063a519f0601461018f578063b0da59b21461018a578063b405e17414610185578063b53b937b14610180578063d04681561461017b578063eb47adc6146101765763f87e52961461017157600080fd5b611a02565b6119e6565b6119b0565b611995565b61129e565b611273565b61123d565b611212565b611133565b611071565b611028565b610fe4565b610f7a565b610f4e565b610eb6565b610e35565b610dd8565b610ce4565b610bb0565b610b58565b610b1c565b610ad3565b6107fc565b61076a565b61071f565b6104dd565b6104b2565b610474565b6103d0565b610322565b6102d5565b919082519283825260005b848110610238575050826000602080949584010152601f8019910116010190565b602081830181015184830182015201610217565b906102d29063ffffffff80845116825280602085015116602083015280604085015116604083015260608401511660608201526001600160401b0360808401511660808201526102a560a084015160a083019015159052565b60e0806102c160c08601516101008060c087015285019061020c565b9401516001600160a01b0316910152565b90565b3461031d57602036600319011261031d576102ee612006565b50610319610305610300600435613636565b611cd0565b60405191829160208352602083019061024c565b0390f35b600080fd5b3461031d576000806003193601126103a1576000805160206140388339815191528054906001600160a01b0382163303610389576103608392611a26565b55807f2a0f8515de3fa34ef68b99300347b8793c01683350743e96fe440594528298f48180a280f35b60405163472511eb60e11b8152336004820152602490fd5b80fd5b600435906001600160a01b038216820361031d57565b602435906001600160a01b038216820361031d57565b3461031d57602036600319011261031d576103e96103a4565b6000805160206140d8833981519152546001600160a01b03919082163303610389578060008051602061403883398151915255167f2a0f8515de3fa34ef68b99300347b8793c01683350743e96fe440594528298f4600080a2005b9181601f8401121561031d578235916001600160401b03831161031d576020808501948460051b01011161031d57565b3461031d57604036600319011261031d576024356001600160401b03811161031d576104a76104b0913690600401610444565b90600435612893565b005b3461031d57600036600319011261031d5760206000805160206140f883398151915254604051908152f35b3461031d576000806003193601126103a1577f82055909238c0f5e63d6f174068ebb8f51bcec9bd37de63bb68f6551feec0cfc8054906001918083036106805750600290557f794c962401f2e1bb68ba8627fb26fd4eea0439023c691c35b68bb144bfe1011254825b81811061058357837f1809e49bba43f2d39fa57894b50cd6ccb428cc438230e065cac3eb24a1355a716040518061057d3682611ac4565b0390a180f35b8061058e84926135db565b61059790611f91565b606090818101516105ab9063ffffffff1690565b9160809088828401516105c19063ffffffff1690565b9160a090818601516105d69063ffffffff1690565b9460e095868801516105ee906001600160401b031690565b9288516105fa90151590565b956020998a810151986040809201516106189060018060a01b031690565b9b610621611c85565b63ffffffff909e168e5263ffffffff909116908d01528b015263ffffffff909116908901526001600160401b03909116908701529015159085015260c08401526001600160a01b039091169082015261067990613a4a565b5001610546565b8260449160405191631cfd276760e31b835260048301526024820152fd5b908082519081815260208091019281808460051b8301019501936000915b8483106106cc5750505050505090565b90919293949584806106ea600193601f198682030187528a5161020c565b98019301930191949392906106bc565b90916107116102d29360408452604084019061069e565b91602081840391015261069e565b3461031d57602036600319011261031d576000805160206140b8833981519152546001600160a01b031633036103895761075a600435612e15565b90610319604051928392836106fa565b3461031d57604036600319011261031d576000805160206140b883398151915254602435906001600160a01b03163303610389576000805160206140188339815191525490600080516020613ff8833981519152548281018091116107f75781039081116107f7576107de906004356135ca565b806107e557005b81018082116107f7576104b091612b74565b611a71565b3461031d5760608060031936011261031d576001600160401b036004803582811161031d5761082e9036908301610444565b93909160243584811161031d576108489036908301610444565b6000805160206140d883398151915254919690959160443591906001600160a01b03163303610abc57868103610aab578015610a9a5760005b81811061088a57005b6108958183896126e5565b356108a96108a4838b8d6126e5565b6126f5565b82151580610a77575b610a66576108bf82613636565b805463ffffffff8381169188828216848114610a1f578b8360801c169081831080610a16575b6109c55750505081818d1c16808411610990575060201c168091106109565750805463ffffffff191663ffffffff92909216918217905560405190815260019291907f3adbeb5fbb94c52b64d90b31188c68a740868dde2238e03a04d581cae22cedf090602090a201965b96610881565b60405163044816df60e51b815293849361098c935090848b0190815263ffffffff91821660208201529116604082015260600190565b0390fd5b60408051630d7bdb4960e41b8152808e0189815263ffffffff808a166020830152909316918301919091529081906060010390fd5b6040805163ffffffff92831681529890911660208901526001999892979196509194507f5482b63bdf9e3775fdd3157e4933cfbc1d6fa1ec354ed3fc9a547e5438fd3e4e9350909150a40196610950565b508086116108e5565b505060405163ffffffff9590951685525060019594937fe8b22569f1f7ba3802b89b579382ccac4e223f8062d6dd73f9cd757bd46ff8aa9350602092509050a20196610950565b6040516357e557ed60e11b81528790fd5b50610a95610a8e610a8785611d8d565b868c6126e5565b3583111590565b6108b2565b604051637b329aa360e01b81528490fd5b60405163a9854bc960e01b81528490fd5b60405163472511eb60e11b81523381860152602490fd5b3461031d57602036600319011261031d5761075a600435612295565b9181601f8401121561031d578235916001600160401b03831161031d576020838186019501011161031d57565b3461031d57604036600319011261031d576024356001600160401b03811161031d57610b4f6104b0913690600401610aef565b906004356124c1565b3461031d57600036600319011261031d57610b71612b46565b600080516020613ff883398151915254906000805160206140188339815191525482018092116107f75760409163ffffffff8351921682526020820152f35b3461031d5760408060031936011261031d576001600160401b0360043581811161031d57610be2903690600401610aef565b9091610bec6103ba565b6000805160206140d8833981519152546001600160a01b03929083163303610ccd57610cbc9492869492610cac610ca77f28febbb5486eda5a1e47ad578f9cb32c8a1983c86c80ab823ea5dc1fc04ede5e94610c7c6103199b5191610c5083611c10565b600083526000602084015260008b84015260006060840152431660808301906001600160401b03169052565b600160a0820152610c8e36888a612362565b60c08201526001600160a01b03841660e0820152613a4a565b611d8d565b96879487519384931696836123a8565b0390a3519081529081906020820190565b855163472511eb60e11b8152336004820152602490fd5b3461031d57604036600319011261031d57610cfd6103a4565b610d056103ba565b7f82055909238c0f5e63d6f174068ebb8f51bcec9bd37de63bb68f6551feec0cfc805480610db957507f1809e49bba43f2d39fa57894b50cd6ccb428cc438230e065cac3eb24a1355a71926001610d5c9255611a26565b610d658161357f565b6000805160206140b8833981519152819055604051906001600160a01b03167ffc0d749143b04e0d92a3b49edae84a45f6bc88b75e99d9118ec4d7e87fe626c5600080a280610db43682611adc565b0390a1005b60449060405190631cfd276760e31b8252600060048301526024820152fd5b3461031d57600036600319011261031d5760405160408101908082106001600160401b03831117610e3057610319916040526005815264312e322e3160d81b602082015260405191829160208352602083019061020c565b611bfa565b3461031d57600036600319011261031d57610e4e612045565b805180610ea0575b50604051809160208083018184528251809152816040850193019160005b828110610e8357505050500390f35b835163ffffffff1685528695509381019392810192600101610e74565b6000825260001901602090910190815238610e56565b3461031d57604036600319011261031d576004356024358015159081810361031d576000805160206140d8833981519152546001600160a01b03163303610389577fe3bc5e5d3b000a1f65d146c40a38d89b1743b5729f4c6fe65f2e4b2dc620f2f291610f45602092610f2886613636565b805460ff60c01b191691151560c01b60ff60c01b16919091179055565b604051908152a2005b3461031d57602036600319011261031d576020610f6c600435613672565b63ffffffff60405191168152f35b3461031d57604036600319011261031d57610fc7600435610fb160243563ffffffff610fd5610fa98386613e16565b949095613636565b549360405196879660608852606088019061020c565b90868203602088015261020c565b9260201c161160408301520390f35b3461031d57600036600319011261031d576000805160206140d8833981519152546040516001600160a01b039091168152602090f35b63ffffffff81160361031d57565b3461031d57606036600319011261031d576024356110458161101a565b604435906001600160401b03821161031d576110686104b0923690600401610aef565b916004356126ff565b3461031d57602036600319011261031d576000805160206140188339815191525461109e600435826135ca565b80156110bf576110ad90613167565b81038181116107f7576104b091612b74565b60405163ed94f97f60e01b8152600490fd5b602080820190808352835180925260408301928160408460051b8301019501936000915b8483106111055750505050505090565b9091929394958480611123600193603f198682030187528a5161024c565b98019301930191949392906110f5565b3461031d576000806003193601126103a157806000805160206140f88339815191525461115f81612c66565b9161116d6040519384611c47565b818352601f1961117c83612c66565b01815b8181106111fb5750505b8181106111a1578383526040518061031985826110d1565b6111b86111ad82612c18565b505460c01c60ff1690565b6111c5575b600101611189565b92600180916111dc6111d687612c18565b50611cd0565b6111e6828761227c565b526111f1818661227c565b50019390506111bd565b602090611206612006565b8282880101520161117f565b3461031d57600036600319011261031d576020600080516020613ff883398151915254604051908152f35b3461031d57600036600319011261031d576000805160206140b8833981519152546040516001600160a01b039091168152602090f35b3461031d57600036600319011261031d57602060008051602061401883398151915254604051908152f35b3461031d5760408060031936011261031d57600480356001600160401b03811161031d576112cf9036908301610444565b6000805160206140b8833981519152549091906001600160a01b0316330361197f576112f9612bc1565b9382855282156119705761130d8551611d8d565b6000805160206140f88339815191525410611961576020850161132e612045565b808252519082870191808352875110611951578196956113516108a487876126dc565b63ffffffff1660608801908152608088019760008952600080516020614018833981519152549060a081019082825260c08101928352600080516020613ff8833981519152549060e0810190828252610100810192835260016000995b5181101561166b576113c46108a4828f8f6126e5565b6113e86113df6113d5848d5161227c565b5163ffffffff1690565b63ffffffff1690565b63ffffffff8092161061165b576114056108a48f8f9085916126e5565b8161142b6113df61141d61141887611d8d565b612c18565b505460201c63ffffffff1690565b9116116115ff578d8f918d8f916114466108a48786866126e5565b906114676113df6114596114188a611d8d565b505460401c63ffffffff1690565b911611611500575b6114dd6108a4866114f9958197956114ef957f773694db4f98cd263e42d4f798bcf603781d4491e48e8cbe96c219c1f13b777d6114d56114b060019d611d8d565b926114bf6108a48888886126e5565b905163ffffffff90911681529081906020820190565b0390a26126e5565b825163ffffffff1661279a565b61279a565b63ffffffff169052565b018e6113ae565b9c908493918e61150f86611d8d565b9061151987611d8d565b61152290612c18565b505460401c63ffffffff16906115398888876126e5565b611542906126f5565b905163ffffffff9283168152911660208201527f281aaa50816d3a5bf2911e3c0854a3f2ebe4880698575d799ff5becfd74d777890604090a26115868585846126e5565b61158f906126f5565b61159886611d8d565b6115a190612c18565b505460401c63ffffffff166115b5916128fe565b63ffffffff166115c491611a95565b9d6115d08585846126e5565b6115d9906126f5565b6115e286611d8d565b6115eb90612c18565b50906115f691612c43565b9091935061146f565b8c898f8e8561162d61141d6114186116276108a48561098c9861162182611d8d565b9b6126e5565b93611d8d565b915163febc7af160e01b8152948594850190815263ffffffff91821660208201529116604082015260600190565b8b516333bbc48560e21b81528990fd5b909c9b9a999897505b8c518110156118445761168b6108a4828d8d6126e5565b61169d6113df61141d61141885611d8d565b63ffffffff80921611611822578b8b8b8f936116bd6108a48786866126e5565b906116d06113df6114596114188a611d8d565b91161161171f575b6114dd6108a486611719958197956114ef957f773694db4f98cd263e42d4f798bcf603781d4491e48e8cbe96c219c1f13b777d6114d56114b060019d611d8d565b01611674565b505050509661172d88611d8d565b8b8b8a61173981611d8d565b61174290612c18565b505460401c63ffffffff1692611757926126e5565b611760906126f5565b8b5163ffffffff9283168152911660208201527f281aaa50816d3a5bf2911e3c0854a3f2ebe4880698575d799ff5becfd74d777890604090a26117a4888c8c6126e5565b6117ad906126f5565b6117b689611d8d565b6117bf90612c18565b505460401c63ffffffff166117d3916128fe565b63ffffffff166117e291611a95565b96808b8d8c8c6117f38585846126e5565b6117fc906126f5565b61180586611d8d565b61180e90612c18565b509061181991612c43565b909193506116d8565b8a8861098c8c8f61162d61141d6114186116276108a48b809661162182611d8d565b5061186f8b9596979a99989a61185b818451611a95565b8352611869855180926135ca565b90611d9c565b835251905190818103611941575b505051905190818103611931575b50506118ac6113df6118a1845163ffffffff1690565b925163ffffffff1690565b63ffffffff80921603611921576118ca602435925163ffffffff1690565b16116119135750610db47fb795d99e37bbcdcebb613387f4e924b750cbae0af45b48ba52bfe1137c10e99293611909611904368686612c7d565b613d16565b5192839283612cd5565b8351634eb7083160e01b8152fd5b8551636be992a360e11b81528390fd5b61193a91612b74565b868061188b565b61194a9161343c565b888061187d565b8251634dbe00c960e01b81528690fd5b51634eb7083160e01b81528390fd5b516397791ee160e01b81528390fd5b835163472511eb60e11b81523381850152602490fd5b3461031d57600036600319011261031d576020610f6c612b46565b3461031d57600036600319011261031d57600080516020614038833981519152546040516001600160a01b039091168152602090f35b3461031d57602036600319011261031d576104b0600435611dde565b3461031d57604036600319011261031d576104b0611a1e6103ba565b6004356123d0565b611a2f8161357f565b6000805160206140d88339815191528190556001600160a01b03167f5a272403b402d892977df56625f4164ccaf70ca3863991c43ecfe76a6905b0a1600080a2565b634e487b7160e01b600052601160045260246000fd5b90600182018092116107f757565b919082018092116107f757565b90602091808252806000848401376000828201840152601f01601f1916010190565b9060406102d292600181528160208201520190611aa2565b9060406102d292600081528160208201520190611aa2565b90600182811c92168015611b24575b6020831014611b0e57565b634e487b7160e01b600052602260045260246000fd5b91607f1691611b03565b6000805160206140988339815191526000527f95aa751b3a4112433a8300d32b75142a98253c58b18f312756921c204709ced890565b9060009291805491611b7583611af4565b918282526001938481169081600014611bd75750600114611b97575b50505050565b90919394506000526020928360002092846000945b838610611bc3575050505001019038808080611b91565b805485870183015294019385908201611bac565b9294505050602093945060ff191683830152151560051b01019038808080611b91565b634e487b7160e01b600052604160045260246000fd5b61010081019081106001600160401b03821117610e3057604052565b602081019081106001600160401b03821117610e3057604052565b90601f801991011681019081106001600160401b03821117610e3057604052565b90611c83611c7c9260405193848092611b64565b0383611c47565b565b60405190611c8382611c10565b6040519060a082018281106001600160401b03821117610e3057604052565b60405190608082018281106001600160401b03821117610e3057604052565b90611c83604051611ce081611c10565b60e0611d7f60028396611d6060ff8254611d4163ffffffff8083168a52611d15818460201c1660208c019063ffffffff169052565b611d2d818460401c1660408c019063ffffffff169052565b8260601c1660608a019063ffffffff169052565b608081811c6001600160401b03169089015260c01c16151560a0870152565b611d6c60018201611c68565b60c086015201546001600160a01b031690565b6001600160a01b0316910152565b6000198101919082116107f757565b919082039182116107f757565b91906020611dc160019260408652604086019061069e565b930152565b91906020611dc160009260408652604086019061069e565b60008051602061407883398151915254600019808214611f7f576000805160206140f883398151915291825415611f635791927fbd3f712f2cd882f839e84eb12fdaf64f8227409d140027dbdcd5e2ee4d57fa1f54905b80151580611f59575b15611f17576020611e5161030086613636565b0191611e80611e79611e7383611e6e6113df885163ffffffff1690565b611d9c565b846135ca565b8287613e78565b5092857f0786596b8e43634ef53d523fd318795a1182175b0b0a658bc4aac58ecfcc541160405180611eb28882611da9565b0390a2611ec66113df6118a1865185611a95565b03611eff5750611eee90600094611edd8754611d8d565b8103611ef6575083925b5190611d9c565b929092611e35565b60010192611ee7565b90611f11611eee928496945190611a95565b94611ee7565b5091611c839350611f35915060008051602061407883398151915255565b7fbd3f712f2cd882f839e84eb12fdaf64f8227409d140027dbdcd5e2ee4d57fa1f55565b5082841415611e3e565b50505050611c8360001960008051602061407883398151915255565b604051630871a03f60e01b8152600490fd5b906007611f9c611c85565b92611fb1611fab825460ff1690565b15158552565b611fbd60018201611c68565b602085015260028101546001600160a01b031660408501526003810154606085015260048101546080850152600581015460a0850152600681015460c0850152015460e0830152565b6040519061201382611c10565b8160e06000918281528260208201528260408201528260608201528260808201528260a0820152606060c08201520152565b60408051600080516020614098833981519152548082529092918390602082019061206e611b2e565b9360005b81600782011061219357611c8395549282821061217a575b82821061215d575b828210612143575b50818110612128575b81811061210d575b8181106120f2575b8181106120d7575b106120c9575b500383611c47565b60e01c8152602001386120c1565b60c083901c63ffffffff1684529260019060200193016120bb565b60a083901c63ffffffff1684529260019060200193016120b3565b608083901c63ffffffff1684529260019060200193016120ab565b606083901c63ffffffff1684529260019060200193016120a3565b83901c63ffffffff1684529260019060200193013861209a565b602084811c63ffffffff1686529194909160019101940190612092565b63ffffffff84168552909360019060200194019061208a565b919350916001610100600892612247885461223c63ffffffff6121bd8582851663ffffffff169052565b6121d460208285828901921c1663ffffffff169052565b63ffffffff838c1c821616858c01526121fa60608285828901921c1663ffffffff169052565b61221160808285828901921c1663ffffffff169052565b61222860a08285828901921c1663ffffffff169052565b60c09083828701921c1663ffffffff169052565b60e090811c90830152565b0195019101918693919492612072565b60001981146107f75760010190565b634e487b7160e01b600052603260045260246000fd5b80518210156122905760209160051b010190565b612266565b60609182916122a2613741565b918215612359576122b4908383612f72565b60005b8281106122c357505050565b60806122e26113df826122d6858761227c565b51015163ffffffff1690565b6122f6575b506122f190612257565b6122b7565b81959661234c6123466123529361231560606122d66122f1988a61227c565b6122d68b8961233c61232c60206122d6858561227c565b9563ffffffff948594859461227c565b1693169116613e78565b92612d7d565b97612d7d565b94906122e7565b50606093505050565b9291926001600160401b038211610e30576040519161238b601f8201601f191660200184611c47565b82948184528183011161031d578281602093846000960137010152565b90918060409360208452816020850152848401376000828201840152601f01601f1916010190565b9060018060a01b036000805160206140d883398151915254163314612452576123f882613636565b80546124089060c01c60ff161590565b612439576002015461242a906001600160a01b03165b6001600160a01b031690565b330361038957611c8391612457565b6040516301550a7360e41b815260048101849052602490fd5b611c83915b906124618161357f565b61249081600261247085613636565b0180546001600160a01b0319166001600160a01b03909216919091179055565b6001600160a01b0316907f08a670ef4110fe90a7d61086d1477cde043a940601bd853a50009ac5a5ba56e7600080a3565b919060018060a01b036000805160206140d88339815191525416331461253c576124ea83613636565b80546124fa9060c01c60ff161590565b6125235760020154612514906001600160a01b031661241e565b330361038957611c83926125a1565b6040516301550a7360e41b815260048101859052602490fd5b611c83926125a1565b818110612550575050565b60008155600101612545565b9190601f811161256b57505050565b611c83926000526020600020906020601f840160051c83019310612597575b601f0160051c0190612545565b909150819061258a565b9092916125b76125b2368387612362565b6135a1565b600193846125c484613636565b016001600160401b038311610e30576125e7836125e18354611af4565b8361255c565b600095601f8411600114612654578380917f9ad13f126d3d603b0b284edba7645ca0e423840767c48809bb5f87e72197e114969798600093612649575b501b906000198560031b1c19161790555b612644604051928392836123a8565b0390a2565b850135925038612624565b601f1984169661266983600052602060002090565b90805b8981106126c65750857f9ad13f126d3d603b0b284edba7645ca0e423840767c48809bb5f87e72197e114979899106126ac575b505083811b019055612635565b840135600019600387901b60f8161c19169055388061269f565b858201358355918301916020918201910161266c565b90156122905790565b91908110156122905760051b0190565b356102d28161101a565b92919060018060a01b036000805160206140d88339815191525416331461277b5761272984613636565b80546127399060c01c60ff161590565b6127625760020154612753906001600160a01b031661241e565b330361038957611c83936127b2565b6040516301550a7360e41b815260048101869052602490fd5b611c83936127b2565b906090820291808304609014901517156107f757565b91909163ffffffff808094169116019182116107f757565b919392909363ffffffff94858116958615612881576127d087612784565b840361286f576127f26113df6127e587613636565b5460601c63ffffffff1690565b9660005b81811061283757505061263591612831917f402e5ac3e483073137c527378b15e69f7f4a1c75c1adc0aa36f0c456876c05a09697981661279a565b85613bf7565b80612869612859612849600194612784565b612854368b8b612362565b61352b565b612863838d611a95565b8a613f2b565b016127f6565b604051630368f86360e41b8152600490fd5b6040516379b348ff60e11b8152600490fd5b919060018060a01b036000805160206140d8833981519152541633146128f5576128bc83613636565b80546128cc9060c01c60ff161590565b61252357600201546128e6906001600160a01b031661241e565b330361038957611c839261293d565b611c839261293d565b63ffffffff91821690821603919082116107f757565b60405161292081611c2c565b60008152906000368137565b9060206102d292818152019061020c565b91909181156128815761294f81613636565b91825463ffffffff92838260601c16928361296a82896126dc565b351015612b345761298461297d82611d8d565b82896126e5565b3596858460201c168810612b225790859392916129ac6129a6868416886128fe565b84613bf7565b6000915b808310612a1b575050505016036129e657508054611c83925060601c63ffffffff1663ffffffff1663ffffffff19825416179055565b6129f76113df835463ffffffff1690565b8310612a0257505050565b611c83921663ffffffff1663ffffffff19825416179055565b909192939450612a2c8382846126e5565b359280151580612aff575b612aed577f70cf8064c7574b284afe278226e25779f45a4c3715653674aa651b34e9a19092612adf600187930195612ad3612a72888c611d9c565b612ac4612a7f8488613e16565b5093612abd612ab884612aa98b600052600080516020614058833981519152602052604060002090565b90600052602052604060002090565b611c68565b9088613f2b565b612acc612914565b9086613f2b565b6040519182918261292c565b0390a29086949392916129b0565b60405163c9ee26af60e01b8152600490fd5b50612b1d612b16612b0f83611d8d565b84866126e5565b3585101590565b612a37565b60405163213af80760e21b8152600490fd5b6040516317df2d8d60e01b8152600490fd5b600080516020614098833981519152805415612b6e5760005263ffffffff6020600020541690565b50600090565b6000805160206140188339815191528290556040805191825260208201929092527f209bf6aaa2d8c150b27b3c081f8c86a46f008cc41d11f2ffaeb0a08d9b933e0691819081015b0390a1565b6040519061012082018281106001600160401b03821117610e305760405281610100600091828152606060208201528260408201528260608201528260808201528260a08201528260c08201528260e08201520152565b6000805160206140f88339815191528054821015612290576000526003602060002091020190600090565b805463ffffffff60401b191660409290921b63ffffffff60401b16919091179055565b6001600160401b038111610e305760051b60200190565b9291612c8882612c66565b91612c966040519384611c47565b829481845260208094019160051b810192831161031d57905b828210612cbc5750505050565b8380918335612cca8161101a565b815201910190612caf565b90916040602092828482018583525201929160005b828110612cf8575050505090565b90919293828060019263ffffffff8835612d118161101a565b16815201950193929101612cea565b604051612d2c81611c2c565b6000815290565b90612d3d82612c66565b612d4a6040519182611c47565b8281528092612d5b601f1991612c66565b019060005b828110612d6c57505050565b806060602080938501015201612d60565b918251825181018091116107f757612d9490612d33565b9060005b8451811015612dcb5780612dae6001928761227c565b51612db9828661227c565b52612dc4818561227c565b5001612d98565b509160005b8151811015612e0e5780612e07612de96001938561227c565b51612df5885184611a95565b90612e00828861227c565b528561227c565b5001612dd0565b5090925050565b6060918291612e22613741565b918215612f5b57612e34908383612f72565b60005b828110612e4357505050565b6080612e566113df826122d6858761227c565b612e6a575b50612e6590612257565b612e37565b949590612f55612f04612ef983612ef387612e6597612ebc6113df60608f612eb46122d691612e9d846122d68c8b61227c565b6122d68b8a61233c61232c60206122d6858561227c565b98909661227c565b7f0786596b8e43634ef53d523fd318795a1182175b0b0a658bc4aac58ecfcc541160405180612eeb8682611dc6565b0390a2612d7d565b9a612d7d565b976122d6848761227c565b612f34612f21612f1c6113df60606122d6888b61227c565b613636565b916114ea835463ffffffff9060201c1690565b67ffffffff0000000082549160201b169067ffffffff000000001916179055565b90612e5b565b505050915050612f69612d20565b906102d2612d20565b91805b612f7e57505050565b6000905b82821061308a575b828214611b9157612f9a82611a87565b83811061303557509081611e6e8261301561300e61302f966130096130046113df8c612ffe612fd7612fcc8a8461227c565b515163ffffffff1690565b91612ff8612fea60206122d68d8561227c565b916122d660809c8d9261227c565b9061279a565b906128fe565b6135bb565b6135ca565b948861227c565b51016114ef63ffffffff85166114ea835163ffffffff1690565b80612f75565b613048613042828761227c565b516130d4565b613055613042858861227c565b1180613071575b613069575b600101612f9a565b915081613061565b5061308561307f828761227c565b516130ae565b61305c565b919061309961307f828661227c565b6130a7576001019091612f82565b9091612f8a565b63ffffffff806130cb81602085015116826080860151169061279a565b92511691161090565b61310363ffffffff91612ffe8360606130fa82602086015116836080870151169061279a565b93015116613672565b1690565b91909163ffffffff808094169116029182169182036107f757565b634e487b7160e01b600052601260045260246000fd5b9063ffffffff80911691821561314d57160690565b613122565b9063ffffffff80911691821561314d57160490565b906131706138aa565b809391931561340f57600080516020613ff88339815191525482918190835b613270575b60005b8181106131c55750506102d29495508181036131b5575b5050611d9c565b6131be9161343c565b38806131ae565b60019060606131db6113df826122d6858e61227c565b6131e7575b5001613197565b7f0377278faa3eeab09525915d783771e1b00fec4797719afc368b56f685627925613267604061323f8d612ff86132256113df856122d68b8661227c565b966122d68961323960206122d6838861227c565b9461227c565b906132528261324d87613636565b612c43565b5163ffffffff90911681529081906020820190565b0390a2386131e0565b939060008081825b888110613388575063ffffffff9283831692831561337c57866130096113df856132a86132ad966113df966128fe565b613107565b916132c56132be6113df8486613138565b9284613152565b9060005b8c8b82106132f45750505050506132ed92916132e791168092611a95565b92611d9c565b938461318f565b61330b6113df61330584869461227c565b51613417565b14613319575b6001016132c9565b8c6133578515159160008484600014613368576114ef915061334660609161323960ff60015b168b61279a565b5101916114ea835163ffffffff1690565b156133115760001990930192613311565b61334660609161323960ff6114ef9561333f565b50505050509093613194565b94979593989061339d613305878d9a9d61227c565b63ffffffff91908281168584168181036133cd5750505090600180920116955b0199969998939597949098613278565b819297939491969596116000146133ed57505050509190600180956133bd565b8296929893989594951610613406575b506001906133bd565b935060016133fd565b506000925050565b6102d290612ffe63ffffffff918281511692606081602084015116920151169061279a565b600080516020613ff88339815191528290556040805191825260208201929092527f0aa79fd8feb16e52ff075abb8f8bec67362d3b06b2ed230008e7810515286bf09181908101612bbc565b60308151106134d1576040519060108201906010604084019101905b8083106134be57505060308252601f01601f191660405290565b90918251815260208091019201906134a4565b604051633b99b53d60e01b8152600490fd5b60908151106134d1576040519060208083019160500190608084015b80841061351a5750506060835250601f01601f191660405290565b8251845292810192918101916134ff565b90815160908201908183116107f757106134d1576040519160108084019260a08501920101905b80831061356c57505060908252601f01601f191660405290565b9091825181526020809101920190613552565b6001600160a01b03161561358f57565b60405163f6b2911f60e01b8152600490fd5b51156135a957565b604051638d46fe0560e01b8152600490fd5b60058111156102d25750600590565b818111156135d6575090565b905090565b7f794c962401f2e1bb68ba8627fb26fd4eea0439023c691c35b68bb144bfe1011280548281111561361d578210156122905760005260206000209060031b0190565b6040516302d72d2160e01b815260048101849052602490fd5b806000805160206140f883398151915254111561365a5761365690612c18565b5090565b602490604051906302d72d2160e01b82526004820152fd5b600181018091116107f7576000805160206140988339815191529081548110156136b65763ffffffff9160005260e060206000208260031c01549160051b161c1690565b5050600090565b906136c782612c66565b60406136d581519283611c47565b83825281936136e6601f1991612c66565b019060005b8281106136f85750505050565b81519060a08201918083106001600160401b03841117610e30576020928452600081528260008183015260008583015260006060830152600060808301528287010152016136eb565b600090816000805160206140f88339815191525461375e816136bd565b91805b828110613772575050508281529190565b6137866137816111d683612c18565b613c50565b80613806575b613799575b600101613761565b94600180916137a788612c18565b50546137e16137b4611c92565b63ffffffff8381168252602084811c821690830152604093841c811693820193909352918a166060830152565b8460808201526137f1828861227c565b526137fc818761227c565b5001959050613791565b5061381081613672565b63ffffffff6138246113df61145985612c18565b9116101561378c565b9061383782612c66565b604061384581519283611c47565b8382528193613856601f1991612c66565b019060005b8281106138685750505050565b81519060808201918083106001600160401b03841117610e3057602092845260008152826000818301526000858301526000606083015282870101520161385b565b600090816000805160206140f8833981519152546138c78161382d565b91805b8281106138db575050508281529190565b6138ef6138ea6111d683612c18565b613c76565b6138fc575b6001016138ca565b946001809161390a88612c18565b5054613957613917611cb1565b9163ffffffff61394960206139368385831c16879063ffffffff169052565b63ffffffff604094851c84161690860152565b8b1663ffffffff1690830152565b846060820152613967828861227c565b52613972818761227c565b50019590506138f4565b91909182516001600160401b038111610e30576139a38161399d8454611af4565b8461255c565b602080601f83116001146139df5750819293946000926139d4575b50508160011b916000199060031b1c1916179055565b0151905038806139be565b90601f198316956139f585600052602060002090565b926000905b888210613a3257505083600195969710613a19575b505050811b019055565b015160001960f88460031b161c19169055388080613a0f565b806001859682949686015181550195019301906139fa565b60e081018051613a62906001600160a01b031661357f565b60c08201613a7081516135a1565b6000805160206140f8833981519152928354600160401b811015610e3057806001613a9d92018655612c18565b929092613be157613bdd93613baf613bbc92613ba5613b8b60a0600297613b1163ffffffff613adf818451168d9063ffffffff1663ffffffff19825416179055565b6020838101518d5467ffffffff00000000191690831690911b67ffffffff0000000016178c556040830151168b612c43565b613b45613b25606083015163ffffffff1690565b8b5463ffffffff60601b191660609190911b63ffffffff60601b16178b55565b613b84613b5c60808301516001600160401b031690565b8b5467ffffffffffffffff60801b191660809190911b67ffffffffffffffff60801b16178b55565b0151151590565b875460ff60c01b191690151560c01b60ff60c01b16178755565b516001860161397c565b516001600160a01b031690565b910180546001600160a01b0319166001600160a01b03909216919091179055565b5490565b634e487b7160e01b600052600060045260246000fd5b90613c2a613c07611c8393613636565b805463ffffffff60601b191660609390931b63ffffffff60601b16929092178255565b805467ffffffffffffffff60801b19164360801b67ffffffffffffffff60801b16179055565b60a081015115159081613c61575090565b905063ffffffff602081835116920151161090565b60a081015115159081613c87575090565b905063ffffffff604081602084015116920151161090565b600160401b8111610e3057600080516020614098833981519152908154818355808210613ccb57505050565b611c83926000526007602060002091601c82850160031c84019460021b1680613cfb575b500160031c0190612545565b600019908186019182549160200360031b1c16905538613cef565b8051906001600160401b038211610e3057613d3082613c9f565b602080910191613d3e611b2e565b908060031c9260005b848110613dc2575060071982169091039081613d65575b5050505050565b9390600094855b828110613d83575050505001553880808080613d5e565b9091929582613db7600192613d9c8a5163ffffffff1690565b908560021b60031b9163ffffffff809116831b921b19161790565b970193929101613d6c565b6000805b60088110613ddb575084820155600101613d47565b969083613e0d600192613df2855163ffffffff1690565b908b60021b60031b9163ffffffff809116831b921b19161790565b92019701613dc6565b6000526000805160206140588339815191526020526040600020906000526020526040600020906102d2613e5a613e73613e66604051613e6181613e5a818a611b64565b0382611c47565b613488565b9460405192838092611b64565b6134e3565b919290613e8484612d33565b93613e8e81612d33565b9360005b828110613e9f5750505050565b81600052602090600080516020614058833981519152825260409182600020908683018084116107f757600194613f0f93613e5a93613eeb936000525280600020905192838092611b64565b613ef481613488565b613efe848c61227c565b52613f09838b61227c565b506134e3565b613f19828961227c565b52613f24818861227c565b5001613e92565b9092916000918252602093600080516020614058833981519152855260408320908352845260408220918151916001600160401b038311610e3057613f7a83613f748654611af4565b8661255c565b8591601f8411600114613fa7578394959650926139d45750508160011b916000199060031b1c1916179055565b9190601f19841696613fbe86600052602060002090565b93905b888210613fdf57505083600195969710613a1957505050811b019055565b80600185968294968601518155019501930190613fc156fe880a06be809dc0e7b0a5d0337dde6feeb9b73d3fb19eb22d618ab89523593500454a273f43f7a440caab7e87ede33c979fd5ce1089b8f9673df5cd96eee6fa606e6ab8b7c7aaba79eef8cc633522d606bb008c101cf9832c9ad05d10a98472806018b2d18c7378174a403e179ce41a2df430338a150b2bcec4b7a08291285573fd9ec671ae9f85315a7ebfb0534d94239eaacef5a704bcb705c041ce12491356ca4f80ba17934f16b2ab62d95f37e3941e8ecf8da46337200d0a2c44b7d6be371ec4138404500a2a0be2c2f9b103581c2a7fa783a934f91a6cc5cc924404973bb5b37715a3e346e996104f0086703f19825def429233930fd9399c38e05fb112d952c686c15834d48f07b553712c51f877261827559f149880caa855efa22f7ca2646970667358221220a0f78332bc5ed9f338e1a64a3e4dc90811e8166857e132add04bab41a17e734464736f6c63430008140033",
  "devdoc": {
    "author": "Alluvial Finance Inc.",
    "errors": {
      "InactiveOperator(uint256)": [
        {
          "params": {
            "index": "The operator index"
          }
        }
      ],
      "InvalidInitialization(uint256,uint256)": [
        {
          "params": {
            "expectedVersion": "The version that was expected",
            "version": "The version that was attempting to be initialized"
          }
        }
      ],
      "OperatorLimitTooHigh(uint256,uint256,uint256)": [
        {
          "params": {
            "index": "The operator index",
            "keyCount": "The operator key count",
            "limit": "The new limit provided"
          }
        }
      ],
      "OperatorLimitTooLow(uint256,uint256,uint256)": [
        {
          "params": {
            "fundedKeyCount": "The operator funded key count",
            "index": "The operator index",
            "limit": "The new limit provided"
          }
        }
      ],
      "OperatorNotFound(uint256)": [
        {
          "params": {
            "index": "The provided index"
          }
        },
        {
          "params": {
            "index": "The provided index"
          }
        }
      ],
      "Unauthorized(address)": [
        {
          "params": {
            "caller": "Address performing the call"
          }
        }
      ]
    },
    "events": {
      "AddedOperator(uint256,string,address)": {
        "params": {
          "index": "The operator index",
          "name": "The operator display name",
          "operatorAddress": "The operator address"
        }
      },
      "AddedValidatorKeys(uint256,bytes)": {
        "details": "The public keys and signatures are concatenatedA public key is 48 bytes longA signature is 96 bytes long[P1, S1, P2, S2, ..., PN, SN] where N is the bytes length divided by (96 + 48)",
        "params": {
          "index": "The operator index",
          "publicKeysAndSignatures": "The concatenated public keys and signatures"
        }
      },
      "FundedValidatorKeys(uint256,bytes[],bool)": {
        "params": {
          "deferred": "True if event has been replayed in the context of a migration",
          "index": "The operator index",
          "publicKeys": "BLS Public key that got funded"
        }
      },
      "Initialize(uint256,bytes)": {
        "params": {
          "cdata": "Complete calldata that was used during the initialization",
          "version": "New version of the contracts"
        }
      },
      "OperatorEditsAfterSnapshot(uint256,uint256,uint256,uint256,uint256)": {
        "details": "This means that we cannot assume that its key set is checked by the snapshotThis happens only if the limit was meant to be increased",
        "params": {
          "currentLimit": "The current operator limit",
          "index": "The operator index",
          "latestKeysEditBlockNumber": "The last block number at which the operator changed its keys",
          "newLimit": "The new operator limit that was attempted to be set",
          "snapshotBlock": "The block number of the snapshot"
        }
      },
      "OperatorLimitUnchanged(uint256,uint256)": {
        "params": {
          "index": "The operator index",
          "limit": "The limit of the operator"
        }
      },
      "RemovedValidatorKey(uint256,bytes)": {
        "params": {
          "index": "The operator index",
          "publicKey": "The BLS public key that has been removed"
        }
      },
      "RequestedValidatorExits(uint256,uint256)": {
        "params": {
          "count": "The count of requested exits",
          "index": "The operator index"
        }
      },
      "SetAdmin(address)": {
        "params": {
          "admin": "New admin address"
        }
      },
      "SetCurrentValidatorExitsDemand(uint256,uint256)": {
        "params": {
          "nextValidatorExitsDemand": "The new exit request demand",
          "previousValidatorExitsDemand": "The previous exit request demand"
        }
      },
      "SetOperatorAddress(uint256,address)": {
        "params": {
          "index": "The operator index",
          "newOperatorAddress": "The new operator address"
        }
      },
      "SetOperatorLimit(uint256,uint256)": {
        "params": {
          "index": "The operator index",
          "newLimit": "The new operator staking limit"
        }
      },
      "SetOperatorName(uint256,string)": {
        "params": {
          "index": "The operator index",
          "newName": "The new display name"
        }
      },
      "SetOperatorStatus(uint256,bool)": {
        "params": {
          "active": "True if the operator is active",
          "index": "The operator index"
        }
      },
      "SetOperatorStoppedValidatorCount(uint256,uint256)": {
        "params": {
          "index": "The operator index",
          "newStoppedValidatorCount": "The new stopped validator count"
        }
      },
      "SetPendingAdmin(address)": {
        "params": {
          "pendingAdmin": "New pending admin address"
        }
      },
      "SetRiver(address)": {
        "params": {
          "river": "The new river address"
        }
      },
      "SetTotalValidatorExitsRequested(uint256,uint256)": {
        "params": {
          "newTotalValidatorExitsRequested": "The new total requested exit",
          "previousTotalValidatorExitsRequested": "The previous total requested exit"
        }
      },
      "UpdatedRequestedValidatorExitsUponStopped(uint256,uint32,uint32)": {
        "params": {
          "index": "The operator index",
          "newRequestedExits": "The new requested exit count",
          "oldRequestedExits": "The old requested exit count"
        }
      },
      "UpdatedStoppedValidators(uint32[])": {
        "params": {
          "stoppedValidatorCounts": "The new stopped validator counts"
        }
      }
    },
    "kind": "dev",
    "methods": {
      "acceptAdmin()": {
        "details": "Only callable by the pending admin. Resets the pending admin if succesful."
      },
      "addOperator(string,address)": {
        "details": "Only callable by the administrator",
        "params": {
          "_name": "The name identifying the operator",
          "_operator": "The address representing the operator, receiving the rewards"
        },
        "returns": {
          "_0": "The index of the new operator"
        }
      },
      "addValidators(uint256,uint32,bytes)": {
        "details": "Only callable by the administrator or the operator address",
        "params": {
          "_index": "The operator index",
          "_keyCount": "The amount of keys provided",
          "_publicKeysAndSignatures": "Public keys of the validator, concatenated"
        }
      },
      "demandValidatorExits(uint256,uint256)": {
        "details": "This method is only callable by the river contract, and to actually forward the information to the node operators via event emission, the unprotected requestValidatorExits method must be called",
        "params": {
          "_count": "The amount of exit requests to add to the demand",
          "_depositedValidatorCount": "The total deposited validator count"
        }
      },
      "forceFundedValidatorKeysEventEmission(uint256)": {
        "params": {
          "_amountToEmit": "The amount of events to emit at maximum in this call"
        }
      },
      "getAdmin()": {
        "returns": {
          "_0": "The admin address"
        }
      },
      "getCurrentValidatorExitsDemand()": {
        "returns": {
          "_0": "The current exit request demand"
        }
      },
      "getNextValidatorsToDepositFromActiveOperators(uint256)": {
        "params": {
          "_count": "Count of validators that would be funded next"
        },
        "returns": {
          "publicKeys": "An array of fundable public keys",
          "signatures": "An array of signatures linked to the public keys"
        }
      },
      "getOperator(uint256)": {
        "params": {
          "_index": "The index of the operator"
        },
        "returns": {
          "_0": "The details of the operator"
        }
      },
      "getOperatorCount()": {
        "returns": {
          "_0": "The operator count"
        }
      },
      "getOperatorStoppedValidatorCount(uint256)": {
        "params": {
          "_idx": "The index of the operator"
        },
        "returns": {
          "_0": "The stopped validator count of the operator"
        }
      },
      "getPendingAdmin()": {
        "returns": {
          "_0": "The pending admin address"
        }
      },
      "getRiver()": {
        "returns": {
          "_0": "The address of River"
        }
      },
      "getStoppedAndRequestedExitCounts()": {
        "returns": {
          "_0": "The total stopped count",
          "_1": "The total requested exit count"
        }
      },
      "getStoppedValidatorCountPerOperator()": {
        "returns": {
          "_0": "The stopped validator array"
        }
      },
      "getTotalStoppedValidatorCount()": {
        "returns": {
          "_0": "The total stopped validator count"
        }
      },
      "getTotalValidatorExitsRequested()": {
        "returns": {
          "_0": "The total requested exit count"
        }
      },
      "getValidator(uint256,uint256)": {
        "params": {
          "_operatorIndex": "The index of the operator",
          "_validatorIndex": "The index of the validator"
        },
        "returns": {
          "funded": "True if validator has been funded",
          "publicKey": "The public key of the validator",
          "signature": "The signature used during deposit"
        }
      },
      "initOperatorsRegistryV1(address,address)": {
        "params": {
          "_admin": "Admin in charge of managing operators",
          "_river": "Address of River system"
        }
      },
      "listActiveOperators()": {
        "returns": {
          "_0": "The list of active operators and their details"
        }
      },
      "pickNextValidatorsToDeposit(uint256)": {
        "params": {
          "_count": "Max amount of keys requested"
        },
        "returns": {
          "publicKeys": "An array of public keys",
          "signatures": "An array of signatures linked to the public keys"
        }
      },
      "proposeAdmin(address)": {
        "details": "This security prevents setting an invalid address as an admin. The pendingadmin has to claim its ownership of the contract, and prove that the newaddress is able to perform regular transactions.",
        "params": {
          "_newAdmin": "New admin address"
        }
      },
      "removeValidators(uint256,uint256[])": {
        "details": "Only callable by the administrator or the operator addressThe indexes must be provided sorted in decreasing order and duplicate-free, otherwise the method will revertThe operator limit will be set to the lowest deleted key index if the operator's limit wasn't equal to its total key countThe operator or the admin cannot remove funded keysWhen removing validators, the indexes of specific unfunded keys can be changed in order to properlyremove the keys from the storage array. Beware of this specific behavior when chaining calls as thetargeted public key indexes can point to a different key after a first call was made and performedsome swaps",
        "params": {
          "_index": "The operator index",
          "_indexes": "The indexes of the keys to remove"
        }
      },
      "reportStoppedValidatorCounts(uint32[],uint256)": {
        "params": {
          "_depositedValidatorCount": "The total deposited validator count",
          "_stoppedValidatorCounts": "The new stopped validators array"
        }
      },
      "requestValidatorExits(uint256)": {
        "params": {
          "_count": "Max amount of exits to request"
        }
      },
      "setOperatorAddress(uint256,address)": {
        "details": "Only callable by the administrator or the previous operator address",
        "params": {
          "_index": "The operator index",
          "_newOperatorAddress": "The new address of the operator"
        }
      },
      "setOperatorLimits(uint256[],uint32[],uint256)": {
        "details": "Only callable by the administratorThe operator indexes must be in increasing order and contain no duplicateThe limit cannot exceed the total key count of the operatorThe _indexes and _newLimits must have the same length.Each limit value is applied to the operator index at the same index in the _indexes array.",
        "params": {
          "_newLimits": "The new staking limit of the operators",
          "_operatorIndexes": "The operator indexes, in increasing order and duplicate free",
          "_snapshotBlock": "The block number at which the snapshot was computed"
        }
      },
      "setOperatorName(uint256,string)": {
        "details": "Only callable by the administrator or the operator",
        "params": {
          "_index": "The operator index",
          "_newName": "The new operator name"
        }
      },
      "setOperatorStatus(uint256,bool)": {
        "details": "Only callable by the administrator",
        "params": {
          "_index": "The operator index",
          "_newStatus": "The new status of the operator"
        }
      },
      "version()": {
        "returns": {
          "_0": "Version of the contract"
        }
      }
    },
    "title": "Operators Registry (v1)",
    "version": 1
  },
  "userdoc": {
    "errors": {
      "FundedKeyEventMigrationComplete()": [
        {
          "notice": "Emitted when the event rebroadcasting is done and we attempt to broadcast new events"
        }
      ],
      "InactiveOperator(uint256)": [
        {
          "notice": "The calling operator is inactive"
        }
      ],
      "InvalidArrayLengths()": [
        {
          "notice": "The provided operator and limits array have different lengths"
        }
      ],
      "InvalidEmptyArray()": [
        {
          "notice": "The provided operator and limits array are empty"
        }
      ],
      "InvalidEmptyStoppedValidatorCountsArray()": [
        {
          "notice": "Thrown when an invalid empty stopped validator array is provided"
        }
      ],
      "InvalidEmptyString()": [
        {
          "notice": "The string is empty"
        }
      ],
      "InvalidFundedKeyDeletionAttempt()": [
        {
          "notice": "A funded key deletion has been attempted"
        }
      ],
      "InvalidIndexOutOfBounds()": [
        {
          "notice": "The index that is removed is out of bounds"
        }
      ],
      "InvalidInitialization(uint256,uint256)": [
        {
          "notice": "An error occured during the initialization"
        }
      ],
      "InvalidKeyCount()": [
        {
          "notice": "The provided key count is 0"
        }
      ],
      "InvalidKeysLength()": [
        {
          "notice": "The provided concatenated keys do not have the expected length"
        }
      ],
      "InvalidStoppedValidatorCountsSum()": [
        {
          "notice": "Thrown when the sum of stopped validators is invalid"
        }
      ],
      "InvalidUnsortedIndexes()": [
        {
          "notice": "The index provided are not sorted properly (descending order)"
        }
      ],
      "InvalidZeroAddress()": [
        {
          "notice": "The address is zero"
        }
      ],
      "NoExitRequestsToPerform()": [
        {
          "notice": "Thrown when no exit requests can be performed"
        }
      ],
      "OperatorLimitTooHigh(uint256,uint256,uint256)": [
        {
          "notice": "The value for the operator limit is too high"
        }
      ],
      "OperatorLimitTooLow(uint256,uint256,uint256)": [
        {
          "notice": "The value for the limit is too low"
        }
      ],
      "OperatorNotFound(uint256)": [
        {
          "notice": "The operator was not found"
        },
        {
          "notice": "The operator was not found"
        }
      ],
      "SliceOutOfBounds()": [
        {
          "notice": "The slice is outside of the initial bytes bounds"
        }
      ],
      "SliceOverflow()": [
        {
          "notice": "The length overflows an uint"
        }
      ],
      "StoppedValidatorCountAboveFundedCount(uint256,uint32,uint32)": [
        {
          "notice": "The provided stopped validator count of an operator is above its funded validator count"
        }
      ],
      "StoppedValidatorCountArrayShrinking()": [
        {
          "notice": "The provided stopped validator count array is shrinking"
        }
      ],
      "StoppedValidatorCountsDecreased()": [
        {
          "notice": "Throw when an element in the stopped validator array is decreasing"
        }
      ],
      "StoppedValidatorCountsTooHigh()": [
        {
          "notice": "Thrown when the number of elements in the array is too high compared to operator count"
        }
      ],
      "Unauthorized(address)": [
        {
          "notice": "The operator is unauthorized for the caller"
        }
      ],
      "UnorderedOperatorList()": [
        {
          "notice": "The provided list of operators is not in increasing order"
        }
      ]
    },
    "events": {
      "AddedOperator(uint256,string,address)": {
        "notice": "A new operator has been added to the registry"
      },
      "AddedValidatorKeys(uint256,bytes)": {
        "notice": "The operator or the admin added new validator keys and signatures"
      },
      "FundedValidatorKeys(uint256,bytes[],bool)": {
        "notice": "A validator key got funded on the deposit contractThis event was introduced during a contract upgrade, in order to cover all possible public keys, this eventwill be replayed for past funded keys in order to have a complete coverage of all the funded public keys.In this particuliar scenario, the deferred value will be set to true, to indicate that we are not going to havethe expected additional events and side effects in the same transaction (deposit to official DepositContract etc ...) becausethe event was synthetically crafted."
      },
      "Initialize(uint256,bytes)": {
        "notice": "Emitted when the contract is properly initialized"
      },
      "OperatorEditsAfterSnapshot(uint256,uint256,uint256,uint256,uint256)": {
        "notice": "The operator edited its keys after the snapshot block"
      },
      "OperatorLimitUnchanged(uint256,uint256)": {
        "notice": "The call didn't alter the limit of the operator"
      },
      "RemovedValidatorKey(uint256,bytes)": {
        "notice": "The operator or the admin removed a public key and its signature from the registry"
      },
      "RequestedValidatorExits(uint256,uint256)": {
        "notice": "The requested exit count has been updated"
      },
      "SetAdmin(address)": {
        "notice": "The admin address changed"
      },
      "SetCurrentValidatorExitsDemand(uint256,uint256)": {
        "notice": "The exit request demand has been updated"
      },
      "SetOperatorAddress(uint256,address)": {
        "notice": "The operator address has been changed"
      },
      "SetOperatorLimit(uint256,uint256)": {
        "notice": "The operator limit has been changed"
      },
      "SetOperatorName(uint256,string)": {
        "notice": "The operator display name has been changed"
      },
      "SetOperatorStatus(uint256,bool)": {
        "notice": "The operator status has been changed"
      },
      "SetOperatorStoppedValidatorCount(uint256,uint256)": {
        "notice": "The operator stopped validator count has been changed"
      },
      "SetPendingAdmin(address)": {
        "notice": "The pending admin address changed"
      },
      "SetRiver(address)": {
        "notice": "The stored river address has been changed"
      },
      "SetTotalValidatorExitsRequested(uint256,uint256)": {
        "notice": "The total requested exit has been updated"
      },
      "UpdatedRequestedValidatorExitsUponStopped(uint256,uint32,uint32)": {
        "notice": "The requested exit count has been update to fill the gap with the reported stopped count"
      },
      "UpdatedStoppedValidators(uint32[])": {
        "notice": "The stopped validator array has been changedA validator is considered stopped if exiting, exited or slashedThis event is emitted when the oracle reports new stopped validators counts"
      }
    },
    "kind": "user",
    "methods": {
      "acceptAdmin()": {
        "notice": "Accept the transfer of ownership"
      },
      "addOperator(string,address)": {
        "notice": "Adds an operator to the registry"
      },
      "addValidators(uint256,uint32,bytes)": {
        "notice": "Adds new keys for an operator"
      },
      "demandValidatorExits(uint256,uint256)": {
        "notice": "Increases the exit request demand"
      },
      "forceFundedValidatorKeysEventEmission(uint256)": {
        "notice": "Utility to force the broadcasting of events. Will keep its progress in storage to prevent being DoSed by the number of keys"
      },
      "getAdmin()": {
        "notice": "Retrieves the current admin address"
      },
      "getCurrentValidatorExitsDemand()": {
        "notice": "Get the current exit request demand waiting to be triggeredThis value is the amount of exit requests that are demanded and not yet performed by the contract"
      },
      "getNextValidatorsToDepositFromActiveOperators(uint256)": {
        "notice": "Get the next validators that would be funded"
      },
      "getOperator(uint256)": {
        "notice": "Get operator details"
      },
      "getOperatorCount()": {
        "notice": "Get operator count"
      },
      "getOperatorStoppedValidatorCount(uint256)": {
        "notice": "Retrieve the stopped validator count for an operator index"
      },
      "getPendingAdmin()": {
        "notice": "Retrieve the current pending admin address"
      },
      "getRiver()": {
        "notice": "Retrieve the River address"
      },
      "getStoppedAndRequestedExitCounts()": {
        "notice": "Retrieve the total stopped and requested exit count"
      },
      "getStoppedValidatorCountPerOperator()": {
        "notice": "Retrieve the raw stopped validators array from storage"
      },
      "getTotalStoppedValidatorCount()": {
        "notice": "Retrieve the total stopped validator count"
      },
      "getTotalValidatorExitsRequested()": {
        "notice": "Retrieve the total requested exit countThis value is the amount of exit requests that have been performed, emitting an event for operators to catch"
      },
      "getValidator(uint256,uint256)": {
        "notice": "Get the details of a validator"
      },
      "initOperatorsRegistryV1(address,address)": {
        "notice": "Initializes the operators registry"
      },
      "initOperatorsRegistryV1_1()": {
        "notice": "Initializes the operators registry for V1_1"
      },
      "listActiveOperators()": {
        "notice": "Retrieve the active operator set"
      },
      "pickNextValidatorsToDeposit(uint256)": {
        "notice": "Retrieve validator keys based on operator statuses"
      },
      "proposeAdmin(address)": {
        "notice": "Proposes a new address as admin"
      },
      "removeValidators(uint256,uint256[])": {
        "notice": "Remove validator keys"
      },
      "reportStoppedValidatorCounts(uint32[],uint256)": {
        "notice": "Allows river to override the stopped validators arrayThis actions happens during the Oracle report processing"
      },
      "requestValidatorExits(uint256)": {
        "notice": "Public endpoint to consume the exit request demand and perform the actual exit requestsThe selection algorithm will pick validators based on their active validator countsThis value is computed by using the count of funded keys and taking into account the stopped validator counts and exit requests"
      },
      "setOperatorAddress(uint256,address)": {
        "notice": "Changes the operator address of an operator"
      },
      "setOperatorLimits(uint256[],uint32[],uint256)": {
        "notice": "Changes the operator staking limit"
      },
      "setOperatorName(uint256,string)": {
        "notice": "Changes the operator name"
      },
      "setOperatorStatus(uint256,bool)": {
        "notice": "Changes the operator status"
      },
      "version()": {
        "notice": "Retrieves the version of the contract"
      }
    },
    "notice": "This contract handles the list of operators and their keys",
    "version": 1
  },
  "storageLayout": {
    "storage": [],
    "types": null
  }
}