{
  "address": "0x770604A7c8423d82a28c52F7ba77f981E7302AAC",
  "abi": [
    {
      "inputs": [],
      "name": "ClaimInitiatorIsDenied",
      "type": "error"
    },
    {
      "inputs": [],
      "name": "ClaimRecipientIsDenied",
      "type": "error"
    },
    {
      "inputs": [
        {
          "internalType": "address",
          "name": "recipient",
          "type": "address"
        },
        {
          "internalType": "bytes",
          "name": "rdata",
          "type": "bytes"
        }
      ],
      "name": "ClaimRedeemFailed",
      "type": "error"
    },
    {
      "inputs": [
        {
          "internalType": "uint256",
          "name": "redeemRequestId",
          "type": "uint256"
        },
        {
          "internalType": "uint256",
          "name": "withdrawalEventId",
          "type": "uint256"
        }
      ],
      "name": "DoesNotMatch",
      "type": "error"
    },
    {
      "inputs": [],
      "name": "IncompatibleArrayLengths",
      "type": "error"
    },
    {
      "inputs": [
        {
          "internalType": "uint256",
          "name": "version",
          "type": "uint256"
        },
        {
          "internalType": "uint256",
          "name": "expectedVersion",
          "type": "uint256"
        }
      ],
      "name": "InvalidInitialization",
      "type": "error"
    },
    {
      "inputs": [],
      "name": "InvalidZeroAddress",
      "type": "error"
    },
    {
      "inputs": [],
      "name": "InvalidZeroAmount",
      "type": "error"
    },
    {
      "inputs": [],
      "name": "RecipientIsDenied",
      "type": "error"
    },
    {
      "inputs": [
        {
          "internalType": "uint256",
          "name": "id",
          "type": "uint256"
        }
      ],
      "name": "RedeemRequestAlreadyClaimed",
      "type": "error"
    },
    {
      "inputs": [
        {
          "internalType": "uint256",
          "name": "id",
          "type": "uint256"
        }
      ],
      "name": "RedeemRequestOutOfBounds",
      "type": "error"
    },
    {
      "inputs": [],
      "name": "TransferError",
      "type": "error"
    },
    {
      "inputs": [
        {
          "internalType": "address",
          "name": "caller",
          "type": "address"
        }
      ],
      "name": "Unauthorized",
      "type": "error"
    },
    {
      "inputs": [
        {
          "internalType": "uint256",
          "name": "id",
          "type": "uint256"
        }
      ],
      "name": "WithdrawalEventOutOfBounds",
      "type": "error"
    },
    {
      "inputs": [
        {
          "internalType": "uint256",
          "name": "withdrawalAmount",
          "type": "uint256"
        },
        {
          "internalType": "uint256",
          "name": "redeemDemand",
          "type": "uint256"
        }
      ],
      "name": "WithdrawalExceedsRedeemDemand",
      "type": "error"
    },
    {
      "anonymous": false,
      "inputs": [
        {
          "indexed": true,
          "internalType": "uint32",
          "name": "redeemRequestId",
          "type": "uint32"
        },
        {
          "indexed": true,
          "internalType": "address",
          "name": "recipient",
          "type": "address"
        },
        {
          "indexed": false,
          "internalType": "uint256",
          "name": "ethAmount",
          "type": "uint256"
        },
        {
          "indexed": false,
          "internalType": "uint256",
          "name": "lsEthAmount",
          "type": "uint256"
        },
        {
          "indexed": false,
          "internalType": "uint256",
          "name": "remainingLsEthAmount",
          "type": "uint256"
        }
      ],
      "name": "ClaimedRedeemRequest",
      "type": "event"
    },
    {
      "anonymous": false,
      "inputs": [
        {
          "indexed": false,
          "internalType": "uint256",
          "name": "version",
          "type": "uint256"
        },
        {
          "indexed": false,
          "internalType": "bytes",
          "name": "cdata",
          "type": "bytes"
        }
      ],
      "name": "Initialize",
      "type": "event"
    },
    {
      "anonymous": false,
      "inputs": [
        {
          "indexed": false,
          "internalType": "uint256",
          "name": "height",
          "type": "uint256"
        },
        {
          "indexed": false,
          "internalType": "uint256",
          "name": "amount",
          "type": "uint256"
        },
        {
          "indexed": false,
          "internalType": "uint256",
          "name": "ethAmount",
          "type": "uint256"
        },
        {
          "indexed": false,
          "internalType": "uint32",
          "name": "id",
          "type": "uint32"
        }
      ],
      "name": "ReportedWithdrawal",
      "type": "event"
    },
    {
      "anonymous": false,
      "inputs": [
        {
          "indexed": true,
          "internalType": "address",
          "name": "recipient",
          "type": "address"
        },
        {
          "indexed": false,
          "internalType": "uint256",
          "name": "height",
          "type": "uint256"
        },
        {
          "indexed": false,
          "internalType": "uint256",
          "name": "amount",
          "type": "uint256"
        },
        {
          "indexed": false,
          "internalType": "uint256",
          "name": "maxRedeemableEth",
          "type": "uint256"
        },
        {
          "indexed": false,
          "internalType": "uint32",
          "name": "id",
          "type": "uint32"
        }
      ],
      "name": "RequestedRedeem",
      "type": "event"
    },
    {
      "anonymous": false,
      "inputs": [
        {
          "indexed": true,
          "internalType": "uint32",
          "name": "redeemRequestId",
          "type": "uint32"
        },
        {
          "indexed": true,
          "internalType": "uint32",
          "name": "withdrawalEventId",
          "type": "uint32"
        },
        {
          "indexed": false,
          "internalType": "uint256",
          "name": "lsEthAmountSatisfied",
          "type": "uint256"
        },
        {
          "indexed": false,
          "internalType": "uint256",
          "name": "ethAmountSatisfied",
          "type": "uint256"
        },
        {
          "indexed": false,
          "internalType": "uint256",
          "name": "lsEthAmountRemaining",
          "type": "uint256"
        },
        {
          "indexed": false,
          "internalType": "uint256",
          "name": "ethAmountExceeding",
          "type": "uint256"
        }
      ],
      "name": "SatisfiedRedeemRequest",
      "type": "event"
    },
    {
      "anonymous": false,
      "inputs": [
        {
          "indexed": false,
          "internalType": "uint256",
          "name": "oldRedeemDemand",
          "type": "uint256"
        },
        {
          "indexed": false,
          "internalType": "uint256",
          "name": "newRedeemDemand",
          "type": "uint256"
        }
      ],
      "name": "SetRedeemDemand",
      "type": "event"
    },
    {
      "anonymous": false,
      "inputs": [
        {
          "indexed": false,
          "internalType": "address",
          "name": "river",
          "type": "address"
        }
      ],
      "name": "SetRiver",
      "type": "event"
    },
    {
      "inputs": [
        {
          "internalType": "uint32[]",
          "name": "redeemRequestIds",
          "type": "uint32[]"
        },
        {
          "internalType": "uint32[]",
          "name": "withdrawalEventIds",
          "type": "uint32[]"
        },
        {
          "internalType": "bool",
          "name": "skipAlreadyClaimed",
          "type": "bool"
        },
        {
          "internalType": "uint16",
          "name": "_depth",
          "type": "uint16"
        }
      ],
      "name": "claimRedeemRequests",
      "outputs": [
        {
          "internalType": "uint8[]",
          "name": "claimStatuses",
          "type": "uint8[]"
        }
      ],
      "stateMutability": "nonpayable",
      "type": "function"
    },
    {
      "inputs": [
        {
          "internalType": "uint32[]",
          "name": "_redeemRequestIds",
          "type": "uint32[]"
        },
        {
          "internalType": "uint32[]",
          "name": "_withdrawalEventIds",
          "type": "uint32[]"
        }
      ],
      "name": "claimRedeemRequests",
      "outputs": [
        {
          "internalType": "uint8[]",
          "name": "claimStatuses",
          "type": "uint8[]"
        }
      ],
      "stateMutability": "nonpayable",
      "type": "function"
    },
    {
      "inputs": [],
      "name": "getBufferedExceedingEth",
      "outputs": [
        {
          "internalType": "uint256",
          "name": "",
          "type": "uint256"
        }
      ],
      "stateMutability": "view",
      "type": "function"
    },
    {
      "inputs": [],
      "name": "getRedeemDemand",
      "outputs": [
        {
          "internalType": "uint256",
          "name": "",
          "type": "uint256"
        }
      ],
      "stateMutability": "view",
      "type": "function"
    },
    {
      "inputs": [],
      "name": "getRedeemRequestCount",
      "outputs": [
        {
          "internalType": "uint256",
          "name": "",
          "type": "uint256"
        }
      ],
      "stateMutability": "view",
      "type": "function"
    },
    {
      "inputs": [
        {
          "internalType": "uint32",
          "name": "_redeemRequestId",
          "type": "uint32"
        }
      ],
      "name": "getRedeemRequestDetails",
      "outputs": [
        {
          "components": [
            {
              "internalType": "uint256",
              "name": "amount",
              "type": "uint256"
            },
            {
              "internalType": "uint256",
              "name": "maxRedeemableEth",
              "type": "uint256"
            },
            {
              "internalType": "address",
              "name": "recipient",
              "type": "address"
            },
            {
              "internalType": "uint256",
              "name": "height",
              "type": "uint256"
            },
            {
              "internalType": "address",
              "name": "initiator",
              "type": "address"
            }
          ],
          "internalType": "struct RedeemQueueV2.RedeemRequest",
          "name": "",
          "type": "tuple"
        }
      ],
      "stateMutability": "view",
      "type": "function"
    },
    {
      "inputs": [],
      "name": "getRiver",
      "outputs": [
        {
          "internalType": "address",
          "name": "",
          "type": "address"
        }
      ],
      "stateMutability": "view",
      "type": "function"
    },
    {
      "inputs": [],
      "name": "getWithdrawalEventCount",
      "outputs": [
        {
          "internalType": "uint256",
          "name": "",
          "type": "uint256"
        }
      ],
      "stateMutability": "view",
      "type": "function"
    },
    {
      "inputs": [
        {
          "internalType": "uint32",
          "name": "_withdrawalEventId",
          "type": "uint32"
        }
      ],
      "name": "getWithdrawalEventDetails",
      "outputs": [
        {
          "components": [
            {
              "internalType": "uint256",
              "name": "amount",
              "type": "uint256"
            },
            {
              "internalType": "uint256",
              "name": "withdrawnEth",
              "type": "uint256"
            },
            {
              "internalType": "uint256",
              "name": "height",
              "type": "uint256"
            }
          ],
          "internalType": "struct WithdrawalStack.WithdrawalEvent",
          "name": "",
          "type": "tuple"
        }
      ],
      "stateMutability": "view",
      "type": "function"
    },
    {
      "inputs": [
        {
          "internalType": "address",
          "name": "_river",
          "type": "address"
        }
      ],
      "name": "initializeRedeemManagerV1",
      "outputs": [],
      "stateMutability": "nonpayable",
      "type": "function"
    },
    {
      "inputs": [],
      "name": "initializeRedeemManagerV1_2",
      "outputs": [],
      "stateMutability": "nonpayable",
      "type": "function"
    },
    {
      "inputs": [
        {
          "internalType": "uint256",
          "name": "_max",
          "type": "uint256"
        }
      ],
      "name": "pullExceedingEth",
      "outputs": [],
      "stateMutability": "nonpayable",
      "type": "function"
    },
    {
      "inputs": [
        {
          "internalType": "uint256",
          "name": "_lsETHWithdrawable",
          "type": "uint256"
        }
      ],
      "name": "reportWithdraw",
      "outputs": [],
      "stateMutability": "payable",
      "type": "function"
    },
    {
      "inputs": [
        {
          "internalType": "uint256",
          "name": "_lsETHAmount",
          "type": "uint256"
        },
        {
          "internalType": "address",
          "name": "_recipient",
          "type": "address"
        }
      ],
      "name": "requestRedeem",
      "outputs": [
        {
          "internalType": "uint32",
          "name": "redeemRequestId",
          "type": "uint32"
        }
      ],
      "stateMutability": "nonpayable",
      "type": "function"
    },
    {
      "inputs": [
        {
          "internalType": "uint256",
          "name": "_lsETHAmount",
          "type": "uint256"
        }
      ],
      "name": "requestRedeem",
      "outputs": [
        {
          "internalType": "uint32",
          "name": "redeemRequestId",
          "type": "uint32"
        }
      ],
      "stateMutability": "nonpayable",
      "type": "function"
    },
    {
      "inputs": [
        {
          "internalType": "uint32[]",
          "name": "_redeemRequestIds",
          "type": "uint32[]"
        }
      ],
      "name": "resolveRedeemRequests",
      "outputs": [
        {
          "internalType": "int64[]",
          "name": "withdrawalEventIds",
          "type": "int64[]"
        }
      ],
      "stateMutability": "view",
      "type": "function"
    },
    {
      "inputs": [],
      "name": "version",
      "outputs": [
        {
          "internalType": "string",
          "name": "",
          "type": "string"
        }
      ],
      "stateMutability": "pure",
      "type": "function"
    }
  ],
  "transactionHash": "0x765988f4a066fc7f2a8125fecbeef3de899eee9a8a2cf37ffe2f04bec0b531be",
  "args": [],
  "numDeployments": 1,
  "solcInputHash": "762834da2cfe67e977958281c99d1a0e",
  "bytecode": "0x60808060405234610092577f1809e49bba43f2d39fa57894b50cd6ccb428cc438230e065cac3eb24a1355a7190600019807f82055909238c0f5e63d6f174068ebb8f51bcec9bd37de63bb68f6551feec0cfc558152604060208201523660408201523660006060830137600060603683010152606081601f19601f3601168101030190a160405161228390816100988239f35b600080fdfe608080604052600436101561001357600080fd5b600090813560e01c9081630c77940114611579575080630d8d2a541461154e578063107703ab146113a0578063319798d11461137557806354fd4d501461131d5780635b5985a2146112f25780635f2e5f07146111ae5780637c044e5514610ceb578063841ecb8514610cc05780638623375414610c6a5780639332525d146107675780639b92d6de146106ec578063a519f060146106b6578063aa2f892d146105b6578063b30d8bb714610401578063b69dd9e6146101f45763c8fade5a146100dc57600080fd5b346101f15760203660031901126101f1576004356001600160a01b038116908181036101ec577f82055909238c0f5e63d6f174068ebb8f51bcec9bd37de63bb68f6551feec0cfc8054806101ce57509160209160017ffc0d749143b04e0d92a3b49edae84a45f6bc88b75e99d9118ec4d7e87fe626c5945561015d8161217a565b6000805160206121ee83398151915255604051908152a17f1809e49bba43f2d39fa57894b50cd6ccb428cc438230e065cac3eb24a1355a7160405160008152604060208201523660408201523660006060830137600060603683010152606081601f19601f3601168101030190a180f35b8460449160405191631cfd276760e31b835260048301526024820152fd5b600080fd5b80fd5b50346101f157806003193601126101f1577f82055909238c0f5e63d6f174068ebb8f51bcec9bd37de63bb68f6551feec0cfc8054906001918083036103e3575060028091556000805160206121ae83398151915290815461025481611797565b916102626040519384611776565b81835260209384840190875284872087915b848310610375575050505050805190845b8281106102e557857f1809e49bba43f2d39fa57894b50cd6ccb428cc438230e065cac3eb24a1355a718660408781519283528201523660408201523660006060830137600060603683010152606081601f19601f3601168101030190a180f35b8061036f6102f48793856117ae565b51518661030184876117ae565b5101516001600160a01b03806040610319878a6117ae565b510151166060908161032b888b6117ae565b51015192604061033b898c6117ae565b51015116936040519561034d8761173f565b86528b86015260408501528301526080820152610369836117d8565b90611803565b01610285565b604051608081018181106001600160401b038211176103cd576040908152835482528984015489830152858401546001600160a01b031690820152600383015460608201528152918701916004909101908601610274565b634e487b7160e01b600052604160045260246000fd5b8260449160405191631cfd276760e31b835260048301526024820152fd5b5060203660031901126101f1576000805160206121ee8339815191525460043591906001600160a01b0316330361059e576000805160206121ce83398151915254918281116105805760008051602061222e8339815191529081549363ffffffff85169484938661054e575b6040519161047a83611724565b84835260208301903482526040840192878452600160401b82101561053a576001820190556104a890611907565b93909361052657937f05e5b10ca266c2e8cfd73b1fb719694fb6b89fcda9e3739ace4cc19b3e85544597989360026104f3948894610520985184555160018401555191015503612137565b604051938493349185929363ffffffff919594606093608086019786526020860152604085015216910152565b0390a180f35b634e487b7160e01b88526004889052602488fd5b634e487b7160e01b89526041600452602489fd5b935061057a61056d610567610562896119b2565b611907565b50611932565b60408101519051906116ee565b9361046d565b6044908360405191632ea1a50d60e11b835260048301526024820152fd5b60405163472511eb60e11b8152336004820152602490fd5b50346101f15760203660031901126101f1576000805160206121ee83398151915254604051630c5eff3d60e41b81526001600160a01b03916020908290600490829086165afa9081156106ab57839161067d575b501681813b156101f15760449160405192838092632d20488160e11b8252336004830152600460248301525afa80156106725761065e575b602061065033600435611ba7565b63ffffffff60405191168152f35b6106688291611711565b6101f15780610642565b6040513d84823e3d90fd5b61069e915060203d81116106a4575b6106968183611776565b81019061197b565b3861060a565b503d61068c565b6040513d85823e3d90fd5b50346101f157806003193601126101f1576000805160206121ee833981519152546040516001600160a01b039091168152602090f35b50346101f15760203660031901126101f1576004359063ffffffff821682036101f15760a061072c61072684610720611873565b506117d8565b5061189e565b6040519080518252602081015160208301526080600180851b0391826040820151166040850152606081015160608501520151166080820152f35b50346101f15760403660031901126101f1576001600160401b0390600435828111610c665761079a903690600401611680565b9290916024359182116101f157506107b6903690600401611680565b808403610c54576107c684611797565b926107d46040519485611776565b848452601f196107e386611797565b01366020860137604051916107f78361175a565b6107ff611873565b83526108096118e8565b60208401526000604084015260006060840152600060a0840152600060c0840152600060e084015263ffffffff60008051602061222e8339815191525416608084015263ffffffff6000805160206121ae8339815191525416936004602060018060a01b036000805160206121ee833981519152541660405192838092630c5eff3d60e41b82525afa908115610bc857600091610c35575b5060005b8881106108be57604051806108ba8a826116b0565b0390f35b63ffffffff6108d66108d1838c8961195a565b61196a565b16604087015263ffffffff6108ef6108d183878761195a565b16606087015263ffffffff60408701511687811015610c1d575063ffffffff60608701511663ffffffff608088015116811015610c05575061094061072661093b6108d1848d8a61195a565b6117d8565b808752604090810151905163e838dfbb60e01b81526001600160a01b039182166004820152906020908290602490829087165afa908115610bc857600091610be6575b50610bd45785516080015160405163e838dfbb60e01b81526001600160a01b039182166004820152906020908290602490829087165afa908115610bc857600091610b99575b50610b875785515115610b70576109fa6109ed6105676105626108d185898961195a565b8060208901528751611b79565b15610b415761ffff60a0870152600060e0870152600060c0870152610a1e86611e55565b855151610b3a5760005b60ff610a34838b6117ae565b91169052600080808060018060a01b0360408b5101511660e08b0151905af13d15610b32573d90610a6482611df2565b91610a726040519384611776565b82523d6000602084013e5b15610af6575080610a946108d16001938c8961195a565b877f25f4dfa5f0703d4c509bd7216e70f8378f419433c14840c14f3eaadb60642ad1606063ffffffff835194878060a01b036040870151169560c060e0870151960151905190604051968752602087015260408601521692a301955b956108a5565b86604060018060a01b039151015116610b2e60405192839263f2fc9fa160e01b84526004840152604060248401526044830190611640565b0390fd5b606090610a7d565b6001610a28565b60448663ffffffff606081604084015116920151166040519163b826420960e01b835260048301526024820152fd5b806002610b7f6001938b6117ae565b520195610af0565b604051633de3fb0960e11b8152600490fd5b610bbb915060203d602011610bc1575b610bb38183611776565b81019061199a565b386109c9565b503d610ba9565b6040513d6000823e3d90fd5b604051635941eb9d60e01b8152600490fd5b610bff915060203d602011610bc157610bb38183611776565b38610983565b6024906040519063311569d960e01b82526004820152fd5b60249060405190637ba6f8f560e11b82526004820152fd5b610c4e915060203d6020116106a4576106968183611776565b386108a1565b604051633a5e3f0d60e01b8152600490fd5b5080fd5b50346101f15760203660031901126101f1576004359063ffffffff821682036101f1576060610ca461056784610c9e6118e8565b50611907565b6040805191805183526020810151602084015201516040820152f35b50346101f157806003193601126101f157602060008051602061222e83398151915254604051908152f35b50346101f15760803660031901126101f1576001600160401b0390600435828111610c6657610d1e903690600401611680565b926024359081116111aa57610d37903690600401611680565b90916044351515604435036111a6576064359361ffff851685036101f15750818503610c5457610d6685611797565b93610d746040519586611776565b858552601f19610d8387611797565b0136602087013760405192610d978461175a565b610d9f611873565b8452610da96118e8565b60208501526000604085015260006060850152600060a0850152600060c0850152600060e085015263ffffffff60008051602061222e8339815191525416608085015263ffffffff6000805160206121ae8339815191525416946004602060018060a01b036000805160206121ee833981519152541660405192838092630c5eff3d60e41b82525afa908115610bc857600091611187575b5060005b898110610e5a57604051806108ba8b826116b0565b63ffffffff610e6d6108d1838d8a61195a565b16604088015263ffffffff610e866108d183878761195a565b16606088015263ffffffff60408801511688811015610c1d575063ffffffff60608801511663ffffffff608089015116811015610c055750610ed261072661093b6108d1848e8b61195a565b808852604090810151905163e838dfbb60e01b81526001600160a01b039182166004820152906020908290602490829087165afa908115610bc857600091611168575b50610bd45786516080015160405163e838dfbb60e01b81526001600160a01b039182166004820152906020908290602490829087165afa908115610bc857600091611149575b50610b87578651511561110057610f8c610f7f6105676105626108d185898961195a565b8060208a01528851611b79565b156110d15761ffff851660a0880152600060e0880152600060c0880152610fb287611e55565b8651516110ca5760005b60ff610fc8838c6117ae565b91169052600080808060018060a01b0360408c5101511660e08c0151905af13d156110c2573d90610ff882611df2565b916110066040519384611776565b82523d6000602084013e5b1561108a5750806110286108d16001938d8a61195a565b887f25f4dfa5f0703d4c509bd7216e70f8378f419433c14840c14f3eaadb60642ad1606063ffffffff835194878060a01b036040870151169560c060e0870151960151905190604051968752602087015260408601521692a301965b96610e45565b87604060018060a01b039151015116610b2e60405192839263f2fc9fa160e01b84526004840152604060248401526044830190611640565b606090611011565b6001610fbc565b60448763ffffffff606081604084015116920151166040519163b826420960e01b835260048301526024820152fd5b604499989796993561112e57602463ffffffff60408c015116604051906339775c8160e01b82526004820152fd5b8060026111416001938b9c9d9a9b6117ae565b520196611084565b611162915060203d602011610bc157610bb38183611776565b38610f5b565b611181915060203d602011610bc157610bb38183611776565b38610f15565b6111a0915060203d6020116106a4576106968183611776565b38610e41565b8380fd5b8280fd5b50346101f157602080600319360112610c66576004356001600160401b0381116111aa576111e0903690600401611680565b916111ea83611797565b916111f86040519384611776565b83835261120484611797565b8383019490601f19013686376112186118e8565b9060008051602061222e83398151915254806112d8575b5086939594965b818110611282575050505060405193838594850191818652518092526040850193925b82811061126857505050500390f35b835160070b85528695509381019392810192600101611259565b61129e836112996108d18486899d9b9c9a9d61195a565b6119d5565b6112a882886117ae565b9060070b905260001981146112c4576001019693959496611236565b634e487b7160e01b88526011600452602488fd5b6112eb9192506105679060001901611907565b903861122f565b50346101f157806003193601126101f157602060008051602061220e83398151915254604051908152f35b50346101f157806003193601126101f15760405160408101908082106001600160401b038311176103cd576108ba916040526005815264312e322e3160d81b6020820152604051918291602083526020830190611640565b50346101f157806003193601126101f15760206000805160206121ae83398151915254604051908152f35b50346101f15760403660031901126101f1576024356001600160a01b0381811692908383036101ec57806000805160206121ee83398151915254168033036114b3575b604051948591630c5eff3d60e41b835282600460209889935afa9182156114a857908692918592611486575b50602490604051948593849263e838dfbb60e01b84526004840152165afa91821561147a579161145d575b5061144b5761065090600435611ba7565b604051637e0aa9d960e01b8152600490fd5b6114749150833d8511610bc157610bb38183611776565b3861143a565b604051903d90823e3d90fd5b60249192506114a190843d86116106a4576106968183611776565b919061140f565b6040513d86823e3d90fd5b604051630c5eff3d60e41b8152602081600481855afa9081156114a8579083918591611530575b5016803b156111a6578360449160405192838092632d20488160e11b8252336004830152600460248301525afa80156114a85790849161151c575b50506113e3565b61152590611711565b6111aa578238611515565b611548915060203d81116106a4576106968183611776565b386114da565b50346101f157806003193601126101f15760206000805160206121ce83398151915254604051908152f35b905034610c66576020366003190112610c66576004359060018060a01b036000805160206121ee83398151915254169081330361162b5750829060008051602061220e83398151915280549380851160001461162457935b846115da578380f35b846115e4916119c8565b9055803b15610c66576004604051809481936302b4286360e11b83525af1801561067257611615575b818180808380f35b61161e90611711565b3861160d565b50836115d1565b63472511eb60e11b8152336004820152602490fd5b919082519283825260005b84811061166c575050826000602080949584010152601f8019910116010190565b60208183018101518483018201520161164b565b9181601f840112156101ec578235916001600160401b0383116101ec576020808501948460051b0101116101ec57565b6020908160408183019282815285518094520193019160005b8281106116d7575050505090565b835160ff16855293810193928101926001016116c9565b919082018092116116fb57565b634e487b7160e01b600052601160045260246000fd5b6001600160401b0381116103cd57604052565b606081019081106001600160401b038211176103cd57604052565b60a081019081106001600160401b038211176103cd57604052565b61010081019081106001600160401b038211176103cd57604052565b90601f801991011681019081106001600160401b038211176103cd57604052565b6001600160401b0381116103cd5760051b60200190565b80518210156117c25760209160051b010190565b634e487b7160e01b600052603260045260246000fd5b6000805160206121ae83398151915280548210156117c2576000526005602060002091020190600090565b9061185d57815181556020820151600182015560408201516002820180546001600160a01b03199081166001600160a01b039384161790915560608401516003840155608090930151600490920180549093169116179055565b634e487b7160e01b600052600060045260246000fd5b604051906118808261173f565b60006080838281528260208201528260408201528260608201520152565b906040516118ab8161173f565b825481526001830154602082015260028301546001600160a01b039081166040830152600384015460608301526004909301549092166080830152565b604051906118f582611724565b60006040838281528260208201520152565b60008051602061222e83398151915280548210156117c2576000526003602060002091020190600090565b9060405161193f81611724565b60406002829480548452600181015460208501520154910152565b91908110156117c25760051b0190565b3563ffffffff811681036101ec5790565b908160209103126101ec57516001600160a01b03811681036101ec5790565b908160209103126101ec575180151581036101ec5790565b63ffffffff90811660001901919082116116fb57565b919082039182116116fb57565b6000805160206121ae8339815191525463ffffffff82161015611a5e576107266119fe916117d8565b90815115611a565760008051602061222e8339815191525415908115611a37575b50611a3057611a2d90611a66565b90565b5060001990565b611a49915060408101519051906116ee565b6060820151101538611a1f565b505060021990565b505060011990565b60008051602061222e83398151915280546000198101939291908085116116fb5760079185830b90611aad611aa76105676001600160401b03998a16611907565b86611b79565b611b715760009215611b5d578252611ad0611aca60208420611932565b85611b79565b611b56575b80830b82840b818114611b4c5701677fffffffffffffff8113677fffffffffffffff198212176116fb57600290840b0590611b14610567838916611907565b611b1e8187611b79565b611b42576040606087015191015111600014611b3a5750611ad5565b915090611ad5565b5090955050505050565b5091955050505050565b5093505050565b634e487b7160e01b83526032600452602483fd5b509450505050565b606001908151611b91604083019283519051906116ee565b119182611b9d57505090565b5190511115919050565b9190611bb28161217a565b8215611de05760018060a01b03926000805160206121ee8339815191528481541692604080516323b872dd60e01b815233600482015230602482015284604482015260209081816064816000809b5af1908115611dd6578791611db9575b5015611da8576000805160206121ae83398151915280549063ffffffff82169988958b80611d79575b508482602498995416875198898092637bce1f8160e11b82528d60048301525afa968715611d6f578a97611d3c575b5086865195611c768761173f565b8a875286015216978885850152866060850152336080850152600160401b831015611d28575092611cd98a9361036984611d239760017f9a1bb960783a8679f42036f0c1fe89288fd279ed545a19f86bd284c72947b1879c9b9a970190556117d8565b611cfa611cf5876000805160206121ce833981519152546116ee565b612137565b5194859485929363ffffffff919594606093608086019786526020860152604085015216910152565b0390a2565b634e487b7160e01b81526041600452602490fd5b9096508481813d8311611d68575b611d548183611776565b81010312611d6457519538611c68565b8980fd5b503d611d4a565b86513d8c823e3d90fd5b6024975082611d9e611d9161072661093b8a956119b2565b60608101519051906116ee565b985050508b611c39565b81516313ff771f60e21b8152600490fd5b611dd09150823d8411610bc157610bb38183611776565b38611c10565b83513d89823e3d90fd5b604051630dd484e760e41b8152600490fd5b6001600160401b0381116103cd57601f01601f191660200190565b818102929181159184041417156116fb57565b8115611e2a570490565b634e487b7160e01b600052601260045260246000fd5b90600163ffffffff809316019182116116fb57565b611e5d6118e8565b9060208101611e90611e77825160408101519051906116ee565b611e8a84519160608351930151906119c8565b9061219c565b611eb3611eaa602086019280845260208551015190611e0d565b83515190611e20565b8452611ed2611ec9825160208651015190611e0d565b84515190611e20565b84518082106120ae575b50508051611ef060608551019182516116ee565b90528051611f0184519182516119c8565b90528351611f1560208551019182516119c8565b90528051611f2860c085019182516116ee565b90528351611f3b60e085019182516116ee565b9052604083015163ffffffff1660608401947f01d87b0f07b182b784c074487c5a8f901a8e2348275f5480d822a70de74fa8b7611f7c875163ffffffff1690565b9351918051611fbb604089515193015160405193849363ffffffff80809b16991697859094939260609260808301968352602083015260408201520152565b0390a38251511515908161206f575b5080612054575b15612049576120176105676105628561200d612003611ff7612047995163ffffffff1690565b60010163ffffffff1690565b63ffffffff168252565b5163ffffffff1690565b905261204260a0820161203a61202f825161ffff1690565b6000190161ffff1690565b61ffff169052565b611e55565b565b5061204791506120ed565b5061ffff61206760a084015161ffff1690565b161515611fd1565b9050612087612082855163ffffffff1690565b611e40565b906120a561209c608086015163ffffffff1690565b63ffffffff1690565b91161038611fca565b6120d2826120e4920380604089015260008051602061220e833981519152546116ee565b60008051602061220e83398151915255565b84523880611edc565b60016121326060835101516020604085019463ffffffff926003612113858951166117d8565b500155805151612125848851166117d8565b50555101519351166117d8565b500155565b6000805160206121ce8339815191527f81ba2e33f1e91d5b498c91742740d1de8a6149f571c26bec9ae77b5cf099c582604082548151908152846020820152a155565b6001600160a01b03161561218a57565b60405163f6b2911f60e01b8152600490fd5b818111156121a8575090565b90509056fe232f0d723a47bd57c991606dd0525f28484745095475b69dffe8416b3749c3c18ec604dcc41d380ed48f70a4a32dd9623b98c284836361a21b8992d2845ee53c1ec4138404500a2a0be2c2f9b103581c2a7fa783a934f91a6cc5cc924404973b9afb091d33aa9fdd4ac2dbd1cbba78215a097062e9dbdc7b707ac5bb59049bc00c9122afab04eaf9e9bdaa10927c74406e40c7f08744e32826fff29b1c9e7abca26469706673582212202ee5e17672fe81c438d2d09d98e988699c5ae16bacba25ad134fd38dd78ffb0564736f6c63430008140033",
  "devdoc": {
    "author": "Alluvial Finance Inc.",
    "errors": {
      "ClaimRedeemFailed(address,bytes)": [
        {
          "params": {
            "rdata": "The revert data",
            "recipient": "The recipient of the payment"
          }
        }
      ],
      "DoesNotMatch(uint256,uint256)": [
        {
          "params": {
            "redeemRequestId": "The provided redeem request id",
            "withdrawalEventId": "The provided associated withdrawal event id"
          }
        }
      ],
      "InvalidInitialization(uint256,uint256)": [
        {
          "params": {
            "expectedVersion": "The version that was expected",
            "version": "The version that was attempting to be initialized"
          }
        }
      ],
      "RedeemRequestAlreadyClaimed(uint256)": [
        {
          "params": {
            "id": "The redeem request id"
          }
        }
      ],
      "RedeemRequestOutOfBounds(uint256)": [
        {
          "params": {
            "id": "The redeem request id"
          }
        }
      ],
      "Unauthorized(address)": [
        {
          "params": {
            "caller": "Address performing the call"
          }
        }
      ],
      "WithdrawalEventOutOfBounds(uint256)": [
        {
          "params": {
            "id": "The withdrawal event id"
          }
        }
      ],
      "WithdrawalExceedsRedeemDemand(uint256,uint256)": [
        {
          "params": {
            "redeemDemand": "The current redeem demand",
            "withdrawalAmount": "The amount of the withdrawal event"
          }
        }
      ]
    },
    "events": {
      "ClaimedRedeemRequest(uint32,address,uint256,uint256,uint256)": {
        "params": {
          "ethAmount": "The amount of eth retrieved",
          "lsEthAmount": "The total amount of LsETH used to redeem the eth",
          "recipient": "The address receiving the redeem request funds",
          "redeemRequestId": "The id of the redeem request",
          "remainingLsEthAmount": "The amount of LsETH remaining"
        }
      },
      "Initialize(uint256,bytes)": {
        "params": {
          "cdata": "Complete calldata that was used during the initialization",
          "version": "New version of the contracts"
        }
      },
      "ReportedWithdrawal(uint256,uint256,uint256,uint32)": {
        "params": {
          "amount": "The amount of the withdrawal event in LsETH",
          "ethAmount": "The amount of eth to distrubute to claimers",
          "height": "The height of the withdrawal event in LsETH",
          "id": "The id of the withdrawal event"
        }
      },
      "RequestedRedeem(address,uint256,uint256,uint256,uint32)": {
        "params": {
          "amount": "The amount of the redeem request in LsETH",
          "height": "The height of the redeem request in LsETH",
          "id": "The id of the new redeem request",
          "maxRedeemableEth": "The maximum amount of eth that can be redeemed from this request",
          "recipient": "The recipient of the redeem request"
        }
      },
      "SatisfiedRedeemRequest(uint32,uint32,uint256,uint256,uint256,uint256)": {
        "params": {
          "ethAmountExceeding": "The amount of eth added to the exceeding buffer",
          "ethAmountSatisfied": "The amount of ETH filled",
          "lsEthAmountRemaining": "The amount of LsETH remaining",
          "lsEthAmountSatisfied": "The amount of LsETH filled",
          "redeemRequestId": "The id of the redeem request",
          "withdrawalEventId": "The id of the withdrawal event used to fill the request"
        }
      },
      "SetRedeemDemand(uint256,uint256)": {
        "params": {
          "newRedeemDemand": "The new redeem demand",
          "oldRedeemDemand": "The old redeem demand"
        }
      },
      "SetRiver(address)": {
        "params": {
          "river": "The new river address"
        }
      }
    },
    "kind": "dev",
    "methods": {
      "claimRedeemRequests(uint32[],uint32[])": {
        "params": {
          "_redeemRequestIds": "The list of redeem requests to claim",
          "_withdrawalEventIds": "The list of withdrawal events to use for every redeem request claim"
        },
        "returns": {
          "claimStatuses": "The list of claim statuses. 0 for fully claimed, 1 for partially claimed, 2 for skipped"
        }
      },
      "claimRedeemRequests(uint32[],uint32[],bool,uint16)": {
        "params": {
          "_depth": "The maximum recursive depth for the resolution of the redeem requests",
          "_redeemRequestIds": "The list of redeem requests to claim",
          "_skipAlreadyClaimed": "True if the call should not revert on claiming of already claimed requests",
          "_withdrawalEventIds": "The list of withdrawal events to use for every redeem request claim"
        },
        "returns": {
          "claimStatuses": "The list of claim statuses. 0 for fully claimed, 1 for partially claimed, 2 for skipped"
        }
      },
      "getBufferedExceedingEth()": {
        "returns": {
          "_0": "The amount of eth in the buffer"
        }
      },
      "getRedeemDemand()": {
        "returns": {
          "_0": "The amount of LsETH waiting to be exited"
        }
      },
      "getRedeemRequestDetails(uint32)": {
        "params": {
          "_redeemRequestId": "The id of the request"
        },
        "returns": {
          "_0": "The redeem request details"
        }
      },
      "getRiver()": {
        "returns": {
          "_0": "The address of River"
        }
      },
      "getWithdrawalEventDetails(uint32)": {
        "params": {
          "_withdrawalEventId": "The id of the withdrawal event"
        },
        "returns": {
          "_0": "The withdrawal event details"
        }
      },
      "initializeRedeemManagerV1(address)": {
        "params": {
          "_river": "The address of the River contract"
        }
      },
      "pullExceedingEth(uint256)": {
        "params": {
          "_max": "The maximum amount that should be pulled"
        }
      },
      "reportWithdraw(uint256)": {
        "params": {
          "_lsETHWithdrawable": "The amount of LsETH that can be redeemed due to this new withdraw event"
        }
      },
      "requestRedeem(uint256)": {
        "params": {
          "_lsETHAmount": "The amount of LsETH to redeem"
        },
        "returns": {
          "redeemRequestId": "The id of the redeem request"
        }
      },
      "requestRedeem(uint256,address)": {
        "params": {
          "_lsETHAmount": "The amount of LsETH to redeem",
          "_recipient": "The recipient owning the redeem request"
        },
        "returns": {
          "redeemRequestId": "The id of the redeem request"
        }
      },
      "resolveRedeemRequests(uint32[])": {
        "details": "The result is an array of equal length with ids or error code-1 means that the request is not satisfied yet-2 means that the request is out of bounds-3 means that the request has already been claimedThis call was created to be called by an off-chain interface, the output could then be used to perform the claimRewards call in a regular transaction",
        "params": {
          "_redeemRequestIds": "The list of redeem requests to resolve"
        },
        "returns": {
          "withdrawalEventIds": "The list of withdrawal events matching every redeem request (or error codes)"
        }
      },
      "version()": {
        "returns": {
          "_0": "Version of the contract"
        }
      }
    },
    "title": "Redeem Manager (v1)",
    "version": 1
  },
  "userdoc": {
    "errors": {
      "ClaimInitiatorIsDenied()": [
        {
          "notice": "Thrown when the claim initiator is denied"
        }
      ],
      "ClaimRecipientIsDenied()": [
        {
          "notice": "Thrown when the claim recipient is denied"
        }
      ],
      "ClaimRedeemFailed(address,bytes)": [
        {
          "notice": "Thrown when the payment after a claim failed"
        }
      ],
      "DoesNotMatch(uint256,uint256)": [
        {
          "notice": "Thrown when the redeem request and withdrawal event are not matching during claim"
        }
      ],
      "IncompatibleArrayLengths()": [
        {
          "notice": "Thrown when the provided arrays don't have matching lengths"
        }
      ],
      "InvalidInitialization(uint256,uint256)": [
        {
          "notice": "An error occured during the initialization"
        }
      ],
      "InvalidZeroAddress()": [
        {
          "notice": "The address is zero"
        }
      ],
      "InvalidZeroAmount()": [
        {
          "notice": "Thrown When a zero value is provided"
        }
      ],
      "RecipientIsDenied()": [
        {
          "notice": "Thrown when the recipient of redeemRequest is denied"
        }
      ],
      "RedeemRequestAlreadyClaimed(uint256)": [
        {
          "notice": "Thrown when\tthe redeem request id is already claimed"
        }
      ],
      "RedeemRequestOutOfBounds(uint256)": [
        {
          "notice": "Thrown when the provided redeem request id is out of bounds"
        }
      ],
      "TransferError()": [
        {
          "notice": "Thrown when a transfer error occured with LsETH"
        }
      ],
      "Unauthorized(address)": [
        {
          "notice": "The operator is unauthorized for the caller"
        }
      ],
      "WithdrawalEventOutOfBounds(uint256)": [
        {
          "notice": "Thrown when the withdrawal request id if out of bounds"
        }
      ],
      "WithdrawalExceedsRedeemDemand(uint256,uint256)": [
        {
          "notice": "Thrown when the provided withdrawal event exceeds the redeem demand"
        }
      ]
    },
    "events": {
      "ClaimedRedeemRequest(uint32,address,uint256,uint256,uint256)": {
        "notice": "Emitted when a redeem request claim has been processed and matched at least once and funds are sent to the recipient"
      },
      "Initialize(uint256,bytes)": {
        "notice": "Emitted when the contract is properly initialized"
      },
      "ReportedWithdrawal(uint256,uint256,uint256,uint32)": {
        "notice": "Emitted when a withdrawal event is created"
      },
      "RequestedRedeem(address,uint256,uint256,uint256,uint32)": {
        "notice": "Emitted when a redeem request is created"
      },
      "SatisfiedRedeemRequest(uint32,uint32,uint256,uint256,uint256,uint256)": {
        "notice": "Emitted when a redeem request has been satisfied and filled (even partially) from a withdrawal event"
      },
      "SetRedeemDemand(uint256,uint256)": {
        "notice": "Emitted when the redeem demand is set"
      },
      "SetRiver(address)": {
        "notice": "Emitted when the River address is set"
      }
    },
    "kind": "user",
    "methods": {
      "claimRedeemRequests(uint32[],uint32[])": {
        "notice": "Claims the rewards of the provided redeem request ids"
      },
      "claimRedeemRequests(uint32[],uint32[],bool,uint16)": {
        "notice": "Claims the rewards of the provided redeem request ids"
      },
      "getBufferedExceedingEth()": {
        "notice": "Retrieve the amount of redeemed LsETH pending to be supplied with withdrawn ETH"
      },
      "getRedeemDemand()": {
        "notice": "Retrieve the amount of LsETH waiting to be exited"
      },
      "getRedeemRequestCount()": {
        "notice": "Retrieve the global count of redeem requests"
      },
      "getRedeemRequestDetails(uint32)": {
        "notice": "Retrieve the details of a specific redeem request"
      },
      "getRiver()": {
        "notice": "Retrieve River address"
      },
      "getWithdrawalEventCount()": {
        "notice": "Retrieve the global count of withdrawal events"
      },
      "getWithdrawalEventDetails(uint32)": {
        "notice": "Retrieve the details of a specific withdrawal event"
      },
      "pullExceedingEth(uint256)": {
        "notice": "Pulls exceeding buffer eth"
      },
      "reportWithdraw(uint256)": {
        "notice": "Reports a withdraw event from River"
      },
      "requestRedeem(uint256)": {
        "notice": "Creates a redeem request using msg.sender as recipient"
      },
      "requestRedeem(uint256,address)": {
        "notice": "Creates a redeem request"
      },
      "resolveRedeemRequests(uint32[])": {
        "notice": "Resolves the provided list of redeem request ids"
      },
      "version()": {
        "notice": "Retrieves the version of the contract"
      }
    },
    "notice": "This contract handles the redeem requests of all users",
    "version": 1
  },
  "storageLayout": {
    "storage": [],
    "types": null
  }
}