{
  "address": "0x94adeE410d67e7b9282b07d7d4793e66Bba40fDd",
  "abi": [
    {
      "inputs": [
        {
          "internalType": "address",
          "name": "_logic",
          "type": "address"
        },
        {
          "internalType": "address",
          "name": "admin_",
          "type": "address"
        },
        {
          "internalType": "bytes",
          "name": "_data",
          "type": "bytes"
        }
      ],
      "stateMutability": "payable",
      "type": "constructor"
    },
    {
      "inputs": [],
      "name": "CallWhenPaused",
      "type": "error"
    },
    {
      "anonymous": false,
      "inputs": [
        {
          "indexed": false,
          "internalType": "address",
          "name": "previousAdmin",
          "type": "address"
        },
        {
          "indexed": false,
          "internalType": "address",
          "name": "newAdmin",
          "type": "address"
        }
      ],
      "name": "AdminChanged",
      "type": "event"
    },
    {
      "anonymous": false,
      "inputs": [
        {
          "indexed": true,
          "internalType": "address",
          "name": "beacon",
          "type": "address"
        }
      ],
      "name": "BeaconUpgraded",
      "type": "event"
    },
    {
      "anonymous": false,
      "inputs": [
        {
          "indexed": true,
          "internalType": "address",
          "name": "implementation",
          "type": "address"
        }
      ],
      "name": "Upgraded",
      "type": "event"
    },
    {
      "stateMutability": "payable",
      "type": "fallback"
    },
    {
      "inputs": [],
      "name": "admin",
      "outputs": [
        {
          "internalType": "address",
          "name": "admin_",
          "type": "address"
        }
      ],
      "stateMutability": "nonpayable",
      "type": "function"
    },
    {
      "inputs": [
        {
          "internalType": "address",
          "name": "newAdmin",
          "type": "address"
        }
      ],
      "name": "changeAdmin",
      "outputs": [],
      "stateMutability": "nonpayable",
      "type": "function"
    },
    {
      "inputs": [],
      "name": "implementation",
      "outputs": [
        {
          "internalType": "address",
          "name": "implementation_",
          "type": "address"
        }
      ],
      "stateMutability": "nonpayable",
      "type": "function"
    },
    {
      "inputs": [],
      "name": "isPaused",
      "outputs": [
        {
          "internalType": "bool",
          "name": "",
          "type": "bool"
        }
      ],
      "stateMutability": "nonpayable",
      "type": "function"
    },
    {
      "inputs": [],
      "name": "pause",
      "outputs": [],
      "stateMutability": "nonpayable",
      "type": "function"
    },
    {
      "inputs": [],
      "name": "unpause",
      "outputs": [],
      "stateMutability": "nonpayable",
      "type": "function"
    },
    {
      "inputs": [
        {
          "internalType": "address",
          "name": "newImplementation",
          "type": "address"
        }
      ],
      "name": "upgradeTo",
      "outputs": [],
      "stateMutability": "nonpayable",
      "type": "function"
    },
    {
      "inputs": [
        {
          "internalType": "address",
          "name": "newImplementation",
          "type": "address"
        },
        {
          "internalType": "bytes",
          "name": "data",
          "type": "bytes"
        }
      ],
      "name": "upgradeToAndCall",
      "outputs": [],
      "stateMutability": "payable",
      "type": "function"
    },
    {
      "stateMutability": "payable",
      "type": "receive"
    }
  ],
  "transactionHash": "0x7a3b2185ab59add3427394d1dbce7d9aa72d21e1f70b9ec943d61b3bb3bd5923",
  "args": [
    "0x9F83F949669957a4C610eeA66a89857b198c1da7",
    "0x07706A7D768054c10eB4FC9103Ea322f62831cb9",
    "0x6e8cac110000000000000000000000003ca06bd6eb062436f0f04bc4b7e888ba5bac8b6c0000000000000000000000003ca06bd6eb062436f0f04bc4b7e888ba5bac8b6c"
  ],
  "numDeployments": 1,
  "solcInputHash": "dca9819c3b048674cfda28f4dcab753f",
  "bytecode": "0x60806040526040516200106738038062001067833981016040819052620000269162000496565b8282828281620000398282600062000053565b506200004790508262000090565b505050505050620005c9565b6200005e83620000eb565b6000825111806200006c5750805b156200008b576200008983836200012d60201b620003af1760201c565b505b505050565b7f7e644d79422f17c01e4894b5f4f588d331ebfa28653d42ae832dc59e38c9798f620000bb6200015c565b604080516001600160a01b03928316815291841660208301520160405180910390a1620000e88162000195565b50565b620000f6816200024a565b6040516001600160a01b038216907fbc7cd75a20ee27fd9adebab32041f755214dbc6bffa90cc0225b39da2e5c2d3b90600090a250565b60606200015583836040518060600160405280602781526020016200104060279139620002fe565b9392505050565b6000620001866000805160206200102083398151915260001b620003e460201b6200020f1760201c565b546001600160a01b0316919050565b6001600160a01b038116620002005760405162461bcd60e51b815260206004820152602660248201527f455243313936373a206e65772061646d696e20697320746865207a65726f206160448201526564647265737360d01b60648201526084015b60405180910390fd5b80620002296000805160206200102083398151915260001b620003e460201b6200020f1760201c565b80546001600160a01b0319166001600160a01b039290921691909117905550565b6200026081620003e760201b620003db1760201c565b620002c45760405162461bcd60e51b815260206004820152602d60248201527f455243313936373a206e657720696d706c656d656e746174696f6e206973206e60448201526c1bdd08184818dbdb9d1c9858dd609a1b6064820152608401620001f7565b80620002297f360894a13ba1a3210667c828492db98dca3e2076cc3735a920a3ca505d382bbc60001b620003e460201b6200020f1760201c565b60606001600160a01b0384163b620003685760405162461bcd60e51b815260206004820152602660248201527f416464726573733a2064656c65676174652063616c6c20746f206e6f6e2d636f6044820152651b9d1c9858dd60d21b6064820152608401620001f7565b600080856001600160a01b03168560405162000385919062000576565b600060405180830381855af49150503d8060008114620003c2576040519150601f19603f3d011682016040523d82523d6000602084013e620003c7565b606091505b509092509050620003da828286620003f6565b9695505050505050565b90565b6001600160a01b03163b151590565b606083156200040757508162000155565b825115620004185782518084602001fd5b8160405162461bcd60e51b8152600401620001f7919062000594565b80516001600160a01b03811681146200044c57600080fd5b919050565b634e487b7160e01b600052604160045260246000fd5b60005b83811015620004845781810151838201526020016200046a565b83811115620000895750506000910152565b600080600060608486031215620004ac57600080fd5b620004b78462000434565b9250620004c76020850162000434565b60408501519092506001600160401b0380821115620004e557600080fd5b818601915086601f830112620004fa57600080fd5b8151818111156200050f576200050f62000451565b604051601f8201601f19908116603f011681019083821181831017156200053a576200053a62000451565b816040528281528960208487010111156200055457600080fd5b6200056783602083016020880162000467565b80955050505050509250925092565b600082516200058a81846020870162000467565b9190910192915050565b6020815260008251806020840152620005b581604085016020870162000467565b601f01601f19169190910160400192915050565b610a4780620005d96000396000f3fe60806040526004361061006f5760003560e01c80633659cfe6146100865780633f4ba83a146100a65780634f1ef286146100bb5780635c60da1b146100ce5780638456cb59146101005780638f28397014610115578063b187bd2614610135578063f851a4401461015a5761007e565b3661007e5761007c61016f565b005b61007c61016f565b34801561009257600080fd5b5061007c6100a136600461088c565b610189565b3480156100b257600080fd5b5061007c6101d0565b61007c6100c93660046108a7565b61022b565b3480156100da57600080fd5b506100e361029c565b6040516001600160a01b0390911681526020015b60405180910390f35b34801561010c57600080fd5b5061007c6102d4565b34801561012157600080fd5b5061007c61013036600461088c565b610312565b34801561014157600080fd5b5061014a61033c565b60405190151581526020016100f7565b34801561016657600080fd5b506100e3610384565b6101776103ea565b61018761018261043a565b610444565b565b610191610468565b6001600160a01b0316336001600160a01b031614156101c8576101c58160405180602001604052806000815250600061049b565b50565b6101c561016f565b6101d8610468565b6001600160a01b0316336001600160a01b0316141561022357600061021261020f60016000805160206109cb83398151915261092a565b90565b805460ff1916911515919091179055565b61018761016f565b610233610468565b6001600160a01b0316336001600160a01b031614156102945761028f8383838080601f0160208091040260200160405190810160405280939291908181526020018383808284376000920191909152506001925061049b915050565b505050565b61028f61016f565b60006102a6610468565b6001600160a01b0316336001600160a01b031614156102cc576102c761043a565b905090565b61020f61016f565b6102dc610468565b6001600160a01b0316336001600160a01b0316141561022357600161021261020f826000805160206109cb83398151915261092a565b61031a610468565b6001600160a01b0316336001600160a01b031614156101c8576101c5816104c6565b6000610346610468565b6001600160a01b0316336001600160a01b031614156102cc5761037b61020f60016000805160206109cb83398151915261092a565b5460ff16905090565b600061038e610468565b6001600160a01b0316336001600160a01b031614156102cc576102c7610468565b60606103d483836040518060600160405280602781526020016109eb6027913961051a565b9392505050565b6001600160a01b03163b151590565b61040661020f60016000805160206109cb83398151915261092a565b5460ff161580610414575033155b15610421576101876105fa565b6040516309453df560e21b815260040160405180910390fd5b60006102c7610694565b3660008037600080366000845af43d6000803e808015610463573d6000f35b3d6000fd5b60007fb53127684a568b3173ae13b9f8a6016e243e63b6e8ee1178d6a717850b5d61035b546001600160a01b0316919050565b6104a4836106bc565b6000825111806104b15750805b1561028f576104c083836103af565b50505050565b7f7e644d79422f17c01e4894b5f4f588d331ebfa28653d42ae832dc59e38c9798f6104ef610468565b604080516001600160a01b03928316815291841660208301520160405180910390a16101c5816106fc565b6060610525846103db565b6105855760405162461bcd60e51b815260206004820152602660248201527f416464726573733a2064656c65676174652063616c6c20746f206e6f6e2d636f6044820152651b9d1c9858dd60d21b60648201526084015b60405180910390fd5b600080856001600160a01b0316856040516105a0919061097b565b600060405180830381855af49150503d80600081146105db576040519150601f19603f3d011682016040523d82523d6000602084013e6105e0565b606091505b50915091506105f08282866107a5565b9695505050505050565b610602610468565b6001600160a01b0316336001600160a01b031614156101875760405162461bcd60e51b815260206004820152604260248201527f5472616e73706172656e745570677261646561626c6550726f78793a2061646d60448201527f696e2063616e6e6f742066616c6c6261636b20746f2070726f78792074617267606482015261195d60f21b608482015260a40161057c565b60007f360894a13ba1a3210667c828492db98dca3e2076cc3735a920a3ca505d382bbc61048c565b6106c5816107de565b6040516001600160a01b038216907fbc7cd75a20ee27fd9adebab32041f755214dbc6bffa90cc0225b39da2e5c2d3b90600090a250565b6001600160a01b0381166107615760405162461bcd60e51b815260206004820152602660248201527f455243313936373a206e65772061646d696e20697320746865207a65726f206160448201526564647265737360d01b606482015260840161057c565b807fb53127684a568b3173ae13b9f8a6016e243e63b6e8ee1178d6a717850b5d61035b80546001600160a01b0319166001600160a01b039290921691909117905550565b606083156107b45750816103d4565b8251156107c45782518084602001fd5b8160405162461bcd60e51b815260040161057c9190610997565b6107e7816103db565b6108495760405162461bcd60e51b815260206004820152602d60248201527f455243313936373a206e657720696d706c656d656e746174696f6e206973206e60448201526c1bdd08184818dbdb9d1c9858dd609a1b606482015260840161057c565b807f360894a13ba1a3210667c828492db98dca3e2076cc3735a920a3ca505d382bbc610784565b80356001600160a01b038116811461088757600080fd5b919050565b60006020828403121561089e57600080fd5b6103d482610870565b6000806000604084860312156108bc57600080fd5b6108c584610870565b9250602084013567ffffffffffffffff808211156108e257600080fd5b818601915086601f8301126108f657600080fd5b81358181111561090557600080fd5b87602082850101111561091757600080fd5b6020830194508093505050509250925092565b60008282101561094a57634e487b7160e01b600052601160045260246000fd5b500390565b60005b8381101561096a578181015183820152602001610952565b838111156104c05750506000910152565b6000825161098d81846020870161094f565b9190910192915050565b60208152600082518060208401526109b681604085016020870161094f565b601f01601f1916919091016040019291505056fea1c51e2db0fd509c88c4d1d064260a12d10b4b2370d6c629050bf501458f88c0416464726573733a206c6f772d6c6576656c2064656c65676174652063616c6c206661696c6564a2646970667358221220237816f1b264308eac78d2daa3fa5c35a40f940f06e2a11a29cbbe33e2a0fdb764736f6c634300080a0033b53127684a568b3173ae13b9f8a6016e243e63b6e8ee1178d6a717850b5d6103416464726573733a206c6f772d6c6576656c2064656c65676174652063616c6c206661696c6564",
  "devdoc": {
    "author": "Kiln",
    "kind": "dev",
    "methods": {
      "admin()": {
        "details": "Returns the current admin. NOTE: Only the admin can call this function. See {ProxyAdmin-getProxyAdmin}. TIP: To get this value clients can read directly from the storage slot shown below (specified by EIP1967) using the https://eth.wiki/json-rpc/API#eth_getstorageat[`eth_getStorageAt`] RPC call. `0xb53127684a568b3173ae13b9f8a6016e243e63b6e8ee1178d6a717850b5d6103`"
      },
      "changeAdmin(address)": {
        "details": "Changes the admin of the proxy. Emits an {AdminChanged} event. NOTE: Only the admin can call this function. See {ProxyAdmin-changeProxyAdmin}."
      },
      "implementation()": {
        "details": "Returns the current implementation. NOTE: Only the admin can call this function. See {ProxyAdmin-getProxyImplementation}. TIP: To get this value clients can read directly from the storage slot shown below (specified by EIP1967) using the https://eth.wiki/json-rpc/API#eth_getstorageat[`eth_getStorageAt`] RPC call. `0x360894a13ba1a3210667c828492db98dca3e2076cc3735a920a3ca505d382bbc`"
      },
      "isPaused()": {
        "details": "Retrieves Paused state",
        "returns": {
          "_0": "Paused state"
        }
      },
      "pause()": {
        "details": "Pauses system"
      },
      "unpause()": {
        "details": "Unpauses system"
      },
      "upgradeTo(address)": {
        "details": "Upgrade the implementation of the proxy. NOTE: Only the admin can call this function. See {ProxyAdmin-upgrade}."
      },
      "upgradeToAndCall(address,bytes)": {
        "details": "Upgrade the implementation of the proxy, and then call a function from the new implementation as specified by `data`, which should be an encoded function call. This is useful to initialize new storage variables in the proxied contract. NOTE: Only the admin can call this function. See {ProxyAdmin-upgradeAndCall}."
      }
    },
    "title": "TUPProxy (Transparent Upgradeable Pausable Proxy)",
    "version": 1
  },
  "userdoc": {
    "kind": "user",
    "methods": {},
    "notice": "This contract extends the Transparent Upgradeable proxy and adds a system wide pause feature.         When the system is paused, the fallback will fail no matter what calls are made.",
    "version": 1
  },
  "storageLayout": {
    "storage": [],
    "types": null
  }
}