{
  "address": "0xfc23244ea91E0E438E814eFAF245C9Bd940d1De8",
  "abi": [
    {
      "inputs": [
        {
          "internalType": "address",
          "name": "_receiver",
          "type": "address"
        }
      ],
      "stateMutability": "nonpayable",
      "type": "constructor"
    },
    {
      "anonymous": false,
      "inputs": [
        {
          "indexed": false,
          "internalType": "bytes",
          "name": "pubkey",
          "type": "bytes"
        },
        {
          "indexed": false,
          "internalType": "bytes",
          "name": "withdrawal_credentials",
          "type": "bytes"
        },
        {
          "indexed": false,
          "internalType": "bytes",
          "name": "amount",
          "type": "bytes"
        },
        {
          "indexed": false,
          "internalType": "bytes",
          "name": "signature",
          "type": "bytes"
        },
        {
          "indexed": false,
          "internalType": "bytes",
          "name": "index",
          "type": "bytes"
        }
      ],
      "name": "DepositEvent",
      "type": "event"
    },
    {
      "inputs": [
        {
          "internalType": "bytes",
          "name": "pubkey",
          "type": "bytes"
        },
        {
          "internalType": "bytes",
          "name": "withdrawalCredentials",
          "type": "bytes"
        },
        {
          "internalType": "bytes",
          "name": "signature",
          "type": "bytes"
        },
        {
          "internalType": "bytes32",
          "name": "",
          "type": "bytes32"
        }
      ],
      "name": "deposit",
      "outputs": [],
      "stateMutability": "payable",
      "type": "function"
    },
    {
      "inputs": [],
      "name": "depositCount",
      "outputs": [
        {
          "internalType": "uint256",
          "name": "",
          "type": "uint256"
        }
      ],
      "stateMutability": "view",
      "type": "function"
    },
    {
      "inputs": [],
      "name": "receiver",
      "outputs": [
        {
          "internalType": "address",
          "name": "",
          "type": "address"
        }
      ],
      "stateMutability": "view",
      "type": "function"
    }
  ],
  "transactionHash": "0x764c997f9d35611abb69d507a37f996ff21d31de0213c548bc5153adcf7d5f12",
  "args": [
    "0x774c51712F2f1eAFA73681403414D5EE419f2c73"
  ],
  "numDeployments": 1,
  "solcInputHash": "5398461594ac27bb3cb7da375e90f087",
  "bytecode": "0x608060405234801561001057600080fd5b5060405161068238038061068283398101604081905261002f91610054565b600180546001600160a01b0319166001600160a01b0392909216919091179055610084565b60006020828403121561006657600080fd5b81516001600160a01b038116811461007d57600080fd5b9392505050565b6105ef806100936000396000f3fe6080604052600436106100345760003560e01c806322895118146100395780632dfdf0b51461004e578063f7260d3e14610077575b600080fd5b61004c6100473660046103cf565b6100af565b005b34801561005a57600080fd5b5061006460005481565b6040519081526020015b60405180910390f35b34801561008357600080fd5b50600154610097906001600160a01b031681565b6040516001600160a01b03909116815260200161006e565b7f649bbc62d0e31342afea4e5cd82d4049e7e1ee912fc0889aa790803be39038c5878787876100ea6100e5633b9aca0034610472565b6101d2565b88886100f76000546101d2565b60405161010b98979695949392919061050a565b60405180910390a16001600080828254610125919061057d565b90915550506001546040516000916001600160a01b03169047908381818185875af1925050503d8060008114610177576040519150601f19603f3d011682016040523d82523d6000602084013e61017c565b606091505b50509050806101c85760405162461bcd60e51b8152602060048201526014602482015273119d5b99081d1c985b9cd9995c8819985a5b195960621b604482015260640160405180910390fd5b5050505050505050565b60408051600880825281830190925260609160208201818036833701905050905060c082901b8060071a60f81b82600081518110610212576102126105a3565b60200101906001600160f81b031916908160001a9053508060061a60f81b82600181518110610243576102436105a3565b60200101906001600160f81b031916908160001a9053508060051a60f81b82600281518110610274576102746105a3565b60200101906001600160f81b031916908160001a9053508060041a60f81b826003815181106102a5576102a56105a3565b60200101906001600160f81b031916908160001a9053508060031a60f81b826004815181106102d6576102d66105a3565b60200101906001600160f81b031916908160001a9053508060021a60f81b82600581518110610307576103076105a3565b60200101906001600160f81b031916908160001a9053508060011a60f81b82600681518110610338576103386105a3565b60200101906001600160f81b031916908160001a9053508060001a60f81b82600781518110610369576103696105a3565b60200101906001600160f81b031916908160001a90535050919050565b60008083601f84011261039857600080fd5b50813567ffffffffffffffff8111156103b057600080fd5b6020830191508360208285010111156103c857600080fd5b9250929050565b60008060008060008060006080888a0312156103ea57600080fd5b873567ffffffffffffffff8082111561040257600080fd5b61040e8b838c01610386565b909950975060208a013591508082111561042757600080fd5b6104338b838c01610386565b909750955060408a013591508082111561044c57600080fd5b506104598a828b01610386565b989b979a50959894979596606090950135949350505050565b60008261048f57634e487b7160e01b600052601260045260246000fd5b500490565b81835281816020850137506000828201602090810191909152601f909101601f19169091010190565b6000815180845260005b818110156104e3576020818501810151868301820152016104c7565b818111156104f5576000602083870101525b50601f01601f19169290920160200192915050565b60a08152600061051e60a083018a8c610494565b828103602084015261053181898b610494565b9050828103604084015261054581886104bd565b9050828103606084015261055a818688610494565b9050828103608084015261056e81856104bd565b9b9a5050505050505050505050565b6000821982111561059e57634e487b7160e01b600052601160045260246000fd5b500190565b634e487b7160e01b600052603260045260246000fdfea2646970667358221220ae022fdd82f50968f1019286793e6fe0ea7a4131ef229beeac40ee86d976928764736f6c634300080a0033",
  "devdoc": {
    "kind": "dev",
    "methods": {},
    "version": 1
  },
  "userdoc": {
    "kind": "user",
    "methods": {},
    "version": 1
  },
  "storageLayout": {
    "storage": [
      {
        "astId": 6406,
        "contract": "contracts/src/mock/DepositContractMock.sol:DepositContractMock",
        "label": "depositCount",
        "offset": 0,
        "slot": "0",
        "type": "t_uint256"
      },
      {
        "astId": 6408,
        "contract": "contracts/src/mock/DepositContractMock.sol:DepositContractMock",
        "label": "receiver",
        "offset": 0,
        "slot": "1",
        "type": "t_address"
      }
    ],
    "types": {
      "t_address": {
        "encoding": "inplace",
        "label": "address",
        "numberOfBytes": "20"
      },
      "t_uint256": {
        "encoding": "inplace",
        "label": "uint256",
        "numberOfBytes": "32"
      }
    }
  }
}