{
  "address": "0x7d450AA22166792E38abc3DFCF3F9d30d14fb489",
  "abi": [
    {
      "inputs": [
        {
          "internalType": "address",
          "name": "_receiver",
          "type": "address"
        }
      ],
      "stateMutability": "nonpayable",
      "type": "constructor"
    },
    {
      "anonymous": false,
      "inputs": [
        {
          "indexed": false,
          "internalType": "bytes",
          "name": "pubkey",
          "type": "bytes"
        },
        {
          "indexed": false,
          "internalType": "bytes",
          "name": "withdrawal_credentials",
          "type": "bytes"
        },
        {
          "indexed": false,
          "internalType": "bytes",
          "name": "amount",
          "type": "bytes"
        },
        {
          "indexed": false,
          "internalType": "bytes",
          "name": "signature",
          "type": "bytes"
        },
        {
          "indexed": false,
          "internalType": "bytes",
          "name": "index",
          "type": "bytes"
        }
      ],
      "name": "DepositEvent",
      "type": "event"
    },
    {
      "inputs": [
        {
          "internalType": "bytes",
          "name": "pubkey",
          "type": "bytes"
        },
        {
          "internalType": "bytes",
          "name": "withdrawalCredentials",
          "type": "bytes"
        },
        {
          "internalType": "bytes",
          "name": "signature",
          "type": "bytes"
        },
        {
          "internalType": "bytes32",
          "name": "",
          "type": "bytes32"
        }
      ],
      "name": "deposit",
      "outputs": [],
      "stateMutability": "payable",
      "type": "function"
    },
    {
      "inputs": [],
      "name": "depositCount",
      "outputs": [
        {
          "internalType": "uint256",
          "name": "",
          "type": "uint256"
        }
      ],
      "stateMutability": "view",
      "type": "function"
    },
    {
      "inputs": [],
      "name": "receiver",
      "outputs": [
        {
          "internalType": "address",
          "name": "",
          "type": "address"
        }
      ],
      "stateMutability": "view",
      "type": "function"
    }
  ],
  "transactionHash": "0xbe3ee37b10b0dae53f522326adcd3da60ddc342a0b43ee900fd729e3a031dd87",
  "args": [
    "0x774c51712F2f1eAFA73681403414D5EE419f2c73"
  ],
  "numDeployments": 1,
  "solcInputHash": "43221bad0243cd96359fad9a2f7cd1af",
  "bytecode": "0x608060405234801561001057600080fd5b506040516106cc3803806106cc83398101604081905261002f91610054565b600180546001600160a01b0319166001600160a01b0392909216919091179055610084565b60006020828403121561006657600080fd5b81516001600160a01b038116811461007d57600080fd5b9392505050565b610639806100936000396000f3fe6080604052600436106100345760003560e01c806322895118146100395780632dfdf0b51461004e578063f7260d3e14610077575b600080fd5b61004c610047366004610419565b6100c9565b005b34801561005a57600080fd5b5061006460005481565b6040519081526020015b60405180910390f35b34801561008357600080fd5b506001546100a49073ffffffffffffffffffffffffffffffffffffffff1681565b60405173ffffffffffffffffffffffffffffffffffffffff909116815260200161006e565b7f649bbc62d0e31342afea4e5cd82d4049e7e1ee912fc0889aa790803be39038c5878787876101046100ff633b9aca00346104bc565b61021c565b888861011160005461021c565b604051610125989796959493929190610554565b60405180910390a1600160008082825461013f91906105c7565b909155505060015460405160009173ffffffffffffffffffffffffffffffffffffffff169047908381818185875af1925050503d806000811461019e576040519150601f19603f3d011682016040523d82523d6000602084013e6101a3565b606091505b5050905080610212576040517f08c379a000000000000000000000000000000000000000000000000000000000815260206004820152601460248201527f46756e64207472616e73666572206661696c6564000000000000000000000000604482015260640160405180910390fd5b5050505050505050565b60408051600880825281830190925260609160208201818036833701905050905060c082901b8060071a60f81b8260008151811061025c5761025c6105ed565b60200101906001600160f81b031916908160001a9053508060061a60f81b8260018151811061028d5761028d6105ed565b60200101906001600160f81b031916908160001a9053508060051a60f81b826002815181106102be576102be6105ed565b60200101906001600160f81b031916908160001a9053508060041a60f81b826003815181106102ef576102ef6105ed565b60200101906001600160f81b031916908160001a9053508060031a60f81b82600481518110610320576103206105ed565b60200101906001600160f81b031916908160001a9053508060021a60f81b82600581518110610351576103516105ed565b60200101906001600160f81b031916908160001a9053508060011a60f81b82600681518110610382576103826105ed565b60200101906001600160f81b031916908160001a9053508060001a60f81b826007815181106103b3576103b36105ed565b60200101906001600160f81b031916908160001a90535050919050565b60008083601f8401126103e257600080fd5b50813567ffffffffffffffff8111156103fa57600080fd5b60208301915083602082850101111561041257600080fd5b9250929050565b60008060008060008060006080888a03121561043457600080fd5b873567ffffffffffffffff8082111561044c57600080fd5b6104588b838c016103d0565b909950975060208a013591508082111561047157600080fd5b61047d8b838c016103d0565b909750955060408a013591508082111561049657600080fd5b506104a38a828b016103d0565b989b979a50959894979596606090950135949350505050565b6000826104d957634e487b7160e01b600052601260045260246000fd5b500490565b81835281816020850137506000828201602090810191909152601f909101601f19169091010190565b6000815180845260005b8181101561052d57602081850181015186830182015201610511565b8181111561053f576000602083870101525b50601f01601f19169290920160200192915050565b60a08152600061056860a083018a8c6104de565b828103602084015261057b81898b6104de565b9050828103604084015261058f8188610507565b905082810360608401526105a48186886104de565b905082810360808401526105b88185610507565b9b9a5050505050505050505050565b600082198211156105e857634e487b7160e01b600052601160045260246000fd5b500190565b634e487b7160e01b600052603260045260246000fdfea2646970667358221220639d557c89801e5058719994ec4b04fab015ffb536102ad7ec806254877366b664736f6c634300080a0033",
  "devdoc": {
    "kind": "dev",
    "methods": {},
    "version": 1
  },
  "userdoc": {
    "kind": "user",
    "methods": {},
    "version": 1
  },
  "storageLayout": {
    "storage": [
      {
        "astId": 4489,
        "contract": "contracts/src/mock/DepositContractMock.sol:DepositContractMock",
        "label": "depositCount",
        "offset": 0,
        "slot": "0",
        "type": "t_uint256"
      },
      {
        "astId": 4491,
        "contract": "contracts/src/mock/DepositContractMock.sol:DepositContractMock",
        "label": "receiver",
        "offset": 0,
        "slot": "1",
        "type": "t_address"
      }
    ],
    "types": {
      "t_address": {
        "encoding": "inplace",
        "label": "address",
        "numberOfBytes": "20"
      },
      "t_uint256": {
        "encoding": "inplace",
        "label": "uint256",
        "numberOfBytes": "32"
      }
    }
  }
}