{
  "address": "0xF3b4DFF27cF4665f7373DCD2A28E60B59B88e53c",
  "abi": [
    {
      "inputs": [],
      "name": "InvalidCall",
      "type": "error"
    },
    {
      "inputs": [
        {
          "internalType": "uint256",
          "name": "version",
          "type": "uint256"
        },
        {
          "internalType": "uint256",
          "name": "expectedVersion",
          "type": "uint256"
        }
      ],
      "name": "InvalidInitialization",
      "type": "error"
    },
    {
      "stateMutability": "payable",
      "type": "fallback"
    },
    {
      "inputs": [],
      "name": "compound",
      "outputs": [],
      "stateMutability": "nonpayable",
      "type": "function"
    },
    {
      "inputs": [
        {
          "internalType": "address",
          "name": "_riverAddress",
          "type": "address"
        }
      ],
      "name": "initELFeeRecipientV1",
      "outputs": [],
      "stateMutability": "nonpayable",
      "type": "function"
    },
    {
      "stateMutability": "payable",
      "type": "receive"
    }
  ],
  "transactionHash": "0xe4e0412b08cf98c9210c2f93b07fd0a56bff71f775cd04342740b353e1646120",
  "args": [],
  "numDeployments": 1,
  "solcInputHash": "09a490197081074b7caaa46a96090f59",
  "bytecode": "0x608060405234801561001057600080fd5b50610323806100206000396000f3fe60806040526004361061002d5760003560e01c80635404dd7914610066578063f69e20461461008857610034565b3661003457005b6040517fae962d4e00000000000000000000000000000000000000000000000000000000815260040160405180910390fd5b34801561007257600080fd5b50610086610081366004610252565b61009d565b005b34801561009457600080fd5b50610086610115565b60006100a7610185565b81146100f557806100b6610185565b6040517fe7e93b380000000000000000000000000000000000000000000000000000000081526004810192909252602482015260440160405180910390fd5b6101086101038260016102be565b6101be565b610111826101f4565b5050565b600061011f610222565b90508073ffffffffffffffffffffffffffffffffffffffff1663ed88c68e476040518263ffffffff1660e01b81526004016000604051808303818588803b15801561016957600080fd5b505af115801561017d573d6000803e3d6000fd5b505050505050565b60006101b96101b560017f82055909238c0f5e63d6f174068ebb8f51bcec9bd37de63bb68f6551feec0cfd6102d6565b5490565b905090565b6101f16101ec60017f82055909238c0f5e63d6f174068ebb8f51bcec9bd37de63bb68f6551feec0cfd6102d6565b829055565b50565b6101f16101ec60017f1ec4138404500a2a0be2c2f9b103581c2a7fa783a934f91a6cc5cc924404973c6102d6565b60006101b96101b560017f1ec4138404500a2a0be2c2f9b103581c2a7fa783a934f91a6cc5cc924404973c6102d6565b60006020828403121561026457600080fd5b813573ffffffffffffffffffffffffffffffffffffffff8116811461028857600080fd5b9392505050565b7f4e487b7100000000000000000000000000000000000000000000000000000000600052601160045260246000fd5b600082198211156102d1576102d161028f565b500190565b6000828210156102e8576102e861028f565b50039056fea2646970667358221220aaad02b11604b6459f57782637ddb61e91d39a735926bdf2310598469299e57164736f6c634300080a0033",
  "devdoc": {
    "author": "Kiln",
    "kind": "dev",
    "methods": {
      "initELFeeRecipientV1(address)": {
        "params": {
          "_riverAddress": "Address of River"
        }
      }
    },
    "title": "Execution Layer Fee Recipient",
    "version": 1
  },
  "userdoc": {
    "kind": "user",
    "methods": {
      "compound()": {
        "notice": "Counpounds all the current balance inside river"
      },
      "initELFeeRecipientV1(address)": {
        "notice": "Initialize the fee recipient with the required arguments"
      }
    },
    "notice": "This contract receives all the execution layer fees from the proposed blocks + bribes",
    "version": 1
  },
  "storageLayout": {
    "storage": [],
    "types": null
  }
}