{
  "address": "0x9Fdb764198C6Cd626B12c9B062A4D096436A9639",
  "abi": [
    {
      "inputs": [],
      "name": "InvalidCall",
      "type": "error"
    },
    {
      "inputs": [
        {
          "internalType": "uint256",
          "name": "version",
          "type": "uint256"
        },
        {
          "internalType": "uint256",
          "name": "expectedVersion",
          "type": "uint256"
        }
      ],
      "name": "InvalidInitialization",
      "type": "error"
    },
    {
      "inputs": [],
      "name": "InvalidZeroAddress",
      "type": "error"
    },
    {
      "inputs": [
        {
          "internalType": "address",
          "name": "caller",
          "type": "address"
        }
      ],
      "name": "Unauthorized",
      "type": "error"
    },
    {
      "stateMutability": "payable",
      "type": "fallback"
    },
    {
      "inputs": [
        {
          "internalType": "address",
          "name": "_riverAddress",
          "type": "address"
        }
      ],
      "name": "initELFeeRecipientV1",
      "outputs": [],
      "stateMutability": "nonpayable",
      "type": "function"
    },
    {
      "inputs": [],
      "name": "pullELFees",
      "outputs": [],
      "stateMutability": "nonpayable",
      "type": "function"
    },
    {
      "stateMutability": "payable",
      "type": "receive"
    }
  ],
  "transactionHash": "0x39afa91f9b43b7a7e5c482526beed0f048bcde342405c94ad8ae9307c5afd068",
  "args": [],
  "numDeployments": 1,
  "solcInputHash": "e0747c9f458a392de0f02a251cd18ac6",
  "bytecode": "0x608060405234801561001057600080fd5b50610311806100206000396000f3fe60806040526004361061002d5760003560e01c80635404dd791461004d5780637b4b81821461006f57610034565b3661003457005b60405163574b16a760e11b815260040160405180910390fd5b34801561005957600080fd5b5061006d610068366004610266565b610084565b005b34801561007b57600080fd5b5061006d6100e4565b600061008e610172565b81146100c4578061009d610172565b604051631cfd276760e31b8152600481019290925260248201526044015b60405180910390fd5b6100d76100d28260016102ac565b6101ab565b6100e0826101e1565b5050565b60006100ee610236565b9050336001600160a01b0382161461011b5760405163472511eb60e11b81523360048201526024016100bb565b806001600160a01b031663efd60347476040518263ffffffff1660e01b81526004016000604051808303818588803b15801561015657600080fd5b505af115801561016a573d6000803e3d6000fd5b505050505050565b60006101a66101a260017f82055909238c0f5e63d6f174068ebb8f51bcec9bd37de63bb68f6551feec0cfd6102c4565b5490565b905090565b6101de6101d960017f82055909238c0f5e63d6f174068ebb8f51bcec9bd37de63bb68f6551feec0cfd6102c4565b829055565b50565b6001600160a01b0381166102085760405163f6b2911f60e01b815260040160405180910390fd5b6101de6101d960017f1ec4138404500a2a0be2c2f9b103581c2a7fa783a934f91a6cc5cc924404973c6102c4565b60006101a66101a260017f1ec4138404500a2a0be2c2f9b103581c2a7fa783a934f91a6cc5cc924404973c6102c4565b60006020828403121561027857600080fd5b81356001600160a01b038116811461028f57600080fd5b9392505050565b634e487b7160e01b600052601160045260246000fd5b600082198211156102bf576102bf610296565b500190565b6000828210156102d6576102d6610296565b50039056fea26469706673582212208f5ff426bf645e78dfcb5e7480f5494cd7489c2884979c8f35728717c4d4ecd164736f6c634300080a0033",
  "devdoc": {
    "author": "Kiln",
    "kind": "dev",
    "methods": {
      "initELFeeRecipientV1(address)": {
        "params": {
          "_riverAddress": "Address of River"
        }
      },
      "pullELFees()": {
        "details": "Only callable by the River contract"
      }
    },
    "title": "Execution Layer Fee Recipient",
    "version": 1
  },
  "userdoc": {
    "kind": "user",
    "methods": {
      "initELFeeRecipientV1(address)": {
        "notice": "Initialize the fee recipient with the required arguments"
      },
      "pullELFees()": {
        "notice": "Pulls all the ETH to the River contract"
      }
    },
    "notice": "This contract receives all the execution layer fees from the proposed blocks + bribes",
    "version": 1
  },
  "storageLayout": {
    "storage": [],
    "types": null
  }
}