{
  "address": "0xC43A03195c48CB46C2713359706F748bf5b4997e",
  "abi": [
    {
      "inputs": [
        {
          "internalType": "uint256",
          "name": "_epochId",
          "type": "uint256"
        },
        {
          "internalType": "address",
          "name": "_member",
          "type": "address"
        }
      ],
      "name": "AlreadyReported",
      "type": "error"
    },
    {
      "inputs": [
        {
          "internalType": "uint256",
          "name": "_prevTotalEth",
          "type": "uint256"
        },
        {
          "internalType": "uint256",
          "name": "_postTotalEth",
          "type": "uint256"
        },
        {
          "internalType": "uint256",
          "name": "_timeElapsed",
          "type": "uint256"
        },
        {
          "internalType": "uint256",
          "name": "_relativeLowerBound",
          "type": "uint256"
        }
      ],
      "name": "BeaconBalanceDecreaseOutOfBounds",
      "type": "error"
    },
    {
      "inputs": [
        {
          "internalType": "uint256",
          "name": "_prevTotalEth",
          "type": "uint256"
        },
        {
          "internalType": "uint256",
          "name": "_postTotalEth",
          "type": "uint256"
        },
        {
          "internalType": "uint256",
          "name": "_timeElapsed",
          "type": "uint256"
        },
        {
          "internalType": "uint256",
          "name": "_annualAprUpperBound",
          "type": "uint256"
        }
      ],
      "name": "BeaconBalanceIncreaseOutOfBounds",
      "type": "error"
    },
    {
      "inputs": [
        {
          "internalType": "uint256",
          "name": "_providedEpochId",
          "type": "uint256"
        },
        {
          "internalType": "uint256",
          "name": "_minExpectedEpochId",
          "type": "uint256"
        }
      ],
      "name": "EpochTooOld",
      "type": "error"
    },
    {
      "inputs": [],
      "name": "InvalidArgument",
      "type": "error"
    },
    {
      "inputs": [],
      "name": "InvalidCall",
      "type": "error"
    },
    {
      "inputs": [
        {
          "internalType": "uint256",
          "name": "version",
          "type": "uint256"
        },
        {
          "internalType": "uint256",
          "name": "expectedVersion",
          "type": "uint256"
        }
      ],
      "name": "InvalidInitialization",
      "type": "error"
    },
    {
      "inputs": [
        {
          "internalType": "uint256",
          "name": "_providedEpochId",
          "type": "uint256"
        },
        {
          "internalType": "uint256",
          "name": "_expectedFrameFirstEpochId",
          "type": "uint256"
        }
      ],
      "name": "NotFrameFirstEpochId",
      "type": "error"
    },
    {
      "inputs": [
        {
          "internalType": "address",
          "name": "caller",
          "type": "address"
        }
      ],
      "name": "Unauthorized",
      "type": "error"
    },
    {
      "anonymous": false,
      "inputs": [
        {
          "indexed": false,
          "internalType": "uint256",
          "name": "_epochId",
          "type": "uint256"
        },
        {
          "indexed": false,
          "internalType": "uint128",
          "name": "_newBeaconBalance",
          "type": "uint128"
        },
        {
          "indexed": false,
          "internalType": "uint32",
          "name": "_newBeaconValidatorCount",
          "type": "uint32"
        },
        {
          "indexed": false,
          "internalType": "address",
          "name": "_oracleMember",
          "type": "address"
        }
      ],
      "name": "BeaconReported",
      "type": "event"
    },
    {
      "anonymous": false,
      "inputs": [
        {
          "indexed": false,
          "internalType": "uint256",
          "name": "_epochId",
          "type": "uint256"
        }
      ],
      "name": "ExpectedEpochIdUpdated",
      "type": "event"
    },
    {
      "anonymous": false,
      "inputs": [
        {
          "indexed": false,
          "internalType": "uint256",
          "name": "_postTotalEth",
          "type": "uint256"
        },
        {
          "indexed": false,
          "internalType": "uint256",
          "name": "_prevTotalEth",
          "type": "uint256"
        },
        {
          "indexed": false,
          "internalType": "uint256",
          "name": "_timeElapsed",
          "type": "uint256"
        },
        {
          "indexed": false,
          "internalType": "uint256",
          "name": "_totalShares",
          "type": "uint256"
        }
      ],
      "name": "PostTotalShares",
      "type": "event"
    },
    {
      "anonymous": false,
      "inputs": [
        {
          "indexed": false,
          "internalType": "uint256",
          "name": "_newQuorum",
          "type": "uint256"
        }
      ],
      "name": "QuorumChanged",
      "type": "event"
    },
    {
      "inputs": [
        {
          "internalType": "address",
          "name": "_newOracleMember",
          "type": "address"
        }
      ],
      "name": "addMember",
      "outputs": [],
      "stateMutability": "nonpayable",
      "type": "function"
    },
    {
      "inputs": [],
      "name": "getAdministrator",
      "outputs": [
        {
          "internalType": "address",
          "name": "",
          "type": "address"
        }
      ],
      "stateMutability": "view",
      "type": "function"
    },
    {
      "inputs": [],
      "name": "getBeaconBounds",
      "outputs": [
        {
          "components": [
            {
              "internalType": "uint256",
              "name": "annualAprUpperBound",
              "type": "uint256"
            },
            {
              "internalType": "uint256",
              "name": "relativeLowerBound",
              "type": "uint256"
            }
          ],
          "internalType": "struct BeaconReportBounds.BeaconReportBoundsStruct",
          "name": "",
          "type": "tuple"
        }
      ],
      "stateMutability": "view",
      "type": "function"
    },
    {
      "inputs": [],
      "name": "getBeaconSpec",
      "outputs": [
        {
          "components": [
            {
              "internalType": "uint64",
              "name": "epochsPerFrame",
              "type": "uint64"
            },
            {
              "internalType": "uint64",
              "name": "slotsPerEpoch",
              "type": "uint64"
            },
            {
              "internalType": "uint64",
              "name": "secondsPerSlot",
              "type": "uint64"
            },
            {
              "internalType": "uint64",
              "name": "genesisTime",
              "type": "uint64"
            }
          ],
          "internalType": "struct BeaconSpec.BeaconSpecStruct",
          "name": "",
          "type": "tuple"
        }
      ],
      "stateMutability": "view",
      "type": "function"
    },
    {
      "inputs": [],
      "name": "getCurrentEpochId",
      "outputs": [
        {
          "internalType": "uint256",
          "name": "",
          "type": "uint256"
        }
      ],
      "stateMutability": "view",
      "type": "function"
    },
    {
      "inputs": [],
      "name": "getCurrentFrame",
      "outputs": [
        {
          "internalType": "uint256",
          "name": "_startEpochId",
          "type": "uint256"
        },
        {
          "internalType": "uint256",
          "name": "_startTime",
          "type": "uint256"
        },
        {
          "internalType": "uint256",
          "name": "_endTime",
          "type": "uint256"
        }
      ],
      "stateMutability": "view",
      "type": "function"
    },
    {
      "inputs": [],
      "name": "getExpectedEpochId",
      "outputs": [
        {
          "internalType": "uint256",
          "name": "",
          "type": "uint256"
        }
      ],
      "stateMutability": "view",
      "type": "function"
    },
    {
      "inputs": [
        {
          "internalType": "uint256",
          "name": "_epochId",
          "type": "uint256"
        }
      ],
      "name": "getFrameFirstEpochId",
      "outputs": [
        {
          "internalType": "uint256",
          "name": "",
          "type": "uint256"
        }
      ],
      "stateMutability": "view",
      "type": "function"
    },
    {
      "inputs": [],
      "name": "getGlobalReportStatus",
      "outputs": [
        {
          "internalType": "uint256",
          "name": "",
          "type": "uint256"
        }
      ],
      "stateMutability": "view",
      "type": "function"
    },
    {
      "inputs": [],
      "name": "getLastCompletedEpochId",
      "outputs": [
        {
          "internalType": "uint256",
          "name": "",
          "type": "uint256"
        }
      ],
      "stateMutability": "view",
      "type": "function"
    },
    {
      "inputs": [
        {
          "internalType": "address",
          "name": "_oracleMember",
          "type": "address"
        }
      ],
      "name": "getMemberReportStatus",
      "outputs": [
        {
          "internalType": "bool",
          "name": "",
          "type": "bool"
        }
      ],
      "stateMutability": "view",
      "type": "function"
    },
    {
      "inputs": [],
      "name": "getOracleMembers",
      "outputs": [
        {
          "internalType": "address[]",
          "name": "",
          "type": "address[]"
        }
      ],
      "stateMutability": "view",
      "type": "function"
    },
    {
      "inputs": [],
      "name": "getQuorum",
      "outputs": [
        {
          "internalType": "uint256",
          "name": "",
          "type": "uint256"
        }
      ],
      "stateMutability": "view",
      "type": "function"
    },
    {
      "inputs": [
        {
          "internalType": "uint256",
          "name": "_idx",
          "type": "uint256"
        }
      ],
      "name": "getReportVariant",
      "outputs": [
        {
          "internalType": "uint64",
          "name": "_beaconBalance",
          "type": "uint64"
        },
        {
          "internalType": "uint32",
          "name": "_beaconValidators",
          "type": "uint32"
        },
        {
          "internalType": "uint16",
          "name": "_reportCount",
          "type": "uint16"
        }
      ],
      "stateMutability": "view",
      "type": "function"
    },
    {
      "inputs": [],
      "name": "getReportVariantsCount",
      "outputs": [
        {
          "internalType": "uint256",
          "name": "",
          "type": "uint256"
        }
      ],
      "stateMutability": "view",
      "type": "function"
    },
    {
      "inputs": [],
      "name": "getRiver",
      "outputs": [
        {
          "internalType": "address",
          "name": "",
          "type": "address"
        }
      ],
      "stateMutability": "view",
      "type": "function"
    },
    {
      "inputs": [],
      "name": "getTime",
      "outputs": [
        {
          "internalType": "uint256",
          "name": "",
          "type": "uint256"
        }
      ],
      "stateMutability": "view",
      "type": "function"
    },
    {
      "inputs": [
        {
          "internalType": "address",
          "name": "_riverContractAddress",
          "type": "address"
        },
        {
          "internalType": "address",
          "name": "_administratorAddress",
          "type": "address"
        },
        {
          "internalType": "uint64",
          "name": "_epochsPerFrame",
          "type": "uint64"
        },
        {
          "internalType": "uint64",
          "name": "_slotsPerEpoch",
          "type": "uint64"
        },
        {
          "internalType": "uint64",
          "name": "_secondsPerSlot",
          "type": "uint64"
        },
        {
          "internalType": "uint64",
          "name": "_genesisTime",
          "type": "uint64"
        },
        {
          "internalType": "uint256",
          "name": "_annualAprUpperBound",
          "type": "uint256"
        },
        {
          "internalType": "uint256",
          "name": "_relativeLowerBound",
          "type": "uint256"
        }
      ],
      "name": "initOracleV1",
      "outputs": [],
      "stateMutability": "nonpayable",
      "type": "function"
    },
    {
      "inputs": [
        {
          "internalType": "address",
          "name": "_memberAddress",
          "type": "address"
        }
      ],
      "name": "isMember",
      "outputs": [
        {
          "internalType": "bool",
          "name": "",
          "type": "bool"
        }
      ],
      "stateMutability": "view",
      "type": "function"
    },
    {
      "inputs": [
        {
          "internalType": "address",
          "name": "_oracleMember",
          "type": "address"
        }
      ],
      "name": "removeMember",
      "outputs": [],
      "stateMutability": "nonpayable",
      "type": "function"
    },
    {
      "inputs": [
        {
          "internalType": "uint256",
          "name": "_epochId",
          "type": "uint256"
        },
        {
          "internalType": "uint64",
          "name": "_beaconBalance",
          "type": "uint64"
        },
        {
          "internalType": "uint32",
          "name": "_beaconValidators",
          "type": "uint32"
        }
      ],
      "name": "reportBeacon",
      "outputs": [],
      "stateMutability": "nonpayable",
      "type": "function"
    },
    {
      "inputs": [
        {
          "internalType": "uint256",
          "name": "_annualAprUpperBound",
          "type": "uint256"
        },
        {
          "internalType": "uint256",
          "name": "_relativeLowerBound",
          "type": "uint256"
        }
      ],
      "name": "setBeaconBounds",
      "outputs": [],
      "stateMutability": "nonpayable",
      "type": "function"
    },
    {
      "inputs": [
        {
          "internalType": "uint64",
          "name": "_epochsPerFrame",
          "type": "uint64"
        },
        {
          "internalType": "uint64",
          "name": "_slotsPerEpoch",
          "type": "uint64"
        },
        {
          "internalType": "uint64",
          "name": "_secondsPerSlot",
          "type": "uint64"
        },
        {
          "internalType": "uint64",
          "name": "_genesisTime",
          "type": "uint64"
        }
      ],
      "name": "setBeaconSpec",
      "outputs": [],
      "stateMutability": "nonpayable",
      "type": "function"
    },
    {
      "inputs": [
        {
          "internalType": "uint256",
          "name": "_newQuorum",
          "type": "uint256"
        }
      ],
      "name": "setQuorum",
      "outputs": [],
      "stateMutability": "nonpayable",
      "type": "function"
    }
  ],
  "transactionHash": "0x971da0de78c856d12a86d00eace00313d31f6bff4cc1cd642d2d1bbf2db6c842",
  "args": [],
  "numDeployments": 1,
  "solcInputHash": "dffe9829564a0f6301b4e81b73aebcc5",
  "bytecode": "0x608060405234801561001057600080fd5b50612075806100206000396000f3fe608060405234801561001057600080fd5b50600436106101985760003560e01c806393ef4511116100e3578063c26c12eb1161008c578063e547c77c11610066578063e547c77c14610360578063e90b2da1146103ac578063fad2e86a146103bf57600080fd5b8063c26c12eb14610330578063ca6d56dc14610338578063dabb57571461034b57600080fd5b8063a519f060116100bd578063a519f06014610302578063bc8b8f971461030a578063c1ba4e591461031d57600080fd5b806393ef4511146102c4578063a230c524146102e7578063a29a839f146102fa57600080fd5b80635190dce01161014557806372f79b131161011f57806372f79b131461028657806389896aef146102a957806391f10da0146102b157600080fd5b80635190dce01461024a578063557ed1ba1461026d57806357fa85471461027357600080fd5b80631696740711610176578063169674071461020f57806331f208b31461022f5780634b47b74f1461024257600080fd5b80630b1ca49a1461019d5780631045a966146101b257806314c8cd6a146101f9575b600080fd5b6101b06101ab366004611cf3565b6103c7565b005b6101c56101c0366004611d0e565b610443565b6040805167ffffffffffffffff909416845263ffffffff909216602084015261ffff16908201526060015b60405180910390f35b61020161048c565b6040519081526020016101f0565b61021761049b565b6040516001600160a01b0390911681526020016101f0565b6101b061023d366004611d3f565b6104a5565b610201610754565b61025d610258366004611cf3565b61075e565b60405190151581526020016101f0565b42610201565b610201610281366004611d0e565b61077c565b61028e610793565b604080519384526020840192909252908201526060016101f0565b610201610850565b6101b06102bf366004611d88565b61085a565b6102cc6108b2565b604080518251815260209283015192810192909252016101f0565b61025d6102f5366004611cf3565b6108ce565b61020161093e565b61021761095a565b6101b0610318366004611daa565b610964565b6101b061032b366004611d0e565b610a60565b610201610b9d565b6101b0610346366004611cf3565b610ba7565b610353610c19565b6040516101f09190611e33565b610368610c23565b6040516101f09190815167ffffffffffffffff9081168252602080840151821690830152604080840151821690830152606092830151169181019190915260800190565b6101b06103ba366004611e80565b610c4f565b610201610cdb565b6103cf610ceb565b6001600160a01b0316336001600160a01b0316146104075760405163472511eb60e11b81523360048201526024015b60405180910390fd5b600061041282610cf5565b905060008112156104365760405163574b16a760e11b815260040160405180910390fd5b61043f81610d90565b5050565b600080600080610451610e92565b858151811061046257610462611ed4565b6020026020010151905061047f81603081901c9160109190911c90565b9096909550909350915050565b6000610496610f19565b905090565b6000610496610ceb565b60006104af610f4d565b905060006104bb610ff9565b905080851015610501576040517f09ec8ad200000000000000000000000000000000000000000000000000000000815260048101869052602481018290526044016103fe565b8085111561056d57600061051d61051784611029565b84611079565b9050808614610562576040517f983b675100000000000000000000000000000000000000000000000000000000815260048101879052602481018290526044016103fe565b61056b8661109c565b505b600061058767ffffffffffffffff8616633b9aca00611f00565b604080518881526fffffffffffffffffffffffffffffffff8316602082015263ffffffff87168183015233606082015290519192507ff9088c3664056902a1be808c28981aa5e97da5f1a2b3557233d04eed40a9b42a919081900360800190a160006105f233610cf5565b90508060001914156106195760405163472511eb60e11b81523360048201526024016103fe565b610622816110eb565b15610662576040517ff4d521a2000000000000000000000000000000000000000000000000000000008152600481018890523360248201526044016103fe565b61066b8161112e565b601085901b65ffffffff000016603087901b6dffffffffffffffff0000000000001617600061069982611196565b905060006106a5611222565b90506000821261071b5760006106b9610e92565b83815181106106ca576106ca611ed4565b60200260200101519050816106dc8290565b6106e7906001611f38565b61ffff1610610701576106fc8b878b8b611252565b610715565b61071583610710836001611f5e565b6114f6565b50610748565b8060011415610735576107308a868a8a611252565b610748565b610748610743846001611f5e565b611550565b50505050505050505050565b6000610496610ff9565b60008061076a83610cf5565b9050610775816110eb565b9392505050565b600080610787610f4d565b90506107758382611079565b6000806000806107a1610f4d565b90506107b56107af82611029565b82611079565b9350806020015167ffffffffffffffff16816040015167ffffffffffffffff16856107e09190611f76565b6107ea9190611f76565b816060015167ffffffffffffffff166108039190611f5e565b925060018160000151826020015183604001516108209190611f95565b61082a9190611f95565b61083e9067ffffffffffffffff1685611f5e565b6108489190611fbc565b915050909192565b6000610496611597565b610862610ceb565b6001600160a01b0316336001600160a01b0316146108955760405163472511eb60e11b81523360048201526024016103fe565b61043f6040518060400160405280848152602001838152506115c7565b604080518082019091526000808252602082015261049661160a565b6000806108d961166a565b905060005b815181101561093457836001600160a01b031682828151811061090357610903611ed4565b60200260200101516001600160a01b03161415610924575060019392505050565b61092d81611fd3565b90506108de565b5060009392505050565b600080610949610f4d565b905061095481611029565b91505090565b60006104966116fa565b600061096e61172a565b81146109b8578061097d61172a565b6040517fe7e93b38000000000000000000000000000000000000000000000000000000008152600481019290925260248201526044016103fe565b6109cb6109c6826001611f5e565b61175a565b6109d488611790565b6109dd89611799565b610a2e60405180608001604052808967ffffffffffffffff1681526020018867ffffffffffffffff1681526020018767ffffffffffffffff1681526020018667ffffffffffffffff168152506117c7565b610a4b6040518060400160405280858152602001848152506115c7565b610a5560016118a5565b505050505050505050565b610a68610ceb565b6001600160a01b0316336001600160a01b031614610a9b5760405163472511eb60e11b81523360048201526024016103fe565b80610ad2576040517fa9cb9e0d00000000000000000000000000000000000000000000000000000000815260040160405180910390fd5b6000610adc611222565b905080821415610aff5760405163574b16a760e11b815260040160405180910390fd5b610b08826118a5565b6040518281527f027863d12a407097e086a48e36475bfc859d0b200b7e6f65b5fd3b218e46632e9060200160405180910390a18181111561043f57600080610b4f846118d3565b915091508115610b9757603081901c601082901c610b94610b6e610ff9565b610b8667ffffffffffffffff8516633b9aca00611f00565b83610b8f610f4d565b611252565b50505b50505050565b6000610496611222565b610baf610ceb565b6001600160a01b0316336001600160a01b031614610be25760405163472511eb60e11b81523360048201526024016103fe565b6000610bed82610cf5565b905060008112610c105760405163574b16a760e11b815260040160405180910390fd5b61043f826119f9565b606061049661166a565b604080516080810182526000808252602082018190529181018290526060810191909152610496610f4d565b610c57610ceb565b6001600160a01b0316336001600160a01b031614610c8a5760405163472511eb60e11b81523360048201526024016103fe565b610b9760405180608001604052808667ffffffffffffffff1681526020018567ffffffffffffffff1681526020018467ffffffffffffffff1681526020018367ffffffffffffffff168152506117c7565b6000610ce5610e92565b51905090565b6000610496611a68565b600080610d2360017fc4aba040293e5848600dd7b64a390db880c4a70937c23383e6c5b6619689863b611fbc565b90508060005b8154811015610d8457846001600160a01b0316826000018281548110610d5157610d51611ed4565b6000918252602090912001546001600160a01b03161415610d7457949350505050565b610d7d81611fd3565b9050610d29565b50600019949350505050565b6000610dbd60017fc4aba040293e5848600dd7b64a390db880c4a70937c23383e6c5b6619689863b611fbc565b80549091508190600090610dd390600190611fbc565b9050838114610e4c57816000018181548110610df157610df1611ed4565b60009182526020909120015482546001600160a01b0390911690839086908110610e1d57610e1d611ed4565b9060005260206000200160006101000a8154816001600160a01b0302191690836001600160a01b031602179055505b8154829080610e5d57610e5d611fee565b6000828152602090208101600019908101805473ffffffffffffffffffffffffffffffffffffffff1916905501905550505050565b60606000610ec160017ff1827321f6d023724a23b4e28f3ef67f741d185cff4e224f6dcbb56935784fcd611fbc565b8054604080516020808402820181019092528281529293508392918391830182828015610f0d57602002820191906000526020600020905b815481526020019060010190808311610ef9575b50505050509250505090565b6000610496610f4960017f50e65b39a6b6b7bb3298d9d19e41cecec530b7916ba516c44f4d79e3a9dcd7a7611fbc565b5490565b604080516080810182526000808252602082018190529181018290526060810182905290610f9c60017f910cad6638f0b06b72ead1455bffc33be6e9b1c24417cc3f692aaaf0bef75a16611fbc565b60408051608081018252915467ffffffffffffffff8082168452680100000000000000008204811660208501527001000000000000000000000000000000008204811692840192909252600160c01b900416606082015292915050565b6000610496610f4960017f45d0d54fdd66220435526b0d20a3e002dad71447d5a32fb8efce72e62d4e0228611fbc565b60008160400151826020015161103f9190611f95565b67ffffffffffffffff16826060015167ffffffffffffffff1661105f4290565b6110699190611fbc565b6110739190612004565b92915050565b805160009067ffffffffffffffff166110928185612004565b6107759190611f76565b6110a4611a98565b6110ac611ace565b6110b581611b09565b6040518181527fcdcd275f4d96ed683d684f3610a92beacdebcf1ee4d37e2df526fb9001e1ea639060200160405180910390a150565b6000600180831b908190819061112590610f49907f50e65b39a6b6b7bb3298d9d19e41cecec530b7916ba516c44f4d79e3a9dcd7a7611fbc565b16149392505050565b600180821b9061043f90611162907f50e65b39a6b6b7bb3298d9d19e41cecec530b7916ba516c44f4d79e3a9dcd7a7611fbc565b82611191610f4960017f50e65b39a6b6b7bb3298d9d19e41cecec530b7916ba516c44f4d79e3a9dcd7a7611fbc565b179055565b6000806111c460017ff1827321f6d023724a23b4e28f3ef67f741d185cff4e224f6dcbb56935784fcd611fbc565b90508060005b8154811015610d8457846dffffffffffffffffffffffff00008360000183815481106111f8576111f8611ed4565b906000526020600020015416141561121257949350505050565b61121b81611fd3565b90506111ca565b6000610496610f4960017fffa4a5d927096d2bbb9d71111d7c9929ecbdcbe9bffc8d35f55b642e81698ebb611fbc565b80516112719061126c9067ffffffffffffffff1686611f5e565b61109c565b600061127b6116fa565b90506000816001600160a01b03166318160ddd6040518163ffffffff1660e01b81526004016020604051808303816000875af11580156112bf573d6000803e3d6000fd5b505050506040513d601f19601f820116820180604052508101906112e39190612026565b6040517f80d4027e00000000000000000000000000000000000000000000000000000000815263ffffffff861660048201526fffffffffffffffffffffffffffffffff87166024820152604481018890529091506001600160a01b038316906380d4027e90606401600060405180830381600087803b15801561136557600080fd5b505af1158015611379573d6000803e3d6000fd5b505050506000826001600160a01b03166318160ddd6040518163ffffffff1660e01b81526004016020604051808303816000875af11580156113bf573d6000803e3d6000fd5b505050506040513d601f19601f820116820180604052508101906113e39190612026565b90506000846040015167ffffffffffffffff16856020015167ffffffffffffffff1661140d611597565b611417908b611fbc565b6114219190611f76565b61142b9190611f76565b9050611438828483611b37565b61144188611c49565b7fdafd48d1eba2a416b2aca45e9ead3ad18b84e868fa6d2e1a3048bfd37ed10a32828483876001600160a01b0316633a98ef396040518163ffffffff1660e01b81526004016020604051808303816000875af11580156114a5573d6000803e3d6000fd5b505050506040513d601f19601f820116820180604052508101906114c99190612026565b60408051948552602085019390935291830152606082015260800160405180910390a15050505050505050565b600061152360017ff1827321f6d023724a23b4e28f3ef67f741d185cff4e224f6dcbb56935784fcd611fbc565b80549091508190839082908690811061153e5761153e611ed4565b60009182526020909120015550505050565b600061157d60017ff1827321f6d023724a23b4e28f3ef67f741d185cff4e224f6dcbb56935784fcd611fbc565b805460018101825560009182526020909120019190915550565b6000610496610f4960017faf3d74d3b4106d19ea8994739c1a66b48922195975ea284f4cd201487a79b9ed611fbc565b60006115f460017f8a8a043b81dd88a581f2aa1faf076f45266d72ec8307cdf217c10a967969249f611fbc565b8251815560209092015160019092019190915550565b6040805180820190915260008082526020820152600061164b60017f8a8a043b81dd88a581f2aa1faf076f45266d72ec8307cdf217c10a967969249f611fbc565b6040805180820190915281548152600190910154602082015292915050565b6060600061169960017fc4aba040293e5848600dd7b64a390db880c4a70937c23383e6c5b6619689863b611fbc565b8054604080516020808402820181019092528281529293508392918391830182828015610f0d57602002820191906000526020600020905b81546001600160a01b031681526001909101906020018083116116d15750505050509250505090565b6000610496610f4960017f1ec4138404500a2a0be2c2f9b103581c2a7fa783a934f91a6cc5cc924404973c611fbc565b6000610496610f4960017f82055909238c0f5e63d6f174068ebb8f51bcec9bd37de63bb68f6551feec0cfd611fbc565b61178d61178860017f82055909238c0f5e63d6f174068ebb8f51bcec9bd37de63bb68f6551feec0cfd611fbc565b829055565b50565b61178d81611c77565b61178d61178860017f1ec4138404500a2a0be2c2f9b103581c2a7fa783a934f91a6cc5cc924404973c611fbc565b60006117f460017f910cad6638f0b06b72ead1455bffc33be6e9b1c24417cc3f692aaaf0bef75a16611fbc565b825181546020850151604086015160609096015167ffffffffffffffff908116600160c01b0277ffffffffffffffffffffffffffffffffffffffffffffffff97821670010000000000000000000000000000000002979097166fffffffffffffffffffffffffffffffff92821668010000000000000000027fffffffffffffffffffffffffffffffff0000000000000000000000000000000090941691909416179190911716179290921790915550565b61178d61178860017fffa4a5d927096d2bbb9d71111d7c9929ecbdcbe9bffc8d35f55b642e81698ebb611fbc565b60008060006118e0610e92565b9050805160011415611939578361190e8260008151811061190357611903611ed4565b602002602001015190565b61ffff1610158160008151811061192757611927611ed4565b60200260200101519250925050915091565b805161194b5750600093849350915050565b60008060008060005b85518110156119be5761197286828151811061190357611903611ed4565b91508261ffff168261ffff16106119ae578261ffff168261ffff1614156119a35761199c84611fd3565b93506119ae565b809450819250600093505b6119b781611fd3565b9050611954565b50878261ffff16101580156119d1575082155b8585815181106119e3576119e3611ed4565b6020026020010151965096505050505050915091565b6000611a2660017fc4aba040293e5848600dd7b64a390db880c4a70937c23383e6c5b6619689863b611fbc565b80546001810182556000918252602090912001805473ffffffffffffffffffffffffffffffffffffffff19166001600160a01b03939093169290921790915550565b6000610496610f4960017fb5b37715a3e346e996104f0086703f19825def429233930fd9399c38e05fb113611fbc565b611acc611ac660017f50e65b39a6b6b7bb3298d9d19e41cecec530b7916ba516c44f4d79e3a9dcd7a7611fbc565b60009055565b565b6000611afb60017ff1827321f6d023724a23b4e28f3ef67f741d185cff4e224f6dcbb56935784fcd611fbc565b90508061043f816000611ca5565b61178d61178860017f45d0d54fdd66220435526b0d20a3e002dad71447d5a32fb8efce72e62d4e0228611fbc565b818310611bc9576000611b4861160a565b51905081611b568483611f76565b611b609190611f76565b611b6a8486611fbc565b611b799064496cebb800611f76565b1115610b97576040517fd86fb83d000000000000000000000000000000000000000000000000000000008152600481018490526024810185905260448101839052606481018290526084016103fe565b6000611bd361160a565b602001519050611be38382611f76565b611bed8585611fbc565b611bf990612710611f76565b1115610b97576040517f0aa91ae4000000000000000000000000000000000000000000000000000000008152600481018490526024810185905260448101839052606481018290526084016103fe565b61178d61178860017faf3d74d3b4106d19ea8994739c1a66b48922195975ea284f4cd201487a79b9ed611fbc565b61178d61178860017fb5b37715a3e346e996104f0086703f19825def429233930fd9399c38e05fb113611fbc565b508054600082559060005260206000209081019061178d91905b80821115611cd35760008155600101611cbf565b5090565b80356001600160a01b0381168114611cee57600080fd5b919050565b600060208284031215611d0557600080fd5b61077582611cd7565b600060208284031215611d2057600080fd5b5035919050565b803567ffffffffffffffff81168114611cee57600080fd5b600080600060608486031215611d5457600080fd5b83359250611d6460208501611d27565b9150604084013563ffffffff81168114611d7d57600080fd5b809150509250925092565b60008060408385031215611d9b57600080fd5b50508035926020909101359150565b600080600080600080600080610100898b031215611dc757600080fd5b611dd089611cd7565b9750611dde60208a01611cd7565b9650611dec60408a01611d27565b9550611dfa60608a01611d27565b9450611e0860808a01611d27565b9350611e1660a08a01611d27565b925060c0890135915060e089013590509295985092959890939650565b6020808252825182820181905260009190848201906040850190845b81811015611e745783516001600160a01b031683529284019291840191600101611e4f565b50909695505050505050565b60008060008060808587031215611e9657600080fd5b611e9f85611d27565b9350611ead60208601611d27565b9250611ebb60408601611d27565b9150611ec960608601611d27565b905092959194509250565b634e487b7160e01b600052603260045260246000fd5b634e487b7160e01b600052601160045260246000fd5b60006fffffffffffffffffffffffffffffffff80831681851681830481118215151615611f2f57611f2f611eea565b02949350505050565b600061ffff808316818516808303821115611f5557611f55611eea565b01949350505050565b60008219821115611f7157611f71611eea565b500190565b6000816000190483118215151615611f9057611f90611eea565b500290565b600067ffffffffffffffff80831681851681830481118215151615611f2f57611f2f611eea565b600082821015611fce57611fce611eea565b500390565b6000600019821415611fe757611fe7611eea565b5060010190565b634e487b7160e01b600052603160045260246000fd5b60008261202157634e487b7160e01b600052601260045260246000fd5b500490565b60006020828403121561203857600080fd5b505191905056fea264697066735822122053a7b6725e31ba4b34994cf390308a7abead76fee5ce21858c1432f31fec812064736f6c634300080a0033",
  "devdoc": {
    "author": "Kiln",
    "kind": "dev",
    "methods": {
      "addMember(address)": {
        "details": "Only callable by the adminstrator",
        "params": {
          "_newOracleMember": "Address of the new member"
        }
      },
      "getFrameFirstEpochId(uint256)": {
        "params": {
          "_epochId": "Epoch id used to get the frame"
        }
      },
      "getMemberReportStatus(address)": {
        "params": {
          "_oracleMember": "Address of member to check"
        }
      },
      "getReportVariant(uint256)": {
        "params": {
          "_idx": "Index of report"
        }
      },
      "initOracleV1(address,address,uint64,uint64,uint64,uint64,uint256,uint256)": {
        "params": {
          "_administratorAddress": "Address able to call administrative methods",
          "_annualAprUpperBound": "Beacon bound parameter. Maximum apr allowed for balance increase. Delta between updates is extrapolated on a year time frame.",
          "_epochsPerFrame": "Beacon spec parameter. Number of epochs in a frame.",
          "_genesisTime": "Beacon spec parameter. Timestamp of the genesis slot.",
          "_relativeLowerBound": "Beacon bound parameter. Maximum relative balance decrease.",
          "_riverContractAddress": "Address of the River contract, able to receive oracle input data after quorum is met",
          "_secondsPerSlot": "Beacon spec parameter. Number of seconds between slots.",
          "_slotsPerEpoch": "Beacon spec parameter. Number of slots in one epoch."
        }
      },
      "isMember(address)": {
        "details": "Performs a naive search, do not call this on-chain, used as an off-chain helper",
        "params": {
          "_memberAddress": "Address of the member"
        }
      },
      "removeMember(address)": {
        "details": "Only callable by the adminstrator",
        "params": {
          "_oracleMember": "Address to remove"
        }
      },
      "reportBeacon(uint256,uint64,uint32)": {
        "details": "Only callable by an oracle member",
        "params": {
          "_beaconBalance": "Total balance of River validators",
          "_beaconValidators": "Total River validator count",
          "_epochId": "Epoch where the balance and validator count has been computed"
        }
      },
      "setBeaconBounds(uint256,uint256)": {
        "details": "Only callable by the adminstrator",
        "params": {
          "_annualAprUpperBound": "Maximum apr allowed for balance increase. Delta between updates is extrapolated on a year time frame.",
          "_relativeLowerBound": "Maximum relative balance decrease."
        }
      },
      "setBeaconSpec(uint64,uint64,uint64,uint64)": {
        "details": "Only callable by the adminstrator",
        "params": {
          "_epochsPerFrame": "Number of epochs in a frame.",
          "_genesisTime": "Timestamp of the genesis slot.",
          "_secondsPerSlot": "Number of seconds between slots.",
          "_slotsPerEpoch": "Number of slots in one epoch."
        }
      },
      "setQuorum(uint256)": {
        "details": "Only callable by the adminstrator",
        "params": {
          "_newQuorum": "New quorum parameter"
        }
      }
    },
    "title": "Oracle (v1)",
    "version": 1
  },
  "userdoc": {
    "kind": "user",
    "methods": {
      "addMember(address)": {
        "notice": "Adds new address as oracle member, giving the ability to push beacon reports."
      },
      "getAdministrator()": {
        "notice": "Retrieve system administrator address"
      },
      "getBeaconSpec()": {
        "notice": "Retrieve the current beacon spec"
      },
      "getCurrentEpochId()": {
        "notice": "Retrieve the current epoch id based on block timestamp"
      },
      "getCurrentFrame()": {
        "notice": "Retrieve the current frame details"
      },
      "getExpectedEpochId()": {
        "notice": "Retrieve expected epoch id"
      },
      "getFrameFirstEpochId(uint256)": {
        "notice": "Retrieve the first epoch id of the frame of the provided epoch id"
      },
      "getGlobalReportStatus()": {
        "notice": "Retrieve member report status"
      },
      "getLastCompletedEpochId()": {
        "notice": "Retrieve the last completed epoch id"
      },
      "getMemberReportStatus(address)": {
        "notice": "Retrieve member report status"
      },
      "getQuorum()": {
        "notice": "Retrieve the current quorum"
      },
      "getReportVariant(uint256)": {
        "notice": "Retrieve decoded report at provided index"
      },
      "getReportVariantsCount()": {
        "notice": "Retrieve report variants count"
      },
      "getRiver()": {
        "notice": "Retrieve River address"
      },
      "getTime()": {
        "notice": "Retrieve the block timestamp"
      },
      "initOracleV1(address,address,uint64,uint64,uint64,uint64,uint256,uint256)": {
        "notice": "Initializes the oracle"
      },
      "isMember(address)": {
        "notice": "Returns true if address is member"
      },
      "removeMember(address)": {
        "notice": "Removes an address from the oracle members."
      },
      "reportBeacon(uint256,uint64,uint32)": {
        "notice": "Report beacon chain data"
      },
      "setBeaconBounds(uint256,uint256)": {
        "notice": "Edits the beacon bounds parameters"
      },
      "setBeaconSpec(uint64,uint64,uint64,uint64)": {
        "notice": "Edits the beacon spec parameters"
      },
      "setQuorum(uint256)": {
        "notice": "Edits the quorum required to forward beacon data to River"
      }
    },
    "notice": "This contract handles the input from the allowed oracle members. Highly inspired by Lido's implementation.",
    "version": 1
  },
  "storageLayout": {
    "storage": [],
    "types": null
  }
}