{
  "address": "0x6D6321609074F9dF11e4edFc0b903c66d48Ac114",
  "abi": [
    {
      "inputs": [
        {
          "internalType": "uint256",
          "name": "_epochId",
          "type": "uint256"
        },
        {
          "internalType": "address",
          "name": "_member",
          "type": "address"
        }
      ],
      "name": "AlreadyReported",
      "type": "error"
    },
    {
      "inputs": [
        {
          "internalType": "uint256",
          "name": "_prevTotalEth",
          "type": "uint256"
        },
        {
          "internalType": "uint256",
          "name": "_postTotalEth",
          "type": "uint256"
        },
        {
          "internalType": "uint256",
          "name": "_timeElapsed",
          "type": "uint256"
        },
        {
          "internalType": "uint256",
          "name": "_relativeLowerBound",
          "type": "uint256"
        }
      ],
      "name": "BeaconBalanceDecreaseOutOfBounds",
      "type": "error"
    },
    {
      "inputs": [
        {
          "internalType": "uint256",
          "name": "_prevTotalEth",
          "type": "uint256"
        },
        {
          "internalType": "uint256",
          "name": "_postTotalEth",
          "type": "uint256"
        },
        {
          "internalType": "uint256",
          "name": "_timeElapsed",
          "type": "uint256"
        },
        {
          "internalType": "uint256",
          "name": "_annualAprUpperBound",
          "type": "uint256"
        }
      ],
      "name": "BeaconBalanceIncreaseOutOfBounds",
      "type": "error"
    },
    {
      "inputs": [
        {
          "internalType": "uint256",
          "name": "_providedEpochId",
          "type": "uint256"
        },
        {
          "internalType": "uint256",
          "name": "_minExpectedEpochId",
          "type": "uint256"
        }
      ],
      "name": "EpochTooOld",
      "type": "error"
    },
    {
      "inputs": [],
      "name": "InvalidArgument",
      "type": "error"
    },
    {
      "inputs": [],
      "name": "InvalidCall",
      "type": "error"
    },
    {
      "inputs": [
        {
          "internalType": "uint256",
          "name": "version",
          "type": "uint256"
        },
        {
          "internalType": "uint256",
          "name": "expectedVersion",
          "type": "uint256"
        }
      ],
      "name": "InvalidInitialization",
      "type": "error"
    },
    {
      "inputs": [
        {
          "internalType": "uint256",
          "name": "_providedEpochId",
          "type": "uint256"
        },
        {
          "internalType": "uint256",
          "name": "_expectedFrameFirstEpochId",
          "type": "uint256"
        }
      ],
      "name": "NotFrameFirstEpochId",
      "type": "error"
    },
    {
      "inputs": [
        {
          "internalType": "address",
          "name": "caller",
          "type": "address"
        }
      ],
      "name": "Unauthorized",
      "type": "error"
    },
    {
      "anonymous": false,
      "inputs": [
        {
          "indexed": false,
          "internalType": "uint256",
          "name": "_epochId",
          "type": "uint256"
        },
        {
          "indexed": false,
          "internalType": "uint128",
          "name": "_newBeaconBalance",
          "type": "uint128"
        },
        {
          "indexed": false,
          "internalType": "uint32",
          "name": "_newBeaconValidatorCount",
          "type": "uint32"
        },
        {
          "indexed": false,
          "internalType": "address",
          "name": "_oracleMember",
          "type": "address"
        }
      ],
      "name": "BeaconReported",
      "type": "event"
    },
    {
      "anonymous": false,
      "inputs": [
        {
          "indexed": false,
          "internalType": "uint256",
          "name": "_epochId",
          "type": "uint256"
        }
      ],
      "name": "ExpectedEpochIdUpdated",
      "type": "event"
    },
    {
      "anonymous": false,
      "inputs": [
        {
          "indexed": false,
          "internalType": "uint256",
          "name": "_postTotalEth",
          "type": "uint256"
        },
        {
          "indexed": false,
          "internalType": "uint256",
          "name": "_prevTotalEth",
          "type": "uint256"
        },
        {
          "indexed": false,
          "internalType": "uint256",
          "name": "_timeElapsed",
          "type": "uint256"
        },
        {
          "indexed": false,
          "internalType": "uint256",
          "name": "_totalShares",
          "type": "uint256"
        }
      ],
      "name": "PostTotalShares",
      "type": "event"
    },
    {
      "anonymous": false,
      "inputs": [
        {
          "indexed": false,
          "internalType": "uint256",
          "name": "_newQuorum",
          "type": "uint256"
        }
      ],
      "name": "QuorumChanged",
      "type": "event"
    },
    {
      "inputs": [
        {
          "internalType": "address",
          "name": "_newOracleMember",
          "type": "address"
        }
      ],
      "name": "addMember",
      "outputs": [],
      "stateMutability": "nonpayable",
      "type": "function"
    },
    {
      "inputs": [],
      "name": "getBeaconBounds",
      "outputs": [
        {
          "components": [
            {
              "internalType": "uint256",
              "name": "annualAprUpperBound",
              "type": "uint256"
            },
            {
              "internalType": "uint256",
              "name": "relativeLowerBound",
              "type": "uint256"
            }
          ],
          "internalType": "struct BeaconReportBounds.BeaconReportBoundsStruct",
          "name": "",
          "type": "tuple"
        }
      ],
      "stateMutability": "view",
      "type": "function"
    },
    {
      "inputs": [],
      "name": "getBeaconSpec",
      "outputs": [
        {
          "components": [
            {
              "internalType": "uint64",
              "name": "epochsPerFrame",
              "type": "uint64"
            },
            {
              "internalType": "uint64",
              "name": "slotsPerEpoch",
              "type": "uint64"
            },
            {
              "internalType": "uint64",
              "name": "secondsPerSlot",
              "type": "uint64"
            },
            {
              "internalType": "uint64",
              "name": "genesisTime",
              "type": "uint64"
            }
          ],
          "internalType": "struct BeaconSpec.BeaconSpecStruct",
          "name": "",
          "type": "tuple"
        }
      ],
      "stateMutability": "view",
      "type": "function"
    },
    {
      "inputs": [],
      "name": "getCurrentEpochId",
      "outputs": [
        {
          "internalType": "uint256",
          "name": "",
          "type": "uint256"
        }
      ],
      "stateMutability": "view",
      "type": "function"
    },
    {
      "inputs": [],
      "name": "getCurrentFrame",
      "outputs": [
        {
          "internalType": "uint256",
          "name": "_startEpochId",
          "type": "uint256"
        },
        {
          "internalType": "uint256",
          "name": "_startTime",
          "type": "uint256"
        },
        {
          "internalType": "uint256",
          "name": "_endTime",
          "type": "uint256"
        }
      ],
      "stateMutability": "view",
      "type": "function"
    },
    {
      "inputs": [],
      "name": "getExpectedEpochId",
      "outputs": [
        {
          "internalType": "uint256",
          "name": "",
          "type": "uint256"
        }
      ],
      "stateMutability": "view",
      "type": "function"
    },
    {
      "inputs": [
        {
          "internalType": "uint256",
          "name": "_epochId",
          "type": "uint256"
        }
      ],
      "name": "getFrameFirstEpochId",
      "outputs": [
        {
          "internalType": "uint256",
          "name": "",
          "type": "uint256"
        }
      ],
      "stateMutability": "view",
      "type": "function"
    },
    {
      "inputs": [],
      "name": "getGlobalReportStatus",
      "outputs": [
        {
          "internalType": "uint256",
          "name": "",
          "type": "uint256"
        }
      ],
      "stateMutability": "view",
      "type": "function"
    },
    {
      "inputs": [],
      "name": "getLastCompletedEpochId",
      "outputs": [
        {
          "internalType": "uint256",
          "name": "",
          "type": "uint256"
        }
      ],
      "stateMutability": "view",
      "type": "function"
    },
    {
      "inputs": [
        {
          "internalType": "address",
          "name": "_oracleMember",
          "type": "address"
        }
      ],
      "name": "getMemberReportStatus",
      "outputs": [
        {
          "internalType": "bool",
          "name": "",
          "type": "bool"
        }
      ],
      "stateMutability": "view",
      "type": "function"
    },
    {
      "inputs": [],
      "name": "getOracleMembers",
      "outputs": [
        {
          "internalType": "address[]",
          "name": "",
          "type": "address[]"
        }
      ],
      "stateMutability": "view",
      "type": "function"
    },
    {
      "inputs": [],
      "name": "getQuorum",
      "outputs": [
        {
          "internalType": "uint256",
          "name": "",
          "type": "uint256"
        }
      ],
      "stateMutability": "view",
      "type": "function"
    },
    {
      "inputs": [
        {
          "internalType": "uint256",
          "name": "_idx",
          "type": "uint256"
        }
      ],
      "name": "getReportVariant",
      "outputs": [
        {
          "internalType": "uint64",
          "name": "_beaconBalance",
          "type": "uint64"
        },
        {
          "internalType": "uint32",
          "name": "_beaconValidators",
          "type": "uint32"
        },
        {
          "internalType": "uint16",
          "name": "_reportCount",
          "type": "uint16"
        }
      ],
      "stateMutability": "view",
      "type": "function"
    },
    {
      "inputs": [],
      "name": "getReportVariantsCount",
      "outputs": [
        {
          "internalType": "uint256",
          "name": "",
          "type": "uint256"
        }
      ],
      "stateMutability": "view",
      "type": "function"
    },
    {
      "inputs": [],
      "name": "getTime",
      "outputs": [
        {
          "internalType": "uint256",
          "name": "",
          "type": "uint256"
        }
      ],
      "stateMutability": "view",
      "type": "function"
    },
    {
      "inputs": [
        {
          "internalType": "address",
          "name": "_riverContractAddress",
          "type": "address"
        },
        {
          "internalType": "address",
          "name": "_administratorAddress",
          "type": "address"
        },
        {
          "internalType": "uint64",
          "name": "_epochsPerFrame",
          "type": "uint64"
        },
        {
          "internalType": "uint64",
          "name": "_slotsPerEpoch",
          "type": "uint64"
        },
        {
          "internalType": "uint64",
          "name": "_secondsPerSlot",
          "type": "uint64"
        },
        {
          "internalType": "uint64",
          "name": "_genesisTime",
          "type": "uint64"
        },
        {
          "internalType": "uint256",
          "name": "_annualAprUpperBound",
          "type": "uint256"
        },
        {
          "internalType": "uint256",
          "name": "_relativeLowerBound",
          "type": "uint256"
        }
      ],
      "name": "initOracleV1",
      "outputs": [],
      "stateMutability": "nonpayable",
      "type": "function"
    },
    {
      "inputs": [
        {
          "internalType": "address",
          "name": "_memberAddress",
          "type": "address"
        }
      ],
      "name": "isMember",
      "outputs": [
        {
          "internalType": "bool",
          "name": "",
          "type": "bool"
        }
      ],
      "stateMutability": "view",
      "type": "function"
    },
    {
      "inputs": [
        {
          "internalType": "address",
          "name": "_oracleMember",
          "type": "address"
        }
      ],
      "name": "removeMember",
      "outputs": [],
      "stateMutability": "nonpayable",
      "type": "function"
    },
    {
      "inputs": [
        {
          "internalType": "uint256",
          "name": "_epochId",
          "type": "uint256"
        },
        {
          "internalType": "uint64",
          "name": "_beaconBalance",
          "type": "uint64"
        },
        {
          "internalType": "uint32",
          "name": "_beaconValidators",
          "type": "uint32"
        }
      ],
      "name": "reportBeacon",
      "outputs": [],
      "stateMutability": "nonpayable",
      "type": "function"
    },
    {
      "inputs": [
        {
          "internalType": "uint256",
          "name": "_annualAprUpperBound",
          "type": "uint256"
        },
        {
          "internalType": "uint256",
          "name": "_relativeLowerBound",
          "type": "uint256"
        }
      ],
      "name": "setBeaconBounds",
      "outputs": [],
      "stateMutability": "nonpayable",
      "type": "function"
    },
    {
      "inputs": [
        {
          "internalType": "uint64",
          "name": "_epochsPerFrame",
          "type": "uint64"
        },
        {
          "internalType": "uint64",
          "name": "_slotsPerEpoch",
          "type": "uint64"
        },
        {
          "internalType": "uint64",
          "name": "_secondsPerSlot",
          "type": "uint64"
        },
        {
          "internalType": "uint64",
          "name": "_genesisTime",
          "type": "uint64"
        }
      ],
      "name": "setBeaconSpec",
      "outputs": [],
      "stateMutability": "nonpayable",
      "type": "function"
    },
    {
      "inputs": [
        {
          "internalType": "uint256",
          "name": "_newQuorum",
          "type": "uint256"
        }
      ],
      "name": "setQuorum",
      "outputs": [],
      "stateMutability": "nonpayable",
      "type": "function"
    }
  ],
  "transactionHash": "0x34a76921546e929237ec173d990b7f415023536d609b8e86fc695aa537b8f663",
  "args": [],
  "numDeployments": 1,
  "solcInputHash": "43221bad0243cd96359fad9a2f7cd1af",
  "bytecode": "0x608060405234801561001057600080fd5b5061200e806100206000396000f3fe608060405234801561001057600080fd5b50600436106101825760003560e01c806393ef4511116100d8578063c26c12eb1161008c578063e547c77c11610066578063e547c77c14610322578063e90b2da11461036e578063fad2e86a1461038157600080fd5b8063c26c12eb146102f2578063ca6d56dc146102fa578063dabb57571461030d57600080fd5b8063a29a839f116100bd578063a29a839f146102c4578063bc8b8f97146102cc578063c1ba4e59146102df57600080fd5b806393ef45111461028e578063a230c524146102b157600080fd5b80635190dce01161013a57806372f79b131161011457806372f79b131461025057806389896aef1461027357806391f10da01461027b57600080fd5b80635190dce014610214578063557ed1ba1461023757806357fa85471461023d57600080fd5b806314c8cd6a1161016b57806314c8cd6a146101e357806331f208b3146101f95780634b47b74f1461020c57600080fd5b80630b1ca49a146101875780631045a9661461019c575b600080fd5b61019a610195366004611c8c565b610389565b005b6101af6101aa366004611ca7565b610405565b6040805167ffffffffffffffff909416845263ffffffff909216602084015261ffff16908201526060015b60405180910390f35b6101eb61044e565b6040519081526020016101da565b61019a610207366004611cd8565b61045d565b6101eb61070c565b610227610222366004611c8c565b610716565b60405190151581526020016101da565b426101eb565b6101eb61024b366004611ca7565b610734565b61025861074b565b604080519384526020840192909252908201526060016101da565b6101eb610808565b61019a610289366004611d21565b610812565b61029661086a565b604080518251815260209283015192810192909252016101da565b6102276102bf366004611c8c565b610886565b6101eb6108f6565b61019a6102da366004611d43565b610912565b61019a6102ed366004611ca7565b610a0e565b6101eb610b4b565b61019a610308366004611c8c565b610b55565b610315610bc7565b6040516101da9190611dcc565b61032a610bd1565b6040516101da9190815167ffffffffffffffff9081168252602080840151821690830152604080840151821690830152606092830151169181019190915260800190565b61019a61037c366004611e19565b610bfd565b6101eb610c89565b610391610c99565b6001600160a01b0316336001600160a01b0316146103c95760405163472511eb60e11b81523360048201526024015b60405180910390fd5b60006103d482610ca3565b905060008112156103f85760405163574b16a760e11b815260040160405180910390fd5b61040181610d3e565b5050565b600080600080610413610e40565b858151811061042457610424611e6d565b6020026020010151905061044181603081901c9160109190911c90565b9096909550909350915050565b6000610458610ec7565b905090565b6000610467610efb565b90506000610473610fa7565b9050808510156104b9576040517f09ec8ad200000000000000000000000000000000000000000000000000000000815260048101869052602481018290526044016103c0565b808511156105255760006104d56104cf84610fd7565b84611027565b905080861461051a576040517f983b675100000000000000000000000000000000000000000000000000000000815260048101879052602481018290526044016103c0565b6105238661104a565b505b600061053f67ffffffffffffffff8616633b9aca00611e99565b604080518881526fffffffffffffffffffffffffffffffff8316602082015263ffffffff87168183015233606082015290519192507ff9088c3664056902a1be808c28981aa5e97da5f1a2b3557233d04eed40a9b42a919081900360800190a160006105aa33610ca3565b90508060001914156105d15760405163472511eb60e11b81523360048201526024016103c0565b6105da81611099565b1561061a576040517ff4d521a2000000000000000000000000000000000000000000000000000000008152600481018890523360248201526044016103c0565b610623816110dd565b601085901b65ffffffff000016603087901b6dffffffffffffffff0000000000001617600061065182611145565b9050600061065d6111d1565b9050600082126106d3576000610671610e40565b838151811061068257610682611e6d565b60200260200101519050816106948290565b61069f906001611ed1565b61ffff16106106b9576106b48b878b8b611201565b6106cd565b6106cd836106c8836001611ef7565b61148f565b50610700565b80600114156106ed576106e88a868a8a611201565b610700565b6107006106fb846001611ef7565b6114e9565b50505050505050505050565b6000610458610fa7565b60008061072283610ca3565b905061072d81611099565b9392505050565b60008061073f610efb565b905061072d8382611027565b600080600080610759610efb565b905061076d61076782610fd7565b82611027565b9350806020015167ffffffffffffffff16816040015167ffffffffffffffff16856107989190611f0f565b6107a29190611f0f565b816060015167ffffffffffffffff166107bb9190611ef7565b925060018160000151826020015183604001516107d89190611f2e565b6107e29190611f2e565b6107f69067ffffffffffffffff1685611ef7565b6108009190611f55565b915050909192565b6000610458611530565b61081a610c99565b6001600160a01b0316336001600160a01b03161461084d5760405163472511eb60e11b81523360048201526024016103c0565b610401604051806040016040528084815260200183815250611560565b60408051808201909152600080825260208201526104586115a3565b600080610891611603565b905060005b81518110156108ec57836001600160a01b03168282815181106108bb576108bb611e6d565b60200260200101516001600160a01b031614156108dc575060019392505050565b6108e581611f6c565b9050610896565b5060009392505050565b600080610901610efb565b905061090c81610fd7565b91505090565b600061091c611693565b8114610966578061092b611693565b6040517fe7e93b38000000000000000000000000000000000000000000000000000000008152600481019290925260248201526044016103c0565b610979610974826001611ef7565b6116c3565b610982886116f9565b61098b89611702565b6109dc60405180608001604052808967ffffffffffffffff1681526020018867ffffffffffffffff1681526020018767ffffffffffffffff1681526020018667ffffffffffffffff16815250611730565b6109f9604051806040016040528085815260200184815250611560565b610a03600161180e565b505050505050505050565b610a16610c99565b6001600160a01b0316336001600160a01b031614610a495760405163472511eb60e11b81523360048201526024016103c0565b80610a80576040517fa9cb9e0d00000000000000000000000000000000000000000000000000000000815260040160405180910390fd5b6000610a8a6111d1565b905080821415610aad5760405163574b16a760e11b815260040160405180910390fd5b610ab68261180e565b6040518281527f027863d12a407097e086a48e36475bfc859d0b200b7e6f65b5fd3b218e46632e9060200160405180910390a18181111561040157600080610afd8461183c565b915091508115610b4557603081901c601082901c610b42610b1c610fa7565b610b3467ffffffffffffffff8516633b9aca00611e99565b83610b3d610efb565b611201565b50505b50505050565b60006104586111d1565b610b5d610c99565b6001600160a01b0316336001600160a01b031614610b905760405163472511eb60e11b81523360048201526024016103c0565b6000610b9b82610ca3565b905060008112610bbe5760405163574b16a760e11b815260040160405180910390fd5b61040182611962565b6060610458611603565b604080516080810182526000808252602082018190529181018290526060810191909152610458610efb565b610c05610c99565b6001600160a01b0316336001600160a01b031614610c385760405163472511eb60e11b81523360048201526024016103c0565b610b4560405180608001604052808667ffffffffffffffff1681526020018567ffffffffffffffff1681526020018467ffffffffffffffff1681526020018367ffffffffffffffff16815250611730565b6000610c93610e40565b51905090565b60006104586119d1565b600080610cd160017fc4aba040293e5848600dd7b64a390db880c4a70937c23383e6c5b6619689863b611f55565b90508060005b8154811015610d3257846001600160a01b0316826000018281548110610cff57610cff611e6d565b6000918252602090912001546001600160a01b03161415610d2257949350505050565b610d2b81611f6c565b9050610cd7565b50600019949350505050565b6000610d6b60017fc4aba040293e5848600dd7b64a390db880c4a70937c23383e6c5b6619689863b611f55565b80549091508190600090610d8190600190611f55565b9050838114610dfa57816000018181548110610d9f57610d9f611e6d565b60009182526020909120015482546001600160a01b0390911690839086908110610dcb57610dcb611e6d565b9060005260206000200160006101000a8154816001600160a01b0302191690836001600160a01b031602179055505b8154829080610e0b57610e0b611f87565b6000828152602090208101600019908101805473ffffffffffffffffffffffffffffffffffffffff1916905501905550505050565b60606000610e6f60017ff1827321f6d023724a23b4e28f3ef67f741d185cff4e224f6dcbb56935784fcd611f55565b8054604080516020808402820181019092528281529293508392918391830182828015610ebb57602002820191906000526020600020905b815481526020019060010190808311610ea7575b50505050509250505090565b6000610458610ef760017f50e65b39a6b6b7bb3298d9d19e41cecec530b7916ba516c44f4d79e3a9dcd7a7611f55565b5490565b604080516080810182526000808252602082018190529181018290526060810182905290610f4a60017f910cad6638f0b06b72ead1455bffc33be6e9b1c24417cc3f692aaaf0bef75a16611f55565b60408051608081018252915467ffffffffffffffff8082168452680100000000000000008204811660208501527001000000000000000000000000000000008204811692840192909252600160c01b900416606082015292915050565b6000610458610ef760017f45d0d54fdd66220435526b0d20a3e002dad71447d5a32fb8efce72e62d4e0228611f55565b600081604001518260200151610fed9190611f2e565b67ffffffffffffffff16826060015167ffffffffffffffff1661100d4290565b6110179190611f55565b6110219190611f9d565b92915050565b805160009067ffffffffffffffff166110408185611f9d565b61072d9190611f0f565b611052611a01565b61105a611a37565b61106381611a72565b6040518181527fcdcd275f4d96ed683d684f3610a92beacdebcf1ee4d37e2df526fb9001e1ea639060200160405180910390a150565b6000600180831b9081906110d190610ef7907f50e65b39a6b6b7bb3298d9d19e41cecec530b7916ba516c44f4d79e3a9dcd7a7611f55565b16600114915050919050565b600180821b9061040190611111907f50e65b39a6b6b7bb3298d9d19e41cecec530b7916ba516c44f4d79e3a9dcd7a7611f55565b82611140610ef760017f50e65b39a6b6b7bb3298d9d19e41cecec530b7916ba516c44f4d79e3a9dcd7a7611f55565b179055565b60008061117360017ff1827321f6d023724a23b4e28f3ef67f741d185cff4e224f6dcbb56935784fcd611f55565b90508060005b8154811015610d3257846dffffffffffffffffffffffff00008360000183815481106111a7576111a7611e6d565b90600052602060002001541614156111c157949350505050565b6111ca81611f6c565b9050611179565b6000610458610ef760017fffa4a5d927096d2bbb9d71111d7c9929ecbdcbe9bffc8d35f55b642e81698ebb611f55565b61120a8461104a565b6000611214611aa0565b90506000816001600160a01b03166318160ddd6040518163ffffffff1660e01b81526004016020604051808303816000875af1158015611258573d6000803e3d6000fd5b505050506040513d601f19601f8201168201806040525081019061127c9190611fbf565b6040517f80d4027e00000000000000000000000000000000000000000000000000000000815263ffffffff861660048201526fffffffffffffffffffffffffffffffff87166024820152604481018890529091506001600160a01b038316906380d4027e90606401600060405180830381600087803b1580156112fe57600080fd5b505af1158015611312573d6000803e3d6000fd5b505050506000826001600160a01b03166318160ddd6040518163ffffffff1660e01b81526004016020604051808303816000875af1158015611358573d6000803e3d6000fd5b505050506040513d601f19601f8201168201806040525081019061137c9190611fbf565b90506000846040015167ffffffffffffffff16856020015167ffffffffffffffff166113a6611530565b6113b0908b611f55565b6113ba9190611f0f565b6113c49190611f0f565b90506113d1828483611ad0565b6113da88611be2565b7fdafd48d1eba2a416b2aca45e9ead3ad18b84e868fa6d2e1a3048bfd37ed10a32828483876001600160a01b0316633a98ef396040518163ffffffff1660e01b81526004016020604051808303816000875af115801561143e573d6000803e3d6000fd5b505050506040513d601f19601f820116820180604052508101906114629190611fbf565b60408051948552602085019390935291830152606082015260800160405180910390a15050505050505050565b60006114bc60017ff1827321f6d023724a23b4e28f3ef67f741d185cff4e224f6dcbb56935784fcd611f55565b8054909150819083908290869081106114d7576114d7611e6d565b60009182526020909120015550505050565b600061151660017ff1827321f6d023724a23b4e28f3ef67f741d185cff4e224f6dcbb56935784fcd611f55565b805460018101825560009182526020909120019190915550565b6000610458610ef760017faf3d74d3b4106d19ea8994739c1a66b48922195975ea284f4cd201487a79b9ed611f55565b600061158d60017f8a8a043b81dd88a581f2aa1faf076f45266d72ec8307cdf217c10a967969249f611f55565b8251815560209092015160019092019190915550565b604080518082019091526000808252602082015260006115e460017f8a8a043b81dd88a581f2aa1faf076f45266d72ec8307cdf217c10a967969249f611f55565b6040805180820190915281548152600190910154602082015292915050565b6060600061163260017fc4aba040293e5848600dd7b64a390db880c4a70937c23383e6c5b6619689863b611f55565b8054604080516020808402820181019092528281529293508392918391830182828015610ebb57602002820191906000526020600020905b81546001600160a01b0316815260019091019060200180831161166a5750505050509250505090565b6000610458610ef760017f82055909238c0f5e63d6f174068ebb8f51bcec9bd37de63bb68f6551feec0cfd611f55565b6116f66116f160017f82055909238c0f5e63d6f174068ebb8f51bcec9bd37de63bb68f6551feec0cfd611f55565b829055565b50565b6116f681611c10565b6116f66116f160017f1ec4138404500a2a0be2c2f9b103581c2a7fa783a934f91a6cc5cc924404973c611f55565b600061175d60017f910cad6638f0b06b72ead1455bffc33be6e9b1c24417cc3f692aaaf0bef75a16611f55565b825181546020850151604086015160609096015167ffffffffffffffff908116600160c01b0277ffffffffffffffffffffffffffffffffffffffffffffffff97821670010000000000000000000000000000000002979097166fffffffffffffffffffffffffffffffff92821668010000000000000000027fffffffffffffffffffffffffffffffff0000000000000000000000000000000090941691909416179190911716179290921790915550565b6116f66116f160017fffa4a5d927096d2bbb9d71111d7c9929ecbdcbe9bffc8d35f55b642e81698ebb611f55565b6000806000611849610e40565b90508051600114156118a257836118778260008151811061186c5761186c611e6d565b602002602001015190565b61ffff1610158160008151811061189057611890611e6d565b60200260200101519250925050915091565b80516118b45750600093849350915050565b60008060008060005b8551811015611927576118db86828151811061186c5761186c611e6d565b91508261ffff168261ffff1610611917578261ffff168261ffff16141561190c5761190584611f6c565b9350611917565b809450819250600093505b61192081611f6c565b90506118bd565b50878261ffff161015801561193a575082155b85858151811061194c5761194c611e6d565b6020026020010151965096505050505050915091565b600061198f60017fc4aba040293e5848600dd7b64a390db880c4a70937c23383e6c5b6619689863b611f55565b80546001810182556000918252602090912001805473ffffffffffffffffffffffffffffffffffffffff19166001600160a01b03939093169290921790915550565b6000610458610ef760017fb5b37715a3e346e996104f0086703f19825def429233930fd9399c38e05fb113611f55565b611a35611a2f60017f50e65b39a6b6b7bb3298d9d19e41cecec530b7916ba516c44f4d79e3a9dcd7a7611f55565b60009055565b565b6000611a6460017ff1827321f6d023724a23b4e28f3ef67f741d185cff4e224f6dcbb56935784fcd611f55565b905080610401816000611c3e565b6116f66116f160017f45d0d54fdd66220435526b0d20a3e002dad71447d5a32fb8efce72e62d4e0228611f55565b6000610458610ef760017f1ec4138404500a2a0be2c2f9b103581c2a7fa783a934f91a6cc5cc924404973c611f55565b818310611b62576000611ae16115a3565b51905081611aef8483611f0f565b611af99190611f0f565b611b038486611f55565b611b129064496cebb800611f0f565b1115610b45576040517fd86fb83d000000000000000000000000000000000000000000000000000000008152600481018490526024810185905260448101839052606481018290526084016103c0565b6000611b6c6115a3565b602001519050611b7c8382611f0f565b611b868585611f55565b611b9290612710611f0f565b1115610b45576040517f0aa91ae4000000000000000000000000000000000000000000000000000000008152600481018490526024810185905260448101839052606481018290526084016103c0565b6116f66116f160017faf3d74d3b4106d19ea8994739c1a66b48922195975ea284f4cd201487a79b9ed611f55565b6116f66116f160017fb5b37715a3e346e996104f0086703f19825def429233930fd9399c38e05fb113611f55565b50805460008255906000526020600020908101906116f691905b80821115611c6c5760008155600101611c58565b5090565b80356001600160a01b0381168114611c8757600080fd5b919050565b600060208284031215611c9e57600080fd5b61072d82611c70565b600060208284031215611cb957600080fd5b5035919050565b803567ffffffffffffffff81168114611c8757600080fd5b600080600060608486031215611ced57600080fd5b83359250611cfd60208501611cc0565b9150604084013563ffffffff81168114611d1657600080fd5b809150509250925092565b60008060408385031215611d3457600080fd5b50508035926020909101359150565b600080600080600080600080610100898b031215611d6057600080fd5b611d6989611c70565b9750611d7760208a01611c70565b9650611d8560408a01611cc0565b9550611d9360608a01611cc0565b9450611da160808a01611cc0565b9350611daf60a08a01611cc0565b925060c0890135915060e089013590509295985092959890939650565b6020808252825182820181905260009190848201906040850190845b81811015611e0d5783516001600160a01b031683529284019291840191600101611de8565b50909695505050505050565b60008060008060808587031215611e2f57600080fd5b611e3885611cc0565b9350611e4660208601611cc0565b9250611e5460408601611cc0565b9150611e6260608601611cc0565b905092959194509250565b634e487b7160e01b600052603260045260246000fd5b634e487b7160e01b600052601160045260246000fd5b60006fffffffffffffffffffffffffffffffff80831681851681830481118215151615611ec857611ec8611e83565b02949350505050565b600061ffff808316818516808303821115611eee57611eee611e83565b01949350505050565b60008219821115611f0a57611f0a611e83565b500190565b6000816000190483118215151615611f2957611f29611e83565b500290565b600067ffffffffffffffff80831681851681830481118215151615611ec857611ec8611e83565b600082821015611f6757611f67611e83565b500390565b6000600019821415611f8057611f80611e83565b5060010190565b634e487b7160e01b600052603160045260246000fd5b600082611fba57634e487b7160e01b600052601260045260246000fd5b500490565b600060208284031215611fd157600080fd5b505191905056fea2646970667358221220d1e029815102db58a447eb206d402b13879722a16aca176d8466d04e1cbba27664736f6c634300080a0033",
  "devdoc": {
    "author": "SkillZ",
    "kind": "dev",
    "methods": {
      "addMember(address)": {
        "details": "Only callable by the adminstrator",
        "params": {
          "_newOracleMember": "Address of the new member"
        }
      },
      "getFrameFirstEpochId(uint256)": {
        "params": {
          "_epochId": "Epoch id used to get the frame"
        }
      },
      "getMemberReportStatus(address)": {
        "params": {
          "_oracleMember": "Address of member to check"
        }
      },
      "getReportVariant(uint256)": {
        "params": {
          "_idx": "Index of report"
        }
      },
      "initOracleV1(address,address,uint64,uint64,uint64,uint64,uint256,uint256)": {
        "params": {
          "_administratorAddress": "Address able to call administrative methods",
          "_annualAprUpperBound": "Beacon bound parameter. Maximum apr allowed for balance increase. Delta between updates is extrapolated on a year time frame.",
          "_epochsPerFrame": "Beacon spec parameter. Number of epochs in a frame.",
          "_genesisTime": "Beacon spec parameter. Timestamp of the genesis slot.",
          "_relativeLowerBound": "Beacon bound parameter. Maximum relative balance decrease.",
          "_riverContractAddress": "Address of the River contract, able to receive oracle input data after quorum is met",
          "_secondsPerSlot": "Beacon spec parameter. Number of seconds between slots.",
          "_slotsPerEpoch": "Beacon spec parameter. Number of slots in one epoch."
        }
      },
      "isMember(address)": {
        "details": "Performs a naive search, do not call this on-chain, used as an off-chain helper",
        "params": {
          "_memberAddress": "Address of the member"
        }
      },
      "removeMember(address)": {
        "details": "Only callable by the adminstrator",
        "params": {
          "_oracleMember": "Address to remove"
        }
      },
      "reportBeacon(uint256,uint64,uint32)": {
        "details": "Only callable by an oracle member",
        "params": {
          "_beaconBalance": "Total balance of River validators",
          "_beaconValidators": "Total River validator count",
          "_epochId": "Epoch where the balance and validator count has been computed"
        }
      },
      "setBeaconBounds(uint256,uint256)": {
        "details": "Only callable by the adminstrator",
        "params": {
          "_annualAprUpperBound": "Maximum apr allowed for balance increase. Delta between updates is extrapolated on a year time frame.",
          "_relativeLowerBound": "Maximum relative balance decrease."
        }
      },
      "setBeaconSpec(uint64,uint64,uint64,uint64)": {
        "details": "Only callable by the adminstrator",
        "params": {
          "_epochsPerFrame": "Number of epochs in a frame.",
          "_genesisTime": "Timestamp of the genesis slot.",
          "_secondsPerSlot": "Number of seconds between slots.",
          "_slotsPerEpoch": "Number of slots in one epoch."
        }
      },
      "setQuorum(uint256)": {
        "details": "Only callable by the adminstrator",
        "params": {
          "_newQuorum": "New quorum parameter"
        }
      }
    },
    "title": "Oracle (v1)",
    "version": 1
  },
  "userdoc": {
    "kind": "user",
    "methods": {
      "addMember(address)": {
        "notice": "Adds new address as oracle member, giving the ability to push beacon reports."
      },
      "getBeaconSpec()": {
        "notice": "Retrieve the current beacon spec"
      },
      "getCurrentEpochId()": {
        "notice": "Retrieve the current epoch id based on block timestamp"
      },
      "getCurrentFrame()": {
        "notice": "Retrieve the current frame details"
      },
      "getExpectedEpochId()": {
        "notice": "Retrieve expected epoch id"
      },
      "getFrameFirstEpochId(uint256)": {
        "notice": "Retrieve the first epoch id of the frame of the provided epoch id"
      },
      "getGlobalReportStatus()": {
        "notice": "Retrieve member report status"
      },
      "getLastCompletedEpochId()": {
        "notice": "Retrieve the last completed epoch id"
      },
      "getMemberReportStatus(address)": {
        "notice": "Retrieve member report status"
      },
      "getQuorum()": {
        "notice": "Retrieve the current quorum"
      },
      "getReportVariant(uint256)": {
        "notice": "Retrieve decoded report at provided index"
      },
      "getReportVariantsCount()": {
        "notice": "Retrieve report variants count"
      },
      "getTime()": {
        "notice": "Retrieve the block timestamp"
      },
      "initOracleV1(address,address,uint64,uint64,uint64,uint64,uint256,uint256)": {
        "notice": "Initializes the oracle"
      },
      "isMember(address)": {
        "notice": "Returns true if address is member"
      },
      "removeMember(address)": {
        "notice": "Removes an address from the oracle members."
      },
      "reportBeacon(uint256,uint64,uint32)": {
        "notice": "Report beacon chain data"
      },
      "setBeaconBounds(uint256,uint256)": {
        "notice": "Edits the beacon bounds parameters"
      },
      "setBeaconSpec(uint64,uint64,uint64,uint64)": {
        "notice": "Edits the beacon spec parameters"
      },
      "setQuorum(uint256)": {
        "notice": "Edits the quorum required to forward beacon data to River"
      }
    },
    "notice": "This contract handles the input from the allowed oracle members. Highly inspired by Lido's implementation.",
    "version": 1
  },
  "storageLayout": {
    "storage": [],
    "types": null
  }
}