{
  "address": "0x06Ddc348161c774ADF8073337c935F69C50871Ad",
  "abi": [
    {
      "inputs": [
        {
          "internalType": "address",
          "name": "newAddress",
          "type": "address"
        }
      ],
      "name": "AddressAlreadyInUse",
      "type": "error"
    },
    {
      "inputs": [
        {
          "internalType": "uint256",
          "name": "epochId",
          "type": "uint256"
        },
        {
          "internalType": "address",
          "name": "member",
          "type": "address"
        }
      ],
      "name": "AlreadyReported",
      "type": "error"
    },
    {
      "inputs": [
        {
          "internalType": "uint256",
          "name": "providedEpochId",
          "type": "uint256"
        },
        {
          "internalType": "uint256",
          "name": "minExpectedEpochId",
          "type": "uint256"
        }
      ],
      "name": "EpochTooOld",
      "type": "error"
    },
    {
      "inputs": [],
      "name": "InvalidArgument",
      "type": "error"
    },
    {
      "inputs": [],
      "name": "InvalidCall",
      "type": "error"
    },
    {
      "inputs": [
        {
          "internalType": "uint256",
          "name": "version",
          "type": "uint256"
        },
        {
          "internalType": "uint256",
          "name": "expectedVersion",
          "type": "uint256"
        }
      ],
      "name": "InvalidInitialization",
      "type": "error"
    },
    {
      "inputs": [],
      "name": "InvalidZeroAddress",
      "type": "error"
    },
    {
      "inputs": [
        {
          "internalType": "uint256",
          "name": "providedEpochId",
          "type": "uint256"
        },
        {
          "internalType": "uint256",
          "name": "expectedFrameFirstEpochId",
          "type": "uint256"
        }
      ],
      "name": "NotFrameFirstEpochId",
      "type": "error"
    },
    {
      "inputs": [
        {
          "internalType": "uint256",
          "name": "prevTotalEth",
          "type": "uint256"
        },
        {
          "internalType": "uint256",
          "name": "postTotalEth",
          "type": "uint256"
        },
        {
          "internalType": "uint256",
          "name": "timeElapsed",
          "type": "uint256"
        },
        {
          "internalType": "uint256",
          "name": "relativeLowerBound",
          "type": "uint256"
        }
      ],
      "name": "TotalValidatorBalanceDecreaseOutOfBound",
      "type": "error"
    },
    {
      "inputs": [
        {
          "internalType": "uint256",
          "name": "prevTotalEth",
          "type": "uint256"
        },
        {
          "internalType": "uint256",
          "name": "postTotalEth",
          "type": "uint256"
        },
        {
          "internalType": "uint256",
          "name": "timeElapsed",
          "type": "uint256"
        },
        {
          "internalType": "uint256",
          "name": "annualAprUpperBound",
          "type": "uint256"
        }
      ],
      "name": "TotalValidatorBalanceIncreaseOutOfBound",
      "type": "error"
    },
    {
      "inputs": [
        {
          "internalType": "address",
          "name": "caller",
          "type": "address"
        }
      ],
      "name": "Unauthorized",
      "type": "error"
    },
    {
      "anonymous": false,
      "inputs": [
        {
          "indexed": true,
          "internalType": "address",
          "name": "member",
          "type": "address"
        }
      ],
      "name": "AddMember",
      "type": "event"
    },
    {
      "anonymous": false,
      "inputs": [
        {
          "indexed": false,
          "internalType": "uint256",
          "name": "epochId",
          "type": "uint256"
        },
        {
          "indexed": false,
          "internalType": "uint128",
          "name": "newCLBalance",
          "type": "uint128"
        },
        {
          "indexed": false,
          "internalType": "uint32",
          "name": "newCLValidatorCount",
          "type": "uint32"
        },
        {
          "indexed": false,
          "internalType": "address",
          "name": "oracleMember",
          "type": "address"
        }
      ],
      "name": "CLReported",
      "type": "event"
    },
    {
      "anonymous": false,
      "inputs": [
        {
          "indexed": false,
          "internalType": "uint256",
          "name": "epochId",
          "type": "uint256"
        }
      ],
      "name": "ExpectedEpochIdUpdated",
      "type": "event"
    },
    {
      "anonymous": false,
      "inputs": [
        {
          "indexed": false,
          "internalType": "uint256",
          "name": "version",
          "type": "uint256"
        },
        {
          "indexed": false,
          "internalType": "bytes",
          "name": "cdata",
          "type": "bytes"
        }
      ],
      "name": "Initialize",
      "type": "event"
    },
    {
      "anonymous": false,
      "inputs": [
        {
          "indexed": false,
          "internalType": "uint256",
          "name": "postTotalEth",
          "type": "uint256"
        },
        {
          "indexed": false,
          "internalType": "uint256",
          "name": "prevTotalEth",
          "type": "uint256"
        },
        {
          "indexed": false,
          "internalType": "uint256",
          "name": "timeElapsed",
          "type": "uint256"
        },
        {
          "indexed": false,
          "internalType": "uint256",
          "name": "totalShares",
          "type": "uint256"
        }
      ],
      "name": "PostTotalShares",
      "type": "event"
    },
    {
      "anonymous": false,
      "inputs": [
        {
          "indexed": true,
          "internalType": "address",
          "name": "member",
          "type": "address"
        }
      ],
      "name": "RemoveMember",
      "type": "event"
    },
    {
      "anonymous": false,
      "inputs": [
        {
          "indexed": true,
          "internalType": "address",
          "name": "admin",
          "type": "address"
        }
      ],
      "name": "SetAdmin",
      "type": "event"
    },
    {
      "anonymous": false,
      "inputs": [
        {
          "indexed": false,
          "internalType": "uint256",
          "name": "annualAprUpperBound",
          "type": "uint256"
        },
        {
          "indexed": false,
          "internalType": "uint256",
          "name": "relativeLowerBound",
          "type": "uint256"
        }
      ],
      "name": "SetBounds",
      "type": "event"
    },
    {
      "anonymous": false,
      "inputs": [
        {
          "indexed": true,
          "internalType": "address",
          "name": "oldAddress",
          "type": "address"
        },
        {
          "indexed": true,
          "internalType": "address",
          "name": "newAddress",
          "type": "address"
        }
      ],
      "name": "SetMember",
      "type": "event"
    },
    {
      "anonymous": false,
      "inputs": [
        {
          "indexed": true,
          "internalType": "address",
          "name": "pendingAdmin",
          "type": "address"
        }
      ],
      "name": "SetPendingAdmin",
      "type": "event"
    },
    {
      "anonymous": false,
      "inputs": [
        {
          "indexed": false,
          "internalType": "uint256",
          "name": "newQuorum",
          "type": "uint256"
        }
      ],
      "name": "SetQuorum",
      "type": "event"
    },
    {
      "anonymous": false,
      "inputs": [
        {
          "indexed": false,
          "internalType": "address",
          "name": "_river",
          "type": "address"
        }
      ],
      "name": "SetRiver",
      "type": "event"
    },
    {
      "anonymous": false,
      "inputs": [
        {
          "indexed": false,
          "internalType": "uint64",
          "name": "epochsPerFrame",
          "type": "uint64"
        },
        {
          "indexed": false,
          "internalType": "uint64",
          "name": "slotsPerEpoch",
          "type": "uint64"
        },
        {
          "indexed": false,
          "internalType": "uint64",
          "name": "secondsPerSlot",
          "type": "uint64"
        },
        {
          "indexed": false,
          "internalType": "uint64",
          "name": "genesisTime",
          "type": "uint64"
        }
      ],
      "name": "SetSpec",
      "type": "event"
    },
    {
      "inputs": [],
      "name": "acceptAdmin",
      "outputs": [],
      "stateMutability": "nonpayable",
      "type": "function"
    },
    {
      "inputs": [
        {
          "internalType": "address",
          "name": "_newOracleMember",
          "type": "address"
        },
        {
          "internalType": "uint256",
          "name": "_newQuorum",
          "type": "uint256"
        }
      ],
      "name": "addMember",
      "outputs": [],
      "stateMutability": "nonpayable",
      "type": "function"
    },
    {
      "inputs": [],
      "name": "getAdmin",
      "outputs": [
        {
          "internalType": "address",
          "name": "",
          "type": "address"
        }
      ],
      "stateMutability": "view",
      "type": "function"
    },
    {
      "inputs": [],
      "name": "getCLSpec",
      "outputs": [
        {
          "components": [
            {
              "internalType": "uint64",
              "name": "epochsPerFrame",
              "type": "uint64"
            },
            {
              "internalType": "uint64",
              "name": "slotsPerEpoch",
              "type": "uint64"
            },
            {
              "internalType": "uint64",
              "name": "secondsPerSlot",
              "type": "uint64"
            },
            {
              "internalType": "uint64",
              "name": "genesisTime",
              "type": "uint64"
            }
          ],
          "internalType": "struct CLSpec.CLSpecStruct",
          "name": "",
          "type": "tuple"
        }
      ],
      "stateMutability": "view",
      "type": "function"
    },
    {
      "inputs": [],
      "name": "getCurrentEpochId",
      "outputs": [
        {
          "internalType": "uint256",
          "name": "",
          "type": "uint256"
        }
      ],
      "stateMutability": "view",
      "type": "function"
    },
    {
      "inputs": [],
      "name": "getCurrentFrame",
      "outputs": [
        {
          "internalType": "uint256",
          "name": "_startEpochId",
          "type": "uint256"
        },
        {
          "internalType": "uint256",
          "name": "_startTime",
          "type": "uint256"
        },
        {
          "internalType": "uint256",
          "name": "_endTime",
          "type": "uint256"
        }
      ],
      "stateMutability": "view",
      "type": "function"
    },
    {
      "inputs": [],
      "name": "getExpectedEpochId",
      "outputs": [
        {
          "internalType": "uint256",
          "name": "",
          "type": "uint256"
        }
      ],
      "stateMutability": "view",
      "type": "function"
    },
    {
      "inputs": [
        {
          "internalType": "uint256",
          "name": "_epochId",
          "type": "uint256"
        }
      ],
      "name": "getFrameFirstEpochId",
      "outputs": [
        {
          "internalType": "uint256",
          "name": "",
          "type": "uint256"
        }
      ],
      "stateMutability": "view",
      "type": "function"
    },
    {
      "inputs": [],
      "name": "getGlobalReportStatus",
      "outputs": [
        {
          "internalType": "uint256",
          "name": "",
          "type": "uint256"
        }
      ],
      "stateMutability": "view",
      "type": "function"
    },
    {
      "inputs": [],
      "name": "getLastCompletedEpochId",
      "outputs": [
        {
          "internalType": "uint256",
          "name": "",
          "type": "uint256"
        }
      ],
      "stateMutability": "view",
      "type": "function"
    },
    {
      "inputs": [
        {
          "internalType": "address",
          "name": "_oracleMember",
          "type": "address"
        }
      ],
      "name": "getMemberReportStatus",
      "outputs": [
        {
          "internalType": "bool",
          "name": "",
          "type": "bool"
        }
      ],
      "stateMutability": "view",
      "type": "function"
    },
    {
      "inputs": [],
      "name": "getOracleMembers",
      "outputs": [
        {
          "internalType": "address[]",
          "name": "",
          "type": "address[]"
        }
      ],
      "stateMutability": "view",
      "type": "function"
    },
    {
      "inputs": [],
      "name": "getPendingAdmin",
      "outputs": [
        {
          "internalType": "address",
          "name": "",
          "type": "address"
        }
      ],
      "stateMutability": "view",
      "type": "function"
    },
    {
      "inputs": [],
      "name": "getQuorum",
      "outputs": [
        {
          "internalType": "uint256",
          "name": "",
          "type": "uint256"
        }
      ],
      "stateMutability": "view",
      "type": "function"
    },
    {
      "inputs": [],
      "name": "getReportBounds",
      "outputs": [
        {
          "components": [
            {
              "internalType": "uint256",
              "name": "annualAprUpperBound",
              "type": "uint256"
            },
            {
              "internalType": "uint256",
              "name": "relativeLowerBound",
              "type": "uint256"
            }
          ],
          "internalType": "struct ReportBounds.ReportBoundsStruct",
          "name": "",
          "type": "tuple"
        }
      ],
      "stateMutability": "view",
      "type": "function"
    },
    {
      "inputs": [
        {
          "internalType": "uint256",
          "name": "_idx",
          "type": "uint256"
        }
      ],
      "name": "getReportVariant",
      "outputs": [
        {
          "internalType": "uint64",
          "name": "_clBalance",
          "type": "uint64"
        },
        {
          "internalType": "uint32",
          "name": "_clValidators",
          "type": "uint32"
        },
        {
          "internalType": "uint16",
          "name": "_reportCount",
          "type": "uint16"
        }
      ],
      "stateMutability": "view",
      "type": "function"
    },
    {
      "inputs": [],
      "name": "getReportVariantsCount",
      "outputs": [
        {
          "internalType": "uint256",
          "name": "",
          "type": "uint256"
        }
      ],
      "stateMutability": "view",
      "type": "function"
    },
    {
      "inputs": [],
      "name": "getRiver",
      "outputs": [
        {
          "internalType": "address",
          "name": "",
          "type": "address"
        }
      ],
      "stateMutability": "view",
      "type": "function"
    },
    {
      "inputs": [],
      "name": "getTime",
      "outputs": [
        {
          "internalType": "uint256",
          "name": "",
          "type": "uint256"
        }
      ],
      "stateMutability": "view",
      "type": "function"
    },
    {
      "inputs": [
        {
          "internalType": "address",
          "name": "_river",
          "type": "address"
        },
        {
          "internalType": "address",
          "name": "_administratorAddress",
          "type": "address"
        },
        {
          "internalType": "uint64",
          "name": "_epochsPerFrame",
          "type": "uint64"
        },
        {
          "internalType": "uint64",
          "name": "_slotsPerEpoch",
          "type": "uint64"
        },
        {
          "internalType": "uint64",
          "name": "_secondsPerSlot",
          "type": "uint64"
        },
        {
          "internalType": "uint64",
          "name": "_genesisTime",
          "type": "uint64"
        },
        {
          "internalType": "uint256",
          "name": "_annualAprUpperBound",
          "type": "uint256"
        },
        {
          "internalType": "uint256",
          "name": "_relativeLowerBound",
          "type": "uint256"
        }
      ],
      "name": "initOracleV1",
      "outputs": [],
      "stateMutability": "nonpayable",
      "type": "function"
    },
    {
      "inputs": [
        {
          "internalType": "address",
          "name": "_memberAddress",
          "type": "address"
        }
      ],
      "name": "isMember",
      "outputs": [
        {
          "internalType": "bool",
          "name": "",
          "type": "bool"
        }
      ],
      "stateMutability": "view",
      "type": "function"
    },
    {
      "inputs": [
        {
          "internalType": "address",
          "name": "_newAdmin",
          "type": "address"
        }
      ],
      "name": "proposeAdmin",
      "outputs": [],
      "stateMutability": "nonpayable",
      "type": "function"
    },
    {
      "inputs": [
        {
          "internalType": "address",
          "name": "_oracleMember",
          "type": "address"
        },
        {
          "internalType": "uint256",
          "name": "_newQuorum",
          "type": "uint256"
        }
      ],
      "name": "removeMember",
      "outputs": [],
      "stateMutability": "nonpayable",
      "type": "function"
    },
    {
      "inputs": [
        {
          "internalType": "uint256",
          "name": "_epochId",
          "type": "uint256"
        },
        {
          "internalType": "uint64",
          "name": "_clValidatorsBalance",
          "type": "uint64"
        },
        {
          "internalType": "uint32",
          "name": "_clValidatorCount",
          "type": "uint32"
        }
      ],
      "name": "reportConsensusLayerData",
      "outputs": [],
      "stateMutability": "nonpayable",
      "type": "function"
    },
    {
      "inputs": [
        {
          "internalType": "uint64",
          "name": "_epochsPerFrame",
          "type": "uint64"
        },
        {
          "internalType": "uint64",
          "name": "_slotsPerEpoch",
          "type": "uint64"
        },
        {
          "internalType": "uint64",
          "name": "_secondsPerSlot",
          "type": "uint64"
        },
        {
          "internalType": "uint64",
          "name": "_genesisTime",
          "type": "uint64"
        }
      ],
      "name": "setCLSpec",
      "outputs": [],
      "stateMutability": "nonpayable",
      "type": "function"
    },
    {
      "inputs": [
        {
          "internalType": "address",
          "name": "_oracleMember",
          "type": "address"
        },
        {
          "internalType": "address",
          "name": "_newAddress",
          "type": "address"
        }
      ],
      "name": "setMember",
      "outputs": [],
      "stateMutability": "nonpayable",
      "type": "function"
    },
    {
      "inputs": [
        {
          "internalType": "uint256",
          "name": "_newQuorum",
          "type": "uint256"
        }
      ],
      "name": "setQuorum",
      "outputs": [],
      "stateMutability": "nonpayable",
      "type": "function"
    },
    {
      "inputs": [
        {
          "internalType": "uint256",
          "name": "_annualAprUpperBound",
          "type": "uint256"
        },
        {
          "internalType": "uint256",
          "name": "_relativeLowerBound",
          "type": "uint256"
        }
      ],
      "name": "setReportBounds",
      "outputs": [],
      "stateMutability": "nonpayable",
      "type": "function"
    }
  ],
  "transactionHash": "0x3ddcdebd7f28db7ece2053546c6f3a6f45e226d915b81445e3e227dc2ceba97a",
  "args": [],
  "numDeployments": 1,
  "solcInputHash": "656663a520c7d1a8fa475138c7426bea",
  "bytecode": "0x608060405234801561001057600080fd5b506124c6806100206000396000f3fe608060405234801561001057600080fd5b50600436106101845760003560e01c806389896aef116100d9578063a519f06011610087578063a519f06014610381578063bc8b8f9714610389578063c1ba4e591461039c578063c26c12eb146103af578063d0468156146103b7578063dabb5757146103bf578063fad2e86a146103d457600080fd5b806389896aef14610302578063906117671461030a57806398041ea31461031d5780639d49cca1146103305780639e55746414610353578063a230c52414610366578063a29a839f1461037957600080fd5b80634b47b74f116101365780634b47b74f146102735780635190dce01461027b578063557ed1ba1461029e57806357fa8547146102a4578063628105d1146102b75780636e9960c3146102ca57806372f79b13146102df57600080fd5b80630e18b681146101895780631045a96614610193578063147bf6c4146101d957806314c8cd6a146101ec57806316f6f03e146102025780632dc5c97c1461021557806347c1a7e414610260575b600080fd5b6101916103dc565b005b6101a66101a136600461201c565b61043c565b604080516001600160401b03909416845263ffffffff909216602084015261ffff16908201526060015b60405180910390f35b6101916101e7366004612051565b610485565b6101f46104cc565b6040519081526020016101d0565b61019161021036600461206c565b6104db565b61021d6105ae565b6040516101d0919081516001600160401b039081168252602080840151821690830152604080840151821690830152606092830151169181019190915260800190565b61019161026e3660046120ad565b6105da565b6101f46106a5565b61028e610289366004612051565b6106af565b60405190151581526020016101d0565b426101f4565b6101f46102b236600461201c565b6106da565b6101916102c5366004612101565b6106f1565b6102d26107de565b6040516101d09190612134565b6102e76107e8565b604080519384526020840192909252908201526060016101d0565b6101f4610887565b610191610318366004612148565b610891565b61019161032b36600461206c565b610aeb565b610338610baf565b604080518251815260209283015192810192909252016101d0565b610191610361366004612191565b610bcb565b61028e610374366004612051565b610c60565b6101f4610c74565b6102d2610c90565b6101916103973660046121b3565b610c9a565b6101916103aa36600461201c565b610e96565b6101f4610f0c565b6102d2610f16565b6103c7610f20565b6040516101d0919061223c565b6101f4610f2a565b6103e4610f3a565b6001600160a01b0316336001600160a01b031614610420573360405163472511eb60e11b81526004016104179190612134565b60405180910390fd5b61043061042b610f3a565b610f44565b61043a6000610f8d565b565b60008060008061044a610fcd565b858151811061045b5761045b612289565b6020026020010151905061047881603081901c9160109190911c90565b9096909550909350915050565b61048d611042565b6001600160a01b0316336001600160a01b0316146104c0573360405163472511eb60e11b81526004016104179190612134565b6104c981610f8d565b50565b60006104d661104c565b905090565b6104e3611042565b6001600160a01b0316336001600160a01b031614610516573360405163472511eb60e11b81526004016104179190612134565b60006105218361106e565b905060008112156105455760405163574b16a760e11b815260040160405180910390fd5b61054e816110ef565b6105566111d2565b61055e6111f4565b600061056861121d565b9050610574838261124d565b6040516001600160a01b038516907f7693a3e9eac51f172f145e6f54bc5554168997a1f4efb40f3fad091aa7cfb0e790600090a250505050565b6040805160808101825260008082526020820181905291810182905260608101919091526104d661132f565b6105e2611042565b6001600160a01b0316336001600160a01b031614610615573360405163472511eb60e11b81526004016104179190612134565b6106626040518060800160405280866001600160401b03168152602001856001600160401b03168152602001846001600160401b03168152602001836001600160401b03168152506113c8565b7f4a7503ca21ae5342feb83892e899e95fb309502a0016ed300e4965e2dbfe733584848484604051610697949392919061229f565b60405180910390a150505050565b60006104d6611461565b6000806106bb8361106e565b905080600019141580156106d357506106d381611491565b9392505050565b6000806106e561132f565b90506106d383826114c2565b6106f9611042565b6001600160a01b0316336001600160a01b03161461072c573360405163472511eb60e11b81526004016104179190612134565b610735816114e4565b60006107408261106e565b1261076057806040516307bbad8160e51b81526004016104179190612134565b600061076b8361106e565b9050600081121561078f5760405163574b16a760e11b815260040160405180910390fd5b610799818361150b565b816001600160a01b0316836001600160a01b03167fc20826a9a3cb354d2c12357704db9eb03d7344375b092d70146dbbbc4d3f84d160405160405180910390a3505050565b60006104d6611042565b6000806000806107f661132f565b905061080a61080482611575565b826114c2565b935060008160200151826040015161082291906122e0565b6001600160401b03169050610837818661230f565b82606001516001600160401b031661084f919061232e565b825190945060019061086a906001600160401b03168361230f565b610874908661232e565b61087e9190612346565b92505050909192565b60006104d66115c3565b600061089c3361106e565b90508060001914156108c3573360405163472511eb60e11b81526004016104179190612134565b60006108cd61132f565b905060006108d9611461565b905080861015610906576040516304f6456960e11b81526004810187905260248101829052604401610417565b8086111561095957600061092261091c84611575565b846114c2565b905080871461094e5760405163983b675160e01b81526004810188905260248101829052604401610417565b610957876115f3565b505b61096283611491565b1561098957604051637a6a90d160e11b815260048101879052336024820152604401610417565b61099283611642565b60006109ab6001600160401b038716633b9aca0061235d565b604080518981526001600160801b038316602082015263ffffffff88168183015233606082015290519192507fb2b4027d60bee3bc1b4f7912bd94b5b9868db0e25ecbbfe0b1e4d55eb71b5462919081900360800190a1601085901b65ffffffff000016603087901b6dffffffffffffffff00000000000016176000610a3082611686565b90506000610a3c61121d565b905060008212610ab2576000610a50610fcd565b8381518110610a6157610a61612289565b6020026020010151905081610a738290565b610a7e906001612383565b61ffff1610610a9857610a938b868b8a6116f8565b610aac565b610aac83610aa783600161232e565b611979565b50610adf565b8060011415610acc57610ac78a858a896116f8565b610adf565b610adf610ada84600161232e565b6119c1565b50505050505050505050565b610af3611042565b6001600160a01b0316336001600160a01b031614610b26573360405163472511eb60e11b81526004016104179190612134565b6000610b318361106e565b905060008112610b5657826040516307bbad8160e51b81526004016104179190612134565b610b5f836119f6565b6000610b6961121d565b9050610b75838261124d565b6040516001600160a01b038516907f1a2323d99020f3db8e6ea85b1eea81e5bf422695877228e3d8a0241d7e957a6c90600090a250505050565b60408051808201909152600080825260208201526104d6611a4f565b610bd3611042565b6001600160a01b0316336001600160a01b031614610c06573360405163472511eb60e11b81526004016104179190612134565b610c23604051806040016040528084815260200183815250611aaf565b60408051838152602081018390527f5ab79ffcd89b6380c7fbdd89d02cfe3d9c53c99a85e150c2319075018d1aac5c910160405180910390a15050565b600080610c6c8361106e565b121592915050565b600080610c7f61132f565b9050610c8a81611575565b91505090565b60006104d6611af2565b6000610ca4611b22565b8114610cd55780610cb3611b22565b604051631cfd276760e31b815260048101929092526024820152604401610417565b610ce8610ce382600161232e565b611b52565b610cf188610f44565b610cfa89611b85565b7ffc0d749143b04e0d92a3b49edae84a45f6bc88b75e99d9118ec4d7e87fe626c589604051610d299190612134565b60405180910390a1610d7e6040518060800160405280896001600160401b03168152602001886001600160401b03168152602001876001600160401b03168152602001866001600160401b03168152506113c8565b7f4a7503ca21ae5342feb83892e899e95fb309502a0016ed300e4965e2dbfe733587878787604051610db3949392919061229f565b60405180910390a1610dd8604051806040016040528085815260200184815250611aaf565b60408051848152602081018490527f5ab79ffcd89b6380c7fbdd89d02cfe3d9c53c99a85e150c2319075018d1aac5c910160405180910390a1610e1b6001611bbc565b604051600181527f8e72be630a666d46b219565c1647e3792924d9c74e901fa3c4a33e23b91fb9b19060200160405180910390a17f1809e49bba43f2d39fa57894b50cd6ccb428cc438230e065cac3eb24a1355a7181600036604051610e83939291906123a9565b60405180910390a1505050505050505050565b610e9e611042565b6001600160a01b0316336001600160a01b031614610ed1573360405163472511eb60e11b81526004016104179190612134565b6000610edb61121d565b905081811415610efe5760405163a9cb9e0d60e01b815260040160405180910390fd5b610f08828261124d565b5050565b60006104d661121d565b60006104d6610f3a565b60606104d6611bea565b6000610f34610fcd565b51905090565b60006104d6611c68565b610f4d816114e4565b610f5681611c98565b6040516001600160a01b038216907f5a272403b402d892977df56625f4164ccaf70ca3863991c43ecfe76a6905b0a190600090a250565b610f9681611ca1565b6040516001600160a01b038216907f2a0f8515de3fa34ef68b99300347b8793c01683350743e96fe440594528298f490600090a250565b60606000610fea6001600080516020612471833981519152612346565b805460408051602080840282018101909252828152929350839291839183018282801561103657602002820191906000526020600020905b815481526020019060010190808311611022575b50505050509250505090565b60006104d6611caa565b60006104d661106a6001600080516020612451833981519152612346565b5490565b60008061108a6001600080516020612431833981519152612346565b90508060005b81548110156110e357846001600160a01b03168260000182815481106110b8576110b8612289565b6000918252602090912001546001600160a01b031614156110db57949350505050565b600101611090565b50600019949350505050565b600061110a6001600080516020612431833981519152612346565b8054909150819060009061112090600190612346565b90508381146111995781600001818154811061113e5761113e612289565b60009182526020909120015482546001600160a01b039091169083908690811061116a5761116a612289565b9060005260206000200160006101000a8154816001600160a01b0302191690836001600160a01b031602179055505b81548290806111aa576111aa6123df565b600082815260209020810160001990810180546001600160a01b031916905501905550505050565b61043a6111ee6001600080516020612451833981519152612346565b60009055565b600061120f6001600080516020612471833981519152612346565b905080610f08816000611fea565b60006104d661106a60017fffa4a5d927096d2bbb9d71111d7c9929ecbdcbe9bffc8d35f55b642e81698ebb612346565b6000611257611bea565b519050821580156112685750600081115b8061127257508083115b156112905760405163a9cb9e0d60e01b815260040160405180910390fd5b828211156112ee576000806112a485611cda565b9150915081156112eb57603081901c601082901c6112e86112c3611461565b6112da6001600160401b038516633b9aca0061235d565b836112e361132f565b6116f8565b50505b50505b6112f783611bbc565b6040518381527f8e72be630a666d46b219565c1647e3792924d9c74e901fa3c4a33e23b91fb9b19060200160405180910390a1505050565b60408051608081018252600080825260208201819052918101829052606081018290529061137e60017fd84ee2c84c954c65bef1459fe03b761a42f49234527e3cd8fd9dce87cb83742b612346565b6040805160808101825291546001600160401b038082168452600160401b820481166020850152600160801b8204811692840192909252600160c01b900416606082015292915050565b60006113f560017fd84ee2c84c954c65bef1459fe03b761a42f49234527e3cd8fd9dce87cb83742b612346565b82518154602085015160408601516060909601516001600160401b03908116600160c01b026001600160c01b03978216600160801b02979097166001600160801b03928216600160401b026001600160801b031990941691909416179190911716179290921790915550565b60006104d661106a60017f45d0d54fdd66220435526b0d20a3e002dad71447d5a32fb8efce72e62d4e0228612346565b6000600180831b90819081906114b99061106a90600080516020612451833981519152612346565b16149392505050565b80516000906001600160401b03166114da81856123f5565b6106d3919061230f565b6001600160a01b0381166104c95760405163f6b2911f60e01b815260040160405180910390fd5b60006115266001600080516020612431833981519152612346565b80549091508190839082908690811061154157611541612289565b9060005260206000200160006101000a8154816001600160a01b0302191690836001600160a01b0316021790555050505050565b60008160400151826020015161158b91906122e0565b6001600160401b031682606001516001600160401b03166115a94290565b6115b39190612346565b6115bd91906123f5565b92915050565b60006104d661106a60017faf3d74d3b4106d19ea8994739c1a66b48922195975ea284f4cd201487a79b9ed612346565b6115fb6111d2565b6116036111f4565b61160c81611df3565b6040518181527fcdcd275f4d96ed683d684f3610a92beacdebcf1ee4d37e2df526fb9001e1ea639060200160405180910390a150565b600180821b90610f089061166490600080516020612451833981519152612346565b8261168161106a6001600080516020612451833981519152612346565b179055565b6000806116a26001600080516020612471833981519152612346565b90508060005b81548110156110e357846dffffffffffffffffffffffff00008360000183815481106116d6576116d6612289565b90600052602060002001541614156116f057949350505050565b6001016116a8565b805161171690611711906001600160401b03168661232e565b6115f3565b6000611720611af2565b90506000816001600160a01b031663143a08d46040518163ffffffff1660e01b8152600401602060405180830381865afa158015611762573d6000803e3d6000fd5b505050506040513d601f19601f820116820180604052508101906117869190612417565b9050600083604001516001600160401b031684602001516001600160401b03166117ae6115c3565b6117b8908a612346565b6117c2919061230f565b6117cc919061230f565b905060006117da8383611e21565b60405163cc48cd3160e01b815263ffffffff881660048201526001600160801b0389166024820152604481018a9052606481018290529091506001600160a01b0385169063cc48cd3190608401600060405180830381600087803b15801561184157600080fd5b505af1158015611855573d6000803e3d6000fd5b505050506000846001600160a01b031663143a08d46040518163ffffffff1660e01b8152600401602060405180830381865afa158015611899573d6000803e3d6000fd5b505050506040513d601f19601f820116820180604052508101906118bd9190612417565b90506118ca818585611e66565b6118d389611f57565b7fdafd48d1eba2a416b2aca45e9ead3ad18b84e868fa6d2e1a3048bfd37ed10a32818585886001600160a01b03166318160ddd6040518163ffffffff1660e01b8152600401602060405180830381865afa158015611935573d6000803e3d6000fd5b505050506040513d601f19601f820116820180604052508101906119599190612417565b604080519485526020850193909352918301526060820152608001610e83565b60006119946001600080516020612471833981519152612346565b8054909150819083908290869081106119af576119af612289565b60009182526020909120015550505050565b60006119dc6001600080516020612471833981519152612346565b805460018101825560009182526020909120019190915550565b6119ff816114e4565b6000611a1a6001600080516020612431833981519152612346565b8054600181018255600091825260209091200180546001600160a01b0319166001600160a01b03939093169290921790915550565b60408051808201909152600080825260208201526000611a9060017ff81b149de6749a3f46464b2cce61e24462f67599ea4a5ce028aaf4ab1521f96e612346565b6040805180820190915281548152600190910154602082015292915050565b6000611adc60017ff81b149de6749a3f46464b2cce61e24462f67599ea4a5ce028aaf4ab1521f96e612346565b8251815560209092015160019092019190915550565b60006104d661106a60017f1ec4138404500a2a0be2c2f9b103581c2a7fa783a934f91a6cc5cc924404973c612346565b60006104d661106a60017f82055909238c0f5e63d6f174068ebb8f51bcec9bd37de63bb68f6551feec0cfd612346565b6104c9611b8060017f82055909238c0f5e63d6f174068ebb8f51bcec9bd37de63bb68f6551feec0cfd612346565b829055565b611b8e816114e4565b6104c9611b8060017f1ec4138404500a2a0be2c2f9b103581c2a7fa783a934f91a6cc5cc924404973c612346565b6104c9611b8060017fffa4a5d927096d2bbb9d71111d7c9929ecbdcbe9bffc8d35f55b642e81698ebb612346565b60606000611c076001600080516020612431833981519152612346565b805460408051602080840282018101909252828152929350839291839183018282801561103657602002820191906000526020600020905b81546001600160a01b03168152600190910190602001808311611c3f5750505050509250505090565b60006104d661106a60017f6e6ab8b7c7aaba79eef8cc633522d606bb008c101cf9832c9ad05d10a9847281612346565b6104c981611f85565b6104c981611fbc565b60006104d661106a60017fb5b37715a3e346e996104f0086703f19825def429233930fd9399c38e05fb113612346565b6000806000611ce7610fcd565b9050805160011415611d405783611d1582600081518110611d0a57611d0a612289565b602002602001015190565b61ffff16101581600081518110611d2e57611d2e612289565b60200260200101519250925050915091565b8051611d525750600093849350915050565b60008060008060005b8551811015611db857611d79868281518110611d0a57611d0a612289565b91508261ffff168261ffff1610611db0578261ffff168261ffff161415611da557836001019350611db0565b809450819250600093505b600101611d5b565b50878261ffff1610158015611dcb575082155b858581518110611ddd57611ddd612289565b6020026020010151965096505050505050915091565b6104c9611b8060017f45d0d54fdd66220435526b0d20a3e002dad71447d5a32fb8efce72e62d4e0228612346565b600080611e2c611a4f565b519050611e3f6301e1338061271061230f565b83611e4a838761230f565b611e54919061230f565b611e5e91906123f5565b949350505050565b818310611ef0576000611e77611a4f565b51905081611e85848361230f565b611e8f919061230f565b611e998486612346565b611ea96301e1338061271061230f565b611eb3919061230f565b1115611eea5760405163eb7a968960e01b815260048101849052602481018590526044810183905260648101829052608401610417565b50505050565b6000611efa611a4f565b602001519050611f0a838261230f565b611f148585612346565b611f209061271061230f565b1115611eea5760405163063bb83f60e11b815260048101849052602481018590526044810183905260648101829052608401610417565b6104c9611b8060017faf3d74d3b4106d19ea8994739c1a66b48922195975ea284f4cd201487a79b9ed612346565b611f8e816114e4565b6104c9611b8060017fb5b37715a3e346e996104f0086703f19825def429233930fd9399c38e05fb113612346565b6104c9611b8060017f6e6ab8b7c7aaba79eef8cc633522d606bb008c101cf9832c9ad05d10a9847281612346565b50805460008255906000526020600020908101906104c991905b808211156120185760008155600101612004565b5090565b60006020828403121561202e57600080fd5b5035919050565b80356001600160a01b038116811461204c57600080fd5b919050565b60006020828403121561206357600080fd5b6106d382612035565b6000806040838503121561207f57600080fd5b61208883612035565b946020939093013593505050565b80356001600160401b038116811461204c57600080fd5b600080600080608085870312156120c357600080fd5b6120cc85612096565b93506120da60208601612096565b92506120e860408601612096565b91506120f660608601612096565b905092959194509250565b6000806040838503121561211457600080fd5b61211d83612035565b915061212b60208401612035565b90509250929050565b6001600160a01b0391909116815260200190565b60008060006060848603121561215d57600080fd5b8335925061216d60208501612096565b9150604084013563ffffffff8116811461218657600080fd5b809150509250925092565b600080604083850312156121a457600080fd5b50508035926020909101359150565b600080600080600080600080610100898b0312156121d057600080fd5b6121d989612035565b97506121e760208a01612035565b96506121f560408a01612096565b955061220360608a01612096565b945061221160808a01612096565b935061221f60a08a01612096565b925060c0890135915060e089013590509295985092959890939650565b6020808252825182820181905260009190848201906040850190845b8181101561227d5783516001600160a01b031683529284019291840191600101612258565b50909695505050505050565b634e487b7160e01b600052603260045260246000fd5b6001600160401b03948516815292841660208401529083166040830152909116606082015260800190565b634e487b7160e01b600052601160045260246000fd5b60006001600160401b0380831681851681830481118215151615612306576123066122ca565b02949350505050565b6000816000190483118215151615612329576123296122ca565b500290565b60008219821115612341576123416122ca565b500190565b600082821015612358576123586122ca565b500390565b60006001600160801b0382811684821681151582840482111615612306576123066122ca565b600061ffff8083168185168083038211156123a0576123a06122ca565b01949350505050565b83815260406020820152816040820152818360608301376000818301606090810191909152601f909201601f1916010192915050565b634e487b7160e01b600052603160045260246000fd5b60008261241257634e487b7160e01b600052601260045260246000fd5b500490565b60006020828403121561242957600080fd5b505191905056fec4aba040293e5848600dd7b64a390db880c4a70937c23383e6c5b6619689863b50e65b39a6b6b7bb3298d9d19e41cecec530b7916ba516c44f4d79e3a9dcd7a7f1827321f6d023724a23b4e28f3ef67f741d185cff4e224f6dcbb56935784fcda26469706673582212209b8d450cb135967bbc6aeaa30ecff63db9b00fff0274ec1506a0261e076c365664736f6c634300080a0033",
  "devdoc": {
    "author": "Kiln",
    "errors": {
      "AddressAlreadyInUse(address)": [
        {
          "params": {
            "newAddress": "The address already in use"
          }
        }
      ],
      "AlreadyReported(uint256,address)": [
        {
          "params": {
            "epochId": "The epoch id provided as input",
            "member": "The oracle member"
          }
        }
      ],
      "EpochTooOld(uint256,uint256)": [
        {
          "params": {
            "minExpectedEpochId": "The minimum epoch id expected",
            "providedEpochId": "The epoch id provided as input"
          }
        }
      ],
      "InvalidInitialization(uint256,uint256)": [
        {
          "params": {
            "expectedVersion": "The version that was expected",
            "version": "The version that was attempting to be initialized"
          }
        }
      ],
      "NotFrameFirstEpochId(uint256,uint256)": [
        {
          "params": {
            "expectedFrameFirstEpochId": "The frame first epoch id that was expected",
            "providedEpochId": "The epoch id provided as input"
          }
        }
      ],
      "TotalValidatorBalanceDecreaseOutOfBound(uint256,uint256,uint256,uint256)": [
        {
          "params": {
            "postTotalEth": "The new total balance",
            "prevTotalEth": "The previous total balance",
            "relativeLowerBound": "The maximum relative decrease allowed",
            "timeElapsed": "The time since last report"
          }
        }
      ],
      "TotalValidatorBalanceIncreaseOutOfBound(uint256,uint256,uint256,uint256)": [
        {
          "params": {
            "annualAprUpperBound": "The maximum apr allowed",
            "postTotalEth": "The new total balance",
            "prevTotalEth": "The previous total balance",
            "timeElapsed": "The time since last report"
          }
        }
      ],
      "Unauthorized(address)": [
        {
          "params": {
            "caller": "Addres performing the call"
          }
        }
      ]
    },
    "kind": "dev",
    "methods": {
      "acceptAdmin()": {
        "details": "Only callable by the pending admin. Resets the pending admin if succesful."
      },
      "addMember(address,uint256)": {
        "details": "Only callable by the adminstrator",
        "params": {
          "_newOracleMember": "Address of the new member",
          "_newQuorum": "New quorum value"
        }
      },
      "getAdmin()": {
        "returns": {
          "_0": "The admin address"
        }
      },
      "getCLSpec()": {
        "returns": {
          "_0": "The Consensus Layer Specification"
        }
      },
      "getCurrentEpochId()": {
        "returns": {
          "_0": "The current epoch id"
        }
      },
      "getCurrentFrame()": {
        "returns": {
          "_endTime": "The timestamp of the end of the frame in seconds",
          "_startEpochId": "The epoch at the beginning of the frame",
          "_startTime": "The timestamp of the beginning of the frame in seconds"
        }
      },
      "getExpectedEpochId()": {
        "returns": {
          "_0": "The current expected epoch id"
        }
      },
      "getFrameFirstEpochId(uint256)": {
        "params": {
          "_epochId": "Epoch id used to get the frame"
        },
        "returns": {
          "_0": "The first epoch id of the frame containing the given epoch id"
        }
      },
      "getGlobalReportStatus()": {
        "returns": {
          "_0": "The raw report status value"
        }
      },
      "getLastCompletedEpochId()": {
        "returns": {
          "_0": "The last completed epoch id"
        }
      },
      "getMemberReportStatus(address)": {
        "params": {
          "_oracleMember": "Address of member to check"
        },
        "returns": {
          "_0": "True if member has reported"
        }
      },
      "getOracleMembers()": {
        "returns": {
          "_0": "The oracle members"
        }
      },
      "getPendingAdmin()": {
        "returns": {
          "_0": "The pending admin address"
        }
      },
      "getQuorum()": {
        "returns": {
          "_0": "The current quorum"
        }
      },
      "getReportBounds()": {
        "returns": {
          "_0": "The report bounds"
        }
      },
      "getReportVariant(uint256)": {
        "params": {
          "_idx": "Index of report"
        },
        "returns": {
          "_clBalance": "The reported consensus layer balance sum of River's validators",
          "_clValidators": "The reported validator count",
          "_reportCount": "The number of similar reports"
        }
      },
      "getReportVariantsCount()": {
        "returns": {
          "_0": "The count of report variants"
        }
      },
      "getRiver()": {
        "returns": {
          "_0": "The address of River"
        }
      },
      "getTime()": {
        "returns": {
          "_0": "The current timestamp from the EVM context"
        }
      },
      "initOracleV1(address,address,uint64,uint64,uint64,uint64,uint256,uint256)": {
        "params": {
          "_administratorAddress": "Address able to call administrative methods",
          "_annualAprUpperBound": "CL bound parameter. Maximum apr allowed for balance increase. Delta between updates is extrapolated on a year time frame.",
          "_epochsPerFrame": "CL spec parameter. Number of epochs in a frame.",
          "_genesisTime": "CL spec parameter. Timestamp of the genesis slot.",
          "_relativeLowerBound": "CL bound parameter. Maximum relative balance decrease.",
          "_river": "Address of the River contract, able to receive oracle input data after quorum is met",
          "_secondsPerSlot": "CL spec parameter. Number of seconds between slots.",
          "_slotsPerEpoch": "CL spec parameter. Number of slots in one epoch."
        }
      },
      "isMember(address)": {
        "details": "Performs a naive search, do not call this on-chain, used as an off-chain helper",
        "params": {
          "_memberAddress": "Address of the member"
        },
        "returns": {
          "_0": "True if address is a member"
        }
      },
      "proposeAdmin(address)": {
        "details": "This security prevents setting an invalid address as an admin. The pendingadmin has to claim its ownership of the contract, and prove that the newaddress is able to perform regular transactions.",
        "params": {
          "_newAdmin": "New admin address"
        }
      },
      "removeMember(address,uint256)": {
        "details": "Only callable by the adminstrator",
        "params": {
          "_newQuorum": "New quorum value",
          "_oracleMember": "Address to remove"
        }
      },
      "reportConsensusLayerData(uint256,uint64,uint32)": {
        "details": "Only callable by an oracle memberThe epoch id is expected to be >= to the expected epoch id stored in the contractThe epoch id is expected to be the first epoch of its frameThe Consensus Layer Validator count is the amount of running validators managed by River.Until withdrawals are enabled, this count also takes into account any exited and slashed validatoras funds are still locked on the consensus layer.",
        "params": {
          "_clValidatorCount": "Total River validator count",
          "_clValidatorsBalance": "Total balance of River validators",
          "_epochId": "Epoch where the balance and validator count has been computed"
        }
      },
      "setCLSpec(uint64,uint64,uint64,uint64)": {
        "details": "Only callable by the adminstrator",
        "params": {
          "_epochsPerFrame": "Number of epochs in a frame.",
          "_genesisTime": "Timestamp of the genesis slot.",
          "_secondsPerSlot": "Number of seconds between slots.",
          "_slotsPerEpoch": "Number of slots in one epoch."
        }
      },
      "setMember(address,address)": {
        "details": "Only callable by the adminitratorCannot use an address already in use",
        "params": {
          "_newAddress": "New address for the member",
          "_oracleMember": "Address to change"
        }
      },
      "setQuorum(uint256)": {
        "details": "Only callable by the adminstrator",
        "params": {
          "_newQuorum": "New quorum parameter"
        }
      },
      "setReportBounds(uint256,uint256)": {
        "details": "Only callable by the adminstrator",
        "params": {
          "_annualAprUpperBound": "Maximum apr allowed for balance increase. Delta between updates is extrapolated on a year time frame.",
          "_relativeLowerBound": "Maximum relative balance decrease."
        }
      }
    },
    "title": "Oracle (v1)",
    "version": 1
  },
  "userdoc": {
    "errors": {
      "AddressAlreadyInUse(address)": [
        {
          "notice": "The address is already in use by an oracle member"
        }
      ],
      "AlreadyReported(uint256,address)": [
        {
          "notice": "The member already reported on the given epoch id"
        }
      ],
      "EpochTooOld(uint256,uint256)": [
        {
          "notice": "The provided epoch is too old compared to the expected epoch id"
        }
      ],
      "InvalidArgument()": [
        {
          "notice": "The argument was invalid"
        }
      ],
      "InvalidCall()": [
        {
          "notice": "The call was invalid"
        }
      ],
      "InvalidInitialization(uint256,uint256)": [
        {
          "notice": "An error occured during the initialization"
        }
      ],
      "InvalidZeroAddress()": [
        {
          "notice": "The address is zero"
        }
      ],
      "NotFrameFirstEpochId(uint256,uint256)": [
        {
          "notice": "The provided epoch is not at the beginning of its frame"
        }
      ],
      "TotalValidatorBalanceDecreaseOutOfBound(uint256,uint256,uint256,uint256)": [
        {
          "notice": "The negative delta in balance is above the allowed lower bound"
        }
      ],
      "TotalValidatorBalanceIncreaseOutOfBound(uint256,uint256,uint256,uint256)": [
        {
          "notice": "The delta in balance is above the allowed upper bound"
        }
      ],
      "Unauthorized(address)": [
        {
          "notice": "The operator is unauthorized for the caller"
        }
      ]
    },
    "events": {
      "AddMember(address)": {
        "notice": "A member has been added to the oracle member list"
      },
      "CLReported(uint256,uint128,uint32,address)": {
        "notice": "Consensus Layer data has been reported by an oracle member"
      },
      "ExpectedEpochIdUpdated(uint256)": {
        "notice": "The expected epoch id has been changed"
      },
      "Initialize(uint256,bytes)": {
        "notice": "Emitted when the contract is properly initialized"
      },
      "PostTotalShares(uint256,uint256,uint256,uint256)": {
        "notice": "The report has been submitted to river"
      },
      "RemoveMember(address)": {
        "notice": "A member has been removed from the oracle member list"
      },
      "SetAdmin(address)": {
        "notice": "The admin address changed"
      },
      "SetBounds(uint256,uint256)": {
        "notice": "The report bounds have been changed"
      },
      "SetMember(address,address)": {
        "notice": "A member address has been edited"
      },
      "SetPendingAdmin(address)": {
        "notice": "The pending admin address changed"
      },
      "SetQuorum(uint256)": {
        "notice": "The storage quorum value has been changed"
      },
      "SetRiver(address)": {
        "notice": "The storage river address value has been changed"
      },
      "SetSpec(uint64,uint64,uint64,uint64)": {
        "notice": "The consensus layer spec has been changed"
      }
    },
    "kind": "user",
    "methods": {
      "acceptAdmin()": {
        "notice": "Accept the transfer of ownership"
      },
      "addMember(address,uint256)": {
        "notice": "Adds new address as oracle member, giving the ability to push cl reports."
      },
      "getAdmin()": {
        "notice": "Retrieves the current admin address"
      },
      "getCLSpec()": {
        "notice": "Retrieve the current cl spec"
      },
      "getCurrentEpochId()": {
        "notice": "Retrieve the current epoch id based on block timestamp"
      },
      "getCurrentFrame()": {
        "notice": "Retrieve the current frame details"
      },
      "getExpectedEpochId()": {
        "notice": "Retrieve expected epoch id"
      },
      "getFrameFirstEpochId(uint256)": {
        "notice": "Retrieve the first epoch id of the frame of the provided epoch id"
      },
      "getGlobalReportStatus()": {
        "notice": "Retrieve member report status"
      },
      "getLastCompletedEpochId()": {
        "notice": "Retrieve the last completed epoch id"
      },
      "getMemberReportStatus(address)": {
        "notice": "Retrieve member report status"
      },
      "getOracleMembers()": {
        "notice": "Retrieve the list of oracle members"
      },
      "getPendingAdmin()": {
        "notice": "Retrieve the current pending admin address"
      },
      "getQuorum()": {
        "notice": "Retrieve the current quorum"
      },
      "getReportBounds()": {
        "notice": "Retrieve the report bounds"
      },
      "getReportVariant(uint256)": {
        "notice": "Retrieve decoded report at provided index"
      },
      "getReportVariantsCount()": {
        "notice": "Retrieve report variants count"
      },
      "getRiver()": {
        "notice": "Retrieve River address"
      },
      "getTime()": {
        "notice": "Retrieve the block timestamp"
      },
      "initOracleV1(address,address,uint64,uint64,uint64,uint64,uint256,uint256)": {
        "notice": "Initializes the oracle"
      },
      "isMember(address)": {
        "notice": "Returns true if address is member"
      },
      "proposeAdmin(address)": {
        "notice": "Proposes a new address as admin"
      },
      "removeMember(address,uint256)": {
        "notice": "Removes an address from the oracle members."
      },
      "reportConsensusLayerData(uint256,uint64,uint32)": {
        "notice": "Report cl chain data"
      },
      "setCLSpec(uint64,uint64,uint64,uint64)": {
        "notice": "Edits the cl spec parameters"
      },
      "setMember(address,address)": {
        "notice": "Changes the address of an oracle member"
      },
      "setQuorum(uint256)": {
        "notice": "Edits the quorum required to forward cl data to River"
      },
      "setReportBounds(uint256,uint256)": {
        "notice": "Edits the cl bounds parameters"
      }
    },
    "notice": "This contract handles the input from the allowed oracle members. Highly inspired by Lido's implementation.",
    "version": 1
  },
  "storageLayout": {
    "storage": [],
    "types": null
  }
}