{
  "address": "0x1e69Fa8225BCf9fbA38113Ff15965Cf8f52B6e38",
  "abi": [
    {
      "inputs": [
        {
          "internalType": "address",
          "name": "_from",
          "type": "address"
        },
        {
          "internalType": "address",
          "name": "_operator",
          "type": "address"
        },
        {
          "internalType": "uint256",
          "name": "_allowance",
          "type": "uint256"
        },
        {
          "internalType": "uint256",
          "name": "_value",
          "type": "uint256"
        }
      ],
      "name": "AllowanceTooLow",
      "type": "error"
    },
    {
      "inputs": [],
      "name": "BalanceTooLow",
      "type": "error"
    },
    {
      "inputs": [],
      "name": "EmptyDeposit",
      "type": "error"
    },
    {
      "inputs": [],
      "name": "EmptyDonation",
      "type": "error"
    },
    {
      "inputs": [
        {
          "internalType": "uint256",
          "name": "index",
          "type": "uint256"
        }
      ],
      "name": "InactiveOperator",
      "type": "error"
    },
    {
      "inputs": [],
      "name": "InconsistentPublicKeys",
      "type": "error"
    },
    {
      "inputs": [],
      "name": "InconsistentSignatures",
      "type": "error"
    },
    {
      "inputs": [],
      "name": "InvalidArgument",
      "type": "error"
    },
    {
      "inputs": [],
      "name": "InvalidArrayLengths",
      "type": "error"
    },
    {
      "inputs": [],
      "name": "InvalidCall",
      "type": "error"
    },
    {
      "inputs": [],
      "name": "InvalidEmptyArray",
      "type": "error"
    },
    {
      "inputs": [],
      "name": "InvalidFundedKeyDeletionAttempt",
      "type": "error"
    },
    {
      "inputs": [],
      "name": "InvalidIndexOutOfBounds",
      "type": "error"
    },
    {
      "inputs": [
        {
          "internalType": "uint256",
          "name": "version",
          "type": "uint256"
        },
        {
          "internalType": "uint256",
          "name": "expectedVersion",
          "type": "uint256"
        }
      ],
      "name": "InvalidInitialization",
      "type": "error"
    },
    {
      "inputs": [],
      "name": "InvalidKeyCount",
      "type": "error"
    },
    {
      "inputs": [],
      "name": "InvalidPublicKeyCount",
      "type": "error"
    },
    {
      "inputs": [],
      "name": "InvalidPublicKeysLength",
      "type": "error"
    },
    {
      "inputs": [],
      "name": "InvalidSignatureCount",
      "type": "error"
    },
    {
      "inputs": [],
      "name": "InvalidSignatureLength",
      "type": "error"
    },
    {
      "inputs": [],
      "name": "InvalidUnsortedIndexes",
      "type": "error"
    },
    {
      "inputs": [
        {
          "internalType": "uint256",
          "name": "_providedValidatorCount",
          "type": "uint256"
        },
        {
          "internalType": "uint256",
          "name": "_depositedValidatorCount",
          "type": "uint256"
        }
      ],
      "name": "InvalidValidatorCountReport",
      "type": "error"
    },
    {
      "inputs": [],
      "name": "InvalidWithdrawalCredentials",
      "type": "error"
    },
    {
      "inputs": [],
      "name": "NoAvailableValidatorKeys",
      "type": "error"
    },
    {
      "inputs": [],
      "name": "NotEnoughFunds",
      "type": "error"
    },
    {
      "inputs": [],
      "name": "NullTransfer",
      "type": "error"
    },
    {
      "inputs": [
        {
          "internalType": "string",
          "name": "name",
          "type": "string"
        }
      ],
      "name": "OperatorAlreadyExists",
      "type": "error"
    },
    {
      "inputs": [
        {
          "internalType": "uint256",
          "name": "limit",
          "type": "uint256"
        },
        {
          "internalType": "uint256",
          "name": "keyCount",
          "type": "uint256"
        }
      ],
      "name": "OperatorLimitTooHigh",
      "type": "error"
    },
    {
      "inputs": [
        {
          "internalType": "string",
          "name": "name",
          "type": "string"
        }
      ],
      "name": "OperatorNotFound",
      "type": "error"
    },
    {
      "inputs": [
        {
          "internalType": "uint256",
          "name": "index",
          "type": "uint256"
        }
      ],
      "name": "OperatorNotFoundAtIndex",
      "type": "error"
    },
    {
      "inputs": [
        {
          "internalType": "address",
          "name": "caller",
          "type": "address"
        }
      ],
      "name": "Unauthorized",
      "type": "error"
    },
    {
      "anonymous": false,
      "inputs": [
        {
          "indexed": true,
          "internalType": "uint256",
          "name": "index",
          "type": "uint256"
        },
        {
          "indexed": false,
          "internalType": "string",
          "name": "name",
          "type": "string"
        },
        {
          "indexed": false,
          "internalType": "address",
          "name": "operatorAddress",
          "type": "address"
        },
        {
          "indexed": false,
          "internalType": "address",
          "name": "feeRecipientAddress",
          "type": "address"
        }
      ],
      "name": "AddedOperator",
      "type": "event"
    },
    {
      "anonymous": false,
      "inputs": [
        {
          "indexed": true,
          "internalType": "uint256",
          "name": "index",
          "type": "uint256"
        },
        {
          "indexed": false,
          "internalType": "bytes",
          "name": "publicKeys",
          "type": "bytes"
        }
      ],
      "name": "AddedValidatorKeys",
      "type": "event"
    },
    {
      "anonymous": false,
      "inputs": [
        {
          "indexed": true,
          "internalType": "address",
          "name": "_owner",
          "type": "address"
        },
        {
          "indexed": true,
          "internalType": "address",
          "name": "_spender",
          "type": "address"
        },
        {
          "indexed": false,
          "internalType": "uint256",
          "name": "_value",
          "type": "uint256"
        }
      ],
      "name": "Approval",
      "type": "event"
    },
    {
      "anonymous": false,
      "inputs": [
        {
          "indexed": false,
          "internalType": "uint256",
          "name": "validatorCount",
          "type": "uint256"
        },
        {
          "indexed": false,
          "internalType": "uint256",
          "name": "validatorBalanceSum",
          "type": "uint256"
        },
        {
          "indexed": false,
          "internalType": "bytes32",
          "name": "roundId",
          "type": "bytes32"
        }
      ],
      "name": "BeaconDataUpdate",
      "type": "event"
    },
    {
      "anonymous": false,
      "inputs": [
        {
          "indexed": false,
          "internalType": "address",
          "name": "donator",
          "type": "address"
        },
        {
          "indexed": false,
          "internalType": "uint256",
          "name": "amount",
          "type": "uint256"
        }
      ],
      "name": "Donation",
      "type": "event"
    },
    {
      "anonymous": false,
      "inputs": [
        {
          "indexed": false,
          "internalType": "bytes",
          "name": "publicKey",
          "type": "bytes"
        }
      ],
      "name": "FundedValidatorKey",
      "type": "event"
    },
    {
      "anonymous": false,
      "inputs": [
        {
          "indexed": true,
          "internalType": "uint256",
          "name": "index",
          "type": "uint256"
        },
        {
          "indexed": false,
          "internalType": "bytes",
          "name": "publicKey",
          "type": "bytes"
        }
      ],
      "name": "RemovedValidatorKey",
      "type": "event"
    },
    {
      "anonymous": false,
      "inputs": [
        {
          "indexed": true,
          "internalType": "uint256",
          "name": "index",
          "type": "uint256"
        },
        {
          "indexed": false,
          "internalType": "address",
          "name": "newOperatorAddress",
          "type": "address"
        }
      ],
      "name": "SetOperatorAddress",
      "type": "event"
    },
    {
      "anonymous": false,
      "inputs": [
        {
          "indexed": true,
          "internalType": "uint256",
          "name": "index",
          "type": "uint256"
        },
        {
          "indexed": false,
          "internalType": "address",
          "name": "newOperatorAddress",
          "type": "address"
        }
      ],
      "name": "SetOperatorFeeRecipientAddress",
      "type": "event"
    },
    {
      "anonymous": false,
      "inputs": [
        {
          "indexed": true,
          "internalType": "uint256",
          "name": "index",
          "type": "uint256"
        },
        {
          "indexed": false,
          "internalType": "uint256",
          "name": "newLimit",
          "type": "uint256"
        }
      ],
      "name": "SetOperatorLimit",
      "type": "event"
    },
    {
      "anonymous": false,
      "inputs": [
        {
          "indexed": true,
          "internalType": "uint256",
          "name": "index",
          "type": "uint256"
        },
        {
          "indexed": false,
          "internalType": "bool",
          "name": "active",
          "type": "bool"
        }
      ],
      "name": "SetOperatorStatus",
      "type": "event"
    },
    {
      "anonymous": false,
      "inputs": [
        {
          "indexed": true,
          "internalType": "uint256",
          "name": "index",
          "type": "uint256"
        },
        {
          "indexed": false,
          "internalType": "uint256",
          "name": "newStoppedValidatorCount",
          "type": "uint256"
        }
      ],
      "name": "SetOperatorStoppedValidatorCount",
      "type": "event"
    },
    {
      "anonymous": false,
      "inputs": [
        {
          "indexed": true,
          "internalType": "address",
          "name": "_from",
          "type": "address"
        },
        {
          "indexed": true,
          "internalType": "address",
          "name": "_to",
          "type": "address"
        },
        {
          "indexed": false,
          "internalType": "uint256",
          "name": "_value",
          "type": "uint256"
        }
      ],
      "name": "Transfer",
      "type": "event"
    },
    {
      "anonymous": false,
      "inputs": [
        {
          "indexed": true,
          "internalType": "address",
          "name": "depositor",
          "type": "address"
        },
        {
          "indexed": true,
          "internalType": "address",
          "name": "recipient",
          "type": "address"
        },
        {
          "indexed": false,
          "internalType": "uint256",
          "name": "amount",
          "type": "uint256"
        }
      ],
      "name": "UserDeposit",
      "type": "event"
    },
    {
      "stateMutability": "payable",
      "type": "fallback"
    },
    {
      "inputs": [],
      "name": "BASE",
      "outputs": [
        {
          "internalType": "uint256",
          "name": "",
          "type": "uint256"
        }
      ],
      "stateMutability": "view",
      "type": "function"
    },
    {
      "inputs": [],
      "name": "DEPOSIT_SIZE",
      "outputs": [
        {
          "internalType": "uint256",
          "name": "",
          "type": "uint256"
        }
      ],
      "stateMutability": "view",
      "type": "function"
    },
    {
      "inputs": [],
      "name": "PUBLIC_KEY_LENGTH",
      "outputs": [
        {
          "internalType": "uint256",
          "name": "",
          "type": "uint256"
        }
      ],
      "stateMutability": "view",
      "type": "function"
    },
    {
      "inputs": [],
      "name": "SIGNATURE_LENGTH",
      "outputs": [
        {
          "internalType": "uint256",
          "name": "",
          "type": "uint256"
        }
      ],
      "stateMutability": "view",
      "type": "function"
    },
    {
      "inputs": [
        {
          "internalType": "string",
          "name": "_name",
          "type": "string"
        },
        {
          "internalType": "address",
          "name": "_operator",
          "type": "address"
        },
        {
          "internalType": "address",
          "name": "_feeRecipient",
          "type": "address"
        }
      ],
      "name": "addOperator",
      "outputs": [],
      "stateMutability": "nonpayable",
      "type": "function"
    },
    {
      "inputs": [
        {
          "internalType": "uint256",
          "name": "_index",
          "type": "uint256"
        },
        {
          "internalType": "uint256",
          "name": "_keyCount",
          "type": "uint256"
        },
        {
          "internalType": "bytes",
          "name": "_publicKeys",
          "type": "bytes"
        },
        {
          "internalType": "bytes",
          "name": "_signatures",
          "type": "bytes"
        }
      ],
      "name": "addValidators",
      "outputs": [],
      "stateMutability": "nonpayable",
      "type": "function"
    },
    {
      "inputs": [
        {
          "internalType": "address",
          "name": "_owner",
          "type": "address"
        },
        {
          "internalType": "address",
          "name": "_spender",
          "type": "address"
        }
      ],
      "name": "allowance",
      "outputs": [
        {
          "internalType": "uint256",
          "name": "remaining",
          "type": "uint256"
        }
      ],
      "stateMutability": "view",
      "type": "function"
    },
    {
      "inputs": [
        {
          "internalType": "address",
          "name": "_spender",
          "type": "address"
        },
        {
          "internalType": "uint256",
          "name": "_value",
          "type": "uint256"
        }
      ],
      "name": "approve",
      "outputs": [
        {
          "internalType": "bool",
          "name": "success",
          "type": "bool"
        }
      ],
      "stateMutability": "nonpayable",
      "type": "function"
    },
    {
      "inputs": [
        {
          "internalType": "address",
          "name": "_owner",
          "type": "address"
        }
      ],
      "name": "balanceOf",
      "outputs": [
        {
          "internalType": "uint256",
          "name": "balance",
          "type": "uint256"
        }
      ],
      "stateMutability": "view",
      "type": "function"
    },
    {
      "inputs": [
        {
          "internalType": "address",
          "name": "_owner",
          "type": "address"
        }
      ],
      "name": "balanceOfUnderlying",
      "outputs": [
        {
          "internalType": "uint256",
          "name": "balance",
          "type": "uint256"
        }
      ],
      "stateMutability": "view",
      "type": "function"
    },
    {
      "inputs": [],
      "name": "decimals",
      "outputs": [
        {
          "internalType": "uint8",
          "name": "",
          "type": "uint8"
        }
      ],
      "stateMutability": "pure",
      "type": "function"
    },
    {
      "inputs": [],
      "name": "deposit",
      "outputs": [],
      "stateMutability": "payable",
      "type": "function"
    },
    {
      "inputs": [
        {
          "internalType": "address",
          "name": "_recipient",
          "type": "address"
        }
      ],
      "name": "depositAndTransfer",
      "outputs": [],
      "stateMutability": "payable",
      "type": "function"
    },
    {
      "inputs": [
        {
          "internalType": "uint256",
          "name": "_maxCount",
          "type": "uint256"
        }
      ],
      "name": "depositToConsensusLayer",
      "outputs": [],
      "stateMutability": "nonpayable",
      "type": "function"
    },
    {
      "inputs": [],
      "name": "donate",
      "outputs": [],
      "stateMutability": "payable",
      "type": "function"
    },
    {
      "inputs": [],
      "name": "getAdministrator",
      "outputs": [
        {
          "internalType": "address",
          "name": "",
          "type": "address"
        }
      ],
      "stateMutability": "view",
      "type": "function"
    },
    {
      "inputs": [],
      "name": "getAllowlist",
      "outputs": [
        {
          "internalType": "address",
          "name": "",
          "type": "address"
        }
      ],
      "stateMutability": "view",
      "type": "function"
    },
    {
      "inputs": [],
      "name": "getBeaconValidatorBalanceSum",
      "outputs": [
        {
          "internalType": "uint256",
          "name": "beaconValidatorBalanceSum",
          "type": "uint256"
        }
      ],
      "stateMutability": "view",
      "type": "function"
    },
    {
      "inputs": [],
      "name": "getBeaconValidatorCount",
      "outputs": [
        {
          "internalType": "uint256",
          "name": "beaconValidatorCount",
          "type": "uint256"
        }
      ],
      "stateMutability": "view",
      "type": "function"
    },
    {
      "inputs": [],
      "name": "getDepositedValidatorCount",
      "outputs": [
        {
          "internalType": "uint256",
          "name": "depositedValidatorCount",
          "type": "uint256"
        }
      ],
      "stateMutability": "view",
      "type": "function"
    },
    {
      "inputs": [
        {
          "internalType": "uint256",
          "name": "_index",
          "type": "uint256"
        }
      ],
      "name": "getOperator",
      "outputs": [
        {
          "components": [
            {
              "internalType": "bool",
              "name": "active",
              "type": "bool"
            },
            {
              "internalType": "string",
              "name": "name",
              "type": "string"
            },
            {
              "internalType": "address",
              "name": "operator",
              "type": "address"
            },
            {
              "internalType": "address",
              "name": "feeRecipient",
              "type": "address"
            },
            {
              "internalType": "uint256",
              "name": "limit",
              "type": "uint256"
            },
            {
              "internalType": "uint256",
              "name": "funded",
              "type": "uint256"
            },
            {
              "internalType": "uint256",
              "name": "keys",
              "type": "uint256"
            },
            {
              "internalType": "uint256",
              "name": "stopped",
              "type": "uint256"
            }
          ],
          "internalType": "struct Operators.Operator",
          "name": "",
          "type": "tuple"
        }
      ],
      "stateMutability": "view",
      "type": "function"
    },
    {
      "inputs": [
        {
          "internalType": "string",
          "name": "_name",
          "type": "string"
        }
      ],
      "name": "getOperatorByName",
      "outputs": [
        {
          "components": [
            {
              "internalType": "bool",
              "name": "active",
              "type": "bool"
            },
            {
              "internalType": "string",
              "name": "name",
              "type": "string"
            },
            {
              "internalType": "address",
              "name": "operator",
              "type": "address"
            },
            {
              "internalType": "address",
              "name": "feeRecipient",
              "type": "address"
            },
            {
              "internalType": "uint256",
              "name": "limit",
              "type": "uint256"
            },
            {
              "internalType": "uint256",
              "name": "funded",
              "type": "uint256"
            },
            {
              "internalType": "uint256",
              "name": "keys",
              "type": "uint256"
            },
            {
              "internalType": "uint256",
              "name": "stopped",
              "type": "uint256"
            }
          ],
          "internalType": "struct Operators.Operator",
          "name": "",
          "type": "tuple"
        }
      ],
      "stateMutability": "view",
      "type": "function"
    },
    {
      "inputs": [],
      "name": "getOperatorCount",
      "outputs": [
        {
          "internalType": "uint256",
          "name": "",
          "type": "uint256"
        }
      ],
      "stateMutability": "view",
      "type": "function"
    },
    {
      "inputs": [
        {
          "internalType": "string",
          "name": "_name",
          "type": "string"
        }
      ],
      "name": "getOperatorDetails",
      "outputs": [
        {
          "internalType": "int256",
          "name": "_index",
          "type": "int256"
        },
        {
          "internalType": "address",
          "name": "_operatorAddress",
          "type": "address"
        }
      ],
      "stateMutability": "view",
      "type": "function"
    },
    {
      "inputs": [],
      "name": "getOracle",
      "outputs": [
        {
          "internalType": "address",
          "name": "oracle",
          "type": "address"
        }
      ],
      "stateMutability": "view",
      "type": "function"
    },
    {
      "inputs": [],
      "name": "getPendingEth",
      "outputs": [
        {
          "internalType": "uint256",
          "name": "",
          "type": "uint256"
        }
      ],
      "stateMutability": "view",
      "type": "function"
    },
    {
      "inputs": [],
      "name": "getTreasury",
      "outputs": [
        {
          "internalType": "address",
          "name": "",
          "type": "address"
        }
      ],
      "stateMutability": "view",
      "type": "function"
    },
    {
      "inputs": [
        {
          "internalType": "uint256",
          "name": "_operatorIndex",
          "type": "uint256"
        },
        {
          "internalType": "uint256",
          "name": "_validatorIndex",
          "type": "uint256"
        }
      ],
      "name": "getValidator",
      "outputs": [
        {
          "internalType": "bytes",
          "name": "publicKey",
          "type": "bytes"
        },
        {
          "internalType": "bytes",
          "name": "signature",
          "type": "bytes"
        },
        {
          "internalType": "bool",
          "name": "funded",
          "type": "bool"
        }
      ],
      "stateMutability": "view",
      "type": "function"
    },
    {
      "inputs": [],
      "name": "getWithdrawalCredentials",
      "outputs": [
        {
          "internalType": "bytes32",
          "name": "",
          "type": "bytes32"
        }
      ],
      "stateMutability": "view",
      "type": "function"
    },
    {
      "inputs": [
        {
          "internalType": "address",
          "name": "_depositContractAddress",
          "type": "address"
        },
        {
          "internalType": "bytes32",
          "name": "_withdrawalCredentials",
          "type": "bytes32"
        },
        {
          "internalType": "address",
          "name": "_oracleAddress",
          "type": "address"
        },
        {
          "internalType": "address",
          "name": "_systemAdministratorAddress",
          "type": "address"
        },
        {
          "internalType": "address",
          "name": "_allowlistAddress",
          "type": "address"
        },
        {
          "internalType": "address",
          "name": "_treasuryAddress",
          "type": "address"
        },
        {
          "internalType": "uint256",
          "name": "_globalFee",
          "type": "uint256"
        },
        {
          "internalType": "uint256",
          "name": "_operatorRewardsShare",
          "type": "uint256"
        }
      ],
      "name": "initRiverV1",
      "outputs": [],
      "stateMutability": "nonpayable",
      "type": "function"
    },
    {
      "inputs": [],
      "name": "name",
      "outputs": [
        {
          "internalType": "string",
          "name": "",
          "type": "string"
        }
      ],
      "stateMutability": "pure",
      "type": "function"
    },
    {
      "inputs": [
        {
          "internalType": "uint256",
          "name": "_index",
          "type": "uint256"
        },
        {
          "internalType": "uint256[]",
          "name": "_indexes",
          "type": "uint256[]"
        }
      ],
      "name": "removeValidators",
      "outputs": [],
      "stateMutability": "nonpayable",
      "type": "function"
    },
    {
      "inputs": [
        {
          "internalType": "address",
          "name": "_newAdmin",
          "type": "address"
        }
      ],
      "name": "setAdministrator",
      "outputs": [],
      "stateMutability": "nonpayable",
      "type": "function"
    },
    {
      "inputs": [
        {
          "internalType": "address",
          "name": "_newAllowlist",
          "type": "address"
        }
      ],
      "name": "setAllowlist",
      "outputs": [],
      "stateMutability": "nonpayable",
      "type": "function"
    },
    {
      "inputs": [
        {
          "internalType": "uint256",
          "name": "_validatorCount",
          "type": "uint256"
        },
        {
          "internalType": "uint256",
          "name": "_validatorBalanceSum",
          "type": "uint256"
        },
        {
          "internalType": "bytes32",
          "name": "_roundId",
          "type": "bytes32"
        }
      ],
      "name": "setBeaconData",
      "outputs": [],
      "stateMutability": "nonpayable",
      "type": "function"
    },
    {
      "inputs": [
        {
          "internalType": "uint256",
          "name": "newFee",
          "type": "uint256"
        }
      ],
      "name": "setGlobalFee",
      "outputs": [],
      "stateMutability": "nonpayable",
      "type": "function"
    },
    {
      "inputs": [
        {
          "internalType": "uint256",
          "name": "_index",
          "type": "uint256"
        },
        {
          "internalType": "address",
          "name": "_newOperatorAddress",
          "type": "address"
        }
      ],
      "name": "setOperatorAddress",
      "outputs": [],
      "stateMutability": "nonpayable",
      "type": "function"
    },
    {
      "inputs": [
        {
          "internalType": "uint256",
          "name": "_index",
          "type": "uint256"
        },
        {
          "internalType": "address",
          "name": "_newOperatorFeeRecipientAddress",
          "type": "address"
        }
      ],
      "name": "setOperatorFeeRecipientAddress",
      "outputs": [],
      "stateMutability": "nonpayable",
      "type": "function"
    },
    {
      "inputs": [
        {
          "internalType": "uint256[]",
          "name": "_operatorIndexes",
          "type": "uint256[]"
        },
        {
          "internalType": "uint256[]",
          "name": "_newLimits",
          "type": "uint256[]"
        }
      ],
      "name": "setOperatorLimits",
      "outputs": [],
      "stateMutability": "nonpayable",
      "type": "function"
    },
    {
      "inputs": [
        {
          "internalType": "uint256",
          "name": "newOperatorRewardsShare",
          "type": "uint256"
        }
      ],
      "name": "setOperatorRewardsShare",
      "outputs": [],
      "stateMutability": "nonpayable",
      "type": "function"
    },
    {
      "inputs": [
        {
          "internalType": "uint256",
          "name": "_index",
          "type": "uint256"
        },
        {
          "internalType": "bool",
          "name": "_newStatus",
          "type": "bool"
        }
      ],
      "name": "setOperatorStatus",
      "outputs": [],
      "stateMutability": "nonpayable",
      "type": "function"
    },
    {
      "inputs": [
        {
          "internalType": "uint256",
          "name": "_index",
          "type": "uint256"
        },
        {
          "internalType": "uint256",
          "name": "_newStoppedValidatorCount",
          "type": "uint256"
        }
      ],
      "name": "setOperatorStoppedValidatorCount",
      "outputs": [],
      "stateMutability": "nonpayable",
      "type": "function"
    },
    {
      "inputs": [
        {
          "internalType": "address",
          "name": "_oracleAddress",
          "type": "address"
        }
      ],
      "name": "setOracle",
      "outputs": [],
      "stateMutability": "nonpayable",
      "type": "function"
    },
    {
      "inputs": [
        {
          "internalType": "address",
          "name": "_newTreasury",
          "type": "address"
        }
      ],
      "name": "setTreasury",
      "outputs": [],
      "stateMutability": "nonpayable",
      "type": "function"
    },
    {
      "inputs": [
        {
          "internalType": "uint256",
          "name": "underlyingBalance",
          "type": "uint256"
        }
      ],
      "name": "sharesFromUnderlyingBalance",
      "outputs": [
        {
          "internalType": "uint256",
          "name": "",
          "type": "uint256"
        }
      ],
      "stateMutability": "view",
      "type": "function"
    },
    {
      "inputs": [],
      "name": "symbol",
      "outputs": [
        {
          "internalType": "string",
          "name": "",
          "type": "string"
        }
      ],
      "stateMutability": "pure",
      "type": "function"
    },
    {
      "inputs": [],
      "name": "totalSupply",
      "outputs": [
        {
          "internalType": "uint256",
          "name": "",
          "type": "uint256"
        }
      ],
      "stateMutability": "view",
      "type": "function"
    },
    {
      "inputs": [],
      "name": "totalUnderlyingSupply",
      "outputs": [
        {
          "internalType": "uint256",
          "name": "",
          "type": "uint256"
        }
      ],
      "stateMutability": "view",
      "type": "function"
    },
    {
      "inputs": [
        {
          "internalType": "address",
          "name": "_to",
          "type": "address"
        },
        {
          "internalType": "uint256",
          "name": "_value",
          "type": "uint256"
        }
      ],
      "name": "transfer",
      "outputs": [
        {
          "internalType": "bool",
          "name": "",
          "type": "bool"
        }
      ],
      "stateMutability": "nonpayable",
      "type": "function"
    },
    {
      "inputs": [
        {
          "internalType": "address",
          "name": "_from",
          "type": "address"
        },
        {
          "internalType": "address",
          "name": "_to",
          "type": "address"
        },
        {
          "internalType": "uint256",
          "name": "_value",
          "type": "uint256"
        }
      ],
      "name": "transferFrom",
      "outputs": [
        {
          "internalType": "bool",
          "name": "",
          "type": "bool"
        }
      ],
      "stateMutability": "nonpayable",
      "type": "function"
    },
    {
      "inputs": [
        {
          "internalType": "uint256",
          "name": "shares",
          "type": "uint256"
        }
      ],
      "name": "underlyingBalanceFromShares",
      "outputs": [
        {
          "internalType": "uint256",
          "name": "",
          "type": "uint256"
        }
      ],
      "stateMutability": "view",
      "type": "function"
    },
    {
      "stateMutability": "payable",
      "type": "receive"
    }
  ],
  "transactionHash": "0xc3e72bad91d3f523296df49a7a152d5b07f97685a5bcd2fb4fcdff3b65eb5026",
  "args": [],
  "numDeployments": 1,
  "solcInputHash": "09a490197081074b7caaa46a96090f59",
  "bytecode": "0x608060405234801561001057600080fd5b5061599280620000216000396000f3fe6080604052600436106103385760003560e01c806363b4118f116101b0578063b747e7dd116100ec578063dd62ed3e11610095578063ed88c68e1161006f578063ed88c68e14610956578063f0f442601461095e578063f79c3f021461097e578063f87e52961461099e57610348565b8063dd62ed3e146108ff578063df8089ef1461091f578063ec342ad01461093f57610348565b8063cfa2d2b7116100c6578063cfa2d2b7146108b7578063d0e30db0146108d7578063d56580ff146108df57610348565b8063b747e7dd1461086d578063bf15af561461088d578063c5eff3d0146108a257610348565b8063833b1fce1161015957806398548cac1161013357806398548cac146108055780639e3947f314610825578063a9059cbb1461083a578063ac232bde1461085a57610348565b8063833b1fce1461079557806387f2adfb146107aa57806395d89b41146107bf57610348565b8063799a19541161018a578063799a1954146107355780637adbf9731461075557806380d4027e1461077557610348565b806363b4118f146106c65780636988c728146106f557806370a082311461071557610348565b8063291206f61161027f5780633eb8b77a116102285780635639671511610202578063563967151461065157806358bf3c7f146106665780635a16f135146106865780635f41a0c4146106a657610348565b80633eb8b77a146105df578063540bc5ea1461061c57806354741d6d1461063157610348565b806336bf33251161025957806336bf33251461058d5780633af9e669146105aa5780633b19e84a146105ca57610348565b8063291206f614610531578063313ce56714610551578063334b974c1461056d57610348565b806318160ddd116102e15780631a4a7c61116102bb5780631a4a7c61146104e757806323b872dd146104fc578063252d6a341461051c57610348565b806318160ddd1461049f5780631864636c146104b4578063192feab4146104d457610348565b806313d86aed1161031257806313d86aed1461042f578063143a08d41461044f578063169674071461047257610348565b806305f63c8a1461037a57806306fdde03146103b0578063095ea7b3146103ff57610348565b3661034857610346336109be565b005b6040517fae962d4e00000000000000000000000000000000000000000000000000000000815260040160405180910390fd5b34801561038657600080fd5b5061039a61039536600461519b565b610a43565b6040516103a7919061520c565b60405180910390f35b3480156103bc57600080fd5b5060408051808201909152600b81527f526976657220457468657200000000000000000000000000000000000000000060208201525b6040516103a79190615299565b34801561040b57600080fd5b5061041f61041a3660046152c8565b610ba6565b60405190151581526020016103a7565b34801561043b57600080fd5b5061034661044a36600461519b565b610bfd565b34801561045b57600080fd5b50610464610dd5565b6040519081526020016103a7565b34801561047e57600080fd5b50610487610de4565b6040516001600160a01b0390911681526020016103a7565b3480156104ab57600080fd5b50610464610dee565b3480156104c057600080fd5b506103466104cf36600461533e565b610df8565b3480156104e057600080fd5b5047610464565b3480156104f357600080fd5b506104646112f5565b34801561050857600080fd5b5061041f61051736600461538a565b6112ff565b34801561052857600080fd5b506104646113fc565b34801561053d57600080fd5b5061034661054c36600461519b565b611406565b34801561055d57600080fd5b50604051601281526020016103a7565b34801561057957600080fd5b506103466105883660046153c6565b611471565b34801561059957600080fd5b506104646801bc16d674ec80000081565b3480156105b657600080fd5b506104646105c53660046153f2565b6115ca565b3480156105d657600080fd5b506104876115dd565b3480156105eb57600080fd5b506105ff6105fa36600461544f565b6115e7565b604080519283526001600160a01b039091166020830152016103a7565b34801561062857600080fd5b50610464606081565b34801561063d57600080fd5b5061034661064c366004615491565b611683565b34801561065d57600080fd5b5061046461186d565b34801561067257600080fd5b506103466106813660046153f2565b611877565b34801561069257600080fd5b506103466106a13660046154f6565b6118bb565b3480156106b257600080fd5b506103466106c136600461552b565b61194d565b3480156106d257600080fd5b506106e66106e136600461552b565b6119f3565b6040516103a79392919061554d565b34801561070157600080fd5b50610346610710366004615585565b611a1f565b34801561072157600080fd5b506104646107303660046153f2565b611ad1565b34801561074157600080fd5b5061046461075036600461519b565b611adc565b34801561076157600080fd5b506103466107703660046153f2565b611ae7565b34801561078157600080fd5b50610346610790366004615607565b611b2b565b3480156107a157600080fd5b50610487611c75565b3480156107b657600080fd5b50610464611c7f565b3480156107cb57600080fd5b5060408051808201909152600581527f6c7345544800000000000000000000000000000000000000000000000000000060208201526103f2565b34801561081157600080fd5b50610346610820366004615633565b611c89565b34801561083157600080fd5b50610464611e69565b34801561084657600080fd5b5061041f6108553660046152c8565b611e73565b6103466108683660046153f2565b611ee2565b34801561087957600080fd5b5061034661088836600461569f565b611eeb565b34801561089957600080fd5b50610464603081565b3480156108ae57600080fd5b506104876122cf565b3480156108c357600080fd5b5061039a6108d236600461544f565b6122d9565b610346612473565b3480156108eb57600080fd5b506103466108fa36600461519b565b61247e565b34801561090b57600080fd5b5061046461091a366004615722565b6124e6565b34801561092b57600080fd5b5061034661093a3660046153f2565b6124f9565b34801561094b57600080fd5b50610464620186a081565b61034661253d565b34801561096a57600080fd5b506103466109793660046153f2565b6125b7565b34801561098a57600080fd5b5061046461099936600461519b565b6125fb565b3480156109aa57600080fd5b506103466109b93660046153c6565b612606565b346109f5576040517f95b66fe900000000000000000000000000000000000000000000000000000000815260040160405180910390fd5b610a0033823461274a565b6040513481526001600160a01b0382169033907f3bc57f469ad6d10d7723ea226cd22bd2b9e527def2b529f6ab44645a166895829060200160405180910390a350565b610a9f6040518061010001604052806000151581526020016060815260200160006001600160a01b0316815260200160006001600160a01b03168152602001600081526020016000815260200160008152602001600081525090565b610aa8826128e0565b604080516101008101909152815460ff1615158152600182018054919291602084019190610ad59061574c565b80601f0160208091040260200160405190810160405280929190818152602001828054610b019061574c565b8015610b4e5780601f10610b2357610100808354040283529160200191610b4e565b820191906000526020600020905b815481529060010190602001808311610b3157829003601f168201915b505050918352505060028201546001600160a01b03908116602083015260038301541660408201526004820154606082015260058201546080820152600682015460a082015260079091015460c09091015292915050565b6000610bb333848461297c565b6040518281526001600160a01b0384169033907f8c5be1e5ebec7d5bd14f71427d1e84f3dd0314c0f7b2291e5b200ac8c7c3b9259060200160405180910390a35060015b92915050565b6000610c1b610c156801bc16d674ec80000047615797565b836129d3565b905080610c54576040517f81b5ad6800000000000000000000000000000000000000000000000000000000815260040160405180910390fd5b600080610c60836129e8565b8151919350915080610c9e576040517f800526b400000000000000000000000000000000000000000000000000000000815260040160405180910390fd5b83811115610cd8576040517f5993bd5700000000000000000000000000000000000000000000000000000000815260040160405180910390fd5b8151818114610d13576040517f8b97390c00000000000000000000000000000000000000000000000000000000815260040160405180910390fd5b6000610d1d6129fd565b905080610d56576040517f9be7315900000000000000000000000000000000000000000000000000000000815260040160405180910390fd5b60005b83811015610db057610d9e868281518110610d7657610d766157b9565b6020026020010151868381518110610d9057610d906157b9565b602002602001015184612a31565b610da96001826157cf565b9050610d59565b50610dcc83610dbd612f03565b610dc791906157cf565b612f33565b50505050505050565b6000610ddf612f66565b905090565b6000610ddf612fd2565b6000610ddf612fdc565b82610e01612fd2565b6001600160a01b0316336001600160a01b03161415611070576000610e25856128e0565b905082610e45576040516379b348ff60e11b815260040160405180910390fd5b60005b83811015611010576000858583818110610e6457610e646157b9565b9050602002013590508260050154811015610e925760405163213af80760e21b815260040160405180910390fd5b82600601548110610eb6576040516317df2d8d60e01b815260040160405180910390fd5b600082118015610f0057508585610ece6001856157e7565b818110610edd57610edd6157b9565b90506020020135868684818110610ef657610ef66157b9565b9050602002013510155b15610f1e5760405163c9ee26af60e01b815260040160405180910390fd5b600060018460060154610f3191906157e7565b90506000610f3f8984612fe6565b509050600080610f4f8b85612fe6565b91509150610f5f8b86848461316e565b610fa68b8560005b6040519080825280601f01601f191660200182016040528015610f91576020820181803683370190505b5060408051600081526020810190915261316e565b6001876006016000828254610fbb91906157e7565b925050819055508a7f70cf8064c7574b284afe278226e25779f45a4c3715653674aa651b34e9a1909284604051610ff29190615299565b60405180910390a250505050508061100990615814565b9050610e48565b50600481015484846110236001826157e7565b818110611032576110326157b9565b90506020020135101561106a57838361104c6001826157e7565b81811061105b5761105b6157b9565b60200291909101356004830155505b506112ef565b600061107b826128e0565b805490915060ff166110a8576040516301550a7360e41b8152600481018390526024015b60405180910390fd5b60028101546001600160a01b031633146110d75760405163472511eb60e11b815233600482015260240161109f565b60006110e2866128e0565b905083611102576040516379b348ff60e11b815260040160405180910390fd5b60005b84811015611292576000868683818110611121576111216157b9565b905060200201359050826005015481101561114f5760405163213af80760e21b815260040160405180910390fd5b82600601548110611173576040516317df2d8d60e01b815260040160405180910390fd5b6000821180156111bd5750868661118b6001856157e7565b81811061119a5761119a6157b9565b905060200201358787848181106111b3576111b36157b9565b9050602002013510155b156111db5760405163c9ee26af60e01b815260040160405180910390fd5b6000600184600601546111ee91906157e7565b905060006111fc8a84612fe6565b50905060008061120c8c85612fe6565b9150915061121c8c86848461316e565b6112288c856000610f67565b600187600601600082825461123d91906157e7565b925050819055508b7f70cf8064c7574b284afe278226e25779f45a4c3715653674aa651b34e9a19092846040516112749190615299565b60405180910390a250505050508061128b90615814565b9050611105565b50600481015485856112a56001826157e7565b8181106112b4576112b46157b9565b9050602002013510156112ec5784846112ce6001826157e7565b8181106112dd576112dd6157b9565b60200291909101356004830155505b50505b50505050565b6000610ddf6131dd565b6000838361130d8282613212565b838061132c576040516336b216db60e21b815260040160405180910390fd5b868580611338836132e2565b1015611357576040516351940b3960e11b815260040160405180910390fd5b6001600160a01b03891633146113e45760006113738a336132ed565b9050878110156113ce576040517f7b936de30000000000000000000000000000000000000000000000000000000081526001600160a01b038b166004820152336024820152604481018290526064810189905260840161109f565b6113e28a336113dd8b856157e7565b61297c565b505b6113ef898989613345565b9998505050505050505050565b6000610ddf6133d3565b61140e612fd2565b6001600160a01b0316336001600160a01b0316146114415760405163472511eb60e11b815233600482015260240161109f565b620186a08111156114655760405163a9cb9e0d60e01b815260040160405180910390fd5b61146e81613403565b50565b8161147a612fd2565b6001600160a01b0316336001600160a01b031614156114fd57600061149e846128e0565b6003810180546001600160a01b0319166001600160a01b03861690811790915560405190815290915084907f946f49436cc557ff671730eddb10f5a7a0c0acecc6163a8e5d0e9d1654d8cec4906020015b60405180910390a250505050565b6000611508826128e0565b805490915060ff16611530576040516301550a7360e41b81526004810183905260240161109f565b60038101546001600160a01b0316331461155f5760405163472511eb60e11b815233600482015260240161109f565b600061156a856128e0565b6003810180546001600160a01b0319166001600160a01b03871690811790915560405190815290915085907f946f49436cc557ff671730eddb10f5a7a0c0acecc6163a8e5d0e9d1654d8cec4906020015b60405180910390a25050505050565b6000610bf76115d883613431565b61347f565b6000610ddf6134b7565b60008061162984848080601f0160208091040260200160405190810160405280939291908181526020018383808284376000920191909152506134e792505050565b915061166a84848080601f01602080910402602001604051908101604052809392919081815260200183838082843760009201919091525061357792505050565b6002015491946001600160a01b03909216935090915050565b61168b612fd2565b6001600160a01b0316336001600160a01b0316146116be5760405163472511eb60e11b815233600482015260240161109f565b6116fd84848080601f0160208091040260200160405190810160405280939291908181526020018383808284376000920191909152506135e392505050565b15156001141561173d5783836040517f832eebc500000000000000000000000000000000000000000000000000000000815260040161109f929190615858565b600060405180610100016040528060011515815260200186868080601f016020809104026020016040519081016040528093929190818152602001838380828437600081840152601f19601f820116905080830192505050505050508152602001846001600160a01b03168152602001836001600160a01b0316815260200160008152602001600081526020016000815260200160008152509050600061181b86868080601f0160208091040260200160405190810160405280939291908181526020018383808284376000920191909152508692506135ee915050565b9050807f9d880795fd14fb9cfab07d0e4cfbf6bc827bc9ead48c915f730d4f8affc2fbda83602001518460400151856060015160405161185d93929190615874565b60405180910390a2505050505050565b6000610ddf6129fd565b61187f612fd2565b6001600160a01b0316336001600160a01b0316146118b25760405163472511eb60e11b815233600482015260240161109f565b61146e816137f8565b6118c3612fd2565b6001600160a01b0316336001600160a01b0316146118f65760405163472511eb60e11b815233600482015260240161109f565b6000611901836128e0565b805460ff1916831515908117825560405190815290915083907fe3bc5e5d3b000a1f65d146c40a38d89b1743b5729f4c6fe65f2e4b2dc620f2f2906020015b60405180910390a2505050565b611955612fd2565b6001600160a01b0316336001600160a01b0316146119885760405163472511eb60e11b815233600482015260240161109f565b6000611993836128e0565b905080600501548211156119ba5760405163a9cb9e0d60e01b815260040160405180910390fd5b6007810182905560405182815283907f773694db4f98cd263e42d4f798bcf603781d4491e48e8cbe96c219c1f13b777d90602001611940565b6060806000611a028585612fe6565b9093509150611a10856128e0565b60050154841090509250925092565b6000611a29613826565b8114611a735780611a38613826565b6040517fe7e93b380000000000000000000000000000000000000000000000000000000081526004810192909252602482015260440161109f565b611a86611a818260016157cf565b613856565b611a8f86613884565b611a988461388d565b611aa183613403565b611aaa826138bb565b611ab489896138e9565b611abd87611b22565b611ac6856137f8565b505050505050505050565b6000610bf7826132e2565b6000610bf7826138ff565b611aef612fd2565b6001600160a01b0316336001600160a01b031614611b225760405163472511eb60e11b815233600482015260240161109f565b61146e8161392c565b611b3361395a565b6001600160a01b0316336001600160a01b031614611b665760405163472511eb60e11b815233600482015260240161109f565b611b6e612f03565b831115611bb95782611b7e612f03565b6040517f76179ac50000000000000000000000000000000000000000000000000000000081526004810192909252602482015260440161109f565b6000611bc36133d3565b90506000611bcf61398a565b611bd990866157e7565b9050611be4846139ba565b611bed856139e8565b611bf683613a16565b83821015611c2d57611c2d611c14826801bc16d674ec8000006158a7565b611c1e84876157e7565b611c2891906157e7565b613a44565b60408051868152602081018690529081018490527f98e488f5118fc11ab540716c2afc4e440c0a892d27a4efef33db94b4f9da65899060600160405180910390a15050505050565b6000610ddf61395a565b6000610ddf612f03565b611c91612fd2565b6001600160a01b0316336001600160a01b031614611cc45760405163472511eb60e11b815233600482015260240161109f565b828114611cfd576040517fa9854bc900000000000000000000000000000000000000000000000000000000815260040160405180910390fd5b82611d34576040517f7b329aa300000000000000000000000000000000000000000000000000000000815260040160405180910390fd5b60005b83811015611e62576000611d62868684818110611d5657611d566157b9565b905060200201356128e0565b90508060060154848484818110611d7b57611d7b6157b9565b905060200201351115611de357838383818110611d9a57611d9a6157b9565b9050602002013581600601546040517f62106cb300000000000000000000000000000000000000000000000000000000815260040161109f929190918252602082015260400190565b838383818110611df557611df56157b9565b6020029190910135600483015550858583818110611e1557611e156157b9565b905060200201357f3adbeb5fbb94c52b64d90b31188c68a740868dde2238e03a04d581cae22cedf08260040154604051611e5191815260200190565b60405180910390a250600101611d37565b5050505050565b6000610ddf61398a565b60003383611e818282613212565b8380611ea0576040516336b216db60e21b815260040160405180910390fd5b338580611eac836132e2565b1015611ecb576040516351940b3960e11b815260040160405180910390fd5b611ed6338989613345565b98975050505050505050565b61146e816109be565b85611ef4612fd2565b6001600160a01b0316336001600160a01b031614156120c55785611f2b576040516379b348ff60e11b815260040160405180910390fd5b611f366030876158a7565b8414611f555760405163287c2be760e21b815260040160405180910390fd5b611f606060876158a7565b8214611f7f57604051634be6321b60e01b815260040160405180910390fd5b6000611f8a886128e0565b905060005b87811015612069576000611fe788888080601f016020809104026020016040519081016040528093929190818152602001838380828437600092019190915250611fe09250603091508690506158a7565b6030613af0565b9050600061203987878080601f0160208091040260200160405190810160405280939291908181526020018383808284376000920191909152506120329250606091508790506158a7565b6060613af0565b90506120568b84866006015461204f91906157cf565b848461316e565b50508061206290615814565b9050611f8f565b508681600601600082825461207e91906157cf565b92505081905550877f402e5ac3e483073137c527378b15e69f7f4a1c75c1adc0aa36f0c456876c05a087876040516120b7929190615858565b60405180910390a250610dcc565b60006120d0826128e0565b805490915060ff166120f8576040516301550a7360e41b81526004810183905260240161109f565b60028101546001600160a01b031633146121275760405163472511eb60e11b815233600482015260240161109f565b86612145576040516379b348ff60e11b815260040160405180910390fd5b6121506030886158a7565b851461216f5760405163287c2be760e21b815260040160405180910390fd5b61217a6060886158a7565b831461219957604051634be6321b60e01b815260040160405180910390fd5b60006121a4896128e0565b905060005b8881101561226e5760006121fa89898080601f016020809104026020016040519081016040528093929190818152602001838380828437600092019190915250611fe09250603091508690506158a7565b9050600061224588888080601f0160208091040260200160405190810160405280939291908181526020018383808284376000920191909152506120329250606091508790506158a7565b905061225b8c84866006015461204f91906157cf565b50508061226790615814565b90506121a9565b508781600601600082825461228391906157cf565b92505081905550887f402e5ac3e483073137c527378b15e69f7f4a1c75c1adc0aa36f0c456876c05a088886040516122bc929190615858565b60405180910390a2505050505050505050565b6000610ddf613c18565b6123356040518061010001604052806000151581526020016060815260200160006001600160a01b0316815260200160006001600160a01b03168152602001600081526020016000815260200160008152602001600081525090565b61237483838080601f01602080910402602001604051908101604052809392919081815260200183838082843760009201919091525061357792505050565b604080516101008101909152815460ff16151581526001820180549192916020840191906123a19061574c565b80601f01602080910402602001604051908101604052809291908181526020018280546123cd9061574c565b801561241a5780601f106123ef5761010080835404028352916020019161241a565b820191906000526020600020905b8154815290600101906020018083116123fd57829003601f168201915b505050918352505060028201546001600160a01b03908116602083015260038301541660408201526004820154606082015260058201546080820152600682015460a082015260079091015460c0909101529392505050565b61247c336109be565b565b612486612fd2565b6001600160a01b0316336001600160a01b0316146124b95760405163472511eb60e11b815233600482015260240161109f565b620186a08111156124dd5760405163a9cb9e0d60e01b815260040160405180910390fd5b61146e816138bb565b60006124f283836132ed565b9392505050565b612501612fd2565b6001600160a01b0316336001600160a01b0316146125345760405163472511eb60e11b815233600482015260240161109f565b61146e81613884565b34612574576040517f89d209d700000000000000000000000000000000000000000000000000000000815260040160405180910390fd5b61257d34613c48565b604080513381523460208201527f5d8bc849764969eb1bcc6d0a2f55999d0167c1ccec240a4f39cf664ca9c4148e910160405180910390a1565b6125bf612fd2565b6001600160a01b0316336001600160a01b0316146125f25760405163472511eb60e11b815233600482015260240161109f565b61146e8161388d565b6000610bf78261347f565b8161260f612fd2565b6001600160a01b0316336001600160a01b03161415612688576000612633846128e0565b6002810180546001600160a01b0319166001600160a01b03861690811790915560405190815290915084907f08a670ef4110fe90a7d61086d1477cde043a940601bd853a50009ac5a5ba56e7906020016114ef565b6000612693826128e0565b805490915060ff166126bb576040516301550a7360e41b81526004810183905260240161109f565b60028101546001600160a01b031633146126ea5760405163472511eb60e11b815233600482015260240161109f565b60006126f5856128e0565b6002810180546001600160a01b0319166001600160a01b03871690811790915560405190815290915085907f08a670ef4110fe90a7d61086d1477cde043a940601bd853a50009ac5a5ba56e7906020016115bb565b6127548382613c51565b816001600160a01b0316836001600160a01b031614156127d457612776613c18565b604051632d20488160e11b81526001600160a01b038581166004830152600160248301529190911690635a4091029060440160006040518083038186803b1580156127c057600080fd5b505afa158015610dcc573d6000803e3d6000fd5b6127dc613c18565b6001600160a01b0316635a409102846127f7600060016157cf565b6040517fffffffff0000000000000000000000000000000000000000000000000000000060e085901b1681526001600160a01b039092166004830152602482015260440160006040518083038186803b15801561285357600080fd5b505afa158015612867573d6000803e3d6000fd5b50505050612873613c18565b604051632d20488160e11b81526001600160a01b038481166004830152600060248301529190911690635a4091029060440160006040518083038186803b1580156128bd57600080fd5b505afa1580156128d1573d6000803e3d6000fd5b505050506112ef838383613345565b60008061290e60017f794c962401f2e1bb68ba8627fb26fd4eea0439023c691c35b68bb144bfe101136157e7565b805490915081908410612950576040517fd191a36c0000000000000000000000000000000000000000000000000000000081526004810185905260240161109f565b806000018481548110612965576129656157b9565b906000526020600020906008020192505050919050565b60006129a960017fc852254d5b703a16bb13b3e233a335d6459c5da5db0ca732d7a684ee054078476157e7565b6001600160a01b039485166000908152602091825260408082209590961681529390525091902055565b60008183116129e257826124f2565b50919050565b6060806129f483613cb3565b91509150915091565b6000610ddf612a2d60017fb649e50315f962b32d487e696a81b4828631b11f8424daaaa37e9e97766a2c426157e7565b5490565b6030835114612a6c576040517f50cb553000000000000000000000000000000000000000000000000000000000815260040160405180910390fd5b6060825114612aa7576040517f408ebd3900000000000000000000000000000000000000000000000000000000815260040160405180910390fd5b6801bc16d674ec8000006000612ac1633b9aca0083615797565b905081612ad282633b9aca006158a7565b14612adf57612adf6158c6565b60006002612aec87613fff565b604051612af991906158dc565b602060405180830381855afa158015612b16573d6000803e3d6000fd5b5050506040513d601f19601f82011682018060405250810190612b3991906158f8565b90506000600280612b4d8860006040613af0565b604051612b5a91906158dc565b602060405180830381855afa158015612b77573d6000803e3d6000fd5b5050506040513d601f19601f82011682018060405250810190612b9a91906158f8565b6002612bba612bb58a6040612bb08160606157e7565b613af0565b613fff565b604051612bc791906158dc565b602060405180830381855afa158015612be4573d6000803e3d6000fd5b5050506040513d601f19601f82011682018060405250810190612c0791906158f8565b60408051602081019390935282015260600160408051601f1981840301815290829052612c33916158dc565b602060405180830381855afa158015612c50573d6000803e3d6000fd5b5050506040513d601f19601f82011682018060405250810190612c7391906158f8565b905060006002808488604051602001612c96929190918252602082015260400190565b60408051601f1981840301815290829052612cb0916158dc565b602060405180830381855afa158015612ccd573d6000803e3d6000fd5b5050506040513d601f19601f82011682018060405250810190612cf091906158f8565b6002612cfb87614088565b604080516020810192909252810186905260600160408051601f1981840301815290829052612d29916158dc565b602060405180830381855afa158015612d46573d6000803e3d6000fd5b5050506040513d601f19601f82011682018060405250810190612d6991906158f8565b60408051602081019390935282015260600160408051601f1981840301815290829052612d95916158dc565b602060405180830381855afa158015612db2573d6000803e3d6000fd5b5050506040513d601f19601f82011682018060405250810190612dd591906158f8565b90506000612de386476157e7565b9050612ded6140ce565b6001600160a01b03166322895118878b8a604051602001612e1091815260200190565b6040516020818303038152906040528c876040518663ffffffff1660e01b8152600401612e409493929190615911565b6000604051808303818588803b158015612e5957600080fd5b505af1158015612e6d573d6000803e3d6000fd5b5050505050804714612ec15760405162461bcd60e51b815260206004820152601b60248201527f455850454354494e475f4445504f5349545f544f5f48415050454e0000000000604482015260640161109f565b7f11553d182c6d24df901ccbb837d640c1ee9994876a88dccc8ddfd7ebab9b6ce189604051612ef09190615299565b60405180910390a1505050505050505050565b6000610ddf612a2d60017fc77078e3530c08cdb2440817c81de4836500b4708ea4d15672b7fe98956423a86157e7565b61146e612f6160017fc77078e3530c08cdb2440817c81de4836500b4708ea4d15672b7fe98956423a86157e7565b829055565b600080612f7161398a565b90506000612f7d612f03565b905080821015612fc9576801bc16d674ec800000612f9b83836157e7565b612fa591906158a7565b47612fae6133d3565b612fb891906157cf565b612fc291906157cf565b9250505090565b47612fb86133d3565b6000610ddf6140fe565b6000610ddf61412e565b606080600061301660017f6018b2d18c7378174a403e179ce41a2df430338a150b2bcec4b7a082912855746157e7565b6000868152602082815260408083208884529091529020805491925082916130ca9082906130439061574c565b80601f016020809104026020016040519081016040528092919081815260200182805461306f9061574c565b80156130bc5780601f10613091576101008083540402835291602001916130bc565b820191906000526020600020905b81548152906001019060200180831161309f57829003601f168201915b505050505060006030613af0565b94506131628180546130db9061574c565b80601f01602080910402602001604051908101604052809291908181526020018280546131079061574c565b80156131545780601f1061312957610100808354040283529160200191613154565b820191906000526020600020905b81548152906001019060200180831161313757829003601f168201915b505050505060306060613af0565b93505050509250929050565b600061317a838361415e565b905060006131a960017f6018b2d18c7378174a403e179ce41a2df430338a150b2bcec4b7a082912855746157e7565b6000878152602082815260408083208984528252909120845192935083926131d392860190615102565b5050505050505050565b60008061320b60017f794c962401f2e1bb68ba8627fb26fd4eea0439023c691c35b68bb144bfe101136157e7565b5492915050565b61321a613c18565b604051632d20488160e11b81526001600160a01b038481166004830152600060248301529190911690635a4091029060440160006040518083038186803b15801561326457600080fd5b505afa158015613278573d6000803e3d6000fd5b50505050613284613c18565b604051632d20488160e11b81526001600160a01b038381166004830152600060248301529190911690635a4091029060440160006040518083038186803b1580156132ce57600080fd5b505afa1580156112ec573d6000803e3d6000fd5b6000610bf782613431565b60008061331b60017fc852254d5b703a16bb13b3e233a335d6459c5da5db0ca732d7a684ee054078476157e7565b6001600160a01b039485166000908152602091825260408082209590961681529390525050205490565b6000613364848361335587613431565b61335f91906157e7565b6141db565b61337c838361337286613431565b61335f91906157cf565b826001600160a01b0316846001600160a01b03167fddf252ad1be2c89b69c2b068fc378daa952ba7f163c4a11628f55a4df523b3ef846040516133c191815260200190565b60405180910390a35060019392505050565b6000610ddf612a2d60017f42b27da24a254372d1e7ea692a34d85d9237abb39a65153affece1e2f1e609006157e7565b61146e612f6160017f094efef62d2ce60c14ffacd35a1b50546d3a9d503aff1df040176fffd6c92a376157e7565b60008061345f60017f0fb4a5ac9287f4f508aa7253ee2d57c6a228b1b30e210d73fffd59389d3a88386157e7565b6001600160a01b0390931660009081526020939093525050604090205490565b60008061348a61412e565b90508061349a5750600092915050565b806134a3612f66565b6134ad90856158a7565b6124f29190615797565b6000610ddf612a2d60017faa490d1834c76465b09f09618af9f91fbbd04c30f1f453b24b1e8f907c9e1fa36157e7565b60008061351560017fb005a38730de558570646e2e51c331893c451361d6a7ba50d9c54b48e05ddd276157e7565b6040519091508190819061352a9086906158dc565b9081526040519081900360200190205460ff1661354c57506000199392505050565b604051819061355c9086906158dc565b90815260200160405180910390206001015492505050919050565b6000806135a560017f794c962401f2e1bb68ba8627fb26fd4eea0439023c691c35b68bb144bfe101136157e7565b905060006135b284614227565b825490915082908190839081106135cb576135cb6157b9565b90600052602060002090600802019350505050919050565b6000610bf7826142b5565b6000806135fa846142b5565b9050600061362960017f794c962401f2e1bb68ba8627fb26fd4eea0439023c691c35b68bb144bfe101136157e7565b9050808261370c5780546001808201835560008381526020908190208851600890940201805460ff191693151593909317835587810151805189949361367493908501920190615102565b5060408201516002820180546001600160a01b039283166001600160a01b03199182161790915560608401516003840180549190931691161790556080820151600482015560a0820151600582015560c0820151600682015560e090910151600790910155845181546136f49188916136ef906001906157e7565b614313565b8054613702906001906157e7565b9350505050610bf7565b600061371787614227565b90508582600001828154811061372f5761372f6157b9565b6000918252602091829020835160089290920201805460ff1916911515919091178155828201518051919261376c92600185019290910190615102565b5060408201516002820180546001600160a01b039283166001600160a01b03199182161790915560608401516003840180549190931691161790556080820151600482015560a0820151600582015560c0820151600682015560e0909101516007909101558551841515901515146137ed576137ed87876000015183614313565b9350610bf792505050565b61146e612f6160017f867d8f1a5e39d11d5bebde854d5359a509530ad32450f581da63c06ec8d1a7806157e7565b6000610ddf612a2d60017f82055909238c0f5e63d6f174068ebb8f51bcec9bd37de63bb68f6551feec0cfd6157e7565b61146e612f6160017f82055909238c0f5e63d6f174068ebb8f51bcec9bd37de63bb68f6551feec0cfd6157e7565b61146e81614397565b61146e612f6160017faa490d1834c76465b09f09618af9f91fbbd04c30f1f453b24b1e8f907c9e1fa36157e7565b61146e612f6160017f8b296ea79529153bb5bae302cb8c44db7ed739099e80c9f19feb68f6a43578a86157e7565b6138f2826143c5565b6138fb816143f3565b5050565b60008061390a61412e565b90508061391a5750600092915050565b613922612f66565b6134ad82856158a7565b61146e612f6160017fc8cbea9407c380ae944f052b5a442330057683c5abdbd453493f9750806afecb6157e7565b6000610ddf612a2d60017fc8cbea9407c380ae944f052b5a442330057683c5abdbd453493f9750806afecb6157e7565b6000610ddf612a2d60017f6929b6137e885d965ed089510659a629a29a4a54f85c28286fa5e0d7dcf27a376157e7565b61146e612f6160017f42b27da24a254372d1e7ea692a34d85d9237abb39a65153affece1e2f1e609006157e7565b61146e612f6160017f6929b6137e885d965ed089510659a629a29a4a54f85c28286fa5e0d7dcf27a376157e7565b61146e612f6160017fd7f2d45e512a86049f7a113657b39731b6b558609584243063a52cd31a8eb5296157e7565b6000613a4e614421565b90506000613a5c82846158a7565b620186a0613a68612f66565b613a7291906158a7565b613a7c91906157e7565b82613a85612fdc565b613a8f90866158a7565b613a9991906158a7565b613aa39190615797565b90506000620186a0613ab3614451565b613abd90846158a7565b613ac79190615797565b90506000613ad482614481565b9050611e62613ae16134b7565b613aeb83866157e7565b6145f4565b606081613afe81601f6157cf565b1015613b4c5760405162461bcd60e51b815260206004820152600e60248201527f736c6963655f6f766572666c6f77000000000000000000000000000000000000604482015260640161109f565b613b5682846157cf565b84511015613ba65760405162461bcd60e51b815260206004820152601160248201527f736c6963655f6f75744f66426f756e6473000000000000000000000000000000604482015260640161109f565b606082158015613bc55760405191506000825260208201604052613c0f565b6040519150601f8416801560200281840101858101878315602002848b0101015b81831015613bfe578051835260209283019201613be6565b5050858452601f01601f1916604052505b50949350505050565b6000610ddf612a2d60017f867d8f1a5e39d11d5bebde854d5359a509530ad32450f581da63c06ec8d1a7806157e7565b61146e81613a44565b6000613c5b612f66565b9050600082613c68612f66565b613c7291906157e7565b905080613c8857613c8384836145f4565b6112ef565b600081613c93612fdc565b613c9d90866158a7565b613ca79190615797565b9050611e6285826145f4565b6060806000613cc0614662565b9050805160001415613d2e576040805160008082526020820190925290613cf7565b6060815260200190600190039081613ce25790505b506040805160008082526020820190925290613d23565b6060815260200190600190039081613d0e5790505b509250925050915091565b600060015b8251811015613de257828281518110613d4e57613d4e6157b9565b602002602001015160e00151838381518110613d6c57613d6c6157b9565b602002602001015160a00151613d8291906157e7565b838281518110613d9457613d946157b9565b602002602001015160e00151848381518110613db257613db26157b9565b602002602001015160a00151613dc891906157e7565b1015613dd2578091505b613ddb81615814565b9050613d33565b506000828281518110613df757613df76157b9565b602002602001015160a00151613e47848481518110613e1857613e186157b9565b602002602001015160c00151858581518110613e3657613e366157b9565b6020026020010151608001516129d3565b613e5191906157e7565b905080613ebc576040805160008082526020820190925290613e83565b6060815260200190600190039081613e6e5790505b506040805160008082526020820190925290613eaf565b6060815260200190600190039081613e9a5790505b5094509450505050915091565b6000613ee4848481518110613ed357613ed36157b9565b602002602001015160200151613577565b9050868210613f5a57613f33848481518110613f0257613f026157b9565b60200260200101516101000151858581518110613f2157613f216157b9565b602002602001015160a0015189614a90565b809650819750505086816005016000828254613f4f91906157cf565b90915550613ff69050565b613fa0848481518110613f6f57613f6f6157b9565b60200260200101516101000151858581518110613f8e57613f8e6157b9565b602002602001015160a0015184614a90565b809650819750505081816005016000828254613fbc91906157cf565b909155506000905080613fd7613fd2858b6157e7565b613cb3565b91509150613fe58883614c99565b9750613ff18782614c99565b965050505b50505050915091565b6060602082511015801561401557506040825111155b614021576140216158c6565b81516040141561402f575090565b6040805160208082528183019092526000916020820181803683370190505090506000602082015282516020141561406b576124f2838261415e565b6124f28361408383600087516040612bb091906157e7565b61415e565b600081815b60088110156140b657600892831b60ff831617929190911c906140af81615814565b905061408d565b5080156140c5576140c56158c6565b5060c01b919050565b6000610ddf612a2d60017f35efb61d8784060218d9d6aa40eae55904de43779c1afc79c74dfefcfdf912606157e7565b6000610ddf612a2d60017fb5b37715a3e346e996104f0086703f19825def429233930fd9399c38e05fb1136157e7565b6000610ddf612a2d60017f6b842b424335d94ccad97e54548dfa02673c1268aba38d3c3c32d28c8988b70b6157e7565b6060806040519050835180825260208201818101602087015b8183101561418f578051835260209283019201614177565b50855184518101855292509050808201602086015b818310156141bc5780518352602092830192016141a4565b508651929092011591909101601f01601f191660405250905092915050565b600061420860017f0fb4a5ac9287f4f508aa7253ee2d57c6a228b1b30e210d73fffd59389d3a88386157e7565b6001600160a01b03909316600090815260209390935250604090912055565b60008061425560017fb005a38730de558570646e2e51c331893c451361d6a7ba50d9c54b48e05ddd276157e7565b6040519091508190819061426a9086906158dc565b9081526040519081900360200190205460ff1661354c57836040517f34eddfcf00000000000000000000000000000000000000000000000000000000815260040161109f9190615299565b6000806142e360017fb005a38730de558570646e2e51c331893c451361d6a7ba50d9c54b48e05ddd276157e7565b604051909150819081906142f89086906158dc565b9081526040519081900360200190205460ff16949350505050565b600061434060017fb005a38730de558570646e2e51c331893c451361d6a7ba50d9c54b48e05ddd276157e7565b6040805180820182528515158152602081018590529051919250829182906143699088906158dc565b908152604051602091819003820190208251815460ff19169015151781559101516001909101555050505050565b61146e612f6160017fb5b37715a3e346e996104f0086703f19825def429233930fd9399c38e05fb1136157e7565b61146e612f6160017f35efb61d8784060218d9d6aa40eae55904de43779c1afc79c74dfefcfdf912606157e7565b61146e612f6160017fb649e50315f962b32d487e696a81b4828631b11f8424daaaa37e9e97766a2c426157e7565b6000610ddf612a2d60017f094efef62d2ce60c14ffacd35a1b50546d3a9d503aff1df040176fffd6c92a376157e7565b6000610ddf612a2d60017f8b296ea79529153bb5bae302cb8c44db7ed739099e80c9f19feb68f6a43578a86157e7565b60008061448c614db3565b90506000815167ffffffffffffffff8111156144aa576144aa6157fe565b6040519080825280602002602001820160405280156144d3578160200160208202803683370190505b5090506000805b83518110156145685760008482815181106144f7576144f76157b9565b602002602001015160e00151858381518110614515576145156157b9565b602002602001015160a0015161452b91906157e7565b905061453781846157cf565b92508084838151811061454c5761454c6157b9565b60209081029190910101525061456181615814565b90506144da565b5080156145e657600061457b8287615797565b905060005b83518110156145df576145cf85828151811061459e5761459e6157b9565b602002602001015160600151838684815181106145bd576145bd6157b9565b6020026020010151613aeb91906158a7565b6145d881615814565b9050614580565b50506145eb565b600094505b50929392505050565b61460f8161460061412e565b61460a91906157cf565b615086565b61461d828261337285613431565b6040518181526001600160a01b038316906000907fddf252ad1be2c89b69c2b068fc378daa952ba7f163c4a11628f55a4df523b3ef9060200160405180910390a35050565b6060600061469160017f794c962401f2e1bb68ba8627fb26fd4eea0439023c691c35b68bb144bfe101136157e7565b9050806000805b82548110156147e7576147c68360000182815481106146b9576146b96157b9565b6000918252602091829020604080516101008101909152600890920201805460ff161515825260018101805492939192918401916146f69061574c565b80601f01602080910402602001604051908101604052809291908181526020018280546147229061574c565b801561476f5780601f106147445761010080835404028352916020019161476f565b820191906000526020600020905b81548152906001019060200180831161475257829003601f168201915b505050918352505060028201546001600160a01b03908116602083015260038301541660408201526004820154606082015260058201546080820152600682015460a082015260079091015460c0909101526150b4565b156147d7576147d482615814565b91505b6147e081615814565b9050614698565b5060008167ffffffffffffffff811115614803576148036157fe565b60405190808252806020026020018201604052801561489757816020015b6148846040518061012001604052806000151581526020016060815260200160006001600160a01b0316815260200160006001600160a01b0316815260200160008152602001600081526020016000815260200160008152602001600081525090565b8152602001906001900390816148215790505b5090506000805b8454811015614a855760008560000182815481106148be576148be6157b9565b6000918252602091829020604080516101008101909152600890920201805460ff161515825260018101805492939192918401916148fb9061574c565b80601f01602080910402602001604051908101604052809291908181526020018280546149279061574c565b80156149745780601f1061494957610100808354040283529160200191614974565b820191906000526020600020905b81548152906001019060200180831161495757829003601f168201915b505050918352505060028201546001600160a01b03908116602083015260038301541660408201526004820154606082015260058201546080820152600682015460a082015260079091015460c09091015290506149d1816150b4565b15614a74576040518061012001604052808260000151151581526020018260200151815260200182604001516001600160a01b0316815260200182606001516001600160a01b03168152602001826080015181526020018260a0015181526020018260c0015181526020018260e00151815260200183815250848481518110614a5c57614a5c6157b9565b602002602001018190525082614a7190615814565b92505b50614a7e81615814565b905061489e565b509095945050505050565b6060808267ffffffffffffffff811115614aac57614aac6157fe565b604051908082528060200260200182016040528015614adf57816020015b6060815260200190600190039081614aca5790505b5091508267ffffffffffffffff811115614afb57614afb6157fe565b604051908082528060200260200182016040528015614b2e57816020015b6060815260200190600190039081614b195790505b5090506000614b5e60017f6018b2d18c7378174a403e179ce41a2df430338a150b2bcec4b7a082912855746157e7565b905080855b614b6d86886157cf565b811015614c8e5760008881526020838152604080832084845290915281208054614b969061574c565b80601f0160208091040260200160405190810160405280929190818152602001828054614bc29061574c565b8015614c0f5780601f10614be457610100808354040283529160200191614c0f565b820191906000526020600020905b815481529060010190602001808311614bf257829003601f168201915b50505050509050614c238160006030613af0565b86614c2e8a856157e7565b81518110614c3e57614c3e6157b9565b6020026020010181905250614c568160306060613af0565b85614c618a856157e7565b81518110614c7157614c716157b9565b60200260200101819052505080614c8790615814565b9050614b63565b505050935093915050565b606081518351614ca991906157cf565b67ffffffffffffffff811115614cc157614cc16157fe565b604051908082528060200260200182016040528015614cf457816020015b6060815260200190600190039081614cdf5790505b50905060005b8351811015614d4b57838181518110614d1557614d156157b9565b6020026020010151828281518110614d2f57614d2f6157b9565b602002602001018190525080614d4490615814565b9050614cfa565b5060005b8251811015614dac57828181518110614d6a57614d6a6157b9565b602002602001015182855183614d8091906157cf565b81518110614d9057614d906157b9565b602002602001018190525080614da590615814565b9050614d4f565b5092915050565b60606000614de260017f794c962401f2e1bb68ba8627fb26fd4eea0439023c691c35b68bb144bfe101136157e7565b9050806000805b8254811015614e4157826000018181548110614e0757614e076157b9565b600091825260209091206008909102015460ff16151560011415614e3157614e2e82615814565b91505b614e3a81615814565b9050614de9565b5060008167ffffffffffffffff811115614e5d57614e5d6157fe565b604051908082528060200260200182016040528015614eea57816020015b614ed76040518061010001604052806000151581526020016060815260200160006001600160a01b0316815260200160006001600160a01b03168152602001600081526020016000815260200160008152602001600081525090565b815260200190600190039081614e7b5790505b5090506000805b8454811015614a8557846000018181548110614f0f57614f0f6157b9565b600091825260209091206008909102015460ff1615156001141561507657846000018181548110614f4257614f426157b9565b6000918252602091829020604080516101008101909152600890920201805460ff16151582526001810180549293919291840191614f7f9061574c565b80601f0160208091040260200160405190810160405280929190818152602001828054614fab9061574c565b8015614ff85780601f10614fcd57610100808354040283529160200191614ff8565b820191906000526020600020905b815481529060010190602001808311614fdb57829003601f168201915b505050918352505060028201546001600160a01b03908116602083015260038301541660408201526004820154606082015260058201546080820152600682015460a082015260079091015460c090910152835184908490811061505e5761505e6157b9565b60200260200101819052508161507390615814565b91505b61507f81615814565b9050614ef1565b61146e612f6160017f6b842b424335d94ccad97e54548dfa02673c1268aba38d3c3c32d28c8988b70b6157e7565b805160009080156150db57508160e001518260a001516150d491906157e7565b8260c00151115b8015610bf757508160e001518260a001516150f691906157e7565b82608001511192915050565b82805461510e9061574c565b90600052602060002090601f0160209004810192826151305760008555615176565b82601f1061514957805160ff1916838001178555615176565b82800160010185558215615176579182015b8281111561517657825182559160200191906001019061515b565b50615182929150615186565b5090565b5b808211156151825760008155600101615187565b6000602082840312156151ad57600080fd5b5035919050565b60005b838110156151cf5781810151838201526020016151b7565b838111156112ef5750506000910152565b600081518084526151f88160208601602086016151b4565b601f01601f19169290920160200192915050565b60208152815115156020820152600060208301516101008060408501526152376101208501836151e0565b91506001600160a01b036040860151166060850152606085015161526660808601826001600160a01b03169052565b50608085015160a085015260a085015160c085015260c085015160e085015260e085015181850152508091505092915050565b6020815260006124f260208301846151e0565b80356001600160a01b03811681146152c357600080fd5b919050565b600080604083850312156152db57600080fd5b6152e4836152ac565b946020939093013593505050565b60008083601f84011261530457600080fd5b50813567ffffffffffffffff81111561531c57600080fd5b6020830191508360208260051b850101111561533757600080fd5b9250929050565b60008060006040848603121561535357600080fd5b83359250602084013567ffffffffffffffff81111561537157600080fd5b61537d868287016152f2565b9497909650939450505050565b60008060006060848603121561539f57600080fd5b6153a8846152ac565b92506153b6602085016152ac565b9150604084013590509250925092565b600080604083850312156153d957600080fd5b823591506153e9602084016152ac565b90509250929050565b60006020828403121561540457600080fd5b6124f2826152ac565b60008083601f84011261541f57600080fd5b50813567ffffffffffffffff81111561543757600080fd5b60208301915083602082850101111561533757600080fd5b6000806020838503121561546257600080fd5b823567ffffffffffffffff81111561547957600080fd5b6154858582860161540d565b90969095509350505050565b600080600080606085870312156154a757600080fd5b843567ffffffffffffffff8111156154be57600080fd5b6154ca8782880161540d565b90955093506154dd9050602086016152ac565b91506154eb604086016152ac565b905092959194509250565b6000806040838503121561550957600080fd5b823591506020830135801515811461552057600080fd5b809150509250929050565b6000806040838503121561553e57600080fd5b50508035926020909101359150565b60608152600061556060608301866151e0565b828103602084015261557281866151e0565b9150508215156040830152949350505050565b600080600080600080600080610100898b0312156155a257600080fd5b6155ab896152ac565b9750602089013596506155c060408a016152ac565b95506155ce60608a016152ac565b94506155dc60808a016152ac565b93506155ea60a08a016152ac565b925060c0890135915060e089013590509295985092959890939650565b60008060006060848603121561561c57600080fd5b505081359360208301359350604090920135919050565b6000806000806040858703121561564957600080fd5b843567ffffffffffffffff8082111561566157600080fd5b61566d888389016152f2565b9096509450602087013591508082111561568657600080fd5b50615693878288016152f2565b95989497509550505050565b600080600080600080608087890312156156b857600080fd5b8635955060208701359450604087013567ffffffffffffffff808211156156de57600080fd5b6156ea8a838b0161540d565b9096509450606089013591508082111561570357600080fd5b5061571089828a0161540d565b979a9699509497509295939492505050565b6000806040838503121561573557600080fd5b61573e836152ac565b91506153e9602084016152ac565b600181811c9082168061576057607f821691505b602082108114156129e257634e487b7160e01b600052602260045260246000fd5b634e487b7160e01b600052601160045260246000fd5b6000826157b457634e487b7160e01b600052601260045260246000fd5b500490565b634e487b7160e01b600052603260045260246000fd5b600082198211156157e2576157e2615781565b500190565b6000828210156157f9576157f9615781565b500390565b634e487b7160e01b600052604160045260246000fd5b600060001982141561582857615828615781565b5060010190565b81835281816020850137506000828201602090810191909152601f909101601f19169091010190565b60208152600061586c60208301848661582f565b949350505050565b60608152600061588760608301866151e0565b6001600160a01b0394851660208401529290931660409091015292915050565b60008160001904831182151516156158c1576158c1615781565b500290565b634e487b7160e01b600052600160045260246000fd5b600082516158ee8184602087016151b4565b9190910192915050565b60006020828403121561590a57600080fd5b5051919050565b60808152600061592460808301876151e0565b828103602084015261593681876151e0565b9050828103604084015261594a81866151e0565b9150508260608301529594505050505056fea2646970667358221220f228c4c26f781637b9d435f39bb1bb00d34efa03bbc3cf73907babbdc6dc256964736f6c634300080a0033",
  "devdoc": {
    "author": "Kiln",
    "kind": "dev",
    "methods": {
      "addOperator(string,address,address)": {
        "details": "Only callable by the administrator",
        "params": {
          "_feeRecipient": "The address where the rewards are sent",
          "_name": "The name identifying the operator",
          "_operator": "The address representing the operator, receiving the rewards"
        }
      },
      "addValidators(uint256,uint256,bytes,bytes)": {
        "details": "Only callable by the administrator or the operator address",
        "params": {
          "_index": "The operator index",
          "_keyCount": "The amount of keys provided",
          "_publicKeys": "Public keys of the validator, concatenated",
          "_signatures": "Signatures of the validator keys, concatenated"
        }
      },
      "approve(address,uint256)": {
        "details": "An approved account can use transferFrom to transfer funds on behalf of the token owner",
        "params": {
          "_spender": "Address that is allowed to spend the tokens",
          "_value": "The allowed amount, will override previous value"
        }
      },
      "balanceOf(address)": {
        "params": {
          "_owner": "Address to be checked"
        }
      },
      "balanceOfUnderlying(address)": {
        "params": {
          "_owner": "Address to be checked"
        }
      },
      "depositAndTransfer(address)": {
        "params": {
          "_recipient": "Address receiving the minted lsETH"
        }
      },
      "depositToConsensusLayer(uint256)": {
        "params": {
          "_maxCount": "The maximum amount of validator keys to fund"
        }
      },
      "donate()": {
        "details": "This method should be mainly used by the execution layer fee recipient to compound any collected fee"
      },
      "getOperator(uint256)": {
        "params": {
          "_index": "The index of the operator"
        }
      },
      "getOperatorByName(string)": {
        "params": {
          "_name": "The name identifying the operator"
        }
      },
      "getOperatorDetails(string)": {
        "params": {
          "_name": "Name of the operator"
        }
      },
      "getValidator(uint256,uint256)": {
        "params": {
          "_operatorIndex": "The index of the operator",
          "_validatorIndex": "The index of the validator"
        }
      },
      "initRiverV1(address,bytes32,address,address,address,address,uint256,uint256)": {
        "params": {
          "_allowlistAddress": "Address of the allowlist contract",
          "_depositContractAddress": "Address to make Consensus Layer deposits",
          "_globalFee": "Amount retained when the eth balance increases, splitted between the treasury and the operators",
          "_operatorRewardsShare": "Share of the global fee used to reward node operators",
          "_systemAdministratorAddress": "Administrator address",
          "_treasuryAddress": "Address receiving the fee minus the operator share",
          "_withdrawalCredentials": "Credentials to use for every validator deposit"
        }
      },
      "removeValidators(uint256,uint256[])": {
        "details": "Only callable by the administrator or the operator addressThe indexes must be provided sorted in decreasing order, otherwise the method will revertThe operator limit will be set to the lowest deleted key index",
        "params": {
          "_index": "The operator index",
          "_indexes": "The indexes of the keys to remove"
        }
      },
      "setAdministrator(address)": {
        "params": {
          "_newAdmin": "New address for the admin"
        }
      },
      "setAllowlist(address)": {
        "params": {
          "_newAllowlist": "New address for the allowlist"
        }
      },
      "setBeaconData(uint256,uint256,bytes32)": {
        "details": "Can only be called by the oracle address",
        "params": {
          "_roundId": "An identifier for this update",
          "_validatorBalanceSum": "The validator balance sum of the active validators on the consensus layer",
          "_validatorCount": "The number of active validators on the consensus layer"
        }
      },
      "setGlobalFee(uint256)": {
        "params": {
          "newFee": "New fee value"
        }
      },
      "setOperatorAddress(uint256,address)": {
        "details": "Only callable by the administrator or the previous operator address",
        "params": {
          "_index": "The operator index",
          "_newOperatorAddress": "The new address of the operator"
        }
      },
      "setOperatorFeeRecipientAddress(uint256,address)": {
        "details": "Only callable by the administrator or the previous operator fee recipient address",
        "params": {
          "_index": "The operator index",
          "_newOperatorFeeRecipientAddress": "The new fee recipient address of the operator"
        }
      },
      "setOperatorLimits(uint256[],uint256[])": {
        "details": "Only callable by the administratorThe limit cannot exceed the total key count of the operatorThe _indexes and _newLimits must have the same length.Each limit value is applied to the operator index at the same index in the _indexes array.",
        "params": {
          "_newLimits": "The new staking limit of the operators",
          "_operatorIndexes": "The operator indexes"
        }
      },
      "setOperatorRewardsShare(uint256)": {
        "params": {
          "newOperatorRewardsShare": "New share value"
        }
      },
      "setOperatorStatus(uint256,bool)": {
        "details": "Only callable by the administrator",
        "params": {
          "_index": "The operator index",
          "_newStatus": "The new status of the operator"
        }
      },
      "setOperatorStoppedValidatorCount(uint256,uint256)": {
        "details": "Only callable by the administrator",
        "params": {
          "_index": "The operator index",
          "_newStoppedValidatorCount": "The new stopped validator count of the operator"
        }
      },
      "setOracle(address)": {
        "params": {
          "_oracleAddress": "Address of the oracle"
        }
      },
      "setTreasury(address)": {
        "params": {
          "_newTreasury": "New address for the treasury"
        }
      },
      "transfer(address,uint256)": {
        "params": {
          "_to": "Address receiving the tokens",
          "_value": "Amount to be sent"
        }
      },
      "transferFrom(address,address,uint256)": {
        "details": "If the specified _from argument is the message sender, behaves like a regular transferIf the specified _from argument is not the message sender, checks that the message sender has been given enough allowance",
        "params": {
          "_from": "Address sending the tokens",
          "_to": "Address receiving the tokens",
          "_value": "Amount to be sent"
        }
      }
    },
    "title": "River (v1)",
    "version": 1
  },
  "userdoc": {
    "kind": "user",
    "methods": {
      "addOperator(string,address,address)": {
        "notice": "Adds an operator to the registry"
      },
      "addValidators(uint256,uint256,bytes,bytes)": {
        "notice": "Adds new keys for an operator"
      },
      "allowance(address,address)": {
        "notice": "Retrieve the allowance value for a spender_owner Address that issued the allowance_spender Address that received the allowance"
      },
      "approve(address,uint256)": {
        "notice": "Approves an account for future spendings"
      },
      "balanceOf(address)": {
        "notice": "Retrieve the balance of an account"
      },
      "balanceOfUnderlying(address)": {
        "notice": "Retrieve the underlying asset balance of an account"
      },
      "decimals()": {
        "notice": "Retrieve the decimal count"
      },
      "deposit()": {
        "notice": "Explicit deposit method to mint on msg.sender"
      },
      "depositAndTransfer(address)": {
        "notice": "Explicit deposit method to mint on msg.sender and transfer to _recipient"
      },
      "depositToConsensusLayer(uint256)": {
        "notice": "Deposits current balance to the Consensus Layer by batches of 32 ETH"
      },
      "donate()": {
        "notice": "Allows anyone to add ethers to river without minting new shares"
      },
      "getAdministrator()": {
        "notice": "Retrieve system administrator address"
      },
      "getAllowlist()": {
        "notice": "Retrieve the allowlist address"
      },
      "getBeaconValidatorBalanceSum()": {
        "notice": "Get Beacon validator balance sum"
      },
      "getBeaconValidatorCount()": {
        "notice": "Get Beacon validator count (the amount of validator reported by the oracles)"
      },
      "getDepositedValidatorCount()": {
        "notice": "Get the deposited validator count (the count of deposits made by the contract)"
      },
      "getOperator(uint256)": {
        "notice": "Get operator details"
      },
      "getOperatorByName(string)": {
        "notice": "Get operator details by name"
      },
      "getOperatorCount()": {
        "notice": "Get operator count"
      },
      "getOperatorDetails(string)": {
        "notice": "Retrieve the operator details from the operator name"
      },
      "getOracle()": {
        "notice": "Get Oracle address"
      },
      "getPendingEth()": {
        "notice": "Returns the amount of pending ETH"
      },
      "getTreasury()": {
        "notice": "Retrieve the treasury address"
      },
      "getValidator(uint256,uint256)": {
        "notice": "Get the details of a validator"
      },
      "getWithdrawalCredentials()": {
        "notice": "Retrieve the withdrawal credentials"
      },
      "initRiverV1(address,bytes32,address,address,address,address,uint256,uint256)": {
        "notice": "Initializes the River system"
      },
      "name()": {
        "notice": "Retrieve the token name"
      },
      "removeValidators(uint256,uint256[])": {
        "notice": "Remove validator keys"
      },
      "setAdministrator(address)": {
        "notice": "Changes the admin"
      },
      "setAllowlist(address)": {
        "notice": "Changes the allowlist address"
      },
      "setBeaconData(uint256,uint256,bytes32)": {
        "notice": "Sets the validator count and validator balance sum reported by the oracle"
      },
      "setGlobalFee(uint256)": {
        "notice": "Changes the global fee parameter"
      },
      "setOperatorAddress(uint256,address)": {
        "notice": "Changes the operator address of an operator"
      },
      "setOperatorFeeRecipientAddress(uint256,address)": {
        "notice": "Changes the operator fee recipient address"
      },
      "setOperatorLimits(uint256[],uint256[])": {
        "notice": "Changes the operator staking limit"
      },
      "setOperatorRewardsShare(uint256)": {
        "notice": "Changes the operator rewards share."
      },
      "setOperatorStatus(uint256,bool)": {
        "notice": "Changes the operator status"
      },
      "setOperatorStoppedValidatorCount(uint256,uint256)": {
        "notice": "Changes the operator stopped validator cound"
      },
      "setOracle(address)": {
        "notice": "Set Oracle address"
      },
      "setTreasury(address)": {
        "notice": "Changes the treasury address"
      },
      "symbol()": {
        "notice": "Retrieve the token symbol"
      },
      "totalSupply()": {
        "notice": "Retrieve the total token supply"
      },
      "totalUnderlyingSupply()": {
        "notice": "Retrieve the total underlying asset supply"
      },
      "transfer(address,uint256)": {
        "notice": "Performs a transfer from the message sender to the provided account"
      },
      "transferFrom(address,address,uint256)": {
        "notice": "Performs a transfer between two recipients"
      }
    },
    "notice": "This contract merges all the manager contracts and implements all the virtual methods stitching all components together",
    "version": 1
  },
  "storageLayout": {
    "storage": [],
    "types": null
  }
}