{
  "address": "0x90a0219f84b47f7e4406c7C463bBc28a6D5a23fA",
  "abi": [
    {
      "inputs": [
        {
          "internalType": "address",
          "name": "_from",
          "type": "address"
        },
        {
          "internalType": "address",
          "name": "_operator",
          "type": "address"
        },
        {
          "internalType": "uint256",
          "name": "_allowance",
          "type": "uint256"
        },
        {
          "internalType": "uint256",
          "name": "_value",
          "type": "uint256"
        }
      ],
      "name": "AllowanceTooLow",
      "type": "error"
    },
    {
      "inputs": [],
      "name": "BalanceTooLow",
      "type": "error"
    },
    {
      "inputs": [],
      "name": "EmptyDeposit",
      "type": "error"
    },
    {
      "inputs": [
        {
          "internalType": "uint256",
          "name": "index",
          "type": "uint256"
        }
      ],
      "name": "InactiveOperator",
      "type": "error"
    },
    {
      "inputs": [],
      "name": "InconsistentPublicKeys",
      "type": "error"
    },
    {
      "inputs": [],
      "name": "InconsistentSignatures",
      "type": "error"
    },
    {
      "inputs": [],
      "name": "InvalidArgument",
      "type": "error"
    },
    {
      "inputs": [],
      "name": "InvalidCall",
      "type": "error"
    },
    {
      "inputs": [],
      "name": "InvalidFundedKeyDeletionAttempt",
      "type": "error"
    },
    {
      "inputs": [],
      "name": "InvalidIndexOutOfBounds",
      "type": "error"
    },
    {
      "inputs": [
        {
          "internalType": "uint256",
          "name": "version",
          "type": "uint256"
        },
        {
          "internalType": "uint256",
          "name": "expectedVersion",
          "type": "uint256"
        }
      ],
      "name": "InvalidInitialization",
      "type": "error"
    },
    {
      "inputs": [],
      "name": "InvalidKeyCount",
      "type": "error"
    },
    {
      "inputs": [],
      "name": "InvalidPublicKeyCount",
      "type": "error"
    },
    {
      "inputs": [],
      "name": "InvalidPublicKeysLength",
      "type": "error"
    },
    {
      "inputs": [],
      "name": "InvalidSignatureCount",
      "type": "error"
    },
    {
      "inputs": [],
      "name": "InvalidSignatureLength",
      "type": "error"
    },
    {
      "inputs": [],
      "name": "InvalidUnsortedIndexes",
      "type": "error"
    },
    {
      "inputs": [
        {
          "internalType": "uint256",
          "name": "_providedValidatorCount",
          "type": "uint256"
        },
        {
          "internalType": "uint256",
          "name": "_depositedValidatorCount",
          "type": "uint256"
        }
      ],
      "name": "InvalidValidatorCountReport",
      "type": "error"
    },
    {
      "inputs": [],
      "name": "InvalidWithdrawalCredentials",
      "type": "error"
    },
    {
      "inputs": [],
      "name": "NoAvailableValidatorKeys",
      "type": "error"
    },
    {
      "inputs": [],
      "name": "NotEnoughFunds",
      "type": "error"
    },
    {
      "inputs": [],
      "name": "NullTransfer",
      "type": "error"
    },
    {
      "inputs": [
        {
          "internalType": "string",
          "name": "name",
          "type": "string"
        }
      ],
      "name": "OperatorAlreadyExists",
      "type": "error"
    },
    {
      "inputs": [
        {
          "internalType": "string",
          "name": "name",
          "type": "string"
        }
      ],
      "name": "OperatorNotFound",
      "type": "error"
    },
    {
      "inputs": [
        {
          "internalType": "uint256",
          "name": "index",
          "type": "uint256"
        }
      ],
      "name": "OperatorNotFoundAtIndex",
      "type": "error"
    },
    {
      "inputs": [
        {
          "internalType": "address",
          "name": "caller",
          "type": "address"
        }
      ],
      "name": "Unauthorized",
      "type": "error"
    },
    {
      "inputs": [],
      "name": "UnauthorizedOperation",
      "type": "error"
    },
    {
      "anonymous": false,
      "inputs": [
        {
          "indexed": true,
          "internalType": "uint256",
          "name": "index",
          "type": "uint256"
        },
        {
          "indexed": false,
          "internalType": "string",
          "name": "name",
          "type": "string"
        },
        {
          "indexed": false,
          "internalType": "address",
          "name": "operatorAddress",
          "type": "address"
        }
      ],
      "name": "AddedOperator",
      "type": "event"
    },
    {
      "anonymous": false,
      "inputs": [
        {
          "indexed": true,
          "internalType": "uint256",
          "name": "index",
          "type": "uint256"
        },
        {
          "indexed": false,
          "internalType": "uint256",
          "name": "totalKeyCount",
          "type": "uint256"
        }
      ],
      "name": "AddedValidatorKeys",
      "type": "event"
    },
    {
      "anonymous": false,
      "inputs": [
        {
          "indexed": true,
          "internalType": "address",
          "name": "_owner",
          "type": "address"
        },
        {
          "indexed": true,
          "internalType": "address",
          "name": "_spender",
          "type": "address"
        },
        {
          "indexed": false,
          "internalType": "uint256",
          "name": "_value",
          "type": "uint256"
        }
      ],
      "name": "Approval",
      "type": "event"
    },
    {
      "anonymous": false,
      "inputs": [
        {
          "indexed": false,
          "internalType": "uint256",
          "name": "validatorCount",
          "type": "uint256"
        },
        {
          "indexed": false,
          "internalType": "uint256",
          "name": "validatorBalanceSum",
          "type": "uint256"
        },
        {
          "indexed": false,
          "internalType": "bytes32",
          "name": "roundId",
          "type": "bytes32"
        }
      ],
      "name": "BeaconDataUpdate",
      "type": "event"
    },
    {
      "anonymous": false,
      "inputs": [
        {
          "indexed": true,
          "internalType": "address",
          "name": "account",
          "type": "address"
        },
        {
          "indexed": false,
          "internalType": "bool",
          "name": "status",
          "type": "bool"
        }
      ],
      "name": "ChangedAllowlistStatus",
      "type": "event"
    },
    {
      "anonymous": false,
      "inputs": [
        {
          "indexed": true,
          "internalType": "uint256",
          "name": "index",
          "type": "uint256"
        },
        {
          "indexed": false,
          "internalType": "uint256",
          "name": "keyCount",
          "type": "uint256"
        }
      ],
      "name": "RemovedValidatorKeys",
      "type": "event"
    },
    {
      "anonymous": false,
      "inputs": [
        {
          "indexed": true,
          "internalType": "uint256",
          "name": "index",
          "type": "uint256"
        },
        {
          "indexed": false,
          "internalType": "address",
          "name": "newOperatorAddress",
          "type": "address"
        }
      ],
      "name": "SetOperatorAddress",
      "type": "event"
    },
    {
      "anonymous": false,
      "inputs": [
        {
          "indexed": true,
          "internalType": "uint256",
          "name": "index",
          "type": "uint256"
        },
        {
          "indexed": false,
          "internalType": "uint256",
          "name": "newLimit",
          "type": "uint256"
        }
      ],
      "name": "SetOperatorLimit",
      "type": "event"
    },
    {
      "anonymous": false,
      "inputs": [
        {
          "indexed": true,
          "internalType": "uint256",
          "name": "index",
          "type": "uint256"
        },
        {
          "indexed": false,
          "internalType": "bool",
          "name": "active",
          "type": "bool"
        }
      ],
      "name": "SetOperatorStatus",
      "type": "event"
    },
    {
      "anonymous": false,
      "inputs": [
        {
          "indexed": true,
          "internalType": "uint256",
          "name": "index",
          "type": "uint256"
        },
        {
          "indexed": false,
          "internalType": "uint256",
          "name": "newStoppedValidatorCount",
          "type": "uint256"
        }
      ],
      "name": "SetOperatorStoppedValidatorCount",
      "type": "event"
    },
    {
      "anonymous": false,
      "inputs": [
        {
          "indexed": true,
          "internalType": "address",
          "name": "_from",
          "type": "address"
        },
        {
          "indexed": true,
          "internalType": "address",
          "name": "_to",
          "type": "address"
        },
        {
          "indexed": false,
          "internalType": "uint256",
          "name": "_value",
          "type": "uint256"
        }
      ],
      "name": "Transfer",
      "type": "event"
    },
    {
      "anonymous": false,
      "inputs": [
        {
          "indexed": true,
          "internalType": "address",
          "name": "user",
          "type": "address"
        },
        {
          "indexed": true,
          "internalType": "address",
          "name": "referral",
          "type": "address"
        },
        {
          "indexed": false,
          "internalType": "uint256",
          "name": "amount",
          "type": "uint256"
        }
      ],
      "name": "UserDeposit",
      "type": "event"
    },
    {
      "stateMutability": "payable",
      "type": "fallback"
    },
    {
      "inputs": [],
      "name": "BASE",
      "outputs": [
        {
          "internalType": "uint256",
          "name": "",
          "type": "uint256"
        }
      ],
      "stateMutability": "view",
      "type": "function"
    },
    {
      "inputs": [],
      "name": "DEPOSIT_SIZE",
      "outputs": [
        {
          "internalType": "uint256",
          "name": "",
          "type": "uint256"
        }
      ],
      "stateMutability": "view",
      "type": "function"
    },
    {
      "inputs": [],
      "name": "PUBLIC_KEY_LENGTH",
      "outputs": [
        {
          "internalType": "uint256",
          "name": "",
          "type": "uint256"
        }
      ],
      "stateMutability": "view",
      "type": "function"
    },
    {
      "inputs": [],
      "name": "SIGNATURE_LENGTH",
      "outputs": [
        {
          "internalType": "uint256",
          "name": "",
          "type": "uint256"
        }
      ],
      "stateMutability": "view",
      "type": "function"
    },
    {
      "inputs": [
        {
          "internalType": "string",
          "name": "_name",
          "type": "string"
        },
        {
          "internalType": "address",
          "name": "_operator",
          "type": "address"
        }
      ],
      "name": "addOperator",
      "outputs": [],
      "stateMutability": "nonpayable",
      "type": "function"
    },
    {
      "inputs": [
        {
          "internalType": "uint256",
          "name": "_index",
          "type": "uint256"
        },
        {
          "internalType": "uint256",
          "name": "_keyCount",
          "type": "uint256"
        },
        {
          "internalType": "bytes",
          "name": "_publicKeys",
          "type": "bytes"
        },
        {
          "internalType": "bytes",
          "name": "_signatures",
          "type": "bytes"
        }
      ],
      "name": "addValidators",
      "outputs": [],
      "stateMutability": "nonpayable",
      "type": "function"
    },
    {
      "inputs": [
        {
          "internalType": "address",
          "name": "_account",
          "type": "address"
        },
        {
          "internalType": "bool",
          "name": "_status",
          "type": "bool"
        }
      ],
      "name": "allow",
      "outputs": [],
      "stateMutability": "nonpayable",
      "type": "function"
    },
    {
      "inputs": [
        {
          "internalType": "address",
          "name": "_owner",
          "type": "address"
        },
        {
          "internalType": "address",
          "name": "_spender",
          "type": "address"
        }
      ],
      "name": "allowance",
      "outputs": [
        {
          "internalType": "uint256",
          "name": "remaining",
          "type": "uint256"
        }
      ],
      "stateMutability": "view",
      "type": "function"
    },
    {
      "inputs": [
        {
          "internalType": "address",
          "name": "_spender",
          "type": "address"
        },
        {
          "internalType": "uint256",
          "name": "_value",
          "type": "uint256"
        }
      ],
      "name": "approve",
      "outputs": [
        {
          "internalType": "bool",
          "name": "success",
          "type": "bool"
        }
      ],
      "stateMutability": "nonpayable",
      "type": "function"
    },
    {
      "inputs": [
        {
          "internalType": "address",
          "name": "_owner",
          "type": "address"
        }
      ],
      "name": "balanceOf",
      "outputs": [
        {
          "internalType": "uint256",
          "name": "balance",
          "type": "uint256"
        }
      ],
      "stateMutability": "view",
      "type": "function"
    },
    {
      "inputs": [],
      "name": "decimals",
      "outputs": [
        {
          "internalType": "uint8",
          "name": "",
          "type": "uint8"
        }
      ],
      "stateMutability": "pure",
      "type": "function"
    },
    {
      "inputs": [
        {
          "internalType": "address",
          "name": "_referral",
          "type": "address"
        }
      ],
      "name": "deposit",
      "outputs": [],
      "stateMutability": "payable",
      "type": "function"
    },
    {
      "inputs": [
        {
          "internalType": "uint256",
          "name": "_maxCount",
          "type": "uint256"
        }
      ],
      "name": "depositToConsensusLayer",
      "outputs": [],
      "stateMutability": "nonpayable",
      "type": "function"
    },
    {
      "inputs": [],
      "name": "getAdministrator",
      "outputs": [
        {
          "internalType": "address",
          "name": "",
          "type": "address"
        }
      ],
      "stateMutability": "view",
      "type": "function"
    },
    {
      "inputs": [],
      "name": "getAllower",
      "outputs": [
        {
          "internalType": "address",
          "name": "",
          "type": "address"
        }
      ],
      "stateMutability": "view",
      "type": "function"
    },
    {
      "inputs": [],
      "name": "getBeaconValidatorBalanceSum",
      "outputs": [
        {
          "internalType": "uint256",
          "name": "beaconValidatorBalanceSum",
          "type": "uint256"
        }
      ],
      "stateMutability": "view",
      "type": "function"
    },
    {
      "inputs": [],
      "name": "getBeaconValidatorCount",
      "outputs": [
        {
          "internalType": "uint256",
          "name": "beaconValidatorCount",
          "type": "uint256"
        }
      ],
      "stateMutability": "view",
      "type": "function"
    },
    {
      "inputs": [],
      "name": "getDepositedValidatorCount",
      "outputs": [
        {
          "internalType": "uint256",
          "name": "depositedValidatorCount",
          "type": "uint256"
        }
      ],
      "stateMutability": "view",
      "type": "function"
    },
    {
      "inputs": [
        {
          "internalType": "uint256",
          "name": "_index",
          "type": "uint256"
        }
      ],
      "name": "getOperator",
      "outputs": [
        {
          "components": [
            {
              "internalType": "bool",
              "name": "active",
              "type": "bool"
            },
            {
              "internalType": "string",
              "name": "name",
              "type": "string"
            },
            {
              "internalType": "address",
              "name": "operator",
              "type": "address"
            },
            {
              "internalType": "uint256",
              "name": "limit",
              "type": "uint256"
            },
            {
              "internalType": "uint256",
              "name": "funded",
              "type": "uint256"
            },
            {
              "internalType": "uint256",
              "name": "keys",
              "type": "uint256"
            },
            {
              "internalType": "uint256",
              "name": "stopped",
              "type": "uint256"
            }
          ],
          "internalType": "struct Operators.Operator",
          "name": "",
          "type": "tuple"
        }
      ],
      "stateMutability": "view",
      "type": "function"
    },
    {
      "inputs": [
        {
          "internalType": "string",
          "name": "_name",
          "type": "string"
        }
      ],
      "name": "getOperatorByName",
      "outputs": [
        {
          "components": [
            {
              "internalType": "bool",
              "name": "active",
              "type": "bool"
            },
            {
              "internalType": "string",
              "name": "name",
              "type": "string"
            },
            {
              "internalType": "address",
              "name": "operator",
              "type": "address"
            },
            {
              "internalType": "uint256",
              "name": "limit",
              "type": "uint256"
            },
            {
              "internalType": "uint256",
              "name": "funded",
              "type": "uint256"
            },
            {
              "internalType": "uint256",
              "name": "keys",
              "type": "uint256"
            },
            {
              "internalType": "uint256",
              "name": "stopped",
              "type": "uint256"
            }
          ],
          "internalType": "struct Operators.Operator",
          "name": "",
          "type": "tuple"
        }
      ],
      "stateMutability": "view",
      "type": "function"
    },
    {
      "inputs": [],
      "name": "getOperatorCount",
      "outputs": [
        {
          "internalType": "uint256",
          "name": "",
          "type": "uint256"
        }
      ],
      "stateMutability": "view",
      "type": "function"
    },
    {
      "inputs": [
        {
          "internalType": "string",
          "name": "_name",
          "type": "string"
        }
      ],
      "name": "getOperatorDetails",
      "outputs": [
        {
          "internalType": "int256",
          "name": "_index",
          "type": "int256"
        },
        {
          "internalType": "address",
          "name": "_operatorAddress",
          "type": "address"
        }
      ],
      "stateMutability": "view",
      "type": "function"
    },
    {
      "inputs": [],
      "name": "getOracle",
      "outputs": [
        {
          "internalType": "address",
          "name": "oracle",
          "type": "address"
        }
      ],
      "stateMutability": "view",
      "type": "function"
    },
    {
      "inputs": [
        {
          "internalType": "uint256",
          "name": "_operatorIndex",
          "type": "uint256"
        },
        {
          "internalType": "uint256",
          "name": "_validatorIndex",
          "type": "uint256"
        }
      ],
      "name": "getValidator",
      "outputs": [
        {
          "internalType": "bytes",
          "name": "publicKey",
          "type": "bytes"
        },
        {
          "internalType": "bytes",
          "name": "signature",
          "type": "bytes"
        },
        {
          "internalType": "bool",
          "name": "funded",
          "type": "bool"
        }
      ],
      "stateMutability": "view",
      "type": "function"
    },
    {
      "inputs": [
        {
          "internalType": "address",
          "name": "_depositContractAddress",
          "type": "address"
        },
        {
          "internalType": "bytes32",
          "name": "_withdrawalCredentials",
          "type": "bytes32"
        },
        {
          "internalType": "address",
          "name": "_systemAdministratorAddress",
          "type": "address"
        },
        {
          "internalType": "address",
          "name": "_allowerAddress",
          "type": "address"
        },
        {
          "internalType": "address",
          "name": "_treasuryAddress",
          "type": "address"
        },
        {
          "internalType": "uint256",
          "name": "_globalFee",
          "type": "uint256"
        },
        {
          "internalType": "uint256",
          "name": "_operatorRewardsShare",
          "type": "uint256"
        }
      ],
      "name": "initRiverV1",
      "outputs": [],
      "stateMutability": "nonpayable",
      "type": "function"
    },
    {
      "inputs": [
        {
          "internalType": "address",
          "name": "_account",
          "type": "address"
        }
      ],
      "name": "isAllowed",
      "outputs": [
        {
          "internalType": "bool",
          "name": "",
          "type": "bool"
        }
      ],
      "stateMutability": "view",
      "type": "function"
    },
    {
      "inputs": [],
      "name": "name",
      "outputs": [
        {
          "internalType": "string",
          "name": "",
          "type": "string"
        }
      ],
      "stateMutability": "pure",
      "type": "function"
    },
    {
      "inputs": [
        {
          "internalType": "uint256",
          "name": "_index",
          "type": "uint256"
        },
        {
          "internalType": "uint256[]",
          "name": "_indexes",
          "type": "uint256[]"
        }
      ],
      "name": "removeValidators",
      "outputs": [],
      "stateMutability": "nonpayable",
      "type": "function"
    },
    {
      "inputs": [
        {
          "internalType": "address",
          "name": "_newAllowerAddress",
          "type": "address"
        }
      ],
      "name": "setAllower",
      "outputs": [],
      "stateMutability": "nonpayable",
      "type": "function"
    },
    {
      "inputs": [
        {
          "internalType": "uint256",
          "name": "_validatorCount",
          "type": "uint256"
        },
        {
          "internalType": "uint256",
          "name": "_validatorBalanceSum",
          "type": "uint256"
        },
        {
          "internalType": "bytes32",
          "name": "_roundId",
          "type": "bytes32"
        }
      ],
      "name": "setBeaconData",
      "outputs": [],
      "stateMutability": "nonpayable",
      "type": "function"
    },
    {
      "inputs": [
        {
          "internalType": "uint256",
          "name": "newFee",
          "type": "uint256"
        }
      ],
      "name": "setGlobalFee",
      "outputs": [],
      "stateMutability": "nonpayable",
      "type": "function"
    },
    {
      "inputs": [
        {
          "internalType": "uint256",
          "name": "_index",
          "type": "uint256"
        },
        {
          "internalType": "address",
          "name": "_newOperatorAddress",
          "type": "address"
        }
      ],
      "name": "setOperatorAddress",
      "outputs": [],
      "stateMutability": "nonpayable",
      "type": "function"
    },
    {
      "inputs": [
        {
          "internalType": "uint256",
          "name": "_index",
          "type": "uint256"
        },
        {
          "internalType": "uint256",
          "name": "_newLimit",
          "type": "uint256"
        }
      ],
      "name": "setOperatorLimit",
      "outputs": [],
      "stateMutability": "nonpayable",
      "type": "function"
    },
    {
      "inputs": [
        {
          "internalType": "uint256",
          "name": "newOperatorRewardsShare",
          "type": "uint256"
        }
      ],
      "name": "setOperatorRewardsShare",
      "outputs": [],
      "stateMutability": "nonpayable",
      "type": "function"
    },
    {
      "inputs": [
        {
          "internalType": "uint256",
          "name": "_index",
          "type": "uint256"
        },
        {
          "internalType": "bool",
          "name": "_newStatus",
          "type": "bool"
        }
      ],
      "name": "setOperatorStatus",
      "outputs": [],
      "stateMutability": "nonpayable",
      "type": "function"
    },
    {
      "inputs": [
        {
          "internalType": "uint256",
          "name": "_index",
          "type": "uint256"
        },
        {
          "internalType": "uint256",
          "name": "_newStoppedValidatorCount",
          "type": "uint256"
        }
      ],
      "name": "setOperatorStoppedValidatorCount",
      "outputs": [],
      "stateMutability": "nonpayable",
      "type": "function"
    },
    {
      "inputs": [
        {
          "internalType": "address",
          "name": "_oracleAddress",
          "type": "address"
        }
      ],
      "name": "setOracle",
      "outputs": [],
      "stateMutability": "nonpayable",
      "type": "function"
    },
    {
      "inputs": [
        {
          "internalType": "address",
          "name": "_owner",
          "type": "address"
        }
      ],
      "name": "sharesOf",
      "outputs": [
        {
          "internalType": "uint256",
          "name": "shares",
          "type": "uint256"
        }
      ],
      "stateMutability": "view",
      "type": "function"
    },
    {
      "inputs": [],
      "name": "symbol",
      "outputs": [
        {
          "internalType": "string",
          "name": "",
          "type": "string"
        }
      ],
      "stateMutability": "pure",
      "type": "function"
    },
    {
      "inputs": [],
      "name": "totalShares",
      "outputs": [
        {
          "internalType": "uint256",
          "name": "",
          "type": "uint256"
        }
      ],
      "stateMutability": "view",
      "type": "function"
    },
    {
      "inputs": [],
      "name": "totalSupply",
      "outputs": [
        {
          "internalType": "uint256",
          "name": "",
          "type": "uint256"
        }
      ],
      "stateMutability": "view",
      "type": "function"
    },
    {
      "inputs": [
        {
          "internalType": "address",
          "name": "_to",
          "type": "address"
        },
        {
          "internalType": "uint256",
          "name": "_value",
          "type": "uint256"
        }
      ],
      "name": "transfer",
      "outputs": [
        {
          "internalType": "bool",
          "name": "success",
          "type": "bool"
        }
      ],
      "stateMutability": "nonpayable",
      "type": "function"
    },
    {
      "inputs": [
        {
          "internalType": "address",
          "name": "_from",
          "type": "address"
        },
        {
          "internalType": "address",
          "name": "_to",
          "type": "address"
        },
        {
          "internalType": "uint256",
          "name": "_value",
          "type": "uint256"
        }
      ],
      "name": "transferFrom",
      "outputs": [
        {
          "internalType": "bool",
          "name": "success",
          "type": "bool"
        }
      ],
      "stateMutability": "nonpayable",
      "type": "function"
    },
    {
      "stateMutability": "payable",
      "type": "receive"
    }
  ],
  "transactionHash": "0x2cb0a8f38856992f3dfda4b2fd15f2aeb0f30dcf9334646e99713b5181a903d5",
  "args": [],
  "numDeployments": 1,
  "solcInputHash": "5c5f5052e91f71390a2ebc628971f49a",
  "bytecode": "0x608060405234801561001057600080fd5b50615283806100206000396000f3fe6080604052600436106102e05760003560e01c80635f41a0c411610184578063a9059cbb116100d6578063d56580ff1161008a578063f340fa0111610064578063f340fa0114610867578063f5eb42dc1461087a578063f87e52961461089a576102f1565b8063d56580ff14610810578063dd62ed3e14610830578063ec342ad014610850576102f1565b8063babcc539116100bb578063babcc539146107bb578063bf15af56146107db578063cfa2d2b7146107f0576102f1565b8063a9059cbb1461077b578063b747e7dd1461079b576102f1565b806380d4027e11610138578063950c44ec11610112578063950c44ec1461070057806395d89b41146107205780639e3947f314610766576102f1565b806380d4027e146106b6578063833b1fce146106d657806387f2adfb146106eb576102f1565b806370a082311161016957806370a0823114610656578063714b55b2146106765780637adbf97314610696576102f1565b80635f41a0c41461060757806363b4118f14610627576102f1565b806323b872dd1161023d5780633a98ef39116101f157806350545d2f116101cb57806350545d2f146105b2578063540bc5ea146105d25780635a16f135146105e7576102f1565b80633a98ef39146105405780633eb8b77a146105555780634679a9e114610592576102f1565b8063291206f611610222578063291206f6146104e7578063313ce5671461050757806336bf332514610523576102f1565b806323b872dd146104b2578063252d6a34146104d2576102f1565b806313d86aed1161029457806318160ddd1161027957806318160ddd1461045a5780631864636c1461047d5780631a4a7c611461049d576102f1565b806313d86aed146104255780631696740714610445576102f1565b806307a40008116102c557806307a40008146103a8578063095ea7b3146103d5578063110496e514610405576102f1565b806305f63c8a1461032357806306fdde0314610359576102f1565b366102f1576102ef60006108ba565b005b6040517fae962d4e00000000000000000000000000000000000000000000000000000000815260040160405180910390fd5b34801561032f57600080fd5b5061034361033e366004614b3f565b61093e565b6040516103509190614bb0565b60405180910390f35b34801561036557600080fd5b5060408051808201909152600581527f526976657200000000000000000000000000000000000000000000000000000060208201525b6040516103509190614c20565b3480156103b457600080fd5b506103bd610a82565b6040516001600160a01b039091168152602001610350565b3480156103e157600080fd5b506103f56103f0366004614c4f565b610a91565b6040519015158152602001610350565b34801561041157600080fd5b506102ef610420366004614c89565b610b21565b34801561043157600080fd5b506102ef610440366004614b3f565b610bd6565b34801561045157600080fd5b506103bd610dae565b34801561046657600080fd5b5061046f610db8565b604051908152602001610350565b34801561048957600080fd5b506102ef610498366004614cbc565b610dc2565b3480156104a957600080fd5b5061046f6111f4565b3480156104be57600080fd5b506103f56104cd366004614d3b565b6111fe565b3480156104de57600080fd5b5061046f6113d4565b3480156104f357600080fd5b506102ef610502366004614b3f565b6113de565b34801561051357600080fd5b5060405160128152602001610350565b34801561052f57600080fd5b5061046f6801bc16d674ec80000081565b34801561054c57600080fd5b5061046f611449565b34801561056157600080fd5b50610575610570366004614dc0565b611453565b604080519283526001600160a01b03909116602083015201610350565b34801561059e57600080fd5b506102ef6105ad366004614e02565b6114ef565b3480156105be57600080fd5b506102ef6105cd366004614e1d565b611533565b3480156105de57600080fd5b5061046f606081565b3480156105f357600080fd5b506102ef610602366004614e71565b6116f7565b34801561061357600080fd5b506102ef610622366004614e94565b611789565b34801561063357600080fd5b50610647610642366004614e94565b61182f565b60405161035093929190614eb6565b34801561066257600080fd5b5061046f610671366004614e02565b61185c565b34801561068257600080fd5b506102ef610691366004614e94565b61186d565b3480156106a257600080fd5b506102ef6106b1366004614e02565b6118ef565b3480156106c257600080fd5b506102ef6106d1366004614eee565b611933565b3480156106e257600080fd5b506103bd611a7d565b3480156106f757600080fd5b5061046f611a87565b34801561070c57600080fd5b506102ef61071b366004614f1a565b611a91565b34801561072c57600080fd5b5060408051808201909152600481527f7245544800000000000000000000000000000000000000000000000000000000602082015261039b565b34801561077257600080fd5b5061046f611b39565b34801561078757600080fd5b506103f5610796366004614c4f565b611b43565b3480156107a757600080fd5b506102ef6107b6366004614f8b565b611c65565b3480156107c757600080fd5b506103f56107d6366004614e02565b612045565b3480156107e757600080fd5b5061046f603081565b3480156107fc57600080fd5b5061034361080b366004614dc0565b612050565b34801561081c57600080fd5b506102ef61082b366004614b3f565b6121cb565b34801561083c57600080fd5b5061046f61084b36600461500e565b612233565b34801561085c57600080fd5b5061046f620186a081565b6102ef610875366004614e02565b612246565b34801561088657600080fd5b5061046f610895366004614e02565b61224f565b3480156108a657600080fd5b506102ef6108b5366004615038565b61225a565b346108f1576040517f95b66fe900000000000000000000000000000000000000000000000000000000815260040160405180910390fd5b6108fb33346123c1565b6040513481526001600160a01b0382169033907f3bc57f469ad6d10d7723ea226cd22bd2b9e527def2b529f6ab44645a166895829060200160405180910390a350565b6109896040518060e001604052806000151581526020016060815260200160006001600160a01b03168152602001600081526020016000815260200160008152602001600081525090565b61099282612400565b6040805160e08101909152815460ff16151581526001820180549192916020840191906109be9061505b565b80601f01602080910402602001604051908101604052809291908181526020018280546109ea9061505b565b8015610a375780601f10610a0c57610100808354040283529160200191610a37565b820191906000526020600020905b815481529060010190602001808311610a1a57829003601f168201915b505050918352505060028201546001600160a01b0316602082015260038201546040820152600482015460608201526005820154608082015260069091015460a09091015292915050565b6000610a8c61249c565b905090565b600033610a9d81612045565b610aca5760405163472511eb60e11b81526001600160a01b03821660048201526024015b60405180910390fd5b610ad53385856124d0565b6040518381526001600160a01b0385169033907f8c5be1e5ebec7d5bd14f71427d1e84f3dd0314c0f7b2291e5b200ac8c7c3b9259060200160405180910390a3600191505b5092915050565b610b2961249c565b6001600160a01b0316336001600160a01b031614158015610b635750610b4d612527565b6001600160a01b0316336001600160a01b031614155b15610b835760405163472511eb60e11b8152336004820152602401610ac1565b610b8d8282612557565b816001600160a01b03167f1b4f0c8c88fcaadd952eda5461f779c8707eb21acf10b63097c2388c6ab3849182604051610bca911515815260200190565b60405180910390a25050565b6000610bf4610bee6801bc16d674ec800000476150a6565b836125b2565b905080610c2d576040517f81b5ad6800000000000000000000000000000000000000000000000000000000815260040160405180910390fd5b600080610c39836125c7565b8151919350915080610c77576040517f800526b400000000000000000000000000000000000000000000000000000000815260040160405180910390fd5b83811115610cb1576040517f5993bd5700000000000000000000000000000000000000000000000000000000815260040160405180910390fd5b8151818114610cec576040517f8b97390c00000000000000000000000000000000000000000000000000000000815260040160405180910390fd5b6000610cf66125dc565b905080610d2f576040517f9be7315900000000000000000000000000000000000000000000000000000000815260040160405180910390fd5b60005b83811015610d8957610d77868281518110610d4f57610d4f6150c8565b6020026020010151868381518110610d6957610d696150c8565b60200260200101518461260c565b610d826001826150de565b9050610d32565b50610da583610d96612aa7565b610da091906150de565b612ad7565b50505050505050565b6000610a8c612b0a565b6000610a8c612b14565b82610dcb612b0a565b6001600160a01b0316336001600160a01b03161415610fd7576000610def85612400565b905082610e0f576040516379b348ff60e11b815260040160405180910390fd5b60005b83811015610f92576000858583818110610e2e57610e2e6150c8565b9050602002013590508260040154811015610e5c5760405163213af80760e21b815260040160405180910390fd5b82600501548110610e80576040516317df2d8d60e01b815260040160405180910390fd5b600082118015610eca57508585610e986001856150f6565b818110610ea757610ea76150c8565b90506020020135868684818110610ec057610ec06150c8565b9050602002013510155b15610ee85760405163c9ee26af60e01b815260040160405180910390fd5b600060018460050154610efb91906150f6565b9050600080610f0a8a84612b80565b91509150610f1a8a858484612d08565b610f618a8460005b6040519080825280601f01601f191660200182016040528015610f4c576020820181803683370190505b50604080516000815260208101909152612d08565b6001866005016000828254610f7691906150f6565b925050819055505050505080610f8b90615123565b9050610e12565b50847f3162702bacdcc8640bbae8973e0bfe03af8a527f10b58caaf3695f0b268d7e908260050154604051610fc991815260200190565b60405180910390a2506111ee565b6000610fe282612400565b805490915060ff1661100a576040516301550a7360e41b815260048101839052602401610ac1565b60028101546001600160a01b031633146110395760405163472511eb60e11b8152336004820152602401610ac1565b600061104486612400565b905083611064576040516379b348ff60e11b815260040160405180910390fd5b60005b848110156111ac576000868683818110611083576110836150c8565b90506020020135905082600401548110156110b15760405163213af80760e21b815260040160405180910390fd5b826005015481106110d5576040516317df2d8d60e01b815260040160405180910390fd5b60008211801561111f575086866110ed6001856150f6565b8181106110fc576110fc6150c8565b90506020020135878784818110611115576111156150c8565b9050602002013510155b1561113d5760405163c9ee26af60e01b815260040160405180910390fd5b60006001846005015461115091906150f6565b905060008061115f8b84612b80565b9150915061116f8b858484612d08565b61117b8b846000610f22565b600186600501600082825461119091906150f6565b9250508190555050505050806111a590615123565b9050611067565b50857f3162702bacdcc8640bbae8973e0bfe03af8a527f10b58caaf3695f0b268d7e9082600501546040516111e391815260200190565b60405180910390a250505b50505050565b6000610a8c612d6d565b60008361120a81612045565b6112325760405163472511eb60e11b81526001600160a01b0382166004820152602401610ac1565b8361123c81612045565b6112645760405163472511eb60e11b81526001600160a01b0382166004820152602401610ac1565b83611282576040516336b216db60e21b815260040160405180910390fd5b6001600160a01b038616331461130f57600061129e8733612da2565b9050848110156112f9576040517f7b936de30000000000000000000000000000000000000000000000000000000081526001600160a01b03881660048201523360248201526044810182905260648101869052608401610ac1565b61130d873361130888856150f6565b6124d0565b505b8361131987612dfa565b1015611338576040516351940b3960e11b815260040160405180910390fd5b600061134385612e0d565b905061136287826113538a612e45565b61135d91906150f6565b612e93565b61137a868261137089612e45565b61135d91906150de565b856001600160a01b0316876001600160a01b03167fddf252ad1be2c89b69c2b068fc378daa952ba7f163c4a11628f55a4df523b3ef876040516113bf91815260200190565b60405180910390a35060019695505050505050565b6000610a8c612edf565b6113e6612b0a565b6001600160a01b0316336001600160a01b0316146114195760405163472511eb60e11b8152336004820152602401610ac1565b620186a081111561143d5760405163a9cb9e0d60e01b815260040160405180910390fd5b61144681612f0f565b50565b6000610a8c612f3d565b60008061149584848080601f016020809104026020016040519081016040528093929190818152602001838380828437600092019190915250612f4792505050565b91506114d684848080601f016020809104026020016040519081016040528093929190818152602001838380828437600092019190915250612fd792505050565b6002015491946001600160a01b03909216935090915050565b6114f7612b0a565b6001600160a01b0316336001600160a01b03161461152a5760405163472511eb60e11b8152336004820152602401610ac1565b61144681613043565b61153b612b0a565b6001600160a01b0316336001600160a01b03161461156e5760405163472511eb60e11b8152336004820152602401610ac1565b6115ad83838080601f01602080910402602001604051908101604052809392919081815260200183838082843760009201919091525061307192505050565b1515600114156115ed5782826040517f832eebc5000000000000000000000000000000000000000000000000000000008152600401610ac192919061513e565b60006040518060e0016040528060011515815260200185858080601f01602080910402602001604051908101604052809392919081815260200183838082843760009201829052509385525050506001600160a01b0385166020808401919091526040808401839052606084018390526080840183905260a09093018290528251601f8801829004820281018201909352868352929350916116ac9190879087908190840183828082843760009201919091525086925061307c915050565b9050807f28febbb5486eda5a1e47ad578f9cb32c8a1983c86c80ab823ea5dc1fc04ede5e836020015184604001516040516116e892919061516d565b60405180910390a25050505050565b6116ff612b0a565b6001600160a01b0316336001600160a01b0316146117325760405163472511eb60e11b8152336004820152602401610ac1565b600061173d83612400565b805460ff1916831515908117825560405190815290915083907fe3bc5e5d3b000a1f65d146c40a38d89b1743b5729f4c6fe65f2e4b2dc620f2f2906020015b60405180910390a2505050565b611791612b0a565b6001600160a01b0316336001600160a01b0316146117c45760405163472511eb60e11b8152336004820152602401610ac1565b60006117cf83612400565b905080600401548211156117f65760405163a9cb9e0d60e01b815260040160405180910390fd5b6006810182905560405182815283907f773694db4f98cd263e42d4f798bcf603781d4491e48e8cbe96c219c1f13b777d9060200161177c565b606080600061183e8585612b80565b909350915061184c85612400565b6004015484111590509250925092565b600061186782612dfa565b92915050565b611875612b0a565b6001600160a01b0316336001600160a01b0316146118a85760405163472511eb60e11b8152336004820152602401610ac1565b60006118b383612400565b6003810183905560405183815290915083907f3adbeb5fbb94c52b64d90b31188c68a740868dde2238e03a04d581cae22cedf09060200161177c565b6118f7612b0a565b6001600160a01b0316336001600160a01b03161461192a5760405163472511eb60e11b8152336004820152602401610ac1565b61144681613277565b61193b6132a5565b6001600160a01b0316336001600160a01b03161461196e5760405163472511eb60e11b8152336004820152602401610ac1565b611976612aa7565b8311156119c15782611986612aa7565b6040517f76179ac500000000000000000000000000000000000000000000000000000000815260048101929092526024820152604401610ac1565b60006119cb612edf565b905060006119d76132d5565b6119e190866150f6565b90506119ec84613305565b6119f585613333565b6119fe83613361565b83821015611a3557611a35611a1c826801bc16d674ec800000615198565b611a2684876150f6565b611a3091906150f6565b61338f565b60408051868152602081018690529081018490527f98e488f5118fc11ab540716c2afc4e440c0a892d27a4efef33db94b4f9da65899060600160405180910390a15050505050565b6000610a8c6132a5565b6000610a8c612aa7565b6000611a9b613597565b8114611ae55780611aaa613597565b6040517fe7e93b3800000000000000000000000000000000000000000000000000000000815260048101929092526024820152604401610ac1565b611af8611af38260016150de565b6135c7565b611b01866135f5565b611b0a846135fe565b611b1383612f0f565b611b1c8261362c565b611b26888861365a565b611b2f8561152a565b5050505050505050565b6000610a8c6132d5565b600033611b4f81612045565b611b775760405163472511eb60e11b81526001600160a01b0382166004820152602401610ac1565b83611b8181612045565b611ba95760405163472511eb60e11b81526001600160a01b0382166004820152602401610ac1565b83611bc7576040516336b216db60e21b815260040160405180910390fd5b83611bd133612dfa565b1015611bf0576040516351940b3960e11b815260040160405180910390fd5b6000611bfb85612e0d565b9050611c0b338261135333612e45565b611c19868261137089612e45565b6040518581526001600160a01b0387169033907fddf252ad1be2c89b69c2b068fc378daa952ba7f163c4a11628f55a4df523b3ef9060200160405180910390a350600195945050505050565b85611c6e612b0a565b6001600160a01b0316336001600160a01b03161415611e3d5785611ca5576040516379b348ff60e11b815260040160405180910390fd5b611cb0603087615198565b8414611ccf5760405163287c2be760e21b815260040160405180910390fd5b611cda606087615198565b8214611cf957604051634be6321b60e01b815260040160405180910390fd5b6000611d0488612400565b905060005b87811015611de3576000611d6188888080601f016020809104026020016040519081016040528093929190818152602001838380828437600092019190915250611d5a925060309150869050615198565b603061366c565b90506000611db387878080601f016020809104026020016040519081016040528093929190818152602001838380828437600092019190915250611dac925060609150879050615198565b606061366c565b9050611dd08b848660050154611dc991906150de565b8484612d08565b505080611ddc90615123565b9050611d09565b5086816005016000828254611df891906150de565b9091555050600581015460405190815288907f5974470818610308ee3a0d809bad2cd13d57a3e9a685d3ae337fdef1d2d1b6539060200160405180910390a250610da5565b6000611e4882612400565b805490915060ff16611e70576040516301550a7360e41b815260048101839052602401610ac1565b60028101546001600160a01b03163314611e9f5760405163472511eb60e11b8152336004820152602401610ac1565b86611ebd576040516379b348ff60e11b815260040160405180910390fd5b611ec8603088615198565b8514611ee75760405163287c2be760e21b815260040160405180910390fd5b611ef2606088615198565b8314611f1157604051634be6321b60e01b815260040160405180910390fd5b6000611f1c89612400565b905060005b88811015611fe6576000611f7289898080601f016020809104026020016040519081016040528093929190818152602001838380828437600092019190915250611d5a925060309150869050615198565b90506000611fbd88888080601f016020809104026020016040519081016040528093929190818152602001838380828437600092019190915250611dac925060609150879050615198565b9050611fd38c848660050154611dc991906150de565b505080611fdf90615123565b9050611f21565b5087816005016000828254611ffb91906150de565b9091555050600581015460405190815289907f5974470818610308ee3a0d809bad2cd13d57a3e9a685d3ae337fdef1d2d1b6539060200160405180910390a2505050505050505050565b600061186782613794565b61209b6040518060e001604052806000151581526020016060815260200160006001600160a01b03168152602001600081526020016000815260200160008152602001600081525090565b6120da83838080601f016020809104026020016040519081016040528093929190818152602001838380828437600092019190915250612fd792505050565b6040805160e08101909152815460ff16151581526001820180549192916020840191906121069061505b565b80601f01602080910402602001604051908101604052809291908181526020018280546121329061505b565b801561217f5780601f106121545761010080835404028352916020019161217f565b820191906000526020600020905b81548152906001019060200180831161216257829003601f168201915b505050918352505060028201546001600160a01b0316602082015260038201546040820152600482015460608201526005820154608082015260069091015460a0909101529392505050565b6121d3612b0a565b6001600160a01b0316336001600160a01b0316146122065760405163472511eb60e11b8152336004820152602401610ac1565b620186a081111561222a5760405163a9cb9e0d60e01b815260040160405180910390fd5b6114468161362c565b600061223f8383612da2565b9392505050565b611446816108ba565b600061186782612e45565b81612263612b0a565b6001600160a01b0316336001600160a01b031614156122f257600061228784612400565b60028101805473ffffffffffffffffffffffffffffffffffffffff19166001600160a01b03861690811790915560405190815290915084907f08a670ef4110fe90a7d61086d1477cde043a940601bd853a50009ac5a5ba56e79060200160405180910390a250505050565b60006122fd82612400565b805490915060ff16612325576040516301550a7360e41b815260048101839052602401610ac1565b60028101546001600160a01b031633146123545760405163472511eb60e11b8152336004820152602401610ac1565b600061235f85612400565b60028101805473ffffffffffffffffffffffffffffffffffffffff19166001600160a01b03871690811790915560405190815290915085907f08a670ef4110fe90a7d61086d1477cde043a940601bd853a50009ac5a5ba56e7906020016116e8565b6123ca82613794565b6123f25760405163472511eb60e11b81526001600160a01b0383166004820152602401610ac1565b6123fc828261379f565b5050565b60008061242e60017f794c962401f2e1bb68ba8627fb26fd4eea0439023c691c35b68bb144bfe101136150f6565b805490915081908410612470576040517fd191a36c00000000000000000000000000000000000000000000000000000000815260048101859052602401610ac1565b806000018481548110612485576124856150c8565b906000526020600020906007020192505050919050565b6000610a8c6124cc60017f3d8762f71ac4675044de4231ebed7df0f8a8819893c6b6278d0461fc4a979b806150f6565b5490565b60006124fd60017fc852254d5b703a16bb13b3e233a335d6459c5da5db0ca732d7a684ee054078476150f6565b6001600160a01b039485166000908152602091825260408082209590961681529390525091902055565b6000610a8c6124cc60017fb5b37715a3e346e996104f0086703f19825def429233930fd9399c38e05fb1136150f6565b600061258460017ff13551d5cf1b23afc8669eb5ef15070e351923179334eb1a5aa569477f4a41356150f6565b6001600160a01b03939093166000908152602093909352506040909120805460ff1916911515919091179055565b60008183116125c1578261223f565b50919050565b6060806125d383613808565b91509150915091565b6000610a8c6124cc60017fb649e50315f962b32d487e696a81b4828631b11f8424daaaa37e9e97766a2c426150f6565b6030835114612647576040517f50cb553000000000000000000000000000000000000000000000000000000000815260040160405180910390fd5b6060825114612682576040517f408ebd3900000000000000000000000000000000000000000000000000000000815260040160405180910390fd5b6801bc16d674ec800000600061269c633b9aca00836150a6565b9050816126ad82633b9aca00615198565b146126ba576126ba6151b7565b600060026126c787613b52565b6040516126d491906151cd565b602060405180830381855afa1580156126f1573d6000803e3d6000fd5b5050506040513d601f19601f8201168201806040525081019061271491906151e9565b90506000600280612728886000604061366c565b60405161273591906151cd565b602060405180830381855afa158015612752573d6000803e3d6000fd5b5050506040513d601f19601f8201168201806040525081019061277591906151e9565b60026127956127908a604061278b8160606150f6565b61366c565b613b52565b6040516127a291906151cd565b602060405180830381855afa1580156127bf573d6000803e3d6000fd5b5050506040513d601f19601f820116820180604052508101906127e291906151e9565b60408051602081019390935282015260600160408051601f198184030181529082905261280e916151cd565b602060405180830381855afa15801561282b573d6000803e3d6000fd5b5050506040513d601f19601f8201168201806040525081019061284e91906151e9565b905060006002808488604051602001612871929190918252602082015260400190565b60408051601f198184030181529082905261288b916151cd565b602060405180830381855afa1580156128a8573d6000803e3d6000fd5b5050506040513d601f19601f820116820180604052508101906128cb91906151e9565b60026128d687613bdb565b604080516020810192909252810186905260600160408051601f1981840301815290829052612904916151cd565b602060405180830381855afa158015612921573d6000803e3d6000fd5b5050506040513d601f19601f8201168201806040525081019061294491906151e9565b60408051602081019390935282015260600160408051601f1981840301815290829052612970916151cd565b602060405180830381855afa15801561298d573d6000803e3d6000fd5b5050506040513d601f19601f820116820180604052508101906129b091906151e9565b905060006129be86476150f6565b90506129c8613c21565b6001600160a01b03166322895118878b8a6040516020016129eb91815260200190565b6040516020818303038152906040528c876040518663ffffffff1660e01b8152600401612a1b9493929190615202565b6000604051808303818588803b158015612a3457600080fd5b505af1158015612a48573d6000803e3d6000fd5b5050505050804714612a9c5760405162461bcd60e51b815260206004820152601b60248201527f455850454354494e475f4445504f5349545f544f5f48415050454e00000000006044820152606401610ac1565b505050505050505050565b6000610a8c6124cc60017fc77078e3530c08cdb2440817c81de4836500b4708ea4d15672b7fe98956423a86150f6565b611446612b0560017fc77078e3530c08cdb2440817c81de4836500b4708ea4d15672b7fe98956423a86150f6565b829055565b6000610a8c612527565b600080612b1f6132d5565b90506000612b2b612aa7565b905080821015612b77576801bc16d674ec800000612b4983836150f6565b612b539190615198565b47612b5c612edf565b612b6691906150de565b612b7091906150de565b9250505090565b47612b66612edf565b6060806000612bb060017f6018b2d18c7378174a403e179ce41a2df430338a150b2bcec4b7a082912855746150f6565b600086815260208281526040808320888452909152902080549192508291612c64908290612bdd9061505b565b80601f0160208091040260200160405190810160405280929190818152602001828054612c099061505b565b8015612c565780601f10612c2b57610100808354040283529160200191612c56565b820191906000526020600020905b815481529060010190602001808311612c3957829003601f168201915b50505050506000603061366c565b9450612cfc818054612c759061505b565b80601f0160208091040260200160405190810160405280929190818152602001828054612ca19061505b565b8015612cee5780601f10612cc357610100808354040283529160200191612cee565b820191906000526020600020905b815481529060010190602001808311612cd157829003601f168201915b50505050506030606061366c565b93505050509250929050565b6000612d148383613c51565b90506000612d4360017f6018b2d18c7378174a403e179ce41a2df430338a150b2bcec4b7a082912855746150f6565b600087815260208281526040808320898452825290912084519293508392611b2f92860190614aa6565b600080612d9b60017f794c962401f2e1bb68ba8627fb26fd4eea0439023c691c35b68bb144bfe101136150f6565b5492915050565b600080612dd060017fc852254d5b703a16bb13b3e233a335d6459c5da5db0ca732d7a684ee054078476150f6565b6001600160a01b039485166000908152602091825260408082209590961681529390525050205490565b6000611867612e0883612e45565b613cce565b600080612e18612b14565b905080612e285750600092915050565b80612e31613cf2565b612e3b9085615198565b61223f91906150a6565b600080612e7360017f0fb4a5ac9287f4f508aa7253ee2d57c6a228b1b30e210d73fffd59389d3a88386150f6565b6001600160a01b0390931660009081526020939093525050604090205490565b6000612ec060017f0fb4a5ac9287f4f508aa7253ee2d57c6a228b1b30e210d73fffd59389d3a88386150f6565b6001600160a01b03909316600090815260209390935250604090912055565b6000610a8c6124cc60017f42b27da24a254372d1e7ea692a34d85d9237abb39a65153affece1e2f1e609006150f6565b611446612b0560017f094efef62d2ce60c14ffacd35a1b50546d3a9d503aff1df040176fffd6c92a376150f6565b6000610a8c613cf2565b600080612f7560017fb005a38730de558570646e2e51c331893c451361d6a7ba50d9c54b48e05ddd276150f6565b60405190915081908190612f8a9086906151cd565b9081526040519081900360200190205460ff16612fac57506000199392505050565b6040518190612fbc9086906151cd565b90815260200160405180910390206001015492505050919050565b60008061300560017f794c962401f2e1bb68ba8627fb26fd4eea0439023c691c35b68bb144bfe101136150f6565b9050600061301284613d22565b8254909150829081908390811061302b5761302b6150c8565b90600052602060002090600702019350505050919050565b611446612b0560017f3d8762f71ac4675044de4231ebed7df0f8a8819893c6b6278d0461fc4a979b806150f6565b600061186782613db0565b60008061308884613db0565b905060006130b760017f794c962401f2e1bb68ba8627fb26fd4eea0439023c691c35b68bb144bfe101136150f6565b905080826131935780546001808201835560008381526020908190208851600790940201805460ff191693151593909317835587810151805189949361310293908501920190614aa6565b50604082015160028201805473ffffffffffffffffffffffffffffffffffffffff19166001600160a01b03909216919091179055606082015160038201556080820151600482015560a0820151600582015560c0909101516006909101558451815461317b918891613176906001906150f6565b613e0e565b8054613189906001906150f6565b9350505050611867565b600061319e87613d22565b9050858260000182815481106131b6576131b66150c8565b6000918252602091829020835160079290920201805460ff191691151591909117815582820151805191926131f392600185019290910190614aa6565b50604082015160028201805473ffffffffffffffffffffffffffffffffffffffff19166001600160a01b03909216919091179055606082015160038201556080820151600482015560a0820151600582015560c090910151600690910155855115158415151461326c5761326c87876000015183613e0e565b935061186792505050565b611446612b0560017fc8cbea9407c380ae944f052b5a442330057683c5abdbd453493f9750806afecb6150f6565b6000610a8c6124cc60017fc8cbea9407c380ae944f052b5a442330057683c5abdbd453493f9750806afecb6150f6565b6000610a8c6124cc60017f6929b6137e885d965ed089510659a629a29a4a54f85c28286fa5e0d7dcf27a376150f6565b611446612b0560017f42b27da24a254372d1e7ea692a34d85d9237abb39a65153affece1e2f1e609006150f6565b611446612b0560017f6929b6137e885d965ed089510659a629a29a4a54f85c28286fa5e0d7dcf27a376150f6565b611446612b0560017fd7f2d45e512a86049f7a113657b39731b6b558609584243063a52cd31a8eb5296150f6565b6000613399613e92565b905060006133a78284615198565b620186a06133b3612b14565b6133bd9190615198565b6133c791906150f6565b826133d0612f3d565b6133da9086615198565b6133e49190615198565b6133ee91906150a6565b90506000620186a06133fe613ec2565b6134089084615198565b61341291906150a6565b9050600061341e613ef2565b90506000815167ffffffffffffffff81111561343c5761343c61510d565b604051908082528060200260200182016040528015613465578160200160208202803683370190505b5090506000805b83518110156134fa576000848281518110613489576134896150c8565b602002602001015160c001518583815181106134a7576134a76150c8565b6020026020010151608001516134bd91906150f6565b90506134c981846150de565b9250808483815181106134de576134de6150c8565b6020908102919091010152506134f381615123565b905061346c565b50801561357d57600061350d82866150a6565b905060005b835181101561357657613566858281518110613530576135306150c8565b6020026020010151604001518386848151811061354f5761354f6150c8565b60200260200101516135619190615198565b6141b1565b61356f81615123565b9050613512565b5050613582565b600093505b610da561358d61421f565b61356186886150f6565b6000610a8c6124cc60017f82055909238c0f5e63d6f174068ebb8f51bcec9bd37de63bb68f6551feec0cfd6150f6565b611446612b0560017f82055909238c0f5e63d6f174068ebb8f51bcec9bd37de63bb68f6551feec0cfd6150f6565b6114468161424f565b611446612b0560017faa490d1834c76465b09f09618af9f91fbbd04c30f1f453b24b1e8f907c9e1fa36150f6565b611446612b0560017f8b296ea79529153bb5bae302cb8c44db7ed739099e80c9f19feb68f6a43578a86150f6565b6136638261427d565b6123fc816142ab565b60608161367a81601f6150de565b10156136c85760405162461bcd60e51b815260206004820152600e60248201527f736c6963655f6f766572666c6f770000000000000000000000000000000000006044820152606401610ac1565b6136d282846150de565b845110156137225760405162461bcd60e51b815260206004820152601160248201527f736c6963655f6f75744f66426f756e64730000000000000000000000000000006044820152606401610ac1565b606082158015613741576040519150600082526020820160405261378b565b6040519150601f8416801560200281840101858101878315602002848b0101015b8183101561377a578051835260209283019201613762565b5050858452601f01601f1916604052505b50949350505050565b6000611867826142d9565b60006137a9612b14565b90506000826137b6612b14565b6137c091906150f6565b9050806137d6576137d184836141b1565b6111ee565b6000816137e1612f3d565b6137eb9086615198565b6137f591906150a6565b905061380185826141b1565b5050505050565b606080600061381561432a565b905080516000141561388357604080516000808252602082019092529061384c565b60608152602001906001900390816138375790505b506040805160008082526020820190925290613878565b60608152602001906001900390816138635790505b509250925050915091565b600060015b8251811015613937578282815181106138a3576138a36150c8565b602002602001015160c001518383815181106138c1576138c16150c8565b6020026020010151608001516138d791906150f6565b8382815181106138e9576138e96150c8565b602002602001015160c00151848381518110613907576139076150c8565b60200260200101516080015161391d91906150f6565b1015613927578091505b61393081615123565b9050613888565b50600082828151811061394c5761394c6150c8565b60200260200101516080015161399c84848151811061396d5761396d6150c8565b602002602001015160a0015185858151811061398b5761398b6150c8565b6020026020010151606001516125b2565b6139a691906150f6565b905080613a115760408051600080825260208201909252906139d8565b60608152602001906001900390816139c35790505b506040805160008082526020820190925290613a04565b60608152602001906001900390816139ef5790505b5094509450505050915091565b6000613a39848481518110613a2857613a286150c8565b602002602001015160200151612fd7565b9050868210613aae57613a87848481518110613a5757613a576150c8565b602002602001015160e00151858581518110613a7557613a756150c8565b6020026020010151608001518961470e565b809650819750505086816004016000828254613aa391906150de565b90915550613b499050565b613af3848481518110613ac357613ac36150c8565b602002602001015160e00151858581518110613ae157613ae16150c8565b6020026020010151608001518461470e565b809650819750505081816004016000828254613b0f91906150de565b909155506000905080613b2a613b25858b6150f6565b613808565b91509150613b388883614917565b9750613b448782614917565b965050505b50505050915091565b60606020825110158015613b6857506040825111155b613b7457613b746151b7565b815160401415613b82575090565b60408051602080825281830190925260009160208201818036833701905050905060006020820152825160201415613bbe5761223f8382613c51565b61223f83613bd68360008751604061278b91906150f6565b613c51565b600081815b6008811015613c0957600892831b60ff831617929190911c90613c0281615123565b9050613be0565b508015613c1857613c186151b7565b5060c01b919050565b6000610a8c6124cc60017f35efb61d8784060218d9d6aa40eae55904de43779c1afc79c74dfefcfdf912606150f6565b6060806040519050835180825260208201818101602087015b81831015613c82578051835260209283019201613c6a565b50855184518101855292509050808201602086015b81831015613caf578051835260209283019201613c97565b508651929092011591909101601f01601f191660405250905092915050565b600080613cd9613cf2565b905080613ce95750600092915050565b80612e31612b14565b6000610a8c6124cc60017f6b842b424335d94ccad97e54548dfa02673c1268aba38d3c3c32d28c8988b70b6150f6565b600080613d5060017fb005a38730de558570646e2e51c331893c451361d6a7ba50d9c54b48e05ddd276150f6565b60405190915081908190613d659086906151cd565b9081526040519081900360200190205460ff16612fac57836040517f34eddfcf000000000000000000000000000000000000000000000000000000008152600401610ac19190614c20565b600080613dde60017fb005a38730de558570646e2e51c331893c451361d6a7ba50d9c54b48e05ddd276150f6565b60405190915081908190613df39086906151cd565b9081526040519081900360200190205460ff16949350505050565b6000613e3b60017fb005a38730de558570646e2e51c331893c451361d6a7ba50d9c54b48e05ddd276150f6565b604080518082018252851515815260208101859052905191925082918290613e649088906151cd565b908152604051602091819003820190208251815460ff19169015151781559101516001909101555050505050565b6000610a8c6124cc60017f094efef62d2ce60c14ffacd35a1b50546d3a9d503aff1df040176fffd6c92a376150f6565b6000610a8c6124cc60017f8b296ea79529153bb5bae302cb8c44db7ed739099e80c9f19feb68f6a43578a86150f6565b60606000613f2160017f794c962401f2e1bb68ba8627fb26fd4eea0439023c691c35b68bb144bfe101136150f6565b9050806000805b8254811015613f8057826000018181548110613f4657613f466150c8565b600091825260209091206007909102015460ff16151560011415613f7057613f6d82615123565b91505b613f7981615123565b9050613f28565b5060008167ffffffffffffffff811115613f9c57613f9c61510d565b60405190808252806020026020018201604052801561401857816020015b6140056040518060e001604052806000151581526020016060815260200160006001600160a01b03168152602001600081526020016000815260200160008152602001600081525090565b815260200190600190039081613fba5790505b5090506000805b84548110156141a65784600001818154811061403d5761403d6150c8565b600091825260209091206007909102015460ff1615156001141561419657846000018181548110614070576140706150c8565b60009182526020918290206040805160e08101909152600790920201805460ff161515825260018101805492939192918401916140ac9061505b565b80601f01602080910402602001604051908101604052809291908181526020018280546140d89061505b565b80156141255780601f106140fa57610100808354040283529160200191614125565b820191906000526020600020905b81548152906001019060200180831161410857829003601f168201915b505050918352505060028201546001600160a01b0316602082015260038201546040820152600482015460608201526005820154608082015260069091015460a090910152835184908490811061417e5761417e6150c8565b60200260200101819052508161419390615123565b91505b61419f81615123565b905061401f565b509095945050505050565b6141cc816141bd613cf2565b6141c791906150de565b614a2a565b6141da828261137085612e45565b6040518181526001600160a01b038316906000907fddf252ad1be2c89b69c2b068fc378daa952ba7f163c4a11628f55a4df523b3ef9060200160405180910390a35050565b6000610a8c6124cc60017faa490d1834c76465b09f09618af9f91fbbd04c30f1f453b24b1e8f907c9e1fa36150f6565b611446612b0560017fb5b37715a3e346e996104f0086703f19825def429233930fd9399c38e05fb1136150f6565b611446612b0560017f35efb61d8784060218d9d6aa40eae55904de43779c1afc79c74dfefcfdf912606150f6565b611446612b0560017fb649e50315f962b32d487e696a81b4828631b11f8424daaaa37e9e97766a2c426150f6565b60008061430760017ff13551d5cf1b23afc8669eb5ef15070e351923179334eb1a5aa569477f4a41356150f6565b6001600160a01b0390931660009081526020939093525050604090205460ff1690565b6060600061435960017f794c962401f2e1bb68ba8627fb26fd4eea0439023c691c35b68bb144bfe101136150f6565b9050806000805b82548110156144a157614480836000018281548110614381576143816150c8565b60009182526020918290206040805160e08101909152600790920201805460ff161515825260018101805492939192918401916143bd9061505b565b80601f01602080910402602001604051908101604052809291908181526020018280546143e99061505b565b80156144365780601f1061440b57610100808354040283529160200191614436565b820191906000526020600020905b81548152906001019060200180831161441957829003601f168201915b505050918352505060028201546001600160a01b0316602082015260038201546040820152600482015460608201526005820154608082015260069091015460a090910152614a58565b156144915761448e82615123565b91505b61449a81615123565b9050614360565b5060008167ffffffffffffffff8111156144bd576144bd61510d565b60405190808252806020026020018201604052801561454157816020015b61452e6040518061010001604052806000151581526020016060815260200160006001600160a01b0316815260200160008152602001600081526020016000815260200160008152602001600081525090565b8152602001906001900390816144db5790505b5090506000805b84548110156141a6576000856000018281548110614568576145686150c8565b60009182526020918290206040805160e08101909152600790920201805460ff161515825260018101805492939192918401916145a49061505b565b80601f01602080910402602001604051908101604052809291908181526020018280546145d09061505b565b801561461d5780601f106145f25761010080835404028352916020019161461d565b820191906000526020600020905b81548152906001019060200180831161460057829003601f168201915b505050918352505060028201546001600160a01b0316602082015260038201546040820152600482015460608201526005820154608082015260069091015460a090910152905061466d81614a58565b156146fd576040518061010001604052808260000151151581526020018260200151815260200182604001516001600160a01b0316815260200182606001518152602001826080015181526020018260a0015181526020018260c001518152602001838152508484815181106146e5576146e56150c8565b6020026020010181905250826146fa90615123565b92505b5061470781615123565b9050614548565b6060808267ffffffffffffffff81111561472a5761472a61510d565b60405190808252806020026020018201604052801561475d57816020015b60608152602001906001900390816147485790505b5091508267ffffffffffffffff8111156147795761477961510d565b6040519080825280602002602001820160405280156147ac57816020015b60608152602001906001900390816147975790505b50905060006147dc60017f6018b2d18c7378174a403e179ce41a2df430338a150b2bcec4b7a082912855746150f6565b905080855b6147eb86886150de565b81101561490c57600088815260208381526040808320848452909152812080546148149061505b565b80601f01602080910402602001604051908101604052809291908181526020018280546148409061505b565b801561488d5780601f106148625761010080835404028352916020019161488d565b820191906000526020600020905b81548152906001019060200180831161487057829003601f168201915b505050505090506148a1816000603061366c565b866148ac8a856150f6565b815181106148bc576148bc6150c8565b60200260200101819052506148d4816030606061366c565b856148df8a856150f6565b815181106148ef576148ef6150c8565b6020026020010181905250508061490590615123565b90506147e1565b505050935093915050565b60608151835161492791906150de565b67ffffffffffffffff81111561493f5761493f61510d565b60405190808252806020026020018201604052801561497257816020015b606081526020019060019003908161495d5790505b50905060005b83518110156149c957838181518110614993576149936150c8565b60200260200101518282815181106149ad576149ad6150c8565b6020026020010181905250806149c290615123565b9050614978565b5060005b8251811015610b1a578281815181106149e8576149e86150c8565b6020026020010151828551836149fe91906150de565b81518110614a0e57614a0e6150c8565b602002602001018190525080614a2390615123565b90506149cd565b611446612b0560017f6b842b424335d94ccad97e54548dfa02673c1268aba38d3c3c32d28c8988b70b6150f6565b80516000908015614a7f57508160c001518260800151614a7891906150f6565b8260a00151115b801561186757508160c001518260800151614a9a91906150f6565b82606001511192915050565b828054614ab29061505b565b90600052602060002090601f016020900481019282614ad45760008555614b1a565b82601f10614aed57805160ff1916838001178555614b1a565b82800160010185558215614b1a579182015b82811115614b1a578251825591602001919060010190614aff565b50614b26929150614b2a565b5090565b5b80821115614b265760008155600101614b2b565b600060208284031215614b5157600080fd5b5035919050565b60005b83811015614b73578181015183820152602001614b5b565b838111156111ee5750506000910152565b60008151808452614b9c816020860160208601614b58565b601f01601f19169290920160200192915050565b602081528151151560208201526000602083015160e06040840152614bd9610100840182614b84565b90506001600160a01b03604085015116606084015260608401516080840152608084015160a084015260a084015160c084015260c084015160e08401528091505092915050565b60208152600061223f6020830184614b84565b80356001600160a01b0381168114614c4a57600080fd5b919050565b60008060408385031215614c6257600080fd5b614c6b83614c33565b946020939093013593505050565b80358015158114614c4a57600080fd5b60008060408385031215614c9c57600080fd5b614ca583614c33565b9150614cb360208401614c79565b90509250929050565b600080600060408486031215614cd157600080fd5b83359250602084013567ffffffffffffffff80821115614cf057600080fd5b818601915086601f830112614d0457600080fd5b813581811115614d1357600080fd5b8760208260051b8501011115614d2857600080fd5b6020830194508093505050509250925092565b600080600060608486031215614d5057600080fd5b614d5984614c33565b9250614d6760208501614c33565b9150604084013590509250925092565b60008083601f840112614d8957600080fd5b50813567ffffffffffffffff811115614da157600080fd5b602083019150836020828501011115614db957600080fd5b9250929050565b60008060208385031215614dd357600080fd5b823567ffffffffffffffff811115614dea57600080fd5b614df685828601614d77565b90969095509350505050565b600060208284031215614e1457600080fd5b61223f82614c33565b600080600060408486031215614e3257600080fd5b833567ffffffffffffffff811115614e4957600080fd5b614e5586828701614d77565b9094509250614e68905060208501614c33565b90509250925092565b60008060408385031215614e8457600080fd5b82359150614cb360208401614c79565b60008060408385031215614ea757600080fd5b50508035926020909101359150565b606081526000614ec96060830186614b84565b8281036020840152614edb8186614b84565b9150508215156040830152949350505050565b600080600060608486031215614f0357600080fd5b505081359360208301359350604090920135919050565b600080600080600080600060e0888a031215614f3557600080fd5b614f3e88614c33565b965060208801359550614f5360408901614c33565b9450614f6160608901614c33565b9350614f6f60808901614c33565b925060a0880135915060c0880135905092959891949750929550565b60008060008060008060808789031215614fa457600080fd5b8635955060208701359450604087013567ffffffffffffffff80821115614fca57600080fd5b614fd68a838b01614d77565b90965094506060890135915080821115614fef57600080fd5b50614ffc89828a01614d77565b979a9699509497509295939492505050565b6000806040838503121561502157600080fd5b61502a83614c33565b9150614cb360208401614c33565b6000806040838503121561504b57600080fd5b82359150614cb360208401614c33565b600181811c9082168061506f57607f821691505b602082108114156125c157634e487b7160e01b600052602260045260246000fd5b634e487b7160e01b600052601160045260246000fd5b6000826150c357634e487b7160e01b600052601260045260246000fd5b500490565b634e487b7160e01b600052603260045260246000fd5b600082198211156150f1576150f1615090565b500190565b60008282101561510857615108615090565b500390565b634e487b7160e01b600052604160045260246000fd5b600060001982141561513757615137615090565b5060010190565b60208152816020820152818360408301376000818301604090810191909152601f909201601f19160101919050565b6040815260006151806040830185614b84565b90506001600160a01b03831660208301529392505050565b60008160001904831182151516156151b2576151b2615090565b500290565b634e487b7160e01b600052600160045260246000fd5b600082516151df818460208701614b58565b9190910192915050565b6000602082840312156151fb57600080fd5b5051919050565b6080815260006152156080830187614b84565b82810360208401526152278187614b84565b9050828103604084015261523b8186614b84565b9150508260608301529594505050505056fea2646970667358221220200a4b425f438c2fb35f24095af27d28ebe6325185cbb4a3466ac2bd2e20979464736f6c634300080a0033",
  "devdoc": {
    "author": "SkillZ",
    "kind": "dev",
    "methods": {
      "addOperator(string,address)": {
        "details": "Only callable by the administrator",
        "params": {
          "_name": "The name identifying the operator",
          "_operator": "The address representing the operator, receiving the rewards"
        }
      },
      "addValidators(uint256,uint256,bytes,bytes)": {
        "details": "Only callable by the administrator or the operator address",
        "params": {
          "_index": "The operator index",
          "_keyCount": "The amount of keys provided",
          "_publicKeys": "Public keys of the validator, concatenated",
          "_signatures": "Signatures of the validator keys, concatenated"
        }
      },
      "allow(address,bool)": {
        "params": {
          "_account": "Account status to edit",
          "_status": "Allowlist status"
        }
      },
      "deposit(address)": {
        "params": {
          "_referral": "Referral address, address(0) if none"
        }
      },
      "depositToConsensusLayer(uint256)": {
        "params": {
          "_maxCount": "The maximum amount of validator keys to fund"
        }
      },
      "getOperator(uint256)": {
        "params": {
          "_index": "The index of the operator"
        }
      },
      "getOperatorByName(string)": {
        "params": {
          "_name": "The name identifying the operator"
        }
      },
      "getValidator(uint256,uint256)": {
        "params": {
          "_operatorIndex": "The index of the operator",
          "_validatorIndex": "The index of the validator"
        }
      },
      "initRiverV1(address,bytes32,address,address,address,uint256,uint256)": {
        "params": {
          "_allowerAddress": "Address able to manage the allowlist",
          "_depositContractAddress": "Address to make Consensus Layer deposits",
          "_globalFee": "Amount retained when the eth balance increases, splitted between the treasury and the operators",
          "_operatorRewardsShare": "Share of the global fee used to reward node operators",
          "_systemAdministratorAddress": "Administrator address",
          "_treasuryAddress": "Address receiving the fee minus the operator share",
          "_withdrawalCredentials": "Credentials to use for every validator deposit"
        }
      },
      "removeValidators(uint256,uint256[])": {
        "details": "Only callable by the administrator or the operator addressThe indexes must be provided sorted in decreasing order, otherwise the method will revert",
        "params": {
          "_index": "The operator index",
          "_indexes": "The indexes of the keys to remove"
        }
      },
      "setAllower(address)": {
        "params": {
          "_newAllowerAddress": "New address allowed to edit the allowlist"
        }
      },
      "setBeaconData(uint256,uint256,bytes32)": {
        "details": "Can only be called by the oracle address",
        "params": {
          "_roundId": "An identifier for this update",
          "_validatorBalanceSum": "The validator balance sum of the active validators on the consensus layer",
          "_validatorCount": "The number of active validators on the consensus layer"
        }
      },
      "setGlobalFee(uint256)": {
        "params": {
          "newFee": "New fee value"
        }
      },
      "setOperatorAddress(uint256,address)": {
        "details": "Only callable by the administrator or the previous operator address",
        "params": {
          "_index": "The operator index",
          "_newOperatorAddress": "The new address representing the operator"
        }
      },
      "setOperatorLimit(uint256,uint256)": {
        "details": "Only callable by the administrator",
        "params": {
          "_index": "The operator index",
          "_newLimit": "The new staking limit of the operator"
        }
      },
      "setOperatorRewardsShare(uint256)": {
        "params": {
          "newOperatorRewardsShare": "New share value"
        }
      },
      "setOperatorStatus(uint256,bool)": {
        "details": "Only callable by the administrator",
        "params": {
          "_index": "The operator index",
          "_newStatus": "The new status of the operator"
        }
      },
      "setOperatorStoppedValidatorCount(uint256,uint256)": {
        "details": "Only callable by the administrator",
        "params": {
          "_index": "The operator index",
          "_newStoppedValidatorCount": "The new stopped validator count of the operator"
        }
      },
      "setOracle(address)": {
        "params": {
          "_oracleAddress": "Address of the oracle"
        }
      }
    },
    "title": "River (v1)",
    "version": 1
  },
  "userdoc": {
    "kind": "user",
    "methods": {
      "addOperator(string,address)": {
        "notice": "Adds an operator to the registry"
      },
      "addValidators(uint256,uint256,bytes,bytes)": {
        "notice": "Adds new keys for an operator"
      },
      "allow(address,bool)": {
        "notice": "Sets the allowlisting status for an account"
      },
      "deposit(address)": {
        "notice": "Explicit deposit method"
      },
      "depositToConsensusLayer(uint256)": {
        "notice": "Deposits current balance to the Consensus Layer by batches of 32 ETH"
      },
      "getAdministrator()": {
        "notice": "Retrieve system administrator address"
      },
      "getAllower()": {
        "notice": "Retrieves the allower address"
      },
      "getBeaconValidatorBalanceSum()": {
        "notice": "Get Beacon validator balance sum"
      },
      "getBeaconValidatorCount()": {
        "notice": "Get Beacon validator count (the amount of validator reported by the oracles)"
      },
      "getDepositedValidatorCount()": {
        "notice": "Get the deposited validator count (the count of deposits made by the contract)"
      },
      "getOperator(uint256)": {
        "notice": "Get operator details"
      },
      "getOperatorByName(string)": {
        "notice": "Get operator details by name"
      },
      "getOperatorCount()": {
        "notice": "Get operator count"
      },
      "getOracle()": {
        "notice": "Get Oracle address"
      },
      "getValidator(uint256,uint256)": {
        "notice": "Get the details of a validator"
      },
      "initRiverV1(address,bytes32,address,address,address,uint256,uint256)": {
        "notice": "Initializes the River system"
      },
      "removeValidators(uint256,uint256[])": {
        "notice": "Remove validator keys"
      },
      "setAllower(address)": {
        "notice": "Changes the allower address"
      },
      "setBeaconData(uint256,uint256,bytes32)": {
        "notice": "Sets the validator count and validator balance sum reported by the oracle"
      },
      "setGlobalFee(uint256)": {
        "notice": "Changes the global fee parameter"
      },
      "setOperatorAddress(uint256,address)": {
        "notice": "Changes the operator address of an operator"
      },
      "setOperatorLimit(uint256,uint256)": {
        "notice": "Changes the operator staking limit"
      },
      "setOperatorRewardsShare(uint256)": {
        "notice": "Changes the operator rewards share."
      },
      "setOperatorStatus(uint256,bool)": {
        "notice": "Changes the operator status"
      },
      "setOperatorStoppedValidatorCount(uint256,uint256)": {
        "notice": "Changes the operator stopped validator cound"
      },
      "setOracle(address)": {
        "notice": "Set Oracle address"
      }
    },
    "notice": "This contract merges all the manager contracts and implements all the virtual methods stitching all components together",
    "version": 1
  },
  "storageLayout": {
    "storage": [],
    "types": null
  }
}