{
  "address": "0xd5251743507a068f04792A781fE425DB0ba67584",
  "abi": [
    {
      "inputs": [],
      "name": "InvalidRevokedVestingScheduleEnd",
      "type": "error"
    },
    {
      "inputs": [
        {
          "internalType": "string",
          "name": "msg",
          "type": "string"
        }
      ],
      "name": "InvalidVestingScheduleParameter",
      "type": "error"
    },
    {
      "inputs": [],
      "name": "InvalidZeroAddress",
      "type": "error"
    },
    {
      "inputs": [
        {
          "internalType": "address",
          "name": "caller",
          "type": "address"
        }
      ],
      "name": "Unauthorized",
      "type": "error"
    },
    {
      "inputs": [],
      "name": "UnsufficientVestingScheduleCreatorBalance",
      "type": "error"
    },
    {
      "inputs": [],
      "name": "VestingScheduleIsLocked",
      "type": "error"
    },
    {
      "inputs": [
        {
          "internalType": "uint256",
          "name": "index",
          "type": "uint256"
        }
      ],
      "name": "VestingScheduleNotFound",
      "type": "error"
    },
    {
      "inputs": [],
      "name": "VestingScheduleNotRevocable",
      "type": "error"
    },
    {
      "inputs": [],
      "name": "VestingScheduleNotRevocableInPast",
      "type": "error"
    },
    {
      "inputs": [],
      "name": "ZeroReleasableAmount",
      "type": "error"
    },
    {
      "anonymous": false,
      "inputs": [
        {
          "indexed": true,
          "internalType": "address",
          "name": "owner",
          "type": "address"
        },
        {
          "indexed": true,
          "internalType": "address",
          "name": "spender",
          "type": "address"
        },
        {
          "indexed": false,
          "internalType": "uint256",
          "name": "value",
          "type": "uint256"
        }
      ],
      "name": "Approval",
      "type": "event"
    },
    {
      "anonymous": false,
      "inputs": [
        {
          "indexed": false,
          "internalType": "uint256",
          "name": "index",
          "type": "uint256"
        },
        {
          "indexed": true,
          "internalType": "address",
          "name": "creator",
          "type": "address"
        },
        {
          "indexed": true,
          "internalType": "address",
          "name": "beneficiary",
          "type": "address"
        },
        {
          "indexed": false,
          "internalType": "uint256",
          "name": "amount",
          "type": "uint256"
        }
      ],
      "name": "CreatedVestingSchedule",
      "type": "event"
    },
    {
      "anonymous": false,
      "inputs": [
        {
          "indexed": true,
          "internalType": "address",
          "name": "delegator",
          "type": "address"
        },
        {
          "indexed": true,
          "internalType": "address",
          "name": "fromDelegate",
          "type": "address"
        },
        {
          "indexed": true,
          "internalType": "address",
          "name": "toDelegate",
          "type": "address"
        }
      ],
      "name": "DelegateChanged",
      "type": "event"
    },
    {
      "anonymous": false,
      "inputs": [
        {
          "indexed": true,
          "internalType": "address",
          "name": "delegate",
          "type": "address"
        },
        {
          "indexed": false,
          "internalType": "uint256",
          "name": "previousBalance",
          "type": "uint256"
        },
        {
          "indexed": false,
          "internalType": "uint256",
          "name": "newBalance",
          "type": "uint256"
        }
      ],
      "name": "DelegateVotesChanged",
      "type": "event"
    },
    {
      "anonymous": false,
      "inputs": [
        {
          "indexed": false,
          "internalType": "uint256",
          "name": "index",
          "type": "uint256"
        },
        {
          "indexed": false,
          "internalType": "address",
          "name": "oldDelegatee",
          "type": "address"
        },
        {
          "indexed": false,
          "internalType": "address",
          "name": "newDelegatee",
          "type": "address"
        }
      ],
      "name": "DelegatedVestingEscrow",
      "type": "event"
    },
    {
      "anonymous": false,
      "inputs": [
        {
          "indexed": false,
          "internalType": "uint8",
          "name": "version",
          "type": "uint8"
        }
      ],
      "name": "Initialized",
      "type": "event"
    },
    {
      "anonymous": false,
      "inputs": [
        {
          "indexed": false,
          "internalType": "uint256",
          "name": "index",
          "type": "uint256"
        },
        {
          "indexed": false,
          "internalType": "uint256",
          "name": "releasedAmount",
          "type": "uint256"
        }
      ],
      "name": "ReleasedVestingSchedule",
      "type": "event"
    },
    {
      "anonymous": false,
      "inputs": [
        {
          "indexed": false,
          "internalType": "uint256",
          "name": "index",
          "type": "uint256"
        },
        {
          "indexed": false,
          "internalType": "uint256",
          "name": "returnedAmount",
          "type": "uint256"
        }
      ],
      "name": "RevokedVestingSchedule",
      "type": "event"
    },
    {
      "anonymous": false,
      "inputs": [
        {
          "indexed": true,
          "internalType": "address",
          "name": "from",
          "type": "address"
        },
        {
          "indexed": true,
          "internalType": "address",
          "name": "to",
          "type": "address"
        },
        {
          "indexed": false,
          "internalType": "uint256",
          "name": "value",
          "type": "uint256"
        }
      ],
      "name": "Transfer",
      "type": "event"
    },
    {
      "inputs": [],
      "name": "DOMAIN_SEPARATOR",
      "outputs": [
        {
          "internalType": "bytes32",
          "name": "",
          "type": "bytes32"
        }
      ],
      "stateMutability": "view",
      "type": "function"
    },
    {
      "inputs": [
        {
          "internalType": "address",
          "name": "owner",
          "type": "address"
        },
        {
          "internalType": "address",
          "name": "spender",
          "type": "address"
        }
      ],
      "name": "allowance",
      "outputs": [
        {
          "internalType": "uint256",
          "name": "",
          "type": "uint256"
        }
      ],
      "stateMutability": "view",
      "type": "function"
    },
    {
      "inputs": [
        {
          "internalType": "address",
          "name": "spender",
          "type": "address"
        },
        {
          "internalType": "uint256",
          "name": "amount",
          "type": "uint256"
        }
      ],
      "name": "approve",
      "outputs": [
        {
          "internalType": "bool",
          "name": "",
          "type": "bool"
        }
      ],
      "stateMutability": "nonpayable",
      "type": "function"
    },
    {
      "inputs": [
        {
          "internalType": "address",
          "name": "account",
          "type": "address"
        }
      ],
      "name": "balanceOf",
      "outputs": [
        {
          "internalType": "uint256",
          "name": "",
          "type": "uint256"
        }
      ],
      "stateMutability": "view",
      "type": "function"
    },
    {
      "inputs": [
        {
          "internalType": "address",
          "name": "account",
          "type": "address"
        },
        {
          "internalType": "uint32",
          "name": "pos",
          "type": "uint32"
        }
      ],
      "name": "checkpoints",
      "outputs": [
        {
          "components": [
            {
              "internalType": "uint32",
              "name": "fromBlock",
              "type": "uint32"
            },
            {
              "internalType": "uint224",
              "name": "votes",
              "type": "uint224"
            }
          ],
          "internalType": "struct ERC20VotesUpgradeable.Checkpoint",
          "name": "",
          "type": "tuple"
        }
      ],
      "stateMutability": "view",
      "type": "function"
    },
    {
      "inputs": [
        {
          "internalType": "uint256",
          "name": "_index",
          "type": "uint256"
        }
      ],
      "name": "computeVestingReleasableAmount",
      "outputs": [
        {
          "internalType": "uint256",
          "name": "",
          "type": "uint256"
        }
      ],
      "stateMutability": "view",
      "type": "function"
    },
    {
      "inputs": [
        {
          "internalType": "uint64",
          "name": "_start",
          "type": "uint64"
        },
        {
          "internalType": "uint32",
          "name": "_cliffDuration",
          "type": "uint32"
        },
        {
          "internalType": "uint32",
          "name": "_duration",
          "type": "uint32"
        },
        {
          "internalType": "uint32",
          "name": "_period",
          "type": "uint32"
        },
        {
          "internalType": "uint32",
          "name": "_lockDuration",
          "type": "uint32"
        },
        {
          "internalType": "bool",
          "name": "_revocable",
          "type": "bool"
        },
        {
          "internalType": "uint256",
          "name": "_amount",
          "type": "uint256"
        },
        {
          "internalType": "address",
          "name": "_beneficiary",
          "type": "address"
        },
        {
          "internalType": "address",
          "name": "_delegatee",
          "type": "address"
        }
      ],
      "name": "createVestingSchedule",
      "outputs": [
        {
          "internalType": "uint256",
          "name": "",
          "type": "uint256"
        }
      ],
      "stateMutability": "nonpayable",
      "type": "function"
    },
    {
      "inputs": [],
      "name": "decimals",
      "outputs": [
        {
          "internalType": "uint8",
          "name": "",
          "type": "uint8"
        }
      ],
      "stateMutability": "view",
      "type": "function"
    },
    {
      "inputs": [
        {
          "internalType": "address",
          "name": "spender",
          "type": "address"
        },
        {
          "internalType": "uint256",
          "name": "subtractedValue",
          "type": "uint256"
        }
      ],
      "name": "decreaseAllowance",
      "outputs": [
        {
          "internalType": "bool",
          "name": "",
          "type": "bool"
        }
      ],
      "stateMutability": "nonpayable",
      "type": "function"
    },
    {
      "inputs": [
        {
          "internalType": "address",
          "name": "delegatee",
          "type": "address"
        }
      ],
      "name": "delegate",
      "outputs": [],
      "stateMutability": "nonpayable",
      "type": "function"
    },
    {
      "inputs": [
        {
          "internalType": "address",
          "name": "delegatee",
          "type": "address"
        },
        {
          "internalType": "uint256",
          "name": "nonce",
          "type": "uint256"
        },
        {
          "internalType": "uint256",
          "name": "expiry",
          "type": "uint256"
        },
        {
          "internalType": "uint8",
          "name": "v",
          "type": "uint8"
        },
        {
          "internalType": "bytes32",
          "name": "r",
          "type": "bytes32"
        },
        {
          "internalType": "bytes32",
          "name": "s",
          "type": "bytes32"
        }
      ],
      "name": "delegateBySig",
      "outputs": [],
      "stateMutability": "nonpayable",
      "type": "function"
    },
    {
      "inputs": [
        {
          "internalType": "uint256",
          "name": "_index",
          "type": "uint256"
        },
        {
          "internalType": "address",
          "name": "_delegatee",
          "type": "address"
        }
      ],
      "name": "delegateVestingEscrow",
      "outputs": [
        {
          "internalType": "bool",
          "name": "",
          "type": "bool"
        }
      ],
      "stateMutability": "nonpayable",
      "type": "function"
    },
    {
      "inputs": [
        {
          "internalType": "address",
          "name": "account",
          "type": "address"
        }
      ],
      "name": "delegates",
      "outputs": [
        {
          "internalType": "address",
          "name": "",
          "type": "address"
        }
      ],
      "stateMutability": "view",
      "type": "function"
    },
    {
      "inputs": [
        {
          "internalType": "uint256",
          "name": "blockNumber",
          "type": "uint256"
        }
      ],
      "name": "getPastTotalSupply",
      "outputs": [
        {
          "internalType": "uint256",
          "name": "",
          "type": "uint256"
        }
      ],
      "stateMutability": "view",
      "type": "function"
    },
    {
      "inputs": [
        {
          "internalType": "address",
          "name": "account",
          "type": "address"
        },
        {
          "internalType": "uint256",
          "name": "blockNumber",
          "type": "uint256"
        }
      ],
      "name": "getPastVotes",
      "outputs": [
        {
          "internalType": "uint256",
          "name": "",
          "type": "uint256"
        }
      ],
      "stateMutability": "view",
      "type": "function"
    },
    {
      "inputs": [
        {
          "internalType": "uint256",
          "name": "_index",
          "type": "uint256"
        }
      ],
      "name": "getVestingSchedule",
      "outputs": [
        {
          "components": [
            {
              "internalType": "uint64",
              "name": "start",
              "type": "uint64"
            },
            {
              "internalType": "uint64",
              "name": "end",
              "type": "uint64"
            },
            {
              "internalType": "uint32",
              "name": "cliffDuration",
              "type": "uint32"
            },
            {
              "internalType": "uint32",
              "name": "lockDuration",
              "type": "uint32"
            },
            {
              "internalType": "uint32",
              "name": "duration",
              "type": "uint32"
            },
            {
              "internalType": "uint32",
              "name": "period",
              "type": "uint32"
            },
            {
              "internalType": "uint256",
              "name": "amount",
              "type": "uint256"
            },
            {
              "internalType": "address",
              "name": "creator",
              "type": "address"
            },
            {
              "internalType": "address",
              "name": "beneficiary",
              "type": "address"
            },
            {
              "internalType": "bool",
              "name": "revocable",
              "type": "bool"
            }
          ],
          "internalType": "struct VestingSchedules.VestingSchedule",
          "name": "",
          "type": "tuple"
        }
      ],
      "stateMutability": "view",
      "type": "function"
    },
    {
      "inputs": [],
      "name": "getVestingScheduleCount",
      "outputs": [
        {
          "internalType": "uint256",
          "name": "",
          "type": "uint256"
        }
      ],
      "stateMutability": "view",
      "type": "function"
    },
    {
      "inputs": [
        {
          "internalType": "address",
          "name": "account",
          "type": "address"
        }
      ],
      "name": "getVotes",
      "outputs": [
        {
          "internalType": "uint256",
          "name": "",
          "type": "uint256"
        }
      ],
      "stateMutability": "view",
      "type": "function"
    },
    {
      "inputs": [
        {
          "internalType": "address",
          "name": "spender",
          "type": "address"
        },
        {
          "internalType": "uint256",
          "name": "addedValue",
          "type": "uint256"
        }
      ],
      "name": "increaseAllowance",
      "outputs": [
        {
          "internalType": "bool",
          "name": "",
          "type": "bool"
        }
      ],
      "stateMutability": "nonpayable",
      "type": "function"
    },
    {
      "inputs": [
        {
          "internalType": "address",
          "name": "_account",
          "type": "address"
        }
      ],
      "name": "initTLCV1",
      "outputs": [],
      "stateMutability": "nonpayable",
      "type": "function"
    },
    {
      "inputs": [],
      "name": "name",
      "outputs": [
        {
          "internalType": "string",
          "name": "",
          "type": "string"
        }
      ],
      "stateMutability": "view",
      "type": "function"
    },
    {
      "inputs": [
        {
          "internalType": "address",
          "name": "owner",
          "type": "address"
        }
      ],
      "name": "nonces",
      "outputs": [
        {
          "internalType": "uint256",
          "name": "",
          "type": "uint256"
        }
      ],
      "stateMutability": "view",
      "type": "function"
    },
    {
      "inputs": [
        {
          "internalType": "address",
          "name": "account",
          "type": "address"
        }
      ],
      "name": "numCheckpoints",
      "outputs": [
        {
          "internalType": "uint32",
          "name": "",
          "type": "uint32"
        }
      ],
      "stateMutability": "view",
      "type": "function"
    },
    {
      "inputs": [
        {
          "internalType": "address",
          "name": "owner",
          "type": "address"
        },
        {
          "internalType": "address",
          "name": "spender",
          "type": "address"
        },
        {
          "internalType": "uint256",
          "name": "value",
          "type": "uint256"
        },
        {
          "internalType": "uint256",
          "name": "deadline",
          "type": "uint256"
        },
        {
          "internalType": "uint8",
          "name": "v",
          "type": "uint8"
        },
        {
          "internalType": "bytes32",
          "name": "r",
          "type": "bytes32"
        },
        {
          "internalType": "bytes32",
          "name": "s",
          "type": "bytes32"
        }
      ],
      "name": "permit",
      "outputs": [],
      "stateMutability": "nonpayable",
      "type": "function"
    },
    {
      "inputs": [
        {
          "internalType": "uint256",
          "name": "_index",
          "type": "uint256"
        }
      ],
      "name": "releaseVestingSchedule",
      "outputs": [
        {
          "internalType": "uint256",
          "name": "",
          "type": "uint256"
        }
      ],
      "stateMutability": "nonpayable",
      "type": "function"
    },
    {
      "inputs": [
        {
          "internalType": "uint256",
          "name": "_index",
          "type": "uint256"
        },
        {
          "internalType": "uint64",
          "name": "_end",
          "type": "uint64"
        }
      ],
      "name": "revokeVestingSchedule",
      "outputs": [
        {
          "internalType": "uint256",
          "name": "",
          "type": "uint256"
        }
      ],
      "stateMutability": "nonpayable",
      "type": "function"
    },
    {
      "inputs": [],
      "name": "symbol",
      "outputs": [
        {
          "internalType": "string",
          "name": "",
          "type": "string"
        }
      ],
      "stateMutability": "view",
      "type": "function"
    },
    {
      "inputs": [],
      "name": "totalSupply",
      "outputs": [
        {
          "internalType": "uint256",
          "name": "",
          "type": "uint256"
        }
      ],
      "stateMutability": "view",
      "type": "function"
    },
    {
      "inputs": [
        {
          "internalType": "address",
          "name": "to",
          "type": "address"
        },
        {
          "internalType": "uint256",
          "name": "amount",
          "type": "uint256"
        }
      ],
      "name": "transfer",
      "outputs": [
        {
          "internalType": "bool",
          "name": "",
          "type": "bool"
        }
      ],
      "stateMutability": "nonpayable",
      "type": "function"
    },
    {
      "inputs": [
        {
          "internalType": "address",
          "name": "from",
          "type": "address"
        },
        {
          "internalType": "address",
          "name": "to",
          "type": "address"
        },
        {
          "internalType": "uint256",
          "name": "amount",
          "type": "uint256"
        }
      ],
      "name": "transferFrom",
      "outputs": [
        {
          "internalType": "bool",
          "name": "",
          "type": "bool"
        }
      ],
      "stateMutability": "nonpayable",
      "type": "function"
    },
    {
      "inputs": [
        {
          "internalType": "uint256",
          "name": "_index",
          "type": "uint256"
        }
      ],
      "name": "vestingEscrow",
      "outputs": [
        {
          "internalType": "address",
          "name": "",
          "type": "address"
        }
      ],
      "stateMutability": "view",
      "type": "function"
    }
  ],
  "transactionHash": "0xdf062ea3c0c78ac39e14be1b0a5d9672bb8b405e216e07a3d0bd32b9dba2e7e8",
  "args": [],
  "numDeployments": 1,
  "solcInputHash": "6778d75b52431056be6c2708d23cfaba",
  "bytecode": "0x608060405234801561001057600080fd5b506131c7806100206000396000f3fe608060405234801561001057600080fd5b50600436106101a55760003560e01c80637ecebe00116100ef578063a9059cbb11610092578063a9059cbb14610378578063beb8f8831461038b578063c3cda520146103ab578063d505accf146103be578063dd62ed3e146103d1578063decc7224146103e4578063f0519be0146103f7578063f1127ed81461040a57600080fd5b80637ecebe00146102f65780638e539e8c146103095780638fb8ad841461031c5780639295ccec1461032f57806395d89b41146103375780639ab24eb01461033f578063a33773f614610352578063a457c2d71461036557600080fd5b80633644e515116101575780633644e51514610247578063395093511461024f5780633a46b1a814610262578063574d918314610275578063587cde1e146102885780635c19a95c146102a85780636fcfff45146102bb57806370a08231146102e357600080fd5b806306fdde03146101aa578063095ea7b3146101c857806318160ddd146101eb57806323b872dd146101fd57806323dd35b41461021057806328766ffd14610223578063313ce56714610238575b600080fd5b6101b2610447565b6040516101bf9190612b5c565b60405180910390f35b6101db6101d6366004612bcd565b6104d9565b60405190151581526020016101bf565b6035545b6040519081526020016101bf565b6101db61020b366004612bf7565b6104f3565b6101db61021e366004612c33565b610519565b610236610231366004612c5f565b610525565b005b604051601281526020016101bf565b6101ef6106d3565b6101db61025d366004612bcd565b6106e2565b6101ef610270366004612bcd565b610704565b6101ef610283366004612c7a565b610747565b61029b610296366004612c5f565b610752565b6040516101bf9190612c93565b6102366102b6366004612c5f565b610770565b6102ce6102c9366004612c5f565b61077d565b60405163ffffffff90911681526020016101bf565b6101ef6102f1366004612c5f565b61079f565b6101ef610304366004612c5f565b6107ba565b6101ef610317366004612c7a565b6107d8565b6101ef61032a366004612c7a565b610804565b6101ef6108d7565b6101b26108e1565b6101ef61034d366004612c5f565b6108f0565b6101ef610360366004612cd2565b610976565b6101db610373366004612bcd565b610998565b6101db610386366004612bcd565b610a1e565b61039e610399366004612c7a565b610a2c565b6040516101bf9190612d7a565b6102366103b9366004612e65565b610b31565b6102366103cc366004612ebd565b610c63565b6101ef6103df366004612f27565b610dc7565b61029b6103f2366004612c7a565b610df2565b6101ef610405366004612f51565b610dfd565b61041d610418366004612f74565b610e09565b60408051825163ffffffff1681526020928301516001600160e01b031692810192909252016101bf565b60606036805461045690612f9e565b80601f016020809104026020016040519081016040528092919081815260200182805461048290612f9e565b80156104cf5780601f106104a4576101008083540402835291602001916104cf565b820191906000526020600020905b8154815290600101906020018083116104b257829003601f168201915b5050505050905090565b6000336104e7818585610e8c565b60019150505b92915050565b600033610501858285610fb0565b61050c85858561102a565b60019150505b9392505050565b600061051283836111db565b600054610100900460ff16158080156105455750600054600160ff909116105b8061055f5750303b15801561055f575060005460ff166001145b6105c75760405162461bcd60e51b815260206004820152602e60248201527f496e697469616c697a61626c653a20636f6e747261637420697320616c72656160448201526d191e481a5b9a5d1a585b1a5e995960921b60648201526084015b60405180910390fd5b6000805460ff1916600117905580156105ea576000805461ff0019166101001790555b6105f382611292565b610625604051806040016040528060118152602001704c697175696420436f6c6c65637469766560781b8152506112b9565b610673604051806040016040528060118152602001704c697175696420436f6c6c65637469766560781b81525060405180604001604052806003815260200162544c4360e81b815250611303565b610689826b033b2e3c9fd0803ce8000000611334565b80156106cf576000805461ff0019169055604051600181527f7f26b83ff96e1f2b6a682f133852f6798a09c465da95921460cefb38474024989060200160405180910390a15b5050565b60006106dd6113be565b905090565b6000336104e78185856106f58383610dc7565b6106ff9190612fe9565b610e8c565b60004382106107255760405162461bcd60e51b81526004016105be90613001565b6001600160a01b038316600090815260cd602052604090206105129083611439565b60006104ed8261152f565b6001600160a01b03908116600090815260cc60205260409020541690565b61077a33826116d8565b50565b6001600160a01b038116600090815260cd60205260408120546104ed90611758565b6001600160a01b031660009081526033602052604090205490565b6001600160a01b0381166000908152609960205260408120546104ed565b60004382106107f95760405162461bcd60e51b81526004016105be90613001565b6104ed60ce83611439565b600080610810836117c1565b9050600061081d8461183b565b604080516101408101825282546001600160401b038082168352600160401b8204166020830152600160801b810463ffffffff90811693830193909352600160a01b80820484166060840152600160c01b820484166080840152600160e01b90910490921660a0820152600183015460c082015260028301546001600160a01b0390811660e0830152600390930154928316610100820152910460ff16151561012082015290506108cf8183426118ac565b949350505050565b60006106dd61192e565b60606037805461045690612f9e565b6001600160a01b038116600090815260cd60205260408120548015610963576001600160a01b038316600090815260cd60205260409020610932600183613038565b815481106109425761094261304f565b600091825260209091200154600160201b90046001600160e01b0316610966565b60005b6001600160e01b03169392505050565b600061098a3384848d8d8d8d8d8d8d611951565b9a9950505050505050505050565b600033816109a68286610dc7565b905083811015610a065760405162461bcd60e51b815260206004820152602560248201527f45524332303a2064656372656173656420616c6c6f77616e63652062656c6f77604482015264207a65726f60d81b60648201526084016105be565b610a138286868403610e8c565b506001949350505050565b6000336104e781858561102a565b6040805161014081018252600080825260208201819052918101829052606081018290526080810182905260a0810182905260c0810182905260e081018290526101008101829052610120810191909152610a868261183b565b604080516101408101825282546001600160401b038082168352600160401b8204166020830152600160801b810463ffffffff90811693830193909352600160a01b80820484166060840152600160c01b820484166080840152600160e01b90910490921660a0820152600183015460c082015260028301546001600160a01b0390811660e0830152600390930154928316610100820152910460ff16151561012082015292915050565b83421115610b815760405162461bcd60e51b815260206004820152601d60248201527f4552433230566f7465733a207369676e6174757265206578706972656400000060448201526064016105be565b604080517fe48329057bfd03d55e49b547132e39cffd9c1820ad7b9d4c5307691425d15adf60208201526001600160a01b038816918101919091526060810186905260808101859052600090610bfb90610bf39060a00160405160208183030381529060405280519060200120611d83565b858585611dd1565b9050610c0681611df9565b8614610c505760405162461bcd60e51b81526020600482015260196024820152784552433230566f7465733a20696e76616c6964206e6f6e636560381b60448201526064016105be565b610c5a81886116d8565b50505050505050565b83421115610cb35760405162461bcd60e51b815260206004820152601d60248201527f45524332305065726d69743a206578706972656420646561646c696e6500000060448201526064016105be565b60007f6e71edae12b1b97f4d1f60370fef10105fa2faae0126114a169c64845d6126c9888888610ce28c611df9565b6040805160208101969096526001600160a01b0394851690860152929091166060840152608083015260a082015260c0810186905260e0016040516020818303038152906040528051906020012090506000610d3d82611d83565b90506000610d4d82878787611dd1565b9050896001600160a01b0316816001600160a01b031614610db05760405162461bcd60e51b815260206004820152601e60248201527f45524332305065726d69743a20696e76616c6964207369676e6174757265000060448201526064016105be565b610dbb8a8a8a610e8c565b50505050505050505050565b6001600160a01b03918216600090815260346020908152604080832093909416825291909152205490565b60006104ed826117c1565b60006105128383611e21565b60408051808201909152600080825260208201526001600160a01b038316600090815260cd60205260409020805463ffffffff8416908110610e4d57610e4d61304f565b60009182526020918290206040805180820190915291015463ffffffff81168252600160201b90046001600160e01b0316918101919091529392505050565b6001600160a01b038316610eee5760405162461bcd60e51b8152602060048201526024808201527f45524332303a20617070726f76652066726f6d20746865207a65726f206164646044820152637265737360e01b60648201526084016105be565b6001600160a01b038216610f4f5760405162461bcd60e51b815260206004820152602260248201527f45524332303a20617070726f766520746f20746865207a65726f206164647265604482015261737360f01b60648201526084016105be565b6001600160a01b0383811660008181526034602090815260408083209487168084529482529182902085905590518481527f8c5be1e5ebec7d5bd14f71427d1e84f3dd0314c0f7b2291e5b200ac8c7c3b925910160405180910390a3505050565b6000610fbc8484610dc7565b9050600019811461102457818110156110175760405162461bcd60e51b815260206004820152601d60248201527f45524332303a20696e73756666696369656e7420616c6c6f77616e636500000060448201526064016105be565b6110248484848403610e8c565b50505050565b6001600160a01b03831661108e5760405162461bcd60e51b815260206004820152602560248201527f45524332303a207472616e736665722066726f6d20746865207a65726f206164604482015264647265737360d81b60648201526084016105be565b6001600160a01b0382166110f05760405162461bcd60e51b815260206004820152602360248201527f45524332303a207472616e7366657220746f20746865207a65726f206164647260448201526265737360e81b60648201526084016105be565b6001600160a01b038316600090815260336020526040902054818110156111685760405162461bcd60e51b815260206004820152602660248201527f45524332303a207472616e7366657220616d6f756e7420657863656564732062604482015265616c616e636560d01b60648201526084016105be565b6001600160a01b0380851660008181526033602052604080822086860390559286168082529083902080548601905591517fddf252ad1be2c89b69c2b068fc378daa952ba7f163c4a11628f55a4df523b3ef906111c89086815260200190565b60405180910390a3611024848484612080565b6000806111e78461183b565b60038101549091506001600160a01b03163314611219573360405163472511eb60e11b81526004016105be9190612c93565b6000611224856117c1565b9050600061123182610752565b905061123d82866116d8565b604080518781526001600160a01b03838116602083015287168183015290517f9b9f521ec6aefca410a7e6f15a2d72e95a55a37543ed8cfebe25c600e5344ca99181900360600190a150600195945050505050565b6001600160a01b03811661077a5760405163f6b2911f60e01b815260040160405180910390fd5b600054610100900460ff166112e05760405162461bcd60e51b81526004016105be90613065565b61077a81604051806040016040528060018152602001603160f81b81525061209b565b600054610100900460ff1661132a5760405162461bcd60e51b81526004016105be90613065565b6106cf82826120dc565b61133e828261212a565b6035546001600160e01b0310156113b05760405162461bcd60e51b815260206004820152603060248201527f4552433230566f7465733a20746f74616c20737570706c79207269736b73206f60448201526f766572666c6f77696e6720766f74657360801b60648201526084016105be565b61102460ce6121f3836121ff565b60006106dd7f8b73c3c69bb8fe3d512ecc4cf759cc79239f7b179b0ffacaa9a75d522b39400f6113ed60655490565b6066546040805160208101859052908101839052606081018290524660808201523060a082015260009060c0016040516020818303038152906040528051906020012090509392505050565b81546000908181600581111561149357600061145484612350565b61145e9085613038565b600088815260209020909150869082015463ffffffff16111561148357809150611491565b61148e816001612fe9565b92505b505b808210156114e05760006114a78383612435565b600088815260209020909150869082015463ffffffff1611156114cc578091506114da565b6114d7816001612fe9565b92505b50611493565b801561151957611503866114f5600184613038565b600091825260209091200190565b54600160201b90046001600160e01b031661151c565b60005b6001600160e01b03169695505050505050565b60008061153b8361183b565b604080516101408101825282546001600160401b038082168352600160401b8204166020830152600160801b810463ffffffff90811693830193909352600160a01b80820484166060840152600160c01b820484166080840152600160e01b90910490921660a0820152600183015460c082015260028301546001600160a01b0390811660e083015260039093015492831661010082018190529190920460ff1615156101208301529091503314611608573360405163472511eb60e11b81526004016105be9190612c93565b6060810151815142916116239163ffffffff909116906130b0565b6001600160401b031681101561164c5760405163fad681e760e01b815260040160405180910390fd5b6000611657856117c1565b905060006116668483856118ac565b90508061168657604051630fe6b58b60e41b815260040160405180910390fd5b611696828561010001518361102a565b60408051878152602081018390527f8e54a80e4adf22e5669cda627d76c97a21b0a2a54fab3b48b1b38b97b29580f0910160405180910390a195945050505050565b60006116e383610752565b905060006116f08461079f565b6001600160a01b03858116600081815260cc602052604080822080546001600160a01b031916898616908117909155905194955093928616927f3134e8a2e6d97e929a7e54011ea5485d7d196dd5f0ba4d4ef95803e8e3fc257f9190a4611024828483612450565b600063ffffffff8211156117bd5760405162461bcd60e51b815260206004820152602660248201527f53616665436173743a2076616c756520646f65736e27742066697420696e203360448201526532206269747360d01b60648201526084016105be565b5090565b600080306117f060017f5c24c10d65ac9aa9e0f7f63d96fe83c89107fae52b4ef778334c906c1ec5c1ed613038565b60405160609290921b6bffffffffffffffffffffffff1916602083015260348201526054810184905260740160408051601f1981840301815291905280516020909101209392505050565b6000806118576001600080516020613172833981519152613038565b8054909150819084106118805760405163ad7d6e0960e01b8152600481018590526024016105be565b8060000184815481106118955761189561304f565b906000526020600020906004020192505050919050565b600083602001516001600160401b03168210156119255760006118cf858461258d565b905060006118dc8561079f565b6118f38788602001516001600160401b031661258d565b6118fd9190613038565b90508082111561191a576119118183613038565b92505050610512565b600092505050610512565b6108cf8361079f565b60008061194a6001600080516020613172833981519152613038565b5492915050565b60008161195d8c61079f565b101561197c57604051633464861d60e21b815260040160405180910390fd5b6001600160a01b038a166119f157604051630d63fe3160e31b815260206004820152603560248201527f56657374696e67207363686564756c652062656e6566696369617279206d757360448201527474206265206e6f6e207a65726f206164647265737360581b60648201526084016105be565b63ffffffff8616611a5357604051630d63fe3160e31b815260206004820152602560248201527f56657374696e67207363686564756c65206475726174696f6e206d7573742062604482015264065203e20360dc1b60648201526084016105be565b81611aad57604051630d63fe3160e31b815260206004820152602360248201527f56657374696e67207363686564756c6520616d6f756e74206d7573742062652060448201526203e20360ec1b60648201526084016105be565b63ffffffff8516611b0d57604051630d63fe3160e31b815260206004820152602360248201527f56657374696e67207363686564756c6520706572696f64206d7573742062652060448201526203e20360ec1b60648201526084016105be565b6000611b1986886130f1565b63ffffffff161115611b8c57604051630d63fe3160e31b815260206004820152603560248201527f56657374696e67207363686564756c65206475726174696f6e206d7573742073604482015274706c697420696e20657861637420706572696f647360581b60648201526084016105be565b8563ffffffff168763ffffffff161115611c1957604051630d63fe3160e31b815260206004820152604160248201527f56657374696e67207363686564756c65206475726174696f6e206d757374206260448201527f652067726561746572207468616e2074686520636c696666206475726174696f6064820152603760f91b608482015260a4016105be565b6001600160401b038816611c2b574297505b60006040518061014001604052808a6001600160401b031681526020018863ffffffff168b611c5a91906130b0565b6001600160401b031681526020018963ffffffff1681526020018663ffffffff1681526020018863ffffffff1681526020018763ffffffff1681526020018481526020018d6001600160a01b031681526020018c6001600160a01b03168152602001851515815250905060006001611cd18361265e565b611cdb9190613038565b90506000611ce8826117c1565b9050611cf58e828761102a565b6001600160a01b038c16611d1257611d0d818e6116d8565b611d1c565b611d1c818d6116d8565b8c6001600160a01b03168e6001600160a01b03167fb0274f4a20cdf2005bb6a28aab72868f144d56c0828753a0f6edc7a62ef131b18488604051611d6a929190918252602082015260400190565b60405180910390a3509c9b505050505050505050505050565b60006104ed611d906113be565b8360405161190160f01b6020820152602281018390526042810182905260009060620160405160208183030381529060405280519060200120905092915050565b6000806000611de2878787876127aa565b91509150611def81612864565b5095945050505050565b6001600160a01b03811660009081526099602052604090208054600181018255905b50919050565b60006001600160401b038216611e3957429150611e63565b42826001600160401b03161015611e63576040516317518afb60e11b815260040160405180910390fd5b6000611e6e8461183b565b6003810154909150600160a01b900460ff16611e9d576040516341a76da360e01b815260040160405180910390fd5b80546001600160401b039081169084161080611ecc575080546001600160401b03808516600160401b90920416105b15611eea57604051635178474560e11b815260040160405180910390fd5b60028101546001600160a01b03163314611f19573360405163472511eb60e11b81526004016105be9190612c93565b6000611f24856117c1565b604080516101408101825284546001600160401b038082168352600160401b820481166020840152600160801b820463ffffffff90811694840194909452600160a01b80830485166060850152600160c01b830485166080850152600160e01b90920490931660a0830152600186015460c083015260028601546001600160a01b0390811660e084015260038701549081166101008401520460ff161515610120820152919250600091611fdb91849088166118ac565b9050600081611fe98461079f565b611ff39190613038565b905080156120155760028401546120159084906001600160a01b03168361102a565b835467ffffffffffffffff60401b1916600160401b6001600160401b0388160217845560408051888152602081018390527fb9a2f4ba0df83f83fc8fb222ccd77a947d0e8c212e217bf1f3d2bc2142e5082c910160405180910390a19695505050505050565b505050565b61207b61208c84610752565b61209584610752565b83612450565b600054610100900460ff166120c25760405162461bcd60e51b81526004016105be90613065565b815160209283012081519190920120606591909155606655565b600054610100900460ff166121035760405162461bcd60e51b81526004016105be90613065565b8151612116906036906020850190612acc565b50805161207b906037906020840190612acc565b6001600160a01b0382166121805760405162461bcd60e51b815260206004820152601f60248201527f45524332303a206d696e7420746f20746865207a65726f20616464726573730060448201526064016105be565b80603560008282546121929190612fe9565b90915550506001600160a01b0382166000818152603360209081526040808320805486019055518481527fddf252ad1be2c89b69c2b068fc378daa952ba7f163c4a11628f55a4df523b3ef910160405180910390a36106cf60008383612080565b60006105128284612fe9565b8254600090819081811561224b5761221c876114f5600185613038565b60408051808201909152905463ffffffff81168252600160201b90046001600160e01b03166020820152612260565b60408051808201909152600080825260208201525b905080602001516001600160e01b0316935061228084868863ffffffff16565b92506000821180156122985750805163ffffffff1643145b156122dc576122a6836129ad565b6122b5886114f5600186613038565b80546001600160e01b0392909216600160201b0263ffffffff909216919091179055612346565b8660405180604001604052806122f143611758565b63ffffffff168152602001612305866129ad565b6001600160e01b039081169091528254600181018455600093845260209384902083519490930151909116600160201b0263ffffffff909316929092179101555b5050935093915050565b60008161235f57506000919050565b6000600161236c84612a16565b901c6001901b90506001818481612385576123856130db565b048201901c9050600181848161239d5761239d6130db565b048201901c905060018184816123b5576123b56130db565b048201901c905060018184816123cd576123cd6130db565b048201901c905060018184816123e5576123e56130db565b048201901c905060018184816123fd576123fd6130db565b048201901c90506001818481612415576124156130db565b048201901c90506105128182858161242f5761242f6130db565b04612aaa565b60006124446002848418613114565b61051290848416612fe9565b816001600160a01b0316836001600160a01b0316141580156124725750600081115b1561207b576001600160a01b03831615612500576001600160a01b038316600090815260cd6020526040812081906124ad90612ac0856121ff565b91509150846001600160a01b03167fdec2bacdd2f05b59de34da9b523dff8be42e5e38e818c82fdb0bae774387a72483836040516124f5929190918252602082015260400190565b60405180910390a250505b6001600160a01b0382161561207b576001600160a01b038216600090815260cd602052604081208190612536906121f3856121ff565b91509150836001600160a01b03167fdec2bacdd2f05b59de34da9b523dff8be42e5e38e818c82fdb0bae774387a724838360405161257e929190918252602082015260400190565b60405180910390a25050505050565b6000826040015163ffffffff1683600001516125a991906130b0565b6001600160401b03168210156125c1575060006104ed565b608083015183516125d89163ffffffff16906130b0565b6001600160401b031682106125f2575060c08201516104ed565b825160009061260a906001600160401b031684613038565b905060008460a0015163ffffffff16826126249190613128565b61262e9083613038565b9050846080015163ffffffff168560c001518261264b919061313c565b6126559190613114565b925050506104ed565b60008061267a6001600080516020613172833981519152613038565b80546001808201835560008381526020908190208751600490940201805491880151604089015160608a015160808b015160a08c01516001600160401b039889166001600160801b031990971696909617600160401b98909416979097029290921767ffffffffffffffff60801b1916600160801b63ffffffff9283160263ffffffff60a01b191617600160a01b9282168302176001600160c01b0316600160c01b968216969096026001600160e01b031695909517600160e01b959093169490940291909117815560c08701519181019190915560e08601516002820180546001600160a01b0319166001600160a01b039283161790556101008701516003909201805461012090980151929091166001600160a81b0319909716969096179015159091021790935550505490565b6000806fa2a8918ca85bafe22016d0b997e4df60600160ff1b038311156127d7575060009050600361285b565b6040805160008082526020820180845289905260ff881692820192909252606081018690526080810185905260019060a0016020604051602081039080840390855afa15801561282b573d6000803e3d6000fd5b5050604051601f1901519150506001600160a01b0381166128545760006001925092505061285b565b9150600090505b94509492505050565b60008160048111156128785761287861315b565b14156128815750565b60018160048111156128955761289561315b565b14156128de5760405162461bcd60e51b815260206004820152601860248201527745434453413a20696e76616c6964207369676e617475726560401b60448201526064016105be565b60028160048111156128f2576128f261315b565b14156129405760405162461bcd60e51b815260206004820152601f60248201527f45434453413a20696e76616c6964207369676e6174757265206c656e6774680060448201526064016105be565b60038160048111156129545761295461315b565b141561077a5760405162461bcd60e51b815260206004820152602260248201527f45434453413a20696e76616c6964207369676e6174757265202773272076616c604482015261756560f01b60648201526084016105be565b60006001600160e01b038211156117bd5760405162461bcd60e51b815260206004820152602760248201527f53616665436173743a2076616c756520646f65736e27742066697420696e20326044820152663234206269747360c81b60648201526084016105be565b600080608083901c15612a2b57608092831c92015b604083901c15612a3d57604092831c92015b602083901c15612a4f57602092831c92015b601083901c15612a6157601092831c92015b600883901c15612a7357600892831c92015b600483901c15612a8557600492831c92015b600283901c15612a9757600292831c92015b600183901c156104ed5760010192915050565b6000818310612ab95781610512565b5090919050565b60006105128284613038565b828054612ad890612f9e565b90600052602060002090601f016020900481019282612afa5760008555612b40565b82601f10612b1357805160ff1916838001178555612b40565b82800160010185558215612b40579182015b82811115612b40578251825591602001919060010190612b25565b506117bd9291505b808211156117bd5760008155600101612b48565b600060208083528351808285015260005b81811015612b8957858101830151858201604001528201612b6d565b81811115612b9b576000604083870101525b50601f01601f1916929092016040019392505050565b80356001600160a01b0381168114612bc857600080fd5b919050565b60008060408385031215612be057600080fd5b612be983612bb1565b946020939093013593505050565b600080600060608486031215612c0c57600080fd5b612c1584612bb1565b9250612c2360208501612bb1565b9150604084013590509250925092565b60008060408385031215612c4657600080fd5b82359150612c5660208401612bb1565b90509250929050565b600060208284031215612c7157600080fd5b61051282612bb1565b600060208284031215612c8c57600080fd5b5035919050565b6001600160a01b0391909116815260200190565b80356001600160401b0381168114612bc857600080fd5b803563ffffffff81168114612bc857600080fd5b60008060008060008060008060006101208a8c031215612cf157600080fd5b612cfa8a612ca7565b9850612d0860208b01612cbe565b9750612d1660408b01612cbe565b9650612d2460608b01612cbe565b9550612d3260808b01612cbe565b945060a08a01358015158114612d4757600080fd5b935060c08a01359250612d5c60e08b01612bb1565b9150612d6b6101008b01612bb1565b90509295985092959850929598565b81516001600160401b0316815261014081016020830151612da660208401826001600160401b03169052565b506040830151612dbe604084018263ffffffff169052565b506060830151612dd6606084018263ffffffff169052565b506080830151612dee608084018263ffffffff169052565b5060a0830151612e0660a084018263ffffffff169052565b5060c083015160c083015260e0830151612e2b60e08401826001600160a01b03169052565b50610100838101516001600160a01b031690830152610120928301511515929091019190915290565b803560ff81168114612bc857600080fd5b60008060008060008060c08789031215612e7e57600080fd5b612e8787612bb1565b95506020870135945060408701359350612ea360608801612e54565b92506080870135915060a087013590509295509295509295565b600080600080600080600060e0888a031215612ed857600080fd5b612ee188612bb1565b9650612eef60208901612bb1565b95506040880135945060608801359350612f0b60808901612e54565b925060a0880135915060c0880135905092959891949750929550565b60008060408385031215612f3a57600080fd5b612f4383612bb1565b9150612c5660208401612bb1565b60008060408385031215612f6457600080fd5b82359150612c5660208401612ca7565b60008060408385031215612f8757600080fd5b612f9083612bb1565b9150612c5660208401612cbe565b600181811c90821680612fb257607f821691505b60208210811415611e1b57634e487b7160e01b600052602260045260246000fd5b634e487b7160e01b600052601160045260246000fd5b60008219821115612ffc57612ffc612fd3565b500190565b6020808252601f908201527f4552433230566f7465733a20626c6f636b206e6f7420796574206d696e656400604082015260600190565b60008282101561304a5761304a612fd3565b500390565b634e487b7160e01b600052603260045260246000fd5b6020808252602b908201527f496e697469616c697a61626c653a20636f6e7472616374206973206e6f74206960408201526a6e697469616c697a696e6760a81b606082015260800190565b60006001600160401b038083168185168083038211156130d2576130d2612fd3565b01949350505050565b634e487b7160e01b600052601260045260246000fd5b600063ffffffff80841680613108576131086130db565b92169190910692915050565b600082613123576131236130db565b500490565b600082613137576131376130db565b500690565b600081600019048311821515161561315657613156612fd3565b500290565b634e487b7160e01b600052602160045260246000fdfef828a756855b22b2018e6c442f4e4296eacda2c58e90fa4824ff32229d084d62a26469706673582212207fc427e03b94aa9dba6c534f9891d00d83249f7ce4bdeea7d91f58fbcb9fab3264736f6c634300080a0033",
  "devdoc": {
    "errors": {
      "Unauthorized(address)": [
        {
          "params": {
            "caller": "Address performing the call"
          }
        }
      ],
      "VestingScheduleNotFound(uint256)": [
        {
          "params": {
            "index": "vesting schedule index"
          }
        }
      ]
    },
    "kind": "dev",
    "methods": {
      "DOMAIN_SEPARATOR()": {
        "details": "See {IERC20Permit-DOMAIN_SEPARATOR}."
      },
      "allowance(address,address)": {
        "details": "See {IERC20-allowance}."
      },
      "approve(address,uint256)": {
        "details": "See {IERC20-approve}. NOTE: If `amount` is the maximum `uint256`, the allowance is not updated on `transferFrom`. This is semantically equivalent to an infinite approval. Requirements: - `spender` cannot be the zero address."
      },
      "balanceOf(address)": {
        "details": "See {IERC20-balanceOf}."
      },
      "checkpoints(address,uint32)": {
        "details": "Get the `pos`-th checkpoint for `account`."
      },
      "computeVestingReleasableAmount(uint256)": {
        "params": {
          "_index": "index of the vesting schedule"
        },
        "returns": {
          "_0": "amount of release tokens"
        }
      },
      "createVestingSchedule(uint64,uint32,uint32,uint32,uint32,bool,uint256,address,address)": {
        "params": {
          "_amount": "amount of token attributed by the vesting schedule",
          "_beneficiary": "address of the beneficiary of the tokens",
          "_cliffDuration": "duration to vesting cliff (in seconds)",
          "_delegatee": "address to delegate escrow voting power to",
          "_duration": "total vesting schedule duration after which all tokens are vested (in seconds)",
          "_lockDuration": "duration during which tokens are locked (in seconds)",
          "_period": "duration of a period after which new tokens unlock (in seconds)",
          "_revocable": "whether the vesting schedule is revocable or not",
          "_start": "start time of the vesting"
        },
        "returns": {
          "_0": "index of the created vesting schedule"
        }
      },
      "decimals()": {
        "details": "Returns the number of decimals used to get its user representation. For example, if `decimals` equals `2`, a balance of `505` tokens should be displayed to a user as `5.05` (`505 / 10 ** 2`). Tokens usually opt for a value of 18, imitating the relationship between Ether and Wei. This is the value {ERC20} uses, unless this function is overridden; NOTE: This information is only used for _display_ purposes: it in no way affects any of the arithmetic of the contract, including {IERC20-balanceOf} and {IERC20-transfer}."
      },
      "decreaseAllowance(address,uint256)": {
        "details": "Atomically decreases the allowance granted to `spender` by the caller. This is an alternative to {approve} that can be used as a mitigation for problems described in {IERC20-approve}. Emits an {Approval} event indicating the updated allowance. Requirements: - `spender` cannot be the zero address. - `spender` must have allowance for the caller of at least `subtractedValue`."
      },
      "delegate(address)": {
        "details": "Delegate votes from the sender to `delegatee`."
      },
      "delegateBySig(address,uint256,uint256,uint8,bytes32,bytes32)": {
        "details": "Delegates votes from signer to `delegatee`"
      },
      "delegateVestingEscrow(uint256,address)": {
        "params": {
          "_delegatee": "address to delegate the token to",
          "_index": "index of the vesting schedule"
        }
      },
      "delegates(address)": {
        "details": "Get the address `account` is currently delegating to."
      },
      "getPastTotalSupply(uint256)": {
        "details": "Retrieve the `totalSupply` at the end of `blockNumber`. Note, this value is the sum of all balances. It is but NOT the sum of all the delegated votes! Requirements: - `blockNumber` must have been already mined"
      },
      "getPastVotes(address,uint256)": {
        "details": "Retrieve the number of votes for `account` at the end of `blockNumber`. Requirements: - `blockNumber` must have been already mined"
      },
      "getVestingSchedule(uint256)": {
        "params": {
          "_index": "Index of the vesting schedule"
        }
      },
      "getVestingScheduleCount()": {
        "returns": {
          "_0": "count of vesting schedules"
        }
      },
      "getVotes(address)": {
        "details": "Gets the current votes balance for `account`"
      },
      "increaseAllowance(address,uint256)": {
        "details": "Atomically increases the allowance granted to `spender` by the caller. This is an alternative to {approve} that can be used as a mitigation for problems described in {IERC20-approve}. Emits an {Approval} event indicating the updated allowance. Requirements: - `spender` cannot be the zero address."
      },
      "initTLCV1(address)": {
        "params": {
          "_account": "The initial account to grant all the minted tokens"
        }
      },
      "name()": {
        "details": "Returns the name of the token."
      },
      "nonces(address)": {
        "details": "See {IERC20Permit-nonces}."
      },
      "numCheckpoints(address)": {
        "details": "Get number of checkpoints for `account`."
      },
      "permit(address,address,uint256,uint256,uint8,bytes32,bytes32)": {
        "details": "See {IERC20Permit-permit}."
      },
      "releaseVestingSchedule(uint256)": {
        "params": {
          "_index": "Index of the vesting schedule to release"
        },
        "returns": {
          "_0": "released amount"
        }
      },
      "revokeVestingSchedule(uint256,uint64)": {
        "params": {
          "_end": "End date for the schedule",
          "_index": "Index of the vesting schedule to revoke"
        },
        "returns": {
          "_0": "amount returned to the vesting schedule creator"
        }
      },
      "symbol()": {
        "details": "Returns the symbol of the token, usually a shorter version of the name."
      },
      "totalSupply()": {
        "details": "See {IERC20-totalSupply}."
      },
      "transfer(address,uint256)": {
        "details": "See {IERC20-transfer}. Requirements: - `to` cannot be the zero address. - the caller must have a balance of at least `amount`."
      },
      "transferFrom(address,address,uint256)": {
        "details": "See {IERC20-transferFrom}. Emits an {Approval} event indicating the updated allowance. This is not required by the EIP. See the note at the beginning of {ERC20}. NOTE: Does not update the allowance if the current allowance is the maximum `uint256`. Requirements: - `from` and `to` cannot be the zero address. - `from` must have a balance of at least `amount`. - the caller must have allowance for ``from``'s tokens of at least `amount`."
      },
      "vestingEscrow(uint256)": {
        "params": {
          "_index": "Index of the vesting schedule"
        },
        "returns": {
          "_0": "address of the escrow"
        }
      }
    },
    "version": 1
  },
  "userdoc": {
    "errors": {
      "InvalidRevokedVestingScheduleEnd()": [
        {
          "notice": "Attempt to revoke at a"
        }
      ],
      "InvalidVestingScheduleParameter(string)": [
        {
          "notice": "Invalid parameter for a vesting schedule"
        }
      ],
      "InvalidZeroAddress()": [
        {
          "notice": "The address is zero"
        }
      ],
      "Unauthorized(address)": [
        {
          "notice": "The operator is unauthorized for the caller"
        }
      ],
      "UnsufficientVestingScheduleCreatorBalance()": [
        {
          "notice": "Vesting schedule creator has unsufficient balance to create vesting schedule"
        }
      ],
      "VestingScheduleIsLocked()": [
        {
          "notice": "The vesting schedule is locked"
        }
      ],
      "VestingScheduleNotFound(uint256)": [
        {
          "notice": "The VestingSchedule was not found"
        }
      ],
      "VestingScheduleNotRevocable()": [
        {
          "notice": "The vesting schedule is not revocable"
        }
      ],
      "VestingScheduleNotRevocableInPast()": [
        {
          "notice": "Attempt to revoke a schedule in the past"
        }
      ],
      "ZeroReleasableAmount()": [
        {
          "notice": "No token to release"
        }
      ]
    },
    "events": {
      "CreatedVestingSchedule(uint256,address,address,uint256)": {
        "notice": "A new vesting schedule has been created"
      },
      "DelegatedVestingEscrow(uint256,address,address)": {
        "notice": "Vesting escrow has been delegated"
      },
      "ReleasedVestingSchedule(uint256,uint256)": {
        "notice": "Vesting schedule has been released"
      },
      "RevokedVestingSchedule(uint256,uint256)": {
        "notice": "Vesting schedule has been revoked"
      }
    },
    "kind": "user",
    "methods": {
      "computeVestingReleasableAmount(uint256)": {
        "notice": "Computes the releasable amount of tokens for a vesting schedule."
      },
      "createVestingSchedule(uint64,uint32,uint32,uint32,uint32,bool,uint256,address,address)": {
        "notice": "Creates a new vesting schedule"
      },
      "delegateVestingEscrow(uint256,address)": {
        "notice": "Delegate vesting escrowed tokens"
      },
      "getVestingSchedule(uint256)": {
        "notice": "Get vesting schedule"
      },
      "getVestingScheduleCount()": {
        "notice": "Get count of vesting schedules"
      },
      "initTLCV1(address)": {
        "notice": "Initializes the TLC Token"
      },
      "releaseVestingSchedule(uint256)": {
        "notice": "Release vesting schedule"
      },
      "revokeVestingSchedule(uint256,uint64)": {
        "notice": "Revoke vesting schedule"
      },
      "vestingEscrow(uint256)": {
        "notice": "Get the address of the escrow for a vesting schedule"
      }
    },
    "version": 1
  },
  "storageLayout": {
    "storage": [
      {
        "astId": 12123,
        "contract": "contracts/src/TLC.1.sol:TLCV1",
        "label": "_initialized",
        "offset": 0,
        "slot": "0",
        "type": "t_uint8"
      },
      {
        "astId": 12126,
        "contract": "contracts/src/TLC.1.sol:TLCV1",
        "label": "_initializing",
        "offset": 1,
        "slot": "0",
        "type": "t_bool"
      },
      {
        "astId": 14269,
        "contract": "contracts/src/TLC.1.sol:TLCV1",
        "label": "__gap",
        "offset": 0,
        "slot": "1",
        "type": "t_array(t_uint256)50_storage"
      },
      {
        "astId": 12304,
        "contract": "contracts/src/TLC.1.sol:TLCV1",
        "label": "_balances",
        "offset": 0,
        "slot": "51",
        "type": "t_mapping(t_address,t_uint256)"
      },
      {
        "astId": 12310,
        "contract": "contracts/src/TLC.1.sol:TLCV1",
        "label": "_allowances",
        "offset": 0,
        "slot": "52",
        "type": "t_mapping(t_address,t_mapping(t_address,t_uint256))"
      },
      {
        "astId": 12312,
        "contract": "contracts/src/TLC.1.sol:TLCV1",
        "label": "_totalSupply",
        "offset": 0,
        "slot": "53",
        "type": "t_uint256"
      },
      {
        "astId": 12314,
        "contract": "contracts/src/TLC.1.sol:TLCV1",
        "label": "_name",
        "offset": 0,
        "slot": "54",
        "type": "t_string_storage"
      },
      {
        "astId": 12316,
        "contract": "contracts/src/TLC.1.sol:TLCV1",
        "label": "_symbol",
        "offset": 0,
        "slot": "55",
        "type": "t_string_storage"
      },
      {
        "astId": 12896,
        "contract": "contracts/src/TLC.1.sol:TLCV1",
        "label": "__gap",
        "offset": 0,
        "slot": "56",
        "type": "t_array(t_uint256)45_storage"
      },
      {
        "astId": 14889,
        "contract": "contracts/src/TLC.1.sol:TLCV1",
        "label": "_HASHED_NAME",
        "offset": 0,
        "slot": "101",
        "type": "t_bytes32"
      },
      {
        "astId": 14891,
        "contract": "contracts/src/TLC.1.sol:TLCV1",
        "label": "_HASHED_VERSION",
        "offset": 0,
        "slot": "102",
        "type": "t_bytes32"
      },
      {
        "astId": 15029,
        "contract": "contracts/src/TLC.1.sol:TLCV1",
        "label": "__gap",
        "offset": 0,
        "slot": "103",
        "type": "t_array(t_uint256)50_storage"
      },
      {
        "astId": 13743,
        "contract": "contracts/src/TLC.1.sol:TLCV1",
        "label": "_nonces",
        "offset": 0,
        "slot": "153",
        "type": "t_mapping(t_address,t_struct(Counter)14276_storage)"
      },
      {
        "astId": 13751,
        "contract": "contracts/src/TLC.1.sol:TLCV1",
        "label": "_PERMIT_TYPEHASH_DEPRECATED_SLOT",
        "offset": 0,
        "slot": "154",
        "type": "t_bytes32"
      },
      {
        "astId": 13907,
        "contract": "contracts/src/TLC.1.sol:TLCV1",
        "label": "__gap",
        "offset": 0,
        "slot": "155",
        "type": "t_array(t_uint256)49_storage"
      },
      {
        "astId": 13016,
        "contract": "contracts/src/TLC.1.sol:TLCV1",
        "label": "_delegates",
        "offset": 0,
        "slot": "204",
        "type": "t_mapping(t_address,t_address)"
      },
      {
        "astId": 13022,
        "contract": "contracts/src/TLC.1.sol:TLCV1",
        "label": "_checkpoints",
        "offset": 0,
        "slot": "205",
        "type": "t_mapping(t_address,t_array(t_struct(Checkpoint)13007_storage)dyn_storage)"
      },
      {
        "astId": 13026,
        "contract": "contracts/src/TLC.1.sol:TLCV1",
        "label": "_totalSupplyCheckpoints",
        "offset": 0,
        "slot": "206",
        "type": "t_array(t_struct(Checkpoint)13007_storage)dyn_storage"
      },
      {
        "astId": 13691,
        "contract": "contracts/src/TLC.1.sol:TLCV1",
        "label": "__gap",
        "offset": 0,
        "slot": "207",
        "type": "t_array(t_uint256)47_storage"
      }
    ],
    "types": {
      "t_address": {
        "encoding": "inplace",
        "label": "address",
        "numberOfBytes": "20"
      },
      "t_array(t_struct(Checkpoint)13007_storage)dyn_storage": {
        "base": "t_struct(Checkpoint)13007_storage",
        "encoding": "dynamic_array",
        "label": "struct ERC20VotesUpgradeable.Checkpoint[]",
        "numberOfBytes": "32"
      },
      "t_array(t_uint256)45_storage": {
        "base": "t_uint256",
        "encoding": "inplace",
        "label": "uint256[45]",
        "numberOfBytes": "1440"
      },
      "t_array(t_uint256)47_storage": {
        "base": "t_uint256",
        "encoding": "inplace",
        "label": "uint256[47]",
        "numberOfBytes": "1504"
      },
      "t_array(t_uint256)49_storage": {
        "base": "t_uint256",
        "encoding": "inplace",
        "label": "uint256[49]",
        "numberOfBytes": "1568"
      },
      "t_array(t_uint256)50_storage": {
        "base": "t_uint256",
        "encoding": "inplace",
        "label": "uint256[50]",
        "numberOfBytes": "1600"
      },
      "t_bool": {
        "encoding": "inplace",
        "label": "bool",
        "numberOfBytes": "1"
      },
      "t_bytes32": {
        "encoding": "inplace",
        "label": "bytes32",
        "numberOfBytes": "32"
      },
      "t_mapping(t_address,t_address)": {
        "encoding": "mapping",
        "key": "t_address",
        "label": "mapping(address => address)",
        "numberOfBytes": "32",
        "value": "t_address"
      },
      "t_mapping(t_address,t_array(t_struct(Checkpoint)13007_storage)dyn_storage)": {
        "encoding": "mapping",
        "key": "t_address",
        "label": "mapping(address => struct ERC20VotesUpgradeable.Checkpoint[])",
        "numberOfBytes": "32",
        "value": "t_array(t_struct(Checkpoint)13007_storage)dyn_storage"
      },
      "t_mapping(t_address,t_mapping(t_address,t_uint256))": {
        "encoding": "mapping",
        "key": "t_address",
        "label": "mapping(address => mapping(address => uint256))",
        "numberOfBytes": "32",
        "value": "t_mapping(t_address,t_uint256)"
      },
      "t_mapping(t_address,t_struct(Counter)14276_storage)": {
        "encoding": "mapping",
        "key": "t_address",
        "label": "mapping(address => struct CountersUpgradeable.Counter)",
        "numberOfBytes": "32",
        "value": "t_struct(Counter)14276_storage"
      },
      "t_mapping(t_address,t_uint256)": {
        "encoding": "mapping",
        "key": "t_address",
        "label": "mapping(address => uint256)",
        "numberOfBytes": "32",
        "value": "t_uint256"
      },
      "t_string_storage": {
        "encoding": "bytes",
        "label": "string",
        "numberOfBytes": "32"
      },
      "t_struct(Checkpoint)13007_storage": {
        "encoding": "inplace",
        "label": "struct ERC20VotesUpgradeable.Checkpoint",
        "members": [
          {
            "astId": 13004,
            "contract": "contracts/src/TLC.1.sol:TLCV1",
            "label": "fromBlock",
            "offset": 0,
            "slot": "0",
            "type": "t_uint32"
          },
          {
            "astId": 13006,
            "contract": "contracts/src/TLC.1.sol:TLCV1",
            "label": "votes",
            "offset": 4,
            "slot": "0",
            "type": "t_uint224"
          }
        ],
        "numberOfBytes": "32"
      },
      "t_struct(Counter)14276_storage": {
        "encoding": "inplace",
        "label": "struct CountersUpgradeable.Counter",
        "members": [
          {
            "astId": 14275,
            "contract": "contracts/src/TLC.1.sol:TLCV1",
            "label": "_value",
            "offset": 0,
            "slot": "0",
            "type": "t_uint256"
          }
        ],
        "numberOfBytes": "32"
      },
      "t_uint224": {
        "encoding": "inplace",
        "label": "uint224",
        "numberOfBytes": "28"
      },
      "t_uint256": {
        "encoding": "inplace",
        "label": "uint256",
        "numberOfBytes": "32"
      },
      "t_uint32": {
        "encoding": "inplace",
        "label": "uint32",
        "numberOfBytes": "4"
      },
      "t_uint8": {
        "encoding": "inplace",
        "label": "uint8",
        "numberOfBytes": "1"
      }
    }
  }
}