{
  "address": "0xf4B312d9255f6DF29c0FB3c3823f8908c4C2F493",
  "abi": [
    {
      "inputs": [],
      "name": "getCredentials",
      "outputs": [
        {
          "internalType": "bytes32",
          "name": "",
          "type": "bytes32"
        }
      ],
      "stateMutability": "view",
      "type": "function"
    }
  ],
  "transactionHash": "0xdd90a6a2a5880018d4d4b04b8b176548a62400e23cb97403eaba09ab974a9a67",
  "args": [],
  "numDeployments": 1,
  "solcInputHash": "497c9c50d40dc3da957542c95fbadb59",
  "bytecode": "0x608060405234801561001057600080fd5b5060b38061001f6000396000f3fe6080604052348015600f57600080fd5b506004361060285760003560e01c80632294133814602d575b600080fd5b60336045565b60405190815260200160405180910390f35b6000605330600160f81b6058565b919050565b60008219821115607857634e487b7160e01b600052601160045260246000fd5b50019056fea26469706673582212205b4f49e80bfce4a33d197de5996987038104a412957e98280cc494336e0a80dd64736f6c634300080a0033",
  "devdoc": {
    "author": "Kiln",
    "kind": "dev",
    "methods": {},
    "title": "Withdraw (v1)",
    "version": 1
  },
  "userdoc": {
    "kind": "user",
    "methods": {},
    "notice": "This contract is a stub contract that should be upgradeable to be adapted with future withdrawal specs",
    "version": 1
  },
  "storageLayout": {
    "storage": [],
    "types": null
  }
}