{
  "address": "0xeDF39Dc03A6c73Dc52DF04D99591e3b2E2435251",
  "abi": [
    {
      "inputs": [],
      "name": "getCredentials",
      "outputs": [
        {
          "internalType": "bytes32",
          "name": "",
          "type": "bytes32"
        }
      ],
      "stateMutability": "view",
      "type": "function"
    }
  ],
  "transactionHash": "0xb220ec32a805de2cbbe9d2e10c10a1ded4c62f25e1abefae5ed301c637f6870a",
  "args": [],
  "numDeployments": 1,
  "solcInputHash": "c8f9261a95d93dc45dde7860f022c57c",
  "bytecode": "0x608060405234801561001057600080fd5b5060e88061001f6000396000f3fe6080604052348015600f57600080fd5b506004361060285760003560e01c80632294133814602d575b600080fd5b60336045565b60405190815260200160405180910390f35b6000606f307f01000000000000000000000000000000000000000000000000000000000000006074565b919050565b6000821982111560ad577f4e487b7100000000000000000000000000000000000000000000000000000000600052601160045260246000fd5b50019056fea264697066735822122031e4dd7094fff5c5aaaced48cd8cc6cb21c4823cb178f8aad0830a88689389cd64736f6c634300080a0033",
  "devdoc": {
    "author": "Kiln",
    "kind": "dev",
    "methods": {},
    "title": "Withdraw (v1)",
    "version": 1
  },
  "userdoc": {
    "kind": "user",
    "methods": {},
    "notice": "This contract is a stub contract that should be upgradeable to be adapted with future withdrawal specs",
    "version": 1
  },
  "storageLayout": {
    "storage": [],
    "types": null
  }
}