{
  "address": "0x734C9d3B000A219f58c9CeB8DEf9289fa133802a",
  "abi": [
    {
      "inputs": [],
      "name": "getCredentials",
      "outputs": [
        {
          "internalType": "bytes32",
          "name": "",
          "type": "bytes32"
        }
      ],
      "stateMutability": "view",
      "type": "function"
    }
  ],
  "transactionHash": "0x555cd12579bd2d91b0fd87436dc828b9e423ef0c505468cb31559079d83d0f74",
  "args": [],
  "numDeployments": 1,
  "solcInputHash": "ca950e3b1bec18a5653fa258abd0e03c",
  "bytecode": "0x608060405234801561001057600080fd5b5060e88061001f6000396000f3fe6080604052348015600f57600080fd5b506004361060285760003560e01c80632294133814602d575b600080fd5b60336045565b60405190815260200160405180910390f35b6000606f307f01000000000000000000000000000000000000000000000000000000000000006074565b919050565b6000821982111560ad577f4e487b7100000000000000000000000000000000000000000000000000000000600052601160045260246000fd5b50019056fea264697066735822122095aed8fadf8800c07734488eaec3c6bbad4cf16408b0d41098e505509eb7facd64736f6c634300080a0033",
  "devdoc": {
    "kind": "dev",
    "methods": {},
    "version": 1
  },
  "userdoc": {
    "kind": "user",
    "methods": {},
    "version": 1
  },
  "storageLayout": {
    "storage": [],
    "types": null
  }
}