{
  "address": "0x61778c989763B82f756bf29FBd7BE980f6b85d32",
  "abi": [
    {
      "inputs": [
        {
          "internalType": "address",
          "name": "_from",
          "type": "address"
        },
        {
          "internalType": "address",
          "name": "_operator",
          "type": "address"
        },
        {
          "internalType": "uint256",
          "name": "_allowance",
          "type": "uint256"
        },
        {
          "internalType": "uint256",
          "name": "_value",
          "type": "uint256"
        }
      ],
      "name": "AllowanceTooLow",
      "type": "error"
    },
    {
      "inputs": [],
      "name": "BalanceTooLow",
      "type": "error"
    },
    {
      "inputs": [
        {
          "internalType": "uint256",
          "name": "version",
          "type": "uint256"
        },
        {
          "internalType": "uint256",
          "name": "expectedVersion",
          "type": "uint256"
        }
      ],
      "name": "InvalidInitialization",
      "type": "error"
    },
    {
      "inputs": [],
      "name": "NullTransfer",
      "type": "error"
    },
    {
      "inputs": [],
      "name": "UnauthorizedOperation",
      "type": "error"
    },
    {
      "anonymous": false,
      "inputs": [
        {
          "indexed": true,
          "internalType": "address",
          "name": "_owner",
          "type": "address"
        },
        {
          "indexed": true,
          "internalType": "address",
          "name": "_spender",
          "type": "address"
        },
        {
          "indexed": false,
          "internalType": "uint256",
          "name": "_value",
          "type": "uint256"
        }
      ],
      "name": "Approval",
      "type": "event"
    },
    {
      "anonymous": false,
      "inputs": [
        {
          "indexed": true,
          "internalType": "address",
          "name": "_from",
          "type": "address"
        },
        {
          "indexed": true,
          "internalType": "address",
          "name": "_to",
          "type": "address"
        },
        {
          "indexed": false,
          "internalType": "uint256",
          "name": "_value",
          "type": "uint256"
        }
      ],
      "name": "Transfer",
      "type": "event"
    },
    {
      "inputs": [
        {
          "internalType": "address",
          "name": "_owner",
          "type": "address"
        },
        {
          "internalType": "address",
          "name": "_spender",
          "type": "address"
        }
      ],
      "name": "allowance",
      "outputs": [
        {
          "internalType": "uint256",
          "name": "remaining",
          "type": "uint256"
        }
      ],
      "stateMutability": "view",
      "type": "function"
    },
    {
      "inputs": [
        {
          "internalType": "address",
          "name": "_spender",
          "type": "address"
        },
        {
          "internalType": "uint256",
          "name": "_value",
          "type": "uint256"
        }
      ],
      "name": "approve",
      "outputs": [
        {
          "internalType": "bool",
          "name": "success",
          "type": "bool"
        }
      ],
      "stateMutability": "nonpayable",
      "type": "function"
    },
    {
      "inputs": [
        {
          "internalType": "address",
          "name": "_owner",
          "type": "address"
        }
      ],
      "name": "balanceOf",
      "outputs": [
        {
          "internalType": "uint256",
          "name": "balance",
          "type": "uint256"
        }
      ],
      "stateMutability": "view",
      "type": "function"
    },
    {
      "inputs": [
        {
          "internalType": "address",
          "name": "_recipient",
          "type": "address"
        },
        {
          "internalType": "uint256",
          "name": "_value",
          "type": "uint256"
        }
      ],
      "name": "burn",
      "outputs": [],
      "stateMutability": "nonpayable",
      "type": "function"
    },
    {
      "inputs": [],
      "name": "decimals",
      "outputs": [
        {
          "internalType": "uint8",
          "name": "",
          "type": "uint8"
        }
      ],
      "stateMutability": "pure",
      "type": "function"
    },
    {
      "inputs": [
        {
          "internalType": "address",
          "name": "_river",
          "type": "address"
        }
      ],
      "name": "initWLSETHV1",
      "outputs": [],
      "stateMutability": "nonpayable",
      "type": "function"
    },
    {
      "inputs": [
        {
          "internalType": "address",
          "name": "_recipient",
          "type": "address"
        },
        {
          "internalType": "uint256",
          "name": "_value",
          "type": "uint256"
        }
      ],
      "name": "mint",
      "outputs": [],
      "stateMutability": "nonpayable",
      "type": "function"
    },
    {
      "inputs": [],
      "name": "name",
      "outputs": [
        {
          "internalType": "string",
          "name": "",
          "type": "string"
        }
      ],
      "stateMutability": "pure",
      "type": "function"
    },
    {
      "inputs": [],
      "name": "symbol",
      "outputs": [
        {
          "internalType": "string",
          "name": "",
          "type": "string"
        }
      ],
      "stateMutability": "pure",
      "type": "function"
    },
    {
      "inputs": [],
      "name": "totalSupply",
      "outputs": [
        {
          "internalType": "uint256",
          "name": "",
          "type": "uint256"
        }
      ],
      "stateMutability": "view",
      "type": "function"
    },
    {
      "inputs": [
        {
          "internalType": "address",
          "name": "_to",
          "type": "address"
        },
        {
          "internalType": "uint256",
          "name": "_value",
          "type": "uint256"
        }
      ],
      "name": "transfer",
      "outputs": [
        {
          "internalType": "bool",
          "name": "",
          "type": "bool"
        }
      ],
      "stateMutability": "nonpayable",
      "type": "function"
    },
    {
      "inputs": [
        {
          "internalType": "address",
          "name": "_from",
          "type": "address"
        },
        {
          "internalType": "address",
          "name": "_to",
          "type": "address"
        },
        {
          "internalType": "uint256",
          "name": "_value",
          "type": "uint256"
        }
      ],
      "name": "transferFrom",
      "outputs": [
        {
          "internalType": "bool",
          "name": "",
          "type": "bool"
        }
      ],
      "stateMutability": "nonpayable",
      "type": "function"
    }
  ],
  "transactionHash": "0xee9534db1d4aef7e281a5c7992ea16c33d1e0f7e7040e3e989211ac3cdba91aa",
  "args": [],
  "numDeployments": 1,
  "solcInputHash": "09a490197081074b7caaa46a96090f59",
  "bytecode": "0x608060405234801561001057600080fd5b50610d03806100206000396000f3fe608060405234801561001057600080fd5b50600436106100d45760003560e01c806340c10f19116100815780639dc29fac1161005b5780639dc29fac146101f3578063a9059cbb14610206578063dd62ed3e1461021957600080fd5b806340c10f191461019457806370a08231146101a757806395d89b41146101ba57600080fd5b806318160ddd116100b257806318160ddd1461015c57806323b872dd14610172578063313ce5671461018557600080fd5b806306fdde03146100d9578063095ea7b3146101245780630fa74a1014610147575b600080fd5b60408051808201909152601681527f5772617070656420416c6c757669616c2045746865720000000000000000000060208201525b60405161011b9190610b0f565b60405180910390f35b610137610132366004610b80565b61022c565b604051901515815260200161011b565b61015a610155366004610baa565b610282565b005b6101646102fb565b60405190815260200161011b565b610137610180366004610bc5565b61038d565b6040516012815260200161011b565b61015a6101a2366004610b80565b61047c565b6101646101b5366004610baa565b610538565b60408051808201909152600681527f776c734554480000000000000000000000000000000000000000000000000000602082015261010e565b61015a610201366004610b80565b610549565b610137610214366004610b80565b61071b565b610164610227366004610c01565b61077c565b600061023933848461078f565b6040518281526001600160a01b0384169033907f8c5be1e5ebec7d5bd14f71427d1e84f3dd0314c0f7b2291e5b200ac8c7c3b9259060200160405180910390a350600192915050565b600061028c6107e6565b81146102db578061029b6107e6565b6040517fe7e93b38000000000000000000000000000000000000000000000000000000008152600481019290925260248201526044015b60405180910390fd5b6102ee6102e9826001610c63565b61081a565b6102f782610850565b5050565b600061030561087e565b6040517f3af9e6690000000000000000000000000000000000000000000000000000000081523060048201526001600160a01b039190911690633af9e66990602401602060405180830381865afa158015610364573d6000803e3d6000fd5b505050506040513d601f19601f820116820180604052508101906103889190610c7b565b905090565b600081806103ae576040516336b216db60e21b815260040160405180910390fd5b8483806103ba836108ae565b10156103d9576040516351940b3960e11b815260040160405180910390fd5b6001600160a01b03871633146104665760006103f5883361092e565b905085811015610450576040517f7b936de30000000000000000000000000000000000000000000000000000000081526001600160a01b038916600482015233602482015260448101829052606481018790526084016102d2565b610464883361045f8985610c94565b61078f565b505b610471878787610986565b979650505050505050565b610499828261048a85610a75565b6104949190610c63565b610ac3565b6104a161087e565b6040517f23b872dd000000000000000000000000000000000000000000000000000000008152336004820152306024820152604481018390526001600160a01b0391909116906323b872dd906064016020604051808303816000875af115801561050f573d6000803e3d6000fd5b505050506040513d601f19601f820116820180604052508101906105339190610cab565b505050565b6000610543826108ae565b92915050565b600061055361087e565b6001600160a01b031663f79c3f0261056a33610a75565b6040518263ffffffff1660e01b815260040161058891815260200190565b602060405180830381865afa1580156105a5573d6000803e3d6000fd5b505050506040513d601f19601f820116820180604052508101906105c99190610c7b565b9050808211156105ec576040516351940b3960e11b815260040160405180910390fd5b60006105f661087e565b6001600160a01b031663799a1954846040518263ffffffff1660e01b815260040161062391815260200190565b602060405180830381865afa158015610640573d6000803e3d6000fd5b505050506040513d601f19601f820116820180604052508101906106649190610c7b565b905061067e338261067433610a75565b6104949190610c94565b61068661087e565b6040517fa9059cbb0000000000000000000000000000000000000000000000000000000081526001600160a01b03868116600483015260248201849052919091169063a9059cbb906044016020604051808303816000875af11580156106f0573d6000803e3d6000fd5b505050506040513d601f19601f820116820180604052508101906107149190610cab565b5050505050565b6000818061073c576040516336b216db60e21b815260040160405180910390fd5b338380610748836108ae565b1015610767576040516351940b3960e11b815260040160405180910390fd5b610772338787610986565b9695505050505050565b6000610788838361092e565b9392505050565b60006107bc60017fc852254d5b703a16bb13b3e233a335d6459c5da5db0ca732d7a684ee05407847610c94565b6001600160a01b039485166000908152602091825260408082209590961681529390525091902055565b600061038861081660017f82055909238c0f5e63d6f174068ebb8f51bcec9bd37de63bb68f6551feec0cfd610c94565b5490565b61084d61084860017f82055909238c0f5e63d6f174068ebb8f51bcec9bd37de63bb68f6551feec0cfd610c94565b829055565b50565b61084d61084860017f1ec4138404500a2a0be2c2f9b103581c2a7fa783a934f91a6cc5cc924404973c610c94565b600061038861081660017f1ec4138404500a2a0be2c2f9b103581c2a7fa783a934f91a6cc5cc924404973c610c94565b60006108b861087e565b6001600160a01b031663f79c3f026108cf84610a75565b6040518263ffffffff1660e01b81526004016108ed91815260200190565b602060405180830381865afa15801561090a573d6000803e3d6000fd5b505050506040513d601f19601f820116820180604052508101906105439190610c7b565b60008061095c60017fc852254d5b703a16bb13b3e233a335d6459c5da5db0ca732d7a684ee05407847610c94565b6001600160a01b039485166000908152602091825260408082209590961681529390525050205490565b60008061099161087e565b6001600160a01b031663799a1954846040518263ffffffff1660e01b81526004016109be91815260200190565b602060405180830381865afa1580156109db573d6000803e3d6000fd5b505050506040513d601f19601f820116820180604052508101906109ff9190610c7b565b9050610a0f858261067488610a75565b610a1d848261048a87610a75565b836001600160a01b0316856001600160a01b03167fddf252ad1be2c89b69c2b068fc378daa952ba7f163c4a11628f55a4df523b3ef85604051610a6291815260200190565b60405180910390a3506001949350505050565b600080610aa360017fce1633dc2255491f780d2d58eb35f53cb7635f8ce2320aa44b03b0e6ae6fdead610c94565b6001600160a01b0390931660009081526020939093525050604090205490565b6000610af060017fce1633dc2255491f780d2d58eb35f53cb7635f8ce2320aa44b03b0e6ae6fdead610c94565b6001600160a01b03909316600090815260209390935250604090912055565b600060208083528351808285015260005b81811015610b3c57858101830151858201604001528201610b20565b81811115610b4e576000604083870101525b50601f01601f1916929092016040019392505050565b80356001600160a01b0381168114610b7b57600080fd5b919050565b60008060408385031215610b9357600080fd5b610b9c83610b64565b946020939093013593505050565b600060208284031215610bbc57600080fd5b61078882610b64565b600080600060608486031215610bda57600080fd5b610be384610b64565b9250610bf160208501610b64565b9150604084013590509250925092565b60008060408385031215610c1457600080fd5b610c1d83610b64565b9150610c2b60208401610b64565b90509250929050565b7f4e487b7100000000000000000000000000000000000000000000000000000000600052601160045260246000fd5b60008219821115610c7657610c76610c34565b500190565b600060208284031215610c8d57600080fd5b5051919050565b600082821015610ca657610ca6610c34565b500390565b600060208284031215610cbd57600080fd5b8151801515811461078857600080fdfea26469706673582212202ff17977e438f7444d6c39898750f90dc4c7414c2493d127e90e250550d0797964736f6c634300080a0033",
  "devdoc": {
    "author": "Kiln",
    "kind": "dev",
    "methods": {
      "allowance(address,address)": {
        "params": {
          "_owner": "Owner that gave the allowance",
          "_spender": "Spender that received the allowance"
        }
      },
      "approve(address,uint256)": {
        "params": {
          "_spender": "Spender that receives the allowance",
          "_value": "Amount to allow"
        }
      },
      "balanceOf(address)": {
        "params": {
          "_owner": "Owner to check the balance"
        }
      },
      "burn(address,uint256)": {
        "details": "Burned tokens are sent to recipient but are minted from the message sender balanceNo approval required from the message sender",
        "params": {
          "_recipient": "Spender that receives the allowance",
          "_value": "Amount of wrapped token to give to the burn"
        }
      },
      "initWLSETHV1(address)": {
        "params": {
          "_river": "Address of the River contract"
        }
      },
      "mint(address,uint256)": {
        "details": "Minted tokens are sent to recipient but are minted from the message sender balanceIt is expected that the message sender approves _value amount of River token tothis contract before calling",
        "params": {
          "_recipient": "Spender that receives the allowance",
          "_value": "Amount of river token to give to the mint"
        }
      },
      "transfer(address,uint256)": {
        "params": {
          "_to": "Recipient of the transfer",
          "_value": "Amount to transfer"
        }
      },
      "transferFrom(address,address,uint256)": {
        "details": "If _from is not the message sender, then it is expected that _from has given at leave _value allowance to msg.sender",
        "params": {
          "_from": "Sender account",
          "_to": "Recipient of the transfer",
          "_value": "Amount to transfer"
        }
      }
    },
    "title": "Wrapped lsETH v1",
    "version": 1
  },
  "userdoc": {
    "kind": "user",
    "methods": {
      "allowance(address,address)": {
        "notice": "Retrieves the token allowance given from one address to another"
      },
      "approve(address,uint256)": {
        "notice": "Approves another account to transfer tokens"
      },
      "balanceOf(address)": {
        "notice": "Retrieves the token balance of the specified user"
      },
      "burn(address,uint256)": {
        "notice": "Burn tokens and retrieve underlying River tokens"
      },
      "decimals()": {
        "notice": "Retrieves the token decimal count"
      },
      "initWLSETHV1(address)": {
        "notice": "Initializes the wrapped token contract"
      },
      "mint(address,uint256)": {
        "notice": "Mint tokens by providing River tokens"
      },
      "name()": {
        "notice": "Retrieves the token full name"
      },
      "symbol()": {
        "notice": "Retrieves the token ticker"
      },
      "totalSupply()": {
        "notice": "Retrieves the token total supply"
      },
      "transfer(address,uint256)": {
        "notice": "Transfers tokens between the message sender and a recipient"
      },
      "transferFrom(address,address,uint256)": {
        "notice": "Transfers tokens between two accounts"
      }
    },
    "notice": "This contract wraps the lsETH token into a rebase token, more suitable for some DeFi use-cases         like stable swaps.",
    "version": 1
  },
  "storageLayout": {
    "storage": [],
    "types": null
  }
}