{
  "address": "0x14d5B53F79FE96aFBAB2C71c657aC61408039A72",
  "abi": [
    {
      "inputs": [
        {
          "internalType": "address",
          "name": "_from",
          "type": "address"
        },
        {
          "internalType": "address",
          "name": "_operator",
          "type": "address"
        },
        {
          "internalType": "uint256",
          "name": "_allowance",
          "type": "uint256"
        },
        {
          "internalType": "uint256",
          "name": "_value",
          "type": "uint256"
        }
      ],
      "name": "AllowanceTooLow",
      "type": "error"
    },
    {
      "inputs": [],
      "name": "BalanceTooLow",
      "type": "error"
    },
    {
      "inputs": [
        {
          "internalType": "uint256",
          "name": "version",
          "type": "uint256"
        },
        {
          "internalType": "uint256",
          "name": "expectedVersion",
          "type": "uint256"
        }
      ],
      "name": "InvalidInitialization",
      "type": "error"
    },
    {
      "inputs": [],
      "name": "InvalidZeroAddress",
      "type": "error"
    },
    {
      "inputs": [],
      "name": "NullTransfer",
      "type": "error"
    },
    {
      "inputs": [],
      "name": "TokenTransferError",
      "type": "error"
    },
    {
      "inputs": [],
      "name": "UnauthorizedOperation",
      "type": "error"
    },
    {
      "anonymous": false,
      "inputs": [
        {
          "indexed": true,
          "internalType": "address",
          "name": "_owner",
          "type": "address"
        },
        {
          "indexed": true,
          "internalType": "address",
          "name": "_spender",
          "type": "address"
        },
        {
          "indexed": false,
          "internalType": "uint256",
          "name": "_value",
          "type": "uint256"
        }
      ],
      "name": "Approval",
      "type": "event"
    },
    {
      "anonymous": false,
      "inputs": [
        {
          "indexed": true,
          "internalType": "address",
          "name": "_from",
          "type": "address"
        },
        {
          "indexed": true,
          "internalType": "address",
          "name": "_to",
          "type": "address"
        },
        {
          "indexed": false,
          "internalType": "uint256",
          "name": "_value",
          "type": "uint256"
        }
      ],
      "name": "Transfer",
      "type": "event"
    },
    {
      "inputs": [
        {
          "internalType": "address",
          "name": "_owner",
          "type": "address"
        },
        {
          "internalType": "address",
          "name": "_spender",
          "type": "address"
        }
      ],
      "name": "allowance",
      "outputs": [
        {
          "internalType": "uint256",
          "name": "remaining",
          "type": "uint256"
        }
      ],
      "stateMutability": "view",
      "type": "function"
    },
    {
      "inputs": [
        {
          "internalType": "address",
          "name": "_spender",
          "type": "address"
        },
        {
          "internalType": "uint256",
          "name": "_value",
          "type": "uint256"
        }
      ],
      "name": "approve",
      "outputs": [
        {
          "internalType": "bool",
          "name": "success",
          "type": "bool"
        }
      ],
      "stateMutability": "nonpayable",
      "type": "function"
    },
    {
      "inputs": [
        {
          "internalType": "address",
          "name": "_owner",
          "type": "address"
        }
      ],
      "name": "balanceOf",
      "outputs": [
        {
          "internalType": "uint256",
          "name": "balance",
          "type": "uint256"
        }
      ],
      "stateMutability": "view",
      "type": "function"
    },
    {
      "inputs": [
        {
          "internalType": "address",
          "name": "_recipient",
          "type": "address"
        },
        {
          "internalType": "uint256",
          "name": "_value",
          "type": "uint256"
        }
      ],
      "name": "burn",
      "outputs": [],
      "stateMutability": "nonpayable",
      "type": "function"
    },
    {
      "inputs": [],
      "name": "decimals",
      "outputs": [
        {
          "internalType": "uint8",
          "name": "",
          "type": "uint8"
        }
      ],
      "stateMutability": "pure",
      "type": "function"
    },
    {
      "inputs": [
        {
          "internalType": "address",
          "name": "_river",
          "type": "address"
        }
      ],
      "name": "initWLSETHV1",
      "outputs": [],
      "stateMutability": "nonpayable",
      "type": "function"
    },
    {
      "inputs": [
        {
          "internalType": "address",
          "name": "_recipient",
          "type": "address"
        },
        {
          "internalType": "uint256",
          "name": "_value",
          "type": "uint256"
        }
      ],
      "name": "mint",
      "outputs": [],
      "stateMutability": "nonpayable",
      "type": "function"
    },
    {
      "inputs": [],
      "name": "name",
      "outputs": [
        {
          "internalType": "string",
          "name": "",
          "type": "string"
        }
      ],
      "stateMutability": "pure",
      "type": "function"
    },
    {
      "inputs": [],
      "name": "symbol",
      "outputs": [
        {
          "internalType": "string",
          "name": "",
          "type": "string"
        }
      ],
      "stateMutability": "pure",
      "type": "function"
    },
    {
      "inputs": [],
      "name": "totalSupply",
      "outputs": [
        {
          "internalType": "uint256",
          "name": "",
          "type": "uint256"
        }
      ],
      "stateMutability": "view",
      "type": "function"
    },
    {
      "inputs": [
        {
          "internalType": "address",
          "name": "_to",
          "type": "address"
        },
        {
          "internalType": "uint256",
          "name": "_value",
          "type": "uint256"
        }
      ],
      "name": "transfer",
      "outputs": [
        {
          "internalType": "bool",
          "name": "",
          "type": "bool"
        }
      ],
      "stateMutability": "nonpayable",
      "type": "function"
    },
    {
      "inputs": [
        {
          "internalType": "address",
          "name": "_from",
          "type": "address"
        },
        {
          "internalType": "address",
          "name": "_to",
          "type": "address"
        },
        {
          "internalType": "uint256",
          "name": "_value",
          "type": "uint256"
        }
      ],
      "name": "transferFrom",
      "outputs": [
        {
          "internalType": "bool",
          "name": "",
          "type": "bool"
        }
      ],
      "stateMutability": "nonpayable",
      "type": "function"
    }
  ],
  "transactionHash": "0xede530cd86edd83014823d37ecfa1d8c0e3637daf1f805b6c6f0fb98a80ad04e",
  "args": [],
  "numDeployments": 1,
  "solcInputHash": "5398461594ac27bb3cb7da375e90f087",
  "bytecode": "0x608060405234801561001057600080fd5b506001600055610d1f806100256000396000f3fe608060405234801561001057600080fd5b50600436106100b45760003560e01c806340c10f191161007157806340c10f191461016d57806370a082311461018057806395d89b41146101935780639dc29fac146101b5578063a9059cbb146101c8578063dd62ed3e146101db57600080fd5b806306fdde03146100b9578063095ea7b3146100fd5780630fa74a101461012057806318160ddd1461013557806323b872dd1461014b578063313ce5671461015e575b600080fd5b6040805180820190915260168152752bb930b83832b21020b6363abb34b0b61022ba3432b960511b60208201525b6040516100f49190610b0d565b60405180910390f35b61011061010b366004610b7e565b6101ee565b60405190151581526020016100f4565b61013361012e366004610ba8565b610244565b005b61013d6102a4565b6040519081526020016100f4565b610110610159366004610bc3565b61031d565b604051601281526020016100f4565b61013361017b366004610b7e565b6103f3565b61013d61018e366004610ba8565b6104df565b6040805180820190915260068152650eed8e68aa8960d31b60208201526100e7565b6101336101c3366004610b7e565b6104f0565b6101106101d6366004610b7e565b6106f2565b61013d6101e9366004610bff565b610753565b60006101fb338484610766565b6040518281526001600160a01b0384169033907f8c5be1e5ebec7d5bd14f71427d1e84f3dd0314c0f7b2291e5b200ac8c7c3b9259060200160405180910390a350600192915050565b600061024e6107bd565b8114610284578061025d6107bd565b604051631cfd276760e31b8152600481019290925260248201526044015b60405180910390fd5b610297610292826001610c48565b6107f1565b6102a082610827565b5050565b60006102ae61087c565b604051633af9e66960e01b81523060048201526001600160a01b039190911690633af9e66990602401602060405180830381865afa1580156102f4573d6000803e3d6000fd5b505050506040513d601f19601f820116820180604052508101906103189190610c60565b905090565b6000818061033e576040516336b216db60e21b815260040160405180910390fd5b84838061034a836108ac565b1015610369576040516351940b3960e11b815260040160405180910390fd5b6001600160a01b03871633146103dd576000610385883361092c565b9050858110156103c757604051637b936de360e01b81526001600160a01b0389166004820152336024820152604481018290526064810187905260840161027b565b6103db88336103d68985610c79565b610766565b505b6103e8878787610984565b979650505050505050565b600260005414156104165760405162461bcd60e51b815260040161027b90610c90565b6002600055610438828261042982610a73565b6104339190610c48565b610ac1565b61044061087c565b6040516323b872dd60e01b8152336004820152306024820152604481018390526001600160a01b0391909116906323b872dd906064016020604051808303816000875af1158015610495573d6000803e3d6000fd5b505050506040513d601f19601f820116820180604052508101906104b99190610cc7565b6104d657604051630c87abf760e21b815260040160405180910390fd5b50506001600055565b60006104ea826108ac565b92915050565b600260005414156105135760405162461bcd60e51b815260040161027b90610c90565b6002600090815561052261087c565b6001600160a01b031663f79c3f0261053933610a73565b6040518263ffffffff1660e01b815260040161055791815260200190565b602060405180830381865afa158015610574573d6000803e3d6000fd5b505050506040513d601f19601f820116820180604052508101906105989190610c60565b9050808211156105bb576040516351940b3960e11b815260040160405180910390fd5b60006105c561087c565b6001600160a01b031663799a1954846040518263ffffffff1660e01b81526004016105f291815260200190565b602060405180830381865afa15801561060f573d6000803e3d6000fd5b505050506040513d601f19601f820116820180604052508101906106339190610c60565b905061064d338261064333610a73565b6104339190610c79565b61065561087c565b60405163a9059cbb60e01b81526001600160a01b03868116600483015260248201849052919091169063a9059cbb906044016020604051808303816000875af11580156106a6573d6000803e3d6000fd5b505050506040513d601f19601f820116820180604052508101906106ca9190610cc7565b6106e757604051630c87abf760e21b815260040160405180910390fd5b505060016000555050565b60008180610713576040516336b216db60e21b815260040160405180910390fd5b33838061071f836108ac565b101561073e576040516351940b3960e11b815260040160405180910390fd5b610749338787610984565b9695505050505050565b600061075f838361092c565b9392505050565b600061079360017fc852254d5b703a16bb13b3e233a335d6459c5da5db0ca732d7a684ee05407847610c79565b6001600160a01b039485166000908152602091825260408082209590961681529390525091902055565b60006103186107ed60017f82055909238c0f5e63d6f174068ebb8f51bcec9bd37de63bb68f6551feec0cfd610c79565b5490565b61082461081f60017f82055909238c0f5e63d6f174068ebb8f51bcec9bd37de63bb68f6551feec0cfd610c79565b829055565b50565b6001600160a01b03811661084e5760405163f6b2911f60e01b815260040160405180910390fd5b61082461081f60017f1ec4138404500a2a0be2c2f9b103581c2a7fa783a934f91a6cc5cc924404973c610c79565b60006103186107ed60017f1ec4138404500a2a0be2c2f9b103581c2a7fa783a934f91a6cc5cc924404973c610c79565b60006108b661087c565b6001600160a01b031663f79c3f026108cd84610a73565b6040518263ffffffff1660e01b81526004016108eb91815260200190565b602060405180830381865afa158015610908573d6000803e3d6000fd5b505050506040513d601f19601f820116820180604052508101906104ea9190610c60565b60008061095a60017fc852254d5b703a16bb13b3e233a335d6459c5da5db0ca732d7a684ee05407847610c79565b6001600160a01b039485166000908152602091825260408082209590961681529390525050205490565b60008061098f61087c565b6001600160a01b031663799a1954846040518263ffffffff1660e01b81526004016109bc91815260200190565b602060405180830381865afa1580156109d9573d6000803e3d6000fd5b505050506040513d601f19601f820116820180604052508101906109fd9190610c60565b9050610a0d858261064388610a73565b610a1b848261042987610a73565b836001600160a01b0316856001600160a01b03167fddf252ad1be2c89b69c2b068fc378daa952ba7f163c4a11628f55a4df523b3ef85604051610a6091815260200190565b60405180910390a3506001949350505050565b600080610aa160017fce1633dc2255491f780d2d58eb35f53cb7635f8ce2320aa44b03b0e6ae6fdead610c79565b6001600160a01b0390931660009081526020939093525050604090205490565b6000610aee60017fce1633dc2255491f780d2d58eb35f53cb7635f8ce2320aa44b03b0e6ae6fdead610c79565b6001600160a01b03909316600090815260209390935250604090912055565b600060208083528351808285015260005b81811015610b3a57858101830151858201604001528201610b1e565b81811115610b4c576000604083870101525b50601f01601f1916929092016040019392505050565b80356001600160a01b0381168114610b7957600080fd5b919050565b60008060408385031215610b9157600080fd5b610b9a83610b62565b946020939093013593505050565b600060208284031215610bba57600080fd5b61075f82610b62565b600080600060608486031215610bd857600080fd5b610be184610b62565b9250610bef60208501610b62565b9150604084013590509250925092565b60008060408385031215610c1257600080fd5b610c1b83610b62565b9150610c2960208401610b62565b90509250929050565b634e487b7160e01b600052601160045260246000fd5b60008219821115610c5b57610c5b610c32565b500190565b600060208284031215610c7257600080fd5b5051919050565b600082821015610c8b57610c8b610c32565b500390565b6020808252601f908201527f5265656e7472616e637947756172643a207265656e7472616e742063616c6c00604082015260600190565b600060208284031215610cd957600080fd5b8151801515811461075f57600080fdfea26469706673582212203db67ac4df3a2d4e606ba032b8023f24074fa6925649f4f3512ffbc3b9ffdd5664736f6c634300080a0033",
  "devdoc": {
    "author": "Kiln",
    "kind": "dev",
    "methods": {
      "allowance(address,address)": {
        "params": {
          "_owner": "Owner that gave the allowance",
          "_spender": "Spender that received the allowance"
        }
      },
      "approve(address,uint256)": {
        "params": {
          "_spender": "Spender that receives the allowance",
          "_value": "Amount to allow"
        }
      },
      "balanceOf(address)": {
        "params": {
          "_owner": "Owner to check the balance"
        }
      },
      "burn(address,uint256)": {
        "details": "Burned tokens are sent to recipient but are minted from the message sender balanceNo approval required from the message sender",
        "params": {
          "_recipient": "Spender that receives the allowance",
          "_value": "Amount of wrapped token to give to the burn"
        }
      },
      "initWLSETHV1(address)": {
        "params": {
          "_river": "Address of the River contract"
        }
      },
      "mint(address,uint256)": {
        "details": "Minted tokens are sent to recipient but are minted from the message sender balanceIt is expected that the message sender approves _value amount of River token tothis contract before calling",
        "params": {
          "_recipient": "Spender that receives the allowance",
          "_value": "Amount of river token to give to the mint"
        }
      },
      "transfer(address,uint256)": {
        "params": {
          "_to": "Recipient of the transfer",
          "_value": "Amount to transfer"
        }
      },
      "transferFrom(address,address,uint256)": {
        "details": "If _from is not the message sender, then it is expected that _from has given at leave _value allowance to msg.sender",
        "params": {
          "_from": "Sender account",
          "_to": "Recipient of the transfer",
          "_value": "Amount to transfer"
        }
      }
    },
    "title": "Wrapped lsETH v1",
    "version": 1
  },
  "userdoc": {
    "kind": "user",
    "methods": {
      "allowance(address,address)": {
        "notice": "Retrieves the token allowance given from one address to another"
      },
      "approve(address,uint256)": {
        "notice": "Approves another account to transfer tokens"
      },
      "balanceOf(address)": {
        "notice": "Retrieves the token balance of the specified user"
      },
      "burn(address,uint256)": {
        "notice": "Burn tokens and retrieve underlying River tokens"
      },
      "decimals()": {
        "notice": "Retrieves the token decimal count"
      },
      "initWLSETHV1(address)": {
        "notice": "Initializes the wrapped token contract"
      },
      "mint(address,uint256)": {
        "notice": "Mint tokens by providing River tokens"
      },
      "name()": {
        "notice": "Retrieves the token full name"
      },
      "symbol()": {
        "notice": "Retrieves the token ticker"
      },
      "totalSupply()": {
        "notice": "Retrieves the token total supply"
      },
      "transfer(address,uint256)": {
        "notice": "Transfers tokens between the message sender and a recipient"
      },
      "transferFrom(address,address,uint256)": {
        "notice": "Transfers tokens between two accounts"
      }
    },
    "notice": "This contract wraps the lsETH token into a rebase token, more suitable for some DeFi use-cases         like stable swaps.",
    "version": 1
  },
  "storageLayout": {
    "storage": [
      {
        "astId": 10,
        "contract": "contracts/src/WLSETH.1.sol:WLSETHV1",
        "label": "_status",
        "offset": 0,
        "slot": "0",
        "type": "t_uint256"
      }
    ],
    "types": {
      "t_uint256": {
        "encoding": "inplace",
        "label": "uint256",
        "numberOfBytes": "32"
      }
    }
  }
}