{
  "address": "0xBe8598615D8CaBaed71504B914B42030d8458e13",
  "abi": [
    {
      "inputs": [
        {
          "internalType": "address",
          "name": "_account",
          "type": "address"
        }
      ],
      "name": "Denied",
      "type": "error"
    },
    {
      "inputs": [],
      "name": "InvalidAlloweeCount",
      "type": "error"
    },
    {
      "inputs": [
        {
          "internalType": "uint256",
          "name": "version",
          "type": "uint256"
        },
        {
          "internalType": "uint256",
          "name": "expectedVersion",
          "type": "uint256"
        }
      ],
      "name": "InvalidInitialization",
      "type": "error"
    },
    {
      "inputs": [],
      "name": "InvalidZeroAddress",
      "type": "error"
    },
    {
      "inputs": [],
      "name": "MismatchedAlloweeAndStatusCount",
      "type": "error"
    },
    {
      "inputs": [
        {
          "internalType": "address",
          "name": "caller",
          "type": "address"
        }
      ],
      "name": "Unauthorized",
      "type": "error"
    },
    {
      "anonymous": false,
      "inputs": [
        {
          "indexed": false,
          "internalType": "uint256",
          "name": "version",
          "type": "uint256"
        },
        {
          "indexed": false,
          "internalType": "bytes",
          "name": "cdata",
          "type": "bytes"
        }
      ],
      "name": "Initialize",
      "type": "event"
    },
    {
      "anonymous": false,
      "inputs": [
        {
          "indexed": true,
          "internalType": "address",
          "name": "admin",
          "type": "address"
        }
      ],
      "name": "SetAdmin",
      "type": "event"
    },
    {
      "anonymous": false,
      "inputs": [
        {
          "indexed": true,
          "internalType": "address",
          "name": "allower",
          "type": "address"
        }
      ],
      "name": "SetAllower",
      "type": "event"
    },
    {
      "anonymous": false,
      "inputs": [
        {
          "indexed": false,
          "internalType": "address[]",
          "name": "accounts",
          "type": "address[]"
        },
        {
          "indexed": false,
          "internalType": "uint256[]",
          "name": "permissions",
          "type": "uint256[]"
        }
      ],
      "name": "SetAllowlistPermissions",
      "type": "event"
    },
    {
      "anonymous": false,
      "inputs": [
        {
          "indexed": true,
          "internalType": "address",
          "name": "pendingAdmin",
          "type": "address"
        }
      ],
      "name": "SetPendingAdmin",
      "type": "event"
    },
    {
      "inputs": [],
      "name": "acceptAdmin",
      "outputs": [],
      "stateMutability": "nonpayable",
      "type": "function"
    },
    {
      "inputs": [
        {
          "internalType": "address[]",
          "name": "_accounts",
          "type": "address[]"
        },
        {
          "internalType": "uint256[]",
          "name": "_permissions",
          "type": "uint256[]"
        }
      ],
      "name": "allow",
      "outputs": [],
      "stateMutability": "nonpayable",
      "type": "function"
    },
    {
      "inputs": [],
      "name": "getAdmin",
      "outputs": [
        {
          "internalType": "address",
          "name": "",
          "type": "address"
        }
      ],
      "stateMutability": "view",
      "type": "function"
    },
    {
      "inputs": [],
      "name": "getAllower",
      "outputs": [
        {
          "internalType": "address",
          "name": "",
          "type": "address"
        }
      ],
      "stateMutability": "view",
      "type": "function"
    },
    {
      "inputs": [],
      "name": "getPendingAdmin",
      "outputs": [
        {
          "internalType": "address",
          "name": "",
          "type": "address"
        }
      ],
      "stateMutability": "view",
      "type": "function"
    },
    {
      "inputs": [
        {
          "internalType": "address",
          "name": "_account",
          "type": "address"
        }
      ],
      "name": "getPermissions",
      "outputs": [
        {
          "internalType": "uint256",
          "name": "",
          "type": "uint256"
        }
      ],
      "stateMutability": "view",
      "type": "function"
    },
    {
      "inputs": [
        {
          "internalType": "address",
          "name": "_account",
          "type": "address"
        },
        {
          "internalType": "uint256",
          "name": "_mask",
          "type": "uint256"
        }
      ],
      "name": "hasPermission",
      "outputs": [
        {
          "internalType": "bool",
          "name": "",
          "type": "bool"
        }
      ],
      "stateMutability": "view",
      "type": "function"
    },
    {
      "inputs": [
        {
          "internalType": "address",
          "name": "_admin",
          "type": "address"
        },
        {
          "internalType": "address",
          "name": "_allower",
          "type": "address"
        }
      ],
      "name": "initAllowlistV1",
      "outputs": [],
      "stateMutability": "nonpayable",
      "type": "function"
    },
    {
      "inputs": [
        {
          "internalType": "address",
          "name": "_account",
          "type": "address"
        },
        {
          "internalType": "uint256",
          "name": "_mask",
          "type": "uint256"
        }
      ],
      "name": "isAllowed",
      "outputs": [
        {
          "internalType": "bool",
          "name": "",
          "type": "bool"
        }
      ],
      "stateMutability": "view",
      "type": "function"
    },
    {
      "inputs": [
        {
          "internalType": "address",
          "name": "_account",
          "type": "address"
        }
      ],
      "name": "isDenied",
      "outputs": [
        {
          "internalType": "bool",
          "name": "",
          "type": "bool"
        }
      ],
      "stateMutability": "view",
      "type": "function"
    },
    {
      "inputs": [
        {
          "internalType": "address",
          "name": "_account",
          "type": "address"
        },
        {
          "internalType": "uint256",
          "name": "_mask",
          "type": "uint256"
        }
      ],
      "name": "onlyAllowed",
      "outputs": [],
      "stateMutability": "view",
      "type": "function"
    },
    {
      "inputs": [
        {
          "internalType": "address",
          "name": "_newAdmin",
          "type": "address"
        }
      ],
      "name": "proposeAdmin",
      "outputs": [],
      "stateMutability": "nonpayable",
      "type": "function"
    },
    {
      "inputs": [
        {
          "internalType": "address",
          "name": "_newAllowerAddress",
          "type": "address"
        }
      ],
      "name": "setAllower",
      "outputs": [],
      "stateMutability": "nonpayable",
      "type": "function"
    }
  ],
  "transactionHash": "0x359848058fdd08ecb466f51f7f5c186e564190bcbc39dc3d294ce8d4f6a448ea",
  "args": [],
  "numDeployments": 1,
  "solcInputHash": "326843f44b9486998dc19acaea9f584b",
  "bytecode": "0x608060405234801561001057600080fd5b5061002660001961006960201b6105e91760201c565b7f1809e49bba43f2d39fa57894b50cd6ccb428cc438230e065cac3eb24a1355a7160001960003660405161005c939291906100b1565b60405180910390a161010c565b6100aa61009760017f82055909238c0f5e63d6f174068ebb8f51bcec9bd37de63bb68f6551feec0cfd6100e7565b60001b826100ad60201b61060a1760201c565b50565b9055565b83815260406020820152816040820152818360608301376000818301606090810191909152601f909201601f1916010192915050565b60008282101561010757634e487b7160e01b600052601160045260246000fd5b500390565b610baa8061011b6000396000f3fe608060405234801561001057600080fd5b50600436106100af5760003560e01c806307a40008146100b45780630e18b681146100d2578063147bf6c4146100dc578063160a7925146100ef5780634679a9e1146101105780635a409102146101235780636e8cac11146101365780636e9960c3146101495780638d944fd914610151578063d046815614610174578063e580d9941461017c578063e838dfbb1461018f578063f8350ed0146101a2575b600080fd5b6100bc6101b5565b6040516100c9919061083c565b60405180910390f35b6100da6101c4565b005b6100da6100ea36600461086c565b610224565b6101026100fd36600461086c565b61026b565b6040519081526020016100c9565b6100da61011e36600461086c565b61027c565b6100da61013136600461088e565b6102e5565b6100da6101443660046108b8565b610344565b6100bc610407565b61016461015f36600461088e565b610411565b60405190151581526020016100c9565b6100bc610427565b6100da61018a366004610936565b610431565b61016461019d36600461086c565b61059f565b6101646101b036600461088e565b6105b8565b60006101bf61060e565b905090565b6101cc610630565b6001600160a01b0316336001600160a01b031614610208573360405163472511eb60e11b81526004016101ff919061083c565b60405180910390fd5b610218610213610630565b61063a565b6102226000610683565b565b61022c6106c3565b6001600160a01b0316336001600160a01b03161461025f573360405163472511eb60e11b81526004016101ff919061083c565b61026881610683565b50565b6000610276826106cd565b92915050565b6102846106c3565b6001600160a01b0316336001600160a01b0316146102b7573360405163472511eb60e11b81526004016101ff919061083c565b6102c081610709565b6040516001600160a01b03821690600080516020610af583398151915290600090a250565b60006102f0836106cd565b9050600160ff1b808216141561031b578260405163e7d05e2760e01b81526004016101ff919061083c565b818282161461033f578260405163472511eb60e11b81526004016101ff919061083c565b505050565b600061034e61072e565b811461037f578061035d61072e565b604051631cfd276760e31b8152600481019290925260248201526044016101ff565b61039261038d8260016109b7565b6105e9565b61039b8361063a565b6103a482610709565b6040516001600160a01b03831690600080516020610af583398151915290600090a27f1809e49bba43f2d39fa57894b50cd6ccb428cc438230e065cac3eb24a1355a71816000366040516103fa939291906109cf565b60405180910390a1505050565b60006101bf6106c3565b6000818261041e856106cd565b16149392505050565b60006101bf610630565b61043961060e565b6001600160a01b0316336001600160a01b031614158015610473575061045d610407565b6001600160a01b0316336001600160a01b031614155b15610493573360405163472511eb60e11b81526004016101ff919061083c565b826104b157604051631ac3cbdf60e21b815260040160405180910390fd5b8281146104d15760405163b7c599df60e01b815260040160405180910390fd5b60005b8381101561055b5761050b8585838181106104f1576104f1610a05565b9050602002016020810190610506919061086c565b61074c565b61055385858381811061052057610520610a05565b9050602002016020810190610535919061086c565b84848481811061054757610547610a05565b90506020020135610773565b6001016104d4565b507f649636a73c855dfe2014a555a98949d77640be8f4eb6702749d5f83c9aa6fcd0848484846040516105919493929190610a1b565b60405180910390a150505050565b6000600160ff1b806105b0846106cd565b161492915050565b6000806105c4846106cd565b9050600160ff1b80821614156105de576000915050610276565b821690911492915050565b6102686106056001600080516020610b35833981519152610a9d565b829055565b9055565b60006101bf61062c6001600080516020610ab5833981519152610a9d565b5490565b60006101bf6107ad565b6106438161074c565b61064c816107cb565b6040516001600160a01b038216907f5a272403b402d892977df56625f4164ccaf70ca3863991c43ecfe76a6905b0a190600090a250565b61068c816107d4565b6040516001600160a01b038216907f2a0f8515de3fa34ef68b99300347b8793c01683350743e96fe440594528298f490600090a250565b60006101bf6107dd565b6000806106e96001600080516020610b15833981519152610a9d565b6001600160a01b0390931660009081526020939093525050604090205490565b6107128161074c565b6102686106056001600080516020610ab5833981519152610a9d565b60006101bf61062c6001600080516020610b35833981519152610a9d565b6001600160a01b0381166102685760405163f6b2911f60e01b815260040160405180910390fd5b600061078e6001600080516020610b15833981519152610a9d565b6001600160a01b03909316600090815260209390935250604090912055565b60006101bf61062c6001600080516020610b55833981519152610a9d565b610268816107fb565b61026881610820565b60006101bf61062c6001600080516020610ad5833981519152610a9d565b6108048161074c565b6102686106056001600080516020610ad5833981519152610a9d565b6102686106056001600080516020610b55833981519152610a9d565b6001600160a01b0391909116815260200190565b80356001600160a01b038116811461086757600080fd5b919050565b60006020828403121561087e57600080fd5b61088782610850565b9392505050565b600080604083850312156108a157600080fd5b6108aa83610850565b946020939093013593505050565b600080604083850312156108cb57600080fd5b6108d483610850565b91506108e260208401610850565b90509250929050565b60008083601f8401126108fd57600080fd5b5081356001600160401b0381111561091457600080fd5b6020830191508360208260051b850101111561092f57600080fd5b9250929050565b6000806000806040858703121561094c57600080fd5b84356001600160401b038082111561096357600080fd5b61096f888389016108eb565b9096509450602087013591508082111561098857600080fd5b50610995878288016108eb565b95989497509550505050565b634e487b7160e01b600052601160045260246000fd5b600082198211156109ca576109ca6109a1565b500190565b83815260406020820152816040820152818360608301376000818301606090810191909152601f909201601f1916010192915050565b634e487b7160e01b600052603260045260246000fd5b6040808252810184905260008560608301825b87811015610a5c576001600160a01b03610a4784610850565b16825260209283019290910190600101610a2e565b5083810360208501528481526001600160fb1b03851115610a7c57600080fd5b8460051b915081866020830137600091016020019081529695505050505050565b600082821015610aaf57610aaf6109a1565b50039056fe3d8762f71ac4675044de4231ebed7df0f8a8819893c6b6278d0461fc4a979b80b5b37715a3e346e996104f0086703f19825def429233930fd9399c38e05fb113b96ab8443049f385aba7fbc2899e3fcdfba4d80ac8458847f40b7d426bae2dcff13551d5cf1b23afc8669eb5ef15070e351923179334eb1a5aa569477f4a413582055909238c0f5e63d6f174068ebb8f51bcec9bd37de63bb68f6551feec0cfd6e6ab8b7c7aaba79eef8cc633522d606bb008c101cf9832c9ad05d10a9847281a264697066735822122099448a60e48640d56b5ebaf5a1f074b506c9fa57fbe4fac482e41fe7a6c7ba5364736f6c634300080a0033",
  "devdoc": {
    "author": "Kiln",
    "errors": {
      "Denied(address)": [
        {
          "params": {
            "_account": "The denied account"
          }
        }
      ],
      "InvalidInitialization(uint256,uint256)": [
        {
          "params": {
            "expectedVersion": "The version that was expected",
            "version": "The version that was attempting to be initialized"
          }
        }
      ],
      "Unauthorized(address)": [
        {
          "params": {
            "caller": "Address performing the call"
          }
        }
      ]
    },
    "kind": "dev",
    "methods": {
      "acceptAdmin()": {
        "details": "Only callable by the pending admin. Resets the pending admin if succesful."
      },
      "allow(address[],uint256[])": {
        "details": "The permission value is overridden and not updated",
        "params": {
          "_accounts": "Accounts with statuses to edit",
          "_permissions": "Allowlist permissions for each account, in the same order as _accounts"
        }
      },
      "getAdmin()": {
        "returns": {
          "_0": "The admin address"
        }
      },
      "getAllower()": {
        "returns": {
          "_0": "The address of the allower"
        }
      },
      "getPendingAdmin()": {
        "returns": {
          "_0": "The pending admin address"
        }
      },
      "getPermissions(address)": {
        "params": {
          "_account": "Recipient to verify"
        },
        "returns": {
          "_0": "The raw permissions value of the account"
        }
      },
      "hasPermission(address,uint256)": {
        "params": {
          "_account": "Recipient to verify",
          "_mask": "Combination of permissions to verify"
        },
        "returns": {
          "_0": "True if mask is respected"
        }
      },
      "initAllowlistV1(address,address)": {
        "params": {
          "_admin": "Address of the Allowlist administrator",
          "_allower": "Address of the allower"
        }
      },
      "isAllowed(address,uint256)": {
        "params": {
          "_account": "Recipient to verify",
          "_mask": "Combination of permissions to verify"
        },
        "returns": {
          "_0": "True if mask is respected and user is allowed"
        }
      },
      "isDenied(address)": {
        "params": {
          "_account": "Recipient to verify"
        },
        "returns": {
          "_0": "True if user is denied access"
        }
      },
      "onlyAllowed(address,uint256)": {
        "params": {
          "_account": "Recipient to verify",
          "_mask": "Combination of permissions to verify"
        }
      },
      "proposeAdmin(address)": {
        "details": "This security prevents setting an invalid address as an admin. The pendingadmin has to claim its ownership of the contract, and prove that the newaddress is able to perform regular transactions.",
        "params": {
          "_newAdmin": "New admin address"
        }
      },
      "setAllower(address)": {
        "params": {
          "_newAllowerAddress": "New address allowed to edit the allowlist"
        }
      }
    },
    "title": "Allowlist (v1)",
    "version": 1
  },
  "userdoc": {
    "errors": {
      "Denied(address)": [
        {
          "notice": "The account is denied access"
        }
      ],
      "InvalidAlloweeCount()": [
        {
          "notice": "The provided accounts list is empty"
        }
      ],
      "InvalidInitialization(uint256,uint256)": [
        {
          "notice": "An error occured during the initialization"
        }
      ],
      "InvalidZeroAddress()": [
        {
          "notice": "The address is zero"
        }
      ],
      "MismatchedAlloweeAndStatusCount()": [
        {
          "notice": "The provided accounts and permissions list have different lengths"
        }
      ],
      "Unauthorized(address)": [
        {
          "notice": "The operator is unauthorized for the caller"
        }
      ]
    },
    "events": {
      "Initialize(uint256,bytes)": {
        "notice": "Emitted when the contract is properly initialized"
      },
      "SetAdmin(address)": {
        "notice": "The admin address changed"
      },
      "SetAllower(address)": {
        "notice": "The stored allower address has been changed"
      },
      "SetAllowlistPermissions(address[],uint256[])": {
        "notice": "The permissions of several accounts have changed"
      },
      "SetPendingAdmin(address)": {
        "notice": "The pending admin address changed"
      }
    },
    "kind": "user",
    "methods": {
      "acceptAdmin()": {
        "notice": "Accept the transfer of ownership"
      },
      "allow(address[],uint256[])": {
        "notice": "Sets the allowlisting status for one or more accounts"
      },
      "getAdmin()": {
        "notice": "Retrieves the current admin address"
      },
      "getAllower()": {
        "notice": "Retrieves the allower address"
      },
      "getPendingAdmin()": {
        "notice": "Retrieve the current pending admin address"
      },
      "getPermissions(address)": {
        "notice": "This method retrieves the raw permission value"
      },
      "hasPermission(address,uint256)": {
        "notice": "This method returns true if the user has the expected permission         ignoring any deny list membership"
      },
      "initAllowlistV1(address,address)": {
        "notice": "Initializes the allowlist"
      },
      "isAllowed(address,uint256)": {
        "notice": "This method returns true if the user has the expected permission and         is not in the deny list"
      },
      "isDenied(address)": {
        "notice": "This method returns true if the user is in the deny list"
      },
      "onlyAllowed(address,uint256)": {
        "notice": "This method should be used as a modifier and is expected to revert         if the user hasn't got the required permission or if the user is         in the deny list."
      },
      "proposeAdmin(address)": {
        "notice": "Proposes a new address as admin"
      },
      "setAllower(address)": {
        "notice": "Changes the allower address"
      }
    },
    "notice": "This contract handles the list of allowed recipients.All accounts have an uint256 value associated with their addresses whereeach bit represents a right in the system. The DENY_MASK defined the maskused to identify if the denied bit is on, preventing users from interactingwith the system",
    "version": 1
  },
  "storageLayout": {
    "storage": [],
    "types": null
  }
}