{
  "address": "0x25EF34A7ba55bb00cd5FAcaCD7A6F5f68a54d0C5",
  "abi": [
    {
      "inputs": [
        {
          "internalType": "uint256",
          "name": "version",
          "type": "uint256"
        },
        {
          "internalType": "uint256",
          "name": "expectedVersion",
          "type": "uint256"
        }
      ],
      "name": "InvalidInitialization",
      "type": "error"
    },
    {
      "inputs": [],
      "name": "InvalidZeroAddress",
      "type": "error"
    },
    {
      "anonymous": false,
      "inputs": [
        {
          "indexed": false,
          "internalType": "uint256",
          "name": "version",
          "type": "uint256"
        },
        {
          "indexed": false,
          "internalType": "bytes",
          "name": "cdata",
          "type": "bytes"
        }
      ],
      "name": "Initialize",
      "type": "event"
    },
    {
      "inputs": [],
      "name": "getRate",
      "outputs": [
        {
          "internalType": "uint256",
          "name": "",
          "type": "uint256"
        }
      ],
      "stateMutability": "view",
      "type": "function"
    },
    {
      "inputs": [
        {
          "internalType": "address",
          "name": "river",
          "type": "address"
        }
      ],
      "name": "initProtocolMetricsV1",
      "outputs": [],
      "stateMutability": "nonpayable",
      "type": "function"
    }
  ],
  "transactionHash": "0x67f90de724bad1d8ec37de3a284bf99806a77b5087cac75b97ff9875bfa1a54e",
  "args": [],
  "numDeployments": 1,
  "solcInputHash": "5ae5674abab9e9bed1b4f4a41360f58c",
  "bytecode": "0x60808060405234610092577f1809e49bba43f2d39fa57894b50cd6ccb428cc438230e065cac3eb24a1355a7190600019807f82055909238c0f5e63d6f174068ebb8f51bcec9bd37de63bb68f6551feec0cfc558152604060208201523660408201523660006060830137600060603683010152606081601f19601f3601168101030190a160405161025f90816100988239f35b600080fdfe6080604081815260048036101561001557600080fd5b600092833560e01c908163679aefce1461013c5750636bfd3b741461003957600080fd5b34610138576020366003190112610138578035906001600160a01b038216808303610134577f82055909238c0f5e63d6f174068ebb8f51bcec9bd37de63bb68f6551feec0cfc8054806101185750600190551561010a5750907f1809e49bba43f2d39fa57894b50cd6ccb428cc438230e065cac3eb24a1355a71917f1ec4138404500a2a0be2c2f9b103581c2a7fa783a934f91a6cc5cc924404973b558051908382528060208301523690820152368360608301378260603683010152606081601f19601f3601168101030190a180f35b825163f6b2911f60e01b8152fd5b8360449188885192631cfd276760e31b84528301526024820152fd5b8480fd5b8280fd5b84939150346102255783600319360112610225577f1ec4138404500a2a0be2c2f9b103581c2a7fa783a934f91a6cc5cc924404973b54637bce1f8160e11b8252670de0b6b3a764000084830152602090829060249082906001600160a01b03165afa92831561021b5784936101b6575b6020848451908152f35b909192506020903d8211610213575b601f8201601f191683019067ffffffffffffffff821184831017610200575060209183918552810103126101385760209250519083806101ac565b634e487b7160e01b865260419052602485fd5b3d91506101c5565b82513d86823e3d90fd5b8380fdfea264697066735822122050b8f96af5370d90f3ca8af20f6a792900719ece55ff143fe2475a2794cc07fc64736f6c63430008140033",
  "devdoc": {
    "errors": {
      "InvalidInitialization(uint256,uint256)": [
        {
          "params": {
            "expectedVersion": "The version that was expected",
            "version": "The version that was attempting to be initialized"
          }
        }
      ]
    },
    "events": {
      "Initialize(uint256,bytes)": {
        "params": {
          "cdata": "Complete calldata that was used during the initialization",
          "version": "New version of the contracts"
        }
      }
    },
    "kind": "dev",
    "methods": {},
    "version": 1
  },
  "userdoc": {
    "errors": {
      "InvalidInitialization(uint256,uint256)": [
        {
          "notice": "An error occured during the initialization"
        }
      ],
      "InvalidZeroAddress()": [
        {
          "notice": "The address is zero"
        }
      ]
    },
    "events": {
      "Initialize(uint256,bytes)": {
        "notice": "Emitted when the contract is properly initialized"
      }
    },
    "kind": "user",
    "methods": {},
    "version": 1
  },
  "storageLayout": {
    "storage": [],
    "types": null
  }
}