{
  "address": "0xC08206728E7E4aD466E118318FD09F8d15465410",
  "abi": [
    {
      "inputs": [],
      "stateMutability": "nonpayable",
      "type": "constructor"
    },
    {
      "inputs": [],
      "name": "GlobalUnlockUnderlfow",
      "type": "error"
    },
    {
      "inputs": [],
      "name": "InvalidRevokedVestingScheduleEnd",
      "type": "error"
    },
    {
      "inputs": [
        {
          "internalType": "string",
          "name": "msg",
          "type": "string"
        }
      ],
      "name": "InvalidVestingScheduleParameter",
      "type": "error"
    },
    {
      "inputs": [],
      "name": "InvalidZeroAddress",
      "type": "error"
    },
    {
      "inputs": [
        {
          "internalType": "address",
          "name": "caller",
          "type": "address"
        }
      ],
      "name": "Unauthorized",
      "type": "error"
    },
    {
      "inputs": [],
      "name": "UnsufficientVestingScheduleCreatorBalance",
      "type": "error"
    },
    {
      "inputs": [],
      "name": "VestingScheduleIsLocked",
      "type": "error"
    },
    {
      "inputs": [
        {
          "internalType": "uint256",
          "name": "index",
          "type": "uint256"
        }
      ],
      "name": "VestingScheduleNotFound",
      "type": "error"
    },
    {
      "inputs": [
        {
          "internalType": "uint256",
          "name": "index",
          "type": "uint256"
        }
      ],
      "name": "VestingScheduleNotFound",
      "type": "error"
    },
    {
      "inputs": [],
      "name": "VestingScheduleNotRevocable",
      "type": "error"
    },
    {
      "inputs": [],
      "name": "VestingScheduleNotRevocableInPast",
      "type": "error"
    },
    {
      "inputs": [],
      "name": "ZeroReleasableAmount",
      "type": "error"
    },
    {
      "anonymous": false,
      "inputs": [
        {
          "indexed": true,
          "internalType": "address",
          "name": "owner",
          "type": "address"
        },
        {
          "indexed": true,
          "internalType": "address",
          "name": "spender",
          "type": "address"
        },
        {
          "indexed": false,
          "internalType": "uint256",
          "name": "value",
          "type": "uint256"
        }
      ],
      "name": "Approval",
      "type": "event"
    },
    {
      "anonymous": false,
      "inputs": [
        {
          "indexed": false,
          "internalType": "uint256",
          "name": "index",
          "type": "uint256"
        },
        {
          "indexed": true,
          "internalType": "address",
          "name": "creator",
          "type": "address"
        },
        {
          "indexed": true,
          "internalType": "address",
          "name": "beneficiary",
          "type": "address"
        },
        {
          "indexed": false,
          "internalType": "uint256",
          "name": "amount",
          "type": "uint256"
        }
      ],
      "name": "CreatedVestingSchedule",
      "type": "event"
    },
    {
      "anonymous": false,
      "inputs": [
        {
          "indexed": true,
          "internalType": "address",
          "name": "delegator",
          "type": "address"
        },
        {
          "indexed": true,
          "internalType": "address",
          "name": "fromDelegate",
          "type": "address"
        },
        {
          "indexed": true,
          "internalType": "address",
          "name": "toDelegate",
          "type": "address"
        }
      ],
      "name": "DelegateChanged",
      "type": "event"
    },
    {
      "anonymous": false,
      "inputs": [
        {
          "indexed": true,
          "internalType": "address",
          "name": "delegate",
          "type": "address"
        },
        {
          "indexed": false,
          "internalType": "uint256",
          "name": "previousBalance",
          "type": "uint256"
        },
        {
          "indexed": false,
          "internalType": "uint256",
          "name": "newBalance",
          "type": "uint256"
        }
      ],
      "name": "DelegateVotesChanged",
      "type": "event"
    },
    {
      "anonymous": false,
      "inputs": [
        {
          "indexed": false,
          "internalType": "uint256",
          "name": "index",
          "type": "uint256"
        },
        {
          "indexed": true,
          "internalType": "address",
          "name": "oldDelegatee",
          "type": "address"
        },
        {
          "indexed": true,
          "internalType": "address",
          "name": "newDelegatee",
          "type": "address"
        },
        {
          "indexed": true,
          "internalType": "address",
          "name": "beneficiary",
          "type": "address"
        }
      ],
      "name": "DelegatedVestingEscrow",
      "type": "event"
    },
    {
      "anonymous": false,
      "inputs": [
        {
          "indexed": false,
          "internalType": "uint8",
          "name": "version",
          "type": "uint8"
        }
      ],
      "name": "Initialized",
      "type": "event"
    },
    {
      "anonymous": false,
      "inputs": [
        {
          "indexed": false,
          "internalType": "uint256",
          "name": "index",
          "type": "uint256"
        },
        {
          "indexed": false,
          "internalType": "uint256",
          "name": "releasedAmount",
          "type": "uint256"
        }
      ],
      "name": "ReleasedVestingSchedule",
      "type": "event"
    },
    {
      "anonymous": false,
      "inputs": [
        {
          "indexed": false,
          "internalType": "uint256",
          "name": "index",
          "type": "uint256"
        },
        {
          "indexed": false,
          "internalType": "uint256",
          "name": "returnedAmount",
          "type": "uint256"
        },
        {
          "indexed": false,
          "internalType": "uint256",
          "name": "newEnd",
          "type": "uint256"
        }
      ],
      "name": "RevokedVestingSchedule",
      "type": "event"
    },
    {
      "anonymous": false,
      "inputs": [
        {
          "indexed": true,
          "internalType": "address",
          "name": "from",
          "type": "address"
        },
        {
          "indexed": true,
          "internalType": "address",
          "name": "to",
          "type": "address"
        },
        {
          "indexed": false,
          "internalType": "uint256",
          "name": "value",
          "type": "uint256"
        }
      ],
      "name": "Transfer",
      "type": "event"
    },
    {
      "inputs": [],
      "name": "DOMAIN_SEPARATOR",
      "outputs": [
        {
          "internalType": "bytes32",
          "name": "",
          "type": "bytes32"
        }
      ],
      "stateMutability": "view",
      "type": "function"
    },
    {
      "inputs": [
        {
          "internalType": "address",
          "name": "owner",
          "type": "address"
        },
        {
          "internalType": "address",
          "name": "spender",
          "type": "address"
        }
      ],
      "name": "allowance",
      "outputs": [
        {
          "internalType": "uint256",
          "name": "",
          "type": "uint256"
        }
      ],
      "stateMutability": "view",
      "type": "function"
    },
    {
      "inputs": [
        {
          "internalType": "address",
          "name": "spender",
          "type": "address"
        },
        {
          "internalType": "uint256",
          "name": "amount",
          "type": "uint256"
        }
      ],
      "name": "approve",
      "outputs": [
        {
          "internalType": "bool",
          "name": "",
          "type": "bool"
        }
      ],
      "stateMutability": "nonpayable",
      "type": "function"
    },
    {
      "inputs": [
        {
          "internalType": "address",
          "name": "account",
          "type": "address"
        }
      ],
      "name": "balanceOf",
      "outputs": [
        {
          "internalType": "uint256",
          "name": "",
          "type": "uint256"
        }
      ],
      "stateMutability": "view",
      "type": "function"
    },
    {
      "inputs": [
        {
          "internalType": "address",
          "name": "account",
          "type": "address"
        },
        {
          "internalType": "uint32",
          "name": "pos",
          "type": "uint32"
        }
      ],
      "name": "checkpoints",
      "outputs": [
        {
          "components": [
            {
              "internalType": "uint32",
              "name": "fromBlock",
              "type": "uint32"
            },
            {
              "internalType": "uint224",
              "name": "votes",
              "type": "uint224"
            }
          ],
          "internalType": "struct ERC20VotesUpgradeable.Checkpoint",
          "name": "",
          "type": "tuple"
        }
      ],
      "stateMutability": "view",
      "type": "function"
    },
    {
      "inputs": [
        {
          "internalType": "uint256",
          "name": "_index",
          "type": "uint256"
        }
      ],
      "name": "computeVestingReleasableAmount",
      "outputs": [
        {
          "internalType": "uint256",
          "name": "",
          "type": "uint256"
        }
      ],
      "stateMutability": "view",
      "type": "function"
    },
    {
      "inputs": [
        {
          "internalType": "uint256",
          "name": "_index",
          "type": "uint256"
        }
      ],
      "name": "computeVestingVestedAmount",
      "outputs": [
        {
          "internalType": "uint256",
          "name": "",
          "type": "uint256"
        }
      ],
      "stateMutability": "view",
      "type": "function"
    },
    {
      "inputs": [
        {
          "internalType": "uint64",
          "name": "_start",
          "type": "uint64"
        },
        {
          "internalType": "uint32",
          "name": "_cliffDuration",
          "type": "uint32"
        },
        {
          "internalType": "uint32",
          "name": "_duration",
          "type": "uint32"
        },
        {
          "internalType": "uint32",
          "name": "_periodDuration",
          "type": "uint32"
        },
        {
          "internalType": "uint32",
          "name": "_lockDuration",
          "type": "uint32"
        },
        {
          "internalType": "bool",
          "name": "_revocable",
          "type": "bool"
        },
        {
          "internalType": "uint256",
          "name": "_amount",
          "type": "uint256"
        },
        {
          "internalType": "address",
          "name": "_beneficiary",
          "type": "address"
        },
        {
          "internalType": "address",
          "name": "_delegatee",
          "type": "address"
        },
        {
          "internalType": "bool",
          "name": "_ignoreGlobalUnlockSchedule",
          "type": "bool"
        }
      ],
      "name": "createVestingSchedule",
      "outputs": [
        {
          "internalType": "uint256",
          "name": "",
          "type": "uint256"
        }
      ],
      "stateMutability": "nonpayable",
      "type": "function"
    },
    {
      "inputs": [],
      "name": "decimals",
      "outputs": [
        {
          "internalType": "uint8",
          "name": "",
          "type": "uint8"
        }
      ],
      "stateMutability": "view",
      "type": "function"
    },
    {
      "inputs": [
        {
          "internalType": "address",
          "name": "spender",
          "type": "address"
        },
        {
          "internalType": "uint256",
          "name": "subtractedValue",
          "type": "uint256"
        }
      ],
      "name": "decreaseAllowance",
      "outputs": [
        {
          "internalType": "bool",
          "name": "",
          "type": "bool"
        }
      ],
      "stateMutability": "nonpayable",
      "type": "function"
    },
    {
      "inputs": [
        {
          "internalType": "address",
          "name": "delegatee",
          "type": "address"
        }
      ],
      "name": "delegate",
      "outputs": [],
      "stateMutability": "nonpayable",
      "type": "function"
    },
    {
      "inputs": [
        {
          "internalType": "address",
          "name": "delegatee",
          "type": "address"
        },
        {
          "internalType": "uint256",
          "name": "nonce",
          "type": "uint256"
        },
        {
          "internalType": "uint256",
          "name": "expiry",
          "type": "uint256"
        },
        {
          "internalType": "uint8",
          "name": "v",
          "type": "uint8"
        },
        {
          "internalType": "bytes32",
          "name": "r",
          "type": "bytes32"
        },
        {
          "internalType": "bytes32",
          "name": "s",
          "type": "bytes32"
        }
      ],
      "name": "delegateBySig",
      "outputs": [],
      "stateMutability": "nonpayable",
      "type": "function"
    },
    {
      "inputs": [
        {
          "internalType": "uint256",
          "name": "_index",
          "type": "uint256"
        },
        {
          "internalType": "address",
          "name": "_delegatee",
          "type": "address"
        }
      ],
      "name": "delegateVestingEscrow",
      "outputs": [
        {
          "internalType": "bool",
          "name": "",
          "type": "bool"
        }
      ],
      "stateMutability": "nonpayable",
      "type": "function"
    },
    {
      "inputs": [
        {
          "internalType": "address",
          "name": "account",
          "type": "address"
        }
      ],
      "name": "delegates",
      "outputs": [
        {
          "internalType": "address",
          "name": "",
          "type": "address"
        }
      ],
      "stateMutability": "view",
      "type": "function"
    },
    {
      "inputs": [
        {
          "internalType": "uint256",
          "name": "blockNumber",
          "type": "uint256"
        }
      ],
      "name": "getPastTotalSupply",
      "outputs": [
        {
          "internalType": "uint256",
          "name": "",
          "type": "uint256"
        }
      ],
      "stateMutability": "view",
      "type": "function"
    },
    {
      "inputs": [
        {
          "internalType": "address",
          "name": "account",
          "type": "address"
        },
        {
          "internalType": "uint256",
          "name": "blockNumber",
          "type": "uint256"
        }
      ],
      "name": "getPastVotes",
      "outputs": [
        {
          "internalType": "uint256",
          "name": "",
          "type": "uint256"
        }
      ],
      "stateMutability": "view",
      "type": "function"
    },
    {
      "inputs": [
        {
          "internalType": "uint256",
          "name": "_index",
          "type": "uint256"
        }
      ],
      "name": "getVestingSchedule",
      "outputs": [
        {
          "components": [
            {
              "internalType": "uint64",
              "name": "start",
              "type": "uint64"
            },
            {
              "internalType": "uint64",
              "name": "end",
              "type": "uint64"
            },
            {
              "internalType": "uint32",
              "name": "cliffDuration",
              "type": "uint32"
            },
            {
              "internalType": "uint32",
              "name": "lockDuration",
              "type": "uint32"
            },
            {
              "internalType": "uint32",
              "name": "duration",
              "type": "uint32"
            },
            {
              "internalType": "uint32",
              "name": "periodDuration",
              "type": "uint32"
            },
            {
              "internalType": "uint256",
              "name": "amount",
              "type": "uint256"
            },
            {
              "internalType": "address",
              "name": "creator",
              "type": "address"
            },
            {
              "internalType": "address",
              "name": "beneficiary",
              "type": "address"
            },
            {
              "internalType": "bool",
              "name": "revocable",
              "type": "bool"
            },
            {
              "internalType": "uint256",
              "name": "releasedAmount",
              "type": "uint256"
            }
          ],
          "internalType": "struct VestingSchedulesV2.VestingSchedule",
          "name": "",
          "type": "tuple"
        }
      ],
      "stateMutability": "view",
      "type": "function"
    },
    {
      "inputs": [],
      "name": "getVestingScheduleCount",
      "outputs": [
        {
          "internalType": "uint256",
          "name": "",
          "type": "uint256"
        }
      ],
      "stateMutability": "view",
      "type": "function"
    },
    {
      "inputs": [
        {
          "internalType": "address",
          "name": "account",
          "type": "address"
        }
      ],
      "name": "getVotes",
      "outputs": [
        {
          "internalType": "uint256",
          "name": "",
          "type": "uint256"
        }
      ],
      "stateMutability": "view",
      "type": "function"
    },
    {
      "inputs": [
        {
          "internalType": "address",
          "name": "spender",
          "type": "address"
        },
        {
          "internalType": "uint256",
          "name": "addedValue",
          "type": "uint256"
        }
      ],
      "name": "increaseAllowance",
      "outputs": [
        {
          "internalType": "bool",
          "name": "",
          "type": "bool"
        }
      ],
      "stateMutability": "nonpayable",
      "type": "function"
    },
    {
      "inputs": [
        {
          "internalType": "address",
          "name": "_account",
          "type": "address"
        }
      ],
      "name": "initTLCV1",
      "outputs": [],
      "stateMutability": "nonpayable",
      "type": "function"
    },
    {
      "inputs": [
        {
          "internalType": "uint256",
          "name": "_index",
          "type": "uint256"
        }
      ],
      "name": "isGlobalUnlockedScheduleIgnored",
      "outputs": [
        {
          "internalType": "bool",
          "name": "",
          "type": "bool"
        }
      ],
      "stateMutability": "view",
      "type": "function"
    },
    {
      "inputs": [],
      "name": "migrateVestingSchedules",
      "outputs": [],
      "stateMutability": "nonpayable",
      "type": "function"
    },
    {
      "inputs": [],
      "name": "name",
      "outputs": [
        {
          "internalType": "string",
          "name": "",
          "type": "string"
        }
      ],
      "stateMutability": "view",
      "type": "function"
    },
    {
      "inputs": [
        {
          "internalType": "address",
          "name": "owner",
          "type": "address"
        }
      ],
      "name": "nonces",
      "outputs": [
        {
          "internalType": "uint256",
          "name": "",
          "type": "uint256"
        }
      ],
      "stateMutability": "view",
      "type": "function"
    },
    {
      "inputs": [
        {
          "internalType": "address",
          "name": "account",
          "type": "address"
        }
      ],
      "name": "numCheckpoints",
      "outputs": [
        {
          "internalType": "uint32",
          "name": "",
          "type": "uint32"
        }
      ],
      "stateMutability": "view",
      "type": "function"
    },
    {
      "inputs": [
        {
          "internalType": "address",
          "name": "owner",
          "type": "address"
        },
        {
          "internalType": "address",
          "name": "spender",
          "type": "address"
        },
        {
          "internalType": "uint256",
          "name": "value",
          "type": "uint256"
        },
        {
          "internalType": "uint256",
          "name": "deadline",
          "type": "uint256"
        },
        {
          "internalType": "uint8",
          "name": "v",
          "type": "uint8"
        },
        {
          "internalType": "bytes32",
          "name": "r",
          "type": "bytes32"
        },
        {
          "internalType": "bytes32",
          "name": "s",
          "type": "bytes32"
        }
      ],
      "name": "permit",
      "outputs": [],
      "stateMutability": "nonpayable",
      "type": "function"
    },
    {
      "inputs": [
        {
          "internalType": "uint256",
          "name": "_index",
          "type": "uint256"
        }
      ],
      "name": "releaseVestingSchedule",
      "outputs": [
        {
          "internalType": "uint256",
          "name": "",
          "type": "uint256"
        }
      ],
      "stateMutability": "nonpayable",
      "type": "function"
    },
    {
      "inputs": [
        {
          "internalType": "uint256",
          "name": "_index",
          "type": "uint256"
        },
        {
          "internalType": "uint64",
          "name": "_end",
          "type": "uint64"
        }
      ],
      "name": "revokeVestingSchedule",
      "outputs": [
        {
          "internalType": "uint256",
          "name": "",
          "type": "uint256"
        }
      ],
      "stateMutability": "nonpayable",
      "type": "function"
    },
    {
      "inputs": [],
      "name": "symbol",
      "outputs": [
        {
          "internalType": "string",
          "name": "",
          "type": "string"
        }
      ],
      "stateMutability": "view",
      "type": "function"
    },
    {
      "inputs": [],
      "name": "totalSupply",
      "outputs": [
        {
          "internalType": "uint256",
          "name": "",
          "type": "uint256"
        }
      ],
      "stateMutability": "view",
      "type": "function"
    },
    {
      "inputs": [
        {
          "internalType": "address",
          "name": "to",
          "type": "address"
        },
        {
          "internalType": "uint256",
          "name": "amount",
          "type": "uint256"
        }
      ],
      "name": "transfer",
      "outputs": [
        {
          "internalType": "bool",
          "name": "",
          "type": "bool"
        }
      ],
      "stateMutability": "nonpayable",
      "type": "function"
    },
    {
      "inputs": [
        {
          "internalType": "address",
          "name": "from",
          "type": "address"
        },
        {
          "internalType": "address",
          "name": "to",
          "type": "address"
        },
        {
          "internalType": "uint256",
          "name": "amount",
          "type": "uint256"
        }
      ],
      "name": "transferFrom",
      "outputs": [
        {
          "internalType": "bool",
          "name": "",
          "type": "bool"
        }
      ],
      "stateMutability": "nonpayable",
      "type": "function"
    },
    {
      "inputs": [
        {
          "internalType": "uint256",
          "name": "_index",
          "type": "uint256"
        }
      ],
      "name": "vestingEscrow",
      "outputs": [
        {
          "internalType": "address",
          "name": "",
          "type": "address"
        }
      ],
      "stateMutability": "view",
      "type": "function"
    }
  ],
  "transactionHash": "0xe8c74ca30f89ced3cc19670daafdb3eddaeed5eee5f7899f56af96eeca8853d6",
  "args": [],
  "numDeployments": 1,
  "solcInputHash": "326843f44b9486998dc19acaea9f584b",
  "bytecode": "0x60806040523480156200001157600080fd5b506200001c62000022565b620000e4565b600054610100900460ff16156200008f5760405162461bcd60e51b815260206004820152602760248201527f496e697469616c697a61626c653a20636f6e747261637420697320696e697469604482015266616c697a696e6760c81b606482015260840160405180910390fd5b60005460ff9081161015620000e2576000805460ff191660ff9081179091556040519081527f7f26b83ff96e1f2b6a682f133852f6798a09c465da95921460cefb38474024989060200160405180910390a15b565b613aa380620000f46000396000f3fe608060405234801561001057600080fd5b50600436106101965760003560e01c806306fdde031461019b578063095ea7b3146101b957806318160ddd146101dc57806323b872dd146101ee57806323dd35b41461020157806328766ffd1461021457806329c9093b14610229578063313ce5671461023c5780633644e5151461024b57806339509351146102535780633a46b1a814610266578063574d918314610279578063587cde1e1461028c57806359facefd146102ac5780635c19a95c146102b45780636fcfff45146102c757806370a08231146102ef5780637ecebe00146103025780638c0aeff4146103155780638e539e8c146103285780638fb8ad841461033b5780639295ccec1461034e57806395d89b41146103565780639ab24eb01461035e578063a457c2d714610371578063a9059cbb14610384578063beb8f88314610397578063c3cda520146103b7578063d10a1faf146103ca578063d505accf146103dd578063dd62ed3e146103f0578063decc722414610403578063f0519be014610416578063f1127ed814610429575b600080fd5b6101a3610466565b6040516101b091906132fe565b60405180910390f35b6101cc6101c736600461336f565b6104f8565b60405190151581526020016101b0565b6035545b6040519081526020016101b0565b6101cc6101fc366004613399565b610512565b6101cc61020f3660046133d5565b610538565b610227610222366004613401565b610544565b005b6101e061023736600461341c565b61069c565b604051601281526020016101b0565b6101e0610772565b6101cc61026136600461336f565b610781565b6101e061027436600461336f565b6107a3565b6101e061028736600461341c565b6107e6565b61029f61029a366004613401565b6107f1565b6040516101b09190613442565b61022761080f565b6102276102c2366004613401565b61089b565b6102da6102d5366004613401565b6108a8565b60405163ffffffff90911681526020016101b0565b6101e06102fd366004613401565b6108ca565b6101e0610310366004613401565b6108e5565b6101cc61032336600461341c565b610903565b6101e061033636600461341c565b61090e565b6101e061034936600461341c565b61093a565b6101e0610a06565b6101a3610a10565b6101e061036c366004613401565b610a1f565b6101cc61037f36600461336f565b610aa5565b6101cc61039236600461336f565b610b2b565b6103aa6103a536600461341c565b610b39565b6040516101b09190613456565b6102276103c5366004613545565b610c53565b6101e06103d83660046135d8565b610d85565b6102276103eb36600461368b565b610da9565b6101e06103fe3660046136f5565b610f0d565b61029f61041136600461341c565b610f38565b6101e061042436600461371f565b610f43565b61043c610437366004613742565b610f4f565b60408051825163ffffffff1681526020928301516001600160e01b031692810192909252016101b0565b6060603680546104759061376c565b80601f01602080910402602001604051908101604052809291908181526020018280546104a19061376c565b80156104ee5780601f106104c3576101008083540402835291602001916104ee565b820191906000526020600020905b8154815290600101906020018083116104d157829003601f168201915b5050505050905090565b600033610506818585610fd2565b60019150505b92915050565b6000336105208582856110f6565b61052b858585611170565b60019150505b9392505050565b6000610531838361130f565b600054610100900460ff16158080156105645750600054600160ff909116105b8061057e5750303b15801561057e575060005460ff166001145b6105a35760405162461bcd60e51b815260040161059a906137a1565b60405180910390fd5b6000805460ff1916600117905580156105c6576000805461ff0019166101001790555b6105cf826113d4565b610601604051806040016040528060118152602001704c697175696420436f6c6c65637469766560781b8152506113fb565b61064f604051806040016040528060118152602001704c697175696420436f6c6c65637469766560781b81525060405180604001604052806003815260200162544c4360e81b815250611445565b61066482676765c793fa10079d601b1b611476565b8015610698576000805461ff001916905560405160018152600080516020613a0e8339815191529060200160405180910390a15b5050565b6000806106a883611500565b604080516101608101825282546001600160401b038082168352600160401b82041660208301819052600160801b820463ffffffff90811694840194909452600160a01b80830485166060850152600160c01b830485166080850152600160e01b90920490931660a0830152600184015460c083015260028401546001600160a01b0390811660e084015260038501549081166101008401520460ff16151561012082015260049092015461014083015290915061053190829061076d904290611571565b611586565b600061077c611657565b905090565b6000336105068185856107948383610f0d565b61079e9190613805565b610fd2565b60004382106107c45760405162461bcd60e51b815260040161059a9061381d565b6001600160a01b038316600090815260cd6020526040902061053190836116d2565b600061050c826117c8565b6001600160a01b03908116600090815260cc60205260409020541690565b600054600290610100900460ff16158015610831575060005460ff8083169116105b61084d5760405162461bcd60e51b815260040161059a906137a1565b6000805461ffff191660ff831617610100179055610869611958565b6000805461ff001916905560405160ff82168152600080516020613a0e8339815191529060200160405180910390a150565b6108a533826119c9565b50565b6001600160a01b038116600090815260cd602052604081205461050c90611a49565b6001600160a01b031660009081526033602052604090205490565b6001600160a01b03811660009081526099602052604081205461050c565b600061050c82611ab2565b600043821061092f5760405162461bcd60e51b815260040161059a9061381d565b61050c60ce836116d2565b60008061094683611500565b604080516101608101825282546001600160401b038082168352600160401b8204166020830152600160801b810463ffffffff90811693830193909352600160a01b80820484166060840152600160c01b820484166080840152600160e01b90910490921660a0820152600183015460c082015260028301546001600160a01b0390811660e083015260038401549081166101008301529190910460ff161515610120820152600490910154610140820152905061053181600085611ae3565b600061077c611c22565b6060603780546104759061376c565b6001600160a01b038116600090815260cd60205260408120548015610a92576001600160a01b038316600090815260cd60205260409020610a61600183613854565b81548110610a7157610a7161386b565b600091825260209091200154600160201b90046001600160e01b0316610a95565b60005b6001600160e01b03169392505050565b60003381610ab38286610f0d565b905083811015610b135760405162461bcd60e51b815260206004820152602560248201527f45524332303a2064656372656173656420616c6c6f77616e63652062656c6f77604482015264207a65726f60d81b606482015260840161059a565b610b208286868403610fd2565b506001949350505050565b600033610506818585611170565b6040805161016081018252600080825260208201819052918101829052606081018290526080810182905260a0810182905260c0810182905260e0810182905261010081018290526101208101829052610140810191909152610b9b82611500565b604080516101608101825282546001600160401b038082168352600160401b8204166020830152600160801b810463ffffffff90811693830193909352600160a01b80820484166060840152600160c01b820484166080840152600160e01b90910490921660a0820152600183015460c082015260028301546001600160a01b0390811660e083015260038401549081166101008301529190910460ff16151561012082015260049091015461014082015292915050565b83421115610ca35760405162461bcd60e51b815260206004820152601d60248201527f4552433230566f7465733a207369676e61747572652065787069726564000000604482015260640161059a565b604080517fe48329057bfd03d55e49b547132e39cffd9c1820ad7b9d4c5307691425d15adf60208201526001600160a01b038816918101919091526060810186905260808101859052600090610d1d90610d159060a00160405160208183030381529060405280519060200120611c45565b858585611c93565b9050610d2881611cbb565b8614610d725760405162461bcd60e51b81526020600482015260196024820152784552433230566f7465733a20696e76616c6964206e6f6e636560381b604482015260640161059a565b610d7c81886119c9565b50505050505050565b6000610d9a3385858e8e8e8e8e8e8e8c611cde565b9b9a5050505050505050505050565b83421115610df95760405162461bcd60e51b815260206004820152601d60248201527f45524332305065726d69743a206578706972656420646561646c696e65000000604482015260640161059a565b60007f6e71edae12b1b97f4d1f60370fef10105fa2faae0126114a169c64845d6126c9888888610e288c611cbb565b6040805160208101969096526001600160a01b0394851690860152929091166060840152608083015260a082015260c0810186905260e0016040516020818303038152906040528051906020012090506000610e8382611c45565b90506000610e9382878787611c93565b9050896001600160a01b0316816001600160a01b031614610ef65760405162461bcd60e51b815260206004820152601e60248201527f45524332305065726d69743a20696e76616c6964207369676e61747572650000604482015260640161059a565b610f018a8a8a610fd2565b50505050505050505050565b6001600160a01b03918216600090815260346020908152604080832093909416825291909152205490565b600061050c8261221f565b60006105318383612294565b60408051808201909152600080825260208201526001600160a01b038316600090815260cd60205260409020805463ffffffff8416908110610f9357610f9361386b565b60009182526020918290206040805180820190915291015463ffffffff81168252600160201b90046001600160e01b0316918101919091529392505050565b6001600160a01b0383166110345760405162461bcd60e51b8152602060048201526024808201527f45524332303a20617070726f76652066726f6d20746865207a65726f206164646044820152637265737360e01b606482015260840161059a565b6001600160a01b0382166110955760405162461bcd60e51b815260206004820152602260248201527f45524332303a20617070726f766520746f20746865207a65726f206164647265604482015261737360f01b606482015260840161059a565b6001600160a01b0383811660008181526034602090815260408083209487168084529482529182902085905590518481527f8c5be1e5ebec7d5bd14f71427d1e84f3dd0314c0f7b2291e5b200ac8c7c3b925910160405180910390a3505050565b60006111028484610f0d565b9050600019811461116a578181101561115d5760405162461bcd60e51b815260206004820152601d60248201527f45524332303a20696e73756666696369656e7420616c6c6f77616e6365000000604482015260640161059a565b61116a8484848403610fd2565b50505050565b6001600160a01b0383166111d45760405162461bcd60e51b815260206004820152602560248201527f45524332303a207472616e736665722066726f6d20746865207a65726f206164604482015264647265737360d81b606482015260840161059a565b6001600160a01b0382166112365760405162461bcd60e51b815260206004820152602360248201527f45524332303a207472616e7366657220746f20746865207a65726f206164647260448201526265737360e81b606482015260840161059a565b6001600160a01b038316600090815260336020526040902054818110156112ae5760405162461bcd60e51b815260206004820152602660248201527f45524332303a207472616e7366657220616d6f756e7420657863656564732062604482015265616c616e636560d01b606482015260840161059a565b6001600160a01b038085166000818152603360205260408082208686039055928616808252908390208054860190559151600080516020613a2e833981519152906112fc9086815260200190565b60405180910390a361116a8484846125b1565b60008061131b84611500565b60038101549091506001600160a01b0316331461134d573360405163472511eb60e11b815260040161059a9190613442565b60006113588561221f565b90506000611365826107f1565b905061137182866119c9565b336001600160a01b0316856001600160a01b0316826001600160a01b03167ff59662617e9c4f8707dff52c85bd8f49f665073ba5fffb29c2a55ebf58e7a75e896040516113c091815260200190565b60405180910390a450600195945050505050565b6001600160a01b0381166108a55760405163f6b2911f60e01b815260040160405180910390fd5b600054610100900460ff166114225760405162461bcd60e51b815260040161059a90613881565b6108a581604051806040016040528060018152602001603160f81b8152506125cc565b600054610100900460ff1661146c5760405162461bcd60e51b815260040161059a90613881565b610698828261260d565b611480828261265b565b6035546001600160e01b0310156114f25760405162461bcd60e51b815260206004820152603060248201527f4552433230566f7465733a20746f74616c20737570706c79207269736b73206f60448201526f766572666c6f77696e6720766f74657360801b606482015260840161059a565b61116a60ce6127128361271e565b60008061151c60016000805160206139ae833981519152613854565b8054909150819084106115455760405163ad7d6e0960e01b81526004810185905260240161059a565b80600001848154811061155a5761155a61386b565b906000526020600020906005020192505050919050565b60008183116115805782610531565b50919050565b6000826040015163ffffffff1683600001516115a291906138cc565b6001600160401b03168210156115ba5750600061050c565b608083015183516115d19163ffffffff16906138cc565b6001600160401b031682106115eb575060c082015161050c565b8251600090611603906001600160401b031684613854565b905060008460a0015163ffffffff168261161d919061390d565b6116279083613854565b9050846080015163ffffffff168560c00151826116449190613921565b61164e9190613940565b9250505061050c565b600061077c7f8b73c3c69bb8fe3d512ecc4cf759cc79239f7b179b0ffacaa9a75d522b39400f61168660655490565b6066546040805160208101859052908101839052606081018290524660808201523060a082015260009060c0016040516020818303038152906040528051906020012090509392505050565b81546000908181600581111561172c5760006116ed8461286f565b6116f79085613854565b600088815260209020909150869082015463ffffffff16111561171c5780915061172a565b611727816001613805565b92505b505b808210156117795760006117408383612954565b600088815260209020909150869082015463ffffffff16111561176557809150611773565b611770816001613805565b92505b5061172c565b80156117b25761179c8661178e600184613854565b600091825260209091200190565b54600160201b90046001600160e01b03166117b5565b60005b6001600160e01b03169695505050505050565b6000806117d483611500565b60038101549091506001600160a01b03163314611806573360405163472511eb60e11b815260040161059a9190613442565b604080516101608101825282546001600160401b038082168352600160401b8204166020830152600160801b810463ffffffff90811693830193909352600160a01b80820484166060840152600160c01b820484166080840152600160e01b90910490921660a082015260018084015460c083015260028401546001600160a01b0390811660e084015260038501549081166101008401529290920460ff16151561012082015260048301546101408201526000916118c6919086611ae3565b9050806118e657604051630fe6b58b60e41b815260040160405180910390fd5b60006118f18561221f565b90506118fe813384611170565b818360040160008282546119129190613805565b909155505060408051868152602081018490527f8e54a80e4adf22e5669cda627d76c97a21b0a2a54fab3b48b1b38b97b29580f0910160405180910390a1509392505050565b611960611c22565b6119c757600061196e61296f565b905060005b818110156106985760006119868261298b565b60010154905060006119a361199d6102fd8561221f565b83611571565b6119ad9083613854565b90506119b983826129fc565b508260010192505050611973565b565b60006119d4836107f1565b905060006119e1846108ca565b6001600160a01b03858116600081815260cc602052604080822080546001600160a01b031916898616908117909155905194955093928616927f3134e8a2e6d97e929a7e54011ea5485d7d196dd5f0ba4d4ef95803e8e3fc257f9190a461116a828483612c65565b600063ffffffff821115611aae5760405162461bcd60e51b815260206004820152602660248201527f53616665436173743a2076616c756520646f65736e27742066697420696e203360448201526532206269747360d01b606482015260840161059a565b5090565b600080611ace60016000805160206139ce833981519152613854565b60009384526020525050604090205460ff1690565b606083015183516000914291611aff9163ffffffff16906138cc565b6001600160401b0316811015611b38578315611b2e5760405163fad681e760e01b815260040160405180910390fd5b6000915050610531565b600085610140015190506000611b758788602001516001600160401b03168511611b625784611586565b88602001516001600160401b0316611586565b905081811115611c1557611b8885611ab2565b611c0b576000611bc88860c00151896060015163ffffffff168a60000151611bb091906138cc565b611bc3906001600160401b031687613854565b612d7e565b905080831115611beb576040516317eb986760e21b815260040160405180910390fd5b82611bf68383611571565b611c009190613854565b945050505050610531565b0391506105319050565b5060009695505050505050565b600080611c3e60016000805160206139ae833981519152613854565b5492915050565b600061050c611c52611657565b8360405161190160f01b6020820152602281018390526042810182905260009060620160405160208183030381529060405280519060200120905092915050565b6000806000611ca487878787612db6565b91509150611cb181612e70565b5095945050505050565b6001600160a01b0316600090815260996020526040902080546001810190915590565b600082611cea8d6108ca565b1015611d0957604051633464861d60e21b815260040160405180910390fd5b6001600160a01b038b16611d7e57604051630d63fe3160e31b815260206004820152603560248201527f56657374696e67207363686564756c652062656e6566696369617279206d757360448201527474206265206e6f6e207a65726f206164647265737360581b606482015260840161059a565b63ffffffff8716611dce57604051630d63fe3160e31b815260206004820152602560248201526000805160206139ee833981519152604482015264065203e20360dc1b606482015260840161059a565b82611e2857604051630d63fe3160e31b815260206004820152602360248201527f56657374696e67207363686564756c6520616d6f756e74206d7573742062652060448201526203e20360ec1b606482015260840161059a565b63ffffffff8616611e8857604051630d63fe3160e31b815260206004820152602360248201527f56657374696e67207363686564756c6520706572696f64206d7573742062652060448201526203e20360ec1b606482015260840161059a565b6000611e948789613954565b63ffffffff161115611f0757604051630d63fe3160e31b815260206004820152603560248201527f56657374696e67207363686564756c65206475726174696f6e206d7573742073604482015274706c697420696e20657861637420706572696f647360581b606482015260840161059a565b6000611f13878a613954565b63ffffffff161115611f8c57604051630d63fe3160e31b815260206004820152603b60248201527f56657374696e67207363686564756c6520636c696666206475726174696f6e2060448201527a6d7573742073706c697420696e20657861637420706572696f647360281b606482015260840161059a565b8663ffffffff168863ffffffff16111561201357604051630d63fe3160e31b815260206004820152604d60248201526000805160206139ee83398151915260448201527f652067726561746572207468616e206f7220657175616c20746f20746865206360648201526c3634b33310323ab930ba34b7b760991b608482015260a40161059a565b8663ffffffff168663ffffffff168461202c9190613921565b6120369190613940565b6120a357604051630d63fe3160e31b815260206004820152603760248201527f56657374696e67207363686564756c6520616d6f756e7420746f6f206c6f7720604482015276199bdc88191d5c985d1a5bdb88185b99081c195c9a5bd9604a1b606482015260840161059a565b6001600160401b0389166120b5574298505b60006040518061016001604052808b6001600160401b031681526020018963ffffffff168c6120e491906138cc565b6001600160401b031681526020018a63ffffffff1681526020018763ffffffff1681526020018963ffffffff1681526020018863ffffffff1681526020018581526020018e6001600160a01b031681526020018d6001600160a01b031681526020018615158152602001600081525090506000600161216283612fb9565b61216c9190613854565b90506121788185613115565b60006121838261221f565b90506121908f8288611170565b6001600160a01b038d166121ad576121a8818f6119c9565b6121b7565b6121b7818e6119c9565b8d6001600160a01b03168f6001600160a01b03167fb0274f4a20cdf2005bb6a28aab72868f144d56c0828753a0f6edc7a62ef131b18489604051612205929190918252602082015260400190565b60405180910390a3509d9c50505050505050505050505050565b6000803061224e60017f5c24c10d65ac9aa9e0f7f63d96fe83c89107fae52b4ef778334c906c1ec5c1ed613854565b60405160609290921b6001600160601b031916602083015260348201526054810184905260740160408051601f1981840301815291905280516020909101209392505050565b60006001600160401b0382166122ac574291506122d6565b42826001600160401b031610156122d6576040516317518afb60e11b815260040160405180910390fd5b60006122e184611500565b6003810154909150600160a01b900460ff16612310576040516341a76da360e01b815260040160405180910390fd5b80546001600160401b03908116908416108061233f575080546001600160401b03808516600160401b90920416105b1561235d57604051635178474560e11b815260040160405180910390fd5b60028101546001600160a01b0316331461238c573360405163472511eb60e11b815260040161059a9190613442565b604080516101608101825282546001600160401b038082168352600160401b82041660208301819052600160801b820463ffffffff90811694840194909452600160a01b80830485166060850152600160c01b830485166080850152600160e01b90920490931660a0830152600184015460c083015260028401546001600160a01b0390811660e084015260038501549081166101008401520460ff16151561012082015260048301546101408201526000916124499190611586565b604080516101608101825284546001600160401b038082168352600160401b820481166020840152600160801b820463ffffffff90811694840194909452600160a01b80830485166060850152600160c01b830485166080850152600160e01b90920490931660a0830152600186015460c083015260028601546001600160a01b0390811660e084015260038701549081166101008401520460ff1615156101208201526004850154610140820152919250600091612509918716611586565b905060006125178284613854565b9050801561253957600061252a8861221f565b9050612537813384611170565b505b8354600160401b600160801b031916600160401b6001600160401b0388169081029190911785556040805189815260208101849052908101919091527f2c802be755370b3a250faf14516cb3480b47417d4c12d7fa0ff3ee0b937d99e99060600160405180910390a19695505050505050565b505050565b6125ac6125bd846107f1565b6125c6846107f1565b83612c65565b600054610100900460ff166125f35760405162461bcd60e51b815260040161059a90613881565b815160209283012081519190920120606591909155606655565b600054610100900460ff166126345760405162461bcd60e51b815260040161059a90613881565b815161264790603690602085019061326e565b5080516125ac90603790602084019061326e565b6001600160a01b0382166126b15760405162461bcd60e51b815260206004820152601f60248201527f45524332303a206d696e7420746f20746865207a65726f206164647265737300604482015260640161059a565b80603560008282546126c39190613805565b90915550506001600160a01b038216600081815260336020908152604080832080548601905551848152600080516020613a2e833981519152910160405180910390a3610698600083836125b1565b60006105318284613805565b8254600090819081811561276a5761273b8761178e600185613854565b60408051808201909152905463ffffffff81168252600160201b90046001600160e01b0316602082015261277f565b60408051808201909152600080825260208201525b905080602001516001600160e01b0316935061279f84868863ffffffff16565b92506000821180156127b75750805163ffffffff1643145b156127fb576127c58361314f565b6127d48861178e600186613854565b80546001600160e01b0392909216600160201b0263ffffffff909216919091179055612865565b86604051806040016040528061281043611a49565b63ffffffff1681526020016128248661314f565b6001600160e01b039081169091528254600181018455600093845260209384902083519490930151909116600160201b0263ffffffff909316929092179101555b5050935093915050565b60008161287e57506000919050565b6000600161288b846131b8565b901c6001901b905060018184816128a4576128a46138f7565b048201901c905060018184816128bc576128bc6138f7565b048201901c905060018184816128d4576128d46138f7565b048201901c905060018184816128ec576128ec6138f7565b048201901c90506001818481612904576129046138f7565b048201901c9050600181848161291c5761291c6138f7565b048201901c90506001818481612934576129346138f7565b048201901c90506105318182858161294e5761294e6138f7565b0461324c565b60006129636002848418613940565b61053190848416613805565b600080611c3e600160008051602061398e833981519152613854565b6000806129a7600160008051602061398e833981519152613854565b8054909150819084106129d05760405163ad7d6e0960e01b81526004810185905260240161059a565b8060000184815481106129e5576129e561386b565b906000526020600020906004020192505050919050565b600080612a088461298b565b604051806101400160405290816000820160009054906101000a90046001600160401b03166001600160401b03166001600160401b031681526020016000820160089054906101000a90046001600160401b03166001600160401b03166001600160401b031681526020016000820160109054906101000a900463ffffffff1663ffffffff1663ffffffff1681526020016000820160149054906101000a900463ffffffff1663ffffffff1663ffffffff1681526020016000820160189054906101000a900463ffffffff1663ffffffff1663ffffffff16815260200160008201601c9054906101000a900463ffffffff1663ffffffff1663ffffffff168152602001600182015481526020016002820160009054906101000a90046001600160a01b03166001600160a01b03166001600160a01b031681526020016003820160009054906101000a90046001600160a01b03166001600160a01b03166001600160a01b031681526020016003820160149054906101000a900460ff1615151515815250509050600060405180610160016040528083600001516001600160401b0316815260200183602001516001600160401b03168152602001836040015163ffffffff168152602001836060015163ffffffff168152602001836080015163ffffffff1681526020018360a0015163ffffffff1681526020018360c0015181526020018360e001516001600160a01b031681526020018361010001516001600160a01b03168152602001836101200151151581526020018581525090506001612c5282612fb9565b612c5c9190613854565b95945050505050565b816001600160a01b0316836001600160a01b031614158015612c875750600081115b156125ac576001600160a01b03831615612d03576001600160a01b038316600090815260cd602052604081208190612cc2906132628561271e565b91509150846001600160a01b0316600080516020613a4e8339815191528383604051612cf8929190918252602082015260400190565b60405180910390a250505b6001600160a01b038216156125ac576001600160a01b038216600090815260cd602052604081208190612d39906127128561271e565b91509150836001600160a01b0316600080516020613a4e8339815191528383604051612d6f929190918252602082015260400190565b60405180910390a25050505050565b600080612d8e622819a084613940565b612d99601886613940565b612da39190613921565b905083811115610531578391505061050c565b6000806fa2a8918ca85bafe22016d0b997e4df60600160ff1b03831115612de35750600090506003612e67565b6040805160008082526020820180845289905260ff881692820192909252606081018690526080810185905260019060a0016020604051602081039080840390855afa158015612e37573d6000803e3d6000fd5b5050604051601f1901519150506001600160a01b038116612e6057600060019250925050612e67565b9150600090505b94509492505050565b6000816004811115612e8457612e84613977565b1415612e8d5750565b6001816004811115612ea157612ea1613977565b1415612eea5760405162461bcd60e51b815260206004820152601860248201527745434453413a20696e76616c6964207369676e617475726560401b604482015260640161059a565b6002816004811115612efe57612efe613977565b1415612f4c5760405162461bcd60e51b815260206004820152601f60248201527f45434453413a20696e76616c6964207369676e6174757265206c656e67746800604482015260640161059a565b6003816004811115612f6057612f60613977565b14156108a55760405162461bcd60e51b815260206004820152602260248201527f45434453413a20696e76616c6964207369676e6174757265202773272076616c604482015261756560f01b606482015260840161059a565b600080612fd560016000805160206139ae833981519152613854565b80546001808201835560008381526020908190208751600590940201805491880151604089015160608a015160808b015160a08c01516001600160401b039889166001600160801b031990971696909617600160401b989094169790970292909217600160801b600160c01b031916600160801b63ffffffff9283160263ffffffff60a01b191617600160a01b9282168302176001600160c01b0316600160c01b968216969096026001600160e01b031695909517600160e01b959093169490940291909117815560c08701519181019190915560e08601516002820180546001600160a01b0319166001600160a01b039283161790556101008701516003830180546101208a0151929093166001600160a81b031990931692909217901515909302929092179091556101409094015160049094019390935550505490565b600061313060016000805160206139ce833981519152613854565b6000938452602052506040909120805460ff1916911515919091179055565b60006001600160e01b03821115611aae5760405162461bcd60e51b815260206004820152602760248201527f53616665436173743a2076616c756520646f65736e27742066697420696e20326044820152663234206269747360c81b606482015260840161059a565b600080608083901c156131cd57608092831c92015b604083901c156131df57604092831c92015b602083901c156131f157602092831c92015b601083901c1561320357601092831c92015b600883901c1561321557600892831c92015b600483901c1561322757600492831c92015b600283901c1561323957600292831c92015b600183901c1561050c5760010192915050565b600081831061325b5781610531565b5090919050565b60006105318284613854565b82805461327a9061376c565b90600052602060002090601f01602090048101928261329c57600085556132e2565b82601f106132b557805160ff19168380011785556132e2565b828001600101855582156132e2579182015b828111156132e25782518255916020019190600101906132c7565b50611aae9291505b80821115611aae57600081556001016132ea565b600060208083528351808285015260005b8181101561332b5785810183015185820160400152820161330f565b8181111561333d576000604083870101525b50601f01601f1916929092016040019392505050565b80356001600160a01b038116811461336a57600080fd5b919050565b6000806040838503121561338257600080fd5b61338b83613353565b946020939093013593505050565b6000806000606084860312156133ae57600080fd5b6133b784613353565b92506133c560208501613353565b9150604084013590509250925092565b600080604083850312156133e857600080fd5b823591506133f860208401613353565b90509250929050565b60006020828403121561341357600080fd5b61053182613353565b60006020828403121561342e57600080fd5b5035919050565b6001600160a01b03169052565b6001600160a01b0391909116815260200190565b81516001600160401b031681526101608101602083015161348260208401826001600160401b03169052565b50604083015161349a604084018263ffffffff169052565b5060608301516134b2606084018263ffffffff169052565b5060808301516134ca608084018263ffffffff169052565b5060a08301516134e260a084018263ffffffff169052565b5060c083015160c083015260e08301516134ff60e0840182613435565b506101008084015161351382850182613435565b50506101208381015180151584830152505061014092830151919092015290565b803560ff8116811461336a57600080fd5b60008060008060008060c0878903121561355e57600080fd5b61356787613353565b9550602087013594506040870135935061358360608801613534565b92506080870135915060a087013590509295509295509295565b80356001600160401b038116811461336a57600080fd5b803563ffffffff8116811461336a57600080fd5b8035801515811461336a57600080fd5b6000806000806000806000806000806101408b8d0312156135f857600080fd5b6136018b61359d565b995061360f60208c016135b4565b985061361d60408c016135b4565b975061362b60608c016135b4565b965061363960808c016135b4565b955061364760a08c016135c8565b945060c08b0135935061365c60e08c01613353565b925061366b6101008c01613353565b915061367a6101208c016135c8565b90509295989b9194979a5092959850565b600080600080600080600060e0888a0312156136a657600080fd5b6136af88613353565b96506136bd60208901613353565b955060408801359450606088013593506136d960808901613534565b925060a0880135915060c0880135905092959891949750929550565b6000806040838503121561370857600080fd5b61371183613353565b91506133f860208401613353565b6000806040838503121561373257600080fd5b823591506133f86020840161359d565b6000806040838503121561375557600080fd5b61375e83613353565b91506133f8602084016135b4565b600181811c9082168061378057607f821691505b6020821081141561158057634e487b7160e01b600052602260045260246000fd5b6020808252602e908201527f496e697469616c697a61626c653a20636f6e747261637420697320616c72656160408201526d191e481a5b9a5d1a585b1a5e995960921b606082015260800190565b634e487b7160e01b600052601160045260246000fd5b60008219821115613818576138186137ef565b500190565b6020808252601f908201527f4552433230566f7465733a20626c6f636b206e6f7420796574206d696e656400604082015260600190565b600082821015613866576138666137ef565b500390565b634e487b7160e01b600052603260045260246000fd5b6020808252602b908201527f496e697469616c697a61626c653a20636f6e7472616374206973206e6f74206960408201526a6e697469616c697a696e6760a81b606082015260800190565b60006001600160401b038281168482168083038211156138ee576138ee6137ef565b01949350505050565b634e487b7160e01b600052601260045260246000fd5b60008261391c5761391c6138f7565b500690565b600081600019048311821515161561393b5761393b6137ef565b500290565b60008261394f5761394f6138f7565b500490565b600063ffffffff8084168061396b5761396b6138f7565b92169190910692915050565b634e487b7160e01b600052602160045260246000fdfef828a756855b22b2018e6c442f4e4296eacda2c58e90fa4824ff32229d084d6264404627f9392c993df73912dbfb24528266190d015c31a2a5dcf19d4c62184d423605f996078acc205f33a6458ae6ea5c4b6179bbe6f42712c6ca48e103aa3256657374696e67207363686564756c65206475726174696f6e206d75737420627f26b83ff96e1f2b6a682f133852f6798a09c465da95921460cefb3847402498ddf252ad1be2c89b69c2b068fc378daa952ba7f163c4a11628f55a4df523b3efdec2bacdd2f05b59de34da9b523dff8be42e5e38e818c82fdb0bae774387a724a264697066735822122021cac2e94e792ee465e86d273afdb0ce00e133cc6dd7ba8d1c000afa269f3ff864736f6c634300080a0033",
  "devdoc": {
    "author": "Alluvial",
    "errors": {
      "Unauthorized(address)": [
        {
          "params": {
            "caller": "Address performing the call"
          }
        }
      ],
      "VestingScheduleNotFound(uint256)": [
        {
          "params": {
            "index": "vesting schedule index"
          }
        },
        {
          "params": {
            "index": "vesting schedule index"
          }
        }
      ]
    },
    "kind": "dev",
    "methods": {
      "DOMAIN_SEPARATOR()": {
        "details": "See {IERC20Permit-DOMAIN_SEPARATOR}."
      },
      "allowance(address,address)": {
        "details": "See {IERC20-allowance}."
      },
      "approve(address,uint256)": {
        "details": "See {IERC20-approve}. NOTE: If `amount` is the maximum `uint256`, the allowance is not updated on `transferFrom`. This is semantically equivalent to an infinite approval. Requirements: - `spender` cannot be the zero address."
      },
      "balanceOf(address)": {
        "details": "See {IERC20-balanceOf}."
      },
      "checkpoints(address,uint32)": {
        "details": "Get the `pos`-th checkpoint for `account`."
      },
      "computeVestingReleasableAmount(uint256)": {
        "params": {
          "_index": "index of the vesting schedule"
        },
        "returns": {
          "_0": "amount of releasable tokens"
        }
      },
      "computeVestingVestedAmount(uint256)": {
        "params": {
          "_index": "index of the vesting schedule"
        },
        "returns": {
          "_0": "amount of vested tokens"
        }
      },
      "createVestingSchedule(uint64,uint32,uint32,uint32,uint32,bool,uint256,address,address,bool)": {
        "details": "As vesting schedules can be created in the past, this means that you should be careful when creating a vesting schedule and what duration parametersyou use as this contract would allow creating a vesting schedule in the past and even a vesting schedule that has already ended.",
        "params": {
          "_amount": "amount of token attributed by the vesting schedule",
          "_beneficiary": "address of the beneficiary of the tokens",
          "_cliffDuration": "duration to vesting cliff (in seconds)",
          "_delegatee": "address to delegate escrow voting power to",
          "_duration": "total vesting schedule duration after which all tokens are vested (in seconds)",
          "_ignoreGlobalUnlockSchedule": "whether the vesting schedule should ignore the global lock",
          "_lockDuration": "duration during which tokens are locked (in seconds)",
          "_periodDuration": "duration of a period after which new tokens unlock (in seconds)",
          "_revocable": "whether the vesting schedule is revocable or not",
          "_start": "start time of the vesting"
        },
        "returns": {
          "_0": "index of the created vesting schedule"
        }
      },
      "decimals()": {
        "details": "Returns the number of decimals used to get its user representation. For example, if `decimals` equals `2`, a balance of `505` tokens should be displayed to a user as `5.05` (`505 / 10 ** 2`). Tokens usually opt for a value of 18, imitating the relationship between Ether and Wei. This is the value {ERC20} uses, unless this function is overridden; NOTE: This information is only used for _display_ purposes: it in no way affects any of the arithmetic of the contract, including {IERC20-balanceOf} and {IERC20-transfer}."
      },
      "decreaseAllowance(address,uint256)": {
        "details": "Atomically decreases the allowance granted to `spender` by the caller. This is an alternative to {approve} that can be used as a mitigation for problems described in {IERC20-approve}. Emits an {Approval} event indicating the updated allowance. Requirements: - `spender` cannot be the zero address. - `spender` must have allowance for the caller of at least `subtractedValue`."
      },
      "delegate(address)": {
        "details": "Delegate votes from the sender to `delegatee`."
      },
      "delegateBySig(address,uint256,uint256,uint8,bytes32,bytes32)": {
        "details": "Delegates votes from signer to `delegatee`"
      },
      "delegateVestingEscrow(uint256,address)": {
        "params": {
          "_delegatee": "address to delegate the token to",
          "_index": "index of the vesting schedule"
        },
        "returns": {
          "_0": "True on success"
        }
      },
      "delegates(address)": {
        "details": "Get the address `account` is currently delegating to."
      },
      "getPastTotalSupply(uint256)": {
        "details": "Retrieve the `totalSupply` at the end of `blockNumber`. Note, this value is the sum of all balances. It is but NOT the sum of all the delegated votes! Requirements: - `blockNumber` must have been already mined"
      },
      "getPastVotes(address,uint256)": {
        "details": "Retrieve the number of votes for `account` at the end of `blockNumber`. Requirements: - `blockNumber` must have been already mined"
      },
      "getVestingSchedule(uint256)": {
        "details": "The vesting schedule structure represents a static configuration used to compute the desiredvesting details of a beneficiary at all times. The values won't change even after tokens are released.The only dynamic field of the structure is end, and is updated whenever a vesting schedule is revoked",
        "params": {
          "_index": "Index of the vesting schedule"
        }
      },
      "getVestingScheduleCount()": {
        "returns": {
          "_0": "count of vesting schedules"
        }
      },
      "getVotes(address)": {
        "details": "Gets the current votes balance for `account`"
      },
      "increaseAllowance(address,uint256)": {
        "details": "Atomically increases the allowance granted to `spender` by the caller. This is an alternative to {approve} that can be used as a mitigation for problems described in {IERC20-approve}. Emits an {Approval} event indicating the updated allowance. Requirements: - `spender` cannot be the zero address."
      },
      "initTLCV1(address)": {
        "params": {
          "_account": "The initial account to grant all the minted tokens"
        }
      },
      "isGlobalUnlockedScheduleIgnored(uint256)": {
        "params": {
          "_index": "Index of the vesting schedule"
        },
        "returns": {
          "_0": "true if the vesting schedule should ignore the global unlock schedule"
        }
      },
      "name()": {
        "details": "Returns the name of the token."
      },
      "nonces(address)": {
        "details": "See {IERC20Permit-nonces}."
      },
      "numCheckpoints(address)": {
        "details": "Get number of checkpoints for `account`."
      },
      "permit(address,address,uint256,uint256,uint8,bytes32,bytes32)": {
        "details": "See {IERC20Permit-permit}."
      },
      "releaseVestingSchedule(uint256)": {
        "params": {
          "_index": "Index of the vesting schedule to release"
        },
        "returns": {
          "_0": "released amount"
        }
      },
      "revokeVestingSchedule(uint256,uint64)": {
        "params": {
          "_end": "End date for the schedule",
          "_index": "Index of the vesting schedule to revoke"
        },
        "returns": {
          "_0": "amount returned to the vesting schedule creator"
        }
      },
      "symbol()": {
        "details": "Returns the symbol of the token, usually a shorter version of the name."
      },
      "totalSupply()": {
        "details": "See {IERC20-totalSupply}."
      },
      "transfer(address,uint256)": {
        "details": "See {IERC20-transfer}. Requirements: - `to` cannot be the zero address. - the caller must have a balance of at least `amount`."
      },
      "transferFrom(address,address,uint256)": {
        "details": "See {IERC20-transferFrom}. Emits an {Approval} event indicating the updated allowance. This is not required by the EIP. See the note at the beginning of {ERC20}. NOTE: Does not update the allowance if the current allowance is the maximum `uint256`. Requirements: - `from` and `to` cannot be the zero address. - `from` must have a balance of at least `amount`. - the caller must have allowance for ``from``'s tokens of at least `amount`."
      },
      "vestingEscrow(uint256)": {
        "params": {
          "_index": "Index of the vesting schedule"
        },
        "returns": {
          "_0": "address of the escrow"
        }
      }
    },
    "title": "TLC (v1)",
    "version": 1
  },
  "userdoc": {
    "errors": {
      "GlobalUnlockUnderlfow()": [
        {
          "notice": "Underflow in global unlock logic (should never happen)"
        }
      ],
      "InvalidRevokedVestingScheduleEnd()": [
        {
          "notice": "Attempt to revoke a vesting schedule with an invalid end parameter"
        }
      ],
      "InvalidVestingScheduleParameter(string)": [
        {
          "notice": "Invalid parameter for a vesting schedule"
        }
      ],
      "InvalidZeroAddress()": [
        {
          "notice": "The address is zero"
        }
      ],
      "Unauthorized(address)": [
        {
          "notice": "The operator is unauthorized for the caller"
        }
      ],
      "UnsufficientVestingScheduleCreatorBalance()": [
        {
          "notice": "Vesting schedule creator has unsufficient balance to create vesting schedule"
        }
      ],
      "VestingScheduleIsLocked()": [
        {
          "notice": "The vesting schedule is locked"
        }
      ],
      "VestingScheduleNotFound(uint256)": [
        {
          "notice": "The VestingSchedule was not found"
        },
        {
          "notice": "The VestingSchedule was not found"
        }
      ],
      "VestingScheduleNotRevocable()": [
        {
          "notice": "The vesting schedule is not revocable"
        }
      ],
      "VestingScheduleNotRevocableInPast()": [
        {
          "notice": "Attempt to revoke a schedule in the past"
        }
      ],
      "ZeroReleasableAmount()": [
        {
          "notice": "No token to release"
        }
      ]
    },
    "events": {
      "CreatedVestingSchedule(uint256,address,address,uint256)": {
        "notice": "A new vesting schedule has been created"
      },
      "DelegatedVestingEscrow(uint256,address,address,address)": {
        "notice": "Vesting escrow has been delegated"
      },
      "ReleasedVestingSchedule(uint256,uint256)": {
        "notice": "Vesting schedule has been released"
      },
      "RevokedVestingSchedule(uint256,uint256,uint256)": {
        "notice": "Vesting schedule has been revoked"
      }
    },
    "kind": "user",
    "methods": {
      "computeVestingReleasableAmount(uint256)": {
        "notice": "Computes the releasable amount of tokens for a vesting schedule."
      },
      "computeVestingVestedAmount(uint256)": {
        "notice": "Computes the vested amount of tokens for a vesting schedule."
      },
      "constructor": {
        "notice": "Disables implementation initialization"
      },
      "createVestingSchedule(uint64,uint32,uint32,uint32,uint32,bool,uint256,address,address,bool)": {
        "notice": "Creates a new vesting scheduleThere may delay between the time a user should start vesting tokens and the time the vesting schedule is actually created on the contract.Typically a user joins the Liquid Collective but some weeks pass before the user gets all legal agreements in place and signed for thetoken grant emission to happen. In this case, the vesting schedule created for the token grant would start on the join date which is in the past."
      },
      "delegateVestingEscrow(uint256,address)": {
        "notice": "Delegate vesting escrowed tokens"
      },
      "getVestingSchedule(uint256)": {
        "notice": "Get vesting schedule"
      },
      "getVestingScheduleCount()": {
        "notice": "Get count of vesting schedules"
      },
      "initTLCV1(address)": {
        "notice": "Initializes the TLC Token"
      },
      "isGlobalUnlockedScheduleIgnored(uint256)": {
        "notice": "Get vesting global unlock schedule activation status for a vesting schedule"
      },
      "migrateVestingSchedules()": {
        "notice": "Migrates the vesting schedule state structures"
      },
      "releaseVestingSchedule(uint256)": {
        "notice": "Release vesting scheduleWhen tokens are released from the escrow, the delegated address of the escrow will see its voting power decrease.The beneficiary has to make sure its delegation parameters are set properly to be able to use/delegate the voting power of its balance."
      },
      "revokeVestingSchedule(uint256,uint64)": {
        "notice": "Revoke vesting schedule"
      },
      "vestingEscrow(uint256)": {
        "notice": "Get the address of the escrow for a vesting schedule"
      }
    },
    "notice": "The TLC token has a max supply of 1,000,000,000 and 18 decimal places.Upon deployment, all minted tokens are send to account provided at construction, in charge of creating the vesting schedulesThe contract is based on ERC20Votes by OpenZeppelin. Users need to delegate their voting power to someone or themselves to be able to vote.The contract contains vesting logics allowing vested users to still be able to delegate their voting power while their tokens are held in an escrow",
    "version": 1
  },
  "storageLayout": {
    "storage": [
      {
        "astId": 20518,
        "contract": "contracts/src/TLC.1.sol:TLCV1",
        "label": "_initialized",
        "offset": 0,
        "slot": "0",
        "type": "t_uint8"
      },
      {
        "astId": 20521,
        "contract": "contracts/src/TLC.1.sol:TLCV1",
        "label": "_initializing",
        "offset": 1,
        "slot": "0",
        "type": "t_bool"
      },
      {
        "astId": 22664,
        "contract": "contracts/src/TLC.1.sol:TLCV1",
        "label": "__gap",
        "offset": 0,
        "slot": "1",
        "type": "t_array(t_uint256)50_storage"
      },
      {
        "astId": 20699,
        "contract": "contracts/src/TLC.1.sol:TLCV1",
        "label": "_balances",
        "offset": 0,
        "slot": "51",
        "type": "t_mapping(t_address,t_uint256)"
      },
      {
        "astId": 20705,
        "contract": "contracts/src/TLC.1.sol:TLCV1",
        "label": "_allowances",
        "offset": 0,
        "slot": "52",
        "type": "t_mapping(t_address,t_mapping(t_address,t_uint256))"
      },
      {
        "astId": 20707,
        "contract": "contracts/src/TLC.1.sol:TLCV1",
        "label": "_totalSupply",
        "offset": 0,
        "slot": "53",
        "type": "t_uint256"
      },
      {
        "astId": 20709,
        "contract": "contracts/src/TLC.1.sol:TLCV1",
        "label": "_name",
        "offset": 0,
        "slot": "54",
        "type": "t_string_storage"
      },
      {
        "astId": 20711,
        "contract": "contracts/src/TLC.1.sol:TLCV1",
        "label": "_symbol",
        "offset": 0,
        "slot": "55",
        "type": "t_string_storage"
      },
      {
        "astId": 21291,
        "contract": "contracts/src/TLC.1.sol:TLCV1",
        "label": "__gap",
        "offset": 0,
        "slot": "56",
        "type": "t_array(t_uint256)45_storage"
      },
      {
        "astId": 23284,
        "contract": "contracts/src/TLC.1.sol:TLCV1",
        "label": "_HASHED_NAME",
        "offset": 0,
        "slot": "101",
        "type": "t_bytes32"
      },
      {
        "astId": 23286,
        "contract": "contracts/src/TLC.1.sol:TLCV1",
        "label": "_HASHED_VERSION",
        "offset": 0,
        "slot": "102",
        "type": "t_bytes32"
      },
      {
        "astId": 23424,
        "contract": "contracts/src/TLC.1.sol:TLCV1",
        "label": "__gap",
        "offset": 0,
        "slot": "103",
        "type": "t_array(t_uint256)50_storage"
      },
      {
        "astId": 22138,
        "contract": "contracts/src/TLC.1.sol:TLCV1",
        "label": "_nonces",
        "offset": 0,
        "slot": "153",
        "type": "t_mapping(t_address,t_struct(Counter)22671_storage)"
      },
      {
        "astId": 22146,
        "contract": "contracts/src/TLC.1.sol:TLCV1",
        "label": "_PERMIT_TYPEHASH_DEPRECATED_SLOT",
        "offset": 0,
        "slot": "154",
        "type": "t_bytes32"
      },
      {
        "astId": 22302,
        "contract": "contracts/src/TLC.1.sol:TLCV1",
        "label": "__gap",
        "offset": 0,
        "slot": "155",
        "type": "t_array(t_uint256)49_storage"
      },
      {
        "astId": 21411,
        "contract": "contracts/src/TLC.1.sol:TLCV1",
        "label": "_delegates",
        "offset": 0,
        "slot": "204",
        "type": "t_mapping(t_address,t_address)"
      },
      {
        "astId": 21417,
        "contract": "contracts/src/TLC.1.sol:TLCV1",
        "label": "_checkpoints",
        "offset": 0,
        "slot": "205",
        "type": "t_mapping(t_address,t_array(t_struct(Checkpoint)21402_storage)dyn_storage)"
      },
      {
        "astId": 21421,
        "contract": "contracts/src/TLC.1.sol:TLCV1",
        "label": "_totalSupplyCheckpoints",
        "offset": 0,
        "slot": "206",
        "type": "t_array(t_struct(Checkpoint)21402_storage)dyn_storage"
      },
      {
        "astId": 22086,
        "contract": "contracts/src/TLC.1.sol:TLCV1",
        "label": "__gap",
        "offset": 0,
        "slot": "207",
        "type": "t_array(t_uint256)47_storage"
      }
    ],
    "types": {
      "t_address": {
        "encoding": "inplace",
        "label": "address",
        "numberOfBytes": "20"
      },
      "t_array(t_struct(Checkpoint)21402_storage)dyn_storage": {
        "base": "t_struct(Checkpoint)21402_storage",
        "encoding": "dynamic_array",
        "label": "struct ERC20VotesUpgradeable.Checkpoint[]",
        "numberOfBytes": "32"
      },
      "t_array(t_uint256)45_storage": {
        "base": "t_uint256",
        "encoding": "inplace",
        "label": "uint256[45]",
        "numberOfBytes": "1440"
      },
      "t_array(t_uint256)47_storage": {
        "base": "t_uint256",
        "encoding": "inplace",
        "label": "uint256[47]",
        "numberOfBytes": "1504"
      },
      "t_array(t_uint256)49_storage": {
        "base": "t_uint256",
        "encoding": "inplace",
        "label": "uint256[49]",
        "numberOfBytes": "1568"
      },
      "t_array(t_uint256)50_storage": {
        "base": "t_uint256",
        "encoding": "inplace",
        "label": "uint256[50]",
        "numberOfBytes": "1600"
      },
      "t_bool": {
        "encoding": "inplace",
        "label": "bool",
        "numberOfBytes": "1"
      },
      "t_bytes32": {
        "encoding": "inplace",
        "label": "bytes32",
        "numberOfBytes": "32"
      },
      "t_mapping(t_address,t_address)": {
        "encoding": "mapping",
        "key": "t_address",
        "label": "mapping(address => address)",
        "numberOfBytes": "32",
        "value": "t_address"
      },
      "t_mapping(t_address,t_array(t_struct(Checkpoint)21402_storage)dyn_storage)": {
        "encoding": "mapping",
        "key": "t_address",
        "label": "mapping(address => struct ERC20VotesUpgradeable.Checkpoint[])",
        "numberOfBytes": "32",
        "value": "t_array(t_struct(Checkpoint)21402_storage)dyn_storage"
      },
      "t_mapping(t_address,t_mapping(t_address,t_uint256))": {
        "encoding": "mapping",
        "key": "t_address",
        "label": "mapping(address => mapping(address => uint256))",
        "numberOfBytes": "32",
        "value": "t_mapping(t_address,t_uint256)"
      },
      "t_mapping(t_address,t_struct(Counter)22671_storage)": {
        "encoding": "mapping",
        "key": "t_address",
        "label": "mapping(address => struct CountersUpgradeable.Counter)",
        "numberOfBytes": "32",
        "value": "t_struct(Counter)22671_storage"
      },
      "t_mapping(t_address,t_uint256)": {
        "encoding": "mapping",
        "key": "t_address",
        "label": "mapping(address => uint256)",
        "numberOfBytes": "32",
        "value": "t_uint256"
      },
      "t_string_storage": {
        "encoding": "bytes",
        "label": "string",
        "numberOfBytes": "32"
      },
      "t_struct(Checkpoint)21402_storage": {
        "encoding": "inplace",
        "label": "struct ERC20VotesUpgradeable.Checkpoint",
        "members": [
          {
            "astId": 21399,
            "contract": "contracts/src/TLC.1.sol:TLCV1",
            "label": "fromBlock",
            "offset": 0,
            "slot": "0",
            "type": "t_uint32"
          },
          {
            "astId": 21401,
            "contract": "contracts/src/TLC.1.sol:TLCV1",
            "label": "votes",
            "offset": 4,
            "slot": "0",
            "type": "t_uint224"
          }
        ],
        "numberOfBytes": "32"
      },
      "t_struct(Counter)22671_storage": {
        "encoding": "inplace",
        "label": "struct CountersUpgradeable.Counter",
        "members": [
          {
            "astId": 22670,
            "contract": "contracts/src/TLC.1.sol:TLCV1",
            "label": "_value",
            "offset": 0,
            "slot": "0",
            "type": "t_uint256"
          }
        ],
        "numberOfBytes": "32"
      },
      "t_uint224": {
        "encoding": "inplace",
        "label": "uint224",
        "numberOfBytes": "28"
      },
      "t_uint256": {
        "encoding": "inplace",
        "label": "uint256",
        "numberOfBytes": "32"
      },
      "t_uint32": {
        "encoding": "inplace",
        "label": "uint32",
        "numberOfBytes": "4"
      },
      "t_uint8": {
        "encoding": "inplace",
        "label": "uint8",
        "numberOfBytes": "1"
      }
    }
  }
}