{
  "address": "0x3fe10fd2ce1F492Ede1266a50f6451bC1D8AF9b0",
  "abi": [
    {
      "inputs": [
        {
          "internalType": "address",
          "name": "recipient",
          "type": "address"
        },
        {
          "internalType": "bytes",
          "name": "rdata",
          "type": "bytes"
        }
      ],
      "name": "ClaimRedeemFailed",
      "type": "error"
    },
    {
      "inputs": [
        {
          "internalType": "uint256",
          "name": "redeemRequestId",
          "type": "uint256"
        },
        {
          "internalType": "uint256",
          "name": "withdrawalEventId",
          "type": "uint256"
        }
      ],
      "name": "DoesNotMatch",
      "type": "error"
    },
    {
      "inputs": [],
      "name": "IncompatibleArrayLengths",
      "type": "error"
    },
    {
      "inputs": [
        {
          "internalType": "uint256",
          "name": "version",
          "type": "uint256"
        },
        {
          "internalType": "uint256",
          "name": "expectedVersion",
          "type": "uint256"
        }
      ],
      "name": "InvalidInitialization",
      "type": "error"
    },
    {
      "inputs": [],
      "name": "InvalidZeroAddress",
      "type": "error"
    },
    {
      "inputs": [],
      "name": "InvalidZeroAmount",
      "type": "error"
    },
    {
      "inputs": [
        {
          "internalType": "uint256",
          "name": "id",
          "type": "uint256"
        }
      ],
      "name": "RedeemRequestAlreadyClaimed",
      "type": "error"
    },
    {
      "inputs": [
        {
          "internalType": "uint256",
          "name": "id",
          "type": "uint256"
        }
      ],
      "name": "RedeemRequestOutOfBounds",
      "type": "error"
    },
    {
      "inputs": [],
      "name": "TransferError",
      "type": "error"
    },
    {
      "inputs": [
        {
          "internalType": "address",
          "name": "caller",
          "type": "address"
        }
      ],
      "name": "Unauthorized",
      "type": "error"
    },
    {
      "inputs": [
        {
          "internalType": "uint256",
          "name": "id",
          "type": "uint256"
        }
      ],
      "name": "WithdrawalEventOutOfBounds",
      "type": "error"
    },
    {
      "inputs": [
        {
          "internalType": "uint256",
          "name": "withdrawalAmount",
          "type": "uint256"
        },
        {
          "internalType": "uint256",
          "name": "redeemDemand",
          "type": "uint256"
        }
      ],
      "name": "WithdrawalExceedsRedeemDemand",
      "type": "error"
    },
    {
      "anonymous": false,
      "inputs": [
        {
          "indexed": true,
          "internalType": "uint32",
          "name": "redeemRequestId",
          "type": "uint32"
        },
        {
          "indexed": true,
          "internalType": "address",
          "name": "recipient",
          "type": "address"
        },
        {
          "indexed": false,
          "internalType": "uint256",
          "name": "ethAmount",
          "type": "uint256"
        },
        {
          "indexed": false,
          "internalType": "uint256",
          "name": "lsEthAmount",
          "type": "uint256"
        },
        {
          "indexed": false,
          "internalType": "uint256",
          "name": "remainingLsEthAmount",
          "type": "uint256"
        }
      ],
      "name": "ClaimedRedeemRequest",
      "type": "event"
    },
    {
      "anonymous": false,
      "inputs": [
        {
          "indexed": false,
          "internalType": "uint256",
          "name": "version",
          "type": "uint256"
        },
        {
          "indexed": false,
          "internalType": "bytes",
          "name": "cdata",
          "type": "bytes"
        }
      ],
      "name": "Initialize",
      "type": "event"
    },
    {
      "anonymous": false,
      "inputs": [
        {
          "indexed": false,
          "internalType": "uint256",
          "name": "height",
          "type": "uint256"
        },
        {
          "indexed": false,
          "internalType": "uint256",
          "name": "amount",
          "type": "uint256"
        },
        {
          "indexed": false,
          "internalType": "uint256",
          "name": "ethAmount",
          "type": "uint256"
        },
        {
          "indexed": false,
          "internalType": "uint32",
          "name": "id",
          "type": "uint32"
        }
      ],
      "name": "ReportedWithdrawal",
      "type": "event"
    },
    {
      "anonymous": false,
      "inputs": [
        {
          "indexed": true,
          "internalType": "address",
          "name": "owner",
          "type": "address"
        },
        {
          "indexed": false,
          "internalType": "uint256",
          "name": "height",
          "type": "uint256"
        },
        {
          "indexed": false,
          "internalType": "uint256",
          "name": "amount",
          "type": "uint256"
        },
        {
          "indexed": false,
          "internalType": "uint256",
          "name": "maxRedeemableEth",
          "type": "uint256"
        },
        {
          "indexed": false,
          "internalType": "uint32",
          "name": "id",
          "type": "uint32"
        }
      ],
      "name": "RequestedRedeem",
      "type": "event"
    },
    {
      "anonymous": false,
      "inputs": [
        {
          "indexed": true,
          "internalType": "uint32",
          "name": "redeemRequestId",
          "type": "uint32"
        },
        {
          "indexed": true,
          "internalType": "uint32",
          "name": "withdrawalEventId",
          "type": "uint32"
        },
        {
          "indexed": false,
          "internalType": "uint256",
          "name": "lsEthAmountSatisfied",
          "type": "uint256"
        },
        {
          "indexed": false,
          "internalType": "uint256",
          "name": "ethAmountSatisfied",
          "type": "uint256"
        },
        {
          "indexed": false,
          "internalType": "uint256",
          "name": "lsEthAmountRemaining",
          "type": "uint256"
        },
        {
          "indexed": false,
          "internalType": "uint256",
          "name": "ethAmountExceeding",
          "type": "uint256"
        }
      ],
      "name": "SatisfiedRedeemRequest",
      "type": "event"
    },
    {
      "anonymous": false,
      "inputs": [
        {
          "indexed": false,
          "internalType": "uint256",
          "name": "oldRedeemDemand",
          "type": "uint256"
        },
        {
          "indexed": false,
          "internalType": "uint256",
          "name": "newRedeemDemand",
          "type": "uint256"
        }
      ],
      "name": "SetRedeemDemand",
      "type": "event"
    },
    {
      "anonymous": false,
      "inputs": [
        {
          "indexed": false,
          "internalType": "address",
          "name": "river",
          "type": "address"
        }
      ],
      "name": "SetRiver",
      "type": "event"
    },
    {
      "inputs": [
        {
          "internalType": "uint32[]",
          "name": "redeemRequestIds",
          "type": "uint32[]"
        },
        {
          "internalType": "uint32[]",
          "name": "withdrawalEventIds",
          "type": "uint32[]"
        },
        {
          "internalType": "bool",
          "name": "skipAlreadyClaimed",
          "type": "bool"
        },
        {
          "internalType": "uint16",
          "name": "_depth",
          "type": "uint16"
        }
      ],
      "name": "claimRedeemRequests",
      "outputs": [
        {
          "internalType": "uint8[]",
          "name": "claimStatuses",
          "type": "uint8[]"
        }
      ],
      "stateMutability": "nonpayable",
      "type": "function"
    },
    {
      "inputs": [
        {
          "internalType": "uint32[]",
          "name": "_redeemRequestIds",
          "type": "uint32[]"
        },
        {
          "internalType": "uint32[]",
          "name": "_withdrawalEventIds",
          "type": "uint32[]"
        }
      ],
      "name": "claimRedeemRequests",
      "outputs": [
        {
          "internalType": "uint8[]",
          "name": "claimStatuses",
          "type": "uint8[]"
        }
      ],
      "stateMutability": "nonpayable",
      "type": "function"
    },
    {
      "inputs": [],
      "name": "getBufferedExceedingEth",
      "outputs": [
        {
          "internalType": "uint256",
          "name": "",
          "type": "uint256"
        }
      ],
      "stateMutability": "view",
      "type": "function"
    },
    {
      "inputs": [],
      "name": "getRedeemDemand",
      "outputs": [
        {
          "internalType": "uint256",
          "name": "",
          "type": "uint256"
        }
      ],
      "stateMutability": "view",
      "type": "function"
    },
    {
      "inputs": [],
      "name": "getRedeemRequestCount",
      "outputs": [
        {
          "internalType": "uint256",
          "name": "",
          "type": "uint256"
        }
      ],
      "stateMutability": "view",
      "type": "function"
    },
    {
      "inputs": [
        {
          "internalType": "uint32",
          "name": "_redeemRequestId",
          "type": "uint32"
        }
      ],
      "name": "getRedeemRequestDetails",
      "outputs": [
        {
          "components": [
            {
              "internalType": "uint256",
              "name": "amount",
              "type": "uint256"
            },
            {
              "internalType": "uint256",
              "name": "maxRedeemableEth",
              "type": "uint256"
            },
            {
              "internalType": "address",
              "name": "owner",
              "type": "address"
            },
            {
              "internalType": "uint256",
              "name": "height",
              "type": "uint256"
            }
          ],
          "internalType": "struct RedeemQueue.RedeemRequest",
          "name": "",
          "type": "tuple"
        }
      ],
      "stateMutability": "view",
      "type": "function"
    },
    {
      "inputs": [],
      "name": "getWithdrawalEventCount",
      "outputs": [
        {
          "internalType": "uint256",
          "name": "",
          "type": "uint256"
        }
      ],
      "stateMutability": "view",
      "type": "function"
    },
    {
      "inputs": [
        {
          "internalType": "uint32",
          "name": "_withdrawalEventId",
          "type": "uint32"
        }
      ],
      "name": "getWithdrawalEventDetails",
      "outputs": [
        {
          "components": [
            {
              "internalType": "uint256",
              "name": "amount",
              "type": "uint256"
            },
            {
              "internalType": "uint256",
              "name": "withdrawnEth",
              "type": "uint256"
            },
            {
              "internalType": "uint256",
              "name": "height",
              "type": "uint256"
            }
          ],
          "internalType": "struct WithdrawalStack.WithdrawalEvent",
          "name": "",
          "type": "tuple"
        }
      ],
      "stateMutability": "view",
      "type": "function"
    },
    {
      "inputs": [
        {
          "internalType": "address",
          "name": "_river",
          "type": "address"
        }
      ],
      "name": "initializeRedeemManagerV1",
      "outputs": [],
      "stateMutability": "nonpayable",
      "type": "function"
    },
    {
      "inputs": [
        {
          "internalType": "uint256",
          "name": "_max",
          "type": "uint256"
        }
      ],
      "name": "pullExceedingEth",
      "outputs": [],
      "stateMutability": "nonpayable",
      "type": "function"
    },
    {
      "inputs": [
        {
          "internalType": "uint256",
          "name": "_lsETHWithdrawable",
          "type": "uint256"
        }
      ],
      "name": "reportWithdraw",
      "outputs": [],
      "stateMutability": "payable",
      "type": "function"
    },
    {
      "inputs": [
        {
          "internalType": "uint256",
          "name": "_lsETHAmount",
          "type": "uint256"
        },
        {
          "internalType": "address",
          "name": "_recipient",
          "type": "address"
        }
      ],
      "name": "requestRedeem",
      "outputs": [
        {
          "internalType": "uint32",
          "name": "redeemRequestId",
          "type": "uint32"
        }
      ],
      "stateMutability": "nonpayable",
      "type": "function"
    },
    {
      "inputs": [
        {
          "internalType": "uint256",
          "name": "_lsETHAmount",
          "type": "uint256"
        }
      ],
      "name": "requestRedeem",
      "outputs": [
        {
          "internalType": "uint32",
          "name": "redeemRequestId",
          "type": "uint32"
        }
      ],
      "stateMutability": "nonpayable",
      "type": "function"
    },
    {
      "inputs": [
        {
          "internalType": "uint32[]",
          "name": "_redeemRequestIds",
          "type": "uint32[]"
        }
      ],
      "name": "resolveRedeemRequests",
      "outputs": [
        {
          "internalType": "int64[]",
          "name": "withdrawalEventIds",
          "type": "int64[]"
        }
      ],
      "stateMutability": "view",
      "type": "function"
    }
  ],
  "transactionHash": "0xa576f4966ac8c6ad54d67c064795a7530f3495dcefc6c40cda1fcd341c39b1d7",
  "args": [],
  "numDeployments": 1,
  "solcInputHash": "17288a2de201671025ab4726f1192faa",
  "bytecode": "0x60806040523480156200001157600080fd5b506200002a6000196200007060201b62000a8c1760201c565b7f1809e49bba43f2d39fa57894b50cd6ccb428cc438230e065cac3eb24a1355a716000196000366040516200006293929190620000bd565b60405180910390a162000119565b620000b6620000a160017f82055909238c0f5e63d6f174068ebb8f51bcec9bd37de63bb68f6551feec0cfd620000f3565b60001b82620000b960201b62000ac21760201c565b50565b9055565b83815260406020820152816040820152818360608301376000818301606090810191909152601f909201601f1916010192915050565b6000828210156200011457634e487b7160e01b600052601160045260246000fd5b500390565b61214480620001296000396000f3fe6080604052600436106100bd5760003560e01c8063841ecb851161006f578063841ecb85146101c557806386233754146101da5780639332525d1461021c5780639b92d6de1461023c578063aa2f892d14610298578063b30d8bb7146102b8578063c8fade5a146102cb57600080fd5b80630c779401146100c25780630d8d2a54146100e4578063107703ab1461010c578063319798d1146101415780635b5985a2146101565780635f2e5f071461016b5780637c044e5514610198575b600080fd5b3480156100ce57600080fd5b506100e26100dd366004611b4e565b6102eb565b005b3480156100f057600080fd5b506100f96103c5565b6040519081526020015b60405180910390f35b34801561011857600080fd5b5061012c610127366004611b7c565b6103d4565b60405163ffffffff9091168152602001610103565b34801561014d57600080fd5b506100f96104ca565b34801561016257600080fd5b506100f96104da565b34801561017757600080fd5b5061018b610186366004611bf7565b6104e4565b6040516101039190611c38565b3480156101a457600080fd5b506101b86101b3366004611c8d565b610619565b6040516101039190611d28565b3480156101d157600080fd5b506100f9610634565b3480156101e657600080fd5b506101fa6101f5366004611d63565b61063e565b6040805182518152602080840151908201529181015190820152606001610103565b34801561022857600080fd5b506101b8610237366004611d90565b6106a3565b34801561024857600080fd5b5061025c610257366004611d63565b6106bf565b604051610103919081518152602080830151908201526040808301516001600160a01b0316908201526060918201519181019190915260800190565b3480156102a457600080fd5b5061012c6102b3366004611b4e565b610736565b6100e26102c6366004611b4e565b610812565b3480156102d757600080fd5b506100e26102e6366004611dfb565b6109be565b6102f3610ac6565b6001600160a01b0316336001600160a01b03161461032f573360405163472511eb60e11b81526004016103269190611e18565b60405180910390fd5b600061034261033c610afa565b83610b2a565b905080156103c15761036581610356610afa565b6103609190611e42565b610b3f565b61036d610b6d565b6001600160a01b031663056850c6826040518263ffffffff1660e01b81526004016000604051808303818588803b1580156103a757600080fd5b505af11580156103bb573d6000803e3d6000fd5b50505050505b5050565b60006103cf610b77565b905090565b6000806103df610b6d565b9050336001600160a01b038216146104b657806001600160a01b031663c5eff3d06040518163ffffffff1660e01b8152600401602060405180830381865afa15801561042f573d6000803e3d6000fd5b505050506040513d601f19601f820116820180604052508101906104539190611e59565b604051632d20488160e11b81523360048281019190915260248201526001600160a01b039190911690635a4091029060440160006040518083038186803b15801561049d57600080fd5b505afa1580156104b1573d6000803e3d6000fd5b505050505b506104c18383610ba7565b90505b92915050565b60006104d4610e76565b54919050565b60006103cf610afa565b6060816001600160401b038111156104fe576104fe611e76565b604051908082528060200260200182016040528015610527578160200160208202803683370190505b509050610532611aa5565b600061053c610ea4565b8054909150801561059d5781610553600183611e42565b8154811061056357610563611e8c565b9060005260206000209060030201604051806060016040529081600082015481526020016001820154815260200160028201548152505092505b60005b8581101561060f576105d88787838181106105bd576105bd611e8c565b90506020020160208101906105d29190611d63565b85610ed2565b8582815181106105ea576105ea611e8c565b602002602001019060070b908160070b815250508061060890611ea2565b90506105a0565b5050505092915050565b6060610629878787878787610fb4565b979650505050505050565b60006104d4610ea4565b610646611aa5565b61064e610ea4565b8263ffffffff168154811061066557610665611e8c565b906000526020600020906003020160405180606001604052908160008201548152602001600182015481526020016002820154815250509050919050565b60606106b685858585600161ffff610fb4565b95945050505050565b6106c7611ac6565b6106cf610e76565b8263ffffffff16815481106106e6576106e6611e8c565b60009182526020918290206040805160808101825260049093029091018054835260018101549383019390935260028301546001600160a01b031690820152600390910154606082015292915050565b600080610741610b6d565b9050806001600160a01b031663c5eff3d06040518163ffffffff1660e01b8152600401602060405180830381865afa158015610781573d6000803e3d6000fd5b505050506040513d601f19601f820116820180604052508101906107a59190611e59565b604051632d20488160e11b81523360048281019190915260248201526001600160a01b039190911690635a4091029060440160006040518083038186803b1580156107ef57600080fd5b505afa158015610803573d6000803e3d6000fd5b50505050506104c48233610ba7565b61081a610ac6565b6001600160a01b0316336001600160a01b03161461084d573360405163472511eb60e11b81526004016103269190611e18565b6000610857610b77565b90508082111561088457604051632ea1a50d60e11b81526004810183905260248101829052604401610326565b600061088e610ea4565b805490915060003463ffffffff83161561090f576000846108b0600186611ebd565b63ffffffff16815481106108c6576108c6611e8c565b600091825260209182902060408051606081018252600390930290910180548084526001820154948401949094526002015490820181905290925061090b9190611ee2565b9250505b604080516060810182528781526020808201848152928201858152875460018181018a5560008a8152939093209351600390910290930192835592519082015590516002909101556109696109648787611e42565b611461565b604080518381526020810188905290810182905263ffffffff841660608201527f05e5b10ca266c2e8cfd73b1fb719694fb6b89fcda9e3739ace4cc19b3e8554459060800160405180910390a1505050505050565b60006109c86114aa565b81146109f957806109d76114aa565b604051631cfd276760e31b815260048101929092526024820152604401610326565b610a0c610a07826001611ee2565b610a8c565b610a15826114da565b7ffc0d749143b04e0d92a3b49edae84a45f6bc88b75e99d9118ec4d7e87fe626c582604051610a449190611e18565b60405180910390a17f1809e49bba43f2d39fa57894b50cd6ccb428cc438230e065cac3eb24a1355a7181600036604051610a8093929190611efa565b60405180910390a15050565b610abf610aba60017f82055909238c0f5e63d6f174068ebb8f51bcec9bd37de63bb68f6551feec0cfd611e42565b829055565b50565b9055565b60006103cf610af660017f1ec4138404500a2a0be2c2f9b103581c2a7fa783a934f91a6cc5cc924404973c611e42565b5490565b60006103cf610af660017f9afb091d33aa9fdd4ac2dbd1cbba78215a097062e9dbdc7b707ac5bb59049bc1611e42565b6000818311610b3957826104c1565b50919050565b610abf610aba60017f9afb091d33aa9fdd4ac2dbd1cbba78215a097062e9dbdc7b707ac5bb59049bc1611e42565b60006103cf610ac6565b60006103cf610af660017f8ec604dcc41d380ed48f70a4a32dd9623b98c284836361a21b8992d2845ee53d611e42565b6000610bb282611511565b82610bd057604051630dd484e760e41b815260040160405180910390fd5b610bd8610b6d565b6040516323b872dd60e01b8152336004820152306024820152604481018590526001600160a01b0391909116906323b872dd906064016020604051808303816000875af1158015610c2d573d6000803e3d6000fd5b505050506040513d601f19601f82011682018060405250810190610c519190611f30565b610c6e576040516313ff771f60e21b815260040160405180910390fd5b6000610c78610e76565b805492509050600063ffffffff831615610d0f57600082610c9a600186611ebd565b63ffffffff1681548110610cb057610cb0611e8c565b6000918252602091829020604080516080810182526004909302909101805480845260018201549484019490945260028101546001600160a01b0316918301919091526003015460608201819052909250610d0b9190611ee2565b9150505b6000610d19610b6d565b6001600160a01b031663f79c3f02876040518263ffffffff1660e01b8152600401610d4691815260200190565b602060405180830381865afa158015610d63573d6000803e3d6000fd5b505050506040513d601f19601f82011682018060405250810190610d879190611f4d565b6040805160808101825288815260208082018481526001600160a01b038a811694840194855260608401888152895460018082018c5560008c8152959095209551600490910290950194855591519284019290925592516002830180546001600160a01b0319169190921617905590516003909101559050610e1586610e0b610b77565b6109649190611ee2565b604080518381526020810188905290810182905263ffffffff851660608201526001600160a01b038616907f9a1bb960783a8679f42036f0c1fe89288fd279ed545a19f86bd284c72947b1879060800160405180910390a250505092915050565b6000806104c460017f232f0d723a47bd57c991606dd0525f28484745095475b69dffe8416b3749c3c2611e42565b6000806104c460017f0c9122afab04eaf9e9bdaa10927c74406e40c7f08744e32826fff29b1c9e7abd611e42565b600080610edd610e76565b805490915063ffffffff851610610ef9576001199150506104c4565b6000818563ffffffff1681548110610f1357610f13611e8c565b6000918252602091829020604080516080810182526004909302909101805480845260018201549484019490945260028101546001600160a01b0316918301919091526003015460608201529150610f7157600219925050506104c4565b610f79610ea4565b541580610f9a5750606081015184516040860151610f979190611ee2565b11155b15610fab57600019925050506104c4565b6106b681611538565b606085848114610fd757604051633a5e3f0d60e01b815260040160405180910390fd5b806001600160401b03811115610fef57610fef611e76565b604051908082528060200260200182016040528015611018578160200160208202803683370190505b5091506000611025610e76565b90506000611031610ea4565b905061103b611af7565b815463ffffffff166080820152825460005b85811015611451578c8c8281811061106757611067611e8c565b905060200201602081019061107c9190611d63565b63ffffffff1683528a8a8281811061109657611096611e8c565b90506020020160208101906110ab9190611d63565b63ffffffff908116604085015283518382169116106110e8578251604051637ba6f8f560e11b815263ffffffff9091166004820152602401610326565b826080015163ffffffff16836040015163ffffffff161061112a57604080840151905163311569d960e01b815263ffffffff9091166004820152602401610326565b848d8d8381811061113d5761113d611e8c565b90506020020160208101906111529190611d63565b63ffffffff168154811061116857611168611e8c565b60009182526020918290206040805160808101825260049093029091018054835260018101548385015260028101546001600160a01b031691830191909152600301546060820152908401819052516112135788156111ef5760028782815181106111d5576111d5611e8c565b60ff9092166020928302919091019091015260010161104d565b82516040516339775c8160e01b815263ffffffff9091166004820152602401610326565b838b8b8381811061122657611226611e8c565b905060200201602081019061123b9190611d63565b63ffffffff168154811061125157611251611e8c565b60009182526020918290206040805160608082018352600390940290920180548352600181015483860152600201549082015290850181905290840151611297916116b4565b6112cb578251604080850151905163b826420960e01b815263ffffffff928316600482015291166024820152604401610326565b61ffff881660a0840152600060e0840181905260c08401526112ec836116e4565b602083015151156112fe576001611301565b60005b87828151811061131357611313611e8c565b602002602001019060ff16908160ff16815250506000808460200151604001516001600160a01b03168560e0015160405160006040518083038185875af1925050503d8060008114611381576040519150601f19603f3d011682016040523d82523d6000602084013e611386565b606091505b5091509150816113b5578460200151604001518160405163f2fc9fa160e01b8152600401610326929190611f66565b50508260200151604001516001600160a01b03168d8d838181106113db576113db611e8c565b90506020020160208101906113f09190611d63565b60e085015160c086015160208088015151604080519485529184019290925282015263ffffffff91909116907f25f4dfa5f0703d4c509bd7216e70f8378f419433c14840c14f3eaadb60642ad19060600160405180910390a360010161104d565b5050505050509695505050505050565b7f81ba2e33f1e91d5b498c91742740d1de8a6149f571c26bec9ae77b5cf099c58261148a610b77565b60408051918252602082018490520160405180910390a1610abf816119b9565b60006103cf610af660017f82055909238c0f5e63d6f174068ebb8f51bcec9bd37de63bb68f6551feec0cfd611e42565b6114e381611511565b610abf610aba60017f1ec4138404500a2a0be2c2f9b103581c2a7fa783a934f91a6cc5cc924404973c611e42565b6001600160a01b038116610abf5760405163f6b2911f60e01b815260040160405180910390fd5b600080611543610ea4565b905060006001611551610ea4565b5461155c9190611e42565b90506115b98483836001600160401b03168154811061157d5761157d611e8c565b906000526020600020906003020160405180606001604052908160008201548152602001600182015481526020016002820154815250506116b4565b156115c5579392505050565b60006115e68584836001600160401b03168154811061157d5761157d611e8c565b156115f357949350505050565b8160070b8160070b146116ac576000600261160e8484611fcb565b6116189190612032565b9050600084826001600160401b03168154811061163757611637611e8c565b90600052602060002090600302016040518060600160405290816000820154815260200160018201548152602001600282015481525050905061167a87826116b4565b15611689575095945050505050565b8060400151876060015110156116a1578193506116a5565b8192505b50506115f3565b949350505050565b805160408201516000916116c791611ee2565b83606001511080156104c157505060400151606090910151101590565b61170860405180606001604052806000815260200160008152602001600081525090565b6060820151805160409091015160009161172191611ee2565b602084015180516060909101519192506117449161173f9084611e42565b610b2a565b60208084018290526060850151805191015190916117629190612071565b61176c9190612090565b82526020808401518051908201519184015160009261178a91612071565b6117949190612090565b83519091508110156117ce5782516117ad908290611e42565b604084018190526117ca906117c0610afa565b6103609190611ee2565b8083525b826020015184602001516060018181516117e89190611ee2565b905250602080840151908501518051611802908390611e42565b905250825160208086015101805161181b908390611e42565b905250602083015160c085018051611834908390611ee2565b905250825160e08501805161184a908390611ee2565b90525060408481015185516020868101518751828a0151518987015187519384529383019190915294810194909452606084015263ffffffff918216929116907f01d87b0f07b182b784c074487c5a8f901a8e2348275f5480d822a70de74fa8b79060800160405180910390a35050602082015151158015906118ec5750816080015163ffffffff16826040015160016118e491906120a4565b63ffffffff16105b8015611900575060008260a0015161ffff16115b156119b057600061190f610ea4565b9050826040018051611920906120cc565b63ffffffff16908163ffffffff168152505080836040015163ffffffff168154811061194e5761194e611e8c565b9060005260206000209060030201604051806060016040529081600082015481526020016001820154815260200160028201548152505083606001819052508260a001805161199c906120f0565b61ffff1690526119ab836116e4565b505050565b6103c1826119e7565b610abf610aba60017f8ec604dcc41d380ed48f70a4a32dd9623b98c284836361a21b8992d2845ee53d611e42565b60006119f1610e76565b905081602001516060015181836000015163ffffffff1681548110611a1857611a18611e8c565b90600052602060002090600402016003018190555081602001516000015181836000015163ffffffff1681548110611a5257611a52611e8c565b90600052602060002090600402016000018190555081602001516020015181836000015163ffffffff1681548110611a8c57611a8c611e8c565b9060005260206000209060040201600101819055505050565b60405180606001604052806000815260200160008152602001600081525090565b6040518060800160405280600081526020016000815260200160006001600160a01b03168152602001600081525090565b604051806101000160405280600063ffffffff168152602001611b18611ac6565b815260006020820152604001611b2c611aa5565b8152600060208201819052604082018190526060820181905260809091015290565b600060208284031215611b6057600080fd5b5035919050565b6001600160a01b0381168114610abf57600080fd5b60008060408385031215611b8f57600080fd5b823591506020830135611ba181611b67565b809150509250929050565b60008083601f840112611bbe57600080fd5b5081356001600160401b03811115611bd557600080fd5b6020830191508360208260051b8501011115611bf057600080fd5b9250929050565b60008060208385031215611c0a57600080fd5b82356001600160401b03811115611c2057600080fd5b611c2c85828601611bac565b90969095509350505050565b6020808252825182820181905260009190848201906040850190845b81811015611c7357835160070b83529284019291840191600101611c54565b50909695505050505050565b8015158114610abf57600080fd5b60008060008060008060808789031215611ca657600080fd5b86356001600160401b0380821115611cbd57600080fd5b611cc98a838b01611bac565b90985096506020890135915080821115611ce257600080fd5b50611cef89828a01611bac565b9095509350506040870135611d0381611c7f565b9150606087013561ffff81168114611d1a57600080fd5b809150509295509295509295565b6020808252825182820181905260009190848201906040850190845b81811015611c7357835160ff1683529284019291840191600101611d44565b600060208284031215611d7557600080fd5b813563ffffffff81168114611d8957600080fd5b9392505050565b60008060008060408587031215611da657600080fd5b84356001600160401b0380821115611dbd57600080fd5b611dc988838901611bac565b90965094506020870135915080821115611de257600080fd5b50611def87828801611bac565b95989497509550505050565b600060208284031215611e0d57600080fd5b8135611d8981611b67565b6001600160a01b0391909116815260200190565b634e487b7160e01b600052601160045260246000fd5b600082821015611e5457611e54611e2c565b500390565b600060208284031215611e6b57600080fd5b8151611d8981611b67565b634e487b7160e01b600052604160045260246000fd5b634e487b7160e01b600052603260045260246000fd5b6000600019821415611eb657611eb6611e2c565b5060010190565b600063ffffffff83811690831681811015611eda57611eda611e2c565b039392505050565b60008219821115611ef557611ef5611e2c565b500190565b83815260406020820152816040820152818360608301376000818301606090810191909152601f909201601f1916010192915050565b600060208284031215611f4257600080fd5b8151611d8981611c7f565b600060208284031215611f5f57600080fd5b5051919050565b60018060a01b038316815260006020604081840152835180604085015260005b81811015611fa257858101830151858201606001528201611f86565b81811115611fb4576000606083870101525b50601f01601f191692909201606001949350505050565b60008160070b8360070b6000821282677fffffffffffffff03821381151615611ff657611ff6611e2c565b82677fffffffffffffff1903821281161561201357612013611e2c565b50019392505050565b634e487b7160e01b600052601260045260246000fd5b60008160070b8360070b806120495761204961201c565b677fffffffffffffff1982146000198214161561206857612068611e2c565b90059392505050565b600081600019048311821515161561208b5761208b611e2c565b500290565b60008261209f5761209f61201c565b500490565b600063ffffffff8083168185168083038211156120c3576120c3611e2c565b01949350505050565b600063ffffffff808316818114156120e6576120e6611e2c565b6001019392505050565b600061ffff82168061210457612104611e2c565b600019019291505056fea2646970667358221220e98ba7b19339cc90d8f04d598c0568fd481020f7496a1d7e6f7a019a9e97cb0264736f6c634300080a0033",
  "devdoc": {
    "author": "Kiln",
    "errors": {
      "ClaimRedeemFailed(address,bytes)": [
        {
          "params": {
            "rdata": "The revert data",
            "recipient": "The recipient of the payment"
          }
        }
      ],
      "DoesNotMatch(uint256,uint256)": [
        {
          "params": {
            "redeemRequestId": "The provided redeem request id",
            "withdrawalEventId": "The provided associated withdrawal event id"
          }
        }
      ],
      "InvalidInitialization(uint256,uint256)": [
        {
          "params": {
            "expectedVersion": "The version that was expected",
            "version": "The version that was attempting to be initialized"
          }
        }
      ],
      "RedeemRequestAlreadyClaimed(uint256)": [
        {
          "params": {
            "id": "The redeem request id"
          }
        }
      ],
      "RedeemRequestOutOfBounds(uint256)": [
        {
          "params": {
            "id": "The redeem request id"
          }
        }
      ],
      "Unauthorized(address)": [
        {
          "params": {
            "caller": "Address performing the call"
          }
        }
      ],
      "WithdrawalEventOutOfBounds(uint256)": [
        {
          "params": {
            "id": "The withdrawal event id"
          }
        }
      ],
      "WithdrawalExceedsRedeemDemand(uint256,uint256)": [
        {
          "params": {
            "redeemDemand": "The current redeem demand",
            "withdrawalAmount": "The amount of the withdrawal event"
          }
        }
      ]
    },
    "kind": "dev",
    "methods": {
      "claimRedeemRequests(uint32[],uint32[])": {
        "params": {
          "_redeemRequestIds": "The list of redeem requests to claim",
          "_withdrawalEventIds": "The list of withdrawal events to use for every redeem request claim"
        },
        "returns": {
          "claimStatuses": "The list of claim statuses. 0 for fully claimed, 1 for partially claimed, 2 for skipped"
        }
      },
      "claimRedeemRequests(uint32[],uint32[],bool,uint16)": {
        "params": {
          "_depth": "The maximum recursive depth for the resolution of the redeem requests",
          "_redeemRequestIds": "The list of redeem requests to claim",
          "_skipAlreadyClaimed": "True if the call should not revert on claiming of already claimed requests",
          "_withdrawalEventIds": "The list of withdrawal events to use for every redeem request claim"
        },
        "returns": {
          "claimStatuses": "The list of claim statuses. 0 for fully claimed, 1 for partially claimed, 2 for skipped"
        }
      },
      "getBufferedExceedingEth()": {
        "returns": {
          "_0": "The amount of eth in the buffer"
        }
      },
      "getRedeemDemand()": {
        "returns": {
          "_0": "The amount of LsETH waiting to be exited"
        }
      },
      "getRedeemRequestDetails(uint32)": {
        "params": {
          "_redeemRequestId": "The id of the request"
        },
        "returns": {
          "_0": "The redeem request details"
        }
      },
      "getWithdrawalEventDetails(uint32)": {
        "params": {
          "_withdrawalEventId": "The id of the withdrawal event"
        },
        "returns": {
          "_0": "The withdrawal event details"
        }
      },
      "initializeRedeemManagerV1(address)": {
        "params": {
          "_river": "The address of the River contract"
        }
      },
      "pullExceedingEth(uint256)": {
        "params": {
          "_max": "The maximum amount that should be pulled"
        }
      },
      "reportWithdraw(uint256)": {
        "params": {
          "_lsETHWithdrawable": "The amount of LsETH that can be redeemed due to this new withdraw event"
        }
      },
      "requestRedeem(uint256)": {
        "params": {
          "_lsETHAmount": "The amount of LsETH to redeem"
        },
        "returns": {
          "redeemRequestId": "The id of the redeem request"
        }
      },
      "requestRedeem(uint256,address)": {
        "params": {
          "_lsETHAmount": "The amount of LsETH to redeem",
          "_recipient": "The recipient owning the redeem request"
        },
        "returns": {
          "redeemRequestId": "The id of the redeem request"
        }
      },
      "resolveRedeemRequests(uint32[])": {
        "details": "The result is an array of equal length with ids or error code-1 means that the request is not satisfied yet-2 means that the request is out of bounds-3 means that the request has already been claimedThis call was created to be called by an off-chain interface, the output could then be used to perform the claimRewards call in a regular transaction",
        "params": {
          "_redeemRequestIds": "The list of redeem requests to resolve"
        },
        "returns": {
          "withdrawalEventIds": "The list of withdrawal events matching every redeem request (or error codes)"
        }
      }
    },
    "title": "Redeem Manager (v1)",
    "version": 1
  },
  "userdoc": {
    "errors": {
      "ClaimRedeemFailed(address,bytes)": [
        {
          "notice": "Thrown when the payment after a claim failed"
        }
      ],
      "DoesNotMatch(uint256,uint256)": [
        {
          "notice": "Thrown when the redeem request and withdrawal event are not matching during claim"
        }
      ],
      "IncompatibleArrayLengths()": [
        {
          "notice": "Thrown when the provided arrays don't have matching lengths"
        }
      ],
      "InvalidInitialization(uint256,uint256)": [
        {
          "notice": "An error occured during the initialization"
        }
      ],
      "InvalidZeroAddress()": [
        {
          "notice": "The address is zero"
        }
      ],
      "InvalidZeroAmount()": [
        {
          "notice": "Thrown When a zero value is provided"
        }
      ],
      "RedeemRequestAlreadyClaimed(uint256)": [
        {
          "notice": "Thrown when\tthe redeem request id is already claimed"
        }
      ],
      "RedeemRequestOutOfBounds(uint256)": [
        {
          "notice": "Thrown when the provided redeem request id is out of bounds"
        }
      ],
      "TransferError()": [
        {
          "notice": "Thrown when a transfer error occured with LsETH"
        }
      ],
      "Unauthorized(address)": [
        {
          "notice": "The operator is unauthorized for the caller"
        }
      ],
      "WithdrawalEventOutOfBounds(uint256)": [
        {
          "notice": "Thrown when the withdrawal request id if out of bounds"
        }
      ],
      "WithdrawalExceedsRedeemDemand(uint256,uint256)": [
        {
          "notice": "Thrown when the provided withdrawal event exceeds the redeem demand"
        }
      ]
    },
    "events": {
      "ClaimedRedeemRequest(uint32,address,uint256,uint256,uint256)": {
        "notice": "Emitted when a redeem request claim has been processed and matched at least once and funds are sent to the recipient"
      },
      "Initialize(uint256,bytes)": {
        "notice": "Emitted when the contract is properly initialized"
      },
      "ReportedWithdrawal(uint256,uint256,uint256,uint32)": {
        "notice": "Emitted when a withdrawal event is created"
      },
      "RequestedRedeem(address,uint256,uint256,uint256,uint32)": {
        "notice": "Emitted when a redeem request is created"
      },
      "SatisfiedRedeemRequest(uint32,uint32,uint256,uint256,uint256,uint256)": {
        "notice": "Emitted when a redeem request has been satisfied and filled (even partially) from a withdrawal event"
      },
      "SetRedeemDemand(uint256,uint256)": {
        "notice": "Emitted when the redeem demand is set"
      },
      "SetRiver(address)": {
        "notice": "Emitted when the River address is set"
      }
    },
    "kind": "user",
    "methods": {
      "claimRedeemRequests(uint32[],uint32[])": {
        "notice": "Claims the rewards of the provided redeem request ids"
      },
      "claimRedeemRequests(uint32[],uint32[],bool,uint16)": {
        "notice": "Claims the rewards of the provided redeem request ids"
      },
      "getBufferedExceedingEth()": {
        "notice": "Retrieve the amount of redeemed LsETH pending to be supplied with withdrawn ETH"
      },
      "getRedeemDemand()": {
        "notice": "Retrieve the amount of LsETH waiting to be exited"
      },
      "getRedeemRequestCount()": {
        "notice": "Retrieve the global count of redeem requests"
      },
      "getRedeemRequestDetails(uint32)": {
        "notice": "Retrieve the details of a specific redeem request"
      },
      "getWithdrawalEventCount()": {
        "notice": "Retrieve the global count of withdrawal events"
      },
      "getWithdrawalEventDetails(uint32)": {
        "notice": "Retrieve the details of a specific withdrawal event"
      },
      "pullExceedingEth(uint256)": {
        "notice": "Pulls exceeding buffer eth"
      },
      "reportWithdraw(uint256)": {
        "notice": "Reports a withdraw event from River"
      },
      "requestRedeem(uint256)": {
        "notice": "Creates a redeem request using msg.sender as recipient"
      },
      "requestRedeem(uint256,address)": {
        "notice": "Creates a redeem request"
      },
      "resolveRedeemRequests(uint32[])": {
        "notice": "Resolves the provided list of redeem request ids"
      }
    },
    "notice": "This contract handles the redeem requests of all users",
    "version": 1
  },
  "storageLayout": {
    "storage": [],
    "types": null
  }
}