{
  "address": "0x423CE5282c460EED5FE0786B4D47d2c2a4Ef3721",
  "abi": [
    {
      "inputs": [
        {
          "internalType": "address",
          "name": "recipient",
          "type": "address"
        },
        {
          "internalType": "bytes",
          "name": "rdata",
          "type": "bytes"
        }
      ],
      "name": "ClaimRedeemFailed",
      "type": "error"
    },
    {
      "inputs": [
        {
          "internalType": "uint256",
          "name": "redeemRequestId",
          "type": "uint256"
        },
        {
          "internalType": "uint256",
          "name": "withdrawalEventId",
          "type": "uint256"
        }
      ],
      "name": "DoesNotMatch",
      "type": "error"
    },
    {
      "inputs": [],
      "name": "IncompatibleArrayLengths",
      "type": "error"
    },
    {
      "inputs": [
        {
          "internalType": "uint256",
          "name": "version",
          "type": "uint256"
        },
        {
          "internalType": "uint256",
          "name": "expectedVersion",
          "type": "uint256"
        }
      ],
      "name": "InvalidInitialization",
      "type": "error"
    },
    {
      "inputs": [],
      "name": "InvalidZeroAddress",
      "type": "error"
    },
    {
      "inputs": [],
      "name": "InvalidZeroAmount",
      "type": "error"
    },
    {
      "inputs": [
        {
          "internalType": "uint256",
          "name": "id",
          "type": "uint256"
        }
      ],
      "name": "RedeemRequestAlreadyClaimed",
      "type": "error"
    },
    {
      "inputs": [
        {
          "internalType": "uint256",
          "name": "id",
          "type": "uint256"
        }
      ],
      "name": "RedeemRequestOutOfBounds",
      "type": "error"
    },
    {
      "inputs": [],
      "name": "TransferError",
      "type": "error"
    },
    {
      "inputs": [
        {
          "internalType": "address",
          "name": "caller",
          "type": "address"
        }
      ],
      "name": "Unauthorized",
      "type": "error"
    },
    {
      "inputs": [
        {
          "internalType": "uint256",
          "name": "id",
          "type": "uint256"
        }
      ],
      "name": "WithdrawalEventOutOfBounds",
      "type": "error"
    },
    {
      "inputs": [
        {
          "internalType": "uint256",
          "name": "withdrawalAmount",
          "type": "uint256"
        },
        {
          "internalType": "uint256",
          "name": "redeemDemand",
          "type": "uint256"
        }
      ],
      "name": "WithdrawalExceedsRedeemDemand",
      "type": "error"
    },
    {
      "anonymous": false,
      "inputs": [
        {
          "indexed": true,
          "internalType": "uint32",
          "name": "redeemRequestId",
          "type": "uint32"
        },
        {
          "indexed": true,
          "internalType": "address",
          "name": "recipient",
          "type": "address"
        },
        {
          "indexed": false,
          "internalType": "uint256",
          "name": "ethAmount",
          "type": "uint256"
        },
        {
          "indexed": false,
          "internalType": "uint256",
          "name": "lsEthAmount",
          "type": "uint256"
        },
        {
          "indexed": false,
          "internalType": "uint256",
          "name": "remainingLsEthAmount",
          "type": "uint256"
        }
      ],
      "name": "ClaimedRedeemRequest",
      "type": "event"
    },
    {
      "anonymous": false,
      "inputs": [
        {
          "indexed": false,
          "internalType": "uint256",
          "name": "version",
          "type": "uint256"
        },
        {
          "indexed": false,
          "internalType": "bytes",
          "name": "cdata",
          "type": "bytes"
        }
      ],
      "name": "Initialize",
      "type": "event"
    },
    {
      "anonymous": false,
      "inputs": [
        {
          "indexed": false,
          "internalType": "uint256",
          "name": "height",
          "type": "uint256"
        },
        {
          "indexed": false,
          "internalType": "uint256",
          "name": "amount",
          "type": "uint256"
        },
        {
          "indexed": false,
          "internalType": "uint256",
          "name": "ethAmount",
          "type": "uint256"
        },
        {
          "indexed": false,
          "internalType": "uint32",
          "name": "id",
          "type": "uint32"
        }
      ],
      "name": "ReportedWithdrawal",
      "type": "event"
    },
    {
      "anonymous": false,
      "inputs": [
        {
          "indexed": true,
          "internalType": "address",
          "name": "owner",
          "type": "address"
        },
        {
          "indexed": false,
          "internalType": "uint256",
          "name": "height",
          "type": "uint256"
        },
        {
          "indexed": false,
          "internalType": "uint256",
          "name": "amount",
          "type": "uint256"
        },
        {
          "indexed": false,
          "internalType": "uint256",
          "name": "maxRedeemableEth",
          "type": "uint256"
        },
        {
          "indexed": false,
          "internalType": "uint32",
          "name": "id",
          "type": "uint32"
        }
      ],
      "name": "RequestedRedeem",
      "type": "event"
    },
    {
      "anonymous": false,
      "inputs": [
        {
          "indexed": true,
          "internalType": "uint32",
          "name": "redeemRequestId",
          "type": "uint32"
        },
        {
          "indexed": true,
          "internalType": "uint32",
          "name": "withdrawalEventId",
          "type": "uint32"
        },
        {
          "indexed": false,
          "internalType": "uint256",
          "name": "lsEthAmountSatisfied",
          "type": "uint256"
        },
        {
          "indexed": false,
          "internalType": "uint256",
          "name": "ethAmountSatisfied",
          "type": "uint256"
        },
        {
          "indexed": false,
          "internalType": "uint256",
          "name": "lsEthAmountRemaining",
          "type": "uint256"
        },
        {
          "indexed": false,
          "internalType": "uint256",
          "name": "ethAmountExceeding",
          "type": "uint256"
        }
      ],
      "name": "SatisfiedRedeemRequest",
      "type": "event"
    },
    {
      "anonymous": false,
      "inputs": [
        {
          "indexed": false,
          "internalType": "uint256",
          "name": "oldRedeemDemand",
          "type": "uint256"
        },
        {
          "indexed": false,
          "internalType": "uint256",
          "name": "newRedeemDemand",
          "type": "uint256"
        }
      ],
      "name": "SetRedeemDemand",
      "type": "event"
    },
    {
      "anonymous": false,
      "inputs": [
        {
          "indexed": false,
          "internalType": "address",
          "name": "river",
          "type": "address"
        }
      ],
      "name": "SetRiver",
      "type": "event"
    },
    {
      "inputs": [
        {
          "internalType": "uint32[]",
          "name": "redeemRequestIds",
          "type": "uint32[]"
        },
        {
          "internalType": "uint32[]",
          "name": "withdrawalEventIds",
          "type": "uint32[]"
        },
        {
          "internalType": "bool",
          "name": "skipAlreadyClaimed",
          "type": "bool"
        },
        {
          "internalType": "uint16",
          "name": "_depth",
          "type": "uint16"
        }
      ],
      "name": "claimRedeemRequests",
      "outputs": [
        {
          "internalType": "uint8[]",
          "name": "claimStatuses",
          "type": "uint8[]"
        }
      ],
      "stateMutability": "nonpayable",
      "type": "function"
    },
    {
      "inputs": [
        {
          "internalType": "uint32[]",
          "name": "_redeemRequestIds",
          "type": "uint32[]"
        },
        {
          "internalType": "uint32[]",
          "name": "_withdrawalEventIds",
          "type": "uint32[]"
        }
      ],
      "name": "claimRedeemRequests",
      "outputs": [
        {
          "internalType": "uint8[]",
          "name": "claimStatuses",
          "type": "uint8[]"
        }
      ],
      "stateMutability": "nonpayable",
      "type": "function"
    },
    {
      "inputs": [],
      "name": "getBufferedExceedingEth",
      "outputs": [
        {
          "internalType": "uint256",
          "name": "",
          "type": "uint256"
        }
      ],
      "stateMutability": "view",
      "type": "function"
    },
    {
      "inputs": [],
      "name": "getRedeemDemand",
      "outputs": [
        {
          "internalType": "uint256",
          "name": "",
          "type": "uint256"
        }
      ],
      "stateMutability": "view",
      "type": "function"
    },
    {
      "inputs": [],
      "name": "getRedeemRequestCount",
      "outputs": [
        {
          "internalType": "uint256",
          "name": "",
          "type": "uint256"
        }
      ],
      "stateMutability": "view",
      "type": "function"
    },
    {
      "inputs": [
        {
          "internalType": "uint32",
          "name": "_redeemRequestId",
          "type": "uint32"
        }
      ],
      "name": "getRedeemRequestDetails",
      "outputs": [
        {
          "components": [
            {
              "internalType": "uint256",
              "name": "amount",
              "type": "uint256"
            },
            {
              "internalType": "uint256",
              "name": "maxRedeemableEth",
              "type": "uint256"
            },
            {
              "internalType": "address",
              "name": "owner",
              "type": "address"
            },
            {
              "internalType": "uint256",
              "name": "height",
              "type": "uint256"
            }
          ],
          "internalType": "struct RedeemQueue.RedeemRequest",
          "name": "",
          "type": "tuple"
        }
      ],
      "stateMutability": "view",
      "type": "function"
    },
    {
      "inputs": [],
      "name": "getRiver",
      "outputs": [
        {
          "internalType": "address",
          "name": "",
          "type": "address"
        }
      ],
      "stateMutability": "view",
      "type": "function"
    },
    {
      "inputs": [],
      "name": "getWithdrawalEventCount",
      "outputs": [
        {
          "internalType": "uint256",
          "name": "",
          "type": "uint256"
        }
      ],
      "stateMutability": "view",
      "type": "function"
    },
    {
      "inputs": [
        {
          "internalType": "uint32",
          "name": "_withdrawalEventId",
          "type": "uint32"
        }
      ],
      "name": "getWithdrawalEventDetails",
      "outputs": [
        {
          "components": [
            {
              "internalType": "uint256",
              "name": "amount",
              "type": "uint256"
            },
            {
              "internalType": "uint256",
              "name": "withdrawnEth",
              "type": "uint256"
            },
            {
              "internalType": "uint256",
              "name": "height",
              "type": "uint256"
            }
          ],
          "internalType": "struct WithdrawalStack.WithdrawalEvent",
          "name": "",
          "type": "tuple"
        }
      ],
      "stateMutability": "view",
      "type": "function"
    },
    {
      "inputs": [
        {
          "internalType": "address",
          "name": "_river",
          "type": "address"
        }
      ],
      "name": "initializeRedeemManagerV1",
      "outputs": [],
      "stateMutability": "nonpayable",
      "type": "function"
    },
    {
      "inputs": [
        {
          "internalType": "uint256",
          "name": "_max",
          "type": "uint256"
        }
      ],
      "name": "pullExceedingEth",
      "outputs": [],
      "stateMutability": "nonpayable",
      "type": "function"
    },
    {
      "inputs": [
        {
          "internalType": "uint256",
          "name": "_lsETHWithdrawable",
          "type": "uint256"
        }
      ],
      "name": "reportWithdraw",
      "outputs": [],
      "stateMutability": "payable",
      "type": "function"
    },
    {
      "inputs": [
        {
          "internalType": "uint256",
          "name": "_lsETHAmount",
          "type": "uint256"
        },
        {
          "internalType": "address",
          "name": "_recipient",
          "type": "address"
        }
      ],
      "name": "requestRedeem",
      "outputs": [
        {
          "internalType": "uint32",
          "name": "redeemRequestId",
          "type": "uint32"
        }
      ],
      "stateMutability": "nonpayable",
      "type": "function"
    },
    {
      "inputs": [
        {
          "internalType": "uint256",
          "name": "_lsETHAmount",
          "type": "uint256"
        }
      ],
      "name": "requestRedeem",
      "outputs": [
        {
          "internalType": "uint32",
          "name": "redeemRequestId",
          "type": "uint32"
        }
      ],
      "stateMutability": "nonpayable",
      "type": "function"
    },
    {
      "inputs": [
        {
          "internalType": "uint32[]",
          "name": "_redeemRequestIds",
          "type": "uint32[]"
        }
      ],
      "name": "resolveRedeemRequests",
      "outputs": [
        {
          "internalType": "int64[]",
          "name": "withdrawalEventIds",
          "type": "int64[]"
        }
      ],
      "stateMutability": "view",
      "type": "function"
    }
  ],
  "transactionHash": "0x9448dc11c469899417b6710cf2538595597348443ead20ab557bc2d4cff918dc",
  "args": [],
  "numDeployments": 1,
  "solcInputHash": "7a7ee2ce31e910a20ebeaa44b02066a2",
  "bytecode": "0x60806040523480156200001157600080fd5b506200002a6000196200007060201b62000a931760201c565b7f1809e49bba43f2d39fa57894b50cd6ccb428cc438230e065cac3eb24a1355a716000196000366040516200006293929190620000bd565b60405180910390a162000119565b620000b6620000a160017f82055909238c0f5e63d6f174068ebb8f51bcec9bd37de63bb68f6551feec0cfd620000f3565b60001b82620000b960201b62000ab71760201c565b50565b9055565b83815260406020820152816040820152818360608301376000818301606090810191909152601f909201601f1916010192915050565b6000828210156200011457634e487b7160e01b600052601160045260246000fd5b500390565b61215280620001296000396000f3fe6080604052600436106100b85760003560e01c80630c779401146100bd5780630d8d2a54146100df578063107703ab14610107578063319798d1146101345780635b5985a2146101495780635f2e5f071461015e5780637c044e551461018b578063841ecb85146101b857806386233754146101cd5780639332525d1461020f5780639b92d6de1461022f578063a519f0601461028b578063aa2f892d146102ad578063b30d8bb7146102cd578063c8fade5a146102e0575b600080fd5b3480156100c957600080fd5b506100dd6100d8366004611a92565b610300565b005b3480156100eb57600080fd5b506100f46103da565b6040519081526020015b60405180910390f35b34801561011357600080fd5b50610127610122366004611ac0565b6103e9565b6040516100fe9190611af0565b34801561014057600080fd5b506100f46104db565b34801561015557600080fd5b506100f46104eb565b34801561016a57600080fd5b5061017e610179366004611b4c565b6104f5565b6040516100fe9190611b8d565b34801561019757600080fd5b506101ab6101a6366004611be2565b61062a565b6040516100fe9190611c7d565b3480156101c457600080fd5b506100f4610645565b3480156101d957600080fd5b506101ed6101e8366004611cb8565b61064f565b60408051825181526020808401519082015291810151908201526060016100fe565b34801561021b57600080fd5b506101ab61022a366004611ce5565b6106b4565b34801561023b57600080fd5b5061024f61024a366004611cb8565b6106d0565b6040516100fe919081518152602080830151908201526040808301516001600160a01b0316908201526060918201519181019190915260800190565b34801561029757600080fd5b506102a0610747565b6040516100fe9190611d50565b3480156102b957600080fd5b506101276102c8366004611a92565b610751565b6100dd6102db366004611a92565b610829565b3480156102ec57600080fd5b506100dd6102fb366004611d64565b6109c5565b610308610abb565b6001600160a01b0316336001600160a01b031614610344573360405163472511eb60e11b815260040161033b9190611d50565b60405180910390fd5b6000610357610351610add565b83610afb565b905080156103d65761037a8161036b610add565b6103759190611d97565b610b10565b610382610747565b6001600160a01b031663056850c6826040518263ffffffff1660e01b81526004016000604051808303818588803b1580156103bc57600080fd5b505af11580156103d0573d6000803e3d6000fd5b50505050505b5050565b60006103e4610b2c565b905090565b6000806103f4610747565b9050336001600160a01b038216146104c757806001600160a01b031663c5eff3d06040518163ffffffff1660e01b8152600401602060405180830381865afa158015610444573d6000803e3d6000fd5b505050506040513d601f19601f820116820180604052508101906104689190611dae565b6001600160a01b0316635a4091023360046040518363ffffffff1660e01b8152600401610496929190611dcb565b60006040518083038186803b1580156104ae57600080fd5b505afa1580156104c2573d6000803e3d6000fd5b505050505b506104d28383610b4a565b90505b92915050565b60006104e5610e08565b54919050565b60006103e4610add565b6060816001600160401b0381111561050f5761050f611de4565b604051908082528060200260200182016040528015610538578160200160208202803683370190505b5090506105436119e9565b600061054d610e36565b805490915080156105ae5781610564600183611d97565b8154811061057457610574611dfa565b9060005260206000209060030201604051806060016040529081600082015481526020016001820154815260200160028201548152505092505b60005b85811015610620576105e98787838181106105ce576105ce611dfa565b90506020020160208101906105e39190611cb8565b85610e64565b8582815181106105fb576105fb611dfa565b602002602001019060070b908160070b815250508061061990611e10565b90506105b1565b5050505092915050565b606061063a878787878787610f46565b979650505050505050565b60006104e5610e36565b6106576119e9565b61065f610e36565b8263ffffffff168154811061067657610676611dfa565b906000526020600020906003020160405180606001604052908160008201548152602001600182015481526020016002820154815250509050919050565b60606106c785858585600161ffff610f46565b95945050505050565b6106d8611a0a565b6106e0610e08565b8263ffffffff16815481106106f7576106f7611dfa565b60009182526020918290206040805160808101825260049093029091018054835260018101549383019390935260028301546001600160a01b031690820152600390910154606082015292915050565b60006103e4610abb565b60008061075c610747565b9050806001600160a01b031663c5eff3d06040518163ffffffff1660e01b8152600401602060405180830381865afa15801561079c573d6000803e3d6000fd5b505050506040513d601f19601f820116820180604052508101906107c09190611dae565b6001600160a01b0316635a4091023360046040518363ffffffff1660e01b81526004016107ee929190611dcb565b60006040518083038186803b15801561080657600080fd5b505afa15801561081a573d6000803e3d6000fd5b50505050506104d58233610b4a565b610831610abb565b6001600160a01b0316336001600160a01b031614610864573360405163472511eb60e11b815260040161033b9190611d50565b600061086e610b2c565b90508082111561089b57604051632ea1a50d60e11b8152600481018390526024810182905260440161033b565b60006108a5610e36565b805490915060003463ffffffff831615610926576000846108c7600186611e2b565b63ffffffff16815481106108dd576108dd611dfa565b60009182526020918290206040805160608101825260039093029091018054808452600182015494840194909452600201549082018190529092506109229190611e50565b9250505b604080516060810182528781526020808201848152928201858152875460018181018a5560008a81529390932093516003909102909301928355925190820155905160029091015561098061097b8787611d97565b6113db565b7f05e5b10ca266c2e8cfd73b1fb719694fb6b89fcda9e3739ace4cc19b3e855445828783866040516109b59493929190611e68565b60405180910390a1505050505050565b60006109cf611424565b8114610a0057806109de611424565b604051631cfd276760e31b81526004810192909252602482015260440161033b565b610a13610a0e826001611e50565b610a93565b610a1c82611442565b7ffc0d749143b04e0d92a3b49edae84a45f6bc88b75e99d9118ec4d7e87fe626c582604051610a4b9190611d50565b60405180910390a17f1809e49bba43f2d39fa57894b50cd6ccb428cc438230e065cac3eb24a1355a7181600036604051610a8793929190611e89565b60405180910390a15050565b610ab4610aaf60016000805160206120fd833981519152611d97565b829055565b50565b9055565b60006103e4610ad9600160008051602061209d833981519152611d97565b5490565b60006103e4610ad960016000805160206120bd833981519152611d97565b6000818311610b0a57826104d2565b50919050565b610ab4610aaf60016000805160206120bd833981519152611d97565b60006103e4610ad960016000805160206120dd833981519152611d97565b6000610b5582611467565b82610b7357604051630dd484e760e41b815260040160405180910390fd5b610b7b610747565b6040516323b872dd60e01b8152336004820152306024820152604481018590526001600160a01b0391909116906323b872dd906064016020604051808303816000875af1158015610bd0573d6000803e3d6000fd5b505050506040513d601f19601f82011682018060405250810190610bf49190611ebf565b610c11576040516313ff771f60e21b815260040160405180910390fd5b6000610c1b610e08565b805492509050600063ffffffff831615610cb257600082610c3d600186611e2b565b63ffffffff1681548110610c5357610c53611dfa565b6000918252602091829020604080516080810182526004909302909101805480845260018201549484019490945260028101546001600160a01b0316918301919091526003015460608201819052909250610cae9190611e50565b9150505b6000610cbc610747565b6001600160a01b031663f79c3f02876040518263ffffffff1660e01b8152600401610ce991815260200190565b602060405180830381865afa158015610d06573d6000803e3d6000fd5b505050506040513d601f19601f82011682018060405250810190610d2a9190611edc565b6040805160808101825288815260208082018481526001600160a01b038a811694840194855260608401888152895460018082018c5560008c8152959095209551600490910290950194855591519284019290925592516002830180546001600160a01b0319169190921617905590516003909101559050610db886610dae610b2c565b61097b9190611e50565b846001600160a01b03167f9a1bb960783a8679f42036f0c1fe89288fd279ed545a19f86bd284c72947b18783888488604051610df79493929190611e68565b60405180910390a250505092915050565b6000806104d560017f232f0d723a47bd57c991606dd0525f28484745095475b69dffe8416b3749c3c2611d97565b6000806104d560017f0c9122afab04eaf9e9bdaa10927c74406e40c7f08744e32826fff29b1c9e7abd611d97565b600080610e6f610e08565b805490915063ffffffff851610610e8b576001199150506104d5565b6000818563ffffffff1681548110610ea557610ea5611dfa565b6000918252602091829020604080516080810182526004909302909101805480845260018201549484019490945260028101546001600160a01b0316918301919091526003015460608201529150610f0357600219925050506104d5565b610f0b610e36565b541580610f2c5750606081015184516040860151610f299190611e50565b11155b15610f3d57600019925050506104d5565b6106c78161148e565b606085848114610f6957604051633a5e3f0d60e01b815260040160405180910390fd5b806001600160401b03811115610f8157610f81611de4565b604051908082528060200260200182016040528015610faa578160200160208202803683370190505b5091506000610fb7610e08565b90506000610fc3610e36565b9050610fcd611a3b565b815463ffffffff166080820152825460005b858110156113cb578c8c82818110610ff957610ff9611dfa565b905060200201602081019061100e9190611cb8565b63ffffffff1683528a8a8281811061102857611028611dfa565b905060200201602081019061103d9190611cb8565b63ffffffff90811660408501528351838216911610611072578251604051637ba6f8f560e11b815261033b9190600401611af0565b826080015163ffffffff16836040015163ffffffff16106110ac57826040015160405163311569d960e01b815260040161033b9190611af0565b848d8d838181106110bf576110bf611dfa565b90506020020160208101906110d49190611cb8565b63ffffffff16815481106110ea576110ea611dfa565b60009182526020918290206040805160808101825260049093029091018054835260018101548385015260028101546001600160a01b0316918301919091526003015460608201529084018190525161118d57881561117157600287828151811061115757611157611dfa565b60ff90921660209283029190910190910152600101610fdf565b82516040516339775c8160e01b815261033b9190600401611af0565b838b8b838181106111a0576111a0611dfa565b90506020020160208101906111b59190611cb8565b63ffffffff16815481106111cb576111cb611dfa565b600091825260209182902060408051606080820183526003909402909201805483526001810154838601526002015490820152908501819052908401516112119161160a565b611245578251604080850151905163b826420960e01b815263ffffffff92831660048201529116602482015260440161033b565b61ffff881660a0840152600060e0840181905260c08401526112668361163a565b6020830151511561127857600161127b565b60005b87828151811061128d5761128d611dfa565b602002602001019060ff16908160ff16815250506000808460200151604001516001600160a01b03168560e0015160405160006040518083038185875af1925050503d80600081146112fb576040519150601f19603f3d011682016040523d82523d6000602084013e611300565b606091505b50915091508161132f578460200151604001518160405163f2fc9fa160e01b815260040161033b929190611ef5565b50508260200151604001516001600160a01b03168d8d8381811061135557611355611dfa565b905060200201602081019061136a9190611cb8565b60e085015160c086015160208088015151604080519485529184019290925282015263ffffffff91909116907f25f4dfa5f0703d4c509bd7216e70f8378f419433c14840c14f3eaadb60642ad19060600160405180910390a3600101610fdf565b5050505050509695505050505050565b7f81ba2e33f1e91d5b498c91742740d1de8a6149f571c26bec9ae77b5cf099c582611404610b2c565b60408051918252602082018490520160405180910390a1610ab48161190f565b60006103e4610ad960016000805160206120fd833981519152611d97565b61144b81611467565b610ab4610aaf600160008051602061209d833981519152611d97565b6001600160a01b038116610ab45760405163f6b2911f60e01b815260040160405180910390fd5b600080611499610e36565b9050600060016114a7610e36565b546114b29190611d97565b905061150f8483836001600160401b0316815481106114d3576114d3611dfa565b9060005260206000209060030201604051806060016040529081600082015481526020016001820154815260200160028201548152505061160a565b1561151b579392505050565b600061153c8584836001600160401b0316815481106114d3576114d3611dfa565b1561154957949350505050565b8160070b8160070b1461160257600060026115648484611f5a565b61156e9190611fc1565b9050600084826001600160401b03168154811061158d5761158d611dfa565b9060005260206000209060030201604051806060016040529081600082015481526020016001820154815260200160028201548152505090506115d0878261160a565b156115df575095945050505050565b8060400151876060015110156115f7578193506115fb565b8192505b5050611549565b949350505050565b8051604082015160009161161d91611e50565b83606001511080156104d257505060400151606090910151101590565b61165e60405180606001604052806000815260200160008152602001600081525090565b6060820151805160409091015160009161167791611e50565b6020840151805160609091015191925061169a916116959084611d97565b610afb565b60208084018290526060850151805191015190916116b89190611fff565b6116c2919061201e565b8252602080840151805190820151918401516000926116e091611fff565b6116ea919061201e565b8351909150811015611724578251611703908290611d97565b6040840181905261172090611716610add565b6103759190611e50565b8083525b8260200151846020015160600181815161173e9190611e50565b905250602080840151908501518051611758908390611d97565b9052508251602080860151018051611771908390611d97565b905250602083015160c08501805161178a908390611e50565b905250825160e0850180516117a0908390611e50565b90525060408481015185516020868101518751828a0151518987015187519384529383019190915294810194909452606084015263ffffffff918216929116907f01d87b0f07b182b784c074487c5a8f901a8e2348275f5480d822a70de74fa8b79060800160405180910390a35050602082015151158015906118425750816080015163ffffffff168260400151600161183a9190612032565b63ffffffff16105b8015611856575060008260a0015161ffff16115b15611906576000611865610e36565b90508260400180516118769061205a565b63ffffffff16908163ffffffff168152505080836040015163ffffffff16815481106118a4576118a4611dfa565b9060005260206000209060030201604051806060016040529081600082015481526020016001820154815260200160028201548152505083606001819052508260a00180516118f29061207e565b61ffff1690526119018361163a565b505050565b6103d68261192b565b610ab4610aaf60016000805160206120dd833981519152611d97565b6000611935610e08565b905081602001516060015181836000015163ffffffff168154811061195c5761195c611dfa565b90600052602060002090600402016003018190555081602001516000015181836000015163ffffffff168154811061199657611996611dfa565b90600052602060002090600402016000018190555081602001516020015181836000015163ffffffff16815481106119d0576119d0611dfa565b9060005260206000209060040201600101819055505050565b60405180606001604052806000815260200160008152602001600081525090565b6040518060800160405280600081526020016000815260200160006001600160a01b03168152602001600081525090565b604051806101000160405280600063ffffffff168152602001611a5c611a0a565b815260006020820152604001611a706119e9565b8152600060208201819052604082018190526060820181905260809091015290565b600060208284031215611aa457600080fd5b5035919050565b6001600160a01b0381168114610ab457600080fd5b60008060408385031215611ad357600080fd5b823591506020830135611ae581611aab565b809150509250929050565b63ffffffff91909116815260200190565b60008083601f840112611b1357600080fd5b5081356001600160401b03811115611b2a57600080fd5b6020830191508360208260051b8501011115611b4557600080fd5b9250929050565b60008060208385031215611b5f57600080fd5b82356001600160401b03811115611b7557600080fd5b611b8185828601611b01565b90969095509350505050565b6020808252825182820181905260009190848201906040850190845b81811015611bc857835160070b83529284019291840191600101611ba9565b50909695505050505050565b8015158114610ab457600080fd5b60008060008060008060808789031215611bfb57600080fd5b86356001600160401b0380821115611c1257600080fd5b611c1e8a838b01611b01565b90985096506020890135915080821115611c3757600080fd5b50611c4489828a01611b01565b9095509350506040870135611c5881611bd4565b9150606087013561ffff81168114611c6f57600080fd5b809150509295509295509295565b6020808252825182820181905260009190848201906040850190845b81811015611bc857835160ff1683529284019291840191600101611c99565b600060208284031215611cca57600080fd5b813563ffffffff81168114611cde57600080fd5b9392505050565b60008060008060408587031215611cfb57600080fd5b84356001600160401b0380821115611d1257600080fd5b611d1e88838901611b01565b90965094506020870135915080821115611d3757600080fd5b50611d4487828801611b01565b95989497509550505050565b6001600160a01b0391909116815260200190565b600060208284031215611d7657600080fd5b8135611cde81611aab565b634e487b7160e01b600052601160045260246000fd5b600082821015611da957611da9611d81565b500390565b600060208284031215611dc057600080fd5b8151611cde81611aab565b6001600160a01b03929092168252602082015260400190565b634e487b7160e01b600052604160045260246000fd5b634e487b7160e01b600052603260045260246000fd5b6000600019821415611e2457611e24611d81565b5060010190565b600063ffffffff83811690831681811015611e4857611e48611d81565b039392505050565b60008219821115611e6357611e63611d81565b500190565b9384526020840192909252604083015263ffffffff16606082015260800190565b83815260406020820152816040820152818360608301376000818301606090810191909152601f909201601f1916010192915050565b600060208284031215611ed157600080fd5b8151611cde81611bd4565b600060208284031215611eee57600080fd5b5051919050565b60018060a01b038316815260006020604081840152835180604085015260005b81811015611f3157858101830151858201606001528201611f15565b81811115611f43576000606083870101525b50601f01601f191692909201606001949350505050565b6000600782810b9084900b828212801560016001603f1b0384900383131615611f8557611f85611d81565b60016001603f1b03198390038212811615611fa257611fa2611d81565b50019392505050565b634e487b7160e01b600052601260045260246000fd5b60008160070b8360070b80611fd857611fd8611fab565b60016001603f1b0319821460001982141615611ff657611ff6611d81565b90059392505050565b600081600019048311821515161561201957612019611d81565b500290565b60008261202d5761202d611fab565b500490565b600063ffffffff80831681851680830382111561205157612051611d81565b01949350505050565b600063ffffffff8083168181141561207457612074611d81565b6001019392505050565b600061ffff82168061209257612092611d81565b600019019291505056fe1ec4138404500a2a0be2c2f9b103581c2a7fa783a934f91a6cc5cc924404973c9afb091d33aa9fdd4ac2dbd1cbba78215a097062e9dbdc7b707ac5bb59049bc18ec604dcc41d380ed48f70a4a32dd9623b98c284836361a21b8992d2845ee53d82055909238c0f5e63d6f174068ebb8f51bcec9bd37de63bb68f6551feec0cfda2646970667358221220217c4fd0cfc891004dde0e311f7c7606db72a075c7156051d3cbb7d569f9775664736f6c634300080a0033",
  "devdoc": {
    "author": "Kiln",
    "errors": {
      "ClaimRedeemFailed(address,bytes)": [
        {
          "params": {
            "rdata": "The revert data",
            "recipient": "The recipient of the payment"
          }
        }
      ],
      "DoesNotMatch(uint256,uint256)": [
        {
          "params": {
            "redeemRequestId": "The provided redeem request id",
            "withdrawalEventId": "The provided associated withdrawal event id"
          }
        }
      ],
      "InvalidInitialization(uint256,uint256)": [
        {
          "params": {
            "expectedVersion": "The version that was expected",
            "version": "The version that was attempting to be initialized"
          }
        }
      ],
      "RedeemRequestAlreadyClaimed(uint256)": [
        {
          "params": {
            "id": "The redeem request id"
          }
        }
      ],
      "RedeemRequestOutOfBounds(uint256)": [
        {
          "params": {
            "id": "The redeem request id"
          }
        }
      ],
      "Unauthorized(address)": [
        {
          "params": {
            "caller": "Address performing the call"
          }
        }
      ],
      "WithdrawalEventOutOfBounds(uint256)": [
        {
          "params": {
            "id": "The withdrawal event id"
          }
        }
      ],
      "WithdrawalExceedsRedeemDemand(uint256,uint256)": [
        {
          "params": {
            "redeemDemand": "The current redeem demand",
            "withdrawalAmount": "The amount of the withdrawal event"
          }
        }
      ]
    },
    "kind": "dev",
    "methods": {
      "claimRedeemRequests(uint32[],uint32[])": {
        "params": {
          "_redeemRequestIds": "The list of redeem requests to claim",
          "_withdrawalEventIds": "The list of withdrawal events to use for every redeem request claim"
        },
        "returns": {
          "claimStatuses": "The list of claim statuses. 0 for fully claimed, 1 for partially claimed, 2 for skipped"
        }
      },
      "claimRedeemRequests(uint32[],uint32[],bool,uint16)": {
        "params": {
          "_depth": "The maximum recursive depth for the resolution of the redeem requests",
          "_redeemRequestIds": "The list of redeem requests to claim",
          "_skipAlreadyClaimed": "True if the call should not revert on claiming of already claimed requests",
          "_withdrawalEventIds": "The list of withdrawal events to use for every redeem request claim"
        },
        "returns": {
          "claimStatuses": "The list of claim statuses. 0 for fully claimed, 1 for partially claimed, 2 for skipped"
        }
      },
      "getBufferedExceedingEth()": {
        "returns": {
          "_0": "The amount of eth in the buffer"
        }
      },
      "getRedeemDemand()": {
        "returns": {
          "_0": "The amount of LsETH waiting to be exited"
        }
      },
      "getRedeemRequestDetails(uint32)": {
        "params": {
          "_redeemRequestId": "The id of the request"
        },
        "returns": {
          "_0": "The redeem request details"
        }
      },
      "getRiver()": {
        "returns": {
          "_0": "The address of River"
        }
      },
      "getWithdrawalEventDetails(uint32)": {
        "params": {
          "_withdrawalEventId": "The id of the withdrawal event"
        },
        "returns": {
          "_0": "The withdrawal event details"
        }
      },
      "initializeRedeemManagerV1(address)": {
        "params": {
          "_river": "The address of the River contract"
        }
      },
      "pullExceedingEth(uint256)": {
        "params": {
          "_max": "The maximum amount that should be pulled"
        }
      },
      "reportWithdraw(uint256)": {
        "params": {
          "_lsETHWithdrawable": "The amount of LsETH that can be redeemed due to this new withdraw event"
        }
      },
      "requestRedeem(uint256)": {
        "params": {
          "_lsETHAmount": "The amount of LsETH to redeem"
        },
        "returns": {
          "redeemRequestId": "The id of the redeem request"
        }
      },
      "requestRedeem(uint256,address)": {
        "params": {
          "_lsETHAmount": "The amount of LsETH to redeem",
          "_recipient": "The recipient owning the redeem request"
        },
        "returns": {
          "redeemRequestId": "The id of the redeem request"
        }
      },
      "resolveRedeemRequests(uint32[])": {
        "details": "The result is an array of equal length with ids or error code-1 means that the request is not satisfied yet-2 means that the request is out of bounds-3 means that the request has already been claimedThis call was created to be called by an off-chain interface, the output could then be used to perform the claimRewards call in a regular transaction",
        "params": {
          "_redeemRequestIds": "The list of redeem requests to resolve"
        },
        "returns": {
          "withdrawalEventIds": "The list of withdrawal events matching every redeem request (or error codes)"
        }
      }
    },
    "title": "Redeem Manager (v1)",
    "version": 1
  },
  "userdoc": {
    "errors": {
      "ClaimRedeemFailed(address,bytes)": [
        {
          "notice": "Thrown when the payment after a claim failed"
        }
      ],
      "DoesNotMatch(uint256,uint256)": [
        {
          "notice": "Thrown when the redeem request and withdrawal event are not matching during claim"
        }
      ],
      "IncompatibleArrayLengths()": [
        {
          "notice": "Thrown when the provided arrays don't have matching lengths"
        }
      ],
      "InvalidInitialization(uint256,uint256)": [
        {
          "notice": "An error occured during the initialization"
        }
      ],
      "InvalidZeroAddress()": [
        {
          "notice": "The address is zero"
        }
      ],
      "InvalidZeroAmount()": [
        {
          "notice": "Thrown When a zero value is provided"
        }
      ],
      "RedeemRequestAlreadyClaimed(uint256)": [
        {
          "notice": "Thrown when\tthe redeem request id is already claimed"
        }
      ],
      "RedeemRequestOutOfBounds(uint256)": [
        {
          "notice": "Thrown when the provided redeem request id is out of bounds"
        }
      ],
      "TransferError()": [
        {
          "notice": "Thrown when a transfer error occured with LsETH"
        }
      ],
      "Unauthorized(address)": [
        {
          "notice": "The operator is unauthorized for the caller"
        }
      ],
      "WithdrawalEventOutOfBounds(uint256)": [
        {
          "notice": "Thrown when the withdrawal request id if out of bounds"
        }
      ],
      "WithdrawalExceedsRedeemDemand(uint256,uint256)": [
        {
          "notice": "Thrown when the provided withdrawal event exceeds the redeem demand"
        }
      ]
    },
    "events": {
      "ClaimedRedeemRequest(uint32,address,uint256,uint256,uint256)": {
        "notice": "Emitted when a redeem request claim has been processed and matched at least once and funds are sent to the recipient"
      },
      "Initialize(uint256,bytes)": {
        "notice": "Emitted when the contract is properly initialized"
      },
      "ReportedWithdrawal(uint256,uint256,uint256,uint32)": {
        "notice": "Emitted when a withdrawal event is created"
      },
      "RequestedRedeem(address,uint256,uint256,uint256,uint32)": {
        "notice": "Emitted when a redeem request is created"
      },
      "SatisfiedRedeemRequest(uint32,uint32,uint256,uint256,uint256,uint256)": {
        "notice": "Emitted when a redeem request has been satisfied and filled (even partially) from a withdrawal event"
      },
      "SetRedeemDemand(uint256,uint256)": {
        "notice": "Emitted when the redeem demand is set"
      },
      "SetRiver(address)": {
        "notice": "Emitted when the River address is set"
      }
    },
    "kind": "user",
    "methods": {
      "claimRedeemRequests(uint32[],uint32[])": {
        "notice": "Claims the rewards of the provided redeem request ids"
      },
      "claimRedeemRequests(uint32[],uint32[],bool,uint16)": {
        "notice": "Claims the rewards of the provided redeem request ids"
      },
      "getBufferedExceedingEth()": {
        "notice": "Retrieve the amount of redeemed LsETH pending to be supplied with withdrawn ETH"
      },
      "getRedeemDemand()": {
        "notice": "Retrieve the amount of LsETH waiting to be exited"
      },
      "getRedeemRequestCount()": {
        "notice": "Retrieve the global count of redeem requests"
      },
      "getRedeemRequestDetails(uint32)": {
        "notice": "Retrieve the details of a specific redeem request"
      },
      "getRiver()": {
        "notice": "Retrieve River address"
      },
      "getWithdrawalEventCount()": {
        "notice": "Retrieve the global count of withdrawal events"
      },
      "getWithdrawalEventDetails(uint32)": {
        "notice": "Retrieve the details of a specific withdrawal event"
      },
      "pullExceedingEth(uint256)": {
        "notice": "Pulls exceeding buffer eth"
      },
      "reportWithdraw(uint256)": {
        "notice": "Reports a withdraw event from River"
      },
      "requestRedeem(uint256)": {
        "notice": "Creates a redeem request using msg.sender as recipient"
      },
      "requestRedeem(uint256,address)": {
        "notice": "Creates a redeem request"
      },
      "resolveRedeemRequests(uint32[])": {
        "notice": "Resolves the provided list of redeem request ids"
      }
    },
    "notice": "This contract handles the redeem requests of all users",
    "version": 1
  },
  "storageLayout": {
    "storage": [],
    "types": null
  }
}