{
  "address": "0xB7157EA88ec61423D1E7F71d77091e92E4cF4E44",
  "abi": [
    {
      "inputs": [],
      "name": "FundedKeyEventMigrationComplete",
      "type": "error"
    },
    {
      "inputs": [
        {
          "internalType": "uint256",
          "name": "index",
          "type": "uint256"
        }
      ],
      "name": "InactiveOperator",
      "type": "error"
    },
    {
      "inputs": [],
      "name": "InvalidArrayLengths",
      "type": "error"
    },
    {
      "inputs": [],
      "name": "InvalidEmptyArray",
      "type": "error"
    },
    {
      "inputs": [],
      "name": "InvalidEmptyStoppedValidatorCountsArray",
      "type": "error"
    },
    {
      "inputs": [],
      "name": "InvalidEmptyString",
      "type": "error"
    },
    {
      "inputs": [],
      "name": "InvalidFundedKeyDeletionAttempt",
      "type": "error"
    },
    {
      "inputs": [],
      "name": "InvalidIndexOutOfBounds",
      "type": "error"
    },
    {
      "inputs": [
        {
          "internalType": "uint256",
          "name": "version",
          "type": "uint256"
        },
        {
          "internalType": "uint256",
          "name": "expectedVersion",
          "type": "uint256"
        }
      ],
      "name": "InvalidInitialization",
      "type": "error"
    },
    {
      "inputs": [],
      "name": "InvalidKeyCount",
      "type": "error"
    },
    {
      "inputs": [],
      "name": "InvalidKeysLength",
      "type": "error"
    },
    {
      "inputs": [],
      "name": "InvalidStoppedValidatorCountsSum",
      "type": "error"
    },
    {
      "inputs": [],
      "name": "InvalidUnsortedIndexes",
      "type": "error"
    },
    {
      "inputs": [],
      "name": "InvalidZeroAddress",
      "type": "error"
    },
    {
      "inputs": [
        {
          "internalType": "uint256",
          "name": "index",
          "type": "uint256"
        },
        {
          "internalType": "uint256",
          "name": "limit",
          "type": "uint256"
        },
        {
          "internalType": "uint256",
          "name": "keyCount",
          "type": "uint256"
        }
      ],
      "name": "OperatorLimitTooHigh",
      "type": "error"
    },
    {
      "inputs": [
        {
          "internalType": "uint256",
          "name": "index",
          "type": "uint256"
        },
        {
          "internalType": "uint256",
          "name": "limit",
          "type": "uint256"
        },
        {
          "internalType": "uint256",
          "name": "fundedKeyCount",
          "type": "uint256"
        }
      ],
      "name": "OperatorLimitTooLow",
      "type": "error"
    },
    {
      "inputs": [
        {
          "internalType": "uint256",
          "name": "index",
          "type": "uint256"
        }
      ],
      "name": "OperatorNotFound",
      "type": "error"
    },
    {
      "inputs": [
        {
          "internalType": "uint256",
          "name": "index",
          "type": "uint256"
        }
      ],
      "name": "OperatorNotFound",
      "type": "error"
    },
    {
      "inputs": [],
      "name": "SliceOutOfBounds",
      "type": "error"
    },
    {
      "inputs": [],
      "name": "SliceOverflow",
      "type": "error"
    },
    {
      "inputs": [],
      "name": "StoppedValidatorCountsTooHigh",
      "type": "error"
    },
    {
      "inputs": [
        {
          "internalType": "address",
          "name": "caller",
          "type": "address"
        }
      ],
      "name": "Unauthorized",
      "type": "error"
    },
    {
      "inputs": [],
      "name": "UnorderedOperatorList",
      "type": "error"
    },
    {
      "anonymous": false,
      "inputs": [
        {
          "indexed": true,
          "internalType": "uint256",
          "name": "index",
          "type": "uint256"
        },
        {
          "indexed": false,
          "internalType": "string",
          "name": "name",
          "type": "string"
        },
        {
          "indexed": true,
          "internalType": "address",
          "name": "operatorAddress",
          "type": "address"
        }
      ],
      "name": "AddedOperator",
      "type": "event"
    },
    {
      "anonymous": false,
      "inputs": [
        {
          "indexed": true,
          "internalType": "uint256",
          "name": "index",
          "type": "uint256"
        },
        {
          "indexed": false,
          "internalType": "bytes",
          "name": "publicKeysAndSignatures",
          "type": "bytes"
        }
      ],
      "name": "AddedValidatorKeys",
      "type": "event"
    },
    {
      "anonymous": false,
      "inputs": [
        {
          "indexed": true,
          "internalType": "uint256",
          "name": "index",
          "type": "uint256"
        },
        {
          "indexed": false,
          "internalType": "bytes[]",
          "name": "publicKeys",
          "type": "bytes[]"
        },
        {
          "indexed": false,
          "internalType": "bool",
          "name": "deferred",
          "type": "bool"
        }
      ],
      "name": "FundedValidatorKeys",
      "type": "event"
    },
    {
      "anonymous": false,
      "inputs": [
        {
          "indexed": false,
          "internalType": "uint256",
          "name": "version",
          "type": "uint256"
        },
        {
          "indexed": false,
          "internalType": "bytes",
          "name": "cdata",
          "type": "bytes"
        }
      ],
      "name": "Initialize",
      "type": "event"
    },
    {
      "anonymous": false,
      "inputs": [
        {
          "indexed": true,
          "internalType": "uint256",
          "name": "index",
          "type": "uint256"
        },
        {
          "indexed": false,
          "internalType": "uint256",
          "name": "currentLimit",
          "type": "uint256"
        },
        {
          "indexed": false,
          "internalType": "uint256",
          "name": "newLimit",
          "type": "uint256"
        },
        {
          "indexed": true,
          "internalType": "uint256",
          "name": "latestKeysEditBlockNumber",
          "type": "uint256"
        },
        {
          "indexed": true,
          "internalType": "uint256",
          "name": "snapshotBlock",
          "type": "uint256"
        }
      ],
      "name": "OperatorEditsAfterSnapshot",
      "type": "event"
    },
    {
      "anonymous": false,
      "inputs": [
        {
          "indexed": true,
          "internalType": "uint256",
          "name": "index",
          "type": "uint256"
        },
        {
          "indexed": false,
          "internalType": "uint256",
          "name": "limit",
          "type": "uint256"
        }
      ],
      "name": "OperatorLimitUnchanged",
      "type": "event"
    },
    {
      "anonymous": false,
      "inputs": [
        {
          "indexed": true,
          "internalType": "uint256",
          "name": "index",
          "type": "uint256"
        },
        {
          "indexed": false,
          "internalType": "bytes",
          "name": "publicKey",
          "type": "bytes"
        }
      ],
      "name": "RemovedValidatorKey",
      "type": "event"
    },
    {
      "anonymous": false,
      "inputs": [
        {
          "indexed": true,
          "internalType": "uint256",
          "name": "index",
          "type": "uint256"
        },
        {
          "indexed": false,
          "internalType": "uint256",
          "name": "count",
          "type": "uint256"
        }
      ],
      "name": "RequestedValidatorExits",
      "type": "event"
    },
    {
      "anonymous": false,
      "inputs": [
        {
          "indexed": true,
          "internalType": "address",
          "name": "admin",
          "type": "address"
        }
      ],
      "name": "SetAdmin",
      "type": "event"
    },
    {
      "anonymous": false,
      "inputs": [
        {
          "indexed": true,
          "internalType": "uint256",
          "name": "index",
          "type": "uint256"
        },
        {
          "indexed": true,
          "internalType": "address",
          "name": "newOperatorAddress",
          "type": "address"
        }
      ],
      "name": "SetOperatorAddress",
      "type": "event"
    },
    {
      "anonymous": false,
      "inputs": [
        {
          "indexed": true,
          "internalType": "uint256",
          "name": "index",
          "type": "uint256"
        },
        {
          "indexed": false,
          "internalType": "uint256",
          "name": "newLimit",
          "type": "uint256"
        }
      ],
      "name": "SetOperatorLimit",
      "type": "event"
    },
    {
      "anonymous": false,
      "inputs": [
        {
          "indexed": true,
          "internalType": "uint256",
          "name": "index",
          "type": "uint256"
        },
        {
          "indexed": false,
          "internalType": "string",
          "name": "newName",
          "type": "string"
        }
      ],
      "name": "SetOperatorName",
      "type": "event"
    },
    {
      "anonymous": false,
      "inputs": [
        {
          "indexed": true,
          "internalType": "uint256",
          "name": "index",
          "type": "uint256"
        },
        {
          "indexed": false,
          "internalType": "bool",
          "name": "active",
          "type": "bool"
        }
      ],
      "name": "SetOperatorStatus",
      "type": "event"
    },
    {
      "anonymous": false,
      "inputs": [
        {
          "indexed": true,
          "internalType": "uint256",
          "name": "index",
          "type": "uint256"
        },
        {
          "indexed": false,
          "internalType": "uint256",
          "name": "newStoppedValidatorCount",
          "type": "uint256"
        }
      ],
      "name": "SetOperatorStoppedValidatorCount",
      "type": "event"
    },
    {
      "anonymous": false,
      "inputs": [
        {
          "indexed": true,
          "internalType": "address",
          "name": "pendingAdmin",
          "type": "address"
        }
      ],
      "name": "SetPendingAdmin",
      "type": "event"
    },
    {
      "anonymous": false,
      "inputs": [
        {
          "indexed": true,
          "internalType": "address",
          "name": "river",
          "type": "address"
        }
      ],
      "name": "SetRiver",
      "type": "event"
    },
    {
      "anonymous": false,
      "inputs": [
        {
          "indexed": false,
          "internalType": "uint256",
          "name": "previousTotalRequestedValidatorExits",
          "type": "uint256"
        },
        {
          "indexed": false,
          "internalType": "uint256",
          "name": "newTotalRequestedValidatorExits",
          "type": "uint256"
        }
      ],
      "name": "SetTotalRequestedValidatorExits",
      "type": "event"
    },
    {
      "anonymous": false,
      "inputs": [
        {
          "indexed": true,
          "internalType": "uint256",
          "name": "index",
          "type": "uint256"
        },
        {
          "indexed": false,
          "internalType": "uint32",
          "name": "oldRequestedExits",
          "type": "uint32"
        },
        {
          "indexed": false,
          "internalType": "uint32",
          "name": "newRequestedExits",
          "type": "uint32"
        }
      ],
      "name": "UpdatedRequestedValidatorExitsUponStopped",
      "type": "event"
    },
    {
      "anonymous": false,
      "inputs": [
        {
          "indexed": false,
          "internalType": "uint32[]",
          "name": "stoppedValidatorCounts",
          "type": "uint32[]"
        }
      ],
      "name": "UpdatedStoppedValidators",
      "type": "event"
    },
    {
      "inputs": [],
      "name": "acceptAdmin",
      "outputs": [],
      "stateMutability": "nonpayable",
      "type": "function"
    },
    {
      "inputs": [
        {
          "internalType": "string",
          "name": "_name",
          "type": "string"
        },
        {
          "internalType": "address",
          "name": "_operator",
          "type": "address"
        }
      ],
      "name": "addOperator",
      "outputs": [
        {
          "internalType": "uint256",
          "name": "",
          "type": "uint256"
        }
      ],
      "stateMutability": "nonpayable",
      "type": "function"
    },
    {
      "inputs": [
        {
          "internalType": "uint256",
          "name": "_index",
          "type": "uint256"
        },
        {
          "internalType": "uint32",
          "name": "_keyCount",
          "type": "uint32"
        },
        {
          "internalType": "bytes",
          "name": "_publicKeysAndSignatures",
          "type": "bytes"
        }
      ],
      "name": "addValidators",
      "outputs": [],
      "stateMutability": "nonpayable",
      "type": "function"
    },
    {
      "inputs": [
        {
          "internalType": "uint256",
          "name": "amountToEmit",
          "type": "uint256"
        }
      ],
      "name": "forceFundedValidatorKeysEventEmission",
      "outputs": [],
      "stateMutability": "nonpayable",
      "type": "function"
    },
    {
      "inputs": [],
      "name": "getAdmin",
      "outputs": [
        {
          "internalType": "address",
          "name": "",
          "type": "address"
        }
      ],
      "stateMutability": "view",
      "type": "function"
    },
    {
      "inputs": [
        {
          "internalType": "uint256",
          "name": "_index",
          "type": "uint256"
        }
      ],
      "name": "getOperator",
      "outputs": [
        {
          "components": [
            {
              "internalType": "uint32",
              "name": "limit",
              "type": "uint32"
            },
            {
              "internalType": "uint32",
              "name": "funded",
              "type": "uint32"
            },
            {
              "internalType": "uint32",
              "name": "requestedExits",
              "type": "uint32"
            },
            {
              "internalType": "uint32",
              "name": "keys",
              "type": "uint32"
            },
            {
              "internalType": "uint64",
              "name": "latestKeysEditBlockNumber",
              "type": "uint64"
            },
            {
              "internalType": "bool",
              "name": "active",
              "type": "bool"
            },
            {
              "internalType": "string",
              "name": "name",
              "type": "string"
            },
            {
              "internalType": "address",
              "name": "operator",
              "type": "address"
            }
          ],
          "internalType": "struct OperatorsV2.Operator",
          "name": "",
          "type": "tuple"
        }
      ],
      "stateMutability": "view",
      "type": "function"
    },
    {
      "inputs": [],
      "name": "getOperatorCount",
      "outputs": [
        {
          "internalType": "uint256",
          "name": "",
          "type": "uint256"
        }
      ],
      "stateMutability": "view",
      "type": "function"
    },
    {
      "inputs": [
        {
          "internalType": "uint256",
          "name": "_idx",
          "type": "uint256"
        }
      ],
      "name": "getOperatorStoppedValidatorCount",
      "outputs": [
        {
          "internalType": "uint32",
          "name": "",
          "type": "uint32"
        }
      ],
      "stateMutability": "view",
      "type": "function"
    },
    {
      "inputs": [],
      "name": "getPendingAdmin",
      "outputs": [
        {
          "internalType": "address",
          "name": "",
          "type": "address"
        }
      ],
      "stateMutability": "view",
      "type": "function"
    },
    {
      "inputs": [],
      "name": "getRiver",
      "outputs": [
        {
          "internalType": "address",
          "name": "",
          "type": "address"
        }
      ],
      "stateMutability": "view",
      "type": "function"
    },
    {
      "inputs": [],
      "name": "getStoppedValidatorCountPerOperator",
      "outputs": [
        {
          "internalType": "uint32[]",
          "name": "",
          "type": "uint32[]"
        }
      ],
      "stateMutability": "view",
      "type": "function"
    },
    {
      "inputs": [],
      "name": "getTotalRequestedValidatorExitsCount",
      "outputs": [
        {
          "internalType": "uint256",
          "name": "",
          "type": "uint256"
        }
      ],
      "stateMutability": "view",
      "type": "function"
    },
    {
      "inputs": [],
      "name": "getTotalStoppedValidatorCount",
      "outputs": [
        {
          "internalType": "uint32",
          "name": "",
          "type": "uint32"
        }
      ],
      "stateMutability": "view",
      "type": "function"
    },
    {
      "inputs": [
        {
          "internalType": "uint256",
          "name": "_operatorIndex",
          "type": "uint256"
        },
        {
          "internalType": "uint256",
          "name": "_validatorIndex",
          "type": "uint256"
        }
      ],
      "name": "getValidator",
      "outputs": [
        {
          "internalType": "bytes",
          "name": "publicKey",
          "type": "bytes"
        },
        {
          "internalType": "bytes",
          "name": "signature",
          "type": "bytes"
        },
        {
          "internalType": "bool",
          "name": "funded",
          "type": "bool"
        }
      ],
      "stateMutability": "view",
      "type": "function"
    },
    {
      "inputs": [
        {
          "internalType": "address",
          "name": "_admin",
          "type": "address"
        },
        {
          "internalType": "address",
          "name": "_river",
          "type": "address"
        }
      ],
      "name": "initOperatorsRegistryV1",
      "outputs": [],
      "stateMutability": "nonpayable",
      "type": "function"
    },
    {
      "inputs": [],
      "name": "initOperatorsRegistryV1_1",
      "outputs": [],
      "stateMutability": "nonpayable",
      "type": "function"
    },
    {
      "inputs": [],
      "name": "listActiveOperators",
      "outputs": [
        {
          "components": [
            {
              "internalType": "uint32",
              "name": "limit",
              "type": "uint32"
            },
            {
              "internalType": "uint32",
              "name": "funded",
              "type": "uint32"
            },
            {
              "internalType": "uint32",
              "name": "requestedExits",
              "type": "uint32"
            },
            {
              "internalType": "uint32",
              "name": "keys",
              "type": "uint32"
            },
            {
              "internalType": "uint64",
              "name": "latestKeysEditBlockNumber",
              "type": "uint64"
            },
            {
              "internalType": "bool",
              "name": "active",
              "type": "bool"
            },
            {
              "internalType": "string",
              "name": "name",
              "type": "string"
            },
            {
              "internalType": "address",
              "name": "operator",
              "type": "address"
            }
          ],
          "internalType": "struct OperatorsV2.Operator[]",
          "name": "",
          "type": "tuple[]"
        }
      ],
      "stateMutability": "view",
      "type": "function"
    },
    {
      "inputs": [
        {
          "internalType": "uint256",
          "name": "_count",
          "type": "uint256"
        }
      ],
      "name": "pickNextValidatorsToDeposit",
      "outputs": [
        {
          "internalType": "bytes[]",
          "name": "publicKeys",
          "type": "bytes[]"
        },
        {
          "internalType": "bytes[]",
          "name": "signatures",
          "type": "bytes[]"
        }
      ],
      "stateMutability": "nonpayable",
      "type": "function"
    },
    {
      "inputs": [
        {
          "internalType": "uint256",
          "name": "_count",
          "type": "uint256"
        }
      ],
      "name": "pickNextValidatorsToExit",
      "outputs": [],
      "stateMutability": "nonpayable",
      "type": "function"
    },
    {
      "inputs": [
        {
          "internalType": "address",
          "name": "_newAdmin",
          "type": "address"
        }
      ],
      "name": "proposeAdmin",
      "outputs": [],
      "stateMutability": "nonpayable",
      "type": "function"
    },
    {
      "inputs": [
        {
          "internalType": "uint256",
          "name": "_index",
          "type": "uint256"
        },
        {
          "internalType": "uint256[]",
          "name": "_indexes",
          "type": "uint256[]"
        }
      ],
      "name": "removeValidators",
      "outputs": [],
      "stateMutability": "nonpayable",
      "type": "function"
    },
    {
      "inputs": [
        {
          "internalType": "uint32[]",
          "name": "stoppedValidatorCounts",
          "type": "uint32[]"
        }
      ],
      "name": "reportStoppedValidatorCounts",
      "outputs": [],
      "stateMutability": "nonpayable",
      "type": "function"
    },
    {
      "inputs": [
        {
          "internalType": "uint256",
          "name": "_index",
          "type": "uint256"
        },
        {
          "internalType": "address",
          "name": "_newOperatorAddress",
          "type": "address"
        }
      ],
      "name": "setOperatorAddress",
      "outputs": [],
      "stateMutability": "nonpayable",
      "type": "function"
    },
    {
      "inputs": [
        {
          "internalType": "uint256[]",
          "name": "_operatorIndexes",
          "type": "uint256[]"
        },
        {
          "internalType": "uint32[]",
          "name": "_newLimits",
          "type": "uint32[]"
        },
        {
          "internalType": "uint256",
          "name": "_snapshotBlock",
          "type": "uint256"
        }
      ],
      "name": "setOperatorLimits",
      "outputs": [],
      "stateMutability": "nonpayable",
      "type": "function"
    },
    {
      "inputs": [
        {
          "internalType": "uint256",
          "name": "_index",
          "type": "uint256"
        },
        {
          "internalType": "string",
          "name": "_newName",
          "type": "string"
        }
      ],
      "name": "setOperatorName",
      "outputs": [],
      "stateMutability": "nonpayable",
      "type": "function"
    },
    {
      "inputs": [
        {
          "internalType": "uint256",
          "name": "_index",
          "type": "uint256"
        },
        {
          "internalType": "bool",
          "name": "_newStatus",
          "type": "bool"
        }
      ],
      "name": "setOperatorStatus",
      "outputs": [],
      "stateMutability": "nonpayable",
      "type": "function"
    }
  ],
  "transactionHash": "0x4152e52cea78f545a2a749d9545e7b6a829aaab53719a629d97881d9d1ceab4f",
  "args": [],
  "numDeployments": 1,
  "solcInputHash": "0a2910002f1f7235235bf4c9129dadf0",
  "bytecode": "0x60806040523480156200001157600080fd5b506200002a6000196200007060201b62001c311760201c565b7f1809e49bba43f2d39fa57894b50cd6ccb428cc438230e065cac3eb24a1355a716000196000366040516200006293929190620000bd565b60405180910390a162000119565b620000b6620000a160017f82055909238c0f5e63d6f174068ebb8f51bcec9bd37de63bb68f6551feec0cfd620000f3565b60001b82620000b960201b62001c641760201c565b50565b9055565b83815260406020820152816040820152818360608301376000818301606090810191909152601f909201601f1916010192915050565b6000828210156200011457634e487b7160e01b600052601160045260246000fd5b500390565b614a4980620001296000396000f3fe608060405234801561001057600080fd5b506004361061016e5760003560e01c80635a16f135116100ce5780638cb31003116100875780638cb3100314610317578063a519f0601461032c578063a625817e14610334578063b53b937b1461033c578063d046815614610344578063eb47adc61461034c578063f87e52961461035f57600080fd5b80635a16f1351461027f57806361685d9f1461029257806363b4118f146102ba5780636e9960c3146102dc57806370b23845146102f157806376821e5a1461030457600080fd5b8063240ed0241161012b578063240ed024146101ea578063277c9d45146101fd578063354454c51461021e578063392513211461023157806350545d2f1461024457806354001d09146102575780635876220f1461026a57600080fd5b806305f63c8a146101735780630e18b6811461019c578063147bf6c4146101a65780631864636c146101b95780631a4a7c61146101cc578063217aad3c146101e2575b600080fd5b6101866101813660046140fc565b610372565b60405161019391906141fa565b60405180910390f35b6101a46104a3565b005b6101a46101b4366004614229565b610503565b6101a46101c736600461428f565b61054a565b6101d4610a9f565b604051908152602001610193565b6101a4610aae565b6101a46101f83660046140fc565b610b43565b61021061020b3660046140fc565b610b87565b60405161019392919061432f565b6101a461022c36600461435d565b610bd7565b6101a461023f366004614411565b610eef565b6101d461025236600461444f565b6110b2565b6101a46102653660046144a2565b6111dc565b61027261128a565b60405161019391906144d5565b6101a461028d366004614513565b611335565b6102a56102a03660046140fc565b6113d2565b60405163ffffffff9091168152602001610193565b6102cd6102c8366004614548565b6113e3565b6040516101939392919061456a565b6102e461141b565b60405161019391906145a2565b6101a46102ff3660046145ca565b611425565b6101a4610312366004614623565b61177d565b61031f6117c6565b6040516101939190614664565b6102e46117d0565b6101d46117da565b6102a56117e4565b6102e461183f565b6101a461035a3660046140fc565b611849565b6101a461036d3660046146c6565b611ad3565b61037a613ed8565b61038382611c68565b6040805161010081018252825463ffffffff8082168352600160201b820481166020840152600160401b8204811693830193909352600160601b81049092166060820152600160801b82046001600160401b03166080820152600160c01b90910460ff16151560a082015260018201805491929160c084019190610406906146e9565b80601f0160208091040260200160405190810160405280929190818152602001828054610432906146e9565b801561047f5780601f106104545761010080835404028352916020019161047f565b820191906000526020600020905b81548152906001019060200180831161046257829003601f168201915b5050509183525050600291909101546001600160a01b031660209091015292915050565b6104ab611cd9565b6001600160a01b0316336001600160a01b0316146104e7573360405163472511eb60e11b81526004016104de91906145a2565b60405180910390fd5b6104f76104f2611cd9565b611ce3565b6105016000611d2c565b565b61050b611d6c565b6001600160a01b0316336001600160a01b03161461053e573360405163472511eb60e11b81526004016104de91906145a2565b61054781611d2c565b50565b8261055361141b565b6001600160a01b0316336001600160a01b031614156107e857818061058b576040516379b348ff60e11b815260040160405180910390fd5b600061059686611c68565b8054909150600160601b900463ffffffff168086866000816105ba576105ba61471e565b90506020020135106105df576040516317df2d8d60e01b815260040160405180910390fd5b600086866105ee60018761474a565b8181106105fd576105fd61471e565b85546020909102929092013592505063ffffffff600160201b9091041681101561063a5760405163213af80760e21b815260040160405180910390fd5b8254600160601b810463ffffffff9081169116146106618961065c8786614761565b611d76565b60005b858110156107945760008989838181106106805761068061471e565b9050602002013590506000821180156106bb575089896106a160018561474a565b8181106106b0576106b061471e565b905060200201358110155b156106d95760405163c9ee26af60e01b815260040160405180910390fd5b60019091019060006106f18363ffffffff881661474a565b905060006106ff8d84611dd1565b509050600061070e8e84611f47565b905061071b8e8583612013565b6107538e8460005b6040519080825280601f01601f19166020018201604052801561074d576020820181803683370190505b50612013565b8d7f70cf8064c7574b284afe278226e25779f45a4c3715653674aa651b34e9a1909283604051610783919061479c565b60405180910390a250505050610664565b81156107ba578454600160601b810463ffffffff1663ffffffff199091161785556107dd565b845463ffffffff168310156107dd57845463ffffffff191663ffffffff84161785555b505050505050610a99565b60006107f382611c68565b8054909150600160c01b900460ff16610822576040516301550a7360e41b8152600481018390526024016104de565b60028101546001600160a01b03163314610851573360405163472511eb60e11b81526004016104de91906145a2565b8280610870576040516379b348ff60e11b815260040160405180910390fd5b600061087b87611c68565b8054909150600160601b900463ffffffff1680878760008161089f5761089f61471e565b90506020020135106108c4576040516317df2d8d60e01b815260040160405180910390fd5b600087876108d360018761474a565b8181106108e2576108e261471e565b85546020909102929092013592505063ffffffff600160201b9091041681101561091f5760405163213af80760e21b815260040160405180910390fd5b8254600160601b810463ffffffff9081169116146109418a61065c8786614761565b60005b85811015610a485760008a8a838181106109605761096061471e565b90506020020135905060008211801561099b57508a8a61098160018561474a565b8181106109905761099061471e565b905060200201358110155b156109b95760405163c9ee26af60e01b815260040160405180910390fd5b60019091019060006109d18363ffffffff881661474a565b905060006109df8e84611dd1565b50905060006109ee8f84611f47565b90506109fb8f8583612013565b610a078f846000610723565b8e7f70cf8064c7574b284afe278226e25779f45a4c3715653674aa651b34e9a1909283604051610a37919061479c565b60405180910390a250505050610944565b8115610a6e578454600160601b810463ffffffff1663ffffffff19909116178555610a91565b845463ffffffff16831015610a9157845463ffffffff191663ffffffff84161785555b505050505050505b50505050565b6000610aa9612058565b905090565b6001610ab861207b565b8114610ae95780610ac761207b565b604051631cfd276760e31b8152600481019290925260248201526044016104de565b610afc610af78260016147af565b611c31565b610b046120af565b7f1809e49bba43f2d39fa57894b50cd6ccb428cc438230e065cac3eb24a1355a7181600036604051610b38939291906147f0565b60405180910390a150565b610b4b612278565b6001600160a01b0316336001600160a01b031614610b7e573360405163472511eb60e11b81526004016104de91906145a2565b610547816122a8565b606080610b92612278565b6001600160a01b0316336001600160a01b031614610bc5573360405163472511eb60e11b81526004016104de91906145a2565b610bce8361279c565b91509150915091565b610bdf611d6c565b6001600160a01b0316336001600160a01b031614610c12573360405163472511eb60e11b81526004016104de91906145a2565b838214610c325760405163a9854bc960e01b815260040160405180910390fd5b83610c5057604051637b329aa360e01b815260040160405180910390fd5b60005b84811015610ee7576000868683818110610c6f57610c6f61471e565b9050602002013590506000858584818110610c8c57610c8c61471e565b9050602002016020810190610ca1919061480a565b9050600083118015610cd557508787610cbb60018661474a565b818110610cca57610cca61471e565b905060200201358211155b15610cf3576040516357e557ed60e11b815260040160405180910390fd5b6000610cfe83611c68565b805490915063ffffffff908116908316811415610d605760405163ffffffff8416815284907fe8b22569f1f7ba3802b89b579382ccac4e223f8062d6dd73f9cd757bd46ff8aa906020015b60405180910390a284600101945050505050610c53565b8154600160801b90046001600160401b031686108015610d8b57508063ffffffff168363ffffffff16115b15610df65781546040805163ffffffff8085168252861660208201528892600160801b90046001600160401b03169187917f5482b63bdf9e3775fdd3157e4933cfbc1d6fa1ec354ed3fc9a547e5438fd3e4e910160405180910390a484600101945050505050610c53565b815463ffffffff600160601b90910481169084161115610e4b578154604051630d7bdb4960e41b81526004810186905263ffffffff8086166024830152600160601b90920490911660448201526064016104de565b815463ffffffff600160201b90910481169084161015610ea057815460405163044816df60e51b81526004810186905263ffffffff8086166024830152600160201b90920490911660448201526064016104de565b815463ffffffff191663ffffffff8416908117835560405190815284907f3adbeb5fbb94c52b64d90b31188c68a740868dde2238e03a04d581cae22cedf090602001610d49565b505050505050565b82610ef861141b565b6001600160a01b0316336001600160a01b03161415610fac57610f5083838080601f016020809104026020016040519081016040528093929190818152602001838380828437600092019190915250612b6e92505050565b6000610f5b85611c68565b9050610f6b600182018585613f1b565b50847f9ad13f126d3d603b0b284edba7645ca0e423840767c48809bb5f87e72197e1148585604051610f9e929190614825565b60405180910390a250610a99565b6000610fb782611c68565b8054909150600160c01b900460ff16610fe6576040516301550a7360e41b8152600481018390526024016104de565b60028101546001600160a01b03163314611015573360405163472511eb60e11b81526004016104de91906145a2565b61105484848080601f016020809104026020016040519081016040528093929190818152602001838380828437600092019190915250612b6e92505050565b600061105f86611c68565b905061106f600182018686613f1b565b50857f9ad13f126d3d603b0b284edba7645ca0e423840767c48809bb5f87e72197e11486866040516110a2929190614825565b60405180910390a2505050505050565b60006110bc611d6c565b6001600160a01b0316336001600160a01b0316146110ef573360405163472511eb60e11b81526004016104de91906145a2565b604080516101008101825260008082526020808301829052828401829052606083018290526001600160401b0343166080840152600160a08401528351601f8801829004820281018201909452868452909260c0830191889088908190840183828082843760009201829052509385525050506001600160a01b038616602090920191909152909150600161118383612b8d565b61118d919061474a565b9050836001600160a01b0316817f28febbb5486eda5a1e47ad578f9cb32c8a1983c86c80ab823ea5dc1fc04ede5e88886040516111cb929190614825565b60405180910390a395945050505050565b60006111e661207b565b81146111f55780610ac761207b565b611203610af78260016147af565b61120c83611ce3565b61121582612ce2565b6040516001600160a01b038316907ffc0d749143b04e0d92a3b49edae84a45f6bc88b75e99d9118ec4d7e87fe626c590600090a27f1809e49bba43f2d39fa57894b50cd6ccb428cc438230e065cac3eb24a1355a718160003660405161127d939291906147f0565b60405180910390a1505050565b60606000611296612d19565b80548060200260200160405190810160405280929190818152602001828054801561130c57602002820191906000526020600020906000905b82829054906101000a900463ffffffff1663ffffffff16815260200190600401906020826003010492830192600103820291508084116112cf5790505b50508351939450508215915061132f905057600082526020820191506001810382525b50919050565b61133d611d6c565b6001600160a01b0316336001600160a01b031614611370573360405163472511eb60e11b81526004016104de91906145a2565b600061137b83611c68565b805460ff60c01b1916600160c01b84151590810291909117825560405190815290915083907fe3bc5e5d3b000a1f65d146c40a38d89b1743b5729f4c6fe65f2e4b2dc620f2f29060200160405180910390a2505050565b60006113dd82612d47565b92915050565b60608060006113f28585611dd1565b909350915061140085611c68565b54929591945050600160201b90910463ffffffff1690911090565b6000610aa9611d6c565b8361142e61141b565b6001600160a01b0316336001600160a01b031614156115bc5763ffffffff841661146b576040516379b348ff60e11b815260040160405180910390fd5b611477606060306147af565b6114879063ffffffff8616614841565b82146114a657604051630368f86360e41b815260040160405180910390fd5b60006114b186611c68565b905060005b8563ffffffff1681101561155b57600061152986868080601f01602080910402602001604051908101604052809392919081815260200183838082843760009201919091525061150e925060609150603090506147af565b6115189085614841565b611524606060306147af565b612d5a565b835490915061155290899061154c908590600160601b900463ffffffff166147af565b83612013565b506001016114b6565b50805461157c90879061065c908890600160601b900463ffffffff16614860565b857f402e5ac3e483073137c527378b15e69f7f4a1c75c1adc0aa36f0c456876c05a085856040516115ae929190614825565b60405180910390a250611776565b60006115c782611c68565b8054909150600160c01b900460ff166115f6576040516301550a7360e41b8152600481018390526024016104de565b60028101546001600160a01b03163314611625573360405163472511eb60e11b81526004016104de91906145a2565b63ffffffff8516611649576040516379b348ff60e11b815260040160405180910390fd5b611655606060306147af565b6116659063ffffffff8716614841565b831461168457604051630368f86360e41b815260040160405180910390fd5b600061168f87611c68565b905060005b8663ffffffff168110156117185760006116ec87878080601f01602080910402602001604051908101604052809392919081815260200183838082843760009201919091525061150e925060609150603090506147af565b835490915061170f908a9061154c908590600160601b900463ffffffff166147af565b50600101611694565b50805461173990889061065c908990600160601b900463ffffffff16614860565b867f402e5ac3e483073137c527378b15e69f7f4a1c75c1adc0aa36f0c456876c05a0868660405161176b929190614825565b60405180910390a250505b5050505050565b611785612278565b6001600160a01b0316336001600160a01b0316146117b8573360405163472511eb60e11b81526004016104de91906145a2565b6117c28282612e1d565b5050565b6060610aa9612f8b565b6000610aa9612278565b6000610aa9613216565b6000806117ef612d19565b805490915061180057600091505090565b806000815481106118135761181361471e565b90600052602060002090600891828204019190066004029054906101000a900463ffffffff1691505090565b6000610aa9611cd9565b6000611853613246565b905060001981148061186a5750611868612058565b155b1561188857604051630871a03f60e01b815260040160405180910390fd5b6000611892613276565b90505b6000831180156118a757506000198214155b15611abc5760006118b783611c68565b6040805161010081018252825463ffffffff8082168352600160201b820481166020840152600160401b8204811693830193909352600160601b81049092166060820152600160801b82046001600160401b03166080820152600160c01b90910460ff16151560a082015260018201805491929160c08401919061193a906146e9565b80601f0160208091040260200160405190810160405280929190818152602001828054611966906146e9565b80156119b35780601f10611988576101008083540402835291602001916119b3565b820191906000526020600020905b81548152906001019060200180831161199657829003601f168201915b5050509183525050600291909101546001600160a01b0316602091820152810151909150600090611a0390859085906119fe9089906119f990849063ffffffff1661474a565b6132a6565b6132be565b509050837f0786596b8e43634ef53d523fd318795a1182175b0b0a658bc4aac58ecfcc5411826001604051611a39929190614888565b60405180910390a2816020015163ffffffff16815184611a5991906147af565b1415611a9857600092506001611a6d612058565b611a77919061474a565b841415611a88576000199350611aa7565b611a91846148ac565b9350611aa7565b8051611aa490846147af565b92505b8051611ab3908661474a565b94505050611895565b611ac5826134a0565b611ace816134ce565b505050565b81611adc61141b565b6001600160a01b0316336001600160a01b03161415611b5e57611afe826134fc565b6000611b0984611c68565b6002810180546001600160a01b0319166001600160a01b0386169081179091556040519192509085907f08a670ef4110fe90a7d61086d1477cde043a940601bd853a50009ac5a5ba56e790600090a350505050565b6000611b6982611c68565b8054909150600160c01b900460ff16611b98576040516301550a7360e41b8152600481018390526024016104de565b60028101546001600160a01b03163314611bc7573360405163472511eb60e11b81526004016104de91906145a2565b611bd0836134fc565b6000611bdb85611c68565b6002810180546001600160a01b0319166001600160a01b0387169081179091556040519192509086907f08a670ef4110fe90a7d61086d1477cde043a940601bd853a50009ac5a5ba56e790600090a35050505050565b610547611c5f60017f82055909238c0f5e63d6f174068ebb8f51bcec9bd37de63bb68f6551feec0cfd61474a565b829055565b9055565b600080611c8460016000805160206149d483398151915261474a565b805490915081908410611cad576040516302d72d2160e01b8152600481018590526024016104de565b806000018481548110611cc257611cc261471e565b906000526020600020906003020192505050919050565b6000610aa9613523565b611cec816134fc565b611cf581613553565b6040516001600160a01b038216907f5a272403b402d892977df56625f4164ccaf70ca3863991c43ecfe76a6905b0a190600090a250565b611d358161355c565b6040516001600160a01b038216907f2a0f8515de3fa34ef68b99300347b8793c01683350743e96fe440594528298f490600090a250565b6000610aa9613565565b6000611d8183611c68565b80546bffffffffffffffffffffffff60601b1916600160601b63ffffffff949094169390930267ffffffffffffffff60801b191692909217600160801b436001600160401b031602179091555050565b6060806000611def60016000805160206149f483398151915261474a565b600086815260208281526040808320888452909152902080549192508291611ea3908290611e1c906146e9565b80601f0160208091040260200160405190810160405280929190818152602001828054611e48906146e9565b8015611e955780601f10611e6a57610100808354040283529160200191611e95565b820191906000526020600020905b815481529060010190602001808311611e7857829003601f168201915b505050505060006030612d5a565b9450611f3b818054611eb4906146e9565b80601f0160208091040260200160405190810160405280929190818152602001828054611ee0906146e9565b8015611f2d5780601f10611f0257610100808354040283529160200191611f2d565b820191906000526020600020905b815481529060010190602001808311611f1057829003601f168201915b505050505060306060612d5a565b93505050509250929050565b60606000611f6460016000805160206149f483398151915261474a565b600085815260208281526040808320878452909152902080549192508291611f8b906146e9565b80601f0160208091040260200160405190810160405280929190818152602001828054611fb7906146e9565b80156120045780601f10611fd957610100808354040283529160200191612004565b820191906000526020600020905b815481529060010190602001808311611fe757829003601f168201915b50505050509250505092915050565b600061202e60016000805160206149f483398151915261474a565b600085815260208281526040808320878452825290912084519293508392610ee792860190613f9f565b60008061207460016000805160206149d483398151915261474a565b5492915050565b6000610aa96120ab60017f82055909238c0f5e63d6f174068ebb8f51bcec9bd37de63bb68f6551feec0cfd61474a565b5490565b60006120b9613595565b905060005b818110156117c25760006120d1826135c3565b604080516101008101909152815460ff16151581526001820180549192916020840191906120fe906146e9565b80601f016020809104026020016040519081016040528092919081815260200182805461212a906146e9565b80156121775780601f1061214c57610100808354040283529160200191612177565b820191906000526020600020905b81548152906001019060200180831161215a57829003601f168201915b505050505081526020016002820160009054906101000a90046001600160a01b03166001600160a01b03166001600160a01b0316815260200160038201548152602001600482015481526020016005820154815260200160068201548152602001600782015481525050905061226e604051806101000160405280836060015163ffffffff168152602001836080015163ffffffff168152602001600063ffffffff1681526020018360a0015163ffffffff1681526020018360e001516001600160401b031681526020018360000151151581526020018360200151815260200183604001516001600160a01b0316815250612b8d565b50506001016120be565b6000610aa96120ab60017f1ec4138404500a2a0be2c2f9b103581c2a7fa783a934f91a6cc5cc924404973c61474a565b6000806122b3613646565b9150915060006122c1612d19565b9050816122ce5750505050565b60006122d8613216565b90508060005b848110156123fd5760008682815181106122fa576122fa61471e565b6020026020010151604001519050600061231486846138ce565b90508063ffffffff168263ffffffff1610156123f35787838151811061233c5761233c61471e565b60200260200101516060015163ffffffff167f281aaa50816d3a5bf2911e3c0854a3f2ebe4880698575d799ff5becfd74d7778838360405161239192919063ffffffff92831681529116602082015260400190565b60405180910390a26123a38282614761565b8884815181106123b5576123b561471e565b60200260200101516080018181516123cd9190614860565b63ffffffff169052506123e08282614761565b6123f09063ffffffff16866147af565b94505b50506001016122de565b505b85156125e0576000806000805b878110156124a05760006124388a838151811061242b5761242b61471e565b6020026020010151613935565b90508463ffffffff168163ffffffff16141561245e57612457836148c7565b9250612497565b8463ffffffff168163ffffffff16111561247f579392506001915083612497565b8363ffffffff168163ffffffff161115612497578093505b5060010161240c565b5063ffffffff83161580156124ba5750868163ffffffff16145b156124c7575050506125e0565b60006124ed826124d78587614761565b6124e191906148eb565b63ffffffff168b6132a6565b905060006124fb838361492d565b63ffffffff16905060005b898110156125c3578563ffffffff1661252a8c838151811061242b5761242b61471e565b63ffffffff1614156125bb576000808311612546576000612549565b60015b60ff166125568686614950565b6125609190614860565b9050808c83815181106125755761257561471e565b602002602001015160800181815161258d9190614860565b63ffffffff9081169091526125a5915082168a6147af565b985082156125b9576125b683614973565b92505b505b600101612506565b506125d463ffffffff83168c61474a565b9a5050505050506123ff565b60005b8481101561274a5760008682815181106125ff576125ff61471e565b60200260200101516080015163ffffffff16111561274257600061264587838151811061262e5761262e61471e565b60200260200101516060015163ffffffff16611c68565b60000160089054906101000a900463ffffffff16905086828151811061266d5761266d61471e565b602002602001015160800151816126849190614860565b61269988848151811061262e5761262e61471e565b60000160086101000a81548163ffffffff021916908363ffffffff1602179055508682815181106126cc576126cc61471e565b60200260200101516060015163ffffffff167f0377278faa3eeab09525915d783771e1b00fec4797719afc368b56f6856279258884815181106127115761271161471e565b602002602001015160800151836127289190614860565b60405163ffffffff909116815260200160405180910390a2505b6001016125e3565b50808214610ee75761275b8261395a565b60408051828152602081018490527fb5e027491564f379aef806ebcf101764f2f9942321b10d116b9cad3c653ce027910160405180910390a1505050505050565b6060806000806127aa613988565b91509150806000141561281a5760408051600080825260208201909252906127e2565b60608152602001906001900390816127cd5790505b50604080516000808252602082019092529061280e565b60608152602001906001900390816127f95790505b50935093505050915091565b84156129bd5760005b8181101561285f5761284d8382815181106128405761284061471e565b6020026020010151613c6b565b156128575761285f565b600101612823565b8181141561286d57506129bd565b600061287a8260016147af565b90505b828110156128ea576128a784838151811061289a5761289a61471e565b6020026020010151613c97565b6128bc85838151811061289a5761289a61471e565b1080156128d957506128d98482815181106128405761284061471e565b156128e2578091505b60010161287d565b50600061297461296e8584815181106129055761290561471e565b6020026020010151608001518685815181106129235761292361471e565b6020026020010151602001516129399190614860565b86858151811061294b5761294b61471e565b6020026020010151600001516129619190614761565b63ffffffff1660056132a6565b886132a6565b9050808483815181106129895761298961471e565b60200260200101516080018181516129a19190614860565b63ffffffff169052506129b4818861474a565b9650505061281a565b60005b81811015612b665760008382815181106129dc576129dc61471e565b60200260200101516080015163ffffffff161115612b5657600080612a6b858481518110612a0c57612a0c61471e565b60200260200101516060015163ffffffff16868581518110612a3057612a3061471e565b60200260200101516020015163ffffffff16878681518110612a5457612a5461471e565b60200260200101516080015163ffffffff166132be565b91509150848381518110612a8157612a8161471e565b60200260200101516060015163ffffffff167f0786596b8e43634ef53d523fd318795a1182175b0b0a658bc4aac58ecfcc5411836000604051612ac5929190614888565b60405180910390a2612ad78783613cd6565b9650612ae38682613cd6565b9550848381518110612af757612af761471e565b602002602001015160800151612b1886858151811061262e5761262e61471e565b8054600490612b35908490600160201b900463ffffffff16614860565b92506101000a81548163ffffffff021916908363ffffffff16021790555050505b612b5f816148ac565b90506129c0565b505050915091565b805161054757604051638d46fe0560e01b815260040160405180910390fd5b6000612b9c8260e001516134fc565b612ba98260c00151612b6e565b6000612bc460016000805160206149d483398151915261474a565b8054600181810183556000838152602090819020875160039094020180548289015160408a015160608b015160808c015160a08d01511515600160c01b0260ff60c01b196001600160401b03909216600160801b029190911668ffffffffffffffffff60801b1963ffffffff938416600160601b0263ffffffff60601b19958516600160401b029590951667ffffffffffffffff60401b19968516600160201b0267ffffffffffffffff1990981694909b169390931795909517939093169790971717959095161793909317835560c087015180519495508594889493612cb093908501920190613f9f565b5060e09190910151600290910180546001600160a01b0319166001600160a01b03909216919091179055549392505050565b612ceb816134fc565b610547611c5f60017f1ec4138404500a2a0be2c2f9b103581c2a7fa783a934f91a6cc5cc924404973c61474a565b6000806113dd60017fca4f80ba17934f16b2ab62d95f37e3941e8ecf8da46337200d0a2c44b7d6be3861474a565b60006113dd612d54612d19565b836138ce565b60608182601f011015612d80576040516323d5783d60e11b815260040160405180910390fd5b612d8a82846147af565b84511015612dab57604051633b99b53d60e01b815260040160405180910390fd5b606082158015612dca5760405191506000825260208201604052612e14565b6040519150601f8416801560200281840101858101878315602002848b0101015b81831015612e03578051835260209283019201612deb565b5050858452601f01601f1916604052505b50949350505050565b8080612e3c576040516397791ee160e01b815260040160405180910390fd5b600083836000818110612e5157612e5161471e565b9050602002016020810190612e66919061480a565b90506000612e72612058565b612e7d60018561474a565b1115612e9c57604051634eb7083160e01b815260040160405180910390fd5b60015b83811015612ee257858582818110612eb957612eb961471e565b9050602002016020810190612ece919061480a565b612ed89083614860565b9150600101612e9f565b508063ffffffff168263ffffffff1614612f0f57604051636be992a360e11b815260040160405180910390fd5b612f4b858580806020026020016040519081016040528093929190818152602001838360200280828437600092019190915250613de092505050565b7fb795d99e37bbcdcebb613387f4e924b750cbae0af45b48ba52bfe1137c10e9928585604051612f7c92919061498a565b60405180910390a15050505050565b60606000612fa860016000805160206149d483398151915261474a565b80549091508190600090815b8181101561300057836000018181548110612fd157612fd161471e565b6000918252602090912060039091020154600160c01b900460ff1615612ff8578260010192505b600101612fb4565b506000826001600160401b0381111561301b5761301b614786565b60405190808252806020026020018201604052801561305457816020015b613041613ed8565b8152602001906001900390816130395790505b5090506000805b8381101561320a578560000181815481106130785761307861471e565b6000918252602090912060039091020154600160c01b900460ff1615613202578560000181815481106130ad576130ad61471e565b600091825260209182902060408051610100810182526003909302909101805463ffffffff8082168552600160201b8204811695850195909552600160401b8104851692840192909252600160601b820490931660608301526001600160401b03600160801b820416608083015260ff600160c01b90910416151560a082015260018201805491929160c084019190613145906146e9565b80601f0160208091040260200160405190810160405280929190818152602001828054613171906146e9565b80156131be5780601f10613193576101008083540402835291602001916131be565b820191906000526020600020905b8154815290600101906020018083116131a157829003601f168201915b5050509183525050600291909101546001600160a01b031660209091015283518490849081106131f0576131f061471e565b60200260200101819052508160010191505b60010161305b565b50909695505050505050565b6000610aa96120ab60017f458205a0e48c2fdefa87d205cbceb76fd2ca8726a9abe39442360dd73d28c99f61474a565b6000610aa96120ab60017ffd9ec671ae9f85315a7ebfb0534d94239eaacef5a704bcb705c041ce1249135761474a565b6000610aa96120ab60017fbd3f712f2cd882f839e84eb12fdaf64f8227409d140027dbdcd5e2ee4d57fa2061474a565b60008183116132b557826132b7565b815b9392505050565b606080826001600160401b038111156132d9576132d9614786565b60405190808252806020026020018201604052801561330c57816020015b60608152602001906001900390816132f75790505b509150826001600160401b0381111561332757613327614786565b60405190808252806020026020018201604052801561335a57816020015b60608152602001906001900390816133455790505b509050600061337860016000805160206149f483398151915261474a565b90508060005b858110156134955760008881526020839052604081208161339f8a856147af565b815260200190815260200160002080546133b8906146e9565b80601f01602080910402602001604051908101604052809291908181526020018280546133e4906146e9565b80156134315780601f1061340657610100808354040283529160200191613431565b820191906000526020600020905b81548152906001019060200180831161341457829003601f168201915b505050505090506134458160006030612d5a565b8683815181106134575761345761471e565b602002602001018190525061346f8160306060612d5a565b8583815181106134815761348161471e565b60209081029190910101525060010161337e565b505050935093915050565b610547611c5f60017ffd9ec671ae9f85315a7ebfb0534d94239eaacef5a704bcb705c041ce1249135761474a565b610547611c5f60017fbd3f712f2cd882f839e84eb12fdaf64f8227409d140027dbdcd5e2ee4d57fa2061474a565b6001600160a01b0381166105475760405163f6b2911f60e01b815260040160405180910390fd5b6000610aa96120ab60017f6e6ab8b7c7aaba79eef8cc633522d606bb008c101cf9832c9ad05d10a984728161474a565b61054781613e24565b61054781613e5b565b6000610aa96120ab60017fb5b37715a3e346e996104f0086703f19825def429233930fd9399c38e05fb11361474a565b60008061207460017f794c962401f2e1bb68ba8627fb26fd4eea0439023c691c35b68bb144bfe1011361474a565b6000806135f160017f794c962401f2e1bb68ba8627fb26fd4eea0439023c691c35b68bb144bfe1011361474a565b80549091508190841061361a576040516302d72d2160e01b8152600481018590526024016104de565b80600001848154811061362f5761362f61471e565b906000526020600020906008020192505050919050565b606060008061366460016000805160206149d483398151915261474a565b8054909150819060009081816001600160401b0381111561368757613687614786565b6040519080825280602002602001820160405280156136c057816020015b6136ad614013565b8152602001906001900390816136a55790505b50905060005b828110156138c15761381a8560000182815481106136e6576136e661471e565b600091825260209182902060408051610100810182526003909302909101805463ffffffff8082168552600160201b8204811695850195909552600160401b8104851692840192909252600160601b820490931660608301526001600160401b03600160801b820416608083015260ff600160c01b90910416151560a082015260018201805491929160c08401919061377e906146e9565b80601f01602080910402602001604051908101604052809291908181526020018280546137aa906146e9565b80156137f75780601f106137cc576101008083540402835291602001916137f7565b820191906000526020600020905b8154815290600101906020018083116137da57829003601f168201915b5050509183525050600291909101546001600160a01b0316602090910152613e89565b156138b95760008560000182815481106138365761383661471e565b600091825260208083206040805160a0810182526003909402909101805463ffffffff8082168652600160201b8204811694860194909452600160401b9004831691840191909152908516606083015260808201929092528451919250908490879081106138a6576138a661471e565b6020026020010181905250846001019450505b6001016136c6565b5096919550909350505050565b81546000906138de8360016147af565b106138eb575060006113dd565b826138f78360016147af565b815481106139075761390761471e565b90600052602060002090600891828204019190066004029054906101000a900463ffffffff16905092915050565b60008160800151826040015161394b9190614860565b82602001516113dd9190614761565b610547611c5f60017f458205a0e48c2fdefa87d205cbceb76fd2ca8726a9abe39442360dd73d28c99f61474a565b60606000806139a660016000805160206149d483398151915261474a565b8054909150819060009081816001600160401b038111156139c9576139c9614786565b604051908082528060200260200182016040528015613a0257816020015b6139ef614013565b8152602001906001900390816139e75790505b5090506000613a0f612d19565b905060005b83811015613c5c57613b68866000018281548110613a3457613a3461471e565b600091825260209182902060408051610100810182526003909302909101805463ffffffff8082168552600160201b8204811695850195909552600160401b8104851692840192909252600160601b820490931660608301526001600160401b03600160801b820416608083015260ff600160c01b90910416151560a082015260018201805491929160c084019190613acc906146e9565b80601f0160208091040260200160405190810160405280929190818152602001828054613af8906146e9565b8015613b455780601f10613b1a57610100808354040283529160200191613b45565b820191906000526020600020905b815481529060010190602001808311613b2857829003601f168201915b5050509183525050600291909101546001600160a01b0316602090910152613eb4565b8015613bb55750856000018181548110613b8457613b8461471e565b6000918252602090912060039091020154600160401b900463ffffffff16613bac83836138ce565b63ffffffff1610155b15613c54576000866000018281548110613bd157613bd161471e565b600091825260208083206040805160a0810182526003909402909101805463ffffffff8082168652600160201b8204811694860194909452600160401b900483169184019190915290851660608301526080820192909252855191925090859088908110613c4157613c4161471e565b6020026020010181905250856001019550505b600101613a14565b50909792965091945050505050565b80516080820151602083015160009263ffffffff1691613c8a91614860565b63ffffffff161092915050565b6000613cac826060015163ffffffff16612d47565b82608001518360200151613cc09190614860565b613cca9190614761565b63ffffffff1692915050565b6060600082518451613ce891906147af565b6001600160401b03811115613cff57613cff614786565b604051908082528060200260200182016040528015613d3257816020015b6060815260200190600190039081613d1d5790505b50905060005b8451811015613d8057848181518110613d5357613d5361471e565b6020026020010151828281518110613d6d57613d6d61471e565b6020908102919091010152600101613d38565b5060005b8351811015613dd857838181518110613d9f57613d9f61471e565b602002602001015182865183613db591906147af565b81518110613dc557613dc561471e565b6020908102919091010152600101613d84565b509392505050565b6000613e0d60017fca4f80ba17934f16b2ab62d95f37e3941e8ecf8da46337200d0a2c44b7d6be3861474a565b82519091508190610a999082906020860190614041565b613e2d816134fc565b610547611c5f60017fb5b37715a3e346e996104f0086703f19825def429233930fd9399c38e05fb11361474a565b610547611c5f60017f6e6ab8b7c7aaba79eef8cc633522d606bb008c101cf9832c9ad05d10a984728161474a565b60008160a0015180156113dd5750816040015163ffffffff16826020015163ffffffff161192915050565b60008160a0015180156113dd5750506020810151905163ffffffff91821691161190565b604080516101008101825260008082526020820181905291810182905260608082018390526080820183905260a0820183905260c082015260e081019190915290565b828054613f27906146e9565b90600052602060002090601f016020900481019282613f495760008555613f8f565b82601f10613f625782800160ff19823516178555613f8f565b82800160010185558215613f8f579182015b82811115613f8f578235825591602001919060010190613f74565b50613f9b9291506140e7565b5090565b828054613fab906146e9565b90600052602060002090601f016020900481019282613fcd5760008555613f8f565b82601f10613fe657805160ff1916838001178555613f8f565b82800160010185558215613f8f579182015b82811115613f8f578251825591602001919060010190613ff8565b6040805160a08101825260008082526020820181905291810182905260608101829052608081019190915290565b82805482825590600052602060002090600701600890048101928215613f8f5791602002820160005b838211156140ae57835183826101000a81548163ffffffff021916908363ffffffff160217905550926020019260040160208160030104928301926001030261406a565b80156140de5782816101000a81549063ffffffff02191690556004016020816003010492830192600103026140ae565b5050613f9b9291505b5b80821115613f9b57600081556001016140e8565b60006020828403121561410e57600080fd5b5035919050565b6000815180845260005b8181101561413b5760208185018101518683018201520161411f565b8181111561414d576000602083870101525b50601f01601f19169290920160200192915050565b600061010063ffffffff8084511685528060208501511660208601528060408501511660408601528060608501511660608601525060808301516141b160808601826001600160401b03169052565b5060a08301516141c560a086018215159052565b5060c08301518160c08601526141dd82860182614115565b91505060e0830151613dd860e08601826001600160a01b03169052565b6020815260006132b76020830184614162565b80356001600160a01b038116811461422457600080fd5b919050565b60006020828403121561423b57600080fd5b6132b78261420d565b60008083601f84011261425657600080fd5b5081356001600160401b0381111561426d57600080fd5b6020830191508360208260051b850101111561428857600080fd5b9250929050565b6000806000604084860312156142a457600080fd5b8335925060208401356001600160401b038111156142c157600080fd5b6142cd86828701614244565b9497909650939450505050565b600081518084526020808501808196508360051b8101915082860160005b85811015614322578284038952614310848351614115565b988501989350908401906001016142f8565b5091979650505050505050565b60408152600061434260408301856142da565b828103602084015261435481856142da565b95945050505050565b60008060008060006060868803121561437557600080fd5b85356001600160401b038082111561438c57600080fd5b61439889838a01614244565b909750955060208801359150808211156143b157600080fd5b506143be88828901614244565b96999598509660400135949350505050565b60008083601f8401126143e257600080fd5b5081356001600160401b038111156143f957600080fd5b60208301915083602082850101111561428857600080fd5b60008060006040848603121561442657600080fd5b8335925060208401356001600160401b0381111561444357600080fd5b6142cd868287016143d0565b60008060006040848603121561446457600080fd5b83356001600160401b0381111561447a57600080fd5b614486868287016143d0565b909450925061449990506020850161420d565b90509250925092565b600080604083850312156144b557600080fd5b6144be8361420d565b91506144cc6020840161420d565b90509250929050565b6020808252825182820181905260009190848201906040850190845b8181101561320a57835163ffffffff16835292840192918401916001016144f1565b6000806040838503121561452657600080fd5b823591506020830135801515811461453d57600080fd5b809150509250929050565b6000806040838503121561455b57600080fd5b50508035926020909101359150565b60608152600061457d6060830186614115565b828103602084015261458f8186614115565b9150508215156040830152949350505050565b6001600160a01b0391909116815260200190565b803563ffffffff8116811461422457600080fd5b600080600080606085870312156145e057600080fd5b843593506145f0602086016145b6565b925060408501356001600160401b0381111561460b57600080fd5b614617878288016143d0565b95989497509550505050565b6000806020838503121561463657600080fd5b82356001600160401b0381111561464c57600080fd5b61465885828601614244565b90969095509350505050565b6000602080830181845280855180835260408601915060408160051b870101925083870160005b828110156146b957603f198886030184526146a7858351614162565b9450928501929085019060010161468b565b5092979650505050505050565b600080604083850312156146d957600080fd5b823591506144cc6020840161420d565b600181811c908216806146fd57607f821691505b6020821081141561132f57634e487b7160e01b600052602260045260246000fd5b634e487b7160e01b600052603260045260246000fd5b634e487b7160e01b600052601160045260246000fd5b60008282101561475c5761475c614734565b500390565b600063ffffffff8381169083168181101561477e5761477e614734565b039392505050565b634e487b7160e01b600052604160045260246000fd5b6020815260006132b76020830184614115565b600082198211156147c2576147c2614734565b500190565b81835281816020850137506000828201602090810191909152601f909101601f19169091010190565b8381526040602082015260006143546040830184866147c7565b60006020828403121561481c57600080fd5b6132b7826145b6565b6020815260006148396020830184866147c7565b949350505050565b600081600019048311821515161561485b5761485b614734565b500290565b600063ffffffff80831681851680830382111561487f5761487f614734565b01949350505050565b60408152600061489b60408301856142da565b905082151560208301529392505050565b60006000198214156148c0576148c0614734565b5060010190565b600063ffffffff808316818114156148e1576148e1614734565b6001019392505050565b600063ffffffff8083168185168183048111821515161561490e5761490e614734565b02949350505050565b634e487b7160e01b600052601260045260246000fd5b600063ffffffff8084168061494457614944614917565b92169190910692915050565b600063ffffffff8084168061496757614967614917565b92169190910492915050565b60008161498257614982614734565b506000190190565b60208082528181018390526000908460408401835b868110156149c85763ffffffff6149b5846145b6565b168252918301919083019060010161499f565b50969550505050505056fed952c686c15834d48f07b553712c51f877261827559f149880caa855efa22f7d6018b2d18c7378174a403e179ce41a2df430338a150b2bcec4b7a08291285574a2646970667358221220b14ee98c4e2dc473bdba515ae367f37ce756e21a168f58d77ef7473d494f55c264736f6c634300080a0033",
  "devdoc": {
    "author": "Kiln",
    "errors": {
      "InactiveOperator(uint256)": [
        {
          "params": {
            "index": "The operator index"
          }
        }
      ],
      "InvalidInitialization(uint256,uint256)": [
        {
          "params": {
            "expectedVersion": "The version that was expected",
            "version": "The version that was attempting to be initialized"
          }
        }
      ],
      "OperatorLimitTooHigh(uint256,uint256,uint256)": [
        {
          "params": {
            "index": "The operator index",
            "keyCount": "The operator key count",
            "limit": "The new limit provided"
          }
        }
      ],
      "OperatorLimitTooLow(uint256,uint256,uint256)": [
        {
          "params": {
            "fundedKeyCount": "The operator funded key count",
            "index": "The operator index",
            "limit": "The new limit provided"
          }
        }
      ],
      "OperatorNotFound(uint256)": [
        {
          "params": {
            "index": "The provided index"
          }
        },
        {
          "params": {
            "index": "The provided index"
          }
        }
      ],
      "Unauthorized(address)": [
        {
          "params": {
            "caller": "Address performing the call"
          }
        }
      ]
    },
    "kind": "dev",
    "methods": {
      "acceptAdmin()": {
        "details": "Only callable by the pending admin. Resets the pending admin if succesful."
      },
      "addOperator(string,address)": {
        "details": "Only callable by the administrator",
        "params": {
          "_name": "The name identifying the operator",
          "_operator": "The address representing the operator, receiving the rewards"
        },
        "returns": {
          "_0": "The index of the new operator"
        }
      },
      "addValidators(uint256,uint32,bytes)": {
        "details": "Only callable by the administrator or the operator address",
        "params": {
          "_index": "The operator index",
          "_keyCount": "The amount of keys provided",
          "_publicKeysAndSignatures": "Public keys of the validator, concatenated"
        }
      },
      "forceFundedValidatorKeysEventEmission(uint256)": {
        "params": {
          "amountToEmit": "The amount of events to emit at maximum in this call"
        }
      },
      "getAdmin()": {
        "returns": {
          "_0": "The admin address"
        }
      },
      "getOperator(uint256)": {
        "params": {
          "_index": "The index of the operator"
        },
        "returns": {
          "_0": "The details of the operator"
        }
      },
      "getOperatorCount()": {
        "returns": {
          "_0": "The operator count"
        }
      },
      "getOperatorStoppedValidatorCount(uint256)": {
        "params": {
          "_idx": "The index of the operator"
        },
        "returns": {
          "_0": "The stopped validator count of the operator"
        }
      },
      "getPendingAdmin()": {
        "returns": {
          "_0": "The pending admin address"
        }
      },
      "getRiver()": {
        "returns": {
          "_0": "The address of River"
        }
      },
      "getStoppedValidatorCountPerOperator()": {
        "returns": {
          "_0": "The stopped validator array"
        }
      },
      "getTotalRequestedValidatorExitsCount()": {
        "returns": {
          "_0": "The total requested exit count"
        }
      },
      "getTotalStoppedValidatorCount()": {
        "returns": {
          "_0": "The total stopped validator count"
        }
      },
      "getValidator(uint256,uint256)": {
        "params": {
          "_operatorIndex": "The index of the operator",
          "_validatorIndex": "The index of the validator"
        },
        "returns": {
          "funded": "True if validator has been funded",
          "publicKey": "The public key of the validator",
          "signature": "The signature used during deposit"
        }
      },
      "initOperatorsRegistryV1(address,address)": {
        "params": {
          "_admin": "Admin in charge of managing operators",
          "_river": "Address of River system"
        }
      },
      "listActiveOperators()": {
        "returns": {
          "_0": "The list of active operators and their details"
        }
      },
      "pickNextValidatorsToDeposit(uint256)": {
        "params": {
          "_count": "Max amount of keys requested"
        },
        "returns": {
          "publicKeys": "An array of public keys",
          "signatures": "An array of signatures linked to the public keys"
        }
      },
      "pickNextValidatorsToExit(uint256)": {
        "params": {
          "_count": "Max amount of exits to request"
        }
      },
      "proposeAdmin(address)": {
        "details": "This security prevents setting an invalid address as an admin. The pendingadmin has to claim its ownership of the contract, and prove that the newaddress is able to perform regular transactions.",
        "params": {
          "_newAdmin": "New admin address"
        }
      },
      "removeValidators(uint256,uint256[])": {
        "details": "Only callable by the administrator or the operator addressThe indexes must be provided sorted in decreasing order and duplicate-free, otherwise the method will revertThe operator limit will be set to the lowest deleted key index if the operator's limit wasn't equal to its total key countThe operator or the admin cannot remove funded keysWhen removing validators, the indexes of specific unfunded keys can be changed in order to properlyremove the keys from the storage array. Beware of this specific behavior when chaining calls as thetargeted public key indexes can point to a different key after a first call was made and performedsome swaps",
        "params": {
          "_index": "The operator index",
          "_indexes": "The indexes of the keys to remove"
        }
      },
      "reportStoppedValidatorCounts(uint32[])": {
        "params": {
          "stoppedValidatorCounts": "The new stopped validators array"
        }
      },
      "setOperatorAddress(uint256,address)": {
        "details": "Only callable by the administrator or the previous operator address",
        "params": {
          "_index": "The operator index",
          "_newOperatorAddress": "The new address of the operator"
        }
      },
      "setOperatorLimits(uint256[],uint32[],uint256)": {
        "details": "Only callable by the administratorThe operator indexes must be in increasing order and contain no duplicateThe limit cannot exceed the total key count of the operatorThe _indexes and _newLimits must have the same length.Each limit value is applied to the operator index at the same index in the _indexes array.",
        "params": {
          "_newLimits": "The new staking limit of the operators",
          "_operatorIndexes": "The operator indexes, in increasing order and duplicate free",
          "_snapshotBlock": "The block number at which the snapshot was computed"
        }
      },
      "setOperatorName(uint256,string)": {
        "details": "Only callable by the administrator or the operator",
        "params": {
          "_index": "The operator index",
          "_newName": "The new operator name"
        }
      },
      "setOperatorStatus(uint256,bool)": {
        "details": "Only callable by the administrator",
        "params": {
          "_index": "The operator index",
          "_newStatus": "The new status of the operator"
        }
      }
    },
    "title": "Operators Registry (v1)",
    "version": 1
  },
  "userdoc": {
    "errors": {
      "FundedKeyEventMigrationComplete()": [
        {
          "notice": "Emitted when the event rebroadcasting is done and we attempt to broadcast new events"
        }
      ],
      "InactiveOperator(uint256)": [
        {
          "notice": "The calling operator is inactive"
        }
      ],
      "InvalidArrayLengths()": [
        {
          "notice": "The provided operator and limits array have different lengths"
        }
      ],
      "InvalidEmptyArray()": [
        {
          "notice": "The provided operator and limits array are empty"
        }
      ],
      "InvalidEmptyStoppedValidatorCountsArray()": [
        {
          "notice": "Thrown when an invalid empty stopped validator array is provided"
        }
      ],
      "InvalidEmptyString()": [
        {
          "notice": "The string is empty"
        }
      ],
      "InvalidFundedKeyDeletionAttempt()": [
        {
          "notice": "A funded key deletion has been attempted"
        }
      ],
      "InvalidIndexOutOfBounds()": [
        {
          "notice": "The index that is removed is out of bounds"
        }
      ],
      "InvalidInitialization(uint256,uint256)": [
        {
          "notice": "An error occured during the initialization"
        }
      ],
      "InvalidKeyCount()": [
        {
          "notice": "The provided key count is 0"
        }
      ],
      "InvalidKeysLength()": [
        {
          "notice": "The provided concatenated keys do not have the expected length"
        }
      ],
      "InvalidStoppedValidatorCountsSum()": [
        {
          "notice": "Thrown when the sum of stopped validators is invalid"
        }
      ],
      "InvalidUnsortedIndexes()": [
        {
          "notice": "The index provided are not sorted properly (descending order)"
        }
      ],
      "InvalidZeroAddress()": [
        {
          "notice": "The address is zero"
        }
      ],
      "OperatorLimitTooHigh(uint256,uint256,uint256)": [
        {
          "notice": "The value for the operator limit is too high"
        }
      ],
      "OperatorLimitTooLow(uint256,uint256,uint256)": [
        {
          "notice": "The value for the limit is too low"
        }
      ],
      "OperatorNotFound(uint256)": [
        {
          "notice": "The operator was not found"
        },
        {
          "notice": "The operator was not found"
        }
      ],
      "SliceOutOfBounds()": [
        {
          "notice": "The slice is outside of the initial bytes bounds"
        }
      ],
      "SliceOverflow()": [
        {
          "notice": "The length overflows an uint"
        }
      ],
      "StoppedValidatorCountsTooHigh()": [
        {
          "notice": "Thrown when the number of elements in the array is too high compared to operator count"
        }
      ],
      "Unauthorized(address)": [
        {
          "notice": "The operator is unauthorized for the caller"
        }
      ],
      "UnorderedOperatorList()": [
        {
          "notice": "The provided list of operators is not in increasing order"
        }
      ]
    },
    "events": {
      "AddedOperator(uint256,string,address)": {
        "notice": "A new operator has been added to the registry"
      },
      "AddedValidatorKeys(uint256,bytes)": {
        "notice": "The operator or the admin added new validator keys and signatures"
      },
      "FundedValidatorKeys(uint256,bytes[],bool)": {
        "notice": "A validator key got funded on the deposit contractThis event was introduced during a contract upgrade, in order to cover all possible public keys, this eventwill be replayed for past funded keys in order to have a complete coverage of all the funded public keys.In this particuliar scenario, the deferred value will be set to true, to indicate that we are not going to havethe expected additional events and side effects in the same transaction (deposit to official DepositContract etc ...) becausethe event was synthetically crafted."
      },
      "Initialize(uint256,bytes)": {
        "notice": "Emitted when the contract is properly initialized"
      },
      "OperatorEditsAfterSnapshot(uint256,uint256,uint256,uint256,uint256)": {
        "notice": "The operator edited its keys after the snapshot block"
      },
      "OperatorLimitUnchanged(uint256,uint256)": {
        "notice": "The call didn't alter the limit of the operator"
      },
      "RemovedValidatorKey(uint256,bytes)": {
        "notice": "The operator or the admin removed a public key and its signature from the registry"
      },
      "RequestedValidatorExits(uint256,uint256)": {
        "notice": "The requested exit count has been updated"
      },
      "SetAdmin(address)": {
        "notice": "The admin address changed"
      },
      "SetOperatorAddress(uint256,address)": {
        "notice": "The operator address has been changed"
      },
      "SetOperatorLimit(uint256,uint256)": {
        "notice": "The operator limit has been changed"
      },
      "SetOperatorName(uint256,string)": {
        "notice": "The operator display name has been changed"
      },
      "SetOperatorStatus(uint256,bool)": {
        "notice": "The operator status has been changed"
      },
      "SetOperatorStoppedValidatorCount(uint256,uint256)": {
        "notice": "The operator stopped validator count has been changed"
      },
      "SetPendingAdmin(address)": {
        "notice": "The pending admin address changed"
      },
      "SetRiver(address)": {
        "notice": "The stored river address has been changed"
      },
      "SetTotalRequestedValidatorExits(uint256,uint256)": {
        "notice": "The total requested exit has been updated"
      },
      "UpdatedRequestedValidatorExitsUponStopped(uint256,uint32,uint32)": {
        "notice": "The requested exit count has been update to fill the gap with the reported stopped count"
      },
      "UpdatedStoppedValidators(uint32[])": {
        "notice": "The stopped validator array has been changedA validator is considered stopped if exiting, exited or slashedThis event is emitted when the oracle reports new stopped validators counts"
      }
    },
    "kind": "user",
    "methods": {
      "acceptAdmin()": {
        "notice": "Accept the transfer of ownership"
      },
      "addOperator(string,address)": {
        "notice": "Adds an operator to the registry"
      },
      "addValidators(uint256,uint32,bytes)": {
        "notice": "Adds new keys for an operator"
      },
      "forceFundedValidatorKeysEventEmission(uint256)": {
        "notice": "Utility to force the broadcasting of events. Will keep its progress in storage to prevent being DoSed by the number of keys"
      },
      "getAdmin()": {
        "notice": "Retrieves the current admin address"
      },
      "getOperator(uint256)": {
        "notice": "Get operator details"
      },
      "getOperatorCount()": {
        "notice": "Get operator count"
      },
      "getOperatorStoppedValidatorCount(uint256)": {
        "notice": "Retrieve the stopped validator count for an operator index"
      },
      "getPendingAdmin()": {
        "notice": "Retrieve the current pending admin address"
      },
      "getRiver()": {
        "notice": "Retrieve the River address"
      },
      "getStoppedValidatorCountPerOperator()": {
        "notice": "Retrieve the raw stopped validators array from storage"
      },
      "getTotalRequestedValidatorExitsCount()": {
        "notice": "Retrieve the total requested exit count"
      },
      "getTotalStoppedValidatorCount()": {
        "notice": "Retrieve the total stopped validator count"
      },
      "getValidator(uint256,uint256)": {
        "notice": "Get the details of a validator"
      },
      "initOperatorsRegistryV1(address,address)": {
        "notice": "Initializes the operators registry"
      },
      "initOperatorsRegistryV1_1()": {
        "notice": "Initializes the operators registry for V1_1"
      },
      "listActiveOperators()": {
        "notice": "Retrieve the active operator set"
      },
      "pickNextValidatorsToDeposit(uint256)": {
        "notice": "Retrieve validator keys based on operator statuses"
      },
      "pickNextValidatorsToExit(uint256)": {
        "notice": "Emits events for operators to exit validators"
      },
      "proposeAdmin(address)": {
        "notice": "Proposes a new address as admin"
      },
      "removeValidators(uint256,uint256[])": {
        "notice": "Remove validator keys"
      },
      "reportStoppedValidatorCounts(uint32[])": {
        "notice": "Allows river to override the stopped validators arrayThis actions happens during the Oracle report processing"
      },
      "setOperatorAddress(uint256,address)": {
        "notice": "Changes the operator address of an operator"
      },
      "setOperatorLimits(uint256[],uint32[],uint256)": {
        "notice": "Changes the operator staking limit"
      },
      "setOperatorName(uint256,string)": {
        "notice": "Changes the operator name"
      },
      "setOperatorStatus(uint256,bool)": {
        "notice": "Changes the operator status"
      }
    },
    "notice": "This contract handles the list of operators and their keys",
    "version": 1
  },
  "storageLayout": {
    "storage": [],
    "types": null
  }
}