{
  "address": "0x97583A72d4f5f87509E80F524B1c02f758aA7041",
  "abi": [
    {
      "inputs": [
        {
          "internalType": "uint256",
          "name": "redeemRequestId",
          "type": "uint256"
        },
        {
          "internalType": "uint256",
          "name": "withdrawalEventId",
          "type": "uint256"
        }
      ],
      "name": "DoesNotMatch",
      "type": "error"
    },
    {
      "inputs": [],
      "name": "IncompatibleArrayLengths",
      "type": "error"
    },
    {
      "inputs": [
        {
          "internalType": "uint256",
          "name": "version",
          "type": "uint256"
        },
        {
          "internalType": "uint256",
          "name": "expectedVersion",
          "type": "uint256"
        }
      ],
      "name": "InvalidInitialization",
      "type": "error"
    },
    {
      "inputs": [],
      "name": "InvalidZeroAddress",
      "type": "error"
    },
    {
      "inputs": [],
      "name": "InvalidZeroAmount",
      "type": "error"
    },
    {
      "inputs": [
        {
          "internalType": "uint256",
          "name": "id",
          "type": "uint256"
        }
      ],
      "name": "RedeemRequestAlreadyClaimed",
      "type": "error"
    },
    {
      "inputs": [
        {
          "internalType": "uint256",
          "name": "id",
          "type": "uint256"
        }
      ],
      "name": "RedeemRequestOutOfBounds",
      "type": "error"
    },
    {
      "inputs": [],
      "name": "TransferError",
      "type": "error"
    },
    {
      "inputs": [
        {
          "internalType": "address",
          "name": "caller",
          "type": "address"
        }
      ],
      "name": "Unauthorized",
      "type": "error"
    },
    {
      "inputs": [
        {
          "internalType": "uint256",
          "name": "id",
          "type": "uint256"
        }
      ],
      "name": "WithdrawalEventOutOfBounds",
      "type": "error"
    },
    {
      "anonymous": false,
      "inputs": [
        {
          "indexed": true,
          "internalType": "uint32",
          "name": "redeemRequestId",
          "type": "uint32"
        },
        {
          "indexed": true,
          "internalType": "address",
          "name": "recipient",
          "type": "address"
        },
        {
          "indexed": false,
          "internalType": "uint256",
          "name": "ethAmount",
          "type": "uint256"
        },
        {
          "indexed": false,
          "internalType": "uint256",
          "name": "lsEthAmount",
          "type": "uint256"
        },
        {
          "indexed": false,
          "internalType": "uint256",
          "name": "remainingLsEthAmount",
          "type": "uint256"
        }
      ],
      "name": "ClaimedRedeemRequest",
      "type": "event"
    },
    {
      "anonymous": false,
      "inputs": [
        {
          "indexed": false,
          "internalType": "uint256",
          "name": "version",
          "type": "uint256"
        },
        {
          "indexed": false,
          "internalType": "bytes",
          "name": "cdata",
          "type": "bytes"
        }
      ],
      "name": "Initialize",
      "type": "event"
    },
    {
      "anonymous": false,
      "inputs": [
        {
          "indexed": false,
          "internalType": "uint256",
          "name": "height",
          "type": "uint256"
        },
        {
          "indexed": false,
          "internalType": "uint256",
          "name": "amount",
          "type": "uint256"
        },
        {
          "indexed": false,
          "internalType": "uint256",
          "name": "ethAmount",
          "type": "uint256"
        },
        {
          "indexed": false,
          "internalType": "uint32",
          "name": "id",
          "type": "uint32"
        }
      ],
      "name": "ReportedWithdrawal",
      "type": "event"
    },
    {
      "anonymous": false,
      "inputs": [
        {
          "indexed": true,
          "internalType": "address",
          "name": "owner",
          "type": "address"
        },
        {
          "indexed": false,
          "internalType": "uint256",
          "name": "height",
          "type": "uint256"
        },
        {
          "indexed": false,
          "internalType": "uint256",
          "name": "amount",
          "type": "uint256"
        },
        {
          "indexed": false,
          "internalType": "uint32",
          "name": "id",
          "type": "uint32"
        }
      ],
      "name": "RequestedRedeem",
      "type": "event"
    },
    {
      "anonymous": false,
      "inputs": [
        {
          "indexed": true,
          "internalType": "uint32",
          "name": "redeemRequestId",
          "type": "uint32"
        },
        {
          "indexed": true,
          "internalType": "uint32",
          "name": "withdrawalEventId",
          "type": "uint32"
        },
        {
          "indexed": false,
          "internalType": "uint256",
          "name": "lsEthAmountSatisfied",
          "type": "uint256"
        },
        {
          "indexed": false,
          "internalType": "uint256",
          "name": "ethAmountSatisfied",
          "type": "uint256"
        },
        {
          "indexed": false,
          "internalType": "uint256",
          "name": "lsEthAmountRemaining",
          "type": "uint256"
        },
        {
          "indexed": false,
          "internalType": "uint256",
          "name": "ethAmountExceeding",
          "type": "uint256"
        }
      ],
      "name": "SatisfiedRedeemRequest",
      "type": "event"
    },
    {
      "anonymous": false,
      "inputs": [
        {
          "indexed": false,
          "internalType": "uint256",
          "name": "amount",
          "type": "uint256"
        }
      ],
      "name": "SentExceedingEth",
      "type": "event"
    },
    {
      "anonymous": false,
      "inputs": [
        {
          "indexed": false,
          "internalType": "address",
          "name": "river",
          "type": "address"
        }
      ],
      "name": "SetRiver",
      "type": "event"
    },
    {
      "inputs": [
        {
          "internalType": "uint32[]",
          "name": "redeemRequestIds",
          "type": "uint32[]"
        },
        {
          "internalType": "uint32[]",
          "name": "withdrawalEventIds",
          "type": "uint32[]"
        }
      ],
      "name": "claimRedeemRequests",
      "outputs": [
        {
          "internalType": "uint8[]",
          "name": "claimStatuses",
          "type": "uint8[]"
        }
      ],
      "stateMutability": "nonpayable",
      "type": "function"
    },
    {
      "inputs": [
        {
          "internalType": "uint32[]",
          "name": "redeemRequestIds",
          "type": "uint32[]"
        },
        {
          "internalType": "uint32[]",
          "name": "withdrawalEventIds",
          "type": "uint32[]"
        },
        {
          "internalType": "bool",
          "name": "skipAlreadyClaimed",
          "type": "bool"
        }
      ],
      "name": "claimRedeemRequests",
      "outputs": [
        {
          "internalType": "uint8[]",
          "name": "claimStatuses",
          "type": "uint8[]"
        }
      ],
      "stateMutability": "nonpayable",
      "type": "function"
    },
    {
      "inputs": [],
      "name": "getBufferedExceedingEth",
      "outputs": [
        {
          "internalType": "uint256",
          "name": "",
          "type": "uint256"
        }
      ],
      "stateMutability": "view",
      "type": "function"
    },
    {
      "inputs": [],
      "name": "getRedeemRequestCount",
      "outputs": [
        {
          "internalType": "uint256",
          "name": "",
          "type": "uint256"
        }
      ],
      "stateMutability": "view",
      "type": "function"
    },
    {
      "inputs": [
        {
          "internalType": "uint32",
          "name": "redeemRequestId",
          "type": "uint32"
        }
      ],
      "name": "getRedeemRequestDetails",
      "outputs": [
        {
          "components": [
            {
              "internalType": "uint256",
              "name": "amount",
              "type": "uint256"
            },
            {
              "internalType": "uint256",
              "name": "maxRedeemableEth",
              "type": "uint256"
            },
            {
              "internalType": "address",
              "name": "owner",
              "type": "address"
            },
            {
              "internalType": "uint256",
              "name": "height",
              "type": "uint256"
            }
          ],
          "internalType": "struct RedeemQueue.RedeemRequest",
          "name": "",
          "type": "tuple"
        }
      ],
      "stateMutability": "view",
      "type": "function"
    },
    {
      "inputs": [],
      "name": "getWithdrawalEventCount",
      "outputs": [
        {
          "internalType": "uint256",
          "name": "",
          "type": "uint256"
        }
      ],
      "stateMutability": "view",
      "type": "function"
    },
    {
      "inputs": [
        {
          "internalType": "uint32",
          "name": "withdrawalEventId",
          "type": "uint32"
        }
      ],
      "name": "getWithdrawalEventDetails",
      "outputs": [
        {
          "components": [
            {
              "internalType": "uint256",
              "name": "amount",
              "type": "uint256"
            },
            {
              "internalType": "uint256",
              "name": "withdrawnEth",
              "type": "uint256"
            },
            {
              "internalType": "uint256",
              "name": "height",
              "type": "uint256"
            }
          ],
          "internalType": "struct WithdrawalStack.WithdrawalEvent",
          "name": "",
          "type": "tuple"
        }
      ],
      "stateMutability": "view",
      "type": "function"
    },
    {
      "inputs": [
        {
          "internalType": "address",
          "name": "river",
          "type": "address"
        }
      ],
      "name": "initializeRedeemManagerV1",
      "outputs": [],
      "stateMutability": "nonpayable",
      "type": "function"
    },
    {
      "inputs": [
        {
          "internalType": "uint256",
          "name": "max",
          "type": "uint256"
        }
      ],
      "name": "pullExceedingEth",
      "outputs": [],
      "stateMutability": "nonpayable",
      "type": "function"
    },
    {
      "inputs": [
        {
          "internalType": "uint256",
          "name": "lsETHWithdrawable",
          "type": "uint256"
        }
      ],
      "name": "reportWithdraw",
      "outputs": [],
      "stateMutability": "payable",
      "type": "function"
    },
    {
      "inputs": [
        {
          "internalType": "uint256",
          "name": "lsETHAmount",
          "type": "uint256"
        },
        {
          "internalType": "address",
          "name": "recipient",
          "type": "address"
        }
      ],
      "name": "requestRedeem",
      "outputs": [
        {
          "internalType": "uint32",
          "name": "redeemRequestId",
          "type": "uint32"
        }
      ],
      "stateMutability": "nonpayable",
      "type": "function"
    },
    {
      "inputs": [
        {
          "internalType": "uint256",
          "name": "lsETHAmount",
          "type": "uint256"
        }
      ],
      "name": "requestRedeem",
      "outputs": [
        {
          "internalType": "uint32",
          "name": "redeemRequestId",
          "type": "uint32"
        }
      ],
      "stateMutability": "nonpayable",
      "type": "function"
    },
    {
      "inputs": [
        {
          "internalType": "uint32[]",
          "name": "redeemRequestIds",
          "type": "uint32[]"
        }
      ],
      "name": "resolveRedeemRequests",
      "outputs": [
        {
          "internalType": "int64[]",
          "name": "withdrawalEventIds",
          "type": "int64[]"
        }
      ],
      "stateMutability": "view",
      "type": "function"
    }
  ],
  "transactionHash": "0xf80e93d150ad720f9a7dc3e8b9832c118306344e5c1a71e71a98c540c3434638",
  "args": [],
  "numDeployments": 1,
  "solcInputHash": "0a2910002f1f7235235bf4c9129dadf0",
  "bytecode": "0x60806040523480156200001157600080fd5b506200002a6000196200007060201b62000a521760201c565b7f1809e49bba43f2d39fa57894b50cd6ccb428cc438230e065cac3eb24a1355a716000196000366040516200006293929190620000bd565b60405180910390a162000119565b620000b6620000a160017f82055909238c0f5e63d6f174068ebb8f51bcec9bd37de63bb68f6551feec0cfd620000f3565b60001b82620000b960201b62000a881760201c565b50565b9055565b83815260406020820152816040820152818360608301376000818301606090810191909152601f909201601f1916010192915050565b6000828210156200011457634e487b7160e01b600052601160045260246000fd5b500390565b611e0b80620001296000396000f3fe6080604052600436106100b25760003560e01c8063862337541161006f578063862337541461018d5780639332525d146101cf5780639b92d6de146101fc578063aa2f892d14610258578063b30d8bb714610278578063c3b832111461028b578063c8fade5a146102ab57600080fd5b80630c779401146100b7578063107703ab146100d9578063319798d1146101135780635b5985a2146101365780635f2e5f071461014b578063841ecb8514610178575b600080fd5b3480156100c357600080fd5b506100d76100d23660046118d4565b6102cb565b005b3480156100e557600080fd5b506100f96100f4366004611902565b6103d2565b60405163ffffffff90911681526020015b60405180910390f35b34801561011f57600080fd5b506101286104c8565b60405190815260200161010a565b34801561014257600080fd5b506101286104d8565b34801561015757600080fd5b5061016b61016636600461197d565b6104e7565b60405161010a91906119be565b34801561018457600080fd5b5061012861061c565b34801561019957600080fd5b506101ad6101a8366004611a05565b610626565b604080518251815260208084015190820152918101519082015260600161010a565b3480156101db57600080fd5b506101ef6101ea366004611a32565b61068b565b60405161010a9190611a9d565b34801561020857600080fd5b5061021c610217366004611a05565b6106a4565b60405161010a919081518152602080830151908201526040808301516001600160a01b0316908201526060918201519181019190915260800190565b34801561026457600080fd5b506100f96102733660046118d4565b61071b565b6100d76102863660046118d4565b610808565b34801561029757600080fd5b506101ef6102a6366004611ae6565b610977565b3480156102b757600080fd5b506100d76102c6366004611b69565b610990565b6102d3610a8c565b6001600160a01b0316336001600160a01b03161461030f573360405163472511eb60e11b81526004016103069190611b86565b60405180910390fd5b600061032261031c610ac0565b83610af0565b905061032c610b05565b6001600160a01b031663056850c6826040518263ffffffff1660e01b81526004016000604051808303818588803b15801561036657600080fd5b505af115801561037a573d6000803e3d6000fd5b505050505061039a8161038b610ac0565b6103959190611bb0565b610b0f565b6040518181527fe4421923600d79aa81e054fab2083d01983d85b94ec8c8928f404820dfca4036906020015b60405180910390a15050565b6000806103dd610b05565b9050336001600160a01b038216146104b457806001600160a01b031663c5eff3d06040518163ffffffff1660e01b8152600401602060405180830381865afa15801561042d573d6000803e3d6000fd5b505050506040513d601f19601f820116820180604052508101906104519190611bc7565b604051632d20488160e11b81523360048281019190915260248201526001600160a01b039190911690635a4091029060440160006040518083038186803b15801561049b57600080fd5b505afa1580156104af573d6000803e3d6000fd5b505050505b506104bf8383610b3d565b90505b92915050565b60006104d2610de8565b54919050565b60006104e2610ac0565b905090565b6060816001600160401b0381111561050157610501611be4565b60405190808252806020026020018201604052801561052a578160200160208202803683370190505b509050610535611848565b600061053f610e16565b805490915080156105a05781610556600183611bb0565b8154811061056657610566611bfa565b9060005260206000209060030201604051806060016040529081600082015481526020016001820154815260200160028201548152505092505b60005b85811015610612576105db8787838181106105c0576105c0611bfa565b90506020020160208101906105d59190611a05565b85610e44565b8582815181106105ed576105ed611bfa565b602002602001019060070b908160070b815250508061060b90611c10565b90506105a3565b5050505092915050565b60006104d2610e16565b61062e611848565b610636610e16565b8263ffffffff168154811061064d5761064d611bfa565b906000526020600020906003020160405180606001604052908160008201548152602001600182015481526020016002820154815250509050919050565b606061069b858585856001610f26565b95945050505050565b6106ac611869565b6106b4610de8565b8263ffffffff16815481106106cb576106cb611bfa565b60009182526020918290206040805160808101825260049093029091018054835260018101549383019390935260028301546001600160a01b031690820152600390910154606082015292915050565b600080610726610b05565b9050336001600160a01b038216146107fd57806001600160a01b031663c5eff3d06040518163ffffffff1660e01b8152600401602060405180830381865afa158015610776573d6000803e3d6000fd5b505050506040513d601f19601f8201168201806040525081019061079a9190611bc7565b604051632d20488160e11b81523360048281019190915260248201526001600160a01b039190911690635a4091029060440160006040518083038186803b1580156107e457600080fd5b505afa1580156107f8573d6000803e3d6000fd5b505050505b506104c28233610b3d565b610810610a8c565b6001600160a01b0316336001600160a01b031614610843573360405163472511eb60e11b81526004016103069190611b86565b600061084d610e16565b805490915060003463ffffffff8316156108ce5760008461086f600186611c2b565b63ffffffff168154811061088557610885611bfa565b60009182526020918290206040805160608101825260039093029091018054808452600182015494840194909452600201549082018190529092506108ca9190611c50565b9250505b604080516060810182528681526020808201848152828401868152885460018181018b5560008b8152949094209451600390910290940193845590519183019190915551600290910155517f05e5b10ca266c2e8cfd73b1fb719694fb6b89fcda9e3739ace4cc19b3e855445906109689084908890859088909384526020840192909252604083015263ffffffff16606082015260800190565b60405180910390a15050505050565b60606109868686868686610f26565b9695505050505050565b600061099a611128565b81146109cb57806109a9611128565b604051631cfd276760e31b815260048101929092526024820152604401610306565b6109de6109d9826001611c50565b610a52565b6109e782611158565b7ffc0d749143b04e0d92a3b49edae84a45f6bc88b75e99d9118ec4d7e87fe626c582604051610a169190611b86565b60405180910390a17f1809e49bba43f2d39fa57894b50cd6ccb428cc438230e065cac3eb24a1355a71816000366040516103c693929190611c68565b610a85610a8060017f82055909238c0f5e63d6f174068ebb8f51bcec9bd37de63bb68f6551feec0cfd611bb0565b829055565b50565b9055565b60006104e2610abc60017f1ec4138404500a2a0be2c2f9b103581c2a7fa783a934f91a6cc5cc924404973c611bb0565b5490565b60006104e2610abc60017f9afb091d33aa9fdd4ac2dbd1cbba78215a097062e9dbdc7b707ac5bb59049bc1611bb0565b6000818311610aff57826104bf565b50919050565b60006104e2610a8c565b610a85610a8060017f9afb091d33aa9fdd4ac2dbd1cbba78215a097062e9dbdc7b707ac5bb59049bc1611bb0565b6000610b488261118f565b82610b6657604051630dd484e760e41b815260040160405180910390fd5b610b6e610b05565b6040516323b872dd60e01b8152336004820152306024820152604481018590526001600160a01b0391909116906323b872dd906064016020604051808303816000875af1158015610bc3573d6000803e3d6000fd5b505050506040513d601f19601f82011682018060405250810190610be79190611c9e565b610c04576040516313ff771f60e21b815260040160405180910390fd5b6000610c0e610de8565b805492509050600063ffffffff831615610ca557600082610c30600186611c2b565b63ffffffff1681548110610c4657610c46611bfa565b6000918252602091829020604080516080810182526004909302909101805480845260018201549484019490945260028101546001600160a01b0316918301919091526003015460608201819052909250610ca19190611c50565b9150505b6000610caf610b05565b6001600160a01b031663f79c3f02876040518263ffffffff1660e01b8152600401610cdc91815260200190565b602060405180830381865afa158015610cf9573d6000803e3d6000fd5b505050506040513d601f19601f82011682018060405250810190610d1d9190611cbb565b6040805160808101825288815260208082018481526001600160a01b038a811684860181815260608087018b81528c5460018082018f5560008f81528990209951600490920290990190815595519786019790975590516002850180546001600160a01b0319169190941617909255935160039092019190915583518781529182018b905263ffffffff891693820193909352929350917f90bfa4ef79103821d7d3b08cb2cdfcd683d3d93c932f63ad7657db07c361a4ff910160405180910390a250505092915050565b6000806104c260017f232f0d723a47bd57c991606dd0525f28484745095475b69dffe8416b3749c3c2611bb0565b6000806104c260017f0c9122afab04eaf9e9bdaa10927c74406e40c7f08744e32826fff29b1c9e7abd611bb0565b600080610e4f610de8565b805490915063ffffffff851610610e6b576001199150506104c2565b6000818563ffffffff1681548110610e8557610e85611bfa565b6000918252602091829020604080516080810182526004909302909101805480845260018201549484019490945260028101546001600160a01b0316918301919091526003015460608201529150610ee357600219925050506104c2565b610eeb610e16565b541580610f0c5750606081015184516040860151610f099190611c50565b11155b15610f1d57600019925050506104c2565b61069b816111b6565b606084838114610f4957604051633a5e3f0d60e01b815260040160405180910390fd5b806001600160401b03811115610f6157610f61611be4565b604051908082528060200260200182016040528015610f8a578160200160208202803683370190505b50915060005b8181101561111d576000806000806000610ff98d8d88818110610fb557610fb5611bfa565b9050602002016020810190610fca9190611a05565b8c8c89818110610fdc57610fdc611bfa565b9050602002016020810190610ff19190611a05565b8b6000611332565b945094509450945094508088878151811061101657611016611bfa565b602002602001019060ff16908160ff1681525050600080866001600160a01b03168560405160006040518083038185875af1925050503d8060008114611078576040519150601f19603f3d011682016040523d82523d6000602084013e61107d565b606091505b50915091508161108f57805181602001fd5b866001600160a01b03168f8f8a8181106110ab576110ab611bfa565b90506020020160208101906110c09190611a05565b60408051888152602081018a905290810187905263ffffffff91909116907f25f4dfa5f0703d4c509bd7216e70f8378f419433c14840c14f3eaadb60642ad19060600160405180910390a387600101975050505050505050610f90565b505095945050505050565b60006104e2610abc60017f82055909238c0f5e63d6f174068ebb8f51bcec9bd37de63bb68f6551feec0cfd611bb0565b6111618161118f565b610a85610a8060017f1ec4138404500a2a0be2c2f9b103581c2a7fa783a934f91a6cc5cc924404973c611bb0565b6001600160a01b038116610a855760405163f6b2911f60e01b815260040160405180910390fd5b6000806111c1610e16565b9050600060016111cf610e16565b546111da9190611bb0565b90506112378483836001600160401b0316815481106111fb576111fb611bfa565b90600052602060002090600302016040518060600160405290816000820154815260200160018201548152602001600282015481525050611818565b15611243579392505050565b60006112648584836001600160401b0316815481106111fb576111fb611bfa565b1561127157949350505050565b8160070b8160070b1461132a576000600261128c8484611cd4565b6112969190611d3b565b9050600084826001600160401b0316815481106112b5576112b5611bfa565b9060005260206000209060030201604051806060016040529081600082015481526020016001820154815260200160028201548152505090506112f88782611818565b15611307575095945050505050565b80604001518760600151101561131f57819350611323565b8192505b5050611271565b949350505050565b600080600080600061134261189a565b600061134c610de8565b805490915063ffffffff8c161061137e57604051637ba6f8f560e11b815263ffffffff8c166004820152602401610306565b6000611388610e16565b805490915063ffffffff8c16106114035788156113e2576000806000848f63ffffffff16815481106113bc576113bc611bfa565b90600052602060002090600402016000015460019750975097509750975050505061180d565b60405163311569d960e01b815263ffffffff8c166004820152602401610306565b818c63ffffffff168154811061141b5761141b611bfa565b60009182526020918290206040805160808101825260049093029091018054835260018101549383019390935260028301546001600160a01b0316908201526003909101546060808301919091528401819052516114b45789156114935760008060008060029750975097509750975050505061180d565b6040516339775c8160e01b815263ffffffff8d166004820152602401610306565b808b63ffffffff16815481106114cc576114cc611bfa565b90600052602060002090600302016040518060600160405290816000820154815260200160018201548152602001600282015481525050836080018190525061151d83606001518460800151611818565b61154a5760405163b826420960e01b815263ffffffff808e1660048301528c166024820152604401610306565b606080840151805191015160009161156191611c50565b6080850151805160409091015191925060009161157e9190611c50565b9050808210156115985760608501515160208601526115b8565b6115a28183611bb0565b6060860151516115b29190611bb0565b60208601525b5050608083015180516020918201519185015190916115d691611d7a565b6115e09190611d99565b835260608301518051602091820151918501519091600091839161160391611d7a565b61160d9190611d99565b8551909150811015611647578451611626908290611bb0565b6040860181905261164390611639610ac0565b6103959190611c50565b8085525b508b63ffffffff168d63ffffffff167f01d87b0f07b182b784c074487c5a8f901a8e2348275f5480d822a70de74fa8b7866020015187600001518860200151866116919190611bb0565b6040808b015181519485526020850193909352830152606082015260800160405180910390a38360200151838e63ffffffff16815481106116d4576116d4611bfa565b906000526020600020906004020160030160008282546116f49190611c50565b909155505060208401516117089082611bb0565b838e63ffffffff168154811061172057611720611bfa565b9060005260206000209060040201600001819055508360000151838e63ffffffff168154811061175257611752611bfa565b906000526020600020906004020160010160008282546117729190611bb0565b909155505050506060820151516020830151101590506117ed5760008080806117a98e6117a08f6001611dad565b60006001611332565b9450945094509450508460600151604001518486602001516117cb9190611c50565b86516117d8908690611c50565b919b5099509750909550935061180d92505050565b606081015160400151602082015191519096509094509250600091508190505b945094509450945094565b8051604082015160009161182b91611c50565b83606001511080156104bf57505060400151606090910151101590565b60405180606001604052806000815260200160008152602001600081525090565b6040518060800160405280600081526020016000815260200160006001600160a01b03168152602001600081525090565b6040518060a001604052806000815260200160008152602001600081526020016118c2611869565b81526020016118cf611848565b905290565b6000602082840312156118e657600080fd5b5035919050565b6001600160a01b0381168114610a8557600080fd5b6000806040838503121561191557600080fd5b823591506020830135611927816118ed565b809150509250929050565b60008083601f84011261194457600080fd5b5081356001600160401b0381111561195b57600080fd5b6020830191508360208260051b850101111561197657600080fd5b9250929050565b6000806020838503121561199057600080fd5b82356001600160401b038111156119a657600080fd5b6119b285828601611932565b90969095509350505050565b6020808252825182820181905260009190848201906040850190845b818110156119f957835160070b835292840192918401916001016119da565b50909695505050505050565b600060208284031215611a1757600080fd5b813563ffffffff81168114611a2b57600080fd5b9392505050565b60008060008060408587031215611a4857600080fd5b84356001600160401b0380821115611a5f57600080fd5b611a6b88838901611932565b90965094506020870135915080821115611a8457600080fd5b50611a9187828801611932565b95989497509550505050565b6020808252825182820181905260009190848201906040850190845b818110156119f957835160ff1683529284019291840191600101611ab9565b8015158114610a8557600080fd5b600080600080600060608688031215611afe57600080fd5b85356001600160401b0380821115611b1557600080fd5b611b2189838a01611932565b90975095506020880135915080821115611b3a57600080fd5b50611b4788828901611932565b9094509250506040860135611b5b81611ad8565b809150509295509295909350565b600060208284031215611b7b57600080fd5b8135611a2b816118ed565b6001600160a01b0391909116815260200190565b634e487b7160e01b600052601160045260246000fd5b600082821015611bc257611bc2611b9a565b500390565b600060208284031215611bd957600080fd5b8151611a2b816118ed565b634e487b7160e01b600052604160045260246000fd5b634e487b7160e01b600052603260045260246000fd5b6000600019821415611c2457611c24611b9a565b5060010190565b600063ffffffff83811690831681811015611c4857611c48611b9a565b039392505050565b60008219821115611c6357611c63611b9a565b500190565b83815260406020820152816040820152818360608301376000818301606090810191909152601f909201601f1916010192915050565b600060208284031215611cb057600080fd5b8151611a2b81611ad8565b600060208284031215611ccd57600080fd5b5051919050565b60008160070b8360070b6000821282677fffffffffffffff03821381151615611cff57611cff611b9a565b82677fffffffffffffff19038212811615611d1c57611d1c611b9a565b50019392505050565b634e487b7160e01b600052601260045260246000fd5b60008160070b8360070b80611d5257611d52611d25565b677fffffffffffffff19821460001982141615611d7157611d71611b9a565b90059392505050565b6000816000190483118215151615611d9457611d94611b9a565b500290565b600082611da857611da8611d25565b500490565b600063ffffffff808316818516808303821115611dcc57611dcc611b9a565b0194935050505056fea2646970667358221220135efbb8fdab12eeb0c164a092f6ff1aea7564d13583d5ab11d773e0cdc748ff64736f6c634300080a0033",
  "devdoc": {
    "author": "Kiln",
    "errors": {
      "DoesNotMatch(uint256,uint256)": [
        {
          "params": {
            "redeemRequestId": "The provided redeem request id",
            "withdrawalEventId": "The provided associated withdrawal event id"
          }
        }
      ],
      "InvalidInitialization(uint256,uint256)": [
        {
          "params": {
            "expectedVersion": "The version that was expected",
            "version": "The version that was attempting to be initialized"
          }
        }
      ],
      "RedeemRequestAlreadyClaimed(uint256)": [
        {
          "params": {
            "id": "The redeem request id"
          }
        }
      ],
      "RedeemRequestOutOfBounds(uint256)": [
        {
          "params": {
            "id": "The redeem request id"
          }
        }
      ],
      "Unauthorized(address)": [
        {
          "params": {
            "caller": "Address performing the call"
          }
        }
      ],
      "WithdrawalEventOutOfBounds(uint256)": [
        {
          "params": {
            "id": "The withdrawal event id"
          }
        }
      ]
    },
    "kind": "dev",
    "methods": {
      "claimRedeemRequests(uint32[],uint32[])": {
        "params": {
          "redeemRequestIds": "The list of redeem requests to claim",
          "withdrawalEventIds": "The list of withdrawal events to use for every redeem request claim"
        },
        "returns": {
          "claimStatuses": "The list of claim statuses. 0 for fully claimed, 1 for partially claimed, 2 for skipped"
        }
      },
      "claimRedeemRequests(uint32[],uint32[],bool)": {
        "params": {
          "redeemRequestIds": "The list of redeem requests to claim",
          "skipAlreadyClaimed": "True if the call should not revert on claiming of already claimed requests",
          "withdrawalEventIds": "The list of withdrawal events to use for every redeem request claim"
        },
        "returns": {
          "claimStatuses": "The list of claim statuses. 0 for fully claimed, 1 for partially claimed, 2 for skipped"
        }
      },
      "getBufferedExceedingEth()": {
        "returns": {
          "_0": "The amount of eth in the buffer"
        }
      },
      "getRedeemRequestDetails(uint32)": {
        "params": {
          "redeemRequestId": "The id of the request"
        },
        "returns": {
          "_0": "The redeem request details"
        }
      },
      "getWithdrawalEventDetails(uint32)": {
        "params": {
          "withdrawalEventId": "The id of the withdrawal event"
        },
        "returns": {
          "_0": "The withdrawal event details"
        }
      },
      "initializeRedeemManagerV1(address)": {
        "params": {
          "river": "The address of the River contract"
        }
      },
      "pullExceedingEth(uint256)": {
        "params": {
          "max": "The maximum amount that should be pulled"
        }
      },
      "reportWithdraw(uint256)": {
        "params": {
          "lsETHWithdrawable": "The amount of LsETH that can be redeemed due to this new withdraw event"
        }
      },
      "requestRedeem(uint256)": {
        "params": {
          "lsETHAmount": "The amount of LsETH to redeem"
        },
        "returns": {
          "redeemRequestId": "The id of the redeem request"
        }
      },
      "requestRedeem(uint256,address)": {
        "params": {
          "lsETHAmount": "The amount of LsETH to redeem",
          "recipient": "The recipient owning the redeem request"
        },
        "returns": {
          "redeemRequestId": "The id of the redeem request"
        }
      },
      "resolveRedeemRequests(uint32[])": {
        "details": "The result is an array of equal length with ids or error code-1 means that the request is not satisfied yet-2 means that the request is out of bounds-3 means that the request has already been claimedThis call was created to be called by an off-chain interface, the output could then be used to perform the claimRewards call in a regular transaction",
        "params": {
          "redeemRequestIds": "The list of redeem requests to resolve"
        },
        "returns": {
          "withdrawalEventIds": "The list of withdrawal events matching every redeem request (or error codes)"
        }
      }
    },
    "title": "Redeem Manager (v1)",
    "version": 1
  },
  "userdoc": {
    "errors": {
      "DoesNotMatch(uint256,uint256)": [
        {
          "notice": "Thrown when the redeem request and withdrawal event are not matching during claim"
        }
      ],
      "IncompatibleArrayLengths()": [
        {
          "notice": "Thrown when the provided arrays don't have matching lengths"
        }
      ],
      "InvalidInitialization(uint256,uint256)": [
        {
          "notice": "An error occured during the initialization"
        }
      ],
      "InvalidZeroAddress()": [
        {
          "notice": "The address is zero"
        }
      ],
      "InvalidZeroAmount()": [
        {
          "notice": "Thrown When a zero value is provided"
        }
      ],
      "RedeemRequestAlreadyClaimed(uint256)": [
        {
          "notice": "Thrown when\tthe redeem request id is already claimed"
        }
      ],
      "RedeemRequestOutOfBounds(uint256)": [
        {
          "notice": "Thrown when the provided redeem request id is out of bounds"
        }
      ],
      "TransferError()": [
        {
          "notice": "Thrown when a transfer error occured with LsETH"
        }
      ],
      "Unauthorized(address)": [
        {
          "notice": "The operator is unauthorized for the caller"
        }
      ],
      "WithdrawalEventOutOfBounds(uint256)": [
        {
          "notice": "Thrown when the withdrawal request id if out of bounds"
        }
      ]
    },
    "events": {
      "ClaimedRedeemRequest(uint32,address,uint256,uint256,uint256)": {
        "notice": "Emitted when a redeem request claim has been processed and matched at least once and funds are sent to the recipient"
      },
      "Initialize(uint256,bytes)": {
        "notice": "Emitted when the contract is properly initialized"
      },
      "ReportedWithdrawal(uint256,uint256,uint256,uint32)": {
        "notice": "Emitted when a withdrawal event is created"
      },
      "RequestedRedeem(address,uint256,uint256,uint32)": {
        "notice": "Emitted when a redeem request is created"
      },
      "SatisfiedRedeemRequest(uint32,uint32,uint256,uint256,uint256,uint256)": {
        "notice": "Emitted when a redeem request has been satisfied and filled (even partially) from a withdrawal event"
      },
      "SetRiver(address)": {
        "notice": "Emitted when the River address is set"
      }
    },
    "kind": "user",
    "methods": {
      "claimRedeemRequests(uint32[],uint32[])": {
        "notice": "Claims the rewards of the provided redeem request ids"
      },
      "claimRedeemRequests(uint32[],uint32[],bool)": {
        "notice": "Claims the rewards of the provided redeem request ids"
      },
      "getBufferedExceedingEth()": {
        "notice": "Retrieve the amount of eth available in the buffer"
      },
      "getRedeemRequestCount()": {
        "notice": "Retrieve the global count of redeem requests"
      },
      "getRedeemRequestDetails(uint32)": {
        "notice": "Retrieve the details of a specific redeem request"
      },
      "getWithdrawalEventCount()": {
        "notice": "Retrieve the global count of withdrawal events"
      },
      "getWithdrawalEventDetails(uint32)": {
        "notice": "Retrieve the details of a specific withdrawal event"
      },
      "pullExceedingEth(uint256)": {
        "notice": "Pulls exceeding buffer eth"
      },
      "reportWithdraw(uint256)": {
        "notice": "Reports a withdraw event from River"
      },
      "requestRedeem(uint256)": {
        "notice": "Creates a redeem request using msg.sender as recipient"
      },
      "requestRedeem(uint256,address)": {
        "notice": "Creates a redeem request"
      },
      "resolveRedeemRequests(uint32[])": {
        "notice": "Resolves the provided list of redeem request ids"
      }
    },
    "notice": "This contract handles the redeem requests of all users",
    "version": 1
  },
  "storageLayout": {
    "storage": [],
    "types": null
  }
}