{
  "address": "0x16BfC9f51E48880e3EF7D92809a70f4148008260",
  "abi": [
    {
      "inputs": [
        {
          "internalType": "address",
          "name": "_from",
          "type": "address"
        },
        {
          "internalType": "address",
          "name": "_operator",
          "type": "address"
        },
        {
          "internalType": "uint256",
          "name": "_allowance",
          "type": "uint256"
        },
        {
          "internalType": "uint256",
          "name": "_value",
          "type": "uint256"
        }
      ],
      "name": "AllowanceTooLow",
      "type": "error"
    },
    {
      "inputs": [],
      "name": "BalanceTooLow",
      "type": "error"
    },
    {
      "inputs": [
        {
          "internalType": "address",
          "name": "account",
          "type": "address"
        }
      ],
      "name": "Denied",
      "type": "error"
    },
    {
      "inputs": [],
      "name": "EmptyDeposit",
      "type": "error"
    },
    {
      "inputs": [],
      "name": "ErrorOnDeposit",
      "type": "error"
    },
    {
      "inputs": [],
      "name": "InconsistentPublicKeys",
      "type": "error"
    },
    {
      "inputs": [],
      "name": "InconsistentSignatures",
      "type": "error"
    },
    {
      "inputs": [],
      "name": "InvalidArgument",
      "type": "error"
    },
    {
      "inputs": [],
      "name": "InvalidCall",
      "type": "error"
    },
    {
      "inputs": [
        {
          "internalType": "uint256",
          "name": "currentValidatorsExitedBalance",
          "type": "uint256"
        },
        {
          "internalType": "uint256",
          "name": "newValidatorsExitedBalance",
          "type": "uint256"
        }
      ],
      "name": "InvalidDecreasingValidatorsExitedBalance",
      "type": "error"
    },
    {
      "inputs": [
        {
          "internalType": "uint256",
          "name": "currentValidatorsSkimmedBalance",
          "type": "uint256"
        },
        {
          "internalType": "uint256",
          "name": "newValidatorsSkimmedBalance",
          "type": "uint256"
        }
      ],
      "name": "InvalidDecreasingValidatorsSkimmedBalance",
      "type": "error"
    },
    {
      "inputs": [],
      "name": "InvalidEmptyString",
      "type": "error"
    },
    {
      "inputs": [
        {
          "internalType": "uint256",
          "name": "epoch",
          "type": "uint256"
        }
      ],
      "name": "InvalidEpoch",
      "type": "error"
    },
    {
      "inputs": [],
      "name": "InvalidFee",
      "type": "error"
    },
    {
      "inputs": [
        {
          "internalType": "uint256",
          "name": "version",
          "type": "uint256"
        },
        {
          "internalType": "uint256",
          "name": "expectedVersion",
          "type": "uint256"
        }
      ],
      "name": "InvalidInitialization",
      "type": "error"
    },
    {
      "inputs": [],
      "name": "InvalidPublicKeyCount",
      "type": "error"
    },
    {
      "inputs": [
        {
          "internalType": "uint256",
          "name": "requested",
          "type": "uint256"
        },
        {
          "internalType": "uint256",
          "name": "received",
          "type": "uint256"
        }
      ],
      "name": "InvalidPulledClFundsAmount",
      "type": "error"
    },
    {
      "inputs": [],
      "name": "InvalidSignatureCount",
      "type": "error"
    },
    {
      "inputs": [
        {
          "internalType": "uint256",
          "name": "providedValidatorCount",
          "type": "uint256"
        },
        {
          "internalType": "uint256",
          "name": "depositedValidatorCount",
          "type": "uint256"
        },
        {
          "internalType": "uint256",
          "name": "lastReportedValidatorCount",
          "type": "uint256"
        }
      ],
      "name": "InvalidValidatorCountReport",
      "type": "error"
    },
    {
      "inputs": [],
      "name": "InvalidWithdrawalCredentials",
      "type": "error"
    },
    {
      "inputs": [],
      "name": "InvalidZeroAddress",
      "type": "error"
    },
    {
      "inputs": [],
      "name": "NoAvailableValidatorKeys",
      "type": "error"
    },
    {
      "inputs": [],
      "name": "NotEnoughFunds",
      "type": "error"
    },
    {
      "inputs": [],
      "name": "NullTransfer",
      "type": "error"
    },
    {
      "inputs": [],
      "name": "SliceOutOfBounds",
      "type": "error"
    },
    {
      "inputs": [],
      "name": "SliceOverflow",
      "type": "error"
    },
    {
      "inputs": [
        {
          "internalType": "uint256",
          "name": "prevTotalEthIncludingExited",
          "type": "uint256"
        },
        {
          "internalType": "uint256",
          "name": "postTotalEthIncludingExited",
          "type": "uint256"
        },
        {
          "internalType": "uint256",
          "name": "timeElapsed",
          "type": "uint256"
        },
        {
          "internalType": "uint256",
          "name": "relativeLowerBound",
          "type": "uint256"
        }
      ],
      "name": "TotalValidatorBalanceDecreaseOutOfBound",
      "type": "error"
    },
    {
      "inputs": [
        {
          "internalType": "uint256",
          "name": "prevTotalEthIncludingExited",
          "type": "uint256"
        },
        {
          "internalType": "uint256",
          "name": "postTotalEthIncludingExited",
          "type": "uint256"
        },
        {
          "internalType": "uint256",
          "name": "timeElapsed",
          "type": "uint256"
        },
        {
          "internalType": "uint256",
          "name": "annualAprUpperBound",
          "type": "uint256"
        }
      ],
      "name": "TotalValidatorBalanceIncreaseOutOfBound",
      "type": "error"
    },
    {
      "inputs": [
        {
          "internalType": "address",
          "name": "caller",
          "type": "address"
        }
      ],
      "name": "Unauthorized",
      "type": "error"
    },
    {
      "inputs": [
        {
          "internalType": "address",
          "name": "_from",
          "type": "address"
        },
        {
          "internalType": "address",
          "name": "_to",
          "type": "address"
        }
      ],
      "name": "UnauthorizedTransfer",
      "type": "error"
    },
    {
      "inputs": [],
      "name": "ZeroMintedShares",
      "type": "error"
    },
    {
      "anonymous": false,
      "inputs": [
        {
          "indexed": true,
          "internalType": "address",
          "name": "owner",
          "type": "address"
        },
        {
          "indexed": true,
          "internalType": "address",
          "name": "spender",
          "type": "address"
        },
        {
          "indexed": false,
          "internalType": "uint256",
          "name": "value",
          "type": "uint256"
        }
      ],
      "name": "Approval",
      "type": "event"
    },
    {
      "anonymous": false,
      "inputs": [
        {
          "indexed": false,
          "internalType": "uint256",
          "name": "validatorCount",
          "type": "uint256"
        },
        {
          "indexed": false,
          "internalType": "uint256",
          "name": "validatorTotalBalance",
          "type": "uint256"
        },
        {
          "indexed": false,
          "internalType": "bytes32",
          "name": "roundId",
          "type": "bytes32"
        }
      ],
      "name": "ConsensusLayerDataUpdate",
      "type": "event"
    },
    {
      "anonymous": false,
      "inputs": [
        {
          "indexed": false,
          "internalType": "uint256",
          "name": "version",
          "type": "uint256"
        },
        {
          "indexed": false,
          "internalType": "bytes",
          "name": "cdata",
          "type": "bytes"
        }
      ],
      "name": "Initialize",
      "type": "event"
    },
    {
      "anonymous": false,
      "inputs": [
        {
          "components": [
            {
              "internalType": "uint256",
              "name": "epoch",
              "type": "uint256"
            },
            {
              "internalType": "uint256",
              "name": "validatorsBalance",
              "type": "uint256"
            },
            {
              "internalType": "uint256",
              "name": "validatorsSkimmedBalance",
              "type": "uint256"
            },
            {
              "internalType": "uint256",
              "name": "validatorsExitedBalance",
              "type": "uint256"
            },
            {
              "internalType": "uint256",
              "name": "validatorsExitingBalance",
              "type": "uint256"
            },
            {
              "internalType": "uint32",
              "name": "validatorsCount",
              "type": "uint32"
            },
            {
              "internalType": "uint32[]",
              "name": "stoppedValidatorCountPerOperator",
              "type": "uint32[]"
            },
            {
              "internalType": "bool",
              "name": "rebalanceDepositToRedeemMode",
              "type": "bool"
            },
            {
              "internalType": "bool",
              "name": "slashingContainmentMode",
              "type": "bool"
            }
          ],
          "indexed": false,
          "internalType": "struct IOracleManagerV1.ConsensusLayerReport",
          "name": "report",
          "type": "tuple"
        },
        {
          "components": [
            {
              "internalType": "uint256",
              "name": "rewards",
              "type": "uint256"
            },
            {
              "internalType": "uint256",
              "name": "pulledELFees",
              "type": "uint256"
            },
            {
              "internalType": "uint256",
              "name": "pulledRedeemManagerExceedingEthBuffer",
              "type": "uint256"
            },
            {
              "internalType": "uint256",
              "name": "pulledCoverageFunds",
              "type": "uint256"
            }
          ],
          "indexed": false,
          "internalType": "struct IOracleManagerV1.ConsensusLayerDataReportingTrace",
          "name": "trace",
          "type": "tuple"
        }
      ],
      "name": "ProcessedConsensusLayerReport",
      "type": "event"
    },
    {
      "anonymous": false,
      "inputs": [
        {
          "indexed": false,
          "internalType": "uint256",
          "name": "pulledSkimmedEthAmount",
          "type": "uint256"
        },
        {
          "indexed": false,
          "internalType": "uint256",
          "name": "pullExitedEthAmount",
          "type": "uint256"
        }
      ],
      "name": "PulledCLFunds",
      "type": "event"
    },
    {
      "anonymous": false,
      "inputs": [
        {
          "indexed": false,
          "internalType": "uint256",
          "name": "amount",
          "type": "uint256"
        }
      ],
      "name": "PulledCoverageFunds",
      "type": "event"
    },
    {
      "anonymous": false,
      "inputs": [
        {
          "indexed": false,
          "internalType": "uint256",
          "name": "amount",
          "type": "uint256"
        }
      ],
      "name": "PulledELFees",
      "type": "event"
    },
    {
      "anonymous": false,
      "inputs": [
        {
          "indexed": false,
          "internalType": "uint256",
          "name": "amount",
          "type": "uint256"
        }
      ],
      "name": "PulledRedeemManagerExceedingEth",
      "type": "event"
    },
    {
      "anonymous": false,
      "inputs": [
        {
          "indexed": false,
          "internalType": "uint256",
          "name": "redeemManagerDemand",
          "type": "uint256"
        },
        {
          "indexed": false,
          "internalType": "uint256",
          "name": "suppliedRedeemManagerDemand",
          "type": "uint256"
        },
        {
          "indexed": false,
          "internalType": "uint256",
          "name": "suppliedRedeemManagerDemandInEth",
          "type": "uint256"
        }
      ],
      "name": "ReportedRedeemManager",
      "type": "event"
    },
    {
      "anonymous": false,
      "inputs": [
        {
          "indexed": true,
          "internalType": "address",
          "name": "_collector",
          "type": "address"
        },
        {
          "indexed": false,
          "internalType": "uint256",
          "name": "_oldTotalUnderlyingBalance",
          "type": "uint256"
        },
        {
          "indexed": false,
          "internalType": "uint256",
          "name": "_oldTotalSupply",
          "type": "uint256"
        },
        {
          "indexed": false,
          "internalType": "uint256",
          "name": "_newTotalUnderlyingBalance",
          "type": "uint256"
        },
        {
          "indexed": false,
          "internalType": "uint256",
          "name": "_newTotalSupply",
          "type": "uint256"
        }
      ],
      "name": "RewardsEarned",
      "type": "event"
    },
    {
      "anonymous": false,
      "inputs": [
        {
          "indexed": true,
          "internalType": "address",
          "name": "admin",
          "type": "address"
        }
      ],
      "name": "SetAdmin",
      "type": "event"
    },
    {
      "anonymous": false,
      "inputs": [
        {
          "indexed": true,
          "internalType": "address",
          "name": "allowlist",
          "type": "address"
        }
      ],
      "name": "SetAllowlist",
      "type": "event"
    },
    {
      "anonymous": false,
      "inputs": [
        {
          "indexed": false,
          "internalType": "uint256",
          "name": "oldAmount",
          "type": "uint256"
        },
        {
          "indexed": false,
          "internalType": "uint256",
          "name": "newAmount",
          "type": "uint256"
        }
      ],
      "name": "SetBalanceCommittedToDeposit",
      "type": "event"
    },
    {
      "anonymous": false,
      "inputs": [
        {
          "indexed": false,
          "internalType": "uint256",
          "name": "oldAmount",
          "type": "uint256"
        },
        {
          "indexed": false,
          "internalType": "uint256",
          "name": "newAmount",
          "type": "uint256"
        }
      ],
      "name": "SetBalanceToDeposit",
      "type": "event"
    },
    {
      "anonymous": false,
      "inputs": [
        {
          "indexed": false,
          "internalType": "uint256",
          "name": "oldAmount",
          "type": "uint256"
        },
        {
          "indexed": false,
          "internalType": "uint256",
          "name": "newAmount",
          "type": "uint256"
        }
      ],
      "name": "SetBalanceToRedeem",
      "type": "event"
    },
    {
      "anonymous": false,
      "inputs": [
        {
          "indexed": false,
          "internalType": "uint256",
          "name": "annualAprUpperBound",
          "type": "uint256"
        },
        {
          "indexed": false,
          "internalType": "uint256",
          "name": "relativeLowerBound",
          "type": "uint256"
        }
      ],
      "name": "SetBounds",
      "type": "event"
    },
    {
      "anonymous": false,
      "inputs": [
        {
          "indexed": true,
          "internalType": "address",
          "name": "collector",
          "type": "address"
        }
      ],
      "name": "SetCollector",
      "type": "event"
    },
    {
      "anonymous": false,
      "inputs": [
        {
          "indexed": true,
          "internalType": "address",
          "name": "coverageFund",
          "type": "address"
        }
      ],
      "name": "SetCoverageFund",
      "type": "event"
    },
    {
      "anonymous": false,
      "inputs": [
        {
          "indexed": true,
          "internalType": "address",
          "name": "depositContract",
          "type": "address"
        }
      ],
      "name": "SetDepositContractAddress",
      "type": "event"
    },
    {
      "anonymous": false,
      "inputs": [
        {
          "indexed": false,
          "internalType": "uint256",
          "name": "oldDepositedValidatorCount",
          "type": "uint256"
        },
        {
          "indexed": false,
          "internalType": "uint256",
          "name": "newDepositedValidatorCount",
          "type": "uint256"
        }
      ],
      "name": "SetDepositedValidatorCount",
      "type": "event"
    },
    {
      "anonymous": false,
      "inputs": [
        {
          "indexed": true,
          "internalType": "address",
          "name": "elFeeRecipient",
          "type": "address"
        }
      ],
      "name": "SetELFeeRecipient",
      "type": "event"
    },
    {
      "anonymous": false,
      "inputs": [
        {
          "indexed": false,
          "internalType": "uint256",
          "name": "fee",
          "type": "uint256"
        }
      ],
      "name": "SetGlobalFee",
      "type": "event"
    },
    {
      "anonymous": false,
      "inputs": [
        {
          "indexed": false,
          "internalType": "uint256",
          "name": "minNetAmount",
          "type": "uint256"
        },
        {
          "indexed": false,
          "internalType": "uint256",
          "name": "maxRelativeAmount",
          "type": "uint256"
        }
      ],
      "name": "SetMaxDailyCommittableAmounts",
      "type": "event"
    },
    {
      "anonymous": false,
      "inputs": [
        {
          "indexed": false,
          "internalType": "string",
          "name": "metadataURI",
          "type": "string"
        }
      ],
      "name": "SetMetadataURI",
      "type": "event"
    },
    {
      "anonymous": false,
      "inputs": [
        {
          "indexed": true,
          "internalType": "address",
          "name": "operatorRegistry",
          "type": "address"
        }
      ],
      "name": "SetOperatorsRegistry",
      "type": "event"
    },
    {
      "anonymous": false,
      "inputs": [
        {
          "indexed": true,
          "internalType": "address",
          "name": "oracleAddress",
          "type": "address"
        }
      ],
      "name": "SetOracle",
      "type": "event"
    },
    {
      "anonymous": false,
      "inputs": [
        {
          "indexed": true,
          "internalType": "address",
          "name": "pendingAdmin",
          "type": "address"
        }
      ],
      "name": "SetPendingAdmin",
      "type": "event"
    },
    {
      "anonymous": false,
      "inputs": [
        {
          "indexed": false,
          "internalType": "address",
          "name": "redeemManager",
          "type": "address"
        }
      ],
      "name": "SetRedeemManager",
      "type": "event"
    },
    {
      "anonymous": false,
      "inputs": [
        {
          "indexed": false,
          "internalType": "uint64",
          "name": "epochsPerFrame",
          "type": "uint64"
        },
        {
          "indexed": false,
          "internalType": "uint64",
          "name": "slotsPerEpoch",
          "type": "uint64"
        },
        {
          "indexed": false,
          "internalType": "uint64",
          "name": "secondsPerSlot",
          "type": "uint64"
        },
        {
          "indexed": false,
          "internalType": "uint64",
          "name": "genesisTime",
          "type": "uint64"
        },
        {
          "indexed": false,
          "internalType": "uint64",
          "name": "epochsToAssumedFinality",
          "type": "uint64"
        }
      ],
      "name": "SetSpec",
      "type": "event"
    },
    {
      "anonymous": false,
      "inputs": [
        {
          "indexed": false,
          "internalType": "uint256",
          "name": "totalSupply",
          "type": "uint256"
        }
      ],
      "name": "SetTotalSupply",
      "type": "event"
    },
    {
      "anonymous": false,
      "inputs": [
        {
          "indexed": false,
          "internalType": "bytes32",
          "name": "withdrawalCredentials",
          "type": "bytes32"
        }
      ],
      "name": "SetWithdrawalCredentials",
      "type": "event"
    },
    {
      "anonymous": false,
      "inputs": [
        {
          "indexed": true,
          "internalType": "address",
          "name": "from",
          "type": "address"
        },
        {
          "indexed": true,
          "internalType": "address",
          "name": "to",
          "type": "address"
        },
        {
          "indexed": false,
          "internalType": "uint256",
          "name": "value",
          "type": "uint256"
        }
      ],
      "name": "Transfer",
      "type": "event"
    },
    {
      "anonymous": false,
      "inputs": [
        {
          "indexed": true,
          "internalType": "address",
          "name": "depositor",
          "type": "address"
        },
        {
          "indexed": true,
          "internalType": "address",
          "name": "recipient",
          "type": "address"
        },
        {
          "indexed": false,
          "internalType": "uint256",
          "name": "amount",
          "type": "uint256"
        }
      ],
      "name": "UserDeposit",
      "type": "event"
    },
    {
      "stateMutability": "payable",
      "type": "fallback"
    },
    {
      "inputs": [],
      "name": "DEPOSIT_SIZE",
      "outputs": [
        {
          "internalType": "uint256",
          "name": "",
          "type": "uint256"
        }
      ],
      "stateMutability": "view",
      "type": "function"
    },
    {
      "inputs": [],
      "name": "PUBLIC_KEY_LENGTH",
      "outputs": [
        {
          "internalType": "uint256",
          "name": "",
          "type": "uint256"
        }
      ],
      "stateMutability": "view",
      "type": "function"
    },
    {
      "inputs": [],
      "name": "SIGNATURE_LENGTH",
      "outputs": [
        {
          "internalType": "uint256",
          "name": "",
          "type": "uint256"
        }
      ],
      "stateMutability": "view",
      "type": "function"
    },
    {
      "inputs": [],
      "name": "_DEPOSIT_SIZE",
      "outputs": [
        {
          "internalType": "uint256",
          "name": "",
          "type": "uint256"
        }
      ],
      "stateMutability": "view",
      "type": "function"
    },
    {
      "inputs": [],
      "name": "acceptAdmin",
      "outputs": [],
      "stateMutability": "nonpayable",
      "type": "function"
    },
    {
      "inputs": [
        {
          "internalType": "address",
          "name": "_owner",
          "type": "address"
        },
        {
          "internalType": "address",
          "name": "_spender",
          "type": "address"
        }
      ],
      "name": "allowance",
      "outputs": [
        {
          "internalType": "uint256",
          "name": "",
          "type": "uint256"
        }
      ],
      "stateMutability": "view",
      "type": "function"
    },
    {
      "inputs": [
        {
          "internalType": "address",
          "name": "_spender",
          "type": "address"
        },
        {
          "internalType": "uint256",
          "name": "_value",
          "type": "uint256"
        }
      ],
      "name": "approve",
      "outputs": [
        {
          "internalType": "bool",
          "name": "",
          "type": "bool"
        }
      ],
      "stateMutability": "nonpayable",
      "type": "function"
    },
    {
      "inputs": [
        {
          "internalType": "address",
          "name": "_owner",
          "type": "address"
        }
      ],
      "name": "balanceOf",
      "outputs": [
        {
          "internalType": "uint256",
          "name": "",
          "type": "uint256"
        }
      ],
      "stateMutability": "view",
      "type": "function"
    },
    {
      "inputs": [
        {
          "internalType": "address",
          "name": "_owner",
          "type": "address"
        }
      ],
      "name": "balanceOfUnderlying",
      "outputs": [
        {
          "internalType": "uint256",
          "name": "",
          "type": "uint256"
        }
      ],
      "stateMutability": "view",
      "type": "function"
    },
    {
      "inputs": [
        {
          "internalType": "uint32[]",
          "name": "_redeemRequestIds",
          "type": "uint32[]"
        },
        {
          "internalType": "uint32[]",
          "name": "_withdrawalEventIds",
          "type": "uint32[]"
        }
      ],
      "name": "claimRedeemRequests",
      "outputs": [
        {
          "internalType": "uint8[]",
          "name": "claimStatuses",
          "type": "uint8[]"
        }
      ],
      "stateMutability": "nonpayable",
      "type": "function"
    },
    {
      "inputs": [],
      "name": "decimals",
      "outputs": [
        {
          "internalType": "uint8",
          "name": "",
          "type": "uint8"
        }
      ],
      "stateMutability": "pure",
      "type": "function"
    },
    {
      "inputs": [
        {
          "internalType": "address",
          "name": "_spender",
          "type": "address"
        },
        {
          "internalType": "uint256",
          "name": "_subtractableValue",
          "type": "uint256"
        }
      ],
      "name": "decreaseAllowance",
      "outputs": [
        {
          "internalType": "bool",
          "name": "",
          "type": "bool"
        }
      ],
      "stateMutability": "nonpayable",
      "type": "function"
    },
    {
      "inputs": [],
      "name": "deposit",
      "outputs": [],
      "stateMutability": "payable",
      "type": "function"
    },
    {
      "inputs": [
        {
          "internalType": "address",
          "name": "_recipient",
          "type": "address"
        }
      ],
      "name": "depositAndTransfer",
      "outputs": [],
      "stateMutability": "payable",
      "type": "function"
    },
    {
      "inputs": [
        {
          "internalType": "uint256",
          "name": "_maxCount",
          "type": "uint256"
        }
      ],
      "name": "depositToConsensusLayer",
      "outputs": [],
      "stateMutability": "nonpayable",
      "type": "function"
    },
    {
      "inputs": [],
      "name": "getAdmin",
      "outputs": [
        {
          "internalType": "address",
          "name": "",
          "type": "address"
        }
      ],
      "stateMutability": "view",
      "type": "function"
    },
    {
      "inputs": [],
      "name": "getAllowlist",
      "outputs": [
        {
          "internalType": "address",
          "name": "",
          "type": "address"
        }
      ],
      "stateMutability": "view",
      "type": "function"
    },
    {
      "inputs": [],
      "name": "getBalanceToDeposit",
      "outputs": [
        {
          "internalType": "uint256",
          "name": "",
          "type": "uint256"
        }
      ],
      "stateMutability": "view",
      "type": "function"
    },
    {
      "inputs": [],
      "name": "getBalanceToRedeem",
      "outputs": [
        {
          "internalType": "uint256",
          "name": "",
          "type": "uint256"
        }
      ],
      "stateMutability": "view",
      "type": "function"
    },
    {
      "inputs": [],
      "name": "getCLSpec",
      "outputs": [
        {
          "components": [
            {
              "internalType": "uint64",
              "name": "epochsPerFrame",
              "type": "uint64"
            },
            {
              "internalType": "uint64",
              "name": "slotsPerEpoch",
              "type": "uint64"
            },
            {
              "internalType": "uint64",
              "name": "secondsPerSlot",
              "type": "uint64"
            },
            {
              "internalType": "uint64",
              "name": "genesisTime",
              "type": "uint64"
            },
            {
              "internalType": "uint64",
              "name": "epochsToAssumedFinality",
              "type": "uint64"
            }
          ],
          "internalType": "struct CLSpec.CLSpecStruct",
          "name": "",
          "type": "tuple"
        }
      ],
      "stateMutability": "view",
      "type": "function"
    },
    {
      "inputs": [],
      "name": "getCLValidatorCount",
      "outputs": [
        {
          "internalType": "uint256",
          "name": "",
          "type": "uint256"
        }
      ],
      "stateMutability": "view",
      "type": "function"
    },
    {
      "inputs": [],
      "name": "getCLValidatorTotalBalance",
      "outputs": [
        {
          "internalType": "uint256",
          "name": "",
          "type": "uint256"
        }
      ],
      "stateMutability": "view",
      "type": "function"
    },
    {
      "inputs": [],
      "name": "getCollector",
      "outputs": [
        {
          "internalType": "address",
          "name": "",
          "type": "address"
        }
      ],
      "stateMutability": "view",
      "type": "function"
    },
    {
      "inputs": [],
      "name": "getCommittedBalance",
      "outputs": [
        {
          "internalType": "uint256",
          "name": "",
          "type": "uint256"
        }
      ],
      "stateMutability": "view",
      "type": "function"
    },
    {
      "inputs": [],
      "name": "getCoverageFund",
      "outputs": [
        {
          "internalType": "address",
          "name": "",
          "type": "address"
        }
      ],
      "stateMutability": "view",
      "type": "function"
    },
    {
      "inputs": [],
      "name": "getCurrentEpochId",
      "outputs": [
        {
          "internalType": "uint256",
          "name": "",
          "type": "uint256"
        }
      ],
      "stateMutability": "view",
      "type": "function"
    },
    {
      "inputs": [],
      "name": "getCurrentFrame",
      "outputs": [
        {
          "internalType": "uint256",
          "name": "_startEpochId",
          "type": "uint256"
        },
        {
          "internalType": "uint256",
          "name": "_startTime",
          "type": "uint256"
        },
        {
          "internalType": "uint256",
          "name": "_endTime",
          "type": "uint256"
        }
      ],
      "stateMutability": "view",
      "type": "function"
    },
    {
      "inputs": [],
      "name": "getDailyCommittableLimits",
      "outputs": [
        {
          "components": [
            {
              "internalType": "uint128",
              "name": "minDailyNetCommittableAmount",
              "type": "uint128"
            },
            {
              "internalType": "uint128",
              "name": "maxDailyRelativeCommittableAmount",
              "type": "uint128"
            }
          ],
          "internalType": "struct DailyCommittableLimits.DailyCommittableLimitsStruct",
          "name": "",
          "type": "tuple"
        }
      ],
      "stateMutability": "view",
      "type": "function"
    },
    {
      "inputs": [],
      "name": "getDepositedValidatorCount",
      "outputs": [
        {
          "internalType": "uint256",
          "name": "",
          "type": "uint256"
        }
      ],
      "stateMutability": "view",
      "type": "function"
    },
    {
      "inputs": [],
      "name": "getELFeeRecipient",
      "outputs": [
        {
          "internalType": "address",
          "name": "",
          "type": "address"
        }
      ],
      "stateMutability": "view",
      "type": "function"
    },
    {
      "inputs": [],
      "name": "getExpectedEpochId",
      "outputs": [
        {
          "internalType": "uint256",
          "name": "",
          "type": "uint256"
        }
      ],
      "stateMutability": "view",
      "type": "function"
    },
    {
      "inputs": [
        {
          "internalType": "uint256",
          "name": "_epochId",
          "type": "uint256"
        }
      ],
      "name": "getFrameFirstEpochId",
      "outputs": [
        {
          "internalType": "uint256",
          "name": "",
          "type": "uint256"
        }
      ],
      "stateMutability": "view",
      "type": "function"
    },
    {
      "inputs": [],
      "name": "getGlobalFee",
      "outputs": [
        {
          "internalType": "uint256",
          "name": "",
          "type": "uint256"
        }
      ],
      "stateMutability": "view",
      "type": "function"
    },
    {
      "inputs": [],
      "name": "getLastCompletedEpochId",
      "outputs": [
        {
          "internalType": "uint256",
          "name": "",
          "type": "uint256"
        }
      ],
      "stateMutability": "view",
      "type": "function"
    },
    {
      "inputs": [],
      "name": "getLastConsensusLayerReport",
      "outputs": [
        {
          "components": [
            {
              "internalType": "uint256",
              "name": "epoch",
              "type": "uint256"
            },
            {
              "internalType": "uint256",
              "name": "validatorsBalance",
              "type": "uint256"
            },
            {
              "internalType": "uint256",
              "name": "validatorsSkimmedBalance",
              "type": "uint256"
            },
            {
              "internalType": "uint256",
              "name": "validatorsExitedBalance",
              "type": "uint256"
            },
            {
              "internalType": "uint256",
              "name": "validatorsExitingBalance",
              "type": "uint256"
            },
            {
              "internalType": "uint32",
              "name": "validatorsCount",
              "type": "uint32"
            },
            {
              "internalType": "bool",
              "name": "rebalanceDepositToRedeemMode",
              "type": "bool"
            },
            {
              "internalType": "bool",
              "name": "slashingContainmentMode",
              "type": "bool"
            }
          ],
          "internalType": "struct IOracleManagerV1.StoredConsensusLayerReport",
          "name": "",
          "type": "tuple"
        }
      ],
      "stateMutability": "view",
      "type": "function"
    },
    {
      "inputs": [],
      "name": "getMetadataURI",
      "outputs": [
        {
          "internalType": "string",
          "name": "",
          "type": "string"
        }
      ],
      "stateMutability": "view",
      "type": "function"
    },
    {
      "inputs": [],
      "name": "getOperatorsRegistry",
      "outputs": [
        {
          "internalType": "address",
          "name": "",
          "type": "address"
        }
      ],
      "stateMutability": "view",
      "type": "function"
    },
    {
      "inputs": [],
      "name": "getOracle",
      "outputs": [
        {
          "internalType": "address",
          "name": "",
          "type": "address"
        }
      ],
      "stateMutability": "view",
      "type": "function"
    },
    {
      "inputs": [],
      "name": "getPendingAdmin",
      "outputs": [
        {
          "internalType": "address",
          "name": "",
          "type": "address"
        }
      ],
      "stateMutability": "view",
      "type": "function"
    },
    {
      "inputs": [],
      "name": "getRedeemManager",
      "outputs": [
        {
          "internalType": "address",
          "name": "",
          "type": "address"
        }
      ],
      "stateMutability": "view",
      "type": "function"
    },
    {
      "inputs": [],
      "name": "getReportBounds",
      "outputs": [
        {
          "components": [
            {
              "internalType": "uint256",
              "name": "annualAprUpperBound",
              "type": "uint256"
            },
            {
              "internalType": "uint256",
              "name": "relativeLowerBound",
              "type": "uint256"
            }
          ],
          "internalType": "struct ReportBounds.ReportBoundsStruct",
          "name": "",
          "type": "tuple"
        }
      ],
      "stateMutability": "view",
      "type": "function"
    },
    {
      "inputs": [],
      "name": "getTime",
      "outputs": [
        {
          "internalType": "uint256",
          "name": "",
          "type": "uint256"
        }
      ],
      "stateMutability": "view",
      "type": "function"
    },
    {
      "inputs": [],
      "name": "getWithdrawalCredentials",
      "outputs": [
        {
          "internalType": "bytes32",
          "name": "",
          "type": "bytes32"
        }
      ],
      "stateMutability": "view",
      "type": "function"
    },
    {
      "inputs": [
        {
          "internalType": "address",
          "name": "_spender",
          "type": "address"
        },
        {
          "internalType": "uint256",
          "name": "_additionalValue",
          "type": "uint256"
        }
      ],
      "name": "increaseAllowance",
      "outputs": [
        {
          "internalType": "bool",
          "name": "",
          "type": "bool"
        }
      ],
      "stateMutability": "nonpayable",
      "type": "function"
    },
    {
      "inputs": [
        {
          "internalType": "address",
          "name": "_depositContractAddress",
          "type": "address"
        },
        {
          "internalType": "address",
          "name": "_elFeeRecipientAddress",
          "type": "address"
        },
        {
          "internalType": "bytes32",
          "name": "_withdrawalCredentials",
          "type": "bytes32"
        },
        {
          "internalType": "address",
          "name": "_oracleAddress",
          "type": "address"
        },
        {
          "internalType": "address",
          "name": "_systemAdministratorAddress",
          "type": "address"
        },
        {
          "internalType": "address",
          "name": "_allowlistAddress",
          "type": "address"
        },
        {
          "internalType": "address",
          "name": "_operatorRegistryAddress",
          "type": "address"
        },
        {
          "internalType": "address",
          "name": "_collectorAddress",
          "type": "address"
        },
        {
          "internalType": "uint256",
          "name": "_globalFee",
          "type": "uint256"
        }
      ],
      "name": "initRiverV1",
      "outputs": [],
      "stateMutability": "nonpayable",
      "type": "function"
    },
    {
      "inputs": [
        {
          "internalType": "address",
          "name": "_redeemManager",
          "type": "address"
        },
        {
          "internalType": "uint64",
          "name": "_epochsPerFrame",
          "type": "uint64"
        },
        {
          "internalType": "uint64",
          "name": "_slotsPerEpoch",
          "type": "uint64"
        },
        {
          "internalType": "uint64",
          "name": "_secondsPerSlot",
          "type": "uint64"
        },
        {
          "internalType": "uint64",
          "name": "_genesisTime",
          "type": "uint64"
        },
        {
          "internalType": "uint64",
          "name": "_epochsToAssumedFinality",
          "type": "uint64"
        },
        {
          "internalType": "uint256",
          "name": "_annualAprUpperBound",
          "type": "uint256"
        },
        {
          "internalType": "uint256",
          "name": "_relativeLowerBound",
          "type": "uint256"
        },
        {
          "internalType": "uint128",
          "name": "_minDailyNetCommittableAmount_",
          "type": "uint128"
        },
        {
          "internalType": "uint128",
          "name": "_maxDailyRelativeCommittableAmount_",
          "type": "uint128"
        }
      ],
      "name": "initRiverV1_1",
      "outputs": [],
      "stateMutability": "nonpayable",
      "type": "function"
    },
    {
      "inputs": [
        {
          "internalType": "uint256",
          "name": "_epoch",
          "type": "uint256"
        }
      ],
      "name": "isValidEpoch",
      "outputs": [
        {
          "internalType": "bool",
          "name": "",
          "type": "bool"
        }
      ],
      "stateMutability": "view",
      "type": "function"
    },
    {
      "inputs": [],
      "name": "name",
      "outputs": [
        {
          "internalType": "string",
          "name": "",
          "type": "string"
        }
      ],
      "stateMutability": "pure",
      "type": "function"
    },
    {
      "inputs": [
        {
          "internalType": "address",
          "name": "_newAdmin",
          "type": "address"
        }
      ],
      "name": "proposeAdmin",
      "outputs": [],
      "stateMutability": "nonpayable",
      "type": "function"
    },
    {
      "inputs": [
        {
          "internalType": "uint256",
          "name": "_lsETHAmount",
          "type": "uint256"
        },
        {
          "internalType": "address",
          "name": "_recipient",
          "type": "address"
        }
      ],
      "name": "requestRedeem",
      "outputs": [
        {
          "internalType": "uint32",
          "name": "_redeemRequestId",
          "type": "uint32"
        }
      ],
      "stateMutability": "nonpayable",
      "type": "function"
    },
    {
      "inputs": [
        {
          "internalType": "uint32[]",
          "name": "_redeemRequestIds",
          "type": "uint32[]"
        }
      ],
      "name": "resolveRedeemRequests",
      "outputs": [
        {
          "internalType": "int64[]",
          "name": "withdrawalEventIds",
          "type": "int64[]"
        }
      ],
      "stateMutability": "view",
      "type": "function"
    },
    {
      "inputs": [],
      "name": "sendCLFunds",
      "outputs": [],
      "stateMutability": "payable",
      "type": "function"
    },
    {
      "inputs": [],
      "name": "sendCoverageFunds",
      "outputs": [],
      "stateMutability": "payable",
      "type": "function"
    },
    {
      "inputs": [],
      "name": "sendELFees",
      "outputs": [],
      "stateMutability": "payable",
      "type": "function"
    },
    {
      "inputs": [],
      "name": "sendRedeemManagerExceedingFunds",
      "outputs": [],
      "stateMutability": "payable",
      "type": "function"
    },
    {
      "inputs": [
        {
          "internalType": "address",
          "name": "_newAllowlist",
          "type": "address"
        }
      ],
      "name": "setAllowlist",
      "outputs": [],
      "stateMutability": "nonpayable",
      "type": "function"
    },
    {
      "inputs": [
        {
          "components": [
            {
              "internalType": "uint64",
              "name": "epochsPerFrame",
              "type": "uint64"
            },
            {
              "internalType": "uint64",
              "name": "slotsPerEpoch",
              "type": "uint64"
            },
            {
              "internalType": "uint64",
              "name": "secondsPerSlot",
              "type": "uint64"
            },
            {
              "internalType": "uint64",
              "name": "genesisTime",
              "type": "uint64"
            },
            {
              "internalType": "uint64",
              "name": "epochsToAssumedFinality",
              "type": "uint64"
            }
          ],
          "internalType": "struct CLSpec.CLSpecStruct",
          "name": "_newValue",
          "type": "tuple"
        }
      ],
      "name": "setCLSpec",
      "outputs": [],
      "stateMutability": "nonpayable",
      "type": "function"
    },
    {
      "inputs": [
        {
          "internalType": "address",
          "name": "_newCollector",
          "type": "address"
        }
      ],
      "name": "setCollector",
      "outputs": [],
      "stateMutability": "nonpayable",
      "type": "function"
    },
    {
      "inputs": [
        {
          "components": [
            {
              "internalType": "uint256",
              "name": "epoch",
              "type": "uint256"
            },
            {
              "internalType": "uint256",
              "name": "validatorsBalance",
              "type": "uint256"
            },
            {
              "internalType": "uint256",
              "name": "validatorsSkimmedBalance",
              "type": "uint256"
            },
            {
              "internalType": "uint256",
              "name": "validatorsExitedBalance",
              "type": "uint256"
            },
            {
              "internalType": "uint256",
              "name": "validatorsExitingBalance",
              "type": "uint256"
            },
            {
              "internalType": "uint32",
              "name": "validatorsCount",
              "type": "uint32"
            },
            {
              "internalType": "uint32[]",
              "name": "stoppedValidatorCountPerOperator",
              "type": "uint32[]"
            },
            {
              "internalType": "bool",
              "name": "rebalanceDepositToRedeemMode",
              "type": "bool"
            },
            {
              "internalType": "bool",
              "name": "slashingContainmentMode",
              "type": "bool"
            }
          ],
          "internalType": "struct IOracleManagerV1.ConsensusLayerReport",
          "name": "_report",
          "type": "tuple"
        }
      ],
      "name": "setConsensusLayerData",
      "outputs": [],
      "stateMutability": "nonpayable",
      "type": "function"
    },
    {
      "inputs": [
        {
          "internalType": "address",
          "name": "_newCoverageFund",
          "type": "address"
        }
      ],
      "name": "setCoverageFund",
      "outputs": [],
      "stateMutability": "nonpayable",
      "type": "function"
    },
    {
      "inputs": [
        {
          "components": [
            {
              "internalType": "uint128",
              "name": "minDailyNetCommittableAmount",
              "type": "uint128"
            },
            {
              "internalType": "uint128",
              "name": "maxDailyRelativeCommittableAmount",
              "type": "uint128"
            }
          ],
          "internalType": "struct DailyCommittableLimits.DailyCommittableLimitsStruct",
          "name": "_dcl",
          "type": "tuple"
        }
      ],
      "name": "setDailyCommittableLimits",
      "outputs": [],
      "stateMutability": "nonpayable",
      "type": "function"
    },
    {
      "inputs": [
        {
          "internalType": "address",
          "name": "_newELFeeRecipient",
          "type": "address"
        }
      ],
      "name": "setELFeeRecipient",
      "outputs": [],
      "stateMutability": "nonpayable",
      "type": "function"
    },
    {
      "inputs": [
        {
          "internalType": "uint256",
          "name": "_newFee",
          "type": "uint256"
        }
      ],
      "name": "setGlobalFee",
      "outputs": [],
      "stateMutability": "nonpayable",
      "type": "function"
    },
    {
      "inputs": [
        {
          "internalType": "string",
          "name": "_metadataURI",
          "type": "string"
        }
      ],
      "name": "setMetadataURI",
      "outputs": [],
      "stateMutability": "nonpayable",
      "type": "function"
    },
    {
      "inputs": [
        {
          "internalType": "address",
          "name": "_oracleAddress",
          "type": "address"
        }
      ],
      "name": "setOracle",
      "outputs": [],
      "stateMutability": "nonpayable",
      "type": "function"
    },
    {
      "inputs": [
        {
          "components": [
            {
              "internalType": "uint256",
              "name": "annualAprUpperBound",
              "type": "uint256"
            },
            {
              "internalType": "uint256",
              "name": "relativeLowerBound",
              "type": "uint256"
            }
          ],
          "internalType": "struct ReportBounds.ReportBoundsStruct",
          "name": "_newValue",
          "type": "tuple"
        }
      ],
      "name": "setReportBounds",
      "outputs": [],
      "stateMutability": "nonpayable",
      "type": "function"
    },
    {
      "inputs": [
        {
          "internalType": "uint256",
          "name": "_underlyingAssetAmount",
          "type": "uint256"
        }
      ],
      "name": "sharesFromUnderlyingBalance",
      "outputs": [
        {
          "internalType": "uint256",
          "name": "",
          "type": "uint256"
        }
      ],
      "stateMutability": "view",
      "type": "function"
    },
    {
      "inputs": [],
      "name": "symbol",
      "outputs": [
        {
          "internalType": "string",
          "name": "",
          "type": "string"
        }
      ],
      "stateMutability": "pure",
      "type": "function"
    },
    {
      "inputs": [],
      "name": "totalSupply",
      "outputs": [
        {
          "internalType": "uint256",
          "name": "",
          "type": "uint256"
        }
      ],
      "stateMutability": "view",
      "type": "function"
    },
    {
      "inputs": [],
      "name": "totalUnderlyingSupply",
      "outputs": [
        {
          "internalType": "uint256",
          "name": "",
          "type": "uint256"
        }
      ],
      "stateMutability": "view",
      "type": "function"
    },
    {
      "inputs": [
        {
          "internalType": "address",
          "name": "_to",
          "type": "address"
        },
        {
          "internalType": "uint256",
          "name": "_value",
          "type": "uint256"
        }
      ],
      "name": "transfer",
      "outputs": [
        {
          "internalType": "bool",
          "name": "",
          "type": "bool"
        }
      ],
      "stateMutability": "nonpayable",
      "type": "function"
    },
    {
      "inputs": [
        {
          "internalType": "address",
          "name": "_from",
          "type": "address"
        },
        {
          "internalType": "address",
          "name": "_to",
          "type": "address"
        },
        {
          "internalType": "uint256",
          "name": "_value",
          "type": "uint256"
        }
      ],
      "name": "transferFrom",
      "outputs": [
        {
          "internalType": "bool",
          "name": "",
          "type": "bool"
        }
      ],
      "stateMutability": "nonpayable",
      "type": "function"
    },
    {
      "inputs": [
        {
          "internalType": "uint256",
          "name": "_shares",
          "type": "uint256"
        }
      ],
      "name": "underlyingBalanceFromShares",
      "outputs": [
        {
          "internalType": "uint256",
          "name": "",
          "type": "uint256"
        }
      ],
      "stateMutability": "view",
      "type": "function"
    },
    {
      "stateMutability": "payable",
      "type": "receive"
    }
  ],
  "transactionHash": "0x2a1abd073fb1da91fea73e6361f4fcde8269fbfeb73f53a7e02942107345057e",
  "args": [],
  "numDeployments": 1,
  "solcInputHash": "34809fcc019ffc63dbbe04d139c52d63",
  "bytecode": "0x60806040523480156200001157600080fd5b506200002a6000196200007060201b620024b61760201c565b7f1809e49bba43f2d39fa57894b50cd6ccb428cc438230e065cac3eb24a1355a716000196000366040516200006293929190620000bd565b60405180910390a162000119565b620000b6620000a160017f82055909238c0f5e63d6f174068ebb8f51bcec9bd37de63bb68f6551feec0cfd620000f3565b60001b82620000b960201b620024e91760201c565b50565b9055565b83815260406020820152816040820152818360608301376000818301606090810191909152601f909201601f1916010192915050565b6000828210156200011457634e487b7160e01b600052601160045260246000fd5b500390565b615fbd80620001296000396000f3fe6080604052600436106103ba5760003560e01c80635d95e801116101f9578063a29a839f1161011e578063d4970524116100b6578063efd668461161007a578063efd6684614610c07578063f79c3f0214610c27578063f9f95a9014610c47578063fb5b82d014610c67578063fe7c12ae14610c87576103ca565b8063d497052414610b9b578063d7f8f47414610790578063dd62ed3e14610ba3578063e3a88e6114610bc3578063efd6034714610bff576103ca565b8063a29a839f14610acc578063a457c2d714610ae1578063a9059cbb14610b01578063ac232bde14610b21578063bb6583ec14610b34578063bf15af5614610b54578063c5eff3d014610b69578063d046815614610b7e578063d0e30db014610b93576103ca565b80637adbf973116101915780637adbf973146109b8578063833b1fce146109d857806386a92af7146109ed57806387f2adfb14610a0257806389896aef14610a175780639332525d14610a2c57806395d89b4114610a595780639b498e2614610a875780639d49cca114610a9c576103ca565b80635d95e801146108a95780635f2e5f07146108b157806363f62aaf146108de5780636e9960c3146108f357806370a082311461090857806372f79b1314610928578063750521f51461095857806378a010e814610978578063799a195414610998576103ca565b806323b872dd116102df5780633af9e669116102775780633af9e669146107cd57806346425ef0146107ed5780634b47b74f146108025780635022820114610817578063540bc5ea1461082c578063557ed1ba14610841578063563967151461085457806357fa85471461086957806358bf3c7f14610889576103ca565b806323b872dd14610686578063281a3122146106a6578063291206f6146106c65780632cb562e1146106e65780632d6b59bf146106fb5780632dc5c97c14610710578063313ce5671461077457806336bf33251461079057806339509351146107ad576103ca565b80631311cf8d116103525780631311cf8d1461052557806313d86aed14610545578063143a08d414610565578063147bf6c41461057a5780631546962b1461059a57806315ca4cee146105bc57806317e64858146105dc57806318160ddd1461065c5780631bcbfaba14610671576103ca565b8063020f086e146103e35780630407de471461040357806304843a1714610423578063056850c61461044b57806306fdde0314610453578063095ea7b3146104965780630e18b681146104c6578063107703ab146104db578063107d7fa014610510576103ca565b366103ca576103c833610c9c565b005b60405163574b16a760e11b815260040160405180910390fd5b3480156103ef57600080fd5b506103c86103fe366004615051565b610d23565b34801561040f57600080fd5b506103c861041e36600461509a565b610da7565b34801561042f57600080fd5b50610438610ec9565b6040519081526020015b60405180910390f35b6103c8610ed8565b34801561045f57600080fd5b50604080518082019091526011815270098d2e2ead2c840a6e8c2d6cac8408aa89607b1b60208201525b604051610442919061519e565b3480156104a257600080fd5b506104b66104b13660046151b1565b610f15565b6040519015158152602001610442565b3480156104d257600080fd5b506103c8610f2b565b3480156104e757600080fd5b506104fb6104f63660046151db565b610f80565b60405163ffffffff9091168152602001610442565b34801561051c57600080fd5b50610438611078565b34801561053157600080fd5b506103c8610540366004615051565b611091565b34801561055157600080fd5b506103c8610560366004615207565b61110c565b34801561057157600080fd5b506104386112b4565b34801561058657600080fd5b506103c8610595366004615051565b6112be565b3480156105a657600080fd5b506105af611305565b6040516104429190615220565b3480156105c857600080fd5b506103c86105d7366004615234565b61130f565b3480156105e857600080fd5b506105f16113a2565b6040516104429190600061010082019050825182526020830151602083015260408301516040830152606083015160608301526080830151608083015263ffffffff60a08401511660a083015260c0830151151560c083015260e0830151151560e083015292915050565b34801561066857600080fd5b50610438611425565b34801561067d57600080fd5b5061043861142f565b34801561069257600080fd5b506104b66106a1366004615246565b611439565b3480156106b257600080fd5b506103c86106c1366004615282565b6114ec565b3480156106d257600080fd5b506103c86106e1366004615207565b6116a7565b3480156106f257600080fd5b506105af61171b565b34801561070757600080fd5b50610438611725565b34801561071c57600080fd5b5061072561172f565b604051610442919081516001600160401b039081168252602080840151821690830152604080840151821690830152606080840151821690830152608092830151169181019190915260a00190565b34801561078057600080fd5b5060405160128152602001610442565b34801561079c57600080fd5b506104386801bc16d674ec80000081565b3480156107b957600080fd5b506104b66107c83660046151b1565b61173f565b3480156107d957600080fd5b506104386107e8366004615051565b611760565b3480156107f957600080fd5b50610438611779565b34801561080e57600080fd5b5061043861178c565b34801561082357600080fd5b506105af6117f5565b34801561083857600080fd5b50610438606081565b34801561084d57600080fd5b5042610438565b34801561086057600080fd5b506104386117ff565b34801561087557600080fd5b50610438610884366004615207565b611809565b34801561089557600080fd5b506103c86108a4366004615051565b611831565b6103c86118ac565b3480156108bd57600080fd5b506108d16108cc366004615367565b6118b4565b60405161044291906153a8565b3480156108ea57600080fd5b506105af611930565b3480156108ff57600080fd5b506105af61193a565b34801561091457600080fd5b50610438610923366004615051565b611944565b34801561093457600080fd5b5061093d61194f565b60408051938452602084019290925290820152606001610442565b34801561096457600080fd5b506103c8610973366004615484565b611a1f565b34801561098457600080fd5b506103c8610993366004615503565b611a9b565b3480156109a457600080fd5b506104386109b3366004615207565b611b6c565b3480156109c457600080fd5b506103c86109d3366004615051565b611b77565b3480156109e457600080fd5b506105af611bf2565b3480156109f957600080fd5b50610489611bfc565b348015610a0e57600080fd5b50610438611c06565b348015610a2357600080fd5b50610438611c10565b348015610a3857600080fd5b50610a4c610a47366004615515565b611c20565b6040516104429190615580565b348015610a6557600080fd5b50604080518082019091526005815264098e68aa8960db1b6020820152610489565b348015610a9357600080fd5b506105af611cb2565b348015610aa857600080fd5b50610ab1611cbc565b60408051825181526020928301519281019290925201610442565b348015610ad857600080fd5b50610438611cd8565b348015610aed57600080fd5b506104b6610afc3660046151b1565b611cea565b348015610b0d57600080fd5b506104b6610b1c3660046151b1565b611d06565b6103c8610b2f366004615051565b611da5565b348015610b4057600080fd5b506103c8610b4f3660046155bb565b611db7565b348015610b6057600080fd5b50610438603081565b348015610b7557600080fd5b506105af611dfb565b348015610b8a57600080fd5b506105af611e05565b6103c8611e0f565b6103c8611e18565b348015610baf57600080fd5b50610438610bbe3660046155f8565b611e20565b348015610bcf57600080fd5b50610bd8611e2c565b6040805182516001600160801b039081168252602093840151169281019290925201610442565b6103c8611e48565b348015610c1357600080fd5b506103c8610c22366004615622565b611e50565b348015610c3357600080fd5b50610438610c42366004615207565b612413565b348015610c5357600080fd5b506104b6610c62366004615207565b61241e565b348015610c7357600080fd5b506103c8610c82366004615051565b612431565b348015610c9357600080fd5b506104386124ac565b34610cba576040516395b66fe960e01b815260040160405180910390fd5b610cd534610cc66124ed565b610cd09190615673565b612521565b610ce033823461256a565b6040513481526001600160a01b0382169033907f3bc57f469ad6d10d7723ea226cd22bd2b9e527def2b529f6ab44645a166895829060200160405180910390a350565b610d2b612702565b6001600160a01b0316336001600160a01b031614610d67573360405163472511eb60e11b8152600401610d5e9190615220565b60405180910390fd5b610d708161270c565b6040516001600160a01b038216907f67b26a33f305cc027b2d45b2f6f418793afcd3e22f7376afa7be068ce18604e890600090a250565b6001610db1612743565b8114610de25780610dc0612743565b604051631cfd276760e31b815260048101929092526024820152604401610d5e565b610df5610df0826001615673565b6124b6565b610dfe8b612773565b7faf890c07e266df31e0725841eb0e85596a0caa1b17bbae5c0b206fdcc92d7ce18b604051610e2d9190615220565b60405180910390a1610e646040518060400160405280856001600160801b03168152602001846001600160801b03168152506127aa565b610e738a8a8a8a8a8a8a6127fe565b610e80308c600019612957565b7f1809e49bba43f2d39fa57894b50cd6ccb428cc438230e065cac3eb24a1355a7181600036604051610eb49392919061568b565b60405180910390a15050505050505050505050565b6000610ed36124ed565b905090565b610ee06129c6565b6001600160a01b0316336001600160a01b031614610f13573360405163472511eb60e11b8152600401610d5e9190615220565b565b6000610f22338484612957565b50600192915050565b610f336129f6565b6001600160a01b0316336001600160a01b031614610f66573360405163472511eb60e11b8152600401610d5e9190615220565b610f76610f716129f6565b612a00565b610f136000612a49565b6000610f8a612a89565b6001600160a01b0316635a4091023360046040518363ffffffff1660e01b8152600401610fb89291906156c1565b60006040518083038186803b158015610fd057600080fd5b505afa158015610fe4573d6000803e3d6000fd5b50505050610ff3333085612ab9565b50610ffc6129c6565b60405163107703ab60e01b8152600481018590526001600160a01b038481166024830152919091169063107703ab906044016020604051808303816000875af115801561104d573d6000803e3d6000fd5b505050506040513d601f19601f8201168201806040525081019061107191906156ec565b9392505050565b6000611082612b35565b6005015463ffffffff16919050565b611099612702565b6001600160a01b0316336001600160a01b0316146110cc573360405163472511eb60e11b8152600401610d5e9190615220565b6110d581612b63565b6040516001600160a01b038216907f1da4c245099590dc40be61880c9b97792f3694d970acc1e67ac0e6cc90f3780d90600090a250565b6000611116612b9a565b905060006111366111306801bc16d674ec8000008461571f565b84612bca565b90508061115657604051631036b5ad60e31b815260040160405180910390fd5b60008061116283612bdf565b81519193509150806111875760405163200149ad60e21b815260040160405180910390fd5b838111156111a857604051635993bd5760e01b815260040160405180910390fd5b60006111b2612c67565b9050806111d257604051639be7315960e01b815260040160405180910390fd5b60005b828110156112225761121a8582815181106111f2576111f2615733565b602002602001015185838151811061120c5761120c615733565b602002602001015184612c97565b6001016111d5565b50611248611239836801bc16d674ec800000615749565b6112439088615768565b6130e8565b6000611252613131565b90506112666112618483615673565b613161565b7f220ab8fd274cf58c09b0825ccf00e74ba4ce4117fd47285adc2183a635838f1b816112928582615673565b6040805192835260208301919091520160405180910390a15050505050505050565b6000610ed361318f565b6112c6612702565b6001600160a01b0316336001600160a01b0316146112f9573360405163472511eb60e11b8152600401610d5e9190615220565b61130281612a49565b50565b6000610ed361324e565b61131761327e565b6001600160a01b0316336001600160a01b03161461134a573360405163472511eb60e11b8152600401610d5e9190615220565b61136161135c3683900383018361577f565b613288565b6040805182358152602080840135908201527f5ab79ffcd89b6380c7fbdd89d02cfe3d9c53c99a85e150c2319075018d1aac5c91015b60405180910390a150565b6113aa614ea4565b6113b2612b35565b60408051610100810182528254815260018301546020820152600283015491810191909152600382015460608201526004820154608082015260059091015463ffffffff811660a083015260ff64010000000082048116151560c0840152600160281b90910416151560e0820152919050565b6000610ed36132cb565b6000610ed36132d5565b600083836114478282613305565b8380611466576040516336b216db60e21b815260040160405180910390fd5b86858061147283613431565b1015611491576040516351940b3960e11b815260040160405180910390fd5b6001600160a01b0388166114ca57604051637617407560e11b81526001600160a01b038a16600482015260006024820152604401610d5e565b6114d4898861343c565b6114df898989612ab9565b9998505050505050505050565b60006114f6612743565b81146115055780610dc0612743565b611513610df0826001615673565b61151c86612a00565b611525836134a2565b6040516001600160a01b038416907f0cc5437d7c9c1d9eab549acbb533eea3e9868e9443dd75309ed5820b33a3774e90600090a2611562826134d9565b6040518281527fbd533e726baaf59b36f3914d950053f7e78f527057c97cd3f0043257fc0fc8849060200160405180910390a161159e89612b63565b6040516001600160a01b038a16907f1da4c245099590dc40be61880c9b97792f3694d970acc1e67ac0e6cc90f3780d90600090a26115db85613510565b6040516001600160a01b038616907f30f015a5d3c72c0a9414538199baa022323a483fa9e4ba2cd581596cf8ca042490600090a261161884613547565b6040516001600160a01b038516907fffc0721ef0563a1b0a51a0dc92113025f33ca434ada9ee3eebff2f385d2a8f9a90600090a26116568a8961357e565b61165f87611bb2565b7f1809e49bba43f2d39fa57894b50cd6ccb428cc438230e065cac3eb24a1355a71816000366040516116939392919061568b565b60405180910390a150505050505050505050565b6116af612702565b6001600160a01b0316336001600160a01b0316146116e2573360405163472511eb60e11b8152600401610d5e9190615220565b6116eb816134d9565b6040518181527fbd533e726baaf59b36f3914d950053f7e78f527057c97cd3f0043257fc0fc88490602001611397565b6000610ed36135fa565b6000610ed361362a565b611737614ef3565b610ed361365a565b6000610f2233848461175133886136e6565b61175b9190615673565b612957565b600061177361176e8361373e565b61378c565b92915050565b6000611783612b35565b60010154905090565b60008061179761365a565b905060006117a4826137c4565b90506117ee82600001516001600160401b03166117bf612b35565b546117ca9190615673565b83516117df906001600160401b0316846157b1565b6117e99084615768565b61380f565b9250505090565b6000610ed361381e565b6000610ed3612c67565b600061181361365a565b51611827906001600160401b0316836157b1565b6117739083615768565b611839612702565b6001600160a01b0316336001600160a01b03161461186c573360405163472511eb60e11b8152600401610d5e9190615220565b61187581613510565b6040516001600160a01b038216907f30f015a5d3c72c0a9414538199baa022323a483fa9e4ba2cd581596cf8ca042490600090a250565b610ee0612c67565b60606118be6129c6565b6001600160a01b0316635f2e5f0784846040518363ffffffff1660e01b81526004016118eb929190615816565b600060405180830381865afa158015611908573d6000803e3d6000fd5b505050506040513d6000823e601f3d908101601f19168201604052611071919081019061584d565b6000610ed36129c6565b6000610ed3612702565b600061177382613431565b60008060008061195d61365a565b9050600061196a826137c4565b8251909150611982906001600160401b0316826157b1565b61198c9082615768565b945081604001516001600160401b031682602001516001600160401b0316866119b59190615749565b6119bf9190615749565b9350600182604001516001600160401b031683602001516001600160401b031684600001516001600160401b0316886119f89190615673565b611a029190615749565b611a0c9190615749565b611a169190615768565b92505050909192565b611a27612702565b6001600160a01b0316336001600160a01b031614611a5a573360405163472511eb60e11b8152600401610d5e9190615220565b611a638161384e565b611a6c8161386d565b7f8d2df192dd17edf92a7964b78aa322f3d717b2ab9de00651bee32bbc4c5da63a81604051611397919061519e565b611aa361327e565b6001600160a01b0316336001600160a01b031614611ad6573360405163472511eb60e11b8152600401610d5e9190615220565b611aed611ae8368390038301836158ed565b6138b7565b7f25777eb44be046f64180acf8275f0ac2ec51e63a65a5f8a0f2f6d86ba25b74cf611b1b602083018361597a565b611b2b604084016020850161597a565b611b3b606085016040860161597a565b611b4b608086016060870161597a565b611b5b60a087016080880161597a565b604051611397959493929190615995565b600061177382613973565b611b7f61327e565b6001600160a01b0316336001600160a01b031614611bb2573360405163472511eb60e11b8152600401610d5e9190615220565b611bbb816139a0565b6040516001600160a01b038216907fd3b5d1e0ffaeff528910f3663f0adace7694ab8241d58e17a91351ced2e0803190600090a250565b6000610ed36139d7565b6060610ed3613a07565b6000610ed3613131565b6000611c1a612b35565b54919050565b6060611c2a6129c6565b6001600160a01b0316637c044e5586868686600161ffff6040518763ffffffff1660e01b8152600401611c62969594939291906159c7565b6000604051808303816000875af1158015611c81573d6000803e3d6000fd5b505050506040513d6000823e601f3d908101601f19168201604052611ca99190810190615a0d565b95945050505050565b6000610ed3613acd565b6040805180820190915260008082526020820152610ed3613afd565b6000610ed3611ce561365a565b6137c4565b6000610f22338484611cfc33886136e6565b61175b9190615768565b60003383611d148282613305565b8380611d33576040516336b216db60e21b815260040160405180910390fd5b338580611d3f83613431565b1015611d5e576040516351940b3960e11b815260040160405180910390fd5b6001600160a01b038816611d8e57604051637617407560e11b815233600482015260006024820152604401610d5e565b611d99338989612ab9565b98975050505050505050565b611dae81613b5d565b61130281610c9c565b611dbf612702565b6001600160a01b0316336001600160a01b031614611df2573360405163472511eb60e11b8152600401610d5e9190615220565b611302816127aa565b6000610ed3612a89565b6000610ed36129f6565b610f1333610c9c565b610ee061324e565b600061107183836136e6565b6040805180820190915260008082526020820152610ed3613b84565b610ee06135fa565b611e586139d7565b6001600160a01b0316336001600160a01b031614611e8b573360405163472511eb60e11b8152600401610d5e9190615220565b6000611e9561365a565b9050611ea2818335613bf2565b611ec25760405163a225656d60e01b815282356004820152602401610d5e565b611eca614f21565b6000611ed4612b35565b60038101546040840181905290915060608501351015611f19576040808301519051621ee1cf60e11b8152600481019190915260608501356024820152604401610d5e565b6040820151611f2c906060860135615768565b608083015260028101546060830181905260408501351015611f7357606082015160408051636f24834360e01b815260048101929092528501356024820152604401610d5e565b611f7b613131565b611f8b60c0860160a08701615aa2565b63ffffffff161180611fbb5750600581015463ffffffff16611fb360c0860160a08701615aa2565b63ffffffff16105b1561201057611fd060c0850160a08601615aa2565b611fd8613131565b6005830154604051632f776b1760e01b815263ffffffff93841660048201526024810192909252919091166044820152606401610d5e565b6060820151612023906040860135615768565b60a083015280546120379084908635613c4f565b60c08301525061204561318f565b815260a0810151608082015160009161205d91615673565b1115612075576120758160a001518260800151613c8a565b61207d614ea4565b83358152602080850135908201526040808501359082015260608085013590820152608080850135908201526120b960c0850160a08601615aa2565b63ffffffff1660a08201526120d5610100850160e08601615ad8565b151560c08201526120ee61012085016101008601615ad8565b151560e08201526120fe81613db7565b5061214661210f60c0850185615af5565b80806020026020016040519081016040528093929190818152602001838360200280828437600092019190915250613e6392505050565b6000612150613afd565b905060006121678284600001518560c00151613ecd565b905061217161318f565b6020840181905283511161220657825161218c908290615673565b836020015111156121d4578251602084015160c0850151845160405163eb7a968960e01b81526004810194909452602484019290925260448301526064820152608401610d5e565b825160208401516121e59190615768565b610120840180519190915251516121fc9082615768565b60e08401526122a2565b6000612216838560000151613f01565b9050612226818560000151612bca565b84516122329190615768565b8460200151101561228057835160208086015160c08701519186015160405163063bb83f60e11b8152610d5e9493919060040193845260208401929092526040830152606082015260800190565b602084015184516122919190615768565b61229b9083615673565b60e0850152505b60e083015115612300576122b98360e00151613f16565b61012084018051602090810192909252519081015181519091906122de908390615673565b9052506101208301516020015160e0840180516122fc908390615768565b9052505b60e08301511561233f576123178360e00151613fde565b6101208401805160409081019290925251015160e08401805161233b908390615768565b9052505b60e083015115612361576123568360e001516140a4565b610120840151606001525b610120830151511561237d576101208301515161237d90614176565b61238f61012086016101008701615ad8565b6123b1576123b160808601356123ac610100880160e08901615ad8565b6142a8565b6123b9614528565b6123c16146bb565b6123ce8360c001516146e3565b7f49ac0d2bb2a688ca460f7993eb93eccd3b9c9188da6b0727e9a409cf8b10587585846101200151604051612404929190615b86565b60405180910390a15050505050565b60006117738261378c565b600061177361242b61365a565b83613bf2565b612439612702565b6001600160a01b0316336001600160a01b03161461246c573360405163472511eb60e11b8152600401610d5e9190615220565b612475816134a2565b6040516001600160a01b038216907f0cc5437d7c9c1d9eab549acbb533eea3e9868e9443dd75309ed5820b33a3774e90600090a250565b6000610ed3612b9a565b6113026124e460017f82055909238c0f5e63d6f174068ebb8f51bcec9bd37de63bb68f6551feec0cfd615768565b829055565b9055565b6000610ed361251d60017f2b6136e423ab70d76431e2a635e877e16ea2dd9a895e054ad7f35f89d6c7b711615768565b5490565b7f48f67c1dada0cab2163f6282292ad97ea97376cfed46bb3851654aaa630db72761254a6124ed565b60408051918252602082018490520160405180910390a161130281614799565b600061257684836147c7565b90506000612582612a89565b9050836001600160a01b0316856001600160a01b0316141561260257604051632d20488160e11b81526001600160a01b03821690635a409102906125cd9088906001906004016156c1565b60006040518083038186803b1580156125e557600080fd5b505afa1580156125f9573d6000803e3d6000fd5b505050506126fb565b604051632d20488160e11b81526001600160a01b03821690635a409102906126319088906001906004016156c1565b60006040518083038186803b15801561264957600080fd5b505afa15801561265d573d6000803e3d6000fd5b505060405163e838dfbb60e01b81526001600160a01b038416925063e838dfbb915061268d908790600401615220565b602060405180830381865afa1580156126aa573d6000803e3d6000fd5b505050506040513d601f19601f820116820180604052508101906126ce9190615c5a565b156126ee578360405163e7d05e2760e01b8152600401610d5e9190615220565b6126f9858584612ab9565b505b5050505050565b6000610ed3614826565b61271581613b5d565b6113026124e460017ff4271262f3552a4108cde54dc75061de8de495709221d793b126e448522d6a80615768565b6000610ed361251d60017f82055909238c0f5e63d6f174068ebb8f51bcec9bd37de63bb68f6551feec0cfd615768565b61277c81613b5d565b6113026124e460017fe458cbedf69109e7d57b7f8c96816615aac0017187d87abab9001d22db32bae4615768565b6127b381614856565b805160208201516040517e4180017d3dd609da6980999655a6bd2591e313d31d6230b1889c369a9713a0926113979290916001600160801b0392831681529116602082015260400190565b61285a6040518060a00160405280896001600160401b03168152602001886001600160401b03168152602001876001600160401b03168152602001866001600160401b03168152602001856001600160401b03168152506138b7565b7f25777eb44be046f64180acf8275f0ac2ec51e63a65a5f8a0f2f6d86ba25b74cf8787878787604051612891959493929190615995565b60405180910390a16128b6604051806040016040528084815260200183815250613288565b60408051838152602081018390527f5ab79ffcd89b6380c7fbdd89d02cfe3d9c53c99a85e150c2319075018d1aac5c910160405180910390a16128f7614ea4565b6128ff6148a8565b81526129096148d8565b602082015260006040820181905260608201819052608082015261292b614908565b63ffffffff1660a0820152600060c0820181905260e082015261294d81613db7565b5050505050505050565b61296083613b5d565b61296982613b5d565b612974838383614938565b816001600160a01b0316836001600160a01b03167f8c5be1e5ebec7d5bd14f71427d1e84f3dd0314c0f7b2291e5b200ac8c7c3b925836040516129b991815260200190565b60405180910390a3505050565b6000610ed361251d60017fe458cbedf69109e7d57b7f8c96816615aac0017187d87abab9001d22db32bae4615768565b6000610ed361498f565b612a0981613b5d565b612a12816149bf565b6040516001600160a01b038216907f5a272403b402d892977df56625f4164ccaf70ca3863991c43ecfe76a6905b0a190600090a250565b612a52816149c8565b6040516001600160a01b038216907f2a0f8515de3fa34ef68b99300347b8793c01683350743e96fe440594528298f490600090a250565b6000610ed361251d60017f867d8f1a5e39d11d5bebde854d5359a509530ad32450f581da63c06ec8d1a780615768565b6000612ad88483612ac98761373e565b612ad39190615768565b6149d1565b612af08383612ae68661373e565b612ad39190615673565b826001600160a01b0316846001600160a01b0316600080516020615f6883398151915284604051612b2391815260200190565b60405180910390a35060019392505050565b60008061177360017fdbc0527c99b54cd325d6ce9eaae3a8413cd447b5205f37385f0ebc6551033c6d615768565b612b6c81613b5d565b6113026124e460017f8e9e2a1d30fed357d8a000c1131fc77ed65d2052918caf1ccc6eb1e7af3d13b6615768565b6000610ed361251d60017fbcfa5a69252c74010ad3e9ab18cfbdc116fcf85f084db1a8dc577a339fbee58b615768565b6000818311612bd95782611071565b50919050565b606080612bea613acd565b6001600160a01b031663277c9d45846040518263ffffffff1660e01b8152600401612c1791815260200190565b6000604051808303816000875af1158015612c36573d6000803e3d6000fd5b505050506040513d6000823e601f3d908101601f19168201604052612c5e9190810190615d3d565b91509150915091565b6000610ed361251d60017fb649e50315f962b32d487e696a81b4828631b11f8424daaaa37e9e97766a2c42615768565b6030835114612cb95760405163050cb55360e41b815260040160405180910390fd5b6060825114612cdb5760405163408ebd3960e01b815260040160405180910390fd5b6801bc16d674ec8000006000612cf5633b9aca008361571f565b90506000600286600060801b604051602001612d12929190615da0565b60408051601f1981840301815290829052612d2c91615dcf565b602060405180830381855afa158015612d49573d6000803e3d6000fd5b5050506040513d601f19601f82011682018060405250810190612d6c9190615deb565b90506000600280612d808860006040614a1d565b604051612d8d9190615dcf565b602060405180830381855afa158015612daa573d6000803e3d6000fd5b5050506040513d601f19601f82011682018060405250810190612dcd9190615deb565b6002612de5896040612de0816060615768565b614a1d565b604051612df89190600090602001615e04565b60408051601f1981840301815290829052612e1291615dcf565b602060405180830381855afa158015612e2f573d6000803e3d6000fd5b5050506040513d601f19601f82011682018060405250810190612e529190615deb565b60408051602081019390935282015260600160408051601f1981840301815290829052612e7e91615dcf565b602060405180830381855afa158015612e9b573d6000803e3d6000fd5b5050506040513d601f19601f82011682018060405250810190612ebe9190615deb565b905060006002808488604051602001612ee1929190918252602082015260400190565b60408051601f1981840301815290829052612efb91615dcf565b602060405180830381855afa158015612f18573d6000803e3d6000fd5b5050506040513d601f19601f82011682018060405250810190612f3b9190615deb565b6002612f4687614ae0565b604080516020810192909252810186905260600160408051601f1981840301815290829052612f7491615dcf565b602060405180830381855afa158015612f91573d6000803e3d6000fd5b5050506040513d601f19601f82011682018060405250810190612fb49190615deb565b60408051602081019390935282015260600160408051601f1981840301815290829052612fe091615dcf565b602060405180830381855afa158015612ffd573d6000803e3d6000fd5b5050506040513d601f19601f820116820180604052508101906130209190615deb565b9050600061302e8647615768565b9050613038614b4d565b6001600160a01b03166322895118878b8a60405160200161305b91815260200190565b6040516020818303038152906040528c876040518663ffffffff1660e01b815260040161308b9493929190615e26565b6000604051808303818588803b1580156130a457600080fd5b505af11580156130b8573d6000803e3d6000fd5b50505050508047146130dd57604051638051a6bb60e01b815260040160405180910390fd5b505050505050505050565b7f86fd21e9b5bd76b20471c7f93a82aa4e25c37d48b179bda0a4d1a45e22a842f4613111612b9a565b60408051918252602082018490520160405180910390a161130281614b7d565b6000610ed361251d60017fc77078e3530c08cdb2440817c81de4836500b4708ea4d15672b7fe98956423a8615768565b6113026124e460017fc77078e3530c08cdb2440817c81de4836500b4708ea4d15672b7fe98956423a8615768565b60008061319a612b35565b600581015490915063ffffffff1660006131b2613131565b905080821015613227576801bc16d674ec8000006131d08383615768565b6131da9190615749565b6131e261362a565b6131ea612b9a565b6131f26124ed565b86600101546132019190615673565b61320b9190615673565b6132159190615673565b61321f9190615673565b935050505090565b61322f61362a565b613237612b9a565b61323f6124ed565b856001015461320b9190615673565b6000610ed361251d60017ff4271262f3552a4108cde54dc75061de8de495709221d793b126e448522d6a80615768565b6000610ed361193a565b60006132b560017ff81b149de6749a3f46464b2cce61e24462f67599ea4a5ce028aaf4ab1521f96e615768565b8251815560209092015160019092019190915550565b6000610ed3614bab565b6000610ed361251d60017f094efef62d2ce60c14ffacd35a1b50546d3a9d503aff1df040176fffd6c92a37615768565b600061330f612a89565b60405163e838dfbb60e01b81529091506001600160a01b0382169063e838dfbb9061333e908690600401615220565b602060405180830381865afa15801561335b573d6000803e3d6000fd5b505050506040513d601f19601f8201168201806040525081019061337f9190615c5a565b1561339f578260405163e7d05e2760e01b8152600401610d5e9190615220565b60405163e838dfbb60e01b81526001600160a01b0382169063e838dfbb906133cb908590600401615220565b602060405180830381865afa1580156133e8573d6000803e3d6000fd5b505050506040513d601f19601f8201168201806040525081019061340c9190615c5a565b1561342c578160405163e7d05e2760e01b8152600401610d5e9190615220565b505050565b60006117738261373e565b600061344883336136e6565b90508181101561348a57604051637b936de360e01b81526001600160a01b03841660048201523360248201526044810182905260648101839052608401610d5e565b600019811461342c5761342c833361175b8585615768565b6134ab81613b5d565b6113026124e460017f082b6d18de7b10e438e6b1002141db737519cb4ceed679bc815e3aac00cd2227615768565b6134e281614bdb565b6113026124e460017f094efef62d2ce60c14ffacd35a1b50546d3a9d503aff1df040176fffd6c92a37615768565b61351981613b5d565b6113026124e460017f867d8f1a5e39d11d5bebde854d5359a509530ad32450f581da63c06ec8d1a780615768565b61355081613b5d565b6113026124e460017f3f075dea7ef99b1e5db245018e5e4ed8d2a0d93953f5932b2176bef59bd69061615768565b61358782614bfe565b6040516001600160a01b038316907e043cf7635f276413ae358250286a479a631abd9d74d57d4aa0bb87ebc7d11790600090a26135c381614c35565b6040518181527f4c86ba184ea1a1558f84835ca34f6d67e222e8ee5cc4f324b8861dda4cf1740c9060200160405180910390a15050565b6000610ed361251d60017f8e9e2a1d30fed357d8a000c1131fc77ed65d2052918caf1ccc6eb1e7af3d13b6615768565b6000610ed361251d60017f850308dd4e453a2a1bc3efb444560401d95c1a8bdea5b35c5c79531cd2241f1d615768565b613662614ef3565b600061368f60017fd84ee2c84c954c65bef1459fe03b761a42f49234527e3cd8fd9dce87cb83742b615768565b6040805160a08101825282546001600160401b038082168352600160401b820481166020840152600160801b8204811693830193909352600160c01b90048216606082015260019092015416608082015292915050565b60008061371460017fc852254d5b703a16bb13b3e233a335d6459c5da5db0ca732d7a684ee05407847615768565b6001600160a01b039485166000908152602091825260408082209590961681529390525050205490565b60008061376c60017f0fb4a5ac9287f4f508aa7253ee2d57c6a228b1b30e210d73fffd59389d3a8838615768565b6001600160a01b0390931660009081526020939093525050604090205490565b600080613797614bab565b9050806137a75750600092915050565b806137b061318f565b6137ba9085615749565b611071919061571f565b600081602001516001600160401b031682604001516001600160401b031683606001516001600160401b0316426137fb9190615768565b613805919061571f565b611773919061571f565b6000818310612bd95782611071565b6000610ed361251d60017f082b6d18de7b10e438e6b1002141db737519cb4ceed679bc815e3aac00cd2227615768565b805161130257604051638d46fe0560e01b815260040160405180910390fd5b600061389a60017fb63f3482ec84cb93d74a71645ad2e9e896fa02723e42170b4aad20a4bed6cdd6615768565b825190915081906138b19082906020860190614f9c565b50505050565b60006138e460017fd84ee2c84c954c65bef1459fe03b761a42f49234527e3cd8fd9dce87cb83742b615768565b825181546020850151604086015160608701516001600160401b039485166001600160801b031990941693909317600160401b92851692909202919091176001600160801b0316600160801b918416919091026001600160c01b031617600160c01b918316919091021782556080909301516001909101805467ffffffffffffffff1916919093161790915550565b60008061397e614bab565b90508061398e5750600092915050565b61399661318f565b6137ba8285615749565b6139a981613b5d565b6113026124e460017fc8cbea9407c380ae944f052b5a442330057683c5abdbd453493f9750806afecb615768565b6000610ed361251d60017fc8cbea9407c380ae944f052b5a442330057683c5abdbd453493f9750806afecb615768565b60606000613a3660017fb63f3482ec84cb93d74a71645ad2e9e896fa02723e42170b4aad20a4bed6cdd6615768565b805490915081908190613a4890615e71565b80601f0160208091040260200160405190810160405280929190818152602001828054613a7490615e71565b8015613ac15780601f10613a9657610100808354040283529160200191613ac1565b820191906000526020600020905b815481529060010190602001808311613aa457829003601f168201915b50505050509250505090565b6000610ed361251d60017f3f075dea7ef99b1e5db245018e5e4ed8d2a0d93953f5932b2176bef59bd69061615768565b60408051808201909152600080825260208201526000613b3e60017ff81b149de6749a3f46464b2cce61e24462f67599ea4a5ce028aaf4ab1521f96e615768565b6040805180820190915281548152600190910154602082015292915050565b6001600160a01b0381166113025760405163f6b2911f60e01b815260040160405180910390fd5b60408051808201909152600080825260208201526000613bc560017fc305db9f63aeed94a45229ff5ab4174e72b223a38ab4c5e8f518ee4f437918d1615768565b6040805180820190915290546001600160801b038082168352600160801b90910416602082015292915050565b600082608001516001600160401b031682613c0d9190615673565b613c16846137c4565b10158015613c2b5750613c27612b35565b5482115b801561107157508251613c47906001600160401b0316836157b1565b159392505050565b600083602001518460400151613c659190615ea6565b6001600160401b0316613c788484615768565b613c829190615749565b949350505050565b476000613c978385615673565b9050613ca1612c67565b6001600160a01b031663ea74f479826040518263ffffffff1660e01b8152600401613cce91815260200190565b600060405180830381600087803b158015613ce857600080fd5b505af1158015613cfc573d6000803e3d6000fd5b5050505060008247613d0e9190615768565b9050613d1a8486615673565b8114613d4e57613d2a8486615673565b6040516349a1938b60e01b8152600481019190915260248101829052604401610d5e565b8415613d6057613d6085610cc66124ed565b8315613d8157613d8184613d7261362a565b613d7c9190615673565b614c81565b60408051868152602081018690527fcb5410dc8f29b2f498e023c3f9237dbd600255a717edf94a6072bcd03b0c773c9101612404565b6000613de460017fdbc0527c99b54cd325d6ce9eaae3a8413cd447b5205f37385f0ebc6551033c6d615768565b825181556020830151600182015560408301516002820155606083015160038201556080830151600482015560a08301516005909101805460c085015160e0909501511515600160281b0265ff0000000000199515156401000000000264ffffffffff1990921663ffffffff9094169390931717939093161790915550565b613e6b613acd565b6001600160a01b031663b405e17482613e82613131565b6040518363ffffffff1660e01b8152600401613e9f929190615ed5565b600060405180830381600087803b158015613eb957600080fd5b505af11580156126fb573d6000803e3d6000fd5b6000613edf6301e13380612710615749565b84518390613eed9086615749565b613ef79190615749565b613c82919061571f565b60006127108360200151836137ba9190615749565b600080613f216135fa565b60405163c8a6dfd360e01b81526004810185905290915047906001600160a01b0383169063c8a6dfd390602401600060405180830381600087803b158015613f6857600080fd5b505af1158015613f7c573d6000803e3d6000fd5b5050505060008147613f8e9190615768565b90508015613fa257613fa281610cc66124ed565b6040518181527fda841d3042d792e2509a333b9dcbd4b3dd9b9047d382011f8788fab90ca7e3c7906020015b60405180910390a1949350505050565b600047613fe96129c6565b6001600160a01b0316630c779401846040518263ffffffff1660e01b815260040161401691815260200190565b600060405180830381600087803b15801561403057600080fd5b505af1158015614044573d6000803e3d6000fd5b50505050600081476140569190615768565b9050801561406a5761406a81610cc66124ed565b6040518181527f4e484734eb4d444bfa106f917d05d9ceb8ce18bf516c85d7aeb9b322925339f99060200160405180910390a19392505050565b6000806140af61324e565b90506001600160a01b0381166140c85750600092915050565b604051638ede6b6b60e01b81526004810184905247906001600160a01b03831690638ede6b6b90602401600060405180830381600087803b15801561410c57600080fd5b505af1158015614120573d6000803e3d6000fd5b50505050600081476141329190615768565b905080156141465761414681610cc66124ed565b6040518181527fd500b67e5bd8019c0af744cadeec120d1b5e3d3a3a011f18cf182aa4c97947b690602001613fce565b60006141806132cb565b9050806141a057604051630d35acd760e21b815260040160405180910390fd5b60006141aa61318f565b905060006141b66132d5565b90506000816141c58587615749565b6141cf9190615749565b905060006141dd8387615749565b6141e961271086615749565b6141f39190615768565b90506000811561420c57614207828461571f565b61420f565b60005b9050801561429f57600061422161381e565b905061422d8183614cca565b60006142376132cb565b905060006142458a89615768565b60408051828152602081018c90529081018a9052606081018490529091506001600160a01b038416907f3d1669e813a9845c288f0e1f642a4343a451103b87886d12de37e63b39bbd9429060800160405180910390a25050505b50505050505050565b60006142b26132cb565b9050801561342c5760006142c461362a565b905060006142d06124ed565b905060006143406142df6129c6565b6001600160a01b0316630d8d2a546040518163ffffffff1660e01b8152600401602060405180830381865afa15801561431c573d6000803e3d6000fd5b505050506040513d601f19601f8201168201806040525081019061176e9190615deb565b90508061434d8785615673565b10156126f9578480156143605750600082115b156143b157600061438583856143768a86615768565b6143809190615768565b612bca565b905080156143af576143978185615673565b93506143a284614c81565b6143af610cd08285615768565b505b60006143bb613acd565b9050600080826001600160a01b0316634a3c63bb6040518163ffffffff1660e01b81526004016040805180830381865afa1580156143fd573d6000803e3d6000fd5b505050506040513d601f19601f820116820180604052508101906144219190615f23565b915063ffffffff16915060006801bc16d674ec80000083831161444557600061444f565b61444f8484615768565b6144599190615749565b905084816144678c8a615673565b6144719190615673565b101561451c5760006144aa826144878d8b615673565b6144919190615673565b61449b9088615768565b6801bc16d674ec800000614d27565b9050846001600160a01b0316632d1fc39d826144c4613131565b6040516001600160e01b031960e085901b16815260048101929092526024820152604401600060405180830381600087803b15801561450257600080fd5b505af1158015614516573d6000803e3d6000fd5b50505050505b50505050505050505050565b60006145326129c6565b9050600061453e61318f565b9050600061454a6132cb565b905060008211801561455c5750600081115b1561342c576000836001600160a01b0316630d8d2a546040518163ffffffff1660e01b8152600401602060405180830381865afa1580156145a1573d6000803e3d6000fd5b505050506040513d601f19601f820116820180604052508101906145c59190615deb565b90508060006145d38261378c565b905060006145df61362a565b9050808211156145f8578091506145f582613973565b92505b60408051858152602081018590529081018390527f709263092d8d9fef472d907900405b5edae3d76f8ff4354858025b18424d71019060600160405180910390a1811561429f5761464c613d7c8383615768565b6146568784614d5a565b60405163b30d8bb760e01b8152600481018490526001600160a01b0388169063b30d8bb79084906024016000604051808303818588803b15801561469957600080fd5b505af11580156146ad573d6000803e3d6000fd5b505050505050505050505050565b60006146c561362a565b90508015611302576146d981610cc66124ed565b6113026000614c81565b60006146ed61318f565b905060006146f96124ed565b90506000614705613b84565b8051909150600090614749906001600160801b03166127106147278688615768565b85602001516001600160801b031661473f9190615749565b6117e9919061571f565b9050600061476e6201518061475e8885615749565b614768919061571f565b85612bca565b905080156126f95761478c81614782612b9a565b6112439190615673565b6126f9610cd08286615768565b6113026124e460017f2b6136e423ab70d76431e2a635e877e16ea2dd9a895e054ad7f35f89d6c7b711615768565b600080826147d361318f565b6147dd9190615768565b9050806147f6578291506147f18484614cca565b61481f565b806147ff6132cb565b6148099085615749565b614813919061571f565b915061481f8483614cca565b5092915050565b6000610ed361251d60017fb5b37715a3e346e996104f0086703f19825def429233930fd9399c38e05fb113615768565b600061488360017fc305db9f63aeed94a45229ff5ab4174e72b223a38ab4c5e8f518ee4f437918d1615768565b82516020909301516001600160801b03908116600160801b0293169290921790915550565b6000610ed361251d60017fd7f2d45e512a86049f7a113657b39731b6b558609584243063a52cd31a8eb529615768565b6000610ed361251d60017ffedfd2c285a57fb23bf45a3fe9ac02d36a76ebb72801b1c8aaf553d74e9d4653615768565b6000610ed361251d60017f0f1e7733641e4d843128fea0d2ec90d3d06a40b0fe244ff603d8c1aa200dc0f9615768565b600061496560017fc852254d5b703a16bb13b3e233a335d6459c5da5db0ca732d7a684ee05407847615768565b6001600160a01b039485166000908152602091825260408082209590961681529390525091902055565b6000610ed361251d60017f6e6ab8b7c7aaba79eef8cc633522d606bb008c101cf9832c9ad05d10a9847281615768565b61130281614daa565b61130281614de1565b60006149fe60017f0fb4a5ac9287f4f508aa7253ee2d57c6a228b1b30e210d73fffd59389d3a8838615768565b6001600160a01b03909316600090815260209390935250604090912055565b60608182601f011015614a43576040516323d5783d60e11b815260040160405180910390fd5b614a4d8284615673565b84511015614a6e57604051633b99b53d60e01b815260040160405180910390fd5b606082158015614a8d5760405191506000825260208201604052614ad7565b6040519150601f8416801560200281840101858101878315602002848b0101015b81831015614ac6578051835260209283019201614aae565b5050858452601f01601f1916604052505b50949350505050565b603881901c60ff908116603083901c8216602884901c8316602085901c8416601886901c8516601087901c8616600888811c9790971688881b61ff001617871b17861b17851b17841b17831b1790911b17604082901c8015614b4457614b44615f51565b5060c01b919050565b6000610ed361251d60017f35efb61d8784060218d9d6aa40eae55904de43779c1afc79c74dfefcfdf91260615768565b6113026124e460017fbcfa5a69252c74010ad3e9ab18cfbdc116fcf85f084db1a8dc577a339fbee58b615768565b6000610ed361251d60017f6b842b424335d94ccad97e54548dfa02673c1268aba38d3c3c32d28c8988b70b615768565b612710811115611302576040516358d620b360e01b815260040160405180910390fd5b614c0781613b5d565b6113026124e460017f35efb61d8784060218d9d6aa40eae55904de43779c1afc79c74dfefcfdf91260615768565b80614c535760405163a9cb9e0d60e01b815260040160405180910390fd5b6113026124e460017fb649e50315f962b32d487e696a81b4828631b11f8424daaaa37e9e97766a2c42615768565b7f215c2b83e8c232e42091088056ab75d2ff643855c32997024f786cddb22d2290614caa61362a565b60408051918252602082018490520160405180910390a161130281614e0f565b614ce581614cd6614bab565b614ce09190615673565b614e3d565b614cf38282612ae68561373e565b6040518181526001600160a01b03831690600090600080516020615f68833981519152906020015b60405180910390a35050565b600080614d3483856157b1565b11614d40576000614d43565b60015b60ff16614d50838561571f565b6110719190615673565b614d7081614d66614bab565b614ce09190615768565b614d7e8282612ac98561373e565b6040518181526000906001600160a01b03841690600080516020615f6883398151915290602001614d1b565b614db381613b5d565b6113026124e460017fb5b37715a3e346e996104f0086703f19825def429233930fd9399c38e05fb113615768565b6113026124e460017f6e6ab8b7c7aaba79eef8cc633522d606bb008c101cf9832c9ad05d10a9847281615768565b6113026124e460017f850308dd4e453a2a1bc3efb444560401d95c1a8bdea5b35c5c79531cd2241f1d615768565b614e4681614e76565b6040518181527fc80ea35a3f9016535e5b7c87746740c5045afe42188d02c5786eb97495c2f42990602001611397565b6113026124e460017f6b842b424335d94ccad97e54548dfa02673c1268aba38d3c3c32d28c8988b70b615768565b6040518061010001604052806000815260200160008152602001600081526020016000815260200160008152602001600063ffffffff1681526020016000151581526020016000151581525090565b6040805160a08101825260008082526020820181905291810182905260608101829052608081019190915290565b604051806101400160405280600081526020016000815260200160008152602001600081526020016000815260200160008152602001600081526020016000815260200160008152602001614f976040518060800160405280600081526020016000815260200160008152602001600081525090565b905290565b828054614fa890615e71565b90600052602060002090601f016020900481019282614fca5760008555615010565b82601f10614fe357805160ff1916838001178555615010565b82800160010185558215615010579182015b82811115615010578251825591602001919060010190614ff5565b5061501c929150615020565b5090565b5b8082111561501c5760008155600101615021565b80356001600160a01b038116811461504c57600080fd5b919050565b60006020828403121561506357600080fd5b61107182615035565b80356001600160401b038116811461504c57600080fd5b80356001600160801b038116811461504c57600080fd5b6000806000806000806000806000806101408b8d0312156150ba57600080fd5b6150c38b615035565b99506150d160208c0161506c565b98506150df60408c0161506c565b97506150ed60608c0161506c565b96506150fb60808c0161506c565b955061510960a08c0161506c565b945060c08b0135935060e08b013592506151266101008c01615083565b91506151356101208c01615083565b90509295989b9194979a5092959850565b60005b83811015615161578181015183820152602001615149565b838111156138b15750506000910152565b6000815180845261518a816020860160208601615146565b601f01601f19169290920160200192915050565b6020815260006110716020830184615172565b600080604083850312156151c457600080fd5b6151cd83615035565b946020939093013593505050565b600080604083850312156151ee57600080fd5b823591506151fe60208401615035565b90509250929050565b60006020828403121561521957600080fd5b5035919050565b6001600160a01b0391909116815260200190565b600060408284031215612bd957600080fd5b60008060006060848603121561525b57600080fd5b61526484615035565b925061527260208501615035565b9150604084013590509250925092565b60008060008060008060008060006101208a8c0312156152a157600080fd5b6152aa8a615035565b98506152b860208b01615035565b975060408a013596506152cd60608b01615035565b95506152db60808b01615035565b94506152e960a08b01615035565b93506152f760c08b01615035565b925061530560e08b01615035565b91506101008a013590509295985092959850929598565b60008083601f84011261532e57600080fd5b5081356001600160401b0381111561534557600080fd5b6020830191508360208260051b850101111561536057600080fd5b9250929050565b6000806020838503121561537a57600080fd5b82356001600160401b0381111561539057600080fd5b61539c8582860161531c565b90969095509350505050565b6020808252825182820181905260009190848201906040850190845b818110156153e357835160070b835292840192918401916001016153c4565b50909695505050505050565b634e487b7160e01b600052604160045260246000fd5b604080519081016001600160401b0381118282101715615427576154276153ef565b60405290565b604051601f8201601f191681016001600160401b0381118282101715615455576154556153ef565b604052919050565b60006001600160401b03821115615476576154766153ef565b50601f01601f191660200190565b60006020828403121561549657600080fd5b81356001600160401b038111156154ac57600080fd5b8201601f810184136154bd57600080fd5b80356154d06154cb8261545d565b61542d565b8181528560208385010111156154e557600080fd5b81602084016020830137600091810160200191909152949350505050565b600060a08284031215612bd957600080fd5b6000806000806040858703121561552b57600080fd5b84356001600160401b038082111561554257600080fd5b61554e8883890161531c565b9096509450602087013591508082111561556757600080fd5b506155748782880161531c565b95989497509550505050565b6020808252825182820181905260009190848201906040850190845b818110156153e357835160ff168352928401929184019160010161559c565b6000604082840312156155cd57600080fd5b6155d5615405565b6155de83615083565b81526155ec60208401615083565b60208201529392505050565b6000806040838503121561560b57600080fd5b61561483615035565b91506151fe60208401615035565b60006020828403121561563457600080fd5b81356001600160401b0381111561564a57600080fd5b8201610120818503121561107157600080fd5b634e487b7160e01b600052601160045260246000fd5b600082198211156156865761568661565d565b500190565b83815260406020820152816040820152818360608301376000818301606090810191909152601f909201601f1916010192915050565b6001600160a01b03929092168252602082015260400190565b63ffffffff8116811461130257600080fd5b6000602082840312156156fe57600080fd5b8151611071816156da565b634e487b7160e01b600052601260045260246000fd5b60008261572e5761572e615709565b500490565b634e487b7160e01b600052603260045260246000fd5b60008160001904831182151516156157635761576361565d565b500290565b60008282101561577a5761577a61565d565b500390565b60006040828403121561579157600080fd5b615799615405565b82358152602083013560208201528091505092915050565b6000826157c0576157c0615709565b500690565b803561504c816156da565b8183526000602080850194508260005b8581101561580b5781356157f3816156da565b63ffffffff16875295820195908201906001016157e0565b509495945050505050565b602081526000613c826020830184866157d0565b60006001600160401b03821115615843576158436153ef565b5060051b60200190565b6000602080838503121561586057600080fd5b82516001600160401b0381111561587657600080fd5b8301601f8101851361588757600080fd5b80516158956154cb8261582a565b81815260059190911b820183019083810190878311156158b457600080fd5b928401925b828410156158e25783518060070b81146158d35760008081fd5b825292840192908401906158b9565b979650505050505050565b600060a082840312156158ff57600080fd5b60405160a081018181106001600160401b0382111715615921576159216153ef565b60405261592d8361506c565b815261593b6020840161506c565b602082015261594c6040840161506c565b604082015261595d6060840161506c565b606082015261596e6080840161506c565b60808201529392505050565b60006020828403121561598c57600080fd5b6110718261506c565b6001600160401b0395861681529385166020850152918416604084015283166060830152909116608082015260a00190565b6080815260006159db60808301888a6157d0565b82810360208401526159ee8187896157d0565b9415156040840152505061ffff91909116606090910152949350505050565b60006020808385031215615a2057600080fd5b82516001600160401b03811115615a3657600080fd5b8301601f81018513615a4757600080fd5b8051615a556154cb8261582a565b81815260059190911b82018301908381019087831115615a7457600080fd5b928401925b828410156158e257835160ff81168114615a935760008081fd5b82529284019290840190615a79565b600060208284031215615ab457600080fd5b8135611071816156da565b801515811461130257600080fd5b803561504c81615abf565b600060208284031215615aea57600080fd5b813561107181615abf565b6000808335601e19843603018112615b0c57600080fd5b8301803591506001600160401b03821115615b2657600080fd5b6020019150600581901b360382131561536057600080fd5b6000808335601e19843603018112615b5557600080fd5b83016020810192503590506001600160401b03811115615b7457600080fd5b8060051b360383131561536057600080fd5b60a08152823560a0820152602083013560c0820152604083013560e08201526000610100606085013581840152610120608086013581850152615bcb60a087016157c5565b63ffffffff16610140850152615be460c0870187615b3e565b82610160870152615bfa6101c0870182846157d0565b92505050615c0a60e08701615acd565b1515610180850152615c1d868301615acd565b8015156101a08601529150915061107190506020830184805182526020810151602083015260408101516040830152606081015160608301525050565b600060208284031215615c6c57600080fd5b815161107181615abf565b600082601f830112615c8857600080fd5b81516020615c986154cb8361582a565b82815260059290921b84018101918181019086841115615cb757600080fd5b8286015b84811015615d325780516001600160401b03811115615cda5760008081fd5b8701603f81018913615cec5760008081fd5b848101516040615cfe6154cb8361545d565b8281528b82848601011115615d135760008081fd5b615d2283898301848701615146565b8652505050918301918301615cbb565b509695505050505050565b60008060408385031215615d5057600080fd5b82516001600160401b0380821115615d6757600080fd5b615d7386838701615c77565b93506020850151915080821115615d8957600080fd5b50615d9685828601615c77565b9150509250929050565b60008351615db2818460208801615146565b6001600160801b0319939093169190920190815260100192915050565b60008251615de1818460208701615146565b9190910192915050565b600060208284031215615dfd57600080fd5b5051919050565b60008351615e16818460208801615146565b9190910191825250602001919050565b608081526000615e396080830187615172565b8281036020840152615e4b8187615172565b90508281036040840152615e5f8186615172565b91505082606083015295945050505050565b600181811c90821680615e8557607f821691505b60208210811415612bd957634e487b7160e01b600052602260045260246000fd5b60006001600160401b0380831681851681830481118215151615615ecc57615ecc61565d565b02949350505050565b604080825283519082018190526000906020906060840190828701845b82811015615f1457815163ffffffff1684529284019290840190600101615ef2565b50505092019290925292915050565b60008060408385031215615f3657600080fd5b8251615f41816156da565b6020939093015192949293505050565b634e487b7160e01b600052600160045260246000fdfeddf252ad1be2c89b69c2b068fc378daa952ba7f163c4a11628f55a4df523b3efa26469706673582212203c95154b88c98fcf321ceba99ce7dd171954d01054728dc1860a4a88509b552164736f6c634300080a0033",
  "devdoc": {
    "author": "Kiln",
    "errors": {
      "AllowanceTooLow(address,address,uint256,uint256)": [
        {
          "params": {
            "_allowance": "Current allowance",
            "_from": "Account where funds are sent from",
            "_operator": "Account attempting the transfer",
            "_value": "Requested transfer value in shares"
          }
        }
      ],
      "Denied(address)": [
        {
          "params": {
            "account": "The account that was denied"
          }
        }
      ],
      "InvalidDecreasingValidatorsExitedBalance(uint256,uint256)": [
        {
          "params": {
            "currentValidatorsExitedBalance": "The current exited balance",
            "newValidatorsExitedBalance": "The new exited balance"
          }
        }
      ],
      "InvalidDecreasingValidatorsSkimmedBalance(uint256,uint256)": [
        {
          "params": {
            "currentValidatorsSkimmedBalance": "The current exited balance",
            "newValidatorsSkimmedBalance": "The new exited balance"
          }
        }
      ],
      "InvalidEpoch(uint256)": [
        {
          "params": {
            "epoch": "Invalid epoch"
          }
        }
      ],
      "InvalidInitialization(uint256,uint256)": [
        {
          "params": {
            "expectedVersion": "The version that was expected",
            "version": "The version that was attempting to be initialized"
          }
        }
      ],
      "InvalidPulledClFundsAmount(uint256,uint256)": [
        {
          "params": {
            "received": "The amount that was received",
            "requested": "The amount that was requested"
          }
        }
      ],
      "InvalidValidatorCountReport(uint256,uint256,uint256)": [
        {
          "params": {
            "depositedValidatorCount": "The number of deposits performed by the system",
            "lastReportedValidatorCount": "The last reported validator count",
            "providedValidatorCount": "The received validator count value"
          }
        }
      ],
      "TotalValidatorBalanceDecreaseOutOfBound(uint256,uint256,uint256,uint256)": [
        {
          "params": {
            "postTotalEthIncludingExited": "The post-report total balance, including all exited balance",
            "prevTotalEthIncludingExited": "The previous total balance, including all exited balance",
            "relativeLowerBound": "The lower bound value that was used",
            "timeElapsed": "The time in seconds since last report"
          }
        }
      ],
      "TotalValidatorBalanceIncreaseOutOfBound(uint256,uint256,uint256,uint256)": [
        {
          "params": {
            "annualAprUpperBound": "The upper bound value that was used",
            "postTotalEthIncludingExited": "The post-report total balance, including all exited balance",
            "prevTotalEthIncludingExited": "The previous total balance, including all exited balance",
            "timeElapsed": "The time in seconds since last report"
          }
        }
      ],
      "Unauthorized(address)": [
        {
          "params": {
            "caller": "Address performing the call"
          }
        }
      ],
      "UnauthorizedTransfer(address,address)": [
        {
          "params": {
            "_from": "Account sending the funds in the invalid transfer",
            "_to": "Account receiving the funds in the invalid transfer"
          }
        }
      ]
    },
    "kind": "dev",
    "methods": {
      "acceptAdmin()": {
        "details": "Only callable by the pending admin. Resets the pending admin if succesful."
      },
      "allowance(address,address)": {
        "params": {
          "_owner": "Address that issued the allowance",
          "_spender": "Address that received the allowance"
        },
        "returns": {
          "_0": "The allowance in shares for a given spender"
        }
      },
      "approve(address,uint256)": {
        "details": "An approved account can use transferFrom to transfer funds on behalf of the token owner",
        "params": {
          "_spender": "Address that is allowed to spend the tokens",
          "_value": "The allowed amount in shares, will override previous value"
        },
        "returns": {
          "_0": "True if success"
        }
      },
      "balanceOf(address)": {
        "params": {
          "_owner": "Address to be checked"
        },
        "returns": {
          "_0": "The balance of the account in shares"
        }
      },
      "balanceOfUnderlying(address)": {
        "params": {
          "_owner": "Address to be checked"
        },
        "returns": {
          "_0": "The underlying balance of the account"
        }
      },
      "claimRedeemRequests(uint32[],uint32[])": {
        "params": {
          "_redeemRequestIds": "The list of redeem requests to claim",
          "_withdrawalEventIds": "The list of resolved withdrawal event ids"
        },
        "returns": {
          "claimStatuses": "The operation status results"
        }
      },
      "decimals()": {
        "returns": {
          "_0": "The decimal count"
        }
      },
      "decreaseAllowance(address,uint256)": {
        "params": {
          "_spender": "Spender that receives the allowance",
          "_subtractableValue": "Amount of shares to subtract"
        },
        "returns": {
          "_0": "True if success"
        }
      },
      "depositAndTransfer(address)": {
        "params": {
          "_recipient": "Address receiving the minted LsETH"
        }
      },
      "depositToConsensusLayer(uint256)": {
        "params": {
          "_maxCount": "The maximum amount of validator keys to fund"
        }
      },
      "getAdmin()": {
        "returns": {
          "_0": "The admin address"
        }
      },
      "getAllowlist()": {
        "returns": {
          "_0": "The allowlist address"
        }
      },
      "getBalanceToDeposit()": {
        "returns": {
          "_0": "The amount of ETH not yet committed for deposit"
        }
      },
      "getBalanceToRedeem()": {
        "returns": {
          "_0": "The current balance to redeem"
        }
      },
      "getCLSpec()": {
        "returns": {
          "_0": "The Consensus Layer Specification"
        }
      },
      "getCLValidatorCount()": {
        "returns": {
          "_0": "The CL validator count"
        }
      },
      "getCLValidatorTotalBalance()": {
        "returns": {
          "_0": "The CL Validator total balance"
        }
      },
      "getCollector()": {
        "returns": {
          "_0": "The collector address"
        }
      },
      "getCommittedBalance()": {
        "returns": {
          "_0": "The amount of ETH committed for deposit"
        }
      },
      "getCoverageFund()": {
        "returns": {
          "_0": "The coverage fund address"
        }
      },
      "getCurrentEpochId()": {
        "returns": {
          "_0": "The current epoch id"
        }
      },
      "getCurrentFrame()": {
        "returns": {
          "_endTime": "The timestamp of the end of the frame in seconds",
          "_startEpochId": "The epoch at the beginning of the frame",
          "_startTime": "The timestamp of the beginning of the frame in seconds"
        }
      },
      "getDailyCommittableLimits()": {
        "returns": {
          "_0": "The daily committable limits structure"
        }
      },
      "getDepositedValidatorCount()": {
        "returns": {
          "_0": "The deposited validator count"
        }
      },
      "getELFeeRecipient()": {
        "returns": {
          "_0": "The execution layer fee recipient address"
        }
      },
      "getExpectedEpochId()": {
        "returns": {
          "_0": "The current expected epoch id"
        }
      },
      "getFrameFirstEpochId(uint256)": {
        "params": {
          "_epochId": "Epoch id used to get the frame"
        },
        "returns": {
          "_0": "The first epoch id of the frame containing the given epoch id"
        }
      },
      "getGlobalFee()": {
        "returns": {
          "_0": "The global fee"
        }
      },
      "getLastCompletedEpochId()": {
        "returns": {
          "_0": "The last completed epoch id"
        }
      },
      "getLastConsensusLayerReport()": {
        "returns": {
          "_0": "The stored consensus layer report"
        }
      },
      "getMetadataURI()": {
        "returns": {
          "_0": "The metadata uri string value"
        }
      },
      "getOperatorsRegistry()": {
        "returns": {
          "_0": "The operators registry address"
        }
      },
      "getOracle()": {
        "returns": {
          "_0": "The oracle address"
        }
      },
      "getPendingAdmin()": {
        "returns": {
          "_0": "The pending admin address"
        }
      },
      "getRedeemManager()": {
        "returns": {
          "_0": "The redeem manager address"
        }
      },
      "getReportBounds()": {
        "returns": {
          "_0": "The report bounds"
        }
      },
      "getTime()": {
        "returns": {
          "_0": "The current timestamp from the EVM context"
        }
      },
      "getWithdrawalCredentials()": {
        "returns": {
          "_0": "The withdrawal credentials"
        }
      },
      "increaseAllowance(address,uint256)": {
        "params": {
          "_additionalValue": "Amount of shares to add",
          "_spender": "Spender that receives the allowance"
        },
        "returns": {
          "_0": "True if success"
        }
      },
      "initRiverV1(address,address,bytes32,address,address,address,address,address,uint256)": {
        "params": {
          "_allowlistAddress": "Address of the allowlist contract",
          "_collectorAddress": "Address receiving the the global fee on revenue",
          "_depositContractAddress": "Address to make Consensus Layer deposits",
          "_elFeeRecipientAddress": "Address that receives the execution layer fees",
          "_globalFee": "Amount retained when the ETH balance increases and sent to the collector",
          "_operatorRegistryAddress": "Address of the operator registry",
          "_oracleAddress": "The address of the Oracle contract",
          "_systemAdministratorAddress": "Administrator address",
          "_withdrawalCredentials": "Credentials to use for every validator deposit"
        }
      },
      "initRiverV1_1(address,uint64,uint64,uint64,uint64,uint64,uint256,uint256,uint128,uint128)": {
        "params": {
          "_annualAprUpperBound": "The reporting upper bound",
          "_epochsPerFrame": "The amounts of epochs in a frame",
          "_epochsToAssumedFinality": "The number of epochs before an epoch is considered final on-chain",
          "_genesisTime": "The genesis timestamp",
          "_maxDailyNetCommittableAmount_": "The net daily committable limit",
          "_maxDailyRelativeCommittableAmount_": "The relative daily committable limit",
          "_redeemManager": "The redeem manager address",
          "_relativeLowerBound": "The reporting lower bound",
          "_secondsPerSlot": "The seconds inside a slot",
          "_slotsPerEpoch": "The slots inside an epoch"
        }
      },
      "isValidEpoch(uint256)": {
        "params": {
          "epoch": "The epoch to lookup"
        },
        "returns": {
          "_0": "True if valid"
        }
      },
      "name()": {
        "returns": {
          "_0": "The token name"
        }
      },
      "proposeAdmin(address)": {
        "details": "This security prevents setting an invalid address as an admin. The pendingadmin has to claim its ownership of the contract, and prove that the newaddress is able to perform regular transactions.",
        "params": {
          "_newAdmin": "New admin address"
        }
      },
      "requestRedeem(uint256,address)": {
        "params": {
          "_lsETHAmount": "The amount of LsETH to redeem",
          "_recipient": "The address that will own the redeem request"
        },
        "returns": {
          "_redeemRequestId": "The ID of the newly created redeem request"
        }
      },
      "resolveRedeemRequests(uint32[])": {
        "params": {
          "_redeemRequestIds": "The list of redeem requests to resolve"
        },
        "returns": {
          "withdrawalEventIds": "The list of matching withdrawal events, or error codes"
        }
      },
      "setAllowlist(address)": {
        "params": {
          "_newAllowlist": "New address for the allowlist"
        }
      },
      "setCLSpec((uint64,uint64,uint64,uint64,uint64))": {
        "params": {
          "_newValue": "The new consensus layer spec value"
        }
      },
      "setCollector(address)": {
        "params": {
          "_newCollector": "New address for the collector"
        }
      },
      "setConsensusLayerData((uint256,uint256,uint256,uint256,uint256,uint32,uint32[],bool,bool))": {
        "params": {
          "_report": "The consensus layer report structure"
        }
      },
      "setCoverageFund(address)": {
        "params": {
          "_newCoverageFund": "New address for the fund"
        }
      },
      "setDailyCommittableLimits((uint128,uint128))": {
        "params": {
          "_dcl": "The Daily Committable Limits structure"
        }
      },
      "setELFeeRecipient(address)": {
        "params": {
          "_newELFeeRecipient": "New address for the recipient"
        }
      },
      "setGlobalFee(uint256)": {
        "params": {
          "_newFee": "New fee value"
        }
      },
      "setMetadataURI(string)": {
        "params": {
          "_metadataURI": "The new metadata uri string value"
        }
      },
      "setOracle(address)": {
        "params": {
          "_oracleAddress": "Address of the oracle"
        }
      },
      "setReportBounds((uint256,uint256))": {
        "params": {
          "_newValue": "The new report bounds value"
        }
      },
      "sharesFromUnderlyingBalance(uint256)": {
        "params": {
          "_underlyingAssetAmount": "Amount of underlying asset to convert"
        },
        "returns": {
          "_0": "The amount of shares worth the underlying asset amopunt"
        }
      },
      "symbol()": {
        "returns": {
          "_0": "The token symbol"
        }
      },
      "totalSupply()": {
        "returns": {
          "_0": "The total supply in shares"
        }
      },
      "totalUnderlyingSupply()": {
        "returns": {
          "_0": "The total underlying asset supply"
        }
      },
      "transfer(address,uint256)": {
        "params": {
          "_to": "Address receiving the tokens",
          "_value": "Amount of shares to be sent"
        },
        "returns": {
          "_0": "True if success"
        }
      },
      "transferFrom(address,address,uint256)": {
        "params": {
          "_from": "Address sending the tokens",
          "_to": "Address receiving the tokens",
          "_value": "Amount of shares to be sent"
        },
        "returns": {
          "_0": "True if success"
        }
      },
      "underlyingBalanceFromShares(uint256)": {
        "params": {
          "_shares": "Amount of shares to convert"
        },
        "returns": {
          "_0": "The underlying asset balance represented by the shares"
        }
      }
    },
    "title": "River (v1)",
    "version": 1
  },
  "userdoc": {
    "errors": {
      "AllowanceTooLow(address,address,uint256,uint256)": [
        {
          "notice": "Allowance too low to perform operation"
        }
      ],
      "BalanceTooLow()": [
        {
          "notice": "Balance too low to perform operation"
        }
      ],
      "Denied(address)": [
        {
          "notice": "The access was denied"
        }
      ],
      "EmptyDeposit()": [
        {
          "notice": "And empty deposit attempt was made"
        }
      ],
      "ErrorOnDeposit()": [
        {
          "notice": "An error occured during the deposit"
        }
      ],
      "InconsistentPublicKeys()": [
        {
          "notice": "The length of the BLS Public key is invalid during deposit"
        }
      ],
      "InconsistentSignatures()": [
        {
          "notice": "The length of the BLS Signature is invalid during deposit"
        }
      ],
      "InvalidArgument()": [
        {
          "notice": "The argument was invalid"
        }
      ],
      "InvalidCall()": [
        {
          "notice": "The call was invalid"
        }
      ],
      "InvalidDecreasingValidatorsExitedBalance(uint256,uint256)": [
        {
          "notice": "The total exited balance decreased"
        }
      ],
      "InvalidDecreasingValidatorsSkimmedBalance(uint256,uint256)": [
        {
          "notice": "The total skimmed balance decreased"
        }
      ],
      "InvalidEmptyString()": [
        {
          "notice": "The string is empty"
        }
      ],
      "InvalidEpoch(uint256)": [
        {
          "notice": "Thrown when an invalid epoch was reported"
        }
      ],
      "InvalidFee()": [
        {
          "notice": "The fee is invalid"
        }
      ],
      "InvalidInitialization(uint256,uint256)": [
        {
          "notice": "An error occured during the initialization"
        }
      ],
      "InvalidPublicKeyCount()": [
        {
          "notice": "The received count of public keys to deposit is invalid"
        }
      ],
      "InvalidPulledClFundsAmount(uint256,uint256)": [
        {
          "notice": "Thrown when the amount received from the Withdraw contract doe not match the requested amount"
        }
      ],
      "InvalidSignatureCount()": [
        {
          "notice": "The received count of signatures to deposit is invalid"
        }
      ],
      "InvalidValidatorCountReport(uint256,uint256,uint256)": [
        {
          "notice": "The reported validator count is invalid"
        }
      ],
      "InvalidWithdrawalCredentials()": [
        {
          "notice": "The withdrawal credentials value is null"
        }
      ],
      "InvalidZeroAddress()": [
        {
          "notice": "The address is zero"
        }
      ],
      "NoAvailableValidatorKeys()": [
        {
          "notice": "The internal key retrieval returned no keys"
        }
      ],
      "NotEnoughFunds()": [
        {
          "notice": "Not enough funds to deposit one validator"
        }
      ],
      "NullTransfer()": [
        {
          "notice": "Invalid empty transfer"
        }
      ],
      "SliceOutOfBounds()": [
        {
          "notice": "The slice is outside of the initial bytes bounds"
        }
      ],
      "SliceOverflow()": [
        {
          "notice": "The length overflows an uint"
        }
      ],
      "TotalValidatorBalanceDecreaseOutOfBound(uint256,uint256,uint256,uint256)": [
        {
          "notice": "The balance decrease is higher than the maximum allowed by the lower bound"
        }
      ],
      "TotalValidatorBalanceIncreaseOutOfBound(uint256,uint256,uint256,uint256)": [
        {
          "notice": "The balance increase is higher than the maximum allowed by the upper bound"
        }
      ],
      "Unauthorized(address)": [
        {
          "notice": "The operator is unauthorized for the caller"
        }
      ],
      "UnauthorizedTransfer(address,address)": [
        {
          "notice": "Invalid transfer recipients"
        }
      ],
      "ZeroMintedShares()": [
        {
          "notice": "The computed amount of shares to mint is 0"
        }
      ]
    },
    "events": {
      "ConsensusLayerDataUpdate(uint256,uint256,bytes32)": {
        "notice": "The consensus layer data provided by the oracle has been updated"
      },
      "Initialize(uint256,bytes)": {
        "notice": "Emitted when the contract is properly initialized"
      },
      "ProcessedConsensusLayerReport((uint256,uint256,uint256,uint256,uint256,uint32,uint32[],bool,bool),(uint256,uint256,uint256,uint256))": {
        "notice": "The provided report has beend processed"
      },
      "PulledCLFunds(uint256,uint256)": {
        "notice": "Emitted when funds are pulled from the CL recipient"
      },
      "PulledCoverageFunds(uint256)": {
        "notice": "Funds have been pulled from the Coverage Fund"
      },
      "PulledELFees(uint256)": {
        "notice": "Funds have been pulled from the Execution Layer Fee Recipient"
      },
      "PulledRedeemManagerExceedingEth(uint256)": {
        "notice": "Emitted when funds are pulled from the redeem manager"
      },
      "ReportedRedeemManager(uint256,uint256,uint256)": {
        "notice": "Emitted when the redeem manager received a withdraw event report"
      },
      "RewardsEarned(address,uint256,uint256,uint256,uint256)": {
        "notice": "The system underlying supply increased. This is a snapshot of the balances for accounting purposes"
      },
      "SetAdmin(address)": {
        "notice": "The admin address changed"
      },
      "SetAllowlist(address)": {
        "notice": "The stored Allowlist has been changed"
      },
      "SetBalanceCommittedToDeposit(uint256,uint256)": {
        "notice": "Emitted when the balance committed to deposit"
      },
      "SetBalanceToDeposit(uint256,uint256)": {
        "notice": "Emitted when the balance to deposit is updated"
      },
      "SetBalanceToRedeem(uint256,uint256)": {
        "notice": "Emitted when the balance to redeem is updated"
      },
      "SetBounds(uint256,uint256)": {
        "notice": "The Report Bounds are changed"
      },
      "SetCollector(address)": {
        "notice": "The stored Collector has been changed"
      },
      "SetCoverageFund(address)": {
        "notice": "The stored Coverage Fund has been changed"
      },
      "SetDepositContractAddress(address)": {
        "notice": "The stored deposit contract address changed"
      },
      "SetDepositedValidatorCount(uint256,uint256)": {
        "notice": "Emitted when the deposited validator count is updated"
      },
      "SetELFeeRecipient(address)": {
        "notice": "The stored Execution Layer Fee Recipient has been changed"
      },
      "SetGlobalFee(uint256)": {
        "notice": "The stored Global Fee has been changed"
      },
      "SetMaxDailyCommittableAmounts(uint256,uint256)": {
        "notice": "Emitted when the daily committable limits are changed"
      },
      "SetMetadataURI(string)": {
        "notice": "The stored Metadata URI string has been changed"
      },
      "SetOperatorsRegistry(address)": {
        "notice": "The stored Operators Registry has been changed"
      },
      "SetOracle(address)": {
        "notice": "The stored oracle address changed"
      },
      "SetPendingAdmin(address)": {
        "notice": "The pending admin address changed"
      },
      "SetRedeemManager(address)": {
        "notice": "Emitted when the redeem manager address is changed"
      },
      "SetSpec(uint64,uint64,uint64,uint64,uint64)": {
        "notice": "The Consensus Layer Spec is changed"
      },
      "SetTotalSupply(uint256)": {
        "notice": "Emitted when the total supply is changed"
      },
      "SetWithdrawalCredentials(bytes32)": {
        "notice": "The stored withdrawal credentials changed"
      },
      "UserDeposit(address,address,uint256)": {
        "notice": "User deposited ETH in the system"
      }
    },
    "kind": "user",
    "methods": {
      "DEPOSIT_SIZE()": {
        "notice": "Size of a deposit in ETH"
      },
      "PUBLIC_KEY_LENGTH()": {
        "notice": "Size of a BLS Public key in bytes"
      },
      "SIGNATURE_LENGTH()": {
        "notice": "Size of a BLS Signature in bytes"
      },
      "_DEPOSIT_SIZE()": {
        "notice": "Size of a deposit in ETH"
      },
      "acceptAdmin()": {
        "notice": "Accept the transfer of ownership"
      },
      "allowance(address,address)": {
        "notice": "Retrieve the allowance value for a spender"
      },
      "approve(address,uint256)": {
        "notice": "Approves an account for future spendings"
      },
      "balanceOf(address)": {
        "notice": "Retrieve the balance of an account"
      },
      "balanceOfUnderlying(address)": {
        "notice": "Retrieve the underlying asset balance of an account"
      },
      "claimRedeemRequests(uint32[],uint32[])": {
        "notice": "Claims several redeem requests"
      },
      "decimals()": {
        "notice": "Retrieve the decimal count"
      },
      "decreaseAllowance(address,uint256)": {
        "notice": "Decrease allowance to another account"
      },
      "deposit()": {
        "notice": "Explicit deposit method to mint on msg.sender"
      },
      "depositAndTransfer(address)": {
        "notice": "Explicit deposit method to mint on msg.sender and transfer to _recipient"
      },
      "depositToConsensusLayer(uint256)": {
        "notice": "Deposits current balance to the Consensus Layer by batches of 32 ETH"
      },
      "getAdmin()": {
        "notice": "Retrieves the current admin address"
      },
      "getAllowlist()": {
        "notice": "Retrieve the allowlist address"
      },
      "getBalanceToDeposit()": {
        "notice": "Returns the amount of ETH not yet committed for deposit"
      },
      "getBalanceToRedeem()": {
        "notice": "Retrieve the current balance to redeem"
      },
      "getCLSpec()": {
        "notice": "Retrieve the current cl spec"
      },
      "getCLValidatorCount()": {
        "notice": "Get CL validator count (the amount of validator reported by the oracles)"
      },
      "getCLValidatorTotalBalance()": {
        "notice": "Get CL validator total balance"
      },
      "getCollector()": {
        "notice": "Retrieve the collector address"
      },
      "getCommittedBalance()": {
        "notice": "Returns the amount of ETH committed for deposit"
      },
      "getCoverageFund()": {
        "notice": "Retrieve the coverage fund"
      },
      "getCurrentEpochId()": {
        "notice": "Retrieve the current epoch id based on block timestamp"
      },
      "getCurrentFrame()": {
        "notice": "Retrieve the current frame details"
      },
      "getDailyCommittableLimits()": {
        "notice": "Retrieve the configured daily committable limits"
      },
      "getDepositedValidatorCount()": {
        "notice": "Get the deposited validator count (the count of deposits made by the contract)"
      },
      "getELFeeRecipient()": {
        "notice": "Retrieve the execution layer fee recipient"
      },
      "getExpectedEpochId()": {
        "notice": "Retrieve expected epoch id"
      },
      "getFrameFirstEpochId(uint256)": {
        "notice": "Retrieve the first epoch id of the frame of the provided epoch id"
      },
      "getGlobalFee()": {
        "notice": "Get the current global fee"
      },
      "getLastCompletedEpochId()": {
        "notice": "Retrieve the last completed epoch id"
      },
      "getLastConsensusLayerReport()": {
        "notice": "Retrieve the last consensus layer report"
      },
      "getMetadataURI()": {
        "notice": "Retrieve the metadata uri string value"
      },
      "getOperatorsRegistry()": {
        "notice": "Retrieve the operators registry"
      },
      "getOracle()": {
        "notice": "Get oracle address"
      },
      "getPendingAdmin()": {
        "notice": "Retrieve the current pending admin address"
      },
      "getRedeemManager()": {
        "notice": "Retrieve the redeem manager"
      },
      "getReportBounds()": {
        "notice": "Retrieve the report bounds"
      },
      "getTime()": {
        "notice": "Retrieve the block timestamp"
      },
      "getWithdrawalCredentials()": {
        "notice": "Retrieve the withdrawal credentials"
      },
      "increaseAllowance(address,uint256)": {
        "notice": "Increase allowance to another account"
      },
      "initRiverV1(address,address,bytes32,address,address,address,address,address,uint256)": {
        "notice": "Initializes the River system"
      },
      "initRiverV1_1(address,uint64,uint64,uint64,uint64,uint64,uint256,uint256,uint128,uint128)": {
        "notice": "Initialized version 1.1 of the River System"
      },
      "isValidEpoch(uint256)": {
        "notice": "Verifies if the provided epoch is valid"
      },
      "name()": {
        "notice": "Retrieve the token name"
      },
      "proposeAdmin(address)": {
        "notice": "Proposes a new address as admin"
      },
      "requestRedeem(uint256,address)": {
        "notice": "Performs a redeem request on the redeem manager"
      },
      "resolveRedeemRequests(uint32[])": {
        "notice": "Resolves the provided redeem requests by calling the redeem manager"
      },
      "sendCLFunds()": {
        "notice": "Input for consensus layer funds, containing both exit and skimming"
      },
      "sendCoverageFunds()": {
        "notice": "Input for coverage funds"
      },
      "sendELFees()": {
        "notice": "Input for execution layer fee earnings"
      },
      "sendRedeemManagerExceedingFunds()": {
        "notice": "Input for the redeem manager funds"
      },
      "setAllowlist(address)": {
        "notice": "Changes the allowlist address"
      },
      "setCLSpec((uint64,uint64,uint64,uint64,uint64))": {
        "notice": "Set the consensus layer spec"
      },
      "setCollector(address)": {
        "notice": "Changes the collector address"
      },
      "setConsensusLayerData((uint256,uint256,uint256,uint256,uint256,uint32,uint32[],bool,bool))": {
        "notice": "Performs all the reporting logics"
      },
      "setCoverageFund(address)": {
        "notice": "Changes the coverage fund"
      },
      "setDailyCommittableLimits((uint128,uint128))": {
        "notice": "Set the daily committable limits"
      },
      "setELFeeRecipient(address)": {
        "notice": "Changes the execution layer fee recipient"
      },
      "setGlobalFee(uint256)": {
        "notice": "Changes the global fee parameter"
      },
      "setMetadataURI(string)": {
        "notice": "Sets the metadata uri string value"
      },
      "setOracle(address)": {
        "notice": "Set the oracle address"
      },
      "setReportBounds((uint256,uint256))": {
        "notice": "Set the report bounds"
      },
      "sharesFromUnderlyingBalance(uint256)": {
        "notice": "Retrieve the shares count from an underlying asset amount"
      },
      "symbol()": {
        "notice": "Retrieve the token symbol"
      },
      "totalSupply()": {
        "notice": "Retrieve the total token supply"
      },
      "totalUnderlyingSupply()": {
        "notice": "Retrieve the total underlying asset supply"
      },
      "transfer(address,uint256)": {
        "notice": "Performs a transfer from the message sender to the provided account"
      },
      "transferFrom(address,address,uint256)": {
        "notice": "Performs a transfer between two recipients"
      },
      "underlyingBalanceFromShares(uint256)": {
        "notice": "Retrieve the underlying asset balance from an amount of shares"
      }
    },
    "notice": "This contract merges all the manager contracts and implements all the virtual methods stitching all components together",
    "version": 1
  },
  "storageLayout": {
    "storage": [],
    "types": null
  }
}