{
  "address": "0x66C4e387d194546f7cf89D6946DeC8D79de94E74",
  "abi": [
    {
      "inputs": [
        {
          "internalType": "address",
          "name": "_from",
          "type": "address"
        },
        {
          "internalType": "address",
          "name": "_operator",
          "type": "address"
        },
        {
          "internalType": "uint256",
          "name": "_allowance",
          "type": "uint256"
        },
        {
          "internalType": "uint256",
          "name": "_value",
          "type": "uint256"
        }
      ],
      "name": "AllowanceTooLow",
      "type": "error"
    },
    {
      "inputs": [],
      "name": "BalanceTooLow",
      "type": "error"
    },
    {
      "inputs": [
        {
          "internalType": "address",
          "name": "account",
          "type": "address"
        }
      ],
      "name": "Denied",
      "type": "error"
    },
    {
      "inputs": [],
      "name": "EmptyDeposit",
      "type": "error"
    },
    {
      "inputs": [],
      "name": "ErrorOnDeposit",
      "type": "error"
    },
    {
      "inputs": [],
      "name": "InconsistentPublicKeys",
      "type": "error"
    },
    {
      "inputs": [],
      "name": "InconsistentSignatures",
      "type": "error"
    },
    {
      "inputs": [],
      "name": "InvalidArgument",
      "type": "error"
    },
    {
      "inputs": [],
      "name": "InvalidCall",
      "type": "error"
    },
    {
      "inputs": [
        {
          "internalType": "uint256",
          "name": "currentValidatorsExitedBalance",
          "type": "uint256"
        },
        {
          "internalType": "uint256",
          "name": "newValidatorsExitedBalance",
          "type": "uint256"
        }
      ],
      "name": "InvalidDecreasingValidatorsExitedBalance",
      "type": "error"
    },
    {
      "inputs": [
        {
          "internalType": "uint256",
          "name": "currentValidatorsSkimmedBalance",
          "type": "uint256"
        },
        {
          "internalType": "uint256",
          "name": "newValidatorsSkimmedBalance",
          "type": "uint256"
        }
      ],
      "name": "InvalidDecreasingValidatorsSkimmedBalance",
      "type": "error"
    },
    {
      "inputs": [],
      "name": "InvalidEmptyString",
      "type": "error"
    },
    {
      "inputs": [
        {
          "internalType": "uint256",
          "name": "epoch",
          "type": "uint256"
        }
      ],
      "name": "InvalidEpoch",
      "type": "error"
    },
    {
      "inputs": [],
      "name": "InvalidFee",
      "type": "error"
    },
    {
      "inputs": [
        {
          "internalType": "uint256",
          "name": "version",
          "type": "uint256"
        },
        {
          "internalType": "uint256",
          "name": "expectedVersion",
          "type": "uint256"
        }
      ],
      "name": "InvalidInitialization",
      "type": "error"
    },
    {
      "inputs": [],
      "name": "InvalidPublicKeyCount",
      "type": "error"
    },
    {
      "inputs": [
        {
          "internalType": "uint256",
          "name": "requested",
          "type": "uint256"
        },
        {
          "internalType": "uint256",
          "name": "received",
          "type": "uint256"
        }
      ],
      "name": "InvalidPulledClFundsAmount",
      "type": "error"
    },
    {
      "inputs": [],
      "name": "InvalidSignatureCount",
      "type": "error"
    },
    {
      "inputs": [
        {
          "internalType": "uint256",
          "name": "providedValidatorCount",
          "type": "uint256"
        },
        {
          "internalType": "uint256",
          "name": "depositedValidatorCount",
          "type": "uint256"
        }
      ],
      "name": "InvalidValidatorCountReport",
      "type": "error"
    },
    {
      "inputs": [],
      "name": "InvalidWithdrawalCredentials",
      "type": "error"
    },
    {
      "inputs": [],
      "name": "InvalidZeroAddress",
      "type": "error"
    },
    {
      "inputs": [],
      "name": "NoAvailableValidatorKeys",
      "type": "error"
    },
    {
      "inputs": [],
      "name": "NotEnoughFunds",
      "type": "error"
    },
    {
      "inputs": [],
      "name": "NullTransfer",
      "type": "error"
    },
    {
      "inputs": [],
      "name": "SliceOutOfBounds",
      "type": "error"
    },
    {
      "inputs": [],
      "name": "SliceOverflow",
      "type": "error"
    },
    {
      "inputs": [
        {
          "internalType": "uint256",
          "name": "prevTotalEthIncludingExited",
          "type": "uint256"
        },
        {
          "internalType": "uint256",
          "name": "postTotalEthIncludingExited",
          "type": "uint256"
        },
        {
          "internalType": "uint256",
          "name": "timeElapsed",
          "type": "uint256"
        },
        {
          "internalType": "uint256",
          "name": "relativeLowerBound",
          "type": "uint256"
        }
      ],
      "name": "TotalValidatorBalanceDecreaseOutOfBound",
      "type": "error"
    },
    {
      "inputs": [
        {
          "internalType": "uint256",
          "name": "prevTotalEthIncludingExited",
          "type": "uint256"
        },
        {
          "internalType": "uint256",
          "name": "postTotalEthIncludingExited",
          "type": "uint256"
        },
        {
          "internalType": "uint256",
          "name": "timeElapsed",
          "type": "uint256"
        },
        {
          "internalType": "uint256",
          "name": "annualAprUpperBound",
          "type": "uint256"
        }
      ],
      "name": "TotalValidatorBalanceIncreaseOutOfBound",
      "type": "error"
    },
    {
      "inputs": [
        {
          "internalType": "address",
          "name": "caller",
          "type": "address"
        }
      ],
      "name": "Unauthorized",
      "type": "error"
    },
    {
      "inputs": [
        {
          "internalType": "address",
          "name": "_from",
          "type": "address"
        },
        {
          "internalType": "address",
          "name": "_to",
          "type": "address"
        }
      ],
      "name": "UnauthorizedTransfer",
      "type": "error"
    },
    {
      "inputs": [],
      "name": "ZeroMintedShares",
      "type": "error"
    },
    {
      "anonymous": false,
      "inputs": [
        {
          "indexed": true,
          "internalType": "address",
          "name": "owner",
          "type": "address"
        },
        {
          "indexed": true,
          "internalType": "address",
          "name": "spender",
          "type": "address"
        },
        {
          "indexed": false,
          "internalType": "uint256",
          "name": "value",
          "type": "uint256"
        }
      ],
      "name": "Approval",
      "type": "event"
    },
    {
      "anonymous": false,
      "inputs": [
        {
          "indexed": false,
          "internalType": "uint256",
          "name": "validatorCount",
          "type": "uint256"
        },
        {
          "indexed": false,
          "internalType": "uint256",
          "name": "validatorTotalBalance",
          "type": "uint256"
        },
        {
          "indexed": false,
          "internalType": "bytes32",
          "name": "roundId",
          "type": "bytes32"
        }
      ],
      "name": "ConsensusLayerDataUpdate",
      "type": "event"
    },
    {
      "anonymous": false,
      "inputs": [
        {
          "indexed": false,
          "internalType": "uint256",
          "name": "version",
          "type": "uint256"
        },
        {
          "indexed": false,
          "internalType": "bytes",
          "name": "cdata",
          "type": "bytes"
        }
      ],
      "name": "Initialize",
      "type": "event"
    },
    {
      "anonymous": false,
      "inputs": [
        {
          "components": [
            {
              "internalType": "uint256",
              "name": "epoch",
              "type": "uint256"
            },
            {
              "internalType": "uint256",
              "name": "validatorsBalance",
              "type": "uint256"
            },
            {
              "internalType": "uint256",
              "name": "validatorsSkimmedBalance",
              "type": "uint256"
            },
            {
              "internalType": "uint256",
              "name": "validatorsExitedBalance",
              "type": "uint256"
            },
            {
              "internalType": "uint256",
              "name": "validatorsExitingBalance",
              "type": "uint256"
            },
            {
              "internalType": "uint32",
              "name": "validatorsCount",
              "type": "uint32"
            },
            {
              "internalType": "uint32[]",
              "name": "stoppedValidatorCountPerOperator",
              "type": "uint32[]"
            },
            {
              "internalType": "bool",
              "name": "bufferRebalancingMode",
              "type": "bool"
            },
            {
              "internalType": "bool",
              "name": "slashingContainmentMode",
              "type": "bool"
            }
          ],
          "indexed": false,
          "internalType": "struct IOracleManagerV1.ConsensusLayerReport",
          "name": "report",
          "type": "tuple"
        },
        {
          "components": [
            {
              "internalType": "uint256",
              "name": "rewards",
              "type": "uint256"
            },
            {
              "internalType": "uint256",
              "name": "pulledELFees",
              "type": "uint256"
            },
            {
              "internalType": "uint256",
              "name": "pulledRedeemManagerExceedingEthBuffer",
              "type": "uint256"
            },
            {
              "internalType": "uint256",
              "name": "pulledCoverageFunds",
              "type": "uint256"
            }
          ],
          "indexed": false,
          "internalType": "struct IOracleManagerV1.ConsensusLayerDataReportingTrace",
          "name": "trace",
          "type": "tuple"
        }
      ],
      "name": "ProcessedConsensusLayerReport",
      "type": "event"
    },
    {
      "anonymous": false,
      "inputs": [
        {
          "indexed": false,
          "internalType": "uint256",
          "name": "amount",
          "type": "uint256"
        }
      ],
      "name": "PulledCoverageFunds",
      "type": "event"
    },
    {
      "anonymous": false,
      "inputs": [
        {
          "indexed": false,
          "internalType": "uint256",
          "name": "amount",
          "type": "uint256"
        }
      ],
      "name": "PulledELFees",
      "type": "event"
    },
    {
      "anonymous": false,
      "inputs": [
        {
          "indexed": false,
          "internalType": "uint256",
          "name": "amount",
          "type": "uint256"
        }
      ],
      "name": "PulledRedeemManagerExceedingEth",
      "type": "event"
    },
    {
      "anonymous": false,
      "inputs": [
        {
          "indexed": false,
          "internalType": "uint256",
          "name": "redeemManagerDemand",
          "type": "uint256"
        },
        {
          "indexed": false,
          "internalType": "uint256",
          "name": "suppliedRedeemManagerDemand",
          "type": "uint256"
        },
        {
          "indexed": false,
          "internalType": "uint256",
          "name": "suppliedRedeemManagerDemandInEth",
          "type": "uint256"
        }
      ],
      "name": "ReportedRedeemManager",
      "type": "event"
    },
    {
      "anonymous": false,
      "inputs": [
        {
          "indexed": true,
          "internalType": "address",
          "name": "_collector",
          "type": "address"
        },
        {
          "indexed": false,
          "internalType": "uint256",
          "name": "_oldTotalUnderlyingBalance",
          "type": "uint256"
        },
        {
          "indexed": false,
          "internalType": "uint256",
          "name": "_oldTotalSupply",
          "type": "uint256"
        },
        {
          "indexed": false,
          "internalType": "uint256",
          "name": "_newTotalUnderlyingBalance",
          "type": "uint256"
        },
        {
          "indexed": false,
          "internalType": "uint256",
          "name": "_newTotalSupply",
          "type": "uint256"
        }
      ],
      "name": "RewardsEarned",
      "type": "event"
    },
    {
      "anonymous": false,
      "inputs": [
        {
          "indexed": true,
          "internalType": "address",
          "name": "admin",
          "type": "address"
        }
      ],
      "name": "SetAdmin",
      "type": "event"
    },
    {
      "anonymous": false,
      "inputs": [
        {
          "indexed": true,
          "internalType": "address",
          "name": "allowlist",
          "type": "address"
        }
      ],
      "name": "SetAllowlist",
      "type": "event"
    },
    {
      "anonymous": false,
      "inputs": [
        {
          "indexed": false,
          "internalType": "uint256",
          "name": "oldAmount",
          "type": "uint256"
        },
        {
          "indexed": false,
          "internalType": "uint256",
          "name": "newAmount",
          "type": "uint256"
        }
      ],
      "name": "SetBalanceCommittedToDeposit",
      "type": "event"
    },
    {
      "anonymous": false,
      "inputs": [
        {
          "indexed": false,
          "internalType": "uint256",
          "name": "oldAmount",
          "type": "uint256"
        },
        {
          "indexed": false,
          "internalType": "uint256",
          "name": "newAmount",
          "type": "uint256"
        }
      ],
      "name": "SetBalanceToDeposit",
      "type": "event"
    },
    {
      "anonymous": false,
      "inputs": [
        {
          "indexed": false,
          "internalType": "uint256",
          "name": "oldAmount",
          "type": "uint256"
        },
        {
          "indexed": false,
          "internalType": "uint256",
          "name": "newAmount",
          "type": "uint256"
        }
      ],
      "name": "SetBalanceToRedeem",
      "type": "event"
    },
    {
      "anonymous": false,
      "inputs": [
        {
          "indexed": false,
          "internalType": "uint256",
          "name": "annualAprUpperBound",
          "type": "uint256"
        },
        {
          "indexed": false,
          "internalType": "uint256",
          "name": "relativeLowerBound",
          "type": "uint256"
        }
      ],
      "name": "SetBounds",
      "type": "event"
    },
    {
      "anonymous": false,
      "inputs": [
        {
          "indexed": true,
          "internalType": "address",
          "name": "collector",
          "type": "address"
        }
      ],
      "name": "SetCollector",
      "type": "event"
    },
    {
      "anonymous": false,
      "inputs": [
        {
          "indexed": true,
          "internalType": "address",
          "name": "coverageFund",
          "type": "address"
        }
      ],
      "name": "SetCoverageFund",
      "type": "event"
    },
    {
      "anonymous": false,
      "inputs": [
        {
          "indexed": true,
          "internalType": "address",
          "name": "depositContract",
          "type": "address"
        }
      ],
      "name": "SetDepositContractAddress",
      "type": "event"
    },
    {
      "anonymous": false,
      "inputs": [
        {
          "indexed": false,
          "internalType": "uint256",
          "name": "oldDepositedValidatorCount",
          "type": "uint256"
        },
        {
          "indexed": false,
          "internalType": "uint256",
          "name": "newDepositedValidatorCount",
          "type": "uint256"
        }
      ],
      "name": "SetDepositedValidatorCount",
      "type": "event"
    },
    {
      "anonymous": false,
      "inputs": [
        {
          "indexed": true,
          "internalType": "address",
          "name": "elFeeRecipient",
          "type": "address"
        }
      ],
      "name": "SetELFeeRecipient",
      "type": "event"
    },
    {
      "anonymous": false,
      "inputs": [
        {
          "indexed": false,
          "internalType": "uint256",
          "name": "fee",
          "type": "uint256"
        }
      ],
      "name": "SetGlobalFee",
      "type": "event"
    },
    {
      "anonymous": false,
      "inputs": [
        {
          "indexed": false,
          "internalType": "uint256",
          "name": "maxNetAmount",
          "type": "uint256"
        },
        {
          "indexed": false,
          "internalType": "uint256",
          "name": "maxRelativeAmount",
          "type": "uint256"
        }
      ],
      "name": "SetMaxDailyCommittableAmounts",
      "type": "event"
    },
    {
      "anonymous": false,
      "inputs": [
        {
          "indexed": false,
          "internalType": "string",
          "name": "metadataURI",
          "type": "string"
        }
      ],
      "name": "SetMetadataURI",
      "type": "event"
    },
    {
      "anonymous": false,
      "inputs": [
        {
          "indexed": true,
          "internalType": "address",
          "name": "operatorRegistry",
          "type": "address"
        }
      ],
      "name": "SetOperatorsRegistry",
      "type": "event"
    },
    {
      "anonymous": false,
      "inputs": [
        {
          "indexed": true,
          "internalType": "address",
          "name": "oracleAddress",
          "type": "address"
        }
      ],
      "name": "SetOracle",
      "type": "event"
    },
    {
      "anonymous": false,
      "inputs": [
        {
          "indexed": true,
          "internalType": "address",
          "name": "pendingAdmin",
          "type": "address"
        }
      ],
      "name": "SetPendingAdmin",
      "type": "event"
    },
    {
      "anonymous": false,
      "inputs": [
        {
          "indexed": false,
          "internalType": "address",
          "name": "redeemManager",
          "type": "address"
        }
      ],
      "name": "SetRedeemManager",
      "type": "event"
    },
    {
      "anonymous": false,
      "inputs": [
        {
          "indexed": false,
          "internalType": "uint64",
          "name": "epochsPerFrame",
          "type": "uint64"
        },
        {
          "indexed": false,
          "internalType": "uint64",
          "name": "slotsPerEpoch",
          "type": "uint64"
        },
        {
          "indexed": false,
          "internalType": "uint64",
          "name": "secondsPerSlot",
          "type": "uint64"
        },
        {
          "indexed": false,
          "internalType": "uint64",
          "name": "genesisTime",
          "type": "uint64"
        },
        {
          "indexed": false,
          "internalType": "uint64",
          "name": "epochsToAssumedFinality",
          "type": "uint64"
        }
      ],
      "name": "SetSpec",
      "type": "event"
    },
    {
      "anonymous": false,
      "inputs": [
        {
          "indexed": false,
          "internalType": "uint256",
          "name": "totalSupply",
          "type": "uint256"
        }
      ],
      "name": "SetTotalSupply",
      "type": "event"
    },
    {
      "anonymous": false,
      "inputs": [
        {
          "indexed": false,
          "internalType": "bytes32",
          "name": "withdrawalCredentials",
          "type": "bytes32"
        }
      ],
      "name": "SetWithdrawalCredentials",
      "type": "event"
    },
    {
      "anonymous": false,
      "inputs": [
        {
          "indexed": true,
          "internalType": "address",
          "name": "from",
          "type": "address"
        },
        {
          "indexed": true,
          "internalType": "address",
          "name": "to",
          "type": "address"
        },
        {
          "indexed": false,
          "internalType": "uint256",
          "name": "value",
          "type": "uint256"
        }
      ],
      "name": "Transfer",
      "type": "event"
    },
    {
      "anonymous": false,
      "inputs": [
        {
          "indexed": true,
          "internalType": "address",
          "name": "depositor",
          "type": "address"
        },
        {
          "indexed": true,
          "internalType": "address",
          "name": "recipient",
          "type": "address"
        },
        {
          "indexed": false,
          "internalType": "uint256",
          "name": "amount",
          "type": "uint256"
        }
      ],
      "name": "UserDeposit",
      "type": "event"
    },
    {
      "stateMutability": "payable",
      "type": "fallback"
    },
    {
      "inputs": [],
      "name": "DEPOSIT_SIZE",
      "outputs": [
        {
          "internalType": "uint256",
          "name": "",
          "type": "uint256"
        }
      ],
      "stateMutability": "view",
      "type": "function"
    },
    {
      "inputs": [],
      "name": "PUBLIC_KEY_LENGTH",
      "outputs": [
        {
          "internalType": "uint256",
          "name": "",
          "type": "uint256"
        }
      ],
      "stateMutability": "view",
      "type": "function"
    },
    {
      "inputs": [],
      "name": "SIGNATURE_LENGTH",
      "outputs": [
        {
          "internalType": "uint256",
          "name": "",
          "type": "uint256"
        }
      ],
      "stateMutability": "view",
      "type": "function"
    },
    {
      "inputs": [],
      "name": "_DEPOSIT_SIZE",
      "outputs": [
        {
          "internalType": "uint256",
          "name": "",
          "type": "uint256"
        }
      ],
      "stateMutability": "view",
      "type": "function"
    },
    {
      "inputs": [],
      "name": "acceptAdmin",
      "outputs": [],
      "stateMutability": "nonpayable",
      "type": "function"
    },
    {
      "inputs": [
        {
          "internalType": "address",
          "name": "_owner",
          "type": "address"
        },
        {
          "internalType": "address",
          "name": "_spender",
          "type": "address"
        }
      ],
      "name": "allowance",
      "outputs": [
        {
          "internalType": "uint256",
          "name": "",
          "type": "uint256"
        }
      ],
      "stateMutability": "view",
      "type": "function"
    },
    {
      "inputs": [
        {
          "internalType": "address",
          "name": "_spender",
          "type": "address"
        },
        {
          "internalType": "uint256",
          "name": "_value",
          "type": "uint256"
        }
      ],
      "name": "approve",
      "outputs": [
        {
          "internalType": "bool",
          "name": "",
          "type": "bool"
        }
      ],
      "stateMutability": "nonpayable",
      "type": "function"
    },
    {
      "inputs": [
        {
          "internalType": "address",
          "name": "_owner",
          "type": "address"
        }
      ],
      "name": "balanceOf",
      "outputs": [
        {
          "internalType": "uint256",
          "name": "",
          "type": "uint256"
        }
      ],
      "stateMutability": "view",
      "type": "function"
    },
    {
      "inputs": [
        {
          "internalType": "address",
          "name": "_owner",
          "type": "address"
        }
      ],
      "name": "balanceOfUnderlying",
      "outputs": [
        {
          "internalType": "uint256",
          "name": "",
          "type": "uint256"
        }
      ],
      "stateMutability": "view",
      "type": "function"
    },
    {
      "inputs": [
        {
          "internalType": "uint32[]",
          "name": "redeemRequestIds",
          "type": "uint32[]"
        },
        {
          "internalType": "uint32[]",
          "name": "withdrawalEventIds",
          "type": "uint32[]"
        }
      ],
      "name": "claimRedeemRequests",
      "outputs": [
        {
          "internalType": "uint8[]",
          "name": "claimStatuses",
          "type": "uint8[]"
        }
      ],
      "stateMutability": "nonpayable",
      "type": "function"
    },
    {
      "inputs": [],
      "name": "decimals",
      "outputs": [
        {
          "internalType": "uint8",
          "name": "",
          "type": "uint8"
        }
      ],
      "stateMutability": "pure",
      "type": "function"
    },
    {
      "inputs": [
        {
          "internalType": "address",
          "name": "_spender",
          "type": "address"
        },
        {
          "internalType": "uint256",
          "name": "_subtractableValue",
          "type": "uint256"
        }
      ],
      "name": "decreaseAllowance",
      "outputs": [
        {
          "internalType": "bool",
          "name": "",
          "type": "bool"
        }
      ],
      "stateMutability": "nonpayable",
      "type": "function"
    },
    {
      "inputs": [],
      "name": "deposit",
      "outputs": [],
      "stateMutability": "payable",
      "type": "function"
    },
    {
      "inputs": [
        {
          "internalType": "address",
          "name": "_recipient",
          "type": "address"
        }
      ],
      "name": "depositAndTransfer",
      "outputs": [],
      "stateMutability": "payable",
      "type": "function"
    },
    {
      "inputs": [
        {
          "internalType": "uint256",
          "name": "_maxCount",
          "type": "uint256"
        }
      ],
      "name": "depositToConsensusLayer",
      "outputs": [],
      "stateMutability": "nonpayable",
      "type": "function"
    },
    {
      "inputs": [],
      "name": "getAdmin",
      "outputs": [
        {
          "internalType": "address",
          "name": "",
          "type": "address"
        }
      ],
      "stateMutability": "view",
      "type": "function"
    },
    {
      "inputs": [],
      "name": "getAllowlist",
      "outputs": [
        {
          "internalType": "address",
          "name": "",
          "type": "address"
        }
      ],
      "stateMutability": "view",
      "type": "function"
    },
    {
      "inputs": [],
      "name": "getBalanceToDeposit",
      "outputs": [
        {
          "internalType": "uint256",
          "name": "",
          "type": "uint256"
        }
      ],
      "stateMutability": "view",
      "type": "function"
    },
    {
      "inputs": [],
      "name": "getBalanceToRedeem",
      "outputs": [
        {
          "internalType": "uint256",
          "name": "",
          "type": "uint256"
        }
      ],
      "stateMutability": "view",
      "type": "function"
    },
    {
      "inputs": [],
      "name": "getCLSpec",
      "outputs": [
        {
          "components": [
            {
              "internalType": "uint64",
              "name": "epochsPerFrame",
              "type": "uint64"
            },
            {
              "internalType": "uint64",
              "name": "slotsPerEpoch",
              "type": "uint64"
            },
            {
              "internalType": "uint64",
              "name": "secondsPerSlot",
              "type": "uint64"
            },
            {
              "internalType": "uint64",
              "name": "genesisTime",
              "type": "uint64"
            },
            {
              "internalType": "uint64",
              "name": "epochsToAssumedFinality",
              "type": "uint64"
            }
          ],
          "internalType": "struct CLSpec.CLSpecStruct",
          "name": "",
          "type": "tuple"
        }
      ],
      "stateMutability": "view",
      "type": "function"
    },
    {
      "inputs": [],
      "name": "getCLValidatorCount",
      "outputs": [
        {
          "internalType": "uint256",
          "name": "",
          "type": "uint256"
        }
      ],
      "stateMutability": "view",
      "type": "function"
    },
    {
      "inputs": [],
      "name": "getCLValidatorTotalBalance",
      "outputs": [
        {
          "internalType": "uint256",
          "name": "",
          "type": "uint256"
        }
      ],
      "stateMutability": "view",
      "type": "function"
    },
    {
      "inputs": [],
      "name": "getCollector",
      "outputs": [
        {
          "internalType": "address",
          "name": "",
          "type": "address"
        }
      ],
      "stateMutability": "view",
      "type": "function"
    },
    {
      "inputs": [],
      "name": "getCommittedBalance",
      "outputs": [
        {
          "internalType": "uint256",
          "name": "",
          "type": "uint256"
        }
      ],
      "stateMutability": "view",
      "type": "function"
    },
    {
      "inputs": [],
      "name": "getCoverageFund",
      "outputs": [
        {
          "internalType": "address",
          "name": "",
          "type": "address"
        }
      ],
      "stateMutability": "view",
      "type": "function"
    },
    {
      "inputs": [],
      "name": "getCurrentEpochId",
      "outputs": [
        {
          "internalType": "uint256",
          "name": "",
          "type": "uint256"
        }
      ],
      "stateMutability": "view",
      "type": "function"
    },
    {
      "inputs": [],
      "name": "getCurrentFrame",
      "outputs": [
        {
          "internalType": "uint256",
          "name": "_startEpochId",
          "type": "uint256"
        },
        {
          "internalType": "uint256",
          "name": "_startTime",
          "type": "uint256"
        },
        {
          "internalType": "uint256",
          "name": "_endTime",
          "type": "uint256"
        }
      ],
      "stateMutability": "view",
      "type": "function"
    },
    {
      "inputs": [],
      "name": "getDailyCommittableLimits",
      "outputs": [
        {
          "components": [
            {
              "internalType": "uint128",
              "name": "maxDailyNetCommittableAmount",
              "type": "uint128"
            },
            {
              "internalType": "uint128",
              "name": "maxDailyRelativeCommittableAmount",
              "type": "uint128"
            }
          ],
          "internalType": "struct DailyCommittableLimits.DailyCommittableLimitsStruct",
          "name": "",
          "type": "tuple"
        }
      ],
      "stateMutability": "view",
      "type": "function"
    },
    {
      "inputs": [],
      "name": "getDepositedValidatorCount",
      "outputs": [
        {
          "internalType": "uint256",
          "name": "",
          "type": "uint256"
        }
      ],
      "stateMutability": "view",
      "type": "function"
    },
    {
      "inputs": [],
      "name": "getELFeeRecipient",
      "outputs": [
        {
          "internalType": "address",
          "name": "",
          "type": "address"
        }
      ],
      "stateMutability": "view",
      "type": "function"
    },
    {
      "inputs": [],
      "name": "getExpectedEpochId",
      "outputs": [
        {
          "internalType": "uint256",
          "name": "",
          "type": "uint256"
        }
      ],
      "stateMutability": "view",
      "type": "function"
    },
    {
      "inputs": [
        {
          "internalType": "uint256",
          "name": "_epochId",
          "type": "uint256"
        }
      ],
      "name": "getFrameFirstEpochId",
      "outputs": [
        {
          "internalType": "uint256",
          "name": "",
          "type": "uint256"
        }
      ],
      "stateMutability": "view",
      "type": "function"
    },
    {
      "inputs": [],
      "name": "getGlobalFee",
      "outputs": [
        {
          "internalType": "uint256",
          "name": "",
          "type": "uint256"
        }
      ],
      "stateMutability": "view",
      "type": "function"
    },
    {
      "inputs": [],
      "name": "getLastCompletedEpochId",
      "outputs": [
        {
          "internalType": "uint256",
          "name": "",
          "type": "uint256"
        }
      ],
      "stateMutability": "view",
      "type": "function"
    },
    {
      "inputs": [],
      "name": "getLastConsensusLayerReport",
      "outputs": [
        {
          "components": [
            {
              "internalType": "uint256",
              "name": "epoch",
              "type": "uint256"
            },
            {
              "internalType": "uint256",
              "name": "validatorsBalance",
              "type": "uint256"
            },
            {
              "internalType": "uint256",
              "name": "validatorsSkimmedBalance",
              "type": "uint256"
            },
            {
              "internalType": "uint256",
              "name": "validatorsExitedBalance",
              "type": "uint256"
            },
            {
              "internalType": "uint256",
              "name": "validatorsExitingBalance",
              "type": "uint256"
            },
            {
              "internalType": "uint32",
              "name": "validatorsCount",
              "type": "uint32"
            },
            {
              "internalType": "bool",
              "name": "bufferRebalancingMode",
              "type": "bool"
            },
            {
              "internalType": "bool",
              "name": "slashingContainmentMode",
              "type": "bool"
            }
          ],
          "internalType": "struct IOracleManagerV1.StoredConsensusLayerReport",
          "name": "",
          "type": "tuple"
        }
      ],
      "stateMutability": "view",
      "type": "function"
    },
    {
      "inputs": [],
      "name": "getMetadataURI",
      "outputs": [
        {
          "internalType": "string",
          "name": "",
          "type": "string"
        }
      ],
      "stateMutability": "view",
      "type": "function"
    },
    {
      "inputs": [],
      "name": "getOperatorsRegistry",
      "outputs": [
        {
          "internalType": "address",
          "name": "",
          "type": "address"
        }
      ],
      "stateMutability": "view",
      "type": "function"
    },
    {
      "inputs": [],
      "name": "getOracle",
      "outputs": [
        {
          "internalType": "address",
          "name": "",
          "type": "address"
        }
      ],
      "stateMutability": "view",
      "type": "function"
    },
    {
      "inputs": [],
      "name": "getPendingAdmin",
      "outputs": [
        {
          "internalType": "address",
          "name": "",
          "type": "address"
        }
      ],
      "stateMutability": "view",
      "type": "function"
    },
    {
      "inputs": [],
      "name": "getReportBounds",
      "outputs": [
        {
          "components": [
            {
              "internalType": "uint256",
              "name": "annualAprUpperBound",
              "type": "uint256"
            },
            {
              "internalType": "uint256",
              "name": "relativeLowerBound",
              "type": "uint256"
            }
          ],
          "internalType": "struct ReportBounds.ReportBoundsStruct",
          "name": "",
          "type": "tuple"
        }
      ],
      "stateMutability": "view",
      "type": "function"
    },
    {
      "inputs": [],
      "name": "getTime",
      "outputs": [
        {
          "internalType": "uint256",
          "name": "",
          "type": "uint256"
        }
      ],
      "stateMutability": "view",
      "type": "function"
    },
    {
      "inputs": [],
      "name": "getWithdrawalCredentials",
      "outputs": [
        {
          "internalType": "bytes32",
          "name": "",
          "type": "bytes32"
        }
      ],
      "stateMutability": "view",
      "type": "function"
    },
    {
      "inputs": [
        {
          "internalType": "address",
          "name": "_spender",
          "type": "address"
        },
        {
          "internalType": "uint256",
          "name": "_additionalValue",
          "type": "uint256"
        }
      ],
      "name": "increaseAllowance",
      "outputs": [
        {
          "internalType": "bool",
          "name": "",
          "type": "bool"
        }
      ],
      "stateMutability": "nonpayable",
      "type": "function"
    },
    {
      "inputs": [
        {
          "internalType": "address",
          "name": "_depositContractAddress",
          "type": "address"
        },
        {
          "internalType": "address",
          "name": "_elFeeRecipientAddress",
          "type": "address"
        },
        {
          "internalType": "bytes32",
          "name": "_withdrawalCredentials",
          "type": "bytes32"
        },
        {
          "internalType": "address",
          "name": "_oracleAddress",
          "type": "address"
        },
        {
          "internalType": "address",
          "name": "_systemAdministratorAddress",
          "type": "address"
        },
        {
          "internalType": "address",
          "name": "_allowlistAddress",
          "type": "address"
        },
        {
          "internalType": "address",
          "name": "_operatorRegistryAddress",
          "type": "address"
        },
        {
          "internalType": "address",
          "name": "_collectorAddress",
          "type": "address"
        },
        {
          "internalType": "uint256",
          "name": "_globalFee",
          "type": "uint256"
        }
      ],
      "name": "initRiverV1",
      "outputs": [],
      "stateMutability": "nonpayable",
      "type": "function"
    },
    {
      "inputs": [
        {
          "internalType": "address",
          "name": "_redeemManager",
          "type": "address"
        },
        {
          "internalType": "uint64",
          "name": "epochsPerFrame",
          "type": "uint64"
        },
        {
          "internalType": "uint64",
          "name": "slotsPerEpoch",
          "type": "uint64"
        },
        {
          "internalType": "uint64",
          "name": "secondsPerSlot",
          "type": "uint64"
        },
        {
          "internalType": "uint64",
          "name": "genesisTime",
          "type": "uint64"
        },
        {
          "internalType": "uint64",
          "name": "epochsToAssumedFinality",
          "type": "uint64"
        },
        {
          "internalType": "uint256",
          "name": "annualAprUpperBound",
          "type": "uint256"
        },
        {
          "internalType": "uint256",
          "name": "relativeLowerBound",
          "type": "uint256"
        },
        {
          "internalType": "uint128",
          "name": "maxDailyNetCommittableAmount_",
          "type": "uint128"
        },
        {
          "internalType": "uint128",
          "name": "maxDailyRelativeCommittableAmount_",
          "type": "uint128"
        }
      ],
      "name": "initRiverV1_1",
      "outputs": [],
      "stateMutability": "nonpayable",
      "type": "function"
    },
    {
      "inputs": [
        {
          "internalType": "uint256",
          "name": "epoch",
          "type": "uint256"
        }
      ],
      "name": "isValidEpoch",
      "outputs": [
        {
          "internalType": "bool",
          "name": "",
          "type": "bool"
        }
      ],
      "stateMutability": "view",
      "type": "function"
    },
    {
      "inputs": [],
      "name": "name",
      "outputs": [
        {
          "internalType": "string",
          "name": "",
          "type": "string"
        }
      ],
      "stateMutability": "pure",
      "type": "function"
    },
    {
      "inputs": [
        {
          "internalType": "address",
          "name": "_newAdmin",
          "type": "address"
        }
      ],
      "name": "proposeAdmin",
      "outputs": [],
      "stateMutability": "nonpayable",
      "type": "function"
    },
    {
      "inputs": [
        {
          "internalType": "uint256",
          "name": "lsETHAmount",
          "type": "uint256"
        }
      ],
      "name": "requestRedeem",
      "outputs": [
        {
          "internalType": "uint32",
          "name": "redeemRequestId",
          "type": "uint32"
        }
      ],
      "stateMutability": "nonpayable",
      "type": "function"
    },
    {
      "inputs": [
        {
          "internalType": "uint32[]",
          "name": "redeemRequestIds",
          "type": "uint32[]"
        }
      ],
      "name": "resolveRedeemRequests",
      "outputs": [
        {
          "internalType": "int64[]",
          "name": "withdrawalEventIds",
          "type": "int64[]"
        }
      ],
      "stateMutability": "view",
      "type": "function"
    },
    {
      "inputs": [],
      "name": "sendCLFunds",
      "outputs": [],
      "stateMutability": "payable",
      "type": "function"
    },
    {
      "inputs": [],
      "name": "sendCoverageFunds",
      "outputs": [],
      "stateMutability": "payable",
      "type": "function"
    },
    {
      "inputs": [],
      "name": "sendELFees",
      "outputs": [],
      "stateMutability": "payable",
      "type": "function"
    },
    {
      "inputs": [],
      "name": "sendRedeemManagerExceedingFunds",
      "outputs": [],
      "stateMutability": "payable",
      "type": "function"
    },
    {
      "inputs": [
        {
          "internalType": "address",
          "name": "_newAllowlist",
          "type": "address"
        }
      ],
      "name": "setAllowlist",
      "outputs": [],
      "stateMutability": "nonpayable",
      "type": "function"
    },
    {
      "inputs": [
        {
          "components": [
            {
              "internalType": "uint64",
              "name": "epochsPerFrame",
              "type": "uint64"
            },
            {
              "internalType": "uint64",
              "name": "slotsPerEpoch",
              "type": "uint64"
            },
            {
              "internalType": "uint64",
              "name": "secondsPerSlot",
              "type": "uint64"
            },
            {
              "internalType": "uint64",
              "name": "genesisTime",
              "type": "uint64"
            },
            {
              "internalType": "uint64",
              "name": "epochsToAssumedFinality",
              "type": "uint64"
            }
          ],
          "internalType": "struct CLSpec.CLSpecStruct",
          "name": "newValue",
          "type": "tuple"
        }
      ],
      "name": "setCLSpec",
      "outputs": [],
      "stateMutability": "nonpayable",
      "type": "function"
    },
    {
      "inputs": [
        {
          "internalType": "address",
          "name": "_newCollector",
          "type": "address"
        }
      ],
      "name": "setCollector",
      "outputs": [],
      "stateMutability": "nonpayable",
      "type": "function"
    },
    {
      "inputs": [
        {
          "components": [
            {
              "internalType": "uint256",
              "name": "epoch",
              "type": "uint256"
            },
            {
              "internalType": "uint256",
              "name": "validatorsBalance",
              "type": "uint256"
            },
            {
              "internalType": "uint256",
              "name": "validatorsSkimmedBalance",
              "type": "uint256"
            },
            {
              "internalType": "uint256",
              "name": "validatorsExitedBalance",
              "type": "uint256"
            },
            {
              "internalType": "uint256",
              "name": "validatorsExitingBalance",
              "type": "uint256"
            },
            {
              "internalType": "uint32",
              "name": "validatorsCount",
              "type": "uint32"
            },
            {
              "internalType": "uint32[]",
              "name": "stoppedValidatorCountPerOperator",
              "type": "uint32[]"
            },
            {
              "internalType": "bool",
              "name": "bufferRebalancingMode",
              "type": "bool"
            },
            {
              "internalType": "bool",
              "name": "slashingContainmentMode",
              "type": "bool"
            }
          ],
          "internalType": "struct IOracleManagerV1.ConsensusLayerReport",
          "name": "report",
          "type": "tuple"
        }
      ],
      "name": "setConsensusLayerData",
      "outputs": [],
      "stateMutability": "nonpayable",
      "type": "function"
    },
    {
      "inputs": [
        {
          "internalType": "address",
          "name": "_newCoverageFund",
          "type": "address"
        }
      ],
      "name": "setCoverageFund",
      "outputs": [],
      "stateMutability": "nonpayable",
      "type": "function"
    },
    {
      "inputs": [
        {
          "components": [
            {
              "internalType": "uint128",
              "name": "maxDailyNetCommittableAmount",
              "type": "uint128"
            },
            {
              "internalType": "uint128",
              "name": "maxDailyRelativeCommittableAmount",
              "type": "uint128"
            }
          ],
          "internalType": "struct DailyCommittableLimits.DailyCommittableLimitsStruct",
          "name": "dcl",
          "type": "tuple"
        }
      ],
      "name": "setDailyCommittableLimits",
      "outputs": [],
      "stateMutability": "nonpayable",
      "type": "function"
    },
    {
      "inputs": [
        {
          "internalType": "address",
          "name": "_newELFeeRecipient",
          "type": "address"
        }
      ],
      "name": "setELFeeRecipient",
      "outputs": [],
      "stateMutability": "nonpayable",
      "type": "function"
    },
    {
      "inputs": [
        {
          "internalType": "uint256",
          "name": "newFee",
          "type": "uint256"
        }
      ],
      "name": "setGlobalFee",
      "outputs": [],
      "stateMutability": "nonpayable",
      "type": "function"
    },
    {
      "inputs": [
        {
          "internalType": "string",
          "name": "_metadataURI",
          "type": "string"
        }
      ],
      "name": "setMetadataURI",
      "outputs": [],
      "stateMutability": "nonpayable",
      "type": "function"
    },
    {
      "inputs": [
        {
          "internalType": "address",
          "name": "_oracleAddress",
          "type": "address"
        }
      ],
      "name": "setOracle",
      "outputs": [],
      "stateMutability": "nonpayable",
      "type": "function"
    },
    {
      "inputs": [
        {
          "components": [
            {
              "internalType": "uint256",
              "name": "annualAprUpperBound",
              "type": "uint256"
            },
            {
              "internalType": "uint256",
              "name": "relativeLowerBound",
              "type": "uint256"
            }
          ],
          "internalType": "struct ReportBounds.ReportBoundsStruct",
          "name": "newValue",
          "type": "tuple"
        }
      ],
      "name": "setReportBounds",
      "outputs": [],
      "stateMutability": "nonpayable",
      "type": "function"
    },
    {
      "inputs": [
        {
          "internalType": "uint256",
          "name": "_underlyingAssetAmount",
          "type": "uint256"
        }
      ],
      "name": "sharesFromUnderlyingBalance",
      "outputs": [
        {
          "internalType": "uint256",
          "name": "",
          "type": "uint256"
        }
      ],
      "stateMutability": "view",
      "type": "function"
    },
    {
      "inputs": [],
      "name": "symbol",
      "outputs": [
        {
          "internalType": "string",
          "name": "",
          "type": "string"
        }
      ],
      "stateMutability": "pure",
      "type": "function"
    },
    {
      "inputs": [],
      "name": "totalSupply",
      "outputs": [
        {
          "internalType": "uint256",
          "name": "",
          "type": "uint256"
        }
      ],
      "stateMutability": "view",
      "type": "function"
    },
    {
      "inputs": [],
      "name": "totalUnderlyingSupply",
      "outputs": [
        {
          "internalType": "uint256",
          "name": "",
          "type": "uint256"
        }
      ],
      "stateMutability": "view",
      "type": "function"
    },
    {
      "inputs": [
        {
          "internalType": "address",
          "name": "_to",
          "type": "address"
        },
        {
          "internalType": "uint256",
          "name": "_value",
          "type": "uint256"
        }
      ],
      "name": "transfer",
      "outputs": [
        {
          "internalType": "bool",
          "name": "",
          "type": "bool"
        }
      ],
      "stateMutability": "nonpayable",
      "type": "function"
    },
    {
      "inputs": [
        {
          "internalType": "address",
          "name": "_from",
          "type": "address"
        },
        {
          "internalType": "address",
          "name": "_to",
          "type": "address"
        },
        {
          "internalType": "uint256",
          "name": "_value",
          "type": "uint256"
        }
      ],
      "name": "transferFrom",
      "outputs": [
        {
          "internalType": "bool",
          "name": "",
          "type": "bool"
        }
      ],
      "stateMutability": "nonpayable",
      "type": "function"
    },
    {
      "inputs": [
        {
          "internalType": "uint256",
          "name": "_shares",
          "type": "uint256"
        }
      ],
      "name": "underlyingBalanceFromShares",
      "outputs": [
        {
          "internalType": "uint256",
          "name": "",
          "type": "uint256"
        }
      ],
      "stateMutability": "view",
      "type": "function"
    },
    {
      "stateMutability": "payable",
      "type": "receive"
    }
  ],
  "transactionHash": "0x0d1ae3a24a27cc4ee53643e37bb0e403e655b38651f09562116ea1235b70c721",
  "args": [],
  "numDeployments": 1,
  "solcInputHash": "0a2910002f1f7235235bf4c9129dadf0",
  "bytecode": "0x60806040523480156200001157600080fd5b506200002a6000196200007060201b620025801760201c565b7f1809e49bba43f2d39fa57894b50cd6ccb428cc438230e065cac3eb24a1355a716000196000366040516200006293929190620000bd565b60405180910390a162000119565b620000b6620000a160017f82055909238c0f5e63d6f174068ebb8f51bcec9bd37de63bb68f6551feec0cfd620000f3565b60001b82620000b960201b620025b31760201c565b50565b9055565b83815260406020820152816040820152818360608301376000818301606090810191909152601f909201601f1916010192915050565b6000828210156200011457634e487b7160e01b600052601160045260246000fd5b500390565b615f5280620001296000396000f3fe60806040526004361061039f5760003560e01c80635f2e5f07116101de578063a9059cbb11610103578063d7f8f4741161009b578063d7f8f47414610740578063dd62ed3e14610b73578063e3a88e6114610b93578063efd6034714610bcf578063efd6684614610bd7578063f79c3f0214610bf7578063f9f95a9014610c17578063fb5b82d014610c37578063fe7c12ae14610c57576103af565b8063a9059cbb14610a9c578063aa2f892d14610abc578063ac232bde14610af1578063bb6583ec14610b04578063bf15af5614610b24578063c5eff3d014610b39578063d046815614610b4e578063d0e30db014610b63578063d497052414610b6b576103af565b806386a92af71161017657806386a92af71461098857806387f2adfb1461099d57806389896aef146109b25780639332525d146109c757806395d89b41146109f45780639b498e2614610a225780639d49cca114610a37578063a29a839f14610a67578063a457c2d714610a7c576103af565b80635f2e5f07146108615780636e9960c31461088e57806370a08231146108a357806372f79b13146108c3578063750521f5146108f357806378a010e814610913578063799a1954146109335780637adbf97314610953578063833b1fce14610973576103af565b8063281a3122116102c457806346425ef01161025c57806346425ef01461079d5780634b47b74f146107b257806350228201146107c7578063540bc5ea146107dc578063557ed1ba146107f1578063563967151461080457806357fa85471461081957806358bf3c7f146108395780635d95e80114610859576103af565b8063281a312214610656578063291206f6146106765780632cb562e1146106965780632d6b59bf146106ab5780632dc5c97c146106c0578063313ce5671461072457806336bf332514610740578063395093511461075d5780633af9e6691461077d576103af565b806313d86aed1161033757806313d86aed146104f5578063143a08d414610515578063147bf6c41461052a5780631546962b1461054a57806315ca4cee1461056c57806317e648581461058c57806318160ddd1461060c5780631bcbfaba1461062157806323b872dd14610636576103af565b8063020f086e146103c85780630407de47146103e857806304843a1714610408578063056850c61461043057806306fdde0314610438578063095ea7b31461047b5780630e18b681146104ab578063107d7fa0146104c05780631311cf8d146104d5576103af565b366103af576103ad33610c6c565b005b60405163574b16a760e11b815260040160405180910390fd5b3480156103d457600080fd5b506103ad6103e3366004615051565b610cf3565b3480156103f457600080fd5b506103ad61040336600461509a565b610d77565b34801561041457600080fd5b5061041d610edb565b6040519081526020015b60405180910390f35b6103ad610eea565b34801561044457600080fd5b50604080518082019091526011815270098d2e2ead2c840a6e8c2d6cac8408aa89607b1b60208201525b604051610427919061519e565b34801561048757600080fd5b5061049b6104963660046151b1565b610f27565b6040519015158152602001610427565b3480156104b757600080fd5b506103ad610f3d565b3480156104cc57600080fd5b5061041d610f92565b3480156104e157600080fd5b506103ad6104f0366004615051565b610fab565b34801561050157600080fd5b506103ad6105103660046151db565b611026565b34801561052157600080fd5b5061041d6111f1565b34801561053657600080fd5b506103ad610545366004615051565b6111fb565b34801561055657600080fd5b5061055f611242565b60405161042791906151f4565b34801561057857600080fd5b506103ad610587366004615208565b61124c565b34801561059857600080fd5b506105a16112df565b6040516104279190600061010082019050825182526020830151602083015260408301516040830152606083015160608301526080830151608083015263ffffffff60a08401511660a083015260c0830151151560c083015260e0830151151560e083015292915050565b34801561061857600080fd5b5061041d611362565b34801561062d57600080fd5b5061041d61136c565b34801561064257600080fd5b5061049b61065136600461521a565b611376565b34801561066257600080fd5b506103ad610671366004615256565b611429565b34801561068257600080fd5b506103ad6106913660046151db565b6115e4565b3480156106a257600080fd5b5061055f611658565b3480156106b757600080fd5b5061041d611662565b3480156106cc57600080fd5b506106d561166c565b604051610427919081516001600160401b039081168252602080840151821690830152604080840151821690830152606080840151821690830152608092830151169181019190915260a00190565b34801561073057600080fd5b5060405160128152602001610427565b34801561074c57600080fd5b5061041d6801bc16d674ec80000081565b34801561076957600080fd5b5061049b6107783660046151b1565b61167c565b34801561078957600080fd5b5061041d610798366004615051565b61169d565b3480156107a957600080fd5b5061041d6116b6565b3480156107be57600080fd5b5061041d6116c9565b3480156107d357600080fd5b5061055f611732565b3480156107e857600080fd5b5061041d606081565b3480156107fd57600080fd5b504261041d565b34801561081057600080fd5b5061041d61173c565b34801561082557600080fd5b5061041d6108343660046151db565b611746565b34801561084557600080fd5b506103ad610854366004615051565b61176e565b6103ad6117e9565b34801561086d57600080fd5b5061088161087c36600461533b565b6117f1565b604051610427919061537c565b34801561089a57600080fd5b5061055f611874565b3480156108af57600080fd5b5061041d6108be366004615051565b61187e565b3480156108cf57600080fd5b506108d8611889565b60408051938452602084019290925290820152606001610427565b3480156108ff57600080fd5b506103ad61090e366004615458565b611959565b34801561091f57600080fd5b506103ad61092e3660046154d7565b6119d5565b34801561093f57600080fd5b5061041d61094e3660046151db565b611aa6565b34801561095f57600080fd5b506103ad61096e366004615051565b611ab1565b34801561097f57600080fd5b5061055f611b2c565b34801561099457600080fd5b5061046e611b36565b3480156109a957600080fd5b5061041d611b40565b3480156109be57600080fd5b5061041d611b4a565b3480156109d357600080fd5b506109e76109e23660046154e9565b611b5a565b6040516104279190615554565b348015610a0057600080fd5b50604080518082019091526005815264098e68aa8960db1b602082015261046e565b348015610a2e57600080fd5b5061055f611be8565b348015610a4357600080fd5b50610a4c611bf2565b60408051825181526020928301519281019290925201610427565b348015610a7357600080fd5b5061041d611c0e565b348015610a8857600080fd5b5061049b610a973660046151b1565b611c20565b348015610aa857600080fd5b5061049b610ab73660046151b1565b611c3c565b348015610ac857600080fd5b50610adc610ad73660046151db565b611cdb565b60405163ffffffff9091168152602001610427565b6103ad610aff366004615051565b611dca565b348015610b1057600080fd5b506103ad610b1f36600461558f565b611ddc565b348015610b3057600080fd5b5061041d603081565b348015610b4557600080fd5b5061055f611e6b565b348015610b5a57600080fd5b5061055f611e75565b6103ad611e7f565b6103ad611e88565b348015610b7f57600080fd5b5061041d610b8e3660046155cc565b611e90565b348015610b9f57600080fd5b50610ba8611e9c565b6040805182516001600160801b039081168252602093840151169281019290925201610427565b6103ad611eb8565b348015610be357600080fd5b506103ad610bf23660046155ff565b611ec0565b348015610c0357600080fd5b5061041d610c123660046151db565b6124dd565b348015610c2357600080fd5b5061049b610c323660046151db565b6124e8565b348015610c4357600080fd5b506103ad610c52366004615051565b6124fb565b348015610c6357600080fd5b5061041d612576565b34610c8a576040516395b66fe960e01b815260040160405180910390fd5b610ca534610c966125b7565b610ca09190615650565b6125eb565b610cb0338234612619565b6040513481526001600160a01b0382169033907f3bc57f469ad6d10d7723ea226cd22bd2b9e527def2b529f6ab44645a166895829060200160405180910390a350565b610cfb6127b1565b6001600160a01b0316336001600160a01b031614610d37573360405163472511eb60e11b8152600401610d2e91906151f4565b60405180910390fd5b610d40816127bb565b6040516001600160a01b038216907f67b26a33f305cc027b2d45b2f6f418793afcd3e22f7376afa7be068ce18604e890600090a250565b6001610d816127f2565b8114610db25780610d906127f2565b604051631cfd276760e31b815260048101929092526024820152604401610d2e565b610dc5610dc0826001615650565b612580565b610dce8b612822565b7faf890c07e266df31e0725841eb0e85596a0caa1b17bbae5c0b206fdcc92d7ce18b604051610dfd91906151f4565b60405180910390a1610e346040518060400160405280856001600160801b03168152602001846001600160801b0316815250612859565b604080516001600160801b038086168252841660208201527e4180017d3dd609da6980999655a6bd2591e313d31d6230b1889c369a9713a0910160405180910390a1610e858a8a8a8a8a8a8a6128c1565b610e92308c600019612a1a565b7f1809e49bba43f2d39fa57894b50cd6ccb428cc438230e065cac3eb24a1355a7181600036604051610ec693929190615668565b60405180910390a15050505050505050505050565b6000610ee56125b7565b905090565b610ef2612a89565b6001600160a01b0316336001600160a01b031614610f25573360405163472511eb60e11b8152600401610d2e91906151f4565b565b6000610f34338484612a1a565b50600192915050565b610f45612ab9565b6001600160a01b0316336001600160a01b031614610f78573360405163472511eb60e11b8152600401610d2e91906151f4565b610f88610f83612ab9565b612ac3565b610f256000612b0c565b6000610f9c612b4c565b6005015463ffffffff16919050565b610fb36127b1565b6001600160a01b0316336001600160a01b031614610fe6573360405163472511eb60e11b8152600401610d2e91906151f4565b610fef81612b7a565b6040516001600160a01b038216907f1da4c245099590dc40be61880c9b97792f3694d970acc1e67ac0e6cc90f3780d90600090a250565b6000611030612bb1565b9050600061105061104a6801bc16d674ec800000846156b4565b84612be1565b90508061107057604051631036b5ad60e31b815260040160405180910390fd5b60008061107c83612bf6565b81519193509150806110a15760405163200149ad60e21b815260040160405180910390fd5b838111156110c257604051635993bd5760e01b815260040160405180910390fd5b81518181146110e4576040516322e5ce4360e21b815260040160405180910390fd5b60006110ee612c7e565b90508061110e57604051639be7315960e01b815260040160405180910390fd5b60005b8381101561115e5761115686828151811061112e5761112e6156c8565b6020026020010151868381518110611148576111486156c8565b602002602001015184612cae565b600101611111565b50611184611175846801bc16d674ec8000006156de565b61117f90896156fd565b6130ff565b600061118e613148565b90506111a261119d8583615650565b613178565b7f220ab8fd274cf58c09b0825ccf00e74ba4ce4117fd47285adc2183a635838f1b816111ce8682615650565b6040805192835260208301919091520160405180910390a1505050505050505050565b6000610ee56131a6565b6112036127b1565b6001600160a01b0316336001600160a01b031614611236573360405163472511eb60e11b8152600401610d2e91906151f4565b61123f81612b0c565b50565b6000610ee5613265565b611254613295565b6001600160a01b0316336001600160a01b031614611287573360405163472511eb60e11b8152600401610d2e91906151f4565b61129e61129936839003830183615714565b61329f565b6040805182358152602080840135908201527f5ab79ffcd89b6380c7fbdd89d02cfe3d9c53c99a85e150c2319075018d1aac5c91015b60405180910390a150565b6112e7614ea4565b6112ef612b4c565b60408051610100810182528254815260018301546020820152600283015491810191909152600382015460608201526004820154608082015260059091015463ffffffff811660a083015260ff64010000000082048116151560c0840152600160281b90910416151560e0820152919050565b6000610ee56132e2565b6000610ee56132ec565b60008383611384828261331c565b83806113a3576040516336b216db60e21b815260040160405180910390fd5b8685806113af83613448565b10156113ce576040516351940b3960e11b815260040160405180910390fd5b6001600160a01b03881661140757604051637617407560e11b81526001600160a01b038a16600482015260006024820152604401610d2e565b6114118988613453565b61141c8989896134b9565b9998505050505050505050565b60006114336127f2565b81146114425780610d906127f2565b611450610dc0826001615650565b61145986612ac3565b61146283613535565b6040516001600160a01b038416907f0cc5437d7c9c1d9eab549acbb533eea3e9868e9443dd75309ed5820b33a3774e90600090a261149f8261356c565b6040518281527fbd533e726baaf59b36f3914d950053f7e78f527057c97cd3f0043257fc0fc8849060200160405180910390a16114db89612b7a565b6040516001600160a01b038a16907f1da4c245099590dc40be61880c9b97792f3694d970acc1e67ac0e6cc90f3780d90600090a2611518856135a3565b6040516001600160a01b038616907f30f015a5d3c72c0a9414538199baa022323a483fa9e4ba2cd581596cf8ca042490600090a2611555846135da565b6040516001600160a01b038516907fffc0721ef0563a1b0a51a0dc92113025f33ca434ada9ee3eebff2f385d2a8f9a90600090a26115938a89613611565b61159c87611aec565b7f1809e49bba43f2d39fa57894b50cd6ccb428cc438230e065cac3eb24a1355a71816000366040516115d093929190615668565b60405180910390a150505050505050505050565b6115ec6127b1565b6001600160a01b0316336001600160a01b03161461161f573360405163472511eb60e11b8152600401610d2e91906151f4565b6116288161356c565b6040518181527fbd533e726baaf59b36f3914d950053f7e78f527057c97cd3f0043257fc0fc884906020016112d4565b6000610ee561368d565b6000610ee56136bd565b611674614ef3565b610ee56136ed565b6000610f3433848461168e3388613779565b6116989190615650565b612a1a565b60006116b06116ab836137d1565b61381f565b92915050565b60006116c0612b4c565b60010154905090565b6000806116d46136ed565b905060006116e182613857565b905061172b82600001516001600160401b03166116fc612b4c565b546117079190615650565b835161171c906001600160401b031684615746565b61172690846156fd565b6138a2565b9250505090565b6000610ee56138b1565b6000610ee5612c7e565b60006117506136ed565b51611764906001600160401b031683615746565b6116b090836156fd565b6117766127b1565b6001600160a01b0316336001600160a01b0316146117a9573360405163472511eb60e11b8152600401610d2e91906151f4565b6117b2816135a3565b6040516001600160a01b038216907f30f015a5d3c72c0a9414538199baa022323a483fa9e4ba2cd581596cf8ca042490600090a250565b610ef2612c7e565b60606117fb612a89565b6001600160a01b0316635f2e5f0784846040518363ffffffff1660e01b81526004016118289291906157bd565b600060405180830381865afa158015611845573d6000803e3d6000fd5b505050506040513d6000823e601f3d908101601f1916820160405261186d91908101906157f4565b9392505050565b6000610ee56127b1565b60006116b082613448565b6000806000806118976136ed565b905060006118a482613857565b82519091506118bc906001600160401b031682615746565b6118c690826156fd565b945081604001516001600160401b031682602001516001600160401b0316866118ef91906156de565b6118f991906156de565b9350600182604001516001600160401b031683602001516001600160401b031684600001516001600160401b0316886119329190615650565b61193c91906156de565b61194691906156de565b61195091906156fd565b92505050909192565b6119616127b1565b6001600160a01b0316336001600160a01b031614611994573360405163472511eb60e11b8152600401610d2e91906151f4565b61199d816138e1565b6119a681613900565b7f8d2df192dd17edf92a7964b78aa322f3d717b2ab9de00651bee32bbc4c5da63a816040516112d4919061519e565b6119dd613295565b6001600160a01b0316336001600160a01b031614611a10573360405163472511eb60e11b8152600401610d2e91906151f4565b611a27611a2236839003830183615894565b61394a565b7f25777eb44be046f64180acf8275f0ac2ec51e63a65a5f8a0f2f6d86ba25b74cf611a556020830183615921565b611a656040840160208501615921565b611a756060850160408601615921565b611a856080860160608701615921565b611a9560a0870160808801615921565b6040516112d495949392919061593c565b60006116b082613a06565b611ab9613295565b6001600160a01b0316336001600160a01b031614611aec573360405163472511eb60e11b8152600401610d2e91906151f4565b611af581613a33565b6040516001600160a01b038216907fd3b5d1e0ffaeff528910f3663f0adace7694ab8241d58e17a91351ced2e0803190600090a250565b6000610ee5613a6a565b6060610ee5613a9a565b6000610ee5613148565b6000611b54612b4c565b54919050565b6060611b64612a89565b6001600160a01b031663c3b832118686868660016040518663ffffffff1660e01b8152600401611b9895949392919061596e565b6000604051808303816000875af1158015611bb7573d6000803e3d6000fd5b505050506040513d6000823e601f3d908101601f19168201604052611bdf91908101906159aa565b95945050505050565b6000610ee5613b60565b6040805180820190915260008082526020820152610ee5613b90565b6000610ee5611c1b6136ed565b613857565b6000610f34338484611c323388613779565b61169891906156fd565b60003383611c4a828261331c565b8380611c69576040516336b216db60e21b815260040160405180910390fd5b338580611c7583613448565b1015611c94576040516351940b3960e11b815260040160405180910390fd5b6001600160a01b038816611cc457604051637617407560e11b815233600482015260006024820152604401610d2e565b611ccf3389896134b9565b98975050505050505050565b6000611ce5613bf0565b6001600160a01b0316635a4091023360046040518363ffffffff1660e01b8152600401611d13929190615a3f565b60006040518083038186803b158015611d2b57600080fd5b505afa158015611d3f573d6000803e3d6000fd5b50505050611d4e3330846134b9565b50611d57612a89565b60405163107703ab60e01b8152600481018490523360248201526001600160a01b03919091169063107703ab906044016020604051808303816000875af1158015611da6573d6000803e3d6000fd5b505050506040513d601f19601f820116820180604052508101906116b09190615a58565b611dd381613c20565b61123f81610c6c565b611de46127b1565b6001600160a01b0316336001600160a01b031614611e17573360405163472511eb60e11b8152600401610d2e91906151f4565b611e2081612859565b805160208201516040517e4180017d3dd609da6980999655a6bd2591e313d31d6230b1889c369a9713a0926112d49290916001600160801b0392831681529116602082015260400190565b6000610ee5613bf0565b6000610ee5612ab9565b610f2533610c6c565b610ef2613265565b600061186d8383613779565b6040805180820190915260008082526020820152610ee5613c47565b610ef261368d565b611ec8613a6a565b6001600160a01b0316336001600160a01b031614611efb573360405163472511eb60e11b8152600401610d2e91906151f4565b6000611f056136ed565b9050611f12818335613cb5565b611f325760405163a225656d60e01b815282356004820152602401610d2e565b611f3a613148565b611f4a60c0840160a08501615a75565b63ffffffff161115611f9557611f6660c0830160a08401615a75565b611f6e613148565b6040516376179ac560e01b815263ffffffff90921660048301526024820152604401610d2e565b611f9d614f21565b6000611fa7612b4c565b60038101546040840181905290915060608501351015611fec576040808301519051621ee1cf60e11b8152600481019190915260608501356024820152604401610d2e565b6040820151611fff9060608601356156fd565b60808301526002810154606083018190526040850135101561204657606082015160408051636f24834360e01b815260048101929092528501356024820152604401610d2e565b60608201516120599060408601356156fd565b60a0830152805461206d9084908635613d13565b60c083015250600061207d612b4c565b90506120876131a6565b8252600381015460028201546001830154600092916120a591615650565b6120af9190615650565b600583015490915063ffffffff166120cd60c0870160a08801615a75565b63ffffffff1681101561211c576801bc16d674ec800000816120f560c0890160a08a01615a75565b63ffffffff1661210591906156fd565b61210f91906156de565b6121199083615650565b91505b5060008360a0015184608001516121339190615650565b111561214b5761214b8360a001518460800151613d4e565b612153614ea4565b853581526020808701359082015260408087013590820152606080870135908201526080808701359082015261218f60c0870160a08801615a75565b63ffffffff1660a08201526121ab610100870160e08801615aab565b151560c08201526121c461012087016101008801615aab565b151560e08201526121d481613e54565b5061221c6121e560c0870187615ac8565b80806020026020016040519081016040528093929190818152602001838360200280828437600092019190915250613f0092505050565b6000612226613b90565b9050600061223d8286600001518760c00151613f61565b90506122476131a6565b856020018181525050600087606001358860400135896020013561226b9190615650565b6122759190615650565b90508381106122f1576122888285615650565b8111156122c65760c0860151835160405163eb7a968960e01b8152600481018790526024810184905260448101929092526064820152608401610d2e565b6122d084826156fd565b610120870180519190915251516122e790836156fd565b60e0870152612369565b6000612301848860000151613f95565b905061230d81866156fd565b82101561234e5760c0870151602085015160405163063bb83f60e11b8152600481018890526024810185905260448101929092526064820152608401610d2e565b61235882866156fd565b6123629084615650565b60e0880152505b60e0860151156123c7576123808660e00151613faa565b61012087018051602090810192909252519081015181519091906123a5908390615650565b9052506101208601516020015160e0870180516123c39083906156fd565b9052505b60e086015115612406576123de8660e00151614072565b6101208701805160409081019290925251015160e0870180516124029083906156fd565b9052505b60e0860151156124285761241d8660e00151614138565b610120870151606001525b610120860151511561244457610120860151516124449061420a565b61245661012089016101008a01615aab565b6124785761247860808901356124736101008b0160e08c01615aab565b61433c565b6124806145b4565b6124886146ee565b6124958660c00151614716565b7f49ac0d2bb2a688ca460f7993eb93eccd3b9c9188da6b0727e9a409cf8b105875888761012001516040516124cb929190615b59565b60405180910390a15050505050505050565b60006116b08261381f565b60006116b06124f56136ed565b83613cb5565b6125036127b1565b6001600160a01b0316336001600160a01b031614612536573360405163472511eb60e11b8152600401610d2e91906151f4565b61253f81613535565b6040516001600160a01b038216907f0cc5437d7c9c1d9eab549acbb533eea3e9868e9443dd75309ed5820b33a3774e90600090a250565b6000610ee5612bb1565b61123f6125ae60017f82055909238c0f5e63d6f174068ebb8f51bcec9bd37de63bb68f6551feec0cfd6156fd565b829055565b9055565b6000610ee56125e760017f2b6136e423ab70d76431e2a635e877e16ea2dd9a895e054ad7f35f89d6c7b7116156fd565b5490565b61123f6125ae60017f2b6136e423ab70d76431e2a635e877e16ea2dd9a895e054ad7f35f89d6c7b7116156fd565b600061262584836147d0565b90506000612631613bf0565b9050836001600160a01b0316856001600160a01b031614156126b157604051632d20488160e11b81526001600160a01b03821690635a4091029061267c908890600190600401615a3f565b60006040518083038186803b15801561269457600080fd5b505afa1580156126a8573d6000803e3d6000fd5b505050506127aa565b604051632d20488160e11b81526001600160a01b03821690635a409102906126e0908890600190600401615a3f565b60006040518083038186803b1580156126f857600080fd5b505afa15801561270c573d6000803e3d6000fd5b505060405163e838dfbb60e01b81526001600160a01b038416925063e838dfbb915061273c9087906004016151f4565b602060405180830381865afa158015612759573d6000803e3d6000fd5b505050506040513d601f19601f8201168201806040525081019061277d9190615c2d565b1561279d578360405163e7d05e2760e01b8152600401610d2e91906151f4565b6127a88585846134b9565b505b5050505050565b6000610ee561482f565b6127c481613c20565b61123f6125ae60017ff4271262f3552a4108cde54dc75061de8de495709221d793b126e448522d6a806156fd565b6000610ee56125e760017f82055909238c0f5e63d6f174068ebb8f51bcec9bd37de63bb68f6551feec0cfd6156fd565b61282b81613c20565b61123f6125ae60017fe458cbedf69109e7d57b7f8c96816615aac0017187d87abab9001d22db32bae46156fd565b61286f81602001516001600160801b031661485f565b600061289c60017fc305db9f63aeed94a45229ff5ab4174e72b223a38ab4c5e8f518ee4f437918d16156fd565b82516020909301516001600160801b03908116600160801b0293169290921790915550565b61291d6040518060a00160405280896001600160401b03168152602001886001600160401b03168152602001876001600160401b03168152602001866001600160401b03168152602001856001600160401b031681525061394a565b7f25777eb44be046f64180acf8275f0ac2ec51e63a65a5f8a0f2f6d86ba25b74cf878787878760405161295495949392919061593c565b60405180910390a161297960405180604001604052808481526020018381525061329f565b60408051838152602081018390527f5ab79ffcd89b6380c7fbdd89d02cfe3d9c53c99a85e150c2319075018d1aac5c910160405180910390a16129ba614ea4565b6129c2614882565b81526129cc6148b2565b60208201526000604082018190526060820181905260808201526129ee6148e2565b63ffffffff1660a0820152600060c0820181905260e0820152612a1081613e54565b5050505050505050565b612a2383613c20565b612a2c82613c20565b612a37838383614912565b816001600160a01b0316836001600160a01b03167f8c5be1e5ebec7d5bd14f71427d1e84f3dd0314c0f7b2291e5b200ac8c7c3b92583604051612a7c91815260200190565b60405180910390a3505050565b6000610ee56125e760017fe458cbedf69109e7d57b7f8c96816615aac0017187d87abab9001d22db32bae46156fd565b6000610ee5614969565b612acc81613c20565b612ad581614999565b6040516001600160a01b038216907f5a272403b402d892977df56625f4164ccaf70ca3863991c43ecfe76a6905b0a190600090a250565b612b15816149a2565b6040516001600160a01b038216907f2a0f8515de3fa34ef68b99300347b8793c01683350743e96fe440594528298f490600090a250565b6000806116b060017fdbc0527c99b54cd325d6ce9eaae3a8413cd447b5205f37385f0ebc6551033c6d6156fd565b612b8381613c20565b61123f6125ae60017f8e9e2a1d30fed357d8a000c1131fc77ed65d2052918caf1ccc6eb1e7af3d13b66156fd565b6000610ee56125e760017fbcfa5a69252c74010ad3e9ab18cfbdc116fcf85f084db1a8dc577a339fbee58b6156fd565b6000818311612bf0578261186d565b50919050565b606080612c01613b60565b6001600160a01b031663277c9d45846040518263ffffffff1660e01b8152600401612c2e91815260200190565b6000604051808303816000875af1158015612c4d573d6000803e3d6000fd5b505050506040513d6000823e601f3d908101601f19168201604052612c759190810190615d10565b91509150915091565b6000610ee56125e760017fb649e50315f962b32d487e696a81b4828631b11f8424daaaa37e9e97766a2c426156fd565b6030835114612cd05760405163050cb55360e41b815260040160405180910390fd5b6060825114612cf25760405163408ebd3960e01b815260040160405180910390fd5b6801bc16d674ec8000006000612d0c633b9aca00836156b4565b90506000600286600060801b604051602001612d29929190615d73565b60408051601f1981840301815290829052612d4391615da2565b602060405180830381855afa158015612d60573d6000803e3d6000fd5b5050506040513d601f19601f82011682018060405250810190612d839190615dbe565b90506000600280612d9788600060406149ab565b604051612da49190615da2565b602060405180830381855afa158015612dc1573d6000803e3d6000fd5b5050506040513d601f19601f82011682018060405250810190612de49190615dbe565b6002612dfc896040612df78160606156fd565b6149ab565b604051612e0f9190600090602001615dd7565b60408051601f1981840301815290829052612e2991615da2565b602060405180830381855afa158015612e46573d6000803e3d6000fd5b5050506040513d601f19601f82011682018060405250810190612e699190615dbe565b60408051602081019390935282015260600160408051601f1981840301815290829052612e9591615da2565b602060405180830381855afa158015612eb2573d6000803e3d6000fd5b5050506040513d601f19601f82011682018060405250810190612ed59190615dbe565b905060006002808488604051602001612ef8929190918252602082015260400190565b60408051601f1981840301815290829052612f1291615da2565b602060405180830381855afa158015612f2f573d6000803e3d6000fd5b5050506040513d601f19601f82011682018060405250810190612f529190615dbe565b6002612f5d87614a6e565b604080516020810192909252810186905260600160408051601f1981840301815290829052612f8b91615da2565b602060405180830381855afa158015612fa8573d6000803e3d6000fd5b5050506040513d601f19601f82011682018060405250810190612fcb9190615dbe565b60408051602081019390935282015260600160408051601f1981840301815290829052612ff791615da2565b602060405180830381855afa158015613014573d6000803e3d6000fd5b5050506040513d601f19601f820116820180604052508101906130379190615dbe565b9050600061304586476156fd565b905061304f614adb565b6001600160a01b03166322895118878b8a60405160200161307291815260200190565b6040516020818303038152906040528c876040518663ffffffff1660e01b81526004016130a29493929190615df9565b6000604051808303818588803b1580156130bb57600080fd5b505af11580156130cf573d6000803e3d6000fd5b50505050508047146130f457604051638051a6bb60e01b815260040160405180910390fd5b505050505050505050565b7f86fd21e9b5bd76b20471c7f93a82aa4e25c37d48b179bda0a4d1a45e22a842f4613128612bb1565b60408051918252602082018490520160405180910390a161123f81614b0b565b6000610ee56125e760017fc77078e3530c08cdb2440817c81de4836500b4708ea4d15672b7fe98956423a86156fd565b61123f6125ae60017fc77078e3530c08cdb2440817c81de4836500b4708ea4d15672b7fe98956423a86156fd565b6000806131b1612b4c565b600581015490915063ffffffff1660006131c9613148565b90508082101561323e576801bc16d674ec8000006131e783836156fd565b6131f191906156de565b6131f96136bd565b613201612bb1565b6132096125b7565b86600101546132189190615650565b6132229190615650565b61322c9190615650565b6132369190615650565b935050505090565b6132466136bd565b61324e612bb1565b6132566125b7565b85600101546132229190615650565b6000610ee56125e760017ff4271262f3552a4108cde54dc75061de8de495709221d793b126e448522d6a806156fd565b6000610ee5611874565b60006132cc60017ff81b149de6749a3f46464b2cce61e24462f67599ea4a5ce028aaf4ab1521f96e6156fd565b8251815560209092015160019092019190915550565b6000610ee5614b39565b6000610ee56125e760017f094efef62d2ce60c14ffacd35a1b50546d3a9d503aff1df040176fffd6c92a376156fd565b6000613326613bf0565b60405163e838dfbb60e01b81529091506001600160a01b0382169063e838dfbb906133559086906004016151f4565b602060405180830381865afa158015613372573d6000803e3d6000fd5b505050506040513d601f19601f820116820180604052508101906133969190615c2d565b156133b6578260405163e7d05e2760e01b8152600401610d2e91906151f4565b60405163e838dfbb60e01b81526001600160a01b0382169063e838dfbb906133e29085906004016151f4565b602060405180830381865afa1580156133ff573d6000803e3d6000fd5b505050506040513d601f19601f820116820180604052508101906134239190615c2d565b15613443578160405163e7d05e2760e01b8152600401610d2e91906151f4565b505050565b60006116b0826137d1565b600061345f8333613779565b9050818110156134a157604051637b936de360e01b81526001600160a01b03841660048201523360248201526044810182905260648101839052608401610d2e565b600019811461344357613443833361169885856156fd565b60006134d884836134c9876137d1565b6134d391906156fd565b614b69565b6134f083836134e6866137d1565b6134d39190615650565b826001600160a01b0316846001600160a01b0316600080516020615efd8339815191528460405161352391815260200190565b60405180910390a35060019392505050565b61353e81613c20565b61123f6125ae60017f082b6d18de7b10e438e6b1002141db737519cb4ceed679bc815e3aac00cd22276156fd565b6135758161485f565b61123f6125ae60017f094efef62d2ce60c14ffacd35a1b50546d3a9d503aff1df040176fffd6c92a376156fd565b6135ac81613c20565b61123f6125ae60017f867d8f1a5e39d11d5bebde854d5359a509530ad32450f581da63c06ec8d1a7806156fd565b6135e381613c20565b61123f6125ae60017f3f075dea7ef99b1e5db245018e5e4ed8d2a0d93953f5932b2176bef59bd690616156fd565b61361a82614bb5565b6040516001600160a01b038316907e043cf7635f276413ae358250286a479a631abd9d74d57d4aa0bb87ebc7d11790600090a261365681614bec565b6040518181527f4c86ba184ea1a1558f84835ca34f6d67e222e8ee5cc4f324b8861dda4cf1740c9060200160405180910390a15050565b6000610ee56125e760017f8e9e2a1d30fed357d8a000c1131fc77ed65d2052918caf1ccc6eb1e7af3d13b66156fd565b6000610ee56125e760017f850308dd4e453a2a1bc3efb444560401d95c1a8bdea5b35c5c79531cd2241f1d6156fd565b6136f5614ef3565b600061372260017fd84ee2c84c954c65bef1459fe03b761a42f49234527e3cd8fd9dce87cb83742b6156fd565b6040805160a08101825282546001600160401b038082168352600160401b820481166020840152600160801b8204811693830193909352600160c01b90048216606082015260019092015416608082015292915050565b6000806137a760017fc852254d5b703a16bb13b3e233a335d6459c5da5db0ca732d7a684ee054078476156fd565b6001600160a01b039485166000908152602091825260408082209590961681529390525050205490565b6000806137ff60017f0fb4a5ac9287f4f508aa7253ee2d57c6a228b1b30e210d73fffd59389d3a88386156fd565b6001600160a01b0390931660009081526020939093525050604090205490565b60008061382a614b39565b90508061383a5750600092915050565b806138436131a6565b61384d90856156de565b61186d91906156b4565b600081602001516001600160401b031682604001516001600160401b031683606001516001600160401b03164261388e91906156fd565b61389891906156b4565b6116b091906156b4565b6000818310612bf0578261186d565b6000610ee56125e760017f082b6d18de7b10e438e6b1002141db737519cb4ceed679bc815e3aac00cd22276156fd565b805161123f57604051638d46fe0560e01b815260040160405180910390fd5b600061392d60017fb63f3482ec84cb93d74a71645ad2e9e896fa02723e42170b4aad20a4bed6cdd66156fd565b825190915081906139449082906020860190614f9c565b50505050565b600061397760017fd84ee2c84c954c65bef1459fe03b761a42f49234527e3cd8fd9dce87cb83742b6156fd565b825181546020850151604086015160608701516001600160401b039485166001600160801b031990941693909317600160401b92851692909202919091176001600160801b0316600160801b918416919091026001600160c01b031617600160c01b918316919091021782556080909301516001909101805467ffffffffffffffff1916919093161790915550565b600080613a11614b39565b905080613a215750600092915050565b613a296131a6565b61384d82856156de565b613a3c81613c20565b61123f6125ae60017fc8cbea9407c380ae944f052b5a442330057683c5abdbd453493f9750806afecb6156fd565b6000610ee56125e760017fc8cbea9407c380ae944f052b5a442330057683c5abdbd453493f9750806afecb6156fd565b60606000613ac960017fb63f3482ec84cb93d74a71645ad2e9e896fa02723e42170b4aad20a4bed6cdd66156fd565b805490915081908190613adb90615e44565b80601f0160208091040260200160405190810160405280929190818152602001828054613b0790615e44565b8015613b545780601f10613b2957610100808354040283529160200191613b54565b820191906000526020600020905b815481529060010190602001808311613b3757829003601f168201915b50505050509250505090565b6000610ee56125e760017f3f075dea7ef99b1e5db245018e5e4ed8d2a0d93953f5932b2176bef59bd690616156fd565b60408051808201909152600080825260208201526000613bd160017ff81b149de6749a3f46464b2cce61e24462f67599ea4a5ce028aaf4ab1521f96e6156fd565b6040805180820190915281548152600190910154602082015292915050565b6000610ee56125e760017f867d8f1a5e39d11d5bebde854d5359a509530ad32450f581da63c06ec8d1a7806156fd565b6001600160a01b03811661123f5760405163f6b2911f60e01b815260040160405180910390fd5b60408051808201909152600080825260208201526000613c8860017fc305db9f63aeed94a45229ff5ab4174e72b223a38ab4c5e8f518ee4f437918d16156fd565b6040805180820190915290546001600160801b038082168352600160801b90910416602082015292915050565b600082608001516001600160401b031682613cd09190615650565b613cd984613857565b10158015613cef5750613cea612b4c565b548210155b801561186d57508251613d0b906001600160401b031683615746565b159392505050565b600083602001518460400151613d299190615e79565b6001600160401b0316613d3c84846156fd565b613d4691906156de565b949350505050565b476000613d5b8385615650565b9050613d65612c7e565b6001600160a01b031663ea74f479826040518263ffffffff1660e01b8152600401613d9291815260200190565b600060405180830381600087803b158015613dac57600080fd5b505af1158015613dc0573d6000803e3d6000fd5b5050505060008247613dd291906156fd565b9050613dde8486615650565b8114613e1257613dee8486615650565b6040516349a1938b60e01b8152600481019190915260248101829052604401610d2e565b8415613e3357613e3385613e246125b7565b613e2e9190615650565b614c38565b83156127aa576127aa84613e456136bd565b613e4f9190615650565b614c81565b6000613e8160017fdbc0527c99b54cd325d6ce9eaae3a8413cd447b5205f37385f0ebc6551033c6d6156fd565b825181556020830151600182015560408301516002820155606083015160038201556080830151600482015560a08301516005909101805460c085015160e0909501511515600160281b0265ff0000000000199515156401000000000264ffffffffff1990921663ffffffff9094169390931717939093161790915550565b613f08613b60565b6001600160a01b03166376821e5a826040518263ffffffff1660e01b8152600401613f339190615ea8565b600060405180830381600087803b158015613f4d57600080fd5b505af11580156127aa573d6000803e3d6000fd5b6000613f736301e133806127106156de565b84518390613f8190866156de565b613f8b91906156de565b613d4691906156b4565b600061271083602001518361384d91906156de565b600080613fb561368d565b60405163c8a6dfd360e01b81526004810185905290915047906001600160a01b0383169063c8a6dfd390602401600060405180830381600087803b158015613ffc57600080fd5b505af1158015614010573d6000803e3d6000fd5b505050506000814761402291906156fd565b90508015613d465761403681613e246125b7565b6040518181527fda841d3042d792e2509a333b9dcbd4b3dd9b9047d382011f8788fab90ca7e3c7906020015b60405180910390a1949350505050565b60004761407d612a89565b6001600160a01b0316630c779401846040518263ffffffff1660e01b81526004016140aa91815260200190565b600060405180830381600087803b1580156140c457600080fd5b505af11580156140d8573d6000803e3d6000fd5b50505050600081476140ea91906156fd565b9050801561186d576140fe81613e246125b7565b6040518181527f4e484734eb4d444bfa106f917d05d9ceb8ce18bf516c85d7aeb9b322925339f99060200160405180910390a19392505050565b600080614143613265565b90506001600160a01b03811661415c5750600092915050565b604051638ede6b6b60e01b81526004810184905247906001600160a01b03831690638ede6b6b90602401600060405180830381600087803b1580156141a057600080fd5b505af11580156141b4573d6000803e3d6000fd5b50505050600081476141c691906156fd565b90508015613d46576141da81613e246125b7565b6040518181527fd500b67e5bd8019c0af744cadeec120d1b5e3d3a3a011f18cf182aa4c97947b690602001614062565b60006142146132e2565b90508061423457604051630d35acd760e21b815260040160405180910390fd5b600061423e6131a6565b9050600061424a6132ec565b905060008161425985876156de565b61426391906156de565b9050600061427183876156de565b61427d612710866156de565b61428791906156fd565b9050600081156142a05761429b82846156b4565b6142a3565b60005b905080156143335760006142b56138b1565b90506142c18183614cca565b60006142cb6132e2565b905060006142d98a896156fd565b60408051828152602081018c90529081018a9052606081018490529091506001600160a01b038416907f3d1669e813a9845c288f0e1f642a4343a451103b87886d12de37e63b39bbd9429060800160405180910390a25050505b50505050505050565b60006143466132e2565b905080156134435760006143586136bd565b905060006143646125b7565b9050600061437b6116ab614376612a89565b613448565b9050806143888785615650565b10156127a85784801561439b5750600082115b156143ec5760006143c083856143b18a866156fd565b6143bb91906156fd565b612be1565b905080156143ea576143d28185615650565b93506143dd84614c81565b6143ea613e2e82856156fd565b505b60006143f6613b60565b90506000816001600160a01b031663b53b937b6040518163ffffffff1660e01b8152600401602060405180830381865afa158015614438573d6000803e3d6000fd5b505050506040513d601f19601f8201168201806040525081019061445c9190615a58565b63ffffffff1690506000826001600160a01b031663a625817e6040518163ffffffff1660e01b8152600401602060405180830381865afa1580156144a4573d6000803e3d6000fd5b505050506040513d601f19601f820116820180604052508101906144c89190615dbe565b905060006801bc16d674ec8000008383116144e45760006144ee565b6144ee84846156fd565b6144f891906156de565b905084816145068c8a615650565b6145109190615650565b10156145a8576000614549826145268d8b615650565b6145309190615650565b61453a90886156fd565b6801bc16d674ec800000614d27565b604051630903b40960e21b8152600481018290529091506001600160a01b0386169063240ed02490602401600060405180830381600087803b15801561458e57600080fd5b505af11580156145a2573d6000803e3d6000fd5b50505050505b50505050505050505050565b60006145be612a89565b905060006145ca6131a6565b905060006145d66132e2565b90506000821180156145e85750600081115b156134435760006145fa614376612a89565b90508060006146088261381f565b905060006146146136bd565b90508082111561462d5780915061462a82613a06565b92505b60408051858152602081018590529081018390527f709263092d8d9fef472d907900405b5edae3d76f8ff4354858025b18424d71019060600160405180910390a1811561433357614681613e4f83836156fd565b60405163b30d8bb760e01b8152600481018490526001600160a01b0388169063b30d8bb79084906024016000604051808303818588803b1580156146c457600080fd5b505af11580156146d8573d6000803e3d6000fd5b50505050506143336146e8612a89565b84614d5a565b60006146f86136bd565b9050801561123f5761470c81613e246125b7565b61123f6000614c81565b60006147206131a6565b9050600061472c6125b7565b90506000614738613c47565b805190915060009061477c906001600160801b031661271061475a86886156fd565b85602001516001600160801b031661477291906156de565b61172691906156b4565b905060006147a561479f86620151806147958a876156de565b6143bb91906156b4565b85612be1565b905080156127a8576147c3816147b9612bb1565b61117f9190615650565b6127a8613e2e82866156fd565b600080826147dc6131a6565b6147e691906156fd565b9050806147ff578291506147fa8484614cca565b614828565b806148086132e2565b61481290856156de565b61481c91906156b4565b91506148288483614cca565b5092915050565b6000610ee56125e760017fb5b37715a3e346e996104f0086703f19825def429233930fd9399c38e05fb1136156fd565b61271081111561123f576040516358d620b360e01b815260040160405180910390fd5b6000610ee56125e760017fd7f2d45e512a86049f7a113657b39731b6b558609584243063a52cd31a8eb5296156fd565b6000610ee56125e760017ffedfd2c285a57fb23bf45a3fe9ac02d36a76ebb72801b1c8aaf553d74e9d46536156fd565b6000610ee56125e760017f0f1e7733641e4d843128fea0d2ec90d3d06a40b0fe244ff603d8c1aa200dc0f96156fd565b600061493f60017fc852254d5b703a16bb13b3e233a335d6459c5da5db0ca732d7a684ee054078476156fd565b6001600160a01b039485166000908152602091825260408082209590961681529390525091902055565b6000610ee56125e760017f6e6ab8b7c7aaba79eef8cc633522d606bb008c101cf9832c9ad05d10a98472816156fd565b61123f81614daa565b61123f81614de1565b60608182601f0110156149d1576040516323d5783d60e11b815260040160405180910390fd5b6149db8284615650565b845110156149fc57604051633b99b53d60e01b815260040160405180910390fd5b606082158015614a1b5760405191506000825260208201604052614a65565b6040519150601f8416801560200281840101858101878315602002848b0101015b81831015614a54578051835260209283019201614a3c565b5050858452601f01601f1916604052505b50949350505050565b603881901c60ff908116603083901c8216602884901c8316602085901c8416601886901c8516601087901c8616600888811c9790971688881b61ff001617871b17861b17851b17841b17831b1790911b17604082901c8015614ad257614ad2615ee6565b5060c01b919050565b6000610ee56125e760017f35efb61d8784060218d9d6aa40eae55904de43779c1afc79c74dfefcfdf912606156fd565b61123f6125ae60017fbcfa5a69252c74010ad3e9ab18cfbdc116fcf85f084db1a8dc577a339fbee58b6156fd565b6000610ee56125e760017f6b842b424335d94ccad97e54548dfa02673c1268aba38d3c3c32d28c8988b70b6156fd565b6000614b9660017f0fb4a5ac9287f4f508aa7253ee2d57c6a228b1b30e210d73fffd59389d3a88386156fd565b6001600160a01b03909316600090815260209390935250604090912055565b614bbe81613c20565b61123f6125ae60017f35efb61d8784060218d9d6aa40eae55904de43779c1afc79c74dfefcfdf912606156fd565b80614c0a5760405163a9cb9e0d60e01b815260040160405180910390fd5b61123f6125ae60017fb649e50315f962b32d487e696a81b4828631b11f8424daaaa37e9e97766a2c426156fd565b7f48f67c1dada0cab2163f6282292ad97ea97376cfed46bb3851654aaa630db727614c616125b7565b60408051918252602082018490520160405180910390a161123f816125eb565b7f215c2b83e8c232e42091088056ab75d2ff643855c32997024f786cddb22d2290614caa6136bd565b60408051918252602082018490520160405180910390a161123f81614e0f565b614ce581614cd6614b39565b614ce09190615650565b614e3d565b614cf382826134e6856137d1565b6040518181526001600160a01b03831690600090600080516020615efd833981519152906020015b60405180910390a35050565b600080614d348385615746565b11614d40576000614d43565b60015b60ff16614d5083856156b4565b61186d9190615650565b614d7081614d66614b39565b614ce091906156fd565b614d7e82826134c9856137d1565b6040518181526000906001600160a01b03841690600080516020615efd83398151915290602001614d1b565b614db381613c20565b61123f6125ae60017fb5b37715a3e346e996104f0086703f19825def429233930fd9399c38e05fb1136156fd565b61123f6125ae60017f6e6ab8b7c7aaba79eef8cc633522d606bb008c101cf9832c9ad05d10a98472816156fd565b61123f6125ae60017f850308dd4e453a2a1bc3efb444560401d95c1a8bdea5b35c5c79531cd2241f1d6156fd565b614e4681614e76565b6040518181527fc80ea35a3f9016535e5b7c87746740c5045afe42188d02c5786eb97495c2f429906020016112d4565b61123f6125ae60017f6b842b424335d94ccad97e54548dfa02673c1268aba38d3c3c32d28c8988b70b6156fd565b6040518061010001604052806000815260200160008152602001600081526020016000815260200160008152602001600063ffffffff1681526020016000151581526020016000151581525090565b6040805160a08101825260008082526020820181905291810182905260608101829052608081019190915290565b604051806101400160405280600081526020016000815260200160008152602001600081526020016000815260200160008152602001600081526020016000815260200160008152602001614f976040518060800160405280600081526020016000815260200160008152602001600081525090565b905290565b828054614fa890615e44565b90600052602060002090601f016020900481019282614fca5760008555615010565b82601f10614fe357805160ff1916838001178555615010565b82800160010185558215615010579182015b82811115615010578251825591602001919060010190614ff5565b5061501c929150615020565b5090565b5b8082111561501c5760008155600101615021565b80356001600160a01b038116811461504c57600080fd5b919050565b60006020828403121561506357600080fd5b61186d82615035565b80356001600160401b038116811461504c57600080fd5b80356001600160801b038116811461504c57600080fd5b6000806000806000806000806000806101408b8d0312156150ba57600080fd5b6150c38b615035565b99506150d160208c0161506c565b98506150df60408c0161506c565b97506150ed60608c0161506c565b96506150fb60808c0161506c565b955061510960a08c0161506c565b945060c08b0135935060e08b013592506151266101008c01615083565b91506151356101208c01615083565b90509295989b9194979a5092959850565b60005b83811015615161578181015183820152602001615149565b838111156139445750506000910152565b6000815180845261518a816020860160208601615146565b601f01601f19169290920160200192915050565b60208152600061186d6020830184615172565b600080604083850312156151c457600080fd5b6151cd83615035565b946020939093013593505050565b6000602082840312156151ed57600080fd5b5035919050565b6001600160a01b0391909116815260200190565b600060408284031215612bf057600080fd5b60008060006060848603121561522f57600080fd5b61523884615035565b925061524660208501615035565b9150604084013590509250925092565b60008060008060008060008060006101208a8c03121561527557600080fd5b61527e8a615035565b985061528c60208b01615035565b975060408a013596506152a160608b01615035565b95506152af60808b01615035565b94506152bd60a08b01615035565b93506152cb60c08b01615035565b92506152d960e08b01615035565b91506101008a013590509295985092959850929598565b60008083601f84011261530257600080fd5b5081356001600160401b0381111561531957600080fd5b6020830191508360208260051b850101111561533457600080fd5b9250929050565b6000806020838503121561534e57600080fd5b82356001600160401b0381111561536457600080fd5b615370858286016152f0565b90969095509350505050565b6020808252825182820181905260009190848201906040850190845b818110156153b757835160070b83529284019291840191600101615398565b50909695505050505050565b634e487b7160e01b600052604160045260246000fd5b604080519081016001600160401b03811182821017156153fb576153fb6153c3565b60405290565b604051601f8201601f191681016001600160401b0381118282101715615429576154296153c3565b604052919050565b60006001600160401b0382111561544a5761544a6153c3565b50601f01601f191660200190565b60006020828403121561546a57600080fd5b81356001600160401b0381111561548057600080fd5b8201601f8101841361549157600080fd5b80356154a461549f82615431565b615401565b8181528560208385010111156154b957600080fd5b81602084016020830137600091810160200191909152949350505050565b600060a08284031215612bf057600080fd5b600080600080604085870312156154ff57600080fd5b84356001600160401b038082111561551657600080fd5b615522888389016152f0565b9096509450602087013591508082111561553b57600080fd5b50615548878288016152f0565b95989497509550505050565b6020808252825182820181905260009190848201906040850190845b818110156153b757835160ff1683529284019291840191600101615570565b6000604082840312156155a157600080fd5b6155a96153d9565b6155b283615083565b81526155c060208401615083565b60208201529392505050565b600080604083850312156155df57600080fd5b6155e883615035565b91506155f660208401615035565b90509250929050565b60006020828403121561561157600080fd5b81356001600160401b0381111561562757600080fd5b8201610120818503121561186d57600080fd5b634e487b7160e01b600052601160045260246000fd5b600082198211156156635761566361563a565b500190565b83815260406020820152816040820152818360608301376000818301606090810191909152601f909201601f1916010192915050565b634e487b7160e01b600052601260045260246000fd5b6000826156c3576156c361569e565b500490565b634e487b7160e01b600052603260045260246000fd5b60008160001904831182151516156156f8576156f861563a565b500290565b60008282101561570f5761570f61563a565b500390565b60006040828403121561572657600080fd5b61572e6153d9565b82358152602083013560208201528091505092915050565b6000826157555761575561569e565b500690565b63ffffffff8116811461123f57600080fd5b803561504c8161575a565b8183526000602080850194508260005b858110156157b257813561579a8161575a565b63ffffffff1687529582019590820190600101615787565b509495945050505050565b602081526000613d46602083018486615777565b60006001600160401b038211156157ea576157ea6153c3565b5060051b60200190565b6000602080838503121561580757600080fd5b82516001600160401b0381111561581d57600080fd5b8301601f8101851361582e57600080fd5b805161583c61549f826157d1565b81815260059190911b8201830190838101908783111561585b57600080fd5b928401925b828410156158895783518060070b811461587a5760008081fd5b82529284019290840190615860565b979650505050505050565b600060a082840312156158a657600080fd5b60405160a081018181106001600160401b03821117156158c8576158c86153c3565b6040526158d48361506c565b81526158e26020840161506c565b60208201526158f36040840161506c565b60408201526159046060840161506c565b60608201526159156080840161506c565b60808201529392505050565b60006020828403121561593357600080fd5b61186d8261506c565b6001600160401b0395861681529385166020850152918416604084015283166060830152909116608082015260a00190565b606081526000615982606083018789615777565b8281036020840152615995818688615777565b91505082151560408301529695505050505050565b600060208083850312156159bd57600080fd5b82516001600160401b038111156159d357600080fd5b8301601f810185136159e457600080fd5b80516159f261549f826157d1565b81815260059190911b82018301908381019087831115615a1157600080fd5b928401925b8284101561588957835160ff81168114615a305760008081fd5b82529284019290840190615a16565b6001600160a01b03929092168252602082015260400190565b600060208284031215615a6a57600080fd5b815161186d8161575a565b600060208284031215615a8757600080fd5b813561186d8161575a565b801515811461123f57600080fd5b803561504c81615a92565b600060208284031215615abd57600080fd5b813561186d81615a92565b6000808335601e19843603018112615adf57600080fd5b8301803591506001600160401b03821115615af957600080fd5b6020019150600581901b360382131561533457600080fd5b6000808335601e19843603018112615b2857600080fd5b83016020810192503590506001600160401b03811115615b4757600080fd5b8060051b360383131561533457600080fd5b60a08152823560a0820152602083013560c0820152604083013560e08201526000610100606085013581840152610120608086013581850152615b9e60a0870161576c565b63ffffffff16610140850152615bb760c0870187615b11565b82610160870152615bcd6101c087018284615777565b92505050615bdd60e08701615aa0565b1515610180850152615bf0868301615aa0565b8015156101a08601529150915061186d90506020830184805182526020810151602083015260408101516040830152606081015160608301525050565b600060208284031215615c3f57600080fd5b815161186d81615a92565b600082601f830112615c5b57600080fd5b81516020615c6b61549f836157d1565b82815260059290921b84018101918181019086841115615c8a57600080fd5b8286015b84811015615d055780516001600160401b03811115615cad5760008081fd5b8701603f81018913615cbf5760008081fd5b848101516040615cd161549f83615431565b8281528b82848601011115615ce65760008081fd5b615cf583898301848701615146565b8652505050918301918301615c8e565b509695505050505050565b60008060408385031215615d2357600080fd5b82516001600160401b0380821115615d3a57600080fd5b615d4686838701615c4a565b93506020850151915080821115615d5c57600080fd5b50615d6985828601615c4a565b9150509250929050565b60008351615d85818460208801615146565b6001600160801b0319939093169190920190815260100192915050565b60008251615db4818460208701615146565b9190910192915050565b600060208284031215615dd057600080fd5b5051919050565b60008351615de9818460208801615146565b9190910191825250602001919050565b608081526000615e0c6080830187615172565b8281036020840152615e1e8187615172565b90508281036040840152615e328186615172565b91505082606083015295945050505050565b600181811c90821680615e5857607f821691505b60208210811415612bf057634e487b7160e01b600052602260045260246000fd5b60006001600160401b0380831681851681830481118215151615615e9f57615e9f61563a565b02949350505050565b6020808252825182820181905260009190848201906040850190845b818110156153b757835163ffffffff1683529284019291840191600101615ec4565b634e487b7160e01b600052600160045260246000fdfeddf252ad1be2c89b69c2b068fc378daa952ba7f163c4a11628f55a4df523b3efa2646970667358221220646bbe84144588a4b354968fe6da68f574fae6868a76a7c12fabcaf176f5b5a864736f6c634300080a0033",
  "devdoc": {
    "author": "Kiln",
    "errors": {
      "AllowanceTooLow(address,address,uint256,uint256)": [
        {
          "params": {
            "_allowance": "Current allowance",
            "_from": "Account where funds are sent from",
            "_operator": "Account attempting the transfer",
            "_value": "Requested transfer value in shares"
          }
        }
      ],
      "Denied(address)": [
        {
          "params": {
            "account": "The account that was denied"
          }
        }
      ],
      "InvalidDecreasingValidatorsExitedBalance(uint256,uint256)": [
        {
          "params": {
            "currentValidatorsExitedBalance": "The current exited balance",
            "newValidatorsExitedBalance": "The new exited balance"
          }
        }
      ],
      "InvalidDecreasingValidatorsSkimmedBalance(uint256,uint256)": [
        {
          "params": {
            "currentValidatorsSkimmedBalance": "The current exited balance",
            "newValidatorsSkimmedBalance": "The new exited balance"
          }
        }
      ],
      "InvalidEpoch(uint256)": [
        {
          "params": {
            "epoch": "Invalid epoch"
          }
        }
      ],
      "InvalidInitialization(uint256,uint256)": [
        {
          "params": {
            "expectedVersion": "The version that was expected",
            "version": "The version that was attempting to be initialized"
          }
        }
      ],
      "InvalidPulledClFundsAmount(uint256,uint256)": [
        {
          "params": {
            "received": "The amount that was received",
            "requested": "The amount that was requested"
          }
        }
      ],
      "InvalidValidatorCountReport(uint256,uint256)": [
        {
          "params": {
            "depositedValidatorCount": "The number of deposits performed by the system",
            "providedValidatorCount": "The received validator count value"
          }
        }
      ],
      "TotalValidatorBalanceDecreaseOutOfBound(uint256,uint256,uint256,uint256)": [
        {
          "params": {
            "postTotalEthIncludingExited": "The post-report total balance, including all exited balance",
            "prevTotalEthIncludingExited": "The previous total balance, including all exited balance",
            "relativeLowerBound": "The lower bound value that was used",
            "timeElapsed": "The time in seconds since last report"
          }
        }
      ],
      "TotalValidatorBalanceIncreaseOutOfBound(uint256,uint256,uint256,uint256)": [
        {
          "params": {
            "annualAprUpperBound": "The upper bound value that was used",
            "postTotalEthIncludingExited": "The post-report total balance, including all exited balance",
            "prevTotalEthIncludingExited": "The previous total balance, including all exited balance",
            "timeElapsed": "The time in seconds since last report"
          }
        }
      ],
      "Unauthorized(address)": [
        {
          "params": {
            "caller": "Address performing the call"
          }
        }
      ],
      "UnauthorizedTransfer(address,address)": [
        {
          "params": {
            "_from": "Account sending the funds in the invalid transfer",
            "_to": "Account receiving the funds in the invalid transfer"
          }
        }
      ]
    },
    "kind": "dev",
    "methods": {
      "acceptAdmin()": {
        "details": "Only callable by the pending admin. Resets the pending admin if succesful."
      },
      "allowance(address,address)": {
        "params": {
          "_owner": "Address that issued the allowance",
          "_spender": "Address that received the allowance"
        },
        "returns": {
          "_0": "The allowance in shares for a given spender"
        }
      },
      "approve(address,uint256)": {
        "details": "An approved account can use transferFrom to transfer funds on behalf of the token owner",
        "params": {
          "_spender": "Address that is allowed to spend the tokens",
          "_value": "The allowed amount in shares, will override previous value"
        },
        "returns": {
          "_0": "True if success"
        }
      },
      "balanceOf(address)": {
        "params": {
          "_owner": "Address to be checked"
        },
        "returns": {
          "_0": "The balance of the account in shares"
        }
      },
      "balanceOfUnderlying(address)": {
        "params": {
          "_owner": "Address to be checked"
        },
        "returns": {
          "_0": "The underlying balance of the account"
        }
      },
      "claimRedeemRequests(uint32[],uint32[])": {
        "params": {
          "redeemRequestIds": "The list of redeem requests to claim",
          "withdrawalEventIds": "The list of resolved withdrawal event ids"
        },
        "returns": {
          "claimStatuses": "The operation status results"
        }
      },
      "decimals()": {
        "returns": {
          "_0": "The decimal count"
        }
      },
      "decreaseAllowance(address,uint256)": {
        "params": {
          "_spender": "Spender that receives the allowance",
          "_subtractableValue": "Amount of shares to subtract"
        },
        "returns": {
          "_0": "True if success"
        }
      },
      "depositAndTransfer(address)": {
        "params": {
          "_recipient": "Address receiving the minted LsETH"
        }
      },
      "depositToConsensusLayer(uint256)": {
        "params": {
          "_maxCount": "The maximum amount of validator keys to fund"
        }
      },
      "getAdmin()": {
        "returns": {
          "_0": "The admin address"
        }
      },
      "getAllowlist()": {
        "returns": {
          "_0": "The allowlist address"
        }
      },
      "getBalanceToDeposit()": {
        "returns": {
          "_0": "The amount of ETH not yet committed for deposit"
        }
      },
      "getBalanceToRedeem()": {
        "returns": {
          "_0": "The current balance to redeem"
        }
      },
      "getCLSpec()": {
        "returns": {
          "_0": "The Consensus Layer Specification"
        }
      },
      "getCLValidatorCount()": {
        "returns": {
          "_0": "The CL validator count"
        }
      },
      "getCLValidatorTotalBalance()": {
        "returns": {
          "_0": "The CL Validator total balance"
        }
      },
      "getCollector()": {
        "returns": {
          "_0": "The collector address"
        }
      },
      "getCommittedBalance()": {
        "returns": {
          "_0": "The amount of ETH committed for deposit"
        }
      },
      "getCoverageFund()": {
        "returns": {
          "_0": "The coverage fund address"
        }
      },
      "getCurrentEpochId()": {
        "returns": {
          "_0": "The current epoch id"
        }
      },
      "getCurrentFrame()": {
        "returns": {
          "_endTime": "The timestamp of the end of the frame in seconds",
          "_startEpochId": "The epoch at the beginning of the frame",
          "_startTime": "The timestamp of the beginning of the frame in seconds"
        }
      },
      "getDailyCommittableLimits()": {
        "returns": {
          "_0": "The daily committable limits structure"
        }
      },
      "getDepositedValidatorCount()": {
        "returns": {
          "_0": "The deposited validator count"
        }
      },
      "getELFeeRecipient()": {
        "returns": {
          "_0": "The execution layer fee recipient address"
        }
      },
      "getExpectedEpochId()": {
        "returns": {
          "_0": "The current expected epoch id"
        }
      },
      "getFrameFirstEpochId(uint256)": {
        "params": {
          "_epochId": "Epoch id used to get the frame"
        },
        "returns": {
          "_0": "The first epoch id of the frame containing the given epoch id"
        }
      },
      "getGlobalFee()": {
        "returns": {
          "_0": "The global fee"
        }
      },
      "getLastCompletedEpochId()": {
        "returns": {
          "_0": "The last completed epoch id"
        }
      },
      "getLastConsensusLayerReport()": {
        "returns": {
          "_0": "The stored consensus layer report"
        }
      },
      "getMetadataURI()": {
        "returns": {
          "_0": "The metadata uri string value"
        }
      },
      "getOperatorsRegistry()": {
        "returns": {
          "_0": "The operators registry address"
        }
      },
      "getOracle()": {
        "returns": {
          "_0": "The oracle address"
        }
      },
      "getPendingAdmin()": {
        "returns": {
          "_0": "The pending admin address"
        }
      },
      "getReportBounds()": {
        "returns": {
          "_0": "The report bounds"
        }
      },
      "getTime()": {
        "returns": {
          "_0": "The current timestamp from the EVM context"
        }
      },
      "getWithdrawalCredentials()": {
        "returns": {
          "_0": "The withdrawal credentials"
        }
      },
      "increaseAllowance(address,uint256)": {
        "params": {
          "_additionalValue": "Amount of shares to add",
          "_spender": "Spender that receives the allowance"
        },
        "returns": {
          "_0": "True if success"
        }
      },
      "initRiverV1(address,address,bytes32,address,address,address,address,address,uint256)": {
        "params": {
          "_allowlistAddress": "Address of the allowlist contract",
          "_collectorAddress": "Address receiving the the global fee on revenue",
          "_depositContractAddress": "Address to make Consensus Layer deposits",
          "_elFeeRecipientAddress": "Address that receives the execution layer fees",
          "_globalFee": "Amount retained when the ETH balance increases and sent to the collector",
          "_operatorRegistryAddress": "Address of the operator registry",
          "_oracleAddress": "The address of the Oracle contract",
          "_systemAdministratorAddress": "Administrator address",
          "_withdrawalCredentials": "Credentials to use for every validator deposit"
        }
      },
      "initRiverV1_1(address,uint64,uint64,uint64,uint64,uint64,uint256,uint256,uint128,uint128)": {
        "params": {
          "_redeemManager": "The redeem manager address",
          "annualAprUpperBound": "The reporting upper bound",
          "epochsPerFrame": "The amounts of epochs in a frame",
          "epochsToAssumedFinality": "The number of epochs before an epoch is considered final on-chain",
          "genesisTime": "The genesis timestamp",
          "maxDailyNetCommittableAmount_": "The net daily committable limit",
          "maxDailyRelativeCommittableAmount_": "The relative daily committable limit",
          "relativeLowerBound": "The reporting lower bound",
          "secondsPerSlot": "The seconds inside a slot",
          "slotsPerEpoch": "The slots inside an epoch"
        }
      },
      "isValidEpoch(uint256)": {
        "params": {
          "epoch": "The epoch to lookup"
        },
        "returns": {
          "_0": "True if valid"
        }
      },
      "name()": {
        "returns": {
          "_0": "The token name"
        }
      },
      "proposeAdmin(address)": {
        "details": "This security prevents setting an invalid address as an admin. The pendingadmin has to claim its ownership of the contract, and prove that the newaddress is able to perform regular transactions.",
        "params": {
          "_newAdmin": "New admin address"
        }
      },
      "requestRedeem(uint256)": {
        "params": {
          "lsETHAmount": "The amount of LsETH to redeem"
        },
        "returns": {
          "redeemRequestId": "The ID of the newly created redeem request"
        }
      },
      "resolveRedeemRequests(uint32[])": {
        "params": {
          "redeemRequestIds": "The list of redeem requests to resolve"
        },
        "returns": {
          "withdrawalEventIds": "The list of matching withdrawal events, or error codes"
        }
      },
      "setAllowlist(address)": {
        "params": {
          "_newAllowlist": "New address for the allowlist"
        }
      },
      "setCLSpec((uint64,uint64,uint64,uint64,uint64))": {
        "params": {
          "newValue": "The new consensus layer spec value"
        }
      },
      "setCollector(address)": {
        "params": {
          "_newCollector": "New address for the collector"
        }
      },
      "setConsensusLayerData((uint256,uint256,uint256,uint256,uint256,uint32,uint32[],bool,bool))": {
        "params": {
          "report": "The consensus layer report structure"
        }
      },
      "setCoverageFund(address)": {
        "params": {
          "_newCoverageFund": "New address for the fund"
        }
      },
      "setDailyCommittableLimits((uint128,uint128))": {
        "params": {
          "dcl": "The Daily Committable Limits structure"
        }
      },
      "setELFeeRecipient(address)": {
        "params": {
          "_newELFeeRecipient": "New address for the recipient"
        }
      },
      "setGlobalFee(uint256)": {
        "params": {
          "newFee": "New fee value"
        }
      },
      "setMetadataURI(string)": {
        "params": {
          "_metadataURI": "The new metadata uri string value"
        }
      },
      "setOracle(address)": {
        "params": {
          "_oracleAddress": "Address of the oracle"
        }
      },
      "setReportBounds((uint256,uint256))": {
        "params": {
          "newValue": "The new report bounds value"
        }
      },
      "sharesFromUnderlyingBalance(uint256)": {
        "params": {
          "_underlyingAssetAmount": "Amount of underlying asset to convert"
        },
        "returns": {
          "_0": "The amount of shares worth the underlying asset amopunt"
        }
      },
      "symbol()": {
        "returns": {
          "_0": "The token symbol"
        }
      },
      "totalSupply()": {
        "returns": {
          "_0": "The total supply in shares"
        }
      },
      "totalUnderlyingSupply()": {
        "returns": {
          "_0": "The total underlying asset supply"
        }
      },
      "transfer(address,uint256)": {
        "params": {
          "_to": "Address receiving the tokens",
          "_value": "Amount of shares to be sent"
        },
        "returns": {
          "_0": "True if success"
        }
      },
      "transferFrom(address,address,uint256)": {
        "params": {
          "_from": "Address sending the tokens",
          "_to": "Address receiving the tokens",
          "_value": "Amount of shares to be sent"
        },
        "returns": {
          "_0": "True if success"
        }
      },
      "underlyingBalanceFromShares(uint256)": {
        "params": {
          "_shares": "Amount of shares to convert"
        },
        "returns": {
          "_0": "The underlying asset balance represented by the shares"
        }
      }
    },
    "title": "River (v1)",
    "version": 1
  },
  "userdoc": {
    "errors": {
      "AllowanceTooLow(address,address,uint256,uint256)": [
        {
          "notice": "Allowance too low to perform operation"
        }
      ],
      "BalanceTooLow()": [
        {
          "notice": "Balance too low to perform operation"
        }
      ],
      "Denied(address)": [
        {
          "notice": "The access was denied"
        }
      ],
      "EmptyDeposit()": [
        {
          "notice": "And empty deposit attempt was made"
        }
      ],
      "ErrorOnDeposit()": [
        {
          "notice": "An error occured during the deposit"
        }
      ],
      "InconsistentPublicKeys()": [
        {
          "notice": "The length of the BLS Public key is invalid during deposit"
        }
      ],
      "InconsistentSignatures()": [
        {
          "notice": "The length of the BLS Signature is invalid during deposit"
        }
      ],
      "InvalidArgument()": [
        {
          "notice": "The argument was invalid"
        }
      ],
      "InvalidCall()": [
        {
          "notice": "The call was invalid"
        }
      ],
      "InvalidDecreasingValidatorsExitedBalance(uint256,uint256)": [
        {
          "notice": "The total exited balance decreased"
        }
      ],
      "InvalidDecreasingValidatorsSkimmedBalance(uint256,uint256)": [
        {
          "notice": "The total skimmed balance decreased"
        }
      ],
      "InvalidEmptyString()": [
        {
          "notice": "The string is empty"
        }
      ],
      "InvalidEpoch(uint256)": [
        {
          "notice": "Thrown when an invalid epoch was reported"
        }
      ],
      "InvalidFee()": [
        {
          "notice": "The fee is invalid"
        }
      ],
      "InvalidInitialization(uint256,uint256)": [
        {
          "notice": "An error occured during the initialization"
        }
      ],
      "InvalidPublicKeyCount()": [
        {
          "notice": "The received count of public keys to deposit is invalid"
        }
      ],
      "InvalidPulledClFundsAmount(uint256,uint256)": [
        {
          "notice": "Thrown when the amount received from the Withdraw contract doe not match the requested amount"
        }
      ],
      "InvalidSignatureCount()": [
        {
          "notice": "The received count of signatures to deposit is invalid"
        }
      ],
      "InvalidValidatorCountReport(uint256,uint256)": [
        {
          "notice": "The reported validator count is invalid"
        }
      ],
      "InvalidWithdrawalCredentials()": [
        {
          "notice": "The withdrawal credentials value is null"
        }
      ],
      "InvalidZeroAddress()": [
        {
          "notice": "The address is zero"
        }
      ],
      "NoAvailableValidatorKeys()": [
        {
          "notice": "The internal key retrieval returned no keys"
        }
      ],
      "NotEnoughFunds()": [
        {
          "notice": "Not enough funds to deposit one validator"
        }
      ],
      "NullTransfer()": [
        {
          "notice": "Invalid empty transfer"
        }
      ],
      "SliceOutOfBounds()": [
        {
          "notice": "The slice is outside of the initial bytes bounds"
        }
      ],
      "SliceOverflow()": [
        {
          "notice": "The length overflows an uint"
        }
      ],
      "TotalValidatorBalanceDecreaseOutOfBound(uint256,uint256,uint256,uint256)": [
        {
          "notice": "The balance decrease is higher than the maximum allowed by the lower bound"
        }
      ],
      "TotalValidatorBalanceIncreaseOutOfBound(uint256,uint256,uint256,uint256)": [
        {
          "notice": "The balance increase is higher than the maximum allowed by the upper bound"
        }
      ],
      "Unauthorized(address)": [
        {
          "notice": "The operator is unauthorized for the caller"
        }
      ],
      "UnauthorizedTransfer(address,address)": [
        {
          "notice": "Invalid transfer recipients"
        }
      ],
      "ZeroMintedShares()": [
        {
          "notice": "The computed amount of shares to mint is 0"
        }
      ]
    },
    "events": {
      "ConsensusLayerDataUpdate(uint256,uint256,bytes32)": {
        "notice": "The consensus layer data provided by the oracle has been updated"
      },
      "Initialize(uint256,bytes)": {
        "notice": "Emitted when the contract is properly initialized"
      },
      "ProcessedConsensusLayerReport((uint256,uint256,uint256,uint256,uint256,uint32,uint32[],bool,bool),(uint256,uint256,uint256,uint256))": {
        "notice": "The provided report has beend processed"
      },
      "PulledCoverageFunds(uint256)": {
        "notice": "Funds have been pulled from the Coverage Fund"
      },
      "PulledELFees(uint256)": {
        "notice": "Funds have been pulled from the Execution Layer Fee Recipient"
      },
      "PulledRedeemManagerExceedingEth(uint256)": {
        "notice": "Emitted when funds are pulled from the redeem manager"
      },
      "ReportedRedeemManager(uint256,uint256,uint256)": {
        "notice": "Emitted when the redeem manager received a withdraw event report"
      },
      "RewardsEarned(address,uint256,uint256,uint256,uint256)": {
        "notice": "The system underlying supply increased. This is a snapshot of the balances for accounting purposes"
      },
      "SetAdmin(address)": {
        "notice": "The admin address changed"
      },
      "SetAllowlist(address)": {
        "notice": "The stored Allowlist has been changed"
      },
      "SetBalanceCommittedToDeposit(uint256,uint256)": {
        "notice": "Emitted when the balance committed to deposit"
      },
      "SetBalanceToDeposit(uint256,uint256)": {
        "notice": "Emitted when the balance to deposit is updated"
      },
      "SetBalanceToRedeem(uint256,uint256)": {
        "notice": "Emitted when the balance to redeem is updated"
      },
      "SetBounds(uint256,uint256)": {
        "notice": "The Report Bounds are changed"
      },
      "SetCollector(address)": {
        "notice": "The stored Collector has been changed"
      },
      "SetCoverageFund(address)": {
        "notice": "The stored Coverage Fund has been changed"
      },
      "SetDepositContractAddress(address)": {
        "notice": "The stored deposit contract address changed"
      },
      "SetDepositedValidatorCount(uint256,uint256)": {
        "notice": "Emitted when the deposited validator count is updated"
      },
      "SetELFeeRecipient(address)": {
        "notice": "The stored Execution Layer Fee Recipient has been changed"
      },
      "SetGlobalFee(uint256)": {
        "notice": "The stored Global Fee has been changed"
      },
      "SetMaxDailyCommittableAmounts(uint256,uint256)": {
        "notice": "Emitted when the daily committable limits are changed"
      },
      "SetMetadataURI(string)": {
        "notice": "The stored Metadata URI string has been changed"
      },
      "SetOperatorsRegistry(address)": {
        "notice": "The stored Operators Registry has been changed"
      },
      "SetOracle(address)": {
        "notice": "The stored oracle address changed"
      },
      "SetPendingAdmin(address)": {
        "notice": "The pending admin address changed"
      },
      "SetRedeemManager(address)": {
        "notice": "Emitted when the redeem manager address is changed"
      },
      "SetSpec(uint64,uint64,uint64,uint64,uint64)": {
        "notice": "The Consensus Layer Spec is changed"
      },
      "SetTotalSupply(uint256)": {
        "notice": "Emitted when the total supply is changed"
      },
      "SetWithdrawalCredentials(bytes32)": {
        "notice": "The stored withdrawal credentials changed"
      },
      "UserDeposit(address,address,uint256)": {
        "notice": "User deposited ETH in the system"
      }
    },
    "kind": "user",
    "methods": {
      "DEPOSIT_SIZE()": {
        "notice": "Size of a deposit in ETH"
      },
      "PUBLIC_KEY_LENGTH()": {
        "notice": "Size of a BLS Public key in bytes"
      },
      "SIGNATURE_LENGTH()": {
        "notice": "Size of a BLS Signature in bytes"
      },
      "_DEPOSIT_SIZE()": {
        "notice": "Size of a deposit in ETH"
      },
      "acceptAdmin()": {
        "notice": "Accept the transfer of ownership"
      },
      "allowance(address,address)": {
        "notice": "Retrieve the allowance value for a spender"
      },
      "approve(address,uint256)": {
        "notice": "Approves an account for future spendings"
      },
      "balanceOf(address)": {
        "notice": "Retrieve the balance of an account"
      },
      "balanceOfUnderlying(address)": {
        "notice": "Retrieve the underlying asset balance of an account"
      },
      "claimRedeemRequests(uint32[],uint32[])": {
        "notice": "Claims several redeem requests"
      },
      "decimals()": {
        "notice": "Retrieve the decimal count"
      },
      "decreaseAllowance(address,uint256)": {
        "notice": "Decrease allowance to another account"
      },
      "deposit()": {
        "notice": "Explicit deposit method to mint on msg.sender"
      },
      "depositAndTransfer(address)": {
        "notice": "Explicit deposit method to mint on msg.sender and transfer to _recipient"
      },
      "depositToConsensusLayer(uint256)": {
        "notice": "Deposits current balance to the Consensus Layer by batches of 32 ETH"
      },
      "getAdmin()": {
        "notice": "Retrieves the current admin address"
      },
      "getAllowlist()": {
        "notice": "Retrieve the allowlist address"
      },
      "getBalanceToDeposit()": {
        "notice": "Returns the amount of ETH not yet committed for deposit"
      },
      "getBalanceToRedeem()": {
        "notice": "Retrieve the current balance to redeem"
      },
      "getCLSpec()": {
        "notice": "Retrieve the current cl spec"
      },
      "getCLValidatorCount()": {
        "notice": "Get CL validator count (the amount of validator reported by the oracles)"
      },
      "getCLValidatorTotalBalance()": {
        "notice": "Get CL validator total balance"
      },
      "getCollector()": {
        "notice": "Retrieve the collector address"
      },
      "getCommittedBalance()": {
        "notice": "Returns the amount of ETH committed for deposit"
      },
      "getCoverageFund()": {
        "notice": "Retrieve the coverage fund"
      },
      "getCurrentEpochId()": {
        "notice": "Retrieve the current epoch id based on block timestamp"
      },
      "getCurrentFrame()": {
        "notice": "Retrieve the current frame details"
      },
      "getDailyCommittableLimits()": {
        "notice": "Retrieve the configured daily committable limits"
      },
      "getDepositedValidatorCount()": {
        "notice": "Get the deposited validator count (the count of deposits made by the contract)"
      },
      "getELFeeRecipient()": {
        "notice": "Retrieve the execution layer fee recipient"
      },
      "getExpectedEpochId()": {
        "notice": "Retrieve expected epoch id"
      },
      "getFrameFirstEpochId(uint256)": {
        "notice": "Retrieve the first epoch id of the frame of the provided epoch id"
      },
      "getGlobalFee()": {
        "notice": "Get the current global fee"
      },
      "getLastCompletedEpochId()": {
        "notice": "Retrieve the last completed epoch id"
      },
      "getLastConsensusLayerReport()": {
        "notice": "Retrieve the last consensus layer report"
      },
      "getMetadataURI()": {
        "notice": "Retrieve the metadata uri string value"
      },
      "getOperatorsRegistry()": {
        "notice": "Retrieve the operators registry"
      },
      "getOracle()": {
        "notice": "Get oracle address"
      },
      "getPendingAdmin()": {
        "notice": "Retrieve the current pending admin address"
      },
      "getReportBounds()": {
        "notice": "Retrieve the report bounds"
      },
      "getTime()": {
        "notice": "Retrieve the block timestamp"
      },
      "getWithdrawalCredentials()": {
        "notice": "Retrieve the withdrawal credentials"
      },
      "increaseAllowance(address,uint256)": {
        "notice": "Increase allowance to another account"
      },
      "initRiverV1(address,address,bytes32,address,address,address,address,address,uint256)": {
        "notice": "Initializes the River system"
      },
      "initRiverV1_1(address,uint64,uint64,uint64,uint64,uint64,uint256,uint256,uint128,uint128)": {
        "notice": "Initialized version 1.1 of the River System"
      },
      "isValidEpoch(uint256)": {
        "notice": "Verifies if the provided epoch is valid"
      },
      "name()": {
        "notice": "Retrieve the token name"
      },
      "proposeAdmin(address)": {
        "notice": "Proposes a new address as admin"
      },
      "requestRedeem(uint256)": {
        "notice": "Performs a redeem request on the redeem manager"
      },
      "resolveRedeemRequests(uint32[])": {
        "notice": "Resolves the provided redeem requests by calling the redeem manager"
      },
      "sendCLFunds()": {
        "notice": "Input for consensus layer funds, containing both exit and skimming"
      },
      "sendCoverageFunds()": {
        "notice": "Input for coverage funds"
      },
      "sendELFees()": {
        "notice": "Input for execution layer fee earnings"
      },
      "sendRedeemManagerExceedingFunds()": {
        "notice": "Input for the redeem manager funds"
      },
      "setAllowlist(address)": {
        "notice": "Changes the allowlist address"
      },
      "setCLSpec((uint64,uint64,uint64,uint64,uint64))": {
        "notice": "Set the consensus layer spec"
      },
      "setCollector(address)": {
        "notice": "Changes the collector address"
      },
      "setConsensusLayerData((uint256,uint256,uint256,uint256,uint256,uint32,uint32[],bool,bool))": {
        "notice": "Performs all the reporting logics"
      },
      "setCoverageFund(address)": {
        "notice": "Changes the coverage fund"
      },
      "setDailyCommittableLimits((uint128,uint128))": {
        "notice": "Set the daily committable limits"
      },
      "setELFeeRecipient(address)": {
        "notice": "Changes the execution layer fee recipient"
      },
      "setGlobalFee(uint256)": {
        "notice": "Changes the global fee parameter"
      },
      "setMetadataURI(string)": {
        "notice": "Sets the metadata uri string value"
      },
      "setOracle(address)": {
        "notice": "Set the oracle address"
      },
      "setReportBounds((uint256,uint256))": {
        "notice": "Set the report bounds"
      },
      "sharesFromUnderlyingBalance(uint256)": {
        "notice": "Retrieve the shares count from an underlying asset amount"
      },
      "symbol()": {
        "notice": "Retrieve the token symbol"
      },
      "totalSupply()": {
        "notice": "Retrieve the total token supply"
      },
      "totalUnderlyingSupply()": {
        "notice": "Retrieve the total underlying asset supply"
      },
      "transfer(address,uint256)": {
        "notice": "Performs a transfer from the message sender to the provided account"
      },
      "transferFrom(address,address,uint256)": {
        "notice": "Performs a transfer between two recipients"
      },
      "underlyingBalanceFromShares(uint256)": {
        "notice": "Retrieve the underlying asset balance from an amount of shares"
      }
    },
    "notice": "This contract merges all the manager contracts and implements all the virtual methods stitching all components together@notice    +---------------------------------------------------------------------+|                                                                     ||                           Consensus Layer                           ||                                                                     || +-------------------+  +-------------------+  +-------------------+ || |                   |  |                   |  |                   | || |  EL Fee Recipient |  |      Oracle       |  |  Deposit Contract | || |                   |  |                   |  |                   | || +---------|---------+  +---------|---------+  +---------|---------+ |+---------------------------------------------------------------------+|         7            |            5         |+-----------------|    |    |-----------------+|    |6   ||    |    |+---------+          +----|----|----|----+            +---------+|         |          |                   |     2      |         ||Operator |          |       River       --------------  User   ||         |          |                   |            |         |+----|----+          +----|---------|----+            +---------+|                    |         ||             4      |         |       3|1     +-------------|         |--------------+|      |                                      ||      |                                      |+------|------|------------+           +-------------|------------+|                          |           |                          ||    Operators Registry    |           |         Allowlist        ||                          |           |                          |+--------------------------+           +--------------------------+@notice      1. Operators are adding BLS Public Keys of validators running in theirinfrastructure.2. User deposit ETH to the system and get shares minted in exchange3. Upon deposit, the system verifies if the User is allowed to depositby querying the Allowlist4. When the system has enough funds to deposit validators, keys are pulledfrom the Operators Registry5. The deposit data is computed and the validators are funded via the officialdeposit contract6. Oracles report the total balance of the running validators and the total countof running validators7. The running validators propose blocks that reward the EL Fee Recipient. The fundsare pulled back in the system.",
    "version": 1
  },
  "storageLayout": {
    "storage": [],
    "types": null
  }
}