{
  "address": "0x652855c7B1681c3d8Fe7630a3eA89Dd769d96a68",
  "abi": [
    {
      "inputs": [
        {
          "internalType": "uint256",
          "name": "version",
          "type": "uint256"
        },
        {
          "internalType": "uint256",
          "name": "expectedVersion",
          "type": "uint256"
        }
      ],
      "name": "InvalidInitialization",
      "type": "error"
    },
    {
      "inputs": [],
      "name": "InvalidZeroAddress",
      "type": "error"
    },
    {
      "inputs": [
        {
          "internalType": "address",
          "name": "caller",
          "type": "address"
        }
      ],
      "name": "Unauthorized",
      "type": "error"
    },
    {
      "anonymous": false,
      "inputs": [
        {
          "indexed": false,
          "internalType": "uint256",
          "name": "version",
          "type": "uint256"
        },
        {
          "indexed": false,
          "internalType": "bytes",
          "name": "cdata",
          "type": "bytes"
        }
      ],
      "name": "Initialize",
      "type": "event"
    },
    {
      "anonymous": false,
      "inputs": [
        {
          "indexed": false,
          "internalType": "address",
          "name": "river",
          "type": "address"
        }
      ],
      "name": "SetRiver",
      "type": "event"
    },
    {
      "inputs": [],
      "name": "getCredentials",
      "outputs": [
        {
          "internalType": "bytes32",
          "name": "",
          "type": "bytes32"
        }
      ],
      "stateMutability": "view",
      "type": "function"
    },
    {
      "inputs": [],
      "name": "getRiver",
      "outputs": [
        {
          "internalType": "address",
          "name": "",
          "type": "address"
        }
      ],
      "stateMutability": "view",
      "type": "function"
    },
    {
      "inputs": [
        {
          "internalType": "address",
          "name": "_river",
          "type": "address"
        }
      ],
      "name": "initializeWithdrawV1",
      "outputs": [],
      "stateMutability": "nonpayable",
      "type": "function"
    },
    {
      "inputs": [
        {
          "internalType": "uint256",
          "name": "_max",
          "type": "uint256"
        }
      ],
      "name": "pullEth",
      "outputs": [],
      "stateMutability": "nonpayable",
      "type": "function"
    }
  ],
  "transactionHash": "0x911034ff054557a1de7cc665509297fab8a283a8b56e1cffc17c807fe98f247d",
  "args": [],
  "numDeployments": 1,
  "solcInputHash": "17288a2de201671025ab4726f1192faa",
  "bytecode": "0x608060405234801561001057600080fd5b5061002660001961006960201b6102181760201c565b7f1809e49bba43f2d39fa57894b50cd6ccb428cc438230e065cac3eb24a1355a7160001960003660405161005c939291906100b1565b60405180910390a161010c565b6100aa61009760017f82055909238c0f5e63d6f174068ebb8f51bcec9bd37de63bb68f6551feec0cfd6100e7565b60001b826100ad60201b61024e1760201c565b50565b9055565b83815260406020820152816040820152818360608301376000818301606090810191909152601f909201601f1916010192915050565b60008282101561010757634e487b7160e01b600052601160045260246000fd5b500390565b6104768061011b6000396000f3fe608060405234801561001057600080fd5b506004361061004c5760003560e01c80632294133814610051578063a519f0601461006c578063af254f1214610081578063ea74f47914610096575b600080fd5b6100596100a9565b6040519081526020015b60405180910390f35b6100746100be565b604051610063919061036f565b61009461008f366004610383565b6100cd565b005b6100946100a43660046103ac565b610169565b60006100b930600160f81b6103db565b919050565b60006100c8610252565b905090565b60006100d7610286565b811461010d57806100e6610286565b604051631cfd276760e31b8152600481019290925260248201526044015b60405180910390fd5b61012061011b8260016103db565b610218565b610129826102b6565b7f1809e49bba43f2d39fa57894b50cd6ccb428cc438230e065cac3eb24a1355a718160003660405161015d939291906103f3565b60405180910390a15050565b610171610252565b6001600160a01b0316336001600160a01b0316146101a4573360405163472511eb60e11b8152600401610104919061036f565b60006101b047836102f9565b90508015610214576101c0610252565b6001600160a01b0316635d95e801826040518263ffffffff1660e01b81526004016000604051808303818588803b1580156101fa57600080fd5b505af115801561020e573d6000803e3d6000fd5b50505050505b5050565b61024b61024660017f82055909238c0f5e63d6f174068ebb8f51bcec9bd37de63bb68f6551feec0cfd610429565b829055565b50565b9055565b60006100c861028260017f1ec4138404500a2a0be2c2f9b103581c2a7fa783a934f91a6cc5cc924404973c610429565b5490565b60006100c861028260017f82055909238c0f5e63d6f174068ebb8f51bcec9bd37de63bb68f6551feec0cfd610429565b6102bf81610311565b7ffc0d749143b04e0d92a3b49edae84a45f6bc88b75e99d9118ec4d7e87fe626c5816040516102ee919061036f565b60405180910390a150565b6000818311610308578261030a565b815b9392505050565b61031a81610348565b61024b61024660017f1ec4138404500a2a0be2c2f9b103581c2a7fa783a934f91a6cc5cc924404973c610429565b6001600160a01b03811661024b5760405163f6b2911f60e01b815260040160405180910390fd5b6001600160a01b0391909116815260200190565b60006020828403121561039557600080fd5b81356001600160a01b038116811461030a57600080fd5b6000602082840312156103be57600080fd5b5035919050565b634e487b7160e01b600052601160045260246000fd5b600082198211156103ee576103ee6103c5565b500190565b83815260406020820152816040820152818360608301376000818301606090810191909152601f909201601f1916010192915050565b60008282101561043b5761043b6103c5565b50039056fea2646970667358221220731459a0ccb004c3fa009809f2610d1c8a72f1e6355c9596076d9baabd0b225464736f6c634300080a0033",
  "devdoc": {
    "author": "Kiln",
    "errors": {
      "InvalidInitialization(uint256,uint256)": [
        {
          "params": {
            "expectedVersion": "The version that was expected",
            "version": "The version that was attempting to be initialized"
          }
        }
      ],
      "Unauthorized(address)": [
        {
          "params": {
            "caller": "Address performing the call"
          }
        }
      ]
    },
    "kind": "dev",
    "methods": {
      "getCredentials()": {
        "returns": {
          "_0": "The withdrawal credentials"
        }
      },
      "getRiver()": {
        "returns": {
          "_0": "The River address"
        }
      },
      "initializeWithdrawV1(address)": {
        "params": {
          "_river": "The address of the River contract"
        }
      },
      "pullEth(uint256)": {
        "params": {
          "_amount": "The amount to pull"
        }
      }
    },
    "title": "Withdraw (v1)",
    "version": 1
  },
  "userdoc": {
    "errors": {
      "InvalidInitialization(uint256,uint256)": [
        {
          "notice": "An error occured during the initialization"
        }
      ],
      "InvalidZeroAddress()": [
        {
          "notice": "The address is zero"
        }
      ],
      "Unauthorized(address)": [
        {
          "notice": "The operator is unauthorized for the caller"
        }
      ]
    },
    "events": {
      "Initialize(uint256,bytes)": {
        "notice": "Emitted when the contract is properly initialized"
      },
      "SetRiver(address)": {
        "notice": "Emitted when the linked River address is changed"
      }
    },
    "kind": "user",
    "methods": {
      "getCredentials()": {
        "notice": "Retrieve the withdrawal credentials to use"
      },
      "getRiver()": {
        "notice": "Retrieve the linked River address"
      },
      "pullEth(uint256)": {
        "notice": "Callable by River, sends the specified amount of ETH to River"
      }
    },
    "notice": "This contract is in charge of holding the exit and skimming funds and allow river to pull these funds",
    "version": 1
  },
  "storageLayout": {
    "storage": [],
    "types": null
  }
}