{
  "address": "0xC95Fd1AadCE00a234cab95796ec04d7A86C6c9e5",
  "abi": [
    {
      "inputs": [
        {
          "internalType": "address",
          "name": "governor_",
          "type": "address"
        },
        {
          "internalType": "address",
          "name": "executor_",
          "type": "address"
        },
        {
          "internalType": "address",
          "name": "destination_",
          "type": "address"
        },
        {
          "internalType": "bytes4[]",
          "name": "executorCallableSelectors_",
          "type": "bytes4[]"
        }
      ],
      "stateMutability": "nonpayable",
      "type": "constructor"
    },
    {
      "inputs": [
        {
          "internalType": "address",
          "name": "caller",
          "type": "address"
        }
      ],
      "name": "Unauthorized",
      "type": "error"
    },
    {
      "stateMutability": "payable",
      "type": "fallback"
    },
    {
      "inputs": [
        {
          "internalType": "bytes4",
          "name": "functionSelector",
          "type": "bytes4"
        },
        {
          "internalType": "bool",
          "name": "executorCanCall_",
          "type": "bool"
        }
      ],
      "name": "allowExecutor",
      "outputs": [],
      "stateMutability": "nonpayable",
      "type": "function"
    },
    {
      "inputs": [],
      "name": "executor",
      "outputs": [
        {
          "internalType": "address",
          "name": "",
          "type": "address"
        }
      ],
      "stateMutability": "view",
      "type": "function"
    },
    {
      "inputs": [],
      "name": "governor",
      "outputs": [
        {
          "internalType": "address",
          "name": "",
          "type": "address"
        }
      ],
      "stateMutability": "view",
      "type": "function"
    },
    {
      "inputs": [
        {
          "internalType": "address",
          "name": "newExecutor",
          "type": "address"
        }
      ],
      "name": "setExecutor",
      "outputs": [],
      "stateMutability": "nonpayable",
      "type": "function"
    },
    {
      "inputs": [
        {
          "internalType": "address",
          "name": "newGovernor",
          "type": "address"
        }
      ],
      "name": "setGovernor",
      "outputs": [],
      "stateMutability": "nonpayable",
      "type": "function"
    },
    {
      "stateMutability": "payable",
      "type": "receive"
    }
  ],
  "transactionHash": "0x698937860d8500c0d71032ca9f7b5b83857ca2be8578e1618d1b6d2fb31a6622",
  "args": [
    "0x71c9DAb681C209bb82270906e3B49388b2C15404",
    "0x71c9DAb681C209bb82270906e3B49388b2C15404",
    "0x17F4a77c9b1e5A6A8ee8964255F51321B6a41418",
    [
      "0x5a16f135",
      "0x5f41a0c4",
      "0x98548cac"
    ]
  ],
  "numDeployments": 4,
  "solcInputHash": "e0747c9f458a392de0f02a251cd18ac6",
  "bytecode": "0x608060405234801561001057600080fd5b5060405161057738038061057783398101604081905261002f9161011e565b600180546001600160a01b038087166001600160a01b03199283161790925560028054868416908316179055600380549285169290911691909117905560005b81518110156100ca57600160008084848151811061008f5761008f610215565b6020908102919091018101516001600160e01b0319168252810191909152604001600020805460ff191691151591909117905560010161006f565b505050505061022b565b80516001600160a01b03811681146100eb57600080fd5b919050565b634e487b7160e01b600052604160045260246000fd5b80516001600160e01b0319811681146100eb57600080fd5b6000806000806080858703121561013457600080fd5b61013d856100d4565b9350602061014c8187016100d4565b935061015a604087016100d4565b60608701519093506001600160401b038082111561017757600080fd5b818801915088601f83011261018b57600080fd5b81518181111561019d5761019d6100f0565b8060051b604051601f19603f830116810181811085821117156101c2576101c26100f0565b60405291825284820192508381018501918b8311156101e057600080fd5b938501935b82851015610205576101f685610106565b845293850193928501926101e5565b989b979a50959850505050505050565b634e487b7160e01b600052603260045260246000fd5b61033d8061023a6000396000f3fe60806040526004361061004e5760003560e01c806302aaa9cc146100655780630c340a24146100855780631c3c0ea8146100c1578063c34c08e5146100e1578063c42cf535146101015761005d565b3661005d5761005b610121565b005b61005b610121565b34801561007157600080fd5b5061005b61008036600461028c565b610141565b34801561009157600080fd5b506001546100a5906001600160a01b031681565b6040516001600160a01b03909116815260200160405180910390f35b3480156100cd57600080fd5b5061005b6100dc3660046102d7565b61019e565b3480156100ed57600080fd5b506002546100a5906001600160a01b031681565b34801561010d57600080fd5b5061005b61011c3660046102d7565b6101e6565b610129610219565b60035461013f906001600160a01b031634610267565b565b6001546001600160a01b031633141561017f576001600160e01b031982166000908152602081905260409020805482151560ff199091161790555050565b60405163472511eb60e11b815233600482015260240160405180910390fd5b6001546001600160a01b03163314806101c157506002546001600160a01b031633145b1561017f57600280546001600160a01b0383166001600160a01b031990911617905550565b6001546001600160a01b031633141561017f57600180546001600160a01b0383166001600160a01b031990911617905550565b6001546001600160a01b03163314806102605750600080356001600160e01b03191681526020819052604090205460ff16801561026057506002546001600160a01b031633145b1561017f57565b366000803760008036600084865af13d6000803e808015610287573d6000f35b3d6000fd5b6000806040838503121561029f57600080fd5b82356001600160e01b0319811681146102b757600080fd5b9150602083013580151581146102cc57600080fd5b809150509250929050565b6000602082840312156102e957600080fd5b81356001600160a01b038116811461030057600080fd5b939250505056fea26469706673582212206a9fab756036550a85078fdbd6adc13e443e28716591a3170b0857d72a7f9b0c64736f6c634300080a0033",
  "devdoc": {
    "author": "Figment",
    "kind": "dev",
    "methods": {
      "allowExecutor(bytes4,bool)": {
        "details": "make a function either only callable by the governor, or callable by gov and executor."
      },
      "setExecutor(address)": {
        "details": "Change the executor"
      },
      "setGovernor(address)": {
        "details": "Change the governor"
      }
    },
    "title": "Firewall",
    "version": 1
  },
  "userdoc": {
    "kind": "user",
    "methods": {},
    "notice": "This contract accepts calls to admin-level functions of an underlying contract, and         ensures the caller holds an appropriate role for calling that function. There are two roles:          - A Governor can call anything          - An Executor can call specific functions specified at construction         Random callers cannot call anything through this contract, even if the underlying function         is unpermissioned in the underlying contract.         Calls to non-admin functions should be called at the underlying contract directly.",
    "version": 1
  },
  "storageLayout": {
    "storage": [
      {
        "astId": 388,
        "contract": "contracts/src/Firewall.sol:Firewall",
        "label": "executorCanCall",
        "offset": 0,
        "slot": "0",
        "type": "t_mapping(t_bytes4,t_bool)"
      },
      {
        "astId": 390,
        "contract": "contracts/src/Firewall.sol:Firewall",
        "label": "governor",
        "offset": 0,
        "slot": "1",
        "type": "t_address"
      },
      {
        "astId": 392,
        "contract": "contracts/src/Firewall.sol:Firewall",
        "label": "executor",
        "offset": 0,
        "slot": "2",
        "type": "t_address"
      },
      {
        "astId": 394,
        "contract": "contracts/src/Firewall.sol:Firewall",
        "label": "destination",
        "offset": 0,
        "slot": "3",
        "type": "t_address"
      }
    ],
    "types": {
      "t_address": {
        "encoding": "inplace",
        "label": "address",
        "numberOfBytes": "20"
      },
      "t_bool": {
        "encoding": "inplace",
        "label": "bool",
        "numberOfBytes": "1"
      },
      "t_bytes4": {
        "encoding": "inplace",
        "label": "bytes4",
        "numberOfBytes": "4"
      },
      "t_mapping(t_bytes4,t_bool)": {
        "encoding": "mapping",
        "key": "t_bytes4",
        "label": "mapping(bytes4 => bool)",
        "numberOfBytes": "32",
        "value": "t_bool"
      }
    }
  }
}