{
  "address": "0xB4669c8B41591BB20566a35Bc579C37EbE5837b9",
  "abi": [
    {
      "inputs": [
        {
          "internalType": "address",
          "name": "governor_",
          "type": "address"
        },
        {
          "internalType": "address",
          "name": "executor_",
          "type": "address"
        },
        {
          "internalType": "address",
          "name": "destination_",
          "type": "address"
        },
        {
          "internalType": "bytes4[]",
          "name": "executorCallableSelectors_",
          "type": "bytes4[]"
        }
      ],
      "stateMutability": "nonpayable",
      "type": "constructor"
    },
    {
      "inputs": [
        {
          "internalType": "address",
          "name": "caller",
          "type": "address"
        }
      ],
      "name": "Unauthorized",
      "type": "error"
    },
    {
      "stateMutability": "payable",
      "type": "fallback"
    },
    {
      "inputs": [
        {
          "internalType": "address",
          "name": "newExecutor",
          "type": "address"
        }
      ],
      "name": "changeExecutor",
      "outputs": [],
      "stateMutability": "nonpayable",
      "type": "function"
    },
    {
      "inputs": [
        {
          "internalType": "address",
          "name": "newGovernor",
          "type": "address"
        }
      ],
      "name": "changeGovernor",
      "outputs": [],
      "stateMutability": "nonpayable",
      "type": "function"
    },
    {
      "inputs": [],
      "name": "executor",
      "outputs": [
        {
          "internalType": "address",
          "name": "",
          "type": "address"
        }
      ],
      "stateMutability": "view",
      "type": "function"
    },
    {
      "inputs": [],
      "name": "governor",
      "outputs": [
        {
          "internalType": "address",
          "name": "",
          "type": "address"
        }
      ],
      "stateMutability": "view",
      "type": "function"
    },
    {
      "inputs": [
        {
          "internalType": "bytes4",
          "name": "functionSelector",
          "type": "bytes4"
        },
        {
          "internalType": "bool",
          "name": "executorCanCall_",
          "type": "bool"
        }
      ],
      "name": "permissionFunction",
      "outputs": [],
      "stateMutability": "nonpayable",
      "type": "function"
    },
    {
      "stateMutability": "payable",
      "type": "receive"
    }
  ],
  "transactionHash": "0x3d71ed79d8258d5cc06f3635de7d49a58b677fd29a32c8045b0920de24e3e7ea",
  "args": [
    "0x71c9DAb681C209bb82270906e3B49388b2C15404",
    "0x71c9DAb681C209bb82270906e3B49388b2C15404",
    "0x507b8e603485A0DCf0C59DB810Dc0BdD790a783d",
    [
      "0xca6d56dc",
      "0x0b1ca49a",
      "0xc1ba4e59",
      "0xe90b2da1",
      "0x91f10da0"
    ]
  ],
  "numDeployments": 3,
  "solcInputHash": "7033459a833c3a6a9cee0bc416b032e6",
  "bytecode": "0x608060405234801561001057600080fd5b5060405161060238038061060283398101604081905261002f9161011e565b600180546001600160a01b038087166001600160a01b03199283161790925560028054868416908316179055600380549285169290911691909117905560005b81518110156100ca57600160008084848151811061008f5761008f610215565b6020908102919091018101516001600160e01b0319168252810191909152604001600020805460ff191691151591909117905560010161006f565b505050505061022b565b80516001600160a01b03811681146100eb57600080fd5b919050565b634e487b7160e01b600052604160045260246000fd5b80516001600160e01b0319811681146100eb57600080fd5b6000806000806080858703121561013457600080fd5b61013d856100d4565b9350602061014c8187016100d4565b935061015a604087016100d4565b60608701519093506001600160401b038082111561017757600080fd5b818801915088601f83011261018b57600080fd5b81518181111561019d5761019d6100f0565b8060051b604051601f19603f830116810181811085821117156101c2576101c26100f0565b60405291825284820192508381018501918b8311156101e057600080fd5b938501935b82851015610205576101f685610106565b845293850193928501926101e5565b989b979a50959850505050505050565b634e487b7160e01b600052603260045260246000fd5b6103c88061023a6000396000f3fe60806040526004361061005e5760003560e01c80639665b658116100435780639665b658146100d1578063c34c08e5146100f1578063e4c0aaf4146101115761006d565b80630c340a2414610075578063960d3ac3146100b15761006d565b3661006d5761006b610131565b005b61006b610131565b34801561008157600080fd5b50600154610095906001600160a01b031681565b6040516001600160a01b03909116815260200160405180910390f35b3480156100bd57600080fd5b5061006b6100cc3660046102ff565b610151565b3480156100dd57600080fd5b5061006b6100ec366004610362565b6101df565b3480156100fd57600080fd5b50600254610095906001600160a01b031681565b34801561011d57600080fd5b5061006b61012c366004610362565b610234565b610139610274565b60035461014f906001600160a01b0316346102da565b565b6001546001600160a01b03163314156101a7577fffffffff0000000000000000000000000000000000000000000000000000000082166000908152602081905260409020805482151560ff199091161790555050565b6040517f8e4a23d600000000000000000000000000000000000000000000000000000000815233600482015260240160405180910390fd5b6001546001600160a01b031633148061020257506002546001600160a01b031633145b156101a757600280546001600160a01b03831673ffffffffffffffffffffffffffffffffffffffff1990911617905550565b6001546001600160a01b03163314156101a757600180546001600160a01b03831673ffffffffffffffffffffffffffffffffffffffff1990911617905550565b6001546001600160a01b03163314806102d35750600080357fffffffff000000000000000000000000000000000000000000000000000000001681526020819052604090205460ff1680156102d357506002546001600160a01b031633145b156101a757565b366000803760008036600084865af13d6000803e8080156102fa573d6000f35b3d6000fd5b6000806040838503121561031257600080fd5b82357fffffffff000000000000000000000000000000000000000000000000000000008116811461034257600080fd5b91506020830135801515811461035757600080fd5b809150509250929050565b60006020828403121561037457600080fd5b81356001600160a01b038116811461038b57600080fd5b939250505056fea264697066735822122045792081be5bd869825098790ef3b2a27053863e953e6724671d45c7698b305364736f6c634300080a0033",
  "devdoc": {
    "author": "Figment",
    "kind": "dev",
    "methods": {
      "changeExecutor(address)": {
        "details": "Change the executor"
      },
      "changeGovernor(address)": {
        "details": "Change the governor"
      },
      "permissionFunction(bytes4,bool)": {
        "details": "make a function either only callable by the governor, or callable by gov and executor."
      }
    },
    "title": "Firewall",
    "version": 1
  },
  "userdoc": {
    "kind": "user",
    "methods": {},
    "notice": "This contract accepts calls to admin-level functions of an underlying contract, and         ensures the caller holds an appropriate role for calling that function. There are two roles:          - A Governor can call anything          - An Executor can call specific functions specified at construction         Random callers cannot call anything through this contract, even if the underlying function         is unpermissioned in the underlying contract.         Calls to non-admin functions should be called at the underlying contract directly.",
    "version": 1
  },
  "storageLayout": {
    "storage": [
      {
        "astId": 272,
        "contract": "contracts/src/Firewall.sol:Firewall",
        "label": "executorCanCall",
        "offset": 0,
        "slot": "0",
        "type": "t_mapping(t_bytes4,t_bool)"
      },
      {
        "astId": 274,
        "contract": "contracts/src/Firewall.sol:Firewall",
        "label": "governor",
        "offset": 0,
        "slot": "1",
        "type": "t_address"
      },
      {
        "astId": 276,
        "contract": "contracts/src/Firewall.sol:Firewall",
        "label": "executor",
        "offset": 0,
        "slot": "2",
        "type": "t_address"
      },
      {
        "astId": 278,
        "contract": "contracts/src/Firewall.sol:Firewall",
        "label": "destination",
        "offset": 0,
        "slot": "3",
        "type": "t_address"
      }
    ],
    "types": {
      "t_address": {
        "encoding": "inplace",
        "label": "address",
        "numberOfBytes": "20"
      },
      "t_bool": {
        "encoding": "inplace",
        "label": "bool",
        "numberOfBytes": "1"
      },
      "t_bytes4": {
        "encoding": "inplace",
        "label": "bytes4",
        "numberOfBytes": "4"
      },
      "t_mapping(t_bytes4,t_bool)": {
        "encoding": "mapping",
        "key": "t_bytes4",
        "label": "mapping(bytes4 => bool)",
        "numberOfBytes": "32",
        "value": "t_bool"
      }
    }
  }
}