{
  "address": "0x57Ce8e0AB7E9BD0489E9D2C0f297dfd85aF5cE33",
  "abi": [
    {
      "inputs": [],
      "name": "FundedKeyEventMigrationComplete",
      "type": "error"
    },
    {
      "inputs": [
        {
          "internalType": "uint256",
          "name": "index",
          "type": "uint256"
        }
      ],
      "name": "InactiveOperator",
      "type": "error"
    },
    {
      "inputs": [],
      "name": "InvalidArrayLengths",
      "type": "error"
    },
    {
      "inputs": [],
      "name": "InvalidEmptyArray",
      "type": "error"
    },
    {
      "inputs": [],
      "name": "InvalidEmptyStoppedValidatorCountsArray",
      "type": "error"
    },
    {
      "inputs": [],
      "name": "InvalidEmptyString",
      "type": "error"
    },
    {
      "inputs": [],
      "name": "InvalidFundedKeyDeletionAttempt",
      "type": "error"
    },
    {
      "inputs": [],
      "name": "InvalidIndexOutOfBounds",
      "type": "error"
    },
    {
      "inputs": [
        {
          "internalType": "uint256",
          "name": "version",
          "type": "uint256"
        },
        {
          "internalType": "uint256",
          "name": "expectedVersion",
          "type": "uint256"
        }
      ],
      "name": "InvalidInitialization",
      "type": "error"
    },
    {
      "inputs": [],
      "name": "InvalidKeyCount",
      "type": "error"
    },
    {
      "inputs": [],
      "name": "InvalidKeysLength",
      "type": "error"
    },
    {
      "inputs": [],
      "name": "InvalidStoppedValidatorCountsSum",
      "type": "error"
    },
    {
      "inputs": [],
      "name": "InvalidUnsortedIndexes",
      "type": "error"
    },
    {
      "inputs": [],
      "name": "InvalidZeroAddress",
      "type": "error"
    },
    {
      "inputs": [],
      "name": "NoExitRequestsToPerform",
      "type": "error"
    },
    {
      "inputs": [
        {
          "internalType": "uint256",
          "name": "index",
          "type": "uint256"
        },
        {
          "internalType": "uint256",
          "name": "limit",
          "type": "uint256"
        },
        {
          "internalType": "uint256",
          "name": "keyCount",
          "type": "uint256"
        }
      ],
      "name": "OperatorLimitTooHigh",
      "type": "error"
    },
    {
      "inputs": [
        {
          "internalType": "uint256",
          "name": "index",
          "type": "uint256"
        },
        {
          "internalType": "uint256",
          "name": "limit",
          "type": "uint256"
        },
        {
          "internalType": "uint256",
          "name": "fundedKeyCount",
          "type": "uint256"
        }
      ],
      "name": "OperatorLimitTooLow",
      "type": "error"
    },
    {
      "inputs": [
        {
          "internalType": "uint256",
          "name": "index",
          "type": "uint256"
        }
      ],
      "name": "OperatorNotFound",
      "type": "error"
    },
    {
      "inputs": [
        {
          "internalType": "uint256",
          "name": "index",
          "type": "uint256"
        }
      ],
      "name": "OperatorNotFound",
      "type": "error"
    },
    {
      "inputs": [],
      "name": "SliceOutOfBounds",
      "type": "error"
    },
    {
      "inputs": [],
      "name": "SliceOverflow",
      "type": "error"
    },
    {
      "inputs": [
        {
          "internalType": "uint256",
          "name": "operatorIndex",
          "type": "uint256"
        },
        {
          "internalType": "uint32",
          "name": "stoppedCount",
          "type": "uint32"
        },
        {
          "internalType": "uint32",
          "name": "fundedCount",
          "type": "uint32"
        }
      ],
      "name": "StoppedValidatorCountAboveFundedCount",
      "type": "error"
    },
    {
      "inputs": [],
      "name": "StoppedValidatorCountArrayShrinking",
      "type": "error"
    },
    {
      "inputs": [],
      "name": "StoppedValidatorCountsDecreased",
      "type": "error"
    },
    {
      "inputs": [],
      "name": "StoppedValidatorCountsTooHigh",
      "type": "error"
    },
    {
      "inputs": [
        {
          "internalType": "address",
          "name": "caller",
          "type": "address"
        }
      ],
      "name": "Unauthorized",
      "type": "error"
    },
    {
      "inputs": [],
      "name": "UnorderedOperatorList",
      "type": "error"
    },
    {
      "anonymous": false,
      "inputs": [
        {
          "indexed": true,
          "internalType": "uint256",
          "name": "index",
          "type": "uint256"
        },
        {
          "indexed": false,
          "internalType": "string",
          "name": "name",
          "type": "string"
        },
        {
          "indexed": true,
          "internalType": "address",
          "name": "operatorAddress",
          "type": "address"
        }
      ],
      "name": "AddedOperator",
      "type": "event"
    },
    {
      "anonymous": false,
      "inputs": [
        {
          "indexed": true,
          "internalType": "uint256",
          "name": "index",
          "type": "uint256"
        },
        {
          "indexed": false,
          "internalType": "bytes",
          "name": "publicKeysAndSignatures",
          "type": "bytes"
        }
      ],
      "name": "AddedValidatorKeys",
      "type": "event"
    },
    {
      "anonymous": false,
      "inputs": [
        {
          "indexed": true,
          "internalType": "uint256",
          "name": "index",
          "type": "uint256"
        },
        {
          "indexed": false,
          "internalType": "bytes[]",
          "name": "publicKeys",
          "type": "bytes[]"
        },
        {
          "indexed": false,
          "internalType": "bool",
          "name": "deferred",
          "type": "bool"
        }
      ],
      "name": "FundedValidatorKeys",
      "type": "event"
    },
    {
      "anonymous": false,
      "inputs": [
        {
          "indexed": false,
          "internalType": "uint256",
          "name": "version",
          "type": "uint256"
        },
        {
          "indexed": false,
          "internalType": "bytes",
          "name": "cdata",
          "type": "bytes"
        }
      ],
      "name": "Initialize",
      "type": "event"
    },
    {
      "anonymous": false,
      "inputs": [
        {
          "indexed": true,
          "internalType": "uint256",
          "name": "index",
          "type": "uint256"
        },
        {
          "indexed": false,
          "internalType": "uint256",
          "name": "currentLimit",
          "type": "uint256"
        },
        {
          "indexed": false,
          "internalType": "uint256",
          "name": "newLimit",
          "type": "uint256"
        },
        {
          "indexed": true,
          "internalType": "uint256",
          "name": "latestKeysEditBlockNumber",
          "type": "uint256"
        },
        {
          "indexed": true,
          "internalType": "uint256",
          "name": "snapshotBlock",
          "type": "uint256"
        }
      ],
      "name": "OperatorEditsAfterSnapshot",
      "type": "event"
    },
    {
      "anonymous": false,
      "inputs": [
        {
          "indexed": true,
          "internalType": "uint256",
          "name": "index",
          "type": "uint256"
        },
        {
          "indexed": false,
          "internalType": "uint256",
          "name": "limit",
          "type": "uint256"
        }
      ],
      "name": "OperatorLimitUnchanged",
      "type": "event"
    },
    {
      "anonymous": false,
      "inputs": [
        {
          "indexed": true,
          "internalType": "uint256",
          "name": "index",
          "type": "uint256"
        },
        {
          "indexed": false,
          "internalType": "bytes",
          "name": "publicKey",
          "type": "bytes"
        }
      ],
      "name": "RemovedValidatorKey",
      "type": "event"
    },
    {
      "anonymous": false,
      "inputs": [
        {
          "indexed": true,
          "internalType": "uint256",
          "name": "index",
          "type": "uint256"
        },
        {
          "indexed": false,
          "internalType": "uint256",
          "name": "count",
          "type": "uint256"
        }
      ],
      "name": "RequestedValidatorExits",
      "type": "event"
    },
    {
      "anonymous": false,
      "inputs": [
        {
          "indexed": true,
          "internalType": "address",
          "name": "admin",
          "type": "address"
        }
      ],
      "name": "SetAdmin",
      "type": "event"
    },
    {
      "anonymous": false,
      "inputs": [
        {
          "indexed": false,
          "internalType": "uint256",
          "name": "previousValidatorExitsDemand",
          "type": "uint256"
        },
        {
          "indexed": false,
          "internalType": "uint256",
          "name": "nextValidatorExitsDemand",
          "type": "uint256"
        }
      ],
      "name": "SetCurrentValidatorExitsDemand",
      "type": "event"
    },
    {
      "anonymous": false,
      "inputs": [
        {
          "indexed": true,
          "internalType": "uint256",
          "name": "index",
          "type": "uint256"
        },
        {
          "indexed": true,
          "internalType": "address",
          "name": "newOperatorAddress",
          "type": "address"
        }
      ],
      "name": "SetOperatorAddress",
      "type": "event"
    },
    {
      "anonymous": false,
      "inputs": [
        {
          "indexed": true,
          "internalType": "uint256",
          "name": "index",
          "type": "uint256"
        },
        {
          "indexed": false,
          "internalType": "uint256",
          "name": "newLimit",
          "type": "uint256"
        }
      ],
      "name": "SetOperatorLimit",
      "type": "event"
    },
    {
      "anonymous": false,
      "inputs": [
        {
          "indexed": true,
          "internalType": "uint256",
          "name": "index",
          "type": "uint256"
        },
        {
          "indexed": false,
          "internalType": "string",
          "name": "newName",
          "type": "string"
        }
      ],
      "name": "SetOperatorName",
      "type": "event"
    },
    {
      "anonymous": false,
      "inputs": [
        {
          "indexed": true,
          "internalType": "uint256",
          "name": "index",
          "type": "uint256"
        },
        {
          "indexed": false,
          "internalType": "bool",
          "name": "active",
          "type": "bool"
        }
      ],
      "name": "SetOperatorStatus",
      "type": "event"
    },
    {
      "anonymous": false,
      "inputs": [
        {
          "indexed": true,
          "internalType": "uint256",
          "name": "index",
          "type": "uint256"
        },
        {
          "indexed": false,
          "internalType": "uint256",
          "name": "newStoppedValidatorCount",
          "type": "uint256"
        }
      ],
      "name": "SetOperatorStoppedValidatorCount",
      "type": "event"
    },
    {
      "anonymous": false,
      "inputs": [
        {
          "indexed": true,
          "internalType": "address",
          "name": "pendingAdmin",
          "type": "address"
        }
      ],
      "name": "SetPendingAdmin",
      "type": "event"
    },
    {
      "anonymous": false,
      "inputs": [
        {
          "indexed": true,
          "internalType": "address",
          "name": "river",
          "type": "address"
        }
      ],
      "name": "SetRiver",
      "type": "event"
    },
    {
      "anonymous": false,
      "inputs": [
        {
          "indexed": false,
          "internalType": "uint256",
          "name": "previousTotalValidatorExitsRequested",
          "type": "uint256"
        },
        {
          "indexed": false,
          "internalType": "uint256",
          "name": "newTotalValidatorExitsRequested",
          "type": "uint256"
        }
      ],
      "name": "SetTotalValidatorExitsRequested",
      "type": "event"
    },
    {
      "anonymous": false,
      "inputs": [
        {
          "indexed": true,
          "internalType": "uint256",
          "name": "index",
          "type": "uint256"
        },
        {
          "indexed": false,
          "internalType": "uint32",
          "name": "oldRequestedExits",
          "type": "uint32"
        },
        {
          "indexed": false,
          "internalType": "uint32",
          "name": "newRequestedExits",
          "type": "uint32"
        }
      ],
      "name": "UpdatedRequestedValidatorExitsUponStopped",
      "type": "event"
    },
    {
      "anonymous": false,
      "inputs": [
        {
          "indexed": false,
          "internalType": "uint32[]",
          "name": "stoppedValidatorCounts",
          "type": "uint32[]"
        }
      ],
      "name": "UpdatedStoppedValidators",
      "type": "event"
    },
    {
      "inputs": [],
      "name": "acceptAdmin",
      "outputs": [],
      "stateMutability": "nonpayable",
      "type": "function"
    },
    {
      "inputs": [
        {
          "internalType": "string",
          "name": "_name",
          "type": "string"
        },
        {
          "internalType": "address",
          "name": "_operator",
          "type": "address"
        }
      ],
      "name": "addOperator",
      "outputs": [
        {
          "internalType": "uint256",
          "name": "",
          "type": "uint256"
        }
      ],
      "stateMutability": "nonpayable",
      "type": "function"
    },
    {
      "inputs": [
        {
          "internalType": "uint256",
          "name": "_index",
          "type": "uint256"
        },
        {
          "internalType": "uint32",
          "name": "_keyCount",
          "type": "uint32"
        },
        {
          "internalType": "bytes",
          "name": "_publicKeysAndSignatures",
          "type": "bytes"
        }
      ],
      "name": "addValidators",
      "outputs": [],
      "stateMutability": "nonpayable",
      "type": "function"
    },
    {
      "inputs": [
        {
          "internalType": "uint256",
          "name": "_count",
          "type": "uint256"
        },
        {
          "internalType": "uint256",
          "name": "_depositedValidatorCount",
          "type": "uint256"
        }
      ],
      "name": "demandValidatorExits",
      "outputs": [],
      "stateMutability": "nonpayable",
      "type": "function"
    },
    {
      "inputs": [
        {
          "internalType": "uint256",
          "name": "_amountToEmit",
          "type": "uint256"
        }
      ],
      "name": "forceFundedValidatorKeysEventEmission",
      "outputs": [],
      "stateMutability": "nonpayable",
      "type": "function"
    },
    {
      "inputs": [],
      "name": "getAdmin",
      "outputs": [
        {
          "internalType": "address",
          "name": "",
          "type": "address"
        }
      ],
      "stateMutability": "view",
      "type": "function"
    },
    {
      "inputs": [],
      "name": "getCurrentValidatorExitsDemand",
      "outputs": [
        {
          "internalType": "uint256",
          "name": "",
          "type": "uint256"
        }
      ],
      "stateMutability": "view",
      "type": "function"
    },
    {
      "inputs": [
        {
          "internalType": "uint256",
          "name": "_index",
          "type": "uint256"
        }
      ],
      "name": "getOperator",
      "outputs": [
        {
          "components": [
            {
              "internalType": "uint32",
              "name": "limit",
              "type": "uint32"
            },
            {
              "internalType": "uint32",
              "name": "funded",
              "type": "uint32"
            },
            {
              "internalType": "uint32",
              "name": "requestedExits",
              "type": "uint32"
            },
            {
              "internalType": "uint32",
              "name": "keys",
              "type": "uint32"
            },
            {
              "internalType": "uint64",
              "name": "latestKeysEditBlockNumber",
              "type": "uint64"
            },
            {
              "internalType": "bool",
              "name": "active",
              "type": "bool"
            },
            {
              "internalType": "string",
              "name": "name",
              "type": "string"
            },
            {
              "internalType": "address",
              "name": "operator",
              "type": "address"
            }
          ],
          "internalType": "struct OperatorsV2.Operator",
          "name": "",
          "type": "tuple"
        }
      ],
      "stateMutability": "view",
      "type": "function"
    },
    {
      "inputs": [],
      "name": "getOperatorCount",
      "outputs": [
        {
          "internalType": "uint256",
          "name": "",
          "type": "uint256"
        }
      ],
      "stateMutability": "view",
      "type": "function"
    },
    {
      "inputs": [
        {
          "internalType": "uint256",
          "name": "_idx",
          "type": "uint256"
        }
      ],
      "name": "getOperatorStoppedValidatorCount",
      "outputs": [
        {
          "internalType": "uint32",
          "name": "",
          "type": "uint32"
        }
      ],
      "stateMutability": "view",
      "type": "function"
    },
    {
      "inputs": [],
      "name": "getPendingAdmin",
      "outputs": [
        {
          "internalType": "address",
          "name": "",
          "type": "address"
        }
      ],
      "stateMutability": "view",
      "type": "function"
    },
    {
      "inputs": [],
      "name": "getRiver",
      "outputs": [
        {
          "internalType": "address",
          "name": "",
          "type": "address"
        }
      ],
      "stateMutability": "view",
      "type": "function"
    },
    {
      "inputs": [],
      "name": "getStoppedAndRequestedExitCounts",
      "outputs": [
        {
          "internalType": "uint32",
          "name": "",
          "type": "uint32"
        },
        {
          "internalType": "uint256",
          "name": "",
          "type": "uint256"
        }
      ],
      "stateMutability": "view",
      "type": "function"
    },
    {
      "inputs": [],
      "name": "getStoppedValidatorCountPerOperator",
      "outputs": [
        {
          "internalType": "uint32[]",
          "name": "",
          "type": "uint32[]"
        }
      ],
      "stateMutability": "view",
      "type": "function"
    },
    {
      "inputs": [],
      "name": "getTotalStoppedValidatorCount",
      "outputs": [
        {
          "internalType": "uint32",
          "name": "",
          "type": "uint32"
        }
      ],
      "stateMutability": "view",
      "type": "function"
    },
    {
      "inputs": [],
      "name": "getTotalValidatorExitsRequested",
      "outputs": [
        {
          "internalType": "uint256",
          "name": "",
          "type": "uint256"
        }
      ],
      "stateMutability": "view",
      "type": "function"
    },
    {
      "inputs": [
        {
          "internalType": "uint256",
          "name": "_operatorIndex",
          "type": "uint256"
        },
        {
          "internalType": "uint256",
          "name": "_validatorIndex",
          "type": "uint256"
        }
      ],
      "name": "getValidator",
      "outputs": [
        {
          "internalType": "bytes",
          "name": "publicKey",
          "type": "bytes"
        },
        {
          "internalType": "bytes",
          "name": "signature",
          "type": "bytes"
        },
        {
          "internalType": "bool",
          "name": "funded",
          "type": "bool"
        }
      ],
      "stateMutability": "view",
      "type": "function"
    },
    {
      "inputs": [
        {
          "internalType": "address",
          "name": "_admin",
          "type": "address"
        },
        {
          "internalType": "address",
          "name": "_river",
          "type": "address"
        }
      ],
      "name": "initOperatorsRegistryV1",
      "outputs": [],
      "stateMutability": "nonpayable",
      "type": "function"
    },
    {
      "inputs": [],
      "name": "initOperatorsRegistryV1_1",
      "outputs": [],
      "stateMutability": "nonpayable",
      "type": "function"
    },
    {
      "inputs": [],
      "name": "listActiveOperators",
      "outputs": [
        {
          "components": [
            {
              "internalType": "uint32",
              "name": "limit",
              "type": "uint32"
            },
            {
              "internalType": "uint32",
              "name": "funded",
              "type": "uint32"
            },
            {
              "internalType": "uint32",
              "name": "requestedExits",
              "type": "uint32"
            },
            {
              "internalType": "uint32",
              "name": "keys",
              "type": "uint32"
            },
            {
              "internalType": "uint64",
              "name": "latestKeysEditBlockNumber",
              "type": "uint64"
            },
            {
              "internalType": "bool",
              "name": "active",
              "type": "bool"
            },
            {
              "internalType": "string",
              "name": "name",
              "type": "string"
            },
            {
              "internalType": "address",
              "name": "operator",
              "type": "address"
            }
          ],
          "internalType": "struct OperatorsV2.Operator[]",
          "name": "",
          "type": "tuple[]"
        }
      ],
      "stateMutability": "view",
      "type": "function"
    },
    {
      "inputs": [
        {
          "internalType": "uint256",
          "name": "_count",
          "type": "uint256"
        }
      ],
      "name": "pickNextValidatorsToDeposit",
      "outputs": [
        {
          "internalType": "bytes[]",
          "name": "publicKeys",
          "type": "bytes[]"
        },
        {
          "internalType": "bytes[]",
          "name": "signatures",
          "type": "bytes[]"
        }
      ],
      "stateMutability": "nonpayable",
      "type": "function"
    },
    {
      "inputs": [
        {
          "internalType": "address",
          "name": "_newAdmin",
          "type": "address"
        }
      ],
      "name": "proposeAdmin",
      "outputs": [],
      "stateMutability": "nonpayable",
      "type": "function"
    },
    {
      "inputs": [
        {
          "internalType": "uint256",
          "name": "_index",
          "type": "uint256"
        },
        {
          "internalType": "uint256[]",
          "name": "_indexes",
          "type": "uint256[]"
        }
      ],
      "name": "removeValidators",
      "outputs": [],
      "stateMutability": "nonpayable",
      "type": "function"
    },
    {
      "inputs": [
        {
          "internalType": "uint32[]",
          "name": "_stoppedValidatorCounts",
          "type": "uint32[]"
        },
        {
          "internalType": "uint256",
          "name": "_depositedValidatorCount",
          "type": "uint256"
        }
      ],
      "name": "reportStoppedValidatorCounts",
      "outputs": [],
      "stateMutability": "nonpayable",
      "type": "function"
    },
    {
      "inputs": [
        {
          "internalType": "uint256",
          "name": "_count",
          "type": "uint256"
        }
      ],
      "name": "requestValidatorExits",
      "outputs": [],
      "stateMutability": "nonpayable",
      "type": "function"
    },
    {
      "inputs": [
        {
          "internalType": "uint256",
          "name": "_index",
          "type": "uint256"
        },
        {
          "internalType": "address",
          "name": "_newOperatorAddress",
          "type": "address"
        }
      ],
      "name": "setOperatorAddress",
      "outputs": [],
      "stateMutability": "nonpayable",
      "type": "function"
    },
    {
      "inputs": [
        {
          "internalType": "uint256[]",
          "name": "_operatorIndexes",
          "type": "uint256[]"
        },
        {
          "internalType": "uint32[]",
          "name": "_newLimits",
          "type": "uint32[]"
        },
        {
          "internalType": "uint256",
          "name": "_snapshotBlock",
          "type": "uint256"
        }
      ],
      "name": "setOperatorLimits",
      "outputs": [],
      "stateMutability": "nonpayable",
      "type": "function"
    },
    {
      "inputs": [
        {
          "internalType": "uint256",
          "name": "_index",
          "type": "uint256"
        },
        {
          "internalType": "string",
          "name": "_newName",
          "type": "string"
        }
      ],
      "name": "setOperatorName",
      "outputs": [],
      "stateMutability": "nonpayable",
      "type": "function"
    },
    {
      "inputs": [
        {
          "internalType": "uint256",
          "name": "_index",
          "type": "uint256"
        },
        {
          "internalType": "bool",
          "name": "_newStatus",
          "type": "bool"
        }
      ],
      "name": "setOperatorStatus",
      "outputs": [],
      "stateMutability": "nonpayable",
      "type": "function"
    }
  ],
  "transactionHash": "0x802942aca13378110d6d29fcda5ccae1109fc04f393fa7b78c43eee1848ffd9a",
  "args": [],
  "numDeployments": 1,
  "solcInputHash": "7a7ee2ce31e910a20ebeaa44b02066a2",
  "bytecode": "0x60806040523480156200001157600080fd5b506200002a6000196200007060201b62001bf31760201c565b7f1809e49bba43f2d39fa57894b50cd6ccb428cc438230e065cac3eb24a1355a716000196000366040516200006293929190620000bd565b60405180910390a162000119565b620000b6620000a160017f82055909238c0f5e63d6f174068ebb8f51bcec9bd37de63bb68f6551feec0cfd620000f3565b60001b82620000b960201b62001c141760201c565b50565b9055565b83815260406020820152816040820152818360608301376000818301606090810191909152601f909201601f1916010192915050565b6000828210156200011457634e487b7160e01b600052601160045260246000fd5b500390565b6153a880620001296000396000f3fe608060405234801561001057600080fd5b506004361061015f5760003560e01c806305f63c8a146101645780630e18b6811461018d578063147bf6c4146101975780631864636c146101aa5780631a4a7c61146101bd578063217aad3c146101d3578063277c9d45146101db5780632d1fc39d146101fc578063354454c51461020f57806339251321146102225780634a3c63bb1461023557806350545d2f1461025957806354001d091461026c5780635876220f1461027f5780635a16f1351461029457806361685d9f146102a757806363b4118f146102c75780636e9960c3146102e957806370b23845146102fe578063718929ad146103115780638cb310031461032457806390de236f14610339578063a519f06014610341578063b0da59b214610349578063b405e17414610351578063b53b937b14610364578063d04681561461036c578063eb47adc614610374578063f87e529614610387575b600080fd5b6101776101723660046147cd565b61039a565b60405161018491906148cb565b60405180910390f35b6101956104cb565b005b6101956101a53660046148fa565b61052b565b6101956101b8366004614960565b610572565b6101c5610aa3565b604051908152602001610184565b610195610ab2565b6101ee6101e93660046147cd565b610b35565b604051610184929190614a00565b61019561020a366004614a2e565b610b85565b61019561021d366004614a50565b610c10565b610195610230366004614b04565b610f00565b61023d61109f565b6040805163ffffffff9093168352602083019190915201610184565b6101c5610267366004614b42565b6110cc565b61019561027a366004614b95565b6111f6565b610287611292565b6040516101849190614bc8565b6101956102a2366004614c06565b61133d565b6102ba6102b53660046147cd565b6113da565b6040516101849190614c3b565b6102da6102d5366004614a2e565b6113eb565b60405161018493929190614c4c565b6102f1611423565b6040516101849190614c84565b61019561030c366004614cac565b61142d565b61019561031f3660046147cd565b611761565b61032c6117b9565b6040516101849190614d05565b6101c56117c3565b6102f16117cd565b6101c56117d7565b61019561035f366004614d67565b6117e1565b6102ba61182c565b6102f1611836565b6101956103823660046147cd565b611840565b610195610395366004614db2565b611ab9565b6103a26145d7565b6103ab82611c18565b6040805161010081018252825463ffffffff8082168352600160201b820481166020840152600160401b8204811693830193909352600160601b81049092166060820152600160801b82046001600160401b03166080820152600160c01b90910460ff16151560a082015260018201805491929160c08401919061042e90614dd5565b80601f016020809104026020016040519081016040528092919081815260200182805461045a90614dd5565b80156104a75780601f1061047c576101008083540402835291602001916104a7565b820191906000526020600020905b81548152906001019060200180831161048a57829003601f168201915b5050509183525050600291909101546001600160a01b031660209091015292915050565b6104d3611c89565b6001600160a01b0316336001600160a01b03161461050f573360405163472511eb60e11b81526004016105069190614c84565b60405180910390fd5b61051f61051a611c89565b611c93565b6105296000611cdc565b565b610533611d1c565b6001600160a01b0316336001600160a01b031614610566573360405163472511eb60e11b81526004016105069190614c84565b61056f81611cdc565b50565b8261057b611423565b6001600160a01b0316336001600160a01b031614156107fe5781806105b3576040516379b348ff60e11b815260040160405180910390fd5b60006105be86611c18565b8054909150600160601b900463ffffffff168086866000816105e2576105e2614e0a565b9050602002013510610607576040516317df2d8d60e01b815260040160405180910390fd5b60008686610616600187614e36565b81811061062557610625614e0a565b85546020909102929092013592505063ffffffff600160201b909104168110156106625760405163213af80760e21b815260040160405180910390fd5b8254600160601b810463ffffffff908116911614610689896106848786614e4d565b611d26565b60005b858110156107aa5760008989838181106106a8576106a8614e0a565b9050602002013590506000821180156106e3575089896106c9600185614e36565b8181106106d8576106d8614e0a565b905060200201358110155b156107015760405163c9ee26af60e01b815260040160405180910390fd5b60019091019060006107198363ffffffff8816614e36565b905060006107278d84611d7b565b50905060006107368e84611ef1565b90506107438e8583611fbd565b61077b8e8460005b6040519080825280601f01601f191660200182016040528015610775576020820181803683370190505b50611fbd565b8d600080516020615333833981519152836040516107999190614e88565b60405180910390a25050505061068c565b81156107d0578454600160601b810463ffffffff1663ffffffff199091161785556107f3565b845463ffffffff168310156107f357845463ffffffff191663ffffffff84161785555b505050505050610a9d565b600061080982611c18565b8054909150600160c01b900460ff16610838576040516301550a7360e41b815260048101839052602401610506565b60028101546001600160a01b03163314610867573360405163472511eb60e11b81526004016105069190614c84565b8280610886576040516379b348ff60e11b815260040160405180910390fd5b600061089187611c18565b8054909150600160601b900463ffffffff168087876000816108b5576108b5614e0a565b90506020020135106108da576040516317df2d8d60e01b815260040160405180910390fd5b600087876108e9600187614e36565b8181106108f8576108f8614e0a565b85546020909102929092013592505063ffffffff600160201b909104168110156109355760405163213af80760e21b815260040160405180910390fd5b8254600160601b810463ffffffff9081169116146109578a6106848786614e4d565b60005b85811015610a4c5760008a8a8381811061097657610976614e0a565b9050602002013590506000821180156109b157508a8a610997600185614e36565b8181106109a6576109a6614e0a565b905060200201358110155b156109cf5760405163c9ee26af60e01b815260040160405180910390fd5b60019091019060006109e78363ffffffff8816614e36565b905060006109f58e84611d7b565b5090506000610a048f84611ef1565b9050610a118f8583611fbd565b610a1d8f84600061074b565b8e60008051602061533383398151915283604051610a3b9190614e88565b60405180910390a25050505061095a565b8115610a72578454600160601b810463ffffffff1663ffffffff19909116178555610a95565b845463ffffffff16831015610a9557845463ffffffff191663ffffffff84161785555b505050505050505b50505050565b6000610aad612002565b905090565b6001610abc612025565b8114610aed5780610acb612025565b604051631cfd276760e31b815260048101929092526024820152604401610506565b610b00610afb826001614e9b565b611bf3565b610b08612047565b6000805160206150f383398151915281600036604051610b2a93929190614edc565b60405180910390a150565b606080610b40612210565b6001600160a01b0316336001600160a01b031614610b73573360405163472511eb60e11b81526004016105069190614c84565b610b7c8361222e565b91509150915091565b610b8d612210565b6001600160a01b0316336001600160a01b031614610bc0573360405163472511eb60e11b81526004016105069190614c84565b6000610bca612605565b90506000610bd6612623565b9050610bf584610be68484614e9b565b610bf09086614e36565b612641565b93508315610a9d57610a9d82610c0b8682614e9b565b612659565b610c18611d1c565b6001600160a01b0316336001600160a01b031614610c4b573360405163472511eb60e11b81526004016105069190614c84565b838214610c6b5760405163a9854bc960e01b815260040160405180910390fd5b83610c8957604051637b329aa360e01b815260040160405180910390fd5b60005b84811015610ef8576000868683818110610ca857610ca8614e0a565b9050602002013590506000858584818110610cc557610cc5614e0a565b9050602002016020810190610cda9190614ef6565b9050600083118015610d0e57508787610cf4600186614e36565b818110610d0357610d03614e0a565b905060200201358211155b15610d2c576040516357e557ed60e11b815260040160405180910390fd5b6000610d3783611c18565b805490915063ffffffff908116908316811415610d9557837fe8b22569f1f7ba3802b89b579382ccac4e223f8062d6dd73f9cd757bd46ff8aa84604051610d7e9190614c3b565b60405180910390a284600101945050505050610c8c565b8154600160801b90046001600160401b031686108015610dc057508063ffffffff168363ffffffff16115b15610e255781546040518791600160801b90046001600160401b03169086907f5482b63bdf9e3775fdd3157e4933cfbc1d6fa1ec354ed3fc9a547e5438fd3e4e90610e0e9086908990614f11565b60405180910390a484600101945050505050610c8c565b815463ffffffff600160601b90910481169084161115610e6c578154604051630d7bdb4960e41b81526105069186918691600160601b900463ffffffff1690600401614f28565b815463ffffffff600160201b90910481169084161015610eb357815460405163044816df60e51b81526105069186918691600160201b900463ffffffff1690600401614f28565b815463ffffffff191663ffffffff841617825560405184907f3adbeb5fbb94c52b64d90b31188c68a740868dde2238e03a04d581cae22cedf090610d7e908690614c3b565b505050505050565b82610f09611423565b6001600160a01b0316336001600160a01b03161415610fab57610f6183838080601f0160208091040260200160405190810160405280939291908181526020018383808284376000920191909152506126a092505050565b6000610f6c85611c18565b9050610f7c60018201858561461a565b50846000805160206152338339815191528585604051610f9d929190614f44565b60405180910390a250610a9d565b6000610fb682611c18565b8054909150600160c01b900460ff16610fe5576040516301550a7360e41b815260048101839052602401610506565b60028101546001600160a01b03163314611014573360405163472511eb60e11b81526004016105069190614c84565b61105384848080601f0160208091040260200160405190810160405280939291908181526020018383808284376000920191909152506126a092505050565b600061105e86611c18565b905061106e60018201868661461a565b5085600080516020615233833981519152868660405161108f929190614f44565b60405180910390a2505050505050565b6000806110aa6126bf565b6110b2612605565b6110ba612623565b6110c49190614e9b565b915091509091565b60006110d6611d1c565b6001600160a01b0316336001600160a01b031614611109573360405163472511eb60e11b81526004016105069190614c84565b604080516101008101825260008082526020808301829052828401829052606083018290526001600160401b0343166080840152600160a08401528351601f8801829004820281018201909452868452909260c0830191889088908190840183828082843760009201829052509385525050506001600160a01b038616602090920191909152909150600161119d8361271a565b6111a79190614e36565b9050836001600160a01b0316817f28febbb5486eda5a1e47ad578f9cb32c8a1983c86c80ab823ea5dc1fc04ede5e88886040516111e5929190614f44565b60405180910390a395945050505050565b6000611200612025565b811461120f5780610acb612025565b61121d610afb826001614e9b565b61122683611c93565b61122f8261286b565b6040516001600160a01b038316907ffc0d749143b04e0d92a3b49edae84a45f6bc88b75e99d9118ec4d7e87fe626c590600090a26000805160206150f38339815191528160003660405161128593929190614edc565b60405180910390a1505050565b6060600061129e612890565b80548060200260200160405190810160405280929190818152602001828054801561131457602002820191906000526020600020906000905b82829054906101000a900463ffffffff1663ffffffff16815260200190600401906020826003010492830192600103820291508084116112d75790505b505083519394505082159150611337905057600082526020820191506001810382525b50919050565b611345611d1c565b6001600160a01b0316336001600160a01b031614611378573360405163472511eb60e11b81526004016105069190614c84565b600061138383611c18565b805460ff60c01b1916600160c01b84151590810291909117825560405190815290915083907fe3bc5e5d3b000a1f65d146c40a38d89b1743b5729f4c6fe65f2e4b2dc620f2f29060200160405180910390a2505050565b60006113e5826128ac565b92915050565b60608060006113fa8585611d7b565b909350915061140885611c18565b54929591945050600160201b90910463ffffffff1690911090565b6000610aad611d1c565b83611436611423565b6001600160a01b0316336001600160a01b031614156115b25763ffffffff8416611473576040516379b348ff60e11b815260040160405180910390fd5b61147f60606030614e9b565b61148f9063ffffffff8616614f60565b82146114ae57604051630368f86360e41b815260040160405180910390fd5b60006114b986611c18565b905060005b8563ffffffff1681101561156357600061153186868080601f01602080910402602001604051908101604052809392919081815260200183838082843760009201919091525061151692506060915060309050614e9b565b6115209085614f60565b61152c60606030614e9b565b6128bf565b835490915061155a908990611554908590600160601b900463ffffffff16614e9b565b83611fbd565b506001016114be565b508054611584908790610684908890600160601b900463ffffffff16614f7f565b8560008051602061511383398151915285856040516115a4929190614f44565b60405180910390a25061175a565b60006115bd82611c18565b8054909150600160c01b900460ff166115ec576040516301550a7360e41b815260048101839052602401610506565b60028101546001600160a01b0316331461161b573360405163472511eb60e11b81526004016105069190614c84565b63ffffffff851661163f576040516379b348ff60e11b815260040160405180910390fd5b61164b60606030614e9b565b61165b9063ffffffff8716614f60565b831461167a57604051630368f86360e41b815260040160405180910390fd5b600061168587611c18565b905060005b8663ffffffff1681101561170e5760006116e287878080601f01602080910402602001604051908101604052809392919081815260200183838082843760009201919091525061151692506060915060309050614e9b565b8354909150611705908a90611554908590600160601b900463ffffffff16614e9b565b5060010161168a565b50805461172f908890610684908990600160601b900463ffffffff16614f7f565b86600080516020615113833981519152868660405161174f929190614f44565b60405180910390a250505b5050505050565b600061176b612605565b905060006117798284612641565b9050806117995760405163ed94f97f60e01b815260040160405180910390fd5b816117a382612982565b6117ad9084614e36565b9250610a9d8184612659565b6060610aad612cc7565b6000610aad612623565b6000610aad612210565b6000610aad612605565b6117e9612210565b6001600160a01b0316336001600160a01b03161461181c573360405163472511eb60e11b81526004016105069190614c84565b611827838383612f52565b505050565b6000610aad6126bf565b6000610aad611c89565b600061184a613992565b905060001981141561186f57604051630871a03f60e01b815260040160405180910390fd5b611877612002565b61188a576118866000196139b0565b5050565b60006118946139cc565b90505b6000831180156118a957506000198214155b15611aa75760006118b983611c18565b6040805161010081018252825463ffffffff8082168352600160201b820481166020840152600160401b8204811693830193909352600160601b81049092166060820152600160801b82046001600160401b03166080820152600160c01b90910460ff16151560a082015260018201805491929160c08401919061193c90614dd5565b80601f016020809104026020016040519081016040528092919081815260200182805461196890614dd5565b80156119b55780601f1061198a576101008083540402835291602001916119b5565b820191906000526020600020905b81548152906001019060200180831161199857829003601f168201915b5050509183525050600291909101546001600160a01b0316602091820152810151909150600090611a0090859085906119fb908990610bf090849063ffffffff16614e36565b6139ea565b50905083600080516020615253833981519152826001604051611a24929190614fa7565b60405180910390a2816020015163ffffffff16815184611a449190614e9b565b1415611a8357600092506001611a58612002565b611a629190614e36565b841415611a73576000199350611a92565b611a7c84614fcb565b9350611a92565b8051611a8f9084614e9b565b92505b8051611a9e9086614e36565b94505050611897565b611ab0826139b0565b61182781613bcc565b81611ac2611423565b6001600160a01b0316336001600160a01b03161415611b3257611ae482613be8565b6000611aef84611c18565b6002810180546001600160a01b0319166001600160a01b0386169081179091556040519192509085906000805160206152b383398151915290600090a350505050565b6000611b3d82611c18565b8054909150600160c01b900460ff16611b6c576040516301550a7360e41b815260048101839052602401610506565b60028101546001600160a01b03163314611b9b573360405163472511eb60e11b81526004016105069190614c84565b611ba483613be8565b6000611baf85611c18565b6002810180546001600160a01b0319166001600160a01b0387169081179091556040519192509086906000805160206152b383398151915290600090a35050505050565b61056f611c0f60016000805160206152d3833981519152614e36565b829055565b9055565b600080611c346001600080516020615133833981519152614e36565b805490915081908410611c5d576040516302d72d2160e01b815260048101859052602401610506565b806000018481548110611c7257611c72614e0a565b906000526020600020906003020192505050919050565b6000610aad613c0f565b611c9c81613be8565b611ca581613c2d565b6040516001600160a01b038216907f5a272403b402d892977df56625f4164ccaf70ca3863991c43ecfe76a6905b0a190600090a250565b611ce581613c36565b6040516001600160a01b038216907f2a0f8515de3fa34ef68b99300347b8793c01683350743e96fe440594528298f490600090a250565b6000610aad613c3f565b6000611d3183611c18565b8054600160601b600160c01b031916600160601b63ffffffff9490941693909302600160801b600160c01b03191692909217600160801b436001600160401b031602179091555050565b6060806000611d9960016000805160206151b3833981519152614e36565b600086815260208281526040808320888452909152902080549192508291611e4d908290611dc690614dd5565b80601f0160208091040260200160405190810160405280929190818152602001828054611df290614dd5565b8015611e3f5780601f10611e1457610100808354040283529160200191611e3f565b820191906000526020600020905b815481529060010190602001808311611e2257829003601f168201915b5050505050600060306128bf565b9450611ee5818054611e5e90614dd5565b80601f0160208091040260200160405190810160405280929190818152602001828054611e8a90614dd5565b8015611ed75780601f10611eac57610100808354040283529160200191611ed7565b820191906000526020600020905b815481529060010190602001808311611eba57829003601f168201915b5050505050603060606128bf565b93505050509250929050565b60606000611f0e60016000805160206151b3833981519152614e36565b600085815260208281526040808320878452909152902080549192508291611f3590614dd5565b80601f0160208091040260200160405190810160405280929190818152602001828054611f6190614dd5565b8015611fae5780601f10611f8357610100808354040283529160200191611fae565b820191906000526020600020905b815481529060010190602001808311611f9157829003601f168201915b50505050509250505092915050565b6000611fd860016000805160206151b3833981519152614e36565b600085815260208281526040808320878452825290912084519293508392610ef89286019061469e565b60008061201e6001600080516020615133833981519152614e36565b5492915050565b6000610aad61204360016000805160206152d3833981519152614e36565b5490565b6000612051613c5d565b905060005b8181101561188657600061206982613c79565b604080516101008101909152815460ff161515815260018201805491929160208401919061209690614dd5565b80601f01602080910402602001604051908101604052809291908181526020018280546120c290614dd5565b801561210f5780601f106120e45761010080835404028352916020019161210f565b820191906000526020600020905b8154815290600101906020018083116120f257829003601f168201915b505050505081526020016002820160009054906101000a90046001600160a01b03166001600160a01b03166001600160a01b03168152602001600382015481526020016004820154815260200160058201548152602001600682015481526020016007820154815250509050612206604051806101000160405280836060015163ffffffff168152602001836080015163ffffffff168152602001600063ffffffff1681526020018360a0015163ffffffff1681526020018360e001516001600160401b031681526020018360000151151581526020018360200151815260200183604001516001600160a01b031681525061271a565b5050600101612056565b6000610aad61204360016000805160206151d3833981519152614e36565b60608060008061223c613cea565b9150915080600014156122ac576040805160008082526020820190925290612274565b606081526020019060019003908161225f5790505b5060408051600080825260208201909252906122a0565b606081526020019060019003908161228b5790505b50935093505050915091565b841561244f5760005b818110156122f1576122df8382815181106122d2576122d2614e0a565b6020026020010151613fed565b156122e9576122f1565b6001016122b5565b818114156122ff575061244f565b600061230c826001614e9b565b90505b8281101561237c5761233984838151811061232c5761232c614e0a565b6020026020010151614019565b61234e85838151811061232c5761232c614e0a565b10801561236b575061236b8482815181106122d2576122d2614e0a565b15612374578091505b60010161230f565b50600061240661240085848151811061239757612397614e0a565b6020026020010151608001518685815181106123b5576123b5614e0a565b6020026020010151602001516123cb9190614f7f565b8685815181106123dd576123dd614e0a565b6020026020010151600001516123f39190614e4d565b63ffffffff166005612641565b88612641565b90508084838151811061241b5761241b614e0a565b60200260200101516080018181516124339190614f7f565b63ffffffff169052506124468188614e36565b965050506122ac565b60005b818110156125fd57600083828151811061246e5761246e614e0a565b60200260200101516080015163ffffffff1611156125ed576000806124fd85848151811061249e5761249e614e0a565b60200260200101516060015163ffffffff168685815181106124c2576124c2614e0a565b60200260200101516020015163ffffffff168786815181106124e6576124e6614e0a565b60200260200101516080015163ffffffff166139ea565b9150915084838151811061251357612513614e0a565b60200260200101516060015163ffffffff16600080516020615253833981519152836000604051612545929190614fa7565b60405180910390a26125578783614058565b96506125638682614058565b955084838151811061257757612577614e0a565b6020026020010151608001516125af86858151811061259857612598614e0a565b60200260200101516060015163ffffffff16611c18565b80546004906125cc908490600160201b900463ffffffff16614f7f565b92506101000a81548163ffffffff021916908363ffffffff16021790555050505b6125f681614fcb565b9050612452565b505050915091565b6000610aad6120436001600080516020615173833981519152614e36565b6000610aad61204360016000805160206152f3833981519152614e36565b60008183116126505782612652565b815b9392505050565b61266281614162565b60408051838152602081018390527f209bf6aaa2d8c150b27b3c081f8c86a46f008cc41d11f2ffaeb0a08d9b933e0691015b60405180910390a15050565b805161056f57604051638d46fe0560e01b815260040160405180910390fd5b6000806126ca612890565b80549091506126db57600091505090565b806000815481106126ee576126ee614e0a565b90600052602060002090600891828204019190066004029054906101000a900463ffffffff1691505090565b60006127298260e00151613be8565b6127368260c001516126a0565b60006127516001600080516020615133833981519152614e36565b8054600181810183556000838152602090819020875160039094020180548289015160408a015160608b015160808c015160a08d01511515600160c01b0260ff60c01b196001600160401b03909216600160801b0291909116600160801b600160c81b031963ffffffff938416600160601b0263ffffffff60601b19958516600160401b0295909516600160401b600160801b0319968516600160201b026001600160401b031990981694909b169390931795909517939093169790971717959095161793909317835560c0870151805194955085948894936128399390850192019061469e565b5060e09190910151600290910180546001600160a01b0319166001600160a01b03909216919091179055549392505050565b61287481613be8565b61056f611c0f60016000805160206151d3833981519152614e36565b6000806113e56001600080516020615293833981519152614e36565b60006113e56128b9612890565b8361417e565b60608182601f0110156128e5576040516323d5783d60e11b815260040160405180910390fd5b6128ef8284614e9b565b8451101561291057604051633b99b53d60e01b815260040160405180910390fd5b60608215801561292f5760405191506000825260208201604052612979565b6040519150601f8416801560200281840101858101878315602002848b0101015b81831015612968578051835260209283019201612950565b5050858452601f01601f1916604052505b50949350505050565b600080600061298f6141e5565b9150915080600014156129a6575060009392505050565b8360006129b1612623565b9050805b8615612b89576000806000805b87811015612a565760006129ee8a83815181106129e1576129e1614e0a565b602002602001015161447c565b90508463ffffffff168163ffffffff161415612a1457612a0d83614fe6565b9250612a4d565b8463ffffffff168163ffffffff161115612a35579392506001915083612a4d565b8363ffffffff168163ffffffff161115612a4d578093505b506001016129c2565b5063ffffffff8316612a6a57505050612b89565b6000612a9082612a7a8587614e4d565b612a84919061500a565b63ffffffff168c612641565b90506000612a9e838361504c565b63ffffffff1690506000612ab2848461506f565b905060005b8a811015612b59578663ffffffff16612adb8d83815181106129e1576129e1614e0a565b63ffffffff161415612b51576000808411612af7576000612afa565b60015b612b079060ff1684614f7f565b9050808d8381518110612b1c57612b1c614e0a565b6020026020010151606001818151612b349190614f7f565b63ffffffff169052508315612b4f57612b4c84615092565b93505b505b600101612ab7565b50612b6a63ffffffff841689614e9b565b9750612b7c63ffffffff84168e614e36565b9c505050505050506129b5565b60005b84811015612ca0576000868281518110612ba857612ba8614e0a565b60200260200101516060015163ffffffff161115612c98576000868281518110612bd457612bd4614e0a565b60200260200101516040015163ffffffff1690506000878381518110612bfc57612bfc614e0a565b602002602001015160600151888481518110612c1a57612c1a614e0a565b602002602001015160200151612c309190614f7f565b905080612c3c83611c18565b60000160086101000a81548163ffffffff021916908363ffffffff160217905550817f0377278faa3eeab09525915d783771e1b00fec4797719afc368b56f68562792582604051612c8d9190614c3b565b60405180910390a250505b600101612b8c565b50808214612cb257612cb2818361449e565b612cbc8784614e36565b979650505050505050565b60606000612ce46001600080516020615133833981519152614e36565b80549091508190600090815b81811015612d3c57836000018181548110612d0d57612d0d614e0a565b6000918252602090912060039091020154600160c01b900460ff1615612d34578260010192505b600101612cf0565b506000826001600160401b03811115612d5757612d57614e72565b604051908082528060200260200182016040528015612d9057816020015b612d7d6145d7565b815260200190600190039081612d755790505b5090506000805b83811015612f4657856000018181548110612db457612db4614e0a565b6000918252602090912060039091020154600160c01b900460ff1615612f3e57856000018181548110612de957612de9614e0a565b600091825260209182902060408051610100810182526003909302909101805463ffffffff8082168552600160201b8204811695850195909552600160401b8104851692840192909252600160601b820490931660608301526001600160401b03600160801b820416608083015260ff600160c01b90910416151560a082015260018201805491929160c084019190612e8190614dd5565b80601f0160208091040260200160405190810160405280929190818152602001828054612ead90614dd5565b8015612efa5780601f10612ecf57610100808354040283529160200191612efa565b820191906000526020600020905b815481529060010190602001808311612edd57829003601f168201915b5050509183525050600291909101546001600160a01b03166020909101528351849084908110612f2c57612f2c614e0a565b60200260200101819052508160010191505b600101612d97565b50909695505050505050565b612fad604051806101200160405280600081526020016060815260200160008152602001600063ffffffff168152602001600063ffffffff168152602001600081526020016000815260200160008152602001600081525090565b82815282612fce576040516397791ee160e01b815260040160405180910390fd5b6000612fd86144dd565b8054835191925090612fec90600190614e36565b111561300b57604051634eb7083160e01b815260040160405180910390fd5b613013612890565b80548060200260200160405190810160405280929190818152602001828054801561308957602002820191906000526020600020906000905b82829054906101000a900463ffffffff1663ffffffff168152602001906004019060208260030104928301926001038202915080841161304c5790505b5050505060208401829052505160408301819052825110156130be57604051634dbe00c960e01b815260040160405180910390fd5b848460008181106130d1576130d1614e0a565b90506020020160208101906130e69190614ef6565b63ffffffff16606083015260006080830152613100612605565b60a0830181905260c0830152613114612623565b60e08301819052610100830152600160005b8360400151821015613527578360200151828151811061314857613148614e0a565b602002602001015163ffffffff1687878481811061316857613168614e0a565b905060200201602081019061317d9190614ef6565b63ffffffff1610156131a2576040516333bbc48560e21b815260040160405180910390fd5b826131ae600184614e36565b815481106131be576131be614e0a565b6000918252602090912060039091020154600160201b900463ffffffff168787848181106131ee576131ee614e0a565b90506020020160208101906132039190614ef6565b63ffffffff1611156132975761321a600183614e36565b87878481811061322c5761322c614e0a565b90506020020160208101906132419190614ef6565b8461324d600186614e36565b8154811061325d5761325d614e0a565b600091825260209091206003909102015460405163febc7af160e01b8152610506939291600160201b900463ffffffff1690600401614f28565b826132a3600184614e36565b815481106132b3576132b3614e0a565b6000918252602090912060039091020154600160401b900463ffffffff168787848181106132e3576132e3614e0a565b90506020020160208101906132f89190614ef6565b63ffffffff1611156134855761330f600183614e36565b6000805160206152138339815191528461332a600186614e36565b8154811061333a5761333a614e0a565b6000918252602090912060039091020154600160401b900463ffffffff1689898681811061336a5761336a614e0a565b905060200201602081019061337f9190614ef6565b60405161338d929190614f11565b60405180910390a2826133a1600184614e36565b815481106133b1576133b1614e0a565b6000918252602090912060039091020154600160401b900463ffffffff168787848181106133e1576133e1614e0a565b90506020020160208101906133f69190614ef6565b6134009190614e4d565b6134109063ffffffff1682614e9b565b905086868381811061342457613424614e0a565b90506020020160208101906134399190614ef6565b83613445600185614e36565b8154811061345557613455614e0a565b906000526020600020906003020160000160086101000a81548163ffffffff021916908363ffffffff1602179055505b613490600183614e36565b6000805160206151538339815191528888858181106134b1576134b1614e0a565b90506020020160208101906134c69190614ef6565b6040516134d39190614c3b565b60405180910390a28686838181106134ed576134ed614e0a565b90506020020160208101906135029190614ef6565b846080018181516135139190614f7f565b63ffffffff16905250600190910190613126565b8351821015613838578261353c600184614e36565b8154811061354c5761354c614e0a565b6000918252602090912060039091020154600160201b900463ffffffff1687878481811061357c5761357c614e0a565b90506020020160208101906135919190614ef6565b63ffffffff1611156135a85761321a600183614e36565b826135b4600184614e36565b815481106135c4576135c4614e0a565b6000918252602090912060039091020154600160401b900463ffffffff168787848181106135f4576135f4614e0a565b90506020020160208101906136099190614ef6565b63ffffffff16111561379657613620600183614e36565b6000805160206152138339815191528461363b600186614e36565b8154811061364b5761364b614e0a565b6000918252602090912060039091020154600160401b900463ffffffff1689898681811061367b5761367b614e0a565b90506020020160208101906136909190614ef6565b60405161369e929190614f11565b60405180910390a2826136b2600184614e36565b815481106136c2576136c2614e0a565b6000918252602090912060039091020154600160401b900463ffffffff168787848181106136f2576136f2614e0a565b90506020020160208101906137079190614ef6565b6137119190614e4d565b6137219063ffffffff1682614e9b565b905086868381811061373557613735614e0a565b905060200201602081019061374a9190614ef6565b83613756600185614e36565b8154811061376657613766614e0a565b906000526020600020906003020160000160086101000a81548163ffffffff021916908363ffffffff1602179055505b6137a1600183614e36565b6000805160206151538339815191528888858181106137c2576137c2614e0a565b90506020020160208101906137d79190614ef6565b6040516137e49190614c3b565b60405180910390a28686838181106137fe576137fe614e0a565b90506020020160208101906138139190614ef6565b846080018181516138249190614f7f565b63ffffffff16905250600190910190613527565b808460e00181815161384a9190614e9b565b90525060a084015161385d908290612641565b8460a00181815161386e9190614e36565b90525061010084015160e085015114613894576138948461010001518560e0015161449e565b8360c001518460a00151146138b5576138b58460c001518560a00151612659565b836080015163ffffffff16846060015163ffffffff16146138e957604051636be992a360e11b815260040160405180910390fd5b84846060015163ffffffff16111561391457604051634eb7083160e01b815260040160405180910390fd5b6139508787808060200260200160405190810160405280939291908181526020018383602002808284376000920191909152506144f992505050565b7fb795d99e37bbcdcebb613387f4e924b750cbae0af45b48ba52bfe1137c10e99287876040516139819291906150a9565b60405180910390a150505050505050565b6000610aad6120436001600080516020615313833981519152614e36565b61056f611c0f6001600080516020615313833981519152614e36565b6000610aad61204360016000805160206151f3833981519152614e36565b606080826001600160401b03811115613a0557613a05614e72565b604051908082528060200260200182016040528015613a3857816020015b6060815260200190600190039081613a235790505b509150826001600160401b03811115613a5357613a53614e72565b604051908082528060200260200182016040528015613a8657816020015b6060815260200190600190039081613a715790505b5090506000613aa460016000805160206151b3833981519152614e36565b90508060005b85811015613bc157600088815260208390526040812081613acb8a85614e9b565b81526020019081526020016000208054613ae490614dd5565b80601f0160208091040260200160405190810160405280929190818152602001828054613b1090614dd5565b8015613b5d5780601f10613b3257610100808354040283529160200191613b5d565b820191906000526020600020905b815481529060010190602001808311613b4057829003601f168201915b50505050509050613b7181600060306128bf565b868381518110613b8357613b83614e0a565b6020026020010181905250613b9b81603060606128bf565b858381518110613bad57613bad614e0a565b602090810291909101015250600101613aaa565b505050935093915050565b61056f611c0f60016000805160206151f3833981519152614e36565b6001600160a01b03811661056f5760405163f6b2911f60e01b815260040160405180910390fd5b6000610aad6120436001600080516020615353833981519152614e36565b61056f8161452b565b61056f81614550565b6000610aad6120436001600080516020615193833981519152614e36565b60008061201e6001600080516020615273833981519152614e36565b600080613c956001600080516020615273833981519152614e36565b805490915081908410613cbe576040516302d72d2160e01b815260048101859052602401610506565b806000018481548110613cd357613cd3614e0a565b906000526020600020906008020192505050919050565b6060600080613d086001600080516020615133833981519152614e36565b8054909150819060009081816001600160401b03811115613d2b57613d2b614e72565b604051908082528060200260200182016040528015613d8457816020015b6040805160a081018252600080825260208083018290529282018190526060820181905260808201528252600019909201910181613d495790505b5090506000613d91612890565b905060005b83811015613fde57613eea866000018281548110613db657613db6614e0a565b600091825260209182902060408051610100810182526003909302909101805463ffffffff8082168552600160201b8204811695850195909552600160401b8104851692840192909252600160601b820490931660608301526001600160401b03600160801b820416608083015260ff600160c01b90910416151560a082015260018201805491929160c084019190613e4e90614dd5565b80601f0160208091040260200160405190810160405280929190818152602001828054613e7a90614dd5565b8015613ec75780601f10613e9c57610100808354040283529160200191613ec7565b820191906000526020600020905b815481529060010190602001808311613eaa57829003601f168201915b5050509183525050600291909101546001600160a01b031660209091015261456c565b8015613f375750856000018181548110613f0657613f06614e0a565b6000918252602090912060039091020154600160401b900463ffffffff16613f2e838361417e565b63ffffffff1610155b15613fd6576000866000018281548110613f5357613f53614e0a565b600091825260208083206040805160a0810182526003909402909101805463ffffffff8082168652600160201b8204811694860194909452600160401b900483169184019190915290851660608301526080820192909252855191925090859088908110613fc357613fc3614e0a565b6020026020010181905250856001019550505b600101613d96565b50909792965091945050505050565b80516080820151602083015160009263ffffffff169161400c91614f7f565b63ffffffff161092915050565b600061402e826060015163ffffffff166128ac565b826080015183602001516140429190614f7f565b61404c9190614e4d565b63ffffffff1692915050565b606060008251845161406a9190614e9b565b6001600160401b0381111561408157614081614e72565b6040519080825280602002602001820160405280156140b457816020015b606081526020019060019003908161409f5790505b50905060005b8451811015614102578481815181106140d5576140d5614e0a565b60200260200101518282815181106140ef576140ef614e0a565b60209081029190910101526001016140ba565b5060005b835181101561415a5783818151811061412157614121614e0a565b6020026020010151828651836141379190614e9b565b8151811061414757614147614e0a565b6020908102919091010152600101614106565b509392505050565b61056f611c0f6001600080516020615173833981519152614e36565b815460009061418e836001614e9b565b1061419b575060006113e5565b826141a7836001614e9b565b815481106141b7576141b7614e0a565b90600052602060002090600891828204019190066004029054906101000a900463ffffffff16905092915050565b60606000806142036001600080516020615133833981519152614e36565b8054909150819060009081816001600160401b0381111561422657614226614e72565b60405190808252806020026020018201604052801561427857816020015b6040805160808101825260008082526020808301829052928201819052606082015282526000199092019101816142445790505b50905060005b8281101561446f576143d285600001828154811061429e5761429e614e0a565b600091825260209182902060408051610100810182526003909302909101805463ffffffff8082168552600160201b8204811695850195909552600160401b8104851692840192909252600160601b820490931660608301526001600160401b03600160801b820416608083015260ff600160c01b90910416151560a082015260018201805491929160c08401919061433690614dd5565b80601f016020809104026020016040519081016040528092919081815260200182805461436290614dd5565b80156143af5780601f10614384576101008083540402835291602001916143af565b820191906000526020600020905b81548152906001019060200180831161439257829003601f168201915b5050509183525050600291909101546001600160a01b0316602090910152614590565b156144675760008560000182815481106143ee576143ee614e0a565b60009182526020808320604080516080810182526003909402909101805463ffffffff600160201b820481168652600160401b90910481169385019390935291861690830152606082019290925284519192509084908790811061445457614454614e0a565b6020026020010181905250846001019450505b60010161427e565b5096919550909350505050565b6000816060015182602001516144929190614f7f565b82516113e59190614e4d565b6144a7816145bb565b60408051838152602081018390527f0aa79fd8feb16e52ff075abb8f8bec67362d3b06b2ed230008e7810515286bf09101612694565b6000806113e56001600080516020615133833981519152614e36565b60006145146001600080516020615293833981519152614e36565b82519091508190610a9d9082906020860190614712565b61453481613be8565b61056f611c0f6001600080516020615193833981519152614e36565b61056f611c0f6001600080516020615353833981519152614e36565b60008160a0015180156113e55750506020810151905163ffffffff91821691161190565b60008160a0015180156113e55750816040015163ffffffff16826020015163ffffffff161192915050565b61056f611c0f60016000805160206152f3833981519152614e36565b604080516101008101825260008082526020820181905291810182905260608082018390526080820183905260a0820183905260c082015260e081019190915290565b82805461462690614dd5565b90600052602060002090601f016020900481019282614648576000855561468e565b82601f106146615782800160ff1982351617855561468e565b8280016001018555821561468e579182015b8281111561468e578235825591602001919060010190614673565b5061469a9291506147b8565b5090565b8280546146aa90614dd5565b90600052602060002090601f0160209004810192826146cc576000855561468e565b82601f106146e557805160ff191683800117855561468e565b8280016001018555821561468e579182015b8281111561468e5782518255916020019190600101906146f7565b8280548282559060005260206000209060070160089004810192821561468e5791602002820160005b8382111561477f57835183826101000a81548163ffffffff021916908363ffffffff160217905550926020019260040160208160030104928301926001030261473b565b80156147af5782816101000a81549063ffffffff021916905560040160208160030104928301926001030261477f565b505061469a9291505b5b8082111561469a57600081556001016147b9565b6000602082840312156147df57600080fd5b5035919050565b6000815180845260005b8181101561480c576020818501810151868301820152016147f0565b8181111561481e576000602083870101525b50601f01601f19169290920160200192915050565b600061010063ffffffff80845116855280602085015116602086015280604085015116604086015280606085015116606086015250608083015161488260808601826001600160401b03169052565b5060a083015161489660a086018215159052565b5060c08301518160c08601526148ae828601826147e6565b91505060e083015161415a60e08601826001600160a01b03169052565b6020815260006126526020830184614833565b80356001600160a01b03811681146148f557600080fd5b919050565b60006020828403121561490c57600080fd5b612652826148de565b60008083601f84011261492757600080fd5b5081356001600160401b0381111561493e57600080fd5b6020830191508360208260051b850101111561495957600080fd5b9250929050565b60008060006040848603121561497557600080fd5b8335925060208401356001600160401b0381111561499257600080fd5b61499e86828701614915565b9497909650939450505050565b600081518084526020808501808196508360051b8101915082860160005b858110156149f35782840389526149e18483516147e6565b988501989350908401906001016149c9565b5091979650505050505050565b604081526000614a1360408301856149ab565b8281036020840152614a2581856149ab565b95945050505050565b60008060408385031215614a4157600080fd5b50508035926020909101359150565b600080600080600060608688031215614a6857600080fd5b85356001600160401b0380821115614a7f57600080fd5b614a8b89838a01614915565b90975095506020880135915080821115614aa457600080fd5b50614ab188828901614915565b96999598509660400135949350505050565b60008083601f840112614ad557600080fd5b5081356001600160401b03811115614aec57600080fd5b60208301915083602082850101111561495957600080fd5b600080600060408486031215614b1957600080fd5b8335925060208401356001600160401b03811115614b3657600080fd5b61499e86828701614ac3565b600080600060408486031215614b5757600080fd5b83356001600160401b03811115614b6d57600080fd5b614b7986828701614ac3565b9094509250614b8c9050602085016148de565b90509250925092565b60008060408385031215614ba857600080fd5b614bb1836148de565b9150614bbf602084016148de565b90509250929050565b6020808252825182820181905260009190848201906040850190845b81811015612f4657835163ffffffff1683529284019291840191600101614be4565b60008060408385031215614c1957600080fd5b8235915060208301358015158114614c3057600080fd5b809150509250929050565b63ffffffff91909116815260200190565b606081526000614c5f60608301866147e6565b8281036020840152614c7181866147e6565b9150508215156040830152949350505050565b6001600160a01b0391909116815260200190565b803563ffffffff811681146148f557600080fd5b60008060008060608587031215614cc257600080fd5b84359350614cd260208601614c98565b925060408501356001600160401b03811115614ced57600080fd5b614cf987828801614ac3565b95989497509550505050565b6000602080830181845280855180835260408601915060408160051b870101925083870160005b82811015614d5a57603f19888603018452614d48858351614833565b94509285019290850190600101614d2c565b5092979650505050505050565b600080600060408486031215614d7c57600080fd5b83356001600160401b03811115614d9257600080fd5b614d9e86828701614915565b909790965060209590950135949350505050565b60008060408385031215614dc557600080fd5b82359150614bbf602084016148de565b600181811c90821680614de957607f821691505b6020821081141561133757634e487b7160e01b600052602260045260246000fd5b634e487b7160e01b600052603260045260246000fd5b634e487b7160e01b600052601160045260246000fd5b600082821015614e4857614e48614e20565b500390565b600063ffffffff83811690831681811015614e6a57614e6a614e20565b039392505050565b634e487b7160e01b600052604160045260246000fd5b60208152600061265260208301846147e6565b60008219821115614eae57614eae614e20565b500190565b81835281816020850137506000828201602090810191909152601f909101601f19169091010190565b838152604060208201526000614a25604083018486614eb3565b600060208284031215614f0857600080fd5b61265282614c98565b63ffffffff92831681529116602082015260400190565b92835263ffffffff918216602084015216604082015260600190565b602081526000614f58602083018486614eb3565b949350505050565b6000816000190483118215151615614f7a57614f7a614e20565b500290565b600063ffffffff808316818516808303821115614f9e57614f9e614e20565b01949350505050565b604081526000614fba60408301856149ab565b905082151560208301529392505050565b6000600019821415614fdf57614fdf614e20565b5060010190565b600063ffffffff8083168181141561500057615000614e20565b6001019392505050565b600063ffffffff8083168185168183048111821515161561502d5761502d614e20565b02949350505050565b634e487b7160e01b600052601260045260246000fd5b600063ffffffff8084168061506357615063615036565b92169190910692915050565b600063ffffffff8084168061508657615086615036565b92169190910492915050565b6000816150a1576150a1614e20565b506000190190565b60208082528181018390526000908460408401835b868110156150e75763ffffffff6150d484614c98565b16825291830191908301906001016150be565b50969550505050505056fe1809e49bba43f2d39fa57894b50cd6ccb428cc438230e065cac3eb24a1355a71402e5ac3e483073137c527378b15e69f7f4a1c75c1adc0aa36f0c456876c05a0d952c686c15834d48f07b553712c51f877261827559f149880caa855efa22f7d773694db4f98cd263e42d4f798bcf603781d4491e48e8cbe96c219c1f13b777d454a273f43f7a440caab7e87ede33c979fd5ce1089b8f9673df5cd96eee6fa61b5b37715a3e346e996104f0086703f19825def429233930fd9399c38e05fb1136018b2d18c7378174a403e179ce41a2df430338a150b2bcec4b7a082912855741ec4138404500a2a0be2c2f9b103581c2a7fa783a934f91a6cc5cc924404973cbd3f712f2cd882f839e84eb12fdaf64f8227409d140027dbdcd5e2ee4d57fa20281aaa50816d3a5bf2911e3c0854a3f2ebe4880698575d799ff5becfd74d77789ad13f126d3d603b0b284edba7645ca0e423840767c48809bb5f87e72197e1140786596b8e43634ef53d523fd318795a1182175b0b0a658bc4aac58ecfcc5411794c962401f2e1bb68ba8627fb26fd4eea0439023c691c35b68bb144bfe10113ca4f80ba17934f16b2ab62d95f37e3941e8ecf8da46337200d0a2c44b7d6be3808a670ef4110fe90a7d61086d1477cde043a940601bd853a50009ac5a5ba56e782055909238c0f5e63d6f174068ebb8f51bcec9bd37de63bb68f6551feec0cfd880a06be809dc0e7b0a5d0337dde6feeb9b73d3fb19eb22d618ab89523593501fd9ec671ae9f85315a7ebfb0534d94239eaacef5a704bcb705c041ce1249135770cf8064c7574b284afe278226e25779f45a4c3715653674aa651b34e9a190926e6ab8b7c7aaba79eef8cc633522d606bb008c101cf9832c9ad05d10a9847281a2646970667358221220b28205111043175da1f11ee8f38df2a7f3aae79b845e97d64b3aebee9d3941d664736f6c634300080a0033",
  "devdoc": {
    "author": "Kiln",
    "errors": {
      "InactiveOperator(uint256)": [
        {
          "params": {
            "index": "The operator index"
          }
        }
      ],
      "InvalidInitialization(uint256,uint256)": [
        {
          "params": {
            "expectedVersion": "The version that was expected",
            "version": "The version that was attempting to be initialized"
          }
        }
      ],
      "OperatorLimitTooHigh(uint256,uint256,uint256)": [
        {
          "params": {
            "index": "The operator index",
            "keyCount": "The operator key count",
            "limit": "The new limit provided"
          }
        }
      ],
      "OperatorLimitTooLow(uint256,uint256,uint256)": [
        {
          "params": {
            "fundedKeyCount": "The operator funded key count",
            "index": "The operator index",
            "limit": "The new limit provided"
          }
        }
      ],
      "OperatorNotFound(uint256)": [
        {
          "params": {
            "index": "The provided index"
          }
        },
        {
          "params": {
            "index": "The provided index"
          }
        }
      ],
      "Unauthorized(address)": [
        {
          "params": {
            "caller": "Address performing the call"
          }
        }
      ]
    },
    "kind": "dev",
    "methods": {
      "acceptAdmin()": {
        "details": "Only callable by the pending admin. Resets the pending admin if succesful."
      },
      "addOperator(string,address)": {
        "details": "Only callable by the administrator",
        "params": {
          "_name": "The name identifying the operator",
          "_operator": "The address representing the operator, receiving the rewards"
        },
        "returns": {
          "_0": "The index of the new operator"
        }
      },
      "addValidators(uint256,uint32,bytes)": {
        "details": "Only callable by the administrator or the operator address",
        "params": {
          "_index": "The operator index",
          "_keyCount": "The amount of keys provided",
          "_publicKeysAndSignatures": "Public keys of the validator, concatenated"
        }
      },
      "demandValidatorExits(uint256,uint256)": {
        "details": "This method is only callable by the river contract, and to actually forward the information to the node operators via event emission, the unprotected requestValidatorExits method must be called",
        "params": {
          "_count": "The amount of exit requests to add to the demand",
          "_depositedValidatorCount": "The total deposited validator count"
        }
      },
      "forceFundedValidatorKeysEventEmission(uint256)": {
        "params": {
          "_amountToEmit": "The amount of events to emit at maximum in this call"
        }
      },
      "getAdmin()": {
        "returns": {
          "_0": "The admin address"
        }
      },
      "getCurrentValidatorExitsDemand()": {
        "returns": {
          "_0": "The current exit request demand"
        }
      },
      "getOperator(uint256)": {
        "params": {
          "_index": "The index of the operator"
        },
        "returns": {
          "_0": "The details of the operator"
        }
      },
      "getOperatorCount()": {
        "returns": {
          "_0": "The operator count"
        }
      },
      "getOperatorStoppedValidatorCount(uint256)": {
        "params": {
          "_idx": "The index of the operator"
        },
        "returns": {
          "_0": "The stopped validator count of the operator"
        }
      },
      "getPendingAdmin()": {
        "returns": {
          "_0": "The pending admin address"
        }
      },
      "getRiver()": {
        "returns": {
          "_0": "The address of River"
        }
      },
      "getStoppedAndRequestedExitCounts()": {
        "returns": {
          "_0": "The total stopped count",
          "_1": "The total requested exit count"
        }
      },
      "getStoppedValidatorCountPerOperator()": {
        "returns": {
          "_0": "The stopped validator array"
        }
      },
      "getTotalStoppedValidatorCount()": {
        "returns": {
          "_0": "The total stopped validator count"
        }
      },
      "getTotalValidatorExitsRequested()": {
        "returns": {
          "_0": "The total requested exit count"
        }
      },
      "getValidator(uint256,uint256)": {
        "params": {
          "_operatorIndex": "The index of the operator",
          "_validatorIndex": "The index of the validator"
        },
        "returns": {
          "funded": "True if validator has been funded",
          "publicKey": "The public key of the validator",
          "signature": "The signature used during deposit"
        }
      },
      "initOperatorsRegistryV1(address,address)": {
        "params": {
          "_admin": "Admin in charge of managing operators",
          "_river": "Address of River system"
        }
      },
      "listActiveOperators()": {
        "returns": {
          "_0": "The list of active operators and their details"
        }
      },
      "pickNextValidatorsToDeposit(uint256)": {
        "params": {
          "_count": "Max amount of keys requested"
        },
        "returns": {
          "publicKeys": "An array of public keys",
          "signatures": "An array of signatures linked to the public keys"
        }
      },
      "proposeAdmin(address)": {
        "details": "This security prevents setting an invalid address as an admin. The pendingadmin has to claim its ownership of the contract, and prove that the newaddress is able to perform regular transactions.",
        "params": {
          "_newAdmin": "New admin address"
        }
      },
      "removeValidators(uint256,uint256[])": {
        "details": "Only callable by the administrator or the operator addressThe indexes must be provided sorted in decreasing order and duplicate-free, otherwise the method will revertThe operator limit will be set to the lowest deleted key index if the operator's limit wasn't equal to its total key countThe operator or the admin cannot remove funded keysWhen removing validators, the indexes of specific unfunded keys can be changed in order to properlyremove the keys from the storage array. Beware of this specific behavior when chaining calls as thetargeted public key indexes can point to a different key after a first call was made and performedsome swaps",
        "params": {
          "_index": "The operator index",
          "_indexes": "The indexes of the keys to remove"
        }
      },
      "reportStoppedValidatorCounts(uint32[],uint256)": {
        "params": {
          "_depositedValidatorCount": "The total deposited validator count",
          "_stoppedValidatorCounts": "The new stopped validators array"
        }
      },
      "requestValidatorExits(uint256)": {
        "params": {
          "_count": "Max amount of exits to request"
        }
      },
      "setOperatorAddress(uint256,address)": {
        "details": "Only callable by the administrator or the previous operator address",
        "params": {
          "_index": "The operator index",
          "_newOperatorAddress": "The new address of the operator"
        }
      },
      "setOperatorLimits(uint256[],uint32[],uint256)": {
        "details": "Only callable by the administratorThe operator indexes must be in increasing order and contain no duplicateThe limit cannot exceed the total key count of the operatorThe _indexes and _newLimits must have the same length.Each limit value is applied to the operator index at the same index in the _indexes array.",
        "params": {
          "_newLimits": "The new staking limit of the operators",
          "_operatorIndexes": "The operator indexes, in increasing order and duplicate free",
          "_snapshotBlock": "The block number at which the snapshot was computed"
        }
      },
      "setOperatorName(uint256,string)": {
        "details": "Only callable by the administrator or the operator",
        "params": {
          "_index": "The operator index",
          "_newName": "The new operator name"
        }
      },
      "setOperatorStatus(uint256,bool)": {
        "details": "Only callable by the administrator",
        "params": {
          "_index": "The operator index",
          "_newStatus": "The new status of the operator"
        }
      }
    },
    "title": "Operators Registry (v1)",
    "version": 1
  },
  "userdoc": {
    "errors": {
      "FundedKeyEventMigrationComplete()": [
        {
          "notice": "Emitted when the event rebroadcasting is done and we attempt to broadcast new events"
        }
      ],
      "InactiveOperator(uint256)": [
        {
          "notice": "The calling operator is inactive"
        }
      ],
      "InvalidArrayLengths()": [
        {
          "notice": "The provided operator and limits array have different lengths"
        }
      ],
      "InvalidEmptyArray()": [
        {
          "notice": "The provided operator and limits array are empty"
        }
      ],
      "InvalidEmptyStoppedValidatorCountsArray()": [
        {
          "notice": "Thrown when an invalid empty stopped validator array is provided"
        }
      ],
      "InvalidEmptyString()": [
        {
          "notice": "The string is empty"
        }
      ],
      "InvalidFundedKeyDeletionAttempt()": [
        {
          "notice": "A funded key deletion has been attempted"
        }
      ],
      "InvalidIndexOutOfBounds()": [
        {
          "notice": "The index that is removed is out of bounds"
        }
      ],
      "InvalidInitialization(uint256,uint256)": [
        {
          "notice": "An error occured during the initialization"
        }
      ],
      "InvalidKeyCount()": [
        {
          "notice": "The provided key count is 0"
        }
      ],
      "InvalidKeysLength()": [
        {
          "notice": "The provided concatenated keys do not have the expected length"
        }
      ],
      "InvalidStoppedValidatorCountsSum()": [
        {
          "notice": "Thrown when the sum of stopped validators is invalid"
        }
      ],
      "InvalidUnsortedIndexes()": [
        {
          "notice": "The index provided are not sorted properly (descending order)"
        }
      ],
      "InvalidZeroAddress()": [
        {
          "notice": "The address is zero"
        }
      ],
      "NoExitRequestsToPerform()": [
        {
          "notice": "Thrown when no exit requests can be performed"
        }
      ],
      "OperatorLimitTooHigh(uint256,uint256,uint256)": [
        {
          "notice": "The value for the operator limit is too high"
        }
      ],
      "OperatorLimitTooLow(uint256,uint256,uint256)": [
        {
          "notice": "The value for the limit is too low"
        }
      ],
      "OperatorNotFound(uint256)": [
        {
          "notice": "The operator was not found"
        },
        {
          "notice": "The operator was not found"
        }
      ],
      "SliceOutOfBounds()": [
        {
          "notice": "The slice is outside of the initial bytes bounds"
        }
      ],
      "SliceOverflow()": [
        {
          "notice": "The length overflows an uint"
        }
      ],
      "StoppedValidatorCountAboveFundedCount(uint256,uint32,uint32)": [
        {
          "notice": "The provided stopped validator count of an operator is above its funded validator count"
        }
      ],
      "StoppedValidatorCountArrayShrinking()": [
        {
          "notice": "The provided stopped validator count array is shrinking"
        }
      ],
      "StoppedValidatorCountsDecreased()": [
        {
          "notice": "Throw when an element in the stopped validator array is decreasing"
        }
      ],
      "StoppedValidatorCountsTooHigh()": [
        {
          "notice": "Thrown when the number of elements in the array is too high compared to operator count"
        }
      ],
      "Unauthorized(address)": [
        {
          "notice": "The operator is unauthorized for the caller"
        }
      ],
      "UnorderedOperatorList()": [
        {
          "notice": "The provided list of operators is not in increasing order"
        }
      ]
    },
    "events": {
      "AddedOperator(uint256,string,address)": {
        "notice": "A new operator has been added to the registry"
      },
      "AddedValidatorKeys(uint256,bytes)": {
        "notice": "The operator or the admin added new validator keys and signatures"
      },
      "FundedValidatorKeys(uint256,bytes[],bool)": {
        "notice": "A validator key got funded on the deposit contractThis event was introduced during a contract upgrade, in order to cover all possible public keys, this eventwill be replayed for past funded keys in order to have a complete coverage of all the funded public keys.In this particuliar scenario, the deferred value will be set to true, to indicate that we are not going to havethe expected additional events and side effects in the same transaction (deposit to official DepositContract etc ...) becausethe event was synthetically crafted."
      },
      "Initialize(uint256,bytes)": {
        "notice": "Emitted when the contract is properly initialized"
      },
      "OperatorEditsAfterSnapshot(uint256,uint256,uint256,uint256,uint256)": {
        "notice": "The operator edited its keys after the snapshot block"
      },
      "OperatorLimitUnchanged(uint256,uint256)": {
        "notice": "The call didn't alter the limit of the operator"
      },
      "RemovedValidatorKey(uint256,bytes)": {
        "notice": "The operator or the admin removed a public key and its signature from the registry"
      },
      "RequestedValidatorExits(uint256,uint256)": {
        "notice": "The requested exit count has been updated"
      },
      "SetAdmin(address)": {
        "notice": "The admin address changed"
      },
      "SetCurrentValidatorExitsDemand(uint256,uint256)": {
        "notice": "The exit request demand has been updated"
      },
      "SetOperatorAddress(uint256,address)": {
        "notice": "The operator address has been changed"
      },
      "SetOperatorLimit(uint256,uint256)": {
        "notice": "The operator limit has been changed"
      },
      "SetOperatorName(uint256,string)": {
        "notice": "The operator display name has been changed"
      },
      "SetOperatorStatus(uint256,bool)": {
        "notice": "The operator status has been changed"
      },
      "SetOperatorStoppedValidatorCount(uint256,uint256)": {
        "notice": "The operator stopped validator count has been changed"
      },
      "SetPendingAdmin(address)": {
        "notice": "The pending admin address changed"
      },
      "SetRiver(address)": {
        "notice": "The stored river address has been changed"
      },
      "SetTotalValidatorExitsRequested(uint256,uint256)": {
        "notice": "The total requested exit has been updated"
      },
      "UpdatedRequestedValidatorExitsUponStopped(uint256,uint32,uint32)": {
        "notice": "The requested exit count has been update to fill the gap with the reported stopped count"
      },
      "UpdatedStoppedValidators(uint32[])": {
        "notice": "The stopped validator array has been changedA validator is considered stopped if exiting, exited or slashedThis event is emitted when the oracle reports new stopped validators counts"
      }
    },
    "kind": "user",
    "methods": {
      "acceptAdmin()": {
        "notice": "Accept the transfer of ownership"
      },
      "addOperator(string,address)": {
        "notice": "Adds an operator to the registry"
      },
      "addValidators(uint256,uint32,bytes)": {
        "notice": "Adds new keys for an operator"
      },
      "demandValidatorExits(uint256,uint256)": {
        "notice": "Increases the exit request demand"
      },
      "forceFundedValidatorKeysEventEmission(uint256)": {
        "notice": "Utility to force the broadcasting of events. Will keep its progress in storage to prevent being DoSed by the number of keys"
      },
      "getAdmin()": {
        "notice": "Retrieves the current admin address"
      },
      "getCurrentValidatorExitsDemand()": {
        "notice": "Get the current exit request demand waiting to be triggeredThis value is the amount of exit requests that are demanded and not yet performed by the contract"
      },
      "getOperator(uint256)": {
        "notice": "Get operator details"
      },
      "getOperatorCount()": {
        "notice": "Get operator count"
      },
      "getOperatorStoppedValidatorCount(uint256)": {
        "notice": "Retrieve the stopped validator count for an operator index"
      },
      "getPendingAdmin()": {
        "notice": "Retrieve the current pending admin address"
      },
      "getRiver()": {
        "notice": "Retrieve the River address"
      },
      "getStoppedAndRequestedExitCounts()": {
        "notice": "Retrieve the total stopped and requested exit count"
      },
      "getStoppedValidatorCountPerOperator()": {
        "notice": "Retrieve the raw stopped validators array from storage"
      },
      "getTotalStoppedValidatorCount()": {
        "notice": "Retrieve the total stopped validator count"
      },
      "getTotalValidatorExitsRequested()": {
        "notice": "Retrieve the total requested exit countThis value is the amount of exit requests that have been performed, emitting an event for operators to catch"
      },
      "getValidator(uint256,uint256)": {
        "notice": "Get the details of a validator"
      },
      "initOperatorsRegistryV1(address,address)": {
        "notice": "Initializes the operators registry"
      },
      "initOperatorsRegistryV1_1()": {
        "notice": "Initializes the operators registry for V1_1"
      },
      "listActiveOperators()": {
        "notice": "Retrieve the active operator set"
      },
      "pickNextValidatorsToDeposit(uint256)": {
        "notice": "Retrieve validator keys based on operator statuses"
      },
      "proposeAdmin(address)": {
        "notice": "Proposes a new address as admin"
      },
      "removeValidators(uint256,uint256[])": {
        "notice": "Remove validator keys"
      },
      "reportStoppedValidatorCounts(uint32[],uint256)": {
        "notice": "Allows river to override the stopped validators arrayThis actions happens during the Oracle report processing"
      },
      "requestValidatorExits(uint256)": {
        "notice": "Public endpoint to consume the exit request demand and perform the actual exit requestsThe selection algorithm will pick validators based on their active validator countsThis value is computed by using the count of funded keys and taking into account the stopped validator counts and exit requests"
      },
      "setOperatorAddress(uint256,address)": {
        "notice": "Changes the operator address of an operator"
      },
      "setOperatorLimits(uint256[],uint32[],uint256)": {
        "notice": "Changes the operator staking limit"
      },
      "setOperatorName(uint256,string)": {
        "notice": "Changes the operator name"
      },
      "setOperatorStatus(uint256,bool)": {
        "notice": "Changes the operator status"
      }
    },
    "notice": "This contract handles the list of operators and their keys",
    "version": 1
  },
  "storageLayout": {
    "storage": [],
    "types": null
  }
}