{
  "address": "0xeF534eeA85Cc23A79f7082F25CEa20D9FcaEb7E7",
  "abi": [
    {
      "inputs": [],
      "name": "FundedKeyEventMigrationComplete",
      "type": "error"
    },
    {
      "inputs": [
        {
          "internalType": "uint256",
          "name": "index",
          "type": "uint256"
        }
      ],
      "name": "InactiveOperator",
      "type": "error"
    },
    {
      "inputs": [],
      "name": "InvalidArrayLengths",
      "type": "error"
    },
    {
      "inputs": [],
      "name": "InvalidEmptyArray",
      "type": "error"
    },
    {
      "inputs": [],
      "name": "InvalidEmptyStoppedValidatorCountsArray",
      "type": "error"
    },
    {
      "inputs": [],
      "name": "InvalidEmptyString",
      "type": "error"
    },
    {
      "inputs": [],
      "name": "InvalidFundedKeyDeletionAttempt",
      "type": "error"
    },
    {
      "inputs": [],
      "name": "InvalidIndexOutOfBounds",
      "type": "error"
    },
    {
      "inputs": [
        {
          "internalType": "uint256",
          "name": "version",
          "type": "uint256"
        },
        {
          "internalType": "uint256",
          "name": "expectedVersion",
          "type": "uint256"
        }
      ],
      "name": "InvalidInitialization",
      "type": "error"
    },
    {
      "inputs": [],
      "name": "InvalidKeyCount",
      "type": "error"
    },
    {
      "inputs": [],
      "name": "InvalidKeysLength",
      "type": "error"
    },
    {
      "inputs": [],
      "name": "InvalidStoppedValidatorCountsSum",
      "type": "error"
    },
    {
      "inputs": [],
      "name": "InvalidUnsortedIndexes",
      "type": "error"
    },
    {
      "inputs": [],
      "name": "InvalidZeroAddress",
      "type": "error"
    },
    {
      "inputs": [],
      "name": "NoExitRequestsToPerform",
      "type": "error"
    },
    {
      "inputs": [
        {
          "internalType": "uint256",
          "name": "index",
          "type": "uint256"
        },
        {
          "internalType": "uint256",
          "name": "limit",
          "type": "uint256"
        },
        {
          "internalType": "uint256",
          "name": "keyCount",
          "type": "uint256"
        }
      ],
      "name": "OperatorLimitTooHigh",
      "type": "error"
    },
    {
      "inputs": [
        {
          "internalType": "uint256",
          "name": "index",
          "type": "uint256"
        },
        {
          "internalType": "uint256",
          "name": "limit",
          "type": "uint256"
        },
        {
          "internalType": "uint256",
          "name": "fundedKeyCount",
          "type": "uint256"
        }
      ],
      "name": "OperatorLimitTooLow",
      "type": "error"
    },
    {
      "inputs": [
        {
          "internalType": "uint256",
          "name": "index",
          "type": "uint256"
        }
      ],
      "name": "OperatorNotFound",
      "type": "error"
    },
    {
      "inputs": [
        {
          "internalType": "uint256",
          "name": "index",
          "type": "uint256"
        }
      ],
      "name": "OperatorNotFound",
      "type": "error"
    },
    {
      "inputs": [],
      "name": "SliceOutOfBounds",
      "type": "error"
    },
    {
      "inputs": [],
      "name": "SliceOverflow",
      "type": "error"
    },
    {
      "inputs": [
        {
          "internalType": "uint256",
          "name": "operatorIndex",
          "type": "uint256"
        },
        {
          "internalType": "uint32",
          "name": "stoppedCount",
          "type": "uint32"
        },
        {
          "internalType": "uint32",
          "name": "fundedCount",
          "type": "uint32"
        }
      ],
      "name": "StoppedValidatorCountAboveFundedCount",
      "type": "error"
    },
    {
      "inputs": [],
      "name": "StoppedValidatorCountArrayShrinking",
      "type": "error"
    },
    {
      "inputs": [],
      "name": "StoppedValidatorCountsDecreased",
      "type": "error"
    },
    {
      "inputs": [],
      "name": "StoppedValidatorCountsTooHigh",
      "type": "error"
    },
    {
      "inputs": [
        {
          "internalType": "address",
          "name": "caller",
          "type": "address"
        }
      ],
      "name": "Unauthorized",
      "type": "error"
    },
    {
      "inputs": [],
      "name": "UnorderedOperatorList",
      "type": "error"
    },
    {
      "anonymous": false,
      "inputs": [
        {
          "indexed": true,
          "internalType": "uint256",
          "name": "index",
          "type": "uint256"
        },
        {
          "indexed": false,
          "internalType": "string",
          "name": "name",
          "type": "string"
        },
        {
          "indexed": true,
          "internalType": "address",
          "name": "operatorAddress",
          "type": "address"
        }
      ],
      "name": "AddedOperator",
      "type": "event"
    },
    {
      "anonymous": false,
      "inputs": [
        {
          "indexed": true,
          "internalType": "uint256",
          "name": "index",
          "type": "uint256"
        },
        {
          "indexed": false,
          "internalType": "bytes",
          "name": "publicKeysAndSignatures",
          "type": "bytes"
        }
      ],
      "name": "AddedValidatorKeys",
      "type": "event"
    },
    {
      "anonymous": false,
      "inputs": [
        {
          "indexed": true,
          "internalType": "uint256",
          "name": "index",
          "type": "uint256"
        },
        {
          "indexed": false,
          "internalType": "bytes[]",
          "name": "publicKeys",
          "type": "bytes[]"
        },
        {
          "indexed": false,
          "internalType": "bool",
          "name": "deferred",
          "type": "bool"
        }
      ],
      "name": "FundedValidatorKeys",
      "type": "event"
    },
    {
      "anonymous": false,
      "inputs": [
        {
          "indexed": false,
          "internalType": "uint256",
          "name": "version",
          "type": "uint256"
        },
        {
          "indexed": false,
          "internalType": "bytes",
          "name": "cdata",
          "type": "bytes"
        }
      ],
      "name": "Initialize",
      "type": "event"
    },
    {
      "anonymous": false,
      "inputs": [
        {
          "indexed": true,
          "internalType": "uint256",
          "name": "index",
          "type": "uint256"
        },
        {
          "indexed": false,
          "internalType": "uint256",
          "name": "currentLimit",
          "type": "uint256"
        },
        {
          "indexed": false,
          "internalType": "uint256",
          "name": "newLimit",
          "type": "uint256"
        },
        {
          "indexed": true,
          "internalType": "uint256",
          "name": "latestKeysEditBlockNumber",
          "type": "uint256"
        },
        {
          "indexed": true,
          "internalType": "uint256",
          "name": "snapshotBlock",
          "type": "uint256"
        }
      ],
      "name": "OperatorEditsAfterSnapshot",
      "type": "event"
    },
    {
      "anonymous": false,
      "inputs": [
        {
          "indexed": true,
          "internalType": "uint256",
          "name": "index",
          "type": "uint256"
        },
        {
          "indexed": false,
          "internalType": "uint256",
          "name": "limit",
          "type": "uint256"
        }
      ],
      "name": "OperatorLimitUnchanged",
      "type": "event"
    },
    {
      "anonymous": false,
      "inputs": [
        {
          "indexed": true,
          "internalType": "uint256",
          "name": "index",
          "type": "uint256"
        },
        {
          "indexed": false,
          "internalType": "bytes",
          "name": "publicKey",
          "type": "bytes"
        }
      ],
      "name": "RemovedValidatorKey",
      "type": "event"
    },
    {
      "anonymous": false,
      "inputs": [
        {
          "indexed": true,
          "internalType": "uint256",
          "name": "index",
          "type": "uint256"
        },
        {
          "indexed": false,
          "internalType": "uint256",
          "name": "count",
          "type": "uint256"
        }
      ],
      "name": "RequestedValidatorExits",
      "type": "event"
    },
    {
      "anonymous": false,
      "inputs": [
        {
          "indexed": true,
          "internalType": "address",
          "name": "admin",
          "type": "address"
        }
      ],
      "name": "SetAdmin",
      "type": "event"
    },
    {
      "anonymous": false,
      "inputs": [
        {
          "indexed": false,
          "internalType": "uint256",
          "name": "previousValidatorExitsDemand",
          "type": "uint256"
        },
        {
          "indexed": false,
          "internalType": "uint256",
          "name": "nextValidatorExitsDemand",
          "type": "uint256"
        }
      ],
      "name": "SetCurrentValidatorExitsDemand",
      "type": "event"
    },
    {
      "anonymous": false,
      "inputs": [
        {
          "indexed": true,
          "internalType": "uint256",
          "name": "index",
          "type": "uint256"
        },
        {
          "indexed": true,
          "internalType": "address",
          "name": "newOperatorAddress",
          "type": "address"
        }
      ],
      "name": "SetOperatorAddress",
      "type": "event"
    },
    {
      "anonymous": false,
      "inputs": [
        {
          "indexed": true,
          "internalType": "uint256",
          "name": "index",
          "type": "uint256"
        },
        {
          "indexed": false,
          "internalType": "uint256",
          "name": "newLimit",
          "type": "uint256"
        }
      ],
      "name": "SetOperatorLimit",
      "type": "event"
    },
    {
      "anonymous": false,
      "inputs": [
        {
          "indexed": true,
          "internalType": "uint256",
          "name": "index",
          "type": "uint256"
        },
        {
          "indexed": false,
          "internalType": "string",
          "name": "newName",
          "type": "string"
        }
      ],
      "name": "SetOperatorName",
      "type": "event"
    },
    {
      "anonymous": false,
      "inputs": [
        {
          "indexed": true,
          "internalType": "uint256",
          "name": "index",
          "type": "uint256"
        },
        {
          "indexed": false,
          "internalType": "bool",
          "name": "active",
          "type": "bool"
        }
      ],
      "name": "SetOperatorStatus",
      "type": "event"
    },
    {
      "anonymous": false,
      "inputs": [
        {
          "indexed": true,
          "internalType": "uint256",
          "name": "index",
          "type": "uint256"
        },
        {
          "indexed": false,
          "internalType": "uint256",
          "name": "newStoppedValidatorCount",
          "type": "uint256"
        }
      ],
      "name": "SetOperatorStoppedValidatorCount",
      "type": "event"
    },
    {
      "anonymous": false,
      "inputs": [
        {
          "indexed": true,
          "internalType": "address",
          "name": "pendingAdmin",
          "type": "address"
        }
      ],
      "name": "SetPendingAdmin",
      "type": "event"
    },
    {
      "anonymous": false,
      "inputs": [
        {
          "indexed": true,
          "internalType": "address",
          "name": "river",
          "type": "address"
        }
      ],
      "name": "SetRiver",
      "type": "event"
    },
    {
      "anonymous": false,
      "inputs": [
        {
          "indexed": false,
          "internalType": "uint256",
          "name": "previousTotalValidatorExitsRequested",
          "type": "uint256"
        },
        {
          "indexed": false,
          "internalType": "uint256",
          "name": "newTotalValidatorExitsRequested",
          "type": "uint256"
        }
      ],
      "name": "SetTotalValidatorExitsRequested",
      "type": "event"
    },
    {
      "anonymous": false,
      "inputs": [
        {
          "indexed": true,
          "internalType": "uint256",
          "name": "index",
          "type": "uint256"
        },
        {
          "indexed": false,
          "internalType": "uint32",
          "name": "oldRequestedExits",
          "type": "uint32"
        },
        {
          "indexed": false,
          "internalType": "uint32",
          "name": "newRequestedExits",
          "type": "uint32"
        }
      ],
      "name": "UpdatedRequestedValidatorExitsUponStopped",
      "type": "event"
    },
    {
      "anonymous": false,
      "inputs": [
        {
          "indexed": false,
          "internalType": "uint32[]",
          "name": "stoppedValidatorCounts",
          "type": "uint32[]"
        }
      ],
      "name": "UpdatedStoppedValidators",
      "type": "event"
    },
    {
      "inputs": [],
      "name": "acceptAdmin",
      "outputs": [],
      "stateMutability": "nonpayable",
      "type": "function"
    },
    {
      "inputs": [
        {
          "internalType": "string",
          "name": "_name",
          "type": "string"
        },
        {
          "internalType": "address",
          "name": "_operator",
          "type": "address"
        }
      ],
      "name": "addOperator",
      "outputs": [
        {
          "internalType": "uint256",
          "name": "",
          "type": "uint256"
        }
      ],
      "stateMutability": "nonpayable",
      "type": "function"
    },
    {
      "inputs": [
        {
          "internalType": "uint256",
          "name": "_index",
          "type": "uint256"
        },
        {
          "internalType": "uint32",
          "name": "_keyCount",
          "type": "uint32"
        },
        {
          "internalType": "bytes",
          "name": "_publicKeysAndSignatures",
          "type": "bytes"
        }
      ],
      "name": "addValidators",
      "outputs": [],
      "stateMutability": "nonpayable",
      "type": "function"
    },
    {
      "inputs": [
        {
          "internalType": "uint256",
          "name": "_count",
          "type": "uint256"
        },
        {
          "internalType": "uint256",
          "name": "_depositedValidatorCount",
          "type": "uint256"
        }
      ],
      "name": "demandValidatorExits",
      "outputs": [],
      "stateMutability": "nonpayable",
      "type": "function"
    },
    {
      "inputs": [
        {
          "internalType": "uint256",
          "name": "_amountToEmit",
          "type": "uint256"
        }
      ],
      "name": "forceFundedValidatorKeysEventEmission",
      "outputs": [],
      "stateMutability": "nonpayable",
      "type": "function"
    },
    {
      "inputs": [],
      "name": "getAdmin",
      "outputs": [
        {
          "internalType": "address",
          "name": "",
          "type": "address"
        }
      ],
      "stateMutability": "view",
      "type": "function"
    },
    {
      "inputs": [],
      "name": "getCurrentValidatorExitsDemand",
      "outputs": [
        {
          "internalType": "uint256",
          "name": "",
          "type": "uint256"
        }
      ],
      "stateMutability": "view",
      "type": "function"
    },
    {
      "inputs": [
        {
          "internalType": "uint256",
          "name": "_index",
          "type": "uint256"
        }
      ],
      "name": "getOperator",
      "outputs": [
        {
          "components": [
            {
              "internalType": "uint32",
              "name": "limit",
              "type": "uint32"
            },
            {
              "internalType": "uint32",
              "name": "funded",
              "type": "uint32"
            },
            {
              "internalType": "uint32",
              "name": "requestedExits",
              "type": "uint32"
            },
            {
              "internalType": "uint32",
              "name": "keys",
              "type": "uint32"
            },
            {
              "internalType": "uint64",
              "name": "latestKeysEditBlockNumber",
              "type": "uint64"
            },
            {
              "internalType": "bool",
              "name": "active",
              "type": "bool"
            },
            {
              "internalType": "string",
              "name": "name",
              "type": "string"
            },
            {
              "internalType": "address",
              "name": "operator",
              "type": "address"
            }
          ],
          "internalType": "struct OperatorsV2.Operator",
          "name": "",
          "type": "tuple"
        }
      ],
      "stateMutability": "view",
      "type": "function"
    },
    {
      "inputs": [],
      "name": "getOperatorCount",
      "outputs": [
        {
          "internalType": "uint256",
          "name": "",
          "type": "uint256"
        }
      ],
      "stateMutability": "view",
      "type": "function"
    },
    {
      "inputs": [
        {
          "internalType": "uint256",
          "name": "_idx",
          "type": "uint256"
        }
      ],
      "name": "getOperatorStoppedValidatorCount",
      "outputs": [
        {
          "internalType": "uint32",
          "name": "",
          "type": "uint32"
        }
      ],
      "stateMutability": "view",
      "type": "function"
    },
    {
      "inputs": [],
      "name": "getPendingAdmin",
      "outputs": [
        {
          "internalType": "address",
          "name": "",
          "type": "address"
        }
      ],
      "stateMutability": "view",
      "type": "function"
    },
    {
      "inputs": [],
      "name": "getRiver",
      "outputs": [
        {
          "internalType": "address",
          "name": "",
          "type": "address"
        }
      ],
      "stateMutability": "view",
      "type": "function"
    },
    {
      "inputs": [],
      "name": "getStoppedAndRequestedExitCounts",
      "outputs": [
        {
          "internalType": "uint32",
          "name": "",
          "type": "uint32"
        },
        {
          "internalType": "uint256",
          "name": "",
          "type": "uint256"
        }
      ],
      "stateMutability": "view",
      "type": "function"
    },
    {
      "inputs": [],
      "name": "getStoppedValidatorCountPerOperator",
      "outputs": [
        {
          "internalType": "uint32[]",
          "name": "",
          "type": "uint32[]"
        }
      ],
      "stateMutability": "view",
      "type": "function"
    },
    {
      "inputs": [],
      "name": "getTotalStoppedValidatorCount",
      "outputs": [
        {
          "internalType": "uint32",
          "name": "",
          "type": "uint32"
        }
      ],
      "stateMutability": "view",
      "type": "function"
    },
    {
      "inputs": [],
      "name": "getTotalValidatorExitsRequested",
      "outputs": [
        {
          "internalType": "uint256",
          "name": "",
          "type": "uint256"
        }
      ],
      "stateMutability": "view",
      "type": "function"
    },
    {
      "inputs": [
        {
          "internalType": "uint256",
          "name": "_operatorIndex",
          "type": "uint256"
        },
        {
          "internalType": "uint256",
          "name": "_validatorIndex",
          "type": "uint256"
        }
      ],
      "name": "getValidator",
      "outputs": [
        {
          "internalType": "bytes",
          "name": "publicKey",
          "type": "bytes"
        },
        {
          "internalType": "bytes",
          "name": "signature",
          "type": "bytes"
        },
        {
          "internalType": "bool",
          "name": "funded",
          "type": "bool"
        }
      ],
      "stateMutability": "view",
      "type": "function"
    },
    {
      "inputs": [
        {
          "internalType": "address",
          "name": "_admin",
          "type": "address"
        },
        {
          "internalType": "address",
          "name": "_river",
          "type": "address"
        }
      ],
      "name": "initOperatorsRegistryV1",
      "outputs": [],
      "stateMutability": "nonpayable",
      "type": "function"
    },
    {
      "inputs": [],
      "name": "initOperatorsRegistryV1_1",
      "outputs": [],
      "stateMutability": "nonpayable",
      "type": "function"
    },
    {
      "inputs": [],
      "name": "listActiveOperators",
      "outputs": [
        {
          "components": [
            {
              "internalType": "uint32",
              "name": "limit",
              "type": "uint32"
            },
            {
              "internalType": "uint32",
              "name": "funded",
              "type": "uint32"
            },
            {
              "internalType": "uint32",
              "name": "requestedExits",
              "type": "uint32"
            },
            {
              "internalType": "uint32",
              "name": "keys",
              "type": "uint32"
            },
            {
              "internalType": "uint64",
              "name": "latestKeysEditBlockNumber",
              "type": "uint64"
            },
            {
              "internalType": "bool",
              "name": "active",
              "type": "bool"
            },
            {
              "internalType": "string",
              "name": "name",
              "type": "string"
            },
            {
              "internalType": "address",
              "name": "operator",
              "type": "address"
            }
          ],
          "internalType": "struct OperatorsV2.Operator[]",
          "name": "",
          "type": "tuple[]"
        }
      ],
      "stateMutability": "view",
      "type": "function"
    },
    {
      "inputs": [
        {
          "internalType": "uint256",
          "name": "_count",
          "type": "uint256"
        }
      ],
      "name": "pickNextValidatorsToDeposit",
      "outputs": [
        {
          "internalType": "bytes[]",
          "name": "publicKeys",
          "type": "bytes[]"
        },
        {
          "internalType": "bytes[]",
          "name": "signatures",
          "type": "bytes[]"
        }
      ],
      "stateMutability": "nonpayable",
      "type": "function"
    },
    {
      "inputs": [
        {
          "internalType": "address",
          "name": "_newAdmin",
          "type": "address"
        }
      ],
      "name": "proposeAdmin",
      "outputs": [],
      "stateMutability": "nonpayable",
      "type": "function"
    },
    {
      "inputs": [
        {
          "internalType": "uint256",
          "name": "_index",
          "type": "uint256"
        },
        {
          "internalType": "uint256[]",
          "name": "_indexes",
          "type": "uint256[]"
        }
      ],
      "name": "removeValidators",
      "outputs": [],
      "stateMutability": "nonpayable",
      "type": "function"
    },
    {
      "inputs": [
        {
          "internalType": "uint32[]",
          "name": "_stoppedValidatorCounts",
          "type": "uint32[]"
        },
        {
          "internalType": "uint256",
          "name": "_depositedValidatorCount",
          "type": "uint256"
        }
      ],
      "name": "reportStoppedValidatorCounts",
      "outputs": [],
      "stateMutability": "nonpayable",
      "type": "function"
    },
    {
      "inputs": [
        {
          "internalType": "uint256",
          "name": "_count",
          "type": "uint256"
        }
      ],
      "name": "requestValidatorExits",
      "outputs": [],
      "stateMutability": "nonpayable",
      "type": "function"
    },
    {
      "inputs": [
        {
          "internalType": "uint256",
          "name": "_index",
          "type": "uint256"
        },
        {
          "internalType": "address",
          "name": "_newOperatorAddress",
          "type": "address"
        }
      ],
      "name": "setOperatorAddress",
      "outputs": [],
      "stateMutability": "nonpayable",
      "type": "function"
    },
    {
      "inputs": [
        {
          "internalType": "uint256[]",
          "name": "_operatorIndexes",
          "type": "uint256[]"
        },
        {
          "internalType": "uint32[]",
          "name": "_newLimits",
          "type": "uint32[]"
        },
        {
          "internalType": "uint256",
          "name": "_snapshotBlock",
          "type": "uint256"
        }
      ],
      "name": "setOperatorLimits",
      "outputs": [],
      "stateMutability": "nonpayable",
      "type": "function"
    },
    {
      "inputs": [
        {
          "internalType": "uint256",
          "name": "_index",
          "type": "uint256"
        },
        {
          "internalType": "string",
          "name": "_newName",
          "type": "string"
        }
      ],
      "name": "setOperatorName",
      "outputs": [],
      "stateMutability": "nonpayable",
      "type": "function"
    },
    {
      "inputs": [
        {
          "internalType": "uint256",
          "name": "_index",
          "type": "uint256"
        },
        {
          "internalType": "bool",
          "name": "_newStatus",
          "type": "bool"
        }
      ],
      "name": "setOperatorStatus",
      "outputs": [],
      "stateMutability": "nonpayable",
      "type": "function"
    }
  ],
  "transactionHash": "0xe2f7596a5ca17368507d0e6f65bdf8d022901ff26d23420525cb56162aa24036",
  "args": [],
  "numDeployments": 1,
  "solcInputHash": "34809fcc019ffc63dbbe04d139c52d63",
  "bytecode": "0x60806040523480156200001157600080fd5b506200002a6000196200007060201b62001d191760201c565b7f1809e49bba43f2d39fa57894b50cd6ccb428cc438230e065cac3eb24a1355a716000196000366040516200006293929190620000bd565b60405180910390a162000119565b620000b6620000a160017f82055909238c0f5e63d6f174068ebb8f51bcec9bd37de63bb68f6551feec0cfd620000f3565b60001b82620000b960201b62001d4c1760201c565b50565b9055565b83815260406020820152816040820152818360608301376000818301606090810191909152601f909201601f1916010192915050565b6000828210156200011457634e487b7160e01b600052601160045260246000fd5b500390565b614f4780620001296000396000f3fe608060405234801561001057600080fd5b506004361061018f5760003560e01c80635a16f135116100e457806390de236f1161009257806390de236f14610371578063a519f06014610379578063b0da59b214610381578063b405e17414610389578063b53b937b1461039c578063d0468156146103a4578063eb47adc6146103ac578063f87e5296146103bf57600080fd5b80635a16f135146102c457806361685d9f146102d757806363b4118f146102ff5780636e9960c31461032157806370b2384514610336578063718929ad146103495780638cb310031461035c57600080fd5b80632d1fc39d116101415780632d1fc39d1461022c578063354454c51461023f57806339251321146102525780634a3c63bb1461026557806350545d2f1461028957806354001d091461029c5780635876220f146102af57600080fd5b806305f63c8a146101945780630e18b681146101bd578063147bf6c4146101c75780631864636c146101da5780631a4a7c61146101ed578063217aad3c14610203578063277c9d451461020b575b600080fd5b6101a76101a23660046145f0565b6103d2565b6040516101b491906146ee565b60405180910390f35b6101c5610503565b005b6101c56101d536600461471d565b610563565b6101c56101e8366004614783565b6105aa565b6101f5610aff565b6040519081526020016101b4565b6101c5610b0e565b61021e6102193660046145f0565b610ba3565b6040516101b4929190614823565b6101c561023a366004614851565b610bf3565b6101c561024d366004614873565b610c7e565b6101c5610260366004614927565b610f96565b61026d611159565b6040805163ffffffff90931683526020830191909152016101b4565b6101f5610297366004614965565b611186565b6101c56102aa3660046149b8565b6112b0565b6102b761135e565b6040516101b491906149eb565b6101c56102d2366004614a29565b611409565b6102ea6102e53660046145f0565b6114a6565b60405163ffffffff90911681526020016101b4565b61031261030d366004614851565b6114b7565b6040516101b493929190614a5e565b6103296114ef565b6040516101b49190614a96565b6101c5610344366004614abe565b6114f9565b6101c56103573660046145f0565b611851565b6103646118a9565b6040516101b49190614b17565b6101f56118b3565b6103296118bd565b6101f56118c7565b6101c5610397366004614b79565b6118d1565b6102ea61191c565b610329611926565b6101c56103ba3660046145f0565b611930565b6101c56103cd366004614bc4565b611bbb565b6103da6143fa565b6103e382611d50565b6040805161010081018252825463ffffffff8082168352600160201b820481166020840152600160401b8204811693830193909352600160601b81049092166060820152600160801b82046001600160401b03166080820152600160c01b90910460ff16151560a082015260018201805491929160c08401919061046690614be7565b80601f016020809104026020016040519081016040528092919081815260200182805461049290614be7565b80156104df5780601f106104b4576101008083540402835291602001916104df565b820191906000526020600020905b8154815290600101906020018083116104c257829003601f168201915b5050509183525050600291909101546001600160a01b031660209091015292915050565b61050b611dc1565b6001600160a01b0316336001600160a01b031614610547573360405163472511eb60e11b815260040161053e9190614a96565b60405180910390fd5b610557610552611dc1565b611dcb565b6105616000611e14565b565b61056b611e54565b6001600160a01b0316336001600160a01b03161461059e573360405163472511eb60e11b815260040161053e9190614a96565b6105a781611e14565b50565b826105b36114ef565b6001600160a01b0316336001600160a01b031614156108485781806105eb576040516379b348ff60e11b815260040160405180910390fd5b60006105f686611d50565b8054909150600160601b900463ffffffff1680868660008161061a5761061a614c1c565b905060200201351061063f576040516317df2d8d60e01b815260040160405180910390fd5b6000868661064e600187614c48565b81811061065d5761065d614c1c565b85546020909102929092013592505063ffffffff600160201b9091041681101561069a5760405163213af80760e21b815260040160405180910390fd5b8254600160601b810463ffffffff9081169116146106c1896106bc8786614c5f565b611e5e565b60005b858110156107f45760008989838181106106e0576106e0614c1c565b90506020020135905060008211801561071b57508989610701600185614c48565b81811061071057610710614c1c565b905060200201358110155b156107395760405163c9ee26af60e01b815260040160405180910390fd5b60019091019060006107518363ffffffff8816614c48565b9050600061075f8d84611eb9565b509050600061076e8e8461202f565b905061077b8e85836120fb565b6107b38e8460005b6040519080825280601f01601f1916602001820160405280156107ad576020820181803683370190505b506120fb565b8d7f70cf8064c7574b284afe278226e25779f45a4c3715653674aa651b34e9a19092836040516107e39190614c9a565b60405180910390a2505050506106c4565b811561081a578454600160601b810463ffffffff1663ffffffff1990911617855561083d565b845463ffffffff1683101561083d57845463ffffffff191663ffffffff84161785555b505050505050610af9565b600061085382611d50565b8054909150600160c01b900460ff16610882576040516301550a7360e41b81526004810183905260240161053e565b60028101546001600160a01b031633146108b1573360405163472511eb60e11b815260040161053e9190614a96565b82806108d0576040516379b348ff60e11b815260040160405180910390fd5b60006108db87611d50565b8054909150600160601b900463ffffffff168087876000816108ff576108ff614c1c565b9050602002013510610924576040516317df2d8d60e01b815260040160405180910390fd5b60008787610933600187614c48565b81811061094257610942614c1c565b85546020909102929092013592505063ffffffff600160201b9091041681101561097f5760405163213af80760e21b815260040160405180910390fd5b8254600160601b810463ffffffff9081169116146109a18a6106bc8786614c5f565b60005b85811015610aa85760008a8a838181106109c0576109c0614c1c565b9050602002013590506000821180156109fb57508a8a6109e1600185614c48565b8181106109f0576109f0614c1c565b905060200201358110155b15610a195760405163c9ee26af60e01b815260040160405180910390fd5b6001909101906000610a318363ffffffff8816614c48565b90506000610a3f8e84611eb9565b5090506000610a4e8f8461202f565b9050610a5b8f85836120fb565b610a678f846000610783565b8e7f70cf8064c7574b284afe278226e25779f45a4c3715653674aa651b34e9a1909283604051610a979190614c9a565b60405180910390a2505050506109a4565b8115610ace578454600160601b810463ffffffff1663ffffffff19909116178555610af1565b845463ffffffff16831015610af157845463ffffffff191663ffffffff84161785555b505050505050505b50505050565b6000610b09612140565b905090565b6001610b18612163565b8114610b495780610b27612163565b604051631cfd276760e31b81526004810192909252602482015260440161053e565b610b5c610b57826001614cad565b611d19565b610b64612197565b7f1809e49bba43f2d39fa57894b50cd6ccb428cc438230e065cac3eb24a1355a7181600036604051610b9893929190614cee565b60405180910390a150565b606080610bae612360565b6001600160a01b0316336001600160a01b031614610be1573360405163472511eb60e11b815260040161053e9190614a96565b610bea83612390565b91509150915091565b610bfb612360565b6001600160a01b0316336001600160a01b031614610c2e573360405163472511eb60e11b815260040161053e9190614a96565b6000610c38612779565b90506000610c446127a9565b9050610c6384610c548484614cad565b610c5e9086614c48565b6127d9565b93508315610af957610af982610c798682614cad565b6127f1565b610c86611e54565b6001600160a01b0316336001600160a01b031614610cb9573360405163472511eb60e11b815260040161053e9190614a96565b838214610cd95760405163a9854bc960e01b815260040160405180910390fd5b83610cf757604051637b329aa360e01b815260040160405180910390fd5b60005b84811015610f8e576000868683818110610d1657610d16614c1c565b9050602002013590506000858584818110610d3357610d33614c1c565b9050602002016020810190610d489190614d08565b9050600083118015610d7c57508787610d62600186614c48565b818110610d7157610d71614c1c565b905060200201358211155b15610d9a576040516357e557ed60e11b815260040160405180910390fd5b6000610da583611d50565b805490915063ffffffff908116908316811415610e075760405163ffffffff8416815284907fe8b22569f1f7ba3802b89b579382ccac4e223f8062d6dd73f9cd757bd46ff8aa906020015b60405180910390a284600101945050505050610cfa565b8154600160801b90046001600160401b031686108015610e3257508063ffffffff168363ffffffff16115b15610e9d5781546040805163ffffffff8085168252861660208201528892600160801b90046001600160401b03169187917f5482b63bdf9e3775fdd3157e4933cfbc1d6fa1ec354ed3fc9a547e5438fd3e4e910160405180910390a484600101945050505050610cfa565b815463ffffffff600160601b90910481169084161115610ef2578154604051630d7bdb4960e41b81526004810186905263ffffffff8086166024830152600160601b909204909116604482015260640161053e565b815463ffffffff600160201b90910481169084161015610f4757815460405163044816df60e51b81526004810186905263ffffffff8086166024830152600160201b909204909116604482015260640161053e565b815463ffffffff191663ffffffff8416908117835560405190815284907f3adbeb5fbb94c52b64d90b31188c68a740868dde2238e03a04d581cae22cedf090602001610df0565b505050505050565b82610f9f6114ef565b6001600160a01b0316336001600160a01b0316141561105357610ff783838080601f01602080910402602001604051908101604052809392919081815260200183838082843760009201919091525061283792505050565b600061100285611d50565b905061101260018201858561443d565b50847f9ad13f126d3d603b0b284edba7645ca0e423840767c48809bb5f87e72197e1148585604051611045929190614d23565b60405180910390a250610af9565b600061105e82611d50565b8054909150600160c01b900460ff1661108d576040516301550a7360e41b81526004810183905260240161053e565b60028101546001600160a01b031633146110bc573360405163472511eb60e11b815260040161053e9190614a96565b6110fb84848080601f01602080910402602001604051908101604052809392919081815260200183838082843760009201919091525061283792505050565b600061110686611d50565b905061111660018201868661443d565b50857f9ad13f126d3d603b0b284edba7645ca0e423840767c48809bb5f87e72197e1148686604051611149929190614d23565b60405180910390a2505050505050565b600080611164612856565b61116c612779565b6111746127a9565b61117e9190614cad565b915091509091565b6000611190611e54565b6001600160a01b0316336001600160a01b0316146111c3573360405163472511eb60e11b815260040161053e9190614a96565b604080516101008101825260008082526020808301829052828401829052606083018290526001600160401b0343166080840152600160a08401528351601f8801829004820281018201909452868452909260c0830191889088908190840183828082843760009201829052509385525050506001600160a01b0386166020909201919091529091506001611257836128b1565b6112619190614c48565b9050836001600160a01b0316817f28febbb5486eda5a1e47ad578f9cb32c8a1983c86c80ab823ea5dc1fc04ede5e888860405161129f929190614d23565b60405180910390a395945050505050565b60006112ba612163565b81146112c95780610b27612163565b6112d7610b57826001614cad565b6112e083611dcb565b6112e982612a06565b6040516001600160a01b038316907ffc0d749143b04e0d92a3b49edae84a45f6bc88b75e99d9118ec4d7e87fe626c590600090a27f1809e49bba43f2d39fa57894b50cd6ccb428cc438230e065cac3eb24a1355a718160003660405161135193929190614cee565b60405180910390a1505050565b6060600061136a612a3d565b8054806020026020016040519081016040528092919081815260200182805480156113e057602002820191906000526020600020906000905b82829054906101000a900463ffffffff1663ffffffff16815260200190600401906020826003010492830192600103820291508084116113a35790505b505083519394505082159150611403905057600082526020820191506001810382525b50919050565b611411611e54565b6001600160a01b0316336001600160a01b031614611444573360405163472511eb60e11b815260040161053e9190614a96565b600061144f83611d50565b805460ff60c01b1916600160c01b84151590810291909117825560405190815290915083907fe3bc5e5d3b000a1f65d146c40a38d89b1743b5729f4c6fe65f2e4b2dc620f2f29060200160405180910390a2505050565b60006114b182612a6b565b92915050565b60608060006114c68585611eb9565b90935091506114d485611d50565b54929591945050600160201b90910463ffffffff1690911090565b6000610b09611e54565b836115026114ef565b6001600160a01b0316336001600160a01b031614156116905763ffffffff841661153f576040516379b348ff60e11b815260040160405180910390fd5b61154b60606030614cad565b61155b9063ffffffff8616614d3f565b821461157a57604051630368f86360e41b815260040160405180910390fd5b600061158586611d50565b905060005b8563ffffffff1681101561162f5760006115fd86868080601f0160208091040260200160405190810160405280939291908181526020018383808284376000920191909152506115e292506060915060309050614cad565b6115ec9085614d3f565b6115f860606030614cad565b612a7e565b8354909150611626908990611620908590600160601b900463ffffffff16614cad565b836120fb565b5060010161158a565b5080546116509087906106bc908890600160601b900463ffffffff16614d5e565b857f402e5ac3e483073137c527378b15e69f7f4a1c75c1adc0aa36f0c456876c05a08585604051611682929190614d23565b60405180910390a25061184a565b600061169b82611d50565b8054909150600160c01b900460ff166116ca576040516301550a7360e41b81526004810183905260240161053e565b60028101546001600160a01b031633146116f9573360405163472511eb60e11b815260040161053e9190614a96565b63ffffffff851661171d576040516379b348ff60e11b815260040160405180910390fd5b61172960606030614cad565b6117399063ffffffff8716614d3f565b831461175857604051630368f86360e41b815260040160405180910390fd5b600061176387611d50565b905060005b8663ffffffff168110156117ec5760006117c087878080601f0160208091040260200160405190810160405280939291908181526020018383808284376000920191909152506115e292506060915060309050614cad565b83549091506117e3908a90611620908590600160601b900463ffffffff16614cad565b50600101611768565b50805461180d9088906106bc908990600160601b900463ffffffff16614d5e565b867f402e5ac3e483073137c527378b15e69f7f4a1c75c1adc0aa36f0c456876c05a0868660405161183f929190614d23565b60405180910390a250505b5050505050565b600061185b612779565b9050600061186982846127d9565b9050806118895760405163ed94f97f60e01b815260040160405180910390fd5b8161189382612b41565b61189d9084614c48565b9250610af981846127f1565b6060610b0961300a565b6000610b096127a9565b6000610b09612360565b6000610b09612779565b6118d9612360565b6001600160a01b0316336001600160a01b03161461190c573360405163472511eb60e11b815260040161053e9190614a96565b611917838383613295565b505050565b6000610b09612856565b6000610b09611dc1565b600061193a61370a565b905060001981141561195f57604051630871a03f60e01b815260040160405180910390fd5b611967612140565b61197a5761197660001961373a565b5050565b6000611984613768565b90505b60008311801561199957506000198214155b15611ba95760006119a983611d50565b6040805161010081018252825463ffffffff8082168352600160201b820481166020840152600160401b8204811693830193909352600160601b81049092166060820152600160801b82046001600160401b03166080820152600160c01b90910460ff16151560a082015260018201805491929160c084019190611a2c90614be7565b80601f0160208091040260200160405190810160405280929190818152602001828054611a5890614be7565b8015611aa55780601f10611a7a57610100808354040283529160200191611aa5565b820191906000526020600020905b815481529060010190602001808311611a8857829003601f168201915b5050509183525050600291909101546001600160a01b0316602091820152810151909150600090611af09085908590611aeb908990610c5e90849063ffffffff16614c48565b613798565b509050837f0786596b8e43634ef53d523fd318795a1182175b0b0a658bc4aac58ecfcc5411826001604051611b26929190614d86565b60405180910390a2816020015163ffffffff16815184611b469190614cad565b1415611b8557600092506001611b5a612140565b611b649190614c48565b841415611b75576000199350611b94565b611b7e84614daa565b9350611b94565b8051611b919084614cad565b92505b8051611ba09086614c48565b94505050611987565b611bb28261373a565b6119178161397a565b81611bc46114ef565b6001600160a01b0316336001600160a01b03161415611c4657611be6826139a8565b6000611bf184611d50565b6002810180546001600160a01b0319166001600160a01b0386169081179091556040519192509085907f08a670ef4110fe90a7d61086d1477cde043a940601bd853a50009ac5a5ba56e790600090a350505050565b6000611c5182611d50565b8054909150600160c01b900460ff16611c80576040516301550a7360e41b81526004810183905260240161053e565b60028101546001600160a01b03163314611caf573360405163472511eb60e11b815260040161053e9190614a96565b611cb8836139a8565b6000611cc385611d50565b6002810180546001600160a01b0319166001600160a01b0387169081179091556040519192509086907f08a670ef4110fe90a7d61086d1477cde043a940601bd853a50009ac5a5ba56e790600090a35050505050565b6105a7611d4760017f82055909238c0f5e63d6f174068ebb8f51bcec9bd37de63bb68f6551feec0cfd614c48565b829055565b9055565b600080611d6c6001600080516020614ed2833981519152614c48565b805490915081908410611d95576040516302d72d2160e01b81526004810185905260240161053e565b806000018481548110611daa57611daa614c1c565b906000526020600020906003020192505050919050565b6000610b096139cf565b611dd4816139a8565b611ddd816139ff565b6040516001600160a01b038216907f5a272403b402d892977df56625f4164ccaf70ca3863991c43ecfe76a6905b0a190600090a250565b611e1d81613a08565b6040516001600160a01b038216907f2a0f8515de3fa34ef68b99300347b8793c01683350743e96fe440594528298f490600090a250565b6000610b09613a11565b6000611e6983611d50565b80546bffffffffffffffffffffffff60601b1916600160601b63ffffffff949094169390930267ffffffffffffffff60801b191692909217600160801b436001600160401b031602179091555050565b6060806000611ed76001600080516020614ef2833981519152614c48565b600086815260208281526040808320888452909152902080549192508291611f8b908290611f0490614be7565b80601f0160208091040260200160405190810160405280929190818152602001828054611f3090614be7565b8015611f7d5780601f10611f5257610100808354040283529160200191611f7d565b820191906000526020600020905b815481529060010190602001808311611f6057829003601f168201915b505050505060006030612a7e565b9450612023818054611f9c90614be7565b80601f0160208091040260200160405190810160405280929190818152602001828054611fc890614be7565b80156120155780601f10611fea57610100808354040283529160200191612015565b820191906000526020600020905b815481529060010190602001808311611ff857829003601f168201915b505050505060306060612a7e565b93505050509250929050565b6060600061204c6001600080516020614ef2833981519152614c48565b60008581526020828152604080832087845290915290208054919250829161207390614be7565b80601f016020809104026020016040519081016040528092919081815260200182805461209f90614be7565b80156120ec5780601f106120c1576101008083540402835291602001916120ec565b820191906000526020600020905b8154815290600101906020018083116120cf57829003601f168201915b50505050509250505092915050565b60006121166001600080516020614ef2833981519152614c48565b600085815260208281526040808320878452825290912084519293508392610f8e928601906144c1565b60008061215c6001600080516020614ed2833981519152614c48565b5492915050565b6000610b0961219360017f82055909238c0f5e63d6f174068ebb8f51bcec9bd37de63bb68f6551feec0cfd614c48565b5490565b60006121a1613a41565b905060005b818110156119765760006121b982613a6f565b604080516101008101909152815460ff16151581526001820180549192916020840191906121e690614be7565b80601f016020809104026020016040519081016040528092919081815260200182805461221290614be7565b801561225f5780601f106122345761010080835404028352916020019161225f565b820191906000526020600020905b81548152906001019060200180831161224257829003601f168201915b505050505081526020016002820160009054906101000a90046001600160a01b03166001600160a01b03166001600160a01b03168152602001600382015481526020016004820154815260200160058201548152602001600682015481526020016007820154815250509050612356604051806101000160405280836060015163ffffffff168152602001836080015163ffffffff168152602001600063ffffffff1681526020018360a0015163ffffffff1681526020018360e001516001600160401b031681526020018360000151151581526020018360200151815260200183604001516001600160a01b03168152506128b1565b50506001016121a6565b6000610b0961219360017f1ec4138404500a2a0be2c2f9b103581c2a7fa783a934f91a6cc5cc924404973c614c48565b60608060008061239e613af2565b91509150806000141561240e5760408051600080825260208201909252906123d6565b60608152602001906001900390816123c15790505b506040805160008082526020820190925290612402565b60608152602001906001900390816123ed5790505b50935093505050915091565b84156125b15760005b818110156124535761244183828151811061243457612434614c1c565b6020026020010151613df5565b1561244b57612453565b600101612417565b8181141561246157506125b1565b600061246e826001614cad565b90505b828110156124de5761249b84838151811061248e5761248e614c1c565b6020026020010151613e21565b6124b085838151811061248e5761248e614c1c565b1080156124cd57506124cd84828151811061243457612434614c1c565b156124d6578091505b600101612471565b5060006125686125628584815181106124f9576124f9614c1c565b60200260200101516080015186858151811061251757612517614c1c565b60200260200101516020015161252d9190614d5e565b86858151811061253f5761253f614c1c565b6020026020010151600001516125559190614c5f565b63ffffffff1660056127d9565b886127d9565b90508084838151811061257d5761257d614c1c565b60200260200101516080018181516125959190614d5e565b63ffffffff169052506125a88188614c48565b9650505061240e565b60005b818110156127715760008382815181106125d0576125d0614c1c565b60200260200101516080015163ffffffff1611156127615760008061265f85848151811061260057612600614c1c565b60200260200101516060015163ffffffff1686858151811061262457612624614c1c565b60200260200101516020015163ffffffff1687868151811061264857612648614c1c565b60200260200101516080015163ffffffff16613798565b9150915084838151811061267557612675614c1c565b60200260200101516060015163ffffffff167f0786596b8e43634ef53d523fd318795a1182175b0b0a658bc4aac58ecfcc54118360006040516126b9929190614d86565b60405180910390a26126cb8783613e60565b96506126d78682613e60565b95508483815181106126eb576126eb614c1c565b60200260200101516080015161272386858151811061270c5761270c614c1c565b60200260200101516060015163ffffffff16611d50565b8054600490612740908490600160201b900463ffffffff16614d5e565b92506101000a81548163ffffffff021916908363ffffffff16021790555050505b61276a81614daa565b90506125b4565b505050915091565b6000610b0961219360017f454a273f43f7a440caab7e87ede33c979fd5ce1089b8f9673df5cd96eee6fa61614c48565b6000610b0961219360017f880a06be809dc0e7b0a5d0337dde6feeb9b73d3fb19eb22d618ab89523593501614c48565b60008183116127e857826127ea565b815b9392505050565b6127fa81613f6a565b60408051838152602081018390527f209bf6aaa2d8c150b27b3c081f8c86a46f008cc41d11f2ffaeb0a08d9b933e06910160405180910390a15050565b80516105a757604051638d46fe0560e01b815260040160405180910390fd5b600080612861612a3d565b805490915061287257600091505090565b8060008154811061288557612885614c1c565b90600052602060002090600891828204019190066004029054906101000a900463ffffffff1691505090565b60006128c08260e001516139a8565b6128cd8260c00151612837565b60006128e86001600080516020614ed2833981519152614c48565b8054600181810183556000838152602090819020875160039094020180548289015160408a015160608b015160808c015160a08d01511515600160c01b0260ff60c01b196001600160401b03909216600160801b029190911668ffffffffffffffffff60801b1963ffffffff938416600160601b0263ffffffff60601b19958516600160401b029590951667ffffffffffffffff60401b19968516600160201b0267ffffffffffffffff1990981694909b169390931795909517939093169790971717959095161793909317835560c0870151805194955085948894936129d4939085019201906144c1565b5060e09190910151600290910180546001600160a01b0319166001600160a01b03909216919091179055549392505050565b612a0f816139a8565b6105a7611d4760017f1ec4138404500a2a0be2c2f9b103581c2a7fa783a934f91a6cc5cc924404973c614c48565b6000806114b160017fca4f80ba17934f16b2ab62d95f37e3941e8ecf8da46337200d0a2c44b7d6be38614c48565b60006114b1612a78612a3d565b83613f98565b60608182601f011015612aa4576040516323d5783d60e11b815260040160405180910390fd5b612aae8284614cad565b84511015612acf57604051633b99b53d60e01b815260040160405180910390fd5b606082158015612aee5760405191506000825260208201604052612b38565b6040519150601f8416801560200281840101858101878315602002848b0101015b81831015612b27578051835260209283019201612b0f565b5050858452601f01601f1916604052505b50949350505050565b6000806000612b4e613fff565b915091506000612b5c612a3d565b905081612b6e57506000949350505050565b846000612b796127a9565b90508060005b85811015612cc1576000878281518110612b9b57612b9b614c1c565b60200260200101516020015190506000612bd8878a8581518110612bc157612bc1614c1c565b60200260200101516040015163ffffffff16613f98565b90508063ffffffff168263ffffffff161015612cb757888381518110612c0057612c00614c1c565b60200260200101516040015163ffffffff167f281aaa50816d3a5bf2911e3c0854a3f2ebe4880698575d799ff5becfd74d77788383604051612c5592919063ffffffff92831681529116602082015260400190565b60405180910390a2612c678282614c5f565b898481518110612c7957612c79614c1c565b6020026020010151606001818151612c919190614d5e565b63ffffffff16905250612ca48282614c5f565b612cb49063ffffffff1686614cad565b94505b5050600101612b7f565b505b8715612e97576000806000805b88811015612d64576000612cfc8b8381518110612cef57612cef614c1c565b6020026020010151614296565b90508463ffffffff168163ffffffff161415612d2257612d1b83614dc5565b9250612d5b565b8463ffffffff168163ffffffff161115612d43579392506001915083612d5b565b8363ffffffff168163ffffffff161115612d5b578093505b50600101612cd0565b5063ffffffff8316612d7857505050612e97565b6000612d9e82612d888587614c5f565b612d929190614de9565b63ffffffff168d6127d9565b90506000612dac8383614e2b565b63ffffffff1690506000612dc08484614e4e565b905060005b8b811015612e67578663ffffffff16612de98e8381518110612cef57612cef614c1c565b63ffffffff161415612e5f576000808411612e05576000612e08565b60015b612e159060ff1684614d5e565b9050808e8381518110612e2a57612e2a614c1c565b6020026020010151606001818151612e429190614d5e565b63ffffffff169052508315612e5d57612e5a84614e71565b93505b505b600101612dc5565b50612e7863ffffffff841689614cad565b9750612e8a63ffffffff84168f614c48565b9d50505050505050612cc3565b60005b85811015612fa9576000878281518110612eb657612eb6614c1c565b60200260200101516060015163ffffffff161115612fa1576000878281518110612ee257612ee2614c1c565b60200260200101516040015163ffffffff1690506000888381518110612f0a57612f0a614c1c565b602002602001015160600151898481518110612f2857612f28614c1c565b602002602001015160200151612f3e9190614d5e565b905080612f4a83611d50565b805463ffffffff60401b1916600160401b63ffffffff93841602179055604051908216815282907f0377278faa3eeab09525915d783771e1b00fec4797719afc368b56f6856279259060200160405180910390a250505b600101612e9a565b50808214612ff457612fba826142b8565b60408051828152602081018490527f0aa79fd8feb16e52ff075abb8f8bec67362d3b06b2ed230008e7810515286bf0910160405180910390a15b612ffe8884614c48565b98975050505050505050565b606060006130276001600080516020614ed2833981519152614c48565b80549091508190600090815b8181101561307f5783600001818154811061305057613050614c1c565b6000918252602090912060039091020154600160c01b900460ff1615613077578260010192505b600101613033565b506000826001600160401b0381111561309a5761309a614c84565b6040519080825280602002602001820160405280156130d357816020015b6130c06143fa565b8152602001906001900390816130b85790505b5090506000805b83811015613289578560000181815481106130f7576130f7614c1c565b6000918252602090912060039091020154600160c01b900460ff16156132815785600001818154811061312c5761312c614c1c565b600091825260209182902060408051610100810182526003909302909101805463ffffffff8082168552600160201b8204811695850195909552600160401b8104851692840192909252600160601b820490931660608301526001600160401b03600160801b820416608083015260ff600160c01b90910416151560a082015260018201805491929160c0840191906131c490614be7565b80601f01602080910402602001604051908101604052809291908181526020018280546131f090614be7565b801561323d5780601f106132125761010080835404028352916020019161323d565b820191906000526020600020905b81548152906001019060200180831161322057829003601f168201915b5050509183525050600291909101546001600160a01b0316602090910152835184908490811061326f5761326f614c1c565b60200260200101819052508160010191505b6001016130da565b50909695505050505050565b81806132b4576040516397791ee160e01b815260040160405180910390fd5b60006132be6142e6565b80549091506132ce600184614c48565b11156132ed57604051634eb7083160e01b815260040160405180910390fd5b60006132f7612a3d565b80548060200260200160405190810160405280929190818152602001828054801561336d57602002820191906000526020600020906000905b82829054906101000a900463ffffffff1663ffffffff16815260200190600401906020826003010492830192600103820291508084116133305790505b505083519394505050508084101561339857604051634dbe00c960e01b815260040160405180910390fd5b6000878760008181106133ad576133ad614c1c565b90506020020160208101906133c29190614d08565b9050600060015b8381101561357b578481815181106133e3576133e3614c1c565b602002602001015163ffffffff168a8a8381811061340357613403614c1c565b90506020020160208101906134189190614d08565b63ffffffff16101561343d576040516333bbc48560e21b815260040160405180910390fd5b85613449600183614c48565b8154811061345957613459614c1c565b6000918252602090912060039091020154600160201b900463ffffffff168a8a8381811061348957613489614c1c565b905060200201602081019061349e9190614d08565b63ffffffff161115613540576134b5600182614c48565b8a8a838181106134c7576134c7614c1c565b90506020020160208101906134dc9190614d08565b876134e8600185614c48565b815481106134f8576134f8614c1c565b600091825260209091206003909102015460405163febc7af160e01b8152600481019390935263ffffffff9182166024840152600160201b900416604482015260640161053e565b89898281811061355257613552614c1c565b90506020020160208101906135679190614d08565b6135719083614d5e565b91506001016133c9565b86811015613636578561358f600183614c48565b8154811061359f5761359f614c1c565b6000918252602090912060039091020154600160201b900463ffffffff168a8a838181106135cf576135cf614c1c565b90506020020160208101906135e49190614d08565b63ffffffff1611156135fb576134b5600182614c48565b89898281811061360d5761360d614c1c565b90506020020160208101906136229190614d08565b61362c9083614d5e565b915060010161357b565b8163ffffffff168363ffffffff161461366257604051636be992a360e11b815260040160405180910390fd5b878363ffffffff16111561368957604051634eb7083160e01b815260040160405180910390fd5b6136c58a8a8080602002602001604051908101604052809392919081815260200183836020028082843760009201919091525061430292505050565b7fb795d99e37bbcdcebb613387f4e924b750cbae0af45b48ba52bfe1137c10e9928a8a6040516136f6929190614e88565b60405180910390a150505050505050505050565b6000610b0961219360017ffd9ec671ae9f85315a7ebfb0534d94239eaacef5a704bcb705c041ce12491357614c48565b6105a7611d4760017ffd9ec671ae9f85315a7ebfb0534d94239eaacef5a704bcb705c041ce12491357614c48565b6000610b0961219360017fbd3f712f2cd882f839e84eb12fdaf64f8227409d140027dbdcd5e2ee4d57fa20614c48565b606080826001600160401b038111156137b3576137b3614c84565b6040519080825280602002602001820160405280156137e657816020015b60608152602001906001900390816137d15790505b509150826001600160401b0381111561380157613801614c84565b60405190808252806020026020018201604052801561383457816020015b606081526020019060019003908161381f5790505b50905060006138526001600080516020614ef2833981519152614c48565b90508060005b8581101561396f576000888152602083905260408120816138798a85614cad565b8152602001908152602001600020805461389290614be7565b80601f01602080910402602001604051908101604052809291908181526020018280546138be90614be7565b801561390b5780601f106138e05761010080835404028352916020019161390b565b820191906000526020600020905b8154815290600101906020018083116138ee57829003601f168201915b5050505050905061391f8160006030612a7e565b86838151811061393157613931614c1c565b60200260200101819052506139498160306060612a7e565b85838151811061395b5761395b614c1c565b602090810291909101015250600101613858565b505050935093915050565b6105a7611d4760017fbd3f712f2cd882f839e84eb12fdaf64f8227409d140027dbdcd5e2ee4d57fa20614c48565b6001600160a01b0381166105a75760405163f6b2911f60e01b815260040160405180910390fd5b6000610b0961219360017f6e6ab8b7c7aaba79eef8cc633522d606bb008c101cf9832c9ad05d10a9847281614c48565b6105a781614346565b6105a78161437d565b6000610b0961219360017fb5b37715a3e346e996104f0086703f19825def429233930fd9399c38e05fb113614c48565b60008061215c60017f794c962401f2e1bb68ba8627fb26fd4eea0439023c691c35b68bb144bfe10113614c48565b600080613a9d60017f794c962401f2e1bb68ba8627fb26fd4eea0439023c691c35b68bb144bfe10113614c48565b805490915081908410613ac6576040516302d72d2160e01b81526004810185905260240161053e565b806000018481548110613adb57613adb614c1c565b906000526020600020906008020192505050919050565b6060600080613b106001600080516020614ed2833981519152614c48565b8054909150819060009081816001600160401b03811115613b3357613b33614c84565b604051908082528060200260200182016040528015613b8c57816020015b6040805160a081018252600080825260208083018290529282018190526060820181905260808201528252600019909201910181613b515790505b5090506000613b99612a3d565b905060005b83811015613de657613cf2866000018281548110613bbe57613bbe614c1c565b600091825260209182902060408051610100810182526003909302909101805463ffffffff8082168552600160201b8204811695850195909552600160401b8104851692840192909252600160601b820490931660608301526001600160401b03600160801b820416608083015260ff600160c01b90910416151560a082015260018201805491929160c084019190613c5690614be7565b80601f0160208091040260200160405190810160405280929190818152602001828054613c8290614be7565b8015613ccf5780601f10613ca457610100808354040283529160200191613ccf565b820191906000526020600020905b815481529060010190602001808311613cb257829003601f168201915b5050509183525050600291909101546001600160a01b03166020909101526143ab565b8015613d3f5750856000018181548110613d0e57613d0e614c1c565b6000918252602090912060039091020154600160401b900463ffffffff16613d368383613f98565b63ffffffff1610155b15613dde576000866000018281548110613d5b57613d5b614c1c565b600091825260208083206040805160a0810182526003909402909101805463ffffffff8082168652600160201b8204811694860194909452600160401b900483169184019190915290851660608301526080820192909252855191925090859088908110613dcb57613dcb614c1c565b6020026020010181905250856001019550505b600101613b9e565b50909792965091945050505050565b80516080820151602083015160009263ffffffff1691613e1491614d5e565b63ffffffff161092915050565b6000613e36826060015163ffffffff16612a6b565b82608001518360200151613e4a9190614d5e565b613e549190614c5f565b63ffffffff1692915050565b6060600082518451613e729190614cad565b6001600160401b03811115613e8957613e89614c84565b604051908082528060200260200182016040528015613ebc57816020015b6060815260200190600190039081613ea75790505b50905060005b8451811015613f0a57848181518110613edd57613edd614c1c565b6020026020010151828281518110613ef757613ef7614c1c565b6020908102919091010152600101613ec2565b5060005b8351811015613f6257838181518110613f2957613f29614c1c565b602002602001015182865183613f3f9190614cad565b81518110613f4f57613f4f614c1c565b6020908102919091010152600101613f0e565b509392505050565b6105a7611d4760017f454a273f43f7a440caab7e87ede33c979fd5ce1089b8f9673df5cd96eee6fa61614c48565b8154600090613fa8836001614cad565b10613fb5575060006114b1565b82613fc1836001614cad565b81548110613fd157613fd1614c1c565b90600052602060002090600891828204019190066004029054906101000a900463ffffffff16905092915050565b606060008061401d6001600080516020614ed2833981519152614c48565b8054909150819060009081816001600160401b0381111561404057614040614c84565b60405190808252806020026020018201604052801561409257816020015b60408051608081018252600080825260208083018290529282018190526060820152825260001990920191018161405e5790505b50905060005b82811015614289576141ec8560000182815481106140b8576140b8614c1c565b600091825260209182902060408051610100810182526003909302909101805463ffffffff8082168552600160201b8204811695850195909552600160401b8104851692840192909252600160601b820490931660608301526001600160401b03600160801b820416608083015260ff600160c01b90910416151560a082015260018201805491929160c08401919061415090614be7565b80601f016020809104026020016040519081016040528092919081815260200182805461417c90614be7565b80156141c95780601f1061419e576101008083540402835291602001916141c9565b820191906000526020600020905b8154815290600101906020018083116141ac57829003601f168201915b5050509183525050600291909101546001600160a01b03166020909101526143cf565b1561428157600085600001828154811061420857614208614c1c565b60009182526020808320604080516080810182526003909402909101805463ffffffff600160201b820481168652600160401b90910481169385019390935291861690830152606082019290925284519192509084908790811061426e5761426e614c1c565b6020026020010181905250846001019450505b600101614098565b5096919550909350505050565b6000816060015182602001516142ac9190614d5e565b82516114b19190614c5f565b6105a7611d4760017f880a06be809dc0e7b0a5d0337dde6feeb9b73d3fb19eb22d618ab89523593501614c48565b6000806114b16001600080516020614ed2833981519152614c48565b600061432f60017fca4f80ba17934f16b2ab62d95f37e3941e8ecf8da46337200d0a2c44b7d6be38614c48565b82519091508190610af99082906020860190614535565b61434f816139a8565b6105a7611d4760017fb5b37715a3e346e996104f0086703f19825def429233930fd9399c38e05fb113614c48565b6105a7611d4760017f6e6ab8b7c7aaba79eef8cc633522d606bb008c101cf9832c9ad05d10a9847281614c48565b60008160a0015180156114b15750506020810151905163ffffffff91821691161190565b60008160a0015180156114b15750816040015163ffffffff16826020015163ffffffff161192915050565b604080516101008101825260008082526020820181905291810182905260608082018390526080820183905260a0820183905260c082015260e081019190915290565b82805461444990614be7565b90600052602060002090601f01602090048101928261446b57600085556144b1565b82601f106144845782800160ff198235161785556144b1565b828001600101855582156144b1579182015b828111156144b1578235825591602001919060010190614496565b506144bd9291506145db565b5090565b8280546144cd90614be7565b90600052602060002090601f0160209004810192826144ef57600085556144b1565b82601f1061450857805160ff19168380011785556144b1565b828001600101855582156144b1579182015b828111156144b157825182559160200191906001019061451a565b828054828255906000526020600020906007016008900481019282156144b15791602002820160005b838211156145a257835183826101000a81548163ffffffff021916908363ffffffff160217905550926020019260040160208160030104928301926001030261455e565b80156145d25782816101000a81549063ffffffff02191690556004016020816003010492830192600103026145a2565b50506144bd9291505b5b808211156144bd57600081556001016145dc565b60006020828403121561460257600080fd5b5035919050565b6000815180845260005b8181101561462f57602081850181015186830182015201614613565b81811115614641576000602083870101525b50601f01601f19169290920160200192915050565b600061010063ffffffff8084511685528060208501511660208601528060408501511660408601528060608501511660608601525060808301516146a560808601826001600160401b03169052565b5060a08301516146b960a086018215159052565b5060c08301518160c08601526146d182860182614609565b91505060e0830151613f6260e08601826001600160a01b03169052565b6020815260006127ea6020830184614656565b80356001600160a01b038116811461471857600080fd5b919050565b60006020828403121561472f57600080fd5b6127ea82614701565b60008083601f84011261474a57600080fd5b5081356001600160401b0381111561476157600080fd5b6020830191508360208260051b850101111561477c57600080fd5b9250929050565b60008060006040848603121561479857600080fd5b8335925060208401356001600160401b038111156147b557600080fd5b6147c186828701614738565b9497909650939450505050565b600081518084526020808501808196508360051b8101915082860160005b85811015614816578284038952614804848351614609565b988501989350908401906001016147ec565b5091979650505050505050565b60408152600061483660408301856147ce565b828103602084015261484881856147ce565b95945050505050565b6000806040838503121561486457600080fd5b50508035926020909101359150565b60008060008060006060868803121561488b57600080fd5b85356001600160401b03808211156148a257600080fd5b6148ae89838a01614738565b909750955060208801359150808211156148c757600080fd5b506148d488828901614738565b96999598509660400135949350505050565b60008083601f8401126148f857600080fd5b5081356001600160401b0381111561490f57600080fd5b60208301915083602082850101111561477c57600080fd5b60008060006040848603121561493c57600080fd5b8335925060208401356001600160401b0381111561495957600080fd5b6147c1868287016148e6565b60008060006040848603121561497a57600080fd5b83356001600160401b0381111561499057600080fd5b61499c868287016148e6565b90945092506149af905060208501614701565b90509250925092565b600080604083850312156149cb57600080fd5b6149d483614701565b91506149e260208401614701565b90509250929050565b6020808252825182820181905260009190848201906040850190845b8181101561328957835163ffffffff1683529284019291840191600101614a07565b60008060408385031215614a3c57600080fd5b8235915060208301358015158114614a5357600080fd5b809150509250929050565b606081526000614a716060830186614609565b8281036020840152614a838186614609565b9150508215156040830152949350505050565b6001600160a01b0391909116815260200190565b803563ffffffff8116811461471857600080fd5b60008060008060608587031215614ad457600080fd5b84359350614ae460208601614aaa565b925060408501356001600160401b03811115614aff57600080fd5b614b0b878288016148e6565b95989497509550505050565b6000602080830181845280855180835260408601915060408160051b870101925083870160005b82811015614b6c57603f19888603018452614b5a858351614656565b94509285019290850190600101614b3e565b5092979650505050505050565b600080600060408486031215614b8e57600080fd5b83356001600160401b03811115614ba457600080fd5b614bb086828701614738565b909790965060209590950135949350505050565b60008060408385031215614bd757600080fd5b823591506149e260208401614701565b600181811c90821680614bfb57607f821691505b6020821081141561140357634e487b7160e01b600052602260045260246000fd5b634e487b7160e01b600052603260045260246000fd5b634e487b7160e01b600052601160045260246000fd5b600082821015614c5a57614c5a614c32565b500390565b600063ffffffff83811690831681811015614c7c57614c7c614c32565b039392505050565b634e487b7160e01b600052604160045260246000fd5b6020815260006127ea6020830184614609565b60008219821115614cc057614cc0614c32565b500190565b81835281816020850137506000828201602090810191909152601f909101601f19169091010190565b838152604060208201526000614848604083018486614cc5565b600060208284031215614d1a57600080fd5b6127ea82614aaa565b602081526000614d37602083018486614cc5565b949350505050565b6000816000190483118215151615614d5957614d59614c32565b500290565b600063ffffffff808316818516808303821115614d7d57614d7d614c32565b01949350505050565b604081526000614d9960408301856147ce565b905082151560208301529392505050565b6000600019821415614dbe57614dbe614c32565b5060010190565b600063ffffffff80831681811415614ddf57614ddf614c32565b6001019392505050565b600063ffffffff80831681851681830481118215151615614e0c57614e0c614c32565b02949350505050565b634e487b7160e01b600052601260045260246000fd5b600063ffffffff80841680614e4257614e42614e15565b92169190910692915050565b600063ffffffff80841680614e6557614e65614e15565b92169190910492915050565b600081614e8057614e80614c32565b506000190190565b60208082528181018390526000908460408401835b86811015614ec65763ffffffff614eb384614aaa565b1682529183019190830190600101614e9d565b50969550505050505056fed952c686c15834d48f07b553712c51f877261827559f149880caa855efa22f7d6018b2d18c7378174a403e179ce41a2df430338a150b2bcec4b7a08291285574a26469706673582212203958443d242e8b69406817ebd0a2a5b9cc83bc32e7a8a8a6501149ecc16674eb64736f6c634300080a0033",
  "devdoc": {
    "author": "Kiln",
    "errors": {
      "InactiveOperator(uint256)": [
        {
          "params": {
            "index": "The operator index"
          }
        }
      ],
      "InvalidInitialization(uint256,uint256)": [
        {
          "params": {
            "expectedVersion": "The version that was expected",
            "version": "The version that was attempting to be initialized"
          }
        }
      ],
      "OperatorLimitTooHigh(uint256,uint256,uint256)": [
        {
          "params": {
            "index": "The operator index",
            "keyCount": "The operator key count",
            "limit": "The new limit provided"
          }
        }
      ],
      "OperatorLimitTooLow(uint256,uint256,uint256)": [
        {
          "params": {
            "fundedKeyCount": "The operator funded key count",
            "index": "The operator index",
            "limit": "The new limit provided"
          }
        }
      ],
      "OperatorNotFound(uint256)": [
        {
          "params": {
            "index": "The provided index"
          }
        },
        {
          "params": {
            "index": "The provided index"
          }
        }
      ],
      "Unauthorized(address)": [
        {
          "params": {
            "caller": "Address performing the call"
          }
        }
      ]
    },
    "kind": "dev",
    "methods": {
      "acceptAdmin()": {
        "details": "Only callable by the pending admin. Resets the pending admin if succesful."
      },
      "addOperator(string,address)": {
        "details": "Only callable by the administrator",
        "params": {
          "_name": "The name identifying the operator",
          "_operator": "The address representing the operator, receiving the rewards"
        },
        "returns": {
          "_0": "The index of the new operator"
        }
      },
      "addValidators(uint256,uint32,bytes)": {
        "details": "Only callable by the administrator or the operator address",
        "params": {
          "_index": "The operator index",
          "_keyCount": "The amount of keys provided",
          "_publicKeysAndSignatures": "Public keys of the validator, concatenated"
        }
      },
      "demandValidatorExits(uint256,uint256)": {
        "details": "This method is only callable by the river contract, and to actually forward the information to the node operators via event emission, the unprotected requestValidatorExits method must be called",
        "params": {
          "_count": "The amount of exit requests to add to the demand",
          "_depositedValidatorCount": "The total deposited validator count"
        }
      },
      "forceFundedValidatorKeysEventEmission(uint256)": {
        "params": {
          "_amountToEmit": "The amount of events to emit at maximum in this call"
        }
      },
      "getAdmin()": {
        "returns": {
          "_0": "The admin address"
        }
      },
      "getCurrentValidatorExitsDemand()": {
        "returns": {
          "_0": "The current exit request demand"
        }
      },
      "getOperator(uint256)": {
        "params": {
          "_index": "The index of the operator"
        },
        "returns": {
          "_0": "The details of the operator"
        }
      },
      "getOperatorCount()": {
        "returns": {
          "_0": "The operator count"
        }
      },
      "getOperatorStoppedValidatorCount(uint256)": {
        "params": {
          "_idx": "The index of the operator"
        },
        "returns": {
          "_0": "The stopped validator count of the operator"
        }
      },
      "getPendingAdmin()": {
        "returns": {
          "_0": "The pending admin address"
        }
      },
      "getRiver()": {
        "returns": {
          "_0": "The address of River"
        }
      },
      "getStoppedAndRequestedExitCounts()": {
        "returns": {
          "_0": "The total stopped count",
          "_1": "The total requested exit count"
        }
      },
      "getStoppedValidatorCountPerOperator()": {
        "returns": {
          "_0": "The stopped validator array"
        }
      },
      "getTotalStoppedValidatorCount()": {
        "returns": {
          "_0": "The total stopped validator count"
        }
      },
      "getTotalValidatorExitsRequested()": {
        "returns": {
          "_0": "The total requested exit count"
        }
      },
      "getValidator(uint256,uint256)": {
        "params": {
          "_operatorIndex": "The index of the operator",
          "_validatorIndex": "The index of the validator"
        },
        "returns": {
          "funded": "True if validator has been funded",
          "publicKey": "The public key of the validator",
          "signature": "The signature used during deposit"
        }
      },
      "initOperatorsRegistryV1(address,address)": {
        "params": {
          "_admin": "Admin in charge of managing operators",
          "_river": "Address of River system"
        }
      },
      "listActiveOperators()": {
        "returns": {
          "_0": "The list of active operators and their details"
        }
      },
      "pickNextValidatorsToDeposit(uint256)": {
        "params": {
          "_count": "Max amount of keys requested"
        },
        "returns": {
          "publicKeys": "An array of public keys",
          "signatures": "An array of signatures linked to the public keys"
        }
      },
      "proposeAdmin(address)": {
        "details": "This security prevents setting an invalid address as an admin. The pendingadmin has to claim its ownership of the contract, and prove that the newaddress is able to perform regular transactions.",
        "params": {
          "_newAdmin": "New admin address"
        }
      },
      "removeValidators(uint256,uint256[])": {
        "details": "Only callable by the administrator or the operator addressThe indexes must be provided sorted in decreasing order and duplicate-free, otherwise the method will revertThe operator limit will be set to the lowest deleted key index if the operator's limit wasn't equal to its total key countThe operator or the admin cannot remove funded keysWhen removing validators, the indexes of specific unfunded keys can be changed in order to properlyremove the keys from the storage array. Beware of this specific behavior when chaining calls as thetargeted public key indexes can point to a different key after a first call was made and performedsome swaps",
        "params": {
          "_index": "The operator index",
          "_indexes": "The indexes of the keys to remove"
        }
      },
      "reportStoppedValidatorCounts(uint32[],uint256)": {
        "params": {
          "_depositedValidatorCount": "The total deposited validator count",
          "_stoppedValidatorCounts": "The new stopped validators array"
        }
      },
      "requestValidatorExits(uint256)": {
        "params": {
          "_count": "Max amount of exits to request"
        }
      },
      "setOperatorAddress(uint256,address)": {
        "details": "Only callable by the administrator or the previous operator address",
        "params": {
          "_index": "The operator index",
          "_newOperatorAddress": "The new address of the operator"
        }
      },
      "setOperatorLimits(uint256[],uint32[],uint256)": {
        "details": "Only callable by the administratorThe operator indexes must be in increasing order and contain no duplicateThe limit cannot exceed the total key count of the operatorThe _indexes and _newLimits must have the same length.Each limit value is applied to the operator index at the same index in the _indexes array.",
        "params": {
          "_newLimits": "The new staking limit of the operators",
          "_operatorIndexes": "The operator indexes, in increasing order and duplicate free",
          "_snapshotBlock": "The block number at which the snapshot was computed"
        }
      },
      "setOperatorName(uint256,string)": {
        "details": "Only callable by the administrator or the operator",
        "params": {
          "_index": "The operator index",
          "_newName": "The new operator name"
        }
      },
      "setOperatorStatus(uint256,bool)": {
        "details": "Only callable by the administrator",
        "params": {
          "_index": "The operator index",
          "_newStatus": "The new status of the operator"
        }
      }
    },
    "title": "Operators Registry (v1)",
    "version": 1
  },
  "userdoc": {
    "errors": {
      "FundedKeyEventMigrationComplete()": [
        {
          "notice": "Emitted when the event rebroadcasting is done and we attempt to broadcast new events"
        }
      ],
      "InactiveOperator(uint256)": [
        {
          "notice": "The calling operator is inactive"
        }
      ],
      "InvalidArrayLengths()": [
        {
          "notice": "The provided operator and limits array have different lengths"
        }
      ],
      "InvalidEmptyArray()": [
        {
          "notice": "The provided operator and limits array are empty"
        }
      ],
      "InvalidEmptyStoppedValidatorCountsArray()": [
        {
          "notice": "Thrown when an invalid empty stopped validator array is provided"
        }
      ],
      "InvalidEmptyString()": [
        {
          "notice": "The string is empty"
        }
      ],
      "InvalidFundedKeyDeletionAttempt()": [
        {
          "notice": "A funded key deletion has been attempted"
        }
      ],
      "InvalidIndexOutOfBounds()": [
        {
          "notice": "The index that is removed is out of bounds"
        }
      ],
      "InvalidInitialization(uint256,uint256)": [
        {
          "notice": "An error occured during the initialization"
        }
      ],
      "InvalidKeyCount()": [
        {
          "notice": "The provided key count is 0"
        }
      ],
      "InvalidKeysLength()": [
        {
          "notice": "The provided concatenated keys do not have the expected length"
        }
      ],
      "InvalidStoppedValidatorCountsSum()": [
        {
          "notice": "Thrown when the sum of stopped validators is invalid"
        }
      ],
      "InvalidUnsortedIndexes()": [
        {
          "notice": "The index provided are not sorted properly (descending order)"
        }
      ],
      "InvalidZeroAddress()": [
        {
          "notice": "The address is zero"
        }
      ],
      "NoExitRequestsToPerform()": [
        {
          "notice": "Thrown when no exit requests can be performed"
        }
      ],
      "OperatorLimitTooHigh(uint256,uint256,uint256)": [
        {
          "notice": "The value for the operator limit is too high"
        }
      ],
      "OperatorLimitTooLow(uint256,uint256,uint256)": [
        {
          "notice": "The value for the limit is too low"
        }
      ],
      "OperatorNotFound(uint256)": [
        {
          "notice": "The operator was not found"
        },
        {
          "notice": "The operator was not found"
        }
      ],
      "SliceOutOfBounds()": [
        {
          "notice": "The slice is outside of the initial bytes bounds"
        }
      ],
      "SliceOverflow()": [
        {
          "notice": "The length overflows an uint"
        }
      ],
      "StoppedValidatorCountsDecreased()": [
        {
          "notice": "Throw when an element in the stopped validator array is decreasing"
        }
      ],
      "StoppedValidatorCountsTooHigh()": [
        {
          "notice": "Thrown when the number of elements in the array is too high compared to operator count"
        }
      ],
      "Unauthorized(address)": [
        {
          "notice": "The operator is unauthorized for the caller"
        }
      ],
      "UnorderedOperatorList()": [
        {
          "notice": "The provided list of operators is not in increasing order"
        }
      ]
    },
    "events": {
      "AddedOperator(uint256,string,address)": {
        "notice": "A new operator has been added to the registry"
      },
      "AddedValidatorKeys(uint256,bytes)": {
        "notice": "The operator or the admin added new validator keys and signatures"
      },
      "FundedValidatorKeys(uint256,bytes[],bool)": {
        "notice": "A validator key got funded on the deposit contractThis event was introduced during a contract upgrade, in order to cover all possible public keys, this eventwill be replayed for past funded keys in order to have a complete coverage of all the funded public keys.In this particuliar scenario, the deferred value will be set to true, to indicate that we are not going to havethe expected additional events and side effects in the same transaction (deposit to official DepositContract etc ...) becausethe event was synthetically crafted."
      },
      "Initialize(uint256,bytes)": {
        "notice": "Emitted when the contract is properly initialized"
      },
      "OperatorEditsAfterSnapshot(uint256,uint256,uint256,uint256,uint256)": {
        "notice": "The operator edited its keys after the snapshot block"
      },
      "OperatorLimitUnchanged(uint256,uint256)": {
        "notice": "The call didn't alter the limit of the operator"
      },
      "RemovedValidatorKey(uint256,bytes)": {
        "notice": "The operator or the admin removed a public key and its signature from the registry"
      },
      "RequestedValidatorExits(uint256,uint256)": {
        "notice": "The requested exit count has been updated"
      },
      "SetAdmin(address)": {
        "notice": "The admin address changed"
      },
      "SetCurrentValidatorExitsDemand(uint256,uint256)": {
        "notice": "The exit request demand has been updated"
      },
      "SetOperatorAddress(uint256,address)": {
        "notice": "The operator address has been changed"
      },
      "SetOperatorLimit(uint256,uint256)": {
        "notice": "The operator limit has been changed"
      },
      "SetOperatorName(uint256,string)": {
        "notice": "The operator display name has been changed"
      },
      "SetOperatorStatus(uint256,bool)": {
        "notice": "The operator status has been changed"
      },
      "SetOperatorStoppedValidatorCount(uint256,uint256)": {
        "notice": "The operator stopped validator count has been changed"
      },
      "SetPendingAdmin(address)": {
        "notice": "The pending admin address changed"
      },
      "SetRiver(address)": {
        "notice": "The stored river address has been changed"
      },
      "SetTotalValidatorExitsRequested(uint256,uint256)": {
        "notice": "The total requested exit has been updated"
      },
      "UpdatedRequestedValidatorExitsUponStopped(uint256,uint32,uint32)": {
        "notice": "The requested exit count has been update to fill the gap with the reported stopped count"
      },
      "UpdatedStoppedValidators(uint32[])": {
        "notice": "The stopped validator array has been changedA validator is considered stopped if exiting, exited or slashedThis event is emitted when the oracle reports new stopped validators counts"
      }
    },
    "kind": "user",
    "methods": {
      "acceptAdmin()": {
        "notice": "Accept the transfer of ownership"
      },
      "addOperator(string,address)": {
        "notice": "Adds an operator to the registry"
      },
      "addValidators(uint256,uint32,bytes)": {
        "notice": "Adds new keys for an operator"
      },
      "demandValidatorExits(uint256,uint256)": {
        "notice": "Increases the exit request demand"
      },
      "forceFundedValidatorKeysEventEmission(uint256)": {
        "notice": "Utility to force the broadcasting of events. Will keep its progress in storage to prevent being DoSed by the number of keys"
      },
      "getAdmin()": {
        "notice": "Retrieves the current admin address"
      },
      "getCurrentValidatorExitsDemand()": {
        "notice": "Get the current exit request demand waiting to be triggeredThis value is the amount of exit requests that are demanded and not yet performed by the contract"
      },
      "getOperator(uint256)": {
        "notice": "Get operator details"
      },
      "getOperatorCount()": {
        "notice": "Get operator count"
      },
      "getOperatorStoppedValidatorCount(uint256)": {
        "notice": "Retrieve the stopped validator count for an operator index"
      },
      "getPendingAdmin()": {
        "notice": "Retrieve the current pending admin address"
      },
      "getRiver()": {
        "notice": "Retrieve the River address"
      },
      "getStoppedAndRequestedExitCounts()": {
        "notice": "Retrieve the total stopped and requested exit count"
      },
      "getStoppedValidatorCountPerOperator()": {
        "notice": "Retrieve the raw stopped validators array from storage"
      },
      "getTotalStoppedValidatorCount()": {
        "notice": "Retrieve the total stopped validator count"
      },
      "getTotalValidatorExitsRequested()": {
        "notice": "Retrieve the total requested exit countThis value is the amount of exit requests that have been performed, emitting an event for operators to catch"
      },
      "getValidator(uint256,uint256)": {
        "notice": "Get the details of a validator"
      },
      "initOperatorsRegistryV1(address,address)": {
        "notice": "Initializes the operators registry"
      },
      "initOperatorsRegistryV1_1()": {
        "notice": "Initializes the operators registry for V1_1"
      },
      "listActiveOperators()": {
        "notice": "Retrieve the active operator set"
      },
      "pickNextValidatorsToDeposit(uint256)": {
        "notice": "Retrieve validator keys based on operator statuses"
      },
      "proposeAdmin(address)": {
        "notice": "Proposes a new address as admin"
      },
      "removeValidators(uint256,uint256[])": {
        "notice": "Remove validator keys"
      },
      "reportStoppedValidatorCounts(uint32[],uint256)": {
        "notice": "Allows river to override the stopped validators arrayThis actions happens during the Oracle report processing"
      },
      "requestValidatorExits(uint256)": {
        "notice": "Public endpoint to consume the exit request demand and perform the actual exit requestsThe selection algorithm will pick validators based on their active validator countsThis value is computed by using the count of funded keys and taking into account the stopped validator counts and exit requests"
      },
      "setOperatorAddress(uint256,address)": {
        "notice": "Changes the operator address of an operator"
      },
      "setOperatorLimits(uint256[],uint32[],uint256)": {
        "notice": "Changes the operator staking limit"
      },
      "setOperatorName(uint256,string)": {
        "notice": "Changes the operator name"
      },
      "setOperatorStatus(uint256,bool)": {
        "notice": "Changes the operator status"
      }
    },
    "notice": "This contract handles the list of operators and their keys",
    "version": 1
  },
  "storageLayout": {
    "storage": [],
    "types": null
  }
}