{
  "address": "0x1c747ab61Ab1743ac800d851fDB5DB9ee401b858",
  "abi": [
    {
      "inputs": [
        {
          "internalType": "uint256",
          "name": "_epochId",
          "type": "uint256"
        },
        {
          "internalType": "address",
          "name": "_member",
          "type": "address"
        }
      ],
      "name": "AlreadyReported",
      "type": "error"
    },
    {
      "inputs": [
        {
          "internalType": "uint256",
          "name": "_prevTotalEth",
          "type": "uint256"
        },
        {
          "internalType": "uint256",
          "name": "_postTotalEth",
          "type": "uint256"
        },
        {
          "internalType": "uint256",
          "name": "_timeElapsed",
          "type": "uint256"
        },
        {
          "internalType": "uint256",
          "name": "_relativeLowerBound",
          "type": "uint256"
        }
      ],
      "name": "BeaconBalanceDecreaseOutOfBounds",
      "type": "error"
    },
    {
      "inputs": [
        {
          "internalType": "uint256",
          "name": "_prevTotalEth",
          "type": "uint256"
        },
        {
          "internalType": "uint256",
          "name": "_postTotalEth",
          "type": "uint256"
        },
        {
          "internalType": "uint256",
          "name": "_timeElapsed",
          "type": "uint256"
        },
        {
          "internalType": "uint256",
          "name": "_annualAprUpperBound",
          "type": "uint256"
        }
      ],
      "name": "BeaconBalanceIncreaseOutOfBounds",
      "type": "error"
    },
    {
      "inputs": [
        {
          "internalType": "uint256",
          "name": "_providedEpochId",
          "type": "uint256"
        },
        {
          "internalType": "uint256",
          "name": "_minExpectedEpochId",
          "type": "uint256"
        }
      ],
      "name": "EpochTooOld",
      "type": "error"
    },
    {
      "inputs": [],
      "name": "InvalidArgument",
      "type": "error"
    },
    {
      "inputs": [],
      "name": "InvalidCall",
      "type": "error"
    },
    {
      "inputs": [
        {
          "internalType": "uint256",
          "name": "version",
          "type": "uint256"
        },
        {
          "internalType": "uint256",
          "name": "expectedVersion",
          "type": "uint256"
        }
      ],
      "name": "InvalidInitialization",
      "type": "error"
    },
    {
      "inputs": [],
      "name": "InvalidZeroAddress",
      "type": "error"
    },
    {
      "inputs": [
        {
          "internalType": "uint256",
          "name": "_providedEpochId",
          "type": "uint256"
        },
        {
          "internalType": "uint256",
          "name": "_expectedFrameFirstEpochId",
          "type": "uint256"
        }
      ],
      "name": "NotFrameFirstEpochId",
      "type": "error"
    },
    {
      "inputs": [
        {
          "internalType": "address",
          "name": "caller",
          "type": "address"
        }
      ],
      "name": "Unauthorized",
      "type": "error"
    },
    {
      "anonymous": false,
      "inputs": [
        {
          "indexed": false,
          "internalType": "uint256",
          "name": "_epochId",
          "type": "uint256"
        },
        {
          "indexed": false,
          "internalType": "uint128",
          "name": "_newBeaconBalance",
          "type": "uint128"
        },
        {
          "indexed": false,
          "internalType": "uint32",
          "name": "_newBeaconValidatorCount",
          "type": "uint32"
        },
        {
          "indexed": false,
          "internalType": "address",
          "name": "_oracleMember",
          "type": "address"
        }
      ],
      "name": "BeaconReported",
      "type": "event"
    },
    {
      "anonymous": false,
      "inputs": [
        {
          "indexed": false,
          "internalType": "uint256",
          "name": "_epochId",
          "type": "uint256"
        }
      ],
      "name": "ExpectedEpochIdUpdated",
      "type": "event"
    },
    {
      "anonymous": false,
      "inputs": [
        {
          "indexed": false,
          "internalType": "uint256",
          "name": "_postTotalEth",
          "type": "uint256"
        },
        {
          "indexed": false,
          "internalType": "uint256",
          "name": "_prevTotalEth",
          "type": "uint256"
        },
        {
          "indexed": false,
          "internalType": "uint256",
          "name": "_timeElapsed",
          "type": "uint256"
        },
        {
          "indexed": false,
          "internalType": "uint256",
          "name": "_totalShares",
          "type": "uint256"
        }
      ],
      "name": "PostTotalShares",
      "type": "event"
    },
    {
      "anonymous": false,
      "inputs": [
        {
          "indexed": false,
          "internalType": "uint256",
          "name": "_newQuorum",
          "type": "uint256"
        }
      ],
      "name": "QuorumChanged",
      "type": "event"
    },
    {
      "inputs": [
        {
          "internalType": "address",
          "name": "_newOracleMember",
          "type": "address"
        }
      ],
      "name": "addMember",
      "outputs": [],
      "stateMutability": "nonpayable",
      "type": "function"
    },
    {
      "inputs": [],
      "name": "getAdministrator",
      "outputs": [
        {
          "internalType": "address",
          "name": "",
          "type": "address"
        }
      ],
      "stateMutability": "view",
      "type": "function"
    },
    {
      "inputs": [],
      "name": "getBeaconBounds",
      "outputs": [
        {
          "components": [
            {
              "internalType": "uint256",
              "name": "annualAprUpperBound",
              "type": "uint256"
            },
            {
              "internalType": "uint256",
              "name": "relativeLowerBound",
              "type": "uint256"
            }
          ],
          "internalType": "struct BeaconReportBounds.BeaconReportBoundsStruct",
          "name": "",
          "type": "tuple"
        }
      ],
      "stateMutability": "view",
      "type": "function"
    },
    {
      "inputs": [],
      "name": "getBeaconSpec",
      "outputs": [
        {
          "components": [
            {
              "internalType": "uint64",
              "name": "epochsPerFrame",
              "type": "uint64"
            },
            {
              "internalType": "uint64",
              "name": "slotsPerEpoch",
              "type": "uint64"
            },
            {
              "internalType": "uint64",
              "name": "secondsPerSlot",
              "type": "uint64"
            },
            {
              "internalType": "uint64",
              "name": "genesisTime",
              "type": "uint64"
            }
          ],
          "internalType": "struct BeaconSpec.BeaconSpecStruct",
          "name": "",
          "type": "tuple"
        }
      ],
      "stateMutability": "view",
      "type": "function"
    },
    {
      "inputs": [],
      "name": "getCurrentEpochId",
      "outputs": [
        {
          "internalType": "uint256",
          "name": "",
          "type": "uint256"
        }
      ],
      "stateMutability": "view",
      "type": "function"
    },
    {
      "inputs": [],
      "name": "getCurrentFrame",
      "outputs": [
        {
          "internalType": "uint256",
          "name": "_startEpochId",
          "type": "uint256"
        },
        {
          "internalType": "uint256",
          "name": "_startTime",
          "type": "uint256"
        },
        {
          "internalType": "uint256",
          "name": "_endTime",
          "type": "uint256"
        }
      ],
      "stateMutability": "view",
      "type": "function"
    },
    {
      "inputs": [],
      "name": "getExpectedEpochId",
      "outputs": [
        {
          "internalType": "uint256",
          "name": "",
          "type": "uint256"
        }
      ],
      "stateMutability": "view",
      "type": "function"
    },
    {
      "inputs": [
        {
          "internalType": "uint256",
          "name": "_epochId",
          "type": "uint256"
        }
      ],
      "name": "getFrameFirstEpochId",
      "outputs": [
        {
          "internalType": "uint256",
          "name": "",
          "type": "uint256"
        }
      ],
      "stateMutability": "view",
      "type": "function"
    },
    {
      "inputs": [],
      "name": "getGlobalReportStatus",
      "outputs": [
        {
          "internalType": "uint256",
          "name": "",
          "type": "uint256"
        }
      ],
      "stateMutability": "view",
      "type": "function"
    },
    {
      "inputs": [],
      "name": "getLastCompletedEpochId",
      "outputs": [
        {
          "internalType": "uint256",
          "name": "",
          "type": "uint256"
        }
      ],
      "stateMutability": "view",
      "type": "function"
    },
    {
      "inputs": [
        {
          "internalType": "address",
          "name": "_oracleMember",
          "type": "address"
        }
      ],
      "name": "getMemberReportStatus",
      "outputs": [
        {
          "internalType": "bool",
          "name": "",
          "type": "bool"
        }
      ],
      "stateMutability": "view",
      "type": "function"
    },
    {
      "inputs": [],
      "name": "getOracleMembers",
      "outputs": [
        {
          "internalType": "address[]",
          "name": "",
          "type": "address[]"
        }
      ],
      "stateMutability": "view",
      "type": "function"
    },
    {
      "inputs": [],
      "name": "getQuorum",
      "outputs": [
        {
          "internalType": "uint256",
          "name": "",
          "type": "uint256"
        }
      ],
      "stateMutability": "view",
      "type": "function"
    },
    {
      "inputs": [
        {
          "internalType": "uint256",
          "name": "_idx",
          "type": "uint256"
        }
      ],
      "name": "getReportVariant",
      "outputs": [
        {
          "internalType": "uint64",
          "name": "_beaconBalance",
          "type": "uint64"
        },
        {
          "internalType": "uint32",
          "name": "_beaconValidators",
          "type": "uint32"
        },
        {
          "internalType": "uint16",
          "name": "_reportCount",
          "type": "uint16"
        }
      ],
      "stateMutability": "view",
      "type": "function"
    },
    {
      "inputs": [],
      "name": "getReportVariantsCount",
      "outputs": [
        {
          "internalType": "uint256",
          "name": "",
          "type": "uint256"
        }
      ],
      "stateMutability": "view",
      "type": "function"
    },
    {
      "inputs": [],
      "name": "getRiver",
      "outputs": [
        {
          "internalType": "address",
          "name": "",
          "type": "address"
        }
      ],
      "stateMutability": "view",
      "type": "function"
    },
    {
      "inputs": [],
      "name": "getTime",
      "outputs": [
        {
          "internalType": "uint256",
          "name": "",
          "type": "uint256"
        }
      ],
      "stateMutability": "view",
      "type": "function"
    },
    {
      "inputs": [
        {
          "internalType": "address",
          "name": "_riverContractAddress",
          "type": "address"
        },
        {
          "internalType": "address",
          "name": "_administratorAddress",
          "type": "address"
        },
        {
          "internalType": "uint64",
          "name": "_epochsPerFrame",
          "type": "uint64"
        },
        {
          "internalType": "uint64",
          "name": "_slotsPerEpoch",
          "type": "uint64"
        },
        {
          "internalType": "uint64",
          "name": "_secondsPerSlot",
          "type": "uint64"
        },
        {
          "internalType": "uint64",
          "name": "_genesisTime",
          "type": "uint64"
        },
        {
          "internalType": "uint256",
          "name": "_annualAprUpperBound",
          "type": "uint256"
        },
        {
          "internalType": "uint256",
          "name": "_relativeLowerBound",
          "type": "uint256"
        }
      ],
      "name": "initOracleV1",
      "outputs": [],
      "stateMutability": "nonpayable",
      "type": "function"
    },
    {
      "inputs": [
        {
          "internalType": "address",
          "name": "_memberAddress",
          "type": "address"
        }
      ],
      "name": "isMember",
      "outputs": [
        {
          "internalType": "bool",
          "name": "",
          "type": "bool"
        }
      ],
      "stateMutability": "view",
      "type": "function"
    },
    {
      "inputs": [
        {
          "internalType": "address",
          "name": "_oracleMember",
          "type": "address"
        }
      ],
      "name": "removeMember",
      "outputs": [],
      "stateMutability": "nonpayable",
      "type": "function"
    },
    {
      "inputs": [
        {
          "internalType": "uint256",
          "name": "_epochId",
          "type": "uint256"
        },
        {
          "internalType": "uint64",
          "name": "_beaconBalance",
          "type": "uint64"
        },
        {
          "internalType": "uint32",
          "name": "_beaconValidators",
          "type": "uint32"
        }
      ],
      "name": "reportBeacon",
      "outputs": [],
      "stateMutability": "nonpayable",
      "type": "function"
    },
    {
      "inputs": [
        {
          "internalType": "uint256",
          "name": "_annualAprUpperBound",
          "type": "uint256"
        },
        {
          "internalType": "uint256",
          "name": "_relativeLowerBound",
          "type": "uint256"
        }
      ],
      "name": "setBeaconBounds",
      "outputs": [],
      "stateMutability": "nonpayable",
      "type": "function"
    },
    {
      "inputs": [
        {
          "internalType": "uint64",
          "name": "_epochsPerFrame",
          "type": "uint64"
        },
        {
          "internalType": "uint64",
          "name": "_slotsPerEpoch",
          "type": "uint64"
        },
        {
          "internalType": "uint64",
          "name": "_secondsPerSlot",
          "type": "uint64"
        },
        {
          "internalType": "uint64",
          "name": "_genesisTime",
          "type": "uint64"
        }
      ],
      "name": "setBeaconSpec",
      "outputs": [],
      "stateMutability": "nonpayable",
      "type": "function"
    },
    {
      "inputs": [
        {
          "internalType": "uint256",
          "name": "_newQuorum",
          "type": "uint256"
        }
      ],
      "name": "setQuorum",
      "outputs": [],
      "stateMutability": "nonpayable",
      "type": "function"
    }
  ],
  "transactionHash": "0x078a7d13177b7b6f3e02cb280ff8a98b82089d4416d1bfdb47379c6d98468456",
  "args": [],
  "numDeployments": 1,
  "solcInputHash": "34fe570511577a99672ba6468afacb98",
  "bytecode": "0x608060405234801561001057600080fd5b50611e20806100206000396000f3fe608060405234801561001057600080fd5b50600436106101585760003560e01c806393ef4511116100c3578063c26c12eb1161007c578063c26c12eb146102e4578063ca6d56dc146102ec578063dabb5757146102ff578063e547c77c14610314578063e90b2da11461035f578063fad2e86a1461037257600080fd5b806393ef451114610278578063a230c5241461029b578063a29a839f146102ae578063a519f060146102b6578063bc8b8f97146102be578063c1ba4e59146102d157600080fd5b80635190dce0116101155780635190dce0146101fe578063557ed1ba1461022157806357fa85471461022757806372f79b131461023a57806389896aef1461025d57806391f10da01461026557600080fd5b80630b1ca49a1461015d5780631045a9661461017257806314c8cd6a146101b857806316967407146101ce57806331f208b3146101e35780634b47b74f146101f6575b600080fd5b61017061016b366004611a50565b61037a565b005b610185610180366004611a6b565b6103fa565b604080516001600160401b03909416845263ffffffff909216602084015261ffff16908201526060015b60405180910390f35b6101c0610443565b6040519081526020016101af565b6101d6610452565b6040516101af9190611a84565b6101706101f1366004611aaf565b61045c565b6101c06106b6565b61021161020c366004611a50565b6106c0565b60405190151581526020016101af565b426101c0565b6101c0610235366004611a6b565b6106de565b6102426106f5565b604080519384526020840192909252908201526060016101af565b6101c06107ae565b610170610273366004611af8565b6107b8565b610280610810565b604080518251815260209283015192810192909252016101af565b6102116102a9366004611a50565b61082c565b6101c0610894565b6101d66108b0565b6101706102cc366004611b1a565b6108ba565b6101706102df366004611a6b565b610999565b6101c0610abc565b6101706102fa366004611a50565b610ac6565b610307610b38565b6040516101af9190611ba3565b61031c610b42565b6040516101af919081516001600160401b039081168252602080840151821690830152604080840151821690830152606092830151169181019190915260800190565b61017061036d366004611bf0565b610b6e565b6101c0610bf6565b610382610c06565b6001600160a01b0316336001600160a01b0316146103be573360405163472511eb60e11b81526004016103b59190611a84565b60405180910390fd5b60006103c982610c10565b905060008112156103ed5760405163574b16a760e11b815260040160405180910390fd5b6103f681610c91565b5050565b600080600080610408610d74565b858151811061041957610419611c44565b6020026020010151905061043681603081901c9160109190911c90565b9096909550909350915050565b600061044d610de9565b905090565b600061044d610c06565b6000610466610e0b565b90506000610472610ea4565b90508085101561049f576040516304f6456960e11b815260048101869052602481018290526044016103b5565b808511156104f25760006104bb6104b584610ed4565b84610f22565b90508086146104e75760405163983b675160e01b815260048101879052602481018290526044016103b5565b6104f086610f44565b505b600061050b6001600160401b038616633b9aca00611c70565b604080518881526001600160801b038316602082015263ffffffff87168183015233606082015290519192507ff9088c3664056902a1be808c28981aa5e97da5f1a2b3557233d04eed40a9b42a919081900360800190a1600061056d33610c10565b9050806000191415610594573360405163472511eb60e11b81526004016103b59190611a84565b61059d81610f93565b156105c457604051637a6a90d160e11b8152600481018890523360248201526044016103b5565b6105cd81610fc4565b601085901b65ffffffff000016603087901b6dffffffffffffffff000000000000161760006105fb82611008565b9050600061060761107a565b90506000821261067d57600061061b610d74565b838151811061062c5761062c611c44565b602002602001015190508161063e8290565b610649906001611c9f565b61ffff16106106635761065e8b878b8b6110aa565b610677565b61067783610672836001611cc5565b611329565b506106aa565b8060011415610697576106928a868a8a6110aa565b6106aa565b6106aa6106a5846001611cc5565b611371565b50505050505050505050565b600061044d610ea4565b6000806106cc83610c10565b90506106d781610f93565b9392505050565b6000806106e9610e0b565b90506106d78382610f22565b600080600080610703610e0b565b905061071761071182610ed4565b82610f22565b935080602001516001600160401b031681604001516001600160401b0316856107409190611cdd565b61074a9190611cdd565b81606001516001600160401b03166107629190611cc5565b9250600181600001518260200151836040015161077f9190611cfc565b6107899190611cfc565b61079c906001600160401b031685611cc5565b6107a69190611d22565b915050909192565b600061044d6113a6565b6107c0610c06565b6001600160a01b0316336001600160a01b0316146107f3573360405163472511eb60e11b81526004016103b59190611a84565b6103f66040518060400160405280848152602001838152506113d6565b604080518082019091526000808252602082015261044d611419565b600080610837611479565b905060005b815181101561088a57836001600160a01b031682828151811061086157610861611c44565b60200260200101516001600160a01b03161415610882575060019392505050565b60010161083c565b5060009392505050565b60008061089f610e0b565b90506108aa81610ed4565b91505090565b600061044d6114f7565b60006108c4611527565b81146108f557806108d3611527565b604051631cfd276760e31b8152600481019290925260248201526044016103b5565b610908610903826001611cc5565b611557565b6109118861158d565b61091a89611596565b6109676040518060800160405280896001600160401b03168152602001886001600160401b03168152602001876001600160401b03168152602001866001600160401b03168152506115eb565b6109846040518060400160405280858152602001848152506113d6565b61098e6001611684565b505050505050505050565b6109a1610c06565b6001600160a01b0316336001600160a01b0316146109d4573360405163472511eb60e11b81526004016103b59190611a84565b806109f25760405163a9cb9e0d60e01b815260040160405180910390fd5b60006109fc61107a565b905080821415610a1f5760405163574b16a760e11b815260040160405180910390fd5b610a2882611684565b6040518281527f027863d12a407097e086a48e36475bfc859d0b200b7e6f65b5fd3b218e46632e9060200160405180910390a1818111156103f657600080610a6f846116b2565b915091508115610ab657603081901c601082901c610ab3610a8e610ea4565b610aa56001600160401b038516633b9aca00611c70565b83610aae610e0b565b6110aa565b50505b50505050565b600061044d61107a565b610ace610c06565b6001600160a01b0316336001600160a01b031614610b01573360405163472511eb60e11b81526004016103b59190611a84565b6000610b0c82610c10565b905060008112610b2f5760405163574b16a760e11b815260040160405180910390fd5b6103f6826117cb565b606061044d611479565b60408051608081018252600080825260208201819052918101829052606081019190915261044d610e0b565b610b76610c06565b6001600160a01b0316336001600160a01b031614610ba9573360405163472511eb60e11b81526004016103b59190611a84565b610ab66040518060800160405280866001600160401b03168152602001856001600160401b03168152602001846001600160401b03168152602001836001600160401b03168152506115eb565b6000610c00610d74565b51905090565b600061044d61181b565b600080610c2c6001600080516020611d8b833981519152611d22565b90508060005b8154811015610c8557846001600160a01b0316826000018281548110610c5a57610c5a611c44565b6000918252602090912001546001600160a01b03161415610c7d57949350505050565b600101610c32565b50600019949350505050565b6000610cac6001600080516020611d8b833981519152611d22565b80549091508190600090610cc290600190611d22565b9050838114610d3b57816000018181548110610ce057610ce0611c44565b60009182526020909120015482546001600160a01b0390911690839086908110610d0c57610d0c611c44565b9060005260206000200160006101000a8154816001600160a01b0302191690836001600160a01b031602179055505b8154829080610d4c57610d4c611d39565b600082815260209020810160001990810180546001600160a01b031916905501905550505050565b60606000610d916001600080516020611dcb833981519152611d22565b8054604080516020808402820181019092528281529293508392918391830182828015610ddd57602002820191906000526020600020905b815481526020019060010190808311610dc9575b50505050509250505090565b600061044d610e076001600080516020611dab833981519152611d22565b5490565b604080516080810182526000808252602082018190529181018290526060810182905290610e5a60017f910cad6638f0b06b72ead1455bffc33be6e9b1c24417cc3f692aaaf0bef75a16611d22565b6040805160808101825291546001600160401b038082168452600160401b820481166020850152600160801b8204811692840192909252600160c01b900416606082015292915050565b600061044d610e0760017f45d0d54fdd66220435526b0d20a3e002dad71447d5a32fb8efce72e62d4e0228611d22565b600081604001518260200151610eea9190611cfc565b6001600160401b031682606001516001600160401b0316610f084290565b610f129190611d22565b610f1c9190611d4f565b92915050565b80516000906001600160401b0316610f3a8185611d4f565b6106d79190611cdd565b610f4c61184b565b610f5461186f565b610f5d81611898565b6040518181527fcdcd275f4d96ed683d684f3610a92beacdebcf1ee4d37e2df526fb9001e1ea639060200160405180910390a150565b6000600180831b9081908190610fbb90610e0790600080516020611dab833981519152611d22565b16149392505050565b600180821b906103f690610fe690600080516020611dab833981519152611d22565b82611003610e076001600080516020611dab833981519152611d22565b179055565b6000806110246001600080516020611dcb833981519152611d22565b90508060005b8154811015610c8557846dffffffffffffffffffffffff000083600001838154811061105857611058611c44565b906000526020600020015416141561107257949350505050565b60010161102a565b600061044d610e0760017fffa4a5d927096d2bbb9d71111d7c9929ecbdcbe9bffc8d35f55b642e81698ebb611d22565b80516110c8906110c3906001600160401b031686611cc5565b610f44565b60006110d26114f7565b90506000816001600160a01b031663143a08d46040518163ffffffff1660e01b81526004016020604051808303816000875af1158015611116573d6000803e3d6000fd5b505050506040513d601f19601f8201168201806040525081019061113a9190611d71565b60405163406a013f60e11b815263ffffffff861660048201526001600160801b0387166024820152604481018890529091506001600160a01b038316906380d4027e90606401600060405180830381600087803b15801561119a57600080fd5b505af11580156111ae573d6000803e3d6000fd5b505050506000826001600160a01b031663143a08d46040518163ffffffff1660e01b81526004016020604051808303816000875af11580156111f4573d6000803e3d6000fd5b505050506040513d601f19601f820116820180604052508101906112189190611d71565b9050600084604001516001600160401b031685602001516001600160401b03166112406113a6565b61124a908b611d22565b6112549190611cdd565b61125e9190611cdd565b905061126b8284836118c6565b611274886119a6565b7fdafd48d1eba2a416b2aca45e9ead3ad18b84e868fa6d2e1a3048bfd37ed10a32828483876001600160a01b03166318160ddd6040518163ffffffff1660e01b81526004016020604051808303816000875af11580156112d8573d6000803e3d6000fd5b505050506040513d601f19601f820116820180604052508101906112fc9190611d71565b60408051948552602085019390935291830152606082015260800160405180910390a15050505050505050565b60006113446001600080516020611dcb833981519152611d22565b80549091508190839082908690811061135f5761135f611c44565b60009182526020909120015550505050565b600061138c6001600080516020611dcb833981519152611d22565b805460018101825560009182526020909120019190915550565b600061044d610e0760017faf3d74d3b4106d19ea8994739c1a66b48922195975ea284f4cd201487a79b9ed611d22565b600061140360017f8a8a043b81dd88a581f2aa1faf076f45266d72ec8307cdf217c10a967969249f611d22565b8251815560209092015160019092019190915550565b6040805180820190915260008082526020820152600061145a60017f8a8a043b81dd88a581f2aa1faf076f45266d72ec8307cdf217c10a967969249f611d22565b6040805180820190915281548152600190910154602082015292915050565b606060006114966001600080516020611d8b833981519152611d22565b8054604080516020808402820181019092528281529293508392918391830182828015610ddd57602002820191906000526020600020905b81546001600160a01b031681526001909101906020018083116114ce5750505050509250505090565b600061044d610e0760017f1ec4138404500a2a0be2c2f9b103581c2a7fa783a934f91a6cc5cc924404973c611d22565b600061044d610e0760017f82055909238c0f5e63d6f174068ebb8f51bcec9bd37de63bb68f6551feec0cfd611d22565b61158a61158560017f82055909238c0f5e63d6f174068ebb8f51bcec9bd37de63bb68f6551feec0cfd611d22565b829055565b50565b61158a816119d4565b6001600160a01b0381166115bd5760405163f6b2911f60e01b815260040160405180910390fd5b61158a61158560017f1ec4138404500a2a0be2c2f9b103581c2a7fa783a934f91a6cc5cc924404973c611d22565b600061161860017f910cad6638f0b06b72ead1455bffc33be6e9b1c24417cc3f692aaaf0bef75a16611d22565b82518154602085015160408601516060909601516001600160401b03908116600160c01b026001600160c01b03978216600160801b02979097166001600160801b03928216600160401b026001600160801b031990941691909416179190911716179290921790915550565b61158a61158560017fffa4a5d927096d2bbb9d71111d7c9929ecbdcbe9bffc8d35f55b642e81698ebb611d22565b60008060006116bf610d74565b905080516001141561171857836116ed826000815181106116e2576116e2611c44565b602002602001015190565b61ffff1610158160008151811061170657611706611c44565b60200260200101519250925050915091565b805161172a5750600093849350915050565b60008060008060005b8551811015611790576117518682815181106116e2576116e2611c44565b91508261ffff168261ffff1610611788578261ffff168261ffff16141561177d57836001019350611788565b809450819250600093505b600101611733565b50878261ffff16101580156117a3575082155b8585815181106117b5576117b5611c44565b6020026020010151965096505050505050915091565b60006117e66001600080516020611d8b833981519152611d22565b8054600181018255600091825260209091200180546001600160a01b0319166001600160a01b03939093169290921790915550565b600061044d610e0760017fb5b37715a3e346e996104f0086703f19825def429233930fd9399c38e05fb113611d22565b61186d6118676001600080516020611dab833981519152611d22565b60009055565b565b600061188a6001600080516020611dcb833981519152611d22565b9050806103f6816000611a02565b61158a61158560017f45d0d54fdd66220435526b0d20a3e002dad71447d5a32fb8efce72e62d4e0228611d22565b81831061193f5760006118d7611419565b519050816118e58483611cdd565b6118ef9190611cdd565b6118f98486611d22565b6119089064496cebb800611cdd565b1115610ab65760405163d86fb83d60e01b8152600481018490526024810185905260448101839052606481018290526084016103b5565b6000611949611419565b6020015190506119598382611cdd565b6119638585611d22565b61196f90612710611cdd565b1115610ab6576040516302aa46b960e21b8152600481018490526024810185905260448101839052606481018290526084016103b5565b61158a61158560017faf3d74d3b4106d19ea8994739c1a66b48922195975ea284f4cd201487a79b9ed611d22565b61158a61158560017fb5b37715a3e346e996104f0086703f19825def429233930fd9399c38e05fb113611d22565b508054600082559060005260206000209081019061158a91905b80821115611a305760008155600101611a1c565b5090565b80356001600160a01b0381168114611a4b57600080fd5b919050565b600060208284031215611a6257600080fd5b6106d782611a34565b600060208284031215611a7d57600080fd5b5035919050565b6001600160a01b0391909116815260200190565b80356001600160401b0381168114611a4b57600080fd5b600080600060608486031215611ac457600080fd5b83359250611ad460208501611a98565b9150604084013563ffffffff81168114611aed57600080fd5b809150509250925092565b60008060408385031215611b0b57600080fd5b50508035926020909101359150565b600080600080600080600080610100898b031215611b3757600080fd5b611b4089611a34565b9750611b4e60208a01611a34565b9650611b5c60408a01611a98565b9550611b6a60608a01611a98565b9450611b7860808a01611a98565b9350611b8660a08a01611a98565b925060c0890135915060e089013590509295985092959890939650565b6020808252825182820181905260009190848201906040850190845b81811015611be45783516001600160a01b031683529284019291840191600101611bbf565b50909695505050505050565b60008060008060808587031215611c0657600080fd5b611c0f85611a98565b9350611c1d60208601611a98565b9250611c2b60408601611a98565b9150611c3960608601611a98565b905092959194509250565b634e487b7160e01b600052603260045260246000fd5b634e487b7160e01b600052601160045260246000fd5b60006001600160801b0382811684821681151582840482111615611c9657611c96611c5a565b02949350505050565b600061ffff808316818516808303821115611cbc57611cbc611c5a565b01949350505050565b60008219821115611cd857611cd8611c5a565b500190565b6000816000190483118215151615611cf757611cf7611c5a565b500290565b60006001600160401b0380831681851681830481118215151615611c9657611c96611c5a565b600082821015611d3457611d34611c5a565b500390565b634e487b7160e01b600052603160045260246000fd5b600082611d6c57634e487b7160e01b600052601260045260246000fd5b500490565b600060208284031215611d8357600080fd5b505191905056fec4aba040293e5848600dd7b64a390db880c4a70937c23383e6c5b6619689863b50e65b39a6b6b7bb3298d9d19e41cecec530b7916ba516c44f4d79e3a9dcd7a7f1827321f6d023724a23b4e28f3ef67f741d185cff4e224f6dcbb56935784fcda2646970667358221220079e51a3a7c53cd6f8d876777c96a369fcb67a0132dd29550980d8b446d4272064736f6c634300080a0033",
  "devdoc": {
    "author": "Kiln",
    "kind": "dev",
    "methods": {
      "addMember(address)": {
        "details": "Only callable by the adminstrator",
        "params": {
          "_newOracleMember": "Address of the new member"
        }
      },
      "getFrameFirstEpochId(uint256)": {
        "params": {
          "_epochId": "Epoch id used to get the frame"
        }
      },
      "getMemberReportStatus(address)": {
        "params": {
          "_oracleMember": "Address of member to check"
        }
      },
      "getReportVariant(uint256)": {
        "params": {
          "_idx": "Index of report"
        }
      },
      "initOracleV1(address,address,uint64,uint64,uint64,uint64,uint256,uint256)": {
        "params": {
          "_administratorAddress": "Address able to call administrative methods",
          "_annualAprUpperBound": "Beacon bound parameter. Maximum apr allowed for balance increase. Delta between updates is extrapolated on a year time frame.",
          "_epochsPerFrame": "Beacon spec parameter. Number of epochs in a frame.",
          "_genesisTime": "Beacon spec parameter. Timestamp of the genesis slot.",
          "_relativeLowerBound": "Beacon bound parameter. Maximum relative balance decrease.",
          "_riverContractAddress": "Address of the River contract, able to receive oracle input data after quorum is met",
          "_secondsPerSlot": "Beacon spec parameter. Number of seconds between slots.",
          "_slotsPerEpoch": "Beacon spec parameter. Number of slots in one epoch."
        }
      },
      "isMember(address)": {
        "details": "Performs a naive search, do not call this on-chain, used as an off-chain helper",
        "params": {
          "_memberAddress": "Address of the member"
        }
      },
      "removeMember(address)": {
        "details": "Only callable by the adminstrator",
        "params": {
          "_oracleMember": "Address to remove"
        }
      },
      "reportBeacon(uint256,uint64,uint32)": {
        "details": "Only callable by an oracle member",
        "params": {
          "_beaconBalance": "Total balance of River validators",
          "_beaconValidators": "Total River validator count",
          "_epochId": "Epoch where the balance and validator count has been computed"
        }
      },
      "setBeaconBounds(uint256,uint256)": {
        "details": "Only callable by the adminstrator",
        "params": {
          "_annualAprUpperBound": "Maximum apr allowed for balance increase. Delta between updates is extrapolated on a year time frame.",
          "_relativeLowerBound": "Maximum relative balance decrease."
        }
      },
      "setBeaconSpec(uint64,uint64,uint64,uint64)": {
        "details": "Only callable by the adminstrator",
        "params": {
          "_epochsPerFrame": "Number of epochs in a frame.",
          "_genesisTime": "Timestamp of the genesis slot.",
          "_secondsPerSlot": "Number of seconds between slots.",
          "_slotsPerEpoch": "Number of slots in one epoch."
        }
      },
      "setQuorum(uint256)": {
        "details": "Only callable by the adminstrator",
        "params": {
          "_newQuorum": "New quorum parameter"
        }
      }
    },
    "title": "Oracle (v1)",
    "version": 1
  },
  "userdoc": {
    "kind": "user",
    "methods": {
      "addMember(address)": {
        "notice": "Adds new address as oracle member, giving the ability to push beacon reports."
      },
      "getAdministrator()": {
        "notice": "Retrieve system administrator address"
      },
      "getBeaconSpec()": {
        "notice": "Retrieve the current beacon spec"
      },
      "getCurrentEpochId()": {
        "notice": "Retrieve the current epoch id based on block timestamp"
      },
      "getCurrentFrame()": {
        "notice": "Retrieve the current frame details"
      },
      "getExpectedEpochId()": {
        "notice": "Retrieve expected epoch id"
      },
      "getFrameFirstEpochId(uint256)": {
        "notice": "Retrieve the first epoch id of the frame of the provided epoch id"
      },
      "getGlobalReportStatus()": {
        "notice": "Retrieve member report status"
      },
      "getLastCompletedEpochId()": {
        "notice": "Retrieve the last completed epoch id"
      },
      "getMemberReportStatus(address)": {
        "notice": "Retrieve member report status"
      },
      "getQuorum()": {
        "notice": "Retrieve the current quorum"
      },
      "getReportVariant(uint256)": {
        "notice": "Retrieve decoded report at provided index"
      },
      "getReportVariantsCount()": {
        "notice": "Retrieve report variants count"
      },
      "getRiver()": {
        "notice": "Retrieve River address"
      },
      "getTime()": {
        "notice": "Retrieve the block timestamp"
      },
      "initOracleV1(address,address,uint64,uint64,uint64,uint64,uint256,uint256)": {
        "notice": "Initializes the oracle"
      },
      "isMember(address)": {
        "notice": "Returns true if address is member"
      },
      "removeMember(address)": {
        "notice": "Removes an address from the oracle members."
      },
      "reportBeacon(uint256,uint64,uint32)": {
        "notice": "Report beacon chain data"
      },
      "setBeaconBounds(uint256,uint256)": {
        "notice": "Edits the beacon bounds parameters"
      },
      "setBeaconSpec(uint64,uint64,uint64,uint64)": {
        "notice": "Edits the beacon spec parameters"
      },
      "setQuorum(uint256)": {
        "notice": "Edits the quorum required to forward beacon data to River"
      }
    },
    "notice": "This contract handles the input from the allowed oracle members. Highly inspired by Lido's implementation.",
    "version": 1
  },
  "storageLayout": {
    "storage": [],
    "types": null
  }
}