{
  "address": "0xF97f445f63C85AAd51352aB9A6Ff72DF4Cc39872",
  "abi": [
    {
      "inputs": [
        {
          "internalType": "uint256",
          "name": "_epochId",
          "type": "uint256"
        },
        {
          "internalType": "address",
          "name": "_member",
          "type": "address"
        }
      ],
      "name": "AlreadyReported",
      "type": "error"
    },
    {
      "inputs": [
        {
          "internalType": "uint256",
          "name": "_prevTotalEth",
          "type": "uint256"
        },
        {
          "internalType": "uint256",
          "name": "_postTotalEth",
          "type": "uint256"
        },
        {
          "internalType": "uint256",
          "name": "_timeElapsed",
          "type": "uint256"
        },
        {
          "internalType": "uint256",
          "name": "_relativeLowerBound",
          "type": "uint256"
        }
      ],
      "name": "BeaconBalanceDecreaseOutOfBounds",
      "type": "error"
    },
    {
      "inputs": [
        {
          "internalType": "uint256",
          "name": "_prevTotalEth",
          "type": "uint256"
        },
        {
          "internalType": "uint256",
          "name": "_postTotalEth",
          "type": "uint256"
        },
        {
          "internalType": "uint256",
          "name": "_timeElapsed",
          "type": "uint256"
        },
        {
          "internalType": "uint256",
          "name": "_annualAprUpperBound",
          "type": "uint256"
        }
      ],
      "name": "BeaconBalanceIncreaseOutOfBounds",
      "type": "error"
    },
    {
      "inputs": [
        {
          "internalType": "uint256",
          "name": "_providedEpochId",
          "type": "uint256"
        },
        {
          "internalType": "uint256",
          "name": "_minExpectedEpochId",
          "type": "uint256"
        }
      ],
      "name": "EpochTooOld",
      "type": "error"
    },
    {
      "inputs": [],
      "name": "InvalidArgument",
      "type": "error"
    },
    {
      "inputs": [],
      "name": "InvalidCall",
      "type": "error"
    },
    {
      "inputs": [
        {
          "internalType": "uint256",
          "name": "version",
          "type": "uint256"
        },
        {
          "internalType": "uint256",
          "name": "expectedVersion",
          "type": "uint256"
        }
      ],
      "name": "InvalidInitialization",
      "type": "error"
    },
    {
      "inputs": [
        {
          "internalType": "uint256",
          "name": "_providedEpochId",
          "type": "uint256"
        },
        {
          "internalType": "uint256",
          "name": "_expectedFrameFirstEpochId",
          "type": "uint256"
        }
      ],
      "name": "NotFrameFirstEpochId",
      "type": "error"
    },
    {
      "inputs": [
        {
          "internalType": "address",
          "name": "caller",
          "type": "address"
        }
      ],
      "name": "Unauthorized",
      "type": "error"
    },
    {
      "anonymous": false,
      "inputs": [
        {
          "indexed": false,
          "internalType": "uint256",
          "name": "_epochId",
          "type": "uint256"
        },
        {
          "indexed": false,
          "internalType": "uint128",
          "name": "_newBeaconBalance",
          "type": "uint128"
        },
        {
          "indexed": false,
          "internalType": "uint32",
          "name": "_newBeaconValidatorCount",
          "type": "uint32"
        },
        {
          "indexed": false,
          "internalType": "address",
          "name": "_oracleMember",
          "type": "address"
        }
      ],
      "name": "BeaconReported",
      "type": "event"
    },
    {
      "anonymous": false,
      "inputs": [
        {
          "indexed": false,
          "internalType": "uint256",
          "name": "_epochId",
          "type": "uint256"
        }
      ],
      "name": "ExpectedEpochIdUpdated",
      "type": "event"
    },
    {
      "anonymous": false,
      "inputs": [
        {
          "indexed": false,
          "internalType": "uint256",
          "name": "_postTotalEth",
          "type": "uint256"
        },
        {
          "indexed": false,
          "internalType": "uint256",
          "name": "_prevTotalEth",
          "type": "uint256"
        },
        {
          "indexed": false,
          "internalType": "uint256",
          "name": "_timeElapsed",
          "type": "uint256"
        },
        {
          "indexed": false,
          "internalType": "uint256",
          "name": "_totalShares",
          "type": "uint256"
        }
      ],
      "name": "PostTotalShares",
      "type": "event"
    },
    {
      "anonymous": false,
      "inputs": [
        {
          "indexed": false,
          "internalType": "uint256",
          "name": "_newQuorum",
          "type": "uint256"
        }
      ],
      "name": "QuorumChanged",
      "type": "event"
    },
    {
      "inputs": [
        {
          "internalType": "address",
          "name": "_newOracleMember",
          "type": "address"
        }
      ],
      "name": "addMember",
      "outputs": [],
      "stateMutability": "nonpayable",
      "type": "function"
    },
    {
      "inputs": [],
      "name": "getBeaconBounds",
      "outputs": [
        {
          "components": [
            {
              "internalType": "uint256",
              "name": "annualAprUpperBound",
              "type": "uint256"
            },
            {
              "internalType": "uint256",
              "name": "relativeLowerBound",
              "type": "uint256"
            }
          ],
          "internalType": "struct BeaconReportBounds.BeaconReportBoundsStruct",
          "name": "",
          "type": "tuple"
        }
      ],
      "stateMutability": "view",
      "type": "function"
    },
    {
      "inputs": [],
      "name": "getBeaconSpec",
      "outputs": [
        {
          "components": [
            {
              "internalType": "uint64",
              "name": "epochsPerFrame",
              "type": "uint64"
            },
            {
              "internalType": "uint64",
              "name": "slotsPerEpoch",
              "type": "uint64"
            },
            {
              "internalType": "uint64",
              "name": "secondsPerSlot",
              "type": "uint64"
            },
            {
              "internalType": "uint64",
              "name": "genesisTime",
              "type": "uint64"
            }
          ],
          "internalType": "struct BeaconSpec.BeaconSpecStruct",
          "name": "",
          "type": "tuple"
        }
      ],
      "stateMutability": "view",
      "type": "function"
    },
    {
      "inputs": [],
      "name": "getCurrentEpochId",
      "outputs": [
        {
          "internalType": "uint256",
          "name": "",
          "type": "uint256"
        }
      ],
      "stateMutability": "view",
      "type": "function"
    },
    {
      "inputs": [],
      "name": "getExpectedEpochId",
      "outputs": [
        {
          "internalType": "uint256",
          "name": "",
          "type": "uint256"
        }
      ],
      "stateMutability": "view",
      "type": "function"
    },
    {
      "inputs": [
        {
          "internalType": "uint256",
          "name": "_epochId",
          "type": "uint256"
        }
      ],
      "name": "getFrameFirstEpochId",
      "outputs": [
        {
          "internalType": "uint256",
          "name": "",
          "type": "uint256"
        }
      ],
      "stateMutability": "view",
      "type": "function"
    },
    {
      "inputs": [
        {
          "internalType": "address",
          "name": "_oracleMember",
          "type": "address"
        }
      ],
      "name": "getMemberReportStatus",
      "outputs": [
        {
          "internalType": "bool",
          "name": "",
          "type": "bool"
        }
      ],
      "stateMutability": "view",
      "type": "function"
    },
    {
      "inputs": [],
      "name": "getTime",
      "outputs": [
        {
          "internalType": "uint256",
          "name": "",
          "type": "uint256"
        }
      ],
      "stateMutability": "view",
      "type": "function"
    },
    {
      "inputs": [
        {
          "internalType": "address",
          "name": "_riverContractAddress",
          "type": "address"
        },
        {
          "internalType": "address",
          "name": "_administratorAddress",
          "type": "address"
        },
        {
          "internalType": "uint64",
          "name": "_epochsPerFrame",
          "type": "uint64"
        },
        {
          "internalType": "uint64",
          "name": "_slotsPerEpoch",
          "type": "uint64"
        },
        {
          "internalType": "uint64",
          "name": "_secondsPerSlot",
          "type": "uint64"
        },
        {
          "internalType": "uint64",
          "name": "_genesisTime",
          "type": "uint64"
        },
        {
          "internalType": "uint256",
          "name": "_annualAprUpperBound",
          "type": "uint256"
        },
        {
          "internalType": "uint256",
          "name": "_relativeLowerBound",
          "type": "uint256"
        }
      ],
      "name": "initOracleV1",
      "outputs": [],
      "stateMutability": "nonpayable",
      "type": "function"
    },
    {
      "inputs": [
        {
          "internalType": "address",
          "name": "_memberAddress",
          "type": "address"
        }
      ],
      "name": "isMember",
      "outputs": [
        {
          "internalType": "bool",
          "name": "",
          "type": "bool"
        }
      ],
      "stateMutability": "view",
      "type": "function"
    },
    {
      "inputs": [
        {
          "internalType": "address",
          "name": "_oracleMember",
          "type": "address"
        }
      ],
      "name": "removeMember",
      "outputs": [],
      "stateMutability": "nonpayable",
      "type": "function"
    },
    {
      "inputs": [
        {
          "internalType": "uint256",
          "name": "_epochId",
          "type": "uint256"
        },
        {
          "internalType": "uint64",
          "name": "_beaconBalance",
          "type": "uint64"
        },
        {
          "internalType": "uint32",
          "name": "_beaconValidators",
          "type": "uint32"
        }
      ],
      "name": "reportBeacon",
      "outputs": [],
      "stateMutability": "nonpayable",
      "type": "function"
    },
    {
      "inputs": [
        {
          "internalType": "uint256",
          "name": "_annualAprUpperBound",
          "type": "uint256"
        },
        {
          "internalType": "uint256",
          "name": "_relativeLowerBound",
          "type": "uint256"
        }
      ],
      "name": "setBeaconBounds",
      "outputs": [],
      "stateMutability": "nonpayable",
      "type": "function"
    },
    {
      "inputs": [
        {
          "internalType": "uint64",
          "name": "_epochsPerFrame",
          "type": "uint64"
        },
        {
          "internalType": "uint64",
          "name": "_slotsPerEpoch",
          "type": "uint64"
        },
        {
          "internalType": "uint64",
          "name": "_secondsPerSlot",
          "type": "uint64"
        },
        {
          "internalType": "uint64",
          "name": "_genesisTime",
          "type": "uint64"
        }
      ],
      "name": "setBeaconSpec",
      "outputs": [],
      "stateMutability": "nonpayable",
      "type": "function"
    },
    {
      "inputs": [
        {
          "internalType": "uint256",
          "name": "_newQuorum",
          "type": "uint256"
        }
      ],
      "name": "setQuorum",
      "outputs": [],
      "stateMutability": "nonpayable",
      "type": "function"
    }
  ],
  "transactionHash": "0xec1e31962156abb634294d954777bbc88ea1360dfff1c21cbcf9024374063001",
  "args": [],
  "numDeployments": 1,
  "solcInputHash": "a446bf68a8fe0115f888f03de4afac85",
  "bytecode": "0x608060405234801561001057600080fd5b50611d2c806100206000396000f3fe608060405234801561001057600080fd5b50600436106100f55760003560e01c806393ef451111610097578063c1ba4e5911610066578063c1ba4e59146101dd578063ca6d56dc146101f0578063e547c77c14610203578063e90b2da11461024f57600080fd5b806393ef45111461018c578063a230c524146101af578063a29a839f146101c2578063bc8b8f97146101ca57600080fd5b80635190dce0116100d35780635190dce01461013d578063557ed1ba1461016057806357fa85471461016657806391f10da01461017957600080fd5b80630b1ca49a146100fa57806331f208b31461010f5780634b47b74f14610122575b600080fd5b61010d6101083660046119f7565b610262565b005b61010d61011d366004611a2a565b6102de565b61012a61058d565b6040519081526020015b60405180910390f35b61015061014b3660046119f7565b61059c565b6040519015158152602001610134565b4261012a565b61012a610174366004611a73565b6105ba565b61010d610187366004611a8c565b6105d1565b610194610629565b60408051825181526020928301519281019290925201610134565b6101506101bd3660046119f7565b610645565b61012a6106b5565b61010d6101d8366004611aae565b6106d1565b61010d6101eb366004611a73565b6107cd565b61010d6101fe3660046119f7565b61090a565b61020b61097c565b6040516101349190815167ffffffffffffffff9081168252602080840151821690830152604080840151821690830152606092830151169181019190915260800190565b61010d61025d366004611b37565b6109a8565b61026a610a34565b6001600160a01b0316336001600160a01b0316146102a25760405163472511eb60e11b81523360048201526024015b60405180910390fd5b60006102ad82610a3e565b905060008112156102d15760405163574b16a760e11b815260040160405180910390fd5b6102da81610ad9565b5050565b60006102e8610bdb565b905060006102f4610c87565b90508085101561033a576040517f09ec8ad20000000000000000000000000000000000000000000000000000000081526004810186905260248101829052604401610299565b808511156103a657600061035661035084610cbb565b84610d0b565b905080861461039b576040517f983b67510000000000000000000000000000000000000000000000000000000081526004810187905260248101829052604401610299565b6103a486610d2e565b505b60006103c067ffffffffffffffff8616633b9aca00611ba1565b604080518881526fffffffffffffffffffffffffffffffff8316602082015263ffffffff87168183015233606082015290519192507ff9088c3664056902a1be808c28981aa5e97da5f1a2b3557233d04eed40a9b42a919081900360800190a1600061042b33610a3e565b90508060001914156104525760405163472511eb60e11b8152336004820152602401610299565b61045b81610d7d565b1561049b576040517ff4d521a200000000000000000000000000000000000000000000000000000000815260048101889052336024820152604401610299565b6104a481610dc1565b601085901b65ffffffff000016603087901b6dffffffffffffffff000000000000161760006104d282610e29565b905060006104de610eb5565b9050600082126105545760006104f2610ee5565b838151811061050357610503611bd9565b60200260200101519050816105158290565b610520906001611bef565b61ffff161061053a576105358b878b8b610f6c565b61054e565b61054e83610549836001611c15565b6111fa565b50610581565b806001141561056e576105698a868a8a610f6c565b610581565b61058161057c846001611c15565b611254565b50505050505050505050565b6000610597610c87565b905090565b6000806105a883610a3e565b90506105b381610d7d565b9392505050565b6000806105c5610bdb565b90506105b38382610d0b565b6105d9610a34565b6001600160a01b0316336001600160a01b03161461060c5760405163472511eb60e11b8152336004820152602401610299565b6102da60405180604001604052808481526020018381525061129b565b60408051808201909152600080825260208201526105976112de565b60008061065061133e565b905060005b81518110156106ab57836001600160a01b031682828151811061067a5761067a611bd9565b60200260200101516001600160a01b0316141561069b575060019392505050565b6106a481611c2d565b9050610655565b5060009392505050565b6000806106c0610bdb565b90506106cb81610cbb565b91505090565b60006106db6113ce565b811461072557806106ea6113ce565b6040517fe7e93b3800000000000000000000000000000000000000000000000000000000815260048101929092526024820152604401610299565b610738610733826001611c15565b6113fe565b61074188611434565b61074a8961143d565b61079b60405180608001604052808967ffffffffffffffff1681526020018867ffffffffffffffff1681526020018767ffffffffffffffff1681526020018667ffffffffffffffff1681525061146b565b6107b860405180604001604052808581526020018481525061129b565b6107c26001611549565b505050505050505050565b6107d5610a34565b6001600160a01b0316336001600160a01b0316146108085760405163472511eb60e11b8152336004820152602401610299565b8061083f576040517fa9cb9e0d00000000000000000000000000000000000000000000000000000000815260040160405180910390fd5b6000610849610eb5565b90508082141561086c5760405163574b16a760e11b815260040160405180910390fd5b61087582611549565b6040518281527f027863d12a407097e086a48e36475bfc859d0b200b7e6f65b5fd3b218e46632e9060200160405180910390a1818111156102da576000806108bc84611577565b91509150811561090457603081901c601082901c6109016108db610c87565b6108f367ffffffffffffffff8516633b9aca00611ba1565b836108fc610bdb565b610f6c565b50505b50505050565b610912610a34565b6001600160a01b0316336001600160a01b0316146109455760405163472511eb60e11b8152336004820152602401610299565b600061095082610a3e565b9050600081126109735760405163574b16a760e11b815260040160405180910390fd5b6102da8261169d565b604080516080810182526000808252602082018190529181018290526060810191909152610597610bdb565b6109b0610a34565b6001600160a01b0316336001600160a01b0316146109e35760405163472511eb60e11b8152336004820152602401610299565b61090460405180608001604052808667ffffffffffffffff1681526020018567ffffffffffffffff1681526020018467ffffffffffffffff1681526020018367ffffffffffffffff1681525061146b565b600061059761170c565b600080610a6c60017fc4aba040293e5848600dd7b64a390db880c4a70937c23383e6c5b6619689863b611c48565b90508060005b8154811015610acd57846001600160a01b0316826000018281548110610a9a57610a9a611bd9565b6000918252602090912001546001600160a01b03161415610abd57949350505050565b610ac681611c2d565b9050610a72565b50600019949350505050565b6000610b0660017fc4aba040293e5848600dd7b64a390db880c4a70937c23383e6c5b6619689863b611c48565b80549091508190600090610b1c90600190611c48565b9050838114610b9557816000018181548110610b3a57610b3a611bd9565b60009182526020909120015482546001600160a01b0390911690839086908110610b6657610b66611bd9565b9060005260206000200160006101000a8154816001600160a01b0302191690836001600160a01b031602179055505b8154829080610ba657610ba6611c5f565b6000828152602090208101600019908101805473ffffffffffffffffffffffffffffffffffffffff1916905501905550505050565b604080516080810182526000808252602082018190529181018290526060810182905290610c2a60017f910cad6638f0b06b72ead1455bffc33be6e9b1c24417cc3f692aaaf0bef75a16611c48565b60408051608081018252915467ffffffffffffffff8082168452680100000000000000008204811660208501527001000000000000000000000000000000008204811692840192909252600160c01b900416606082015292915050565b6000610597610cb760017f45d0d54fdd66220435526b0d20a3e002dad71447d5a32fb8efce72e62d4e0228611c48565b5490565b600081604001518260200151610cd19190611c75565b67ffffffffffffffff16826060015167ffffffffffffffff16610cf14290565b610cfb9190611c48565b610d059190611c9c565b92915050565b805160009067ffffffffffffffff16610d248185611c9c565b6105b39190611cbe565b610d3661173c565b610d3e611772565b610d47816117ad565b6040518181527fcdcd275f4d96ed683d684f3610a92beacdebcf1ee4d37e2df526fb9001e1ea639060200160405180910390a150565b6000600180831b908190610db590610cb7907f50e65b39a6b6b7bb3298d9d19e41cecec530b7916ba516c44f4d79e3a9dcd7a7611c48565b16600114915050919050565b600180821b906102da90610df5907f50e65b39a6b6b7bb3298d9d19e41cecec530b7916ba516c44f4d79e3a9dcd7a7611c48565b82610e24610cb760017f50e65b39a6b6b7bb3298d9d19e41cecec530b7916ba516c44f4d79e3a9dcd7a7611c48565b179055565b600080610e5760017ff1827321f6d023724a23b4e28f3ef67f741d185cff4e224f6dcbb56935784fcd611c48565b90508060005b8154811015610acd57846dffffffffffffffffffffffff0000836000018381548110610e8b57610e8b611bd9565b9060005260206000200154161415610ea557949350505050565b610eae81611c2d565b9050610e5d565b6000610597610cb760017fffa4a5d927096d2bbb9d71111d7c9929ecbdcbe9bffc8d35f55b642e81698ebb611c48565b60606000610f1460017ff1827321f6d023724a23b4e28f3ef67f741d185cff4e224f6dcbb56935784fcd611c48565b8054604080516020808402820181019092528281529293508392918391830182828015610f6057602002820191906000526020600020905b815481526020019060010190808311610f4c575b50505050509250505090565b610f7584610d2e565b6000610f7f6117db565b90506000816001600160a01b03166318160ddd6040518163ffffffff1660e01b81526004016020604051808303816000875af1158015610fc3573d6000803e3d6000fd5b505050506040513d601f19601f82011682018060405250810190610fe79190611cdd565b6040517f80d4027e00000000000000000000000000000000000000000000000000000000815263ffffffff861660048201526fffffffffffffffffffffffffffffffff87166024820152604481018890529091506001600160a01b038316906380d4027e90606401600060405180830381600087803b15801561106957600080fd5b505af115801561107d573d6000803e3d6000fd5b505050506000826001600160a01b03166318160ddd6040518163ffffffff1660e01b81526004016020604051808303816000875af11580156110c3573d6000803e3d6000fd5b505050506040513d601f19601f820116820180604052508101906110e79190611cdd565b90506000846040015167ffffffffffffffff16856020015167ffffffffffffffff1661111161180b565b61111b908b611c48565b6111259190611cbe565b61112f9190611cbe565b905061113c82848361183b565b6111458861194d565b7fdafd48d1eba2a416b2aca45e9ead3ad18b84e868fa6d2e1a3048bfd37ed10a32828483876001600160a01b0316633a98ef396040518163ffffffff1660e01b81526004016020604051808303816000875af11580156111a9573d6000803e3d6000fd5b505050506040513d601f19601f820116820180604052508101906111cd9190611cdd565b60408051948552602085019390935291830152606082015260800160405180910390a15050505050505050565b600061122760017ff1827321f6d023724a23b4e28f3ef67f741d185cff4e224f6dcbb56935784fcd611c48565b80549091508190839082908690811061124257611242611bd9565b60009182526020909120015550505050565b600061128160017ff1827321f6d023724a23b4e28f3ef67f741d185cff4e224f6dcbb56935784fcd611c48565b805460018101825560009182526020909120019190915550565b60006112c860017f8a8a043b81dd88a581f2aa1faf076f45266d72ec8307cdf217c10a967969249f611c48565b8251815560209092015160019092019190915550565b6040805180820190915260008082526020820152600061131f60017f8a8a043b81dd88a581f2aa1faf076f45266d72ec8307cdf217c10a967969249f611c48565b6040805180820190915281548152600190910154602082015292915050565b6060600061136d60017fc4aba040293e5848600dd7b64a390db880c4a70937c23383e6c5b6619689863b611c48565b8054604080516020808402820181019092528281529293508392918391830182828015610f6057602002820191906000526020600020905b81546001600160a01b031681526001909101906020018083116113a55750505050509250505090565b6000610597610cb760017f82055909238c0f5e63d6f174068ebb8f51bcec9bd37de63bb68f6551feec0cfd611c48565b61143161142c60017f82055909238c0f5e63d6f174068ebb8f51bcec9bd37de63bb68f6551feec0cfd611c48565b829055565b50565b6114318161197b565b61143161142c60017f1ec4138404500a2a0be2c2f9b103581c2a7fa783a934f91a6cc5cc924404973c611c48565b600061149860017f910cad6638f0b06b72ead1455bffc33be6e9b1c24417cc3f692aaaf0bef75a16611c48565b825181546020850151604086015160609096015167ffffffffffffffff908116600160c01b0277ffffffffffffffffffffffffffffffffffffffffffffffff97821670010000000000000000000000000000000002979097166fffffffffffffffffffffffffffffffff92821668010000000000000000027fffffffffffffffffffffffffffffffff0000000000000000000000000000000090941691909416179190911716179290921790915550565b61143161142c60017fffa4a5d927096d2bbb9d71111d7c9929ecbdcbe9bffc8d35f55b642e81698ebb611c48565b6000806000611584610ee5565b90508051600114156115dd57836115b2826000815181106115a7576115a7611bd9565b602002602001015190565b61ffff161015816000815181106115cb576115cb611bd9565b60200260200101519250925050915091565b80516115ef5750600093849350915050565b60008060008060005b8551811015611662576116168682815181106115a7576115a7611bd9565b91508261ffff168261ffff1610611652578261ffff168261ffff1614156116475761164084611c2d565b9350611652565b809450819250600093505b61165b81611c2d565b90506115f8565b50878261ffff1610158015611675575082155b85858151811061168757611687611bd9565b6020026020010151965096505050505050915091565b60006116ca60017fc4aba040293e5848600dd7b64a390db880c4a70937c23383e6c5b6619689863b611c48565b80546001810182556000918252602090912001805473ffffffffffffffffffffffffffffffffffffffff19166001600160a01b03939093169290921790915550565b6000610597610cb760017fb5b37715a3e346e996104f0086703f19825def429233930fd9399c38e05fb113611c48565b61177061176a60017f50e65b39a6b6b7bb3298d9d19e41cecec530b7916ba516c44f4d79e3a9dcd7a7611c48565b60009055565b565b600061179f60017ff1827321f6d023724a23b4e28f3ef67f741d185cff4e224f6dcbb56935784fcd611c48565b9050806102da8160006119a9565b61143161142c60017f45d0d54fdd66220435526b0d20a3e002dad71447d5a32fb8efce72e62d4e0228611c48565b6000610597610cb760017f1ec4138404500a2a0be2c2f9b103581c2a7fa783a934f91a6cc5cc924404973c611c48565b6000610597610cb760017faf3d74d3b4106d19ea8994739c1a66b48922195975ea284f4cd201487a79b9ed611c48565b8183106118cd57600061184c6112de565b5190508161185a8483611cbe565b6118649190611cbe565b61186e8486611c48565b61187d9064496cebb800611cbe565b1115610904576040517fd86fb83d00000000000000000000000000000000000000000000000000000000815260048101849052602481018590526044810183905260648101829052608401610299565b60006118d76112de565b6020015190506118e78382611cbe565b6118f18585611c48565b6118fd90612710611cbe565b1115610904576040517f0aa91ae400000000000000000000000000000000000000000000000000000000815260048101849052602481018590526044810183905260648101829052608401610299565b61143161142c60017faf3d74d3b4106d19ea8994739c1a66b48922195975ea284f4cd201487a79b9ed611c48565b61143161142c60017fb5b37715a3e346e996104f0086703f19825def429233930fd9399c38e05fb113611c48565b508054600082559060005260206000209081019061143191905b808211156119d757600081556001016119c3565b5090565b80356001600160a01b03811681146119f257600080fd5b919050565b600060208284031215611a0957600080fd5b6105b3826119db565b803567ffffffffffffffff811681146119f257600080fd5b600080600060608486031215611a3f57600080fd5b83359250611a4f60208501611a12565b9150604084013563ffffffff81168114611a6857600080fd5b809150509250925092565b600060208284031215611a8557600080fd5b5035919050565b60008060408385031215611a9f57600080fd5b50508035926020909101359150565b600080600080600080600080610100898b031215611acb57600080fd5b611ad4896119db565b9750611ae260208a016119db565b9650611af060408a01611a12565b9550611afe60608a01611a12565b9450611b0c60808a01611a12565b9350611b1a60a08a01611a12565b925060c0890135915060e089013590509295985092959890939650565b60008060008060808587031215611b4d57600080fd5b611b5685611a12565b9350611b6460208601611a12565b9250611b7260408601611a12565b9150611b8060608601611a12565b905092959194509250565b634e487b7160e01b600052601160045260246000fd5b60006fffffffffffffffffffffffffffffffff80831681851681830481118215151615611bd057611bd0611b8b565b02949350505050565b634e487b7160e01b600052603260045260246000fd5b600061ffff808316818516808303821115611c0c57611c0c611b8b565b01949350505050565b60008219821115611c2857611c28611b8b565b500190565b6000600019821415611c4157611c41611b8b565b5060010190565b600082821015611c5a57611c5a611b8b565b500390565b634e487b7160e01b600052603160045260246000fd5b600067ffffffffffffffff80831681851681830481118215151615611bd057611bd0611b8b565b600082611cb957634e487b7160e01b600052601260045260246000fd5b500490565b6000816000190483118215151615611cd857611cd8611b8b565b500290565b600060208284031215611cef57600080fd5b505191905056fea2646970667358221220cf557c0ff6c5e5c315bc2e71d9c26be02468bab20db48cf1bda95d3b16d4876a64736f6c634300080a0033",
  "devdoc": {
    "author": "Iulian Rotaru",
    "kind": "dev",
    "methods": {
      "addMember(address)": {
        "details": "Only callable by the adminstrator",
        "params": {
          "_newOracleMember": "Address of the new member"
        }
      },
      "getFrameFirstEpochId(uint256)": {
        "params": {
          "_epochId": "Epoch id used to get the frame"
        }
      },
      "initOracleV1(address,address,uint64,uint64,uint64,uint64,uint256,uint256)": {
        "params": {
          "_administratorAddress": "Address able to call administrative methods",
          "_annualAprUpperBound": "Beacon bound parameter. Maximum apr allowed for balance increase. Delta between updates is extrapolated on a year time frame.",
          "_epochsPerFrame": "Beacon spec parameter. Number of epochs in a frame.",
          "_genesisTime": "Beacon spec parameter. Timestamp of the genesis slot.",
          "_relativeLowerBound": "Beacon bound parameter. Maximum relative balance decrease.",
          "_riverContractAddress": "Address of the River contract, able to receive oracle input data after quorum is met",
          "_secondsPerSlot": "Beacon spec parameter. Number of seconds between slots.",
          "_slotsPerEpoch": "Beacon spec parameter. Number of slots in one epoch."
        }
      },
      "isMember(address)": {
        "details": "Performs a naive search, do not call this on-chain, used as an off-chain helper",
        "params": {
          "_memberAddress": "Address of the member"
        }
      },
      "removeMember(address)": {
        "details": "Only callable by the adminstrator",
        "params": {
          "_oracleMember": "Address to remove"
        }
      },
      "reportBeacon(uint256,uint64,uint32)": {
        "details": "Only callable by an oracle member",
        "params": {
          "_beaconBalance": "Total balance of River validators",
          "_beaconValidators": "Total River validator count",
          "_epochId": "Epoch where the balance and validator count has been computed"
        }
      },
      "setBeaconBounds(uint256,uint256)": {
        "details": "Only callable by the adminstrator",
        "params": {
          "_annualAprUpperBound": "Maximum apr allowed for balance increase. Delta between updates is extrapolated on a year time frame.",
          "_relativeLowerBound": "Maximum relative balance decrease."
        }
      },
      "setBeaconSpec(uint64,uint64,uint64,uint64)": {
        "details": "Only callable by the adminstrator",
        "params": {
          "_epochsPerFrame": "Number of epochs in a frame.",
          "_genesisTime": "Timestamp of the genesis slot.",
          "_secondsPerSlot": "Number of seconds between slots.",
          "_slotsPerEpoch": "Number of slots in one epoch."
        }
      },
      "setQuorum(uint256)": {
        "details": "Only callable by the adminstrator",
        "params": {
          "_newQuorum": "New quorum parameter"
        }
      }
    },
    "title": "Oracle (v1)",
    "version": 1
  },
  "userdoc": {
    "kind": "user",
    "methods": {
      "addMember(address)": {
        "notice": "Adds new address as oracle member, giving the ability to push beacon reports."
      },
      "getCurrentEpochId()": {
        "notice": "Retrieve the current epoch id based on block timestamp"
      },
      "getFrameFirstEpochId(uint256)": {
        "notice": "Retrieve the first epoch id of the frame of the provided epoch id"
      },
      "getTime()": {
        "notice": "Retrieve the block timestamp"
      },
      "initOracleV1(address,address,uint64,uint64,uint64,uint64,uint256,uint256)": {
        "notice": "Initializes the oracle"
      },
      "isMember(address)": {
        "notice": "Returns true if address is member"
      },
      "removeMember(address)": {
        "notice": "Removes an address from the oracle members."
      },
      "reportBeacon(uint256,uint64,uint32)": {
        "notice": "Report beacon chain data"
      },
      "setBeaconBounds(uint256,uint256)": {
        "notice": "Edits the beacon bounds parameters"
      },
      "setBeaconSpec(uint64,uint64,uint64,uint64)": {
        "notice": "Edits the beacon spec parameters"
      },
      "setQuorum(uint256)": {
        "notice": "Edits the quorum required to forward beacon data to River"
      }
    },
    "notice": "This contract handles the input from the whitelisted oracle members. Highly inspired by Lido's implementation.",
    "version": 1
  },
  "storageLayout": {
    "storage": [],
    "types": null
  }
}