{
  "address": "0xE3C41d8496357Ea80613770633a6405e60e76212",
  "abi": [
    {
      "inputs": [
        {
          "internalType": "address",
          "name": "_from",
          "type": "address"
        },
        {
          "internalType": "address",
          "name": "_operator",
          "type": "address"
        },
        {
          "internalType": "uint256",
          "name": "_allowance",
          "type": "uint256"
        },
        {
          "internalType": "uint256",
          "name": "_value",
          "type": "uint256"
        }
      ],
      "name": "AllowanceTooLow",
      "type": "error"
    },
    {
      "inputs": [],
      "name": "BalanceTooLow",
      "type": "error"
    },
    {
      "inputs": [],
      "name": "EmptyDeposit",
      "type": "error"
    },
    {
      "inputs": [],
      "name": "EmptyDonation",
      "type": "error"
    },
    {
      "inputs": [
        {
          "internalType": "uint256",
          "name": "index",
          "type": "uint256"
        }
      ],
      "name": "InactiveOperator",
      "type": "error"
    },
    {
      "inputs": [],
      "name": "InconsistentPublicKeys",
      "type": "error"
    },
    {
      "inputs": [],
      "name": "InconsistentSignatures",
      "type": "error"
    },
    {
      "inputs": [],
      "name": "InvalidArgument",
      "type": "error"
    },
    {
      "inputs": [],
      "name": "InvalidArrayLengths",
      "type": "error"
    },
    {
      "inputs": [],
      "name": "InvalidCall",
      "type": "error"
    },
    {
      "inputs": [],
      "name": "InvalidEmptyArray",
      "type": "error"
    },
    {
      "inputs": [],
      "name": "InvalidFundedKeyDeletionAttempt",
      "type": "error"
    },
    {
      "inputs": [],
      "name": "InvalidIndexOutOfBounds",
      "type": "error"
    },
    {
      "inputs": [
        {
          "internalType": "uint256",
          "name": "version",
          "type": "uint256"
        },
        {
          "internalType": "uint256",
          "name": "expectedVersion",
          "type": "uint256"
        }
      ],
      "name": "InvalidInitialization",
      "type": "error"
    },
    {
      "inputs": [],
      "name": "InvalidKeyCount",
      "type": "error"
    },
    {
      "inputs": [],
      "name": "InvalidPublicKeyCount",
      "type": "error"
    },
    {
      "inputs": [],
      "name": "InvalidPublicKeysLength",
      "type": "error"
    },
    {
      "inputs": [],
      "name": "InvalidSignatureCount",
      "type": "error"
    },
    {
      "inputs": [],
      "name": "InvalidSignatureLength",
      "type": "error"
    },
    {
      "inputs": [],
      "name": "InvalidUnsortedIndexes",
      "type": "error"
    },
    {
      "inputs": [
        {
          "internalType": "uint256",
          "name": "_providedValidatorCount",
          "type": "uint256"
        },
        {
          "internalType": "uint256",
          "name": "_depositedValidatorCount",
          "type": "uint256"
        }
      ],
      "name": "InvalidValidatorCountReport",
      "type": "error"
    },
    {
      "inputs": [],
      "name": "InvalidWithdrawalCredentials",
      "type": "error"
    },
    {
      "inputs": [],
      "name": "InvalidZeroAddress",
      "type": "error"
    },
    {
      "inputs": [],
      "name": "NoAvailableValidatorKeys",
      "type": "error"
    },
    {
      "inputs": [],
      "name": "NotEnoughFunds",
      "type": "error"
    },
    {
      "inputs": [],
      "name": "NullTransfer",
      "type": "error"
    },
    {
      "inputs": [
        {
          "internalType": "string",
          "name": "name",
          "type": "string"
        }
      ],
      "name": "OperatorAlreadyExists",
      "type": "error"
    },
    {
      "inputs": [
        {
          "internalType": "uint256",
          "name": "limit",
          "type": "uint256"
        },
        {
          "internalType": "uint256",
          "name": "keyCount",
          "type": "uint256"
        }
      ],
      "name": "OperatorLimitTooHigh",
      "type": "error"
    },
    {
      "inputs": [
        {
          "internalType": "string",
          "name": "name",
          "type": "string"
        }
      ],
      "name": "OperatorNotFound",
      "type": "error"
    },
    {
      "inputs": [
        {
          "internalType": "uint256",
          "name": "index",
          "type": "uint256"
        }
      ],
      "name": "OperatorNotFoundAtIndex",
      "type": "error"
    },
    {
      "inputs": [
        {
          "internalType": "address",
          "name": "caller",
          "type": "address"
        }
      ],
      "name": "Unauthorized",
      "type": "error"
    },
    {
      "inputs": [],
      "name": "ZeroMintedShares",
      "type": "error"
    },
    {
      "anonymous": false,
      "inputs": [
        {
          "indexed": true,
          "internalType": "uint256",
          "name": "index",
          "type": "uint256"
        },
        {
          "indexed": false,
          "internalType": "string",
          "name": "name",
          "type": "string"
        },
        {
          "indexed": false,
          "internalType": "address",
          "name": "operatorAddress",
          "type": "address"
        },
        {
          "indexed": false,
          "internalType": "address",
          "name": "feeRecipientAddress",
          "type": "address"
        }
      ],
      "name": "AddedOperator",
      "type": "event"
    },
    {
      "anonymous": false,
      "inputs": [
        {
          "indexed": true,
          "internalType": "uint256",
          "name": "index",
          "type": "uint256"
        },
        {
          "indexed": false,
          "internalType": "bytes",
          "name": "publicKeys",
          "type": "bytes"
        }
      ],
      "name": "AddedValidatorKeys",
      "type": "event"
    },
    {
      "anonymous": false,
      "inputs": [
        {
          "indexed": true,
          "internalType": "address",
          "name": "_owner",
          "type": "address"
        },
        {
          "indexed": true,
          "internalType": "address",
          "name": "_spender",
          "type": "address"
        },
        {
          "indexed": false,
          "internalType": "uint256",
          "name": "_value",
          "type": "uint256"
        }
      ],
      "name": "Approval",
      "type": "event"
    },
    {
      "anonymous": false,
      "inputs": [
        {
          "indexed": false,
          "internalType": "uint256",
          "name": "validatorCount",
          "type": "uint256"
        },
        {
          "indexed": false,
          "internalType": "uint256",
          "name": "validatorBalanceSum",
          "type": "uint256"
        },
        {
          "indexed": false,
          "internalType": "bytes32",
          "name": "roundId",
          "type": "bytes32"
        }
      ],
      "name": "BeaconDataUpdate",
      "type": "event"
    },
    {
      "anonymous": false,
      "inputs": [
        {
          "indexed": false,
          "internalType": "bytes",
          "name": "publicKey",
          "type": "bytes"
        }
      ],
      "name": "FundedValidatorKey",
      "type": "event"
    },
    {
      "anonymous": false,
      "inputs": [
        {
          "indexed": false,
          "internalType": "uint256",
          "name": "amount",
          "type": "uint256"
        }
      ],
      "name": "PulledELFees",
      "type": "event"
    },
    {
      "anonymous": false,
      "inputs": [
        {
          "indexed": true,
          "internalType": "uint256",
          "name": "index",
          "type": "uint256"
        },
        {
          "indexed": false,
          "internalType": "bytes",
          "name": "publicKey",
          "type": "bytes"
        }
      ],
      "name": "RemovedValidatorKey",
      "type": "event"
    },
    {
      "anonymous": false,
      "inputs": [
        {
          "indexed": true,
          "internalType": "uint256",
          "name": "index",
          "type": "uint256"
        },
        {
          "indexed": false,
          "internalType": "address",
          "name": "newOperatorAddress",
          "type": "address"
        }
      ],
      "name": "SetOperatorAddress",
      "type": "event"
    },
    {
      "anonymous": false,
      "inputs": [
        {
          "indexed": true,
          "internalType": "uint256",
          "name": "index",
          "type": "uint256"
        },
        {
          "indexed": false,
          "internalType": "address",
          "name": "newOperatorAddress",
          "type": "address"
        }
      ],
      "name": "SetOperatorFeeRecipientAddress",
      "type": "event"
    },
    {
      "anonymous": false,
      "inputs": [
        {
          "indexed": true,
          "internalType": "uint256",
          "name": "index",
          "type": "uint256"
        },
        {
          "indexed": false,
          "internalType": "uint256",
          "name": "newLimit",
          "type": "uint256"
        }
      ],
      "name": "SetOperatorLimit",
      "type": "event"
    },
    {
      "anonymous": false,
      "inputs": [
        {
          "indexed": true,
          "internalType": "uint256",
          "name": "name",
          "type": "uint256"
        },
        {
          "indexed": false,
          "internalType": "string",
          "name": "newName",
          "type": "string"
        }
      ],
      "name": "SetOperatorName",
      "type": "event"
    },
    {
      "anonymous": false,
      "inputs": [
        {
          "indexed": true,
          "internalType": "uint256",
          "name": "index",
          "type": "uint256"
        },
        {
          "indexed": false,
          "internalType": "bool",
          "name": "active",
          "type": "bool"
        }
      ],
      "name": "SetOperatorStatus",
      "type": "event"
    },
    {
      "anonymous": false,
      "inputs": [
        {
          "indexed": true,
          "internalType": "uint256",
          "name": "index",
          "type": "uint256"
        },
        {
          "indexed": false,
          "internalType": "uint256",
          "name": "newStoppedValidatorCount",
          "type": "uint256"
        }
      ],
      "name": "SetOperatorStoppedValidatorCount",
      "type": "event"
    },
    {
      "anonymous": false,
      "inputs": [
        {
          "indexed": true,
          "internalType": "address",
          "name": "_from",
          "type": "address"
        },
        {
          "indexed": true,
          "internalType": "address",
          "name": "_to",
          "type": "address"
        },
        {
          "indexed": false,
          "internalType": "uint256",
          "name": "_value",
          "type": "uint256"
        }
      ],
      "name": "Transfer",
      "type": "event"
    },
    {
      "anonymous": false,
      "inputs": [
        {
          "indexed": true,
          "internalType": "address",
          "name": "depositor",
          "type": "address"
        },
        {
          "indexed": true,
          "internalType": "address",
          "name": "recipient",
          "type": "address"
        },
        {
          "indexed": false,
          "internalType": "uint256",
          "name": "amount",
          "type": "uint256"
        }
      ],
      "name": "UserDeposit",
      "type": "event"
    },
    {
      "stateMutability": "payable",
      "type": "fallback"
    },
    {
      "inputs": [],
      "name": "BASE",
      "outputs": [
        {
          "internalType": "uint256",
          "name": "",
          "type": "uint256"
        }
      ],
      "stateMutability": "view",
      "type": "function"
    },
    {
      "inputs": [],
      "name": "DEPOSIT_SIZE",
      "outputs": [
        {
          "internalType": "uint256",
          "name": "",
          "type": "uint256"
        }
      ],
      "stateMutability": "view",
      "type": "function"
    },
    {
      "inputs": [],
      "name": "PUBLIC_KEY_LENGTH",
      "outputs": [
        {
          "internalType": "uint256",
          "name": "",
          "type": "uint256"
        }
      ],
      "stateMutability": "view",
      "type": "function"
    },
    {
      "inputs": [],
      "name": "SIGNATURE_LENGTH",
      "outputs": [
        {
          "internalType": "uint256",
          "name": "",
          "type": "uint256"
        }
      ],
      "stateMutability": "view",
      "type": "function"
    },
    {
      "inputs": [],
      "name": "acceptOwnership",
      "outputs": [],
      "stateMutability": "nonpayable",
      "type": "function"
    },
    {
      "inputs": [
        {
          "internalType": "string",
          "name": "_name",
          "type": "string"
        },
        {
          "internalType": "address",
          "name": "_operator",
          "type": "address"
        },
        {
          "internalType": "address",
          "name": "_feeRecipient",
          "type": "address"
        }
      ],
      "name": "addOperator",
      "outputs": [],
      "stateMutability": "nonpayable",
      "type": "function"
    },
    {
      "inputs": [
        {
          "internalType": "uint256",
          "name": "_index",
          "type": "uint256"
        },
        {
          "internalType": "uint256",
          "name": "_keyCount",
          "type": "uint256"
        },
        {
          "internalType": "bytes",
          "name": "_publicKeys",
          "type": "bytes"
        },
        {
          "internalType": "bytes",
          "name": "_signatures",
          "type": "bytes"
        }
      ],
      "name": "addValidators",
      "outputs": [],
      "stateMutability": "nonpayable",
      "type": "function"
    },
    {
      "inputs": [
        {
          "internalType": "address",
          "name": "_owner",
          "type": "address"
        },
        {
          "internalType": "address",
          "name": "_spender",
          "type": "address"
        }
      ],
      "name": "allowance",
      "outputs": [
        {
          "internalType": "uint256",
          "name": "remaining",
          "type": "uint256"
        }
      ],
      "stateMutability": "view",
      "type": "function"
    },
    {
      "inputs": [
        {
          "internalType": "address",
          "name": "_spender",
          "type": "address"
        },
        {
          "internalType": "uint256",
          "name": "_value",
          "type": "uint256"
        }
      ],
      "name": "approve",
      "outputs": [
        {
          "internalType": "bool",
          "name": "success",
          "type": "bool"
        }
      ],
      "stateMutability": "nonpayable",
      "type": "function"
    },
    {
      "inputs": [
        {
          "internalType": "address",
          "name": "_owner",
          "type": "address"
        }
      ],
      "name": "balanceOf",
      "outputs": [
        {
          "internalType": "uint256",
          "name": "balance",
          "type": "uint256"
        }
      ],
      "stateMutability": "view",
      "type": "function"
    },
    {
      "inputs": [
        {
          "internalType": "address",
          "name": "_owner",
          "type": "address"
        }
      ],
      "name": "balanceOfUnderlying",
      "outputs": [
        {
          "internalType": "uint256",
          "name": "balance",
          "type": "uint256"
        }
      ],
      "stateMutability": "view",
      "type": "function"
    },
    {
      "inputs": [],
      "name": "decimals",
      "outputs": [
        {
          "internalType": "uint8",
          "name": "",
          "type": "uint8"
        }
      ],
      "stateMutability": "pure",
      "type": "function"
    },
    {
      "inputs": [],
      "name": "deposit",
      "outputs": [],
      "stateMutability": "payable",
      "type": "function"
    },
    {
      "inputs": [
        {
          "internalType": "address",
          "name": "_recipient",
          "type": "address"
        }
      ],
      "name": "depositAndTransfer",
      "outputs": [],
      "stateMutability": "payable",
      "type": "function"
    },
    {
      "inputs": [
        {
          "internalType": "uint256",
          "name": "_maxCount",
          "type": "uint256"
        }
      ],
      "name": "depositToConsensusLayer",
      "outputs": [],
      "stateMutability": "nonpayable",
      "type": "function"
    },
    {
      "inputs": [],
      "name": "getAdministrator",
      "outputs": [
        {
          "internalType": "address",
          "name": "",
          "type": "address"
        }
      ],
      "stateMutability": "view",
      "type": "function"
    },
    {
      "inputs": [],
      "name": "getAllowlist",
      "outputs": [
        {
          "internalType": "address",
          "name": "",
          "type": "address"
        }
      ],
      "stateMutability": "view",
      "type": "function"
    },
    {
      "inputs": [],
      "name": "getBeaconValidatorBalanceSum",
      "outputs": [
        {
          "internalType": "uint256",
          "name": "beaconValidatorBalanceSum",
          "type": "uint256"
        }
      ],
      "stateMutability": "view",
      "type": "function"
    },
    {
      "inputs": [],
      "name": "getBeaconValidatorCount",
      "outputs": [
        {
          "internalType": "uint256",
          "name": "beaconValidatorCount",
          "type": "uint256"
        }
      ],
      "stateMutability": "view",
      "type": "function"
    },
    {
      "inputs": [],
      "name": "getDepositedValidatorCount",
      "outputs": [
        {
          "internalType": "uint256",
          "name": "depositedValidatorCount",
          "type": "uint256"
        }
      ],
      "stateMutability": "view",
      "type": "function"
    },
    {
      "inputs": [],
      "name": "getELFeeRecipient",
      "outputs": [
        {
          "internalType": "address",
          "name": "",
          "type": "address"
        }
      ],
      "stateMutability": "view",
      "type": "function"
    },
    {
      "inputs": [
        {
          "internalType": "uint256",
          "name": "_index",
          "type": "uint256"
        }
      ],
      "name": "getOperator",
      "outputs": [
        {
          "components": [
            {
              "internalType": "bool",
              "name": "active",
              "type": "bool"
            },
            {
              "internalType": "string",
              "name": "name",
              "type": "string"
            },
            {
              "internalType": "address",
              "name": "operator",
              "type": "address"
            },
            {
              "internalType": "address",
              "name": "feeRecipient",
              "type": "address"
            },
            {
              "internalType": "uint256",
              "name": "limit",
              "type": "uint256"
            },
            {
              "internalType": "uint256",
              "name": "funded",
              "type": "uint256"
            },
            {
              "internalType": "uint256",
              "name": "keys",
              "type": "uint256"
            },
            {
              "internalType": "uint256",
              "name": "stopped",
              "type": "uint256"
            }
          ],
          "internalType": "struct Operators.Operator",
          "name": "",
          "type": "tuple"
        }
      ],
      "stateMutability": "view",
      "type": "function"
    },
    {
      "inputs": [
        {
          "internalType": "string",
          "name": "_name",
          "type": "string"
        }
      ],
      "name": "getOperatorByName",
      "outputs": [
        {
          "components": [
            {
              "internalType": "bool",
              "name": "active",
              "type": "bool"
            },
            {
              "internalType": "string",
              "name": "name",
              "type": "string"
            },
            {
              "internalType": "address",
              "name": "operator",
              "type": "address"
            },
            {
              "internalType": "address",
              "name": "feeRecipient",
              "type": "address"
            },
            {
              "internalType": "uint256",
              "name": "limit",
              "type": "uint256"
            },
            {
              "internalType": "uint256",
              "name": "funded",
              "type": "uint256"
            },
            {
              "internalType": "uint256",
              "name": "keys",
              "type": "uint256"
            },
            {
              "internalType": "uint256",
              "name": "stopped",
              "type": "uint256"
            }
          ],
          "internalType": "struct Operators.Operator",
          "name": "",
          "type": "tuple"
        }
      ],
      "stateMutability": "view",
      "type": "function"
    },
    {
      "inputs": [],
      "name": "getOperatorCount",
      "outputs": [
        {
          "internalType": "uint256",
          "name": "",
          "type": "uint256"
        }
      ],
      "stateMutability": "view",
      "type": "function"
    },
    {
      "inputs": [
        {
          "internalType": "string",
          "name": "_name",
          "type": "string"
        }
      ],
      "name": "getOperatorDetails",
      "outputs": [
        {
          "internalType": "int256",
          "name": "_index",
          "type": "int256"
        },
        {
          "internalType": "address",
          "name": "_operatorAddress",
          "type": "address"
        }
      ],
      "stateMutability": "view",
      "type": "function"
    },
    {
      "inputs": [],
      "name": "getOracle",
      "outputs": [
        {
          "internalType": "address",
          "name": "oracle",
          "type": "address"
        }
      ],
      "stateMutability": "view",
      "type": "function"
    },
    {
      "inputs": [],
      "name": "getPendingAdministrator",
      "outputs": [
        {
          "internalType": "address",
          "name": "",
          "type": "address"
        }
      ],
      "stateMutability": "view",
      "type": "function"
    },
    {
      "inputs": [],
      "name": "getPendingEth",
      "outputs": [
        {
          "internalType": "uint256",
          "name": "",
          "type": "uint256"
        }
      ],
      "stateMutability": "view",
      "type": "function"
    },
    {
      "inputs": [],
      "name": "getTreasury",
      "outputs": [
        {
          "internalType": "address",
          "name": "",
          "type": "address"
        }
      ],
      "stateMutability": "view",
      "type": "function"
    },
    {
      "inputs": [
        {
          "internalType": "uint256",
          "name": "_operatorIndex",
          "type": "uint256"
        },
        {
          "internalType": "uint256",
          "name": "_validatorIndex",
          "type": "uint256"
        }
      ],
      "name": "getValidator",
      "outputs": [
        {
          "internalType": "bytes",
          "name": "publicKey",
          "type": "bytes"
        },
        {
          "internalType": "bytes",
          "name": "signature",
          "type": "bytes"
        },
        {
          "internalType": "bool",
          "name": "funded",
          "type": "bool"
        }
      ],
      "stateMutability": "view",
      "type": "function"
    },
    {
      "inputs": [],
      "name": "getWithdrawalCredentials",
      "outputs": [
        {
          "internalType": "bytes32",
          "name": "",
          "type": "bytes32"
        }
      ],
      "stateMutability": "view",
      "type": "function"
    },
    {
      "inputs": [
        {
          "internalType": "address",
          "name": "_depositContractAddress",
          "type": "address"
        },
        {
          "internalType": "address",
          "name": "_elFeeRecipientAddress",
          "type": "address"
        },
        {
          "internalType": "bytes32",
          "name": "_withdrawalCredentials",
          "type": "bytes32"
        },
        {
          "internalType": "address",
          "name": "_oracleAddress",
          "type": "address"
        },
        {
          "internalType": "address",
          "name": "_systemAdministratorAddress",
          "type": "address"
        },
        {
          "internalType": "address",
          "name": "_allowlistAddress",
          "type": "address"
        },
        {
          "internalType": "address",
          "name": "_treasuryAddress",
          "type": "address"
        },
        {
          "internalType": "uint256",
          "name": "_globalFee",
          "type": "uint256"
        },
        {
          "internalType": "uint256",
          "name": "_operatorRewardsShare",
          "type": "uint256"
        }
      ],
      "name": "initRiverV1",
      "outputs": [],
      "stateMutability": "nonpayable",
      "type": "function"
    },
    {
      "inputs": [],
      "name": "name",
      "outputs": [
        {
          "internalType": "string",
          "name": "",
          "type": "string"
        }
      ],
      "stateMutability": "pure",
      "type": "function"
    },
    {
      "inputs": [
        {
          "internalType": "uint256",
          "name": "_index",
          "type": "uint256"
        },
        {
          "internalType": "uint256[]",
          "name": "_indexes",
          "type": "uint256[]"
        }
      ],
      "name": "removeValidators",
      "outputs": [],
      "stateMutability": "nonpayable",
      "type": "function"
    },
    {
      "inputs": [],
      "name": "sendELFees",
      "outputs": [],
      "stateMutability": "payable",
      "type": "function"
    },
    {
      "inputs": [
        {
          "internalType": "address",
          "name": "_newAllowlist",
          "type": "address"
        }
      ],
      "name": "setAllowlist",
      "outputs": [],
      "stateMutability": "nonpayable",
      "type": "function"
    },
    {
      "inputs": [
        {
          "internalType": "uint256",
          "name": "_validatorCount",
          "type": "uint256"
        },
        {
          "internalType": "uint256",
          "name": "_validatorBalanceSum",
          "type": "uint256"
        },
        {
          "internalType": "bytes32",
          "name": "_roundId",
          "type": "bytes32"
        }
      ],
      "name": "setBeaconData",
      "outputs": [],
      "stateMutability": "nonpayable",
      "type": "function"
    },
    {
      "inputs": [
        {
          "internalType": "address",
          "name": "_newELFeeRecipient",
          "type": "address"
        }
      ],
      "name": "setELFeeRecipient",
      "outputs": [],
      "stateMutability": "nonpayable",
      "type": "function"
    },
    {
      "inputs": [
        {
          "internalType": "uint256",
          "name": "newFee",
          "type": "uint256"
        }
      ],
      "name": "setGlobalFee",
      "outputs": [],
      "stateMutability": "nonpayable",
      "type": "function"
    },
    {
      "inputs": [
        {
          "internalType": "uint256",
          "name": "_index",
          "type": "uint256"
        },
        {
          "internalType": "address",
          "name": "_newOperatorAddress",
          "type": "address"
        }
      ],
      "name": "setOperatorAddress",
      "outputs": [],
      "stateMutability": "nonpayable",
      "type": "function"
    },
    {
      "inputs": [
        {
          "internalType": "uint256",
          "name": "_index",
          "type": "uint256"
        },
        {
          "internalType": "address",
          "name": "_newOperatorFeeRecipientAddress",
          "type": "address"
        }
      ],
      "name": "setOperatorFeeRecipientAddress",
      "outputs": [],
      "stateMutability": "nonpayable",
      "type": "function"
    },
    {
      "inputs": [
        {
          "internalType": "uint256[]",
          "name": "_operatorIndexes",
          "type": "uint256[]"
        },
        {
          "internalType": "uint256[]",
          "name": "_newLimits",
          "type": "uint256[]"
        }
      ],
      "name": "setOperatorLimits",
      "outputs": [],
      "stateMutability": "nonpayable",
      "type": "function"
    },
    {
      "inputs": [
        {
          "internalType": "uint256",
          "name": "_index",
          "type": "uint256"
        },
        {
          "internalType": "string",
          "name": "_newName",
          "type": "string"
        }
      ],
      "name": "setOperatorName",
      "outputs": [],
      "stateMutability": "nonpayable",
      "type": "function"
    },
    {
      "inputs": [
        {
          "internalType": "uint256",
          "name": "newOperatorRewardsShare",
          "type": "uint256"
        }
      ],
      "name": "setOperatorRewardsShare",
      "outputs": [],
      "stateMutability": "nonpayable",
      "type": "function"
    },
    {
      "inputs": [
        {
          "internalType": "uint256",
          "name": "_index",
          "type": "uint256"
        },
        {
          "internalType": "bool",
          "name": "_newStatus",
          "type": "bool"
        }
      ],
      "name": "setOperatorStatus",
      "outputs": [],
      "stateMutability": "nonpayable",
      "type": "function"
    },
    {
      "inputs": [
        {
          "internalType": "uint256",
          "name": "_index",
          "type": "uint256"
        },
        {
          "internalType": "uint256",
          "name": "_newStoppedValidatorCount",
          "type": "uint256"
        }
      ],
      "name": "setOperatorStoppedValidatorCount",
      "outputs": [],
      "stateMutability": "nonpayable",
      "type": "function"
    },
    {
      "inputs": [
        {
          "internalType": "address",
          "name": "_oracleAddress",
          "type": "address"
        }
      ],
      "name": "setOracle",
      "outputs": [],
      "stateMutability": "nonpayable",
      "type": "function"
    },
    {
      "inputs": [
        {
          "internalType": "address",
          "name": "_newTreasury",
          "type": "address"
        }
      ],
      "name": "setTreasury",
      "outputs": [],
      "stateMutability": "nonpayable",
      "type": "function"
    },
    {
      "inputs": [
        {
          "internalType": "uint256",
          "name": "underlyingBalance",
          "type": "uint256"
        }
      ],
      "name": "sharesFromUnderlyingBalance",
      "outputs": [
        {
          "internalType": "uint256",
          "name": "",
          "type": "uint256"
        }
      ],
      "stateMutability": "view",
      "type": "function"
    },
    {
      "inputs": [],
      "name": "symbol",
      "outputs": [
        {
          "internalType": "string",
          "name": "",
          "type": "string"
        }
      ],
      "stateMutability": "pure",
      "type": "function"
    },
    {
      "inputs": [],
      "name": "totalSupply",
      "outputs": [
        {
          "internalType": "uint256",
          "name": "",
          "type": "uint256"
        }
      ],
      "stateMutability": "view",
      "type": "function"
    },
    {
      "inputs": [],
      "name": "totalUnderlyingSupply",
      "outputs": [
        {
          "internalType": "uint256",
          "name": "",
          "type": "uint256"
        }
      ],
      "stateMutability": "view",
      "type": "function"
    },
    {
      "inputs": [
        {
          "internalType": "address",
          "name": "_to",
          "type": "address"
        },
        {
          "internalType": "uint256",
          "name": "_value",
          "type": "uint256"
        }
      ],
      "name": "transfer",
      "outputs": [
        {
          "internalType": "bool",
          "name": "",
          "type": "bool"
        }
      ],
      "stateMutability": "nonpayable",
      "type": "function"
    },
    {
      "inputs": [
        {
          "internalType": "address",
          "name": "_from",
          "type": "address"
        },
        {
          "internalType": "address",
          "name": "_to",
          "type": "address"
        },
        {
          "internalType": "uint256",
          "name": "_value",
          "type": "uint256"
        }
      ],
      "name": "transferFrom",
      "outputs": [
        {
          "internalType": "bool",
          "name": "",
          "type": "bool"
        }
      ],
      "stateMutability": "nonpayable",
      "type": "function"
    },
    {
      "inputs": [
        {
          "internalType": "address",
          "name": "_newAdmin",
          "type": "address"
        }
      ],
      "name": "transferOwnership",
      "outputs": [],
      "stateMutability": "nonpayable",
      "type": "function"
    },
    {
      "inputs": [
        {
          "internalType": "uint256",
          "name": "shares",
          "type": "uint256"
        }
      ],
      "name": "underlyingBalanceFromShares",
      "outputs": [
        {
          "internalType": "uint256",
          "name": "",
          "type": "uint256"
        }
      ],
      "stateMutability": "view",
      "type": "function"
    },
    {
      "stateMutability": "payable",
      "type": "receive"
    }
  ],
  "transactionHash": "0xa513af1140076e08f7c5383ec20a512ea9045be67ff6cd9a3ada78b13fbaf07d",
  "args": [],
  "numDeployments": 1,
  "solcInputHash": "34fe570511577a99672ba6468afacb98",
  "bytecode": "0x608060405234801561001057600080fd5b50615cba80620000216000396000f3fe6080604052600436106102ef5760003560e01c80635a88bd7711610186578063ac232bde116100d7578063dd62ed3e11610085578063dd62ed3e146108e7578063ec342ad014610907578063efd603471461091e578063f0f4426014610926578063f2fde38b14610946578063f79c3f0214610966578063f87e529614610986576102ff565b8063ac232bde14610842578063b747e7dd14610855578063bf15af5614610875578063c5eff3d01461088a578063cfa2d2b71461089f578063d0e30db0146108bf578063d56580ff146108c7576102ff565b806380d4027e1161013457806380d4027e14610775578063833b1fce1461079557806387f2adfb146107aa57806395d89b41146107bf57806398548cac146107ed5780639e3947f31461080d578063a9059cbb14610822576102ff565b80635a88bd771461069c5780635f41a0c4146106b157806363b4118f146106d157806370a0823114610700578063799a19541461072057806379ba5097146107405780637adbf97314610755576102ff565b80632cb562e1116102405780633eb8b77a116101ee5780633eb8b77a146105b55780634e9329d9146105f2578063540bc5ea1461061257806354741d6d14610627578063563967151461064757806358bf3c7f1461065c5780635a16f1351461067c576102ff565b80632cb562e1146104f2578063313ce56714610507578063334b974c1461052357806336bf33251461054357806339251321146105605780633af9e669146105805780633b19e84a146105a0576102ff565b806318160ddd1161029d57806318160ddd146104405780631864636c14610455578063192feab4146104755780631a4a7c611461048857806323b872dd1461049d578063252d6a34146104bd578063291206f6146104d2576102ff565b806305f63c8a1461031857806306fdde031461034e578063095ea7b31461038b5780631311cf8d146103bb57806313d86aed146103db578063143a08d4146103fb578063169674071461041e576102ff565b366102ff576102fd336109a6565b005b60405163574b16a760e11b815260040160405180910390fd5b34801561032457600080fd5b5061033861033336600461540a565b610a12565b604051610345919061547b565b60405180910390f35b34801561035a57600080fd5b5060408051808201909152600b81526a2934bb32b91022ba3432b960a91b60208201525b6040516103459190615507565b34801561039757600080fd5b506103ab6103a6366004615536565b610b21565b6040519015158152602001610345565b3480156103c757600080fd5b506102fd6103d6366004615560565b610b78565b3480156103e757600080fd5b506102fd6103f636600461540a565b610bc8565b34801561040757600080fd5b50610410610d19565b604051908152602001610345565b34801561042a57600080fd5b50610433610d28565b604051610345919061557b565b34801561044c57600080fd5b50610410610d32565b34801561046157600080fd5b506102fd6104703660046155da565b610d3c565b34801561048157600080fd5b5047610410565b34801561049457600080fd5b50610410611228565b3480156104a957600080fd5b506103ab6104b8366004615625565b611232565b3480156104c957600080fd5b50610410611316565b3480156104de57600080fd5b506102fd6104ed36600461540a565b611320565b3480156104fe57600080fd5b50610433611388565b34801561051357600080fd5b5060405160128152602001610345565b34801561052f57600080fd5b506102fd61053e366004615661565b611392565b34801561054f57600080fd5b506104106801bc16d674ec80000081565b34801561056c57600080fd5b506102fd61057b3660046156ce565b6114ed565b34801561058c57600080fd5b5061041061059b366004615560565b61172e565b3480156105ac57600080fd5b50610433611741565b3480156105c157600080fd5b506105d56105d036600461570c565b61174b565b604080519283526001600160a01b03909116602083015201610345565b3480156105fe57600080fd5b506102fd61060d36600461574d565b6117e7565b34801561061e57600080fd5b50610410606081565b34801561063357600080fd5b506102fd6106423660046157e0565b6118b1565b34801561065357600080fd5b50610410611a7d565b34801561066857600080fd5b506102fd610677366004615560565b611a87565b34801561068857600080fd5b506102fd610697366004615844565b611acb565b3480156106a857600080fd5b50610433611b5d565b3480156106bd57600080fd5b506102fd6106cc366004615879565b611b67565b3480156106dd57600080fd5b506106f16106ec366004615879565b611c0d565b6040516103459392919061589b565b34801561070c57600080fd5b5061041061071b366004615560565b611c39565b34801561072c57600080fd5b5061041061073b36600461540a565b611c44565b34801561074c57600080fd5b506102fd611c4f565b34801561076157600080fd5b506102fd610770366004615560565b611c9f565b34801561078157600080fd5b506102fd6107903660046158d3565b611ce3565b3480156107a157600080fd5b50610433611e35565b3480156107b657600080fd5b50610410611e3f565b3480156107cb57600080fd5b506040805180820190915260058152640d8e68aa8960db1b602082015261037e565b3480156107f957600080fd5b506102fd6108083660046158ff565b611e49565b34801561081957600080fd5b50610410611fde565b34801561082e57600080fd5b506103ab61083d366004615536565b611fe8565b6102fd610850366004615560565b612057565b34801561086157600080fd5b506102fd61087036600461596a565b612060565b34801561088157600080fd5b50610410603081565b34801561089657600080fd5b50610433612432565b3480156108ab57600080fd5b506103386108ba36600461570c565b61243c565b6102fd612582565b3480156108d357600080fd5b506102fd6108e236600461540a565b61258b565b3480156108f357600080fd5b506104106109023660046159ec565b6125f3565b34801561091357600080fd5b50610410620186a081565b6102fd612606565b34801561093257600080fd5b506102fd610941366004615560565b612641565b34801561095257600080fd5b506102fd610961366004615560565b612685565b34801561097257600080fd5b5061041061098136600461540a565b6126c9565b34801561099257600080fd5b506102fd6109a1366004615661565b6126d4565b346109c4576040516395b66fe960e01b815260040160405180910390fd5b6109cf338234612812565b6040513481526001600160a01b0382169033907f3bc57f469ad6d10d7723ea226cd22bd2b9e527def2b529f6ab44645a166895829060200160405180910390a350565b610a1a615318565b610a2382612986565b604080516101008101909152815460ff1615158152600182018054919291602084019190610a5090615a16565b80601f0160208091040260200160405190810160405280929190818152602001828054610a7c90615a16565b8015610ac95780601f10610a9e57610100808354040283529160200191610ac9565b820191906000526020600020905b815481529060010190602001808311610aac57829003601f168201915b505050918352505060028201546001600160a01b03908116602083015260038301541660408201526004820154606082015260058201546080820152600682015460a082015260079091015460c09091015292915050565b6000610b2e3384846129f7565b6040518281526001600160a01b0384169033907f8c5be1e5ebec7d5bd14f71427d1e84f3dd0314c0f7b2291e5b200ac8c7c3b9259060200160405180910390a35060015b92915050565b610b80612a4e565b6001600160a01b0316336001600160a01b031614610bbc573360405163472511eb60e11b8152600401610bb3919061557b565b60405180910390fd5b610bc581612a58565b50565b6000610be6610be06801bc16d674ec80000047615a61565b83612a8b565b905080610c0657604051631036b5ad60e31b815260040160405180910390fd5b600080610c1283612aa0565b8151919350915080610c375760405163200149ad60e21b815260040160405180910390fd5b83811115610c5857604051635993bd5760e01b815260040160405180910390fd5b8151818114610c7a576040516322e5ce4360e21b815260040160405180910390fd5b6000610c84612ab5565b905080610ca457604051639be7315960e01b815260040160405180910390fd5b60005b83811015610cf457610cec868281518110610cc457610cc4615a83565b6020026020010151868381518110610cde57610cde615a83565b602002602001015184612ae9565b600101610ca7565b50610d1083610d01612f6d565b610d0b9190615a99565b612f9d565b50505050505050565b6000610d23612fcb565b905090565b6000610d23612a4e565b6000610d23613037565b82610d45612a4e565b6001600160a01b0316336001600160a01b03161415610fae576000610d6985612986565b905082610d89576040516379b348ff60e11b815260040160405180910390fd5b60005b83811015610f4e576000858583818110610da857610da8615a83565b9050602002013590508260050154811015610dd65760405163213af80760e21b815260040160405180910390fd5b82600601548110610dfa576040516317df2d8d60e01b815260040160405180910390fd5b600082118015610e4457508585610e12600185615ab1565b818110610e2157610e21615a83565b90506020020135868684818110610e3a57610e3a615a83565b9050602002013510155b15610e625760405163c9ee26af60e01b815260040160405180910390fd5b600060018460060154610e759190615ab1565b90506000610e838984613041565b509050600080610e938b85613041565b91509150610ea38b8684846131b7565b610eea8b8560005b6040519080825280601f01601f191660200182016040528015610ed5576020820181803683370190505b506040805160008152602081019091526131b7565b6001876006016000828254610eff9190615ab1565b925050819055508a7f70cf8064c7574b284afe278226e25779f45a4c3715653674aa651b34e9a1909284604051610f369190615507565b60405180910390a28560010195505050505050610d8c565b5060048101548484610f61600182615ab1565b818110610f7057610f70615a83565b905060200201351015610fa8578383610f8a600182615ab1565b818110610f9957610f99615a83565b60200291909101356004830155505b50611222565b6000610fb982612986565b805490915060ff16610fe1576040516301550a7360e41b815260048101839052602401610bb3565b60028101546001600160a01b03163314611010573360405163472511eb60e11b8152600401610bb3919061557b565b600061101b86612986565b90508361103b576040516379b348ff60e11b815260040160405180910390fd5b60005b848110156111c557600086868381811061105a5761105a615a83565b90506020020135905082600501548110156110885760405163213af80760e21b815260040160405180910390fd5b826006015481106110ac576040516317df2d8d60e01b815260040160405180910390fd5b6000821180156110f6575086866110c4600185615ab1565b8181106110d3576110d3615a83565b905060200201358787848181106110ec576110ec615a83565b9050602002013510155b156111145760405163c9ee26af60e01b815260040160405180910390fd5b6000600184600601546111279190615ab1565b905060006111358a84613041565b5090506000806111458c85613041565b915091506111558c8684846131b7565b6111618c856000610eab565b60018760060160008282546111769190615ab1565b925050819055508b7f70cf8064c7574b284afe278226e25779f45a4c3715653674aa651b34e9a19092846040516111ad9190615507565b60405180910390a2856001019550505050505061103e565b50600481015485856111d8600182615ab1565b8181106111e7576111e7615a83565b90506020020135101561121f578484611201600182615ab1565b81811061121057611210615a83565b60200291909101356004830155505b50505b50505050565b6000610d23613214565b600083836112408282613237565b838061125f576040516336b216db60e21b815260040160405180910390fd5b86858061126b836132ff565b101561128a576040516351940b3960e11b815260040160405180910390fd5b6001600160a01b03891633146112fe5760006112a68a3361330a565b9050878110156112e857604051637b936de360e01b81526001600160a01b038b1660048201523360248201526044810182905260648101899052608401610bb3565b6112fc8a336112f78b85615ab1565b6129f7565b505b611309898989613362565b9998505050505050505050565b6000610d236133f0565b611328612a4e565b6001600160a01b0316336001600160a01b03161461135b573360405163472511eb60e11b8152600401610bb3919061557b565b620186a081111561137f5760405163a9cb9e0d60e01b815260040160405180910390fd5b610bc581613420565b6000610d2361344e565b8161139b612a4e565b6001600160a01b0316336001600160a01b0316141561141f5760006113bf84612986565b6003810180546001600160a01b0319166001600160a01b03861617905560405190915084907f946f49436cc557ff671730eddb10f5a7a0c0acecc6163a8e5d0e9d1654d8cec49061141190869061557b565b60405180910390a250505050565b600061142a82612986565b805490915060ff16611452576040516301550a7360e41b815260048101839052602401610bb3565b60038101546001600160a01b03163314611481573360405163472511eb60e11b8152600401610bb3919061557b565b600061148c85612986565b6003810180546001600160a01b0319166001600160a01b03871617905560405190915085907f946f49436cc557ff671730eddb10f5a7a0c0acecc6163a8e5d0e9d1654d8cec4906114de90879061557b565b60405180910390a25050505050565b826114f6612a4e565b6001600160a01b0316336001600160a01b031614156115f45761154e83838080601f01602080910402602001604051908101604052809392919081815260200183838082843760009201919091525061347e92505050565b15156001141561157557828260405163832eebc560e01b8152600401610bb3929190615b07565b6115b58484848080601f01602080910402602001604051908101604052809392919081815260200183838082843760009201919091525061348992505050565b837f9ad13f126d3d603b0b284edba7645ca0e423840767c48809bb5f87e72197e11484846040516115e7929190615b07565b60405180910390a2611222565b60006115ff82612986565b805490915060ff16611627576040516301550a7360e41b815260048101839052602401610bb3565b60028101546001600160a01b03163314611656573360405163472511eb60e11b8152600401610bb3919061557b565b61169584848080601f01602080910402602001604051908101604052809392919081815260200183838082843760009201919091525061347e92505050565b1515600114156116bc57838360405163832eebc560e01b8152600401610bb3929190615b07565b6116fc8585858080601f01602080910402602001604051908101604052809392919081815260200183838082843760009201919091525061348992505050565b847f9ad13f126d3d603b0b284edba7645ca0e423840767c48809bb5f87e72197e11485856040516114de929190615b07565b6000610b7261173c836135af565b6135fd565b6000610d23613635565b60008061178d84848080601f01602080910402602001604051908101604052809392919081815260200183838082843760009201919091525061366592505050565b91506117ce84848080601f0160208091040260200160405190810160405280939291908181526020018383808284376000920191909152506136e392505050565b6002015491946001600160a01b03909216935090915050565b60006117f161373d565b8114611822578061180061373d565b604051631cfd276760e31b815260048101929092526024820152604401610bb3565b611835611830826001615a99565b61376d565b6001600160a01b03861661185c5760405163f6b2911f60e01b815260040160405180910390fd5b6118658661379b565b61186e846137a4565b61187783613420565b611880826137f9565b61188989612a58565b6118938a89613827565b61189c87611cda565b6118a58561383d565b50505050505050505050565b6118b9612a4e565b6001600160a01b0316336001600160a01b0316146118ec573360405163472511eb60e11b8152600401610bb3919061557b565b61192b84848080601f01602080910402602001604051908101604052809392919081815260200183838082843760009201919091525061347e92505050565b1561194d57838360405163832eebc560e01b8152600401610bb3929190615b07565b600060405180610100016040528060011515815260200186868080601f016020809104026020016040519081016040528093929190818152602001838380828437600081840152601f19601f820116905080830192505050505050508152602001846001600160a01b03168152602001836001600160a01b03168152602001600081526020016000815260200160008152602001600081525090506000611a2b86868080601f016020809104026020016040519081016040528093929190818152602001838380828437600092019190915250869250613892915050565b9050807f9d880795fd14fb9cfab07d0e4cfbf6bc827bc9ead48c915f730d4f8affc2fbda836020015184604001518560600151604051611a6d93929190615b23565b60405180910390a2505050505050565b6000610d23612ab5565b611a8f612a4e565b6001600160a01b0316336001600160a01b031614611ac2573360405163472511eb60e11b8152600401610bb3919061557b565b610bc58161383d565b611ad3612a4e565b6001600160a01b0316336001600160a01b031614611b06573360405163472511eb60e11b8152600401610bb3919061557b565b6000611b1183612986565b805460ff1916831515908117825560405190815290915083907fe3bc5e5d3b000a1f65d146c40a38d89b1743b5729f4c6fe65f2e4b2dc620f2f2906020015b60405180910390a2505050565b6000610d23613acf565b611b6f612a4e565b6001600160a01b0316336001600160a01b031614611ba2573360405163472511eb60e11b8152600401610bb3919061557b565b6000611bad83612986565b90508060050154821115611bd45760405163a9cb9e0d60e01b815260040160405180910390fd5b6007810182905560405182815283907f773694db4f98cd263e42d4f798bcf603781d4491e48e8cbe96c219c1f13b777d90602001611b50565b6060806000611c1c8585613041565b9093509150611c2a85612986565b60050154841090509250925092565b6000610b72826132ff565b6000610b7282613ad9565b611c57613acf565b6001600160a01b0316336001600160a01b031614611c8a573360405163472511eb60e11b8152600401610bb3919061557b565b611c933361379b565b611c9d6000613b06565b565b611ca7612a4e565b6001600160a01b0316336001600160a01b031614611cda573360405163472511eb60e11b8152600401610bb3919061557b565b610bc581613b0f565b611ceb613b64565b6001600160a01b0316336001600160a01b031614611d1e573360405163472511eb60e11b8152600401610bb3919061557b565b611d26612f6d565b831115611d585782611d36612f6d565b6040516376179ac560e01b815260048101929092526024820152604401610bb3565b6000611d62613b94565b611d6c9085615ab1565b90506000611d83826801bc16d674ec800000615b56565b611d8b6133f0565b611d959190615a99565b9050611da084613bc4565b611da985613bf2565b611db283613c20565b6000611dbc613c4e565b9050611dc88186615a99565b821015611dec57611dec82611ddd8388615a99565b611de79190615ab1565b613d19565b60408051878152602081018790529081018590527f98e488f5118fc11ab540716c2afc4e440c0a892d27a4efef33db94b4f9da65899060600160405180910390a1505050505050565b6000610d23613b64565b6000610d23612f6d565b611e51612a4e565b6001600160a01b0316336001600160a01b031614611e84573360405163472511eb60e11b8152600401610bb3919061557b565b828114611ea45760405163a9854bc960e01b815260040160405180910390fd5b82611ec257604051637b329aa360e01b815260040160405180910390fd5b60005b83811015611fd7576000611ef0868684818110611ee457611ee4615a83565b90506020020135612986565b90508060060154848484818110611f0957611f09615a83565b905060200201351115611f5857838383818110611f2857611f28615a83565b9050602002013581600601546040516362106cb360e01b8152600401610bb3929190918252602082015260400190565b838383818110611f6a57611f6a615a83565b6020029190910135600483015550858583818110611f8a57611f8a615a83565b905060200201357f3adbeb5fbb94c52b64d90b31188c68a740868dde2238e03a04d581cae22cedf08260040154604051611fc691815260200190565b60405180910390a250600101611ec5565b5050505050565b6000610d23613b94565b60003383611ff68282613237565b8380612015576040516336b216db60e21b815260040160405180910390fd5b338580612021836132ff565b1015612040576040516351940b3960e11b815260040160405180910390fd5b61204b338989613362565b98975050505050505050565b610bc5816109a6565b85612069612a4e565b6001600160a01b0316336001600160a01b0316141561223157856120a0576040516379b348ff60e11b815260040160405180910390fd5b6120ab603087615b56565b84146120ca5760405163287c2be760e21b815260040160405180910390fd5b6120d5606087615b56565b82146120f457604051634be6321b60e01b815260040160405180910390fd5b60006120ff88612986565b905060005b878110156121d557600061215c88888080601f016020809104026020016040519081016040528093929190818152602001838380828437600092019190915250612155925060309150869050615b56565b6030613dfd565b905060006121ae87878080601f0160208091040260200160405190810160405280939291908181526020018383808284376000920191909152506121a7925060609150879050615b56565b6060613dfd565b90506121cb8b8486600601546121c49190615a99565b84846131b7565b5050600101612104565b50868160060160008282546121ea9190615a99565b92505081905550877f402e5ac3e483073137c527378b15e69f7f4a1c75c1adc0aa36f0c456876c05a08787604051612223929190615b07565b60405180910390a250610d10565b600061223c82612986565b805490915060ff16612264576040516301550a7360e41b815260048101839052602401610bb3565b60028101546001600160a01b03163314612293573360405163472511eb60e11b8152600401610bb3919061557b565b866122b1576040516379b348ff60e11b815260040160405180910390fd5b6122bc603088615b56565b85146122db5760405163287c2be760e21b815260040160405180910390fd5b6122e6606088615b56565b831461230557604051634be6321b60e01b815260040160405180910390fd5b600061231089612986565b905060005b888110156123d157600061236689898080601f016020809104026020016040519081016040528093929190818152602001838380828437600092019190915250612155925060309150869050615b56565b905060006123b188888080601f0160208091040260200160405190810160405280939291908181526020018383808284376000920191909152506121a7925060609150879050615b56565b90506123c78c8486600601546121c49190615a99565b5050600101612315565b50878160060160008282546123e69190615a99565b92505081905550887f402e5ac3e483073137c527378b15e69f7f4a1c75c1adc0aa36f0c456876c05a0888860405161241f929190615b07565b60405180910390a2505050505050505050565b6000610d23613f0a565b612444615318565b61248383838080601f0160208091040260200160405190810160405280939291908181526020018383808284376000920191909152506136e392505050565b604080516101008101909152815460ff16151581526001820180549192916020840191906124b090615a16565b80601f01602080910402602001604051908101604052809291908181526020018280546124dc90615a16565b80156125295780601f106124fe57610100808354040283529160200191612529565b820191906000526020600020905b81548152906001019060200180831161250c57829003601f168201915b505050918352505060028201546001600160a01b03908116602083015260038301541660408201526004820154606082015260058201546080820152600682015460a082015260079091015460c0909101529392505050565b611c9d336109a6565b612593612a4e565b6001600160a01b0316336001600160a01b0316146125c6573360405163472511eb60e11b8152600401610bb3919061557b565b620186a08111156125ea5760405163a9cb9e0d60e01b815260040160405180910390fd5b610bc5816137f9565b60006125ff838361330a565b9392505050565b61260e61344e565b6001600160a01b0316336001600160a01b031614611c9d573360405163472511eb60e11b8152600401610bb3919061557b565b612649612a4e565b6001600160a01b0316336001600160a01b03161461267c573360405163472511eb60e11b8152600401610bb3919061557b565b610bc5816137a4565b61268d612a4e565b6001600160a01b0316336001600160a01b0316146126c0573360405163472511eb60e11b8152600401610bb3919061557b565b610bc581613b06565b6000610b72826135fd565b816126dd612a4e565b6001600160a01b0316336001600160a01b0316141561275357600061270184612986565b6002810180546001600160a01b0319166001600160a01b03861617905560405190915084907f08a670ef4110fe90a7d61086d1477cde043a940601bd853a50009ac5a5ba56e79061141190869061557b565b600061275e82612986565b805490915060ff16612786576040516301550a7360e41b815260048101839052602401610bb3565b60028101546001600160a01b031633146127b5573360405163472511eb60e11b8152600401610bb3919061557b565b60006127c085612986565b6002810180546001600160a01b0319166001600160a01b03871617905560405190915085907f08a670ef4110fe90a7d61086d1477cde043a940601bd853a50009ac5a5ba56e7906114de90879061557b565b600061281e8483613f3a565b9050826001600160a01b0316846001600160a01b031614156128a557612842613f0a565b6001600160a01b0316635a4091028560016040518363ffffffff1660e01b8152600401612870929190615b75565b60006040518083038186803b15801561288857600080fd5b505afa15801561289c573d6000803e3d6000fd5b50505050611222565b6128ad613f0a565b6001600160a01b0316635a409102856128c860006001615a99565b6040518363ffffffff1660e01b81526004016128e5929190615b75565b60006040518083038186803b1580156128fd57600080fd5b505afa158015612911573d6000803e3d6000fd5b5050505061291d613f0a565b6001600160a01b0316635a4091028460006040518363ffffffff1660e01b815260040161294b929190615b75565b60006040518083038186803b15801561296357600080fd5b505afa158015612977573d6000803e3d6000fd5b50505050611fd7848483613362565b6000806129a26001600080516020615c65833981519152615ab1565b8054909150819084106129cb5760405163346468db60e21b815260048101859052602401610bb3565b8060000184815481106129e0576129e0615a83565b906000526020600020906008020192505050919050565b6000612a2460017fc852254d5b703a16bb13b3e233a335d6459c5da5db0ca732d7a684ee05407847615ab1565b6001600160a01b039485166000908152602091825260408082209590961681529390525091902055565b6000610d23613fa5565b610bc5612a8660017f8e9e2a1d30fed357d8a000c1131fc77ed65d2052918caf1ccc6eb1e7af3d13b6615ab1565b829055565b6000818311612a9a57826125ff565b50919050565b606080612aac83613fd5565b91509150915091565b6000610d23612ae560017fb649e50315f962b32d487e696a81b4828631b11f8424daaaa37e9e97766a2c42615ab1565b5490565b6030835114612b0b5760405163050cb55360e41b815260040160405180910390fd5b6060825114612b2d5760405163408ebd3960e01b815260040160405180910390fd5b6801bc16d674ec8000006000612b47633b9aca0083615a61565b905060006002612b5687614319565b604051612b639190615b8e565b602060405180830381855afa158015612b80573d6000803e3d6000fd5b5050506040513d601f19601f82011682018060405250810190612ba39190615baa565b90506000600280612bb78860006040613dfd565b604051612bc49190615b8e565b602060405180830381855afa158015612be1573d6000803e3d6000fd5b5050506040513d601f19601f82011682018060405250810190612c049190615baa565b6002612c24612c1f8a6040612c1a816060615ab1565b613dfd565b614319565b604051612c319190615b8e565b602060405180830381855afa158015612c4e573d6000803e3d6000fd5b5050506040513d601f19601f82011682018060405250810190612c719190615baa565b60408051602081019390935282015260600160408051601f1981840301815290829052612c9d91615b8e565b602060405180830381855afa158015612cba573d6000803e3d6000fd5b5050506040513d601f19601f82011682018060405250810190612cdd9190615baa565b905060006002808488604051602001612d00929190918252602082015260400190565b60408051601f1981840301815290829052612d1a91615b8e565b602060405180830381855afa158015612d37573d6000803e3d6000fd5b5050506040513d601f19601f82011682018060405250810190612d5a9190615baa565b6002612d65876143a2565b604080516020810192909252810186905260600160408051601f1981840301815290829052612d9391615b8e565b602060405180830381855afa158015612db0573d6000803e3d6000fd5b5050506040513d601f19601f82011682018060405250810190612dd39190615baa565b60408051602081019390935282015260600160408051601f1981840301815290829052612dff91615b8e565b602060405180830381855afa158015612e1c573d6000803e3d6000fd5b5050506040513d601f19601f82011682018060405250810190612e3f9190615baa565b90506000612e4d8647615ab1565b9050612e576143e0565b6001600160a01b03166322895118878b8a604051602001612e7a91815260200190565b6040516020818303038152906040528c876040518663ffffffff1660e01b8152600401612eaa9493929190615bc3565b6000604051808303818588803b158015612ec357600080fd5b505af1158015612ed7573d6000803e3d6000fd5b5050505050804714612f2b5760405162461bcd60e51b815260206004820152601b60248201527f455850454354494e475f4445504f5349545f544f5f48415050454e00000000006044820152606401610bb3565b7f11553d182c6d24df901ccbb837d640c1ee9994876a88dccc8ddfd7ebab9b6ce189604051612f5a9190615507565b60405180910390a1505050505050505050565b6000610d23612ae560017fc77078e3530c08cdb2440817c81de4836500b4708ea4d15672b7fe98956423a8615ab1565b610bc5612a8660017fc77078e3530c08cdb2440817c81de4836500b4708ea4d15672b7fe98956423a8615ab1565b600080612fd6613b94565b90506000612fe2612f6d565b90508082101561302e576801bc16d674ec8000006130008383615ab1565b61300a9190615b56565b476130136133f0565b61301d9190615a99565b6130279190615a99565b9250505090565b4761301d6133f0565b6000610d23614410565b606080600061305f6001600080516020615c25833981519152615ab1565b60008681526020828152604080832088845290915290208054919250829161311390829061308c90615a16565b80601f01602080910402602001604051908101604052809291908181526020018280546130b890615a16565b80156131055780601f106130da57610100808354040283529160200191613105565b820191906000526020600020905b8154815290600101906020018083116130e857829003601f168201915b505050505060006030613dfd565b94506131ab81805461312490615a16565b80601f016020809104026020016040519081016040528092919081815260200182805461315090615a16565b801561319d5780601f106131725761010080835404028352916020019161319d565b820191906000526020600020905b81548152906001019060200180831161318057829003601f168201915b505050505060306060613dfd565b93505050509250929050565b60006131c38383614440565b905060006131e06001600080516020615c25833981519152615ab1565b60008781526020828152604080832089845282529091208451929350839261320a92860190615371565b5050505050505050565b6000806132306001600080516020615c65833981519152615ab1565b5492915050565b61323f613f0a565b6001600160a01b0316635a4091028360006040518363ffffffff1660e01b815260040161326d929190615b75565b60006040518083038186803b15801561328557600080fd5b505afa158015613299573d6000803e3d6000fd5b505050506132a5613f0a565b6001600160a01b0316635a4091028260006040518363ffffffff1660e01b81526004016132d3929190615b75565b60006040518083038186803b1580156132eb57600080fd5b505afa15801561121f573d6000803e3d6000fd5b6000610b72826135af565b60008061333860017fc852254d5b703a16bb13b3e233a335d6459c5da5db0ca732d7a684ee05407847615ab1565b6001600160a01b039485166000908152602091825260408082209590961681529390525050205490565b60006133818483613372876135af565b61337c9190615ab1565b6144bd565b613399838361338f866135af565b61337c9190615a99565b826001600160a01b0316846001600160a01b03167fddf252ad1be2c89b69c2b068fc378daa952ba7f163c4a11628f55a4df523b3ef846040516133de91815260200190565b60405180910390a35060019392505050565b6000610d23612ae560017f42b27da24a254372d1e7ea692a34d85d9237abb39a65153affece1e2f1e60900615ab1565b610bc5612a8660017f094efef62d2ce60c14ffacd35a1b50546d3a9d503aff1df040176fffd6c92a37615ab1565b6000610d23612ae560017f8e9e2a1d30fed357d8a000c1131fc77ed65d2052918caf1ccc6eb1e7af3d13b6615ab1565b6000610b7282614509565b60006134a46001600080516020615c65833981519152615ab1565b805490915081906000908290869081106134c0576134c0615a83565b906000526020600020906008020160010180546134dc90615a16565b80601f016020809104026020016040519081016040528092919081815260200182805461350890615a16565b80156135555780601f1061352a57610100808354040283529160200191613555565b820191906000526020600020905b81548152906001019060200180831161353857829003601f168201915b505050505090508382600001868154811061357257613572615a83565b90600052602060002090600802016001019080519060200190613596929190615371565b506135a381600080614555565b611fd784600187614555565b6000806135dd60017f0fb4a5ac9287f4f508aa7253ee2d57c6a228b1b30e210d73fffd59389d3a8838615ab1565b6001600160a01b0390931660009081526020939093525050604090205490565b600080613608614410565b9050806136185750600092915050565b80613621612fcb565b61362b9085615b56565b6125ff9190615a61565b6000610d23612ae560017faa490d1834c76465b09f09618af9f91fbbd04c30f1f453b24b1e8f907c9e1fa3615ab1565b6000806136816001600080516020615c45833981519152615ab1565b60405190915081908190613696908690615b8e565b9081526040519081900360200190205460ff166136b857506000199392505050565b60405181906136c8908690615b8e565b90815260200160405180910390206001015492505050919050565b6000806136ff6001600080516020615c65833981519152615ab1565b9050600061370c846145c7565b8254909150829081908390811061372557613725615a83565b90600052602060002090600802019350505050919050565b6000610d23612ae560017f82055909238c0f5e63d6f174068ebb8f51bcec9bd37de63bb68f6551feec0cfd615ab1565b610bc5612a8660017f82055909238c0f5e63d6f174068ebb8f51bcec9bd37de63bb68f6551feec0cfd615ab1565b610bc58161462a565b6001600160a01b0381166137cb5760405163f6b2911f60e01b815260040160405180910390fd5b610bc5612a8660017faa490d1834c76465b09f09618af9f91fbbd04c30f1f453b24b1e8f907c9e1fa3615ab1565b610bc5612a8660017f8b296ea79529153bb5bae302cb8c44db7ed739099e80c9f19feb68f6a43578a8615ab1565b61383082614658565b613839816146ad565b5050565b6001600160a01b0381166138645760405163f6b2911f60e01b815260040160405180910390fd5b610bc5612a8660017f867d8f1a5e39d11d5bebde854d5359a509530ad32450f581da63c06ec8d1a780615ab1565b60408101516000906001600160a01b031615806138ba575060608201516001600160a01b0316155b156138d85760405163f6b2911f60e01b815260040160405180910390fd5b60006138e384614509565b905060006139006001600080516020615c65833981519152615ab1565b905080826139e35780546001808201835560008381526020908190208851600890940201805460ff191693151593909317835587810151805189949361394b93908501920190615371565b5060408201516002820180546001600160a01b039283166001600160a01b03199182161790915560608401516003840180549190931691161790556080820151600482015560a0820151600582015560c0820151600682015560e090910151600790910155845181546139cb9188916139c690600190615ab1565b614555565b80546139d990600190615ab1565b9350505050610b72565b60006139ee876145c7565b905085826000018281548110613a0657613a06615a83565b6000918252602091829020835160089290920201805460ff19169115159190911781558282015180519192613a4392600185019290910190615371565b5060408201516002820180546001600160a01b039283166001600160a01b03199182161790915560608401516003840180549190931691161790556080820151600482015560a0820151600582015560c0820151600682015560e090910151600790910155855184151590151514613ac457613ac487876000015183614555565b9350610b7292505050565b6000610d236146db565b600080613ae4614410565b905080613af45750600092915050565b613afc612fcb565b61362b8285615b56565b610bc58161470b565b6001600160a01b038116613b365760405163f6b2911f60e01b815260040160405180910390fd5b610bc5612a8660017fc8cbea9407c380ae944f052b5a442330057683c5abdbd453493f9750806afecb615ab1565b6000610d23612ae560017fc8cbea9407c380ae944f052b5a442330057683c5abdbd453493f9750806afecb615ab1565b6000610d23612ae560017f6929b6137e885d965ed089510659a629a29a4a54f85c28286fa5e0d7dcf27a37615ab1565b610bc5612a8660017f42b27da24a254372d1e7ea692a34d85d9237abb39a65153affece1e2f1e60900615ab1565b610bc5612a8660017f6929b6137e885d965ed089510659a629a29a4a54f85c28286fa5e0d7dcf27a37615ab1565b610bc5612a8660017fd7f2d45e512a86049f7a113657b39731b6b558609584243063a52cd31a8eb529615ab1565b600080613c5961344e565b90506001600160a01b038116613c7157600091505090565b6000479050816001600160a01b0316637b4b81826040518163ffffffff1660e01b8152600401600060405180830381600087803b158015613cb157600080fd5b505af1158015613cc5573d6000803e3d6000fd5b5050505060008147613cd79190615ab1565b90507fda841d3042d792e2509a333b9dcbd4b3dd9b9047d382011f8788fab90ca7e3c781604051613d0a91815260200190565b60405180910390a19392505050565b6000613d23613037565b905080613d4357604051630d35acd760e21b815260040160405180910390fd5b6000613d4d614739565b9050600081613d5c8486615b56565b613d669190615b56565b90506000613d748386615b56565b620186a0613d80612fcb565b613d8a9190615b56565b613d949190615ab1565b905060008115613dad57613da88284615a61565b613db0565b60005b90506000620186a0613dc0614769565b613dca9084615b56565b613dd49190615a61565b90506000613de182614799565b905061320a613dee613635565b613df88386615ab1565b6148fb565b606081613e0b81601f615a99565b1015613e4a5760405162461bcd60e51b815260206004820152600e60248201526d736c6963655f6f766572666c6f7760901b6044820152606401610bb3565b613e548284615a99565b84511015613e985760405162461bcd60e51b8152602060048201526011602482015270736c6963655f6f75744f66426f756e647360781b6044820152606401610bb3565b606082158015613eb75760405191506000825260208201604052613f01565b6040519150601f8416801560200281840101858101878315602002848b0101015b81831015613ef0578051835260209283019201613ed8565b5050858452601f01601f1916604052505b50949350505050565b6000610d23612ae560017f867d8f1a5e39d11d5bebde854d5359a509530ad32450f581da63c06ec8d1a780615ab1565b60008082613f46612fcb565b613f509190615ab1565b905080613f6a57613f6184846148fb565b82915050610b72565b600081613f75613037565b613f7f9086615b56565b613f899190615a61565b9050613f9585826148fb565b9150610b729050565b5092915050565b6000610d23612ae560017fb5b37715a3e346e996104f0086703f19825def429233930fd9399c38e05fb113615ab1565b6060806000613fe2614969565b9050805160001415614050576040805160008082526020820190925290614019565b60608152602001906001900390816140045790505b506040805160008082526020820190925290614045565b60608152602001906001900390816140305790505b509250925050915091565b600060015b82518110156140fc5782828151811061407057614070615a83565b602002602001015160e0015183838151811061408e5761408e615a83565b602002602001015160a001516140a49190615ab1565b8382815181106140b6576140b6615a83565b602002602001015160e001518483815181106140d4576140d4615a83565b602002602001015160a001516140ea9190615ab1565b10156140f4578091505b600101614055565b50600082828151811061411157614111615a83565b602002602001015160a0015161416184848151811061413257614132615a83565b602002602001015160c0015185858151811061415057614150615a83565b602002602001015160800151612a8b565b61416b9190615ab1565b9050806141d657604080516000808252602082019092529061419d565b60608152602001906001900390816141885790505b5060408051600080825260208201909252906141c9565b60608152602001906001900390816141b45790505b5094509450505050915091565b60006141fe8484815181106141ed576141ed615a83565b6020026020010151602001516136e3565b90508682106142745761424d84848151811061421c5761421c615a83565b6020026020010151610100015185858151811061423b5761423b615a83565b602002602001015160a0015189614d69565b8096508197505050868160050160008282546142699190615a99565b909155506143109050565b6142ba84848151811061428957614289615a83565b602002602001015161010001518585815181106142a8576142a8615a83565b602002602001015160a0015184614d69565b8096508197505050818160050160008282546142d69190615a99565b9091555060009050806142f16142ec858b615ab1565b613fd5565b915091506142ff8883614f55565b975061430b8782614f55565b965050505b50505050915091565b6060602082511015801561432f57506040825111155b61433b5761433b615c0e565b815160401415614349575090565b60408051602080825281830190925260009160208201818036833701905050905060006020820152825160201415614385576125ff8382614440565b6125ff8361439d83600087516040612c1a9190615ab1565b614440565b600081815b60088110156143c857600892831b60ff831617929190911c906001016143a7565b5080156143d7576143d7615c0e565b5060c01b919050565b6000610d23612ae560017f35efb61d8784060218d9d6aa40eae55904de43779c1afc79c74dfefcfdf91260615ab1565b6000610d23612ae560017f6b842b424335d94ccad97e54548dfa02673c1268aba38d3c3c32d28c8988b70b615ab1565b6060806040519050835180825260208201818101602087015b81831015614471578051835260209283019201614459565b50855184518101855292509050808201602086015b8183101561449e578051835260209283019201614486565b508651929092011591909101601f01601f191660405250905092915050565b60006144ea60017f0fb4a5ac9287f4f508aa7253ee2d57c6a228b1b30e210d73fffd59389d3a8838615ab1565b6001600160a01b03909316600090815260209390935250604090912055565b6000806145256001600080516020615c45833981519152615ab1565b6040519091508190819061453a908690615b8e565b9081526040519081900360200190205460ff16949350505050565b60006145706001600080516020615c45833981519152615ab1565b604080518082018252851515815260208101859052905191925082918290614599908890615b8e565b908152604051602091819003820190208251815460ff19169015151781559101516001909101555050505050565b6000806145e36001600080516020615c45833981519152615ab1565b604051909150819081906145f8908690615b8e565b9081526040519081900360200190205460ff166136b857836040516334eddfcf60e01b8152600401610bb39190615507565b610bc5612a8660017fb5b37715a3e346e996104f0086703f19825def429233930fd9399c38e05fb113615ab1565b6001600160a01b03811661467f5760405163f6b2911f60e01b815260040160405180910390fd5b610bc5612a8660017f35efb61d8784060218d9d6aa40eae55904de43779c1afc79c74dfefcfdf91260615ab1565b610bc5612a8660017fb649e50315f962b32d487e696a81b4828631b11f8424daaaa37e9e97766a2c42615ab1565b6000610d23612ae560017f6e6ab8b7c7aaba79eef8cc633522d606bb008c101cf9832c9ad05d10a9847281615ab1565b610bc5612a8660017f6e6ab8b7c7aaba79eef8cc633522d606bb008c101cf9832c9ad05d10a9847281615ab1565b6000610d23612ae560017f094efef62d2ce60c14ffacd35a1b50546d3a9d503aff1df040176fffd6c92a37615ab1565b6000610d23612ae560017f8b296ea79529153bb5bae302cb8c44db7ed739099e80c9f19feb68f6a43578a8615ab1565b6000806147a4615055565b9050600081516001600160401b038111156147c1576147c1615ac8565b6040519080825280602002602001820160405280156147ea578160200160208202803683370190505b5090506000805b835181101561487757600084828151811061480e5761480e615a83565b602002602001015160e0015185838151811061482c5761482c615a83565b602002602001015160a001516148429190615ab1565b905061484e8184615a99565b92508084838151811061486357614863615a83565b6020908102919091010152506001016147f1565b5080156148ed57600061488a8287615a61565b905060005b83518110156148e6576148de8582815181106148ad576148ad615a83565b602002602001015160600151838684815181106148cc576148cc615a83565b6020026020010151613df89190615b56565b60010161488f565b50506148f2565b600094505b50929392505050565b61491681614907614410565b6149119190615a99565b61529c565b614924828261338f856135af565b6040518181526001600160a01b038316906000907fddf252ad1be2c89b69c2b068fc378daa952ba7f163c4a11628f55a4df523b3ef9060200160405180910390a35050565b606060006149866001600080516020615c65833981519152615ab1565b9050806000805b8254811015614acf57614abb8360000182815481106149ae576149ae615a83565b6000918252602091829020604080516101008101909152600890920201805460ff161515825260018101805492939192918401916149eb90615a16565b80601f0160208091040260200160405190810160405280929190818152602001828054614a1790615a16565b8015614a645780601f10614a3957610100808354040283529160200191614a64565b820191906000526020600020905b815481529060010190602001808311614a4757829003601f168201915b505050918352505060028201546001600160a01b03908116602083015260038301541660408201526004820154606082015260058201546080820152600682015460a082015260079091015460c0909101526152ca565b15614ac7578160010191505b60010161498d565b506000816001600160401b03811115614aea57614aea615ac8565b604051908082528060200260200182016040528015614b7e57816020015b614b6b6040518061012001604052806000151581526020016060815260200160006001600160a01b0316815260200160006001600160a01b0316815260200160008152602001600081526020016000815260200160008152602001600081525090565b815260200190600190039081614b085790505b5090506000805b8454811015614d5e576000856000018281548110614ba557614ba5615a83565b6000918252602091829020604080516101008101909152600890920201805460ff16151582526001810180549293919291840191614be290615a16565b80601f0160208091040260200160405190810160405280929190818152602001828054614c0e90615a16565b8015614c5b5780601f10614c3057610100808354040283529160200191614c5b565b820191906000526020600020905b815481529060010190602001808311614c3e57829003601f168201915b505050918352505060028201546001600160a01b03908116602083015260038301541660408201526004820154606082015260058201546080820152600682015460a082015260079091015460c0909101529050614cb8816152ca565b15614d55576040518061012001604052808260000151151581526020018260200151815260200182604001516001600160a01b0316815260200182606001516001600160a01b03168152602001826080015181526020018260a0015181526020018260c0015181526020018260e00151815260200183815250848481518110614d4357614d43615a83565b60200260200101819052508260010192505b50600101614b85565b509095945050505050565b606080826001600160401b03811115614d8457614d84615ac8565b604051908082528060200260200182016040528015614db757816020015b6060815260200190600190039081614da25790505b509150826001600160401b03811115614dd257614dd2615ac8565b604051908082528060200260200182016040528015614e0557816020015b6060815260200190600190039081614df05790505b5090506000614e236001600080516020615c25833981519152615ab1565b905080855b614e328688615a99565b811015614f4a5760008881526020838152604080832084845290915281208054614e5b90615a16565b80601f0160208091040260200160405190810160405280929190818152602001828054614e8790615a16565b8015614ed45780601f10614ea957610100808354040283529160200191614ed4565b820191906000526020600020905b815481529060010190602001808311614eb757829003601f168201915b50505050509050614ee88160006030613dfd565b86614ef38a85615ab1565b81518110614f0357614f03615a83565b6020026020010181905250614f1b8160306060613dfd565b85614f268a85615ab1565b81518110614f3657614f36615a83565b602090810291909101015250600101614e28565b505050935093915050565b606081518351614f659190615a99565b6001600160401b03811115614f7c57614f7c615ac8565b604051908082528060200260200182016040528015614faf57816020015b6060815260200190600190039081614f9a5790505b50905060005b8351811015614ffd57838181518110614fd057614fd0615a83565b6020026020010151828281518110614fea57614fea615a83565b6020908102919091010152600101614fb5565b5060005b8251811015613f9e5782818151811061501c5761501c615a83565b6020026020010151828551836150329190615a99565b8151811061504257615042615a83565b6020908102919091010152600101615001565b606060006150726001600080516020615c65833981519152615ab1565b9050806000805b82548110156150bf5782600001818154811061509757615097615a83565b600091825260209091206008909102015460ff16156150b7578160010191505b600101615079565b506000816001600160401b038111156150da576150da615ac8565b60405190808252806020026020018201604052801561511357816020015b615100615318565b8152602001906001900390816150f85790505b5090506000805b8454811015614d5e5784600001818154811061513857615138615a83565b600091825260209091206008909102015460ff16156152945784600001818154811061516657615166615a83565b6000918252602091829020604080516101008101909152600890920201805460ff161515825260018101805492939192918401916151a390615a16565b80601f01602080910402602001604051908101604052809291908181526020018280546151cf90615a16565b801561521c5780601f106151f15761010080835404028352916020019161521c565b820191906000526020600020905b8154815290600101906020018083116151ff57829003601f168201915b505050918352505060028201546001600160a01b03908116602083015260038301541660408201526004820154606082015260058201546080820152600682015460a082015260079091015460c090910152835184908490811061528257615282615a83565b60200260200101819052508160010191505b60010161511a565b610bc5612a8660017f6b842b424335d94ccad97e54548dfa02673c1268aba38d3c3c32d28c8988b70b615ab1565b805160009080156152f157508160e001518260a001516152ea9190615ab1565b8260c00151115b8015610b7257508160e001518260a0015161530c9190615ab1565b82608001511192915050565b6040518061010001604052806000151581526020016060815260200160006001600160a01b0316815260200160006001600160a01b03168152602001600081526020016000815260200160008152602001600081525090565b82805461537d90615a16565b90600052602060002090601f01602090048101928261539f57600085556153e5565b82601f106153b857805160ff19168380011785556153e5565b828001600101855582156153e5579182015b828111156153e55782518255916020019190600101906153ca565b506153f19291506153f5565b5090565b5b808211156153f157600081556001016153f6565b60006020828403121561541c57600080fd5b5035919050565b60005b8381101561543e578181015183820152602001615426565b838111156112225750506000910152565b60008151808452615467816020860160208601615423565b601f01601f19169290920160200192915050565b60208152815115156020820152600060208301516101008060408501526154a661012085018361544f565b915060018060a01b03604086015116606085015260608501516154d460808601826001600160a01b03169052565b50608085015160a085015260a085015160c085015260c085015160e085015260e085015181850152508091505092915050565b6020815260006125ff602083018461544f565b80356001600160a01b038116811461553157600080fd5b919050565b6000806040838503121561554957600080fd5b6155528361551a565b946020939093013593505050565b60006020828403121561557257600080fd5b6125ff8261551a565b6001600160a01b0391909116815260200190565b60008083601f8401126155a157600080fd5b5081356001600160401b038111156155b857600080fd5b6020830191508360208260051b85010111156155d357600080fd5b9250929050565b6000806000604084860312156155ef57600080fd5b8335925060208401356001600160401b0381111561560c57600080fd5b6156188682870161558f565b9497909650939450505050565b60008060006060848603121561563a57600080fd5b6156438461551a565b92506156516020850161551a565b9150604084013590509250925092565b6000806040838503121561567457600080fd5b823591506156846020840161551a565b90509250929050565b60008083601f84011261569f57600080fd5b5081356001600160401b038111156156b657600080fd5b6020830191508360208285010111156155d357600080fd5b6000806000604084860312156156e357600080fd5b8335925060208401356001600160401b0381111561570057600080fd5b6156188682870161568d565b6000806020838503121561571f57600080fd5b82356001600160401b0381111561573557600080fd5b6157418582860161568d565b90969095509350505050565b60008060008060008060008060006101208a8c03121561576c57600080fd5b6157758a61551a565b985061578360208b0161551a565b975060408a0135965061579860608b0161551a565b95506157a660808b0161551a565b94506157b460a08b0161551a565b93506157c260c08b0161551a565b925060e08a013591506101008a013590509295985092959850929598565b600080600080606085870312156157f657600080fd5b84356001600160401b0381111561580c57600080fd5b6158188782880161568d565b909550935061582b90506020860161551a565b91506158396040860161551a565b905092959194509250565b6000806040838503121561585757600080fd5b823591506020830135801515811461586e57600080fd5b809150509250929050565b6000806040838503121561588c57600080fd5b50508035926020909101359150565b6060815260006158ae606083018661544f565b82810360208401526158c0818661544f565b9150508215156040830152949350505050565b6000806000606084860312156158e857600080fd5b505081359360208301359350604090920135919050565b6000806000806040858703121561591557600080fd5b84356001600160401b038082111561592c57600080fd5b6159388883890161558f565b9096509450602087013591508082111561595157600080fd5b5061595e8782880161558f565b95989497509550505050565b6000806000806000806080878903121561598357600080fd5b863595506020870135945060408701356001600160401b03808211156159a857600080fd5b6159b48a838b0161568d565b909650945060608901359150808211156159cd57600080fd5b506159da89828a0161568d565b979a9699509497509295939492505050565b600080604083850312156159ff57600080fd5b615a088361551a565b91506156846020840161551a565b600181811c90821680615a2a57607f821691505b60208210811415612a9a57634e487b7160e01b600052602260045260246000fd5b634e487b7160e01b600052601160045260246000fd5b600082615a7e57634e487b7160e01b600052601260045260246000fd5b500490565b634e487b7160e01b600052603260045260246000fd5b60008219821115615aac57615aac615a4b565b500190565b600082821015615ac357615ac3615a4b565b500390565b634e487b7160e01b600052604160045260246000fd5b81835281816020850137506000828201602090810191909152601f909101601f19169091010190565b602081526000615b1b602083018486615ade565b949350505050565b606081526000615b36606083018661544f565b6001600160a01b0394851660208401529290931660409091015292915050565b6000816000190483118215151615615b7057615b70615a4b565b500290565b6001600160a01b03929092168252602082015260400190565b60008251615ba0818460208701615423565b9190910192915050565b600060208284031215615bbc57600080fd5b5051919050565b608081526000615bd6608083018761544f565b8281036020840152615be8818761544f565b90508281036040840152615bfc818661544f565b91505082606083015295945050505050565b634e487b7160e01b600052600160045260246000fdfe6018b2d18c7378174a403e179ce41a2df430338a150b2bcec4b7a08291285574b005a38730de558570646e2e51c331893c451361d6a7ba50d9c54b48e05ddd27794c962401f2e1bb68ba8627fb26fd4eea0439023c691c35b68bb144bfe10113a26469706673582212202e4f25ffbd1c6bba507fdddb3713f73e15a3aacc1b32c53a6a3f5a19f03ff34664736f6c634300080a0033",
  "devdoc": {
    "author": "Kiln",
    "kind": "dev",
    "methods": {
      "addOperator(string,address,address)": {
        "details": "Only callable by the administrator",
        "params": {
          "_feeRecipient": "The address where the rewards are sent",
          "_name": "The name identifying the operator",
          "_operator": "The address representing the operator, receiving the rewards"
        }
      },
      "addValidators(uint256,uint256,bytes,bytes)": {
        "details": "Only callable by the administrator or the operator address",
        "params": {
          "_index": "The operator index",
          "_keyCount": "The amount of keys provided",
          "_publicKeys": "Public keys of the validator, concatenated",
          "_signatures": "Signatures of the validator keys, concatenated"
        }
      },
      "approve(address,uint256)": {
        "details": "An approved account can use transferFrom to transfer funds on behalf of the token owner",
        "params": {
          "_spender": "Address that is allowed to spend the tokens",
          "_value": "The allowed amount, will override previous value"
        }
      },
      "balanceOf(address)": {
        "params": {
          "_owner": "Address to be checked"
        }
      },
      "balanceOfUnderlying(address)": {
        "params": {
          "_owner": "Address to be checked"
        }
      },
      "depositAndTransfer(address)": {
        "params": {
          "_recipient": "Address receiving the minted lsETH"
        }
      },
      "depositToConsensusLayer(uint256)": {
        "params": {
          "_maxCount": "The maximum amount of validator keys to fund"
        }
      },
      "getOperator(uint256)": {
        "params": {
          "_index": "The index of the operator"
        }
      },
      "getOperatorByName(string)": {
        "params": {
          "_name": "The name identifying the operator"
        }
      },
      "getOperatorDetails(string)": {
        "params": {
          "_name": "Name of the operator"
        }
      },
      "getValidator(uint256,uint256)": {
        "params": {
          "_operatorIndex": "The index of the operator",
          "_validatorIndex": "The index of the validator"
        }
      },
      "initRiverV1(address,address,bytes32,address,address,address,address,uint256,uint256)": {
        "params": {
          "_allowlistAddress": "Address of the allowlist contract",
          "_depositContractAddress": "Address to make Consensus Layer deposits",
          "_elFeeRecipientAddress": "Address that receives the execution layer fees",
          "_globalFee": "Amount retained when the eth balance increases, splitted between the treasury and the operators",
          "_operatorRewardsShare": "Share of the global fee used to reward node operators",
          "_systemAdministratorAddress": "Administrator address",
          "_treasuryAddress": "Address receiving the fee minus the operator share",
          "_withdrawalCredentials": "Credentials to use for every validator deposit"
        }
      },
      "removeValidators(uint256,uint256[])": {
        "details": "Only callable by the administrator or the operator addressThe indexes must be provided sorted in decreasing order, otherwise the method will revertThe operator limit will be set to the lowest deleted key index",
        "params": {
          "_index": "The operator index",
          "_indexes": "The indexes of the keys to remove"
        }
      },
      "setAllowlist(address)": {
        "params": {
          "_newAllowlist": "New address for the allowlist"
        }
      },
      "setBeaconData(uint256,uint256,bytes32)": {
        "details": "Can only be called by the oracle address",
        "params": {
          "_roundId": "An identifier for this update",
          "_validatorBalanceSum": "The validator balance sum of the active validators on the consensus layer",
          "_validatorCount": "The number of active validators on the consensus layer"
        }
      },
      "setELFeeRecipient(address)": {
        "params": {
          "_newELFeeRecipient": "New address for the recipient"
        }
      },
      "setGlobalFee(uint256)": {
        "params": {
          "newFee": "New fee value"
        }
      },
      "setOperatorAddress(uint256,address)": {
        "details": "Only callable by the administrator or the previous operator address",
        "params": {
          "_index": "The operator index",
          "_newOperatorAddress": "The new address of the operator"
        }
      },
      "setOperatorFeeRecipientAddress(uint256,address)": {
        "details": "Only callable by the administrator or the previous operator fee recipient address",
        "params": {
          "_index": "The operator index",
          "_newOperatorFeeRecipientAddress": "The new fee recipient address of the operator"
        }
      },
      "setOperatorLimits(uint256[],uint256[])": {
        "details": "Only callable by the administratorThe limit cannot exceed the total key count of the operatorThe _indexes and _newLimits must have the same length.Each limit value is applied to the operator index at the same index in the _indexes array.",
        "params": {
          "_newLimits": "The new staking limit of the operators",
          "_operatorIndexes": "The operator indexes"
        }
      },
      "setOperatorName(uint256,string)": {
        "details": "Only callable by the administrator or the operatorNo name conflict can exist",
        "params": {
          "_index": "The operator index",
          "_newName": "The new operator name"
        }
      },
      "setOperatorRewardsShare(uint256)": {
        "params": {
          "newOperatorRewardsShare": "New share value"
        }
      },
      "setOperatorStatus(uint256,bool)": {
        "details": "Only callable by the administrator",
        "params": {
          "_index": "The operator index",
          "_newStatus": "The new status of the operator"
        }
      },
      "setOperatorStoppedValidatorCount(uint256,uint256)": {
        "details": "Only callable by the administrator",
        "params": {
          "_index": "The operator index",
          "_newStoppedValidatorCount": "The new stopped validator count of the operator"
        }
      },
      "setOracle(address)": {
        "params": {
          "_oracleAddress": "Address of the oracle"
        }
      },
      "setTreasury(address)": {
        "params": {
          "_newTreasury": "New address for the treasury"
        }
      },
      "transfer(address,uint256)": {
        "params": {
          "_to": "Address receiving the tokens",
          "_value": "Amount to be sent"
        }
      },
      "transferFrom(address,address,uint256)": {
        "details": "If the specified _from argument is the message sender, behaves like a regular transferIf the specified _from argument is not the message sender, checks that the message sender has been given enough allowance",
        "params": {
          "_from": "Address sending the tokens",
          "_to": "Address receiving the tokens",
          "_value": "Amount to be sent"
        }
      },
      "transferOwnership(address)": {
        "params": {
          "_newAdmin": "New address for the admin"
        }
      }
    },
    "title": "River (v1)",
    "version": 1
  },
  "userdoc": {
    "kind": "user",
    "methods": {
      "acceptOwnership()": {
        "notice": "Accepts the ownership of the system"
      },
      "addOperator(string,address,address)": {
        "notice": "Adds an operator to the registry"
      },
      "addValidators(uint256,uint256,bytes,bytes)": {
        "notice": "Adds new keys for an operator"
      },
      "allowance(address,address)": {
        "notice": "Retrieve the allowance value for a spender_owner Address that issued the allowance_spender Address that received the allowance"
      },
      "approve(address,uint256)": {
        "notice": "Approves an account for future spendings"
      },
      "balanceOf(address)": {
        "notice": "Retrieve the balance of an account"
      },
      "balanceOfUnderlying(address)": {
        "notice": "Retrieve the underlying asset balance of an account"
      },
      "decimals()": {
        "notice": "Retrieve the decimal count"
      },
      "deposit()": {
        "notice": "Explicit deposit method to mint on msg.sender"
      },
      "depositAndTransfer(address)": {
        "notice": "Explicit deposit method to mint on msg.sender and transfer to _recipient"
      },
      "depositToConsensusLayer(uint256)": {
        "notice": "Deposits current balance to the Consensus Layer by batches of 32 ETH"
      },
      "getAdministrator()": {
        "notice": "Retrieve system administrator address"
      },
      "getAllowlist()": {
        "notice": "Retrieve the allowlist address"
      },
      "getBeaconValidatorBalanceSum()": {
        "notice": "Get Beacon validator balance sum"
      },
      "getBeaconValidatorCount()": {
        "notice": "Get Beacon validator count (the amount of validator reported by the oracles)"
      },
      "getDepositedValidatorCount()": {
        "notice": "Get the deposited validator count (the count of deposits made by the contract)"
      },
      "getELFeeRecipient()": {
        "notice": "Retrieve the execution layer fee recipient"
      },
      "getOperator(uint256)": {
        "notice": "Get operator details"
      },
      "getOperatorByName(string)": {
        "notice": "Get operator details by name"
      },
      "getOperatorCount()": {
        "notice": "Get operator count"
      },
      "getOperatorDetails(string)": {
        "notice": "Retrieve the operator details from the operator name"
      },
      "getOracle()": {
        "notice": "Get Oracle address"
      },
      "getPendingAdministrator()": {
        "notice": "Retrieve system pending administrator address"
      },
      "getPendingEth()": {
        "notice": "Returns the amount of pending ETH"
      },
      "getTreasury()": {
        "notice": "Retrieve the treasury address"
      },
      "getValidator(uint256,uint256)": {
        "notice": "Get the details of a validator"
      },
      "getWithdrawalCredentials()": {
        "notice": "Retrieve the withdrawal credentials"
      },
      "initRiverV1(address,address,bytes32,address,address,address,address,uint256,uint256)": {
        "notice": "Initializes the River system"
      },
      "name()": {
        "notice": "Retrieve the token name"
      },
      "removeValidators(uint256,uint256[])": {
        "notice": "Remove validator keys"
      },
      "sendELFees()": {
        "notice": "Input for execution layer fee earnings"
      },
      "setAllowlist(address)": {
        "notice": "Changes the allowlist address"
      },
      "setBeaconData(uint256,uint256,bytes32)": {
        "notice": "Sets the validator count and validator balance sum reported by the oracle"
      },
      "setELFeeRecipient(address)": {
        "notice": "Changes the execution layer fee recipient"
      },
      "setGlobalFee(uint256)": {
        "notice": "Changes the global fee parameter"
      },
      "setOperatorAddress(uint256,address)": {
        "notice": "Changes the operator address of an operator"
      },
      "setOperatorFeeRecipientAddress(uint256,address)": {
        "notice": "Changes the operator fee recipient address"
      },
      "setOperatorLimits(uint256[],uint256[])": {
        "notice": "Changes the operator staking limit"
      },
      "setOperatorName(uint256,string)": {
        "notice": "Changes the operator name"
      },
      "setOperatorRewardsShare(uint256)": {
        "notice": "Changes the operator rewards share."
      },
      "setOperatorStatus(uint256,bool)": {
        "notice": "Changes the operator status"
      },
      "setOperatorStoppedValidatorCount(uint256,uint256)": {
        "notice": "Changes the operator stopped validator cound"
      },
      "setOracle(address)": {
        "notice": "Set Oracle address"
      },
      "setTreasury(address)": {
        "notice": "Changes the treasury address"
      },
      "symbol()": {
        "notice": "Retrieve the token symbol"
      },
      "totalSupply()": {
        "notice": "Retrieve the total token supply"
      },
      "totalUnderlyingSupply()": {
        "notice": "Retrieve the total underlying asset supply"
      },
      "transfer(address,uint256)": {
        "notice": "Performs a transfer from the message sender to the provided account"
      },
      "transferFrom(address,address,uint256)": {
        "notice": "Performs a transfer between two recipients"
      },
      "transferOwnership(address)": {
        "notice": "Changes the admin but waits for new admin approval"
      }
    },
    "notice": "This contract merges all the manager contracts and implements all the virtual methods stitching all components together",
    "version": 1
  },
  "storageLayout": {
    "storage": [],
    "types": null
  }
}