{
  "address": "0x05f35f13b1B7aE5Ec079d801796fa90AB73f994F",
  "abi": [
    {
      "inputs": [
        {
          "internalType": "address",
          "name": "_from",
          "type": "address"
        },
        {
          "internalType": "address",
          "name": "_operator",
          "type": "address"
        },
        {
          "internalType": "uint256",
          "name": "_allowance",
          "type": "uint256"
        },
        {
          "internalType": "uint256",
          "name": "_value",
          "type": "uint256"
        }
      ],
      "name": "AllowanceTooLow",
      "type": "error"
    },
    {
      "inputs": [],
      "name": "BalanceTooLow",
      "type": "error"
    },
    {
      "inputs": [],
      "name": "EmptyDeposit",
      "type": "error"
    },
    {
      "inputs": [
        {
          "internalType": "uint256",
          "name": "index",
          "type": "uint256"
        }
      ],
      "name": "InactiveOperator",
      "type": "error"
    },
    {
      "inputs": [],
      "name": "InconsistentPublicKeys",
      "type": "error"
    },
    {
      "inputs": [],
      "name": "InconsistentSignatures",
      "type": "error"
    },
    {
      "inputs": [],
      "name": "InvalidArgument",
      "type": "error"
    },
    {
      "inputs": [],
      "name": "InvalidCall",
      "type": "error"
    },
    {
      "inputs": [],
      "name": "InvalidFundedKeyDeletionAttempt",
      "type": "error"
    },
    {
      "inputs": [],
      "name": "InvalidIndexOutOfBounds",
      "type": "error"
    },
    {
      "inputs": [
        {
          "internalType": "uint256",
          "name": "version",
          "type": "uint256"
        },
        {
          "internalType": "uint256",
          "name": "expectedVersion",
          "type": "uint256"
        }
      ],
      "name": "InvalidInitialization",
      "type": "error"
    },
    {
      "inputs": [],
      "name": "InvalidKeyCount",
      "type": "error"
    },
    {
      "inputs": [],
      "name": "InvalidPublicKeyCount",
      "type": "error"
    },
    {
      "inputs": [],
      "name": "InvalidPublicKeysLength",
      "type": "error"
    },
    {
      "inputs": [],
      "name": "InvalidSignatureCount",
      "type": "error"
    },
    {
      "inputs": [],
      "name": "InvalidSignatureLength",
      "type": "error"
    },
    {
      "inputs": [],
      "name": "InvalidUnsortedIndexes",
      "type": "error"
    },
    {
      "inputs": [
        {
          "internalType": "uint256",
          "name": "_providedValidatorCount",
          "type": "uint256"
        },
        {
          "internalType": "uint256",
          "name": "_depositedValidatorCount",
          "type": "uint256"
        }
      ],
      "name": "InvalidValidatorCountReport",
      "type": "error"
    },
    {
      "inputs": [],
      "name": "InvalidWithdrawalCredentials",
      "type": "error"
    },
    {
      "inputs": [],
      "name": "NoAvailableValidatorKeys",
      "type": "error"
    },
    {
      "inputs": [],
      "name": "NotEnoughFunds",
      "type": "error"
    },
    {
      "inputs": [],
      "name": "NullTransfer",
      "type": "error"
    },
    {
      "inputs": [
        {
          "internalType": "string",
          "name": "name",
          "type": "string"
        }
      ],
      "name": "OperatorAlreadyExists",
      "type": "error"
    },
    {
      "inputs": [
        {
          "internalType": "string",
          "name": "name",
          "type": "string"
        }
      ],
      "name": "OperatorNotFound",
      "type": "error"
    },
    {
      "inputs": [
        {
          "internalType": "uint256",
          "name": "index",
          "type": "uint256"
        }
      ],
      "name": "OperatorNotFoundAtIndex",
      "type": "error"
    },
    {
      "inputs": [
        {
          "internalType": "address",
          "name": "caller",
          "type": "address"
        }
      ],
      "name": "Unauthorized",
      "type": "error"
    },
    {
      "inputs": [],
      "name": "UnauthorizedOperation",
      "type": "error"
    },
    {
      "anonymous": false,
      "inputs": [
        {
          "indexed": true,
          "internalType": "uint256",
          "name": "index",
          "type": "uint256"
        },
        {
          "indexed": false,
          "internalType": "string",
          "name": "name",
          "type": "string"
        },
        {
          "indexed": false,
          "internalType": "address",
          "name": "operatorAddress",
          "type": "address"
        }
      ],
      "name": "AddedOperator",
      "type": "event"
    },
    {
      "anonymous": false,
      "inputs": [
        {
          "indexed": true,
          "internalType": "uint256",
          "name": "index",
          "type": "uint256"
        },
        {
          "indexed": false,
          "internalType": "uint256",
          "name": "totalKeyCount",
          "type": "uint256"
        }
      ],
      "name": "AddedValidatorKeys",
      "type": "event"
    },
    {
      "anonymous": false,
      "inputs": [
        {
          "indexed": true,
          "internalType": "address",
          "name": "_owner",
          "type": "address"
        },
        {
          "indexed": true,
          "internalType": "address",
          "name": "_spender",
          "type": "address"
        },
        {
          "indexed": false,
          "internalType": "uint256",
          "name": "_value",
          "type": "uint256"
        }
      ],
      "name": "Approval",
      "type": "event"
    },
    {
      "anonymous": false,
      "inputs": [
        {
          "indexed": false,
          "internalType": "uint256",
          "name": "validatorCount",
          "type": "uint256"
        },
        {
          "indexed": false,
          "internalType": "uint256",
          "name": "validatorBalanceSum",
          "type": "uint256"
        },
        {
          "indexed": false,
          "internalType": "bytes32",
          "name": "roundId",
          "type": "bytes32"
        }
      ],
      "name": "BeaconDataUpdate",
      "type": "event"
    },
    {
      "anonymous": false,
      "inputs": [
        {
          "indexed": true,
          "internalType": "address",
          "name": "account",
          "type": "address"
        },
        {
          "indexed": false,
          "internalType": "bool",
          "name": "status",
          "type": "bool"
        }
      ],
      "name": "ChangedAllowlistStatus",
      "type": "event"
    },
    {
      "anonymous": false,
      "inputs": [
        {
          "indexed": true,
          "internalType": "uint256",
          "name": "index",
          "type": "uint256"
        },
        {
          "indexed": false,
          "internalType": "uint256",
          "name": "keyCount",
          "type": "uint256"
        }
      ],
      "name": "RemovedValidatorKeys",
      "type": "event"
    },
    {
      "anonymous": false,
      "inputs": [
        {
          "indexed": true,
          "internalType": "uint256",
          "name": "index",
          "type": "uint256"
        },
        {
          "indexed": false,
          "internalType": "address",
          "name": "newOperatorAddress",
          "type": "address"
        }
      ],
      "name": "SetOperatorAddress",
      "type": "event"
    },
    {
      "anonymous": false,
      "inputs": [
        {
          "indexed": true,
          "internalType": "uint256",
          "name": "index",
          "type": "uint256"
        },
        {
          "indexed": false,
          "internalType": "uint256",
          "name": "newLimit",
          "type": "uint256"
        }
      ],
      "name": "SetOperatorLimit",
      "type": "event"
    },
    {
      "anonymous": false,
      "inputs": [
        {
          "indexed": true,
          "internalType": "uint256",
          "name": "index",
          "type": "uint256"
        },
        {
          "indexed": false,
          "internalType": "bool",
          "name": "active",
          "type": "bool"
        }
      ],
      "name": "SetOperatorStatus",
      "type": "event"
    },
    {
      "anonymous": false,
      "inputs": [
        {
          "indexed": true,
          "internalType": "uint256",
          "name": "index",
          "type": "uint256"
        },
        {
          "indexed": false,
          "internalType": "uint256",
          "name": "newStoppedValidatorCount",
          "type": "uint256"
        }
      ],
      "name": "SetOperatorStoppedValidatorCount",
      "type": "event"
    },
    {
      "anonymous": false,
      "inputs": [
        {
          "indexed": true,
          "internalType": "address",
          "name": "_from",
          "type": "address"
        },
        {
          "indexed": true,
          "internalType": "address",
          "name": "_to",
          "type": "address"
        },
        {
          "indexed": false,
          "internalType": "uint256",
          "name": "_value",
          "type": "uint256"
        }
      ],
      "name": "Transfer",
      "type": "event"
    },
    {
      "anonymous": false,
      "inputs": [
        {
          "indexed": true,
          "internalType": "address",
          "name": "user",
          "type": "address"
        },
        {
          "indexed": true,
          "internalType": "address",
          "name": "referral",
          "type": "address"
        },
        {
          "indexed": false,
          "internalType": "uint256",
          "name": "amount",
          "type": "uint256"
        }
      ],
      "name": "UserDeposit",
      "type": "event"
    },
    {
      "stateMutability": "payable",
      "type": "fallback"
    },
    {
      "inputs": [],
      "name": "BASE",
      "outputs": [
        {
          "internalType": "uint256",
          "name": "",
          "type": "uint256"
        }
      ],
      "stateMutability": "view",
      "type": "function"
    },
    {
      "inputs": [],
      "name": "DEPOSIT_SIZE",
      "outputs": [
        {
          "internalType": "uint256",
          "name": "",
          "type": "uint256"
        }
      ],
      "stateMutability": "view",
      "type": "function"
    },
    {
      "inputs": [],
      "name": "PUBLIC_KEY_LENGTH",
      "outputs": [
        {
          "internalType": "uint256",
          "name": "",
          "type": "uint256"
        }
      ],
      "stateMutability": "view",
      "type": "function"
    },
    {
      "inputs": [],
      "name": "SIGNATURE_LENGTH",
      "outputs": [
        {
          "internalType": "uint256",
          "name": "",
          "type": "uint256"
        }
      ],
      "stateMutability": "view",
      "type": "function"
    },
    {
      "inputs": [
        {
          "internalType": "string",
          "name": "_name",
          "type": "string"
        },
        {
          "internalType": "address",
          "name": "_operator",
          "type": "address"
        }
      ],
      "name": "addOperator",
      "outputs": [],
      "stateMutability": "nonpayable",
      "type": "function"
    },
    {
      "inputs": [
        {
          "internalType": "uint256",
          "name": "_index",
          "type": "uint256"
        },
        {
          "internalType": "uint256",
          "name": "_keyCount",
          "type": "uint256"
        },
        {
          "internalType": "bytes",
          "name": "_publicKeys",
          "type": "bytes"
        },
        {
          "internalType": "bytes",
          "name": "_signatures",
          "type": "bytes"
        }
      ],
      "name": "addValidators",
      "outputs": [],
      "stateMutability": "nonpayable",
      "type": "function"
    },
    {
      "inputs": [
        {
          "internalType": "address",
          "name": "_account",
          "type": "address"
        },
        {
          "internalType": "bool",
          "name": "_status",
          "type": "bool"
        }
      ],
      "name": "allow",
      "outputs": [],
      "stateMutability": "nonpayable",
      "type": "function"
    },
    {
      "inputs": [
        {
          "internalType": "address",
          "name": "_owner",
          "type": "address"
        },
        {
          "internalType": "address",
          "name": "_spender",
          "type": "address"
        }
      ],
      "name": "allowance",
      "outputs": [
        {
          "internalType": "uint256",
          "name": "remaining",
          "type": "uint256"
        }
      ],
      "stateMutability": "view",
      "type": "function"
    },
    {
      "inputs": [
        {
          "internalType": "address",
          "name": "_spender",
          "type": "address"
        },
        {
          "internalType": "uint256",
          "name": "_value",
          "type": "uint256"
        }
      ],
      "name": "approve",
      "outputs": [
        {
          "internalType": "bool",
          "name": "success",
          "type": "bool"
        }
      ],
      "stateMutability": "nonpayable",
      "type": "function"
    },
    {
      "inputs": [
        {
          "internalType": "address",
          "name": "_owner",
          "type": "address"
        }
      ],
      "name": "balanceOf",
      "outputs": [
        {
          "internalType": "uint256",
          "name": "balance",
          "type": "uint256"
        }
      ],
      "stateMutability": "view",
      "type": "function"
    },
    {
      "inputs": [],
      "name": "decimals",
      "outputs": [
        {
          "internalType": "uint8",
          "name": "",
          "type": "uint8"
        }
      ],
      "stateMutability": "pure",
      "type": "function"
    },
    {
      "inputs": [
        {
          "internalType": "address",
          "name": "_referral",
          "type": "address"
        }
      ],
      "name": "deposit",
      "outputs": [],
      "stateMutability": "payable",
      "type": "function"
    },
    {
      "inputs": [
        {
          "internalType": "uint256",
          "name": "_maxCount",
          "type": "uint256"
        }
      ],
      "name": "depositToConsensusLayer",
      "outputs": [],
      "stateMutability": "nonpayable",
      "type": "function"
    },
    {
      "inputs": [],
      "name": "getAdministrator",
      "outputs": [
        {
          "internalType": "address",
          "name": "",
          "type": "address"
        }
      ],
      "stateMutability": "view",
      "type": "function"
    },
    {
      "inputs": [],
      "name": "getAllower",
      "outputs": [
        {
          "internalType": "address",
          "name": "",
          "type": "address"
        }
      ],
      "stateMutability": "view",
      "type": "function"
    },
    {
      "inputs": [],
      "name": "getBeaconValidatorBalanceSum",
      "outputs": [
        {
          "internalType": "uint256",
          "name": "beaconValidatorBalanceSum",
          "type": "uint256"
        }
      ],
      "stateMutability": "view",
      "type": "function"
    },
    {
      "inputs": [],
      "name": "getBeaconValidatorCount",
      "outputs": [
        {
          "internalType": "uint256",
          "name": "beaconValidatorCount",
          "type": "uint256"
        }
      ],
      "stateMutability": "view",
      "type": "function"
    },
    {
      "inputs": [],
      "name": "getDepositedValidatorCount",
      "outputs": [
        {
          "internalType": "uint256",
          "name": "depositedValidatorCount",
          "type": "uint256"
        }
      ],
      "stateMutability": "view",
      "type": "function"
    },
    {
      "inputs": [
        {
          "internalType": "uint256",
          "name": "_index",
          "type": "uint256"
        }
      ],
      "name": "getOperator",
      "outputs": [
        {
          "components": [
            {
              "internalType": "bool",
              "name": "active",
              "type": "bool"
            },
            {
              "internalType": "string",
              "name": "name",
              "type": "string"
            },
            {
              "internalType": "address",
              "name": "operator",
              "type": "address"
            },
            {
              "internalType": "uint256",
              "name": "limit",
              "type": "uint256"
            },
            {
              "internalType": "uint256",
              "name": "funded",
              "type": "uint256"
            },
            {
              "internalType": "uint256",
              "name": "keys",
              "type": "uint256"
            },
            {
              "internalType": "uint256",
              "name": "stopped",
              "type": "uint256"
            }
          ],
          "internalType": "struct Operators.Operator",
          "name": "",
          "type": "tuple"
        }
      ],
      "stateMutability": "view",
      "type": "function"
    },
    {
      "inputs": [
        {
          "internalType": "string",
          "name": "_name",
          "type": "string"
        }
      ],
      "name": "getOperatorByName",
      "outputs": [
        {
          "components": [
            {
              "internalType": "bool",
              "name": "active",
              "type": "bool"
            },
            {
              "internalType": "string",
              "name": "name",
              "type": "string"
            },
            {
              "internalType": "address",
              "name": "operator",
              "type": "address"
            },
            {
              "internalType": "uint256",
              "name": "limit",
              "type": "uint256"
            },
            {
              "internalType": "uint256",
              "name": "funded",
              "type": "uint256"
            },
            {
              "internalType": "uint256",
              "name": "keys",
              "type": "uint256"
            },
            {
              "internalType": "uint256",
              "name": "stopped",
              "type": "uint256"
            }
          ],
          "internalType": "struct Operators.Operator",
          "name": "",
          "type": "tuple"
        }
      ],
      "stateMutability": "view",
      "type": "function"
    },
    {
      "inputs": [],
      "name": "getOperatorCount",
      "outputs": [
        {
          "internalType": "uint256",
          "name": "",
          "type": "uint256"
        }
      ],
      "stateMutability": "view",
      "type": "function"
    },
    {
      "inputs": [
        {
          "internalType": "string",
          "name": "_name",
          "type": "string"
        }
      ],
      "name": "getOperatorDetails",
      "outputs": [
        {
          "internalType": "int256",
          "name": "_index",
          "type": "int256"
        },
        {
          "internalType": "address",
          "name": "_operatorAddress",
          "type": "address"
        }
      ],
      "stateMutability": "view",
      "type": "function"
    },
    {
      "inputs": [],
      "name": "getOracle",
      "outputs": [
        {
          "internalType": "address",
          "name": "oracle",
          "type": "address"
        }
      ],
      "stateMutability": "view",
      "type": "function"
    },
    {
      "inputs": [
        {
          "internalType": "uint256",
          "name": "_operatorIndex",
          "type": "uint256"
        },
        {
          "internalType": "uint256",
          "name": "_validatorIndex",
          "type": "uint256"
        }
      ],
      "name": "getValidator",
      "outputs": [
        {
          "internalType": "bytes",
          "name": "publicKey",
          "type": "bytes"
        },
        {
          "internalType": "bytes",
          "name": "signature",
          "type": "bytes"
        },
        {
          "internalType": "bool",
          "name": "funded",
          "type": "bool"
        }
      ],
      "stateMutability": "view",
      "type": "function"
    },
    {
      "inputs": [],
      "name": "getWithdrawalCredentials",
      "outputs": [
        {
          "internalType": "bytes32",
          "name": "",
          "type": "bytes32"
        }
      ],
      "stateMutability": "view",
      "type": "function"
    },
    {
      "inputs": [
        {
          "internalType": "address",
          "name": "_depositContractAddress",
          "type": "address"
        },
        {
          "internalType": "bytes32",
          "name": "_withdrawalCredentials",
          "type": "bytes32"
        },
        {
          "internalType": "address",
          "name": "_systemAdministratorAddress",
          "type": "address"
        },
        {
          "internalType": "address",
          "name": "_allowerAddress",
          "type": "address"
        },
        {
          "internalType": "address",
          "name": "_treasuryAddress",
          "type": "address"
        },
        {
          "internalType": "uint256",
          "name": "_globalFee",
          "type": "uint256"
        },
        {
          "internalType": "uint256",
          "name": "_operatorRewardsShare",
          "type": "uint256"
        }
      ],
      "name": "initRiverV1",
      "outputs": [],
      "stateMutability": "nonpayable",
      "type": "function"
    },
    {
      "inputs": [
        {
          "internalType": "address",
          "name": "_account",
          "type": "address"
        }
      ],
      "name": "isAllowed",
      "outputs": [
        {
          "internalType": "bool",
          "name": "",
          "type": "bool"
        }
      ],
      "stateMutability": "view",
      "type": "function"
    },
    {
      "inputs": [],
      "name": "name",
      "outputs": [
        {
          "internalType": "string",
          "name": "",
          "type": "string"
        }
      ],
      "stateMutability": "pure",
      "type": "function"
    },
    {
      "inputs": [
        {
          "internalType": "uint256",
          "name": "_index",
          "type": "uint256"
        },
        {
          "internalType": "uint256[]",
          "name": "_indexes",
          "type": "uint256[]"
        }
      ],
      "name": "removeValidators",
      "outputs": [],
      "stateMutability": "nonpayable",
      "type": "function"
    },
    {
      "inputs": [
        {
          "internalType": "address",
          "name": "_newAllowerAddress",
          "type": "address"
        }
      ],
      "name": "setAllower",
      "outputs": [],
      "stateMutability": "nonpayable",
      "type": "function"
    },
    {
      "inputs": [
        {
          "internalType": "uint256",
          "name": "_validatorCount",
          "type": "uint256"
        },
        {
          "internalType": "uint256",
          "name": "_validatorBalanceSum",
          "type": "uint256"
        },
        {
          "internalType": "bytes32",
          "name": "_roundId",
          "type": "bytes32"
        }
      ],
      "name": "setBeaconData",
      "outputs": [],
      "stateMutability": "nonpayable",
      "type": "function"
    },
    {
      "inputs": [
        {
          "internalType": "uint256",
          "name": "newFee",
          "type": "uint256"
        }
      ],
      "name": "setGlobalFee",
      "outputs": [],
      "stateMutability": "nonpayable",
      "type": "function"
    },
    {
      "inputs": [
        {
          "internalType": "uint256",
          "name": "_index",
          "type": "uint256"
        },
        {
          "internalType": "address",
          "name": "_newOperatorAddress",
          "type": "address"
        }
      ],
      "name": "setOperatorAddress",
      "outputs": [],
      "stateMutability": "nonpayable",
      "type": "function"
    },
    {
      "inputs": [
        {
          "internalType": "uint256",
          "name": "_index",
          "type": "uint256"
        },
        {
          "internalType": "uint256",
          "name": "_newLimit",
          "type": "uint256"
        }
      ],
      "name": "setOperatorLimit",
      "outputs": [],
      "stateMutability": "nonpayable",
      "type": "function"
    },
    {
      "inputs": [
        {
          "internalType": "uint256",
          "name": "newOperatorRewardsShare",
          "type": "uint256"
        }
      ],
      "name": "setOperatorRewardsShare",
      "outputs": [],
      "stateMutability": "nonpayable",
      "type": "function"
    },
    {
      "inputs": [
        {
          "internalType": "uint256",
          "name": "_index",
          "type": "uint256"
        },
        {
          "internalType": "bool",
          "name": "_newStatus",
          "type": "bool"
        }
      ],
      "name": "setOperatorStatus",
      "outputs": [],
      "stateMutability": "nonpayable",
      "type": "function"
    },
    {
      "inputs": [
        {
          "internalType": "uint256",
          "name": "_index",
          "type": "uint256"
        },
        {
          "internalType": "uint256",
          "name": "_newStoppedValidatorCount",
          "type": "uint256"
        }
      ],
      "name": "setOperatorStoppedValidatorCount",
      "outputs": [],
      "stateMutability": "nonpayable",
      "type": "function"
    },
    {
      "inputs": [
        {
          "internalType": "address",
          "name": "_oracleAddress",
          "type": "address"
        }
      ],
      "name": "setOracle",
      "outputs": [],
      "stateMutability": "nonpayable",
      "type": "function"
    },
    {
      "inputs": [
        {
          "internalType": "address",
          "name": "_owner",
          "type": "address"
        }
      ],
      "name": "sharesOf",
      "outputs": [
        {
          "internalType": "uint256",
          "name": "shares",
          "type": "uint256"
        }
      ],
      "stateMutability": "view",
      "type": "function"
    },
    {
      "inputs": [],
      "name": "symbol",
      "outputs": [
        {
          "internalType": "string",
          "name": "",
          "type": "string"
        }
      ],
      "stateMutability": "pure",
      "type": "function"
    },
    {
      "inputs": [],
      "name": "totalShares",
      "outputs": [
        {
          "internalType": "uint256",
          "name": "",
          "type": "uint256"
        }
      ],
      "stateMutability": "view",
      "type": "function"
    },
    {
      "inputs": [],
      "name": "totalSupply",
      "outputs": [
        {
          "internalType": "uint256",
          "name": "",
          "type": "uint256"
        }
      ],
      "stateMutability": "view",
      "type": "function"
    },
    {
      "inputs": [
        {
          "internalType": "address",
          "name": "_to",
          "type": "address"
        },
        {
          "internalType": "uint256",
          "name": "_value",
          "type": "uint256"
        }
      ],
      "name": "transfer",
      "outputs": [
        {
          "internalType": "bool",
          "name": "success",
          "type": "bool"
        }
      ],
      "stateMutability": "nonpayable",
      "type": "function"
    },
    {
      "inputs": [
        {
          "internalType": "address",
          "name": "_from",
          "type": "address"
        },
        {
          "internalType": "address",
          "name": "_to",
          "type": "address"
        },
        {
          "internalType": "uint256",
          "name": "_value",
          "type": "uint256"
        }
      ],
      "name": "transferFrom",
      "outputs": [
        {
          "internalType": "bool",
          "name": "success",
          "type": "bool"
        }
      ],
      "stateMutability": "nonpayable",
      "type": "function"
    },
    {
      "stateMutability": "payable",
      "type": "receive"
    }
  ],
  "transactionHash": "0xbb817de6174cd0938ac53a2d50e910745e2664a2edc3ffa585cf76c341554f1d",
  "args": [],
  "numDeployments": 1,
  "solcInputHash": "d08ef7e074cf01664f11c9c7b1902cb7",
  "bytecode": "0x608060405234801561001057600080fd5b506152ac806100206000396000f3fe6080604052600436106102eb5760003560e01c80635f41a0c411610184578063a9059cbb116100d6578063d56580ff1161008a578063f340fa0111610064578063f340fa0114610887578063f5eb42dc1461089a578063f87e5296146108ba576102fc565b8063d56580ff14610830578063dd62ed3e14610850578063ec342ad014610870576102fc565b8063babcc539116100bb578063babcc539146107db578063bf15af56146107fb578063cfa2d2b714610810576102fc565b8063a9059cbb1461079b578063b747e7dd146107bb576102fc565b806380d4027e11610138578063950c44ec11610112578063950c44ec1461072057806395d89b41146107405780639e3947f314610786576102fc565b806380d4027e146106d6578063833b1fce146106f657806387f2adfb1461070b576102fc565b806370a082311161016957806370a0823114610676578063714b55b2146106965780637adbf973146106b6576102fc565b80635f41a0c41461062757806363b4118f14610647576102fc565b8063252d6a341161023d5780633eb8b77a116101f1578063540bc5ea116101cb578063540bc5ea146105dd57806356396715146105f25780635a16f13514610607576102fc565b80633eb8b77a146105605780634679a9e11461059d57806350545d2f146105bd576102fc565b8063313ce56711610222578063313ce5671461051257806336bf33251461052e5780633a98ef391461054b576102fc565b8063252d6a34146104dd578063291206f6146104f2576102fc565b806313d86aed1161029f5780631864636c116102795780631864636c146104885780631a4a7c61146104a857806323b872dd146104bd576102fc565b806313d86aed14610430578063169674071461045057806318160ddd14610465576102fc565b806307a40008116102d057806307a40008146103b3578063095ea7b3146103e0578063110496e514610410576102fc565b806305f63c8a1461032e57806306fdde0314610364576102fc565b366102fc576102fa60006108da565b005b6040517fae962d4e00000000000000000000000000000000000000000000000000000000815260040160405180910390fd5b34801561033a57600080fd5b5061034e610349366004614b68565b61095e565b60405161035b9190614bd9565b60405180910390f35b34801561037057600080fd5b5060408051808201909152600581527f526976657200000000000000000000000000000000000000000000000000000060208201525b60405161035b9190614c49565b3480156103bf57600080fd5b506103c8610aa2565b6040516001600160a01b03909116815260200161035b565b3480156103ec57600080fd5b506104006103fb366004614c78565b610ab1565b604051901515815260200161035b565b34801561041c57600080fd5b506102fa61042b366004614cb2565b610b41565b34801561043c57600080fd5b506102fa61044b366004614b68565b610bf6565b34801561045c57600080fd5b506103c8610dce565b34801561047157600080fd5b5061047a610dd8565b60405190815260200161035b565b34801561049457600080fd5b506102fa6104a3366004614ce5565b610de2565b3480156104b457600080fd5b5061047a611214565b3480156104c957600080fd5b506104006104d8366004614d64565b61121e565b3480156104e957600080fd5b5061047a6113f4565b3480156104fe57600080fd5b506102fa61050d366004614b68565b6113fe565b34801561051e57600080fd5b506040516012815260200161035b565b34801561053a57600080fd5b5061047a6801bc16d674ec80000081565b34801561055757600080fd5b5061047a611469565b34801561056c57600080fd5b5061058061057b366004614de9565b611473565b604080519283526001600160a01b0390911660208301520161035b565b3480156105a957600080fd5b506102fa6105b8366004614e2b565b61150f565b3480156105c957600080fd5b506102fa6105d8366004614e46565b611553565b3480156105e957600080fd5b5061047a606081565b3480156105fe57600080fd5b5061047a611717565b34801561061357600080fd5b506102fa610622366004614e9a565b611721565b34801561063357600080fd5b506102fa610642366004614ebd565b6117b3565b34801561065357600080fd5b50610667610662366004614ebd565b611859565b60405161035b93929190614edf565b34801561068257600080fd5b5061047a610691366004614e2b565b611885565b3480156106a257600080fd5b506102fa6106b1366004614ebd565b611896565b3480156106c257600080fd5b506102fa6106d1366004614e2b565b611918565b3480156106e257600080fd5b506102fa6106f1366004614f17565b61195c565b34801561070257600080fd5b506103c8611aa6565b34801561071757600080fd5b5061047a611ab0565b34801561072c57600080fd5b506102fa61073b366004614f43565b611aba565b34801561074c57600080fd5b5060408051808201909152600481527f724554480000000000000000000000000000000000000000000000000000000060208201526103a6565b34801561079257600080fd5b5061047a611b62565b3480156107a757600080fd5b506104006107b6366004614c78565b611b6c565b3480156107c757600080fd5b506102fa6107d6366004614fb4565b611c8e565b3480156107e757600080fd5b506104006107f6366004614e2b565b61206e565b34801561080757600080fd5b5061047a603081565b34801561081c57600080fd5b5061034e61082b366004614de9565b612079565b34801561083c57600080fd5b506102fa61084b366004614b68565b6121f4565b34801561085c57600080fd5b5061047a61086b366004615037565b61225c565b34801561087c57600080fd5b5061047a620186a081565b6102fa610895366004614e2b565b61226f565b3480156108a657600080fd5b5061047a6108b5366004614e2b565b612278565b3480156108c657600080fd5b506102fa6108d5366004615061565b612283565b34610911576040517f95b66fe900000000000000000000000000000000000000000000000000000000815260040160405180910390fd5b61091b33346123ea565b6040513481526001600160a01b0382169033907f3bc57f469ad6d10d7723ea226cd22bd2b9e527def2b529f6ab44645a166895829060200160405180910390a350565b6109a96040518060e001604052806000151581526020016060815260200160006001600160a01b03168152602001600081526020016000815260200160008152602001600081525090565b6109b282612429565b6040805160e08101909152815460ff16151581526001820180549192916020840191906109de90615084565b80601f0160208091040260200160405190810160405280929190818152602001828054610a0a90615084565b8015610a575780601f10610a2c57610100808354040283529160200191610a57565b820191906000526020600020905b815481529060010190602001808311610a3a57829003601f168201915b505050918352505060028201546001600160a01b0316602082015260038201546040820152600482015460608201526005820154608082015260069091015460a09091015292915050565b6000610aac6124c5565b905090565b600033610abd8161206e565b610aea5760405163472511eb60e11b81526001600160a01b03821660048201526024015b60405180910390fd5b610af53385856124f9565b6040518381526001600160a01b0385169033907f8c5be1e5ebec7d5bd14f71427d1e84f3dd0314c0f7b2291e5b200ac8c7c3b9259060200160405180910390a3600191505b5092915050565b610b496124c5565b6001600160a01b0316336001600160a01b031614158015610b835750610b6d612550565b6001600160a01b0316336001600160a01b031614155b15610ba35760405163472511eb60e11b8152336004820152602401610ae1565b610bad8282612580565b816001600160a01b03167f1b4f0c8c88fcaadd952eda5461f779c8707eb21acf10b63097c2388c6ab3849182604051610bea911515815260200190565b60405180910390a25050565b6000610c14610c0e6801bc16d674ec800000476150cf565b836125db565b905080610c4d576040517f81b5ad6800000000000000000000000000000000000000000000000000000000815260040160405180910390fd5b600080610c59836125f0565b8151919350915080610c97576040517f800526b400000000000000000000000000000000000000000000000000000000815260040160405180910390fd5b83811115610cd1576040517f5993bd5700000000000000000000000000000000000000000000000000000000815260040160405180910390fd5b8151818114610d0c576040517f8b97390c00000000000000000000000000000000000000000000000000000000815260040160405180910390fd5b6000610d16612605565b905080610d4f576040517f9be7315900000000000000000000000000000000000000000000000000000000815260040160405180910390fd5b60005b83811015610da957610d97868281518110610d6f57610d6f6150f1565b6020026020010151868381518110610d8957610d896150f1565b602002602001015184612635565b610da2600182615107565b9050610d52565b50610dc583610db6612ad0565b610dc09190615107565b612b00565b50505050505050565b6000610aac612b33565b6000610aac612b3d565b82610deb612b33565b6001600160a01b0316336001600160a01b03161415610ff7576000610e0f85612429565b905082610e2f576040516379b348ff60e11b815260040160405180910390fd5b60005b83811015610fb2576000858583818110610e4e57610e4e6150f1565b9050602002013590508260040154811015610e7c5760405163213af80760e21b815260040160405180910390fd5b82600501548110610ea0576040516317df2d8d60e01b815260040160405180910390fd5b600082118015610eea57508585610eb860018561511f565b818110610ec757610ec76150f1565b90506020020135868684818110610ee057610ee06150f1565b9050602002013510155b15610f085760405163c9ee26af60e01b815260040160405180910390fd5b600060018460050154610f1b919061511f565b9050600080610f2a8a84612ba9565b91509150610f3a8a858484612d31565b610f818a8460005b6040519080825280601f01601f191660200182016040528015610f6c576020820181803683370190505b50604080516000815260208101909152612d31565b6001866005016000828254610f96919061511f565b925050819055505050505080610fab9061514c565b9050610e32565b50847f3162702bacdcc8640bbae8973e0bfe03af8a527f10b58caaf3695f0b268d7e908260050154604051610fe991815260200190565b60405180910390a25061120e565b600061100282612429565b805490915060ff1661102a576040516301550a7360e41b815260048101839052602401610ae1565b60028101546001600160a01b031633146110595760405163472511eb60e11b8152336004820152602401610ae1565b600061106486612429565b905083611084576040516379b348ff60e11b815260040160405180910390fd5b60005b848110156111cc5760008686838181106110a3576110a36150f1565b90506020020135905082600401548110156110d15760405163213af80760e21b815260040160405180910390fd5b826005015481106110f5576040516317df2d8d60e01b815260040160405180910390fd5b60008211801561113f5750868661110d60018561511f565b81811061111c5761111c6150f1565b90506020020135878784818110611135576111356150f1565b9050602002013510155b1561115d5760405163c9ee26af60e01b815260040160405180910390fd5b600060018460050154611170919061511f565b905060008061117f8b84612ba9565b9150915061118f8b858484612d31565b61119b8b846000610f42565b60018660050160008282546111b0919061511f565b9250508190555050505050806111c59061514c565b9050611087565b50857f3162702bacdcc8640bbae8973e0bfe03af8a527f10b58caaf3695f0b268d7e90826005015460405161120391815260200190565b60405180910390a250505b50505050565b6000610aac612d96565b60008361122a8161206e565b6112525760405163472511eb60e11b81526001600160a01b0382166004820152602401610ae1565b8361125c8161206e565b6112845760405163472511eb60e11b81526001600160a01b0382166004820152602401610ae1565b836112a2576040516336b216db60e21b815260040160405180910390fd5b6001600160a01b038616331461132f5760006112be8733612dcb565b905084811015611319576040517f7b936de30000000000000000000000000000000000000000000000000000000081526001600160a01b03881660048201523360248201526044810182905260648101869052608401610ae1565b61132d8733611328888561511f565b6124f9565b505b8361133987612e23565b1015611358576040516351940b3960e11b815260040160405180910390fd5b600061136385612e36565b905061138287826113738a612e6e565b61137d919061511f565b612ebc565b61139a868261139089612e6e565b61137d9190615107565b856001600160a01b0316876001600160a01b03167fddf252ad1be2c89b69c2b068fc378daa952ba7f163c4a11628f55a4df523b3ef876040516113df91815260200190565b60405180910390a35060019695505050505050565b6000610aac612f08565b611406612b33565b6001600160a01b0316336001600160a01b0316146114395760405163472511eb60e11b8152336004820152602401610ae1565b620186a081111561145d5760405163a9cb9e0d60e01b815260040160405180910390fd5b61146681612f38565b50565b6000610aac612f66565b6000806114b584848080601f016020809104026020016040519081016040528093929190818152602001838380828437600092019190915250612f7092505050565b91506114f684848080601f01602080910402602001604051908101604052809392919081815260200183838082843760009201919091525061300092505050565b6002015491946001600160a01b03909216935090915050565b611517612b33565b6001600160a01b0316336001600160a01b03161461154a5760405163472511eb60e11b8152336004820152602401610ae1565b6114668161306c565b61155b612b33565b6001600160a01b0316336001600160a01b03161461158e5760405163472511eb60e11b8152336004820152602401610ae1565b6115cd83838080601f01602080910402602001604051908101604052809392919081815260200183838082843760009201919091525061309a92505050565b15156001141561160d5782826040517f832eebc5000000000000000000000000000000000000000000000000000000008152600401610ae1929190615167565b60006040518060e0016040528060011515815260200185858080601f01602080910402602001604051908101604052809392919081815260200183838082843760009201829052509385525050506001600160a01b0385166020808401919091526040808401839052606084018390526080840183905260a09093018290528251601f8801829004820281018201909352868352929350916116cc919087908790819084018382808284376000920191909152508692506130a5915050565b9050807f28febbb5486eda5a1e47ad578f9cb32c8a1983c86c80ab823ea5dc1fc04ede5e83602001518460400151604051611708929190615196565b60405180910390a25050505050565b6000610aac612605565b611729612b33565b6001600160a01b0316336001600160a01b03161461175c5760405163472511eb60e11b8152336004820152602401610ae1565b600061176783612429565b805460ff1916831515908117825560405190815290915083907fe3bc5e5d3b000a1f65d146c40a38d89b1743b5729f4c6fe65f2e4b2dc620f2f2906020015b60405180910390a2505050565b6117bb612b33565b6001600160a01b0316336001600160a01b0316146117ee5760405163472511eb60e11b8152336004820152602401610ae1565b60006117f983612429565b905080600401548211156118205760405163a9cb9e0d60e01b815260040160405180910390fd5b6006810182905560405182815283907f773694db4f98cd263e42d4f798bcf603781d4491e48e8cbe96c219c1f13b777d906020016117a6565b60608060006118688585612ba9565b909350915061187685612429565b60040154841090509250925092565b600061189082612e23565b92915050565b61189e612b33565b6001600160a01b0316336001600160a01b0316146118d15760405163472511eb60e11b8152336004820152602401610ae1565b60006118dc83612429565b6003810183905560405183815290915083907f3adbeb5fbb94c52b64d90b31188c68a740868dde2238e03a04d581cae22cedf0906020016117a6565b611920612b33565b6001600160a01b0316336001600160a01b0316146119535760405163472511eb60e11b8152336004820152602401610ae1565b611466816132a0565b6119646132ce565b6001600160a01b0316336001600160a01b0316146119975760405163472511eb60e11b8152336004820152602401610ae1565b61199f612ad0565b8311156119ea57826119af612ad0565b6040517f76179ac500000000000000000000000000000000000000000000000000000000815260048101929092526024820152604401610ae1565b60006119f4612f08565b90506000611a006132fe565b611a0a908661511f565b9050611a158461332e565b611a1e8561335c565b611a278361338a565b83821015611a5e57611a5e611a45826801bc16d674ec8000006151c1565b611a4f848761511f565b611a59919061511f565b6133b8565b60408051868152602081018690529081018490527f98e488f5118fc11ab540716c2afc4e440c0a892d27a4efef33db94b4f9da65899060600160405180910390a15050505050565b6000610aac6132ce565b6000610aac612ad0565b6000611ac46135c0565b8114611b0e5780611ad36135c0565b6040517fe7e93b3800000000000000000000000000000000000000000000000000000000815260048101929092526024820152604401610ae1565b611b21611b1c826001615107565b6135f0565b611b2a8661361e565b611b3384613627565b611b3c83612f38565b611b4582613655565b611b4f8888613683565b611b588561154a565b5050505050505050565b6000610aac6132fe565b600033611b788161206e565b611ba05760405163472511eb60e11b81526001600160a01b0382166004820152602401610ae1565b83611baa8161206e565b611bd25760405163472511eb60e11b81526001600160a01b0382166004820152602401610ae1565b83611bf0576040516336b216db60e21b815260040160405180910390fd5b83611bfa33612e23565b1015611c19576040516351940b3960e11b815260040160405180910390fd5b6000611c2485612e36565b9050611c34338261137333612e6e565b611c42868261139089612e6e565b6040518581526001600160a01b0387169033907fddf252ad1be2c89b69c2b068fc378daa952ba7f163c4a11628f55a4df523b3ef9060200160405180910390a350600195945050505050565b85611c97612b33565b6001600160a01b0316336001600160a01b03161415611e665785611cce576040516379b348ff60e11b815260040160405180910390fd5b611cd96030876151c1565b8414611cf85760405163287c2be760e21b815260040160405180910390fd5b611d036060876151c1565b8214611d2257604051634be6321b60e01b815260040160405180910390fd5b6000611d2d88612429565b905060005b87811015611e0c576000611d8a88888080601f016020809104026020016040519081016040528093929190818152602001838380828437600092019190915250611d839250603091508690506151c1565b6030613695565b90506000611ddc87878080601f016020809104026020016040519081016040528093929190818152602001838380828437600092019190915250611dd59250606091508790506151c1565b6060613695565b9050611df98b848660050154611df29190615107565b8484612d31565b505080611e059061514c565b9050611d32565b5086816005016000828254611e219190615107565b9091555050600581015460405190815288907f5974470818610308ee3a0d809bad2cd13d57a3e9a685d3ae337fdef1d2d1b6539060200160405180910390a250610dc5565b6000611e7182612429565b805490915060ff16611e99576040516301550a7360e41b815260048101839052602401610ae1565b60028101546001600160a01b03163314611ec85760405163472511eb60e11b8152336004820152602401610ae1565b86611ee6576040516379b348ff60e11b815260040160405180910390fd5b611ef16030886151c1565b8514611f105760405163287c2be760e21b815260040160405180910390fd5b611f1b6060886151c1565b8314611f3a57604051634be6321b60e01b815260040160405180910390fd5b6000611f4589612429565b905060005b8881101561200f576000611f9b89898080601f016020809104026020016040519081016040528093929190818152602001838380828437600092019190915250611d839250603091508690506151c1565b90506000611fe688888080601f016020809104026020016040519081016040528093929190818152602001838380828437600092019190915250611dd59250606091508790506151c1565b9050611ffc8c848660050154611df29190615107565b5050806120089061514c565b9050611f4a565b50878160050160008282546120249190615107565b9091555050600581015460405190815289907f5974470818610308ee3a0d809bad2cd13d57a3e9a685d3ae337fdef1d2d1b6539060200160405180910390a2505050505050505050565b6000611890826137bd565b6120c46040518060e001604052806000151581526020016060815260200160006001600160a01b03168152602001600081526020016000815260200160008152602001600081525090565b61210383838080601f01602080910402602001604051908101604052809392919081815260200183838082843760009201919091525061300092505050565b6040805160e08101909152815460ff161515815260018201805491929160208401919061212f90615084565b80601f016020809104026020016040519081016040528092919081815260200182805461215b90615084565b80156121a85780601f1061217d576101008083540402835291602001916121a8565b820191906000526020600020905b81548152906001019060200180831161218b57829003601f168201915b505050918352505060028201546001600160a01b0316602082015260038201546040820152600482015460608201526005820154608082015260069091015460a0909101529392505050565b6121fc612b33565b6001600160a01b0316336001600160a01b03161461222f5760405163472511eb60e11b8152336004820152602401610ae1565b620186a08111156122535760405163a9cb9e0d60e01b815260040160405180910390fd5b61146681613655565b60006122688383612dcb565b9392505050565b611466816108da565b600061189082612e6e565b8161228c612b33565b6001600160a01b0316336001600160a01b0316141561231b5760006122b084612429565b60028101805473ffffffffffffffffffffffffffffffffffffffff19166001600160a01b03861690811790915560405190815290915084907f08a670ef4110fe90a7d61086d1477cde043a940601bd853a50009ac5a5ba56e79060200160405180910390a250505050565b600061232682612429565b805490915060ff1661234e576040516301550a7360e41b815260048101839052602401610ae1565b60028101546001600160a01b0316331461237d5760405163472511eb60e11b8152336004820152602401610ae1565b600061238885612429565b60028101805473ffffffffffffffffffffffffffffffffffffffff19166001600160a01b03871690811790915560405190815290915085907f08a670ef4110fe90a7d61086d1477cde043a940601bd853a50009ac5a5ba56e790602001611708565b6123f3826137bd565b61241b5760405163472511eb60e11b81526001600160a01b0383166004820152602401610ae1565b61242582826137c8565b5050565b60008061245760017f794c962401f2e1bb68ba8627fb26fd4eea0439023c691c35b68bb144bfe1011361511f565b805490915081908410612499576040517fd191a36c00000000000000000000000000000000000000000000000000000000815260048101859052602401610ae1565b8060000184815481106124ae576124ae6150f1565b906000526020600020906007020192505050919050565b6000610aac6124f560017f3d8762f71ac4675044de4231ebed7df0f8a8819893c6b6278d0461fc4a979b8061511f565b5490565b600061252660017fc852254d5b703a16bb13b3e233a335d6459c5da5db0ca732d7a684ee0540784761511f565b6001600160a01b039485166000908152602091825260408082209590961681529390525091902055565b6000610aac6124f560017fb5b37715a3e346e996104f0086703f19825def429233930fd9399c38e05fb11361511f565b60006125ad60017ff13551d5cf1b23afc8669eb5ef15070e351923179334eb1a5aa569477f4a413561511f565b6001600160a01b03939093166000908152602093909352506040909120805460ff1916911515919091179055565b60008183116125ea5782612268565b50919050565b6060806125fc83613831565b91509150915091565b6000610aac6124f560017fb649e50315f962b32d487e696a81b4828631b11f8424daaaa37e9e97766a2c4261511f565b6030835114612670576040517f50cb553000000000000000000000000000000000000000000000000000000000815260040160405180910390fd5b60608251146126ab576040517f408ebd3900000000000000000000000000000000000000000000000000000000815260040160405180910390fd5b6801bc16d674ec80000060006126c5633b9aca00836150cf565b9050816126d682633b9aca006151c1565b146126e3576126e36151e0565b600060026126f087613b7b565b6040516126fd91906151f6565b602060405180830381855afa15801561271a573d6000803e3d6000fd5b5050506040513d601f19601f8201168201806040525081019061273d9190615212565b905060006002806127518860006040613695565b60405161275e91906151f6565b602060405180830381855afa15801561277b573d6000803e3d6000fd5b5050506040513d601f19601f8201168201806040525081019061279e9190615212565b60026127be6127b98a60406127b481606061511f565b613695565b613b7b565b6040516127cb91906151f6565b602060405180830381855afa1580156127e8573d6000803e3d6000fd5b5050506040513d601f19601f8201168201806040525081019061280b9190615212565b60408051602081019390935282015260600160408051601f1981840301815290829052612837916151f6565b602060405180830381855afa158015612854573d6000803e3d6000fd5b5050506040513d601f19601f820116820180604052508101906128779190615212565b90506000600280848860405160200161289a929190918252602082015260400190565b60408051601f19818403018152908290526128b4916151f6565b602060405180830381855afa1580156128d1573d6000803e3d6000fd5b5050506040513d601f19601f820116820180604052508101906128f49190615212565b60026128ff87613c04565b604080516020810192909252810186905260600160408051601f198184030181529082905261292d916151f6565b602060405180830381855afa15801561294a573d6000803e3d6000fd5b5050506040513d601f19601f8201168201806040525081019061296d9190615212565b60408051602081019390935282015260600160408051601f1981840301815290829052612999916151f6565b602060405180830381855afa1580156129b6573d6000803e3d6000fd5b5050506040513d601f19601f820116820180604052508101906129d99190615212565b905060006129e7864761511f565b90506129f1613c4a565b6001600160a01b03166322895118878b8a604051602001612a1491815260200190565b6040516020818303038152906040528c876040518663ffffffff1660e01b8152600401612a44949392919061522b565b6000604051808303818588803b158015612a5d57600080fd5b505af1158015612a71573d6000803e3d6000fd5b5050505050804714612ac55760405162461bcd60e51b815260206004820152601b60248201527f455850454354494e475f4445504f5349545f544f5f48415050454e00000000006044820152606401610ae1565b505050505050505050565b6000610aac6124f560017fc77078e3530c08cdb2440817c81de4836500b4708ea4d15672b7fe98956423a861511f565b611466612b2e60017fc77078e3530c08cdb2440817c81de4836500b4708ea4d15672b7fe98956423a861511f565b829055565b6000610aac612550565b600080612b486132fe565b90506000612b54612ad0565b905080821015612ba0576801bc16d674ec800000612b72838361511f565b612b7c91906151c1565b47612b85612f08565b612b8f9190615107565b612b999190615107565b9250505090565b47612b8f612f08565b6060806000612bd960017f6018b2d18c7378174a403e179ce41a2df430338a150b2bcec4b7a0829128557461511f565b600086815260208281526040808320888452909152902080549192508291612c8d908290612c0690615084565b80601f0160208091040260200160405190810160405280929190818152602001828054612c3290615084565b8015612c7f5780601f10612c5457610100808354040283529160200191612c7f565b820191906000526020600020905b815481529060010190602001808311612c6257829003601f168201915b505050505060006030613695565b9450612d25818054612c9e90615084565b80601f0160208091040260200160405190810160405280929190818152602001828054612cca90615084565b8015612d175780601f10612cec57610100808354040283529160200191612d17565b820191906000526020600020905b815481529060010190602001808311612cfa57829003601f168201915b505050505060306060613695565b93505050509250929050565b6000612d3d8383613c7a565b90506000612d6c60017f6018b2d18c7378174a403e179ce41a2df430338a150b2bcec4b7a0829128557461511f565b600087815260208281526040808320898452825290912084519293508392611b5892860190614acf565b600080612dc460017f794c962401f2e1bb68ba8627fb26fd4eea0439023c691c35b68bb144bfe1011361511f565b5492915050565b600080612df960017fc852254d5b703a16bb13b3e233a335d6459c5da5db0ca732d7a684ee0540784761511f565b6001600160a01b039485166000908152602091825260408082209590961681529390525050205490565b6000611890612e3183612e6e565b613cf7565b600080612e41612b3d565b905080612e515750600092915050565b80612e5a613d1b565b612e6490856151c1565b61226891906150cf565b600080612e9c60017f0fb4a5ac9287f4f508aa7253ee2d57c6a228b1b30e210d73fffd59389d3a883861511f565b6001600160a01b0390931660009081526020939093525050604090205490565b6000612ee960017f0fb4a5ac9287f4f508aa7253ee2d57c6a228b1b30e210d73fffd59389d3a883861511f565b6001600160a01b03909316600090815260209390935250604090912055565b6000610aac6124f560017f42b27da24a254372d1e7ea692a34d85d9237abb39a65153affece1e2f1e6090061511f565b611466612b2e60017f094efef62d2ce60c14ffacd35a1b50546d3a9d503aff1df040176fffd6c92a3761511f565b6000610aac613d1b565b600080612f9e60017fb005a38730de558570646e2e51c331893c451361d6a7ba50d9c54b48e05ddd2761511f565b60405190915081908190612fb39086906151f6565b9081526040519081900360200190205460ff16612fd557506000199392505050565b6040518190612fe59086906151f6565b90815260200160405180910390206001015492505050919050565b60008061302e60017f794c962401f2e1bb68ba8627fb26fd4eea0439023c691c35b68bb144bfe1011361511f565b9050600061303b84613d4b565b82549091508290819083908110613054576130546150f1565b90600052602060002090600702019350505050919050565b611466612b2e60017f3d8762f71ac4675044de4231ebed7df0f8a8819893c6b6278d0461fc4a979b8061511f565b600061189082613dd9565b6000806130b184613dd9565b905060006130e060017f794c962401f2e1bb68ba8627fb26fd4eea0439023c691c35b68bb144bfe1011361511f565b905080826131bc5780546001808201835560008381526020908190208851600790940201805460ff191693151593909317835587810151805189949361312b93908501920190614acf565b50604082015160028201805473ffffffffffffffffffffffffffffffffffffffff19166001600160a01b03909216919091179055606082015160038201556080820151600482015560a0820151600582015560c090910151600690910155845181546131a491889161319f9060019061511f565b613e37565b80546131b29060019061511f565b9350505050611890565b60006131c787613d4b565b9050858260000182815481106131df576131df6150f1565b6000918252602091829020835160079290920201805460ff1916911515919091178155828201518051919261321c92600185019290910190614acf565b50604082015160028201805473ffffffffffffffffffffffffffffffffffffffff19166001600160a01b03909216919091179055606082015160038201556080820151600482015560a0820151600582015560c09091015160069091015585511515841515146132955761329587876000015183613e37565b935061189092505050565b611466612b2e60017fc8cbea9407c380ae944f052b5a442330057683c5abdbd453493f9750806afecb61511f565b6000610aac6124f560017fc8cbea9407c380ae944f052b5a442330057683c5abdbd453493f9750806afecb61511f565b6000610aac6124f560017f6929b6137e885d965ed089510659a629a29a4a54f85c28286fa5e0d7dcf27a3761511f565b611466612b2e60017f42b27da24a254372d1e7ea692a34d85d9237abb39a65153affece1e2f1e6090061511f565b611466612b2e60017f6929b6137e885d965ed089510659a629a29a4a54f85c28286fa5e0d7dcf27a3761511f565b611466612b2e60017fd7f2d45e512a86049f7a113657b39731b6b558609584243063a52cd31a8eb52961511f565b60006133c2613ebb565b905060006133d082846151c1565b620186a06133dc612b3d565b6133e691906151c1565b6133f0919061511f565b826133f9612f66565b61340390866151c1565b61340d91906151c1565b61341791906150cf565b90506000620186a0613427613eeb565b61343190846151c1565b61343b91906150cf565b90506000613447613f1b565b90506000815167ffffffffffffffff81111561346557613465615136565b60405190808252806020026020018201604052801561348e578160200160208202803683370190505b5090506000805b83518110156135235760008482815181106134b2576134b26150f1565b602002602001015160c001518583815181106134d0576134d06150f1565b6020026020010151608001516134e6919061511f565b90506134f28184615107565b925080848381518110613507576135076150f1565b60209081029190910101525061351c8161514c565b9050613495565b5080156135a657600061353682866150cf565b905060005b835181101561359f5761358f858281518110613559576135596150f1565b60200260200101516040015183868481518110613578576135786150f1565b602002602001015161358a91906151c1565b6141da565b6135988161514c565b905061353b565b50506135ab565b600093505b610dc56135b6614248565b61358a868861511f565b6000610aac6124f560017f82055909238c0f5e63d6f174068ebb8f51bcec9bd37de63bb68f6551feec0cfd61511f565b611466612b2e60017f82055909238c0f5e63d6f174068ebb8f51bcec9bd37de63bb68f6551feec0cfd61511f565b61146681614278565b611466612b2e60017faa490d1834c76465b09f09618af9f91fbbd04c30f1f453b24b1e8f907c9e1fa361511f565b611466612b2e60017f8b296ea79529153bb5bae302cb8c44db7ed739099e80c9f19feb68f6a43578a861511f565b61368c826142a6565b612425816142d4565b6060816136a381601f615107565b10156136f15760405162461bcd60e51b815260206004820152600e60248201527f736c6963655f6f766572666c6f770000000000000000000000000000000000006044820152606401610ae1565b6136fb8284615107565b8451101561374b5760405162461bcd60e51b815260206004820152601160248201527f736c6963655f6f75744f66426f756e64730000000000000000000000000000006044820152606401610ae1565b60608215801561376a57604051915060008252602082016040526137b4565b6040519150601f8416801560200281840101858101878315602002848b0101015b818310156137a357805183526020928301920161378b565b5050858452601f01601f1916604052505b50949350505050565b600061189082614302565b60006137d2612b3d565b90506000826137df612b3d565b6137e9919061511f565b9050806137ff576137fa84836141da565b61120e565b60008161380a612f66565b61381490866151c1565b61381e91906150cf565b905061382a85826141da565b5050505050565b606080600061383e614353565b90508051600014156138ac576040805160008082526020820190925290613875565b60608152602001906001900390816138605790505b5060408051600080825260208201909252906138a1565b606081526020019060019003908161388c5790505b509250925050915091565b600060015b8251811015613960578282815181106138cc576138cc6150f1565b602002602001015160c001518383815181106138ea576138ea6150f1565b602002602001015160800151613900919061511f565b838281518110613912576139126150f1565b602002602001015160c00151848381518110613930576139306150f1565b602002602001015160800151613946919061511f565b1015613950578091505b6139598161514c565b90506138b1565b506000828281518110613975576139756150f1565b6020026020010151608001516139c5848481518110613996576139966150f1565b602002602001015160a001518585815181106139b4576139b46150f1565b6020026020010151606001516125db565b6139cf919061511f565b905080613a3a576040805160008082526020820190925290613a01565b60608152602001906001900390816139ec5790505b506040805160008082526020820190925290613a2d565b6060815260200190600190039081613a185790505b5094509450505050915091565b6000613a62848481518110613a5157613a516150f1565b602002602001015160200151613000565b9050868210613ad757613ab0848481518110613a8057613a806150f1565b602002602001015160e00151858581518110613a9e57613a9e6150f1565b60200260200101516080015189614737565b809650819750505086816004016000828254613acc9190615107565b90915550613b729050565b613b1c848481518110613aec57613aec6150f1565b602002602001015160e00151858581518110613b0a57613b0a6150f1565b60200260200101516080015184614737565b809650819750505081816004016000828254613b389190615107565b909155506000905080613b53613b4e858b61511f565b613831565b91509150613b618883614940565b9750613b6d8782614940565b965050505b50505050915091565b60606020825110158015613b9157506040825111155b613b9d57613b9d6151e0565b815160401415613bab575090565b60408051602080825281830190925260009160208201818036833701905050905060006020820152825160201415613be7576122688382613c7a565b61226883613bff836000875160406127b4919061511f565b613c7a565b600081815b6008811015613c3257600892831b60ff831617929190911c90613c2b8161514c565b9050613c09565b508015613c4157613c416151e0565b5060c01b919050565b6000610aac6124f560017f35efb61d8784060218d9d6aa40eae55904de43779c1afc79c74dfefcfdf9126061511f565b6060806040519050835180825260208201818101602087015b81831015613cab578051835260209283019201613c93565b50855184518101855292509050808201602086015b81831015613cd8578051835260209283019201613cc0565b508651929092011591909101601f01601f191660405250905092915050565b600080613d02613d1b565b905080613d125750600092915050565b80612e5a612b3d565b6000610aac6124f560017f6b842b424335d94ccad97e54548dfa02673c1268aba38d3c3c32d28c8988b70b61511f565b600080613d7960017fb005a38730de558570646e2e51c331893c451361d6a7ba50d9c54b48e05ddd2761511f565b60405190915081908190613d8e9086906151f6565b9081526040519081900360200190205460ff16612fd557836040517f34eddfcf000000000000000000000000000000000000000000000000000000008152600401610ae19190614c49565b600080613e0760017fb005a38730de558570646e2e51c331893c451361d6a7ba50d9c54b48e05ddd2761511f565b60405190915081908190613e1c9086906151f6565b9081526040519081900360200190205460ff16949350505050565b6000613e6460017fb005a38730de558570646e2e51c331893c451361d6a7ba50d9c54b48e05ddd2761511f565b604080518082018252851515815260208101859052905191925082918290613e8d9088906151f6565b908152604051602091819003820190208251815460ff19169015151781559101516001909101555050505050565b6000610aac6124f560017f094efef62d2ce60c14ffacd35a1b50546d3a9d503aff1df040176fffd6c92a3761511f565b6000610aac6124f560017f8b296ea79529153bb5bae302cb8c44db7ed739099e80c9f19feb68f6a43578a861511f565b60606000613f4a60017f794c962401f2e1bb68ba8627fb26fd4eea0439023c691c35b68bb144bfe1011361511f565b9050806000805b8254811015613fa957826000018181548110613f6f57613f6f6150f1565b600091825260209091206007909102015460ff16151560011415613f9957613f968261514c565b91505b613fa28161514c565b9050613f51565b5060008167ffffffffffffffff811115613fc557613fc5615136565b60405190808252806020026020018201604052801561404157816020015b61402e6040518060e001604052806000151581526020016060815260200160006001600160a01b03168152602001600081526020016000815260200160008152602001600081525090565b815260200190600190039081613fe35790505b5090506000805b84548110156141cf57846000018181548110614066576140666150f1565b600091825260209091206007909102015460ff161515600114156141bf57846000018181548110614099576140996150f1565b60009182526020918290206040805160e08101909152600790920201805460ff161515825260018101805492939192918401916140d590615084565b80601f016020809104026020016040519081016040528092919081815260200182805461410190615084565b801561414e5780601f106141235761010080835404028352916020019161414e565b820191906000526020600020905b81548152906001019060200180831161413157829003601f168201915b505050918352505060028201546001600160a01b0316602082015260038201546040820152600482015460608201526005820154608082015260069091015460a09091015283518490849081106141a7576141a76150f1565b6020026020010181905250816141bc9061514c565b91505b6141c88161514c565b9050614048565b509095945050505050565b6141f5816141e6613d1b565b6141f09190615107565b614a53565b614203828261139085612e6e565b6040518181526001600160a01b038316906000907fddf252ad1be2c89b69c2b068fc378daa952ba7f163c4a11628f55a4df523b3ef9060200160405180910390a35050565b6000610aac6124f560017faa490d1834c76465b09f09618af9f91fbbd04c30f1f453b24b1e8f907c9e1fa361511f565b611466612b2e60017fb5b37715a3e346e996104f0086703f19825def429233930fd9399c38e05fb11361511f565b611466612b2e60017f35efb61d8784060218d9d6aa40eae55904de43779c1afc79c74dfefcfdf9126061511f565b611466612b2e60017fb649e50315f962b32d487e696a81b4828631b11f8424daaaa37e9e97766a2c4261511f565b60008061433060017ff13551d5cf1b23afc8669eb5ef15070e351923179334eb1a5aa569477f4a413561511f565b6001600160a01b0390931660009081526020939093525050604090205460ff1690565b6060600061438260017f794c962401f2e1bb68ba8627fb26fd4eea0439023c691c35b68bb144bfe1011361511f565b9050806000805b82548110156144ca576144a98360000182815481106143aa576143aa6150f1565b60009182526020918290206040805160e08101909152600790920201805460ff161515825260018101805492939192918401916143e690615084565b80601f016020809104026020016040519081016040528092919081815260200182805461441290615084565b801561445f5780601f106144345761010080835404028352916020019161445f565b820191906000526020600020905b81548152906001019060200180831161444257829003601f168201915b505050918352505060028201546001600160a01b0316602082015260038201546040820152600482015460608201526005820154608082015260069091015460a090910152614a81565b156144ba576144b78261514c565b91505b6144c38161514c565b9050614389565b5060008167ffffffffffffffff8111156144e6576144e6615136565b60405190808252806020026020018201604052801561456a57816020015b6145576040518061010001604052806000151581526020016060815260200160006001600160a01b0316815260200160008152602001600081526020016000815260200160008152602001600081525090565b8152602001906001900390816145045790505b5090506000805b84548110156141cf576000856000018281548110614591576145916150f1565b60009182526020918290206040805160e08101909152600790920201805460ff161515825260018101805492939192918401916145cd90615084565b80601f01602080910402602001604051908101604052809291908181526020018280546145f990615084565b80156146465780601f1061461b57610100808354040283529160200191614646565b820191906000526020600020905b81548152906001019060200180831161462957829003601f168201915b505050918352505060028201546001600160a01b0316602082015260038201546040820152600482015460608201526005820154608082015260069091015460a090910152905061469681614a81565b15614726576040518061010001604052808260000151151581526020018260200151815260200182604001516001600160a01b0316815260200182606001518152602001826080015181526020018260a0015181526020018260c0015181526020018381525084848151811061470e5761470e6150f1565b6020026020010181905250826147239061514c565b92505b506147308161514c565b9050614571565b6060808267ffffffffffffffff81111561475357614753615136565b60405190808252806020026020018201604052801561478657816020015b60608152602001906001900390816147715790505b5091508267ffffffffffffffff8111156147a2576147a2615136565b6040519080825280602002602001820160405280156147d557816020015b60608152602001906001900390816147c05790505b509050600061480560017f6018b2d18c7378174a403e179ce41a2df430338a150b2bcec4b7a0829128557461511f565b905080855b6148148688615107565b811015614935576000888152602083815260408083208484529091528120805461483d90615084565b80601f016020809104026020016040519081016040528092919081815260200182805461486990615084565b80156148b65780601f1061488b576101008083540402835291602001916148b6565b820191906000526020600020905b81548152906001019060200180831161489957829003601f168201915b505050505090506148ca8160006030613695565b866148d58a8561511f565b815181106148e5576148e56150f1565b60200260200101819052506148fd8160306060613695565b856149088a8561511f565b81518110614918576149186150f1565b6020026020010181905250508061492e9061514c565b905061480a565b505050935093915050565b6060815183516149509190615107565b67ffffffffffffffff81111561496857614968615136565b60405190808252806020026020018201604052801561499b57816020015b60608152602001906001900390816149865790505b50905060005b83518110156149f2578381815181106149bc576149bc6150f1565b60200260200101518282815181106149d6576149d66150f1565b6020026020010181905250806149eb9061514c565b90506149a1565b5060005b8251811015610b3a57828181518110614a1157614a116150f1565b602002602001015182855183614a279190615107565b81518110614a3757614a376150f1565b602002602001018190525080614a4c9061514c565b90506149f6565b611466612b2e60017f6b842b424335d94ccad97e54548dfa02673c1268aba38d3c3c32d28c8988b70b61511f565b80516000908015614aa857508160c001518260800151614aa1919061511f565b8260a00151115b801561189057508160c001518260800151614ac3919061511f565b82606001511192915050565b828054614adb90615084565b90600052602060002090601f016020900481019282614afd5760008555614b43565b82601f10614b1657805160ff1916838001178555614b43565b82800160010185558215614b43579182015b82811115614b43578251825591602001919060010190614b28565b50614b4f929150614b53565b5090565b5b80821115614b4f5760008155600101614b54565b600060208284031215614b7a57600080fd5b5035919050565b60005b83811015614b9c578181015183820152602001614b84565b8381111561120e5750506000910152565b60008151808452614bc5816020860160208601614b81565b601f01601f19169290920160200192915050565b602081528151151560208201526000602083015160e06040840152614c02610100840182614bad565b90506001600160a01b03604085015116606084015260608401516080840152608084015160a084015260a084015160c084015260c084015160e08401528091505092915050565b6020815260006122686020830184614bad565b80356001600160a01b0381168114614c7357600080fd5b919050565b60008060408385031215614c8b57600080fd5b614c9483614c5c565b946020939093013593505050565b80358015158114614c7357600080fd5b60008060408385031215614cc557600080fd5b614cce83614c5c565b9150614cdc60208401614ca2565b90509250929050565b600080600060408486031215614cfa57600080fd5b83359250602084013567ffffffffffffffff80821115614d1957600080fd5b818601915086601f830112614d2d57600080fd5b813581811115614d3c57600080fd5b8760208260051b8501011115614d5157600080fd5b6020830194508093505050509250925092565b600080600060608486031215614d7957600080fd5b614d8284614c5c565b9250614d9060208501614c5c565b9150604084013590509250925092565b60008083601f840112614db257600080fd5b50813567ffffffffffffffff811115614dca57600080fd5b602083019150836020828501011115614de257600080fd5b9250929050565b60008060208385031215614dfc57600080fd5b823567ffffffffffffffff811115614e1357600080fd5b614e1f85828601614da0565b90969095509350505050565b600060208284031215614e3d57600080fd5b61226882614c5c565b600080600060408486031215614e5b57600080fd5b833567ffffffffffffffff811115614e7257600080fd5b614e7e86828701614da0565b9094509250614e91905060208501614c5c565b90509250925092565b60008060408385031215614ead57600080fd5b82359150614cdc60208401614ca2565b60008060408385031215614ed057600080fd5b50508035926020909101359150565b606081526000614ef26060830186614bad565b8281036020840152614f048186614bad565b9150508215156040830152949350505050565b600080600060608486031215614f2c57600080fd5b505081359360208301359350604090920135919050565b600080600080600080600060e0888a031215614f5e57600080fd5b614f6788614c5c565b965060208801359550614f7c60408901614c5c565b9450614f8a60608901614c5c565b9350614f9860808901614c5c565b925060a0880135915060c0880135905092959891949750929550565b60008060008060008060808789031215614fcd57600080fd5b8635955060208701359450604087013567ffffffffffffffff80821115614ff357600080fd5b614fff8a838b01614da0565b9096509450606089013591508082111561501857600080fd5b5061502589828a01614da0565b979a9699509497509295939492505050565b6000806040838503121561504a57600080fd5b61505383614c5c565b9150614cdc60208401614c5c565b6000806040838503121561507457600080fd5b82359150614cdc60208401614c5c565b600181811c9082168061509857607f821691505b602082108114156125ea57634e487b7160e01b600052602260045260246000fd5b634e487b7160e01b600052601160045260246000fd5b6000826150ec57634e487b7160e01b600052601260045260246000fd5b500490565b634e487b7160e01b600052603260045260246000fd5b6000821982111561511a5761511a6150b9565b500190565b600082821015615131576151316150b9565b500390565b634e487b7160e01b600052604160045260246000fd5b6000600019821415615160576151606150b9565b5060010190565b60208152816020820152818360408301376000818301604090810191909152601f909201601f19160101919050565b6040815260006151a96040830185614bad565b90506001600160a01b03831660208301529392505050565b60008160001904831182151516156151db576151db6150b9565b500290565b634e487b7160e01b600052600160045260246000fd5b60008251615208818460208701614b81565b9190910192915050565b60006020828403121561522457600080fd5b5051919050565b60808152600061523e6080830187614bad565b82810360208401526152508187614bad565b905082810360408401526152648186614bad565b9150508260608301529594505050505056fea2646970667358221220a3b60b689ada7ae7e9617247571657ea29109d46c373617d762205123397bdcd64736f6c634300080a0033",
  "devdoc": {
    "author": "SkillZ",
    "kind": "dev",
    "methods": {
      "addOperator(string,address)": {
        "details": "Only callable by the administrator",
        "params": {
          "_name": "The name identifying the operator",
          "_operator": "The address representing the operator, receiving the rewards"
        }
      },
      "addValidators(uint256,uint256,bytes,bytes)": {
        "details": "Only callable by the administrator or the operator address",
        "params": {
          "_index": "The operator index",
          "_keyCount": "The amount of keys provided",
          "_publicKeys": "Public keys of the validator, concatenated",
          "_signatures": "Signatures of the validator keys, concatenated"
        }
      },
      "allow(address,bool)": {
        "params": {
          "_account": "Account status to edit",
          "_status": "Allowlist status"
        }
      },
      "deposit(address)": {
        "params": {
          "_referral": "Referral address, address(0) if none"
        }
      },
      "depositToConsensusLayer(uint256)": {
        "params": {
          "_maxCount": "The maximum amount of validator keys to fund"
        }
      },
      "getOperator(uint256)": {
        "params": {
          "_index": "The index of the operator"
        }
      },
      "getOperatorByName(string)": {
        "params": {
          "_name": "The name identifying the operator"
        }
      },
      "getValidator(uint256,uint256)": {
        "params": {
          "_operatorIndex": "The index of the operator",
          "_validatorIndex": "The index of the validator"
        }
      },
      "initRiverV1(address,bytes32,address,address,address,uint256,uint256)": {
        "params": {
          "_allowerAddress": "Address able to manage the allowlist",
          "_depositContractAddress": "Address to make Consensus Layer deposits",
          "_globalFee": "Amount retained when the eth balance increases, splitted between the treasury and the operators",
          "_operatorRewardsShare": "Share of the global fee used to reward node operators",
          "_systemAdministratorAddress": "Administrator address",
          "_treasuryAddress": "Address receiving the fee minus the operator share",
          "_withdrawalCredentials": "Credentials to use for every validator deposit"
        }
      },
      "removeValidators(uint256,uint256[])": {
        "details": "Only callable by the administrator or the operator addressThe indexes must be provided sorted in decreasing order, otherwise the method will revert",
        "params": {
          "_index": "The operator index",
          "_indexes": "The indexes of the keys to remove"
        }
      },
      "setAllower(address)": {
        "params": {
          "_newAllowerAddress": "New address allowed to edit the allowlist"
        }
      },
      "setBeaconData(uint256,uint256,bytes32)": {
        "details": "Can only be called by the oracle address",
        "params": {
          "_roundId": "An identifier for this update",
          "_validatorBalanceSum": "The validator balance sum of the active validators on the consensus layer",
          "_validatorCount": "The number of active validators on the consensus layer"
        }
      },
      "setGlobalFee(uint256)": {
        "params": {
          "newFee": "New fee value"
        }
      },
      "setOperatorAddress(uint256,address)": {
        "details": "Only callable by the administrator or the previous operator address",
        "params": {
          "_index": "The operator index",
          "_newOperatorAddress": "The new address representing the operator"
        }
      },
      "setOperatorLimit(uint256,uint256)": {
        "details": "Only callable by the administrator",
        "params": {
          "_index": "The operator index",
          "_newLimit": "The new staking limit of the operator"
        }
      },
      "setOperatorRewardsShare(uint256)": {
        "params": {
          "newOperatorRewardsShare": "New share value"
        }
      },
      "setOperatorStatus(uint256,bool)": {
        "details": "Only callable by the administrator",
        "params": {
          "_index": "The operator index",
          "_newStatus": "The new status of the operator"
        }
      },
      "setOperatorStoppedValidatorCount(uint256,uint256)": {
        "details": "Only callable by the administrator",
        "params": {
          "_index": "The operator index",
          "_newStoppedValidatorCount": "The new stopped validator count of the operator"
        }
      },
      "setOracle(address)": {
        "params": {
          "_oracleAddress": "Address of the oracle"
        }
      }
    },
    "title": "River (v1)",
    "version": 1
  },
  "userdoc": {
    "kind": "user",
    "methods": {
      "addOperator(string,address)": {
        "notice": "Adds an operator to the registry"
      },
      "addValidators(uint256,uint256,bytes,bytes)": {
        "notice": "Adds new keys for an operator"
      },
      "allow(address,bool)": {
        "notice": "Sets the allowlisting status for an account"
      },
      "deposit(address)": {
        "notice": "Explicit deposit method"
      },
      "depositToConsensusLayer(uint256)": {
        "notice": "Deposits current balance to the Consensus Layer by batches of 32 ETH"
      },
      "getAdministrator()": {
        "notice": "Retrieve system administrator address"
      },
      "getAllower()": {
        "notice": "Retrieves the allower address"
      },
      "getBeaconValidatorBalanceSum()": {
        "notice": "Get Beacon validator balance sum"
      },
      "getBeaconValidatorCount()": {
        "notice": "Get Beacon validator count (the amount of validator reported by the oracles)"
      },
      "getDepositedValidatorCount()": {
        "notice": "Get the deposited validator count (the count of deposits made by the contract)"
      },
      "getOperator(uint256)": {
        "notice": "Get operator details"
      },
      "getOperatorByName(string)": {
        "notice": "Get operator details by name"
      },
      "getOperatorCount()": {
        "notice": "Get operator count"
      },
      "getOracle()": {
        "notice": "Get Oracle address"
      },
      "getValidator(uint256,uint256)": {
        "notice": "Get the details of a validator"
      },
      "getWithdrawalCredentials()": {
        "notice": "Retrieve the withdrawal credentials"
      },
      "initRiverV1(address,bytes32,address,address,address,uint256,uint256)": {
        "notice": "Initializes the River system"
      },
      "removeValidators(uint256,uint256[])": {
        "notice": "Remove validator keys"
      },
      "setAllower(address)": {
        "notice": "Changes the allower address"
      },
      "setBeaconData(uint256,uint256,bytes32)": {
        "notice": "Sets the validator count and validator balance sum reported by the oracle"
      },
      "setGlobalFee(uint256)": {
        "notice": "Changes the global fee parameter"
      },
      "setOperatorAddress(uint256,address)": {
        "notice": "Changes the operator address of an operator"
      },
      "setOperatorLimit(uint256,uint256)": {
        "notice": "Changes the operator staking limit"
      },
      "setOperatorRewardsShare(uint256)": {
        "notice": "Changes the operator rewards share."
      },
      "setOperatorStatus(uint256,bool)": {
        "notice": "Changes the operator status"
      },
      "setOperatorStoppedValidatorCount(uint256,uint256)": {
        "notice": "Changes the operator stopped validator cound"
      },
      "setOracle(address)": {
        "notice": "Set Oracle address"
      }
    },
    "notice": "This contract merges all the manager contracts and implements all the virtual methods stitching all components together",
    "version": 1
  },
  "storageLayout": {
    "storage": [],
    "types": null
  }
}