{
  "address": "0xBf2871F0b6dbB479f5F6bB540fb5b2e4D91f5b86",
  "abi": [
    {
      "inputs": [
        {
          "internalType": "address",
          "name": "_from",
          "type": "address"
        },
        {
          "internalType": "address",
          "name": "_operator",
          "type": "address"
        },
        {
          "internalType": "uint256",
          "name": "_allowance",
          "type": "uint256"
        },
        {
          "internalType": "uint256",
          "name": "_value",
          "type": "uint256"
        }
      ],
      "name": "AllowanceTooLow",
      "type": "error"
    },
    {
      "inputs": [],
      "name": "BalanceTooLow",
      "type": "error"
    },
    {
      "inputs": [],
      "name": "EmptyDeposit",
      "type": "error"
    },
    {
      "inputs": [],
      "name": "EmptyDonation",
      "type": "error"
    },
    {
      "inputs": [],
      "name": "InconsistentPublicKeys",
      "type": "error"
    },
    {
      "inputs": [],
      "name": "InconsistentSignatures",
      "type": "error"
    },
    {
      "inputs": [],
      "name": "InvalidArgument",
      "type": "error"
    },
    {
      "inputs": [],
      "name": "InvalidCall",
      "type": "error"
    },
    {
      "inputs": [
        {
          "internalType": "uint256",
          "name": "version",
          "type": "uint256"
        },
        {
          "internalType": "uint256",
          "name": "expectedVersion",
          "type": "uint256"
        }
      ],
      "name": "InvalidInitialization",
      "type": "error"
    },
    {
      "inputs": [],
      "name": "InvalidPublicKeyCount",
      "type": "error"
    },
    {
      "inputs": [],
      "name": "InvalidSignatureCount",
      "type": "error"
    },
    {
      "inputs": [
        {
          "internalType": "uint256",
          "name": "_providedValidatorCount",
          "type": "uint256"
        },
        {
          "internalType": "uint256",
          "name": "_depositedValidatorCount",
          "type": "uint256"
        }
      ],
      "name": "InvalidValidatorCountReport",
      "type": "error"
    },
    {
      "inputs": [],
      "name": "InvalidWithdrawalCredentials",
      "type": "error"
    },
    {
      "inputs": [],
      "name": "InvalidZeroAddress",
      "type": "error"
    },
    {
      "inputs": [],
      "name": "NoAvailableValidatorKeys",
      "type": "error"
    },
    {
      "inputs": [],
      "name": "NotEnoughFunds",
      "type": "error"
    },
    {
      "inputs": [],
      "name": "NullTransfer",
      "type": "error"
    },
    {
      "inputs": [
        {
          "internalType": "address",
          "name": "caller",
          "type": "address"
        }
      ],
      "name": "Unauthorized",
      "type": "error"
    },
    {
      "inputs": [],
      "name": "ZeroMintedShares",
      "type": "error"
    },
    {
      "anonymous": false,
      "inputs": [
        {
          "indexed": true,
          "internalType": "address",
          "name": "owner",
          "type": "address"
        },
        {
          "indexed": true,
          "internalType": "address",
          "name": "spender",
          "type": "address"
        },
        {
          "indexed": false,
          "internalType": "uint256",
          "name": "value",
          "type": "uint256"
        }
      ],
      "name": "Approval",
      "type": "event"
    },
    {
      "anonymous": false,
      "inputs": [
        {
          "indexed": false,
          "internalType": "uint256",
          "name": "validatorCount",
          "type": "uint256"
        },
        {
          "indexed": false,
          "internalType": "uint256",
          "name": "validatorBalanceSum",
          "type": "uint256"
        },
        {
          "indexed": false,
          "internalType": "bytes32",
          "name": "roundId",
          "type": "bytes32"
        }
      ],
      "name": "BeaconDataUpdate",
      "type": "event"
    },
    {
      "anonymous": false,
      "inputs": [
        {
          "indexed": false,
          "internalType": "bytes",
          "name": "publicKey",
          "type": "bytes"
        }
      ],
      "name": "FundedValidatorKey",
      "type": "event"
    },
    {
      "anonymous": false,
      "inputs": [
        {
          "indexed": false,
          "internalType": "uint256",
          "name": "amount",
          "type": "uint256"
        }
      ],
      "name": "PulledELFees",
      "type": "event"
    },
    {
      "anonymous": false,
      "inputs": [
        {
          "indexed": true,
          "internalType": "address",
          "name": "from",
          "type": "address"
        },
        {
          "indexed": true,
          "internalType": "address",
          "name": "to",
          "type": "address"
        },
        {
          "indexed": false,
          "internalType": "uint256",
          "name": "value",
          "type": "uint256"
        }
      ],
      "name": "Transfer",
      "type": "event"
    },
    {
      "anonymous": false,
      "inputs": [
        {
          "indexed": true,
          "internalType": "address",
          "name": "depositor",
          "type": "address"
        },
        {
          "indexed": true,
          "internalType": "address",
          "name": "recipient",
          "type": "address"
        },
        {
          "indexed": false,
          "internalType": "uint256",
          "name": "amount",
          "type": "uint256"
        }
      ],
      "name": "UserDeposit",
      "type": "event"
    },
    {
      "stateMutability": "payable",
      "type": "fallback"
    },
    {
      "inputs": [],
      "name": "BASE",
      "outputs": [
        {
          "internalType": "uint256",
          "name": "",
          "type": "uint256"
        }
      ],
      "stateMutability": "view",
      "type": "function"
    },
    {
      "inputs": [],
      "name": "DEPOSIT_SIZE",
      "outputs": [
        {
          "internalType": "uint256",
          "name": "",
          "type": "uint256"
        }
      ],
      "stateMutability": "view",
      "type": "function"
    },
    {
      "inputs": [],
      "name": "PUBLIC_KEY_LENGTH",
      "outputs": [
        {
          "internalType": "uint256",
          "name": "",
          "type": "uint256"
        }
      ],
      "stateMutability": "view",
      "type": "function"
    },
    {
      "inputs": [],
      "name": "SIGNATURE_LENGTH",
      "outputs": [
        {
          "internalType": "uint256",
          "name": "",
          "type": "uint256"
        }
      ],
      "stateMutability": "view",
      "type": "function"
    },
    {
      "inputs": [],
      "name": "acceptOwnership",
      "outputs": [],
      "stateMutability": "nonpayable",
      "type": "function"
    },
    {
      "inputs": [
        {
          "internalType": "address",
          "name": "_owner",
          "type": "address"
        },
        {
          "internalType": "address",
          "name": "_spender",
          "type": "address"
        }
      ],
      "name": "allowance",
      "outputs": [
        {
          "internalType": "uint256",
          "name": "remaining",
          "type": "uint256"
        }
      ],
      "stateMutability": "view",
      "type": "function"
    },
    {
      "inputs": [
        {
          "internalType": "address",
          "name": "_spender",
          "type": "address"
        },
        {
          "internalType": "uint256",
          "name": "_value",
          "type": "uint256"
        }
      ],
      "name": "approve",
      "outputs": [
        {
          "internalType": "bool",
          "name": "success",
          "type": "bool"
        }
      ],
      "stateMutability": "nonpayable",
      "type": "function"
    },
    {
      "inputs": [
        {
          "internalType": "address",
          "name": "_owner",
          "type": "address"
        }
      ],
      "name": "balanceOf",
      "outputs": [
        {
          "internalType": "uint256",
          "name": "balance",
          "type": "uint256"
        }
      ],
      "stateMutability": "view",
      "type": "function"
    },
    {
      "inputs": [
        {
          "internalType": "address",
          "name": "_owner",
          "type": "address"
        }
      ],
      "name": "balanceOfUnderlying",
      "outputs": [
        {
          "internalType": "uint256",
          "name": "balance",
          "type": "uint256"
        }
      ],
      "stateMutability": "view",
      "type": "function"
    },
    {
      "inputs": [],
      "name": "decimals",
      "outputs": [
        {
          "internalType": "uint8",
          "name": "",
          "type": "uint8"
        }
      ],
      "stateMutability": "pure",
      "type": "function"
    },
    {
      "inputs": [],
      "name": "deposit",
      "outputs": [],
      "stateMutability": "payable",
      "type": "function"
    },
    {
      "inputs": [
        {
          "internalType": "address",
          "name": "_recipient",
          "type": "address"
        }
      ],
      "name": "depositAndTransfer",
      "outputs": [],
      "stateMutability": "payable",
      "type": "function"
    },
    {
      "inputs": [
        {
          "internalType": "uint256",
          "name": "_maxCount",
          "type": "uint256"
        }
      ],
      "name": "depositToConsensusLayer",
      "outputs": [],
      "stateMutability": "nonpayable",
      "type": "function"
    },
    {
      "inputs": [],
      "name": "getAdministrator",
      "outputs": [
        {
          "internalType": "address",
          "name": "",
          "type": "address"
        }
      ],
      "stateMutability": "view",
      "type": "function"
    },
    {
      "inputs": [],
      "name": "getAllowlist",
      "outputs": [
        {
          "internalType": "address",
          "name": "",
          "type": "address"
        }
      ],
      "stateMutability": "view",
      "type": "function"
    },
    {
      "inputs": [],
      "name": "getBeaconValidatorBalanceSum",
      "outputs": [
        {
          "internalType": "uint256",
          "name": "beaconValidatorBalanceSum",
          "type": "uint256"
        }
      ],
      "stateMutability": "view",
      "type": "function"
    },
    {
      "inputs": [],
      "name": "getBeaconValidatorCount",
      "outputs": [
        {
          "internalType": "uint256",
          "name": "beaconValidatorCount",
          "type": "uint256"
        }
      ],
      "stateMutability": "view",
      "type": "function"
    },
    {
      "inputs": [],
      "name": "getDepositedValidatorCount",
      "outputs": [
        {
          "internalType": "uint256",
          "name": "depositedValidatorCount",
          "type": "uint256"
        }
      ],
      "stateMutability": "view",
      "type": "function"
    },
    {
      "inputs": [],
      "name": "getELFeeRecipient",
      "outputs": [
        {
          "internalType": "address",
          "name": "",
          "type": "address"
        }
      ],
      "stateMutability": "view",
      "type": "function"
    },
    {
      "inputs": [],
      "name": "getGlobalFee",
      "outputs": [
        {
          "internalType": "uint256",
          "name": "",
          "type": "uint256"
        }
      ],
      "stateMutability": "view",
      "type": "function"
    },
    {
      "inputs": [],
      "name": "getOperatorRewardsShare",
      "outputs": [
        {
          "internalType": "uint256",
          "name": "",
          "type": "uint256"
        }
      ],
      "stateMutability": "view",
      "type": "function"
    },
    {
      "inputs": [],
      "name": "getOracle",
      "outputs": [
        {
          "internalType": "address",
          "name": "oracle",
          "type": "address"
        }
      ],
      "stateMutability": "view",
      "type": "function"
    },
    {
      "inputs": [],
      "name": "getPendingAdministrator",
      "outputs": [
        {
          "internalType": "address",
          "name": "",
          "type": "address"
        }
      ],
      "stateMutability": "view",
      "type": "function"
    },
    {
      "inputs": [],
      "name": "getPendingEth",
      "outputs": [
        {
          "internalType": "uint256",
          "name": "",
          "type": "uint256"
        }
      ],
      "stateMutability": "view",
      "type": "function"
    },
    {
      "inputs": [],
      "name": "getTreasury",
      "outputs": [
        {
          "internalType": "address",
          "name": "",
          "type": "address"
        }
      ],
      "stateMutability": "view",
      "type": "function"
    },
    {
      "inputs": [],
      "name": "getWithdrawalCredentials",
      "outputs": [
        {
          "internalType": "bytes32",
          "name": "",
          "type": "bytes32"
        }
      ],
      "stateMutability": "view",
      "type": "function"
    },
    {
      "inputs": [
        {
          "internalType": "address",
          "name": "_depositContractAddress",
          "type": "address"
        },
        {
          "internalType": "address",
          "name": "_elFeeRecipientAddress",
          "type": "address"
        },
        {
          "internalType": "bytes32",
          "name": "_withdrawalCredentials",
          "type": "bytes32"
        },
        {
          "internalType": "address",
          "name": "_oracleAddress",
          "type": "address"
        },
        {
          "internalType": "address",
          "name": "_systemAdministratorAddress",
          "type": "address"
        },
        {
          "internalType": "address",
          "name": "_allowlistAddress",
          "type": "address"
        },
        {
          "internalType": "address",
          "name": "_operatorRegistryAddress",
          "type": "address"
        },
        {
          "internalType": "address",
          "name": "_treasuryAddress",
          "type": "address"
        },
        {
          "internalType": "uint256",
          "name": "_globalFee",
          "type": "uint256"
        },
        {
          "internalType": "uint256",
          "name": "_operatorRewardsShare",
          "type": "uint256"
        }
      ],
      "name": "initRiverV1",
      "outputs": [],
      "stateMutability": "nonpayable",
      "type": "function"
    },
    {
      "inputs": [],
      "name": "name",
      "outputs": [
        {
          "internalType": "string",
          "name": "",
          "type": "string"
        }
      ],
      "stateMutability": "pure",
      "type": "function"
    },
    {
      "inputs": [],
      "name": "sendELFees",
      "outputs": [],
      "stateMutability": "payable",
      "type": "function"
    },
    {
      "inputs": [
        {
          "internalType": "address",
          "name": "_newAllowlist",
          "type": "address"
        }
      ],
      "name": "setAllowlist",
      "outputs": [],
      "stateMutability": "nonpayable",
      "type": "function"
    },
    {
      "inputs": [
        {
          "internalType": "uint256",
          "name": "_validatorCount",
          "type": "uint256"
        },
        {
          "internalType": "uint256",
          "name": "_validatorBalanceSum",
          "type": "uint256"
        },
        {
          "internalType": "bytes32",
          "name": "_roundId",
          "type": "bytes32"
        }
      ],
      "name": "setBeaconData",
      "outputs": [],
      "stateMutability": "nonpayable",
      "type": "function"
    },
    {
      "inputs": [
        {
          "internalType": "address",
          "name": "_newELFeeRecipient",
          "type": "address"
        }
      ],
      "name": "setELFeeRecipient",
      "outputs": [],
      "stateMutability": "nonpayable",
      "type": "function"
    },
    {
      "inputs": [
        {
          "internalType": "uint256",
          "name": "newFee",
          "type": "uint256"
        }
      ],
      "name": "setGlobalFee",
      "outputs": [],
      "stateMutability": "nonpayable",
      "type": "function"
    },
    {
      "inputs": [
        {
          "internalType": "uint256",
          "name": "newOperatorRewardsShare",
          "type": "uint256"
        }
      ],
      "name": "setOperatorRewardsShare",
      "outputs": [],
      "stateMutability": "nonpayable",
      "type": "function"
    },
    {
      "inputs": [
        {
          "internalType": "address",
          "name": "_oracleAddress",
          "type": "address"
        }
      ],
      "name": "setOracle",
      "outputs": [],
      "stateMutability": "nonpayable",
      "type": "function"
    },
    {
      "inputs": [
        {
          "internalType": "address",
          "name": "_newTreasury",
          "type": "address"
        }
      ],
      "name": "setTreasury",
      "outputs": [],
      "stateMutability": "nonpayable",
      "type": "function"
    },
    {
      "inputs": [
        {
          "internalType": "uint256",
          "name": "underlyingBalance",
          "type": "uint256"
        }
      ],
      "name": "sharesFromUnderlyingBalance",
      "outputs": [
        {
          "internalType": "uint256",
          "name": "",
          "type": "uint256"
        }
      ],
      "stateMutability": "view",
      "type": "function"
    },
    {
      "inputs": [],
      "name": "symbol",
      "outputs": [
        {
          "internalType": "string",
          "name": "",
          "type": "string"
        }
      ],
      "stateMutability": "pure",
      "type": "function"
    },
    {
      "inputs": [],
      "name": "totalSupply",
      "outputs": [
        {
          "internalType": "uint256",
          "name": "",
          "type": "uint256"
        }
      ],
      "stateMutability": "view",
      "type": "function"
    },
    {
      "inputs": [],
      "name": "totalUnderlyingSupply",
      "outputs": [
        {
          "internalType": "uint256",
          "name": "",
          "type": "uint256"
        }
      ],
      "stateMutability": "view",
      "type": "function"
    },
    {
      "inputs": [
        {
          "internalType": "address",
          "name": "_to",
          "type": "address"
        },
        {
          "internalType": "uint256",
          "name": "_value",
          "type": "uint256"
        }
      ],
      "name": "transfer",
      "outputs": [
        {
          "internalType": "bool",
          "name": "",
          "type": "bool"
        }
      ],
      "stateMutability": "nonpayable",
      "type": "function"
    },
    {
      "inputs": [
        {
          "internalType": "address",
          "name": "_from",
          "type": "address"
        },
        {
          "internalType": "address",
          "name": "_to",
          "type": "address"
        },
        {
          "internalType": "uint256",
          "name": "_value",
          "type": "uint256"
        }
      ],
      "name": "transferFrom",
      "outputs": [
        {
          "internalType": "bool",
          "name": "",
          "type": "bool"
        }
      ],
      "stateMutability": "nonpayable",
      "type": "function"
    },
    {
      "inputs": [
        {
          "internalType": "address",
          "name": "_newAdmin",
          "type": "address"
        }
      ],
      "name": "transferOwnership",
      "outputs": [],
      "stateMutability": "nonpayable",
      "type": "function"
    },
    {
      "inputs": [
        {
          "internalType": "uint256",
          "name": "shares",
          "type": "uint256"
        }
      ],
      "name": "underlyingBalanceFromShares",
      "outputs": [
        {
          "internalType": "uint256",
          "name": "",
          "type": "uint256"
        }
      ],
      "stateMutability": "view",
      "type": "function"
    },
    {
      "stateMutability": "payable",
      "type": "receive"
    }
  ],
  "transactionHash": "0xa81e3aa472ff385183e0ae7a67dfbf5976cd7fcd671500bb40223913a62ebd7d",
  "args": [],
  "numDeployments": 1,
  "solcInputHash": "e0747c9f458a392de0f02a251cd18ac6",
  "bytecode": "0x608060405234801561001057600080fd5b50612fb2806100206000396000f3fe60806040526004361061026b5760003560e01c806370a0823111610144578063bf15af56116100b6578063ec342ad01161007a578063ec342ad0146106bb578063efd60347146106d2578063f0f44260146106da578063f2fde38b146106fa578063f79c3f021461071a578063f9e018571461073a5761027b565b8063bf15af5614610649578063c5eff3d01461065e578063d0e30db014610673578063d56580ff1461067b578063dd62ed3e1461069b5761027b565b8063833b1fce11610108578063833b1fce146105a957806387f2adfb146105be57806395d89b41146105d35780639e3947f314610601578063a9059cbb14610616578063ac232bde146106365761027b565b806370a0823114610514578063799a19541461053457806379ba5097146105545780637adbf9731461056957806380d4027e146105895761027b565b8063252d6a34116101dd5780633af9e669116101a15780633af9e669146104805780633b19e84a146104a0578063540bc5ea146104b557806356396715146104ca57806358bf3c7f146104df5780635a88bd77146104ff5761027b565b8063252d6a34146103fd578063291206f6146104125780632cb562e114610432578063313ce5671461044757806336bf3325146104635761027b565b8063143a08d41161022f578063143a08d414610369578063169674071461037e57806318160ddd146103a0578063192feab4146103b55780631bcbfaba146103c857806323b872dd146103dd5761027b565b8063014d76bd1461029457806306fdde03146102bc578063095ea7b3146102f95780631311cf8d1461032957806313d86aed146103495761027b565b3661027b576102793361075a565b005b60405163574b16a760e11b815260040160405180910390fd5b3480156102a057600080fd5b506102a96107c6565b6040519081526020015b60405180910390f35b3480156102c857600080fd5b5060408051808201909152600b81526a2934bb32b91022ba3432b960a91b60208201525b6040516102b391906128c7565b34801561030557600080fd5b506103196103143660046128ef565b6107d5565b60405190151581526020016102b3565b34801561033557600080fd5b5061027961034436600461291b565b61082c565b34801561035557600080fd5b50610279610364366004612938565b61087c565b34801561037557600080fd5b506102a96109cd565b34801561038a57600080fd5b506103936109d7565b6040516102b39190612951565b3480156103ac57600080fd5b506102a96109e1565b3480156103c157600080fd5b50476102a9565b3480156103d457600080fd5b506102a96109eb565b3480156103e957600080fd5b506103196103f8366004612965565b6109f5565b34801561040957600080fd5b506102a9610ad9565b34801561041e57600080fd5b5061027961042d366004612938565b610ae3565b34801561043e57600080fd5b50610393610b4b565b34801561045357600080fd5b50604051601281526020016102b3565b34801561046f57600080fd5b506102a96801bc16d674ec80000081565b34801561048c57600080fd5b506102a961049b36600461291b565b610b55565b3480156104ac57600080fd5b50610393610b68565b3480156104c157600080fd5b506102a9606081565b3480156104d657600080fd5b506102a9610b72565b3480156104eb57600080fd5b506102796104fa36600461291b565b610b7c565b34801561050b57600080fd5b50610393610bc0565b34801561052057600080fd5b506102a961052f36600461291b565b610bca565b34801561054057600080fd5b506102a961054f366004612938565b610bd5565b34801561056057600080fd5b50610279610be0565b34801561057557600080fd5b5061027961058436600461291b565b610c30565b34801561059557600080fd5b506102796105a43660046129a6565b610c74565b3480156105b557600080fd5b50610393610dc6565b3480156105ca57600080fd5b506102a9610dd0565b3480156105df57600080fd5b506040805180820190915260058152640d8e68aa8960db1b60208201526102ec565b34801561060d57600080fd5b506102a9610dda565b34801561062257600080fd5b506103196106313660046128ef565b610de4565b61027961064436600461291b565b610e53565b34801561065557600080fd5b506102a9603081565b34801561066a57600080fd5b50610393610e5c565b610279610e66565b34801561068757600080fd5b50610279610696366004612938565b610e6f565b3480156106a757600080fd5b506102a96106b63660046129d2565b610ed7565b3480156106c757600080fd5b506102a9620186a081565b610279610eea565b3480156106e657600080fd5b506102796106f536600461291b565b610f25565b34801561070657600080fd5b5061027961071536600461291b565b610f69565b34801561072657600080fd5b506102a9610735366004612938565b610fad565b34801561074657600080fd5b50610279610755366004612a0b565b610fb8565b34610778576040516395b66fe960e01b815260040160405180910390fd5b61078333823461108c565b6040513481526001600160a01b0382169033907f3bc57f469ad6d10d7723ea226cd22bd2b9e527def2b529f6ab44645a166895829060200160405180910390a350565b60006107d0611208565b905090565b60006107e233848461123c565b6040518281526001600160a01b0384169033907f8c5be1e5ebec7d5bd14f71427d1e84f3dd0314c0f7b2291e5b200ac8c7c3b9259060200160405180910390a35060015b92915050565b610834611293565b6001600160a01b0316336001600160a01b031614610870573360405163472511eb60e11b81526004016108679190612951565b60405180910390fd5b6108798161129d565b50565b600061089a6108946801bc16d674ec80000047612ad6565b836112d0565b9050806108ba57604051631036b5ad60e31b815260040160405180910390fd5b6000806108c6836112e5565b81519193509150806108eb5760405163200149ad60e21b815260040160405180910390fd5b8381111561090c57604051635993bd5760e01b815260040160405180910390fd5b815181811461092e576040516322e5ce4360e21b815260040160405180910390fd5b600061093861136d565b90508061095857604051639be7315960e01b815260040160405180910390fd5b60005b838110156109a8576109a086828151811061097857610978612af8565b602002602001015186838151811061099257610992612af8565b60200260200101518461139d565b60010161095b565b506109c4836109b5611821565b6109bf9190612b0e565b611851565b50505050505050565b60006107d061187f565b60006107d0611293565b60006107d06118eb565b60006107d06118f5565b60008383610a038282611925565b8380610a22576040516336b216db60e21b815260040160405180910390fd5b868580610a2e836119f5565b1015610a4d576040516351940b3960e11b815260040160405180910390fd5b6001600160a01b0389163314610ac1576000610a698a33611a00565b905087811015610aab57604051637b936de360e01b81526001600160a01b038b1660048201523360248201526044810182905260648101899052608401610867565b610abf8a33610aba8b85612b26565b61123c565b505b610acc898989611a58565b9998505050505050505050565b60006107d0611ae6565b610aeb611293565b6001600160a01b0316336001600160a01b031614610b1e573360405163472511eb60e11b81526004016108679190612951565b620186a0811115610b425760405163a9cb9e0d60e01b815260040160405180910390fd5b61087981611b16565b60006107d0611b44565b6000610826610b6383611b74565b611bc2565b60006107d0611bfa565b60006107d061136d565b610b84611293565b6001600160a01b0316336001600160a01b031614610bb7573360405163472511eb60e11b81526004016108679190612951565b61087981611c2a565b60006107d0611c7f565b6000610826826119f5565b600061082682611c89565b610be8611c7f565b6001600160a01b0316336001600160a01b031614610c1b573360405163472511eb60e11b81526004016108679190612951565b610c2433611cb6565b610c2e6000611cbf565b565b610c38611293565b6001600160a01b0316336001600160a01b031614610c6b573360405163472511eb60e11b81526004016108679190612951565b61087981611cc8565b610c7c611d1d565b6001600160a01b0316336001600160a01b031614610caf573360405163472511eb60e11b81526004016108679190612951565b610cb7611821565b831115610ce95782610cc7611821565b6040516376179ac560e01b815260048101929092526024820152604401610867565b6000610cf3611d4d565b610cfd9085612b26565b90506000610d14826801bc16d674ec800000612b3d565b610d1c611ae6565b610d269190612b0e565b9050610d3184611d7d565b610d3a85611dab565b610d4383611dd9565b6000610d4d611e07565b9050610d598186612b0e565b821015610d7d57610d7d82610d6e8388612b0e565b610d789190612b26565b611ed2565b60408051878152602081018790529081018590527f98e488f5118fc11ab540716c2afc4e440c0a892d27a4efef33db94b4f9da65899060600160405180910390a1505050505050565b60006107d0611d1d565b60006107d0611821565b60006107d0611d4d565b60003383610df28282611925565b8380610e11576040516336b216db60e21b815260040160405180910390fd5b338580610e1d836119f5565b1015610e3c576040516351940b3960e11b815260040160405180910390fd5b610e47338989611a58565b98975050505050505050565b6108798161075a565b60006107d0611fc0565b610c2e3361075a565b610e77611293565b6001600160a01b0316336001600160a01b031614610eaa573360405163472511eb60e11b81526004016108679190612951565b620186a0811115610ece5760405163a9cb9e0d60e01b815260040160405180910390fd5b61087981611ff0565b6000610ee38383611a00565b9392505050565b610ef2611b44565b6001600160a01b0316336001600160a01b031614610c2e573360405163472511eb60e11b81526004016108679190612951565b610f2d611293565b6001600160a01b0316336001600160a01b031614610f60573360405163472511eb60e11b81526004016108679190612951565b6108798161201e565b610f71611293565b6001600160a01b0316336001600160a01b031614610fa4573360405163472511eb60e11b81526004016108679190612951565b61087981611cbf565b600061082682611bc2565b6000610fc2612073565b8114610ff35780610fd1612073565b604051631cfd276760e31b815260048101929092526024820152604401610867565b611006611001826001612b0e565b6120a3565b6001600160a01b03871661102d5760405163f6b2911f60e01b815260040160405180910390fd5b61103687611cb6565b61103f8461201e565b61104883611b16565b61105182611ff0565b61105a8a61129d565b6110648b8a6120d1565b61106d88610c6b565b61107686611c2a565b61107f856120e7565b5050505050505050505050565b6000611098848361213c565b9050826001600160a01b0316846001600160a01b0316141561111f576110bc611fc0565b6001600160a01b0316635a4091028560016040518363ffffffff1660e01b81526004016110ea929190612b5c565b60006040518083038186803b15801561110257600080fd5b505afa158015611116573d6000803e3d6000fd5b50505050611202565b611127611fc0565b6001600160a01b0316635a4091028561114260006001612b0e565b6040518363ffffffff1660e01b815260040161115f929190612b5c565b60006040518083038186803b15801561117757600080fd5b505afa15801561118b573d6000803e3d6000fd5b50505050611197611fc0565b6001600160a01b0316635a4091028460006040518363ffffffff1660e01b81526004016111c5929190612b5c565b60006040518083038186803b1580156111dd57600080fd5b505afa1580156111f1573d6000803e3d6000fd5b50505050611200848483611a58565b505b50505050565b60006107d061123860017f8b296ea79529153bb5bae302cb8c44db7ed739099e80c9f19feb68f6a43578a8612b26565b5490565b600061126960017fc852254d5b703a16bb13b3e233a335d6459c5da5db0ca732d7a684ee05407847612b26565b6001600160a01b039485166000908152602091825260408082209590961681529390525091902055565b60006107d06121a0565b6108796112cb60017f8e9e2a1d30fed357d8a000c1131fc77ed65d2052918caf1ccc6eb1e7af3d13b6612b26565b829055565b60008183116112df5782610ee3565b50919050565b6060806112f06121d0565b6001600160a01b031663a1947323846040518263ffffffff1660e01b815260040161131d91815260200190565b6000604051808303816000875af115801561133c573d6000803e3d6000fd5b505050506040513d6000823e601f3d908101601f191682016040526113649190810190612cf9565b91509150915091565b60006107d061123860017fb649e50315f962b32d487e696a81b4828631b11f8424daaaa37e9e97766a2c42612b26565b60308351146113bf5760405163050cb55360e41b815260040160405180910390fd5b60608251146113e15760405163408ebd3960e01b815260040160405180910390fd5b6801bc16d674ec80000060006113fb633b9aca0083612ad6565b90506000600261140a87612200565b6040516114179190612d5c565b602060405180830381855afa158015611434573d6000803e3d6000fd5b5050506040513d601f19601f820116820180604052508101906114579190612d78565b9050600060028061146b8860006040612289565b6040516114789190612d5c565b602060405180830381855afa158015611495573d6000803e3d6000fd5b5050506040513d601f19601f820116820180604052508101906114b89190612d78565b60026114d86114d38a60406114ce816060612b26565b612289565b612200565b6040516114e59190612d5c565b602060405180830381855afa158015611502573d6000803e3d6000fd5b5050506040513d601f19601f820116820180604052508101906115259190612d78565b60408051602081019390935282015260600160408051601f198184030181529082905261155191612d5c565b602060405180830381855afa15801561156e573d6000803e3d6000fd5b5050506040513d601f19601f820116820180604052508101906115919190612d78565b9050600060028084886040516020016115b4929190918252602082015260400190565b60408051601f19818403018152908290526115ce91612d5c565b602060405180830381855afa1580156115eb573d6000803e3d6000fd5b5050506040513d601f19601f8201168201806040525081019061160e9190612d78565b600261161987612396565b604080516020810192909252810186905260600160408051601f198184030181529082905261164791612d5c565b602060405180830381855afa158015611664573d6000803e3d6000fd5b5050506040513d601f19601f820116820180604052508101906116879190612d78565b60408051602081019390935282015260600160408051601f19818403018152908290526116b391612d5c565b602060405180830381855afa1580156116d0573d6000803e3d6000fd5b5050506040513d601f19601f820116820180604052508101906116f39190612d78565b905060006117018647612b26565b905061170b6123d4565b6001600160a01b03166322895118878b8a60405160200161172e91815260200190565b6040516020818303038152906040528c876040518663ffffffff1660e01b815260040161175e9493929190612d91565b6000604051808303818588803b15801561177757600080fd5b505af115801561178b573d6000803e3d6000fd5b50505050508047146117df5760405162461bcd60e51b815260206004820152601b60248201527f455850454354494e475f4445504f5349545f544f5f48415050454e00000000006044820152606401610867565b7f11553d182c6d24df901ccbb837d640c1ee9994876a88dccc8ddfd7ebab9b6ce18960405161180e91906128c7565b60405180910390a1505050505050505050565b60006107d061123860017fc77078e3530c08cdb2440817c81de4836500b4708ea4d15672b7fe98956423a8612b26565b6108796112cb60017fc77078e3530c08cdb2440817c81de4836500b4708ea4d15672b7fe98956423a8612b26565b60008061188a611d4d565b90506000611896611821565b9050808210156118e2576801bc16d674ec8000006118b48383612b26565b6118be9190612b3d565b476118c7611ae6565b6118d19190612b0e565b6118db9190612b0e565b9250505090565b476118d1611ae6565b60006107d0612404565b60006107d061123860017f094efef62d2ce60c14ffacd35a1b50546d3a9d503aff1df040176fffd6c92a37612b26565b61192d611fc0565b6001600160a01b0316635a4091028360006040518363ffffffff1660e01b815260040161195b929190612b5c565b60006040518083038186803b15801561197357600080fd5b505afa158015611987573d6000803e3d6000fd5b50505050611993611fc0565b6001600160a01b0316635a4091028260006040518363ffffffff1660e01b81526004016119c1929190612b5c565b60006040518083038186803b1580156119d957600080fd5b505afa1580156119ed573d6000803e3d6000fd5b505050505050565b600061082682611b74565b600080611a2e60017fc852254d5b703a16bb13b3e233a335d6459c5da5db0ca732d7a684ee05407847612b26565b6001600160a01b039485166000908152602091825260408082209590961681529390525050205490565b6000611a778483611a6887611b74565b611a729190612b26565b612434565b611a8f8383611a8586611b74565b611a729190612b0e565b826001600160a01b0316846001600160a01b03167fddf252ad1be2c89b69c2b068fc378daa952ba7f163c4a11628f55a4df523b3ef84604051611ad491815260200190565b60405180910390a35060019392505050565b60006107d061123860017f42b27da24a254372d1e7ea692a34d85d9237abb39a65153affece1e2f1e60900612b26565b6108796112cb60017f094efef62d2ce60c14ffacd35a1b50546d3a9d503aff1df040176fffd6c92a37612b26565b60006107d061123860017f8e9e2a1d30fed357d8a000c1131fc77ed65d2052918caf1ccc6eb1e7af3d13b6612b26565b600080611ba260017f0fb4a5ac9287f4f508aa7253ee2d57c6a228b1b30e210d73fffd59389d3a8838612b26565b6001600160a01b0390931660009081526020939093525050604090205490565b600080611bcd612404565b905080611bdd5750600092915050565b80611be661187f565b611bf09085612b3d565b610ee39190612ad6565b60006107d061123860017faa490d1834c76465b09f09618af9f91fbbd04c30f1f453b24b1e8f907c9e1fa3612b26565b6001600160a01b038116611c515760405163f6b2911f60e01b815260040160405180910390fd5b6108796112cb60017f867d8f1a5e39d11d5bebde854d5359a509530ad32450f581da63c06ec8d1a780612b26565b60006107d0612480565b600080611c94612404565b905080611ca45750600092915050565b611cac61187f565b611bf08285612b3d565b610879816124b0565b610879816124de565b6001600160a01b038116611cef5760405163f6b2911f60e01b815260040160405180910390fd5b6108796112cb60017fc8cbea9407c380ae944f052b5a442330057683c5abdbd453493f9750806afecb612b26565b60006107d061123860017fc8cbea9407c380ae944f052b5a442330057683c5abdbd453493f9750806afecb612b26565b60006107d061123860017f6929b6137e885d965ed089510659a629a29a4a54f85c28286fa5e0d7dcf27a37612b26565b6108796112cb60017f42b27da24a254372d1e7ea692a34d85d9237abb39a65153affece1e2f1e60900612b26565b6108796112cb60017f6929b6137e885d965ed089510659a629a29a4a54f85c28286fa5e0d7dcf27a37612b26565b6108796112cb60017fd7f2d45e512a86049f7a113657b39731b6b558609584243063a52cd31a8eb529612b26565b600080611e12611b44565b90506001600160a01b038116611e2a57600091505090565b6000479050816001600160a01b0316637b4b81826040518163ffffffff1660e01b8152600401600060405180830381600087803b158015611e6a57600080fd5b505af1158015611e7e573d6000803e3d6000fd5b5050505060008147611e909190612b26565b90507fda841d3042d792e2509a333b9dcbd4b3dd9b9047d382011f8788fab90ca7e3c781604051611ec391815260200190565b60405180910390a19392505050565b6000611edc6118eb565b905080611efc57604051630d35acd760e21b815260040160405180910390fd5b6000611f066118f5565b9050600081611f158486612b3d565b611f1f9190612b3d565b90506000611f2d8386612b3d565b620186a0611f3961187f565b611f439190612b3d565b611f4d9190612b26565b905060008115611f6657611f618284612ad6565b611f69565b60005b90506000620186a0611f79611208565b611f839084612b3d565b611f8d9190612ad6565b90506000611f9a8261250c565b9050611fb6611fa7611bfa565b611fb18386612b26565b6126d3565b5050505050505050565b60006107d061123860017f867d8f1a5e39d11d5bebde854d5359a509530ad32450f581da63c06ec8d1a780612b26565b6108796112cb60017f8b296ea79529153bb5bae302cb8c44db7ed739099e80c9f19feb68f6a43578a8612b26565b6001600160a01b0381166120455760405163f6b2911f60e01b815260040160405180910390fd5b6108796112cb60017faa490d1834c76465b09f09618af9f91fbbd04c30f1f453b24b1e8f907c9e1fa3612b26565b60006107d061123860017f82055909238c0f5e63d6f174068ebb8f51bcec9bd37de63bb68f6551feec0cfd612b26565b6108796112cb60017f82055909238c0f5e63d6f174068ebb8f51bcec9bd37de63bb68f6551feec0cfd612b26565b6120da82612741565b6120e381612796565b5050565b6001600160a01b03811661210e5760405163f6b2911f60e01b815260040160405180910390fd5b6108796112cb60017f3f075dea7ef99b1e5db245018e5e4ed8d2a0d93953f5932b2176bef59bd69061612b26565b6000808261214861187f565b6121529190612b26565b90508061216c5761216384846126d3565b82915050610826565b6000816121776118eb565b6121819086612b3d565b61218b9190612ad6565b905061219785826126d3565b91506108269050565b60006107d061123860017fb5b37715a3e346e996104f0086703f19825def429233930fd9399c38e05fb113612b26565b60006107d061123860017f3f075dea7ef99b1e5db245018e5e4ed8d2a0d93953f5932b2176bef59bd69061612b26565b6060602082511015801561221657506040825111155b61222257612222612ddc565b815160401415612230575090565b6040805160208082528183019092526000916020820181803683370190505090506000602082015282516020141561226c57610ee383826127c4565b610ee383612284836000875160406114ce9190612b26565b6127c4565b60608161229781601f612b0e565b10156122d65760405162461bcd60e51b815260206004820152600e60248201526d736c6963655f6f766572666c6f7760901b6044820152606401610867565b6122e08284612b0e565b845110156123245760405162461bcd60e51b8152602060048201526011602482015270736c6963655f6f75744f66426f756e647360781b6044820152606401610867565b606082158015612343576040519150600082526020820160405261238d565b6040519150601f8416801560200281840101858101878315602002848b0101015b8183101561237c578051835260209283019201612364565b5050858452601f01601f1916604052505b50949350505050565b600081815b60088110156123bc57600892831b60ff831617929190911c9060010161239b565b5080156123cb576123cb612ddc565b5060c01b919050565b60006107d061123860017f35efb61d8784060218d9d6aa40eae55904de43779c1afc79c74dfefcfdf91260612b26565b60006107d061123860017f6b842b424335d94ccad97e54548dfa02673c1268aba38d3c3c32d28c8988b70b612b26565b600061246160017f0fb4a5ac9287f4f508aa7253ee2d57c6a228b1b30e210d73fffd59389d3a8838612b26565b6001600160a01b03909316600090815260209390935250604090912055565b60006107d061123860017f6e6ab8b7c7aaba79eef8cc633522d606bb008c101cf9832c9ad05d10a9847281612b26565b6108796112cb60017fb5b37715a3e346e996104f0086703f19825def429233930fd9399c38e05fb113612b26565b6108796112cb60017f6e6ab8b7c7aaba79eef8cc633522d606bb008c101cf9832c9ad05d10a9847281612b26565b6000806125176121d0565b6001600160a01b0316638cb310036040518163ffffffff1660e01b8152600401600060405180830381865afa158015612554573d6000803e3d6000fd5b505050506040513d6000823e601f3d908101601f1916820160405261257c9190810190612e32565b9050600081516001600160401b0381111561259957612599612b75565b6040519080825280602002602001820160405280156125c2578160200160208202803683370190505b5090506000805b835181101561264f5760008482815181106125e6576125e6612af8565b602002602001015160e0015185838151811061260457612604612af8565b602002602001015160a0015161261a9190612b26565b90506126268184612b0e565b92508084838151811061263b5761263b612af8565b6020908102919091010152506001016125c9565b5080156126c55760006126628287612ad6565b905060005b83518110156126be576126b685828151811061268557612685612af8565b602002602001015160600151838684815181106126a4576126a4612af8565b6020026020010151611fb19190612b3d565b600101612667565b50506126ca565b600094505b50929392505050565b6126ee816126df612404565b6126e99190612b0e565b612841565b6126fc8282611a8585611b74565b6040518181526001600160a01b038316906000907fddf252ad1be2c89b69c2b068fc378daa952ba7f163c4a11628f55a4df523b3ef9060200160405180910390a35050565b6001600160a01b0381166127685760405163f6b2911f60e01b815260040160405180910390fd5b6108796112cb60017f35efb61d8784060218d9d6aa40eae55904de43779c1afc79c74dfefcfdf91260612b26565b6108796112cb60017fb649e50315f962b32d487e696a81b4828631b11f8424daaaa37e9e97766a2c42612b26565b6060806040519050835180825260208201818101602087015b818310156127f55780518352602092830192016127dd565b50855184518101855292509050808201602086015b8183101561282257805183526020928301920161280a565b508651929092011591909101601f01601f191660405250905092915050565b6108796112cb60017f6b842b424335d94ccad97e54548dfa02673c1268aba38d3c3c32d28c8988b70b612b26565b60005b8381101561288a578181015183820152602001612872565b838111156112025750506000910152565b600081518084526128b381602086016020860161286f565b601f01601f19169290920160200192915050565b602081526000610ee3602083018461289b565b6001600160a01b038116811461087957600080fd5b6000806040838503121561290257600080fd5b823561290d816128da565b946020939093013593505050565b60006020828403121561292d57600080fd5b8135610ee3816128da565b60006020828403121561294a57600080fd5b5035919050565b6001600160a01b0391909116815260200190565b60008060006060848603121561297a57600080fd5b8335612985816128da565b92506020840135612995816128da565b929592945050506040919091013590565b6000806000606084860312156129bb57600080fd5b505081359360208301359350604090920135919050565b600080604083850312156129e557600080fd5b82356129f0816128da565b91506020830135612a00816128da565b809150509250929050565b6000806000806000806000806000806101408b8d031215612a2b57600080fd5b8a35612a36816128da565b995060208b0135612a46816128da565b985060408b0135975060608b0135612a5d816128da565b965060808b0135612a6d816128da565b955060a08b0135612a7d816128da565b945060c08b0135612a8d816128da565b935060e08b0135612a9d816128da565b809350506101008b013591506101208b013590509295989b9194979a5092959850565b634e487b7160e01b600052601160045260246000fd5b600082612af357634e487b7160e01b600052601260045260246000fd5b500490565b634e487b7160e01b600052603260045260246000fd5b60008219821115612b2157612b21612ac0565b500190565b600082821015612b3857612b38612ac0565b500390565b6000816000190483118215151615612b5757612b57612ac0565b500290565b6001600160a01b03929092168252602082015260400190565b634e487b7160e01b600052604160045260246000fd5b60405161010081016001600160401b0381118282101715612bae57612bae612b75565b60405290565b604051601f8201601f191681016001600160401b0381118282101715612bdc57612bdc612b75565b604052919050565b60006001600160401b03821115612bfd57612bfd612b75565b5060051b60200190565b60006001600160401b03831115612c2057612c20612b75565b612c33601f8401601f1916602001612bb4565b9050828152838383011115612c4757600080fd5b610ee383602083018461286f565b600082601f830112612c6657600080fd5b81516020612c7b612c7683612be4565b612bb4565b82815260059290921b84018101918181019086841115612c9a57600080fd5b8286015b84811015612cee5780516001600160401b03811115612cbd5760008081fd5b8701603f81018913612ccf5760008081fd5b612ce0898683015160408401612c07565b845250918301918301612c9e565b509695505050505050565b60008060408385031215612d0c57600080fd5b82516001600160401b0380821115612d2357600080fd5b612d2f86838701612c55565b93506020850151915080821115612d4557600080fd5b50612d5285828601612c55565b9150509250929050565b60008251612d6e81846020870161286f565b9190910192915050565b600060208284031215612d8a57600080fd5b5051919050565b608081526000612da4608083018761289b565b8281036020840152612db6818761289b565b90508281036040840152612dca818661289b565b91505082606083015295945050505050565b634e487b7160e01b600052600160045260246000fd5b80518015158114612e0257600080fd5b919050565b600082601f830112612e1857600080fd5b610ee383835160208501612c07565b8051612e02816128da565b60006020808385031215612e4557600080fd5b82516001600160401b0380821115612e5c57600080fd5b818501915085601f830112612e7057600080fd5b8151612e7e612c7682612be4565b81815260059190911b83018401908481019088831115612e9d57600080fd5b8585015b83811015612f6f57805185811115612eb95760008081fd5b8601610100818c03601f1901811315612ed25760008081fd5b612eda612b8b565b612ee58a8401612df2565b815260408084015189811115612efb5760008081fd5b612f098f8d83880101612e07565b8c840152506060612f1b818601612e27565b8284015260809150612f2e828601612e27565b9083015260a0848101519183019190915260c0808501519183019190915260e080850151918301919091529190920151908201528352918601918601612ea1565b509897505050505050505056fea2646970667358221220355dd8f76eb70b5ecf06bd71ceff081fc27c755b405f869ec8ed6a8cc5f55fe764736f6c634300080a0033",
  "devdoc": {
    "author": "Kiln",
    "kind": "dev",
    "methods": {
      "approve(address,uint256)": {
        "details": "An approved account can use transferFrom to transfer funds on behalf of the token owner",
        "params": {
          "_spender": "Address that is allowed to spend the tokens",
          "_value": "The allowed amount, will override previous value"
        }
      },
      "balanceOf(address)": {
        "params": {
          "_owner": "Address to be checked"
        }
      },
      "balanceOfUnderlying(address)": {
        "params": {
          "_owner": "Address to be checked"
        }
      },
      "depositAndTransfer(address)": {
        "params": {
          "_recipient": "Address receiving the minted lsETH"
        }
      },
      "depositToConsensusLayer(uint256)": {
        "params": {
          "_maxCount": "The maximum amount of validator keys to fund"
        }
      },
      "initRiverV1(address,address,bytes32,address,address,address,address,address,uint256,uint256)": {
        "params": {
          "_allowlistAddress": "Address of the allowlist contract",
          "_depositContractAddress": "Address to make Consensus Layer deposits",
          "_elFeeRecipientAddress": "Address that receives the execution layer fees",
          "_globalFee": "Amount retained when the eth balance increases, splitted between the treasury and the operators",
          "_operatorRegistryAddress": "Address of the operator registry",
          "_operatorRewardsShare": "Share of the global fee used to reward node operators",
          "_systemAdministratorAddress": "Administrator address",
          "_treasuryAddress": "Address receiving the fee minus the operator share",
          "_withdrawalCredentials": "Credentials to use for every validator deposit"
        }
      },
      "setAllowlist(address)": {
        "params": {
          "_newAllowlist": "New address for the allowlist"
        }
      },
      "setBeaconData(uint256,uint256,bytes32)": {
        "details": "Can only be called by the oracle address",
        "params": {
          "_roundId": "An identifier for this update",
          "_validatorBalanceSum": "The validator balance sum of the active validators on the consensus layer",
          "_validatorCount": "The number of active validators on the consensus layer"
        }
      },
      "setELFeeRecipient(address)": {
        "params": {
          "_newELFeeRecipient": "New address for the recipient"
        }
      },
      "setGlobalFee(uint256)": {
        "params": {
          "newFee": "New fee value"
        }
      },
      "setOperatorRewardsShare(uint256)": {
        "params": {
          "newOperatorRewardsShare": "New share value"
        }
      },
      "setOracle(address)": {
        "params": {
          "_oracleAddress": "Address of the oracle"
        }
      },
      "setTreasury(address)": {
        "params": {
          "_newTreasury": "New address for the treasury"
        }
      },
      "transfer(address,uint256)": {
        "params": {
          "_to": "Address receiving the tokens",
          "_value": "Amount to be sent"
        }
      },
      "transferFrom(address,address,uint256)": {
        "details": "If the specified _from argument is the message sender, behaves like a regular transferIf the specified _from argument is not the message sender, checks that the message sender has been given enough allowance",
        "params": {
          "_from": "Address sending the tokens",
          "_to": "Address receiving the tokens",
          "_value": "Amount to be sent"
        }
      },
      "transferOwnership(address)": {
        "params": {
          "_newAdmin": "New address for the admin"
        }
      }
    },
    "title": "River (v1)",
    "version": 1
  },
  "userdoc": {
    "kind": "user",
    "methods": {
      "acceptOwnership()": {
        "notice": "Accepts the ownership of the system"
      },
      "allowance(address,address)": {
        "notice": "Retrieve the allowance value for a spender_owner Address that issued the allowance_spender Address that received the allowance"
      },
      "approve(address,uint256)": {
        "notice": "Approves an account for future spendings"
      },
      "balanceOf(address)": {
        "notice": "Retrieve the balance of an account"
      },
      "balanceOfUnderlying(address)": {
        "notice": "Retrieve the underlying asset balance of an account"
      },
      "decimals()": {
        "notice": "Retrieve the decimal count"
      },
      "deposit()": {
        "notice": "Explicit deposit method to mint on msg.sender"
      },
      "depositAndTransfer(address)": {
        "notice": "Explicit deposit method to mint on msg.sender and transfer to _recipient"
      },
      "depositToConsensusLayer(uint256)": {
        "notice": "Deposits current balance to the Consensus Layer by batches of 32 ETH"
      },
      "getAdministrator()": {
        "notice": "Retrieve system administrator address"
      },
      "getAllowlist()": {
        "notice": "Retrieve the allowlist address"
      },
      "getBeaconValidatorBalanceSum()": {
        "notice": "Get Beacon validator balance sum"
      },
      "getBeaconValidatorCount()": {
        "notice": "Get Beacon validator count (the amount of validator reported by the oracles)"
      },
      "getDepositedValidatorCount()": {
        "notice": "Get the deposited validator count (the count of deposits made by the contract)"
      },
      "getELFeeRecipient()": {
        "notice": "Retrieve the execution layer fee recipient"
      },
      "getGlobalFee()": {
        "notice": "Get the current global fee"
      },
      "getOperatorRewardsShare()": {
        "notice": "Get the current operator rewards share"
      },
      "getOracle()": {
        "notice": "Get Oracle address"
      },
      "getPendingAdministrator()": {
        "notice": "Retrieve system pending administrator address"
      },
      "getPendingEth()": {
        "notice": "Returns the amount of pending ETH"
      },
      "getTreasury()": {
        "notice": "Retrieve the treasury address"
      },
      "getWithdrawalCredentials()": {
        "notice": "Retrieve the withdrawal credentials"
      },
      "initRiverV1(address,address,bytes32,address,address,address,address,address,uint256,uint256)": {
        "notice": "Initializes the River system"
      },
      "name()": {
        "notice": "Retrieve the token name"
      },
      "sendELFees()": {
        "notice": "Input for execution layer fee earnings"
      },
      "setAllowlist(address)": {
        "notice": "Changes the allowlist address"
      },
      "setBeaconData(uint256,uint256,bytes32)": {
        "notice": "Sets the validator count and validator balance sum reported by the oracle"
      },
      "setELFeeRecipient(address)": {
        "notice": "Changes the execution layer fee recipient"
      },
      "setGlobalFee(uint256)": {
        "notice": "Changes the global fee parameter"
      },
      "setOperatorRewardsShare(uint256)": {
        "notice": "Changes the operator rewards share."
      },
      "setOracle(address)": {
        "notice": "Set Oracle address"
      },
      "setTreasury(address)": {
        "notice": "Changes the treasury address"
      },
      "symbol()": {
        "notice": "Retrieve the token symbol"
      },
      "totalSupply()": {
        "notice": "Retrieve the total token supply"
      },
      "totalUnderlyingSupply()": {
        "notice": "Retrieve the total underlying asset supply"
      },
      "transfer(address,uint256)": {
        "notice": "Performs a transfer from the message sender to the provided account"
      },
      "transferFrom(address,address,uint256)": {
        "notice": "Performs a transfer between two recipients"
      },
      "transferOwnership(address)": {
        "notice": "Changes the admin but waits for new admin approval"
      }
    },
    "notice": "This contract merges all the manager contracts and implements all the virtual methods stitching all components together",
    "version": 1
  },
  "storageLayout": {
    "storage": [],
    "types": null
  }
}