{
  "address": "0x745fe1d711A79D1e4B6000189352A2DbeF3a8611",
  "abi": [
    {
      "inputs": [
        {
          "internalType": "uint256",
          "name": "i",
          "type": "uint256"
        }
      ],
      "name": "CliffTooLong",
      "type": "error"
    },
    {
      "inputs": [
        {
          "internalType": "uint256",
          "name": "index",
          "type": "uint256"
        }
      ],
      "name": "VestingScheduleNotFound",
      "type": "error"
    },
    {
      "inputs": [
        {
          "internalType": "uint256",
          "name": "i",
          "type": "uint256"
        }
      ],
      "name": "WrongEnd",
      "type": "error"
    },
    {
      "inputs": [
        {
          "internalType": "uint256",
          "name": "i",
          "type": "uint256"
        }
      ],
      "name": "WrongUnlockDate",
      "type": "error"
    },
    {
      "inputs": [],
      "name": "migrate",
      "outputs": [],
      "stateMutability": "nonpayable",
      "type": "function"
    }
  ],
  "transactionHash": "0xeaa940e5ef765dc733e850d4ed67de9877f3cea8dbe6108e015ce281c9c1d7f8",
  "args": [],
  "numDeployments": 2,
  "solcInputHash": "7a7ee2ce31e910a20ebeaa44b02066a2",
  "bytecode": "0x608060405234801561001057600080fd5b50611268806100206000396000f3fe608060405234801561001057600080fd5b506004361061002b5760003560e01c80638fd3ab8014610030575b600080fd5b61003861003a565b005b60408051601e8082526103e08201909252600091816020015b604080516101008101825260008082526020808301829052928201819052606082018190526080820181905260a0820181905260c0820181905260e08201528252600019909201910181610053575050604080516101008101825260078152630484338060208201526000918101829052606081018290526080810182905260a0810182905260c0810182905260e081018290528251929350918391906100fc576100fc611191565b6020026020010181905250604051806101000160405280600160ff168152602001630431250063ffffffff16815260200160006001600160401b0316815260200160006001600160401b03168152602001600015158152602001600015158152602001600015158152602001600015158152508160018151811061018257610182611191565b6020908102919091018101919091526040805161010081018252600181526303e75100928101929092526000908201819052606082018190526080820181905260a0820181905260c0820181905260e08201528151829060029081106101ea576101ea611191565b602090810291909101810191909152604080516101008101825260048152630450c9009281019290925260009082018190526362bf8a80606083015260016080830181905260a0830181905260c083015260e082015281518290600390811061025557610255611191565b6020908102919091018101919091526040805161010081018252600181526303ff0c00928101929092526000908201819052606082018190526080820181905260a0820181905260c0820181905260e08201528151829060049081106102bd576102bd611191565b60209081029190910181019190915260408051610100810182526001815263035e3500928101929092526000908201819052606082018190526080820181905260a0820181905260c0820181905260e082015281518290600590811061032557610325611191565b6020908102919091018101919091526040805161010081018252600181526303789300928101929092526000908201819052606082018190526080820181905260a0820181905260c0820181905260e082015281518290600690811061038d5761038d611191565b6020908102919091018101919091526040805161010081018252600181526303749e80928101929092526000908201819052606082018190526080820181905260a0820181905260c0820181905260e08201528151829060079081106103f5576103f5611191565b6020026020010181905250604051806101000160405280600160ff168152602001630334050063ffffffff16815260200160006001600160401b0316815260200160006001600160401b03168152602001600015158152602001600015158152602001600015158152602001600115158152508160088151811061047b5761047b611191565b6020908102919091018101919091526040805161010081018252600181526304843380928101929092526000908201819052606082018190526080820181905260a0820181905260c0820181905260e08201528151829060099081106104e3576104e3611191565b6020908102919091018101919091526040805161010081018252600181526302f2ecf0928101929092526000908201819052606082018190526080820181905260a0820181905260c0820181905260e082015281518290600a90811061054b5761054b611191565b6020908102919091018101919091526040805161010081018252600181526304843380928101929092526000908201819052606082018190526080820181905260a0820181905260c0820181905260e082015281518290600b9081106105b3576105b3611191565b6020908102919091018101919091526040805161010081018252600181526302f2ecf0928101929092526000908201819052606082018190526080820181905260a0820181905260c0820181905260e082015281518290600c90811061061b5761061b611191565b6020908102919091018101919091526040805161010081018252600181526304843380928101929092526000908201819052606082018190526080820181905260a0820181905260c0820181905260e082015281518290600d90811061068357610683611191565b6020908102919091018101919091526040805161010081018252600181526302f2ecf0928101929092526000908201819052606082018190526080820181905260a0820181905260c0820181905260e082015281518290600e9081106106eb576106eb611191565b6020908102919091018101919091526040805161010081018252600381526304843380928101929092526000908201819052606082018190526080820181905260a0820181905260c0820181905260e082015281518290600f90811061075357610753611191565b6020908102919091018101919091526040805161010081018252600181526304312500928101929092526000908201819052606082018190526080820181905260a0820181905260c0820181905260e08201528151829060109081106107bb576107bb611191565b6020908102919091018101919091526040805161010081018252600281526303009a80928101929092526000908201819052606082018190526080820181905260a0820181905260c0820181905260e082015281518290601190811061082357610823611191565b6020026020010181905250604051806101000160405280600160ff168152602001630305e08063ffffffff16815260200160006001600160401b0316815260200160006001600160401b0316815260200160001515815260200160001515815260200160001515815260200160011515815250816012815181106108a9576108a9611191565b6020026020010181905250604051806101000160405280600160ff168152602001630307320063ffffffff16815260200160006001600160401b0316815260200160006001600160401b03168152602001600015158152602001600015158152602001600015158152602001600115158152508160138151811061092f5761092f611191565b6020026020010181905250604051806101000160405280600160ff168152602001630308838063ffffffff16815260200160006001600160401b0316815260200160006001600160401b0316815260200160001515815260200160001515815260200160001515815260200160011515815250816014815181106109b5576109b5611191565b6020026020010181905250604051806101000160405280600160ff168152602001630305e08063ffffffff16815260200160006001600160401b0316815260200160006001600160401b031681526020016000151581526020016000151581526020016000151581526020016001151581525081601581518110610a3b57610a3b611191565b6020908102919091018101919091526040805161010081018252600281526303088380928101929092526000908201819052606082018190526080820181905260a0820181905260c0820152600160e0820152815182906016908110610aa357610aa3611191565b60209081029190910181019190915260408051610100810182526019815263028e042092810192909252636480fde0908201526364824f606060820152600060808201819052600160a0830181905260c083015260e0820152815182906017908110610b1157610b11611191565b602090810291909101810191909152604080516101008101825260018152630270e700928101929092526000908201819052606082018190526080820181905260a0820181905260c0820181905260e0820152815182906018908110610b7957610b79611191565b6020908102919091018101919091526040805161010081018252600181526302e78e00928101929092526000908201819052606082018190526080820181905260a0820181905260c0820181905260e0820152815182906019908110610be157610be1611191565b6020026020010181905250604051806101000160405280600160ff16815260200163027b730063ffffffff16815260200160006001600160401b0316815260200160006001600160401b031681526020016000151581526020016000151581526020016000151581526020016001151581525081601a81518110610c6757610c67611191565b6020026020010181905250604051806101000160405280600160ff1681526020016302cd300063ffffffff16815260200160006001600160401b0316815260200160006001600160401b031681526020016000151581526020016000151581526020016000151581526020016001151581525081601b81518110610ced57610ced611191565b6020026020010181905250604051806101000160405280600160ff1681526020016302aedd8063ffffffff16815260200160006001600160401b0316815260200160006001600160401b031681526020016000151581526020016000151581526020016000151581526020016001151581525081601c81518110610d7357610d73611191565b6020026020010181905250604051806101000160405280600160ff168152602001630246b70063ffffffff16815260200160006001600160401b0316815260200160006001600160401b031681526020016000151581526020016000151581526020016000151581526020016001151581525081601d81518110610df957610df9611191565b60200260200101819052506000805b82518110156110bd576000838281518110610e2557610e25611191565b6020026020010151905060005b815160ff168110156110a8576000610e49856110c2565b80549091506000906001600160401b03600160401b8204811691610e7b9163ffffffff600160c01b83041691166111bd565b6001600160401b031614610e8d575060015b6020840151825463ffffffff909116600160a01b0263ffffffff60a01b1990911617825560408401516001600160401b031615610ee457604084015182546001600160401b0319166001600160401b039091161782555b60608401516001600160401b031615610f2257606084015182546001600160401b03909116600160401b02600160401b600160801b03199091161782555b836080015115610f3b57815463ffffffff60801b191682555b8360a0015115610f5b57815463ffffffff60c01b19166102a360c71b1782555b8360c0015115610f7a5781546001600160e01b03166102a360e71b1782555b8360e0015115610f8f57610f8f866001611145565b815463ffffffff600160c01b82048116600160801b909204161115610fcf57604051639ce1550560e01b8152600481018790526024015b60405180910390fd5b8015801561101357508154610ffa9063ffffffff600160c01b820416906001600160401b03166111bd565b8254600160401b90046001600160401b03908116911614155b1561103457604051631d86500b60e21b815260048101879052602401610fc6565b815463670f02009061105c9063ffffffff600160a01b820416906001600160401b03166111bd565b6001600160401b031614611086576040516379a8a49960e11b815260048101879052602401610fc6565b6110916001876111e8565b9550505080806110a090611200565b915050610e32565b505080806110b590611200565b915050610e08565b505050565b6000806110f060017f64404627f9392c993df73912dbfb24528266190d015c31a2a5dcf19d4c62184d61121b565b8054909150819084106111195760405163ad7d6e0960e01b815260048101859052602401610fc6565b80600001848154811061112e5761112e611191565b906000526020600020906005020192505050919050565b600061117260017f423605f996078acc205f33a6458ae6ea5c4b6179bbe6f42712c6ca48e103aa3261121b565b6000938452602052506040909120805460ff1916911515919091179055565b634e487b7160e01b600052603260045260246000fd5b634e487b7160e01b600052601160045260246000fd5b60006001600160401b038281168482168083038211156111df576111df6111a7565b01949350505050565b600082198211156111fb576111fb6111a7565b500190565b6000600019821415611214576112146111a7565b5060010190565b60008282101561122d5761122d6111a7565b50039056fea26469706673582212202628731d533f9dba5957d0da5558d516d6e79c2b1876505814a7d47d3c79ce2d64736f6c634300080a0033",
  "devdoc": {
    "errors": {
      "VestingScheduleNotFound(uint256)": [
        {
          "params": {
            "index": "vesting schedule index"
          }
        }
      ]
    },
    "kind": "dev",
    "methods": {},
    "version": 1
  },
  "userdoc": {
    "errors": {
      "VestingScheduleNotFound(uint256)": [
        {
          "notice": "The VestingSchedule was not found"
        }
      ]
    },
    "kind": "user",
    "methods": {},
    "version": 1
  },
  "storageLayout": {
    "storage": [],
    "types": null
  }
}