{
  "address": "0x8E1962EF1D436C82D99532B6AAed39eb1591F95E",
  "abi": [
    {
      "inputs": [
        {
          "internalType": "uint256",
          "name": "index",
          "type": "uint256"
        }
      ],
      "name": "VestingScheduleNotFound",
      "type": "error"
    },
    {
      "inputs": [],
      "name": "migrate",
      "outputs": [],
      "stateMutability": "nonpayable",
      "type": "function"
    }
  ],
  "transactionHash": "0xeecfea65673dd44ec915ad6872a500ab0764e9add45033e2205c42698b0c0726",
  "args": [],
  "numDeployments": 1,
  "solcInputHash": "a558bd90669cb92e25cc43ff3f3992f0",
  "bytecode": "0x608060405234801561001057600080fd5b50611108806100206000396000f3fe608060405234801561001057600080fd5b506004361061002b5760003560e01c80638fd3ab8014610030575b600080fd5b61003861003a565b005b60408051601e8082526103e08201909252600091816020015b604080516101008101825260008082526020808301829052928201819052606082018190526080820181905260a0820181905260c0820181905260e08201528252600019909201910181610053575050604080516101008101825260078152630485850060208201526000918101829052606081018290526080810182905260a0810182905260c0810182905260e081018290528251929350918391906100fc576100fc61105c565b6020026020010181905250604051806101000160405280600160ff168152602001630432768063ffffffff16815260200160006001600160401b0316815260200160006001600160401b0316815260200160001515815260200160001515815260200160001515815260200160001515815250816001815181106101825761018261105c565b6020908102919091018101919091526040805161010081018252600181526303e8a280928101929092526000908201819052606082018190526080820181905260a0820181905260c0820181905260e08201528151829060029081106101ea576101ea61105c565b6020908102919091018101919091526040805161010081018252600481526304521a809281019290925260009082018190526364e92640606083015260016080830181905260a0830181905260c083015260e08201528151829060039081106102555761025561105c565b6020908102919091018101919091526040805161010081018252600181526304005d80928101929092526000908201819052606082018190526080820181905260a0820181905260c0820181905260e08201528151829060049081106102bd576102bd61105c565b60209081029190910181019190915260408051610100810182526001815263035f8680928101929092526000908201819052606082018190526080820181905260a0820181905260c0820181905260e08201528151829060059081106103255761032561105c565b602090810291909101810191909152604080516101008101825260018152630379e480928101929092526000908201819052606082018190526080820181905260a0820181905260c0820181905260e082015281518290600690811061038d5761038d61105c565b602090810291909101810191909152604080516101008101825260018152630375f000928101929092526000908201819052606082018190526080820181905260a0820181905260c0820181905260e08201528151829060079081106103f5576103f561105c565b6020026020010181905250604051806101000160405280600160ff168152602001630335568063ffffffff16815260200160006001600160401b0316815260200160006001600160401b03168152602001600015158152602001600015158152602001600015158152602001600115158152508160088151811061047b5761047b61105c565b6020908102919091018101919091526040805161010081018252600181526304858500928101929092526000908201819052606082018190526080820181905260a0820181905260c0820181905260e08201528151829060099081106104e3576104e361105c565b6020908102919091018101919091526040805161010081018252600181526302f36b80928101929092526000908201819052606082018190526080820181905260a0820181905260c0820181905260e082015281518290600a90811061054b5761054b61105c565b6020908102919091018101919091526040805161010081018252600181526304858500928101929092526000908201819052606082018190526080820181905260a0820181905260c0820181905260e082015281518290600b9081106105b3576105b361105c565b6020908102919091018101919091526040805161010081018252600181526302f36b80928101929092526000908201819052606082018190526080820181905260a0820181905260c0820181905260e082015281518290600c90811061061b5761061b61105c565b6020908102919091018101919091526040805161010081018252600181526304858500928101929092526000908201819052606082018190526080820181905260a0820181905260c0820181905260e082015281518290600d9081106106835761068361105c565b6020908102919091018101919091526040805161010081018252600181526302f36b80928101929092526000908201819052606082018190526080820181905260a0820181905260c0820181905260e082015281518290600e9081106106eb576106eb61105c565b6020908102919091018101919091526040805161010081018252600381526304858500928101929092526000908201819052606082018190526080820181905260a0820181905260c0820181905260e082015281518290600f9081106107535761075361105c565b6020908102919091018101919091526040805161010081018252600181526304327680928101929092526000908201819052606082018190526080820181905260a0820181905260c0820181905260e08201528151829060109081106107bb576107bb61105c565b602090810291909101810191909152604080516101008101825260028152630301ec00928101929092526000908201819052606082018190526080820181905260a0820181905260c0820181905260e08201528151829060119081106108235761082361105c565b6020026020010181905250604051806101000160405280600160ff168152602001630307320063ffffffff16815260200160006001600160401b0316815260200160006001600160401b0316815260200160001515815260200160001515815260200160001515815260200160011515815250816012815181106108a9576108a961105c565b6020026020010181905250604051806101000160405280600160ff168152602001630308838063ffffffff16815260200160006001600160401b0316815260200160006001600160401b03168152602001600015158152602001600015158152602001600015158152602001600115158152508160138151811061092f5761092f61105c565b6020026020010181905250604051806101000160405280600160ff168152602001630309d50063ffffffff16815260200160006001600160401b0316815260200160006001600160401b0316815260200160001515815260200160001515815260200160001515815260200160011515815250816014815181106109b5576109b561105c565b6020026020010181905250604051806101000160405280600160ff168152602001630307320063ffffffff16815260200160006001600160401b0316815260200160006001600160401b031681526020016000151581526020016000151581526020016000151581526020016001151581525081601581518110610a3b57610a3b61105c565b602090810291909101810191909152604080516101008101825260028152630309d500928101929092526000908201819052606082018190526080820181905260a0820181905260c0820152600160e0820152815182906016908110610aa357610aa361105c565b60209081029190910181019190915260408051610100810182526019815263028de80092810192909252636480fde0908201526364824f606060820152600060808201819052600160a0830181905260c083015260e0820152815182906017908110610b1157610b1161105c565b6020908102919091018101919091526040805161010081018252600181526302723880928101929092526000908201819052606082018190526080820181905260a0820181905260c0820181905260e0820152815182906018908110610b7957610b7961105c565b6020908102919091018101919091526040805161010081018252600181526302e8df80928101929092526000908201819052606082018190526080820181905260a0820181905260c0820181905260e0820152815182906019908110610be157610be161105c565b6020026020010181905250604051806101000160405280600160ff16815260200163027cc48063ffffffff16815260200160006001600160401b0316815260200160006001600160401b031681526020016000151581526020016000151581526020016000151581526020016001151581525081601a81518110610c6757610c6761105c565b6020026020010181905250604051806101000160405280600160ff1681526020016302ce818063ffffffff16815260200160006001600160401b0316815260200160006001600160401b031681526020016000151581526020016000151581526020016000151581526020016001151581525081601b81518110610ced57610ced61105c565b6020026020010181905250604051806101000160405280600160ff1681526020016302b02f0063ffffffff16815260200160006001600160401b0316815260200160006001600160401b031681526020016000151581526020016000151581526020016000151581526020016001151581525081601c81518110610d7357610d7361105c565b6020026020010181905250604051806101000160405280600160ff168152602001630248088063ffffffff16815260200160006001600160401b0316815260200160006001600160401b031681526020016000151581526020016000151581526020016000151581526020016001151581525081601d81518110610df957610df961105c565b60200260200101819052506000805b8251811015610f84576000838281518110610e2557610e2561105c565b6020026020010151905060005b815160ff16811015610f6f576000610e4985610f89565b6020840151815463ffffffff909116600160a01b0263ffffffff60a01b1990911617815560408401519091506001600160401b031615610ea357604083015181546001600160401b0319166001600160401b039091161781555b60608301516001600160401b031615610ee157606083015181546001600160401b03909116600160401b02600160401b600160801b03199091161781555b826080015115610efa57805463ffffffff60801b191681555b8260a0015115610f1a57805463ffffffff60c01b19166102a360c71b1781555b8260c0015115610f395780546001600160e01b03166102a360e71b1781555b8260e0015115610f4e57610f4e856001611010565b610f59600186611088565b9450508080610f67906110a0565b915050610e32565b50508080610f7c906110a0565b915050610e08565b505050565b600080610fb760017f64404627f9392c993df73912dbfb24528266190d015c31a2a5dcf19d4c62184d6110bb565b805490915081908410610fe45760405163ad7d6e0960e01b81526004810185905260240160405180910390fd5b806000018481548110610ff957610ff961105c565b906000526020600020906005020192505050919050565b600061103d60017ff30173c609a5f765b8000ce5e6cd5ec4ebff9a8e8bed2fe382782a6f48371c156110bb565b6000938452602052506040909120805460ff1916911515919091179055565b634e487b7160e01b600052603260045260246000fd5b634e487b7160e01b600052601160045260246000fd5b6000821982111561109b5761109b611072565b500190565b60006000198214156110b4576110b4611072565b5060010190565b6000828210156110cd576110cd611072565b50039056fea26469706673582212206e5cc7d6336cf8350973dd4433da05905596c5527ad112ddd37c9c920dd6384e64736f6c634300080a0033",
  "devdoc": {
    "errors": {
      "VestingScheduleNotFound(uint256)": [
        {
          "params": {
            "index": "vesting schedule index"
          }
        }
      ]
    },
    "kind": "dev",
    "methods": {},
    "version": 1
  },
  "userdoc": {
    "errors": {
      "VestingScheduleNotFound(uint256)": [
        {
          "notice": "The VestingSchedule was not found"
        }
      ]
    },
    "kind": "user",
    "methods": {},
    "version": 1
  },
  "storageLayout": {
    "storage": [],
    "types": null
  }
}