{
  "address": "0xB77Ef4b3Bf39a31fc9BDbf0d96579c85Cbc2f715",
  "abi": [
    {
      "inputs": [],
      "name": "getCredentials",
      "outputs": [
        {
          "internalType": "bytes32",
          "name": "",
          "type": "bytes32"
        }
      ],
      "stateMutability": "view",
      "type": "function"
    }
  ],
  "transactionHash": "0x54687fcbebd17e17f7c13b31be41b826a2b98f130d3948d42d8eaf32bcf0a3ff",
  "args": [],
  "numDeployments": 1,
  "solcInputHash": "9bd7e803972243adbcfac637d96e01d2",
  "bytecode": "0x608060405234801561001057600080fd5b5060b38061001f6000396000f3fe6080604052348015600f57600080fd5b506004361060285760003560e01c80632294133814602d575b600080fd5b60336045565b60405190815260200160405180910390f35b6000605330600160f81b6058565b919050565b60008219821115607857634e487b7160e01b600052601160045260246000fd5b50019056fea264697066735822122042046b8c19f2c1ae6b7a3f2c915a5b741ec60fec028a487707848a7fd2a58be264736f6c634300080a0033",
  "devdoc": {
    "author": "Kiln",
    "kind": "dev",
    "methods": {
      "getCredentials()": {
        "returns": {
          "_0": "The withdrawal credentials"
        }
      }
    },
    "title": "Withdraw (v1)",
    "version": 1
  },
  "userdoc": {
    "kind": "user",
    "methods": {
      "getCredentials()": {
        "notice": "Retrieve the withdrawal credentials to use"
      }
    },
    "notice": "This contract is a stub contract that should be upgradeable to be adapted with future withdrawal specs",
    "version": 1
  },
  "storageLayout": {
    "storage": [],
    "types": null
  }
}