{
  "address": "0xB668CbEf99b8483179DE20b76c33A454AbDFEEF7",
  "abi": [
    {
      "inputs": [],
      "name": "getCredentials",
      "outputs": [
        {
          "internalType": "bytes32",
          "name": "",
          "type": "bytes32"
        }
      ],
      "stateMutability": "view",
      "type": "function"
    }
  ],
  "transactionHash": "0xbfb34d3df1e7556f30e92a50a105449fd595e20d8a3d478fe3b549a5a59848ac",
  "args": [],
  "numDeployments": 1,
  "solcInputHash": "743aaafd94c448668e7520864799fe5a",
  "bytecode": "0x608060405234801561001057600080fd5b5060b38061001f6000396000f3fe6080604052348015600f57600080fd5b506004361060285760003560e01c80632294133814602d575b600080fd5b60336045565b60405190815260200160405180910390f35b6000605330600160f81b6058565b919050565b60008219821115607857634e487b7160e01b600052601160045260246000fd5b50019056fea2646970667358221220455164a3600cefebb4e6b4f103cc70601107fd10f273f5cd6f38a28e99b16dd864736f6c634300080a0033",
  "devdoc": {
    "author": "Kiln",
    "kind": "dev",
    "methods": {},
    "title": "Withdraw (v1)",
    "version": 1
  },
  "userdoc": {
    "kind": "user",
    "methods": {},
    "notice": "This contract is a stub contract that should be upgradeable to be adapted with future withdrawal specs",
    "version": 1
  },
  "storageLayout": {
    "storage": [],
    "types": null
  }
}